{
  "transactions": [
    {
      "hash": "0x1c819f3a2e6f21244ad186e68e801f2d7a51d2e09b322a7a85fb304daafee463",
      "transactionType": "CALL",
      "contractName": null,
      "contractAddress": "0x2843c269d2a64ecfa63548e8b3fc0fd23b7f70cb",
      "function": "handleOps((address,uint256,bytes,bytes,uint256,uint256,uint256,uint256,uint256,bytes,bytes)[],address)",
      "arguments": [
        "[(0x2e2B1c42E38f5af81771e65D87729E57ABD1337a, 4724, 0x, 0xb61d27f6000000000000000000000000010700808d59d2bb92257fcafacfe8e5bff7ab870000000000000000000000000000000000000000000000000000000000000000000000000000000000000000000000000000000000000000000000000000006000000000000000000000000000000000000000000000000000000000000000449dc29fac000000000000000000000000d157904639e89df05e89e0dabeec99ae3d74f9aa00000000000000000000000000000000000000000000003635c9adc5dea0000000000000000000000000000000000000000000000000000000000000, 4000000, 210000, 21000, 1, 1000000000, 0x0000000000000000000000000000000000000000, 0x5e1b723627018bc6cf9dbb1f19601c2e6ee5199e25b366c6069207ddfcb431da23ec3e4d8cbe9e10d3fc4265e20883a55a414eb89f4e4e202fab2ef00a889c431be38c0f0b52bc69db87f10b71a7215209bc14acd4433c662100ecb34f5993dd9f7b733f78956c3190cc614015919fcbd83ca8c3f32871094fe25b5e1741f9d81c1c)]",
        "0x660ad4B5A74130a4796B4d54BC6750Ae93C86e6c"
      ],
      "transaction": {
        "from": "0x660ad4b5a74130a4796b4d54bc6750ae93c86e6c",
        "to": "0x2843c269d2a64ecfa63548e8b3fc0fd23b7f70cb",
        "value": "0x0",
        "input": "0x1fad948c0000000000000000000000000000000000000000000000000000000000000040000000000000000000000000660ad4b5a74130a4796b4d54bc6750ae93c86e6c000000000000000000000000000000000000000000000000000000000000000100000000000000000000000000000000000000000000000000000000000000200000000000000000000000002e2b1c42e38f5af81771e65d87729e57abd1337a00000000000000000000000000000000000000000000000000000000000012740000000000000000000000000000000000000000000000000000000000000160000000000000000000000000000000000000000000000000000000000000018000000000000000000000000000000000000000000000000000000000003d0900000000000000000000000000000000000000000000000000000000000003345000000000000000000000000000000000000000000000000000000000000052080000000000000000000000000000000000000000000000000000000000000001000000000000000000000000000000000000000000000000000000003b9aca0000000000000000000000000000000000000000000000000000000000000002a000000000000000000000000000000000000000000000000000000000000002e0000000000000000000000000000000000000000000000000000000000000000000000000000000000000000000000000000000000000000000000000000000e4b61d27f6000000000000000000000000010700808d59d2bb92257fcafacfe8e5bff7ab870000000000000000000000000000000000000000000000000000000000000000000000000000000000000000000000000000000000000000000000000000006000000000000000000000000000000000000000000000000000000000000000449dc29fac000000000000000000000000d157904639e89df05e89e0dabeec99ae3d74f9aa00000000000000000000000000000000000000000000003635c9adc5dea0000000000000000000000000000000000000000000000000000000000000000000000000000000000000000000000000000000000000000000000000000000000000000000000000000000000000000000000000000000000014000000000000000000000000000000000000000000000000000000000000000000000000000000000000000000000000000000000000000000000000000000825e1b723627018bc6cf9dbb1f19601c2e6ee5199e25b366c6069207ddfcb431da23ec3e4d8cbe9e10d3fc4265e20883a55a414eb89f4e4e202fab2ef00a889c431be38c0f0b52bc69db87f10b71a7215209bc14acd4433c662100ecb34f5993dd9f7b733f78956c3190cc614015919fcbd83ca8c3f32871094fe25b5e1741f9d81c1c000000000000000000000000000000000000000000000000000000000000",
        "nonce": "0x4bde7",
        "chainId": "0x1ecf"
      },
      "additionalContracts": [],
      "isFixedGasLimit": false
    },
    {
      "hash": "0xda4cdcd4b57caa506e29bf54d5f637b237bac27e1015b4af1951ab662ba231cd",
      "transactionType": "CALL",
      "contractName": null,
      "contractAddress": "0x2843c269d2a64ecfa63548e8b3fc0fd23b7f70cb",
      "function": "handleOps((address,uint256,bytes,bytes,uint256,uint256,uint256,uint256,uint256,bytes,bytes)[],address)",
      "arguments": [
        "[(0x2e2B1c42E38f5af81771e65D87729E57ABD1337a, 4725, 0x, 0xb61d27f6000000000000000000000000010700808d59d2bb92257fcafacfe8e5bff7ab8700000000000000000000000000000000000000000000000000000000000000000000000000000000000000000000000000000000000000000000000000000060000000000000000000000000000000000000000000000000000000000000004440c10f190000000000000000000000002e2b1c42e38f5af81771e65d87729e57abd1337a00000000000000000000000000000000000000000000003635c9adc5dea0000000000000000000000000000000000000000000000000000000000000, 4000000, 210000, 21000, 1, 1000000000, 0x0000000000000000000000000000000000000000, 0x281f6c6a3f75dbf3863c7d33aa66248e11ae5ce3ebdb60d00fa6540f8adc5d7e557941b105ae942d8474b74d41f310aba7e6f985a29d28ac1b330c4b80a462371ca5aa14e43c58dd7389bc0a00689f473a6aa0c83c0f869c0db575c351cde208450d2b2890e66b6baf24c15abdf661515a097ab1c999babb198b203c77433664b81b)]",
        "0x660ad4B5A74130a4796B4d54BC6750Ae93C86e6c"
      ],
      "transaction": {
        "from": "0x660ad4b5a74130a4796b4d54bc6750ae93c86e6c",
        "to": "0x2843c269d2a64ecfa63548e8b3fc0fd23b7f70cb",
        "value": "0x0",
        "input": "0x1fad948c0000000000000000000000000000000000000000000000000000000000000040000000000000000000000000660ad4b5a74130a4796b4d54bc6750ae93c86e6c000000000000000000000000000000000000000000000000000000000000000100000000000000000000000000000000000000000000000000000000000000200000000000000000000000002e2b1c42e38f5af81771e65d87729e57abd1337a00000000000000000000000000000000000000000000000000000000000012750000000000000000000000000000000000000000000000000000000000000160000000000000000000000000000000000000000000000000000000000000018000000000000000000000000000000000000000000000000000000000003d0900000000000000000000000000000000000000000000000000000000000003345000000000000000000000000000000000000000000000000000000000000052080000000000000000000000000000000000000000000000000000000000000001000000000000000000000000000000000000000000000000000000003b9aca0000000000000000000000000000000000000000000000000000000000000002a000000000000000000000000000000000000000000000000000000000000002e0000000000000000000000000000000000000000000000000000000000000000000000000000000000000000000000000000000000000000000000000000000e4b61d27f6000000000000000000000000010700808d59d2bb92257fcafacfe8e5bff7ab8700000000000000000000000000000000000000000000000000000000000000000000000000000000000000000000000000000000000000000000000000000060000000000000000000000000000000000000000000000000000000000000004440c10f190000000000000000000000002e2b1c42e38f5af81771e65d87729e57abd1337a00000000000000000000000000000000000000000000003635c9adc5dea000000000000000000000000000000000000000000000000000000000000000000000000000000000000000000000000000000000000000000000000000000000000000000000000000000000000000000000000000000000001400000000000000000000000000000000000000000000000000000000000000000000000000000000000000000000000000000000000000000000000000000082281f6c6a3f75dbf3863c7d33aa66248e11ae5ce3ebdb60d00fa6540f8adc5d7e557941b105ae942d8474b74d41f310aba7e6f985a29d28ac1b330c4b80a462371ca5aa14e43c58dd7389bc0a00689f473a6aa0c83c0f869c0db575c351cde208450d2b2890e66b6baf24c15abdf661515a097ab1c999babb198b203c77433664b81b000000000000000000000000000000000000000000000000000000000000",
        "nonce": "0x4bde8",
        "chainId": "0x1ecf"
      },
      "additionalContracts": [],
      "isFixedGasLimit": false
    }
  ],
  "receipts": [
    {
      "status": "0x1",
      "cumulativeGasUsed": "0x347c9",
      "logs": [
        {
          "address": "0x2843c269d2a64ecfa63548e8b3fc0fd23b7f70cb",
          "topics": [
            "0xbb47ee3e183a558b1a2ff0874b079f3fc5478b7454eacf2bfc5af2ff5878f972"
          ],
          "data": "0x",
          "blockHash": "0xd141bddb0c3dbb0e1c8c4121c4da38cb28d72664ee86dbd35cbb4a05f3919008",
          "blockNumber": "0xbee16",
          "transactionHash": "0x1c819f3a2e6f21244ad186e68e801f2d7a51d2e09b322a7a85fb304daafee463",
          "transactionIndex": "0x1",
          "logIndex": "0x0",
          "removed": false
        },
        {
          "address": "0x010700808d59d2bb92257fcafacfe8e5bff7ab87",
          "topics": [
            "0xddf252ad1be2c89b69c2b068fc378daa952ba7f163c4a11628f55a4df523b3ef",
            "0x000000000000000000000000d157904639e89df05e89e0dabeec99ae3d74f9aa",
            "0x0000000000000000000000000000000000000000000000000000000000000000"
          ],
          "data": "0x00000000000000000000000000000000000000000000003635c9adc5dea00000",
          "blockHash": "0xd141bddb0c3dbb0e1c8c4121c4da38cb28d72664ee86dbd35cbb4a05f3919008",
          "blockNumber": "0xbee16",
          "transactionHash": "0x1c819f3a2e6f21244ad186e68e801f2d7a51d2e09b322a7a85fb304daafee463",
          "transactionIndex": "0x1",
          "logIndex": "0x1",
          "removed": false
        },
        {
          "address": "0x2843c269d2a64ecfa63548e8b3fc0fd23b7f70cb",
          "topics": [
            "0x49628fd1471006c1482da88028e9ce4dbb080b815c9b0344d39e5a8e6ec1419f",
            "0xb4c55b7cd55999790a56186811058c5985d6579cc788dab48c18178ac4dd6815",
            "0x0000000000000000000000002e2b1c42e38f5af81771e65d87729e57abd1337a",
            "0x0000000000000000000000000000000000000000000000000000000000000000"
          ],
          "data": "0x00000000000000000000000000000000000000000000000000000000000012740000000000000000000000000000000000000000000000000000000000000001000000000000000000000000000000000000000000000000000000000008d999000000000000000000000000000000000000000000000000000000000008d999",
          "blockHash": "0xd141bddb0c3dbb0e1c8c4121c4da38cb28d72664ee86dbd35cbb4a05f3919008",
          "blockNumber": "0xbee16",
          "transactionHash": "0x1c819f3a2e6f21244ad186e68e801f2d7a51d2e09b322a7a85fb304daafee463",
          "transactionIndex": "0x1",
          "logIndex": "0x2",
          "removed": false
        }
      ],
      "logsBloom": "0x00002000000400000000000000000000000000000000000000000000000003000008000000000000000000010000000000000100000000000000020000000000000000000000000000000008000000000000000000000000000000000000000800000000020000000000000000000800002000000000000000000010000000000000000000000000000000000000800000000000000000000000000000000000001400000000000000400000000000000000000000000000000002000000000000000002000000100001000000000000000000000000000000000000000020000000000000010000010000000000800000000000000000000000000000000800",
      "type": "0x2",
      "transactionHash": "0x1c819f3a2e6f21244ad186e68e801f2d7a51d2e09b322a7a85fb304daafee463",
      "transactionIndex": "0x1",
      "blockHash": "0xd141bddb0c3dbb0e1c8c4121c4da38cb28d72664ee86dbd35cbb4a05f3919008",
      "blockNumber": "0xbee16",
      "gasUsed": "0x347c9",
      "effectiveGasPrice": "0x5f5e100",
      "from": "0x660ad4b5a74130a4796b4d54bc6750ae93c86e6c",
      "to": "0x2843c269d2a64ecfa63548e8b3fc0fd23b7f70cb",
      "contractAddress": null,
      "gasUsedForL1": "0x2be",
      "l1BlockNumber": "0x151d061"
    },
    {
      "status": "0x1",
      "cumulativeGasUsed": "0x38c08",
      "logs": [
        {
          "address": "0x2843c269d2a64ecfa63548e8b3fc0fd23b7f70cb",
          "topics": [
            "0xbb47ee3e183a558b1a2ff0874b079f3fc5478b7454eacf2bfc5af2ff5878f972"
          ],
          "data": "0x",
          "blockHash": "0x8f794cdc7546fa41eaad0e77290443e4366a062b94c250a2a0b0e14aaea3b869",
          "blockNumber": "0xbee17",
          "transactionHash": "0xda4cdcd4b57caa506e29bf54d5f637b237bac27e1015b4af1951ab662ba231cd",
          "transactionIndex": "0x1",
          "logIndex": "0x0",
          "removed": false
        },
        {
          "address": "0x010700808d59d2bb92257fcafacfe8e5bff7ab87",
          "topics": [
            "0xddf252ad1be2c89b69c2b068fc378daa952ba7f163c4a11628f55a4df523b3ef",
            "0x0000000000000000000000000000000000000000000000000000000000000000",
            "0x0000000000000000000000002e2b1c42e38f5af81771e65d87729e57abd1337a"
          ],
          "data": "0x00000000000000000000000000000000000000000000003635c9adc5dea00000",
          "blockHash": "0x8f794cdc7546fa41eaad0e77290443e4366a062b94c250a2a0b0e14aaea3b869",
          "blockNumber": "0xbee17",
          "transactionHash": "0xda4cdcd4b57caa506e29bf54d5f637b237bac27e1015b4af1951ab662ba231cd",
          "transactionIndex": "0x1",
          "logIndex": "0x1",
          "removed": false
        },
        {
          "address": "0x2843c269d2a64ecfa63548e8b3fc0fd23b7f70cb",
          "topics": [
            "0x49628fd1471006c1482da88028e9ce4dbb080b815c9b0344d39e5a8e6ec1419f",
            "0x5a3a883aa79bcfc4f4ad0dc6ad68c7330d0eb03dc470bfa456581c3e36905f5f",
            "0x0000000000000000000000002e2b1c42e38f5af81771e65d87729e57abd1337a",
            "0x0000000000000000000000000000000000000000000000000000000000000000"
          ],
          "data": "0x0000000000000000000000000000000000000000000000000000000000001275000000000000000000000000000000000000000000000000000000000000000100000000000000000000000000000000000000000000000000000000000917200000000000000000000000000000000000000000000000000000000000091720",
          "blockHash": "0x8f794cdc7546fa41eaad0e77290443e4366a062b94c250a2a0b0e14aaea3b869",
          "blockNumber": "0xbee17",
          "transactionHash": "0xda4cdcd4b57caa506e29bf54d5f637b237bac27e1015b4af1951ab662ba231cd",
          "transactionIndex": "0x1",
          "logIndex": "0x2",
          "removed": false
        }
      ],
      "logsBloom": "0x00000000000400000000000000000000000000000000000000000000000000000008000000000000000000010000000000000000000000000000020000000000000000000000000000000008000000000000000000000000000002000000000800000000020000000000000000000800002000000000000000000010000000000000000000000000000000000000800000000000000000000000000000000000001400000000000000400200000000000000000000000000000002000000000000000002000000100001000000000000000000000000000000000000000020000000000000010000000000000000800000000400000000000000000000000000",
      "type": "0x2",
      "transactionHash": "0xda4cdcd4b57caa506e29bf54d5f637b237bac27e1015b4af1951ab662ba231cd",
      "transactionIndex": "0x1",
      "blockHash": "0x8f794cdc7546fa41eaad0e77290443e4366a062b94c250a2a0b0e14aaea3b869",
      "blockNumber": "0xbee17",
      "gasUsed": "0x38c08",
      "effectiveGasPrice": "0x5f5e100",
      "from": "0x660ad4b5a74130a4796b4d54bc6750ae93c86e6c",
      "to": "0x2843c269d2a64ecfa63548e8b3fc0fd23b7f70cb",
      "contractAddress": null,
      "gasUsedForL1": "0x2a0",
      "l1BlockNumber": "0x151d061"
    }
  ],
  "libraries": [],
  "pending": [],
  "returns": {},
  "timestamp": 1743087262,
  "chain": 7887,
  "commit": "c74c8863"
}