{
  "transactions": [
    {
      "hash": "0xa08b6a8c19916bf205cdea971f2b6bc96cd7a65888ebb24860bc38f5401b62de",
      "transactionType": "CALL",
      "contractName": null,
      "contractAddress": "0x2843c269d2a64ecfa63548e8b3fc0fd23b7f70cb",
      "function": "handleOps((address,uint256,bytes,bytes,uint256,uint256,uint256,uint256,uint256,bytes,bytes)[],address)",
      "arguments": [
        "[(0x2e2B1c42E38f5af81771e65D87729E57ABD1337a, 4681, 0x, 0xb61d27f6000000000000000000000000010700808d59d2bb92257fcafacfe8e5bff7ab870000000000000000000000000000000000000000000000000000000000000000000000000000000000000000000000000000000000000000000000000000006000000000000000000000000000000000000000000000000000000000000000449dc29fac000000000000000000000000d157904639e89df05e89e0dabeec99ae3d74f9aa0000000000000000000000000000000000000000000007b2899639722938000000000000000000000000000000000000000000000000000000000000, 4000000, 210000, 21000, 1, 1000000000, 0x0000000000000000000000000000000000000000, 0x25b6d2eed21afb49587e1c586349ff4b7909d1a1d5fe22ea06e5890464adaecc2a0dc1d45a96aafe6424d53a330e9db741d53ead644ad45f4b0598552cef924d1b8dfcd759e965e19f0b179543aa26cd1e454ebfa2c7df7b9ec43d0d3fc1838d2d43fc5879176a44c41da0e355c94ef57fb6270df0ccfd89d9ad871c6a9c25b2f21b)]",
        "0x660ad4B5A74130a4796B4d54BC6750Ae93C86e6c"
      ],
      "transaction": {
        "from": "0x660ad4b5a74130a4796b4d54bc6750ae93c86e6c",
        "to": "0x2843c269d2a64ecfa63548e8b3fc0fd23b7f70cb",
        "value": "0x0",
        "input": "0x1fad948c0000000000000000000000000000000000000000000000000000000000000040000000000000000000000000660ad4b5a74130a4796b4d54bc6750ae93c86e6c000000000000000000000000000000000000000000000000000000000000000100000000000000000000000000000000000000000000000000000000000000200000000000000000000000002e2b1c42e38f5af81771e65d87729e57abd1337a00000000000000000000000000000000000000000000000000000000000012490000000000000000000000000000000000000000000000000000000000000160000000000000000000000000000000000000000000000000000000000000018000000000000000000000000000000000000000000000000000000000003d0900000000000000000000000000000000000000000000000000000000000003345000000000000000000000000000000000000000000000000000000000000052080000000000000000000000000000000000000000000000000000000000000001000000000000000000000000000000000000000000000000000000003b9aca0000000000000000000000000000000000000000000000000000000000000002a000000000000000000000000000000000000000000000000000000000000002e0000000000000000000000000000000000000000000000000000000000000000000000000000000000000000000000000000000000000000000000000000000e4b61d27f6000000000000000000000000010700808d59d2bb92257fcafacfe8e5bff7ab870000000000000000000000000000000000000000000000000000000000000000000000000000000000000000000000000000000000000000000000000000006000000000000000000000000000000000000000000000000000000000000000449dc29fac000000000000000000000000d157904639e89df05e89e0dabeec99ae3d74f9aa0000000000000000000000000000000000000000000007b28996397229380000000000000000000000000000000000000000000000000000000000000000000000000000000000000000000000000000000000000000000000000000000000000000000000000000000000000000000000000000000000140000000000000000000000000000000000000000000000000000000000000000000000000000000000000000000000000000000000000000000000000000008225b6d2eed21afb49587e1c586349ff4b7909d1a1d5fe22ea06e5890464adaecc2a0dc1d45a96aafe6424d53a330e9db741d53ead644ad45f4b0598552cef924d1b8dfcd759e965e19f0b179543aa26cd1e454ebfa2c7df7b9ec43d0d3fc1838d2d43fc5879176a44c41da0e355c94ef57fb6270df0ccfd89d9ad871c6a9c25b2f21b000000000000000000000000000000000000000000000000000000000000",
        "nonce": "0x4bdb3",
        "chainId": "0x1ecf"
      },
      "additionalContracts": [],
      "isFixedGasLimit": false
    },
    {
      "hash": "0x28587905f5b3205584c19394551537c2dd98801056b32e499f74b13eb8cb896a",
      "transactionType": "CALL",
      "contractName": null,
      "contractAddress": "0x2843c269d2a64ecfa63548e8b3fc0fd23b7f70cb",
      "function": "handleOps((address,uint256,bytes,bytes,uint256,uint256,uint256,uint256,uint256,bytes,bytes)[],address)",
      "arguments": [
        "[(0x2e2B1c42E38f5af81771e65D87729E57ABD1337a, 4682, 0x, 0xb61d27f6000000000000000000000000010700808d59d2bb92257fcafacfe8e5bff7ab8700000000000000000000000000000000000000000000000000000000000000000000000000000000000000000000000000000000000000000000000000000060000000000000000000000000000000000000000000000000000000000000004440c10f190000000000000000000000002e2b1c42e38f5af81771e65d87729e57abd1337a0000000000000000000000000000000000000000000007b2899639722938000000000000000000000000000000000000000000000000000000000000, 4000000, 210000, 21000, 1, 1000000000, 0x0000000000000000000000000000000000000000, 0xba66b00d00c82941ac218140e0d1664a77ec62bca073255ae77368472297401d0cae80fade056785bd8590f5a9eebde6612cb6d3aef6fb11c61973d5d87b939b1c2ea16f4e508ea81530a35ba6dbadf2e3aa0d96cf8bd4ea9a157edbbcd2e3653874b4f283f52b7b66290dff853a5dd6f217ed82063d5d8c3e9beccc0af77c42911c)]",
        "0x660ad4B5A74130a4796B4d54BC6750Ae93C86e6c"
      ],
      "transaction": {
        "from": "0x660ad4b5a74130a4796b4d54bc6750ae93c86e6c",
        "to": "0x2843c269d2a64ecfa63548e8b3fc0fd23b7f70cb",
        "value": "0x0",
        "input": "0x1fad948c0000000000000000000000000000000000000000000000000000000000000040000000000000000000000000660ad4b5a74130a4796b4d54bc6750ae93c86e6c000000000000000000000000000000000000000000000000000000000000000100000000000000000000000000000000000000000000000000000000000000200000000000000000000000002e2b1c42e38f5af81771e65d87729e57abd1337a000000000000000000000000000000000000000000000000000000000000124a0000000000000000000000000000000000000000000000000000000000000160000000000000000000000000000000000000000000000000000000000000018000000000000000000000000000000000000000000000000000000000003d0900000000000000000000000000000000000000000000000000000000000003345000000000000000000000000000000000000000000000000000000000000052080000000000000000000000000000000000000000000000000000000000000001000000000000000000000000000000000000000000000000000000003b9aca0000000000000000000000000000000000000000000000000000000000000002a000000000000000000000000000000000000000000000000000000000000002e0000000000000000000000000000000000000000000000000000000000000000000000000000000000000000000000000000000000000000000000000000000e4b61d27f6000000000000000000000000010700808d59d2bb92257fcafacfe8e5bff7ab8700000000000000000000000000000000000000000000000000000000000000000000000000000000000000000000000000000000000000000000000000000060000000000000000000000000000000000000000000000000000000000000004440c10f190000000000000000000000002e2b1c42e38f5af81771e65d87729e57abd1337a0000000000000000000000000000000000000000000007b289963972293800000000000000000000000000000000000000000000000000000000000000000000000000000000000000000000000000000000000000000000000000000000000000000000000000000000000000000000000000000000001400000000000000000000000000000000000000000000000000000000000000000000000000000000000000000000000000000000000000000000000000000082ba66b00d00c82941ac218140e0d1664a77ec62bca073255ae77368472297401d0cae80fade056785bd8590f5a9eebde6612cb6d3aef6fb11c61973d5d87b939b1c2ea16f4e508ea81530a35ba6dbadf2e3aa0d96cf8bd4ea9a157edbbcd2e3653874b4f283f52b7b66290dff853a5dd6f217ed82063d5d8c3e9beccc0af77c42911c000000000000000000000000000000000000000000000000000000000000",
        "nonce": "0x4bdb4",
        "chainId": "0x1ecf"
      },
      "additionalContracts": [],
      "isFixedGasLimit": false
    }
  ],
  "receipts": [
    {
      "status": "0x1",
      "cumulativeGasUsed": "0x3509b",
      "logs": [
        {
          "address": "0x2843c269d2a64ecfa63548e8b3fc0fd23b7f70cb",
          "topics": [
            "0xbb47ee3e183a558b1a2ff0874b079f3fc5478b7454eacf2bfc5af2ff5878f972"
          ],
          "data": "0x",
          "blockHash": "0x22f1e5775165f3d907d026768adc254287c6eb14d75f75cadc6b2417b72c0634",
          "blockNumber": "0xbe0b8",
          "transactionHash": "0xa08b6a8c19916bf205cdea971f2b6bc96cd7a65888ebb24860bc38f5401b62de",
          "transactionIndex": "0x1",
          "logIndex": "0x0",
          "removed": false
        },
        {
          "address": "0x010700808d59d2bb92257fcafacfe8e5bff7ab87",
          "topics": [
            "0xddf252ad1be2c89b69c2b068fc378daa952ba7f163c4a11628f55a4df523b3ef",
            "0x000000000000000000000000d157904639e89df05e89e0dabeec99ae3d74f9aa",
            "0x0000000000000000000000000000000000000000000000000000000000000000"
          ],
          "data": "0x0000000000000000000000000000000000000000000007b28996397229380000",
          "blockHash": "0x22f1e5775165f3d907d026768adc254287c6eb14d75f75cadc6b2417b72c0634",
          "blockNumber": "0xbe0b8",
          "transactionHash": "0xa08b6a8c19916bf205cdea971f2b6bc96cd7a65888ebb24860bc38f5401b62de",
          "transactionIndex": "0x1",
          "logIndex": "0x1",
          "removed": false
        },
        {
          "address": "0x2843c269d2a64ecfa63548e8b3fc0fd23b7f70cb",
          "topics": [
            "0x49628fd1471006c1482da88028e9ce4dbb080b815c9b0344d39e5a8e6ec1419f",
            "0x9c6c6f2923888a230c1e1292b8152024c93b45acb48a9c9fbfae9fe8794a81d4",
            "0x0000000000000000000000002e2b1c42e38f5af81771e65d87729e57abd1337a",
            "0x0000000000000000000000000000000000000000000000000000000000000000"
          ],
          "data": "0x00000000000000000000000000000000000000000000000000000000000012490000000000000000000000000000000000000000000000000000000000000001000000000000000000000000000000000000000000000000000000000008e1b8000000000000000000000000000000000000000000000000000000000008e1b8",
          "blockHash": "0x22f1e5775165f3d907d026768adc254287c6eb14d75f75cadc6b2417b72c0634",
          "blockNumber": "0xbe0b8",
          "transactionHash": "0xa08b6a8c19916bf205cdea971f2b6bc96cd7a65888ebb24860bc38f5401b62de",
          "transactionIndex": "0x1",
          "logIndex": "0x2",
          "removed": false
        }
      ],
      "logsBloom": "0x00002000000400000000020000000000000000000000000000000000000001000008000000000000000000010000000000000000000000000000020000000000000000000000000000000008400000000000000000000000000000000000000800000000020000000000000000000800002000000000000000000010000000000000000000000000000000000000800000000000000000000000000000000000001400000000000000400000000000000000000000000000000002080000000000000002000000100001000000000000000000000000000000000000000020000000000000010000000000000000800000000000000000000000000000000800",
      "type": "0x2",
      "transactionHash": "0xa08b6a8c19916bf205cdea971f2b6bc96cd7a65888ebb24860bc38f5401b62de",
      "transactionIndex": "0x1",
      "blockHash": "0x22f1e5775165f3d907d026768adc254287c6eb14d75f75cadc6b2417b72c0634",
      "blockNumber": "0xbe0b8",
      "gasUsed": "0x3509b",
      "effectiveGasPrice": "0x5f5e100",
      "from": "0x660ad4b5a74130a4796b4d54bc6750ae93c86e6c",
      "to": "0x2843c269d2a64ecfa63548e8b3fc0fd23b7f70cb",
      "contractAddress": null,
      "gasUsedForL1": "0x272",
      "l1BlockNumber": "0x15188fd"
    },
    {
      "status": "0x1",
      "cumulativeGasUsed": "0x38b82",
      "logs": [
        {
          "address": "0x2843c269d2a64ecfa63548e8b3fc0fd23b7f70cb",
          "topics": [
            "0xbb47ee3e183a558b1a2ff0874b079f3fc5478b7454eacf2bfc5af2ff5878f972"
          ],
          "data": "0x",
          "blockHash": "0xeb88ed8b7e181a04d4356664abd40a2216925f1d29f38c1a482635d8f679f10b",
          "blockNumber": "0xbe0b9",
          "transactionHash": "0x28587905f5b3205584c19394551537c2dd98801056b32e499f74b13eb8cb896a",
          "transactionIndex": "0x1",
          "logIndex": "0x0",
          "removed": false
        },
        {
          "address": "0x010700808d59d2bb92257fcafacfe8e5bff7ab87",
          "topics": [
            "0xddf252ad1be2c89b69c2b068fc378daa952ba7f163c4a11628f55a4df523b3ef",
            "0x0000000000000000000000000000000000000000000000000000000000000000",
            "0x0000000000000000000000002e2b1c42e38f5af81771e65d87729e57abd1337a"
          ],
          "data": "0x0000000000000000000000000000000000000000000007b28996397229380000",
          "blockHash": "0xeb88ed8b7e181a04d4356664abd40a2216925f1d29f38c1a482635d8f679f10b",
          "blockNumber": "0xbe0b9",
          "transactionHash": "0x28587905f5b3205584c19394551537c2dd98801056b32e499f74b13eb8cb896a",
          "transactionIndex": "0x1",
          "logIndex": "0x1",
          "removed": false
        },
        {
          "address": "0x2843c269d2a64ecfa63548e8b3fc0fd23b7f70cb",
          "topics": [
            "0x49628fd1471006c1482da88028e9ce4dbb080b815c9b0344d39e5a8e6ec1419f",
            "0xb32fe645da1405632c2213d64ff08d088dc3bedcf8eb2994086447060a032186",
            "0x0000000000000000000000002e2b1c42e38f5af81771e65d87729e57abd1337a",
            "0x0000000000000000000000000000000000000000000000000000000000000000"
          ],
          "data": "0x000000000000000000000000000000000000000000000000000000000000124a000000000000000000000000000000000000000000000000000000000000000100000000000000000000000000000000000000000000000000000000000916dc00000000000000000000000000000000000000000000000000000000000916dc",
          "blockHash": "0xeb88ed8b7e181a04d4356664abd40a2216925f1d29f38c1a482635d8f679f10b",
          "blockNumber": "0xbe0b9",
          "transactionHash": "0x28587905f5b3205584c19394551537c2dd98801056b32e499f74b13eb8cb896a",
          "transactionIndex": "0x1",
          "logIndex": "0x2",
          "removed": false
        }
      ],
      "logsBloom": "0x00000000000400000000000000000000000000040000000000000000000000000008000000000400000000010000000000000000000000000000020000000000000000000000000000000008000000000000000000000000000000000000000800000000020000000000000000000800002000000000000000000010000000000000000000000000000000000000800000000000000000000000000000000000001400000000000000400000000000000000000000000000000002000000000000000002000000100001000000000000000000000000000000000000000020000000000000010000000000000000800000000000000000000000200000000000",
      "type": "0x2",
      "transactionHash": "0x28587905f5b3205584c19394551537c2dd98801056b32e499f74b13eb8cb896a",
      "transactionIndex": "0x1",
      "blockHash": "0xeb88ed8b7e181a04d4356664abd40a2216925f1d29f38c1a482635d8f679f10b",
      "blockNumber": "0xbe0b9",
      "gasUsed": "0x38b82",
      "effectiveGasPrice": "0x5f5e100",
      "from": "0x660ad4b5a74130a4796b4d54bc6750ae93c86e6c",
      "to": "0x2843c269d2a64ecfa63548e8b3fc0fd23b7f70cb",
      "contractAddress": null,
      "gasUsedForL1": "0x259",
      "l1BlockNumber": "0x15188fd"
    }
  ],
  "libraries": [],
  "pending": [],
  "returns": {},
  "timestamp": 1742866871,
  "chain": 7887,
  "commit": "6eb99367"
}