{
  "transactions": [
    {
      "hash": "0x883970c9b017eddb96e56a7017c49a961a9d69952d7a204491da5aeecb77af7c",
      "transactionType": "CALL",
      "contractName": null,
      "contractAddress": "0x2843c269d2a64ecfa63548e8b3fc0fd23b7f70cb",
      "function": "handleOps((address,uint256,bytes,bytes,uint256,uint256,uint256,uint256,uint256,bytes,bytes)[],address)",
      "arguments": [
        "[(0x2e2B1c42E38f5af81771e65D87729E57ABD1337a, 4748, 0x, 0xb61d27f6000000000000000000000000010700808d59d2bb92257fcafacfe8e5bff7ab870000000000000000000000000000000000000000000000000000000000000000000000000000000000000000000000000000000000000000000000000000006000000000000000000000000000000000000000000000000000000000000000449dc29fac000000000000000000000000d157904639e89df05e89e0dabeec99ae3d74f9aa000000000000000000000000000000000000000000002a5a058fc295ed00000000000000000000000000000000000000000000000000000000000000, 4000000, 210000, 21000, 1, 1000000000, 0x0000000000000000000000000000000000000000, 0x71c8e815723c141a2ff7ee044b739b460b0e5d8df4576f328277cc78033e53be6ca8b006410ebb4744ae9cfaca261361c1e6ba1d7a8dde99b08cdea6f24db1111c43e6a7bf8853d752d3fc68b1dc3cfb0384858f021c5139a69f0f3e7ec67ea3ed15e24926317df646d1180285034c0fcdd9e50083149223726de0faac5e4326991c)]",
        "0x660ad4B5A74130a4796B4d54BC6750Ae93C86e6c"
      ],
      "transaction": {
        "from": "0x660ad4b5a74130a4796b4d54bc6750ae93c86e6c",
        "to": "0x2843c269d2a64ecfa63548e8b3fc0fd23b7f70cb",
        "value": "0x0",
        "input": "0x1fad948c0000000000000000000000000000000000000000000000000000000000000040000000000000000000000000660ad4b5a74130a4796b4d54bc6750ae93c86e6c000000000000000000000000000000000000000000000000000000000000000100000000000000000000000000000000000000000000000000000000000000200000000000000000000000002e2b1c42e38f5af81771e65d87729e57abd1337a000000000000000000000000000000000000000000000000000000000000128c0000000000000000000000000000000000000000000000000000000000000160000000000000000000000000000000000000000000000000000000000000018000000000000000000000000000000000000000000000000000000000003d0900000000000000000000000000000000000000000000000000000000000003345000000000000000000000000000000000000000000000000000000000000052080000000000000000000000000000000000000000000000000000000000000001000000000000000000000000000000000000000000000000000000003b9aca0000000000000000000000000000000000000000000000000000000000000002a000000000000000000000000000000000000000000000000000000000000002e0000000000000000000000000000000000000000000000000000000000000000000000000000000000000000000000000000000000000000000000000000000e4b61d27f6000000000000000000000000010700808d59d2bb92257fcafacfe8e5bff7ab870000000000000000000000000000000000000000000000000000000000000000000000000000000000000000000000000000000000000000000000000000006000000000000000000000000000000000000000000000000000000000000000449dc29fac000000000000000000000000d157904639e89df05e89e0dabeec99ae3d74f9aa000000000000000000000000000000000000000000002a5a058fc295ed000000000000000000000000000000000000000000000000000000000000000000000000000000000000000000000000000000000000000000000000000000000000000000000000000000000000000000000000000000000000140000000000000000000000000000000000000000000000000000000000000000000000000000000000000000000000000000000000000000000000000000008271c8e815723c141a2ff7ee044b739b460b0e5d8df4576f328277cc78033e53be6ca8b006410ebb4744ae9cfaca261361c1e6ba1d7a8dde99b08cdea6f24db1111c43e6a7bf8853d752d3fc68b1dc3cfb0384858f021c5139a69f0f3e7ec67ea3ed15e24926317df646d1180285034c0fcdd9e50083149223726de0faac5e4326991c000000000000000000000000000000000000000000000000000000000000",
        "nonce": "0x4be06",
        "chainId": "0x1ecf"
      },
      "additionalContracts": [],
      "isFixedGasLimit": false
    },
    {
      "hash": "0x4995d550ffe1830da2f058e9fa14d467655bc3f744dd7cd174b804a63a6b0327",
      "transactionType": "CALL",
      "contractName": null,
      "contractAddress": "0x2843c269d2a64ecfa63548e8b3fc0fd23b7f70cb",
      "function": "handleOps((address,uint256,bytes,bytes,uint256,uint256,uint256,uint256,uint256,bytes,bytes)[],address)",
      "arguments": [
        "[(0x2e2B1c42E38f5af81771e65D87729E57ABD1337a, 4749, 0x, 0xb61d27f6000000000000000000000000010700808d59d2bb92257fcafacfe8e5bff7ab8700000000000000000000000000000000000000000000000000000000000000000000000000000000000000000000000000000000000000000000000000000060000000000000000000000000000000000000000000000000000000000000004440c10f19000000000000000000000000567f86e6ca46dfc0cc024b6ddab1cb66807c1653000000000000000000000000000000000000000000002a5a058fc295ed00000000000000000000000000000000000000000000000000000000000000, 4000000, 210000, 21000, 1, 1000000000, 0x0000000000000000000000000000000000000000, 0xfb8068d7783707996d3efd27d6fc9434527c4ad85ca1851303d028dda04a95287b6f50bb24476935f797ef41684605f41f680e078f803dfe0b79b0be2902481b1be6c2f691ebbe2745ce0f757b79f4a58e7afe7c43962895722894f7ae2edfd7f356f688511b70e13fd6cb89df39c7a93d7c617f7139d62275ffdebde7d25591f71b)]",
        "0x660ad4B5A74130a4796B4d54BC6750Ae93C86e6c"
      ],
      "transaction": {
        "from": "0x660ad4b5a74130a4796b4d54bc6750ae93c86e6c",
        "to": "0x2843c269d2a64ecfa63548e8b3fc0fd23b7f70cb",
        "value": "0x0",
        "input": "0x1fad948c0000000000000000000000000000000000000000000000000000000000000040000000000000000000000000660ad4b5a74130a4796b4d54bc6750ae93c86e6c000000000000000000000000000000000000000000000000000000000000000100000000000000000000000000000000000000000000000000000000000000200000000000000000000000002e2b1c42e38f5af81771e65d87729e57abd1337a000000000000000000000000000000000000000000000000000000000000128d0000000000000000000000000000000000000000000000000000000000000160000000000000000000000000000000000000000000000000000000000000018000000000000000000000000000000000000000000000000000000000003d0900000000000000000000000000000000000000000000000000000000000003345000000000000000000000000000000000000000000000000000000000000052080000000000000000000000000000000000000000000000000000000000000001000000000000000000000000000000000000000000000000000000003b9aca0000000000000000000000000000000000000000000000000000000000000002a000000000000000000000000000000000000000000000000000000000000002e0000000000000000000000000000000000000000000000000000000000000000000000000000000000000000000000000000000000000000000000000000000e4b61d27f6000000000000000000000000010700808d59d2bb92257fcafacfe8e5bff7ab8700000000000000000000000000000000000000000000000000000000000000000000000000000000000000000000000000000000000000000000000000000060000000000000000000000000000000000000000000000000000000000000004440c10f19000000000000000000000000567f86e6ca46dfc0cc024b6ddab1cb66807c1653000000000000000000000000000000000000000000002a5a058fc295ed0000000000000000000000000000000000000000000000000000000000000000000000000000000000000000000000000000000000000000000000000000000000000000000000000000000000000000000000000000000000001400000000000000000000000000000000000000000000000000000000000000000000000000000000000000000000000000000000000000000000000000000082fb8068d7783707996d3efd27d6fc9434527c4ad85ca1851303d028dda04a95287b6f50bb24476935f797ef41684605f41f680e078f803dfe0b79b0be2902481b1be6c2f691ebbe2745ce0f757b79f4a58e7afe7c43962895722894f7ae2edfd7f356f688511b70e13fd6cb89df39c7a93d7c617f7139d62275ffdebde7d25591f71b000000000000000000000000000000000000000000000000000000000000",
        "nonce": "0x4be07",
        "chainId": "0x1ecf"
      },
      "additionalContracts": [],
      "isFixedGasLimit": false
    }
  ],
  "receipts": [
    {
      "status": "0x1",
      "cumulativeGasUsed": "0x346a3",
      "logs": [
        {
          "address": "0x2843c269d2a64ecfa63548e8b3fc0fd23b7f70cb",
          "topics": [
            "0xbb47ee3e183a558b1a2ff0874b079f3fc5478b7454eacf2bfc5af2ff5878f972"
          ],
          "data": "0x",
          "blockHash": "0x813d20145b1940f5ee40187b3a0d2e45566fe5d1097eded444c0710e6d39dd24",
          "blockNumber": "0xc01b3",
          "transactionHash": "0x883970c9b017eddb96e56a7017c49a961a9d69952d7a204491da5aeecb77af7c",
          "transactionIndex": "0x1",
          "logIndex": "0x0",
          "removed": false
        },
        {
          "address": "0x010700808d59d2bb92257fcafacfe8e5bff7ab87",
          "topics": [
            "0xddf252ad1be2c89b69c2b068fc378daa952ba7f163c4a11628f55a4df523b3ef",
            "0x000000000000000000000000d157904639e89df05e89e0dabeec99ae3d74f9aa",
            "0x0000000000000000000000000000000000000000000000000000000000000000"
          ],
          "data": "0x000000000000000000000000000000000000000000002a5a058fc295ed000000",
          "blockHash": "0x813d20145b1940f5ee40187b3a0d2e45566fe5d1097eded444c0710e6d39dd24",
          "blockNumber": "0xc01b3",
          "transactionHash": "0x883970c9b017eddb96e56a7017c49a961a9d69952d7a204491da5aeecb77af7c",
          "transactionIndex": "0x1",
          "logIndex": "0x1",
          "removed": false
        },
        {
          "address": "0x2843c269d2a64ecfa63548e8b3fc0fd23b7f70cb",
          "topics": [
            "0x49628fd1471006c1482da88028e9ce4dbb080b815c9b0344d39e5a8e6ec1419f",
            "0x33f21b04491c18789e7205546b7a8572381ac9ed1ab679b769711ea183b4f7c5",
            "0x0000000000000000000000002e2b1c42e38f5af81771e65d87729e57abd1337a",
            "0x0000000000000000000000000000000000000000000000000000000000000000"
          ],
          "data": "0x000000000000000000000000000000000000000000000000000000000000128c0000000000000000000000000000000000000000000000000000000000000001000000000000000000000000000000000000000000000000000000000008d9b6000000000000000000000000000000000000000000000000000000000008d9b6",
          "blockHash": "0x813d20145b1940f5ee40187b3a0d2e45566fe5d1097eded444c0710e6d39dd24",
          "blockNumber": "0xc01b3",
          "transactionHash": "0x883970c9b017eddb96e56a7017c49a961a9d69952d7a204491da5aeecb77af7c",
          "transactionIndex": "0x1",
          "logIndex": "0x2",
          "removed": false
        }
      ],
      "logsBloom": "0x00002000000400000000000000000000000000000000000000000000000001000408000002000000000000010000000000000000000000000000020000000000000000000000004000000008000000000000000000000000000000000000000800000000020000000000000000000800002000000000000000000010000000000000000000000000000000000000800000000000000000000000000000000000001400000000000000400000000000000000000000000000000002000000000000000002000000100001000000000000000000000000000000000000000020000000000000010000000000000000800000000000000000000000000000000800",
      "type": "0x2",
      "transactionHash": "0x883970c9b017eddb96e56a7017c49a961a9d69952d7a204491da5aeecb77af7c",
      "transactionIndex": "0x1",
      "blockHash": "0x813d20145b1940f5ee40187b3a0d2e45566fe5d1097eded444c0710e6d39dd24",
      "blockNumber": "0xc01b3",
      "gasUsed": "0x346a3",
      "effectiveGasPrice": "0x5f5e100",
      "from": "0x660ad4b5a74130a4796b4d54bc6750ae93c86e6c",
      "to": "0x2843c269d2a64ecfa63548e8b3fc0fd23b7f70cb",
      "contractAddress": null,
      "gasUsedForL1": "0x178",
      "l1BlockNumber": "0x152278f"
    },
    {
      "status": "0x1",
      "cumulativeGasUsed": "0x2f0c2",
      "logs": [
        {
          "address": "0x2843c269d2a64ecfa63548e8b3fc0fd23b7f70cb",
          "topics": [
            "0xbb47ee3e183a558b1a2ff0874b079f3fc5478b7454eacf2bfc5af2ff5878f972"
          ],
          "data": "0x",
          "blockHash": "0x132f2353235b2d46a600acdf5e583d809aece65f5abd0c44e2e698d7de7f8b0b",
          "blockNumber": "0xc01b4",
          "transactionHash": "0x4995d550ffe1830da2f058e9fa14d467655bc3f744dd7cd174b804a63a6b0327",
          "transactionIndex": "0x1",
          "logIndex": "0x0",
          "removed": false
        },
        {
          "address": "0x010700808d59d2bb92257fcafacfe8e5bff7ab87",
          "topics": [
            "0xddf252ad1be2c89b69c2b068fc378daa952ba7f163c4a11628f55a4df523b3ef",
            "0x0000000000000000000000000000000000000000000000000000000000000000",
            "0x000000000000000000000000567f86e6ca46dfc0cc024b6ddab1cb66807c1653"
          ],
          "data": "0x000000000000000000000000000000000000000000002a5a058fc295ed000000",
          "blockHash": "0x132f2353235b2d46a600acdf5e583d809aece65f5abd0c44e2e698d7de7f8b0b",
          "blockNumber": "0xc01b4",
          "transactionHash": "0x4995d550ffe1830da2f058e9fa14d467655bc3f744dd7cd174b804a63a6b0327",
          "transactionIndex": "0x1",
          "logIndex": "0x1",
          "removed": false
        },
        {
          "address": "0x2843c269d2a64ecfa63548e8b3fc0fd23b7f70cb",
          "topics": [
            "0x49628fd1471006c1482da88028e9ce4dbb080b815c9b0344d39e5a8e6ec1419f",
            "0xa19b0fa76ddb3dc5d120f031b30795a33722aee2ad7e81ada2285e339f226d78",
            "0x0000000000000000000000002e2b1c42e38f5af81771e65d87729e57abd1337a",
            "0x0000000000000000000000000000000000000000000000000000000000000000"
          ],
          "data": "0x000000000000000000000000000000000000000000000000000000000000128d00000000000000000000000000000000000000000000000000000000000000010000000000000000000000000000000000000000000000000000000000088c5e0000000000000000000000000000000000000000000000000000000000088c5e",
          "blockHash": "0x132f2353235b2d46a600acdf5e583d809aece65f5abd0c44e2e698d7de7f8b0b",
          "blockNumber": "0xc01b4",
          "transactionHash": "0x4995d550ffe1830da2f058e9fa14d467655bc3f744dd7cd174b804a63a6b0327",
          "transactionIndex": "0x1",
          "logIndex": "0x2",
          "removed": false
        }
      ],
      "logsBloom": "0x00000000000400000000000400000000000000000000000000000000000000000008000000000000000000010000000000000000000000000000020000000000000000000000000000000008000000000000000000000004000000000000000800000000020000000000000000000800002000000000000020000010000000000400000000000000000000000000800000000000000000000000000000100000001400000000000000400000000000000000000000000000000002000000000000000002000000100001000000000000000000000000000000000000000020000000000000010000000000000000800000000000000000000000000000000001",
      "type": "0x2",
      "transactionHash": "0x4995d550ffe1830da2f058e9fa14d467655bc3f744dd7cd174b804a63a6b0327",
      "transactionIndex": "0x1",
      "blockHash": "0x132f2353235b2d46a600acdf5e583d809aece65f5abd0c44e2e698d7de7f8b0b",
      "blockNumber": "0xc01b4",
      "gasUsed": "0x2f0c2",
      "effectiveGasPrice": "0x5f5e100",
      "from": "0x660ad4b5a74130a4796b4d54bc6750ae93c86e6c",
      "to": "0x2843c269d2a64ecfa63548e8b3fc0fd23b7f70cb",
      "contractAddress": null,
      "gasUsedForL1": "0x17b",
      "l1BlockNumber": "0x152278f"
    }
  ],
  "libraries": [],
  "pending": [],
  "returns": {},
  "timestamp": 1743356650,
  "chain": 7887,
  "commit": "947c089a"
}