{
  "transactions": [
    {
      "hash": null,
      "transactionType": "CALL",
      "contractName": null,
      "contractAddress": "0x2843c269d2a64ecfa63548e8b3fc0fd23b7f70cb",
      "function": "handleOps((address,uint256,bytes,bytes,uint256,uint256,uint256,uint256,uint256,bytes,bytes)[],address)",
      "arguments": [
        "[(0x2e2B1c42E38f5af81771e65D87729E57ABD1337a, 4845, 0x, 0xb61d27f6000000000000000000000000acc000818e5bbd911d5d449aa81cb5ca240247390000000000000000000000000000000000000000000000000000000000000000000000000000000000000000000000000000000000000000000000000000006000000000000000000000000000000000000000000000000000000000000009241cff79cd000000000000000000000000793500709506652fcc61f0d2d0fda605638d4293000000000000000000000000000000000000000000000000000000000000004000000000000000000000000000000000000000000000000000000000000008a49089e8ae0000000000000000000000000000000000000000000000000000000000000060000000000000000000000000000000000000000000000000000000000000032000000000000000000000000000000000000000000000000000000000000005e00000000000000000000000000000000000000000000000000000000000000015000000000000000000000000010700808d59d2bb92257fcafacfe8e5bff7ab87000000000000000000000000010700808d59d2bb92257fcafacfe8e5bff7ab87000000000000000000000000010700808d59d2bb92257fcafacfe8e5bff7ab87000000000000000000000000010700808d59d2bb92257fcafacfe8e5bff7ab87000000000000000000000000010700808d59d2bb92257fcafacfe8e5bff7ab87000000000000000000000000010700808d59d2bb92257fcafacfe8e5bff7ab87000000000000000000000000010700808d59d2bb92257fcafacfe8e5bff7ab87000000000000000000000000010700808d59d2bb92257fcafacfe8e5bff7ab87000000000000000000000000010700808d59d2bb92257fcafacfe8e5bff7ab87000000000000000000000000010700808d59d2bb92257fcafacfe8e5bff7ab87000000000000000000000000010700808d59d2bb92257fcafacfe8e5bff7ab87000000000000000000000000010700808d59d2bb92257fcafacfe8e5bff7ab87000000000000000000000000010700808d59d2bb92257fcafacfe8e5bff7ab87000000000000000000000000010700808d59d2bb92257fcafacfe8e5bff7ab87000000000000000000000000010700808d59d2bb92257fcafacfe8e5bff7ab87000000000000000000000000010700808d59d2bb92257fcafacfe8e5bff7ab87000000000000000000000000010700808d59d2bb92257fcafacfe8e5bff7ab87000000000000000000000000010700808d59d2bb92257fcafacfe8e5bff7ab87000000000000000000000000010700808d59d2bb92257fcafacfe8e5bff7ab87000000000000000000000000010700808d59d2bb92257fcafacfe8e5bff7ab87000000000000000000000000010700808d59d2bb92257fcafacfe8e5bff7ab870000000000000000000000000000000000000000000000000000000000000015000000000000000000000000000000000000000000000001a055690d9db80000000000000000000000000000000000000000000000000001a055690d9db80000000000000000000000000000000000000000000000000001a055690d9db80000000000000000000000000000000000000000000000000001a055690d9db80000000000000000000000000000000000000000000000000001a055690d9db80000000000000000000000000000000000000000000000000001a055690d9db80000000000000000000000000000000000000000000000000001a055690d9db80000000000000000000000000000000000000000000000000001a055690d9db80000000000000000000000000000000000000000000000000001a055690d9db80000000000000000000000000000000000000000000000000001a055690d9db80000000000000000000000000000000000000000000000000001a055690d9db80000000000000000000000000000000000000000000000000001a055690d9db80000000000000000000000000000000000000000000000000001a055690d9db80000000000000000000000000000000000000000000000000001a055690d9db80000000000000000000000000000000000000000000000000001a055690d9db80000000000000000000000000000000000000000000000000001a055690d9db80000000000000000000000000000000000000000000000000001a055690d9db80000000000000000000000000000000000000000000000000001a055690d9db80000000000000000000000000000000000000000000000000001a055690d9db80000000000000000000000000000000000000000000000000001a055690d9db80000000000000000000000000000000000000000000000000001a055690d9db800000000000000000000000000000000000000000000000000000000000000000015000000000000000000000000bb14fb6f2a2b8db4aa924d561e4b7cbd7ab464fe000000000000000000000000c3e46d85b51fc24c195756e07987b959d74ca1f3000000000000000000000000fe25577f008e511bf0982c0e168c96a0dee3d509000000000000000000000000824742bf0f62e6e843b375f9da8ee64c22b7a22a000000000000000000000000560ffe35ad1a41bdfd4f1a54ac43b6fe1ff30458000000000000000000000000a0b812a13b2d99227d8b72d365ba700f462f34b8000000000000000000000000bb3c2889063d5e5f12d3c969d3cd37f139a2b718000000000000000000000000b0543cf8dea187913ab21b3568323f3fe43c6c240000000000000000000000003161aa2401c4025f70ee1346a78f7afaa3a48af30000000000000000000000003e1de1d04a4ccf9f8e229c2103d7c753af2f51c1000000000000000000000000357abb6239c47937eddcfd48912d801d7a8e86cb0000000000000000000000007c919d4fccb08dcaa670880c83e8169f3663f09000000000000000000000000050f8d3bd8b3e02254ba2e092eb0d73f4ccaed4bd0000000000000000000000003779679695bf963a24f10d5b17b34d5e8ccff9c60000000000000000000000003147dc52fa246f1c424c97fba69e5cc0a8c5ea53000000000000000000000000b4d907e9039aded6247a622efb58378bd4eab30700000000000000000000000039f8f1d7b4ac6087ee65445355cfbc95da62cb54000000000000000000000000dfb75d35a836636c846cf2aacb656af30a7d3ea5000000000000000000000000b609316dec60d2bb1b8f50ddc54a7d169f442158000000000000000000000000c8dc1327ae81062aebb1e301042d9ab3394b41490000000000000000000000005c6fada311a6ba4edf582068455908f4cb8af9930000000000000000000000000000000000000000000000000000000000000000000000000000000000000000000000000000000000000000, 4000000, 210000, 21000, 1, 1000000000, 0x0000000000000000000000000000000000000000, 0xea3f48b943350ae1014b423283aa2c1d7bcccecd9e5c4aa4656d90c2f556c9b20f7f1b2e3eea8dfc01e61ea8898018ca3c29a6c0b3b01a8acc6c6e3ab9ca2fcd1ca67a4c81f74168c711c8ea91c94c3e1651a655379b902691bb7ee747817c8ecb03fa6bec29552e9a6023dd63fae82d232796e17be5592d8b2e412c7c71e21d711c)]",
        "0x660ad4B5A74130a4796B4d54BC6750Ae93C86e6c"
      ],
      "transaction": {
        "from": "0x660ad4b5a74130a4796b4d54bc6750ae93c86e6c",
        "to": "0x2843c269d2a64ecfa63548e8b3fc0fd23b7f70cb",
        "value": "0x0",
        "input": "0x1fad948c0000000000000000000000000000000000000000000000000000000000000040000000000000000000000000660ad4b5a74130a4796b4d54bc6750ae93c86e6c000000000000000000000000000000000000000000000000000000000000000100000000000000000000000000000000000000000000000000000000000000200000000000000000000000002e2b1c42e38f5af81771e65d87729e57abd1337a00000000000000000000000000000000000000000000000000000000000012ed0000000000000000000000000000000000000000000000000000000000000160000000000000000000000000000000000000000000000000000000000000018000000000000000000000000000000000000000000000000000000000003d0900000000000000000000000000000000000000000000000000000000000003345000000000000000000000000000000000000000000000000000000000000052080000000000000000000000000000000000000000000000000000000000000001000000000000000000000000000000000000000000000000000000003b9aca000000000000000000000000000000000000000000000000000000000000000b800000000000000000000000000000000000000000000000000000000000000bc0000000000000000000000000000000000000000000000000000000000000000000000000000000000000000000000000000000000000000000000000000009c4b61d27f6000000000000000000000000acc000818e5bbd911d5d449aa81cb5ca240247390000000000000000000000000000000000000000000000000000000000000000000000000000000000000000000000000000000000000000000000000000006000000000000000000000000000000000000000000000000000000000000009241cff79cd000000000000000000000000793500709506652fcc61f0d2d0fda605638d4293000000000000000000000000000000000000000000000000000000000000004000000000000000000000000000000000000000000000000000000000000008a49089e8ae0000000000000000000000000000000000000000000000000000000000000060000000000000000000000000000000000000000000000000000000000000032000000000000000000000000000000000000000000000000000000000000005e00000000000000000000000000000000000000000000000000000000000000015000000000000000000000000010700808d59d2bb92257fcafacfe8e5bff7ab87000000000000000000000000010700808d59d2bb92257fcafacfe8e5bff7ab87000000000000000000000000010700808d59d2bb92257fcafacfe8e5bff7ab87000000000000000000000000010700808d59d2bb92257fcafacfe8e5bff7ab87000000000000000000000000010700808d59d2bb92257fcafacfe8e5bff7ab87000000000000000000000000010700808d59d2bb92257fcafacfe8e5bff7ab87000000000000000000000000010700808d59d2bb92257fcafacfe8e5bff7ab87000000000000000000000000010700808d59d2bb92257fcafacfe8e5bff7ab87000000000000000000000000010700808d59d2bb92257fcafacfe8e5bff7ab87000000000000000000000000010700808d59d2bb92257fcafacfe8e5bff7ab87000000000000000000000000010700808d59d2bb92257fcafacfe8e5bff7ab87000000000000000000000000010700808d59d2bb92257fcafacfe8e5bff7ab87000000000000000000000000010700808d59d2bb92257fcafacfe8e5bff7ab87000000000000000000000000010700808d59d2bb92257fcafacfe8e5bff7ab87000000000000000000000000010700808d59d2bb92257fcafacfe8e5bff7ab87000000000000000000000000010700808d59d2bb92257fcafacfe8e5bff7ab87000000000000000000000000010700808d59d2bb92257fcafacfe8e5bff7ab87000000000000000000000000010700808d59d2bb92257fcafacfe8e5bff7ab87000000000000000000000000010700808d59d2bb92257fcafacfe8e5bff7ab87000000000000000000000000010700808d59d2bb92257fcafacfe8e5bff7ab87000000000000000000000000010700808d59d2bb92257fcafacfe8e5bff7ab870000000000000000000000000000000000000000000000000000000000000015000000000000000000000000000000000000000000000001a055690d9db80000000000000000000000000000000000000000000000000001a055690d9db80000000000000000000000000000000000000000000000000001a055690d9db80000000000000000000000000000000000000000000000000001a055690d9db80000000000000000000000000000000000000000000000000001a055690d9db80000000000000000000000000000000000000000000000000001a055690d9db80000000000000000000000000000000000000000000000000001a055690d9db80000000000000000000000000000000000000000000000000001a055690d9db80000000000000000000000000000000000000000000000000001a055690d9db80000000000000000000000000000000000000000000000000001a055690d9db80000000000000000000000000000000000000000000000000001a055690d9db80000000000000000000000000000000000000000000000000001a055690d9db80000000000000000000000000000000000000000000000000001a055690d9db80000000000000000000000000000000000000000000000000001a055690d9db80000000000000000000000000000000000000000000000000001a055690d9db80000000000000000000000000000000000000000000000000001a055690d9db80000000000000000000000000000000000000000000000000001a055690d9db80000000000000000000000000000000000000000000000000001a055690d9db80000000000000000000000000000000000000000000000000001a055690d9db80000000000000000000000000000000000000000000000000001a055690d9db80000000000000000000000000000000000000000000000000001a055690d9db800000000000000000000000000000000000000000000000000000000000000000015000000000000000000000000bb14fb6f2a2b8db4aa924d561e4b7cbd7ab464fe000000000000000000000000c3e46d85b51fc24c195756e07987b959d74ca1f3000000000000000000000000fe25577f008e511bf0982c0e168c96a0dee3d509000000000000000000000000824742bf0f62e6e843b375f9da8ee64c22b7a22a000000000000000000000000560ffe35ad1a41bdfd4f1a54ac43b6fe1ff30458000000000000000000000000a0b812a13b2d99227d8b72d365ba700f462f34b8000000000000000000000000bb3c2889063d5e5f12d3c969d3cd37f139a2b718000000000000000000000000b0543cf8dea187913ab21b3568323f3fe43c6c240000000000000000000000003161aa2401c4025f70ee1346a78f7afaa3a48af30000000000000000000000003e1de1d04a4ccf9f8e229c2103d7c753af2f51c1000000000000000000000000357abb6239c47937eddcfd48912d801d7a8e86cb0000000000000000000000007c919d4fccb08dcaa670880c83e8169f3663f09000000000000000000000000050f8d3bd8b3e02254ba2e092eb0d73f4ccaed4bd0000000000000000000000003779679695bf963a24f10d5b17b34d5e8ccff9c60000000000000000000000003147dc52fa246f1c424c97fba69e5cc0a8c5ea53000000000000000000000000b4d907e9039aded6247a622efb58378bd4eab30700000000000000000000000039f8f1d7b4ac6087ee65445355cfbc95da62cb54000000000000000000000000dfb75d35a836636c846cf2aacb656af30a7d3ea5000000000000000000000000b609316dec60d2bb1b8f50ddc54a7d169f442158000000000000000000000000c8dc1327ae81062aebb1e301042d9ab3394b41490000000000000000000000005c6fada311a6ba4edf582068455908f4cb8af993000000000000000000000000000000000000000000000000000000000000000000000000000000000000000000000000000000000000000000000000000000000000000000000000000000000000000000000000000000000000000000000000000000000000000000000000000000000000001400000000000000000000000000000000000000000000000000000000000000000000000000000000000000000000000000000000000000000000000000000082ea3f48b943350ae1014b423283aa2c1d7bcccecd9e5c4aa4656d90c2f556c9b20f7f1b2e3eea8dfc01e61ea8898018ca3c29a6c0b3b01a8acc6c6e3ab9ca2fcd1ca67a4c81f74168c711c8ea91c94c3e1651a655379b902691bb7ee747817c8ecb03fa6bec29552e9a6023dd63fae82d232796e17be5592d8b2e412c7c71e21d711c000000000000000000000000000000000000000000000000000000000000",
        "nonce": "0x4be93",
        "chainId": "0x1ecf"
      },
      "additionalContracts": [],
      "isFixedGasLimit": false
    }
  ],
  "receipts": [],
  "libraries": [],
  "pending": [],
  "returns": {},
  "timestamp": 1744916242,
  "chain": 7887,
  "commit": "c187dae9"
}