{
  "transactions": [
    {
      "hash": null,
      "transactionType": "CALL",
      "contractName": null,
      "contractAddress": "0x2843C269D2a64eCfA63548E8B3Fc0FD23B7F70cb",
      "function": "handleOps((address,uint256,bytes,bytes,uint256,uint256,uint256,uint256,uint256,bytes,bytes)[],address)",
      "arguments": [
        "[(0x2e2B1c42E38f5af81771e65D87729E57ABD1337a, 2504, 0x, 0xb61d27f6000000000000000000000000010700808d59d2bb92257fcafacfe8e5bff7ab870000000000000000000000000000000000000000000000000000000000000000000000000000000000000000000000000000000000000000000000000000006000000000000000000000000000000000000000000000000000000000000000449dc29fac000000000000000000000000d157904639e89df05e89e0dabeec99ae3d74f9aa000000000000000000000000000000000000000000000002b5e3af16b188000000000000000000000000000000000000000000000000000000000000, 4000000, 210000, 21000, 1, 1000000000, 0x0000000000000000000000000000000000000000, 0xe062b8ce65e68e4be96671c49b80600966015bfb0a0fc17604e53e015983cfec54e2d51abbf6f92353d4523c26799fc96111effb4faefbfb7da750b0b022c9c81cdfc353a694537a5ee50f88a9e8bd69dd8d0ab623e2a0ab486804dd7841547dce714873a764eb32a0e0dd51d8c444c254c467515cf4eb853cc6acc22b8e1e769c1c)]",
        "0x660ad4B5A74130a4796B4d54BC6750Ae93C86e6c"
      ],
      "transaction": {
        "type": "0x00",
        "from": "0x660ad4b5a74130a4796b4d54bc6750ae93c86e6c",
        "to": "0x2843c269d2a64ecfa63548e8b3fc0fd23b7f70cb",
        "gas": "0x3dd38",
        "value": "0x0",
        "data": "0x1fad948c0000000000000000000000000000000000000000000000000000000000000040000000000000000000000000660ad4b5a74130a4796b4d54bc6750ae93c86e6c000000000000000000000000000000000000000000000000000000000000000100000000000000000000000000000000000000000000000000000000000000200000000000000000000000002e2b1c42e38f5af81771e65d87729e57abd1337a00000000000000000000000000000000000000000000000000000000000009c80000000000000000000000000000000000000000000000000000000000000160000000000000000000000000000000000000000000000000000000000000018000000000000000000000000000000000000000000000000000000000003d0900000000000000000000000000000000000000000000000000000000000003345000000000000000000000000000000000000000000000000000000000000052080000000000000000000000000000000000000000000000000000000000000001000000000000000000000000000000000000000000000000000000003b9aca0000000000000000000000000000000000000000000000000000000000000002a000000000000000000000000000000000000000000000000000000000000002e0000000000000000000000000000000000000000000000000000000000000000000000000000000000000000000000000000000000000000000000000000000e4b61d27f6000000000000000000000000010700808d59d2bb92257fcafacfe8e5bff7ab870000000000000000000000000000000000000000000000000000000000000000000000000000000000000000000000000000000000000000000000000000006000000000000000000000000000000000000000000000000000000000000000449dc29fac000000000000000000000000d157904639e89df05e89e0dabeec99ae3d74f9aa000000000000000000000000000000000000000000000002b5e3af16b18800000000000000000000000000000000000000000000000000000000000000000000000000000000000000000000000000000000000000000000000000000000000000000000000000000000000000000000000000000000001400000000000000000000000000000000000000000000000000000000000000000000000000000000000000000000000000000000000000000000000000000082e062b8ce65e68e4be96671c49b80600966015bfb0a0fc17604e53e015983cfec54e2d51abbf6f92353d4523c26799fc96111effb4faefbfb7da750b0b022c9c81cdfc353a694537a5ee50f88a9e8bd69dd8d0ab623e2a0ab486804dd7841547dce714873a764eb32a0e0dd51d8c444c254c467515cf4eb853cc6acc22b8e1e769c1c000000000000000000000000000000000000000000000000000000000000",
        "nonce": "0x4b75"
      },
      "additionalContracts": [],
      "isFixedGasLimit": false
    },
    {
      "hash": null,
      "transactionType": "CALL",
      "contractName": null,
      "contractAddress": "0x2843C269D2a64eCfA63548E8B3Fc0FD23B7F70cb",
      "function": "handleOps((address,uint256,bytes,bytes,uint256,uint256,uint256,uint256,uint256,bytes,bytes)[],address)",
      "arguments": [
        "[(0x2e2B1c42E38f5af81771e65D87729E57ABD1337a, 2505, 0x, 0xb61d27f6000000000000000000000000010700808d59d2bb92257fcafacfe8e5bff7ab8700000000000000000000000000000000000000000000000000000000000000000000000000000000000000000000000000000000000000000000000000000060000000000000000000000000000000000000000000000000000000000000004440c10f1900000000000000000000000066007079acbebb3fb5261b4ed0818f4c0542aa5a000000000000000000000000000000000000000000000002b5e3af16b188000000000000000000000000000000000000000000000000000000000000, 4000000, 210000, 21000, 1, 1000000000, 0x0000000000000000000000000000000000000000, 0x4d92f81b3c6ee780f10dee7a205655d3dfcbd76bc29d8d1c7cde6191b32971a32e63487844aa525d3b9f9b4ef515b90e6c3af143968a9a0885e70b8f23977fbb1c14b95a49620445caab1f59469587dda3f01be868c81f2a5ca4b282ab6863800d15ffc76c7529b0dc0bab68f2c3326f3ace63fb8d88dd668f993190f3bc7ed5511b)]",
        "0x660ad4B5A74130a4796B4d54BC6750Ae93C86e6c"
      ],
      "transaction": {
        "type": "0x00",
        "from": "0x660ad4b5a74130a4796b4d54bc6750ae93c86e6c",
        "to": "0x2843c269d2a64ecfa63548e8b3fc0fd23b7f70cb",
        "gas": "0x3d12b",
        "value": "0x0",
        "data": "0x1fad948c0000000000000000000000000000000000000000000000000000000000000040000000000000000000000000660ad4b5a74130a4796b4d54bc6750ae93c86e6c000000000000000000000000000000000000000000000000000000000000000100000000000000000000000000000000000000000000000000000000000000200000000000000000000000002e2b1c42e38f5af81771e65d87729e57abd1337a00000000000000000000000000000000000000000000000000000000000009c90000000000000000000000000000000000000000000000000000000000000160000000000000000000000000000000000000000000000000000000000000018000000000000000000000000000000000000000000000000000000000003d0900000000000000000000000000000000000000000000000000000000000003345000000000000000000000000000000000000000000000000000000000000052080000000000000000000000000000000000000000000000000000000000000001000000000000000000000000000000000000000000000000000000003b9aca0000000000000000000000000000000000000000000000000000000000000002a000000000000000000000000000000000000000000000000000000000000002e0000000000000000000000000000000000000000000000000000000000000000000000000000000000000000000000000000000000000000000000000000000e4b61d27f6000000000000000000000000010700808d59d2bb92257fcafacfe8e5bff7ab8700000000000000000000000000000000000000000000000000000000000000000000000000000000000000000000000000000000000000000000000000000060000000000000000000000000000000000000000000000000000000000000004440c10f1900000000000000000000000066007079acbebb3fb5261b4ed0818f4c0542aa5a000000000000000000000000000000000000000000000002b5e3af16b188000000000000000000000000000000000000000000000000000000000000000000000000000000000000000000000000000000000000000000000000000000000000000000000000000000000000000000000000000000000014000000000000000000000000000000000000000000000000000000000000000000000000000000000000000000000000000000000000000000000000000000824d92f81b3c6ee780f10dee7a205655d3dfcbd76bc29d8d1c7cde6191b32971a32e63487844aa525d3b9f9b4ef515b90e6c3af143968a9a0885e70b8f23977fbb1c14b95a49620445caab1f59469587dda3f01be868c81f2a5ca4b282ab6863800d15ffc76c7529b0dc0bab68f2c3326f3ace63fb8d88dd668f993190f3bc7ed5511b000000000000000000000000000000000000000000000000000000000000",
        "nonce": "0x4b76"
      },
      "additionalContracts": [],
      "isFixedGasLimit": false
    }
  ],
  "receipts": [],
  "libraries": [],
  "pending": [],
  "returns": {},
  "timestamp": 1726745731,
  "chain": 7887,
  "commit": "41a92a3"
}