{
  "transactions": [
    {
      "hash": "0x6e273f442d0f0c99db447cbbd1ad224946375cdfa0dde87a2eb8c0bba6fb6688",
      "transactionType": "CALL",
      "contractName": null,
      "contractAddress": "0x2843c269d2a64ecfa63548e8b3fc0fd23b7f70cb",
      "function": "handleOps((address,uint256,bytes,bytes,uint256,uint256,uint256,uint256,uint256,bytes,bytes)[],address)",
      "arguments": [
        "[(0x2e2B1c42E38f5af81771e65D87729E57ABD1337a, 4810, 0x, 0xb61d27f6000000000000000000000000acc000818e5bbd911d5d449aa81cb5ca240247390000000000000000000000000000000000000000000000000000000000000000000000000000000000000000000000000000000000000000000000000000006000000000000000000000000000000000000000000000000000000000000000a41cff79cd0000000000000000000000008a4720488ca32f1223ccfe5a087e250fe3bc5d7500000000000000000000000000000000000000000000000000000000000000400000000000000000000000000000000000000000000000000000000000000024456cf492000000000000000000000000045abb334b08aa3ff1e90e9befd9a6866e74fcf40000000000000000000000000000000000000000000000000000000000000000000000000000000000000000000000000000000000000000, 4000000, 210000, 21000, 1, 1000000000, 0x0000000000000000000000000000000000000000, 0x8a87e66096c2be159824f956041b9c480317bc79ac88daf0e472714c34ba09593382d1dcb555c738c45fd7a6efd8acb3e9ad0b7780d1fef535428a61ff7baf611ba3f58226f531f4ea3d4b1bf97b70d7dce52f218b91e143ba87d248aab870050e100e28eeeca6eaa8527e20a62f83feeea89eeb673ecb9840e7f47140539779c51b)]",
        "0x660ad4B5A74130a4796B4d54BC6750Ae93C86e6c"
      ],
      "transaction": {
        "from": "0x660ad4b5a74130a4796b4d54bc6750ae93c86e6c",
        "to": "0x2843c269d2a64ecfa63548e8b3fc0fd23b7f70cb",
        "value": "0x0",
        "input": "0x1fad948c0000000000000000000000000000000000000000000000000000000000000040000000000000000000000000660ad4b5a74130a4796b4d54bc6750ae93c86e6c000000000000000000000000000000000000000000000000000000000000000100000000000000000000000000000000000000000000000000000000000000200000000000000000000000002e2b1c42e38f5af81771e65d87729e57abd1337a00000000000000000000000000000000000000000000000000000000000012ca0000000000000000000000000000000000000000000000000000000000000160000000000000000000000000000000000000000000000000000000000000018000000000000000000000000000000000000000000000000000000000003d0900000000000000000000000000000000000000000000000000000000000003345000000000000000000000000000000000000000000000000000000000000052080000000000000000000000000000000000000000000000000000000000000001000000000000000000000000000000000000000000000000000000003b9aca000000000000000000000000000000000000000000000000000000000000000300000000000000000000000000000000000000000000000000000000000000034000000000000000000000000000000000000000000000000000000000000000000000000000000000000000000000000000000000000000000000000000000144b61d27f6000000000000000000000000acc000818e5bbd911d5d449aa81cb5ca240247390000000000000000000000000000000000000000000000000000000000000000000000000000000000000000000000000000000000000000000000000000006000000000000000000000000000000000000000000000000000000000000000a41cff79cd0000000000000000000000008a4720488ca32f1223ccfe5a087e250fe3bc5d7500000000000000000000000000000000000000000000000000000000000000400000000000000000000000000000000000000000000000000000000000000024456cf492000000000000000000000000045abb334b08aa3ff1e90e9befd9a6866e74fcf40000000000000000000000000000000000000000000000000000000000000000000000000000000000000000000000000000000000000000000000000000000000000000000000000000000000000000000000000000000000000000000000000000000000000000000000000000000000000014000000000000000000000000000000000000000000000000000000000000000000000000000000000000000000000000000000000000000000000000000000828a87e66096c2be159824f956041b9c480317bc79ac88daf0e472714c34ba09593382d1dcb555c738c45fd7a6efd8acb3e9ad0b7780d1fef535428a61ff7baf611ba3f58226f531f4ea3d4b1bf97b70d7dce52f218b91e143ba87d248aab870050e100e28eeeca6eaa8527e20a62f83feeea89eeb673ecb9840e7f47140539779c51b000000000000000000000000000000000000000000000000000000000000",
        "nonce": "0x4be88",
        "chainId": "0x1ecf"
      },
      "additionalContracts": [],
      "isFixedGasLimit": false
    }
  ],
  "receipts": [
    {
      "status": "0x1",
      "cumulativeGasUsed": "0x4675e",
      "logs": [
        {
          "address": "0x2843c269d2a64ecfa63548e8b3fc0fd23b7f70cb",
          "topics": [
            "0xbb47ee3e183a558b1a2ff0874b079f3fc5478b7454eacf2bfc5af2ff5878f972"
          ],
          "data": "0x",
          "blockHash": "0x348c85f5833f6906c54fd582c0110a2ccb2bdc5fb4fb5c0656c9877235c3f022",
          "blockNumber": "0xcba99",
          "transactionHash": "0x6e273f442d0f0c99db447cbbd1ad224946375cdfa0dde87a2eb8c0bba6fb6688",
          "transactionIndex": "0x1",
          "logIndex": "0x0",
          "removed": false
        },
        {
          "address": "0x2843c269d2a64ecfa63548e8b3fc0fd23b7f70cb",
          "topics": [
            "0x49628fd1471006c1482da88028e9ce4dbb080b815c9b0344d39e5a8e6ec1419f",
            "0x9954652c20c7924364260b30f5905f43d5c484de2347eaa28179201024123751",
            "0x0000000000000000000000002e2b1c42e38f5af81771e65d87729e57abd1337a",
            "0x0000000000000000000000000000000000000000000000000000000000000000"
          ],
          "data": "0x00000000000000000000000000000000000000000000000000000000000012ca0000000000000000000000000000000000000000000000000000000000000001000000000000000000000000000000000000000000000000000000000008ee57000000000000000000000000000000000000000000000000000000000008ee57",
          "blockHash": "0x348c85f5833f6906c54fd582c0110a2ccb2bdc5fb4fb5c0656c9877235c3f022",
          "blockNumber": "0xcba99",
          "transactionHash": "0x6e273f442d0f0c99db447cbbd1ad224946375cdfa0dde87a2eb8c0bba6fb6688",
          "transactionIndex": "0x1",
          "logIndex": "0x1",
          "removed": false
        }
      ],
      "logsBloom": "0x00000000000000000000000000000000000000000000000000000000000000000008000000000000000000010000000000000000000000000000020000000000000000000000000000000000000000000000000000000000000002800000000800000000020000000000000000000800002000000000000000000000000000000000000000000000000000000000800000000000100000000000000000000000000400000000000000400000000000000000000000000000000002000000000000000000000000100001000000000000000000000000000000000000000020000000000000010000000000000000000000000000000000000000000000000000",
      "type": "0x2",
      "transactionHash": "0x6e273f442d0f0c99db447cbbd1ad224946375cdfa0dde87a2eb8c0bba6fb6688",
      "transactionIndex": "0x1",
      "blockHash": "0x348c85f5833f6906c54fd582c0110a2ccb2bdc5fb4fb5c0656c9877235c3f022",
      "blockNumber": "0xcba99",
      "gasUsed": "0x4675e",
      "effectiveGasPrice": "0x5f5e100",
      "from": "0x660ad4b5a74130a4796b4d54bc6750ae93c86e6c",
      "to": "0x2843c269d2a64ecfa63548e8b3fc0fd23b7f70cb",
      "contractAddress": null,
      "gasUsedForL1": "0x15694",
      "l1BlockNumber": "0x1535a5f"
    }
  ],
  "libraries": [],
  "pending": [],
  "returns": {},
  "timestamp": 1744303911,
  "chain": 7887,
  "commit": "b6333bc7"
}