{
  "transactions": [
    {
      "hash": "0x51016bdd249d715eb67a7b08eccf8b689b8c828fb5106b40e38934e23e7e227d",
      "transactionType": "CALL",
      "contractName": null,
      "contractAddress": "0x2843c269d2a64ecfa63548e8b3fc0fd23b7f70cb",
      "function": "handleOps((address,uint256,bytes,bytes,uint256,uint256,uint256,uint256,uint256,bytes,bytes)[],address)",
      "arguments": [
        "[(0x2e2B1c42E38f5af81771e65D87729E57ABD1337a, 4811, 0x, 0xb61d27f6000000000000000000000000acc000818e5bbd911d5d449aa81cb5ca240247390000000000000000000000000000000000000000000000000000000000000000000000000000000000000000000000000000000000000000000000000000006000000000000000000000000000000000000000000000000000000000000000a41cff79cd0000000000000000000000008a4720488ca32f1223ccfe5a087e250fe3bc5d7500000000000000000000000000000000000000000000000000000000000000400000000000000000000000000000000000000000000000000000000000000024456cf492000000000000000000000000045abb334b08aa3ff1e90e9befd9a6866e74fcf40000000000000000000000000000000000000000000000000000000000000000000000000000000000000000000000000000000000000000, 4000000, 210000, 21000, 1, 1000000000, 0x0000000000000000000000000000000000000000, 0x553f63af9bc6a90991fb601054adea54c78aed0ca2417c04e28a16c17484463858cf117368bfca13465854af1542898e7eb3e787a90471f198570c762ca3d3cc1cd4656b6e5bfde976b0856d4265e3c6c3125f5c4ec4d1d8a27b03aa8a1eedced818ebb6b1821bc80c4638f79785360a67742906d78c69a8d9017199787b3fe2201c), (0x2e2B1c42E38f5af81771e65D87729E57ABD1337a, 4812, 0x, 0xb61d27f6000000000000000000000000acc000818e5bbd911d5d449aa81cb5ca240247390000000000000000000000000000000000000000000000000000000000000000000000000000000000000000000000000000000000000000000000000000006000000000000000000000000000000000000000000000000000000000000000a41cff79cd0000000000000000000000008a4720488ca32f1223ccfe5a087e250fe3bc5d7500000000000000000000000000000000000000000000000000000000000000400000000000000000000000000000000000000000000000000000000000000024456cf4920000000000000000000000009d4b54d4fe9c3dd3bd311b5f2baab39ee669471e0000000000000000000000000000000000000000000000000000000000000000000000000000000000000000000000000000000000000000, 4000000, 210000, 21000, 1, 1000000000, 0x0000000000000000000000000000000000000000, 0x7ce3ae0de5e7d671ac9fbe10d5bd8e5a833a15b6a649ba92395ea9f5d81f726438a59fdf938b3d1bc0b419ebb60dc43da8a230c44a4310495c87490da5f250391ca16b3db604740283b163027f59b0b9cd89456a1d26525128fc12ac25298d6bca68f875473861b83c5866943402470a6d6e1600a9d6d8c3fd0ae0e96a09a74d071b), (0x2e2B1c42E38f5af81771e65D87729E57ABD1337a, 4813, 0x, 0xb61d27f6000000000000000000000000acc000818e5bbd911d5d449aa81cb5ca240247390000000000000000000000000000000000000000000000000000000000000000000000000000000000000000000000000000000000000000000000000000006000000000000000000000000000000000000000000000000000000000000000a41cff79cd0000000000000000000000008a4720488ca32f1223ccfe5a087e250fe3bc5d7500000000000000000000000000000000000000000000000000000000000000400000000000000000000000000000000000000000000000000000000000000024456cf492000000000000000000000000860e2920ddaf1beb2e4399aeefb70fd52efce9fe0000000000000000000000000000000000000000000000000000000000000000000000000000000000000000000000000000000000000000, 4000000, 210000, 21000, 1, 1000000000, 0x0000000000000000000000000000000000000000, 0x5efd686c1b21335ed411a99cf108d6c80ff56b29d9a87f221f1d624323666f3a7374e117469be8b39c939909e1a61310b7f502965370936274e41fc00c51f35a1c22a505e5cbede530dff0998631b57d876903195965e11723771f7251cf44147b1dbdff5bea0bcf5b3ef4760b1f65df66511c74e85451401075b9eeb4b56d402e1c), (0x2e2B1c42E38f5af81771e65D87729E57ABD1337a, 4814, 0x, 0xb61d27f6000000000000000000000000acc000818e5bbd911d5d449aa81cb5ca240247390000000000000000000000000000000000000000000000000000000000000000000000000000000000000000000000000000000000000000000000000000006000000000000000000000000000000000000000000000000000000000000000a41cff79cd0000000000000000000000008a4720488ca32f1223ccfe5a087e250fe3bc5d7500000000000000000000000000000000000000000000000000000000000000400000000000000000000000000000000000000000000000000000000000000024456cf4920000000000000000000000008f087f15df5f56834e925ff512cd1f46eadb5f890000000000000000000000000000000000000000000000000000000000000000000000000000000000000000000000000000000000000000, 4000000, 210000, 21000, 1, 1000000000, 0x0000000000000000000000000000000000000000, 0x8911ea7c9d3d71fd74d9a8bc319b0ab42565bd219be3027f505a0d1b9679a8cd545a597a780278979559f8407ada02916fed567b740dd5539aabfd8f51d0c5b91b3b843f645b0dba465f97c2a5267aa4135e586ca52741fbf27db7a03146b47b7a62084fd21517c626f7c5c2a46c2af08b573083e0cb07415b85714c8472e95ef01b), (0x2e2B1c42E38f5af81771e65D87729E57ABD1337a, 4815, 0x, 0xb61d27f6000000000000000000000000acc000818e5bbd911d5d449aa81cb5ca240247390000000000000000000000000000000000000000000000000000000000000000000000000000000000000000000000000000000000000000000000000000006000000000000000000000000000000000000000000000000000000000000000a41cff79cd0000000000000000000000008a4720488ca32f1223ccfe5a087e250fe3bc5d7500000000000000000000000000000000000000000000000000000000000000400000000000000000000000000000000000000000000000000000000000000024456cf492000000000000000000000000d00c99c562415eeb9160ca6f7dc0852d6973d7a40000000000000000000000000000000000000000000000000000000000000000000000000000000000000000000000000000000000000000, 4000000, 210000, 21000, 1, 1000000000, 0x0000000000000000000000000000000000000000, 0x4e5d2efa5062eb48eeadc5f423636c1056df85065540ee623a084d54d5f3244f65f30b72edcb86e0f41968fededff1f80d8ac43f212cf5dfdacb9a8dea321b1e1ccf57abbee3aa14fa86439bbb302f5ca069229f33628be06550ecc4e92dc804b76aaebaa1b9737b15c1e5220acb904011e9e4d5bedc19bfd7befee2fb4ce4b9cc1c), (0x2e2B1c42E38f5af81771e65D87729E57ABD1337a, 4816, 0x, 0xb61d27f6000000000000000000000000acc000818e5bbd911d5d449aa81cb5ca240247390000000000000000000000000000000000000000000000000000000000000000000000000000000000000000000000000000000000000000000000000000006000000000000000000000000000000000000000000000000000000000000000a41cff79cd0000000000000000000000008a4720488ca32f1223ccfe5a087e250fe3bc5d7500000000000000000000000000000000000000000000000000000000000000400000000000000000000000000000000000000000000000000000000000000024456cf492000000000000000000000000abe640e54ce41e8c500b34ab0b4aa5e54daac0380000000000000000000000000000000000000000000000000000000000000000000000000000000000000000000000000000000000000000, 4000000, 210000, 21000, 1, 1000000000, 0x0000000000000000000000000000000000000000, 0xb10dec9a06e0e82f60f868e2b3ca2fffca450a7a5058bbb205ad3230fa99ebcb790f8f72c6b3f9613ef26395347351804c7fa4d11c5c7cf0bf25215c78fcca6e1b54fdadc270a4866f1a0679f4d9615edcb032b30ea892bfcfa353b90554ae2ea214251424c2c9613b0314989635dd1edba35771cafcd1c71a6edf2b3d6b5b41851c), (0x2e2B1c42E38f5af81771e65D87729E57ABD1337a, 4817, 0x, 0xb61d27f6000000000000000000000000acc000818e5bbd911d5d449aa81cb5ca240247390000000000000000000000000000000000000000000000000000000000000000000000000000000000000000000000000000000000000000000000000000006000000000000000000000000000000000000000000000000000000000000000a41cff79cd0000000000000000000000008a4720488ca32f1223ccfe5a087e250fe3bc5d7500000000000000000000000000000000000000000000000000000000000000400000000000000000000000000000000000000000000000000000000000000024456cf492000000000000000000000000c86569d456ffb522cb89a7149dcd3d8258703f700000000000000000000000000000000000000000000000000000000000000000000000000000000000000000000000000000000000000000, 4000000, 210000, 21000, 1, 1000000000, 0x0000000000000000000000000000000000000000, 0x76547d5214dc19f3b905377c6fbb28db88f46841231bd2fb6303fb3c998e20645c9667c59d2f37ce0b2a0a713a132e33ffa69b7455290769fd7121e1f50fcfa21cd3f79baa8377c32d1bcc35846b8c3839a79d81067ffa8e063dba56a3f45af47b5ff54065cc59d34694dc4ccbf9d22a83ba1e335d539dff5f85bede48ca5764471c), (0x2e2B1c42E38f5af81771e65D87729E57ABD1337a, 4818, 0x, 0xb61d27f6000000000000000000000000acc000818e5bbd911d5d449aa81cb5ca240247390000000000000000000000000000000000000000000000000000000000000000000000000000000000000000000000000000000000000000000000000000006000000000000000000000000000000000000000000000000000000000000000a41cff79cd0000000000000000000000008a4720488ca32f1223ccfe5a087e250fe3bc5d7500000000000000000000000000000000000000000000000000000000000000400000000000000000000000000000000000000000000000000000000000000024456cf4920000000000000000000000003f6fd43756329904e277cb941b75b8d4bea9c0a30000000000000000000000000000000000000000000000000000000000000000000000000000000000000000000000000000000000000000, 4000000, 210000, 21000, 1, 1000000000, 0x0000000000000000000000000000000000000000, 0x0681aba1fcdcbe9bc2581926e08a89f1c3f05d63b397b8480907221b166dbbd05578a4c73ca679eac877a4ef23a74c1661d07287094acaad796a1a49df59e7c61bd4642b6fc82452c28da97d8678d0f0f934629735549240c8a35a9c7d034c52846ac49e6fac41498fb74c8fcfe19a36d54423d1f9fb5f377135b0b2077bf84d5e1b), (0x2e2B1c42E38f5af81771e65D87729E57ABD1337a, 4819, 0x, 0xb61d27f6000000000000000000000000acc000818e5bbd911d5d449aa81cb5ca240247390000000000000000000000000000000000000000000000000000000000000000000000000000000000000000000000000000000000000000000000000000006000000000000000000000000000000000000000000000000000000000000000a41cff79cd0000000000000000000000008a4720488ca32f1223ccfe5a087e250fe3bc5d7500000000000000000000000000000000000000000000000000000000000000400000000000000000000000000000000000000000000000000000000000000024456cf4920000000000000000000000005a446863e57aa494be118b01a722c23c291226d60000000000000000000000000000000000000000000000000000000000000000000000000000000000000000000000000000000000000000, 4000000, 210000, 21000, 1, 1000000000, 0x0000000000000000000000000000000000000000, 0x49f000c32c0f905b902c9e8e210f12bfa016d7e0cea37ef4b8d934cf88eabfd0610172c96f5ef55933b1e33d3ada1f109e1d9351c6be27dcb3a854a9a397fd0b1c512a871c6ded4e572afe2fa86f9405644028a308f2655330afdc33f58c87ddb86416a8f7c1b637f2e3d183d3c4f1edf702ec606532a680cb8d0605846aca1c261b), (0x2e2B1c42E38f5af81771e65D87729E57ABD1337a, 4820, 0x, 0xb61d27f6000000000000000000000000acc000818e5bbd911d5d449aa81cb5ca240247390000000000000000000000000000000000000000000000000000000000000000000000000000000000000000000000000000000000000000000000000000006000000000000000000000000000000000000000000000000000000000000000a41cff79cd0000000000000000000000008a4720488ca32f1223ccfe5a087e250fe3bc5d7500000000000000000000000000000000000000000000000000000000000000400000000000000000000000000000000000000000000000000000000000000024456cf4920000000000000000000000005a5d1a3eda849c10c57ec33e3d690b4f76e68b7e0000000000000000000000000000000000000000000000000000000000000000000000000000000000000000000000000000000000000000, 4000000, 210000, 21000, 1, 1000000000, 0x0000000000000000000000000000000000000000, 0x3302630fdd9ef4cbacd952caff96c9b90868fc75ad3c0f3dd26ee4c7c8401a9a329c5aed26c8d7d5a6eb184a44b6f923ed183a82f7fe0f4bcae8c5f0663dd7da1b4a0b8a6412ba7ce4be578a902837f9a446eddce58d6aab7fae9ce1914c3e69405a88796998fb5bd7cba36d63d2a0b68ea223ed9421698cfd7cff3d9b47e727f91c), (0x2e2B1c42E38f5af81771e65D87729E57ABD1337a, 4821, 0x, 0xb61d27f6000000000000000000000000acc000818e5bbd911d5d449aa81cb5ca240247390000000000000000000000000000000000000000000000000000000000000000000000000000000000000000000000000000000000000000000000000000006000000000000000000000000000000000000000000000000000000000000000a41cff79cd0000000000000000000000008a4720488ca32f1223ccfe5a087e250fe3bc5d7500000000000000000000000000000000000000000000000000000000000000400000000000000000000000000000000000000000000000000000000000000024456cf49200000000000000000000000019efde3eb0948b2ed8a87bf937f1a9f5f99af4130000000000000000000000000000000000000000000000000000000000000000000000000000000000000000000000000000000000000000, 4000000, 210000, 21000, 1, 1000000000, 0x0000000000000000000000000000000000000000, 0x09f13cc147e2ffe8c066410e1d037f56ed00c33abeb70a994f0b80dbe05f584b608b955dcaa65742a7ae15f77c3324bdd0ae23ab6c84999b79f16825033417961bbaa36d082d0939c4d19fdf4c432bcee053928d9e2ef663d7f5a98001ad09ac673a815b93abdb5059f021cf99ee98fb10592f57be7c50fe82d351b9f1799f1de11c), (0x2e2B1c42E38f5af81771e65D87729E57ABD1337a, 4822, 0x, 0xb61d27f6000000000000000000000000acc000818e5bbd911d5d449aa81cb5ca240247390000000000000000000000000000000000000000000000000000000000000000000000000000000000000000000000000000000000000000000000000000006000000000000000000000000000000000000000000000000000000000000000a41cff79cd0000000000000000000000008a4720488ca32f1223ccfe5a087e250fe3bc5d7500000000000000000000000000000000000000000000000000000000000000400000000000000000000000000000000000000000000000000000000000000024456cf4920000000000000000000000009e3646fd3fbc6136e2be61f320d545e2651b110b0000000000000000000000000000000000000000000000000000000000000000000000000000000000000000000000000000000000000000, 4000000, 210000, 21000, 1, 1000000000, 0x0000000000000000000000000000000000000000, 0xa4b02449b6f7aa0a3b145aa9b277d23b1c1b3e83ef1d993b65611ee84fe3eb9d28c85303b3072bbd65fab12d1600d9ee079567c7ed976dd7a99f0c3d0529c74c1b3d6d5c0c8daaa4e59a971e2edee645a6db14566fab9ea04ac0110fcb6078242d0d8d25cb9a0a1c85a102159ada6ba758523a2b1f5d1d2079646509bd4bfa762b1b), (0x2e2B1c42E38f5af81771e65D87729E57ABD1337a, 4823, 0x, 0xb61d27f6000000000000000000000000acc000818e5bbd911d5d449aa81cb5ca240247390000000000000000000000000000000000000000000000000000000000000000000000000000000000000000000000000000000000000000000000000000006000000000000000000000000000000000000000000000000000000000000000a41cff79cd0000000000000000000000008a4720488ca32f1223ccfe5a087e250fe3bc5d7500000000000000000000000000000000000000000000000000000000000000400000000000000000000000000000000000000000000000000000000000000024456cf492000000000000000000000000af8f010c49536467888c011f94bbae2caa5dc1a30000000000000000000000000000000000000000000000000000000000000000000000000000000000000000000000000000000000000000, 4000000, 210000, 21000, 1, 1000000000, 0x0000000000000000000000000000000000000000, 0x21ddcb7c2ccc5a1871318ad8d2f4727175eafc1bef4d3e3da3017ef9d70e30a24ce0d86070228b1abe29fc9055271928f434e5f2c88e97fb495b97a980f1c40f1baa439317bbf19b54b5d113034057914800aa70925e6abdc01d9d06010b7c91c8324c3fc2fde2ef5472055f09650c7c072b1ffe0b7e8aac10c000f1d39f9be8f91c), (0x2e2B1c42E38f5af81771e65D87729E57ABD1337a, 4824, 0x, 0xb61d27f6000000000000000000000000acc000818e5bbd911d5d449aa81cb5ca240247390000000000000000000000000000000000000000000000000000000000000000000000000000000000000000000000000000000000000000000000000000006000000000000000000000000000000000000000000000000000000000000000a41cff79cd0000000000000000000000008a4720488ca32f1223ccfe5a087e250fe3bc5d7500000000000000000000000000000000000000000000000000000000000000400000000000000000000000000000000000000000000000000000000000000024456cf492000000000000000000000000b8804656b0fba0292f79670d045697ebf27dfeb30000000000000000000000000000000000000000000000000000000000000000000000000000000000000000000000000000000000000000, 4000000, 210000, 21000, 1, 1000000000, 0x0000000000000000000000000000000000000000, 0x7e72d9bda73253ccd4154092ad5c37452765338220fd793c1e8daa30a3a2fe006851d934847b70edb66caf7fce6be6cc217111f1466deb7c341494ebb359681a1bd922dbb6160bfd7f352aab1a8c4c2bb7091466955a321235161e3ecac49758f47d48e0498f3b186d9fef65501359a42b0fe8f21d20525e2f25b9143a86eafd101c), (0x2e2B1c42E38f5af81771e65D87729E57ABD1337a, 4825, 0x, 0xb61d27f6000000000000000000000000acc000818e5bbd911d5d449aa81cb5ca240247390000000000000000000000000000000000000000000000000000000000000000000000000000000000000000000000000000000000000000000000000000006000000000000000000000000000000000000000000000000000000000000000a41cff79cd0000000000000000000000008a4720488ca32f1223ccfe5a087e250fe3bc5d7500000000000000000000000000000000000000000000000000000000000000400000000000000000000000000000000000000000000000000000000000000024456cf492000000000000000000000000fea79a294492927182f001e847aa67c9de68c0f40000000000000000000000000000000000000000000000000000000000000000000000000000000000000000000000000000000000000000, 4000000, 210000, 21000, 1, 1000000000, 0x0000000000000000000000000000000000000000, 0x558d0f6adc08183202372965b6fd41b5f944d657e60048cfe87bb444012a234012c76ae78b5d6d54134e0286be82b6cefca1930a5440376a6cf59d2439b8cd6b1c9263c7302da134e6d365cad646ebb28a1f2de8de7df1b6b64cd93bef542a14d62eabaa0c095a43758885488843d9cbebf266736f4f1b826382b538e94082093e1b), (0x2e2B1c42E38f5af81771e65D87729E57ABD1337a, 4826, 0x, 0xb61d27f6000000000000000000000000acc000818e5bbd911d5d449aa81cb5ca240247390000000000000000000000000000000000000000000000000000000000000000000000000000000000000000000000000000000000000000000000000000006000000000000000000000000000000000000000000000000000000000000000a41cff79cd0000000000000000000000008a4720488ca32f1223ccfe5a087e250fe3bc5d7500000000000000000000000000000000000000000000000000000000000000400000000000000000000000000000000000000000000000000000000000000024456cf492000000000000000000000000671a9238eec28ec8543eaa6af5c024d04a1ee5a90000000000000000000000000000000000000000000000000000000000000000000000000000000000000000000000000000000000000000, 4000000, 210000, 21000, 1, 1000000000, 0x0000000000000000000000000000000000000000, 0x2db846132e066dd8accafdc284d679d1d58174d00d92d96e788735032a3f7ddd47535e9383ecb6873f0efad6bdd2d0aba87dc5604caf4c61d0eb2744aebd5f251b555c56406e16301bd937db1df9deefa5523ee8ce6e7acf7cb5393cba6154dc357cce748ae6ce55ddc45446ffeb14ecc83109ff84e713f219ea9af85d8f39389b1c), (0x2e2B1c42E38f5af81771e65D87729E57ABD1337a, 4827, 0x, 0xb61d27f6000000000000000000000000acc000818e5bbd911d5d449aa81cb5ca240247390000000000000000000000000000000000000000000000000000000000000000000000000000000000000000000000000000000000000000000000000000006000000000000000000000000000000000000000000000000000000000000000a41cff79cd0000000000000000000000008a4720488ca32f1223ccfe5a087e250fe3bc5d7500000000000000000000000000000000000000000000000000000000000000400000000000000000000000000000000000000000000000000000000000000024456cf4920000000000000000000000002c4d81fc90029d1d64e1b0866bfad20f0d74fc810000000000000000000000000000000000000000000000000000000000000000000000000000000000000000000000000000000000000000, 4000000, 210000, 21000, 1, 1000000000, 0x0000000000000000000000000000000000000000, 0x512117264ab6f1c65e779e781a39d40565504126818eebf6b3544a7bf5c54e430b1e382db1dc126eca498134d74d2b00e99aaa16a1671b54e42c3e39c41d15361cc9c429a9121459e8fcfcaaf496d74b3732b3c923e7fff311f07ed4de863b35283846a98fe83b2de98cb602483a553ef1ea26892fe9276328a1fe78d401fc14f91b), (0x2e2B1c42E38f5af81771e65D87729E57ABD1337a, 4828, 0x, 0xb61d27f6000000000000000000000000acc000818e5bbd911d5d449aa81cb5ca240247390000000000000000000000000000000000000000000000000000000000000000000000000000000000000000000000000000000000000000000000000000006000000000000000000000000000000000000000000000000000000000000000a41cff79cd0000000000000000000000008a4720488ca32f1223ccfe5a087e250fe3bc5d7500000000000000000000000000000000000000000000000000000000000000400000000000000000000000000000000000000000000000000000000000000024456cf492000000000000000000000000b1dc83fa8e5eb62dfa92ba84bfa7be4e153d0e8f0000000000000000000000000000000000000000000000000000000000000000000000000000000000000000000000000000000000000000, 4000000, 210000, 21000, 1, 1000000000, 0x0000000000000000000000000000000000000000, 0x23aac8ab4c6e5be42c55877bf7b567c5942aade39ae98a53d8c2760feccb4b1067c0b67f841bf9768115215ee5567699dfc22e444c8913255e35075a31b644571bbb9f82310c03c0a33792238655d07afa651da2e7ba83ca47f7a4c0060bd0f4b82d7ee8e42843069a4d27ab50ca61940be300a12b1933704a11f8d0da03bc21c91c), (0x2e2B1c42E38f5af81771e65D87729E57ABD1337a, 4829, 0x, 0xb61d27f6000000000000000000000000acc000818e5bbd911d5d449aa81cb5ca240247390000000000000000000000000000000000000000000000000000000000000000000000000000000000000000000000000000000000000000000000000000006000000000000000000000000000000000000000000000000000000000000000a41cff79cd0000000000000000000000008a4720488ca32f1223ccfe5a087e250fe3bc5d7500000000000000000000000000000000000000000000000000000000000000400000000000000000000000000000000000000000000000000000000000000024456cf492000000000000000000000000d852b96e1dd11f45bd2286562dceddbce677fcde0000000000000000000000000000000000000000000000000000000000000000000000000000000000000000000000000000000000000000, 4000000, 210000, 21000, 1, 1000000000, 0x0000000000000000000000000000000000000000, 0xcafa6860de8e1628da6afb3653dc12faec647c9c6d57e47e288ccf01523c52302f43dbb4ccaf0d78802b5a148e471aed48daa7c78219aaf868725d7f92752e211b9986a51a7de97395ce541df81cbede41f8a9f4100e8a90d022dda6cb781f57d5148a27e7c5877c0772c34f19e50aeba631b755a574c9799073edff4d4c1032151c), (0x2e2B1c42E38f5af81771e65D87729E57ABD1337a, 4830, 0x, 0xb61d27f6000000000000000000000000acc000818e5bbd911d5d449aa81cb5ca240247390000000000000000000000000000000000000000000000000000000000000000000000000000000000000000000000000000000000000000000000000000006000000000000000000000000000000000000000000000000000000000000000a41cff79cd0000000000000000000000008a4720488ca32f1223ccfe5a087e250fe3bc5d7500000000000000000000000000000000000000000000000000000000000000400000000000000000000000000000000000000000000000000000000000000024456cf49200000000000000000000000077306a4f0b94f2a883bcbeb317d72cadfe4affbb0000000000000000000000000000000000000000000000000000000000000000000000000000000000000000000000000000000000000000, 4000000, 210000, 21000, 1, 1000000000, 0x0000000000000000000000000000000000000000, 0x4980c8e0b502b9a091f0d20b39242cfb9ead88209ae76e3bb0962b70c1a810b21ee8a0b22823f31223f879d653965c9ffb4c1880a87466b47a1952dbbf0792191c9809948c8a54b31e2d59d70bda01e05a719ab9fe931206fd447a94adc3d6e958435f67f1bd2779f7b8fc1f4ff36aaf40f48bf2ebb2eebc6c7de3eb0ff06438011b), (0x2e2B1c42E38f5af81771e65D87729E57ABD1337a, 4831, 0x, 0xb61d27f6000000000000000000000000acc000818e5bbd911d5d449aa81cb5ca240247390000000000000000000000000000000000000000000000000000000000000000000000000000000000000000000000000000000000000000000000000000006000000000000000000000000000000000000000000000000000000000000000a41cff79cd0000000000000000000000008a4720488ca32f1223ccfe5a087e250fe3bc5d7500000000000000000000000000000000000000000000000000000000000000400000000000000000000000000000000000000000000000000000000000000024456cf492000000000000000000000000394c930d4dbabc01ea69e021ffcaeb4d6910b7ed0000000000000000000000000000000000000000000000000000000000000000000000000000000000000000000000000000000000000000, 4000000, 210000, 21000, 1, 1000000000, 0x0000000000000000000000000000000000000000, 0x01894c4ae89313ce9eda77c58a412dd7b002c89f51abd5e80d564af23360969668376ba1fc885834e32bba9900615097edf8ab4bbbc27514ddcb5d923b102f631c28843b76a37c1bb3254027ccd7122e02ecc66f64965d5b41ad3c1df504d3d6d77efdc85f78bd9063b8c19e4c32bdaf4b425baa3c238a28b2ccdd41d61e86af1d1c), (0x2e2B1c42E38f5af81771e65D87729E57ABD1337a, 4832, 0x, 0xb61d27f6000000000000000000000000acc000818e5bbd911d5d449aa81cb5ca240247390000000000000000000000000000000000000000000000000000000000000000000000000000000000000000000000000000000000000000000000000000006000000000000000000000000000000000000000000000000000000000000000a41cff79cd0000000000000000000000008a4720488ca32f1223ccfe5a087e250fe3bc5d7500000000000000000000000000000000000000000000000000000000000000400000000000000000000000000000000000000000000000000000000000000024456cf492000000000000000000000000789e486b92a62b45ee27b74544bda7619fe7854c0000000000000000000000000000000000000000000000000000000000000000000000000000000000000000000000000000000000000000, 4000000, 210000, 21000, 1, 1000000000, 0x0000000000000000000000000000000000000000, 0xa0aaa22382c8c930ae70998ba02d4e20524f1eae20dc21d887d81a7c577ea93655b27ee7e25d28e3ad54cbf5ddb6f210fc95fa63fa65d599bf4b0ba990abbed41ca67605ef513410578082324c3f614f169e9a5e65b8dea14fb0667067790a154444631a4bbce30d5238c3836b375ebfe33a45d27200388c4936805d3313c679b71c)]",
        "0x660ad4B5A74130a4796B4d54BC6750Ae93C86e6c"
      ],
      "transaction": {
        "from": "0x660ad4b5a74130a4796b4d54bc6750ae93c86e6c",
        "to": "0x2843c269d2a64ecfa63548e8b3fc0fd23b7f70cb",
        "value": "0x0",
        "input": "0x1fad948c0000000000000000000000000000000000000000000000000000000000000040000000000000000000000000660ad4b5a74130a4796b4d54bc6750ae93c86e6c000000000000000000000000000000000000000000000000000000000000001600000000000000000000000000000000000000000000000000000000000002c000000000000000000000000000000000000000000000000000000000000006c00000000000000000000000000000000000000000000000000000000000000ac00000000000000000000000000000000000000000000000000000000000000ec000000000000000000000000000000000000000000000000000000000000012c000000000000000000000000000000000000000000000000000000000000016c00000000000000000000000000000000000000000000000000000000000001ac00000000000000000000000000000000000000000000000000000000000001ec000000000000000000000000000000000000000000000000000000000000022c000000000000000000000000000000000000000000000000000000000000026c00000000000000000000000000000000000000000000000000000000000002ac00000000000000000000000000000000000000000000000000000000000002ec000000000000000000000000000000000000000000000000000000000000032c000000000000000000000000000000000000000000000000000000000000036c00000000000000000000000000000000000000000000000000000000000003ac00000000000000000000000000000000000000000000000000000000000003ec000000000000000000000000000000000000000000000000000000000000042c000000000000000000000000000000000000000000000000000000000000046c00000000000000000000000000000000000000000000000000000000000004ac00000000000000000000000000000000000000000000000000000000000004ec000000000000000000000000000000000000000000000000000000000000052c000000000000000000000000000000000000000000000000000000000000056c00000000000000000000000002e2b1c42e38f5af81771e65d87729e57abd1337a00000000000000000000000000000000000000000000000000000000000012cb0000000000000000000000000000000000000000000000000000000000000160000000000000000000000000000000000000000000000000000000000000018000000000000000000000000000000000000000000000000000000000003d0900000000000000000000000000000000000000000000000000000000000003345000000000000000000000000000000000000000000000000000000000000052080000000000000000000000000000000000000000000000000000000000000001000000000000000000000000000000000000000000000000000000003b9aca000000000000000000000000000000000000000000000000000000000000000300000000000000000000000000000000000000000000000000000000000000034000000000000000000000000000000000000000000000000000000000000000000000000000000000000000000000000000000000000000000000000000000144b61d27f6000000000000000000000000acc000818e5bbd911d5d449aa81cb5ca240247390000000000000000000000000000000000000000000000000000000000000000000000000000000000000000000000000000000000000000000000000000006000000000000000000000000000000000000000000000000000000000000000a41cff79cd0000000000000000000000008a4720488ca32f1223ccfe5a087e250fe3bc5d7500000000000000000000000000000000000000000000000000000000000000400000000000000000000000000000000000000000000000000000000000000024456cf492000000000000000000000000045abb334b08aa3ff1e90e9befd9a6866e74fcf4000000000000000000000000000000000000000000000000000000000000000000000000000000000000000000000000000000000000000000000000000000000000000000000000000000000000000000000000000000000000000000000000000000000000000000000000000000000000001400000000000000000000000000000000000000000000000000000000000000000000000000000000000000000000000000000000000000000000000000000082553f63af9bc6a90991fb601054adea54c78aed0ca2417c04e28a16c17484463858cf117368bfca13465854af1542898e7eb3e787a90471f198570c762ca3d3cc1cd4656b6e5bfde976b0856d4265e3c6c3125f5c4ec4d1d8a27b03aa8a1eedced818ebb6b1821bc80c4638f79785360a67742906d78c69a8d9017199787b3fe2201c0000000000000000000000000000000000000000000000000000000000000000000000000000000000002e2b1c42e38f5af81771e65d87729e57abd1337a00000000000000000000000000000000000000000000000000000000000012cc0000000000000000000000000000000000000000000000000000000000000160000000000000000000000000000000000000000000000000000000000000018000000000000000000000000000000000000000000000000000000000003d0900000000000000000000000000000000000000000000000000000000000003345000000000000000000000000000000000000000000000000000000000000052080000000000000000000000000000000000000000000000000000000000000001000000000000000000000000000000000000000000000000000000003b9aca000000000000000000000000000000000000000000000000000000000000000300000000000000000000000000000000000000000000000000000000000000034000000000000000000000000000000000000000000000000000000000000000000000000000000000000000000000000000000000000000000000000000000144b61d27f6000000000000000000000000acc000818e5bbd911d5d449aa81cb5ca240247390000000000000000000000000000000000000000000000000000000000000000000000000000000000000000000000000000000000000000000000000000006000000000000000000000000000000000000000000000000000000000000000a41cff79cd0000000000000000000000008a4720488ca32f1223ccfe5a087e250fe3bc5d7500000000000000000000000000000000000000000000000000000000000000400000000000000000000000000000000000000000000000000000000000000024456cf4920000000000000000000000009d4b54d4fe9c3dd3bd311b5f2baab39ee669471e0000000000000000000000000000000000000000000000000000000000000000000000000000000000000000000000000000000000000000000000000000000000000000000000000000000000000000000000000000000000000000000000000000000000000000000000000000000000000014000000000000000000000000000000000000000000000000000000000000000000000000000000000000000000000000000000000000000000000000000000827ce3ae0de5e7d671ac9fbe10d5bd8e5a833a15b6a649ba92395ea9f5d81f726438a59fdf938b3d1bc0b419ebb60dc43da8a230c44a4310495c87490da5f250391ca16b3db604740283b163027f59b0b9cd89456a1d26525128fc12ac25298d6bca68f875473861b83c5866943402470a6d6e1600a9d6d8c3fd0ae0e96a09a74d071b0000000000000000000000000000000000000000000000000000000000000000000000000000000000002e2b1c42e38f5af81771e65d87729e57abd1337a00000000000000000000000000000000000000000000000000000000000012cd0000000000000000000000000000000000000000000000000000000000000160000000000000000000000000000000000000000000000000000000000000018000000000000000000000000000000000000000000000000000000000003d0900000000000000000000000000000000000000000000000000000000000003345000000000000000000000000000000000000000000000000000000000000052080000000000000000000000000000000000000000000000000000000000000001000000000000000000000000000000000000000000000000000000003b9aca000000000000000000000000000000000000000000000000000000000000000300000000000000000000000000000000000000000000000000000000000000034000000000000000000000000000000000000000000000000000000000000000000000000000000000000000000000000000000000000000000000000000000144b61d27f6000000000000000000000000acc000818e5bbd911d5d449aa81cb5ca240247390000000000000000000000000000000000000000000000000000000000000000000000000000000000000000000000000000000000000000000000000000006000000000000000000000000000000000000000000000000000000000000000a41cff79cd0000000000000000000000008a4720488ca32f1223ccfe5a087e250fe3bc5d7500000000000000000000000000000000000000000000000000000000000000400000000000000000000000000000000000000000000000000000000000000024456cf492000000000000000000000000860e2920ddaf1beb2e4399aeefb70fd52efce9fe0000000000000000000000000000000000000000000000000000000000000000000000000000000000000000000000000000000000000000000000000000000000000000000000000000000000000000000000000000000000000000000000000000000000000000000000000000000000000014000000000000000000000000000000000000000000000000000000000000000000000000000000000000000000000000000000000000000000000000000000825efd686c1b21335ed411a99cf108d6c80ff56b29d9a87f221f1d624323666f3a7374e117469be8b39c939909e1a61310b7f502965370936274e41fc00c51f35a1c22a505e5cbede530dff0998631b57d876903195965e11723771f7251cf44147b1dbdff5bea0bcf5b3ef4760b1f65df66511c74e85451401075b9eeb4b56d402e1c0000000000000000000000000000000000000000000000000000000000000000000000000000000000002e2b1c42e38f5af81771e65d87729e57abd1337a00000000000000000000000000000000000000000000000000000000000012ce0000000000000000000000000000000000000000000000000000000000000160000000000000000000000000000000000000000000000000000000000000018000000000000000000000000000000000000000000000000000000000003d0900000000000000000000000000000000000000000000000000000000000003345000000000000000000000000000000000000000000000000000000000000052080000000000000000000000000000000000000000000000000000000000000001000000000000000000000000000000000000000000000000000000003b9aca000000000000000000000000000000000000000000000000000000000000000300000000000000000000000000000000000000000000000000000000000000034000000000000000000000000000000000000000000000000000000000000000000000000000000000000000000000000000000000000000000000000000000144b61d27f6000000000000000000000000acc000818e5bbd911d5d449aa81cb5ca240247390000000000000000000000000000000000000000000000000000000000000000000000000000000000000000000000000000000000000000000000000000006000000000000000000000000000000000000000000000000000000000000000a41cff79cd0000000000000000000000008a4720488ca32f1223ccfe5a087e250fe3bc5d7500000000000000000000000000000000000000000000000000000000000000400000000000000000000000000000000000000000000000000000000000000024456cf4920000000000000000000000008f087f15df5f56834e925ff512cd1f46eadb5f890000000000000000000000000000000000000000000000000000000000000000000000000000000000000000000000000000000000000000000000000000000000000000000000000000000000000000000000000000000000000000000000000000000000000000000000000000000000000014000000000000000000000000000000000000000000000000000000000000000000000000000000000000000000000000000000000000000000000000000000828911ea7c9d3d71fd74d9a8bc319b0ab42565bd219be3027f505a0d1b9679a8cd545a597a780278979559f8407ada02916fed567b740dd5539aabfd8f51d0c5b91b3b843f645b0dba465f97c2a5267aa4135e586ca52741fbf27db7a03146b47b7a62084fd21517c626f7c5c2a46c2af08b573083e0cb07415b85714c8472e95ef01b0000000000000000000000000000000000000000000000000000000000000000000000000000000000002e2b1c42e38f5af81771e65d87729e57abd1337a00000000000000000000000000000000000000000000000000000000000012cf0000000000000000000000000000000000000000000000000000000000000160000000000000000000000000000000000000000000000000000000000000018000000000000000000000000000000000000000000000000000000000003d0900000000000000000000000000000000000000000000000000000000000003345000000000000000000000000000000000000000000000000000000000000052080000000000000000000000000000000000000000000000000000000000000001000000000000000000000000000000000000000000000000000000003b9aca000000000000000000000000000000000000000000000000000000000000000300000000000000000000000000000000000000000000000000000000000000034000000000000000000000000000000000000000000000000000000000000000000000000000000000000000000000000000000000000000000000000000000144b61d27f6000000000000000000000000acc000818e5bbd911d5d449aa81cb5ca240247390000000000000000000000000000000000000000000000000000000000000000000000000000000000000000000000000000000000000000000000000000006000000000000000000000000000000000000000000000000000000000000000a41cff79cd0000000000000000000000008a4720488ca32f1223ccfe5a087e250fe3bc5d7500000000000000000000000000000000000000000000000000000000000000400000000000000000000000000000000000000000000000000000000000000024456cf492000000000000000000000000d00c99c562415eeb9160ca6f7dc0852d6973d7a40000000000000000000000000000000000000000000000000000000000000000000000000000000000000000000000000000000000000000000000000000000000000000000000000000000000000000000000000000000000000000000000000000000000000000000000000000000000000014000000000000000000000000000000000000000000000000000000000000000000000000000000000000000000000000000000000000000000000000000000824e5d2efa5062eb48eeadc5f423636c1056df85065540ee623a084d54d5f3244f65f30b72edcb86e0f41968fededff1f80d8ac43f212cf5dfdacb9a8dea321b1e1ccf57abbee3aa14fa86439bbb302f5ca069229f33628be06550ecc4e92dc804b76aaebaa1b9737b15c1e5220acb904011e9e4d5bedc19bfd7befee2fb4ce4b9cc1c0000000000000000000000000000000000000000000000000000000000000000000000000000000000002e2b1c42e38f5af81771e65d87729e57abd1337a00000000000000000000000000000000000000000000000000000000000012d00000000000000000000000000000000000000000000000000000000000000160000000000000000000000000000000000000000000000000000000000000018000000000000000000000000000000000000000000000000000000000003d0900000000000000000000000000000000000000000000000000000000000003345000000000000000000000000000000000000000000000000000000000000052080000000000000000000000000000000000000000000000000000000000000001000000000000000000000000000000000000000000000000000000003b9aca000000000000000000000000000000000000000000000000000000000000000300000000000000000000000000000000000000000000000000000000000000034000000000000000000000000000000000000000000000000000000000000000000000000000000000000000000000000000000000000000000000000000000144b61d27f6000000000000000000000000acc000818e5bbd911d5d449aa81cb5ca240247390000000000000000000000000000000000000000000000000000000000000000000000000000000000000000000000000000000000000000000000000000006000000000000000000000000000000000000000000000000000000000000000a41cff79cd0000000000000000000000008a4720488ca32f1223ccfe5a087e250fe3bc5d7500000000000000000000000000000000000000000000000000000000000000400000000000000000000000000000000000000000000000000000000000000024456cf492000000000000000000000000abe640e54ce41e8c500b34ab0b4aa5e54daac038000000000000000000000000000000000000000000000000000000000000000000000000000000000000000000000000000000000000000000000000000000000000000000000000000000000000000000000000000000000000000000000000000000000000000000000000000000000000001400000000000000000000000000000000000000000000000000000000000000000000000000000000000000000000000000000000000000000000000000000082b10dec9a06e0e82f60f868e2b3ca2fffca450a7a5058bbb205ad3230fa99ebcb790f8f72c6b3f9613ef26395347351804c7fa4d11c5c7cf0bf25215c78fcca6e1b54fdadc270a4866f1a0679f4d9615edcb032b30ea892bfcfa353b90554ae2ea214251424c2c9613b0314989635dd1edba35771cafcd1c71a6edf2b3d6b5b41851c0000000000000000000000000000000000000000000000000000000000000000000000000000000000002e2b1c42e38f5af81771e65d87729e57abd1337a00000000000000000000000000000000000000000000000000000000000012d10000000000000000000000000000000000000000000000000000000000000160000000000000000000000000000000000000000000000000000000000000018000000000000000000000000000000000000000000000000000000000003d0900000000000000000000000000000000000000000000000000000000000003345000000000000000000000000000000000000000000000000000000000000052080000000000000000000000000000000000000000000000000000000000000001000000000000000000000000000000000000000000000000000000003b9aca000000000000000000000000000000000000000000000000000000000000000300000000000000000000000000000000000000000000000000000000000000034000000000000000000000000000000000000000000000000000000000000000000000000000000000000000000000000000000000000000000000000000000144b61d27f6000000000000000000000000acc000818e5bbd911d5d449aa81cb5ca240247390000000000000000000000000000000000000000000000000000000000000000000000000000000000000000000000000000000000000000000000000000006000000000000000000000000000000000000000000000000000000000000000a41cff79cd0000000000000000000000008a4720488ca32f1223ccfe5a087e250fe3bc5d7500000000000000000000000000000000000000000000000000000000000000400000000000000000000000000000000000000000000000000000000000000024456cf492000000000000000000000000c86569d456ffb522cb89a7149dcd3d8258703f7000000000000000000000000000000000000000000000000000000000000000000000000000000000000000000000000000000000000000000000000000000000000000000000000000000000000000000000000000000000000000000000000000000000000000000000000000000000000000140000000000000000000000000000000000000000000000000000000000000000000000000000000000000000000000000000000000000000000000000000008276547d5214dc19f3b905377c6fbb28db88f46841231bd2fb6303fb3c998e20645c9667c59d2f37ce0b2a0a713a132e33ffa69b7455290769fd7121e1f50fcfa21cd3f79baa8377c32d1bcc35846b8c3839a79d81067ffa8e063dba56a3f45af47b5ff54065cc59d34694dc4ccbf9d22a83ba1e335d539dff5f85bede48ca5764471c0000000000000000000000000000000000000000000000000000000000000000000000000000000000002e2b1c42e38f5af81771e65d87729e57abd1337a00000000000000000000000000000000000000000000000000000000000012d20000000000000000000000000000000000000000000000000000000000000160000000000000000000000000000000000000000000000000000000000000018000000000000000000000000000000000000000000000000000000000003d0900000000000000000000000000000000000000000000000000000000000003345000000000000000000000000000000000000000000000000000000000000052080000000000000000000000000000000000000000000000000000000000000001000000000000000000000000000000000000000000000000000000003b9aca000000000000000000000000000000000000000000000000000000000000000300000000000000000000000000000000000000000000000000000000000000034000000000000000000000000000000000000000000000000000000000000000000000000000000000000000000000000000000000000000000000000000000144b61d27f6000000000000000000000000acc000818e5bbd911d5d449aa81cb5ca240247390000000000000000000000000000000000000000000000000000000000000000000000000000000000000000000000000000000000000000000000000000006000000000000000000000000000000000000000000000000000000000000000a41cff79cd0000000000000000000000008a4720488ca32f1223ccfe5a087e250fe3bc5d7500000000000000000000000000000000000000000000000000000000000000400000000000000000000000000000000000000000000000000000000000000024456cf4920000000000000000000000003f6fd43756329904e277cb941b75b8d4bea9c0a30000000000000000000000000000000000000000000000000000000000000000000000000000000000000000000000000000000000000000000000000000000000000000000000000000000000000000000000000000000000000000000000000000000000000000000000000000000000000014000000000000000000000000000000000000000000000000000000000000000000000000000000000000000000000000000000000000000000000000000000820681aba1fcdcbe9bc2581926e08a89f1c3f05d63b397b8480907221b166dbbd05578a4c73ca679eac877a4ef23a74c1661d07287094acaad796a1a49df59e7c61bd4642b6fc82452c28da97d8678d0f0f934629735549240c8a35a9c7d034c52846ac49e6fac41498fb74c8fcfe19a36d54423d1f9fb5f377135b0b2077bf84d5e1b0000000000000000000000000000000000000000000000000000000000000000000000000000000000002e2b1c42e38f5af81771e65d87729e57abd1337a00000000000000000000000000000000000000000000000000000000000012d30000000000000000000000000000000000000000000000000000000000000160000000000000000000000000000000000000000000000000000000000000018000000000000000000000000000000000000000000000000000000000003d0900000000000000000000000000000000000000000000000000000000000003345000000000000000000000000000000000000000000000000000000000000052080000000000000000000000000000000000000000000000000000000000000001000000000000000000000000000000000000000000000000000000003b9aca000000000000000000000000000000000000000000000000000000000000000300000000000000000000000000000000000000000000000000000000000000034000000000000000000000000000000000000000000000000000000000000000000000000000000000000000000000000000000000000000000000000000000144b61d27f6000000000000000000000000acc000818e5bbd911d5d449aa81cb5ca240247390000000000000000000000000000000000000000000000000000000000000000000000000000000000000000000000000000000000000000000000000000006000000000000000000000000000000000000000000000000000000000000000a41cff79cd0000000000000000000000008a4720488ca32f1223ccfe5a087e250fe3bc5d7500000000000000000000000000000000000000000000000000000000000000400000000000000000000000000000000000000000000000000000000000000024456cf4920000000000000000000000005a446863e57aa494be118b01a722c23c291226d600000000000000000000000000000000000000000000000000000000000000000000000000000000000000000000000000000000000000000000000000000000000000000000000000000000000000000000000000000000000000000000000000000000000000000000000000000000000000140000000000000000000000000000000000000000000000000000000000000000000000000000000000000000000000000000000000000000000000000000008249f000c32c0f905b902c9e8e210f12bfa016d7e0cea37ef4b8d934cf88eabfd0610172c96f5ef55933b1e33d3ada1f109e1d9351c6be27dcb3a854a9a397fd0b1c512a871c6ded4e572afe2fa86f9405644028a308f2655330afdc33f58c87ddb86416a8f7c1b637f2e3d183d3c4f1edf702ec606532a680cb8d0605846aca1c261b0000000000000000000000000000000000000000000000000000000000000000000000000000000000002e2b1c42e38f5af81771e65d87729e57abd1337a00000000000000000000000000000000000000000000000000000000000012d40000000000000000000000000000000000000000000000000000000000000160000000000000000000000000000000000000000000000000000000000000018000000000000000000000000000000000000000000000000000000000003d0900000000000000000000000000000000000000000000000000000000000003345000000000000000000000000000000000000000000000000000000000000052080000000000000000000000000000000000000000000000000000000000000001000000000000000000000000000000000000000000000000000000003b9aca000000000000000000000000000000000000000000000000000000000000000300000000000000000000000000000000000000000000000000000000000000034000000000000000000000000000000000000000000000000000000000000000000000000000000000000000000000000000000000000000000000000000000144b61d27f6000000000000000000000000acc000818e5bbd911d5d449aa81cb5ca240247390000000000000000000000000000000000000000000000000000000000000000000000000000000000000000000000000000000000000000000000000000006000000000000000000000000000000000000000000000000000000000000000a41cff79cd0000000000000000000000008a4720488ca32f1223ccfe5a087e250fe3bc5d7500000000000000000000000000000000000000000000000000000000000000400000000000000000000000000000000000000000000000000000000000000024456cf4920000000000000000000000005a5d1a3eda849c10c57ec33e3d690b4f76e68b7e0000000000000000000000000000000000000000000000000000000000000000000000000000000000000000000000000000000000000000000000000000000000000000000000000000000000000000000000000000000000000000000000000000000000000000000000000000000000000014000000000000000000000000000000000000000000000000000000000000000000000000000000000000000000000000000000000000000000000000000000823302630fdd9ef4cbacd952caff96c9b90868fc75ad3c0f3dd26ee4c7c8401a9a329c5aed26c8d7d5a6eb184a44b6f923ed183a82f7fe0f4bcae8c5f0663dd7da1b4a0b8a6412ba7ce4be578a902837f9a446eddce58d6aab7fae9ce1914c3e69405a88796998fb5bd7cba36d63d2a0b68ea223ed9421698cfd7cff3d9b47e727f91c0000000000000000000000000000000000000000000000000000000000000000000000000000000000002e2b1c42e38f5af81771e65d87729e57abd1337a00000000000000000000000000000000000000000000000000000000000012d50000000000000000000000000000000000000000000000000000000000000160000000000000000000000000000000000000000000000000000000000000018000000000000000000000000000000000000000000000000000000000003d0900000000000000000000000000000000000000000000000000000000000003345000000000000000000000000000000000000000000000000000000000000052080000000000000000000000000000000000000000000000000000000000000001000000000000000000000000000000000000000000000000000000003b9aca000000000000000000000000000000000000000000000000000000000000000300000000000000000000000000000000000000000000000000000000000000034000000000000000000000000000000000000000000000000000000000000000000000000000000000000000000000000000000000000000000000000000000144b61d27f6000000000000000000000000acc000818e5bbd911d5d449aa81cb5ca240247390000000000000000000000000000000000000000000000000000000000000000000000000000000000000000000000000000000000000000000000000000006000000000000000000000000000000000000000000000000000000000000000a41cff79cd0000000000000000000000008a4720488ca32f1223ccfe5a087e250fe3bc5d7500000000000000000000000000000000000000000000000000000000000000400000000000000000000000000000000000000000000000000000000000000024456cf49200000000000000000000000019efde3eb0948b2ed8a87bf937f1a9f5f99af41300000000000000000000000000000000000000000000000000000000000000000000000000000000000000000000000000000000000000000000000000000000000000000000000000000000000000000000000000000000000000000000000000000000000000000000000000000000000000140000000000000000000000000000000000000000000000000000000000000000000000000000000000000000000000000000000000000000000000000000008209f13cc147e2ffe8c066410e1d037f56ed00c33abeb70a994f0b80dbe05f584b608b955dcaa65742a7ae15f77c3324bdd0ae23ab6c84999b79f16825033417961bbaa36d082d0939c4d19fdf4c432bcee053928d9e2ef663d7f5a98001ad09ac673a815b93abdb5059f021cf99ee98fb10592f57be7c50fe82d351b9f1799f1de11c0000000000000000000000000000000000000000000000000000000000000000000000000000000000002e2b1c42e38f5af81771e65d87729e57abd1337a00000000000000000000000000000000000000000000000000000000000012d60000000000000000000000000000000000000000000000000000000000000160000000000000000000000000000000000000000000000000000000000000018000000000000000000000000000000000000000000000000000000000003d0900000000000000000000000000000000000000000000000000000000000003345000000000000000000000000000000000000000000000000000000000000052080000000000000000000000000000000000000000000000000000000000000001000000000000000000000000000000000000000000000000000000003b9aca000000000000000000000000000000000000000000000000000000000000000300000000000000000000000000000000000000000000000000000000000000034000000000000000000000000000000000000000000000000000000000000000000000000000000000000000000000000000000000000000000000000000000144b61d27f6000000000000000000000000acc000818e5bbd911d5d449aa81cb5ca240247390000000000000000000000000000000000000000000000000000000000000000000000000000000000000000000000000000000000000000000000000000006000000000000000000000000000000000000000000000000000000000000000a41cff79cd0000000000000000000000008a4720488ca32f1223ccfe5a087e250fe3bc5d7500000000000000000000000000000000000000000000000000000000000000400000000000000000000000000000000000000000000000000000000000000024456cf4920000000000000000000000009e3646fd3fbc6136e2be61f320d545e2651b110b000000000000000000000000000000000000000000000000000000000000000000000000000000000000000000000000000000000000000000000000000000000000000000000000000000000000000000000000000000000000000000000000000000000000000000000000000000000000001400000000000000000000000000000000000000000000000000000000000000000000000000000000000000000000000000000000000000000000000000000082a4b02449b6f7aa0a3b145aa9b277d23b1c1b3e83ef1d993b65611ee84fe3eb9d28c85303b3072bbd65fab12d1600d9ee079567c7ed976dd7a99f0c3d0529c74c1b3d6d5c0c8daaa4e59a971e2edee645a6db14566fab9ea04ac0110fcb6078242d0d8d25cb9a0a1c85a102159ada6ba758523a2b1f5d1d2079646509bd4bfa762b1b0000000000000000000000000000000000000000000000000000000000000000000000000000000000002e2b1c42e38f5af81771e65d87729e57abd1337a00000000000000000000000000000000000000000000000000000000000012d70000000000000000000000000000000000000000000000000000000000000160000000000000000000000000000000000000000000000000000000000000018000000000000000000000000000000000000000000000000000000000003d0900000000000000000000000000000000000000000000000000000000000003345000000000000000000000000000000000000000000000000000000000000052080000000000000000000000000000000000000000000000000000000000000001000000000000000000000000000000000000000000000000000000003b9aca000000000000000000000000000000000000000000000000000000000000000300000000000000000000000000000000000000000000000000000000000000034000000000000000000000000000000000000000000000000000000000000000000000000000000000000000000000000000000000000000000000000000000144b61d27f6000000000000000000000000acc000818e5bbd911d5d449aa81cb5ca240247390000000000000000000000000000000000000000000000000000000000000000000000000000000000000000000000000000000000000000000000000000006000000000000000000000000000000000000000000000000000000000000000a41cff79cd0000000000000000000000008a4720488ca32f1223ccfe5a087e250fe3bc5d7500000000000000000000000000000000000000000000000000000000000000400000000000000000000000000000000000000000000000000000000000000024456cf492000000000000000000000000af8f010c49536467888c011f94bbae2caa5dc1a300000000000000000000000000000000000000000000000000000000000000000000000000000000000000000000000000000000000000000000000000000000000000000000000000000000000000000000000000000000000000000000000000000000000000000000000000000000000000140000000000000000000000000000000000000000000000000000000000000000000000000000000000000000000000000000000000000000000000000000008221ddcb7c2ccc5a1871318ad8d2f4727175eafc1bef4d3e3da3017ef9d70e30a24ce0d86070228b1abe29fc9055271928f434e5f2c88e97fb495b97a980f1c40f1baa439317bbf19b54b5d113034057914800aa70925e6abdc01d9d06010b7c91c8324c3fc2fde2ef5472055f09650c7c072b1ffe0b7e8aac10c000f1d39f9be8f91c0000000000000000000000000000000000000000000000000000000000000000000000000000000000002e2b1c42e38f5af81771e65d87729e57abd1337a00000000000000000000000000000000000000000000000000000000000012d80000000000000000000000000000000000000000000000000000000000000160000000000000000000000000000000000000000000000000000000000000018000000000000000000000000000000000000000000000000000000000003d0900000000000000000000000000000000000000000000000000000000000003345000000000000000000000000000000000000000000000000000000000000052080000000000000000000000000000000000000000000000000000000000000001000000000000000000000000000000000000000000000000000000003b9aca000000000000000000000000000000000000000000000000000000000000000300000000000000000000000000000000000000000000000000000000000000034000000000000000000000000000000000000000000000000000000000000000000000000000000000000000000000000000000000000000000000000000000144b61d27f6000000000000000000000000acc000818e5bbd911d5d449aa81cb5ca240247390000000000000000000000000000000000000000000000000000000000000000000000000000000000000000000000000000000000000000000000000000006000000000000000000000000000000000000000000000000000000000000000a41cff79cd0000000000000000000000008a4720488ca32f1223ccfe5a087e250fe3bc5d7500000000000000000000000000000000000000000000000000000000000000400000000000000000000000000000000000000000000000000000000000000024456cf492000000000000000000000000b8804656b0fba0292f79670d045697ebf27dfeb30000000000000000000000000000000000000000000000000000000000000000000000000000000000000000000000000000000000000000000000000000000000000000000000000000000000000000000000000000000000000000000000000000000000000000000000000000000000000014000000000000000000000000000000000000000000000000000000000000000000000000000000000000000000000000000000000000000000000000000000827e72d9bda73253ccd4154092ad5c37452765338220fd793c1e8daa30a3a2fe006851d934847b70edb66caf7fce6be6cc217111f1466deb7c341494ebb359681a1bd922dbb6160bfd7f352aab1a8c4c2bb7091466955a321235161e3ecac49758f47d48e0498f3b186d9fef65501359a42b0fe8f21d20525e2f25b9143a86eafd101c0000000000000000000000000000000000000000000000000000000000000000000000000000000000002e2b1c42e38f5af81771e65d87729e57abd1337a00000000000000000000000000000000000000000000000000000000000012d90000000000000000000000000000000000000000000000000000000000000160000000000000000000000000000000000000000000000000000000000000018000000000000000000000000000000000000000000000000000000000003d0900000000000000000000000000000000000000000000000000000000000003345000000000000000000000000000000000000000000000000000000000000052080000000000000000000000000000000000000000000000000000000000000001000000000000000000000000000000000000000000000000000000003b9aca000000000000000000000000000000000000000000000000000000000000000300000000000000000000000000000000000000000000000000000000000000034000000000000000000000000000000000000000000000000000000000000000000000000000000000000000000000000000000000000000000000000000000144b61d27f6000000000000000000000000acc000818e5bbd911d5d449aa81cb5ca240247390000000000000000000000000000000000000000000000000000000000000000000000000000000000000000000000000000000000000000000000000000006000000000000000000000000000000000000000000000000000000000000000a41cff79cd0000000000000000000000008a4720488ca32f1223ccfe5a087e250fe3bc5d7500000000000000000000000000000000000000000000000000000000000000400000000000000000000000000000000000000000000000000000000000000024456cf492000000000000000000000000fea79a294492927182f001e847aa67c9de68c0f4000000000000000000000000000000000000000000000000000000000000000000000000000000000000000000000000000000000000000000000000000000000000000000000000000000000000000000000000000000000000000000000000000000000000000000000000000000000000001400000000000000000000000000000000000000000000000000000000000000000000000000000000000000000000000000000000000000000000000000000082558d0f6adc08183202372965b6fd41b5f944d657e60048cfe87bb444012a234012c76ae78b5d6d54134e0286be82b6cefca1930a5440376a6cf59d2439b8cd6b1c9263c7302da134e6d365cad646ebb28a1f2de8de7df1b6b64cd93bef542a14d62eabaa0c095a43758885488843d9cbebf266736f4f1b826382b538e94082093e1b0000000000000000000000000000000000000000000000000000000000000000000000000000000000002e2b1c42e38f5af81771e65d87729e57abd1337a00000000000000000000000000000000000000000000000000000000000012da0000000000000000000000000000000000000000000000000000000000000160000000000000000000000000000000000000000000000000000000000000018000000000000000000000000000000000000000000000000000000000003d0900000000000000000000000000000000000000000000000000000000000003345000000000000000000000000000000000000000000000000000000000000052080000000000000000000000000000000000000000000000000000000000000001000000000000000000000000000000000000000000000000000000003b9aca000000000000000000000000000000000000000000000000000000000000000300000000000000000000000000000000000000000000000000000000000000034000000000000000000000000000000000000000000000000000000000000000000000000000000000000000000000000000000000000000000000000000000144b61d27f6000000000000000000000000acc000818e5bbd911d5d449aa81cb5ca240247390000000000000000000000000000000000000000000000000000000000000000000000000000000000000000000000000000000000000000000000000000006000000000000000000000000000000000000000000000000000000000000000a41cff79cd0000000000000000000000008a4720488ca32f1223ccfe5a087e250fe3bc5d7500000000000000000000000000000000000000000000000000000000000000400000000000000000000000000000000000000000000000000000000000000024456cf492000000000000000000000000671a9238eec28ec8543eaa6af5c024d04a1ee5a90000000000000000000000000000000000000000000000000000000000000000000000000000000000000000000000000000000000000000000000000000000000000000000000000000000000000000000000000000000000000000000000000000000000000000000000000000000000000014000000000000000000000000000000000000000000000000000000000000000000000000000000000000000000000000000000000000000000000000000000822db846132e066dd8accafdc284d679d1d58174d00d92d96e788735032a3f7ddd47535e9383ecb6873f0efad6bdd2d0aba87dc5604caf4c61d0eb2744aebd5f251b555c56406e16301bd937db1df9deefa5523ee8ce6e7acf7cb5393cba6154dc357cce748ae6ce55ddc45446ffeb14ecc83109ff84e713f219ea9af85d8f39389b1c0000000000000000000000000000000000000000000000000000000000000000000000000000000000002e2b1c42e38f5af81771e65d87729e57abd1337a00000000000000000000000000000000000000000000000000000000000012db0000000000000000000000000000000000000000000000000000000000000160000000000000000000000000000000000000000000000000000000000000018000000000000000000000000000000000000000000000000000000000003d0900000000000000000000000000000000000000000000000000000000000003345000000000000000000000000000000000000000000000000000000000000052080000000000000000000000000000000000000000000000000000000000000001000000000000000000000000000000000000000000000000000000003b9aca000000000000000000000000000000000000000000000000000000000000000300000000000000000000000000000000000000000000000000000000000000034000000000000000000000000000000000000000000000000000000000000000000000000000000000000000000000000000000000000000000000000000000144b61d27f6000000000000000000000000acc000818e5bbd911d5d449aa81cb5ca240247390000000000000000000000000000000000000000000000000000000000000000000000000000000000000000000000000000000000000000000000000000006000000000000000000000000000000000000000000000000000000000000000a41cff79cd0000000000000000000000008a4720488ca32f1223ccfe5a087e250fe3bc5d7500000000000000000000000000000000000000000000000000000000000000400000000000000000000000000000000000000000000000000000000000000024456cf4920000000000000000000000002c4d81fc90029d1d64e1b0866bfad20f0d74fc81000000000000000000000000000000000000000000000000000000000000000000000000000000000000000000000000000000000000000000000000000000000000000000000000000000000000000000000000000000000000000000000000000000000000000000000000000000000000001400000000000000000000000000000000000000000000000000000000000000000000000000000000000000000000000000000000000000000000000000000082512117264ab6f1c65e779e781a39d40565504126818eebf6b3544a7bf5c54e430b1e382db1dc126eca498134d74d2b00e99aaa16a1671b54e42c3e39c41d15361cc9c429a9121459e8fcfcaaf496d74b3732b3c923e7fff311f07ed4de863b35283846a98fe83b2de98cb602483a553ef1ea26892fe9276328a1fe78d401fc14f91b0000000000000000000000000000000000000000000000000000000000000000000000000000000000002e2b1c42e38f5af81771e65d87729e57abd1337a00000000000000000000000000000000000000000000000000000000000012dc0000000000000000000000000000000000000000000000000000000000000160000000000000000000000000000000000000000000000000000000000000018000000000000000000000000000000000000000000000000000000000003d0900000000000000000000000000000000000000000000000000000000000003345000000000000000000000000000000000000000000000000000000000000052080000000000000000000000000000000000000000000000000000000000000001000000000000000000000000000000000000000000000000000000003b9aca000000000000000000000000000000000000000000000000000000000000000300000000000000000000000000000000000000000000000000000000000000034000000000000000000000000000000000000000000000000000000000000000000000000000000000000000000000000000000000000000000000000000000144b61d27f6000000000000000000000000acc000818e5bbd911d5d449aa81cb5ca240247390000000000000000000000000000000000000000000000000000000000000000000000000000000000000000000000000000000000000000000000000000006000000000000000000000000000000000000000000000000000000000000000a41cff79cd0000000000000000000000008a4720488ca32f1223ccfe5a087e250fe3bc5d7500000000000000000000000000000000000000000000000000000000000000400000000000000000000000000000000000000000000000000000000000000024456cf492000000000000000000000000b1dc83fa8e5eb62dfa92ba84bfa7be4e153d0e8f00000000000000000000000000000000000000000000000000000000000000000000000000000000000000000000000000000000000000000000000000000000000000000000000000000000000000000000000000000000000000000000000000000000000000000000000000000000000000140000000000000000000000000000000000000000000000000000000000000000000000000000000000000000000000000000000000000000000000000000008223aac8ab4c6e5be42c55877bf7b567c5942aade39ae98a53d8c2760feccb4b1067c0b67f841bf9768115215ee5567699dfc22e444c8913255e35075a31b644571bbb9f82310c03c0a33792238655d07afa651da2e7ba83ca47f7a4c0060bd0f4b82d7ee8e42843069a4d27ab50ca61940be300a12b1933704a11f8d0da03bc21c91c0000000000000000000000000000000000000000000000000000000000000000000000000000000000002e2b1c42e38f5af81771e65d87729e57abd1337a00000000000000000000000000000000000000000000000000000000000012dd0000000000000000000000000000000000000000000000000000000000000160000000000000000000000000000000000000000000000000000000000000018000000000000000000000000000000000000000000000000000000000003d0900000000000000000000000000000000000000000000000000000000000003345000000000000000000000000000000000000000000000000000000000000052080000000000000000000000000000000000000000000000000000000000000001000000000000000000000000000000000000000000000000000000003b9aca000000000000000000000000000000000000000000000000000000000000000300000000000000000000000000000000000000000000000000000000000000034000000000000000000000000000000000000000000000000000000000000000000000000000000000000000000000000000000000000000000000000000000144b61d27f6000000000000000000000000acc000818e5bbd911d5d449aa81cb5ca240247390000000000000000000000000000000000000000000000000000000000000000000000000000000000000000000000000000000000000000000000000000006000000000000000000000000000000000000000000000000000000000000000a41cff79cd0000000000000000000000008a4720488ca32f1223ccfe5a087e250fe3bc5d7500000000000000000000000000000000000000000000000000000000000000400000000000000000000000000000000000000000000000000000000000000024456cf492000000000000000000000000d852b96e1dd11f45bd2286562dceddbce677fcde000000000000000000000000000000000000000000000000000000000000000000000000000000000000000000000000000000000000000000000000000000000000000000000000000000000000000000000000000000000000000000000000000000000000000000000000000000000000001400000000000000000000000000000000000000000000000000000000000000000000000000000000000000000000000000000000000000000000000000000082cafa6860de8e1628da6afb3653dc12faec647c9c6d57e47e288ccf01523c52302f43dbb4ccaf0d78802b5a148e471aed48daa7c78219aaf868725d7f92752e211b9986a51a7de97395ce541df81cbede41f8a9f4100e8a90d022dda6cb781f57d5148a27e7c5877c0772c34f19e50aeba631b755a574c9799073edff4d4c1032151c0000000000000000000000000000000000000000000000000000000000000000000000000000000000002e2b1c42e38f5af81771e65d87729e57abd1337a00000000000000000000000000000000000000000000000000000000000012de0000000000000000000000000000000000000000000000000000000000000160000000000000000000000000000000000000000000000000000000000000018000000000000000000000000000000000000000000000000000000000003d0900000000000000000000000000000000000000000000000000000000000003345000000000000000000000000000000000000000000000000000000000000052080000000000000000000000000000000000000000000000000000000000000001000000000000000000000000000000000000000000000000000000003b9aca000000000000000000000000000000000000000000000000000000000000000300000000000000000000000000000000000000000000000000000000000000034000000000000000000000000000000000000000000000000000000000000000000000000000000000000000000000000000000000000000000000000000000144b61d27f6000000000000000000000000acc000818e5bbd911d5d449aa81cb5ca240247390000000000000000000000000000000000000000000000000000000000000000000000000000000000000000000000000000000000000000000000000000006000000000000000000000000000000000000000000000000000000000000000a41cff79cd0000000000000000000000008a4720488ca32f1223ccfe5a087e250fe3bc5d7500000000000000000000000000000000000000000000000000000000000000400000000000000000000000000000000000000000000000000000000000000024456cf49200000000000000000000000077306a4f0b94f2a883bcbeb317d72cadfe4affbb0000000000000000000000000000000000000000000000000000000000000000000000000000000000000000000000000000000000000000000000000000000000000000000000000000000000000000000000000000000000000000000000000000000000000000000000000000000000000014000000000000000000000000000000000000000000000000000000000000000000000000000000000000000000000000000000000000000000000000000000824980c8e0b502b9a091f0d20b39242cfb9ead88209ae76e3bb0962b70c1a810b21ee8a0b22823f31223f879d653965c9ffb4c1880a87466b47a1952dbbf0792191c9809948c8a54b31e2d59d70bda01e05a719ab9fe931206fd447a94adc3d6e958435f67f1bd2779f7b8fc1f4ff36aaf40f48bf2ebb2eebc6c7de3eb0ff06438011b0000000000000000000000000000000000000000000000000000000000000000000000000000000000002e2b1c42e38f5af81771e65d87729e57abd1337a00000000000000000000000000000000000000000000000000000000000012df0000000000000000000000000000000000000000000000000000000000000160000000000000000000000000000000000000000000000000000000000000018000000000000000000000000000000000000000000000000000000000003d0900000000000000000000000000000000000000000000000000000000000003345000000000000000000000000000000000000000000000000000000000000052080000000000000000000000000000000000000000000000000000000000000001000000000000000000000000000000000000000000000000000000003b9aca000000000000000000000000000000000000000000000000000000000000000300000000000000000000000000000000000000000000000000000000000000034000000000000000000000000000000000000000000000000000000000000000000000000000000000000000000000000000000000000000000000000000000144b61d27f6000000000000000000000000acc000818e5bbd911d5d449aa81cb5ca240247390000000000000000000000000000000000000000000000000000000000000000000000000000000000000000000000000000000000000000000000000000006000000000000000000000000000000000000000000000000000000000000000a41cff79cd0000000000000000000000008a4720488ca32f1223ccfe5a087e250fe3bc5d7500000000000000000000000000000000000000000000000000000000000000400000000000000000000000000000000000000000000000000000000000000024456cf492000000000000000000000000394c930d4dbabc01ea69e021ffcaeb4d6910b7ed00000000000000000000000000000000000000000000000000000000000000000000000000000000000000000000000000000000000000000000000000000000000000000000000000000000000000000000000000000000000000000000000000000000000000000000000000000000000000140000000000000000000000000000000000000000000000000000000000000000000000000000000000000000000000000000000000000000000000000000008201894c4ae89313ce9eda77c58a412dd7b002c89f51abd5e80d564af23360969668376ba1fc885834e32bba9900615097edf8ab4bbbc27514ddcb5d923b102f631c28843b76a37c1bb3254027ccd7122e02ecc66f64965d5b41ad3c1df504d3d6d77efdc85f78bd9063b8c19e4c32bdaf4b425baa3c238a28b2ccdd41d61e86af1d1c0000000000000000000000000000000000000000000000000000000000000000000000000000000000002e2b1c42e38f5af81771e65d87729e57abd1337a00000000000000000000000000000000000000000000000000000000000012e00000000000000000000000000000000000000000000000000000000000000160000000000000000000000000000000000000000000000000000000000000018000000000000000000000000000000000000000000000000000000000003d0900000000000000000000000000000000000000000000000000000000000003345000000000000000000000000000000000000000000000000000000000000052080000000000000000000000000000000000000000000000000000000000000001000000000000000000000000000000000000000000000000000000003b9aca000000000000000000000000000000000000000000000000000000000000000300000000000000000000000000000000000000000000000000000000000000034000000000000000000000000000000000000000000000000000000000000000000000000000000000000000000000000000000000000000000000000000000144b61d27f6000000000000000000000000acc000818e5bbd911d5d449aa81cb5ca240247390000000000000000000000000000000000000000000000000000000000000000000000000000000000000000000000000000000000000000000000000000006000000000000000000000000000000000000000000000000000000000000000a41cff79cd0000000000000000000000008a4720488ca32f1223ccfe5a087e250fe3bc5d7500000000000000000000000000000000000000000000000000000000000000400000000000000000000000000000000000000000000000000000000000000024456cf492000000000000000000000000789e486b92a62b45ee27b74544bda7619fe7854c000000000000000000000000000000000000000000000000000000000000000000000000000000000000000000000000000000000000000000000000000000000000000000000000000000000000000000000000000000000000000000000000000000000000000000000000000000000000001400000000000000000000000000000000000000000000000000000000000000000000000000000000000000000000000000000000000000000000000000000082a0aaa22382c8c930ae70998ba02d4e20524f1eae20dc21d887d81a7c577ea93655b27ee7e25d28e3ad54cbf5ddb6f210fc95fa63fa65d599bf4b0ba990abbed41ca67605ef513410578082324c3f614f169e9a5e65b8dea14fb0667067790a154444631a4bbce30d5238c3836b375ebfe33a45d27200388c4936805d3313c679b71c000000000000000000000000000000000000000000000000000000000000",
        "nonce": "0x4be89",
        "chainId": "0x1ecf"
      },
      "additionalContracts": [],
      "isFixedGasLimit": false
    }
  ],
  "receipts": [
    {
      "status": "0x1",
      "cumulativeGasUsed": "0x270e69",
      "logs": [
        {
          "address": "0x2843c269d2a64ecfa63548e8b3fc0fd23b7f70cb",
          "topics": [
            "0xbb47ee3e183a558b1a2ff0874b079f3fc5478b7454eacf2bfc5af2ff5878f972"
          ],
          "data": "0x",
          "blockHash": "0xa920825646e4df4ed7197b1b945f074799af26c9320a2aeea342ad201ba76b87",
          "blockNumber": "0xcba9f",
          "transactionHash": "0x51016bdd249d715eb67a7b08eccf8b689b8c828fb5106b40e38934e23e7e227d",
          "transactionIndex": "0x1",
          "logIndex": "0x0",
          "removed": false
        },
        {
          "address": "0x2843c269d2a64ecfa63548e8b3fc0fd23b7f70cb",
          "topics": [
            "0x49628fd1471006c1482da88028e9ce4dbb080b815c9b0344d39e5a8e6ec1419f",
            "0xb7bcba44bf2ed31e28397032261fa2dd2d6f4a24320472304f02ab324bf2707a",
            "0x0000000000000000000000002e2b1c42e38f5af81771e65d87729e57abd1337a",
            "0x0000000000000000000000000000000000000000000000000000000000000000"
          ],
          "data": "0x00000000000000000000000000000000000000000000000000000000000012cb0000000000000000000000000000000000000000000000000000000000000001000000000000000000000000000000000000000000000000000000000008a89b000000000000000000000000000000000000000000000000000000000008a89b",
          "blockHash": "0xa920825646e4df4ed7197b1b945f074799af26c9320a2aeea342ad201ba76b87",
          "blockNumber": "0xcba9f",
          "transactionHash": "0x51016bdd249d715eb67a7b08eccf8b689b8c828fb5106b40e38934e23e7e227d",
          "transactionIndex": "0x1",
          "logIndex": "0x1",
          "removed": false
        },
        {
          "address": "0x2843c269d2a64ecfa63548e8b3fc0fd23b7f70cb",
          "topics": [
            "0x49628fd1471006c1482da88028e9ce4dbb080b815c9b0344d39e5a8e6ec1419f",
            "0x4f71486346e2c3d3536d858a78bf39fa84e1a93d2a35fd12821c4b1500441543",
            "0x0000000000000000000000002e2b1c42e38f5af81771e65d87729e57abd1337a",
            "0x0000000000000000000000000000000000000000000000000000000000000000"
          ],
          "data": "0x00000000000000000000000000000000000000000000000000000000000012cc0000000000000000000000000000000000000000000000000000000000000001000000000000000000000000000000000000000000000000000000000007b171000000000000000000000000000000000000000000000000000000000007b171",
          "blockHash": "0xa920825646e4df4ed7197b1b945f074799af26c9320a2aeea342ad201ba76b87",
          "blockNumber": "0xcba9f",
          "transactionHash": "0x51016bdd249d715eb67a7b08eccf8b689b8c828fb5106b40e38934e23e7e227d",
          "transactionIndex": "0x1",
          "logIndex": "0x2",
          "removed": false
        },
        {
          "address": "0x2843c269d2a64ecfa63548e8b3fc0fd23b7f70cb",
          "topics": [
            "0x49628fd1471006c1482da88028e9ce4dbb080b815c9b0344d39e5a8e6ec1419f",
            "0xcd477f2894a4470062d111eba0ca1537c8c1910c30444b7e1a508a8d0b8235ba",
            "0x0000000000000000000000002e2b1c42e38f5af81771e65d87729e57abd1337a",
            "0x0000000000000000000000000000000000000000000000000000000000000000"
          ],
          "data": "0x00000000000000000000000000000000000000000000000000000000000012cd0000000000000000000000000000000000000000000000000000000000000001000000000000000000000000000000000000000000000000000000000007b172000000000000000000000000000000000000000000000000000000000007b172",
          "blockHash": "0xa920825646e4df4ed7197b1b945f074799af26c9320a2aeea342ad201ba76b87",
          "blockNumber": "0xcba9f",
          "transactionHash": "0x51016bdd249d715eb67a7b08eccf8b689b8c828fb5106b40e38934e23e7e227d",
          "transactionIndex": "0x1",
          "logIndex": "0x3",
          "removed": false
        },
        {
          "address": "0x2843c269d2a64ecfa63548e8b3fc0fd23b7f70cb",
          "topics": [
            "0x49628fd1471006c1482da88028e9ce4dbb080b815c9b0344d39e5a8e6ec1419f",
            "0x276207addd264387d37ebb0f22dccf27acd06703158d571aa6d3f1cdb781f71a",
            "0x0000000000000000000000002e2b1c42e38f5af81771e65d87729e57abd1337a",
            "0x0000000000000000000000000000000000000000000000000000000000000000"
          ],
          "data": "0x00000000000000000000000000000000000000000000000000000000000012ce0000000000000000000000000000000000000000000000000000000000000001000000000000000000000000000000000000000000000000000000000007b173000000000000000000000000000000000000000000000000000000000007b173",
          "blockHash": "0xa920825646e4df4ed7197b1b945f074799af26c9320a2aeea342ad201ba76b87",
          "blockNumber": "0xcba9f",
          "transactionHash": "0x51016bdd249d715eb67a7b08eccf8b689b8c828fb5106b40e38934e23e7e227d",
          "transactionIndex": "0x1",
          "logIndex": "0x4",
          "removed": false
        },
        {
          "address": "0x2843c269d2a64ecfa63548e8b3fc0fd23b7f70cb",
          "topics": [
            "0x49628fd1471006c1482da88028e9ce4dbb080b815c9b0344d39e5a8e6ec1419f",
            "0xbfe0210060ea1f33df42eddc8f108370c0b9a3e8d6d4824e36cd074d896ccc76",
            "0x0000000000000000000000002e2b1c42e38f5af81771e65d87729e57abd1337a",
            "0x0000000000000000000000000000000000000000000000000000000000000000"
          ],
          "data": "0x00000000000000000000000000000000000000000000000000000000000012cf0000000000000000000000000000000000000000000000000000000000000001000000000000000000000000000000000000000000000000000000000007b174000000000000000000000000000000000000000000000000000000000007b174",
          "blockHash": "0xa920825646e4df4ed7197b1b945f074799af26c9320a2aeea342ad201ba76b87",
          "blockNumber": "0xcba9f",
          "transactionHash": "0x51016bdd249d715eb67a7b08eccf8b689b8c828fb5106b40e38934e23e7e227d",
          "transactionIndex": "0x1",
          "logIndex": "0x5",
          "removed": false
        },
        {
          "address": "0x2843c269d2a64ecfa63548e8b3fc0fd23b7f70cb",
          "topics": [
            "0x49628fd1471006c1482da88028e9ce4dbb080b815c9b0344d39e5a8e6ec1419f",
            "0x80d1ec09b152b2a44f92b7774ca77c232eb5d06fedd360bafee7a04b67800c70",
            "0x0000000000000000000000002e2b1c42e38f5af81771e65d87729e57abd1337a",
            "0x0000000000000000000000000000000000000000000000000000000000000000"
          ],
          "data": "0x00000000000000000000000000000000000000000000000000000000000012d00000000000000000000000000000000000000000000000000000000000000001000000000000000000000000000000000000000000000000000000000007b175000000000000000000000000000000000000000000000000000000000007b175",
          "blockHash": "0xa920825646e4df4ed7197b1b945f074799af26c9320a2aeea342ad201ba76b87",
          "blockNumber": "0xcba9f",
          "transactionHash": "0x51016bdd249d715eb67a7b08eccf8b689b8c828fb5106b40e38934e23e7e227d",
          "transactionIndex": "0x1",
          "logIndex": "0x6",
          "removed": false
        },
        {
          "address": "0x2843c269d2a64ecfa63548e8b3fc0fd23b7f70cb",
          "topics": [
            "0x49628fd1471006c1482da88028e9ce4dbb080b815c9b0344d39e5a8e6ec1419f",
            "0xf41deb55387d396468990d0d52eb4d91d18e76b144ad4d3f730136c3184e9966",
            "0x0000000000000000000000002e2b1c42e38f5af81771e65d87729e57abd1337a",
            "0x0000000000000000000000000000000000000000000000000000000000000000"
          ],
          "data": "0x00000000000000000000000000000000000000000000000000000000000012d10000000000000000000000000000000000000000000000000000000000000001000000000000000000000000000000000000000000000000000000000007b177000000000000000000000000000000000000000000000000000000000007b177",
          "blockHash": "0xa920825646e4df4ed7197b1b945f074799af26c9320a2aeea342ad201ba76b87",
          "blockNumber": "0xcba9f",
          "transactionHash": "0x51016bdd249d715eb67a7b08eccf8b689b8c828fb5106b40e38934e23e7e227d",
          "transactionIndex": "0x1",
          "logIndex": "0x7",
          "removed": false
        },
        {
          "address": "0x2843c269d2a64ecfa63548e8b3fc0fd23b7f70cb",
          "topics": [
            "0x49628fd1471006c1482da88028e9ce4dbb080b815c9b0344d39e5a8e6ec1419f",
            "0x3844f5440b573116a744e6a13db051292e14011bf8b7f07d1bc844b46f6584c0",
            "0x0000000000000000000000002e2b1c42e38f5af81771e65d87729e57abd1337a",
            "0x0000000000000000000000000000000000000000000000000000000000000000"
          ],
          "data": "0x00000000000000000000000000000000000000000000000000000000000012d20000000000000000000000000000000000000000000000000000000000000001000000000000000000000000000000000000000000000000000000000007b177000000000000000000000000000000000000000000000000000000000007b177",
          "blockHash": "0xa920825646e4df4ed7197b1b945f074799af26c9320a2aeea342ad201ba76b87",
          "blockNumber": "0xcba9f",
          "transactionHash": "0x51016bdd249d715eb67a7b08eccf8b689b8c828fb5106b40e38934e23e7e227d",
          "transactionIndex": "0x1",
          "logIndex": "0x8",
          "removed": false
        },
        {
          "address": "0x2843c269d2a64ecfa63548e8b3fc0fd23b7f70cb",
          "topics": [
            "0x49628fd1471006c1482da88028e9ce4dbb080b815c9b0344d39e5a8e6ec1419f",
            "0x1d9bd82bfe7d3f0a52a98b16a1dfb7d4f3d0ab1e7bad5612bf223ad2b5a464d7",
            "0x0000000000000000000000002e2b1c42e38f5af81771e65d87729e57abd1337a",
            "0x0000000000000000000000000000000000000000000000000000000000000000"
          ],
          "data": "0x00000000000000000000000000000000000000000000000000000000000012d30000000000000000000000000000000000000000000000000000000000000001000000000000000000000000000000000000000000000000000000000007b179000000000000000000000000000000000000000000000000000000000007b179",
          "blockHash": "0xa920825646e4df4ed7197b1b945f074799af26c9320a2aeea342ad201ba76b87",
          "blockNumber": "0xcba9f",
          "transactionHash": "0x51016bdd249d715eb67a7b08eccf8b689b8c828fb5106b40e38934e23e7e227d",
          "transactionIndex": "0x1",
          "logIndex": "0x9",
          "removed": false
        },
        {
          "address": "0x2843c269d2a64ecfa63548e8b3fc0fd23b7f70cb",
          "topics": [
            "0x49628fd1471006c1482da88028e9ce4dbb080b815c9b0344d39e5a8e6ec1419f",
            "0xee07ae1c4af5a60cf285cb6ee972e7ed2b311be49108aa89596dd3bc6e876e46",
            "0x0000000000000000000000002e2b1c42e38f5af81771e65d87729e57abd1337a",
            "0x0000000000000000000000000000000000000000000000000000000000000000"
          ],
          "data": "0x00000000000000000000000000000000000000000000000000000000000012d40000000000000000000000000000000000000000000000000000000000000001000000000000000000000000000000000000000000000000000000000007b17a000000000000000000000000000000000000000000000000000000000007b17a",
          "blockHash": "0xa920825646e4df4ed7197b1b945f074799af26c9320a2aeea342ad201ba76b87",
          "blockNumber": "0xcba9f",
          "transactionHash": "0x51016bdd249d715eb67a7b08eccf8b689b8c828fb5106b40e38934e23e7e227d",
          "transactionIndex": "0x1",
          "logIndex": "0xa",
          "removed": false
        },
        {
          "address": "0x2843c269d2a64ecfa63548e8b3fc0fd23b7f70cb",
          "topics": [
            "0x49628fd1471006c1482da88028e9ce4dbb080b815c9b0344d39e5a8e6ec1419f",
            "0x95a53369d3ab0194bddc83ed5c6af074fa5b91223ee162cf2132291da7496744",
            "0x0000000000000000000000002e2b1c42e38f5af81771e65d87729e57abd1337a",
            "0x0000000000000000000000000000000000000000000000000000000000000000"
          ],
          "data": "0x00000000000000000000000000000000000000000000000000000000000012d50000000000000000000000000000000000000000000000000000000000000001000000000000000000000000000000000000000000000000000000000007b17a000000000000000000000000000000000000000000000000000000000007b17a",
          "blockHash": "0xa920825646e4df4ed7197b1b945f074799af26c9320a2aeea342ad201ba76b87",
          "blockNumber": "0xcba9f",
          "transactionHash": "0x51016bdd249d715eb67a7b08eccf8b689b8c828fb5106b40e38934e23e7e227d",
          "transactionIndex": "0x1",
          "logIndex": "0xb",
          "removed": false
        },
        {
          "address": "0x2843c269d2a64ecfa63548e8b3fc0fd23b7f70cb",
          "topics": [
            "0x49628fd1471006c1482da88028e9ce4dbb080b815c9b0344d39e5a8e6ec1419f",
            "0x1ca2812040d04cfce77c99674b4e9b24be57000cd4dc7a360afa27ae464ecfb3",
            "0x0000000000000000000000002e2b1c42e38f5af81771e65d87729e57abd1337a",
            "0x0000000000000000000000000000000000000000000000000000000000000000"
          ],
          "data": "0x00000000000000000000000000000000000000000000000000000000000012d60000000000000000000000000000000000000000000000000000000000000001000000000000000000000000000000000000000000000000000000000007b17c000000000000000000000000000000000000000000000000000000000007b17c",
          "blockHash": "0xa920825646e4df4ed7197b1b945f074799af26c9320a2aeea342ad201ba76b87",
          "blockNumber": "0xcba9f",
          "transactionHash": "0x51016bdd249d715eb67a7b08eccf8b689b8c828fb5106b40e38934e23e7e227d",
          "transactionIndex": "0x1",
          "logIndex": "0xc",
          "removed": false
        },
        {
          "address": "0x2843c269d2a64ecfa63548e8b3fc0fd23b7f70cb",
          "topics": [
            "0x49628fd1471006c1482da88028e9ce4dbb080b815c9b0344d39e5a8e6ec1419f",
            "0xeef339ee458e295e1ce61c32fc3031cc6be54ac4bc60802a31c17e108804fe85",
            "0x0000000000000000000000002e2b1c42e38f5af81771e65d87729e57abd1337a",
            "0x0000000000000000000000000000000000000000000000000000000000000000"
          ],
          "data": "0x00000000000000000000000000000000000000000000000000000000000012d70000000000000000000000000000000000000000000000000000000000000001000000000000000000000000000000000000000000000000000000000007b17e000000000000000000000000000000000000000000000000000000000007b17e",
          "blockHash": "0xa920825646e4df4ed7197b1b945f074799af26c9320a2aeea342ad201ba76b87",
          "blockNumber": "0xcba9f",
          "transactionHash": "0x51016bdd249d715eb67a7b08eccf8b689b8c828fb5106b40e38934e23e7e227d",
          "transactionIndex": "0x1",
          "logIndex": "0xd",
          "removed": false
        },
        {
          "address": "0x2843c269d2a64ecfa63548e8b3fc0fd23b7f70cb",
          "topics": [
            "0x49628fd1471006c1482da88028e9ce4dbb080b815c9b0344d39e5a8e6ec1419f",
            "0x41599070a2f0755f790ead47e08db97309403f84a05b19eda7f7fc8ab48c4ef4",
            "0x0000000000000000000000002e2b1c42e38f5af81771e65d87729e57abd1337a",
            "0x0000000000000000000000000000000000000000000000000000000000000000"
          ],
          "data": "0x00000000000000000000000000000000000000000000000000000000000012d80000000000000000000000000000000000000000000000000000000000000001000000000000000000000000000000000000000000000000000000000007b17e000000000000000000000000000000000000000000000000000000000007b17e",
          "blockHash": "0xa920825646e4df4ed7197b1b945f074799af26c9320a2aeea342ad201ba76b87",
          "blockNumber": "0xcba9f",
          "transactionHash": "0x51016bdd249d715eb67a7b08eccf8b689b8c828fb5106b40e38934e23e7e227d",
          "transactionIndex": "0x1",
          "logIndex": "0xe",
          "removed": false
        },
        {
          "address": "0x2843c269d2a64ecfa63548e8b3fc0fd23b7f70cb",
          "topics": [
            "0x49628fd1471006c1482da88028e9ce4dbb080b815c9b0344d39e5a8e6ec1419f",
            "0x06c631c6837bb301fb1196f94db8fe62fc301e84d5099157ba2d84138d4fe1f1",
            "0x0000000000000000000000002e2b1c42e38f5af81771e65d87729e57abd1337a",
            "0x0000000000000000000000000000000000000000000000000000000000000000"
          ],
          "data": "0x00000000000000000000000000000000000000000000000000000000000012d90000000000000000000000000000000000000000000000000000000000000001000000000000000000000000000000000000000000000000000000000007b17f000000000000000000000000000000000000000000000000000000000007b17f",
          "blockHash": "0xa920825646e4df4ed7197b1b945f074799af26c9320a2aeea342ad201ba76b87",
          "blockNumber": "0xcba9f",
          "transactionHash": "0x51016bdd249d715eb67a7b08eccf8b689b8c828fb5106b40e38934e23e7e227d",
          "transactionIndex": "0x1",
          "logIndex": "0xf",
          "removed": false
        },
        {
          "address": "0x2843c269d2a64ecfa63548e8b3fc0fd23b7f70cb",
          "topics": [
            "0x49628fd1471006c1482da88028e9ce4dbb080b815c9b0344d39e5a8e6ec1419f",
            "0xb493d00bec3857f2592b67b740b8ca738061902dfbfe498c05309a91f16b3d61",
            "0x0000000000000000000000002e2b1c42e38f5af81771e65d87729e57abd1337a",
            "0x0000000000000000000000000000000000000000000000000000000000000000"
          ],
          "data": "0x00000000000000000000000000000000000000000000000000000000000012da0000000000000000000000000000000000000000000000000000000000000001000000000000000000000000000000000000000000000000000000000007b181000000000000000000000000000000000000000000000000000000000007b181",
          "blockHash": "0xa920825646e4df4ed7197b1b945f074799af26c9320a2aeea342ad201ba76b87",
          "blockNumber": "0xcba9f",
          "transactionHash": "0x51016bdd249d715eb67a7b08eccf8b689b8c828fb5106b40e38934e23e7e227d",
          "transactionIndex": "0x1",
          "logIndex": "0x10",
          "removed": false
        },
        {
          "address": "0x2843c269d2a64ecfa63548e8b3fc0fd23b7f70cb",
          "topics": [
            "0x49628fd1471006c1482da88028e9ce4dbb080b815c9b0344d39e5a8e6ec1419f",
            "0x1e9be879027fec7a9fbb0b52729a68ee7e5ffaabd5bd7506058518e30340f52d",
            "0x0000000000000000000000002e2b1c42e38f5af81771e65d87729e57abd1337a",
            "0x0000000000000000000000000000000000000000000000000000000000000000"
          ],
          "data": "0x00000000000000000000000000000000000000000000000000000000000012db0000000000000000000000000000000000000000000000000000000000000001000000000000000000000000000000000000000000000000000000000007b182000000000000000000000000000000000000000000000000000000000007b182",
          "blockHash": "0xa920825646e4df4ed7197b1b945f074799af26c9320a2aeea342ad201ba76b87",
          "blockNumber": "0xcba9f",
          "transactionHash": "0x51016bdd249d715eb67a7b08eccf8b689b8c828fb5106b40e38934e23e7e227d",
          "transactionIndex": "0x1",
          "logIndex": "0x11",
          "removed": false
        },
        {
          "address": "0x2843c269d2a64ecfa63548e8b3fc0fd23b7f70cb",
          "topics": [
            "0x49628fd1471006c1482da88028e9ce4dbb080b815c9b0344d39e5a8e6ec1419f",
            "0x33352f684788b5883255edfbefcd755003896f84f1f887463fea464b1af81199",
            "0x0000000000000000000000002e2b1c42e38f5af81771e65d87729e57abd1337a",
            "0x0000000000000000000000000000000000000000000000000000000000000000"
          ],
          "data": "0x00000000000000000000000000000000000000000000000000000000000012dc0000000000000000000000000000000000000000000000000000000000000001000000000000000000000000000000000000000000000000000000000007b182000000000000000000000000000000000000000000000000000000000007b182",
          "blockHash": "0xa920825646e4df4ed7197b1b945f074799af26c9320a2aeea342ad201ba76b87",
          "blockNumber": "0xcba9f",
          "transactionHash": "0x51016bdd249d715eb67a7b08eccf8b689b8c828fb5106b40e38934e23e7e227d",
          "transactionIndex": "0x1",
          "logIndex": "0x12",
          "removed": false
        },
        {
          "address": "0x2843c269d2a64ecfa63548e8b3fc0fd23b7f70cb",
          "topics": [
            "0x49628fd1471006c1482da88028e9ce4dbb080b815c9b0344d39e5a8e6ec1419f",
            "0xa35727d7fe1a41a84dc1d11b03004ea62fea242fd54d935f1b0d80a3f92512dd",
            "0x0000000000000000000000002e2b1c42e38f5af81771e65d87729e57abd1337a",
            "0x0000000000000000000000000000000000000000000000000000000000000000"
          ],
          "data": "0x00000000000000000000000000000000000000000000000000000000000012dd0000000000000000000000000000000000000000000000000000000000000001000000000000000000000000000000000000000000000000000000000007b184000000000000000000000000000000000000000000000000000000000007b184",
          "blockHash": "0xa920825646e4df4ed7197b1b945f074799af26c9320a2aeea342ad201ba76b87",
          "blockNumber": "0xcba9f",
          "transactionHash": "0x51016bdd249d715eb67a7b08eccf8b689b8c828fb5106b40e38934e23e7e227d",
          "transactionIndex": "0x1",
          "logIndex": "0x13",
          "removed": false
        },
        {
          "address": "0x2843c269d2a64ecfa63548e8b3fc0fd23b7f70cb",
          "topics": [
            "0x49628fd1471006c1482da88028e9ce4dbb080b815c9b0344d39e5a8e6ec1419f",
            "0x78b0d3eaa328ce111dd2c358d2e5b24e7fdbb2c42df6e169dc94901184de3e6c",
            "0x0000000000000000000000002e2b1c42e38f5af81771e65d87729e57abd1337a",
            "0x0000000000000000000000000000000000000000000000000000000000000000"
          ],
          "data": "0x00000000000000000000000000000000000000000000000000000000000012de0000000000000000000000000000000000000000000000000000000000000001000000000000000000000000000000000000000000000000000000000007b185000000000000000000000000000000000000000000000000000000000007b185",
          "blockHash": "0xa920825646e4df4ed7197b1b945f074799af26c9320a2aeea342ad201ba76b87",
          "blockNumber": "0xcba9f",
          "transactionHash": "0x51016bdd249d715eb67a7b08eccf8b689b8c828fb5106b40e38934e23e7e227d",
          "transactionIndex": "0x1",
          "logIndex": "0x14",
          "removed": false
        },
        {
          "address": "0x2843c269d2a64ecfa63548e8b3fc0fd23b7f70cb",
          "topics": [
            "0x49628fd1471006c1482da88028e9ce4dbb080b815c9b0344d39e5a8e6ec1419f",
            "0x253348f9c351e7bfba81d2e350b2726374510afffda2296fc0986c35ed054a93",
            "0x0000000000000000000000002e2b1c42e38f5af81771e65d87729e57abd1337a",
            "0x0000000000000000000000000000000000000000000000000000000000000000"
          ],
          "data": "0x00000000000000000000000000000000000000000000000000000000000012df0000000000000000000000000000000000000000000000000000000000000001000000000000000000000000000000000000000000000000000000000007b187000000000000000000000000000000000000000000000000000000000007b187",
          "blockHash": "0xa920825646e4df4ed7197b1b945f074799af26c9320a2aeea342ad201ba76b87",
          "blockNumber": "0xcba9f",
          "transactionHash": "0x51016bdd249d715eb67a7b08eccf8b689b8c828fb5106b40e38934e23e7e227d",
          "transactionIndex": "0x1",
          "logIndex": "0x15",
          "removed": false
        },
        {
          "address": "0x2843c269d2a64ecfa63548e8b3fc0fd23b7f70cb",
          "topics": [
            "0x49628fd1471006c1482da88028e9ce4dbb080b815c9b0344d39e5a8e6ec1419f",
            "0xb69dafe7f305eb020feda8eaf6b87d95297515427fa3463f112dc0beb0ed119e",
            "0x0000000000000000000000002e2b1c42e38f5af81771e65d87729e57abd1337a",
            "0x0000000000000000000000000000000000000000000000000000000000000000"
          ],
          "data": "0x00000000000000000000000000000000000000000000000000000000000012e00000000000000000000000000000000000000000000000000000000000000001000000000000000000000000000000000000000000000000000000000007b187000000000000000000000000000000000000000000000000000000000007b187",
          "blockHash": "0xa920825646e4df4ed7197b1b945f074799af26c9320a2aeea342ad201ba76b87",
          "blockNumber": "0xcba9f",
          "transactionHash": "0x51016bdd249d715eb67a7b08eccf8b689b8c828fb5106b40e38934e23e7e227d",
          "transactionIndex": "0x1",
          "logIndex": "0x16",
          "removed": false
        }
      ],
      "logsBloom": "0x000000000000020000000000020020000000040000000000000088000000002000080020200004000000000100000080000000800102020000020200000000000000000000000000000040000000040001000000000000000000000000228008000000000a0000020000002000000800012008000000100004000000110400020000000000000000000800000011a0040000000000000400000100000000000002460000000000000040000000000080020000000000000000000a004000000000000800080000100001102000000200000004000020000800000000110022000000000000010004000080200000400000202000000000000000000100002000",
      "type": "0x2",
      "transactionHash": "0x51016bdd249d715eb67a7b08eccf8b689b8c828fb5106b40e38934e23e7e227d",
      "transactionIndex": "0x1",
      "blockHash": "0xa920825646e4df4ed7197b1b945f074799af26c9320a2aeea342ad201ba76b87",
      "blockNumber": "0xcba9f",
      "gasUsed": "0x270e69",
      "effectiveGasPrice": "0x5f5e100",
      "from": "0x660ad4b5a74130a4796b4d54bc6750ae93c86e6c",
      "to": "0x2843c269d2a64ecfa63548e8b3fc0fd23b7f70cb",
      "contractAddress": null,
      "gasUsedForL1": "0x8e6e9",
      "l1BlockNumber": "0x1535a7e"
    }
  ],
  "libraries": [],
  "pending": [],
  "returns": {},
  "timestamp": 1744304281,
  "chain": 7887,
  "commit": "b6333bc7"
}