{
  "transactions": [
    {
      "hash": null,
      "transactionType": "CALL",
      "contractName": null,
      "contractAddress": "0xa812c34cB952039934B6e0b86E91F628ce0092aa",
      "function": "mintIndividualKyc((address,uint256,uint256,bytes),uint16[])",
      "arguments": [
        "(0x1dBDF0936dF26Ba3D7e4bAA6297da9FE2d2428c2, 0, 1707249645, 0x9cc621c0cc9e341a5e508ff98fc72ca7e8509ccf043a808f8900bd244bcb34e31776aab1917052d0598e0b221fb28aa0f115f535dabf99b1279b57af5f3ebf1a1c)",
        "[]"
      ],
      "transaction": {
        "type": "0x00",
        "from": "0x1dbdf0936df26ba3d7e4baa6297da9fe2d2428c2",
        "to": "0xa812c34cb952039934b6e0b86e91f628ce0092aa",
        "gas": "0x5b61f",
        "value": "0x0",
        "data": "0x6d785f3b000000000000000000000000000000000000000000000000000000000000004000000000000000000000000000000000000000000000000000000000000001400000000000000000000000001dbdf0936df26ba3d7e4baa6297da9fe2d2428c200000000000000000000000000000000000000000000000000000000000000000000000000000000000000000000000000000000000000000000000065c28fed000000000000000000000000000000000000000000000000000000000000008000000000000000000000000000000000000000000000000000000000000000419cc621c0cc9e341a5e508ff98fc72ca7e8509ccf043a808f8900bd244bcb34e31776aab1917052d0598e0b221fb28aa0f115f535dabf99b1279b57af5f3ebf1a1c000000000000000000000000000000000000000000000000000000000000000000000000000000000000000000000000000000000000000000000000000000",
        "nonce": "0x55"
      },
      "additionalContracts": [],
      "isFixedGasLimit": false
    }
  ],
  "receipts": [],
  "libraries": [],
  "pending": [],
  "returns": {},
  "timestamp": 1707248897,
  "chain": 412346,
  "multi": false,
  "commit": "95df225"
}