{
  "transactions": [
    {
      "hash": null,
      "transactionType": "CALL",
      "contractName": null,
      "contractAddress": "0xa812c34cB952039934B6e0b86E91F628ce0092aa",
      "function": "mintIndividualKyc((address,uint256,uint256,bytes),uint16[])",
      "arguments": [
        "(0x1dBDF0936dF26Ba3D7e4bAA6297da9FE2d2428c2, 0, 1707308327, 0xc084b8c0c5d74d7a00a6dd7bfc55966d48e06028e10f23fd0270efb0599edf821942cade7190ba3c4d53c8248e86750af59910003d37f5da228322fd1f2403fd1c)",
        "[]"
      ],
      "transaction": {
        "type": "0x00",
        "from": "0x1dbdf0936df26ba3d7e4baa6297da9fe2d2428c2",
        "to": "0xa812c34cb952039934b6e0b86e91f628ce0092aa",
        "gas": "0x60c11",
        "value": "0x0",
        "data": "0x6d785f3b000000000000000000000000000000000000000000000000000000000000004000000000000000000000000000000000000000000000000000000000000001400000000000000000000000001dbdf0936df26ba3d7e4baa6297da9fe2d2428c200000000000000000000000000000000000000000000000000000000000000000000000000000000000000000000000000000000000000000000000065c3752700000000000000000000000000000000000000000000000000000000000000800000000000000000000000000000000000000000000000000000000000000041c084b8c0c5d74d7a00a6dd7bfc55966d48e06028e10f23fd0270efb0599edf821942cade7190ba3c4d53c8248e86750af59910003d37f5da228322fd1f2403fd1c000000000000000000000000000000000000000000000000000000000000000000000000000000000000000000000000000000000000000000000000000000",
        "nonce": "0x56"
      },
      "additionalContracts": [],
      "isFixedGasLimit": false
    }
  ],
  "receipts": [],
  "libraries": [],
  "pending": [],
  "returns": {},
  "timestamp": 1707258406,
  "chain": 412346,
  "multi": false,
  "commit": "95df225"
}