{
  "transactions": [
    {
      "hash": null,
      "transactionType": "CALL",
      "contractName": null,
      "contractAddress": "0xa812c34cB952039934B6e0b86E91F628ce0092aa",
      "function": "mintIndividualKyc((address,uint256,uint256,bytes),uint16[])",
      "arguments": [
        "(0x1dBDF0936dF26Ba3D7e4bAA6297da9FE2d2428c2, 0, 1707247897, 0x8260f6b13b26015b40877ddafee2f58103d446ba635c5a2737d24f54ed418e37268b9bf593bb9cdd65abd067e341a94c220584e2783471f277d4c9e45d0e36751b)",
        "[]"
      ],
      "transaction": {
        "type": "0x00",
        "from": "0x1dbdf0936df26ba3d7e4baa6297da9fe2d2428c2",
        "to": "0xa812c34cb952039934b6e0b86e91f628ce0092aa",
        "gas": "0x60c34",
        "value": "0x0",
        "data": "0x6d785f3b000000000000000000000000000000000000000000000000000000000000004000000000000000000000000000000000000000000000000000000000000001400000000000000000000000001dbdf0936df26ba3d7e4baa6297da9fe2d2428c200000000000000000000000000000000000000000000000000000000000000000000000000000000000000000000000000000000000000000000000065c28919000000000000000000000000000000000000000000000000000000000000008000000000000000000000000000000000000000000000000000000000000000418260f6b13b26015b40877ddafee2f58103d446ba635c5a2737d24f54ed418e37268b9bf593bb9cdd65abd067e341a94c220584e2783471f277d4c9e45d0e36751b000000000000000000000000000000000000000000000000000000000000000000000000000000000000000000000000000000000000000000000000000000",
        "nonce": "0x54"
      },
      "additionalContracts": [],
      "isFixedGasLimit": false
    }
  ],
  "receipts": [],
  "libraries": [],
  "pending": [],
  "returns": {},
  "timestamp": 1707248488,
  "chain": 412346,
  "multi": false,
  "commit": "95df225"
}