{
  "transactions": [
    {
      "hash": null,
      "transactionType": "CALL",
      "contractName": null,
      "contractAddress": "0xa812c34cB952039934B6e0b86E91F628ce0092aa",
      "function": "mintIndividualKyc((address,uint256,uint256,bytes),uint16[])",
      "arguments": [
        "(0x1dBDF0936dF26Ba3D7e4bAA6297da9FE2d2428c2, 0, 1707251501, 0x1cdba9c37f2629a325a575ed37d5197e29b7024585d887cf96ca4c0e53658edf4495ccb490b3a66056582273ec90222859d73ce19d80f6cf2dff63f65aee9c521b)",
        "[]"
      ],
      "transaction": {
        "type": "0x00",
        "from": "0x1dbdf0936df26ba3d7e4baa6297da9fe2d2428c2",
        "to": "0xa812c34cb952039934b6e0b86e91f628ce0092aa",
        "gas": "0x60c34",
        "value": "0x0",
        "data": "0x6d785f3b000000000000000000000000000000000000000000000000000000000000004000000000000000000000000000000000000000000000000000000000000001400000000000000000000000001dbdf0936df26ba3d7e4baa6297da9fe2d2428c200000000000000000000000000000000000000000000000000000000000000000000000000000000000000000000000000000000000000000000000065c2972d000000000000000000000000000000000000000000000000000000000000008000000000000000000000000000000000000000000000000000000000000000411cdba9c37f2629a325a575ed37d5197e29b7024585d887cf96ca4c0e53658edf4495ccb490b3a66056582273ec90222859d73ce19d80f6cf2dff63f65aee9c521b000000000000000000000000000000000000000000000000000000000000000000000000000000000000000000000000000000000000000000000000000000",
        "nonce": "0x55"
      },
      "additionalContracts": [],
      "isFixedGasLimit": false
    }
  ],
  "receipts": [],
  "libraries": [],
  "pending": [],
  "returns": {},
  "timestamp": 1707258077,
  "chain": 412346,
  "multi": false,
  "commit": "95df225"
}