{
  "transactions": [
    {
      "hash": "0x4be375ca1159a4df738d6f115deaa1d4f483cc5e68e103df4e19281b0eef16c8",
      "transactionType": "CALL",
      "contractName": null,
      "contractAddress": "0xacc00065030f6faaf7b3cd6630158672380485dc",
      "function": "grantRole(uint64,address,uint32)",
      "arguments": [
        "0",
        "0xf152Abda9E4ce8b134eF22Dc3C6aCe19C4895D82",
        "0"
      ],
      "transaction": {
        "from": "0x660ad4b5a74130a4796b4d54bc6750ae93c86e6c",
        "to": "0xacc00065030f6faaf7b3cd6630158672380485dc",
        "gas": "0x13c19",
        "value": "0x0",
        "input": "0x25c471a00000000000000000000000000000000000000000000000000000000000000000000000000000000000000000f152abda9e4ce8b134ef22dc3c6ace19c4895d820000000000000000000000000000000000000000000000000000000000000000",
        "nonce": "0x328",
        "chainId": "0x1"
      },
      "additionalContracts": [],
      "isFixedGasLimit": false
    },
    {
      "hash": "0xbe30e45283a88502a62ce46796add09550fe6d9aafcff3dc853a369b49eb3bf0",
      "transactionType": "CALL",
      "contractName": null,
      "contractAddress": "0xacc00065030f6faaf7b3cd6630158672380485dc",
      "function": "setTargetFunctionRole(address,bytes4[],uint64)",
      "arguments": [
        "0xA000000eaA652c7023530b603844471294B811c4",
        "[0x833a2fe0, 0x4f1ef286, 0x705a65d8, 0x0bf919fc]",
        "8663528507529876195"
      ],
      "transaction": {
        "from": "0x660ad4b5a74130a4796b4d54bc6750ae93c86e6c",
        "to": "0xacc00065030f6faaf7b3cd6630158672380485dc",
        "gas": "0x2b45f",
        "value": "0x0",
        "input": "0x08d6122d000000000000000000000000a000000eaa652c7023530b603844471294b811c40000000000000000000000000000000000000000000000000000000000000060000000000000000000000000000000000000000000000000783b0946b8c9d2e30000000000000000000000000000000000000000000000000000000000000004833a2fe0000000000000000000000000000000000000000000000000000000004f1ef28600000000000000000000000000000000000000000000000000000000705a65d8000000000000000000000000000000000000000000000000000000000bf919fc00000000000000000000000000000000000000000000000000000000",
        "nonce": "0x329",
        "chainId": "0x1"
      },
      "additionalContracts": [],
      "isFixedGasLimit": false
    },
    {
      "hash": "0x4af8db75cc0d24aeb9c4671063eec52a4e6a41ce37aea07b96b00e5b02d0d0c7",
      "transactionType": "CALL",
      "contractName": null,
      "contractAddress": "0xacc00065030f6faaf7b3cd6630158672380485dc",
      "function": "labelRole(uint64,string)",
      "arguments": [
        "8663528507529876195",
        "UPGRADER_ROLE"
      ],
      "transaction": {
        "from": "0x660ad4b5a74130a4796b4d54bc6750ae93c86e6c",
        "to": "0xacc00065030f6faaf7b3cd6630158672380485dc",
        "gas": "0x9acf",
        "value": "0x0",
        "input": "0x853551b8000000000000000000000000000000000000000000000000783b0946b8c9d2e30000000000000000000000000000000000000000000000000000000000000040000000000000000000000000000000000000000000000000000000000000000d55504752414445525f524f4c4500000000000000000000000000000000000000",
        "nonce": "0x32a",
        "chainId": "0x1"
      },
      "additionalContracts": [],
      "isFixedGasLimit": false
    },
    {
      "hash": "0xa804a8420191ca5f364d6fd11bc2fdb5ea05a7453b2e259ff2c2e8b53b838648",
      "transactionType": "CALL",
      "contractName": null,
      "contractAddress": "0xacc00065030f6faaf7b3cd6630158672380485dc",
      "function": "grantRole(uint64,address,uint32)",
      "arguments": [
        "8663528507529876195",
        "0xf152Abda9E4ce8b134eF22Dc3C6aCe19C4895D82",
        "57600"
      ],
      "transaction": {
        "from": "0x660ad4b5a74130a4796b4d54bc6750ae93c86e6c",
        "to": "0xacc00065030f6faaf7b3cd6630158672380485dc",
        "gas": "0x12b1d",
        "value": "0x0",
        "input": "0x25c471a0000000000000000000000000000000000000000000000000783b0946b8c9d2e3000000000000000000000000f152abda9e4ce8b134ef22dc3c6ace19c4895d82000000000000000000000000000000000000000000000000000000000000e100",
        "nonce": "0x32b",
        "chainId": "0x1"
      },
      "additionalContracts": [],
      "isFixedGasLimit": false
    },
    {
      "hash": "0xea954f7f7beca4b32c635bcb3aea89d16db48b65b952a3e89267aa3227212925",
      "transactionType": "CALL",
      "contractName": null,
      "contractAddress": "0xacc00065030f6faaf7b3cd6630158672380485dc",
      "function": "setGrantDelay(uint64,uint32)",
      "arguments": [
        "8663528507529876195",
        "57600"
      ],
      "transaction": {
        "from": "0x660ad4b5a74130a4796b4d54bc6750ae93c86e6c",
        "to": "0xacc00065030f6faaf7b3cd6630158672380485dc",
        "gas": "0x1245e",
        "value": "0x0",
        "input": "0xa64d95ce000000000000000000000000000000000000000000000000783b0946b8c9d2e3000000000000000000000000000000000000000000000000000000000000e100",
        "nonce": "0x32c",
        "chainId": "0x1"
      },
      "additionalContracts": [],
      "isFixedGasLimit": false
    },
    {
      "hash": "0x56a7bdde2ed10e810d94615d3b424d75ac0269f41f76a5d169d38ac769fbca11",
      "transactionType": "CALL",
      "contractName": null,
      "contractAddress": "0xacc00065030f6faaf7b3cd6630158672380485dc",
      "function": "setTargetAdminDelay(address,uint32)",
      "arguments": [
        "0xA000000eaA652c7023530b603844471294B811c4",
        "57600"
      ],
      "transaction": {
        "from": "0x660ad4b5a74130a4796b4d54bc6750ae93c86e6c",
        "to": "0xacc00065030f6faaf7b3cd6630158672380485dc",
        "gas": "0x1248e",
        "value": "0x0",
        "input": "0xd22b5989000000000000000000000000a000000eaa652c7023530b603844471294b811c4000000000000000000000000000000000000000000000000000000000000e100",
        "nonce": "0x32d",
        "chainId": "0x1"
      },
      "additionalContracts": [],
      "isFixedGasLimit": false
    },
    {
      "hash": "0x7b1f3a77a473d8a5319bb04098093d0b583bea0b6568f49b13ed6e946d4019c1",
      "transactionType": "CALL",
      "contractName": null,
      "contractAddress": "0xa000000eaa652c7023530b603844471294b811c4",
      "function": "transferOwnership(address)",
      "arguments": [
        "0xaCC00065030f6FaaF7B3Cd6630158672380485dC"
      ],
      "transaction": {
        "from": "0x660ad4b5a74130a4796b4d54bc6750ae93c86e6c",
        "to": "0xa000000eaa652c7023530b603844471294b811c4",
        "gas": "0xbfe0",
        "value": "0x0",
        "input": "0xf2fde38b000000000000000000000000acc00065030f6faaf7b3cd6630158672380485dc",
        "nonce": "0x32e",
        "chainId": "0x1"
      },
      "additionalContracts": [],
      "isFixedGasLimit": false
    }
  ],
  "receipts": [
    {
      "status": "0x1",
      "cumulativeGasUsed": "0xfd7ba6",
      "logs": [
        {
          "address": "0xacc00065030f6faaf7b3cd6630158672380485dc",
          "topics": [
            "0xf98448b987f1428e0e230e1f3c6e2ce15b5693eaf31827fbd0b1ec4b424ae7cf",
            "0x0000000000000000000000000000000000000000000000000000000000000000",
            "0x000000000000000000000000f152abda9e4ce8b134ef22dc3c6ace19c4895d82"
          ],
          "data": "0x0000000000000000000000000000000000000000000000000000000000000000000000000000000000000000000000000000000000000000000000006748efe30000000000000000000000000000000000000000000000000000000000000001",
          "blockHash": "0xafed122f22917ae1f6bf9a6032d8c0c675365657a0de2b161e44d91f4cbdbfa0",
          "blockNumber": "0x144d8f9",
          "transactionHash": "0x4be375ca1159a4df738d6f115deaa1d4f483cc5e68e103df4e19281b0eef16c8",
          "transactionIndex": "0xaf",
          "logIndex": "0x30f",
          "removed": false
        }
      ],
      "logsBloom": "0x00000400000000000000000000000000000000000000000000000000000000000000000000100000000000000000000000000000000000000000000000000000000000000000000000000200000000000000000000000000000000000000000200000000020000000000000000000800000000000000000000000000000000000000000000000000000000000000000008000000001000000000200000000000000000000000000000002000000000000000000000000008000000000000000000000000000000000000000000000000000000000000000000000000000020000000000000000000000000000000000000000000000000000000000000000000",
      "type": "0x2",
      "transactionHash": "0x4be375ca1159a4df738d6f115deaa1d4f483cc5e68e103df4e19281b0eef16c8",
      "transactionIndex": "0xaf",
      "blockHash": "0xafed122f22917ae1f6bf9a6032d8c0c675365657a0de2b161e44d91f4cbdbfa0",
      "blockNumber": "0x144d8f9",
      "gasUsed": "0xd823",
      "effectiveGasPrice": "0x1cd927623",
      "from": "0x660ad4b5a74130a4796b4d54bc6750ae93c86e6c",
      "to": "0xacc00065030f6faaf7b3cd6630158672380485dc",
      "contractAddress": null
    },
    {
      "status": "0x1",
      "cumulativeGasUsed": "0xd636f4",
      "logs": [
        {
          "address": "0xacc00065030f6faaf7b3cd6630158672380485dc",
          "topics": [
            "0x9ea6790c7dadfd01c9f8b9762b3682607af2c7e79e05a9f9fdf5580dde949151",
            "0x000000000000000000000000a000000eaa652c7023530b603844471294b811c4",
            "0x000000000000000000000000000000000000000000000000783b0946b8c9d2e3"
          ],
          "data": "0x833a2fe000000000000000000000000000000000000000000000000000000000",
          "blockHash": "0x04fea11a994d792907fa65db2d57c29a1a59708cefcbd800f990282056e6431e",
          "blockNumber": "0x144d8fa",
          "transactionHash": "0xbe30e45283a88502a62ce46796add09550fe6d9aafcff3dc853a369b49eb3bf0",
          "transactionIndex": "0x97",
          "logIndex": "0x2c8",
          "removed": false
        },
        {
          "address": "0xacc00065030f6faaf7b3cd6630158672380485dc",
          "topics": [
            "0x9ea6790c7dadfd01c9f8b9762b3682607af2c7e79e05a9f9fdf5580dde949151",
            "0x000000000000000000000000a000000eaa652c7023530b603844471294b811c4",
            "0x000000000000000000000000000000000000000000000000783b0946b8c9d2e3"
          ],
          "data": "0x4f1ef28600000000000000000000000000000000000000000000000000000000",
          "blockHash": "0x04fea11a994d792907fa65db2d57c29a1a59708cefcbd800f990282056e6431e",
          "blockNumber": "0x144d8fa",
          "transactionHash": "0xbe30e45283a88502a62ce46796add09550fe6d9aafcff3dc853a369b49eb3bf0",
          "transactionIndex": "0x97",
          "logIndex": "0x2c9",
          "removed": false
        },
        {
          "address": "0xacc00065030f6faaf7b3cd6630158672380485dc",
          "topics": [
            "0x9ea6790c7dadfd01c9f8b9762b3682607af2c7e79e05a9f9fdf5580dde949151",
            "0x000000000000000000000000a000000eaa652c7023530b603844471294b811c4",
            "0x000000000000000000000000000000000000000000000000783b0946b8c9d2e3"
          ],
          "data": "0x705a65d800000000000000000000000000000000000000000000000000000000",
          "blockHash": "0x04fea11a994d792907fa65db2d57c29a1a59708cefcbd800f990282056e6431e",
          "blockNumber": "0x144d8fa",
          "transactionHash": "0xbe30e45283a88502a62ce46796add09550fe6d9aafcff3dc853a369b49eb3bf0",
          "transactionIndex": "0x97",
          "logIndex": "0x2ca",
          "removed": false
        },
        {
          "address": "0xacc00065030f6faaf7b3cd6630158672380485dc",
          "topics": [
            "0x9ea6790c7dadfd01c9f8b9762b3682607af2c7e79e05a9f9fdf5580dde949151",
            "0x000000000000000000000000a000000eaa652c7023530b603844471294b811c4",
            "0x000000000000000000000000000000000000000000000000783b0946b8c9d2e3"
          ],
          "data": "0x0bf919fc00000000000000000000000000000000000000000000000000000000",
          "blockHash": "0x04fea11a994d792907fa65db2d57c29a1a59708cefcbd800f990282056e6431e",
          "blockNumber": "0x144d8fa",
          "transactionHash": "0xbe30e45283a88502a62ce46796add09550fe6d9aafcff3dc853a369b49eb3bf0",
          "transactionIndex": "0x97",
          "logIndex": "0x2cb",
          "removed": false
        }
      ],
      "logsBloom": "0x00000004000080000000000000000000000000000000000010000000000000000000000000000000000000000200000000000000000000000000000000000000000000000000000000000000000000000000000000000000000000000000000200000000000000000000000000200000000000000000000000000000000000000000000000000000000000000000000000000000001000000000200000000000000000000001000000000000000000000000010000000000000000000000000000000000000000000000000000200000000000000000000000000000000000000010000000000000000000000000000000000000000000000000000000000000",
      "type": "0x2",
      "transactionHash": "0xbe30e45283a88502a62ce46796add09550fe6d9aafcff3dc853a369b49eb3bf0",
      "transactionIndex": "0x97",
      "blockHash": "0x04fea11a994d792907fa65db2d57c29a1a59708cefcbd800f990282056e6431e",
      "blockNumber": "0x144d8fa",
      "gasUsed": "0x1f544",
      "effectiveGasPrice": "0x1d4298c24",
      "from": "0x660ad4b5a74130a4796b4d54bc6750ae93c86e6c",
      "to": "0xacc00065030f6faaf7b3cd6630158672380485dc",
      "contractAddress": null
    },
    {
      "status": "0x1",
      "cumulativeGasUsed": "0xda5089",
      "logs": [
        {
          "address": "0xacc00065030f6faaf7b3cd6630158672380485dc",
          "topics": [
            "0x1256f5b5ecb89caec12db449738f2fbcd1ba5806cf38f35413f4e5c15bf6a450",
            "0x000000000000000000000000000000000000000000000000783b0946b8c9d2e3"
          ],
          "data": "0x0000000000000000000000000000000000000000000000000000000000000020000000000000000000000000000000000000000000000000000000000000000d55504752414445525f524f4c4500000000000000000000000000000000000000",
          "blockHash": "0xb384d8b2eec2aa243b9ca0613f822c8ae1db13efcc0f39a029079d9308fdadc3",
          "blockNumber": "0x144d8fd",
          "transactionHash": "0x4af8db75cc0d24aeb9c4671063eec52a4e6a41ce37aea07b96b00e5b02d0d0c7",
          "transactionIndex": "0x89",
          "logIndex": "0x1ba",
          "removed": false
        }
      ],
      "logsBloom": "0x00000000100000000000000000000000000000000000000010000000000000000000000000000000000000000000000000000000000000000000000000000000000000000000000000000000000000000000000000000000000000000000000200000000000000000000000000200000000000000000000000000000000000000000000000000000000000000000000000000000001000000000200000000000000000000000000000000000000000000004000000000000000000000000000000000000000000000000000000000000000000000000000000000000000000000010000000000000000000000000000000000000000000000000000400000000",
      "type": "0x2",
      "transactionHash": "0x4af8db75cc0d24aeb9c4671063eec52a4e6a41ce37aea07b96b00e5b02d0d0c7",
      "transactionIndex": "0x89",
      "blockHash": "0xb384d8b2eec2aa243b9ca0613f822c8ae1db13efcc0f39a029079d9308fdadc3",
      "blockNumber": "0x144d8fd",
      "gasUsed": "0x7015",
      "effectiveGasPrice": "0x1cfda53fc",
      "from": "0x660ad4b5a74130a4796b4d54bc6750ae93c86e6c",
      "to": "0xacc00065030f6faaf7b3cd6630158672380485dc",
      "contractAddress": null
    },
    {
      "status": "0x1",
      "cumulativeGasUsed": "0x16f43e9",
      "logs": [
        {
          "address": "0xacc00065030f6faaf7b3cd6630158672380485dc",
          "topics": [
            "0xf98448b987f1428e0e230e1f3c6e2ce15b5693eaf31827fbd0b1ec4b424ae7cf",
            "0x000000000000000000000000000000000000000000000000783b0946b8c9d2e3",
            "0x000000000000000000000000f152abda9e4ce8b134ef22dc3c6ace19c4895d82"
          ],
          "data": "0x000000000000000000000000000000000000000000000000000000000000e100000000000000000000000000000000000000000000000000000000006748f01f0000000000000000000000000000000000000000000000000000000000000001",
          "blockHash": "0xdd1b90fa4b5ee37ef8dd297eb3cd9322fa0a8091d433d5e1b020dea2d87c9be8",
          "blockNumber": "0x144d8fe",
          "transactionHash": "0xa804a8420191ca5f364d6fd11bc2fdb5ea05a7453b2e259ff2c2e8b53b838648",
          "transactionIndex": "0x6a",
          "logIndex": "0x42f",
          "removed": false
        }
      ],
      "logsBloom": "0x00000400000000000000000000000000000000000000000010000000000000000000000000100000000000000000000000000000000000000000000000000000000000000000000000000200000000000000000000000000000000000000000200000000000000000000000000200000000000000000000000000000000000000000000000000000000000000000000008000000001000000000200000000000000000000000000000002000000000000000000000000008000000000000000000000000000000000000000000000000000000000000000000000000000000000010000000000000000000000000000000000000000000000000000000000000",
      "type": "0x2",
      "transactionHash": "0xa804a8420191ca5f364d6fd11bc2fdb5ea05a7453b2e259ff2c2e8b53b838648",
      "transactionIndex": "0x6a",
      "blockHash": "0xdd1b90fa4b5ee37ef8dd297eb3cd9322fa0a8091d433d5e1b020dea2d87c9be8",
      "blockNumber": "0x144d8fe",
      "gasUsed": "0xd88f",
      "effectiveGasPrice": "0x1d2239519",
      "from": "0x660ad4b5a74130a4796b4d54bc6750ae93c86e6c",
      "to": "0xacc00065030f6faaf7b3cd6630158672380485dc",
      "contractAddress": null
    },
    {
      "status": "0x1",
      "cumulativeGasUsed": "0xe4f27a",
      "logs": [
        {
          "address": "0xacc00065030f6faaf7b3cd6630158672380485dc",
          "topics": [
            "0xfeb69018ee8b8fd50ea86348f1267d07673379f72cffdeccec63853ee8ce8b48",
            "0x000000000000000000000000000000000000000000000000783b0946b8c9d2e3"
          ],
          "data": "0x000000000000000000000000000000000000000000000000000000000000e10000000000000000000000000000000000000000000000000000000000674f87ab",
          "blockHash": "0xc2d605006103d697cd1ba9fcf8465d081f3c58bd54b1d99eb566045cd4e8586f",
          "blockNumber": "0x144d8ff",
          "transactionHash": "0xea954f7f7beca4b32c635bcb3aea89d16db48b65b952a3e89267aa3227212925",
          "transactionIndex": "0x7e",
          "logIndex": "0x2eb",
          "removed": false
        }
      ],
      "logsBloom": "0x00000000000000000000000000000000000000000000000010000000000000000000000000000000000000000000000000000000000000000000000000000000000000000000000000000000000000000000000000000000000000000000000200000000000000000000008000200000000000000000000000010000000000000000000000000000000000000000000000000000001000000000200000000000000000000000000000000000000000000000000000000000000000000000000000000000000000020000000000000000000000000000000000000000000000000010000000000000000000000000000000000000000000000000000000000000",
      "type": "0x2",
      "transactionHash": "0xea954f7f7beca4b32c635bcb3aea89d16db48b65b952a3e89267aa3227212925",
      "transactionIndex": "0x7e",
      "blockHash": "0xc2d605006103d697cd1ba9fcf8465d081f3c58bd54b1d99eb566045cd4e8586f",
      "blockNumber": "0x144d8ff",
      "gasUsed": "0xc7e9",
      "effectiveGasPrice": "0x20ba0ec1c",
      "from": "0x660ad4b5a74130a4796b4d54bc6750ae93c86e6c",
      "to": "0xacc00065030f6faaf7b3cd6630158672380485dc",
      "contractAddress": null
    },
    {
      "status": "0x1",
      "cumulativeGasUsed": "0xde9001",
      "logs": [
        {
          "address": "0xacc00065030f6faaf7b3cd6630158672380485dc",
          "topics": [
            "0xa56b76017453f399ec2327ba00375dbfb1fd070ff854341ad6191e6a2e2de19c",
            "0x000000000000000000000000a000000eaa652c7023530b603844471294b811c4"
          ],
          "data": "0x000000000000000000000000000000000000000000000000000000000000e10000000000000000000000000000000000000000000000000000000000674f87b7",
          "blockHash": "0x108eacc4cb0c3b09563d0dff23440de9017c9b785f48c9e58b0ee55af1a2a324",
          "blockNumber": "0x144d900",
          "transactionHash": "0x56a7bdde2ed10e810d94615d3b424d75ac0269f41f76a5d169d38ac769fbca11",
          "transactionIndex": "0x8c",
          "logIndex": "0x2d4",
          "removed": false
        }
      ],
      "logsBloom": "0x00000000000000000000000000000000000000000000000000000000000000000000000000000000000000000200000000000000000000000000000000000000000000000000000000010000000000000000000000000000000000000000000200000000000000000000000000000000000000000000000000000000000000000000000000000000000000000000000000000000001000000000200100000000000000000001000000000000000000000000010000000000000000000000000000000000000000000000000000000000000000000000000000000000000000000000000000000000000000000000000000000000000000000000010000000000",
      "type": "0x2",
      "transactionHash": "0x56a7bdde2ed10e810d94615d3b424d75ac0269f41f76a5d169d38ac769fbca11",
      "transactionIndex": "0x8c",
      "blockHash": "0x108eacc4cb0c3b09563d0dff23440de9017c9b785f48c9e58b0ee55af1a2a324",
      "blockNumber": "0x144d900",
      "gasUsed": "0xc80a",
      "effectiveGasPrice": "0x216fdfb1c",
      "from": "0x660ad4b5a74130a4796b4d54bc6750ae93c86e6c",
      "to": "0xacc00065030f6faaf7b3cd6630158672380485dc",
      "contractAddress": null
    },
    {
      "status": "0x1",
      "cumulativeGasUsed": "0xa596d1",
      "logs": [
        {
          "address": "0xa000000eaa652c7023530b603844471294b811c4",
          "topics": [
            "0x8be0079c531659141344cd1fd0a4f28419497f9722a3daafe3b4186f6b6457e0",
            "0x000000000000000000000000660ad4b5a74130a4796b4d54bc6750ae93c86e6c",
            "0x000000000000000000000000acc00065030f6faaf7b3cd6630158672380485dc"
          ],
          "data": "0x",
          "blockHash": "0x209fca752ce852616fc53a77e9ff848937386896723a4374f81759ac2619e3cf",
          "blockNumber": "0x144d901",
          "transactionHash": "0x7b1f3a77a473d8a5319bb04098093d0b583bea0b6568f49b13ed6e946d4019c1",
          "transactionIndex": "0x70",
          "logIndex": "0x163",
          "removed": false
        }
      ],
      "logsBloom": "0x00000000000000000000000000000000000000000000000000800000000000000000000000000000000000000100000000000000000000000000000000004000000001000000000000000000000000000001000000000000000001000000080000000000000000000000000000000000000000000000000000000000000000400000000000000000000000000000000000000000000000000000000000000000000200000000000000000000000000000000000000000000000000000000000000000000000000200100000000000000000000000000000000000000000000000000000000000000000000000000000000000000000000000000000200000000",
      "type": "0x2",
      "transactionHash": "0x7b1f3a77a473d8a5319bb04098093d0b583bea0b6568f49b13ed6e946d4019c1",
      "transactionIndex": "0x70",
      "blockHash": "0x209fca752ce852616fc53a77e9ff848937386896723a4374f81759ac2619e3cf",
      "blockNumber": "0x144d901",
      "gasUsed": "0x8333",
      "effectiveGasPrice": "0x21ac341e5",
      "from": "0x660ad4b5a74130a4796b4d54bc6750ae93c86e6c",
      "to": "0xa000000eaa652c7023530b603844471294b811c4",
      "contractAddress": null
    }
  ],
  "libraries": [],
  "pending": [],
  "returns": {},
  "timestamp": 1732833350,
  "chain": 1,
  "commit": "dc20974"
}