{
  "transactions": [
    {
      "hash": "0xa54c0ce88b957fc3662e603abe3f564006e43dd3b83e5aa0db4310d2c43e3f1b",
      "transactionType": "CALL",
      "contractName": null,
      "contractAddress": "0xacc0003a4aae5da4ba12f771c7350d40147cd7d4",
      "function": "grantRole(uint64,address,uint32)",
      "arguments": [
        "0",
        "0x8bFe32Ac9C21609F45eE6AE44d4E326973700614",
        "0"
      ],
      "transaction": {
        "from": "0x660ad4b5a74130a4796b4d54bc6750ae93c86e6c",
        "to": "0xacc0003a4aae5da4ba12f771c7350d40147cd7d4",
        "gas": "0x32d46",
        "value": "0x0",
        "input": "0x25c471a000000000000000000000000000000000000000000000000000000000000000000000000000000000000000008bfe32ac9c21609f45ee6ae44d4e3269737006140000000000000000000000000000000000000000000000000000000000000000",
        "nonce": "0x2b6",
        "chainId": "0xa4b1"
      },
      "additionalContracts": [],
      "isFixedGasLimit": false
    },
    {
      "hash": "0x5b3460a99ab7443546f1a6af4e135cd906db133dab82dfd5e07d776cd8b04ff2",
      "transactionType": "CALL",
      "contractName": null,
      "contractAddress": "0xacc0003a4aae5da4ba12f771c7350d40147cd7d4",
      "function": "setTargetFunctionRole(address,bytes4[],uint64)",
      "arguments": [
        "0xA000000eaA652c7023530b603844471294B811c4",
        "[0x833a2fe0, 0x4f1ef286, 0x705a65d8, 0x0bf919fc]",
        "8663528507529876195"
      ],
      "transaction": {
        "from": "0x660ad4b5a74130a4796b4d54bc6750ae93c86e6c",
        "to": "0xacc0003a4aae5da4ba12f771c7350d40147cd7d4",
        "gas": "0x557b6",
        "value": "0x0",
        "input": "0x08d6122d000000000000000000000000a000000eaa652c7023530b603844471294b811c40000000000000000000000000000000000000000000000000000000000000060000000000000000000000000000000000000000000000000783b0946b8c9d2e30000000000000000000000000000000000000000000000000000000000000004833a2fe0000000000000000000000000000000000000000000000000000000004f1ef28600000000000000000000000000000000000000000000000000000000705a65d8000000000000000000000000000000000000000000000000000000000bf919fc00000000000000000000000000000000000000000000000000000000",
        "nonce": "0x2b7",
        "chainId": "0xa4b1"
      },
      "additionalContracts": [],
      "isFixedGasLimit": false
    },
    {
      "hash": "0xfea936e8671068e3d2d94fa5454ef153995b98c73a1d8152c338d18513db9d6b",
      "transactionType": "CALL",
      "contractName": null,
      "contractAddress": "0xacc0003a4aae5da4ba12f771c7350d40147cd7d4",
      "function": "labelRole(uint64,string)",
      "arguments": [
        "8663528507529876195",
        "UPGRADER_ROLE"
      ],
      "transaction": {
        "from": "0x660ad4b5a74130a4796b4d54bc6750ae93c86e6c",
        "to": "0xacc0003a4aae5da4ba12f771c7350d40147cd7d4",
        "gas": "0x2e6b8",
        "value": "0x0",
        "input": "0x853551b8000000000000000000000000000000000000000000000000783b0946b8c9d2e30000000000000000000000000000000000000000000000000000000000000040000000000000000000000000000000000000000000000000000000000000000d55504752414445525f524f4c4500000000000000000000000000000000000000",
        "nonce": "0x2b8",
        "chainId": "0xa4b1"
      },
      "additionalContracts": [],
      "isFixedGasLimit": false
    },
    {
      "hash": "0x20ef1dd3104049ca95547da3bfe8375dc3972851fb622c7c9bb83479c083bc19",
      "transactionType": "CALL",
      "contractName": null,
      "contractAddress": "0xacc0003a4aae5da4ba12f771c7350d40147cd7d4",
      "function": "grantRole(uint64,address,uint32)",
      "arguments": [
        "8663528507529876195",
        "0x8bFe32Ac9C21609F45eE6AE44d4E326973700614",
        "57600"
      ],
      "transaction": {
        "from": "0x660ad4b5a74130a4796b4d54bc6750ae93c86e6c",
        "to": "0xacc0003a4aae5da4ba12f771c7350d40147cd7d4",
        "gas": "0x32dd3",
        "value": "0x0",
        "input": "0x25c471a0000000000000000000000000000000000000000000000000783b0946b8c9d2e30000000000000000000000008bfe32ac9c21609f45ee6ae44d4e326973700614000000000000000000000000000000000000000000000000000000000000e100",
        "nonce": "0x2b9",
        "chainId": "0xa4b1"
      },
      "additionalContracts": [],
      "isFixedGasLimit": false
    },
    {
      "hash": "0xd673f6285b3e1e3db54e703eff3f9749add01d2436d5fb572f7848cd7010cfeb",
      "transactionType": "CALL",
      "contractName": null,
      "contractAddress": "0xacc0003a4aae5da4ba12f771c7350d40147cd7d4",
      "function": "setGrantDelay(uint64,uint32)",
      "arguments": [
        "8663528507529876195",
        "57600"
      ],
      "transaction": {
        "from": "0x660ad4b5a74130a4796b4d54bc6750ae93c86e6c",
        "to": "0xacc0003a4aae5da4ba12f771c7350d40147cd7d4",
        "gas": "0x2d289",
        "value": "0x0",
        "input": "0xa64d95ce000000000000000000000000000000000000000000000000783b0946b8c9d2e3000000000000000000000000000000000000000000000000000000000000e100",
        "nonce": "0x2ba",
        "chainId": "0xa4b1"
      },
      "additionalContracts": [],
      "isFixedGasLimit": false
    },
    {
      "hash": "0x76fc2bb498dda2094507e0fa44db833a59d7c2184b2d52b3fe601bf34ccea95e",
      "transactionType": "CALL",
      "contractName": null,
      "contractAddress": "0xacc0003a4aae5da4ba12f771c7350d40147cd7d4",
      "function": "setTargetAdminDelay(address,uint32)",
      "arguments": [
        "0xA000000eaA652c7023530b603844471294B811c4",
        "57600"
      ],
      "transaction": {
        "from": "0x660ad4b5a74130a4796b4d54bc6750ae93c86e6c",
        "to": "0xacc0003a4aae5da4ba12f771c7350d40147cd7d4",
        "gas": "0x2d2b4",
        "value": "0x0",
        "input": "0xd22b5989000000000000000000000000a000000eaa652c7023530b603844471294b811c4000000000000000000000000000000000000000000000000000000000000e100",
        "nonce": "0x2bb",
        "chainId": "0xa4b1"
      },
      "additionalContracts": [],
      "isFixedGasLimit": false
    },
    {
      "hash": "0x81bea1b48d804fd86af1a24255bb78736697cce7a2f4a9254d36f6e343ae54c3",
      "transactionType": "CALL",
      "contractName": null,
      "contractAddress": "0xa000000eaa652c7023530b603844471294b811c4",
      "function": "transferOwnership(address)",
      "arguments": [
        "0xacc0003a4aAE5dA4ba12F771C7350D40147Cd7D4"
      ],
      "transaction": {
        "from": "0x660ad4b5a74130a4796b4d54bc6750ae93c86e6c",
        "to": "0xa000000eaa652c7023530b603844471294b811c4",
        "gas": "0x23124",
        "value": "0x0",
        "input": "0xf2fde38b000000000000000000000000acc0003a4aae5da4ba12f771c7350d40147cd7d4",
        "nonce": "0x2bc",
        "chainId": "0xa4b1"
      },
      "additionalContracts": [],
      "isFixedGasLimit": false
    }
  ],
  "receipts": [
    {
      "status": "0x1",
      "cumulativeGasUsed": "0x772d7",
      "logs": [
        {
          "address": "0xacc0003a4aae5da4ba12f771c7350d40147cd7d4",
          "topics": [
            "0xf98448b987f1428e0e230e1f3c6e2ce15b5693eaf31827fbd0b1ec4b424ae7cf",
            "0x0000000000000000000000000000000000000000000000000000000000000000",
            "0x0000000000000000000000008bfe32ac9c21609f45ee6ae44d4e326973700614"
          ],
          "data": "0x0000000000000000000000000000000000000000000000000000000000000000000000000000000000000000000000000000000000000000000000006748efa40000000000000000000000000000000000000000000000000000000000000001",
          "blockHash": "0x1c9f8f5d8e2e36f637d929b407109a0f7a1f49373f03563bc345b19391e7c376",
          "blockNumber": "0x10a6481b",
          "transactionHash": "0xa54c0ce88b957fc3662e603abe3f564006e43dd3b83e5aa0db4310d2c43e3f1b",
          "transactionIndex": "0x2",
          "logIndex": "0x6",
          "removed": false
        }
      ],
      "logsBloom": "0x000000000000001000000000000000000000000000000000000000000000000000000000000000000000000000000000000000000000000000000000000000000000000002000000000000000000000000000000000000000000000000000000000000000a0000000000000000000800020000000000000000000000000000000000000000000000000000000000000008000000000000000001000000000000000000000000000000002000000000000000000010000008000000000000000000000000000000000000000000000000000000000000000000000000000020000000000000000000000000000000000000000000000000000000000000000000",
      "type": "0x2",
      "transactionHash": "0xa54c0ce88b957fc3662e603abe3f564006e43dd3b83e5aa0db4310d2c43e3f1b",
      "transactionIndex": "0x2",
      "blockHash": "0x1c9f8f5d8e2e36f637d929b407109a0f7a1f49373f03563bc345b19391e7c376",
      "blockNumber": "0x10a6481b",
      "gasUsed": "0x21a84",
      "effectiveGasPrice": "0x989680",
      "from": "0x660ad4b5a74130a4796b4d54bc6750ae93c86e6c",
      "to": "0xacc0003a4aae5da4ba12f771c7350d40147cd7d4",
      "contractAddress": null,
      "gasUsedForL1": "0x14261",
      "l1BlockNumber": "0x144d8f2"
    },
    {
      "status": "0x1",
      "cumulativeGasUsed": "0x17aa65",
      "logs": [
        {
          "address": "0xacc0003a4aae5da4ba12f771c7350d40147cd7d4",
          "topics": [
            "0x9ea6790c7dadfd01c9f8b9762b3682607af2c7e79e05a9f9fdf5580dde949151",
            "0x000000000000000000000000a000000eaa652c7023530b603844471294b811c4",
            "0x000000000000000000000000000000000000000000000000783b0946b8c9d2e3"
          ],
          "data": "0x833a2fe000000000000000000000000000000000000000000000000000000000",
          "blockHash": "0xe9dfcd8ae066c49c0e4c6ef573168b84862e2ad62aa60e123bd936b8fbd97321",
          "blockNumber": "0x10a6481e",
          "transactionHash": "0x5b3460a99ab7443546f1a6af4e135cd906db133dab82dfd5e07d776cd8b04ff2",
          "transactionIndex": "0x6",
          "logIndex": "0x8",
          "removed": false
        },
        {
          "address": "0xacc0003a4aae5da4ba12f771c7350d40147cd7d4",
          "topics": [
            "0x9ea6790c7dadfd01c9f8b9762b3682607af2c7e79e05a9f9fdf5580dde949151",
            "0x000000000000000000000000a000000eaa652c7023530b603844471294b811c4",
            "0x000000000000000000000000000000000000000000000000783b0946b8c9d2e3"
          ],
          "data": "0x4f1ef28600000000000000000000000000000000000000000000000000000000",
          "blockHash": "0xe9dfcd8ae066c49c0e4c6ef573168b84862e2ad62aa60e123bd936b8fbd97321",
          "blockNumber": "0x10a6481e",
          "transactionHash": "0x5b3460a99ab7443546f1a6af4e135cd906db133dab82dfd5e07d776cd8b04ff2",
          "transactionIndex": "0x6",
          "logIndex": "0x9",
          "removed": false
        },
        {
          "address": "0xacc0003a4aae5da4ba12f771c7350d40147cd7d4",
          "topics": [
            "0x9ea6790c7dadfd01c9f8b9762b3682607af2c7e79e05a9f9fdf5580dde949151",
            "0x000000000000000000000000a000000eaa652c7023530b603844471294b811c4",
            "0x000000000000000000000000000000000000000000000000783b0946b8c9d2e3"
          ],
          "data": "0x705a65d800000000000000000000000000000000000000000000000000000000",
          "blockHash": "0xe9dfcd8ae066c49c0e4c6ef573168b84862e2ad62aa60e123bd936b8fbd97321",
          "blockNumber": "0x10a6481e",
          "transactionHash": "0x5b3460a99ab7443546f1a6af4e135cd906db133dab82dfd5e07d776cd8b04ff2",
          "transactionIndex": "0x6",
          "logIndex": "0xa",
          "removed": false
        },
        {
          "address": "0xacc0003a4aae5da4ba12f771c7350d40147cd7d4",
          "topics": [
            "0x9ea6790c7dadfd01c9f8b9762b3682607af2c7e79e05a9f9fdf5580dde949151",
            "0x000000000000000000000000a000000eaa652c7023530b603844471294b811c4",
            "0x000000000000000000000000000000000000000000000000783b0946b8c9d2e3"
          ],
          "data": "0x0bf919fc00000000000000000000000000000000000000000000000000000000",
          "blockHash": "0xe9dfcd8ae066c49c0e4c6ef573168b84862e2ad62aa60e123bd936b8fbd97321",
          "blockNumber": "0x10a6481e",
          "transactionHash": "0x5b3460a99ab7443546f1a6af4e135cd906db133dab82dfd5e07d776cd8b04ff2",
          "transactionIndex": "0x6",
          "logIndex": "0xb",
          "removed": false
        }
      ],
      "logsBloom": "0x00000004000080000000000000000000000000000000000010000000000000000000000000000000000000000200000000000000000000000000000000000000000000000200000000000000000000000000000000000000000000000000000000000000080000000000000000200000020000000000000000000000000000000000000000000000000000000000000000000000000000000000000000000000000000000001000000000000000000000000010000000000000000000000000000000000000000000000000000200000000000000000000000000000000000000010000000000000000000000000000000000000000000000000000000000000",
      "type": "0x2",
      "transactionHash": "0x5b3460a99ab7443546f1a6af4e135cd906db133dab82dfd5e07d776cd8b04ff2",
      "transactionIndex": "0x6",
      "blockHash": "0xe9dfcd8ae066c49c0e4c6ef573168b84862e2ad62aa60e123bd936b8fbd97321",
      "blockNumber": "0x10a6481e",
      "gasUsed": "0x3a51b",
      "effectiveGasPrice": "0x989680",
      "from": "0x660ad4b5a74130a4796b4d54bc6750ae93c86e6c",
      "to": "0xacc0003a4aae5da4ba12f771c7350d40147cd7d4",
      "contractAddress": null,
      "gasUsedForL1": "0x1afd7",
      "l1BlockNumber": "0x144d8f2"
    },
    {
      "status": "0x1",
      "cumulativeGasUsed": "0x19c79a",
      "logs": [
        {
          "address": "0xacc0003a4aae5da4ba12f771c7350d40147cd7d4",
          "topics": [
            "0x1256f5b5ecb89caec12db449738f2fbcd1ba5806cf38f35413f4e5c15bf6a450",
            "0x000000000000000000000000000000000000000000000000783b0946b8c9d2e3"
          ],
          "data": "0x0000000000000000000000000000000000000000000000000000000000000020000000000000000000000000000000000000000000000000000000000000000d55504752414445525f524f4c4500000000000000000000000000000000000000",
          "blockHash": "0xc782e7a59fdabb555ae49ddbc7e38d2fdde5dcea8c91077e461d5969b4da8bbc",
          "blockNumber": "0x10a64823",
          "transactionHash": "0xfea936e8671068e3d2d94fa5454ef153995b98c73a1d8152c338d18513db9d6b",
          "transactionIndex": "0x3",
          "logIndex": "0x31",
          "removed": false
        }
      ],
      "logsBloom": "0x00000000100000000000000000000000000000000000000010000000000000000000000000000000000000000000000000000000000000000000000000000000000000000200000000000000000000000000000000000000000000000000000000000000080000000000000000200000020000000000000000000000000000000000000000000000000000000000000000000000000000000000000000000000000000000000000000000000000000000004000000000000000000000000000000000000000000000000000000000000000000000000000000000000000000000010000000000000000000000000000000000000000000000000000400000000",
      "type": "0x2",
      "transactionHash": "0xfea936e8671068e3d2d94fa5454ef153995b98c73a1d8152c338d18513db9d6b",
      "transactionIndex": "0x3",
      "blockHash": "0xc782e7a59fdabb555ae49ddbc7e38d2fdde5dcea8c91077e461d5969b4da8bbc",
      "blockNumber": "0x10a64823",
      "gasUsed": "0x1e272",
      "effectiveGasPrice": "0x989680",
      "from": "0x660ad4b5a74130a4796b4d54bc6750ae93c86e6c",
      "to": "0xacc0003a4aae5da4ba12f771c7350d40147cd7d4",
      "contractAddress": null,
      "gasUsedForL1": "0x1725d",
      "l1BlockNumber": "0x144d8f3"
    },
    {
      "status": "0x1",
      "cumulativeGasUsed": "0x7ce98",
      "logs": [
        {
          "address": "0xacc0003a4aae5da4ba12f771c7350d40147cd7d4",
          "topics": [
            "0xf98448b987f1428e0e230e1f3c6e2ce15b5693eaf31827fbd0b1ec4b424ae7cf",
            "0x000000000000000000000000000000000000000000000000783b0946b8c9d2e3",
            "0x0000000000000000000000008bfe32ac9c21609f45ee6ae44d4e326973700614"
          ],
          "data": "0x000000000000000000000000000000000000000000000000000000000000e100000000000000000000000000000000000000000000000000000000006748efa70000000000000000000000000000000000000000000000000000000000000001",
          "blockHash": "0x62214059366603f0744a5f289c325e169d61125fb6f2e8705f7b738a90731bdf",
          "blockNumber": "0x10a64828",
          "transactionHash": "0x20ef1dd3104049ca95547da3bfe8375dc3972851fb622c7c9bb83479c083bc19",
          "transactionIndex": "0x3",
          "logIndex": "0x5",
          "removed": false
        }
      ],
      "logsBloom": "0x00000000000000100000000000000000000000000000000010000000000000000000000000000000000000000000000000000000000000000000000000000000000000000200000000000000000000000000000000000000000000000000000000000000080000000000000000200000020000000000000000000000000000000000000000000000000000000000000008000000000000000001000000000000000000000000000000002000000000000000000010000008000000000000000000000000000000000000000000000000000000000000000000000000000000000010000000000000000000000000000000000000000000000000000000000000",
      "type": "0x2",
      "transactionHash": "0x20ef1dd3104049ca95547da3bfe8375dc3972851fb622c7c9bb83479c083bc19",
      "transactionIndex": "0x3",
      "blockHash": "0x62214059366603f0744a5f289c325e169d61125fb6f2e8705f7b738a90731bdf",
      "blockNumber": "0x10a64828",
      "gasUsed": "0x21af0",
      "effectiveGasPrice": "0x989680",
      "from": "0x660ad4b5a74130a4796b4d54bc6750ae93c86e6c",
      "to": "0xacc0003a4aae5da4ba12f771c7350d40147cd7d4",
      "contractAddress": null,
      "gasUsedForL1": "0x14261",
      "l1BlockNumber": "0x144d8f3"
    },
    {
      "status": "0x1",
      "cumulativeGasUsed": "0x19d462",
      "logs": [
        {
          "address": "0xacc0003a4aae5da4ba12f771c7350d40147cd7d4",
          "topics": [
            "0xfeb69018ee8b8fd50ea86348f1267d07673379f72cffdeccec63853ee8ce8b48",
            "0x000000000000000000000000000000000000000000000000783b0946b8c9d2e3"
          ],
          "data": "0x000000000000000000000000000000000000000000000000000000000000e10000000000000000000000000000000000000000000000000000000000674f8728",
          "blockHash": "0xd548ddb77fc2eaa118938e61d362d23ee8076231b3da68d0ea549349d5254c14",
          "blockNumber": "0x10a6482d",
          "transactionHash": "0xd673f6285b3e1e3db54e703eff3f9749add01d2436d5fb572f7848cd7010cfeb",
          "transactionIndex": "0x5",
          "logIndex": "0xa",
          "removed": false
        }
      ],
      "logsBloom": "0x00000000000000000000000000000000000000000000000010000000000000000000000000000000000000000000000000000000000000000000000000000000000000000200000000000000000000000000000000000000000000000000000000000000080000000000008000200000020000000000000000010000000000000000000000000000000000000000000000000000000000000000000000000000000000000000000000000000000000000000000000000000000000000000000000000000000000020000000000000000000000000000000000000000000000000010000000000000000000000000000000000000000000000000000000000000",
      "type": "0x2",
      "transactionHash": "0xd673f6285b3e1e3db54e703eff3f9749add01d2436d5fb572f7848cd7010cfeb",
      "transactionIndex": "0x5",
      "blockHash": "0xd548ddb77fc2eaa118938e61d362d23ee8076231b3da68d0ea549349d5254c14",
      "blockNumber": "0x10a6482d",
      "gasUsed": "0x1da4f",
      "effectiveGasPrice": "0x989680",
      "from": "0x660ad4b5a74130a4796b4d54bc6750ae93c86e6c",
      "to": "0xacc0003a4aae5da4ba12f771c7350d40147cd7d4",
      "contractAddress": null,
      "gasUsedForL1": "0x11266",
      "l1BlockNumber": "0x144d8f3"
    },
    {
      "status": "0x1",
      "cumulativeGasUsed": "0x1da70",
      "logs": [
        {
          "address": "0xacc0003a4aae5da4ba12f771c7350d40147cd7d4",
          "topics": [
            "0xa56b76017453f399ec2327ba00375dbfb1fd070ff854341ad6191e6a2e2de19c",
            "0x000000000000000000000000a000000eaa652c7023530b603844471294b811c4"
          ],
          "data": "0x000000000000000000000000000000000000000000000000000000000000e10000000000000000000000000000000000000000000000000000000000674f8729",
          "blockHash": "0xa41ac4a26ff9a4758f20b3efec4eace66d7f6a4d48de7c7b86644b03ec77ae91",
          "blockNumber": "0x10a64832",
          "transactionHash": "0x76fc2bb498dda2094507e0fa44db833a59d7c2184b2d52b3fe601bf34ccea95e",
          "transactionIndex": "0x1",
          "logIndex": "0x0",
          "removed": false
        }
      ],
      "logsBloom": "0x00000000000000000000000000000000000000000000000000000000000000000000000000000000000000000200000000000000000000000000000000000000000000000200000000010000000000000000000000000000000000000000000000000000080000000000000000000000020000000000000000000000000000000000000000000000000000000000000000000000000000000000000100000000000000000001000000000000000000000000010000000000000000000000000000000000000000000000000000000000000000000000000000000000000000000000000000000000000000000000000000000000000000000000010000000000",
      "type": "0x2",
      "transactionHash": "0x76fc2bb498dda2094507e0fa44db833a59d7c2184b2d52b3fe601bf34ccea95e",
      "transactionIndex": "0x1",
      "blockHash": "0xa41ac4a26ff9a4758f20b3efec4eace66d7f6a4d48de7c7b86644b03ec77ae91",
      "blockNumber": "0x10a64832",
      "gasUsed": "0x1da70",
      "effectiveGasPrice": "0x989680",
      "from": "0x660ad4b5a74130a4796b4d54bc6750ae93c86e6c",
      "to": "0xacc0003a4aae5da4ba12f771c7350d40147cd7d4",
      "contractAddress": null,
      "gasUsedForL1": "0x11266",
      "l1BlockNumber": "0x144d8f3"
    },
    {
      "status": "0x1",
      "cumulativeGasUsed": "0x4db82",
      "logs": [
        {
          "address": "0xa000000eaa652c7023530b603844471294b811c4",
          "topics": [
            "0x8be0079c531659141344cd1fd0a4f28419497f9722a3daafe3b4186f6b6457e0",
            "0x000000000000000000000000660ad4b5a74130a4796b4d54bc6750ae93c86e6c",
            "0x000000000000000000000000acc0003a4aae5da4ba12f771c7350d40147cd7d4"
          ],
          "data": "0x",
          "blockHash": "0x4b6203b694306672039b93bc8d1f8bcb3225c06df8dfcaf56833b40772782181",
          "blockNumber": "0x10a64837",
          "transactionHash": "0x81bea1b48d804fd86af1a24255bb78736697cce7a2f4a9254d36f6e343ae54c3",
          "transactionIndex": "0x2",
          "logIndex": "0x4",
          "removed": false
        }
      ],
      "logsBloom": "0x00000000000000000000000000000000000000000000000000800000000000000000000000000000000000000000000000000000000000000000040000000000000001000000000000000000000000000001000000000000000001000000080000000000000000000000000000000000000000000000000000000000000000400000000000000000000000000000000000000000000000000000000000000000000200000000000000000000000000000000000000000000000000000000000000000000000000200100000000000000000000000000000000000000000000000000000008000000000000000000000000000000000000000000000000000010",
      "type": "0x2",
      "transactionHash": "0x81bea1b48d804fd86af1a24255bb78736697cce7a2f4a9254d36f6e343ae54c3",
      "transactionIndex": "0x2",
      "blockHash": "0x4b6203b694306672039b93bc8d1f8bcb3225c06df8dfcaf56833b40772782181",
      "blockNumber": "0x10a64837",
      "gasUsed": "0x1641d",
      "effectiveGasPrice": "0x989680",
      "from": "0x660ad4b5a74130a4796b4d54bc6750ae93c86e6c",
      "to": "0xa000000eaa652c7023530b603844471294b811c4",
      "contractAddress": null,
      "gasUsedForL1": "0xe0ea",
      "l1BlockNumber": "0x144d8f3"
    }
  ],
  "libraries": [],
  "pending": [],
  "returns": {},
  "timestamp": 1732833195,
  "chain": 42161,
  "commit": "dc20974"
}