{
  "transactions": [
    {
      "hash": "0x5e19fedf7db26f2844446494f76dd39785f2d67b12e43bb2dfd8c22a280a45d7",
      "transactionType": "CALL",
      "contractName": null,
      "contractAddress": "0x12Cf431BdF7F143338cC09A0629EDcCEDCBCEcB5",
      "function": "revokeRole(bytes32,address)",
      "arguments": [
        "0xc4c453d647953c0fd35db5a34ee76e60fb4abc3a8fb891a25936b70b38f29253",
        "0x660ad4B5A74130a4796B4d54BC6750Ae93C86e6c"
      ],
      "transaction": {
        "type": "0x02",
        "from": "0x660ad4b5a74130a4796b4d54bc6750ae93c86e6c",
        "to": "0x12cf431bdf7f143338cc09a0629edccedcbcecb5",
        "gas": "0x8e71",
        "value": "0x0",
        "data": "0xd547741fc4c453d647953c0fd35db5a34ee76e60fb4abc3a8fb891a25936b70b38f29253000000000000000000000000660ad4b5a74130a4796b4d54bc6750ae93c86e6c",
        "nonce": "0xd4",
        "accessList": []
      },
      "additionalContracts": [],
      "isFixedGasLimit": false
    },
    {
      "hash": "0x07a7a7bba87fb353a438c7d815a8eb1ee3084721cba7dbb74539cbc3f6e78b54",
      "transactionType": "CALL",
      "contractName": null,
      "contractAddress": "0x12Cf431BdF7F143338cC09A0629EDcCEDCBCEcB5",
      "function": "grantRole(bytes32,address)",
      "arguments": [
        "0xc4c453d647953c0fd35db5a34ee76e60fb4abc3a8fb891a25936b70b38f29253",
        "0xf152Abda9E4ce8b134eF22Dc3C6aCe19C4895D82"
      ],
      "transaction": {
        "type": "0x02",
        "from": "0x660ad4b5a74130a4796b4d54bc6750ae93c86e6c",
        "to": "0x12cf431bdf7f143338cc09a0629edccedcbcecb5",
        "gas": "0x10466",
        "value": "0x0",
        "data": "0x2f2ff15dc4c453d647953c0fd35db5a34ee76e60fb4abc3a8fb891a25936b70b38f29253000000000000000000000000f152abda9e4ce8b134ef22dc3c6ace19c4895d82",
        "nonce": "0xd5",
        "accessList": []
      },
      "additionalContracts": [],
      "isFixedGasLimit": false
    },
    {
      "hash": "0x25afb11a52b486998de24cbbbaa471fc76c066cfaa52f5b0d6c9c07b759d3f63",
      "transactionType": "CALL",
      "contractName": null,
      "contractAddress": "0x1991Fb3e5EC42A5eee9acC70fB30b0DBEF34B667",
      "function": "revokeRole(bytes32,address)",
      "arguments": [
        "0xc4c453d647953c0fd35db5a34ee76e60fb4abc3a8fb891a25936b70b38f29253",
        "0x660ad4B5A74130a4796B4d54BC6750Ae93C86e6c"
      ],
      "transaction": {
        "type": "0x02",
        "from": "0x660ad4b5a74130a4796b4d54bc6750ae93c86e6c",
        "to": "0x1991fb3e5ec42a5eee9acc70fb30b0dbef34b667",
        "gas": "0x96b1",
        "value": "0x0",
        "data": "0xd547741fc4c453d647953c0fd35db5a34ee76e60fb4abc3a8fb891a25936b70b38f29253000000000000000000000000660ad4b5a74130a4796b4d54bc6750ae93c86e6c",
        "nonce": "0xd6",
        "accessList": []
      },
      "additionalContracts": [],
      "isFixedGasLimit": false
    },
    {
      "hash": "0x53d6612d26995b99696b457bc1228aa273495c5be07a1c105105823f6d7866d5",
      "transactionType": "CALL",
      "contractName": null,
      "contractAddress": "0x1991Fb3e5EC42A5eee9acC70fB30b0DBEF34B667",
      "function": "grantRole(bytes32,address)",
      "arguments": [
        "0xc4c453d647953c0fd35db5a34ee76e60fb4abc3a8fb891a25936b70b38f29253",
        "0xf152Abda9E4ce8b134eF22Dc3C6aCe19C4895D82"
      ],
      "transaction": {
        "type": "0x02",
        "from": "0x660ad4b5a74130a4796b4d54bc6750ae93c86e6c",
        "to": "0x1991fb3e5ec42a5eee9acc70fb30b0dbef34b667",
        "gas": "0x10484",
        "value": "0x0",
        "data": "0x2f2ff15dc4c453d647953c0fd35db5a34ee76e60fb4abc3a8fb891a25936b70b38f29253000000000000000000000000f152abda9e4ce8b134ef22dc3c6ace19c4895d82",
        "nonce": "0xd7",
        "accessList": []
      },
      "additionalContracts": [],
      "isFixedGasLimit": false
    },
    {
      "hash": "0x4641723c1e7c7698f438befb3283238a4fe9a8a3bc7c218f002af6a4b7c785ad",
      "transactionType": "CALL",
      "contractName": null,
      "contractAddress": "0xAc00056920EfF02831CAf0baF116ADf6B42D9ad1",
      "function": "revokeRole(bytes32,address)",
      "arguments": [
        "0xc4c453d647953c0fd35db5a34ee76e60fb4abc3a8fb891a25936b70b38f29253",
        "0x660ad4B5A74130a4796B4d54BC6750Ae93C86e6c"
      ],
      "transaction": {
        "type": "0x02",
        "from": "0x660ad4b5a74130a4796b4d54bc6750ae93c86e6c",
        "to": "0xac00056920eff02831caf0baf116adf6b42d9ad1",
        "gas": "0x968f",
        "value": "0x0",
        "data": "0xd547741fc4c453d647953c0fd35db5a34ee76e60fb4abc3a8fb891a25936b70b38f29253000000000000000000000000660ad4b5a74130a4796b4d54bc6750ae93c86e6c",
        "nonce": "0xd8",
        "accessList": []
      },
      "additionalContracts": [],
      "isFixedGasLimit": false
    },
    {
      "hash": "0x329c3ecd8050da5141c903dec4fdfc731abfeb7bb348c292acca929b6ff54fc6",
      "transactionType": "CALL",
      "contractName": null,
      "contractAddress": "0xAc00056920EfF02831CAf0baF116ADf6B42D9ad1",
      "function": "grantRole(bytes32,address)",
      "arguments": [
        "0xc4c453d647953c0fd35db5a34ee76e60fb4abc3a8fb891a25936b70b38f29253",
        "0xf152Abda9E4ce8b134eF22Dc3C6aCe19C4895D82"
      ],
      "transaction": {
        "type": "0x02",
        "from": "0x660ad4b5a74130a4796b4d54bc6750ae93c86e6c",
        "to": "0xac00056920eff02831caf0baf116adf6b42d9ad1",
        "gas": "0x10484",
        "value": "0x0",
        "data": "0x2f2ff15dc4c453d647953c0fd35db5a34ee76e60fb4abc3a8fb891a25936b70b38f29253000000000000000000000000f152abda9e4ce8b134ef22dc3c6ace19c4895d82",
        "nonce": "0xd9",
        "accessList": []
      },
      "additionalContracts": [],
      "isFixedGasLimit": false
    },
    {
      "hash": "0x4da8d133dfa999f2a559e53b8741029e04692423aa98c7eed93cba9245fe8b2d",
      "transactionType": "CALL",
      "contractName": null,
      "contractAddress": "0xc5d01939Af7Ce9Ffc505F0bb36eFeDde7920f2dc",
      "function": "revokeRole(bytes32,address)",
      "arguments": [
        "0xc4c453d647953c0fd35db5a34ee76e60fb4abc3a8fb891a25936b70b38f29253",
        "0x660ad4B5A74130a4796B4d54BC6750Ae93C86e6c"
      ],
      "transaction": {
        "type": "0x02",
        "from": "0x660ad4b5a74130a4796b4d54bc6750ae93c86e6c",
        "to": "0xc5d01939af7ce9ffc505f0bb36efedde7920f2dc",
        "gas": "0x8e71",
        "value": "0x0",
        "data": "0xd547741fc4c453d647953c0fd35db5a34ee76e60fb4abc3a8fb891a25936b70b38f29253000000000000000000000000660ad4b5a74130a4796b4d54bc6750ae93c86e6c",
        "nonce": "0xda",
        "accessList": []
      },
      "additionalContracts": [],
      "isFixedGasLimit": false
    },
    {
      "hash": "0xdc65b22e7dbbe44b495fe368ac21a2b01c3d663f523854adfe77cd5b628890a3",
      "transactionType": "CALL",
      "contractName": null,
      "contractAddress": "0xc5d01939Af7Ce9Ffc505F0bb36eFeDde7920f2dc",
      "function": "grantRole(bytes32,address)",
      "arguments": [
        "0xc4c453d647953c0fd35db5a34ee76e60fb4abc3a8fb891a25936b70b38f29253",
        "0xf152Abda9E4ce8b134eF22Dc3C6aCe19C4895D82"
      ],
      "transaction": {
        "type": "0x02",
        "from": "0x660ad4b5a74130a4796b4d54bc6750ae93c86e6c",
        "to": "0xc5d01939af7ce9ffc505f0bb36efedde7920f2dc",
        "gas": "0x10466",
        "value": "0x0",
        "data": "0x2f2ff15dc4c453d647953c0fd35db5a34ee76e60fb4abc3a8fb891a25936b70b38f29253000000000000000000000000f152abda9e4ce8b134ef22dc3c6ace19c4895d82",
        "nonce": "0xdb",
        "accessList": []
      },
      "additionalContracts": [],
      "isFixedGasLimit": false
    },
    {
      "hash": "0x75cacf292f497fa6ea90ce6f6b2aaa470a889ee1b609922cb9b6f3a970e34799",
      "transactionType": "CALL",
      "contractName": null,
      "contractAddress": "0x05369D989D9dD9cD6537E667865Ee8157d5EE91B",
      "function": "revokeRole(bytes32,address)",
      "arguments": [
        "0xc4c453d647953c0fd35db5a34ee76e60fb4abc3a8fb891a25936b70b38f29253",
        "0x660ad4B5A74130a4796B4d54BC6750Ae93C86e6c"
      ],
      "transaction": {
        "type": "0x02",
        "from": "0x660ad4b5a74130a4796b4d54bc6750ae93c86e6c",
        "to": "0x05369d989d9dd9cd6537e667865ee8157d5ee91b",
        "gas": "0x96b1",
        "value": "0x0",
        "data": "0xd547741fc4c453d647953c0fd35db5a34ee76e60fb4abc3a8fb891a25936b70b38f29253000000000000000000000000660ad4b5a74130a4796b4d54bc6750ae93c86e6c",
        "nonce": "0xdc",
        "accessList": []
      },
      "additionalContracts": [],
      "isFixedGasLimit": false
    },
    {
      "hash": null,
      "transactionType": "CALL",
      "contractName": null,
      "contractAddress": "0x05369D989D9dD9cD6537E667865Ee8157d5EE91B",
      "function": "grantRole(bytes32,address)",
      "arguments": [
        "0xc4c453d647953c0fd35db5a34ee76e60fb4abc3a8fb891a25936b70b38f29253",
        "0xf152Abda9E4ce8b134eF22Dc3C6aCe19C4895D82"
      ],
      "transaction": {
        "type": "0x02",
        "from": "0x660ad4b5a74130a4796b4d54bc6750ae93c86e6c",
        "to": "0x05369d989d9dd9cd6537e667865ee8157d5ee91b",
        "gas": "0x10484",
        "value": "0x0",
        "data": "0x2f2ff15dc4c453d647953c0fd35db5a34ee76e60fb4abc3a8fb891a25936b70b38f29253000000000000000000000000f152abda9e4ce8b134ef22dc3c6ace19c4895d82",
        "nonce": "0xdd",
        "accessList": []
      },
      "additionalContracts": [],
      "isFixedGasLimit": false
    },
    {
      "hash": null,
      "transactionType": "CALL",
      "contractName": null,
      "contractAddress": "0x83C6d6597891Ad48cF5e0BA901De55120C37C6bE",
      "function": "revokeRole(bytes32,address)",
      "arguments": [
        "0xc4c453d647953c0fd35db5a34ee76e60fb4abc3a8fb891a25936b70b38f29253",
        "0x660ad4B5A74130a4796B4d54BC6750Ae93C86e6c"
      ],
      "transaction": {
        "type": "0x02",
        "from": "0x660ad4b5a74130a4796b4d54bc6750ae93c86e6c",
        "to": "0x83c6d6597891ad48cf5e0ba901de55120c37c6be",
        "gas": "0x968f",
        "value": "0x0",
        "data": "0xd547741fc4c453d647953c0fd35db5a34ee76e60fb4abc3a8fb891a25936b70b38f29253000000000000000000000000660ad4b5a74130a4796b4d54bc6750ae93c86e6c",
        "nonce": "0xde",
        "accessList": []
      },
      "additionalContracts": [],
      "isFixedGasLimit": false
    },
    {
      "hash": null,
      "transactionType": "CALL",
      "contractName": null,
      "contractAddress": "0x83C6d6597891Ad48cF5e0BA901De55120C37C6bE",
      "function": "grantRole(bytes32,address)",
      "arguments": [
        "0xc4c453d647953c0fd35db5a34ee76e60fb4abc3a8fb891a25936b70b38f29253",
        "0xf152Abda9E4ce8b134eF22Dc3C6aCe19C4895D82"
      ],
      "transaction": {
        "type": "0x02",
        "from": "0x660ad4b5a74130a4796b4d54bc6750ae93c86e6c",
        "to": "0x83c6d6597891ad48cf5e0ba901de55120c37c6be",
        "gas": "0x10484",
        "value": "0x0",
        "data": "0x2f2ff15dc4c453d647953c0fd35db5a34ee76e60fb4abc3a8fb891a25936b70b38f29253000000000000000000000000f152abda9e4ce8b134ef22dc3c6ace19c4895d82",
        "nonce": "0xdf",
        "accessList": []
      },
      "additionalContracts": [],
      "isFixedGasLimit": false
    },
    {
      "hash": null,
      "transactionType": "CALL",
      "contractName": null,
      "contractAddress": "0x00A0c9d82B95a17Cdf2D46703F2DcA13EB0E8A94",
      "function": "revokeRole(bytes32,address)",
      "arguments": [
        "0xc4c453d647953c0fd35db5a34ee76e60fb4abc3a8fb891a25936b70b38f29253",
        "0x660ad4B5A74130a4796B4d54BC6750Ae93C86e6c"
      ],
      "transaction": {
        "type": "0x02",
        "from": "0x660ad4b5a74130a4796b4d54bc6750ae93c86e6c",
        "to": "0x00a0c9d82b95a17cdf2d46703f2dca13eb0e8a94",
        "gas": "0x8e71",
        "value": "0x0",
        "data": "0xd547741fc4c453d647953c0fd35db5a34ee76e60fb4abc3a8fb891a25936b70b38f29253000000000000000000000000660ad4b5a74130a4796b4d54bc6750ae93c86e6c",
        "nonce": "0xe0",
        "accessList": []
      },
      "additionalContracts": [],
      "isFixedGasLimit": false
    },
    {
      "hash": null,
      "transactionType": "CALL",
      "contractName": null,
      "contractAddress": "0x00A0c9d82B95a17Cdf2D46703F2DcA13EB0E8A94",
      "function": "grantRole(bytes32,address)",
      "arguments": [
        "0xc4c453d647953c0fd35db5a34ee76e60fb4abc3a8fb891a25936b70b38f29253",
        "0xf152Abda9E4ce8b134eF22Dc3C6aCe19C4895D82"
      ],
      "transaction": {
        "type": "0x02",
        "from": "0x660ad4b5a74130a4796b4d54bc6750ae93c86e6c",
        "to": "0x00a0c9d82b95a17cdf2d46703f2dca13eb0e8a94",
        "gas": "0x10466",
        "value": "0x0",
        "data": "0x2f2ff15dc4c453d647953c0fd35db5a34ee76e60fb4abc3a8fb891a25936b70b38f29253000000000000000000000000f152abda9e4ce8b134ef22dc3c6ace19c4895d82",
        "nonce": "0xe1",
        "accessList": []
      },
      "additionalContracts": [],
      "isFixedGasLimit": false
    },
    {
      "hash": null,
      "transactionType": "CALL",
      "contractName": null,
      "contractAddress": "0x47469683AEAD0B5EF2c599ff34d55C3D998393Bf",
      "function": "revokeRole(bytes32,address)",
      "arguments": [
        "0xc4c453d647953c0fd35db5a34ee76e60fb4abc3a8fb891a25936b70b38f29253",
        "0x660ad4B5A74130a4796B4d54BC6750Ae93C86e6c"
      ],
      "transaction": {
        "type": "0x02",
        "from": "0x660ad4b5a74130a4796b4d54bc6750ae93c86e6c",
        "to": "0x47469683aead0b5ef2c599ff34d55c3d998393bf",
        "gas": "0x96b1",
        "value": "0x0",
        "data": "0xd547741fc4c453d647953c0fd35db5a34ee76e60fb4abc3a8fb891a25936b70b38f29253000000000000000000000000660ad4b5a74130a4796b4d54bc6750ae93c86e6c",
        "nonce": "0xe2",
        "accessList": []
      },
      "additionalContracts": [],
      "isFixedGasLimit": false
    },
    {
      "hash": null,
      "transactionType": "CALL",
      "contractName": null,
      "contractAddress": "0x47469683AEAD0B5EF2c599ff34d55C3D998393Bf",
      "function": "grantRole(bytes32,address)",
      "arguments": [
        "0xc4c453d647953c0fd35db5a34ee76e60fb4abc3a8fb891a25936b70b38f29253",
        "0xf152Abda9E4ce8b134eF22Dc3C6aCe19C4895D82"
      ],
      "transaction": {
        "type": "0x02",
        "from": "0x660ad4b5a74130a4796b4d54bc6750ae93c86e6c",
        "to": "0x47469683aead0b5ef2c599ff34d55c3d998393bf",
        "gas": "0x10484",
        "value": "0x0",
        "data": "0x2f2ff15dc4c453d647953c0fd35db5a34ee76e60fb4abc3a8fb891a25936b70b38f29253000000000000000000000000f152abda9e4ce8b134ef22dc3c6ace19c4895d82",
        "nonce": "0xe3",
        "accessList": []
      },
      "additionalContracts": [],
      "isFixedGasLimit": false
    },
    {
      "hash": null,
      "transactionType": "CALL",
      "contractName": null,
      "contractAddress": "0xe987a57DA7Ab112B1bDc7AA704E6EA943760d252",
      "function": "revokeRole(bytes32,address)",
      "arguments": [
        "0xc4c453d647953c0fd35db5a34ee76e60fb4abc3a8fb891a25936b70b38f29253",
        "0x660ad4B5A74130a4796B4d54BC6750Ae93C86e6c"
      ],
      "transaction": {
        "type": "0x02",
        "from": "0x660ad4b5a74130a4796b4d54bc6750ae93c86e6c",
        "to": "0xe987a57da7ab112b1bdc7aa704e6ea943760d252",
        "gas": "0x968f",
        "value": "0x0",
        "data": "0xd547741fc4c453d647953c0fd35db5a34ee76e60fb4abc3a8fb891a25936b70b38f29253000000000000000000000000660ad4b5a74130a4796b4d54bc6750ae93c86e6c",
        "nonce": "0xe4",
        "accessList": []
      },
      "additionalContracts": [],
      "isFixedGasLimit": false
    },
    {
      "hash": null,
      "transactionType": "CALL",
      "contractName": null,
      "contractAddress": "0xe987a57DA7Ab112B1bDc7AA704E6EA943760d252",
      "function": "grantRole(bytes32,address)",
      "arguments": [
        "0xc4c453d647953c0fd35db5a34ee76e60fb4abc3a8fb891a25936b70b38f29253",
        "0xf152Abda9E4ce8b134eF22Dc3C6aCe19C4895D82"
      ],
      "transaction": {
        "type": "0x02",
        "from": "0x660ad4b5a74130a4796b4d54bc6750ae93c86e6c",
        "to": "0xe987a57da7ab112b1bdc7aa704e6ea943760d252",
        "gas": "0x10484",
        "value": "0x0",
        "data": "0x2f2ff15dc4c453d647953c0fd35db5a34ee76e60fb4abc3a8fb891a25936b70b38f29253000000000000000000000000f152abda9e4ce8b134ef22dc3c6ace19c4895d82",
        "nonce": "0xe5",
        "accessList": []
      },
      "additionalContracts": [],
      "isFixedGasLimit": false
    },
    {
      "hash": null,
      "transactionType": "CALL",
      "contractName": null,
      "contractAddress": "0x755cD5d147036E11c76F1EeffDd94794fC265f0d",
      "function": "revokeRole(bytes32,address)",
      "arguments": [
        "0xc4c453d647953c0fd35db5a34ee76e60fb4abc3a8fb891a25936b70b38f29253",
        "0x660ad4B5A74130a4796B4d54BC6750Ae93C86e6c"
      ],
      "transaction": {
        "type": "0x02",
        "from": "0x660ad4b5a74130a4796b4d54bc6750ae93c86e6c",
        "to": "0x755cd5d147036e11c76f1eeffdd94794fc265f0d",
        "gas": "0x8e71",
        "value": "0x0",
        "data": "0xd547741fc4c453d647953c0fd35db5a34ee76e60fb4abc3a8fb891a25936b70b38f29253000000000000000000000000660ad4b5a74130a4796b4d54bc6750ae93c86e6c",
        "nonce": "0xe6",
        "accessList": []
      },
      "additionalContracts": [],
      "isFixedGasLimit": false
    },
    {
      "hash": null,
      "transactionType": "CALL",
      "contractName": null,
      "contractAddress": "0x755cD5d147036E11c76F1EeffDd94794fC265f0d",
      "function": "grantRole(bytes32,address)",
      "arguments": [
        "0xc4c453d647953c0fd35db5a34ee76e60fb4abc3a8fb891a25936b70b38f29253",
        "0xf152Abda9E4ce8b134eF22Dc3C6aCe19C4895D82"
      ],
      "transaction": {
        "type": "0x02",
        "from": "0x660ad4b5a74130a4796b4d54bc6750ae93c86e6c",
        "to": "0x755cd5d147036e11c76f1eeffdd94794fc265f0d",
        "gas": "0x10466",
        "value": "0x0",
        "data": "0x2f2ff15dc4c453d647953c0fd35db5a34ee76e60fb4abc3a8fb891a25936b70b38f29253000000000000000000000000f152abda9e4ce8b134ef22dc3c6ace19c4895d82",
        "nonce": "0xe7",
        "accessList": []
      },
      "additionalContracts": [],
      "isFixedGasLimit": false
    },
    {
      "hash": null,
      "transactionType": "CALL",
      "contractName": null,
      "contractAddress": "0xD97E3cD27fb8af306b2CD42A61B7cbaAF044D08D",
      "function": "revokeRole(bytes32,address)",
      "arguments": [
        "0xc4c453d647953c0fd35db5a34ee76e60fb4abc3a8fb891a25936b70b38f29253",
        "0x660ad4B5A74130a4796B4d54BC6750Ae93C86e6c"
      ],
      "transaction": {
        "type": "0x02",
        "from": "0x660ad4b5a74130a4796b4d54bc6750ae93c86e6c",
        "to": "0xd97e3cd27fb8af306b2cd42a61b7cbaaf044d08d",
        "gas": "0x96b1",
        "value": "0x0",
        "data": "0xd547741fc4c453d647953c0fd35db5a34ee76e60fb4abc3a8fb891a25936b70b38f29253000000000000000000000000660ad4b5a74130a4796b4d54bc6750ae93c86e6c",
        "nonce": "0xe8",
        "accessList": []
      },
      "additionalContracts": [],
      "isFixedGasLimit": false
    },
    {
      "hash": null,
      "transactionType": "CALL",
      "contractName": null,
      "contractAddress": "0xD97E3cD27fb8af306b2CD42A61B7cbaAF044D08D",
      "function": "grantRole(bytes32,address)",
      "arguments": [
        "0xc4c453d647953c0fd35db5a34ee76e60fb4abc3a8fb891a25936b70b38f29253",
        "0xf152Abda9E4ce8b134eF22Dc3C6aCe19C4895D82"
      ],
      "transaction": {
        "type": "0x02",
        "from": "0x660ad4b5a74130a4796b4d54bc6750ae93c86e6c",
        "to": "0xd97e3cd27fb8af306b2cd42a61b7cbaaf044d08d",
        "gas": "0x10484",
        "value": "0x0",
        "data": "0x2f2ff15dc4c453d647953c0fd35db5a34ee76e60fb4abc3a8fb891a25936b70b38f29253000000000000000000000000f152abda9e4ce8b134ef22dc3c6ace19c4895d82",
        "nonce": "0xe9",
        "accessList": []
      },
      "additionalContracts": [],
      "isFixedGasLimit": false
    },
    {
      "hash": null,
      "transactionType": "CALL",
      "contractName": null,
      "contractAddress": "0x935f1C29Db1155c3E0f39F644DF78DDDBD4757Ff",
      "function": "revokeRole(bytes32,address)",
      "arguments": [
        "0xc4c453d647953c0fd35db5a34ee76e60fb4abc3a8fb891a25936b70b38f29253",
        "0x660ad4B5A74130a4796B4d54BC6750Ae93C86e6c"
      ],
      "transaction": {
        "type": "0x02",
        "from": "0x660ad4b5a74130a4796b4d54bc6750ae93c86e6c",
        "to": "0x935f1c29db1155c3e0f39f644df78dddbd4757ff",
        "gas": "0x968f",
        "value": "0x0",
        "data": "0xd547741fc4c453d647953c0fd35db5a34ee76e60fb4abc3a8fb891a25936b70b38f29253000000000000000000000000660ad4b5a74130a4796b4d54bc6750ae93c86e6c",
        "nonce": "0xea",
        "accessList": []
      },
      "additionalContracts": [],
      "isFixedGasLimit": false
    },
    {
      "hash": null,
      "transactionType": "CALL",
      "contractName": null,
      "contractAddress": "0x935f1C29Db1155c3E0f39F644DF78DDDBD4757Ff",
      "function": "grantRole(bytes32,address)",
      "arguments": [
        "0xc4c453d647953c0fd35db5a34ee76e60fb4abc3a8fb891a25936b70b38f29253",
        "0xf152Abda9E4ce8b134eF22Dc3C6aCe19C4895D82"
      ],
      "transaction": {
        "type": "0x02",
        "from": "0x660ad4b5a74130a4796b4d54bc6750ae93c86e6c",
        "to": "0x935f1c29db1155c3e0f39f644df78dddbd4757ff",
        "gas": "0x10484",
        "value": "0x0",
        "data": "0x2f2ff15dc4c453d647953c0fd35db5a34ee76e60fb4abc3a8fb891a25936b70b38f29253000000000000000000000000f152abda9e4ce8b134ef22dc3c6ace19c4895d82",
        "nonce": "0xeb",
        "accessList": []
      },
      "additionalContracts": [],
      "isFixedGasLimit": false
    },
    {
      "hash": null,
      "transactionType": "CALL",
      "contractName": null,
      "contractAddress": "0x351d8894fB8bfa1b0eFF77bFD9Aab18eA2da8fDd",
      "function": "revokeRole(bytes32,address)",
      "arguments": [
        "0xc4c453d647953c0fd35db5a34ee76e60fb4abc3a8fb891a25936b70b38f29253",
        "0x660ad4B5A74130a4796B4d54BC6750Ae93C86e6c"
      ],
      "transaction": {
        "type": "0x02",
        "from": "0x660ad4b5a74130a4796b4d54bc6750ae93c86e6c",
        "to": "0x351d8894fb8bfa1b0eff77bfd9aab18ea2da8fdd",
        "gas": "0x8e71",
        "value": "0x0",
        "data": "0xd547741fc4c453d647953c0fd35db5a34ee76e60fb4abc3a8fb891a25936b70b38f29253000000000000000000000000660ad4b5a74130a4796b4d54bc6750ae93c86e6c",
        "nonce": "0xec",
        "accessList": []
      },
      "additionalContracts": [],
      "isFixedGasLimit": false
    },
    {
      "hash": null,
      "transactionType": "CALL",
      "contractName": null,
      "contractAddress": "0x351d8894fB8bfa1b0eFF77bFD9Aab18eA2da8fDd",
      "function": "grantRole(bytes32,address)",
      "arguments": [
        "0xc4c453d647953c0fd35db5a34ee76e60fb4abc3a8fb891a25936b70b38f29253",
        "0xf152Abda9E4ce8b134eF22Dc3C6aCe19C4895D82"
      ],
      "transaction": {
        "type": "0x02",
        "from": "0x660ad4b5a74130a4796b4d54bc6750ae93c86e6c",
        "to": "0x351d8894fb8bfa1b0eff77bfd9aab18ea2da8fdd",
        "gas": "0x10466",
        "value": "0x0",
        "data": "0x2f2ff15dc4c453d647953c0fd35db5a34ee76e60fb4abc3a8fb891a25936b70b38f29253000000000000000000000000f152abda9e4ce8b134ef22dc3c6ace19c4895d82",
        "nonce": "0xed",
        "accessList": []
      },
      "additionalContracts": [],
      "isFixedGasLimit": false
    },
    {
      "hash": null,
      "transactionType": "CALL",
      "contractName": null,
      "contractAddress": "0x70ae312d3f1c9116BF89db833DaDc060D4AD820F",
      "function": "revokeRole(bytes32,address)",
      "arguments": [
        "0xc4c453d647953c0fd35db5a34ee76e60fb4abc3a8fb891a25936b70b38f29253",
        "0x660ad4B5A74130a4796B4d54BC6750Ae93C86e6c"
      ],
      "transaction": {
        "type": "0x02",
        "from": "0x660ad4b5a74130a4796b4d54bc6750ae93c86e6c",
        "to": "0x70ae312d3f1c9116bf89db833dadc060d4ad820f",
        "gas": "0x96b1",
        "value": "0x0",
        "data": "0xd547741fc4c453d647953c0fd35db5a34ee76e60fb4abc3a8fb891a25936b70b38f29253000000000000000000000000660ad4b5a74130a4796b4d54bc6750ae93c86e6c",
        "nonce": "0xee",
        "accessList": []
      },
      "additionalContracts": [],
      "isFixedGasLimit": false
    },
    {
      "hash": null,
      "transactionType": "CALL",
      "contractName": null,
      "contractAddress": "0x70ae312d3f1c9116BF89db833DaDc060D4AD820F",
      "function": "grantRole(bytes32,address)",
      "arguments": [
        "0xc4c453d647953c0fd35db5a34ee76e60fb4abc3a8fb891a25936b70b38f29253",
        "0xf152Abda9E4ce8b134eF22Dc3C6aCe19C4895D82"
      ],
      "transaction": {
        "type": "0x02",
        "from": "0x660ad4b5a74130a4796b4d54bc6750ae93c86e6c",
        "to": "0x70ae312d3f1c9116bf89db833dadc060d4ad820f",
        "gas": "0x10484",
        "value": "0x0",
        "data": "0x2f2ff15dc4c453d647953c0fd35db5a34ee76e60fb4abc3a8fb891a25936b70b38f29253000000000000000000000000f152abda9e4ce8b134ef22dc3c6ace19c4895d82",
        "nonce": "0xef",
        "accessList": []
      },
      "additionalContracts": [],
      "isFixedGasLimit": false
    },
    {
      "hash": null,
      "transactionType": "CALL",
      "contractName": null,
      "contractAddress": "0x266abd77Da7F877cdf93c0dd5782cC61Fa29ac96",
      "function": "revokeRole(bytes32,address)",
      "arguments": [
        "0xc4c453d647953c0fd35db5a34ee76e60fb4abc3a8fb891a25936b70b38f29253",
        "0x660ad4B5A74130a4796B4d54BC6750Ae93C86e6c"
      ],
      "transaction": {
        "type": "0x02",
        "from": "0x660ad4b5a74130a4796b4d54bc6750ae93c86e6c",
        "to": "0x266abd77da7f877cdf93c0dd5782cc61fa29ac96",
        "gas": "0x968f",
        "value": "0x0",
        "data": "0xd547741fc4c453d647953c0fd35db5a34ee76e60fb4abc3a8fb891a25936b70b38f29253000000000000000000000000660ad4b5a74130a4796b4d54bc6750ae93c86e6c",
        "nonce": "0xf0",
        "accessList": []
      },
      "additionalContracts": [],
      "isFixedGasLimit": false
    },
    {
      "hash": null,
      "transactionType": "CALL",
      "contractName": null,
      "contractAddress": "0x266abd77Da7F877cdf93c0dd5782cC61Fa29ac96",
      "function": "grantRole(bytes32,address)",
      "arguments": [
        "0xc4c453d647953c0fd35db5a34ee76e60fb4abc3a8fb891a25936b70b38f29253",
        "0xf152Abda9E4ce8b134eF22Dc3C6aCe19C4895D82"
      ],
      "transaction": {
        "type": "0x02",
        "from": "0x660ad4b5a74130a4796b4d54bc6750ae93c86e6c",
        "to": "0x266abd77da7f877cdf93c0dd5782cc61fa29ac96",
        "gas": "0x10484",
        "value": "0x0",
        "data": "0x2f2ff15dc4c453d647953c0fd35db5a34ee76e60fb4abc3a8fb891a25936b70b38f29253000000000000000000000000f152abda9e4ce8b134ef22dc3c6ace19c4895d82",
        "nonce": "0xf1",
        "accessList": []
      },
      "additionalContracts": [],
      "isFixedGasLimit": false
    },
    {
      "hash": null,
      "transactionType": "CALL",
      "contractName": null,
      "contractAddress": "0xdf34E61B6e7B9e348713d528fEB019d504d38c1e",
      "function": "revokeRole(bytes32,address)",
      "arguments": [
        "0xc4c453d647953c0fd35db5a34ee76e60fb4abc3a8fb891a25936b70b38f29253",
        "0x660ad4B5A74130a4796B4d54BC6750Ae93C86e6c"
      ],
      "transaction": {
        "type": "0x02",
        "from": "0x660ad4b5a74130a4796b4d54bc6750ae93c86e6c",
        "to": "0xdf34e61b6e7b9e348713d528feb019d504d38c1e",
        "gas": "0x8e71",
        "value": "0x0",
        "data": "0xd547741fc4c453d647953c0fd35db5a34ee76e60fb4abc3a8fb891a25936b70b38f29253000000000000000000000000660ad4b5a74130a4796b4d54bc6750ae93c86e6c",
        "nonce": "0xf2",
        "accessList": []
      },
      "additionalContracts": [],
      "isFixedGasLimit": false
    },
    {
      "hash": null,
      "transactionType": "CALL",
      "contractName": null,
      "contractAddress": "0xdf34E61B6e7B9e348713d528fEB019d504d38c1e",
      "function": "grantRole(bytes32,address)",
      "arguments": [
        "0xc4c453d647953c0fd35db5a34ee76e60fb4abc3a8fb891a25936b70b38f29253",
        "0xf152Abda9E4ce8b134eF22Dc3C6aCe19C4895D82"
      ],
      "transaction": {
        "type": "0x02",
        "from": "0x660ad4b5a74130a4796b4d54bc6750ae93c86e6c",
        "to": "0xdf34e61b6e7b9e348713d528feb019d504d38c1e",
        "gas": "0x10466",
        "value": "0x0",
        "data": "0x2f2ff15dc4c453d647953c0fd35db5a34ee76e60fb4abc3a8fb891a25936b70b38f29253000000000000000000000000f152abda9e4ce8b134ef22dc3c6ace19c4895d82",
        "nonce": "0xf3",
        "accessList": []
      },
      "additionalContracts": [],
      "isFixedGasLimit": false
    },
    {
      "hash": null,
      "transactionType": "CALL",
      "contractName": null,
      "contractAddress": "0x9d46297E4d0fb4D911bDE9746dBb7077d897a908",
      "function": "revokeRole(bytes32,address)",
      "arguments": [
        "0xc4c453d647953c0fd35db5a34ee76e60fb4abc3a8fb891a25936b70b38f29253",
        "0x660ad4B5A74130a4796B4d54BC6750Ae93C86e6c"
      ],
      "transaction": {
        "type": "0x02",
        "from": "0x660ad4b5a74130a4796b4d54bc6750ae93c86e6c",
        "to": "0x9d46297e4d0fb4d911bde9746dbb7077d897a908",
        "gas": "0x96b1",
        "value": "0x0",
        "data": "0xd547741fc4c453d647953c0fd35db5a34ee76e60fb4abc3a8fb891a25936b70b38f29253000000000000000000000000660ad4b5a74130a4796b4d54bc6750ae93c86e6c",
        "nonce": "0xf4",
        "accessList": []
      },
      "additionalContracts": [],
      "isFixedGasLimit": false
    },
    {
      "hash": null,
      "transactionType": "CALL",
      "contractName": null,
      "contractAddress": "0x9d46297E4d0fb4D911bDE9746dBb7077d897a908",
      "function": "grantRole(bytes32,address)",
      "arguments": [
        "0xc4c453d647953c0fd35db5a34ee76e60fb4abc3a8fb891a25936b70b38f29253",
        "0xf152Abda9E4ce8b134eF22Dc3C6aCe19C4895D82"
      ],
      "transaction": {
        "type": "0x02",
        "from": "0x660ad4b5a74130a4796b4d54bc6750ae93c86e6c",
        "to": "0x9d46297e4d0fb4d911bde9746dbb7077d897a908",
        "gas": "0x10484",
        "value": "0x0",
        "data": "0x2f2ff15dc4c453d647953c0fd35db5a34ee76e60fb4abc3a8fb891a25936b70b38f29253000000000000000000000000f152abda9e4ce8b134ef22dc3c6ace19c4895d82",
        "nonce": "0xf5",
        "accessList": []
      },
      "additionalContracts": [],
      "isFixedGasLimit": false
    },
    {
      "hash": null,
      "transactionType": "CALL",
      "contractName": null,
      "contractAddress": "0x73E0d4953c356a5Ca3A3D172739128776B2920b5",
      "function": "revokeRole(bytes32,address)",
      "arguments": [
        "0xc4c453d647953c0fd35db5a34ee76e60fb4abc3a8fb891a25936b70b38f29253",
        "0x660ad4B5A74130a4796B4d54BC6750Ae93C86e6c"
      ],
      "transaction": {
        "type": "0x02",
        "from": "0x660ad4b5a74130a4796b4d54bc6750ae93c86e6c",
        "to": "0x73e0d4953c356a5ca3a3d172739128776b2920b5",
        "gas": "0x968f",
        "value": "0x0",
        "data": "0xd547741fc4c453d647953c0fd35db5a34ee76e60fb4abc3a8fb891a25936b70b38f29253000000000000000000000000660ad4b5a74130a4796b4d54bc6750ae93c86e6c",
        "nonce": "0xf6",
        "accessList": []
      },
      "additionalContracts": [],
      "isFixedGasLimit": false
    },
    {
      "hash": null,
      "transactionType": "CALL",
      "contractName": null,
      "contractAddress": "0x73E0d4953c356a5Ca3A3D172739128776B2920b5",
      "function": "grantRole(bytes32,address)",
      "arguments": [
        "0xc4c453d647953c0fd35db5a34ee76e60fb4abc3a8fb891a25936b70b38f29253",
        "0xf152Abda9E4ce8b134eF22Dc3C6aCe19C4895D82"
      ],
      "transaction": {
        "type": "0x02",
        "from": "0x660ad4b5a74130a4796b4d54bc6750ae93c86e6c",
        "to": "0x73e0d4953c356a5ca3a3d172739128776b2920b5",
        "gas": "0x10484",
        "value": "0x0",
        "data": "0x2f2ff15dc4c453d647953c0fd35db5a34ee76e60fb4abc3a8fb891a25936b70b38f29253000000000000000000000000f152abda9e4ce8b134ef22dc3c6ace19c4895d82",
        "nonce": "0xf7",
        "accessList": []
      },
      "additionalContracts": [],
      "isFixedGasLimit": false
    },
    {
      "hash": null,
      "transactionType": "CALL",
      "contractName": null,
      "contractAddress": "0xdb161cdc9c11892922F7121a409b196f3b00e640",
      "function": "revokeRole(bytes32,address)",
      "arguments": [
        "0xc4c453d647953c0fd35db5a34ee76e60fb4abc3a8fb891a25936b70b38f29253",
        "0x660ad4B5A74130a4796B4d54BC6750Ae93C86e6c"
      ],
      "transaction": {
        "type": "0x02",
        "from": "0x660ad4b5a74130a4796b4d54bc6750ae93c86e6c",
        "to": "0xdb161cdc9c11892922f7121a409b196f3b00e640",
        "gas": "0x8e71",
        "value": "0x0",
        "data": "0xd547741fc4c453d647953c0fd35db5a34ee76e60fb4abc3a8fb891a25936b70b38f29253000000000000000000000000660ad4b5a74130a4796b4d54bc6750ae93c86e6c",
        "nonce": "0xf8",
        "accessList": []
      },
      "additionalContracts": [],
      "isFixedGasLimit": false
    },
    {
      "hash": null,
      "transactionType": "CALL",
      "contractName": null,
      "contractAddress": "0xdb161cdc9c11892922F7121a409b196f3b00e640",
      "function": "grantRole(bytes32,address)",
      "arguments": [
        "0xc4c453d647953c0fd35db5a34ee76e60fb4abc3a8fb891a25936b70b38f29253",
        "0xf152Abda9E4ce8b134eF22Dc3C6aCe19C4895D82"
      ],
      "transaction": {
        "type": "0x02",
        "from": "0x660ad4b5a74130a4796b4d54bc6750ae93c86e6c",
        "to": "0xdb161cdc9c11892922f7121a409b196f3b00e640",
        "gas": "0x10466",
        "value": "0x0",
        "data": "0x2f2ff15dc4c453d647953c0fd35db5a34ee76e60fb4abc3a8fb891a25936b70b38f29253000000000000000000000000f152abda9e4ce8b134ef22dc3c6ace19c4895d82",
        "nonce": "0xf9",
        "accessList": []
      },
      "additionalContracts": [],
      "isFixedGasLimit": false
    },
    {
      "hash": null,
      "transactionType": "CALL",
      "contractName": null,
      "contractAddress": "0x7277c48c2b8a303feDa28b45C693651c3dC44160",
      "function": "revokeRole(bytes32,address)",
      "arguments": [
        "0xc4c453d647953c0fd35db5a34ee76e60fb4abc3a8fb891a25936b70b38f29253",
        "0x660ad4B5A74130a4796B4d54BC6750Ae93C86e6c"
      ],
      "transaction": {
        "type": "0x02",
        "from": "0x660ad4b5a74130a4796b4d54bc6750ae93c86e6c",
        "to": "0x7277c48c2b8a303feda28b45c693651c3dc44160",
        "gas": "0x96b1",
        "value": "0x0",
        "data": "0xd547741fc4c453d647953c0fd35db5a34ee76e60fb4abc3a8fb891a25936b70b38f29253000000000000000000000000660ad4b5a74130a4796b4d54bc6750ae93c86e6c",
        "nonce": "0xfa",
        "accessList": []
      },
      "additionalContracts": [],
      "isFixedGasLimit": false
    },
    {
      "hash": null,
      "transactionType": "CALL",
      "contractName": null,
      "contractAddress": "0x7277c48c2b8a303feDa28b45C693651c3dC44160",
      "function": "grantRole(bytes32,address)",
      "arguments": [
        "0xc4c453d647953c0fd35db5a34ee76e60fb4abc3a8fb891a25936b70b38f29253",
        "0xf152Abda9E4ce8b134eF22Dc3C6aCe19C4895D82"
      ],
      "transaction": {
        "type": "0x02",
        "from": "0x660ad4b5a74130a4796b4d54bc6750ae93c86e6c",
        "to": "0x7277c48c2b8a303feda28b45c693651c3dc44160",
        "gas": "0x10484",
        "value": "0x0",
        "data": "0x2f2ff15dc4c453d647953c0fd35db5a34ee76e60fb4abc3a8fb891a25936b70b38f29253000000000000000000000000f152abda9e4ce8b134ef22dc3c6ace19c4895d82",
        "nonce": "0xfb",
        "accessList": []
      },
      "additionalContracts": [],
      "isFixedGasLimit": false
    },
    {
      "hash": null,
      "transactionType": "CALL",
      "contractName": null,
      "contractAddress": "0x642c4c33301EF5837ADa6E74F15Aa939f3951Fff",
      "function": "revokeRole(bytes32,address)",
      "arguments": [
        "0xc4c453d647953c0fd35db5a34ee76e60fb4abc3a8fb891a25936b70b38f29253",
        "0x660ad4B5A74130a4796B4d54BC6750Ae93C86e6c"
      ],
      "transaction": {
        "type": "0x02",
        "from": "0x660ad4b5a74130a4796b4d54bc6750ae93c86e6c",
        "to": "0x642c4c33301ef5837ada6e74f15aa939f3951fff",
        "gas": "0x968f",
        "value": "0x0",
        "data": "0xd547741fc4c453d647953c0fd35db5a34ee76e60fb4abc3a8fb891a25936b70b38f29253000000000000000000000000660ad4b5a74130a4796b4d54bc6750ae93c86e6c",
        "nonce": "0xfc",
        "accessList": []
      },
      "additionalContracts": [],
      "isFixedGasLimit": false
    },
    {
      "hash": null,
      "transactionType": "CALL",
      "contractName": null,
      "contractAddress": "0x642c4c33301EF5837ADa6E74F15Aa939f3951Fff",
      "function": "grantRole(bytes32,address)",
      "arguments": [
        "0xc4c453d647953c0fd35db5a34ee76e60fb4abc3a8fb891a25936b70b38f29253",
        "0xf152Abda9E4ce8b134eF22Dc3C6aCe19C4895D82"
      ],
      "transaction": {
        "type": "0x02",
        "from": "0x660ad4b5a74130a4796b4d54bc6750ae93c86e6c",
        "to": "0x642c4c33301ef5837ada6e74f15aa939f3951fff",
        "gas": "0x10484",
        "value": "0x0",
        "data": "0x2f2ff15dc4c453d647953c0fd35db5a34ee76e60fb4abc3a8fb891a25936b70b38f29253000000000000000000000000f152abda9e4ce8b134ef22dc3c6ace19c4895d82",
        "nonce": "0xfd",
        "accessList": []
      },
      "additionalContracts": [],
      "isFixedGasLimit": false
    },
    {
      "hash": null,
      "transactionType": "CALL",
      "contractName": null,
      "contractAddress": "0xc7a542f73049C11f9719Be6Ff701fCA882D60020",
      "function": "revokeRole(bytes32,address)",
      "arguments": [
        "0xc4c453d647953c0fd35db5a34ee76e60fb4abc3a8fb891a25936b70b38f29253",
        "0x660ad4B5A74130a4796B4d54BC6750Ae93C86e6c"
      ],
      "transaction": {
        "type": "0x02",
        "from": "0x660ad4b5a74130a4796b4d54bc6750ae93c86e6c",
        "to": "0xc7a542f73049c11f9719be6ff701fca882d60020",
        "gas": "0x8e71",
        "value": "0x0",
        "data": "0xd547741fc4c453d647953c0fd35db5a34ee76e60fb4abc3a8fb891a25936b70b38f29253000000000000000000000000660ad4b5a74130a4796b4d54bc6750ae93c86e6c",
        "nonce": "0xfe",
        "accessList": []
      },
      "additionalContracts": [],
      "isFixedGasLimit": false
    },
    {
      "hash": null,
      "transactionType": "CALL",
      "contractName": null,
      "contractAddress": "0xc7a542f73049C11f9719Be6Ff701fCA882D60020",
      "function": "grantRole(bytes32,address)",
      "arguments": [
        "0xc4c453d647953c0fd35db5a34ee76e60fb4abc3a8fb891a25936b70b38f29253",
        "0xf152Abda9E4ce8b134eF22Dc3C6aCe19C4895D82"
      ],
      "transaction": {
        "type": "0x02",
        "from": "0x660ad4b5a74130a4796b4d54bc6750ae93c86e6c",
        "to": "0xc7a542f73049c11f9719be6ff701fca882d60020",
        "gas": "0x10466",
        "value": "0x0",
        "data": "0x2f2ff15dc4c453d647953c0fd35db5a34ee76e60fb4abc3a8fb891a25936b70b38f29253000000000000000000000000f152abda9e4ce8b134ef22dc3c6ace19c4895d82",
        "nonce": "0xff",
        "accessList": []
      },
      "additionalContracts": [],
      "isFixedGasLimit": false
    },
    {
      "hash": null,
      "transactionType": "CALL",
      "contractName": null,
      "contractAddress": "0xCFfEa712C4B63d2498747943eB3467D12db6b476",
      "function": "revokeRole(bytes32,address)",
      "arguments": [
        "0xc4c453d647953c0fd35db5a34ee76e60fb4abc3a8fb891a25936b70b38f29253",
        "0x660ad4B5A74130a4796B4d54BC6750Ae93C86e6c"
      ],
      "transaction": {
        "type": "0x02",
        "from": "0x660ad4b5a74130a4796b4d54bc6750ae93c86e6c",
        "to": "0xcffea712c4b63d2498747943eb3467d12db6b476",
        "gas": "0x96b1",
        "value": "0x0",
        "data": "0xd547741fc4c453d647953c0fd35db5a34ee76e60fb4abc3a8fb891a25936b70b38f29253000000000000000000000000660ad4b5a74130a4796b4d54bc6750ae93c86e6c",
        "nonce": "0x100",
        "accessList": []
      },
      "additionalContracts": [],
      "isFixedGasLimit": false
    },
    {
      "hash": null,
      "transactionType": "CALL",
      "contractName": null,
      "contractAddress": "0xCFfEa712C4B63d2498747943eB3467D12db6b476",
      "function": "grantRole(bytes32,address)",
      "arguments": [
        "0xc4c453d647953c0fd35db5a34ee76e60fb4abc3a8fb891a25936b70b38f29253",
        "0xf152Abda9E4ce8b134eF22Dc3C6aCe19C4895D82"
      ],
      "transaction": {
        "type": "0x02",
        "from": "0x660ad4b5a74130a4796b4d54bc6750ae93c86e6c",
        "to": "0xcffea712c4b63d2498747943eb3467d12db6b476",
        "gas": "0x10484",
        "value": "0x0",
        "data": "0x2f2ff15dc4c453d647953c0fd35db5a34ee76e60fb4abc3a8fb891a25936b70b38f29253000000000000000000000000f152abda9e4ce8b134ef22dc3c6ace19c4895d82",
        "nonce": "0x101",
        "accessList": []
      },
      "additionalContracts": [],
      "isFixedGasLimit": false
    },
    {
      "hash": null,
      "transactionType": "CALL",
      "contractName": null,
      "contractAddress": "0x170fFDe318B514B029E1B1eC4F096C7e1bDeaeA8",
      "function": "revokeRole(bytes32,address)",
      "arguments": [
        "0xc4c453d647953c0fd35db5a34ee76e60fb4abc3a8fb891a25936b70b38f29253",
        "0x660ad4B5A74130a4796B4d54BC6750Ae93C86e6c"
      ],
      "transaction": {
        "type": "0x02",
        "from": "0x660ad4b5a74130a4796b4d54bc6750ae93c86e6c",
        "to": "0x170ffde318b514b029e1b1ec4f096c7e1bdeaea8",
        "gas": "0x968f",
        "value": "0x0",
        "data": "0xd547741fc4c453d647953c0fd35db5a34ee76e60fb4abc3a8fb891a25936b70b38f29253000000000000000000000000660ad4b5a74130a4796b4d54bc6750ae93c86e6c",
        "nonce": "0x102",
        "accessList": []
      },
      "additionalContracts": [],
      "isFixedGasLimit": false
    },
    {
      "hash": null,
      "transactionType": "CALL",
      "contractName": null,
      "contractAddress": "0x170fFDe318B514B029E1B1eC4F096C7e1bDeaeA8",
      "function": "grantRole(bytes32,address)",
      "arguments": [
        "0xc4c453d647953c0fd35db5a34ee76e60fb4abc3a8fb891a25936b70b38f29253",
        "0xf152Abda9E4ce8b134eF22Dc3C6aCe19C4895D82"
      ],
      "transaction": {
        "type": "0x02",
        "from": "0x660ad4b5a74130a4796b4d54bc6750ae93c86e6c",
        "to": "0x170ffde318b514b029e1b1ec4f096c7e1bdeaea8",
        "gas": "0x10484",
        "value": "0x0",
        "data": "0x2f2ff15dc4c453d647953c0fd35db5a34ee76e60fb4abc3a8fb891a25936b70b38f29253000000000000000000000000f152abda9e4ce8b134ef22dc3c6ace19c4895d82",
        "nonce": "0x103",
        "accessList": []
      },
      "additionalContracts": [],
      "isFixedGasLimit": false
    },
    {
      "hash": null,
      "transactionType": "CALL",
      "contractName": null,
      "contractAddress": "0x5B8Ae1C9c5970e2637Cf3Af431acAAebEf7aFb85",
      "function": "revokeRole(bytes32,address)",
      "arguments": [
        "0xc4c453d647953c0fd35db5a34ee76e60fb4abc3a8fb891a25936b70b38f29253",
        "0x660ad4B5A74130a4796B4d54BC6750Ae93C86e6c"
      ],
      "transaction": {
        "type": "0x02",
        "from": "0x660ad4b5a74130a4796b4d54bc6750ae93c86e6c",
        "to": "0x5b8ae1c9c5970e2637cf3af431acaaebef7afb85",
        "gas": "0x8e71",
        "value": "0x0",
        "data": "0xd547741fc4c453d647953c0fd35db5a34ee76e60fb4abc3a8fb891a25936b70b38f29253000000000000000000000000660ad4b5a74130a4796b4d54bc6750ae93c86e6c",
        "nonce": "0x104",
        "accessList": []
      },
      "additionalContracts": [],
      "isFixedGasLimit": false
    },
    {
      "hash": null,
      "transactionType": "CALL",
      "contractName": null,
      "contractAddress": "0x5B8Ae1C9c5970e2637Cf3Af431acAAebEf7aFb85",
      "function": "grantRole(bytes32,address)",
      "arguments": [
        "0xc4c453d647953c0fd35db5a34ee76e60fb4abc3a8fb891a25936b70b38f29253",
        "0xf152Abda9E4ce8b134eF22Dc3C6aCe19C4895D82"
      ],
      "transaction": {
        "type": "0x02",
        "from": "0x660ad4b5a74130a4796b4d54bc6750ae93c86e6c",
        "to": "0x5b8ae1c9c5970e2637cf3af431acaaebef7afb85",
        "gas": "0x10466",
        "value": "0x0",
        "data": "0x2f2ff15dc4c453d647953c0fd35db5a34ee76e60fb4abc3a8fb891a25936b70b38f29253000000000000000000000000f152abda9e4ce8b134ef22dc3c6ace19c4895d82",
        "nonce": "0x105",
        "accessList": []
      },
      "additionalContracts": [],
      "isFixedGasLimit": false
    },
    {
      "hash": null,
      "transactionType": "CALL",
      "contractName": null,
      "contractAddress": "0x6d2b0A4588a7F7d88298B0089cA396506A1D42d8",
      "function": "revokeRole(bytes32,address)",
      "arguments": [
        "0xc4c453d647953c0fd35db5a34ee76e60fb4abc3a8fb891a25936b70b38f29253",
        "0x660ad4B5A74130a4796B4d54BC6750Ae93C86e6c"
      ],
      "transaction": {
        "type": "0x02",
        "from": "0x660ad4b5a74130a4796b4d54bc6750ae93c86e6c",
        "to": "0x6d2b0a4588a7f7d88298b0089ca396506a1d42d8",
        "gas": "0x96b1",
        "value": "0x0",
        "data": "0xd547741fc4c453d647953c0fd35db5a34ee76e60fb4abc3a8fb891a25936b70b38f29253000000000000000000000000660ad4b5a74130a4796b4d54bc6750ae93c86e6c",
        "nonce": "0x106",
        "accessList": []
      },
      "additionalContracts": [],
      "isFixedGasLimit": false
    },
    {
      "hash": null,
      "transactionType": "CALL",
      "contractName": null,
      "contractAddress": "0x6d2b0A4588a7F7d88298B0089cA396506A1D42d8",
      "function": "grantRole(bytes32,address)",
      "arguments": [
        "0xc4c453d647953c0fd35db5a34ee76e60fb4abc3a8fb891a25936b70b38f29253",
        "0xf152Abda9E4ce8b134eF22Dc3C6aCe19C4895D82"
      ],
      "transaction": {
        "type": "0x02",
        "from": "0x660ad4b5a74130a4796b4d54bc6750ae93c86e6c",
        "to": "0x6d2b0a4588a7f7d88298b0089ca396506a1d42d8",
        "gas": "0x10484",
        "value": "0x0",
        "data": "0x2f2ff15dc4c453d647953c0fd35db5a34ee76e60fb4abc3a8fb891a25936b70b38f29253000000000000000000000000f152abda9e4ce8b134ef22dc3c6ace19c4895d82",
        "nonce": "0x107",
        "accessList": []
      },
      "additionalContracts": [],
      "isFixedGasLimit": false
    },
    {
      "hash": null,
      "transactionType": "CALL",
      "contractName": null,
      "contractAddress": "0xF5992B6A0dEa32dCF6BE7bfAf762A4D94f139Ea7",
      "function": "revokeRole(bytes32,address)",
      "arguments": [
        "0xc4c453d647953c0fd35db5a34ee76e60fb4abc3a8fb891a25936b70b38f29253",
        "0x660ad4B5A74130a4796B4d54BC6750Ae93C86e6c"
      ],
      "transaction": {
        "type": "0x02",
        "from": "0x660ad4b5a74130a4796b4d54bc6750ae93c86e6c",
        "to": "0xf5992b6a0dea32dcf6be7bfaf762a4d94f139ea7",
        "gas": "0x968f",
        "value": "0x0",
        "data": "0xd547741fc4c453d647953c0fd35db5a34ee76e60fb4abc3a8fb891a25936b70b38f29253000000000000000000000000660ad4b5a74130a4796b4d54bc6750ae93c86e6c",
        "nonce": "0x108",
        "accessList": []
      },
      "additionalContracts": [],
      "isFixedGasLimit": false
    },
    {
      "hash": null,
      "transactionType": "CALL",
      "contractName": null,
      "contractAddress": "0xF5992B6A0dEa32dCF6BE7bfAf762A4D94f139Ea7",
      "function": "grantRole(bytes32,address)",
      "arguments": [
        "0xc4c453d647953c0fd35db5a34ee76e60fb4abc3a8fb891a25936b70b38f29253",
        "0xf152Abda9E4ce8b134eF22Dc3C6aCe19C4895D82"
      ],
      "transaction": {
        "type": "0x02",
        "from": "0x660ad4b5a74130a4796b4d54bc6750ae93c86e6c",
        "to": "0xf5992b6a0dea32dcf6be7bfaf762a4d94f139ea7",
        "gas": "0x10484",
        "value": "0x0",
        "data": "0x2f2ff15dc4c453d647953c0fd35db5a34ee76e60fb4abc3a8fb891a25936b70b38f29253000000000000000000000000f152abda9e4ce8b134ef22dc3c6ace19c4895d82",
        "nonce": "0x109",
        "accessList": []
      },
      "additionalContracts": [],
      "isFixedGasLimit": false
    },
    {
      "hash": null,
      "transactionType": "CALL",
      "contractName": null,
      "contractAddress": "0x43b718Aa5e678b08615CA984cbe25f690B085b32",
      "function": "revokeRole(bytes32,address)",
      "arguments": [
        "0xc4c453d647953c0fd35db5a34ee76e60fb4abc3a8fb891a25936b70b38f29253",
        "0x660ad4B5A74130a4796B4d54BC6750Ae93C86e6c"
      ],
      "transaction": {
        "type": "0x02",
        "from": "0x660ad4b5a74130a4796b4d54bc6750ae93c86e6c",
        "to": "0x43b718aa5e678b08615ca984cbe25f690b085b32",
        "gas": "0x8e71",
        "value": "0x0",
        "data": "0xd547741fc4c453d647953c0fd35db5a34ee76e60fb4abc3a8fb891a25936b70b38f29253000000000000000000000000660ad4b5a74130a4796b4d54bc6750ae93c86e6c",
        "nonce": "0x10a",
        "accessList": []
      },
      "additionalContracts": [],
      "isFixedGasLimit": false
    },
    {
      "hash": null,
      "transactionType": "CALL",
      "contractName": null,
      "contractAddress": "0x43b718Aa5e678b08615CA984cbe25f690B085b32",
      "function": "grantRole(bytes32,address)",
      "arguments": [
        "0xc4c453d647953c0fd35db5a34ee76e60fb4abc3a8fb891a25936b70b38f29253",
        "0xf152Abda9E4ce8b134eF22Dc3C6aCe19C4895D82"
      ],
      "transaction": {
        "type": "0x02",
        "from": "0x660ad4b5a74130a4796b4d54bc6750ae93c86e6c",
        "to": "0x43b718aa5e678b08615ca984cbe25f690b085b32",
        "gas": "0x10466",
        "value": "0x0",
        "data": "0x2f2ff15dc4c453d647953c0fd35db5a34ee76e60fb4abc3a8fb891a25936b70b38f29253000000000000000000000000f152abda9e4ce8b134ef22dc3c6ace19c4895d82",
        "nonce": "0x10b",
        "accessList": []
      },
      "additionalContracts": [],
      "isFixedGasLimit": false
    },
    {
      "hash": null,
      "transactionType": "CALL",
      "contractName": null,
      "contractAddress": "0x872407261Fd595363c108cE7f0e0272f24626189",
      "function": "revokeRole(bytes32,address)",
      "arguments": [
        "0xc4c453d647953c0fd35db5a34ee76e60fb4abc3a8fb891a25936b70b38f29253",
        "0x660ad4B5A74130a4796B4d54BC6750Ae93C86e6c"
      ],
      "transaction": {
        "type": "0x02",
        "from": "0x660ad4b5a74130a4796b4d54bc6750ae93c86e6c",
        "to": "0x872407261fd595363c108ce7f0e0272f24626189",
        "gas": "0x96b1",
        "value": "0x0",
        "data": "0xd547741fc4c453d647953c0fd35db5a34ee76e60fb4abc3a8fb891a25936b70b38f29253000000000000000000000000660ad4b5a74130a4796b4d54bc6750ae93c86e6c",
        "nonce": "0x10c",
        "accessList": []
      },
      "additionalContracts": [],
      "isFixedGasLimit": false
    },
    {
      "hash": null,
      "transactionType": "CALL",
      "contractName": null,
      "contractAddress": "0x872407261Fd595363c108cE7f0e0272f24626189",
      "function": "grantRole(bytes32,address)",
      "arguments": [
        "0xc4c453d647953c0fd35db5a34ee76e60fb4abc3a8fb891a25936b70b38f29253",
        "0xf152Abda9E4ce8b134eF22Dc3C6aCe19C4895D82"
      ],
      "transaction": {
        "type": "0x02",
        "from": "0x660ad4b5a74130a4796b4d54bc6750ae93c86e6c",
        "to": "0x872407261fd595363c108ce7f0e0272f24626189",
        "gas": "0x10484",
        "value": "0x0",
        "data": "0x2f2ff15dc4c453d647953c0fd35db5a34ee76e60fb4abc3a8fb891a25936b70b38f29253000000000000000000000000f152abda9e4ce8b134ef22dc3c6ace19c4895d82",
        "nonce": "0x10d",
        "accessList": []
      },
      "additionalContracts": [],
      "isFixedGasLimit": false
    },
    {
      "hash": null,
      "transactionType": "CALL",
      "contractName": null,
      "contractAddress": "0xE274dB6b891159547FbDC18b07412EE7F4B8d767",
      "function": "revokeRole(bytes32,address)",
      "arguments": [
        "0xc4c453d647953c0fd35db5a34ee76e60fb4abc3a8fb891a25936b70b38f29253",
        "0x660ad4B5A74130a4796B4d54BC6750Ae93C86e6c"
      ],
      "transaction": {
        "type": "0x02",
        "from": "0x660ad4b5a74130a4796b4d54bc6750ae93c86e6c",
        "to": "0xe274db6b891159547fbdc18b07412ee7f4b8d767",
        "gas": "0x968f",
        "value": "0x0",
        "data": "0xd547741fc4c453d647953c0fd35db5a34ee76e60fb4abc3a8fb891a25936b70b38f29253000000000000000000000000660ad4b5a74130a4796b4d54bc6750ae93c86e6c",
        "nonce": "0x10e",
        "accessList": []
      },
      "additionalContracts": [],
      "isFixedGasLimit": false
    },
    {
      "hash": null,
      "transactionType": "CALL",
      "contractName": null,
      "contractAddress": "0xE274dB6b891159547FbDC18b07412EE7F4B8d767",
      "function": "grantRole(bytes32,address)",
      "arguments": [
        "0xc4c453d647953c0fd35db5a34ee76e60fb4abc3a8fb891a25936b70b38f29253",
        "0xf152Abda9E4ce8b134eF22Dc3C6aCe19C4895D82"
      ],
      "transaction": {
        "type": "0x02",
        "from": "0x660ad4b5a74130a4796b4d54bc6750ae93c86e6c",
        "to": "0xe274db6b891159547fbdc18b07412ee7f4b8d767",
        "gas": "0x10484",
        "value": "0x0",
        "data": "0x2f2ff15dc4c453d647953c0fd35db5a34ee76e60fb4abc3a8fb891a25936b70b38f29253000000000000000000000000f152abda9e4ce8b134ef22dc3c6ace19c4895d82",
        "nonce": "0x10f",
        "accessList": []
      },
      "additionalContracts": [],
      "isFixedGasLimit": false
    },
    {
      "hash": null,
      "transactionType": "CALL",
      "contractName": null,
      "contractAddress": "0xD357F7Ec4826Bd1234CDA2277B623F6dE7dA56Dc",
      "function": "revokeRole(bytes32,address)",
      "arguments": [
        "0xc4c453d647953c0fd35db5a34ee76e60fb4abc3a8fb891a25936b70b38f29253",
        "0x660ad4B5A74130a4796B4d54BC6750Ae93C86e6c"
      ],
      "transaction": {
        "type": "0x02",
        "from": "0x660ad4b5a74130a4796b4d54bc6750ae93c86e6c",
        "to": "0xd357f7ec4826bd1234cda2277b623f6de7da56dc",
        "gas": "0x8e71",
        "value": "0x0",
        "data": "0xd547741fc4c453d647953c0fd35db5a34ee76e60fb4abc3a8fb891a25936b70b38f29253000000000000000000000000660ad4b5a74130a4796b4d54bc6750ae93c86e6c",
        "nonce": "0x110",
        "accessList": []
      },
      "additionalContracts": [],
      "isFixedGasLimit": false
    },
    {
      "hash": null,
      "transactionType": "CALL",
      "contractName": null,
      "contractAddress": "0xD357F7Ec4826Bd1234CDA2277B623F6dE7dA56Dc",
      "function": "grantRole(bytes32,address)",
      "arguments": [
        "0xc4c453d647953c0fd35db5a34ee76e60fb4abc3a8fb891a25936b70b38f29253",
        "0xf152Abda9E4ce8b134eF22Dc3C6aCe19C4895D82"
      ],
      "transaction": {
        "type": "0x02",
        "from": "0x660ad4b5a74130a4796b4d54bc6750ae93c86e6c",
        "to": "0xd357f7ec4826bd1234cda2277b623f6de7da56dc",
        "gas": "0x10466",
        "value": "0x0",
        "data": "0x2f2ff15dc4c453d647953c0fd35db5a34ee76e60fb4abc3a8fb891a25936b70b38f29253000000000000000000000000f152abda9e4ce8b134ef22dc3c6ace19c4895d82",
        "nonce": "0x111",
        "accessList": []
      },
      "additionalContracts": [],
      "isFixedGasLimit": false
    },
    {
      "hash": null,
      "transactionType": "CALL",
      "contractName": null,
      "contractAddress": "0xb787D2187be7198751E0EB2dDd5279710Cf39744",
      "function": "revokeRole(bytes32,address)",
      "arguments": [
        "0xc4c453d647953c0fd35db5a34ee76e60fb4abc3a8fb891a25936b70b38f29253",
        "0x660ad4B5A74130a4796B4d54BC6750Ae93C86e6c"
      ],
      "transaction": {
        "type": "0x02",
        "from": "0x660ad4b5a74130a4796b4d54bc6750ae93c86e6c",
        "to": "0xb787d2187be7198751e0eb2ddd5279710cf39744",
        "gas": "0x96b1",
        "value": "0x0",
        "data": "0xd547741fc4c453d647953c0fd35db5a34ee76e60fb4abc3a8fb891a25936b70b38f29253000000000000000000000000660ad4b5a74130a4796b4d54bc6750ae93c86e6c",
        "nonce": "0x112",
        "accessList": []
      },
      "additionalContracts": [],
      "isFixedGasLimit": false
    },
    {
      "hash": null,
      "transactionType": "CALL",
      "contractName": null,
      "contractAddress": "0xb787D2187be7198751E0EB2dDd5279710Cf39744",
      "function": "grantRole(bytes32,address)",
      "arguments": [
        "0xc4c453d647953c0fd35db5a34ee76e60fb4abc3a8fb891a25936b70b38f29253",
        "0xf152Abda9E4ce8b134eF22Dc3C6aCe19C4895D82"
      ],
      "transaction": {
        "type": "0x02",
        "from": "0x660ad4b5a74130a4796b4d54bc6750ae93c86e6c",
        "to": "0xb787d2187be7198751e0eb2ddd5279710cf39744",
        "gas": "0x10484",
        "value": "0x0",
        "data": "0x2f2ff15dc4c453d647953c0fd35db5a34ee76e60fb4abc3a8fb891a25936b70b38f29253000000000000000000000000f152abda9e4ce8b134ef22dc3c6ace19c4895d82",
        "nonce": "0x113",
        "accessList": []
      },
      "additionalContracts": [],
      "isFixedGasLimit": false
    },
    {
      "hash": null,
      "transactionType": "CALL",
      "contractName": null,
      "contractAddress": "0xC331BEeC6e36c8Df4FDD7e432de95863E7f80d67",
      "function": "revokeRole(bytes32,address)",
      "arguments": [
        "0xc4c453d647953c0fd35db5a34ee76e60fb4abc3a8fb891a25936b70b38f29253",
        "0x660ad4B5A74130a4796B4d54BC6750Ae93C86e6c"
      ],
      "transaction": {
        "type": "0x02",
        "from": "0x660ad4b5a74130a4796b4d54bc6750ae93c86e6c",
        "to": "0xc331beec6e36c8df4fdd7e432de95863e7f80d67",
        "gas": "0x968f",
        "value": "0x0",
        "data": "0xd547741fc4c453d647953c0fd35db5a34ee76e60fb4abc3a8fb891a25936b70b38f29253000000000000000000000000660ad4b5a74130a4796b4d54bc6750ae93c86e6c",
        "nonce": "0x114",
        "accessList": []
      },
      "additionalContracts": [],
      "isFixedGasLimit": false
    },
    {
      "hash": null,
      "transactionType": "CALL",
      "contractName": null,
      "contractAddress": "0xC331BEeC6e36c8Df4FDD7e432de95863E7f80d67",
      "function": "grantRole(bytes32,address)",
      "arguments": [
        "0xc4c453d647953c0fd35db5a34ee76e60fb4abc3a8fb891a25936b70b38f29253",
        "0xf152Abda9E4ce8b134eF22Dc3C6aCe19C4895D82"
      ],
      "transaction": {
        "type": "0x02",
        "from": "0x660ad4b5a74130a4796b4d54bc6750ae93c86e6c",
        "to": "0xc331beec6e36c8df4fdd7e432de95863e7f80d67",
        "gas": "0x10484",
        "value": "0x0",
        "data": "0x2f2ff15dc4c453d647953c0fd35db5a34ee76e60fb4abc3a8fb891a25936b70b38f29253000000000000000000000000f152abda9e4ce8b134ef22dc3c6ace19c4895d82",
        "nonce": "0x115",
        "accessList": []
      },
      "additionalContracts": [],
      "isFixedGasLimit": false
    },
    {
      "hash": null,
      "transactionType": "CALL",
      "contractName": null,
      "contractAddress": "0xeB66259d2eBC3ed1d3a98148f6298927d8A36397",
      "function": "revokeRole(bytes32,address)",
      "arguments": [
        "0xc4c453d647953c0fd35db5a34ee76e60fb4abc3a8fb891a25936b70b38f29253",
        "0x660ad4B5A74130a4796B4d54BC6750Ae93C86e6c"
      ],
      "transaction": {
        "type": "0x02",
        "from": "0x660ad4b5a74130a4796b4d54bc6750ae93c86e6c",
        "to": "0xeb66259d2ebc3ed1d3a98148f6298927d8a36397",
        "gas": "0x8e71",
        "value": "0x0",
        "data": "0xd547741fc4c453d647953c0fd35db5a34ee76e60fb4abc3a8fb891a25936b70b38f29253000000000000000000000000660ad4b5a74130a4796b4d54bc6750ae93c86e6c",
        "nonce": "0x116",
        "accessList": []
      },
      "additionalContracts": [],
      "isFixedGasLimit": false
    },
    {
      "hash": null,
      "transactionType": "CALL",
      "contractName": null,
      "contractAddress": "0xeB66259d2eBC3ed1d3a98148f6298927d8A36397",
      "function": "grantRole(bytes32,address)",
      "arguments": [
        "0xc4c453d647953c0fd35db5a34ee76e60fb4abc3a8fb891a25936b70b38f29253",
        "0xf152Abda9E4ce8b134eF22Dc3C6aCe19C4895D82"
      ],
      "transaction": {
        "type": "0x02",
        "from": "0x660ad4b5a74130a4796b4d54bc6750ae93c86e6c",
        "to": "0xeb66259d2ebc3ed1d3a98148f6298927d8a36397",
        "gas": "0x10466",
        "value": "0x0",
        "data": "0x2f2ff15dc4c453d647953c0fd35db5a34ee76e60fb4abc3a8fb891a25936b70b38f29253000000000000000000000000f152abda9e4ce8b134ef22dc3c6ace19c4895d82",
        "nonce": "0x117",
        "accessList": []
      },
      "additionalContracts": [],
      "isFixedGasLimit": false
    },
    {
      "hash": null,
      "transactionType": "CALL",
      "contractName": null,
      "contractAddress": "0xBCbf273F2a16137b7AD376c8c5ea81F69F7b0F6C",
      "function": "revokeRole(bytes32,address)",
      "arguments": [
        "0xc4c453d647953c0fd35db5a34ee76e60fb4abc3a8fb891a25936b70b38f29253",
        "0x660ad4B5A74130a4796B4d54BC6750Ae93C86e6c"
      ],
      "transaction": {
        "type": "0x02",
        "from": "0x660ad4b5a74130a4796b4d54bc6750ae93c86e6c",
        "to": "0xbcbf273f2a16137b7ad376c8c5ea81f69f7b0f6c",
        "gas": "0x96b1",
        "value": "0x0",
        "data": "0xd547741fc4c453d647953c0fd35db5a34ee76e60fb4abc3a8fb891a25936b70b38f29253000000000000000000000000660ad4b5a74130a4796b4d54bc6750ae93c86e6c",
        "nonce": "0x118",
        "accessList": []
      },
      "additionalContracts": [],
      "isFixedGasLimit": false
    },
    {
      "hash": null,
      "transactionType": "CALL",
      "contractName": null,
      "contractAddress": "0xBCbf273F2a16137b7AD376c8c5ea81F69F7b0F6C",
      "function": "grantRole(bytes32,address)",
      "arguments": [
        "0xc4c453d647953c0fd35db5a34ee76e60fb4abc3a8fb891a25936b70b38f29253",
        "0xf152Abda9E4ce8b134eF22Dc3C6aCe19C4895D82"
      ],
      "transaction": {
        "type": "0x02",
        "from": "0x660ad4b5a74130a4796b4d54bc6750ae93c86e6c",
        "to": "0xbcbf273f2a16137b7ad376c8c5ea81f69f7b0f6c",
        "gas": "0x10484",
        "value": "0x0",
        "data": "0x2f2ff15dc4c453d647953c0fd35db5a34ee76e60fb4abc3a8fb891a25936b70b38f29253000000000000000000000000f152abda9e4ce8b134ef22dc3c6ace19c4895d82",
        "nonce": "0x119",
        "accessList": []
      },
      "additionalContracts": [],
      "isFixedGasLimit": false
    },
    {
      "hash": null,
      "transactionType": "CALL",
      "contractName": null,
      "contractAddress": "0xE2c2291B80BFC8Bd0e4fc8Af196Ae5fc9136aeE0",
      "function": "revokeRole(bytes32,address)",
      "arguments": [
        "0xc4c453d647953c0fd35db5a34ee76e60fb4abc3a8fb891a25936b70b38f29253",
        "0x660ad4B5A74130a4796B4d54BC6750Ae93C86e6c"
      ],
      "transaction": {
        "type": "0x02",
        "from": "0x660ad4b5a74130a4796b4d54bc6750ae93c86e6c",
        "to": "0xe2c2291b80bfc8bd0e4fc8af196ae5fc9136aee0",
        "gas": "0x968f",
        "value": "0x0",
        "data": "0xd547741fc4c453d647953c0fd35db5a34ee76e60fb4abc3a8fb891a25936b70b38f29253000000000000000000000000660ad4b5a74130a4796b4d54bc6750ae93c86e6c",
        "nonce": "0x11a",
        "accessList": []
      },
      "additionalContracts": [],
      "isFixedGasLimit": false
    },
    {
      "hash": null,
      "transactionType": "CALL",
      "contractName": null,
      "contractAddress": "0xE2c2291B80BFC8Bd0e4fc8Af196Ae5fc9136aeE0",
      "function": "grantRole(bytes32,address)",
      "arguments": [
        "0xc4c453d647953c0fd35db5a34ee76e60fb4abc3a8fb891a25936b70b38f29253",
        "0xf152Abda9E4ce8b134eF22Dc3C6aCe19C4895D82"
      ],
      "transaction": {
        "type": "0x02",
        "from": "0x660ad4b5a74130a4796b4d54bc6750ae93c86e6c",
        "to": "0xe2c2291b80bfc8bd0e4fc8af196ae5fc9136aee0",
        "gas": "0x10484",
        "value": "0x0",
        "data": "0x2f2ff15dc4c453d647953c0fd35db5a34ee76e60fb4abc3a8fb891a25936b70b38f29253000000000000000000000000f152abda9e4ce8b134ef22dc3c6ace19c4895d82",
        "nonce": "0x11b",
        "accessList": []
      },
      "additionalContracts": [],
      "isFixedGasLimit": false
    },
    {
      "hash": null,
      "transactionType": "CALL",
      "contractName": null,
      "contractAddress": "0x95d60E34aB2E626407d98dF8C240e6174e5D37E5",
      "function": "revokeRole(bytes32,address)",
      "arguments": [
        "0xc4c453d647953c0fd35db5a34ee76e60fb4abc3a8fb891a25936b70b38f29253",
        "0x660ad4B5A74130a4796B4d54BC6750Ae93C86e6c"
      ],
      "transaction": {
        "type": "0x02",
        "from": "0x660ad4b5a74130a4796b4d54bc6750ae93c86e6c",
        "to": "0x95d60e34ab2e626407d98df8c240e6174e5d37e5",
        "gas": "0x8e71",
        "value": "0x0",
        "data": "0xd547741fc4c453d647953c0fd35db5a34ee76e60fb4abc3a8fb891a25936b70b38f29253000000000000000000000000660ad4b5a74130a4796b4d54bc6750ae93c86e6c",
        "nonce": "0x11c",
        "accessList": []
      },
      "additionalContracts": [],
      "isFixedGasLimit": false
    },
    {
      "hash": null,
      "transactionType": "CALL",
      "contractName": null,
      "contractAddress": "0x95d60E34aB2E626407d98dF8C240e6174e5D37E5",
      "function": "grantRole(bytes32,address)",
      "arguments": [
        "0xc4c453d647953c0fd35db5a34ee76e60fb4abc3a8fb891a25936b70b38f29253",
        "0xf152Abda9E4ce8b134eF22Dc3C6aCe19C4895D82"
      ],
      "transaction": {
        "type": "0x02",
        "from": "0x660ad4b5a74130a4796b4d54bc6750ae93c86e6c",
        "to": "0x95d60e34ab2e626407d98df8c240e6174e5d37e5",
        "gas": "0x10466",
        "value": "0x0",
        "data": "0x2f2ff15dc4c453d647953c0fd35db5a34ee76e60fb4abc3a8fb891a25936b70b38f29253000000000000000000000000f152abda9e4ce8b134ef22dc3c6ace19c4895d82",
        "nonce": "0x11d",
        "accessList": []
      },
      "additionalContracts": [],
      "isFixedGasLimit": false
    },
    {
      "hash": null,
      "transactionType": "CALL",
      "contractName": null,
      "contractAddress": "0xd00Bdb70BfC067Ab3dB5395932B45CD9a589a7fc",
      "function": "revokeRole(bytes32,address)",
      "arguments": [
        "0xc4c453d647953c0fd35db5a34ee76e60fb4abc3a8fb891a25936b70b38f29253",
        "0x660ad4B5A74130a4796B4d54BC6750Ae93C86e6c"
      ],
      "transaction": {
        "type": "0x02",
        "from": "0x660ad4b5a74130a4796b4d54bc6750ae93c86e6c",
        "to": "0xd00bdb70bfc067ab3db5395932b45cd9a589a7fc",
        "gas": "0x96b1",
        "value": "0x0",
        "data": "0xd547741fc4c453d647953c0fd35db5a34ee76e60fb4abc3a8fb891a25936b70b38f29253000000000000000000000000660ad4b5a74130a4796b4d54bc6750ae93c86e6c",
        "nonce": "0x11e",
        "accessList": []
      },
      "additionalContracts": [],
      "isFixedGasLimit": false
    },
    {
      "hash": null,
      "transactionType": "CALL",
      "contractName": null,
      "contractAddress": "0xd00Bdb70BfC067Ab3dB5395932B45CD9a589a7fc",
      "function": "grantRole(bytes32,address)",
      "arguments": [
        "0xc4c453d647953c0fd35db5a34ee76e60fb4abc3a8fb891a25936b70b38f29253",
        "0xf152Abda9E4ce8b134eF22Dc3C6aCe19C4895D82"
      ],
      "transaction": {
        "type": "0x02",
        "from": "0x660ad4b5a74130a4796b4d54bc6750ae93c86e6c",
        "to": "0xd00bdb70bfc067ab3db5395932b45cd9a589a7fc",
        "gas": "0x10484",
        "value": "0x0",
        "data": "0x2f2ff15dc4c453d647953c0fd35db5a34ee76e60fb4abc3a8fb891a25936b70b38f29253000000000000000000000000f152abda9e4ce8b134ef22dc3c6ace19c4895d82",
        "nonce": "0x11f",
        "accessList": []
      },
      "additionalContracts": [],
      "isFixedGasLimit": false
    },
    {
      "hash": null,
      "transactionType": "CALL",
      "contractName": null,
      "contractAddress": "0xdE9D8c2d465669c661672d7945D4d4f5407d22E2",
      "function": "revokeRole(bytes32,address)",
      "arguments": [
        "0xc4c453d647953c0fd35db5a34ee76e60fb4abc3a8fb891a25936b70b38f29253",
        "0x660ad4B5A74130a4796B4d54BC6750Ae93C86e6c"
      ],
      "transaction": {
        "type": "0x02",
        "from": "0x660ad4b5a74130a4796b4d54bc6750ae93c86e6c",
        "to": "0xde9d8c2d465669c661672d7945d4d4f5407d22e2",
        "gas": "0x968f",
        "value": "0x0",
        "data": "0xd547741fc4c453d647953c0fd35db5a34ee76e60fb4abc3a8fb891a25936b70b38f29253000000000000000000000000660ad4b5a74130a4796b4d54bc6750ae93c86e6c",
        "nonce": "0x120",
        "accessList": []
      },
      "additionalContracts": [],
      "isFixedGasLimit": false
    },
    {
      "hash": null,
      "transactionType": "CALL",
      "contractName": null,
      "contractAddress": "0xdE9D8c2d465669c661672d7945D4d4f5407d22E2",
      "function": "grantRole(bytes32,address)",
      "arguments": [
        "0xc4c453d647953c0fd35db5a34ee76e60fb4abc3a8fb891a25936b70b38f29253",
        "0xf152Abda9E4ce8b134eF22Dc3C6aCe19C4895D82"
      ],
      "transaction": {
        "type": "0x02",
        "from": "0x660ad4b5a74130a4796b4d54bc6750ae93c86e6c",
        "to": "0xde9d8c2d465669c661672d7945d4d4f5407d22e2",
        "gas": "0x10484",
        "value": "0x0",
        "data": "0x2f2ff15dc4c453d647953c0fd35db5a34ee76e60fb4abc3a8fb891a25936b70b38f29253000000000000000000000000f152abda9e4ce8b134ef22dc3c6ace19c4895d82",
        "nonce": "0x121",
        "accessList": []
      },
      "additionalContracts": [],
      "isFixedGasLimit": false
    },
    {
      "hash": null,
      "transactionType": "CALL",
      "contractName": null,
      "contractAddress": "0x12Cf431BdF7F143338cC09A0629EDcCEDCBCEcB5",
      "function": "nominateOwner(address)",
      "arguments": [
        "0xf152Abda9E4ce8b134eF22Dc3C6aCe19C4895D82"
      ],
      "transaction": {
        "type": "0x02",
        "from": "0x660ad4b5a74130a4796b4d54bc6750ae93c86e6c",
        "to": "0x12cf431bdf7f143338cc09a0629edccedcbcecb5",
        "gas": "0x10d9b",
        "value": "0x0",
        "data": "0x5b94db27000000000000000000000000f152abda9e4ce8b134ef22dc3c6ace19c4895d82",
        "nonce": "0x122",
        "accessList": []
      },
      "additionalContracts": [],
      "isFixedGasLimit": false
    },
    {
      "hash": null,
      "transactionType": "CALL",
      "contractName": null,
      "contractAddress": "0x1991Fb3e5EC42A5eee9acC70fB30b0DBEF34B667",
      "function": "nominateOwner(address)",
      "arguments": [
        "0xf152Abda9E4ce8b134eF22Dc3C6aCe19C4895D82"
      ],
      "transaction": {
        "type": "0x02",
        "from": "0x660ad4b5a74130a4796b4d54bc6750ae93c86e6c",
        "to": "0x1991fb3e5ec42a5eee9acc70fb30b0dbef34b667",
        "gas": "0xfebe",
        "value": "0x0",
        "data": "0x5b94db27000000000000000000000000f152abda9e4ce8b134ef22dc3c6ace19c4895d82",
        "nonce": "0x123",
        "accessList": []
      },
      "additionalContracts": [],
      "isFixedGasLimit": false
    },
    {
      "hash": null,
      "transactionType": "CALL",
      "contractName": null,
      "contractAddress": "0xAc00056920EfF02831CAf0baF116ADf6B42D9ad1",
      "function": "nominateOwner(address)",
      "arguments": [
        "0xf152Abda9E4ce8b134eF22Dc3C6aCe19C4895D82"
      ],
      "transaction": {
        "type": "0x02",
        "from": "0x660ad4b5a74130a4796b4d54bc6750ae93c86e6c",
        "to": "0xac00056920eff02831caf0baf116adf6b42d9ad1",
        "gas": "0x10d7b",
        "value": "0x0",
        "data": "0x5b94db27000000000000000000000000f152abda9e4ce8b134ef22dc3c6ace19c4895d82",
        "nonce": "0x124",
        "accessList": []
      },
      "additionalContracts": [],
      "isFixedGasLimit": false
    },
    {
      "hash": null,
      "transactionType": "CALL",
      "contractName": null,
      "contractAddress": "0xc5d01939Af7Ce9Ffc505F0bb36eFeDde7920f2dc",
      "function": "nominateOwner(address)",
      "arguments": [
        "0xf152Abda9E4ce8b134eF22Dc3C6aCe19C4895D82"
      ],
      "transaction": {
        "type": "0x02",
        "from": "0x660ad4b5a74130a4796b4d54bc6750ae93c86e6c",
        "to": "0xc5d01939af7ce9ffc505f0bb36efedde7920f2dc",
        "gas": "0x10d9b",
        "value": "0x0",
        "data": "0x5b94db27000000000000000000000000f152abda9e4ce8b134ef22dc3c6ace19c4895d82",
        "nonce": "0x125",
        "accessList": []
      },
      "additionalContracts": [],
      "isFixedGasLimit": false
    },
    {
      "hash": null,
      "transactionType": "CALL",
      "contractName": null,
      "contractAddress": "0x05369D989D9dD9cD6537E667865Ee8157d5EE91B",
      "function": "nominateOwner(address)",
      "arguments": [
        "0xf152Abda9E4ce8b134eF22Dc3C6aCe19C4895D82"
      ],
      "transaction": {
        "type": "0x02",
        "from": "0x660ad4b5a74130a4796b4d54bc6750ae93c86e6c",
        "to": "0x05369d989d9dd9cd6537e667865ee8157d5ee91b",
        "gas": "0xfebe",
        "value": "0x0",
        "data": "0x5b94db27000000000000000000000000f152abda9e4ce8b134ef22dc3c6ace19c4895d82",
        "nonce": "0x126",
        "accessList": []
      },
      "additionalContracts": [],
      "isFixedGasLimit": false
    },
    {
      "hash": null,
      "transactionType": "CALL",
      "contractName": null,
      "contractAddress": "0x83C6d6597891Ad48cF5e0BA901De55120C37C6bE",
      "function": "nominateOwner(address)",
      "arguments": [
        "0xf152Abda9E4ce8b134eF22Dc3C6aCe19C4895D82"
      ],
      "transaction": {
        "type": "0x02",
        "from": "0x660ad4b5a74130a4796b4d54bc6750ae93c86e6c",
        "to": "0x83c6d6597891ad48cf5e0ba901de55120c37c6be",
        "gas": "0x10d7b",
        "value": "0x0",
        "data": "0x5b94db27000000000000000000000000f152abda9e4ce8b134ef22dc3c6ace19c4895d82",
        "nonce": "0x127",
        "accessList": []
      },
      "additionalContracts": [],
      "isFixedGasLimit": false
    },
    {
      "hash": null,
      "transactionType": "CALL",
      "contractName": null,
      "contractAddress": "0x00A0c9d82B95a17Cdf2D46703F2DcA13EB0E8A94",
      "function": "nominateOwner(address)",
      "arguments": [
        "0xf152Abda9E4ce8b134eF22Dc3C6aCe19C4895D82"
      ],
      "transaction": {
        "type": "0x02",
        "from": "0x660ad4b5a74130a4796b4d54bc6750ae93c86e6c",
        "to": "0x00a0c9d82b95a17cdf2d46703f2dca13eb0e8a94",
        "gas": "0x10d9b",
        "value": "0x0",
        "data": "0x5b94db27000000000000000000000000f152abda9e4ce8b134ef22dc3c6ace19c4895d82",
        "nonce": "0x128",
        "accessList": []
      },
      "additionalContracts": [],
      "isFixedGasLimit": false
    },
    {
      "hash": null,
      "transactionType": "CALL",
      "contractName": null,
      "contractAddress": "0x47469683AEAD0B5EF2c599ff34d55C3D998393Bf",
      "function": "nominateOwner(address)",
      "arguments": [
        "0xf152Abda9E4ce8b134eF22Dc3C6aCe19C4895D82"
      ],
      "transaction": {
        "type": "0x02",
        "from": "0x660ad4b5a74130a4796b4d54bc6750ae93c86e6c",
        "to": "0x47469683aead0b5ef2c599ff34d55c3d998393bf",
        "gas": "0xfebe",
        "value": "0x0",
        "data": "0x5b94db27000000000000000000000000f152abda9e4ce8b134ef22dc3c6ace19c4895d82",
        "nonce": "0x129",
        "accessList": []
      },
      "additionalContracts": [],
      "isFixedGasLimit": false
    },
    {
      "hash": null,
      "transactionType": "CALL",
      "contractName": null,
      "contractAddress": "0xe987a57DA7Ab112B1bDc7AA704E6EA943760d252",
      "function": "nominateOwner(address)",
      "arguments": [
        "0xf152Abda9E4ce8b134eF22Dc3C6aCe19C4895D82"
      ],
      "transaction": {
        "type": "0x02",
        "from": "0x660ad4b5a74130a4796b4d54bc6750ae93c86e6c",
        "to": "0xe987a57da7ab112b1bdc7aa704e6ea943760d252",
        "gas": "0x10d7b",
        "value": "0x0",
        "data": "0x5b94db27000000000000000000000000f152abda9e4ce8b134ef22dc3c6ace19c4895d82",
        "nonce": "0x12a",
        "accessList": []
      },
      "additionalContracts": [],
      "isFixedGasLimit": false
    },
    {
      "hash": null,
      "transactionType": "CALL",
      "contractName": null,
      "contractAddress": "0x755cD5d147036E11c76F1EeffDd94794fC265f0d",
      "function": "nominateOwner(address)",
      "arguments": [
        "0xf152Abda9E4ce8b134eF22Dc3C6aCe19C4895D82"
      ],
      "transaction": {
        "type": "0x02",
        "from": "0x660ad4b5a74130a4796b4d54bc6750ae93c86e6c",
        "to": "0x755cd5d147036e11c76f1eeffdd94794fc265f0d",
        "gas": "0x10d9b",
        "value": "0x0",
        "data": "0x5b94db27000000000000000000000000f152abda9e4ce8b134ef22dc3c6ace19c4895d82",
        "nonce": "0x12b",
        "accessList": []
      },
      "additionalContracts": [],
      "isFixedGasLimit": false
    },
    {
      "hash": null,
      "transactionType": "CALL",
      "contractName": null,
      "contractAddress": "0xD97E3cD27fb8af306b2CD42A61B7cbaAF044D08D",
      "function": "nominateOwner(address)",
      "arguments": [
        "0xf152Abda9E4ce8b134eF22Dc3C6aCe19C4895D82"
      ],
      "transaction": {
        "type": "0x02",
        "from": "0x660ad4b5a74130a4796b4d54bc6750ae93c86e6c",
        "to": "0xd97e3cd27fb8af306b2cd42a61b7cbaaf044d08d",
        "gas": "0xfebe",
        "value": "0x0",
        "data": "0x5b94db27000000000000000000000000f152abda9e4ce8b134ef22dc3c6ace19c4895d82",
        "nonce": "0x12c",
        "accessList": []
      },
      "additionalContracts": [],
      "isFixedGasLimit": false
    },
    {
      "hash": null,
      "transactionType": "CALL",
      "contractName": null,
      "contractAddress": "0x935f1C29Db1155c3E0f39F644DF78DDDBD4757Ff",
      "function": "nominateOwner(address)",
      "arguments": [
        "0xf152Abda9E4ce8b134eF22Dc3C6aCe19C4895D82"
      ],
      "transaction": {
        "type": "0x02",
        "from": "0x660ad4b5a74130a4796b4d54bc6750ae93c86e6c",
        "to": "0x935f1c29db1155c3e0f39f644df78dddbd4757ff",
        "gas": "0x10d7b",
        "value": "0x0",
        "data": "0x5b94db27000000000000000000000000f152abda9e4ce8b134ef22dc3c6ace19c4895d82",
        "nonce": "0x12d",
        "accessList": []
      },
      "additionalContracts": [],
      "isFixedGasLimit": false
    },
    {
      "hash": null,
      "transactionType": "CALL",
      "contractName": null,
      "contractAddress": "0x351d8894fB8bfa1b0eFF77bFD9Aab18eA2da8fDd",
      "function": "nominateOwner(address)",
      "arguments": [
        "0xf152Abda9E4ce8b134eF22Dc3C6aCe19C4895D82"
      ],
      "transaction": {
        "type": "0x02",
        "from": "0x660ad4b5a74130a4796b4d54bc6750ae93c86e6c",
        "to": "0x351d8894fb8bfa1b0eff77bfd9aab18ea2da8fdd",
        "gas": "0x10d9b",
        "value": "0x0",
        "data": "0x5b94db27000000000000000000000000f152abda9e4ce8b134ef22dc3c6ace19c4895d82",
        "nonce": "0x12e",
        "accessList": []
      },
      "additionalContracts": [],
      "isFixedGasLimit": false
    },
    {
      "hash": null,
      "transactionType": "CALL",
      "contractName": null,
      "contractAddress": "0x70ae312d3f1c9116BF89db833DaDc060D4AD820F",
      "function": "nominateOwner(address)",
      "arguments": [
        "0xf152Abda9E4ce8b134eF22Dc3C6aCe19C4895D82"
      ],
      "transaction": {
        "type": "0x02",
        "from": "0x660ad4b5a74130a4796b4d54bc6750ae93c86e6c",
        "to": "0x70ae312d3f1c9116bf89db833dadc060d4ad820f",
        "gas": "0xfebe",
        "value": "0x0",
        "data": "0x5b94db27000000000000000000000000f152abda9e4ce8b134ef22dc3c6ace19c4895d82",
        "nonce": "0x12f",
        "accessList": []
      },
      "additionalContracts": [],
      "isFixedGasLimit": false
    },
    {
      "hash": null,
      "transactionType": "CALL",
      "contractName": null,
      "contractAddress": "0x266abd77Da7F877cdf93c0dd5782cC61Fa29ac96",
      "function": "nominateOwner(address)",
      "arguments": [
        "0xf152Abda9E4ce8b134eF22Dc3C6aCe19C4895D82"
      ],
      "transaction": {
        "type": "0x02",
        "from": "0x660ad4b5a74130a4796b4d54bc6750ae93c86e6c",
        "to": "0x266abd77da7f877cdf93c0dd5782cc61fa29ac96",
        "gas": "0x10d7b",
        "value": "0x0",
        "data": "0x5b94db27000000000000000000000000f152abda9e4ce8b134ef22dc3c6ace19c4895d82",
        "nonce": "0x130",
        "accessList": []
      },
      "additionalContracts": [],
      "isFixedGasLimit": false
    },
    {
      "hash": null,
      "transactionType": "CALL",
      "contractName": null,
      "contractAddress": "0xdf34E61B6e7B9e348713d528fEB019d504d38c1e",
      "function": "nominateOwner(address)",
      "arguments": [
        "0xf152Abda9E4ce8b134eF22Dc3C6aCe19C4895D82"
      ],
      "transaction": {
        "type": "0x02",
        "from": "0x660ad4b5a74130a4796b4d54bc6750ae93c86e6c",
        "to": "0xdf34e61b6e7b9e348713d528feb019d504d38c1e",
        "gas": "0x10d9b",
        "value": "0x0",
        "data": "0x5b94db27000000000000000000000000f152abda9e4ce8b134ef22dc3c6ace19c4895d82",
        "nonce": "0x131",
        "accessList": []
      },
      "additionalContracts": [],
      "isFixedGasLimit": false
    },
    {
      "hash": null,
      "transactionType": "CALL",
      "contractName": null,
      "contractAddress": "0x9d46297E4d0fb4D911bDE9746dBb7077d897a908",
      "function": "nominateOwner(address)",
      "arguments": [
        "0xf152Abda9E4ce8b134eF22Dc3C6aCe19C4895D82"
      ],
      "transaction": {
        "type": "0x02",
        "from": "0x660ad4b5a74130a4796b4d54bc6750ae93c86e6c",
        "to": "0x9d46297e4d0fb4d911bde9746dbb7077d897a908",
        "gas": "0xfebe",
        "value": "0x0",
        "data": "0x5b94db27000000000000000000000000f152abda9e4ce8b134ef22dc3c6ace19c4895d82",
        "nonce": "0x132",
        "accessList": []
      },
      "additionalContracts": [],
      "isFixedGasLimit": false
    },
    {
      "hash": null,
      "transactionType": "CALL",
      "contractName": null,
      "contractAddress": "0x73E0d4953c356a5Ca3A3D172739128776B2920b5",
      "function": "nominateOwner(address)",
      "arguments": [
        "0xf152Abda9E4ce8b134eF22Dc3C6aCe19C4895D82"
      ],
      "transaction": {
        "type": "0x02",
        "from": "0x660ad4b5a74130a4796b4d54bc6750ae93c86e6c",
        "to": "0x73e0d4953c356a5ca3a3d172739128776b2920b5",
        "gas": "0x10d7b",
        "value": "0x0",
        "data": "0x5b94db27000000000000000000000000f152abda9e4ce8b134ef22dc3c6ace19c4895d82",
        "nonce": "0x133",
        "accessList": []
      },
      "additionalContracts": [],
      "isFixedGasLimit": false
    },
    {
      "hash": null,
      "transactionType": "CALL",
      "contractName": null,
      "contractAddress": "0xdb161cdc9c11892922F7121a409b196f3b00e640",
      "function": "nominateOwner(address)",
      "arguments": [
        "0xf152Abda9E4ce8b134eF22Dc3C6aCe19C4895D82"
      ],
      "transaction": {
        "type": "0x02",
        "from": "0x660ad4b5a74130a4796b4d54bc6750ae93c86e6c",
        "to": "0xdb161cdc9c11892922f7121a409b196f3b00e640",
        "gas": "0x10d9b",
        "value": "0x0",
        "data": "0x5b94db27000000000000000000000000f152abda9e4ce8b134ef22dc3c6ace19c4895d82",
        "nonce": "0x134",
        "accessList": []
      },
      "additionalContracts": [],
      "isFixedGasLimit": false
    },
    {
      "hash": null,
      "transactionType": "CALL",
      "contractName": null,
      "contractAddress": "0x7277c48c2b8a303feDa28b45C693651c3dC44160",
      "function": "nominateOwner(address)",
      "arguments": [
        "0xf152Abda9E4ce8b134eF22Dc3C6aCe19C4895D82"
      ],
      "transaction": {
        "type": "0x02",
        "from": "0x660ad4b5a74130a4796b4d54bc6750ae93c86e6c",
        "to": "0x7277c48c2b8a303feda28b45c693651c3dc44160",
        "gas": "0xfebe",
        "value": "0x0",
        "data": "0x5b94db27000000000000000000000000f152abda9e4ce8b134ef22dc3c6ace19c4895d82",
        "nonce": "0x135",
        "accessList": []
      },
      "additionalContracts": [],
      "isFixedGasLimit": false
    },
    {
      "hash": null,
      "transactionType": "CALL",
      "contractName": null,
      "contractAddress": "0x642c4c33301EF5837ADa6E74F15Aa939f3951Fff",
      "function": "nominateOwner(address)",
      "arguments": [
        "0xf152Abda9E4ce8b134eF22Dc3C6aCe19C4895D82"
      ],
      "transaction": {
        "type": "0x02",
        "from": "0x660ad4b5a74130a4796b4d54bc6750ae93c86e6c",
        "to": "0x642c4c33301ef5837ada6e74f15aa939f3951fff",
        "gas": "0x10d7b",
        "value": "0x0",
        "data": "0x5b94db27000000000000000000000000f152abda9e4ce8b134ef22dc3c6ace19c4895d82",
        "nonce": "0x136",
        "accessList": []
      },
      "additionalContracts": [],
      "isFixedGasLimit": false
    },
    {
      "hash": null,
      "transactionType": "CALL",
      "contractName": null,
      "contractAddress": "0xc7a542f73049C11f9719Be6Ff701fCA882D60020",
      "function": "nominateOwner(address)",
      "arguments": [
        "0xf152Abda9E4ce8b134eF22Dc3C6aCe19C4895D82"
      ],
      "transaction": {
        "type": "0x02",
        "from": "0x660ad4b5a74130a4796b4d54bc6750ae93c86e6c",
        "to": "0xc7a542f73049c11f9719be6ff701fca882d60020",
        "gas": "0x10d9b",
        "value": "0x0",
        "data": "0x5b94db27000000000000000000000000f152abda9e4ce8b134ef22dc3c6ace19c4895d82",
        "nonce": "0x137",
        "accessList": []
      },
      "additionalContracts": [],
      "isFixedGasLimit": false
    },
    {
      "hash": null,
      "transactionType": "CALL",
      "contractName": null,
      "contractAddress": "0xCFfEa712C4B63d2498747943eB3467D12db6b476",
      "function": "nominateOwner(address)",
      "arguments": [
        "0xf152Abda9E4ce8b134eF22Dc3C6aCe19C4895D82"
      ],
      "transaction": {
        "type": "0x02",
        "from": "0x660ad4b5a74130a4796b4d54bc6750ae93c86e6c",
        "to": "0xcffea712c4b63d2498747943eb3467d12db6b476",
        "gas": "0xfebe",
        "value": "0x0",
        "data": "0x5b94db27000000000000000000000000f152abda9e4ce8b134ef22dc3c6ace19c4895d82",
        "nonce": "0x138",
        "accessList": []
      },
      "additionalContracts": [],
      "isFixedGasLimit": false
    },
    {
      "hash": null,
      "transactionType": "CALL",
      "contractName": null,
      "contractAddress": "0x170fFDe318B514B029E1B1eC4F096C7e1bDeaeA8",
      "function": "nominateOwner(address)",
      "arguments": [
        "0xf152Abda9E4ce8b134eF22Dc3C6aCe19C4895D82"
      ],
      "transaction": {
        "type": "0x02",
        "from": "0x660ad4b5a74130a4796b4d54bc6750ae93c86e6c",
        "to": "0x170ffde318b514b029e1b1ec4f096c7e1bdeaea8",
        "gas": "0x10d7b",
        "value": "0x0",
        "data": "0x5b94db27000000000000000000000000f152abda9e4ce8b134ef22dc3c6ace19c4895d82",
        "nonce": "0x139",
        "accessList": []
      },
      "additionalContracts": [],
      "isFixedGasLimit": false
    },
    {
      "hash": null,
      "transactionType": "CALL",
      "contractName": null,
      "contractAddress": "0x5B8Ae1C9c5970e2637Cf3Af431acAAebEf7aFb85",
      "function": "nominateOwner(address)",
      "arguments": [
        "0xf152Abda9E4ce8b134eF22Dc3C6aCe19C4895D82"
      ],
      "transaction": {
        "type": "0x02",
        "from": "0x660ad4b5a74130a4796b4d54bc6750ae93c86e6c",
        "to": "0x5b8ae1c9c5970e2637cf3af431acaaebef7afb85",
        "gas": "0x10d9b",
        "value": "0x0",
        "data": "0x5b94db27000000000000000000000000f152abda9e4ce8b134ef22dc3c6ace19c4895d82",
        "nonce": "0x13a",
        "accessList": []
      },
      "additionalContracts": [],
      "isFixedGasLimit": false
    },
    {
      "hash": null,
      "transactionType": "CALL",
      "contractName": null,
      "contractAddress": "0x6d2b0A4588a7F7d88298B0089cA396506A1D42d8",
      "function": "nominateOwner(address)",
      "arguments": [
        "0xf152Abda9E4ce8b134eF22Dc3C6aCe19C4895D82"
      ],
      "transaction": {
        "type": "0x02",
        "from": "0x660ad4b5a74130a4796b4d54bc6750ae93c86e6c",
        "to": "0x6d2b0a4588a7f7d88298b0089ca396506a1d42d8",
        "gas": "0xfebe",
        "value": "0x0",
        "data": "0x5b94db27000000000000000000000000f152abda9e4ce8b134ef22dc3c6ace19c4895d82",
        "nonce": "0x13b",
        "accessList": []
      },
      "additionalContracts": [],
      "isFixedGasLimit": false
    },
    {
      "hash": null,
      "transactionType": "CALL",
      "contractName": null,
      "contractAddress": "0xF5992B6A0dEa32dCF6BE7bfAf762A4D94f139Ea7",
      "function": "nominateOwner(address)",
      "arguments": [
        "0xf152Abda9E4ce8b134eF22Dc3C6aCe19C4895D82"
      ],
      "transaction": {
        "type": "0x02",
        "from": "0x660ad4b5a74130a4796b4d54bc6750ae93c86e6c",
        "to": "0xf5992b6a0dea32dcf6be7bfaf762a4d94f139ea7",
        "gas": "0x10d7b",
        "value": "0x0",
        "data": "0x5b94db27000000000000000000000000f152abda9e4ce8b134ef22dc3c6ace19c4895d82",
        "nonce": "0x13c",
        "accessList": []
      },
      "additionalContracts": [],
      "isFixedGasLimit": false
    },
    {
      "hash": null,
      "transactionType": "CALL",
      "contractName": null,
      "contractAddress": "0x43b718Aa5e678b08615CA984cbe25f690B085b32",
      "function": "nominateOwner(address)",
      "arguments": [
        "0xf152Abda9E4ce8b134eF22Dc3C6aCe19C4895D82"
      ],
      "transaction": {
        "type": "0x02",
        "from": "0x660ad4b5a74130a4796b4d54bc6750ae93c86e6c",
        "to": "0x43b718aa5e678b08615ca984cbe25f690b085b32",
        "gas": "0x10d9b",
        "value": "0x0",
        "data": "0x5b94db27000000000000000000000000f152abda9e4ce8b134ef22dc3c6ace19c4895d82",
        "nonce": "0x13d",
        "accessList": []
      },
      "additionalContracts": [],
      "isFixedGasLimit": false
    },
    {
      "hash": null,
      "transactionType": "CALL",
      "contractName": null,
      "contractAddress": "0x872407261Fd595363c108cE7f0e0272f24626189",
      "function": "nominateOwner(address)",
      "arguments": [
        "0xf152Abda9E4ce8b134eF22Dc3C6aCe19C4895D82"
      ],
      "transaction": {
        "type": "0x02",
        "from": "0x660ad4b5a74130a4796b4d54bc6750ae93c86e6c",
        "to": "0x872407261fd595363c108ce7f0e0272f24626189",
        "gas": "0xfebe",
        "value": "0x0",
        "data": "0x5b94db27000000000000000000000000f152abda9e4ce8b134ef22dc3c6ace19c4895d82",
        "nonce": "0x13e",
        "accessList": []
      },
      "additionalContracts": [],
      "isFixedGasLimit": false
    },
    {
      "hash": null,
      "transactionType": "CALL",
      "contractName": null,
      "contractAddress": "0xE274dB6b891159547FbDC18b07412EE7F4B8d767",
      "function": "nominateOwner(address)",
      "arguments": [
        "0xf152Abda9E4ce8b134eF22Dc3C6aCe19C4895D82"
      ],
      "transaction": {
        "type": "0x02",
        "from": "0x660ad4b5a74130a4796b4d54bc6750ae93c86e6c",
        "to": "0xe274db6b891159547fbdc18b07412ee7f4b8d767",
        "gas": "0x10d7b",
        "value": "0x0",
        "data": "0x5b94db27000000000000000000000000f152abda9e4ce8b134ef22dc3c6ace19c4895d82",
        "nonce": "0x13f",
        "accessList": []
      },
      "additionalContracts": [],
      "isFixedGasLimit": false
    },
    {
      "hash": null,
      "transactionType": "CALL",
      "contractName": null,
      "contractAddress": "0xD357F7Ec4826Bd1234CDA2277B623F6dE7dA56Dc",
      "function": "nominateOwner(address)",
      "arguments": [
        "0xf152Abda9E4ce8b134eF22Dc3C6aCe19C4895D82"
      ],
      "transaction": {
        "type": "0x02",
        "from": "0x660ad4b5a74130a4796b4d54bc6750ae93c86e6c",
        "to": "0xd357f7ec4826bd1234cda2277b623f6de7da56dc",
        "gas": "0x10d9b",
        "value": "0x0",
        "data": "0x5b94db27000000000000000000000000f152abda9e4ce8b134ef22dc3c6ace19c4895d82",
        "nonce": "0x140",
        "accessList": []
      },
      "additionalContracts": [],
      "isFixedGasLimit": false
    },
    {
      "hash": null,
      "transactionType": "CALL",
      "contractName": null,
      "contractAddress": "0xb787D2187be7198751E0EB2dDd5279710Cf39744",
      "function": "nominateOwner(address)",
      "arguments": [
        "0xf152Abda9E4ce8b134eF22Dc3C6aCe19C4895D82"
      ],
      "transaction": {
        "type": "0x02",
        "from": "0x660ad4b5a74130a4796b4d54bc6750ae93c86e6c",
        "to": "0xb787d2187be7198751e0eb2ddd5279710cf39744",
        "gas": "0xfebe",
        "value": "0x0",
        "data": "0x5b94db27000000000000000000000000f152abda9e4ce8b134ef22dc3c6ace19c4895d82",
        "nonce": "0x141",
        "accessList": []
      },
      "additionalContracts": [],
      "isFixedGasLimit": false
    },
    {
      "hash": null,
      "transactionType": "CALL",
      "contractName": null,
      "contractAddress": "0xC331BEeC6e36c8Df4FDD7e432de95863E7f80d67",
      "function": "nominateOwner(address)",
      "arguments": [
        "0xf152Abda9E4ce8b134eF22Dc3C6aCe19C4895D82"
      ],
      "transaction": {
        "type": "0x02",
        "from": "0x660ad4b5a74130a4796b4d54bc6750ae93c86e6c",
        "to": "0xc331beec6e36c8df4fdd7e432de95863e7f80d67",
        "gas": "0x10d7b",
        "value": "0x0",
        "data": "0x5b94db27000000000000000000000000f152abda9e4ce8b134ef22dc3c6ace19c4895d82",
        "nonce": "0x142",
        "accessList": []
      },
      "additionalContracts": [],
      "isFixedGasLimit": false
    },
    {
      "hash": null,
      "transactionType": "CALL",
      "contractName": null,
      "contractAddress": "0xeB66259d2eBC3ed1d3a98148f6298927d8A36397",
      "function": "nominateOwner(address)",
      "arguments": [
        "0xf152Abda9E4ce8b134eF22Dc3C6aCe19C4895D82"
      ],
      "transaction": {
        "type": "0x02",
        "from": "0x660ad4b5a74130a4796b4d54bc6750ae93c86e6c",
        "to": "0xeb66259d2ebc3ed1d3a98148f6298927d8a36397",
        "gas": "0x10d9b",
        "value": "0x0",
        "data": "0x5b94db27000000000000000000000000f152abda9e4ce8b134ef22dc3c6ace19c4895d82",
        "nonce": "0x143",
        "accessList": []
      },
      "additionalContracts": [],
      "isFixedGasLimit": false
    },
    {
      "hash": null,
      "transactionType": "CALL",
      "contractName": null,
      "contractAddress": "0xBCbf273F2a16137b7AD376c8c5ea81F69F7b0F6C",
      "function": "nominateOwner(address)",
      "arguments": [
        "0xf152Abda9E4ce8b134eF22Dc3C6aCe19C4895D82"
      ],
      "transaction": {
        "type": "0x02",
        "from": "0x660ad4b5a74130a4796b4d54bc6750ae93c86e6c",
        "to": "0xbcbf273f2a16137b7ad376c8c5ea81f69f7b0f6c",
        "gas": "0xfebe",
        "value": "0x0",
        "data": "0x5b94db27000000000000000000000000f152abda9e4ce8b134ef22dc3c6ace19c4895d82",
        "nonce": "0x144",
        "accessList": []
      },
      "additionalContracts": [],
      "isFixedGasLimit": false
    },
    {
      "hash": null,
      "transactionType": "CALL",
      "contractName": null,
      "contractAddress": "0xE2c2291B80BFC8Bd0e4fc8Af196Ae5fc9136aeE0",
      "function": "nominateOwner(address)",
      "arguments": [
        "0xf152Abda9E4ce8b134eF22Dc3C6aCe19C4895D82"
      ],
      "transaction": {
        "type": "0x02",
        "from": "0x660ad4b5a74130a4796b4d54bc6750ae93c86e6c",
        "to": "0xe2c2291b80bfc8bd0e4fc8af196ae5fc9136aee0",
        "gas": "0x10d7b",
        "value": "0x0",
        "data": "0x5b94db27000000000000000000000000f152abda9e4ce8b134ef22dc3c6ace19c4895d82",
        "nonce": "0x145",
        "accessList": []
      },
      "additionalContracts": [],
      "isFixedGasLimit": false
    },
    {
      "hash": null,
      "transactionType": "CALL",
      "contractName": null,
      "contractAddress": "0x95d60E34aB2E626407d98dF8C240e6174e5D37E5",
      "function": "nominateOwner(address)",
      "arguments": [
        "0xf152Abda9E4ce8b134eF22Dc3C6aCe19C4895D82"
      ],
      "transaction": {
        "type": "0x02",
        "from": "0x660ad4b5a74130a4796b4d54bc6750ae93c86e6c",
        "to": "0x95d60e34ab2e626407d98df8c240e6174e5d37e5",
        "gas": "0x10d9b",
        "value": "0x0",
        "data": "0x5b94db27000000000000000000000000f152abda9e4ce8b134ef22dc3c6ace19c4895d82",
        "nonce": "0x146",
        "accessList": []
      },
      "additionalContracts": [],
      "isFixedGasLimit": false
    },
    {
      "hash": null,
      "transactionType": "CALL",
      "contractName": null,
      "contractAddress": "0xd00Bdb70BfC067Ab3dB5395932B45CD9a589a7fc",
      "function": "nominateOwner(address)",
      "arguments": [
        "0xf152Abda9E4ce8b134eF22Dc3C6aCe19C4895D82"
      ],
      "transaction": {
        "type": "0x02",
        "from": "0x660ad4b5a74130a4796b4d54bc6750ae93c86e6c",
        "to": "0xd00bdb70bfc067ab3db5395932b45cd9a589a7fc",
        "gas": "0xfebe",
        "value": "0x0",
        "data": "0x5b94db27000000000000000000000000f152abda9e4ce8b134ef22dc3c6ace19c4895d82",
        "nonce": "0x147",
        "accessList": []
      },
      "additionalContracts": [],
      "isFixedGasLimit": false
    },
    {
      "hash": null,
      "transactionType": "CALL",
      "contractName": null,
      "contractAddress": "0xdE9D8c2d465669c661672d7945D4d4f5407d22E2",
      "function": "nominateOwner(address)",
      "arguments": [
        "0xf152Abda9E4ce8b134eF22Dc3C6aCe19C4895D82"
      ],
      "transaction": {
        "type": "0x02",
        "from": "0x660ad4b5a74130a4796b4d54bc6750ae93c86e6c",
        "to": "0xde9d8c2d465669c661672d7945d4d4f5407d22e2",
        "gas": "0x10d7b",
        "value": "0x0",
        "data": "0x5b94db27000000000000000000000000f152abda9e4ce8b134ef22dc3c6ace19c4895d82",
        "nonce": "0x148",
        "accessList": []
      },
      "additionalContracts": [],
      "isFixedGasLimit": false
    }
  ],
  "receipts": [],
  "libraries": [],
  "pending": [
    "0x5e19fedf7db26f2844446494f76dd39785f2d67b12e43bb2dfd8c22a280a45d7",
    "0x07a7a7bba87fb353a438c7d815a8eb1ee3084721cba7dbb74539cbc3f6e78b54",
    "0x25afb11a52b486998de24cbbbaa471fc76c066cfaa52f5b0d6c9c07b759d3f63",
    "0x53d6612d26995b99696b457bc1228aa273495c5be07a1c105105823f6d7866d5",
    "0x4641723c1e7c7698f438befb3283238a4fe9a8a3bc7c218f002af6a4b7c785ad",
    "0x329c3ecd8050da5141c903dec4fdfc731abfeb7bb348c292acca929b6ff54fc6",
    "0x4da8d133dfa999f2a559e53b8741029e04692423aa98c7eed93cba9245fe8b2d",
    "0xdc65b22e7dbbe44b495fe368ac21a2b01c3d663f523854adfe77cd5b628890a3",
    "0x75cacf292f497fa6ea90ce6f6b2aaa470a889ee1b609922cb9b6f3a970e34799"
  ],
  "returns": {},
  "timestamp": 1716320557,
  "chain": 1,
  "commit": "01fe980"
}