{
  "transactions": [
    {
      "hash": "0x45465bd2e09f085fb921358fd70be25e80df7f57ba966ff013034581495f51ae",
      "transactionType": "CALL",
      "contractName": null,
      "contractAddress": "0x83C6d6597891Ad48cF5e0BA901De55120C37C6bE",
      "function": "revokeRole(bytes32,address)",
      "arguments": [
        "0xc4c453d647953c0fd35db5a34ee76e60fb4abc3a8fb891a25936b70b38f29253",
        "0x660ad4B5A74130a4796B4d54BC6750Ae93C86e6c"
      ],
      "transaction": {
        "type": "0x02",
        "from": "0x660ad4b5a74130a4796b4d54bc6750ae93c86e6c",
        "to": "0x83c6d6597891ad48cf5e0ba901de55120c37c6be",
        "gas": "0x968f",
        "value": "0x0",
        "data": "0xd547741fc4c453d647953c0fd35db5a34ee76e60fb4abc3a8fb891a25936b70b38f29253000000000000000000000000660ad4b5a74130a4796b4d54bc6750ae93c86e6c",
        "nonce": "0xde",
        "accessList": []
      },
      "additionalContracts": [],
      "isFixedGasLimit": false
    },
    {
      "hash": "0x3c0196960bb6ae8fb967906bd2104d392da9f5865d8bab4129d433c5d913d43b",
      "transactionType": "CALL",
      "contractName": null,
      "contractAddress": "0x83C6d6597891Ad48cF5e0BA901De55120C37C6bE",
      "function": "grantRole(bytes32,address)",
      "arguments": [
        "0xc4c453d647953c0fd35db5a34ee76e60fb4abc3a8fb891a25936b70b38f29253",
        "0xf152Abda9E4ce8b134eF22Dc3C6aCe19C4895D82"
      ],
      "transaction": {
        "type": "0x02",
        "from": "0x660ad4b5a74130a4796b4d54bc6750ae93c86e6c",
        "to": "0x83c6d6597891ad48cf5e0ba901de55120c37c6be",
        "gas": "0x10484",
        "value": "0x0",
        "data": "0x2f2ff15dc4c453d647953c0fd35db5a34ee76e60fb4abc3a8fb891a25936b70b38f29253000000000000000000000000f152abda9e4ce8b134ef22dc3c6ace19c4895d82",
        "nonce": "0xdf",
        "accessList": []
      },
      "additionalContracts": [],
      "isFixedGasLimit": false
    },
    {
      "hash": "0x345d4a93a5871037508b4ed2190519b682858e8006f57c52049fc66bc0681975",
      "transactionType": "CALL",
      "contractName": null,
      "contractAddress": "0x00A0c9d82B95a17Cdf2D46703F2DcA13EB0E8A94",
      "function": "revokeRole(bytes32,address)",
      "arguments": [
        "0xc4c453d647953c0fd35db5a34ee76e60fb4abc3a8fb891a25936b70b38f29253",
        "0x660ad4B5A74130a4796B4d54BC6750Ae93C86e6c"
      ],
      "transaction": {
        "type": "0x02",
        "from": "0x660ad4b5a74130a4796b4d54bc6750ae93c86e6c",
        "to": "0x00a0c9d82b95a17cdf2d46703f2dca13eb0e8a94",
        "gas": "0x8e71",
        "value": "0x0",
        "data": "0xd547741fc4c453d647953c0fd35db5a34ee76e60fb4abc3a8fb891a25936b70b38f29253000000000000000000000000660ad4b5a74130a4796b4d54bc6750ae93c86e6c",
        "nonce": "0xe0",
        "accessList": []
      },
      "additionalContracts": [],
      "isFixedGasLimit": false
    },
    {
      "hash": "0x6caa65ab60f201219035ae78dc01da0a7f8da964a010f5dfa1518ce574d7a742",
      "transactionType": "CALL",
      "contractName": null,
      "contractAddress": "0x00A0c9d82B95a17Cdf2D46703F2DcA13EB0E8A94",
      "function": "grantRole(bytes32,address)",
      "arguments": [
        "0xc4c453d647953c0fd35db5a34ee76e60fb4abc3a8fb891a25936b70b38f29253",
        "0xf152Abda9E4ce8b134eF22Dc3C6aCe19C4895D82"
      ],
      "transaction": {
        "type": "0x02",
        "from": "0x660ad4b5a74130a4796b4d54bc6750ae93c86e6c",
        "to": "0x00a0c9d82b95a17cdf2d46703f2dca13eb0e8a94",
        "gas": "0x10466",
        "value": "0x0",
        "data": "0x2f2ff15dc4c453d647953c0fd35db5a34ee76e60fb4abc3a8fb891a25936b70b38f29253000000000000000000000000f152abda9e4ce8b134ef22dc3c6ace19c4895d82",
        "nonce": "0xe1",
        "accessList": []
      },
      "additionalContracts": [],
      "isFixedGasLimit": false
    },
    {
      "hash": "0x5c1cda4613324f59bc6d5d3df96c56e77e0398f5914d08709c51890a3061b75f",
      "transactionType": "CALL",
      "contractName": null,
      "contractAddress": "0x47469683AEAD0B5EF2c599ff34d55C3D998393Bf",
      "function": "revokeRole(bytes32,address)",
      "arguments": [
        "0xc4c453d647953c0fd35db5a34ee76e60fb4abc3a8fb891a25936b70b38f29253",
        "0x660ad4B5A74130a4796B4d54BC6750Ae93C86e6c"
      ],
      "transaction": {
        "type": "0x02",
        "from": "0x660ad4b5a74130a4796b4d54bc6750ae93c86e6c",
        "to": "0x47469683aead0b5ef2c599ff34d55c3d998393bf",
        "gas": "0x96b1",
        "value": "0x0",
        "data": "0xd547741fc4c453d647953c0fd35db5a34ee76e60fb4abc3a8fb891a25936b70b38f29253000000000000000000000000660ad4b5a74130a4796b4d54bc6750ae93c86e6c",
        "nonce": "0xe2",
        "accessList": []
      },
      "additionalContracts": [],
      "isFixedGasLimit": false
    },
    {
      "hash": "0x6dededb6beeb6e8c72ebc24dda15008a4a65d119014dd6e44e9a86ed60634863",
      "transactionType": "CALL",
      "contractName": null,
      "contractAddress": "0x47469683AEAD0B5EF2c599ff34d55C3D998393Bf",
      "function": "grantRole(bytes32,address)",
      "arguments": [
        "0xc4c453d647953c0fd35db5a34ee76e60fb4abc3a8fb891a25936b70b38f29253",
        "0xf152Abda9E4ce8b134eF22Dc3C6aCe19C4895D82"
      ],
      "transaction": {
        "type": "0x02",
        "from": "0x660ad4b5a74130a4796b4d54bc6750ae93c86e6c",
        "to": "0x47469683aead0b5ef2c599ff34d55c3d998393bf",
        "gas": "0x10484",
        "value": "0x0",
        "data": "0x2f2ff15dc4c453d647953c0fd35db5a34ee76e60fb4abc3a8fb891a25936b70b38f29253000000000000000000000000f152abda9e4ce8b134ef22dc3c6ace19c4895d82",
        "nonce": "0xe3",
        "accessList": []
      },
      "additionalContracts": [],
      "isFixedGasLimit": false
    },
    {
      "hash": "0x7002813d135750f7f088949721bddf5414b437a20a2c6f7c3a9ca08a70b5735e",
      "transactionType": "CALL",
      "contractName": null,
      "contractAddress": "0xe987a57DA7Ab112B1bDc7AA704E6EA943760d252",
      "function": "revokeRole(bytes32,address)",
      "arguments": [
        "0xc4c453d647953c0fd35db5a34ee76e60fb4abc3a8fb891a25936b70b38f29253",
        "0x660ad4B5A74130a4796B4d54BC6750Ae93C86e6c"
      ],
      "transaction": {
        "type": "0x02",
        "from": "0x660ad4b5a74130a4796b4d54bc6750ae93c86e6c",
        "to": "0xe987a57da7ab112b1bdc7aa704e6ea943760d252",
        "gas": "0x968f",
        "value": "0x0",
        "data": "0xd547741fc4c453d647953c0fd35db5a34ee76e60fb4abc3a8fb891a25936b70b38f29253000000000000000000000000660ad4b5a74130a4796b4d54bc6750ae93c86e6c",
        "nonce": "0xe4",
        "accessList": []
      },
      "additionalContracts": [],
      "isFixedGasLimit": false
    },
    {
      "hash": "0x9971cfb5bf5234ecf2df31a8ad4fc69188645236ab4c149a649c9890aa64a887",
      "transactionType": "CALL",
      "contractName": null,
      "contractAddress": "0xe987a57DA7Ab112B1bDc7AA704E6EA943760d252",
      "function": "grantRole(bytes32,address)",
      "arguments": [
        "0xc4c453d647953c0fd35db5a34ee76e60fb4abc3a8fb891a25936b70b38f29253",
        "0xf152Abda9E4ce8b134eF22Dc3C6aCe19C4895D82"
      ],
      "transaction": {
        "type": "0x02",
        "from": "0x660ad4b5a74130a4796b4d54bc6750ae93c86e6c",
        "to": "0xe987a57da7ab112b1bdc7aa704e6ea943760d252",
        "gas": "0x10484",
        "value": "0x0",
        "data": "0x2f2ff15dc4c453d647953c0fd35db5a34ee76e60fb4abc3a8fb891a25936b70b38f29253000000000000000000000000f152abda9e4ce8b134ef22dc3c6ace19c4895d82",
        "nonce": "0xe5",
        "accessList": []
      },
      "additionalContracts": [],
      "isFixedGasLimit": false
    },
    {
      "hash": "0xb4d19ad42e16ab7dc636e646d6a637817d6c22ee38458bf19908fa5aff152705",
      "transactionType": "CALL",
      "contractName": null,
      "contractAddress": "0x755cD5d147036E11c76F1EeffDd94794fC265f0d",
      "function": "revokeRole(bytes32,address)",
      "arguments": [
        "0xc4c453d647953c0fd35db5a34ee76e60fb4abc3a8fb891a25936b70b38f29253",
        "0x660ad4B5A74130a4796B4d54BC6750Ae93C86e6c"
      ],
      "transaction": {
        "type": "0x02",
        "from": "0x660ad4b5a74130a4796b4d54bc6750ae93c86e6c",
        "to": "0x755cd5d147036e11c76f1eeffdd94794fc265f0d",
        "gas": "0x8e71",
        "value": "0x0",
        "data": "0xd547741fc4c453d647953c0fd35db5a34ee76e60fb4abc3a8fb891a25936b70b38f29253000000000000000000000000660ad4b5a74130a4796b4d54bc6750ae93c86e6c",
        "nonce": "0xe6",
        "accessList": []
      },
      "additionalContracts": [],
      "isFixedGasLimit": false
    },
    {
      "hash": "0x591848b61f8071ba723cb0cbc5380eade4bd88650aeed6a1fcea0d5cde9e2525",
      "transactionType": "CALL",
      "contractName": null,
      "contractAddress": "0x755cD5d147036E11c76F1EeffDd94794fC265f0d",
      "function": "grantRole(bytes32,address)",
      "arguments": [
        "0xc4c453d647953c0fd35db5a34ee76e60fb4abc3a8fb891a25936b70b38f29253",
        "0xf152Abda9E4ce8b134eF22Dc3C6aCe19C4895D82"
      ],
      "transaction": {
        "type": "0x02",
        "from": "0x660ad4b5a74130a4796b4d54bc6750ae93c86e6c",
        "to": "0x755cd5d147036e11c76f1eeffdd94794fc265f0d",
        "gas": "0x10466",
        "value": "0x0",
        "data": "0x2f2ff15dc4c453d647953c0fd35db5a34ee76e60fb4abc3a8fb891a25936b70b38f29253000000000000000000000000f152abda9e4ce8b134ef22dc3c6ace19c4895d82",
        "nonce": "0xe7",
        "accessList": []
      },
      "additionalContracts": [],
      "isFixedGasLimit": false
    },
    {
      "hash": "0xcda42b52b07d52bf4ec5bc39ad110aa1c4163bb24867f4c944ad9c800bc8deae",
      "transactionType": "CALL",
      "contractName": null,
      "contractAddress": "0x12Cf431BdF7F143338cC09A0629EDcCEDCBCEcB5",
      "function": "nominateOwner(address)",
      "arguments": [
        "0xf152Abda9E4ce8b134eF22Dc3C6aCe19C4895D82"
      ],
      "transaction": {
        "type": "0x02",
        "from": "0x660ad4b5a74130a4796b4d54bc6750ae93c86e6c",
        "to": "0x12cf431bdf7f143338cc09a0629edccedcbcecb5",
        "gas": "0x10d9b",
        "value": "0x0",
        "data": "0x5b94db27000000000000000000000000f152abda9e4ce8b134ef22dc3c6ace19c4895d82",
        "nonce": "0xe8",
        "accessList": []
      },
      "additionalContracts": [],
      "isFixedGasLimit": false
    },
    {
      "hash": "0x5a6a37249a5c7d1f1c2cbdf3c7ebe42b152fc191d9467887a7ce701bda7218cd",
      "transactionType": "CALL",
      "contractName": null,
      "contractAddress": "0x1991Fb3e5EC42A5eee9acC70fB30b0DBEF34B667",
      "function": "nominateOwner(address)",
      "arguments": [
        "0xf152Abda9E4ce8b134eF22Dc3C6aCe19C4895D82"
      ],
      "transaction": {
        "type": "0x02",
        "from": "0x660ad4b5a74130a4796b4d54bc6750ae93c86e6c",
        "to": "0x1991fb3e5ec42a5eee9acc70fb30b0dbef34b667",
        "gas": "0xfebe",
        "value": "0x0",
        "data": "0x5b94db27000000000000000000000000f152abda9e4ce8b134ef22dc3c6ace19c4895d82",
        "nonce": "0xe9",
        "accessList": []
      },
      "additionalContracts": [],
      "isFixedGasLimit": false
    },
    {
      "hash": "0x21290476ba207e77ed97e458441bbbc194da51e709aa5ea8315906411a8ff1e8",
      "transactionType": "CALL",
      "contractName": null,
      "contractAddress": "0xAc00056920EfF02831CAf0baF116ADf6B42D9ad1",
      "function": "nominateOwner(address)",
      "arguments": [
        "0xf152Abda9E4ce8b134eF22Dc3C6aCe19C4895D82"
      ],
      "transaction": {
        "type": "0x02",
        "from": "0x660ad4b5a74130a4796b4d54bc6750ae93c86e6c",
        "to": "0xac00056920eff02831caf0baf116adf6b42d9ad1",
        "gas": "0x10d7b",
        "value": "0x0",
        "data": "0x5b94db27000000000000000000000000f152abda9e4ce8b134ef22dc3c6ace19c4895d82",
        "nonce": "0xea",
        "accessList": []
      },
      "additionalContracts": [],
      "isFixedGasLimit": false
    },
    {
      "hash": "0xb32d77884f9a8a8ae31df667f2c87bae8d3f5c9a37c5cd3f331dd961492b8915",
      "transactionType": "CALL",
      "contractName": null,
      "contractAddress": "0xc5d01939Af7Ce9Ffc505F0bb36eFeDde7920f2dc",
      "function": "nominateOwner(address)",
      "arguments": [
        "0xf152Abda9E4ce8b134eF22Dc3C6aCe19C4895D82"
      ],
      "transaction": {
        "type": "0x02",
        "from": "0x660ad4b5a74130a4796b4d54bc6750ae93c86e6c",
        "to": "0xc5d01939af7ce9ffc505f0bb36efedde7920f2dc",
        "gas": "0x10d9b",
        "value": "0x0",
        "data": "0x5b94db27000000000000000000000000f152abda9e4ce8b134ef22dc3c6ace19c4895d82",
        "nonce": "0xeb",
        "accessList": []
      },
      "additionalContracts": [],
      "isFixedGasLimit": false
    },
    {
      "hash": "0xff0fb6c9e1bbe0eaf398e775ce2174dd2821b361c54b32aa45947f8459a9da8b",
      "transactionType": "CALL",
      "contractName": null,
      "contractAddress": "0x05369D989D9dD9cD6537E667865Ee8157d5EE91B",
      "function": "nominateOwner(address)",
      "arguments": [
        "0xf152Abda9E4ce8b134eF22Dc3C6aCe19C4895D82"
      ],
      "transaction": {
        "type": "0x02",
        "from": "0x660ad4b5a74130a4796b4d54bc6750ae93c86e6c",
        "to": "0x05369d989d9dd9cd6537e667865ee8157d5ee91b",
        "gas": "0xfebe",
        "value": "0x0",
        "data": "0x5b94db27000000000000000000000000f152abda9e4ce8b134ef22dc3c6ace19c4895d82",
        "nonce": "0xec",
        "accessList": []
      },
      "additionalContracts": [],
      "isFixedGasLimit": false
    },
    {
      "hash": "0xf9cd8e25e43201c359826c5ca2f7fe15407ee53d6535dcd6aff4621de07500c2",
      "transactionType": "CALL",
      "contractName": null,
      "contractAddress": "0x83C6d6597891Ad48cF5e0BA901De55120C37C6bE",
      "function": "nominateOwner(address)",
      "arguments": [
        "0xf152Abda9E4ce8b134eF22Dc3C6aCe19C4895D82"
      ],
      "transaction": {
        "type": "0x02",
        "from": "0x660ad4b5a74130a4796b4d54bc6750ae93c86e6c",
        "to": "0x83c6d6597891ad48cf5e0ba901de55120c37c6be",
        "gas": "0x10d7b",
        "value": "0x0",
        "data": "0x5b94db27000000000000000000000000f152abda9e4ce8b134ef22dc3c6ace19c4895d82",
        "nonce": "0xed",
        "accessList": []
      },
      "additionalContracts": [],
      "isFixedGasLimit": false
    },
    {
      "hash": "0xe51cd6ea29b3e88d75c8833fa35097eb39d0eb7f119d17d4617c85d4e17dee89",
      "transactionType": "CALL",
      "contractName": null,
      "contractAddress": "0x00A0c9d82B95a17Cdf2D46703F2DcA13EB0E8A94",
      "function": "nominateOwner(address)",
      "arguments": [
        "0xf152Abda9E4ce8b134eF22Dc3C6aCe19C4895D82"
      ],
      "transaction": {
        "type": "0x02",
        "from": "0x660ad4b5a74130a4796b4d54bc6750ae93c86e6c",
        "to": "0x00a0c9d82b95a17cdf2d46703f2dca13eb0e8a94",
        "gas": "0x10d9b",
        "value": "0x0",
        "data": "0x5b94db27000000000000000000000000f152abda9e4ce8b134ef22dc3c6ace19c4895d82",
        "nonce": "0xee",
        "accessList": []
      },
      "additionalContracts": [],
      "isFixedGasLimit": false
    },
    {
      "hash": "0x9856be30360271560666995f962d87efb68b3da2e239aeaaedfa101a8a84415e",
      "transactionType": "CALL",
      "contractName": null,
      "contractAddress": "0x47469683AEAD0B5EF2c599ff34d55C3D998393Bf",
      "function": "nominateOwner(address)",
      "arguments": [
        "0xf152Abda9E4ce8b134eF22Dc3C6aCe19C4895D82"
      ],
      "transaction": {
        "type": "0x02",
        "from": "0x660ad4b5a74130a4796b4d54bc6750ae93c86e6c",
        "to": "0x47469683aead0b5ef2c599ff34d55c3d998393bf",
        "gas": "0xfebe",
        "value": "0x0",
        "data": "0x5b94db27000000000000000000000000f152abda9e4ce8b134ef22dc3c6ace19c4895d82",
        "nonce": "0xef",
        "accessList": []
      },
      "additionalContracts": [],
      "isFixedGasLimit": false
    },
    {
      "hash": "0x3370aea7624388c63915c7e445020a3816094bb1b6afceb29c1ede9aa06731a2",
      "transactionType": "CALL",
      "contractName": null,
      "contractAddress": "0xe987a57DA7Ab112B1bDc7AA704E6EA943760d252",
      "function": "nominateOwner(address)",
      "arguments": [
        "0xf152Abda9E4ce8b134eF22Dc3C6aCe19C4895D82"
      ],
      "transaction": {
        "type": "0x02",
        "from": "0x660ad4b5a74130a4796b4d54bc6750ae93c86e6c",
        "to": "0xe987a57da7ab112b1bdc7aa704e6ea943760d252",
        "gas": "0x10d7b",
        "value": "0x0",
        "data": "0x5b94db27000000000000000000000000f152abda9e4ce8b134ef22dc3c6ace19c4895d82",
        "nonce": "0xf0",
        "accessList": []
      },
      "additionalContracts": [],
      "isFixedGasLimit": false
    },
    {
      "hash": "0xd98949e5cc032b6eb02a3415caec49e628834855b783b4753ba679f6197af8ee",
      "transactionType": "CALL",
      "contractName": null,
      "contractAddress": "0x755cD5d147036E11c76F1EeffDd94794fC265f0d",
      "function": "nominateOwner(address)",
      "arguments": [
        "0xf152Abda9E4ce8b134eF22Dc3C6aCe19C4895D82"
      ],
      "transaction": {
        "type": "0x02",
        "from": "0x660ad4b5a74130a4796b4d54bc6750ae93c86e6c",
        "to": "0x755cd5d147036e11c76f1eeffdd94794fc265f0d",
        "gas": "0x10d9b",
        "value": "0x0",
        "data": "0x5b94db27000000000000000000000000f152abda9e4ce8b134ef22dc3c6ace19c4895d82",
        "nonce": "0xf1",
        "accessList": []
      },
      "additionalContracts": [],
      "isFixedGasLimit": false
    }
  ],
  "receipts": [
    {
      "transactionHash": "0x45465bd2e09f085fb921358fd70be25e80df7f57ba966ff013034581495f51ae",
      "transactionIndex": "0x38",
      "blockHash": "0x925311f6fa42500cc119147e6077a6a2e60fe3420ab3341e87a4622b02f0122b",
      "blockNumber": "0x12ff654",
      "from": "0x660ad4B5A74130a4796B4d54BC6750Ae93C86e6c",
      "to": "0x83C6d6597891Ad48cF5e0BA901De55120C37C6bE",
      "cumulativeGasUsed": "0x4e59c1",
      "gasUsed": "0x66f3",
      "contractAddress": null,
      "logs": [
        {
          "address": "0x83C6d6597891Ad48cF5e0BA901De55120C37C6bE",
          "topics": [
            "0x155aaafb6329a2098580462df33ec4b7441b19729b9601c5fc17ae1cf99a8a52",
            "0xc4c453d647953c0fd35db5a34ee76e60fb4abc3a8fb891a25936b70b38f29253",
            "0x000000000000000000000000660ad4b5a74130a4796b4d54bc6750ae93c86e6c"
          ],
          "data": "0x",
          "blockHash": "0x925311f6fa42500cc119147e6077a6a2e60fe3420ab3341e87a4622b02f0122b",
          "blockNumber": "0x12ff654",
          "transactionHash": "0x45465bd2e09f085fb921358fd70be25e80df7f57ba966ff013034581495f51ae",
          "transactionIndex": "0x38",
          "logIndex": "0xa3",
          "removed": false
        }
      ],
      "status": "0x1",
      "logsBloom": "0x0000000000000000000000000000000000000000000000000000000000000000004000000000000000000000000000000000002000000000000000000000000000000000000000000000000000000000000000002000000000000100000008000000000000000000000000001000000000000000000000000000000000000000004000000000000000000000004000000000000000000000000000000000000000000000000000000000000000000000000000000000c000000000000000000000000000000000000100000000004000000000000000000000000000000000000000000000000000000000000000000000000000000000000000000000000000",
      "type": "0x2",
      "effectiveGasPrice": "0x412c67ea7"
    },
    {
      "transactionHash": "0x3c0196960bb6ae8fb967906bd2104d392da9f5865d8bab4129d433c5d913d43b",
      "transactionIndex": "0x23",
      "blockHash": "0xeed85156b1687af6adb84dda0dd67e89c8a3379053e98587790cc8b023f97cd0",
      "blockNumber": "0x12ff655",
      "from": "0x660ad4B5A74130a4796B4d54BC6750Ae93C86e6c",
      "to": "0x83C6d6597891Ad48cF5e0BA901De55120C37C6bE",
      "cumulativeGasUsed": "0x495b58",
      "gasUsed": "0xbc9d",
      "contractAddress": null,
      "logs": [
        {
          "address": "0x83C6d6597891Ad48cF5e0BA901De55120C37C6bE",
          "topics": [
            "0x2ae6a113c0ed5b78a53413ffbb7679881f11145ccfba4fb92e863dfcd5a1d2f3",
            "0xc4c453d647953c0fd35db5a34ee76e60fb4abc3a8fb891a25936b70b38f29253",
            "0x000000000000000000000000f152abda9e4ce8b134ef22dc3c6ace19c4895d82"
          ],
          "data": "0x",
          "blockHash": "0xeed85156b1687af6adb84dda0dd67e89c8a3379053e98587790cc8b023f97cd0",
          "blockNumber": "0x12ff655",
          "transactionHash": "0x3c0196960bb6ae8fb967906bd2104d392da9f5865d8bab4129d433c5d913d43b",
          "transactionIndex": "0x23",
          "logIndex": "0xb1",
          "removed": false
        }
      ],
      "status": "0x1",
      "logsBloom": "0x0000040000000000000000000000000000000000000000000000000000000000000000000010000000000000000000000000000000000000000000000000000000000000000000000040020000000000000000002000000000000000000000000000000000000000000000001000000000000000000080000000000000000000004000000000000000000000000000000000000000000000000000000000000000000000000000000000000000000000000000000000c000000000000000000000000000000000000000000000004000000000000000000000000000000000000000004000000000000000000000000000000000000000000000000000000000",
      "type": "0x2",
      "effectiveGasPrice": "0x4118026fe"
    },
    {
      "transactionHash": "0x345d4a93a5871037508b4ed2190519b682858e8006f57c52049fc66bc0681975",
      "transactionIndex": "0x14",
      "blockHash": "0x886b15c4f7071c4244ebabb025b782bfab0aa4b0e2b7018f6acdfdc295d0a91c",
      "blockNumber": "0x12ff656",
      "from": "0x660ad4B5A74130a4796B4d54BC6750Ae93C86e6c",
      "to": "0x00A0c9d82B95a17Cdf2D46703F2DcA13EB0E8A94",
      "cumulativeGasUsed": "0x1aa519",
      "gasUsed": "0x6720",
      "contractAddress": null,
      "logs": [
        {
          "address": "0x00A0c9d82B95a17Cdf2D46703F2DcA13EB0E8A94",
          "topics": [
            "0x155aaafb6329a2098580462df33ec4b7441b19729b9601c5fc17ae1cf99a8a52",
            "0xc4c453d647953c0fd35db5a34ee76e60fb4abc3a8fb891a25936b70b38f29253",
            "0x000000000000000000000000660ad4b5a74130a4796b4d54bc6750ae93c86e6c"
          ],
          "data": "0x",
          "blockHash": "0x886b15c4f7071c4244ebabb025b782bfab0aa4b0e2b7018f6acdfdc295d0a91c",
          "blockNumber": "0x12ff656",
          "transactionHash": "0x345d4a93a5871037508b4ed2190519b682858e8006f57c52049fc66bc0681975",
          "transactionIndex": "0x14",
          "logIndex": "0x38",
          "removed": false
        }
      ],
      "status": "0x1",
      "logsBloom": "0x00000000000000000000000000000000000000000000000000004000000000000040000000000000000000000000000000000020000000000000000000000000000000000000000000000000000000000000000020000000000001000000080000040000000000000000000010000000000000000000000000000000000000000000000000000000000000000040000000000000000000000000000000000000000000000000000000000000000000000000000000000000000000000000000000000001000000000100000000004000000000000000000000000000000000000000000000000000000000000000000000000000000000000000000000000000",
      "type": "0x2",
      "effectiveGasPrice": "0x3f960fb3c"
    },
    {
      "transactionHash": "0x6caa65ab60f201219035ae78dc01da0a7f8da964a010f5dfa1518ce574d7a742",
      "transactionIndex": "0x16",
      "blockHash": "0x757bbd445c660fee98efbc6727ea6931ae08aad9c38002a4d57f5ee5ec24a309",
      "blockNumber": "0x12ff657",
      "from": "0x660ad4B5A74130a4796B4d54BC6750Ae93C86e6c",
      "to": "0x00A0c9d82B95a17Cdf2D46703F2DcA13EB0E8A94",
      "cumulativeGasUsed": "0x2e0967",
      "gasUsed": "0xbc87",
      "contractAddress": null,
      "logs": [
        {
          "address": "0x00A0c9d82B95a17Cdf2D46703F2DcA13EB0E8A94",
          "topics": [
            "0x2ae6a113c0ed5b78a53413ffbb7679881f11145ccfba4fb92e863dfcd5a1d2f3",
            "0xc4c453d647953c0fd35db5a34ee76e60fb4abc3a8fb891a25936b70b38f29253",
            "0x000000000000000000000000f152abda9e4ce8b134ef22dc3c6ace19c4895d82"
          ],
          "data": "0x",
          "blockHash": "0x757bbd445c660fee98efbc6727ea6931ae08aad9c38002a4d57f5ee5ec24a309",
          "blockNumber": "0x12ff657",
          "transactionHash": "0x6caa65ab60f201219035ae78dc01da0a7f8da964a010f5dfa1518ce574d7a742",
          "transactionIndex": "0x16",
          "logIndex": "0x3b",
          "removed": false
        }
      ],
      "status": "0x1",
      "logsBloom": "0x00000400000000000000000000000000000000000000000000004000000000000000000000100000000000000000000000000000000000000000000000000000000000000000000000400200000000000000000020000000000000000000000000040000000000000000000010000000000000000000800000000000000000000000000000000000000000000000000000000000000000000000000000000000000000000000000000000000000000000000000000000000000000000000000000000001000000000000000000004000000000000000000000000000000000000000004000000000000000000000000000000000000000000000000000000000",
      "type": "0x2",
      "effectiveGasPrice": "0x4312b7546"
    },
    {
      "transactionHash": "0x5c1cda4613324f59bc6d5d3df96c56e77e0398f5914d08709c51890a3061b75f",
      "transactionIndex": "0x1e",
      "blockHash": "0x608f8ca261e4e6f2fea4f5f25529a87675c052e013cfef6f4a4b5f615a4937c0",
      "blockNumber": "0x12ff658",
      "from": "0x660ad4B5A74130a4796B4d54BC6750Ae93C86e6c",
      "to": "0x47469683AEAD0B5EF2c599ff34d55C3D998393Bf",
      "cumulativeGasUsed": "0x457131",
      "gasUsed": "0x670a",
      "contractAddress": null,
      "logs": [
        {
          "address": "0x47469683AEAD0B5EF2c599ff34d55C3D998393Bf",
          "topics": [
            "0x155aaafb6329a2098580462df33ec4b7441b19729b9601c5fc17ae1cf99a8a52",
            "0xc4c453d647953c0fd35db5a34ee76e60fb4abc3a8fb891a25936b70b38f29253",
            "0x000000000000000000000000660ad4b5a74130a4796b4d54bc6750ae93c86e6c"
          ],
          "data": "0x",
          "blockHash": "0x608f8ca261e4e6f2fea4f5f25529a87675c052e013cfef6f4a4b5f615a4937c0",
          "blockNumber": "0x12ff658",
          "transactionHash": "0x5c1cda4613324f59bc6d5d3df96c56e77e0398f5914d08709c51890a3061b75f",
          "transactionIndex": "0x1e",
          "logIndex": "0xa2",
          "removed": false
        }
      ],
      "status": "0x1",
      "logsBloom": "0x00000800000000000000000000000000000000000000000000000000000000000040000000000000000000000000000000000020000000000000000000000000000000000000000000000000000000000000000020000000000001000000080000000000000000000000000010000000000000000000000000000000000000000000000000000000000000000040000000000000000000000000000000000000000000020000000000100000000000000000000000000000000000000000000000000000000000000100000000004000000000000000000000000000000000000000000000000000000000000000000000000000000000000000000000000000",
      "type": "0x2",
      "effectiveGasPrice": "0x40848584d"
    },
    {
      "transactionHash": "0x6dededb6beeb6e8c72ebc24dda15008a4a65d119014dd6e44e9a86ed60634863",
      "transactionIndex": "0x2a",
      "blockHash": "0x58741f3b58adef67bc1db6e61468ba1b365cda7867c83f52bbf5abb3a79c1e8c",
      "blockNumber": "0x12ff659",
      "from": "0x660ad4B5A74130a4796B4d54BC6750Ae93C86e6c",
      "to": "0x47469683AEAD0B5EF2c599ff34d55C3D998393Bf",
      "cumulativeGasUsed": "0x4f72ce",
      "gasUsed": "0xbc9d",
      "contractAddress": null,
      "logs": [
        {
          "address": "0x47469683AEAD0B5EF2c599ff34d55C3D998393Bf",
          "topics": [
            "0x2ae6a113c0ed5b78a53413ffbb7679881f11145ccfba4fb92e863dfcd5a1d2f3",
            "0xc4c453d647953c0fd35db5a34ee76e60fb4abc3a8fb891a25936b70b38f29253",
            "0x000000000000000000000000f152abda9e4ce8b134ef22dc3c6ace19c4895d82"
          ],
          "data": "0x",
          "blockHash": "0x58741f3b58adef67bc1db6e61468ba1b365cda7867c83f52bbf5abb3a79c1e8c",
          "blockNumber": "0x12ff659",
          "transactionHash": "0x6dededb6beeb6e8c72ebc24dda15008a4a65d119014dd6e44e9a86ed60634863",
          "transactionIndex": "0x2a",
          "logIndex": "0x7f",
          "removed": false
        }
      ],
      "status": "0x1",
      "logsBloom": "0x00000c00000000000000000000000000000000000000000000000000000000000000000000100000000000000000000000000000000000000000000000000000000000000000000000400200000000000000000020000000000000000000000000000000000000000000000010000000000000000000800000000000000000000000000000000000000000000000000000000000000000000000000000000000000000020000000000100000000000000000000000000000000000000000000000000000000000000000000000004000000000000000000000000000000000000000004000000000000000000000000000000000000000000000000000000000",
      "type": "0x2",
      "effectiveGasPrice": "0x4091c33a8"
    },
    {
      "transactionHash": "0x7002813d135750f7f088949721bddf5414b437a20a2c6f7c3a9ca08a70b5735e",
      "transactionIndex": "0x1c",
      "blockHash": "0x693b7682ad50a9770df08c79115a6fdd7ff64506f0b71b1bc55def5b936de0b2",
      "blockNumber": "0x12ff65a",
      "from": "0x660ad4B5A74130a4796B4d54BC6750Ae93C86e6c",
      "to": "0xe987a57DA7Ab112B1bDc7AA704E6EA943760d252",
      "cumulativeGasUsed": "0x3b489f",
      "gasUsed": "0x66f3",
      "contractAddress": null,
      "logs": [
        {
          "address": "0xe987a57DA7Ab112B1bDc7AA704E6EA943760d252",
          "topics": [
            "0x155aaafb6329a2098580462df33ec4b7441b19729b9601c5fc17ae1cf99a8a52",
            "0xc4c453d647953c0fd35db5a34ee76e60fb4abc3a8fb891a25936b70b38f29253",
            "0x000000000000000000000000660ad4b5a74130a4796b4d54bc6750ae93c86e6c"
          ],
          "data": "0x",
          "blockHash": "0x693b7682ad50a9770df08c79115a6fdd7ff64506f0b71b1bc55def5b936de0b2",
          "blockNumber": "0x12ff65a",
          "transactionHash": "0x7002813d135750f7f088949721bddf5414b437a20a2c6f7c3a9ca08a70b5735e",
          "transactionIndex": "0x1c",
          "logIndex": "0x99",
          "removed": false
        }
      ],
      "status": "0x1",
      "logsBloom": "0x00000000000000000000000000000000000000000000000000000000000000000040000000000000000000000000000000000020000000000000000000000000000000000000000000000000000000000000000020000000000001000000080000000000000000000000000010000000000000000000000000000000000000000000000000000000000000000040000000000000000000000000000000000000000000000000000000000000000000000000000000000000000000000000000000000000000000000100000000004000000000000800000000000040000000000000000000000000000000000000000000000000000000000000000800000000",
      "type": "0x2",
      "effectiveGasPrice": "0x4335974c1"
    },
    {
      "transactionHash": "0x9971cfb5bf5234ecf2df31a8ad4fc69188645236ab4c149a649c9890aa64a887",
      "transactionIndex": "0x18",
      "blockHash": "0xfb5d7ac5083e303ace8a136ebfd22d32811c1d2d2c40327b90f06fac5a232ea7",
      "blockNumber": "0x12ff65b",
      "from": "0x660ad4B5A74130a4796B4d54BC6750Ae93C86e6c",
      "to": "0xe987a57DA7Ab112B1bDc7AA704E6EA943760d252",
      "cumulativeGasUsed": "0x1afb50",
      "gasUsed": "0xbc9d",
      "contractAddress": null,
      "logs": [
        {
          "address": "0xe987a57DA7Ab112B1bDc7AA704E6EA943760d252",
          "topics": [
            "0x2ae6a113c0ed5b78a53413ffbb7679881f11145ccfba4fb92e863dfcd5a1d2f3",
            "0xc4c453d647953c0fd35db5a34ee76e60fb4abc3a8fb891a25936b70b38f29253",
            "0x000000000000000000000000f152abda9e4ce8b134ef22dc3c6ace19c4895d82"
          ],
          "data": "0x",
          "blockHash": "0xfb5d7ac5083e303ace8a136ebfd22d32811c1d2d2c40327b90f06fac5a232ea7",
          "blockNumber": "0x12ff65b",
          "transactionHash": "0x9971cfb5bf5234ecf2df31a8ad4fc69188645236ab4c149a649c9890aa64a887",
          "transactionIndex": "0x18",
          "logIndex": "0x2b",
          "removed": false
        }
      ],
      "status": "0x1",
      "logsBloom": "0x00000400000000000000000000000000000000000000000000000000000000000000000000100000000000000000000000000000000000000000000000000000000000000000000000400200000000000000000020000000000000000000000000000000000000000000000010000000000000000000800000000000000000000000000000000000000000000000000000000000000000000000000000000000000000000000000000000000000000000000000000000000000000000000000000000000000000000000000000004000000000000800000000000040000000000000004000000000000000000000000000000000000000000000000800000000",
      "type": "0x2",
      "effectiveGasPrice": "0x41fb62075"
    },
    {
      "transactionHash": "0xb4d19ad42e16ab7dc636e646d6a637817d6c22ee38458bf19908fa5aff152705",
      "transactionIndex": "0x34",
      "blockHash": "0x5c32eff79e36a93430ca23b35e2036628a9ea9285e27c917ca3e2ac213b95a8b",
      "blockNumber": "0x12ff65c",
      "from": "0x660ad4B5A74130a4796B4d54BC6750Ae93C86e6c",
      "to": "0x755cD5d147036E11c76F1EeffDd94794fC265f0d",
      "cumulativeGasUsed": "0x930398",
      "gasUsed": "0x6720",
      "contractAddress": null,
      "logs": [
        {
          "address": "0x755cD5d147036E11c76F1EeffDd94794fC265f0d",
          "topics": [
            "0x155aaafb6329a2098580462df33ec4b7441b19729b9601c5fc17ae1cf99a8a52",
            "0xc4c453d647953c0fd35db5a34ee76e60fb4abc3a8fb891a25936b70b38f29253",
            "0x000000000000000000000000660ad4b5a74130a4796b4d54bc6750ae93c86e6c"
          ],
          "data": "0x",
          "blockHash": "0x5c32eff79e36a93430ca23b35e2036628a9ea9285e27c917ca3e2ac213b95a8b",
          "blockNumber": "0x12ff65c",
          "transactionHash": "0xb4d19ad42e16ab7dc636e646d6a637817d6c22ee38458bf19908fa5aff152705",
          "transactionIndex": "0x34",
          "logIndex": "0xca",
          "removed": false
        }
      ],
      "status": "0x1",
      "logsBloom": "0x00000000000000000000000000000000000400000000000000000000000000000040000000000000000000000000000000000020000000000000000000000000000000000000000000000000000000000000000020000000000001000000080000000000000000000000000010000000000000000000000000000000000000000001000000000000000000000040000000000000000000000000000000000000000000000000000000000000000000000000000000000000000000000000000000000000000000000100000000004000000000000000000000000000004000000000000000000000000000000000000000000000000000000000000000000000",
      "type": "0x2",
      "effectiveGasPrice": "0x3f7d0152d"
    },
    {
      "transactionHash": "0x591848b61f8071ba723cb0cbc5380eade4bd88650aeed6a1fcea0d5cde9e2525",
      "transactionIndex": "0x2d",
      "blockHash": "0xc02c9fce822c87bdd2516e98c9809f88cac4a01d4c05b7599e7945ce57971971",
      "blockNumber": "0x12ff65d",
      "from": "0x660ad4B5A74130a4796B4d54BC6750Ae93C86e6c",
      "to": "0x755cD5d147036E11c76F1EeffDd94794fC265f0d",
      "cumulativeGasUsed": "0x42c0c5",
      "gasUsed": "0xbc87",
      "contractAddress": null,
      "logs": [
        {
          "address": "0x755cD5d147036E11c76F1EeffDd94794fC265f0d",
          "topics": [
            "0x2ae6a113c0ed5b78a53413ffbb7679881f11145ccfba4fb92e863dfcd5a1d2f3",
            "0xc4c453d647953c0fd35db5a34ee76e60fb4abc3a8fb891a25936b70b38f29253",
            "0x000000000000000000000000f152abda9e4ce8b134ef22dc3c6ace19c4895d82"
          ],
          "data": "0x",
          "blockHash": "0xc02c9fce822c87bdd2516e98c9809f88cac4a01d4c05b7599e7945ce57971971",
          "blockNumber": "0x12ff65d",
          "transactionHash": "0x591848b61f8071ba723cb0cbc5380eade4bd88650aeed6a1fcea0d5cde9e2525",
          "transactionIndex": "0x2d",
          "logIndex": "0x79",
          "removed": false
        }
      ],
      "status": "0x1",
      "logsBloom": "0x00000400000000000000000000000000000400000000000000000000000000000000000000100000000000000000000000000000000000000000000000000000000000000000000000400200000000000000000020000000000000000000000000000000000000000000000010000000000000000000800000000000000000000001000000000000000000000000000000000000000000000000000000000000000000000000000000000000000000000000000000000000000000000000000000000000000000000000000000004000000000000000000000000000004000000000004000000000000000000000000000000000000000000000000000000000",
      "type": "0x2",
      "effectiveGasPrice": "0x40990cf90"
    },
    {
      "transactionHash": "0xcda42b52b07d52bf4ec5bc39ad110aa1c4163bb24867f4c944ad9c800bc8deae",
      "transactionIndex": "0x18",
      "blockHash": "0x2eb527008bf9f06e04a4f2eb85f17c21000d27ee625bad793ae509192bbd641e",
      "blockNumber": "0x12ff65e",
      "from": "0x660ad4B5A74130a4796B4d54BC6750Ae93C86e6c",
      "to": "0x12Cf431BdF7F143338cC09A0629EDcCEDCBCEcB5",
      "cumulativeGasUsed": "0x368a3f",
      "gasUsed": "0xb859",
      "contractAddress": null,
      "logs": [
        {
          "address": "0x12Cf431BdF7F143338cC09A0629EDcCEDCBCEcB5",
          "topics": [
            "0x906a1c6bd7e3091ea86693dd029a831c19049ce77f1dce2ce0bab1cacbabce22",
            "0x000000000000000000000000f152abda9e4ce8b134ef22dc3c6ace19c4895d82"
          ],
          "data": "0x",
          "blockHash": "0x2eb527008bf9f06e04a4f2eb85f17c21000d27ee625bad793ae509192bbd641e",
          "blockNumber": "0x12ff65e",
          "transactionHash": "0xcda42b52b07d52bf4ec5bc39ad110aa1c4163bb24867f4c944ad9c800bc8deae",
          "transactionIndex": "0x18",
          "logIndex": "0x63",
          "removed": false
        }
      ],
      "status": "0x1",
      "logsBloom": "0x00000400000000000000000000000000000000000000000000000100000000000000000000100010000000000000000000000000000000000000000000000000000000000000800000000200000000000000000000000000000000000000000000000000000000000000400000000000000000000000000000000000000000000000000000000000000000000000000000000000000000004000000000000000000000000000000000000000000000000000000000000000000000000000000000000000000000000000000000000000000000000000000400000000000000000000000000000000000000000000000000000000000000000000000000000000",
      "type": "0x2",
      "effectiveGasPrice": "0x3f53b3783"
    },
    {
      "transactionHash": "0x5a6a37249a5c7d1f1c2cbdf3c7ebe42b152fc191d9467887a7ce701bda7218cd",
      "transactionIndex": "0x14",
      "blockHash": "0x2d980a3b7dac0e788a426a6010a851b457daba2bfb3bf64dab94e7d83333f992",
      "blockNumber": "0x12ff65f",
      "from": "0x660ad4B5A74130a4796B4d54BC6750Ae93C86e6c",
      "to": "0x1991Fb3e5EC42A5eee9acC70fB30b0DBEF34B667",
      "cumulativeGasUsed": "0x2d659a",
      "gasUsed": "0xb86f",
      "contractAddress": null,
      "logs": [
        {
          "address": "0x1991Fb3e5EC42A5eee9acC70fB30b0DBEF34B667",
          "topics": [
            "0x906a1c6bd7e3091ea86693dd029a831c19049ce77f1dce2ce0bab1cacbabce22",
            "0x000000000000000000000000f152abda9e4ce8b134ef22dc3c6ace19c4895d82"
          ],
          "data": "0x",
          "blockHash": "0x2d980a3b7dac0e788a426a6010a851b457daba2bfb3bf64dab94e7d83333f992",
          "blockNumber": "0x12ff65f",
          "transactionHash": "0x5a6a37249a5c7d1f1c2cbdf3c7ebe42b152fc191d9467887a7ce701bda7218cd",
          "transactionIndex": "0x14",
          "logIndex": "0x6c",
          "removed": false
        }
      ],
      "status": "0x1",
      "logsBloom": "0x00000400000000000000000000000000000000000000000040000000000000000000000000100010000000000000000000000000000000000000000000000000000000000000800000000200000000000000000000000000000000000000000000000000000000000000000000000000000000000000000008000000000000000000000000000000000000000000000000000000000000000000000000000000000000000000000000000000000000000000000000000000000000000000000000000000000000000000000000000800000000000000000400000000000000000000000000000000000000000000000000000000000000000000000000000000",
      "type": "0x2",
      "effectiveGasPrice": "0x412cf4063"
    },
    {
      "transactionHash": "0x21290476ba207e77ed97e458441bbbc194da51e709aa5ea8315906411a8ff1e8",
      "transactionIndex": "0x15",
      "blockHash": "0x5a87195da022921b406d111679fb11648c0a50f07954ead785d2d1b09c93116f",
      "blockNumber": "0x12ff660",
      "from": "0x660ad4B5A74130a4796B4d54BC6750Ae93C86e6c",
      "to": "0xAc00056920EfF02831CAf0baF116ADf6B42D9ad1",
      "cumulativeGasUsed": "0x2046f4",
      "gasUsed": "0xb843",
      "contractAddress": null,
      "logs": [
        {
          "address": "0xAc00056920EfF02831CAf0baF116ADf6B42D9ad1",
          "topics": [
            "0x906a1c6bd7e3091ea86693dd029a831c19049ce77f1dce2ce0bab1cacbabce22",
            "0x000000000000000000000000f152abda9e4ce8b134ef22dc3c6ace19c4895d82"
          ],
          "data": "0x",
          "blockHash": "0x5a87195da022921b406d111679fb11648c0a50f07954ead785d2d1b09c93116f",
          "blockNumber": "0x12ff660",
          "transactionHash": "0x21290476ba207e77ed97e458441bbbc194da51e709aa5ea8315906411a8ff1e8",
          "transactionIndex": "0x15",
          "logIndex": "0x3d",
          "removed": false
        }
      ],
      "status": "0x1",
      "logsBloom": "0x00000400000000000000000000000000000000000000000000000000000000000000000000100010000000000000000000000000000000000000000000000000000000000000800000000200000000000000000000000000000000000000000000000000000000000000000000000000000000000000000000000000000000000000000000000000000000000000000000000000000000000000000000000000000000000000000000000000000000000000000004000000000000000000000000000100000000000000000000000000000000000000000400000000000000000000000000000000008000000000000000000000000000000000000000000000",
      "type": "0x2",
      "effectiveGasPrice": "0x3ea82ddf9"
    },
    {
      "transactionHash": "0xb32d77884f9a8a8ae31df667f2c87bae8d3f5c9a37c5cd3f331dd961492b8915",
      "transactionIndex": "0x1b",
      "blockHash": "0x1d67a41c866fba8e18f430cc14f15135957489508b845b7a05b1eb94bee93821",
      "blockNumber": "0x12ff661",
      "from": "0x660ad4B5A74130a4796B4d54BC6750Ae93C86e6c",
      "to": "0xc5d01939Af7Ce9Ffc505F0bb36eFeDde7920f2dc",
      "cumulativeGasUsed": "0x55172f",
      "gasUsed": "0xb859",
      "contractAddress": null,
      "logs": [
        {
          "address": "0xc5d01939Af7Ce9Ffc505F0bb36eFeDde7920f2dc",
          "topics": [
            "0x906a1c6bd7e3091ea86693dd029a831c19049ce77f1dce2ce0bab1cacbabce22",
            "0x000000000000000000000000f152abda9e4ce8b134ef22dc3c6ace19c4895d82"
          ],
          "data": "0x",
          "blockHash": "0x1d67a41c866fba8e18f430cc14f15135957489508b845b7a05b1eb94bee93821",
          "blockNumber": "0x12ff661",
          "transactionHash": "0xb32d77884f9a8a8ae31df667f2c87bae8d3f5c9a37c5cd3f331dd961492b8915",
          "transactionIndex": "0x1b",
          "logIndex": "0xea",
          "removed": false
        }
      ],
      "status": "0x1",
      "logsBloom": "0x00000400000000000000000000000000000000000000000000000000000000000000000000100010000000000000000000000000000000000000000000000000000000000000800000000200000000000000004000000000000000000000000000000000000000000000000000000000000000000000000000000000000000000000000000000000000000000000000000000000000000000000000000000000000000000000000000000000000000000000010000000000000000000000000000000000000000000000000000000000000000000000000400000002000000000000000000000000000000000000000000000000000000000000000000000000",
      "type": "0x2",
      "effectiveGasPrice": "0x3f89c2ba9"
    },
    {
      "transactionHash": "0xff0fb6c9e1bbe0eaf398e775ce2174dd2821b361c54b32aa45947f8459a9da8b",
      "transactionIndex": "0x18",
      "blockHash": "0xeef5ed00b3fde494bf310b661d23af2be44fbc0f9360e71da9ced9deee83d221",
      "blockNumber": "0x12ff662",
      "from": "0x660ad4B5A74130a4796B4d54BC6750Ae93C86e6c",
      "to": "0x05369D989D9dD9cD6537E667865Ee8157d5EE91B",
      "cumulativeGasUsed": "0x285e57",
      "gasUsed": "0xb86f",
      "contractAddress": null,
      "logs": [
        {
          "address": "0x05369D989D9dD9cD6537E667865Ee8157d5EE91B",
          "topics": [
            "0x906a1c6bd7e3091ea86693dd029a831c19049ce77f1dce2ce0bab1cacbabce22",
            "0x000000000000000000000000f152abda9e4ce8b134ef22dc3c6ace19c4895d82"
          ],
          "data": "0x",
          "blockHash": "0xeef5ed00b3fde494bf310b661d23af2be44fbc0f9360e71da9ced9deee83d221",
          "blockNumber": "0x12ff662",
          "transactionHash": "0xff0fb6c9e1bbe0eaf398e775ce2174dd2821b361c54b32aa45947f8459a9da8b",
          "transactionIndex": "0x18",
          "logIndex": "0x5f",
          "removed": false
        }
      ],
      "status": "0x1",
      "logsBloom": "0x00000400000000000000000000000000000000000000000000000000000000000000000000100010000000000000000000000000000000000000000000000000000000000000810000000200000000000000000000000000000000000000000000000000000000000000000000000000000000000000000000000000000000000000000000000000000000000000000000000000000000000000000000000000000000000000000000000000000000000000000000000000000000000000000000000000400000000000000000000000400000000000000400000000000000000000000000000000000000000000000000000000000000000000000000000000",
      "type": "0x2",
      "effectiveGasPrice": "0x3fb758ba9"
    },
    {
      "transactionHash": "0xf9cd8e25e43201c359826c5ca2f7fe15407ee53d6535dcd6aff4621de07500c2",
      "transactionIndex": "0x30",
      "blockHash": "0x11fbece0e0277fb70df13bc9f5d8c325b7659508a1c993263ef729ff12c7938d",
      "blockNumber": "0x12ff663",
      "from": "0x660ad4B5A74130a4796B4d54BC6750Ae93C86e6c",
      "to": "0x83C6d6597891Ad48cF5e0BA901De55120C37C6bE",
      "cumulativeGasUsed": "0x4cd7d8",
      "gasUsed": "0xb843",
      "contractAddress": null,
      "logs": [
        {
          "address": "0x83C6d6597891Ad48cF5e0BA901De55120C37C6bE",
          "topics": [
            "0x906a1c6bd7e3091ea86693dd029a831c19049ce77f1dce2ce0bab1cacbabce22",
            "0x000000000000000000000000f152abda9e4ce8b134ef22dc3c6ace19c4895d82"
          ],
          "data": "0x",
          "blockHash": "0x11fbece0e0277fb70df13bc9f5d8c325b7659508a1c993263ef729ff12c7938d",
          "blockNumber": "0x12ff663",
          "transactionHash": "0xf9cd8e25e43201c359826c5ca2f7fe15407ee53d6535dcd6aff4621de07500c2",
          "transactionIndex": "0x30",
          "logIndex": "0x98",
          "removed": false
        }
      ],
      "status": "0x1",
      "logsBloom": "0x0000040000000000000000000000000000000000000000000000000000000000000000000010001000000000000000000000000000000000000000000000000000000000000080000000020000000000000000000000000000000000000000000000000000000000000000000000000000000000000000000000000000000000004000000000000000000000000000000000000000000000000000000000000000000000000000000000000000000000000000000000c000000000000000000000000000000000000000000000000000000000000000000400000000000000000000000000000000000000000000000000000000000000000000000000000000",
      "type": "0x2",
      "effectiveGasPrice": "0x3d3b7bbba"
    },
    {
      "transactionHash": "0xe51cd6ea29b3e88d75c8833fa35097eb39d0eb7f119d17d4617c85d4e17dee89",
      "transactionIndex": "0x12",
      "blockHash": "0xebb3c971e61eb03928fd7cb3a269980623ee86af3518615502a2100f57e8ae7f",
      "blockNumber": "0x12ff664",
      "from": "0x660ad4B5A74130a4796B4d54BC6750Ae93C86e6c",
      "to": "0x00A0c9d82B95a17Cdf2D46703F2DcA13EB0E8A94",
      "cumulativeGasUsed": "0x27bd2d",
      "gasUsed": "0xb859",
      "contractAddress": null,
      "logs": [
        {
          "address": "0x00A0c9d82B95a17Cdf2D46703F2DcA13EB0E8A94",
          "topics": [
            "0x906a1c6bd7e3091ea86693dd029a831c19049ce77f1dce2ce0bab1cacbabce22",
            "0x000000000000000000000000f152abda9e4ce8b134ef22dc3c6ace19c4895d82"
          ],
          "data": "0x",
          "blockHash": "0xebb3c971e61eb03928fd7cb3a269980623ee86af3518615502a2100f57e8ae7f",
          "blockNumber": "0x12ff664",
          "transactionHash": "0xe51cd6ea29b3e88d75c8833fa35097eb39d0eb7f119d17d4617c85d4e17dee89",
          "transactionIndex": "0x12",
          "logIndex": "0x50",
          "removed": false
        }
      ],
      "status": "0x1",
      "logsBloom": "0x00000400000000000000000000000000000000000000000000004000000000000000000000100010000000000000000000000000000000000000000000000000000000000000800000000200000000000000000000000000000000000000000000040000000000000000000000000000000000000000000000000000000000000000000000000000000000000000000000000000000000000000000000000000000000000000000000000000000000000000000000000000000000000000000000000001000000000000000000000000000000000000000400000000000000000000000000000000000000000000000000000000000000000000000000000000",
      "type": "0x2",
      "effectiveGasPrice": "0x3cec9dbf6"
    },
    {
      "transactionHash": "0x9856be30360271560666995f962d87efb68b3da2e239aeaaedfa101a8a84415e",
      "transactionIndex": "0x13",
      "blockHash": "0x760ba1fc22c002844135a897bb3d6d31230c8b351c536d7efe1fd0ffb92a77da",
      "blockNumber": "0x12ff665",
      "from": "0x660ad4B5A74130a4796B4d54BC6750Ae93C86e6c",
      "to": "0x47469683AEAD0B5EF2c599ff34d55C3D998393Bf",
      "cumulativeGasUsed": "0x262c28",
      "gasUsed": "0xb86f",
      "contractAddress": null,
      "logs": [
        {
          "address": "0x47469683AEAD0B5EF2c599ff34d55C3D998393Bf",
          "topics": [
            "0x906a1c6bd7e3091ea86693dd029a831c19049ce77f1dce2ce0bab1cacbabce22",
            "0x000000000000000000000000f152abda9e4ce8b134ef22dc3c6ace19c4895d82"
          ],
          "data": "0x",
          "blockHash": "0x760ba1fc22c002844135a897bb3d6d31230c8b351c536d7efe1fd0ffb92a77da",
          "blockNumber": "0x12ff665",
          "transactionHash": "0x9856be30360271560666995f962d87efb68b3da2e239aeaaedfa101a8a84415e",
          "transactionIndex": "0x13",
          "logIndex": "0x5e",
          "removed": false
        }
      ],
      "status": "0x1",
      "logsBloom": "0x00000c00000000000000000000000000000000000000000000000000000000000000000000100010000000000000000000000000000000000000000000000000000000000000800000000200000000000000000000000000000000000000000000000000000000000000000000000000000000000000000000000000000000000000000000000000000000000000000000000000000000000000000000000000000000020000000000100000000000000000000000000000000000000000000000000000000000000000000000000000000000000000000400000000000000000000000000000000000000000000000000000000000000000000000000000000",
      "type": "0x2",
      "effectiveGasPrice": "0x3d8730e9d"
    },
    {
      "transactionHash": "0x3370aea7624388c63915c7e445020a3816094bb1b6afceb29c1ede9aa06731a2",
      "transactionIndex": "0x15",
      "blockHash": "0x69c62b47a448ea4fd3293dcf1a0006bb1766f4089f5c503068b003f858230051",
      "blockNumber": "0x12ff666",
      "from": "0x660ad4B5A74130a4796B4d54BC6750Ae93C86e6c",
      "to": "0xe987a57DA7Ab112B1bDc7AA704E6EA943760d252",
      "cumulativeGasUsed": "0xe3120",
      "gasUsed": "0xb843",
      "contractAddress": null,
      "logs": [
        {
          "address": "0xe987a57DA7Ab112B1bDc7AA704E6EA943760d252",
          "topics": [
            "0x906a1c6bd7e3091ea86693dd029a831c19049ce77f1dce2ce0bab1cacbabce22",
            "0x000000000000000000000000f152abda9e4ce8b134ef22dc3c6ace19c4895d82"
          ],
          "data": "0x",
          "blockHash": "0x69c62b47a448ea4fd3293dcf1a0006bb1766f4089f5c503068b003f858230051",
          "blockNumber": "0x12ff666",
          "transactionHash": "0x3370aea7624388c63915c7e445020a3816094bb1b6afceb29c1ede9aa06731a2",
          "transactionIndex": "0x15",
          "logIndex": "0xb",
          "removed": false
        }
      ],
      "status": "0x1",
      "logsBloom": "0x00000400000000000000000000000000000000000000000000000000000000000000000000100010000000000000000000000000000000000000000000000000000000000000800000000200000000000000000000000000000000000000000000000000000000000000000000000000000000000000000000000000000000000000000000000000000000000000000000000000000000000000000000000000000000000000000000000000000000000000000000000000000000000000000000000000000000000000000000000000000000000800000400000040000000000000000000000000000000000000000000000000000000000000000800000000",
      "type": "0x2",
      "effectiveGasPrice": "0x3bf5856c5"
    },
    {
      "transactionHash": "0xd98949e5cc032b6eb02a3415caec49e628834855b783b4753ba679f6197af8ee",
      "transactionIndex": "0x22",
      "blockHash": "0x9da732cd2deaf11cc2f5eb8b4aa2b0b482bc577b678cdb50fa03cc08e37e4dd5",
      "blockNumber": "0x12ff667",
      "from": "0x660ad4B5A74130a4796B4d54BC6750Ae93C86e6c",
      "to": "0x755cD5d147036E11c76F1EeffDd94794fC265f0d",
      "cumulativeGasUsed": "0x466b89",
      "gasUsed": "0xb859",
      "contractAddress": null,
      "logs": [
        {
          "address": "0x755cD5d147036E11c76F1EeffDd94794fC265f0d",
          "topics": [
            "0x906a1c6bd7e3091ea86693dd029a831c19049ce77f1dce2ce0bab1cacbabce22",
            "0x000000000000000000000000f152abda9e4ce8b134ef22dc3c6ace19c4895d82"
          ],
          "data": "0x",
          "blockHash": "0x9da732cd2deaf11cc2f5eb8b4aa2b0b482bc577b678cdb50fa03cc08e37e4dd5",
          "blockNumber": "0x12ff667",
          "transactionHash": "0xd98949e5cc032b6eb02a3415caec49e628834855b783b4753ba679f6197af8ee",
          "transactionIndex": "0x22",
          "logIndex": "0x85",
          "removed": false
        }
      ],
      "status": "0x1",
      "logsBloom": "0x00000400000000000000000000000000000400000000000000000000000000000000000000100010000000000000000000000000000000000000000000000000000000000000800000000200000000000000000000000000000000000000000000000000000000000000000000000000000000000000000000000000000000000001000000000000000000000000000000000000000000000000000000000000000000000000000000000000000000000000000000000000000000000000000000000000000000000000000000000000000000000000000400000000004000000000000000000000000000000000000000000000000000000000000000000000",
      "type": "0x2",
      "effectiveGasPrice": "0x36abbd5af"
    }
  ],
  "libraries": [],
  "pending": [],
  "returns": {},
  "timestamp": 1716321124,
  "chain": 1,
  "commit": "01fe980"
}