{
  "transactions": [
    {
      "hash": "0x530948827f10c3b79057498f33ebf09a4b55e1cbcad44d27b20f891b00014d98",
      "transactionType": "CALL",
      "contractName": null,
      "contractAddress": "0x2843c269d2a64ecfa63548e8b3fc0fd23b7f70cb",
      "function": "handleOps((address,uint256,bytes,bytes,uint256,uint256,uint256,uint256,uint256,bytes,bytes)[],address)",
      "arguments": [
        "[(0x2e2B1c42E38f5af81771e65D87729E57ABD1337a, 4394, 0x, 0xb61d27f6000000000000000000000000010700808d59d2bb92257fcafacfe8e5bff7ab870000000000000000000000000000000000000000000000000000000000000000000000000000000000000000000000000000000000000000000000000000006000000000000000000000000000000000000000000000000000000000000000449dc29fac000000000000000000000000d157904639e89df05e89e0dabeec99ae3d74f9aa0000000000000000000000000000000000000000000000001bc16d674ec8000000000000000000000000000000000000000000000000000000000000, 4000000, 210000, 21000, 1, 1000000000, 0x0000000000000000000000000000000000000000, 0x2bc3638ca4c1ce9e04c092a6474afe34ad780cd2f5f99c7f7b341df2f40b7a8c432cff21c0ef3cda1b707b70bcbcd4be16d963bb8c91931787b55e8a1d8ed87a1b722fd31c4a85e1c12ddf503959d755d690de1dd07f9c9ef9cf306d1536b29f7f520150e291c8cccf18d9bd162bea37dcad70ec2df92f93e48bd8ee7ef9e569291c)]",
        "0x660ad4B5A74130a4796B4d54BC6750Ae93C86e6c"
      ],
      "transaction": {
        "from": "0x660ad4b5a74130a4796b4d54bc6750ae93c86e6c",
        "to": "0x2843c269d2a64ecfa63548e8b3fc0fd23b7f70cb",
        "value": "0x0",
        "input": "0x1fad948c0000000000000000000000000000000000000000000000000000000000000040000000000000000000000000660ad4b5a74130a4796b4d54bc6750ae93c86e6c000000000000000000000000000000000000000000000000000000000000000100000000000000000000000000000000000000000000000000000000000000200000000000000000000000002e2b1c42e38f5af81771e65d87729e57abd1337a000000000000000000000000000000000000000000000000000000000000112a0000000000000000000000000000000000000000000000000000000000000160000000000000000000000000000000000000000000000000000000000000018000000000000000000000000000000000000000000000000000000000003d0900000000000000000000000000000000000000000000000000000000000003345000000000000000000000000000000000000000000000000000000000000052080000000000000000000000000000000000000000000000000000000000000001000000000000000000000000000000000000000000000000000000003b9aca0000000000000000000000000000000000000000000000000000000000000002a000000000000000000000000000000000000000000000000000000000000002e0000000000000000000000000000000000000000000000000000000000000000000000000000000000000000000000000000000000000000000000000000000e4b61d27f6000000000000000000000000010700808d59d2bb92257fcafacfe8e5bff7ab870000000000000000000000000000000000000000000000000000000000000000000000000000000000000000000000000000000000000000000000000000006000000000000000000000000000000000000000000000000000000000000000449dc29fac000000000000000000000000d157904639e89df05e89e0dabeec99ae3d74f9aa0000000000000000000000000000000000000000000000001bc16d674ec8000000000000000000000000000000000000000000000000000000000000000000000000000000000000000000000000000000000000000000000000000000000000000000000000000000000000000000000000000000000014000000000000000000000000000000000000000000000000000000000000000000000000000000000000000000000000000000000000000000000000000000822bc3638ca4c1ce9e04c092a6474afe34ad780cd2f5f99c7f7b341df2f40b7a8c432cff21c0ef3cda1b707b70bcbcd4be16d963bb8c91931787b55e8a1d8ed87a1b722fd31c4a85e1c12ddf503959d755d690de1dd07f9c9ef9cf306d1536b29f7f520150e291c8cccf18d9bd162bea37dcad70ec2df92f93e48bd8ee7ef9e569291c000000000000000000000000000000000000000000000000000000000000",
        "nonce": "0x4bc55",
        "chainId": "0x1ecf"
      },
      "additionalContracts": [],
      "isFixedGasLimit": false
    },
    {
      "hash": "0x321c9215dcdf001dc70498099a1163b4c5f19fdbe743bfb592165343c9dc89f8",
      "transactionType": "CALL",
      "contractName": null,
      "contractAddress": "0x2843c269d2a64ecfa63548e8b3fc0fd23b7f70cb",
      "function": "handleOps((address,uint256,bytes,bytes,uint256,uint256,uint256,uint256,uint256,bytes,bytes)[],address)",
      "arguments": [
        "[(0x2e2B1c42E38f5af81771e65D87729E57ABD1337a, 4395, 0x, 0xb61d27f6000000000000000000000000010700808d59d2bb92257fcafacfe8e5bff7ab8700000000000000000000000000000000000000000000000000000000000000000000000000000000000000000000000000000000000000000000000000000060000000000000000000000000000000000000000000000000000000000000004440c10f190000000000000000000000008a4618e6027a07ceed8e977d80343d8a9fd169470000000000000000000000000000000000000000000000000de0b6b3a764000000000000000000000000000000000000000000000000000000000000, 4000000, 210000, 21000, 1, 1000000000, 0x0000000000000000000000000000000000000000, 0xc64e42948c2a71c0c1b59873248a4eadea0f076a66e895627c7f4367f6ea16a4342948f0ecf7987660d0f080901e970bdf745cd5fc742f48bd127a45852772641c8dcee2cb65d54bcd8df2435b405da8daa6bb25dd7c43ac8caa72b82423f93e3719ac05952274c35dca8a4d7ebf163070c270213c0d32b812d1ad2316961b3d551b)]",
        "0x660ad4B5A74130a4796B4d54BC6750Ae93C86e6c"
      ],
      "transaction": {
        "from": "0x660ad4b5a74130a4796b4d54bc6750ae93c86e6c",
        "to": "0x2843c269d2a64ecfa63548e8b3fc0fd23b7f70cb",
        "value": "0x0",
        "input": "0x1fad948c0000000000000000000000000000000000000000000000000000000000000040000000000000000000000000660ad4b5a74130a4796b4d54bc6750ae93c86e6c000000000000000000000000000000000000000000000000000000000000000100000000000000000000000000000000000000000000000000000000000000200000000000000000000000002e2b1c42e38f5af81771e65d87729e57abd1337a000000000000000000000000000000000000000000000000000000000000112b0000000000000000000000000000000000000000000000000000000000000160000000000000000000000000000000000000000000000000000000000000018000000000000000000000000000000000000000000000000000000000003d0900000000000000000000000000000000000000000000000000000000000003345000000000000000000000000000000000000000000000000000000000000052080000000000000000000000000000000000000000000000000000000000000001000000000000000000000000000000000000000000000000000000003b9aca0000000000000000000000000000000000000000000000000000000000000002a000000000000000000000000000000000000000000000000000000000000002e0000000000000000000000000000000000000000000000000000000000000000000000000000000000000000000000000000000000000000000000000000000e4b61d27f6000000000000000000000000010700808d59d2bb92257fcafacfe8e5bff7ab8700000000000000000000000000000000000000000000000000000000000000000000000000000000000000000000000000000000000000000000000000000060000000000000000000000000000000000000000000000000000000000000004440c10f190000000000000000000000008a4618e6027a07ceed8e977d80343d8a9fd169470000000000000000000000000000000000000000000000000de0b6b3a76400000000000000000000000000000000000000000000000000000000000000000000000000000000000000000000000000000000000000000000000000000000000000000000000000000000000000000000000000000000001400000000000000000000000000000000000000000000000000000000000000000000000000000000000000000000000000000000000000000000000000000082c64e42948c2a71c0c1b59873248a4eadea0f076a66e895627c7f4367f6ea16a4342948f0ecf7987660d0f080901e970bdf745cd5fc742f48bd127a45852772641c8dcee2cb65d54bcd8df2435b405da8daa6bb25dd7c43ac8caa72b82423f93e3719ac05952274c35dca8a4d7ebf163070c270213c0d32b812d1ad2316961b3d551b000000000000000000000000000000000000000000000000000000000000",
        "nonce": "0x4bc56",
        "chainId": "0x1ecf"
      },
      "additionalContracts": [],
      "isFixedGasLimit": false
    },
    {
      "hash": "0xa6dca17b8ac6e4106740ebaf6180cc1691d83f89a021634582e4877f373a7e32",
      "transactionType": "CALL",
      "contractName": null,
      "contractAddress": "0x2843c269d2a64ecfa63548e8b3fc0fd23b7f70cb",
      "function": "handleOps((address,uint256,bytes,bytes,uint256,uint256,uint256,uint256,uint256,bytes,bytes)[],address)",
      "arguments": [
        "[(0x2e2B1c42E38f5af81771e65D87729E57ABD1337a, 4396, 0x, 0xb61d27f6000000000000000000000000010700808d59d2bb92257fcafacfe8e5bff7ab8700000000000000000000000000000000000000000000000000000000000000000000000000000000000000000000000000000000000000000000000000000060000000000000000000000000000000000000000000000000000000000000004440c10f1900000000000000000000000017b490bc04784e27fbec47c269bbde4b9b35ca2d0000000000000000000000000000000000000000000000000de0b6b3a764000000000000000000000000000000000000000000000000000000000000, 4000000, 210000, 21000, 1, 1000000000, 0x0000000000000000000000000000000000000000, 0xee1d336d12380070f75fbb86178948f22a7b13768fb254ce992ece6d9ea1dff9090d977356f8416bfbdce41c8deeda39c251546145b6128f4438c9c72e0456381bf1d6d246bd658d920c1cacf51d751c7acf59dcabf7c6ab1cf16bd3fbf5f0644f1a08acf06da34d14fc195a00ef5517851807c9f43e5f7bc678496606918a99cf1b)]",
        "0x660ad4B5A74130a4796B4d54BC6750Ae93C86e6c"
      ],
      "transaction": {
        "from": "0x660ad4b5a74130a4796b4d54bc6750ae93c86e6c",
        "to": "0x2843c269d2a64ecfa63548e8b3fc0fd23b7f70cb",
        "value": "0x0",
        "input": "0x1fad948c0000000000000000000000000000000000000000000000000000000000000040000000000000000000000000660ad4b5a74130a4796b4d54bc6750ae93c86e6c000000000000000000000000000000000000000000000000000000000000000100000000000000000000000000000000000000000000000000000000000000200000000000000000000000002e2b1c42e38f5af81771e65d87729e57abd1337a000000000000000000000000000000000000000000000000000000000000112c0000000000000000000000000000000000000000000000000000000000000160000000000000000000000000000000000000000000000000000000000000018000000000000000000000000000000000000000000000000000000000003d0900000000000000000000000000000000000000000000000000000000000003345000000000000000000000000000000000000000000000000000000000000052080000000000000000000000000000000000000000000000000000000000000001000000000000000000000000000000000000000000000000000000003b9aca0000000000000000000000000000000000000000000000000000000000000002a000000000000000000000000000000000000000000000000000000000000002e0000000000000000000000000000000000000000000000000000000000000000000000000000000000000000000000000000000000000000000000000000000e4b61d27f6000000000000000000000000010700808d59d2bb92257fcafacfe8e5bff7ab8700000000000000000000000000000000000000000000000000000000000000000000000000000000000000000000000000000000000000000000000000000060000000000000000000000000000000000000000000000000000000000000004440c10f1900000000000000000000000017b490bc04784e27fbec47c269bbde4b9b35ca2d0000000000000000000000000000000000000000000000000de0b6b3a76400000000000000000000000000000000000000000000000000000000000000000000000000000000000000000000000000000000000000000000000000000000000000000000000000000000000000000000000000000000001400000000000000000000000000000000000000000000000000000000000000000000000000000000000000000000000000000000000000000000000000000082ee1d336d12380070f75fbb86178948f22a7b13768fb254ce992ece6d9ea1dff9090d977356f8416bfbdce41c8deeda39c251546145b6128f4438c9c72e0456381bf1d6d246bd658d920c1cacf51d751c7acf59dcabf7c6ab1cf16bd3fbf5f0644f1a08acf06da34d14fc195a00ef5517851807c9f43e5f7bc678496606918a99cf1b000000000000000000000000000000000000000000000000000000000000",
        "nonce": "0x4bc57",
        "chainId": "0x1ecf"
      },
      "additionalContracts": [],
      "isFixedGasLimit": false
    }
  ],
  "receipts": [
    {
      "status": "0x1",
      "cumulativeGasUsed": "0x4f6b2",
      "logs": [
        {
          "address": "0x2843c269d2a64ecfa63548e8b3fc0fd23b7f70cb",
          "topics": [
            "0xbb47ee3e183a558b1a2ff0874b079f3fc5478b7454eacf2bfc5af2ff5878f972"
          ],
          "data": "0x",
          "blockHash": "0xb854c90fad51189902070812255e63b4cc7d025bbe31f28a9ad8e921e1cd34ca",
          "blockNumber": "0xaf0c2",
          "transactionHash": "0x530948827f10c3b79057498f33ebf09a4b55e1cbcad44d27b20f891b00014d98",
          "transactionIndex": "0x1",
          "logIndex": "0x0",
          "removed": false
        },
        {
          "address": "0x010700808d59d2bb92257fcafacfe8e5bff7ab87",
          "topics": [
            "0xddf252ad1be2c89b69c2b068fc378daa952ba7f163c4a11628f55a4df523b3ef",
            "0x000000000000000000000000d157904639e89df05e89e0dabeec99ae3d74f9aa",
            "0x0000000000000000000000000000000000000000000000000000000000000000"
          ],
          "data": "0x0000000000000000000000000000000000000000000000001bc16d674ec80000",
          "blockHash": "0xb854c90fad51189902070812255e63b4cc7d025bbe31f28a9ad8e921e1cd34ca",
          "blockNumber": "0xaf0c2",
          "transactionHash": "0x530948827f10c3b79057498f33ebf09a4b55e1cbcad44d27b20f891b00014d98",
          "transactionIndex": "0x1",
          "logIndex": "0x1",
          "removed": false
        },
        {
          "address": "0x2843c269d2a64ecfa63548e8b3fc0fd23b7f70cb",
          "topics": [
            "0x49628fd1471006c1482da88028e9ce4dbb080b815c9b0344d39e5a8e6ec1419f",
            "0x27528f41d74ef354925b24cca4b4a1db315bb7de6d24b58a623dcec775da418a",
            "0x0000000000000000000000002e2b1c42e38f5af81771e65d87729e57abd1337a",
            "0x0000000000000000000000000000000000000000000000000000000000000000"
          ],
          "data": "0x000000000000000000000000000000000000000000000000000000000000112a0000000000000000000000000000000000000000000000000000000000000001000000000000000000000000000000000000000000000000000000000008ebc5000000000000000000000000000000000000000000000000000000000008ebc5",
          "blockHash": "0xb854c90fad51189902070812255e63b4cc7d025bbe31f28a9ad8e921e1cd34ca",
          "blockNumber": "0xaf0c2",
          "transactionHash": "0x530948827f10c3b79057498f33ebf09a4b55e1cbcad44d27b20f891b00014d98",
          "transactionIndex": "0x1",
          "logIndex": "0x2",
          "removed": false
        }
      ],
      "logsBloom": "0x00002000000400000000000004000000000000000000000000000000000001000008000000000000000000010000000000000000000000000000020000000000000000000000000000000008000000000000000000000000000000000000000800000000020000000000000000000800002000000000000000000010000000000000000000000000000000000000800000000000000000000000000000000000401400000000000000400000000000000000000200000000000002000000000000000002000000100001000000000000000000000000000000000000000020000000000000010000000000000000800000000000000000000000000000000800",
      "type": "0x2",
      "transactionHash": "0x530948827f10c3b79057498f33ebf09a4b55e1cbcad44d27b20f891b00014d98",
      "transactionIndex": "0x1",
      "blockHash": "0xb854c90fad51189902070812255e63b4cc7d025bbe31f28a9ad8e921e1cd34ca",
      "blockNumber": "0xaf0c2",
      "gasUsed": "0x4f6b2",
      "effectiveGasPrice": "0x5f5e100",
      "from": "0x660ad4b5a74130a4796b4d54bc6750ae93c86e6c",
      "to": "0x2843c269d2a64ecfa63548e8b3fc0fd23b7f70cb",
      "contractAddress": null,
      "gasUsedForL1": "0x19e8e",
      "l1BlockNumber": "0x14b9ecb"
    },
    {
      "status": "0x1",
      "cumulativeGasUsed": "0x49914",
      "logs": [
        {
          "address": "0x2843c269d2a64ecfa63548e8b3fc0fd23b7f70cb",
          "topics": [
            "0xbb47ee3e183a558b1a2ff0874b079f3fc5478b7454eacf2bfc5af2ff5878f972"
          ],
          "data": "0x",
          "blockHash": "0x5a29e352109258d7a48aac50c2a88d6448d217eeb6061cc03f7f0b8256bf95ca",
          "blockNumber": "0xaf0c3",
          "transactionHash": "0x321c9215dcdf001dc70498099a1163b4c5f19fdbe743bfb592165343c9dc89f8",
          "transactionIndex": "0x1",
          "logIndex": "0x0",
          "removed": false
        },
        {
          "address": "0x010700808d59d2bb92257fcafacfe8e5bff7ab87",
          "topics": [
            "0xddf252ad1be2c89b69c2b068fc378daa952ba7f163c4a11628f55a4df523b3ef",
            "0x0000000000000000000000000000000000000000000000000000000000000000",
            "0x0000000000000000000000008a4618e6027a07ceed8e977d80343d8a9fd16947"
          ],
          "data": "0x0000000000000000000000000000000000000000000000000de0b6b3a7640000",
          "blockHash": "0x5a29e352109258d7a48aac50c2a88d6448d217eeb6061cc03f7f0b8256bf95ca",
          "blockNumber": "0xaf0c3",
          "transactionHash": "0x321c9215dcdf001dc70498099a1163b4c5f19fdbe743bfb592165343c9dc89f8",
          "transactionIndex": "0x1",
          "logIndex": "0x1",
          "removed": false
        },
        {
          "address": "0x2843c269d2a64ecfa63548e8b3fc0fd23b7f70cb",
          "topics": [
            "0x49628fd1471006c1482da88028e9ce4dbb080b815c9b0344d39e5a8e6ec1419f",
            "0xc55f73ce2869848db5260d2fdea33f1c6bcf5214a3d74f72b2fc55856aa34c8f",
            "0x0000000000000000000000002e2b1c42e38f5af81771e65d87729e57abd1337a",
            "0x0000000000000000000000000000000000000000000000000000000000000000"
          ],
          "data": "0x000000000000000000000000000000000000000000000000000000000000112b000000000000000000000000000000000000000000000000000000000000000100000000000000000000000000000000000000000000000000000000000896dd00000000000000000000000000000000000000000000000000000000000896dd",
          "blockHash": "0x5a29e352109258d7a48aac50c2a88d6448d217eeb6061cc03f7f0b8256bf95ca",
          "blockNumber": "0xaf0c3",
          "transactionHash": "0x321c9215dcdf001dc70498099a1163b4c5f19fdbe743bfb592165343c9dc89f8",
          "transactionIndex": "0x1",
          "logIndex": "0x2",
          "removed": false
        }
      ],
      "logsBloom": "0x00000000000400000000000000000000000000000000000000000000000000000008000000020000000000010000000000000000000000000000020000000000000000000000000000000008000000000000000000000000000000000000000800000000020000000000000000000800002000000000000000000010000004000000000000000000000000000000800000000000000000000000000000000000001401000000000000400000000000000000000000000000000002000000000000000002000000100001000000000000000000000004000000000000000020000000000000010000000000000000800000000400000000000000000000000000",
      "type": "0x2",
      "transactionHash": "0x321c9215dcdf001dc70498099a1163b4c5f19fdbe743bfb592165343c9dc89f8",
      "transactionIndex": "0x1",
      "blockHash": "0x5a29e352109258d7a48aac50c2a88d6448d217eeb6061cc03f7f0b8256bf95ca",
      "blockNumber": "0xaf0c3",
      "gasUsed": "0x49914",
      "effectiveGasPrice": "0x5f5e100",
      "from": "0x660ad4b5a74130a4796b4d54bc6750ae93c86e6c",
      "to": "0x2843c269d2a64ecfa63548e8b3fc0fd23b7f70cb",
      "contractAddress": null,
      "gasUsedForL1": "0x19f47",
      "l1BlockNumber": "0x14b9ecb"
    },
    {
      "status": "0x1",
      "cumulativeGasUsed": "0x494a5",
      "logs": [
        {
          "address": "0x2843c269d2a64ecfa63548e8b3fc0fd23b7f70cb",
          "topics": [
            "0xbb47ee3e183a558b1a2ff0874b079f3fc5478b7454eacf2bfc5af2ff5878f972"
          ],
          "data": "0x",
          "blockHash": "0x094abba08beaa693bf100e297250865b7b03c7d0a8674858d74fb13b279f06d1",
          "blockNumber": "0xaf0c4",
          "transactionHash": "0xa6dca17b8ac6e4106740ebaf6180cc1691d83f89a021634582e4877f373a7e32",
          "transactionIndex": "0x1",
          "logIndex": "0x0",
          "removed": false
        },
        {
          "address": "0x010700808d59d2bb92257fcafacfe8e5bff7ab87",
          "topics": [
            "0xddf252ad1be2c89b69c2b068fc378daa952ba7f163c4a11628f55a4df523b3ef",
            "0x0000000000000000000000000000000000000000000000000000000000000000",
            "0x00000000000000000000000017b490bc04784e27fbec47c269bbde4b9b35ca2d"
          ],
          "data": "0x0000000000000000000000000000000000000000000000000de0b6b3a7640000",
          "blockHash": "0x094abba08beaa693bf100e297250865b7b03c7d0a8674858d74fb13b279f06d1",
          "blockNumber": "0xaf0c4",
          "transactionHash": "0xa6dca17b8ac6e4106740ebaf6180cc1691d83f89a021634582e4877f373a7e32",
          "transactionIndex": "0x1",
          "logIndex": "0x1",
          "removed": false
        },
        {
          "address": "0x2843c269d2a64ecfa63548e8b3fc0fd23b7f70cb",
          "topics": [
            "0x49628fd1471006c1482da88028e9ce4dbb080b815c9b0344d39e5a8e6ec1419f",
            "0xe7cce33f256a52931fedf1d7fba0285ede38daad1a06418715b9d08ffc2bea4a",
            "0x0000000000000000000000002e2b1c42e38f5af81771e65d87729e57abd1337a",
            "0x0000000000000000000000000000000000000000000000000000000000000000"
          ],
          "data": "0x000000000000000000000000000000000000000000000000000000000000112c000000000000000000000000000000000000000000000000000000000000000100000000000000000000000000000000000000000000000000000000000896dd00000000000000000000000000000000000000000000000000000000000896dd",
          "blockHash": "0x094abba08beaa693bf100e297250865b7b03c7d0a8674858d74fb13b279f06d1",
          "blockNumber": "0xaf0c4",
          "transactionHash": "0xa6dca17b8ac6e4106740ebaf6180cc1691d83f89a021634582e4877f373a7e32",
          "transactionIndex": "0x1",
          "logIndex": "0x2",
          "removed": false
        }
      ],
      "logsBloom": "0x00000000000400000000000000000000000000000000000000000000000000000008000000000000000000010000000000000000002000000000020000000000000000000000000000000008000000040000000000000000000000000000001800000000060000000000000000000800002000000000000000000010000000000000000020000001000000000000800000000000000000000000000000000000001400000000000000400000000000000000000000000000000002000000000000000002000000100001000000000000000000000000000000000000000020000000000000010000000000000000800000000000000000000000000000000000",
      "type": "0x2",
      "transactionHash": "0xa6dca17b8ac6e4106740ebaf6180cc1691d83f89a021634582e4877f373a7e32",
      "transactionIndex": "0x1",
      "blockHash": "0x094abba08beaa693bf100e297250865b7b03c7d0a8674858d74fb13b279f06d1",
      "blockNumber": "0xaf0c4",
      "gasUsed": "0x494a5",
      "effectiveGasPrice": "0x5f5e100",
      "from": "0x660ad4b5a74130a4796b4d54bc6750ae93c86e6c",
      "to": "0x2843c269d2a64ecfa63548e8b3fc0fd23b7f70cb",
      "contractAddress": null,
      "gasUsedForL1": "0x19af0",
      "l1BlockNumber": "0x14b9ecb"
    }
  ],
  "libraries": [],
  "pending": [],
  "returns": {},
  "timestamp": 1738188478,
  "chain": 7887,
  "commit": "a13647a3"
}