{
  "transactions": [
    {
      "hash": "0x27dca8ac3d30c3c7e4b024a8a8410e645e4548eead5f9c5427f8ac999161bc9c",
      "transactionType": "CREATE2",
      "contractName": "StakedKinto",
      "contractAddress": "0x4300c8de6d37dc26942c9e4e0b12adfa948d507e",
      "function": null,
      "arguments": null,
      "transaction": {
        "from": "0x660ad4b5a74130a4796b4d54bc6750ae93c86e6c",
        "to": "0x4e59b44847b379578588920ca78fbf26c0b4956c",
        "value": "0x0",
        "input": "0x000000000000000000000000000000000000000000000000000000000000000060a06040523060805234801562000014575f80fd5b506200001f62000025565b620000e3565b5f54610100900460ff1615620000915760405162461bcd60e51b815260206004820152602760248201527f496e697469616c697a61626c653a20636f6e747261637420697320696e697469604482015266616c697a696e6760c81b606482015260840160405180910390fd5b5f5460ff90811614620000e1575f805460ff191660ff9081179091556040519081527f7f26b83ff96e1f2b6a682f133852f6798a09c465da95921460cefb38474024989060200160405180910390a15b565b608051613ee6620001185f395f8181610bbf01528181610c0801528181610e2001528181610e600152610ef10152613ee65ff3fe60806040526004361061028a575f3560e01c8063715018a611610155578063b460af94116100be578063d905777e11610078578063d905777e14610803578063db034fd814610822578063dd62ed3e14610841578063ef8b30f7146107c5578063f2fde38b14610860578063f537041f1461087f575f80fd5b8063b460af9414610749578063ba08765214610768578063beb8314c14610787578063c63d75b6146107a6578063c6e6f592146107c5578063ce96cb77146107e4575f80fd5b806395d89b411161010f57806395d89b41146106a3578063983e49b3146106b7578063988e6595146106d6578063a457c2d7146106ec578063a9059cbb1461070b578063b3d7f6b91461072a575f80fd5b8063715018a6146105f657806376b274281461060a5780637f77a293146106295780638040a95e146106485780638da5cb5b1461066757806394bf804d14610684575f80fd5b806334c39b75116101f7578063453d91c1116101b1578063453d91c11461055d5780634cdad506146103105780634f1ef2861461057c57806352d1902d1461058f5780636e553f65146105a357806370a08231146105c2575f80fd5b806334c39b751461048f5780633659cfe6146104b057806338d52e0f146104cf5780633950935114610500578063402d267d1461051f578063450f373c1461053e575f80fd5b80631714f29e116102485780631714f29e1461037d57806318160ddd146103ac57806323b872dd146103c05780632af2311d146103df5780632f59f6901461042f578063313ce56714610469575f80fd5b8062ae5faa1461028e57806301e1d114146102cd57806306fdde03146102ef57806307a2d13a14610310578063095ea7b31461032f5780630a28a4771461035e575b5f80fd5b348015610299575f80fd5b506102ad6102a8366004613560565b6108c3565b604080519384526020840192909252908201526060015b60405180910390f35b3480156102d8575f80fd5b506102e161090a565b6040519081526020016102c4565b3480156102fa575f80fd5b50610303610979565b6040516102c491906135d7565b34801561031b575f80fd5b506102e161032a3660046135e9565b610a09565b34801561033a575f80fd5b5061034e610349366004613560565b610a1a565b60405190151581526020016102c4565b348015610369575f80fd5b506102e16103783660046135e9565b610a31565b348015610388575f80fd5b5061034e610397366004613600565b6101326020525f908152604090205460ff1681565b3480156103b7575f80fd5b506035546102e1565b3480156103cb575f80fd5b5061034e6103da36600461361b565b610a3d565b3480156103ea575f80fd5b506103fe6103f93660046135e9565b610a62565b6040805195865260208601949094529284019190915260608301526001600160a01b0316608082015260a0016102c4565b34801561043a575f80fd5b5061034e610449366004613659565b61013060209081525f928352604080842090915290825290205460ff1681565b348015610474575f80fd5b5061047d610ae8565b60405160ff90911681526020016102c4565b34801561049a575f80fd5b506104ae6104a93660046136cf565b610b01565b005b3480156104bb575f80fd5b506104ae6104ca366004613600565b610bb5565b3480156104da575f80fd5b506065546001600160a01b03165b6040516001600160a01b0390911681526020016102c4565b34801561050b575f80fd5b5061034e61051a366004613560565b610c9b565b34801561052a575f80fd5b506102e1610539366004613600565b610cbc565b348015610549575f80fd5b506104ae610558366004613743565b610cc5565b348015610568575f80fd5b506104ae6105773660046135e9565b610da7565b6104ae61058a3660046137ee565b610e16565b34801561059a575f80fd5b506102e1610ee5565b3480156105ae575f80fd5b506102e16105bd366004613659565b610f96565b3480156105cd575f80fd5b506102e16105dc366004613600565b6001600160a01b03165f9081526033602052604090205490565b348015610601575f80fd5b506104ae610fb0565b348015610615575f80fd5b506104ae610624366004613560565b610fc3565b348015610634575f80fd5b506104ae61064336600461384e565b611158565b348015610653575f80fd5b506104ae6106623660046136cf565b61116c565b348015610672575f80fd5b5060fb546001600160a01b03166104e8565b34801561068f575f80fd5b506102e161069e366004613659565b6111ce565b3480156106ae575f80fd5b506103036111f0565b3480156106c2575f80fd5b506104ae6106d13660046138aa565b6111ff565b3480156106e1575f80fd5b506102e161012f5481565b3480156106f7575f80fd5b5061034e610706366004613560565b611387565b348015610716575f80fd5b5061034e610725366004613560565b61140c565b348015610735575f80fd5b506102e16107443660046135e9565b611419565b348015610754575f80fd5b506102e1610763366004613949565b611425565b348015610773575f80fd5b506102e1610782366004613949565b611443565b348015610792575f80fd5b506102e16107a1366004613560565b611459565b3480156107b1575f80fd5b506102e16107c0366004613600565b611645565b3480156107d0575f80fd5b506102e16107df3660046135e9565b611657565b3480156107ef575f80fd5b506102e16107fe366004613600565b611662565b34801561080e575f80fd5b506102e161081d366004613600565b61166c565b34801561082d575f80fd5b506102e161083c366004613988565b611683565b34801561084c575f80fd5b506102e161085b3660046139ac565b6116a5565b34801561086b575f80fd5b506104ae61087a366004613600565b6116cf565b34801561088a575f80fd5b506102e1610899366004613560565b5f908152610131602090815260408083206001600160a01b03949094168352929052206002015490565b5f818152610131602090815260408083206001600160a01b03861684529091528120805460018201548392839290916108fc8888611459565b935093509350509250925092565b6065546040516370a0823160e01b81523060048201525f916001600160a01b0316906370a0823190602401602060405180830381865afa158015610950573d5f803e3d5ffd5b505050506040513d601f19601f8201168201806040525081019061097491906139d8565b905090565b606060368054610988906139ef565b80601f01602080910402602001604051908101604052809291908181526020018280546109b4906139ef565b80156109ff5780601f106109d6576101008083540402835291602001916109ff565b820191905f5260205f20905b8154815290600101906020018083116109e257829003601f168201915b5050505050905090565b5f610a14825f611745565b92915050565b5f33610a2781858561177d565b5060019392505050565b5f610a148260016118a0565b5f33610a4a8582856118cf565b610a55858585611941565b60019150505b9392505050565b5f805f805f8061012e8781548110610a7c57610a7c613a27565b5f9182526020918290206040805160a0810182526005939093029091018054808452600182015494840185905260028201549284018390526003820154606085018190526004909201546001600160a01b031660809094018490529b939a509098509650945092505050565b5f806065546109749190600160a01b900460ff16613a4f565b610b09611af0565b5f5b83811015610bae57610b5d838383818110610b2857610b28613a27565b90506020020135868684818110610b4157610b41613a27565b9050602002016020810190610b569190613600565b6001611b4a565b50610ba6858583818110610b7357610b73613a27565b9050602002016020810190610b889190613600565b848484818110610b9a57610b9a613a27565b90506020020135611d89565b600101610b0b565b5050505050565b6001600160a01b037f0000000000000000000000000000000000000000000000000000000000000000163003610c065760405162461bcd60e51b8152600401610bfd90613a68565b60405180910390fd5b7f00000000000000000000000000000000000000000000000000000000000000006001600160a01b0316610c4e5f80516020613e6a833981519152546001600160a01b031690565b6001600160a01b031614610c745760405162461bcd60e51b8152600401610bfd90613ab4565b610c7d81611e4f565b604080515f80825260208201909252610c9891839190611e57565b50565b5f33610a27818585610cad83836116a5565b610cb79190613b00565b61177d565b5f610a14611fc6565b335f9081526033602052604090205480841180610cf15750335f908152610132602052604090205460ff165b15610d0f57604051636ba4a1c760e01b815260040160405180910390fd5b8215610d34575f610d1f85610a09565b9050610d2e3333338489612076565b50610d41565b610d3f843384611b4a565b505b5f64e8d4a5100084610d5d57610d58600287613b27565b610d68565b610d68600487613b27565b610d729190613b27565b335f81815261013260205260409020805460ff1916600117905561012d54919250610bae916001600160a01b03169083612122565b610daf611af0565b8061012e61012f5481548110610dc757610dc7613a27565b905f5260205f209060050201600301819055507f8b8564868e5db4ac945b0fd897338876dcc0c95a5f183b340f47285ebbcb6af181604051610e0b91815260200190565b60405180910390a150565b6001600160a01b037f0000000000000000000000000000000000000000000000000000000000000000163003610e5e5760405162461bcd60e51b8152600401610bfd90613a68565b7f00000000000000000000000000000000000000000000000000000000000000006001600160a01b0316610ea65f80516020613e6a833981519152546001600160a01b031690565b6001600160a01b031614610ecc5760405162461bcd60e51b8152600401610bfd90613ab4565b610ed582611e4f565b610ee182826001611e57565b5050565b5f306001600160a01b037f00000000000000000000000000000000000000000000000000000000000000001614610f845760405162461bcd60e51b815260206004820152603860248201527f555550535570677261646561626c653a206d757374206e6f742062652063616c60448201527f6c6564207468726f7567682064656c656761746563616c6c00000000000000006064820152608401610bfd565b505f80516020613e6a83398151915290565b5f610fa5838361012f54611b4a565b50610a5b8383612185565b610fb8611af0565b610fc15f6121f6565b565b610fcb611af0565b5f81116110075760405162461bcd60e51b815260206004820152600a6024820152695a65726f53686172657360b01b6044820152606401610bfd565b5f61101182610a09565b61012f545f908152610131602090815260408083206001600160a01b03881684528252918290208251808401909352600683526561737365747360d01b918301919091529192506110629083612247565b611090604051806040016040528060098152602001681cdd0b985b5bdd5b9d60ba1b815250825f0154612247565b80548211156110d45760405162461bcd60e51b815260206004820152601060248201526f4275726e457863656564735374616b6560801b6044820152606401610bfd565b81815f015f8282546110e69190613b46565b909155505080545f036111485761012f80545f908152610131602090815260408083206001600160a01b0389168085529083528184208481556001810185905560020184905593548352610130825280832093835292905220805460ff191690555b611152848461228c565b50505050565b611160611af0565b611152848484846123c4565b611174611af0565b5f5b83811015610bae576111c685858381811061119357611193613a27565b90506020020160208101906111a89190613600565b8484848181106111ba576111ba613a27565b90506020020135610fc3565b600101611176565b5f6111e56111db84610a09565b8361012f54611b4a565b50610a5b838361259e565b606060378054610988906139ef565b5f54610100900460ff161580801561121d57505f54600160ff909116105b806112365750303b15801561123657505f5460ff166001145b6112995760405162461bcd60e51b815260206004820152602e60248201527f496e697469616c697a61626c653a20636f6e747261637420697320616c72656160448201526d191e481a5b9a5d1a585b1a5e995960921b6064820152608401610bfd565b5f805460ff1916600117905580156112ba575f805461ff0019166101001790555b6112c38861260f565b6112cd848461263e565b6112d561267d565b6112dd6126ac565b61012d80546001600160a01b0319166001600160a01b0389161790556113058587848a6123c4565b6040518281527f8b8564868e5db4ac945b0fd897338876dcc0c95a5f183b340f47285ebbcb6af19060200160405180910390a1801561137d575f805461ff0019169055604051600181527f7f26b83ff96e1f2b6a682f133852f6798a09c465da95921460cefb38474024989060200160405180910390a15b5050505050505050565b5f338161139482866116a5565b9050838110156113f45760405162461bcd60e51b815260206004820152602560248201527f45524332303a2064656372656173656420616c6c6f77616e63652062656c6f77604482015264207a65726f60d81b6064820152608401610bfd565b611401828686840361177d565b506001949350505050565b5f33610a27818585611941565b5f610a14826001611745565b5f61143082846126d2565b61143b848484612906565b949350505050565b5f61144e82846126d2565b61143b848484612978565b5f8061012e838154811061146f5761146f613a27565b5f91825260208083206040805160a081018252600590940290910180548452600180820154858501526002808301548685015260038301546060808801919091526004909301546001600160a01b0390811660808801528a88526101318652848820908c1688528552958390208351928301845280548084529181015494830194909452929094015490840152909250158061152d57505f848152610130602090815260408083206001600160a01b038916845290915290205460ff165b1561153c575f92505050610a14565b5f816020015183602001516115519190613b46565b60808401519091505f906001600160a01b031661157a5761012d546001600160a01b0316611580565b83608001515b9050806001600160a01b031663313ce5676040518163ffffffff1660e01b8152600401602060405180830381865afa1580156115be573d5f803e3d5ffd5b505050506040513d601f19601f820116820180604052508101906115e29190613b59565b6115ed906012613b79565b6115f890600a613c72565b6301e13380838660400151865f01516116119190613c80565b61161b9190613c80565b6116259190613b27565b61162f9190613b27565b61163a906002613c80565b979650505050505050565b5f610a14611651611fc6565b5f6118a0565b5f610a14825f6118a0565b5f610a14826129ea565b5f80611677836129ea565b9050610a5b815f6118a0565b5f80611690858585611b4a565b905061169c8185612185565b95945050505050565b6001600160a01b039182165f90815260346020908152604080832093909416825291909152205490565b6116d7611af0565b6001600160a01b03811661173c5760405162461bcd60e51b815260206004820152602660248201527f4f776e61626c653a206e6577206f776e657220697320746865207a65726f206160448201526564647265737360d01b6064820152608401610bfd565b610c98816121f6565b5f610a5b61175161090a565b61175c906001613b00565b6117675f600a613c72565b6035546117749190613b00565b85919085612b6f565b6001600160a01b0383166117df5760405162461bcd60e51b8152602060048201526024808201527f45524332303a20617070726f76652066726f6d20746865207a65726f206164646044820152637265737360e01b6064820152608401610bfd565b6001600160a01b0382166118405760405162461bcd60e51b815260206004820152602260248201527f45524332303a20617070726f766520746f20746865207a65726f206164647265604482015261737360f01b6064820152608401610bfd565b6001600160a01b038381165f8181526034602090815260408083209487168084529482529182902085905590518481527f8c5be1e5ebec7d5bd14f71427d1e84f3dd0314c0f7b2291e5b200ac8c7c3b925910160405180910390a3505050565b5f610a5b6118af82600a613c72565b6035546118bc9190613b00565b6118c461090a565b611774906001613b00565b5f6118da84846116a5565b90505f19811461115257818110156119345760405162461bcd60e51b815260206004820152601d60248201527f45524332303a20696e73756666696369656e7420616c6c6f77616e63650000006044820152606401610bfd565b611152848484840361177d565b6001600160a01b0383166119a55760405162461bcd60e51b815260206004820152602560248201527f45524332303a207472616e736665722066726f6d20746865207a65726f206164604482015264647265737360d81b6064820152608401610bfd565b6001600160a01b038216611a075760405162461bcd60e51b815260206004820152602360248201527f45524332303a207472616e7366657220746f20746865207a65726f206164647260448201526265737360e81b6064820152608401610bfd565b6001600160a01b0383165f9081526033602052604090205481811015611a7e5760405162461bcd60e51b815260206004820152602660248201527f45524332303a207472616e7366657220616d6f756e7420657863656564732062604482015265616c616e636560d01b6064820152608401610bfd565b6001600160a01b038085165f8181526033602052604080822086860390559286168082529083902080548601905591517fddf252ad1be2c89b69c2b068fc378daa952ba7f163c4a11628f55a4df523b3ef90611add9086815260200190565b60405180910390a3611152848484612bc8565b60fb546001600160a01b03163314610fc15760405162461bcd60e51b815260206004820181905260248201527f4f776e61626c653a2063616c6c6572206973206e6f7420746865206f776e65726044820152606401610bfd565b5f8061012e61012f5481548110611b6357611b63613a27565b5f9182526020918290206040805160a0810182526005909302909101805483526001810154938301939093526002830154908201526003820154606082018190526004909201546001600160a01b03166080820152915085611bc361090a565b611bcd9190613b00565b1115611bec5760405163fb2f5aff60e01b815260040160405180910390fd5b845f03611c0c57604051636ba4a1c760e01b815260040160405180910390fd5b61012f545f908152610131602090815260408083206001600160a01b03881684529091529020805415611c7f578054611c46908790613b00565b611c504288613c80565b60018301548354611c619190613c80565b611c6b9190613b00565b611c759190613b27565b6001820155611c86565b4260018201555b8060020154841115611c9a57600281018490555b5f61012f54851115611d0d575f61012f5486611cb69190613b46565b90506002611cc5826007613b00565b611ccf9083613c80565b611ce090662386f26fc10000613c80565b611cea9190613b27565b9150670de0b6b3a7640000611cff8984613c80565b611d099190613b27565b9150505b611d178188613b00565b825f015f828254611d289190613b00565b9091555050815460018301546040516001600160a01b038916927ff3ee618df6e6ff5a26ef25cf1ba9bc24b56492f5ff29acf2815121a2b903138a92611d7692918252602082015260400190565b60405180910390a2509495945050505050565b6001600160a01b038216611ddf5760405162461bcd60e51b815260206004820152601f60248201527f45524332303a206d696e7420746f20746865207a65726f2061646472657373006044820152606401610bfd565b8060355f828254611df09190613b00565b90915550506001600160a01b0382165f818152603360209081526040808320805486019055518481527fddf252ad1be2c89b69c2b068fc378daa952ba7f163c4a11628f55a4df523b3ef910160405180910390a3610ee15f8383612bc8565b610c98611af0565b7f4910fdfa16fed3260ed0e7147f7cc6da11a60208b5b9406d12a635614ffd91435460ff1615611e8f57611e8a83612e5c565b505050565b826001600160a01b03166352d1902d6040518163ffffffff1660e01b8152600401602060405180830381865afa925050508015611ee9575060408051601f3d908101601f19168201909252611ee6918101906139d8565b60015b611f4c5760405162461bcd60e51b815260206004820152602e60248201527f45524331393637557067726164653a206e657720696d706c656d656e7461746960448201526d6f6e206973206e6f74205555505360901b6064820152608401610bfd565b5f80516020613e6a8339815191528114611fba5760405162461bcd60e51b815260206004820152602960248201527f45524331393637557067726164653a20756e737570706f727465642070726f786044820152681a58589b195555525160ba1b6064820152608401610bfd565b50611e8a838383612ef7565b5f8061012e61012f5481548110611fdf57611fdf613a27565b5f9182526020918290206040805160a081018252600590930290910180548352600181015493830184905260028101549183019190915260038101546060830152600401546001600160a01b0316608082015291504210612041575f91505090565b5f61204a61090a565b90508160600151811061205f575f9250505090565b80826060015161206f9190613b46565b9250505090565b826001600160a01b0316856001600160a01b03161461209a5761209a8386836118cf565b6120a4838261228c565b6065546120bb906001600160a01b03168584612122565b826001600160a01b0316846001600160a01b0316866001600160a01b03167ffbde797d201c681b91056529119e0b02407c7bb96a4a2c75c01fc9667232c8db8585604051612113929190918252602082015260400190565b60405180910390a45050505050565b6040516001600160a01b038316602482015260448101829052611e8a90849063a9059cbb60e01b906064015b60408051601f198184030181529190526020810180516001600160e01b03166001600160e01b031990931692909217909152612f1b565b5f61218f82610cbc565b8311156121de5760405162461bcd60e51b815260206004820152601e60248201527f455243343632363a206465706f736974206d6f7265207468616e206d617800006044820152606401610bfd565b5f6121e884611657565b9050610a5b33848684612fee565b60fb80546001600160a01b038381166001600160a01b0319831681179093556040519116919082907f8be0079c531659141344cd1fd0a4f28419497f9722a3daafe3b4186f6b6457e0905f90a35050565b610ee1828260405160240161225d929190613c97565b60408051601f198184030181529190526020810180516001600160e01b0316632d839cb360e21b17905261306c565b6001600160a01b0382166122ec5760405162461bcd60e51b815260206004820152602160248201527f45524332303a206275726e2066726f6d20746865207a65726f206164647265736044820152607360f81b6064820152608401610bfd565b6001600160a01b0382165f908152603360205260409020548181101561235f5760405162461bcd60e51b815260206004820152602260248201527f45524332303a206275726e20616d6f756e7420657863656564732062616c616e604482015261636560f01b6064820152608401610bfd565b6001600160a01b0383165f8181526033602090815260408083208686039055603580548790039055518581529192917fddf252ad1be2c89b69c2b068fc378daa952ba7f163c4a11628f55a4df523b3ef910160405180910390a3611e8a835f84612bc8565b4284116123e457604051630863b93560e31b815260040160405180910390fd5b603283111561240657604051633c6be1b360e01b815260040160405180910390fd5b6040805160a0810182524267ffffffffffffffff908116825286166020820190815263ffffffff86169282019283526bffffffffffffffffffffffff8516606083019081526001600160a01b038581166080850190815261012e8054600180820183555f83905296517fbdaadd9f750d0166045bf387a364eadd28ba243e04512a47282aa5147a68e37f60059092029182015594517fbdaadd9f750d0166045bf387a364eadd28ba243e04512a47282aa5147a68e38086015595517fbdaadd9f750d0166045bf387a364eadd28ba243e04512a47282aa5147a68e38185015591517fbdaadd9f750d0166045bf387a364eadd28ba243e04512a47282aa5147a68e38284015590517fbdaadd9f750d0166045bf387a364eadd28ba243e04512a47282aa5147a68e38390920180546001600160a01b0319169290911691909117905590546125539190613b46565b61012f8190556040805191825242602083015281018590527f7c340dd6de5ce9e2e0657004cafac6257d607b24ac4460e6c14728065fab5f339060600160405180910390a150505050565b5f6125a882611645565b8311156125f75760405162461bcd60e51b815260206004820152601b60248201527f455243343632363a206d696e74206d6f7265207468616e206d617800000000006044820152606401610bfd565b5f61260184611419565b9050610a5b33848387612fee565b5f54610100900460ff166126355760405162461bcd60e51b8152600401610bfd90613cb8565b610c9881613075565b5f54610100900460ff166126645760405162461bcd60e51b8152600401610bfd90613cb8565b60366126708382613d47565b506037611e8a8282613d47565b5f54610100900460ff166126a35760405162461bcd60e51b8152600401610bfd90613cb8565b610fc1336121f6565b5f54610100900460ff16610fc15760405162461bcd60e51b8152600401610bfd90613cb8565b5f6126dc836129ea565b9050805f036126fe5760405163f765921560e01b815260040160405180910390fd5b5f5b61012f54811015611152575f818152610130602090815260408083206001600160a01b038816845290915290205460ff1615801561275f57505f818152610131602090815260408083206001600160a01b038816845290915290205415155b156128fe575f806001600160a01b031661012e838154811061278357612783613a27565b5f9182526020909120600460059092020101546001600160a01b0316036127b65761012d546001600160a01b03166127e7565b61012e82815481106127ca576127ca613a27565b5f9182526020909120600460059092020101546001600160a01b03165b90505f6127f48684611459565b6040516370a0823160e01b815230600482015290915081906001600160a01b038416906370a0823190602401602060405180830381865afa15801561283b573d5f803e3d5ffd5b505050506040513d601f19601f8201168201806040525081019061285f91906139d8565b101561287d57604051623857a360ea1b815260040160405180910390fd5b5f838152610130602090815260408083206001600160a01b03808b1685529252909120805460ff191660011790556128b89083168683612122565b856001600160a01b03167fdf29796aad820e4bb192f3a8d631b76519bcd2cbe77cc85af20e9df53cece086826040516128f391815260200190565b60405180910390a250505b600101612700565b5f61291082611662565b84111561295f5760405162461bcd60e51b815260206004820152601f60248201527f455243343632363a207769746864726177206d6f7265207468616e206d6178006044820152606401610bfd565b5f61296985610a31565b905061143b3385858885612076565b5f6129828261166c565b8411156129d15760405162461bcd60e51b815260206004820152601d60248201527f455243343632363a2072656465656d206d6f7265207468616e206d61780000006044820152606401610bfd565b5f6129db85610a09565b905061143b3385858489612076565b5f8061012e61012f5481548110612a0357612a03613a27565b5f91825260208083206040805160a08101825260059094029091018054845260018101548484015260028101548483015260038101546060850152600401546001600160a01b03908116608085015261012f54855261013183528185209088168552909152909120549091508015801590612a815750816020015142105b15612a8f57505f9392505050565b5f612a9861090a565b9050805f03612aab57505f949350505050565b81158015612abb57505f61012f54115b15612b67575f5b61012f54811015612b65575f818152610131602090815260408083206001600160a01b038a1684529091529020548015801590612b27575061012f545f838152610131602090815260408083206001600160a01b038c16845290915290206002015411155b15612b5c575f828152610131602090815260408083206001600160a01b038b168452909152902054612b599085613b00565b93505b50600101612ac2565b505b509392505050565b5f80612b7c8686866130f8565b90506001836002811115612b9257612b92613e07565b148015612bae57505f8480612ba957612ba9613b13565b868809115b1561169c57612bbe600182613b00565b9695505050505050565b6001600160a01b0383161580612be557506001600160a01b038216155b80612c015750816001600160a01b0316836001600160a01b0316145b15612c0b57505050565b5f5b61012f548111611152575f818152610131602090815260408083206001600160a01b038816845290915281208054909103612c485750612e4c565b5f828152610130602090815260408083206001600160a01b038916845290915290205460ff168015612c9d57505f828152610130602090815260408083206001600160a01b038816845290915290205460ff16155b15612cbb57604051635493d22d60e01b815260040160405180910390fd5b5f828152610131602090815260408083206001600160a01b038816845290915281208054909103612d24575f838152610131602090815260408083206001600160a01b038916845290915290208254815560018084015490820155600280840154910155612d93565b815481545f91612d3391613b00565b905080835f01548460010154612d499190613c80565b83546001850154612d5a9190613c80565b612d649190613b00565b612d6e9190613b27565b6001830155808255600280830154908401541115612d9157600280840154908301555b505b5f838152610130602090815260408083206001600160a01b038916845290915290205460ff1680612de657505f838152610130602090815260408083206001600160a01b038a16845290915290205460ff165b5f848152610130602090815260408083206001600160a01b038a81168552818452828520805496151560ff199788161790558885526101318452828520908c16855283528184208481556001810185905560020184905590915290208054909116905550505b612e5581613e1b565b9050612c0d565b6001600160a01b0381163b612ec95760405162461bcd60e51b815260206004820152602d60248201527f455243313936373a206e657720696d706c656d656e746174696f6e206973206e60448201526c1bdd08184818dbdb9d1c9858dd609a1b6064820152608401610bfd565b5f80516020613e6a83398151915280546001600160a01b0319166001600160a01b0392909216919091179055565b612f00836131dd565b5f82511180612f0c5750805b15611e8a57611152838361321c565b5f612f6f826040518060400160405280602081526020017f5361666545524332303a206c6f772d6c6576656c2063616c6c206661696c6564815250856001600160a01b03166132419092919063ffffffff16565b905080515f1480612f8f575080806020019051810190612f8f9190613e33565b611e8a5760405162461bcd60e51b815260206004820152602a60248201527f5361666545524332303a204552433230206f7065726174696f6e20646964206e6044820152691bdd081cdd58d8d9595960b21b6064820152608401610bfd565b606554613006906001600160a01b031685308561324f565b6130108382611d89565b826001600160a01b0316846001600160a01b03167fdcbc1c05240f31ff3ad067ef1ee35ce4997762752e3a095284754544f4c709d7848460405161305e929190918252602082015260400190565b60405180910390a350505050565b610c9881613287565b5f54610100900460ff1661309b5760405162461bcd60e51b8152600401610bfd90613cb8565b5f806130a6836132a7565b91509150816130b65760126130b8565b805b606580546001600160a01b039095166001600160a01b031960ff93909316600160a01b02929092166001600160a81b031990951694909417179092555050565b5f80805f19858709858702925082811083820303915050805f0361312f5783828161312557613125613b13565b0492505050610a5b565b8084116131765760405162461bcd60e51b81526020600482015260156024820152744d6174683a206d756c446976206f766572666c6f7760581b6044820152606401610bfd565b5f8486880960026001871981018816978890046003810283188082028403028082028403028082028403028082028403028082028403029081029092039091025f889003889004909101858311909403939093029303949094049190911702949350505050565b6131e681612e5c565b6040516001600160a01b038216907fbc7cd75a20ee27fd9adebab32041f755214dbc6bffa90cc0225b39da2e5c2d3b905f90a250565b6060610a5b8383604051806060016040528060278152602001613e8a6027913961337d565b606061143b84845f856133e7565b6040516001600160a01b03808516602483015283166044820152606481018290526111529085906323b872dd60e01b9060840161214e565b80516a636f6e736f6c652e6c6f67602083015f808483855afa5050505050565b60408051600481526024810182526020810180516001600160e01b031663313ce56760e01b17905290515f918291829182916001600160a01b038716916132ed91613e4e565b5f60405180830381855afa9150503d805f8114613325576040519150601f19603f3d011682016040523d82523d5f602084013e61332a565b606091505b509150915081801561333e57506020815110155b15613371575f8180602001905181019061335891906139d8565b905060ff811161336f576001969095509350505050565b505b505f9485945092505050565b60605f80856001600160a01b0316856040516133999190613e4e565b5f60405180830381855af49150503d805f81146133d1576040519150601f19603f3d011682016040523d82523d5f602084013e6133d6565b606091505b5091509150612bbe868383876134af565b6060824710156134485760405162461bcd60e51b815260206004820152602660248201527f416464726573733a20696e73756666696369656e742062616c616e636520666f6044820152651c8818d85b1b60d21b6064820152608401610bfd565b5f80866001600160a01b031685876040516134639190613e4e565b5f6040518083038185875af1925050503d805f811461349d576040519150601f19603f3d011682016040523d82523d5f602084013e6134a2565b606091505b509150915061163a878383875b6060831561351d5782515f03613516576001600160a01b0385163b6135165760405162461bcd60e51b815260206004820152601d60248201527f416464726573733a2063616c6c20746f206e6f6e2d636f6e74726163740000006044820152606401610bfd565b508161143b565b61143b83838151156135325781518083602001fd5b8060405162461bcd60e51b8152600401610bfd91906135d7565b6001600160a01b0381168114610c98575f80fd5b5f8060408385031215613571575f80fd5b823561357c8161354c565b946020939093013593505050565b5f5b838110156135a457818101518382015260200161358c565b50505f910152565b5f81518084526135c381602086016020860161358a565b601f01601f19169290920160200192915050565b602081525f610a5b60208301846135ac565b5f602082840312156135f9575f80fd5b5035919050565b5f60208284031215613610575f80fd5b8135610a5b8161354c565b5f805f6060848603121561362d575f80fd5b83356136388161354c565b925060208401356136488161354c565b929592945050506040919091013590565b5f806040838503121561366a575f80fd5b82359150602083013561367c8161354c565b809150509250929050565b5f8083601f840112613697575f80fd5b50813567ffffffffffffffff8111156136ae575f80fd5b6020830191508360208260051b85010111156136c8575f80fd5b9250929050565b5f805f80604085870312156136e2575f80fd5b843567ffffffffffffffff808211156136f9575f80fd5b61370588838901613687565b9096509450602087013591508082111561371d575f80fd5b5061372a87828801613687565b95989497509550505050565b8015158114610c98575f80fd5b5f805f60608486031215613755575f80fd5b83359250602084013561364881613736565b634e487b7160e01b5f52604160045260245ffd5b5f67ffffffffffffffff8084111561379557613795613767565b604051601f8501601f19908116603f011681019082821181831017156137bd576137bd613767565b816040528093508581528686860111156137d5575f80fd5b858560208301375f602087830101525050509392505050565b5f80604083850312156137ff575f80fd5b823561380a8161354c565b9150602083013567ffffffffffffffff811115613825575f80fd5b8301601f81018513613835575f80fd5b6138448582356020840161377b565b9150509250929050565b5f805f8060808587031215613861575f80fd5b84359350602085013592506040850135915060608501356138818161354c565b939692955090935050565b5f82601f83011261389b575f80fd5b610a5b8383356020850161377b565b5f805f805f805f60e0888a0312156138c0575f80fd5b87356138cb8161354c565b965060208801356138db8161354c565b95506040880135945060608801359350608088013567ffffffffffffffff80821115613905575f80fd5b6139118b838c0161388c565b945060a08a0135915080821115613926575f80fd5b506139338a828b0161388c565b92505060c0880135905092959891949750929550565b5f805f6060848603121561395b575f80fd5b83359250602084013561396d8161354c565b9150604084013561397d8161354c565b809150509250925092565b5f805f6060848603121561399a575f80fd5b8335925060208401356136488161354c565b5f80604083850312156139bd575f80fd5b82356139c88161354c565b9150602083013561367c8161354c565b5f602082840312156139e8575f80fd5b5051919050565b600181811c90821680613a0357607f821691505b602082108103613a2157634e487b7160e01b5f52602260045260245ffd5b50919050565b634e487b7160e01b5f52603260045260245ffd5b634e487b7160e01b5f52601160045260245ffd5b60ff8181168382160190811115610a1457610a14613a3b565b6020808252602c908201527f46756e6374696f6e206d7573742062652063616c6c6564207468726f7567682060408201526b19195b1959d85d1958d85b1b60a21b606082015260800190565b6020808252602c908201527f46756e6374696f6e206d7573742062652063616c6c6564207468726f7567682060408201526b6163746976652070726f787960a01b606082015260800190565b80820180821115610a1457610a14613a3b565b634e487b7160e01b5f52601260045260245ffd5b5f82613b4157634e487b7160e01b5f52601260045260245ffd5b500490565b81810381811115610a1457610a14613a3b565b5f60208284031215613b69575f80fd5b815160ff81168114610a5b575f80fd5b60ff8281168282160390811115610a1457610a14613a3b565b600181815b80851115613bcc57815f1904821115613bb257613bb2613a3b565b80851615613bbf57918102915b93841c9390800290613b97565b509250929050565b5f82613be257506001610a14565b81613bee57505f610a14565b8160018114613c045760028114613c0e57613c2a565b6001915050610a14565b60ff841115613c1f57613c1f613a3b565b50506001821b610a14565b5060208310610133831016604e8410600b8410161715613c4d575081810a610a14565b613c578383613b92565b805f1904821115613c6a57613c6a613a3b565b029392505050565b5f610a5b60ff841683613bd4565b8082028115828204841417610a1457610a14613a3b565b604081525f613ca960408301856135ac565b90508260208301529392505050565b6020808252602b908201527f496e697469616c697a61626c653a20636f6e7472616374206973206e6f74206960408201526a6e697469616c697a696e6760a81b606082015260800190565b601f821115611e8a57805f5260205f20601f840160051c81016020851015613d285750805b601f840160051c820191505b81811015610bae575f8155600101613d34565b815167ffffffffffffffff811115613d6157613d61613767565b613d7581613d6f84546139ef565b84613d03565b602080601f831160018114613da8575f8415613d915750858301515b5f19600386901b1c1916600185901b178555613dff565b5f85815260208120601f198616915b82811015613dd657888601518255948401946001909101908401613db7565b5085821015613df357878501515f19600388901b60f8161c191681555b505060018460011b0185555b505050505050565b634e487b7160e01b5f52602160045260245ffd5b5f60018201613e2c57613e2c613a3b565b5060010190565b5f60208284031215613e43575f80fd5b8151610a5b81613736565b5f8251613e5f81846020870161358a565b919091019291505056fe360894a13ba1a3210667c828492db98dca3e2076cc3735a920a3ca505d382bbc416464726573733a206c6f772d6c6576656c2064656c65676174652063616c6c206661696c6564a2646970667358221220544dd9dc295181af3c07b94253196eb32bb5f46bef17baf2cc65b72aa660e10564736f6c63430008180033",
        "nonce": "0x4c001",
        "chainId": "0x1ecf"
      },
      "additionalContracts": [],
      "isFixedGasLimit": false
    },
    {
      "hash": "0x09093c4ddf69d348b5e3515dc5e3dc3b23d1da3c711fb05d8230bad6c99d09e3",
      "transactionType": "CALL",
      "contractName": null,
      "contractAddress": "0x2843c269d2a64ecfa63548e8b3fc0fd23b7f70cb",
      "function": "handleOps((address,uint256,bytes,bytes,uint256,uint256,uint256,uint256,uint256,bytes,bytes)[],address)",
      "arguments": [
        "[(0x2e2B1c42E38f5af81771e65D87729E57ABD1337a, 5139, 0x, 0xb61d27f60000000000000000000000005a1e00984af33bed5520fd13e9c940f9f913cf100000000000000000000000000000000000000000000000000000000000000000000000000000000000000000000000000000000000000000000000000000006000000000000000000000000000000000000000000000000000000000000000243659cfe60000000000000000000000004300c8de6d37dc26942c9e4e0b12adfa948d507e00000000000000000000000000000000000000000000000000000000, 4000000, 210000, 21000, 1, 1000000000, 0x0000000000000000000000000000000000000000, 0xc583886e579d68f3f47c4ce6cbf0b9da9503e947a10f5de59ee0de1a013c8d1555f4a3d3078e2787b2fd0f042c2ed515f825801d1163e6994548f43ec55c17241c0748f302d411d4e07685b92d7e5a0a8f038022ce172ce4377e32c857982ac7574c7ad0dc4d08a13f553dac98cc7f6b7d49ef111a113ecbd74ad4b9979c1d7e851b)]",
        "0x660ad4B5A74130a4796B4d54BC6750Ae93C86e6c"
      ],
      "transaction": {
        "from": "0x660ad4b5a74130a4796b4d54bc6750ae93c86e6c",
        "to": "0x2843c269d2a64ecfa63548e8b3fc0fd23b7f70cb",
        "value": "0x0",
        "input": "0x1fad948c0000000000000000000000000000000000000000000000000000000000000040000000000000000000000000660ad4b5a74130a4796b4d54bc6750ae93c86e6c000000000000000000000000000000000000000000000000000000000000000100000000000000000000000000000000000000000000000000000000000000200000000000000000000000002e2b1c42e38f5af81771e65d87729e57abd1337a00000000000000000000000000000000000000000000000000000000000014130000000000000000000000000000000000000000000000000000000000000160000000000000000000000000000000000000000000000000000000000000018000000000000000000000000000000000000000000000000000000000003d0900000000000000000000000000000000000000000000000000000000000003345000000000000000000000000000000000000000000000000000000000000052080000000000000000000000000000000000000000000000000000000000000001000000000000000000000000000000000000000000000000000000003b9aca00000000000000000000000000000000000000000000000000000000000000028000000000000000000000000000000000000000000000000000000000000002c0000000000000000000000000000000000000000000000000000000000000000000000000000000000000000000000000000000000000000000000000000000c4b61d27f60000000000000000000000005a1e00984af33bed5520fd13e9c940f9f913cf100000000000000000000000000000000000000000000000000000000000000000000000000000000000000000000000000000000000000000000000000000006000000000000000000000000000000000000000000000000000000000000000243659cfe60000000000000000000000004300c8de6d37dc26942c9e4e0b12adfa948d507e0000000000000000000000000000000000000000000000000000000000000000000000000000000000000000000000000000000000000000000000000000000000000000000000000000000000000000000000000000001400000000000000000000000000000000000000000000000000000000000000000000000000000000000000000000000000000000000000000000000000000082c583886e579d68f3f47c4ce6cbf0b9da9503e947a10f5de59ee0de1a013c8d1555f4a3d3078e2787b2fd0f042c2ed515f825801d1163e6994548f43ec55c17241c0748f302d411d4e07685b92d7e5a0a8f038022ce172ce4377e32c857982ac7574c7ad0dc4d08a13f553dac98cc7f6b7d49ef111a113ecbd74ad4b9979c1d7e851b000000000000000000000000000000000000000000000000000000000000",
        "nonce": "0x4c002",
        "chainId": "0x1ecf"
      },
      "additionalContracts": [],
      "isFixedGasLimit": false
    },
    {
      "hash": "0xcd15734cda3f9f459c860a375f6c697ed57a2ab655422a2437de1a5b8fe6d493",
      "transactionType": "CALL",
      "contractName": null,
      "contractAddress": "0x2843c269d2a64ecfa63548e8b3fc0fd23b7f70cb",
      "function": "handleOps((address,uint256,bytes,bytes,uint256,uint256,uint256,uint256,uint256,bytes,bytes)[],address)",
      "arguments": [
        "[(0x2e2B1c42E38f5af81771e65D87729E57ABD1337a, 5140, 0x, 0xb61d27f60000000000000000000000005a1e00984af33bed5520fd13e9c940f9f913cf1000000000000000000000000000000000000000000000000000000000000000000000000000000000000000000000000000000000000000000000000000000060000000000000000000000000000000000000000000000000000000000000054434c39b75000000000000000000000000000000000000000000000000000000000000004000000000000000000000000000000000000000000000000000000000000002c00000000000000000000000000000000000000000000000000000000000000013000000000000000000000000a8a0cb4e2dbbec8057e69b1d4d69e5cf74eac819000000000000000000000000cac1c83543d583a195ba976e5227c39c0719069e000000000000000000000000850ed89d921fd18a4870bbe5ae889932e6c8ffaf000000000000000000000000d17f5723742e43222b3a26d1ad2536a1ae0108fc0000000000000000000000009f86444cf2964403a3fa616385917a420fd4726c000000000000000000000000b8310d4fa4460ec008fffbe459451b848174e9f5000000000000000000000000197dc1b6723df7aedef7bb8198398d652ca322f0000000000000000000000000974e38164b58f344098e865e981d8a33697ffb32000000000000000000000000c2f77a505545798ed01c9304fa5a0abd4799f24a000000000000000000000000f3d78a8a457622f5016ac74eb1f37f3da09e86ad00000000000000000000000069093227605061d43e44dc3852153de1383ab2a9000000000000000000000000da6f319fdac0b5cddb33f65d41767b200cb1702e00000000000000000000000096a4fe77db189b0f5bd38bb0797e87edf5081d8e00000000000000000000000025499ce734f62cf5fc8301999185d4a943297b6d00000000000000000000000022b72ea718c11e780ad293113a9c921bbcb3e4e1000000000000000000000000b0a2b3e4469277bac8e773be4cdae009848fba42000000000000000000000000342cb256218eff45705f023352b433659c566185000000000000000000000000e403173f8dcba7339b56d940dcd73c5cb29b1526000000000000000000000000e847c816b99eb3f7f380b1b377c4c446743666d500000000000000000000000000000000000000000000000000000000000000130000000000000000000000000000000000000000000000012caf7685f40bfd60000000000000000000000000000000000000000000000000e74be503af17fd60000000000000000000000000000000000000000000000002b6130daf46874c800000000000000000000000000000000000000000000000007416732e2a22f96000000000000000000000000000000000000000000000000073a5f283c83fc1b0000000000000000000000000000000000000000000000004886a135030e71fa000000000000000000000000000000000000000000000000073a5f283c83fc1b000000000000000000000000000000000000000000000000039d2f941e41f0a00000000000000000000000000000000000000000000000002b5a878d7f7444c8000000000000000000000000000000000000000000000000075badab8548ec1b0000000000000000000000000000000000000000000000000a25ec002c0107960000000000000000000000000000000000000000000000001a084c7a632b74c800000000000000000000000000000000000000000000000008b553eca6780d08000000000000000000000000000000000000000000000000211da9bb6b468796000000000000000000000000000000000000000000000000039f4b975017cca000000000000000000000000000000000000000000000000015f921471e5e34c80000000000000000000000000000000000000000000000000e74be50790801fa0000000000000000000000000000000000000000000000000908f6f24ba4f1fa00000000000000000000000000000000000000000000000012621fd74ec02b96000000000000000000000000000000000000000000000000000000000, 4000000, 210000, 21000, 1, 1000000000, 0x0000000000000000000000000000000000000000, 0x2c54e868534e30fe889b2831dede442c6c66ebe5acf72acae53a32c4306dcee70a81daceb926319faac3c461c86cfa3e109b5065a8c8af164b65b0bc74e86d741c9e3756d7047fff428048ae7ed7877aad8bd024b7684a739d856bf5b7e856a6a05bde20a474ad1ac54877d1a3ef4e27d735b9e3c6a4248ed68422f5c859382e0a1c)]",
        "0x660ad4B5A74130a4796B4d54BC6750Ae93C86e6c"
      ],
      "transaction": {
        "from": "0x660ad4b5a74130a4796b4d54bc6750ae93c86e6c",
        "to": "0x2843c269d2a64ecfa63548e8b3fc0fd23b7f70cb",
        "value": "0x0",
        "input": "0x1fad948c0000000000000000000000000000000000000000000000000000000000000040000000000000000000000000660ad4b5a74130a4796b4d54bc6750ae93c86e6c000000000000000000000000000000000000000000000000000000000000000100000000000000000000000000000000000000000000000000000000000000200000000000000000000000002e2b1c42e38f5af81771e65d87729e57abd1337a00000000000000000000000000000000000000000000000000000000000014140000000000000000000000000000000000000000000000000000000000000160000000000000000000000000000000000000000000000000000000000000018000000000000000000000000000000000000000000000000000000000003d0900000000000000000000000000000000000000000000000000000000000003345000000000000000000000000000000000000000000000000000000000000052080000000000000000000000000000000000000000000000000000000000000001000000000000000000000000000000000000000000000000000000003b9aca0000000000000000000000000000000000000000000000000000000000000007a000000000000000000000000000000000000000000000000000000000000007e0000000000000000000000000000000000000000000000000000000000000000000000000000000000000000000000000000000000000000000000000000005e4b61d27f60000000000000000000000005a1e00984af33bed5520fd13e9c940f9f913cf1000000000000000000000000000000000000000000000000000000000000000000000000000000000000000000000000000000000000000000000000000000060000000000000000000000000000000000000000000000000000000000000054434c39b75000000000000000000000000000000000000000000000000000000000000004000000000000000000000000000000000000000000000000000000000000002c00000000000000000000000000000000000000000000000000000000000000013000000000000000000000000a8a0cb4e2dbbec8057e69b1d4d69e5cf74eac819000000000000000000000000cac1c83543d583a195ba976e5227c39c0719069e000000000000000000000000850ed89d921fd18a4870bbe5ae889932e6c8ffaf000000000000000000000000d17f5723742e43222b3a26d1ad2536a1ae0108fc0000000000000000000000009f86444cf2964403a3fa616385917a420fd4726c000000000000000000000000b8310d4fa4460ec008fffbe459451b848174e9f5000000000000000000000000197dc1b6723df7aedef7bb8198398d652ca322f0000000000000000000000000974e38164b58f344098e865e981d8a33697ffb32000000000000000000000000c2f77a505545798ed01c9304fa5a0abd4799f24a000000000000000000000000f3d78a8a457622f5016ac74eb1f37f3da09e86ad00000000000000000000000069093227605061d43e44dc3852153de1383ab2a9000000000000000000000000da6f319fdac0b5cddb33f65d41767b200cb1702e00000000000000000000000096a4fe77db189b0f5bd38bb0797e87edf5081d8e00000000000000000000000025499ce734f62cf5fc8301999185d4a943297b6d00000000000000000000000022b72ea718c11e780ad293113a9c921bbcb3e4e1000000000000000000000000b0a2b3e4469277bac8e773be4cdae009848fba42000000000000000000000000342cb256218eff45705f023352b433659c566185000000000000000000000000e403173f8dcba7339b56d940dcd73c5cb29b1526000000000000000000000000e847c816b99eb3f7f380b1b377c4c446743666d500000000000000000000000000000000000000000000000000000000000000130000000000000000000000000000000000000000000000012caf7685f40bfd60000000000000000000000000000000000000000000000000e74be503af17fd60000000000000000000000000000000000000000000000002b6130daf46874c800000000000000000000000000000000000000000000000007416732e2a22f96000000000000000000000000000000000000000000000000073a5f283c83fc1b0000000000000000000000000000000000000000000000004886a135030e71fa000000000000000000000000000000000000000000000000073a5f283c83fc1b000000000000000000000000000000000000000000000000039d2f941e41f0a00000000000000000000000000000000000000000000000002b5a878d7f7444c8000000000000000000000000000000000000000000000000075badab8548ec1b0000000000000000000000000000000000000000000000000a25ec002c0107960000000000000000000000000000000000000000000000001a084c7a632b74c800000000000000000000000000000000000000000000000008b553eca6780d08000000000000000000000000000000000000000000000000211da9bb6b468796000000000000000000000000000000000000000000000000039f4b975017cca000000000000000000000000000000000000000000000000015f921471e5e34c80000000000000000000000000000000000000000000000000e74be50790801fa0000000000000000000000000000000000000000000000000908f6f24ba4f1fa00000000000000000000000000000000000000000000000012621fd74ec02b96000000000000000000000000000000000000000000000000000000000000000000000000000000000000000000000000000000000000000000000000000000000000000000000000000000000000000000000000000000014000000000000000000000000000000000000000000000000000000000000000000000000000000000000000000000000000000000000000000000000000000822c54e868534e30fe889b2831dede442c6c66ebe5acf72acae53a32c4306dcee70a81daceb926319faac3c461c86cfa3e109b5065a8c8af164b65b0bc74e86d741c9e3756d7047fff428048ae7ed7877aad8bd024b7684a739d856bf5b7e856a6a05bde20a474ad1ac54877d1a3ef4e27d735b9e3c6a4248ed68422f5c859382e0a1c000000000000000000000000000000000000000000000000000000000000",
        "nonce": "0x4c003",
        "chainId": "0x1ecf"
      },
      "additionalContracts": [],
      "isFixedGasLimit": false
    },
    {
      "hash": "0x4e54ed4ccd6e832866c0d747db9f04d5361b08e3d4c842a3b1b0626db90b257c",
      "transactionType": "CALL",
      "contractName": null,
      "contractAddress": "0x2843c269d2a64ecfa63548e8b3fc0fd23b7f70cb",
      "function": "handleOps((address,uint256,bytes,bytes,uint256,uint256,uint256,uint256,uint256,bytes,bytes)[],address)",
      "arguments": [
        "[(0x2e2B1c42E38f5af81771e65D87729E57ABD1337a, 5141, 0x, 0xb61d27f60000000000000000000000005a1e00984af33bed5520fd13e9c940f9f913cf100000000000000000000000000000000000000000000000000000000000000000000000000000000000000000000000000000000000000000000000000000006000000000000000000000000000000000000000000000000000000000000007c48040a95e00000000000000000000000000000000000000000000000000000000000000400000000000000000000000000000000000000000000000000000000000000400000000000000000000000000000000000000000000000000000000000000001d000000000000000000000000bd08200c3bd228118a9dbc7301db93f71fcb96e5000000000000000000000000a830d59962aebdf551a12ce2f53cee2f6e731c860000000000000000000000006bb4c01cc2430875751a5dde0a466d987c0f1365000000000000000000000000d41fef730f89ae5d4a7bcb3af0a92b2adb7fd0580000000000000000000000007534657adac296fcfbe16bd08af258e33bee017a0000000000000000000000000a6d6a9f95e68f0ab78eb081b5b21760ccc67356000000000000000000000000250d3d4dd20b1817e52841b46cd4d48f6b4bceea000000000000000000000000eead23e83ac9139ec420b1083467fa05ede5616e0000000000000000000000006a5e1c3ccd58d0a6064c9229dad012553d5bae2c00000000000000000000000031b2dda4b9b16d092af34b684d6b0cb2eb5f3bb50000000000000000000000007798bae44ccd533995ee6e67c40b1782a669e1d400000000000000000000000024ec8285ed0b8373b2ec753cbb668bcbb773d8ab0000000000000000000000009ba6a569eb6c92dfe30f90c0ff8ebd13ff316848000000000000000000000000af7e6463a5317acc76de24cdc32dd1896825e768000000000000000000000000548719fba49b4af6ea1fb5ab7e806a934e408f5e0000000000000000000000009eea9c32196f4a03a03b173803a72f43b3fe31e0000000000000000000000000e61d3009a18918cfedd9ec51b48e0468a12003d5000000000000000000000000f59e927e4cf3d84acb808b3b8de6be7f2c67f215000000000000000000000000f3c1883d48a6dfe248b2680c923552002db34b16000000000000000000000000f80b444fec79cc4f8f6f7d03505355f252dd1865000000000000000000000000c8477ae5edd9dc7de588a46f47ee0c391e59b6000000000000000000000000002b5650e8bd12f1df5ac15c3613949dc4df6e87350000000000000000000000006d987766d1c268694c88d243d0b7a34107a2857700000000000000000000000003d35c5ed389a3fea9af8921c1b514c60b44e2c20000000000000000000000001db3c1376f99fdcc5b4c830776a2a56427599b710000000000000000000000006b7d8c7682cc336dfe26cc3e5042459193808bec000000000000000000000000b41f2e4e157bd0279545121944b4fd4e059afe1a000000000000000000000000e53f1411665efbfbf7397ee6ee16a8a1dc08229c000000000000000000000000f26fe167a0f1ccd17f493fbd54bb840edc1d889d000000000000000000000000000000000000000000000000000000000000001d00000000000000000000000000000000000000000000000354dedc7e4373800000000000000000000000000000000000000000000000003335820748ef1700000000000000000000000000000000000000000000000000016980488979ac4000000000000000000000000000000000000000000000000001dc786271c2eb4000000000000000000000000000000000000000000000000000ff0b0fbaf12c800000000000000000000000000000000000000000000000001b5838fddf5eb8000000000000000000000000000000000000000000000000000bdf3c4bb0328c00000000000000000000000000000000000000000000000000046634c1309b1140000000000000000000000000000000000000000000000000024fac86cfecde8000000000000000000000000000000000000000000000000002ab141eb74980800000000000000000000000000000000000000000000000001b1ae4d6e2ef50000000000000000000000000000000000000000000000000001b770ca2741e4b4000000000000000000000000000000000000000000000000013bb83c7720230000000000000000000000000000000000000000000000000000579f587dd128e80000000000000000000000000000000000000000000000000025c4aa76522a7800000000000000000000000000000000000000000000000004bea915e3828308000000000000000000000000000000000000000000000000013362a1bce33efc0000000000000000000000000000000000000000000000000088c625aac95ea40000000000000000000000000000000000000000000000000269da745ae149100000000000000000000000000000000000000000000000000001d84fa2e1dbbc000000000000000000000000000000000000000000000000003e439aedd14480000000000000000000000000000000000000000000000000032d9b3c2fbf872c000000000000000000000000000000000000000000000000044dcb88026b27c0000000000000000000000000000000000000000000000000001e2057853391340000000000000000000000000000000000000000000000000065ae93e3b61404000000000000000000000000000000000000000000000000000ab829138a9248000000000000000000000000000000000000000000000000000803b130b5c9c00000000000000000000000000000000000000000000000000000de0b6b3a76400000000000000000000000000000000000000000000000000002a2375b663ff000000000000000000000000000000000000000000000000000000000000, 4000000, 210000, 21000, 1, 1000000000, 0x0000000000000000000000000000000000000000, 0xf873f54e534da91df3b37296e1aeb4ababd8a2f5258dac9af0098824246032a95b8962992046ca89b72698f1783318accd5c06e8cb6de79a78ed1bed8a2e5f071c87e2f2222323c880f0b6dcea299a6dccf2290017566953244a9b8580c55d4d6724aa6ea08a329d2145c82f4616b610260a4c8b695004f57a707399ed3ac84be21b)]",
        "0x660ad4B5A74130a4796B4d54BC6750Ae93C86e6c"
      ],
      "transaction": {
        "from": "0x660ad4b5a74130a4796b4d54bc6750ae93c86e6c",
        "to": "0x2843c269d2a64ecfa63548e8b3fc0fd23b7f70cb",
        "value": "0x0",
        "input": "0x1fad948c0000000000000000000000000000000000000000000000000000000000000040000000000000000000000000660ad4b5a74130a4796b4d54bc6750ae93c86e6c000000000000000000000000000000000000000000000000000000000000000100000000000000000000000000000000000000000000000000000000000000200000000000000000000000002e2b1c42e38f5af81771e65d87729e57abd1337a00000000000000000000000000000000000000000000000000000000000014150000000000000000000000000000000000000000000000000000000000000160000000000000000000000000000000000000000000000000000000000000018000000000000000000000000000000000000000000000000000000000003d0900000000000000000000000000000000000000000000000000000000000003345000000000000000000000000000000000000000000000000000000000000052080000000000000000000000000000000000000000000000000000000000000001000000000000000000000000000000000000000000000000000000003b9aca000000000000000000000000000000000000000000000000000000000000000a200000000000000000000000000000000000000000000000000000000000000a6000000000000000000000000000000000000000000000000000000000000000000000000000000000000000000000000000000000000000000000000000000864b61d27f60000000000000000000000005a1e00984af33bed5520fd13e9c940f9f913cf100000000000000000000000000000000000000000000000000000000000000000000000000000000000000000000000000000000000000000000000000000006000000000000000000000000000000000000000000000000000000000000007c48040a95e00000000000000000000000000000000000000000000000000000000000000400000000000000000000000000000000000000000000000000000000000000400000000000000000000000000000000000000000000000000000000000000001d000000000000000000000000bd08200c3bd228118a9dbc7301db93f71fcb96e5000000000000000000000000a830d59962aebdf551a12ce2f53cee2f6e731c860000000000000000000000006bb4c01cc2430875751a5dde0a466d987c0f1365000000000000000000000000d41fef730f89ae5d4a7bcb3af0a92b2adb7fd0580000000000000000000000007534657adac296fcfbe16bd08af258e33bee017a0000000000000000000000000a6d6a9f95e68f0ab78eb081b5b21760ccc67356000000000000000000000000250d3d4dd20b1817e52841b46cd4d48f6b4bceea000000000000000000000000eead23e83ac9139ec420b1083467fa05ede5616e0000000000000000000000006a5e1c3ccd58d0a6064c9229dad012553d5bae2c00000000000000000000000031b2dda4b9b16d092af34b684d6b0cb2eb5f3bb50000000000000000000000007798bae44ccd533995ee6e67c40b1782a669e1d400000000000000000000000024ec8285ed0b8373b2ec753cbb668bcbb773d8ab0000000000000000000000009ba6a569eb6c92dfe30f90c0ff8ebd13ff316848000000000000000000000000af7e6463a5317acc76de24cdc32dd1896825e768000000000000000000000000548719fba49b4af6ea1fb5ab7e806a934e408f5e0000000000000000000000009eea9c32196f4a03a03b173803a72f43b3fe31e0000000000000000000000000e61d3009a18918cfedd9ec51b48e0468a12003d5000000000000000000000000f59e927e4cf3d84acb808b3b8de6be7f2c67f215000000000000000000000000f3c1883d48a6dfe248b2680c923552002db34b16000000000000000000000000f80b444fec79cc4f8f6f7d03505355f252dd1865000000000000000000000000c8477ae5edd9dc7de588a46f47ee0c391e59b6000000000000000000000000002b5650e8bd12f1df5ac15c3613949dc4df6e87350000000000000000000000006d987766d1c268694c88d243d0b7a34107a2857700000000000000000000000003d35c5ed389a3fea9af8921c1b514c60b44e2c20000000000000000000000001db3c1376f99fdcc5b4c830776a2a56427599b710000000000000000000000006b7d8c7682cc336dfe26cc3e5042459193808bec000000000000000000000000b41f2e4e157bd0279545121944b4fd4e059afe1a000000000000000000000000e53f1411665efbfbf7397ee6ee16a8a1dc08229c000000000000000000000000f26fe167a0f1ccd17f493fbd54bb840edc1d889d000000000000000000000000000000000000000000000000000000000000001d00000000000000000000000000000000000000000000000354dedc7e4373800000000000000000000000000000000000000000000000003335820748ef1700000000000000000000000000000000000000000000000000016980488979ac4000000000000000000000000000000000000000000000000001dc786271c2eb4000000000000000000000000000000000000000000000000000ff0b0fbaf12c800000000000000000000000000000000000000000000000001b5838fddf5eb8000000000000000000000000000000000000000000000000000bdf3c4bb0328c00000000000000000000000000000000000000000000000000046634c1309b1140000000000000000000000000000000000000000000000000024fac86cfecde8000000000000000000000000000000000000000000000000002ab141eb74980800000000000000000000000000000000000000000000000001b1ae4d6e2ef50000000000000000000000000000000000000000000000000001b770ca2741e4b4000000000000000000000000000000000000000000000000013bb83c7720230000000000000000000000000000000000000000000000000000579f587dd128e80000000000000000000000000000000000000000000000000025c4aa76522a7800000000000000000000000000000000000000000000000004bea915e3828308000000000000000000000000000000000000000000000000013362a1bce33efc0000000000000000000000000000000000000000000000000088c625aac95ea40000000000000000000000000000000000000000000000000269da745ae149100000000000000000000000000000000000000000000000000001d84fa2e1dbbc000000000000000000000000000000000000000000000000003e439aedd14480000000000000000000000000000000000000000000000000032d9b3c2fbf872c000000000000000000000000000000000000000000000000044dcb88026b27c0000000000000000000000000000000000000000000000000001e2057853391340000000000000000000000000000000000000000000000000065ae93e3b61404000000000000000000000000000000000000000000000000000ab829138a9248000000000000000000000000000000000000000000000000000803b130b5c9c00000000000000000000000000000000000000000000000000000de0b6b3a76400000000000000000000000000000000000000000000000000002a2375b663ff00000000000000000000000000000000000000000000000000000000000000000000000000000000000000000000000000000000000000000000000000000000000000000000000000000000000000000000000000000000001400000000000000000000000000000000000000000000000000000000000000000000000000000000000000000000000000000000000000000000000000000082f873f54e534da91df3b37296e1aeb4ababd8a2f5258dac9af0098824246032a95b8962992046ca89b72698f1783318accd5c06e8cb6de79a78ed1bed8a2e5f071c87e2f2222323c880f0b6dcea299a6dccf2290017566953244a9b8580c55d4d6724aa6ea08a329d2145c82f4616b610260a4c8b695004f57a707399ed3ac84be21b000000000000000000000000000000000000000000000000000000000000",
        "nonce": "0x4c004",
        "chainId": "0x1ecf"
      },
      "additionalContracts": [],
      "isFixedGasLimit": false
    }
  ],
  "receipts": [
    {
      "status": "0x1",
      "cumulativeGasUsed": "0x7325d3",
      "logs": [
        {
          "address": "0x4300c8de6d37dc26942c9e4e0b12adfa948d507e",
          "topics": [
            "0x7f26b83ff96e1f2b6a682f133852f6798a09c465da95921460cefb3847402498"
          ],
          "data": "0x00000000000000000000000000000000000000000000000000000000000000ff",
          "blockHash": "0xdbf947867ea78cfcae2268f531940d5358cef6e5f3be0693d611474e843a2114",
          "blockNumber": "0xdc480",
          "transactionHash": "0x27dca8ac3d30c3c7e4b024a8a8410e645e4548eead5f9c5427f8ac999161bc9c",
          "transactionIndex": "0x1",
          "logIndex": "0x0",
          "removed": false
        }
      ],
      "logsBloom": "0x00000000000000000000000000000000000000000000000000000000000000000000000000000000000000000000000000000000000000000000000000000000000000000000000000000000000000000000000000000000000000000000000000000000000000000000000000000000000000000000000000008000000000000000000004000000000000000000000000000000000080000000000000000000000000000000000000000000000400020000000000000000000000000000000000000000000000000000000000040000000000000000000000000000000000000000000000000000000000000000000000000000000000000000000000000000",
      "type": "0x2",
      "transactionHash": "0x27dca8ac3d30c3c7e4b024a8a8410e645e4548eead5f9c5427f8ac999161bc9c",
      "transactionIndex": "0x1",
      "blockHash": "0xdbf947867ea78cfcae2268f531940d5358cef6e5f3be0693d611474e843a2114",
      "blockNumber": "0xdc480",
      "gasUsed": "0x7325d3",
      "effectiveGasPrice": "0x5f5e100",
      "from": "0x660ad4b5a74130a4796b4d54bc6750ae93c86e6c",
      "to": "0x4e59b44847b379578588920ca78fbf26c0b4956c",
      "contractAddress": null,
      "gasUsedForL1": "0x3cb61e",
      "l1BlockNumber": "0x15dbc9e"
    },
    {
      "status": "0x1",
      "cumulativeGasUsed": "0x67264",
      "logs": [
        {
          "address": "0x2843c269d2a64ecfa63548e8b3fc0fd23b7f70cb",
          "topics": [
            "0xbb47ee3e183a558b1a2ff0874b079f3fc5478b7454eacf2bfc5af2ff5878f972"
          ],
          "data": "0x",
          "blockHash": "0x8cdc21e07b74a8db01e5b003f910a660d5dbf36e7e0fd79032551758e0a47c8c",
          "blockNumber": "0xdc481",
          "transactionHash": "0x09093c4ddf69d348b5e3515dc5e3dc3b23d1da3c711fb05d8230bad6c99d09e3",
          "transactionIndex": "0x1",
          "logIndex": "0x0",
          "removed": false
        },
        {
          "address": "0x5a1e00984af33bed5520fd13e9c940f9f913cf10",
          "topics": [
            "0xbc7cd75a20ee27fd9adebab32041f755214dbc6bffa90cc0225b39da2e5c2d3b",
            "0x0000000000000000000000004300c8de6d37dc26942c9e4e0b12adfa948d507e"
          ],
          "data": "0x",
          "blockHash": "0x8cdc21e07b74a8db01e5b003f910a660d5dbf36e7e0fd79032551758e0a47c8c",
          "blockNumber": "0xdc481",
          "transactionHash": "0x09093c4ddf69d348b5e3515dc5e3dc3b23d1da3c711fb05d8230bad6c99d09e3",
          "transactionIndex": "0x1",
          "logIndex": "0x1",
          "removed": false
        },
        {
          "address": "0x2843c269d2a64ecfa63548e8b3fc0fd23b7f70cb",
          "topics": [
            "0x49628fd1471006c1482da88028e9ce4dbb080b815c9b0344d39e5a8e6ec1419f",
            "0x884f6b6f19417e3f5ea52fdd052848c4b52bdc73e15e9c1d868b7c44791a272e",
            "0x0000000000000000000000002e2b1c42e38f5af81771e65d87729e57abd1337a",
            "0x0000000000000000000000000000000000000000000000000000000000000000"
          ],
          "data": "0x000000000000000000000000000000000000000000000000000000000000141300000000000000000000000000000000000000000000000000000000000000010000000000000000000000000000000000000000000000000000000000084c180000000000000000000000000000000000000000000000000000000000084c18",
          "blockHash": "0x8cdc21e07b74a8db01e5b003f910a660d5dbf36e7e0fd79032551758e0a47c8c",
          "blockNumber": "0xdc481",
          "transactionHash": "0x09093c4ddf69d348b5e3515dc5e3dc3b23d1da3c711fb05d8230bad6c99d09e3",
          "transactionIndex": "0x1",
          "logIndex": "0x2",
          "removed": false
        }
      ],
      "logsBloom": "0x00000000000000000000000000000000400000000000000000000000000000000008000000000000000000010000000000008000000000000000020000000000000000000000000000000000000002000000000000000000000000000000000800000000020000000000000000000800002000000000000000000000000010000000000000000000000000000000800000000000800000000000000000000000000400000000000000400000000000000000000000000010020002000000000000000020000000100001000000000008000000000000008000000040000020000000000000010000200000000000000000000000000000000000000000000000",
      "type": "0x2",
      "transactionHash": "0x09093c4ddf69d348b5e3515dc5e3dc3b23d1da3c711fb05d8230bad6c99d09e3",
      "transactionIndex": "0x1",
      "blockHash": "0x8cdc21e07b74a8db01e5b003f910a660d5dbf36e7e0fd79032551758e0a47c8c",
      "blockNumber": "0xdc481",
      "gasUsed": "0x67264",
      "effectiveGasPrice": "0x5f5e100",
      "from": "0x660ad4b5a74130a4796b4d54bc6750ae93c86e6c",
      "to": "0x2843c269d2a64ecfa63548e8b3fc0fd23b7f70cb",
      "contractAddress": null,
      "gasUsedForL1": "0x3ca69",
      "l1BlockNumber": "0x15dbc9e"
    },
    {
      "status": "0x1",
      "cumulativeGasUsed": "0x21609d",
      "logs": [
        {
          "address": "0x2843c269d2a64ecfa63548e8b3fc0fd23b7f70cb",
          "topics": [
            "0xbb47ee3e183a558b1a2ff0874b079f3fc5478b7454eacf2bfc5af2ff5878f972"
          ],
          "data": "0x",
          "blockHash": "0x55f7152983c884ff0e6fe1778f93c2ca02ba2caac7a66c7236bade73a2e92ae0",
          "blockNumber": "0xdc482",
          "transactionHash": "0xcd15734cda3f9f459c860a375f6c697ed57a2ab655422a2437de1a5b8fe6d493",
          "transactionIndex": "0x1",
          "logIndex": "0x0",
          "removed": false
        },
        {
          "address": "0x5a1e00984af33bed5520fd13e9c940f9f913cf10",
          "topics": [
            "0xf3ee618df6e6ff5a26ef25cf1ba9bc24b56492f5ff29acf2815121a2b903138a",
            "0x000000000000000000000000a8a0cb4e2dbbec8057e69b1d4d69e5cf74eac819"
          ],
          "data": "0x0000000000000000000000000000000000000000000000012caf7685f40bfd60000000000000000000000000000000000000000000000000000000006875823a",
          "blockHash": "0x55f7152983c884ff0e6fe1778f93c2ca02ba2caac7a66c7236bade73a2e92ae0",
          "blockNumber": "0xdc482",
          "transactionHash": "0xcd15734cda3f9f459c860a375f6c697ed57a2ab655422a2437de1a5b8fe6d493",
          "transactionIndex": "0x1",
          "logIndex": "0x1",
          "removed": false
        },
        {
          "address": "0x5a1e00984af33bed5520fd13e9c940f9f913cf10",
          "topics": [
            "0xddf252ad1be2c89b69c2b068fc378daa952ba7f163c4a11628f55a4df523b3ef",
            "0x0000000000000000000000000000000000000000000000000000000000000000",
            "0x000000000000000000000000a8a0cb4e2dbbec8057e69b1d4d69e5cf74eac819"
          ],
          "data": "0x0000000000000000000000000000000000000000000000012caf7685f40bfd60",
          "blockHash": "0x55f7152983c884ff0e6fe1778f93c2ca02ba2caac7a66c7236bade73a2e92ae0",
          "blockNumber": "0xdc482",
          "transactionHash": "0xcd15734cda3f9f459c860a375f6c697ed57a2ab655422a2437de1a5b8fe6d493",
          "transactionIndex": "0x1",
          "logIndex": "0x2",
          "removed": false
        },
        {
          "address": "0x5a1e00984af33bed5520fd13e9c940f9f913cf10",
          "topics": [
            "0xf3ee618df6e6ff5a26ef25cf1ba9bc24b56492f5ff29acf2815121a2b903138a",
            "0x000000000000000000000000cac1c83543d583a195ba976e5227c39c0719069e"
          ],
          "data": "0x000000000000000000000000000000000000000000000000e74be503af17fd60000000000000000000000000000000000000000000000000000000006875823a",
          "blockHash": "0x55f7152983c884ff0e6fe1778f93c2ca02ba2caac7a66c7236bade73a2e92ae0",
          "blockNumber": "0xdc482",
          "transactionHash": "0xcd15734cda3f9f459c860a375f6c697ed57a2ab655422a2437de1a5b8fe6d493",
          "transactionIndex": "0x1",
          "logIndex": "0x3",
          "removed": false
        },
        {
          "address": "0x5a1e00984af33bed5520fd13e9c940f9f913cf10",
          "topics": [
            "0xddf252ad1be2c89b69c2b068fc378daa952ba7f163c4a11628f55a4df523b3ef",
            "0x0000000000000000000000000000000000000000000000000000000000000000",
            "0x000000000000000000000000cac1c83543d583a195ba976e5227c39c0719069e"
          ],
          "data": "0x000000000000000000000000000000000000000000000000e74be503af17fd60",
          "blockHash": "0x55f7152983c884ff0e6fe1778f93c2ca02ba2caac7a66c7236bade73a2e92ae0",
          "blockNumber": "0xdc482",
          "transactionHash": "0xcd15734cda3f9f459c860a375f6c697ed57a2ab655422a2437de1a5b8fe6d493",
          "transactionIndex": "0x1",
          "logIndex": "0x4",
          "removed": false
        },
        {
          "address": "0x5a1e00984af33bed5520fd13e9c940f9f913cf10",
          "topics": [
            "0xf3ee618df6e6ff5a26ef25cf1ba9bc24b56492f5ff29acf2815121a2b903138a",
            "0x000000000000000000000000850ed89d921fd18a4870bbe5ae889932e6c8ffaf"
          ],
          "data": "0x000000000000000000000000000000000000000000000002b6130daf46874c80000000000000000000000000000000000000000000000000000000006875823a",
          "blockHash": "0x55f7152983c884ff0e6fe1778f93c2ca02ba2caac7a66c7236bade73a2e92ae0",
          "blockNumber": "0xdc482",
          "transactionHash": "0xcd15734cda3f9f459c860a375f6c697ed57a2ab655422a2437de1a5b8fe6d493",
          "transactionIndex": "0x1",
          "logIndex": "0x5",
          "removed": false
        },
        {
          "address": "0x5a1e00984af33bed5520fd13e9c940f9f913cf10",
          "topics": [
            "0xddf252ad1be2c89b69c2b068fc378daa952ba7f163c4a11628f55a4df523b3ef",
            "0x0000000000000000000000000000000000000000000000000000000000000000",
            "0x000000000000000000000000850ed89d921fd18a4870bbe5ae889932e6c8ffaf"
          ],
          "data": "0x000000000000000000000000000000000000000000000002b6130daf46874c80",
          "blockHash": "0x55f7152983c884ff0e6fe1778f93c2ca02ba2caac7a66c7236bade73a2e92ae0",
          "blockNumber": "0xdc482",
          "transactionHash": "0xcd15734cda3f9f459c860a375f6c697ed57a2ab655422a2437de1a5b8fe6d493",
          "transactionIndex": "0x1",
          "logIndex": "0x6",
          "removed": false
        },
        {
          "address": "0x5a1e00984af33bed5520fd13e9c940f9f913cf10",
          "topics": [
            "0xf3ee618df6e6ff5a26ef25cf1ba9bc24b56492f5ff29acf2815121a2b903138a",
            "0x000000000000000000000000d17f5723742e43222b3a26d1ad2536a1ae0108fc"
          ],
          "data": "0x0000000000000000000000000000000000000000000000007416732e2a22f960000000000000000000000000000000000000000000000000000000006875823a",
          "blockHash": "0x55f7152983c884ff0e6fe1778f93c2ca02ba2caac7a66c7236bade73a2e92ae0",
          "blockNumber": "0xdc482",
          "transactionHash": "0xcd15734cda3f9f459c860a375f6c697ed57a2ab655422a2437de1a5b8fe6d493",
          "transactionIndex": "0x1",
          "logIndex": "0x7",
          "removed": false
        },
        {
          "address": "0x5a1e00984af33bed5520fd13e9c940f9f913cf10",
          "topics": [
            "0xddf252ad1be2c89b69c2b068fc378daa952ba7f163c4a11628f55a4df523b3ef",
            "0x0000000000000000000000000000000000000000000000000000000000000000",
            "0x000000000000000000000000d17f5723742e43222b3a26d1ad2536a1ae0108fc"
          ],
          "data": "0x0000000000000000000000000000000000000000000000007416732e2a22f960",
          "blockHash": "0x55f7152983c884ff0e6fe1778f93c2ca02ba2caac7a66c7236bade73a2e92ae0",
          "blockNumber": "0xdc482",
          "transactionHash": "0xcd15734cda3f9f459c860a375f6c697ed57a2ab655422a2437de1a5b8fe6d493",
          "transactionIndex": "0x1",
          "logIndex": "0x8",
          "removed": false
        },
        {
          "address": "0x5a1e00984af33bed5520fd13e9c940f9f913cf10",
          "topics": [
            "0xf3ee618df6e6ff5a26ef25cf1ba9bc24b56492f5ff29acf2815121a2b903138a",
            "0x0000000000000000000000009f86444cf2964403a3fa616385917a420fd4726c"
          ],
          "data": "0x00000000000000000000000000000000000000000000000073a5f283c83fc1b0000000000000000000000000000000000000000000000000000000006875823a",
          "blockHash": "0x55f7152983c884ff0e6fe1778f93c2ca02ba2caac7a66c7236bade73a2e92ae0",
          "blockNumber": "0xdc482",
          "transactionHash": "0xcd15734cda3f9f459c860a375f6c697ed57a2ab655422a2437de1a5b8fe6d493",
          "transactionIndex": "0x1",
          "logIndex": "0x9",
          "removed": false
        },
        {
          "address": "0x5a1e00984af33bed5520fd13e9c940f9f913cf10",
          "topics": [
            "0xddf252ad1be2c89b69c2b068fc378daa952ba7f163c4a11628f55a4df523b3ef",
            "0x0000000000000000000000000000000000000000000000000000000000000000",
            "0x0000000000000000000000009f86444cf2964403a3fa616385917a420fd4726c"
          ],
          "data": "0x00000000000000000000000000000000000000000000000073a5f283c83fc1b0",
          "blockHash": "0x55f7152983c884ff0e6fe1778f93c2ca02ba2caac7a66c7236bade73a2e92ae0",
          "blockNumber": "0xdc482",
          "transactionHash": "0xcd15734cda3f9f459c860a375f6c697ed57a2ab655422a2437de1a5b8fe6d493",
          "transactionIndex": "0x1",
          "logIndex": "0xa",
          "removed": false
        },
        {
          "address": "0x5a1e00984af33bed5520fd13e9c940f9f913cf10",
          "topics": [
            "0xf3ee618df6e6ff5a26ef25cf1ba9bc24b56492f5ff29acf2815121a2b903138a",
            "0x000000000000000000000000b8310d4fa4460ec008fffbe459451b848174e9f5"
          ],
          "data": "0x000000000000000000000000000000000000000000000004886a135030e71fa0000000000000000000000000000000000000000000000000000000006875823a",
          "blockHash": "0x55f7152983c884ff0e6fe1778f93c2ca02ba2caac7a66c7236bade73a2e92ae0",
          "blockNumber": "0xdc482",
          "transactionHash": "0xcd15734cda3f9f459c860a375f6c697ed57a2ab655422a2437de1a5b8fe6d493",
          "transactionIndex": "0x1",
          "logIndex": "0xb",
          "removed": false
        },
        {
          "address": "0x5a1e00984af33bed5520fd13e9c940f9f913cf10",
          "topics": [
            "0xddf252ad1be2c89b69c2b068fc378daa952ba7f163c4a11628f55a4df523b3ef",
            "0x0000000000000000000000000000000000000000000000000000000000000000",
            "0x000000000000000000000000b8310d4fa4460ec008fffbe459451b848174e9f5"
          ],
          "data": "0x000000000000000000000000000000000000000000000004886a135030e71fa0",
          "blockHash": "0x55f7152983c884ff0e6fe1778f93c2ca02ba2caac7a66c7236bade73a2e92ae0",
          "blockNumber": "0xdc482",
          "transactionHash": "0xcd15734cda3f9f459c860a375f6c697ed57a2ab655422a2437de1a5b8fe6d493",
          "transactionIndex": "0x1",
          "logIndex": "0xc",
          "removed": false
        },
        {
          "address": "0x5a1e00984af33bed5520fd13e9c940f9f913cf10",
          "topics": [
            "0xf3ee618df6e6ff5a26ef25cf1ba9bc24b56492f5ff29acf2815121a2b903138a",
            "0x000000000000000000000000197dc1b6723df7aedef7bb8198398d652ca322f0"
          ],
          "data": "0x00000000000000000000000000000000000000000000000073a5f283c83fc1b0000000000000000000000000000000000000000000000000000000006875823a",
          "blockHash": "0x55f7152983c884ff0e6fe1778f93c2ca02ba2caac7a66c7236bade73a2e92ae0",
          "blockNumber": "0xdc482",
          "transactionHash": "0xcd15734cda3f9f459c860a375f6c697ed57a2ab655422a2437de1a5b8fe6d493",
          "transactionIndex": "0x1",
          "logIndex": "0xd",
          "removed": false
        },
        {
          "address": "0x5a1e00984af33bed5520fd13e9c940f9f913cf10",
          "topics": [
            "0xddf252ad1be2c89b69c2b068fc378daa952ba7f163c4a11628f55a4df523b3ef",
            "0x0000000000000000000000000000000000000000000000000000000000000000",
            "0x000000000000000000000000197dc1b6723df7aedef7bb8198398d652ca322f0"
          ],
          "data": "0x00000000000000000000000000000000000000000000000073a5f283c83fc1b0",
          "blockHash": "0x55f7152983c884ff0e6fe1778f93c2ca02ba2caac7a66c7236bade73a2e92ae0",
          "blockNumber": "0xdc482",
          "transactionHash": "0xcd15734cda3f9f459c860a375f6c697ed57a2ab655422a2437de1a5b8fe6d493",
          "transactionIndex": "0x1",
          "logIndex": "0xe",
          "removed": false
        },
        {
          "address": "0x5a1e00984af33bed5520fd13e9c940f9f913cf10",
          "topics": [
            "0xf3ee618df6e6ff5a26ef25cf1ba9bc24b56492f5ff29acf2815121a2b903138a",
            "0x000000000000000000000000974e38164b58f344098e865e981d8a33697ffb32"
          ],
          "data": "0x00000000000000000000000000000000000000000000000039d2f941e41f0a00000000000000000000000000000000000000000000000000000000006875823a",
          "blockHash": "0x55f7152983c884ff0e6fe1778f93c2ca02ba2caac7a66c7236bade73a2e92ae0",
          "blockNumber": "0xdc482",
          "transactionHash": "0xcd15734cda3f9f459c860a375f6c697ed57a2ab655422a2437de1a5b8fe6d493",
          "transactionIndex": "0x1",
          "logIndex": "0xf",
          "removed": false
        },
        {
          "address": "0x5a1e00984af33bed5520fd13e9c940f9f913cf10",
          "topics": [
            "0xddf252ad1be2c89b69c2b068fc378daa952ba7f163c4a11628f55a4df523b3ef",
            "0x0000000000000000000000000000000000000000000000000000000000000000",
            "0x000000000000000000000000974e38164b58f344098e865e981d8a33697ffb32"
          ],
          "data": "0x00000000000000000000000000000000000000000000000039d2f941e41f0a00",
          "blockHash": "0x55f7152983c884ff0e6fe1778f93c2ca02ba2caac7a66c7236bade73a2e92ae0",
          "blockNumber": "0xdc482",
          "transactionHash": "0xcd15734cda3f9f459c860a375f6c697ed57a2ab655422a2437de1a5b8fe6d493",
          "transactionIndex": "0x1",
          "logIndex": "0x10",
          "removed": false
        },
        {
          "address": "0x5a1e00984af33bed5520fd13e9c940f9f913cf10",
          "topics": [
            "0xf3ee618df6e6ff5a26ef25cf1ba9bc24b56492f5ff29acf2815121a2b903138a",
            "0x000000000000000000000000c2f77a505545798ed01c9304fa5a0abd4799f24a"
          ],
          "data": "0x000000000000000000000000000000000000000000000002b5a878d7f7444c80000000000000000000000000000000000000000000000000000000006875823a",
          "blockHash": "0x55f7152983c884ff0e6fe1778f93c2ca02ba2caac7a66c7236bade73a2e92ae0",
          "blockNumber": "0xdc482",
          "transactionHash": "0xcd15734cda3f9f459c860a375f6c697ed57a2ab655422a2437de1a5b8fe6d493",
          "transactionIndex": "0x1",
          "logIndex": "0x11",
          "removed": false
        },
        {
          "address": "0x5a1e00984af33bed5520fd13e9c940f9f913cf10",
          "topics": [
            "0xddf252ad1be2c89b69c2b068fc378daa952ba7f163c4a11628f55a4df523b3ef",
            "0x0000000000000000000000000000000000000000000000000000000000000000",
            "0x000000000000000000000000c2f77a505545798ed01c9304fa5a0abd4799f24a"
          ],
          "data": "0x000000000000000000000000000000000000000000000002b5a878d7f7444c80",
          "blockHash": "0x55f7152983c884ff0e6fe1778f93c2ca02ba2caac7a66c7236bade73a2e92ae0",
          "blockNumber": "0xdc482",
          "transactionHash": "0xcd15734cda3f9f459c860a375f6c697ed57a2ab655422a2437de1a5b8fe6d493",
          "transactionIndex": "0x1",
          "logIndex": "0x12",
          "removed": false
        },
        {
          "address": "0x5a1e00984af33bed5520fd13e9c940f9f913cf10",
          "topics": [
            "0xf3ee618df6e6ff5a26ef25cf1ba9bc24b56492f5ff29acf2815121a2b903138a",
            "0x000000000000000000000000f3d78a8a457622f5016ac74eb1f37f3da09e86ad"
          ],
          "data": "0x00000000000000000000000000000000000000000000000075badab8548ec1b0000000000000000000000000000000000000000000000000000000006875823a",
          "blockHash": "0x55f7152983c884ff0e6fe1778f93c2ca02ba2caac7a66c7236bade73a2e92ae0",
          "blockNumber": "0xdc482",
          "transactionHash": "0xcd15734cda3f9f459c860a375f6c697ed57a2ab655422a2437de1a5b8fe6d493",
          "transactionIndex": "0x1",
          "logIndex": "0x13",
          "removed": false
        },
        {
          "address": "0x5a1e00984af33bed5520fd13e9c940f9f913cf10",
          "topics": [
            "0xddf252ad1be2c89b69c2b068fc378daa952ba7f163c4a11628f55a4df523b3ef",
            "0x0000000000000000000000000000000000000000000000000000000000000000",
            "0x000000000000000000000000f3d78a8a457622f5016ac74eb1f37f3da09e86ad"
          ],
          "data": "0x00000000000000000000000000000000000000000000000075badab8548ec1b0",
          "blockHash": "0x55f7152983c884ff0e6fe1778f93c2ca02ba2caac7a66c7236bade73a2e92ae0",
          "blockNumber": "0xdc482",
          "transactionHash": "0xcd15734cda3f9f459c860a375f6c697ed57a2ab655422a2437de1a5b8fe6d493",
          "transactionIndex": "0x1",
          "logIndex": "0x14",
          "removed": false
        },
        {
          "address": "0x5a1e00984af33bed5520fd13e9c940f9f913cf10",
          "topics": [
            "0xf3ee618df6e6ff5a26ef25cf1ba9bc24b56492f5ff29acf2815121a2b903138a",
            "0x00000000000000000000000069093227605061d43e44dc3852153de1383ab2a9"
          ],
          "data": "0x000000000000000000000000000000000000000000000000a25ec002c0107960000000000000000000000000000000000000000000000000000000006875823a",
          "blockHash": "0x55f7152983c884ff0e6fe1778f93c2ca02ba2caac7a66c7236bade73a2e92ae0",
          "blockNumber": "0xdc482",
          "transactionHash": "0xcd15734cda3f9f459c860a375f6c697ed57a2ab655422a2437de1a5b8fe6d493",
          "transactionIndex": "0x1",
          "logIndex": "0x15",
          "removed": false
        },
        {
          "address": "0x5a1e00984af33bed5520fd13e9c940f9f913cf10",
          "topics": [
            "0xddf252ad1be2c89b69c2b068fc378daa952ba7f163c4a11628f55a4df523b3ef",
            "0x0000000000000000000000000000000000000000000000000000000000000000",
            "0x00000000000000000000000069093227605061d43e44dc3852153de1383ab2a9"
          ],
          "data": "0x000000000000000000000000000000000000000000000000a25ec002c0107960",
          "blockHash": "0x55f7152983c884ff0e6fe1778f93c2ca02ba2caac7a66c7236bade73a2e92ae0",
          "blockNumber": "0xdc482",
          "transactionHash": "0xcd15734cda3f9f459c860a375f6c697ed57a2ab655422a2437de1a5b8fe6d493",
          "transactionIndex": "0x1",
          "logIndex": "0x16",
          "removed": false
        },
        {
          "address": "0x5a1e00984af33bed5520fd13e9c940f9f913cf10",
          "topics": [
            "0xf3ee618df6e6ff5a26ef25cf1ba9bc24b56492f5ff29acf2815121a2b903138a",
            "0x000000000000000000000000da6f319fdac0b5cddb33f65d41767b200cb1702e"
          ],
          "data": "0x000000000000000000000000000000000000000000000001a084c7a632b74c80000000000000000000000000000000000000000000000000000000006875823a",
          "blockHash": "0x55f7152983c884ff0e6fe1778f93c2ca02ba2caac7a66c7236bade73a2e92ae0",
          "blockNumber": "0xdc482",
          "transactionHash": "0xcd15734cda3f9f459c860a375f6c697ed57a2ab655422a2437de1a5b8fe6d493",
          "transactionIndex": "0x1",
          "logIndex": "0x17",
          "removed": false
        },
        {
          "address": "0x5a1e00984af33bed5520fd13e9c940f9f913cf10",
          "topics": [
            "0xddf252ad1be2c89b69c2b068fc378daa952ba7f163c4a11628f55a4df523b3ef",
            "0x0000000000000000000000000000000000000000000000000000000000000000",
            "0x000000000000000000000000da6f319fdac0b5cddb33f65d41767b200cb1702e"
          ],
          "data": "0x000000000000000000000000000000000000000000000001a084c7a632b74c80",
          "blockHash": "0x55f7152983c884ff0e6fe1778f93c2ca02ba2caac7a66c7236bade73a2e92ae0",
          "blockNumber": "0xdc482",
          "transactionHash": "0xcd15734cda3f9f459c860a375f6c697ed57a2ab655422a2437de1a5b8fe6d493",
          "transactionIndex": "0x1",
          "logIndex": "0x18",
          "removed": false
        },
        {
          "address": "0x5a1e00984af33bed5520fd13e9c940f9f913cf10",
          "topics": [
            "0xf3ee618df6e6ff5a26ef25cf1ba9bc24b56492f5ff29acf2815121a2b903138a",
            "0x00000000000000000000000096a4fe77db189b0f5bd38bb0797e87edf5081d8e"
          ],
          "data": "0x0000000000000000000000000000000000000000000000008b553eca6780d080000000000000000000000000000000000000000000000000000000006875823a",
          "blockHash": "0x55f7152983c884ff0e6fe1778f93c2ca02ba2caac7a66c7236bade73a2e92ae0",
          "blockNumber": "0xdc482",
          "transactionHash": "0xcd15734cda3f9f459c860a375f6c697ed57a2ab655422a2437de1a5b8fe6d493",
          "transactionIndex": "0x1",
          "logIndex": "0x19",
          "removed": false
        },
        {
          "address": "0x5a1e00984af33bed5520fd13e9c940f9f913cf10",
          "topics": [
            "0xddf252ad1be2c89b69c2b068fc378daa952ba7f163c4a11628f55a4df523b3ef",
            "0x0000000000000000000000000000000000000000000000000000000000000000",
            "0x00000000000000000000000096a4fe77db189b0f5bd38bb0797e87edf5081d8e"
          ],
          "data": "0x0000000000000000000000000000000000000000000000008b553eca6780d080",
          "blockHash": "0x55f7152983c884ff0e6fe1778f93c2ca02ba2caac7a66c7236bade73a2e92ae0",
          "blockNumber": "0xdc482",
          "transactionHash": "0xcd15734cda3f9f459c860a375f6c697ed57a2ab655422a2437de1a5b8fe6d493",
          "transactionIndex": "0x1",
          "logIndex": "0x1a",
          "removed": false
        },
        {
          "address": "0x5a1e00984af33bed5520fd13e9c940f9f913cf10",
          "topics": [
            "0xf3ee618df6e6ff5a26ef25cf1ba9bc24b56492f5ff29acf2815121a2b903138a",
            "0x00000000000000000000000025499ce734f62cf5fc8301999185d4a943297b6d"
          ],
          "data": "0x00000000000000000000000000000000000000000000000211da9bb6b4687960000000000000000000000000000000000000000000000000000000006875823a",
          "blockHash": "0x55f7152983c884ff0e6fe1778f93c2ca02ba2caac7a66c7236bade73a2e92ae0",
          "blockNumber": "0xdc482",
          "transactionHash": "0xcd15734cda3f9f459c860a375f6c697ed57a2ab655422a2437de1a5b8fe6d493",
          "transactionIndex": "0x1",
          "logIndex": "0x1b",
          "removed": false
        },
        {
          "address": "0x5a1e00984af33bed5520fd13e9c940f9f913cf10",
          "topics": [
            "0xddf252ad1be2c89b69c2b068fc378daa952ba7f163c4a11628f55a4df523b3ef",
            "0x0000000000000000000000000000000000000000000000000000000000000000",
            "0x00000000000000000000000025499ce734f62cf5fc8301999185d4a943297b6d"
          ],
          "data": "0x00000000000000000000000000000000000000000000000211da9bb6b4687960",
          "blockHash": "0x55f7152983c884ff0e6fe1778f93c2ca02ba2caac7a66c7236bade73a2e92ae0",
          "blockNumber": "0xdc482",
          "transactionHash": "0xcd15734cda3f9f459c860a375f6c697ed57a2ab655422a2437de1a5b8fe6d493",
          "transactionIndex": "0x1",
          "logIndex": "0x1c",
          "removed": false
        },
        {
          "address": "0x5a1e00984af33bed5520fd13e9c940f9f913cf10",
          "topics": [
            "0xf3ee618df6e6ff5a26ef25cf1ba9bc24b56492f5ff29acf2815121a2b903138a",
            "0x00000000000000000000000022b72ea718c11e780ad293113a9c921bbcb3e4e1"
          ],
          "data": "0x00000000000000000000000000000000000000000000000039f4b975017cca00000000000000000000000000000000000000000000000000000000006875823a",
          "blockHash": "0x55f7152983c884ff0e6fe1778f93c2ca02ba2caac7a66c7236bade73a2e92ae0",
          "blockNumber": "0xdc482",
          "transactionHash": "0xcd15734cda3f9f459c860a375f6c697ed57a2ab655422a2437de1a5b8fe6d493",
          "transactionIndex": "0x1",
          "logIndex": "0x1d",
          "removed": false
        },
        {
          "address": "0x5a1e00984af33bed5520fd13e9c940f9f913cf10",
          "topics": [
            "0xddf252ad1be2c89b69c2b068fc378daa952ba7f163c4a11628f55a4df523b3ef",
            "0x0000000000000000000000000000000000000000000000000000000000000000",
            "0x00000000000000000000000022b72ea718c11e780ad293113a9c921bbcb3e4e1"
          ],
          "data": "0x00000000000000000000000000000000000000000000000039f4b975017cca00",
          "blockHash": "0x55f7152983c884ff0e6fe1778f93c2ca02ba2caac7a66c7236bade73a2e92ae0",
          "blockNumber": "0xdc482",
          "transactionHash": "0xcd15734cda3f9f459c860a375f6c697ed57a2ab655422a2437de1a5b8fe6d493",
          "transactionIndex": "0x1",
          "logIndex": "0x1e",
          "removed": false
        },
        {
          "address": "0x5a1e00984af33bed5520fd13e9c940f9f913cf10",
          "topics": [
            "0xf3ee618df6e6ff5a26ef25cf1ba9bc24b56492f5ff29acf2815121a2b903138a",
            "0x000000000000000000000000b0a2b3e4469277bac8e773be4cdae009848fba42"
          ],
          "data": "0x000000000000000000000000000000000000000000000001ea5937766fcb4c8000000000000000000000000000000000000000000000000000000000685fa475",
          "blockHash": "0x55f7152983c884ff0e6fe1778f93c2ca02ba2caac7a66c7236bade73a2e92ae0",
          "blockNumber": "0xdc482",
          "transactionHash": "0xcd15734cda3f9f459c860a375f6c697ed57a2ab655422a2437de1a5b8fe6d493",
          "transactionIndex": "0x1",
          "logIndex": "0x1f",
          "removed": false
        },
        {
          "address": "0x5a1e00984af33bed5520fd13e9c940f9f913cf10",
          "topics": [
            "0xddf252ad1be2c89b69c2b068fc378daa952ba7f163c4a11628f55a4df523b3ef",
            "0x0000000000000000000000000000000000000000000000000000000000000000",
            "0x000000000000000000000000b0a2b3e4469277bac8e773be4cdae009848fba42"
          ],
          "data": "0x0000000000000000000000000000000000000000000000015f921471e5e34c80",
          "blockHash": "0x55f7152983c884ff0e6fe1778f93c2ca02ba2caac7a66c7236bade73a2e92ae0",
          "blockNumber": "0xdc482",
          "transactionHash": "0xcd15734cda3f9f459c860a375f6c697ed57a2ab655422a2437de1a5b8fe6d493",
          "transactionIndex": "0x1",
          "logIndex": "0x20",
          "removed": false
        },
        {
          "address": "0x5a1e00984af33bed5520fd13e9c940f9f913cf10",
          "topics": [
            "0xf3ee618df6e6ff5a26ef25cf1ba9bc24b56492f5ff29acf2815121a2b903138a",
            "0x000000000000000000000000342cb256218eff45705f023352b433659c566185"
          ],
          "data": "0x000000000000000000000000000000000000000000000000e74be50790801fa0000000000000000000000000000000000000000000000000000000006875823a",
          "blockHash": "0x55f7152983c884ff0e6fe1778f93c2ca02ba2caac7a66c7236bade73a2e92ae0",
          "blockNumber": "0xdc482",
          "transactionHash": "0xcd15734cda3f9f459c860a375f6c697ed57a2ab655422a2437de1a5b8fe6d493",
          "transactionIndex": "0x1",
          "logIndex": "0x21",
          "removed": false
        },
        {
          "address": "0x5a1e00984af33bed5520fd13e9c940f9f913cf10",
          "topics": [
            "0xddf252ad1be2c89b69c2b068fc378daa952ba7f163c4a11628f55a4df523b3ef",
            "0x0000000000000000000000000000000000000000000000000000000000000000",
            "0x000000000000000000000000342cb256218eff45705f023352b433659c566185"
          ],
          "data": "0x000000000000000000000000000000000000000000000000e74be50790801fa0",
          "blockHash": "0x55f7152983c884ff0e6fe1778f93c2ca02ba2caac7a66c7236bade73a2e92ae0",
          "blockNumber": "0xdc482",
          "transactionHash": "0xcd15734cda3f9f459c860a375f6c697ed57a2ab655422a2437de1a5b8fe6d493",
          "transactionIndex": "0x1",
          "logIndex": "0x22",
          "removed": false
        },
        {
          "address": "0x5a1e00984af33bed5520fd13e9c940f9f913cf10",
          "topics": [
            "0xf3ee618df6e6ff5a26ef25cf1ba9bc24b56492f5ff29acf2815121a2b903138a",
            "0x000000000000000000000000e403173f8dcba7339b56d940dcd73c5cb29b1526"
          ],
          "data": "0x000000000000000000000000000000000000000000000000908f6f24ba4f1fa0000000000000000000000000000000000000000000000000000000006875823a",
          "blockHash": "0x55f7152983c884ff0e6fe1778f93c2ca02ba2caac7a66c7236bade73a2e92ae0",
          "blockNumber": "0xdc482",
          "transactionHash": "0xcd15734cda3f9f459c860a375f6c697ed57a2ab655422a2437de1a5b8fe6d493",
          "transactionIndex": "0x1",
          "logIndex": "0x23",
          "removed": false
        },
        {
          "address": "0x5a1e00984af33bed5520fd13e9c940f9f913cf10",
          "topics": [
            "0xddf252ad1be2c89b69c2b068fc378daa952ba7f163c4a11628f55a4df523b3ef",
            "0x0000000000000000000000000000000000000000000000000000000000000000",
            "0x000000000000000000000000e403173f8dcba7339b56d940dcd73c5cb29b1526"
          ],
          "data": "0x000000000000000000000000000000000000000000000000908f6f24ba4f1fa0",
          "blockHash": "0x55f7152983c884ff0e6fe1778f93c2ca02ba2caac7a66c7236bade73a2e92ae0",
          "blockNumber": "0xdc482",
          "transactionHash": "0xcd15734cda3f9f459c860a375f6c697ed57a2ab655422a2437de1a5b8fe6d493",
          "transactionIndex": "0x1",
          "logIndex": "0x24",
          "removed": false
        },
        {
          "address": "0x5a1e00984af33bed5520fd13e9c940f9f913cf10",
          "topics": [
            "0xf3ee618df6e6ff5a26ef25cf1ba9bc24b56492f5ff29acf2815121a2b903138a",
            "0x000000000000000000000000e847c816b99eb3f7f380b1b377c4c446743666d5"
          ],
          "data": "0x0000000000000000000000000000000000000000000000012621fd74ec02b960000000000000000000000000000000000000000000000000000000006875823a",
          "blockHash": "0x55f7152983c884ff0e6fe1778f93c2ca02ba2caac7a66c7236bade73a2e92ae0",
          "blockNumber": "0xdc482",
          "transactionHash": "0xcd15734cda3f9f459c860a375f6c697ed57a2ab655422a2437de1a5b8fe6d493",
          "transactionIndex": "0x1",
          "logIndex": "0x25",
          "removed": false
        },
        {
          "address": "0x5a1e00984af33bed5520fd13e9c940f9f913cf10",
          "topics": [
            "0xddf252ad1be2c89b69c2b068fc378daa952ba7f163c4a11628f55a4df523b3ef",
            "0x0000000000000000000000000000000000000000000000000000000000000000",
            "0x000000000000000000000000e847c816b99eb3f7f380b1b377c4c446743666d5"
          ],
          "data": "0x0000000000000000000000000000000000000000000000012621fd74ec02b960",
          "blockHash": "0x55f7152983c884ff0e6fe1778f93c2ca02ba2caac7a66c7236bade73a2e92ae0",
          "blockNumber": "0xdc482",
          "transactionHash": "0xcd15734cda3f9f459c860a375f6c697ed57a2ab655422a2437de1a5b8fe6d493",
          "transactionIndex": "0x1",
          "logIndex": "0x26",
          "removed": false
        },
        {
          "address": "0x2843c269d2a64ecfa63548e8b3fc0fd23b7f70cb",
          "topics": [
            "0x49628fd1471006c1482da88028e9ce4dbb080b815c9b0344d39e5a8e6ec1419f",
            "0x37506ad96627af3d2fdac777eacf5720db74461c697502aec68eb08a3c22f888",
            "0x0000000000000000000000002e2b1c42e38f5af81771e65d87729e57abd1337a",
            "0x0000000000000000000000000000000000000000000000000000000000000000"
          ],
          "data": "0x0000000000000000000000000000000000000000000000000000000000001414000000000000000000000000000000000000000000000000000000000000000100000000000000000000000000000000000000000000000000000000001caea400000000000000000000000000000000000000000000000000000000001caea4",
          "blockHash": "0x55f7152983c884ff0e6fe1778f93c2ca02ba2caac7a66c7236bade73a2e92ae0",
          "blockNumber": "0xdc482",
          "transactionHash": "0xcd15734cda3f9f459c860a375f6c697ed57a2ab655422a2437de1a5b8fe6d493",
          "transactionIndex": "0x1",
          "logIndex": "0x27",
          "removed": false
        }
      ],
      "logsBloom": "0x000000000010840008000000000800000000000000aa000000000000800000200008000400004000000100010000200000080000400008080200020000000040000108100000040080000008000000000024008000000000000000000000808800010000030400000000000000002800002000020000000020000010000002010000000000800400000002000200800100002000000000820200002400000000200420001000000000400000100000000000000000001010000002000000000010004002000000100001000000000000000400000000008000000040000020001000100000010000000200000000000000000000000000018000000000000000",
      "type": "0x2",
      "transactionHash": "0xcd15734cda3f9f459c860a375f6c697ed57a2ab655422a2437de1a5b8fe6d493",
      "transactionIndex": "0x1",
      "blockHash": "0x55f7152983c884ff0e6fe1778f93c2ca02ba2caac7a66c7236bade73a2e92ae0",
      "blockNumber": "0xdc482",
      "gasUsed": "0x21609d",
      "effectiveGasPrice": "0x5f5e100",
      "from": "0x660ad4b5a74130a4796b4d54bc6750ae93c86e6c",
      "to": "0x2843c269d2a64ecfa63548e8b3fc0fd23b7f70cb",
      "contractAddress": null,
      "gasUsedForL1": "0x7e41d",
      "l1BlockNumber": "0x15dbc9e"
    },
    {
      "status": "0x1",
      "cumulativeGasUsed": "0x14a189",
      "logs": [
        {
          "address": "0x2843c269d2a64ecfa63548e8b3fc0fd23b7f70cb",
          "topics": [
            "0xbb47ee3e183a558b1a2ff0874b079f3fc5478b7454eacf2bfc5af2ff5878f972"
          ],
          "data": "0x",
          "blockHash": "0xbaebfaf8753080b95eb5561a779c4f33e2dad3a4695e1cdaf5b3cf821c35fd25",
          "blockNumber": "0xdc483",
          "transactionHash": "0x4e54ed4ccd6e832866c0d747db9f04d5361b08e3d4c842a3b1b0626db90b257c",
          "transactionIndex": "0x1",
          "logIndex": "0x0",
          "removed": false
        },
        {
          "address": "0x5a1e00984af33bed5520fd13e9c940f9f913cf10",
          "topics": [
            "0xddf252ad1be2c89b69c2b068fc378daa952ba7f163c4a11628f55a4df523b3ef",
            "0x000000000000000000000000bd08200c3bd228118a9dbc7301db93f71fcb96e5",
            "0x0000000000000000000000000000000000000000000000000000000000000000"
          ],
          "data": "0x00000000000000000000000000000000000000000000000354dedc7e43738000",
          "blockHash": "0xbaebfaf8753080b95eb5561a779c4f33e2dad3a4695e1cdaf5b3cf821c35fd25",
          "blockNumber": "0xdc483",
          "transactionHash": "0x4e54ed4ccd6e832866c0d747db9f04d5361b08e3d4c842a3b1b0626db90b257c",
          "transactionIndex": "0x1",
          "logIndex": "0x1",
          "removed": false
        },
        {
          "address": "0x5a1e00984af33bed5520fd13e9c940f9f913cf10",
          "topics": [
            "0xddf252ad1be2c89b69c2b068fc378daa952ba7f163c4a11628f55a4df523b3ef",
            "0x000000000000000000000000a830d59962aebdf551a12ce2f53cee2f6e731c86",
            "0x0000000000000000000000000000000000000000000000000000000000000000"
          ],
          "data": "0x00000000000000000000000000000000000000000000003335820748ef170000",
          "blockHash": "0xbaebfaf8753080b95eb5561a779c4f33e2dad3a4695e1cdaf5b3cf821c35fd25",
          "blockNumber": "0xdc483",
          "transactionHash": "0x4e54ed4ccd6e832866c0d747db9f04d5361b08e3d4c842a3b1b0626db90b257c",
          "transactionIndex": "0x1",
          "logIndex": "0x2",
          "removed": false
        },
        {
          "address": "0x5a1e00984af33bed5520fd13e9c940f9f913cf10",
          "topics": [
            "0xddf252ad1be2c89b69c2b068fc378daa952ba7f163c4a11628f55a4df523b3ef",
            "0x0000000000000000000000006bb4c01cc2430875751a5dde0a466d987c0f1365",
            "0x0000000000000000000000000000000000000000000000000000000000000000"
          ],
          "data": "0x0000000000000000000000000000000000000000000000016980488979ac4000",
          "blockHash": "0xbaebfaf8753080b95eb5561a779c4f33e2dad3a4695e1cdaf5b3cf821c35fd25",
          "blockNumber": "0xdc483",
          "transactionHash": "0x4e54ed4ccd6e832866c0d747db9f04d5361b08e3d4c842a3b1b0626db90b257c",
          "transactionIndex": "0x1",
          "logIndex": "0x3",
          "removed": false
        },
        {
          "address": "0x5a1e00984af33bed5520fd13e9c940f9f913cf10",
          "topics": [
            "0xddf252ad1be2c89b69c2b068fc378daa952ba7f163c4a11628f55a4df523b3ef",
            "0x000000000000000000000000d41fef730f89ae5d4a7bcb3af0a92b2adb7fd058",
            "0x0000000000000000000000000000000000000000000000000000000000000000"
          ],
          "data": "0x000000000000000000000000000000000000000000000001dc786271c2eb4000",
          "blockHash": "0xbaebfaf8753080b95eb5561a779c4f33e2dad3a4695e1cdaf5b3cf821c35fd25",
          "blockNumber": "0xdc483",
          "transactionHash": "0x4e54ed4ccd6e832866c0d747db9f04d5361b08e3d4c842a3b1b0626db90b257c",
          "transactionIndex": "0x1",
          "logIndex": "0x4",
          "removed": false
        },
        {
          "address": "0x5a1e00984af33bed5520fd13e9c940f9f913cf10",
          "topics": [
            "0xddf252ad1be2c89b69c2b068fc378daa952ba7f163c4a11628f55a4df523b3ef",
            "0x0000000000000000000000007534657adac296fcfbe16bd08af258e33bee017a",
            "0x0000000000000000000000000000000000000000000000000000000000000000"
          ],
          "data": "0x000000000000000000000000000000000000000000000000ff0b0fbaf12c8000",
          "blockHash": "0xbaebfaf8753080b95eb5561a779c4f33e2dad3a4695e1cdaf5b3cf821c35fd25",
          "blockNumber": "0xdc483",
          "transactionHash": "0x4e54ed4ccd6e832866c0d747db9f04d5361b08e3d4c842a3b1b0626db90b257c",
          "transactionIndex": "0x1",
          "logIndex": "0x5",
          "removed": false
        },
        {
          "address": "0x5a1e00984af33bed5520fd13e9c940f9f913cf10",
          "topics": [
            "0xddf252ad1be2c89b69c2b068fc378daa952ba7f163c4a11628f55a4df523b3ef",
            "0x0000000000000000000000000a6d6a9f95e68f0ab78eb081b5b21760ccc67356",
            "0x0000000000000000000000000000000000000000000000000000000000000000"
          ],
          "data": "0x00000000000000000000000000000000000000000000001b5838fddf5eb80000",
          "blockHash": "0xbaebfaf8753080b95eb5561a779c4f33e2dad3a4695e1cdaf5b3cf821c35fd25",
          "blockNumber": "0xdc483",
          "transactionHash": "0x4e54ed4ccd6e832866c0d747db9f04d5361b08e3d4c842a3b1b0626db90b257c",
          "transactionIndex": "0x1",
          "logIndex": "0x6",
          "removed": false
        },
        {
          "address": "0x5a1e00984af33bed5520fd13e9c940f9f913cf10",
          "topics": [
            "0xddf252ad1be2c89b69c2b068fc378daa952ba7f163c4a11628f55a4df523b3ef",
            "0x000000000000000000000000250d3d4dd20b1817e52841b46cd4d48f6b4bceea",
            "0x0000000000000000000000000000000000000000000000000000000000000000"
          ],
          "data": "0x00000000000000000000000000000000000000000000000bdf3c4bb0328c0000",
          "blockHash": "0xbaebfaf8753080b95eb5561a779c4f33e2dad3a4695e1cdaf5b3cf821c35fd25",
          "blockNumber": "0xdc483",
          "transactionHash": "0x4e54ed4ccd6e832866c0d747db9f04d5361b08e3d4c842a3b1b0626db90b257c",
          "transactionIndex": "0x1",
          "logIndex": "0x7",
          "removed": false
        },
        {
          "address": "0x5a1e00984af33bed5520fd13e9c940f9f913cf10",
          "topics": [
            "0xddf252ad1be2c89b69c2b068fc378daa952ba7f163c4a11628f55a4df523b3ef",
            "0x000000000000000000000000eead23e83ac9139ec420b1083467fa05ede5616e",
            "0x0000000000000000000000000000000000000000000000000000000000000000"
          ],
          "data": "0x0000000000000000000000000000000000000000000000046634c1309b114000",
          "blockHash": "0xbaebfaf8753080b95eb5561a779c4f33e2dad3a4695e1cdaf5b3cf821c35fd25",
          "blockNumber": "0xdc483",
          "transactionHash": "0x4e54ed4ccd6e832866c0d747db9f04d5361b08e3d4c842a3b1b0626db90b257c",
          "transactionIndex": "0x1",
          "logIndex": "0x8",
          "removed": false
        },
        {
          "address": "0x5a1e00984af33bed5520fd13e9c940f9f913cf10",
          "topics": [
            "0xddf252ad1be2c89b69c2b068fc378daa952ba7f163c4a11628f55a4df523b3ef",
            "0x0000000000000000000000006a5e1c3ccd58d0a6064c9229dad012553d5bae2c",
            "0x0000000000000000000000000000000000000000000000000000000000000000"
          ],
          "data": "0x0000000000000000000000000000000000000000000000024fac86cfecde8000",
          "blockHash": "0xbaebfaf8753080b95eb5561a779c4f33e2dad3a4695e1cdaf5b3cf821c35fd25",
          "blockNumber": "0xdc483",
          "transactionHash": "0x4e54ed4ccd6e832866c0d747db9f04d5361b08e3d4c842a3b1b0626db90b257c",
          "transactionIndex": "0x1",
          "logIndex": "0x9",
          "removed": false
        },
        {
          "address": "0x5a1e00984af33bed5520fd13e9c940f9f913cf10",
          "topics": [
            "0xddf252ad1be2c89b69c2b068fc378daa952ba7f163c4a11628f55a4df523b3ef",
            "0x00000000000000000000000031b2dda4b9b16d092af34b684d6b0cb2eb5f3bb5",
            "0x0000000000000000000000000000000000000000000000000000000000000000"
          ],
          "data": "0x000000000000000000000000000000000000000000000002ab141eb749808000",
          "blockHash": "0xbaebfaf8753080b95eb5561a779c4f33e2dad3a4695e1cdaf5b3cf821c35fd25",
          "blockNumber": "0xdc483",
          "transactionHash": "0x4e54ed4ccd6e832866c0d747db9f04d5361b08e3d4c842a3b1b0626db90b257c",
          "transactionIndex": "0x1",
          "logIndex": "0xa",
          "removed": false
        },
        {
          "address": "0x5a1e00984af33bed5520fd13e9c940f9f913cf10",
          "topics": [
            "0xddf252ad1be2c89b69c2b068fc378daa952ba7f163c4a11628f55a4df523b3ef",
            "0x0000000000000000000000007798bae44ccd533995ee6e67c40b1782a669e1d4",
            "0x0000000000000000000000000000000000000000000000000000000000000000"
          ],
          "data": "0x00000000000000000000000000000000000000000000001b1ae4d6e2ef500000",
          "blockHash": "0xbaebfaf8753080b95eb5561a779c4f33e2dad3a4695e1cdaf5b3cf821c35fd25",
          "blockNumber": "0xdc483",
          "transactionHash": "0x4e54ed4ccd6e832866c0d747db9f04d5361b08e3d4c842a3b1b0626db90b257c",
          "transactionIndex": "0x1",
          "logIndex": "0xb",
          "removed": false
        },
        {
          "address": "0x5a1e00984af33bed5520fd13e9c940f9f913cf10",
          "topics": [
            "0xddf252ad1be2c89b69c2b068fc378daa952ba7f163c4a11628f55a4df523b3ef",
            "0x00000000000000000000000024ec8285ed0b8373b2ec753cbb668bcbb773d8ab",
            "0x0000000000000000000000000000000000000000000000000000000000000000"
          ],
          "data": "0x00000000000000000000000000000000000000000000001b770ca2741e4b4000",
          "blockHash": "0xbaebfaf8753080b95eb5561a779c4f33e2dad3a4695e1cdaf5b3cf821c35fd25",
          "blockNumber": "0xdc483",
          "transactionHash": "0x4e54ed4ccd6e832866c0d747db9f04d5361b08e3d4c842a3b1b0626db90b257c",
          "transactionIndex": "0x1",
          "logIndex": "0xc",
          "removed": false
        },
        {
          "address": "0x5a1e00984af33bed5520fd13e9c940f9f913cf10",
          "topics": [
            "0xddf252ad1be2c89b69c2b068fc378daa952ba7f163c4a11628f55a4df523b3ef",
            "0x0000000000000000000000009ba6a569eb6c92dfe30f90c0ff8ebd13ff316848",
            "0x0000000000000000000000000000000000000000000000000000000000000000"
          ],
          "data": "0x000000000000000000000000000000000000000000000013bb83c77202300000",
          "blockHash": "0xbaebfaf8753080b95eb5561a779c4f33e2dad3a4695e1cdaf5b3cf821c35fd25",
          "blockNumber": "0xdc483",
          "transactionHash": "0x4e54ed4ccd6e832866c0d747db9f04d5361b08e3d4c842a3b1b0626db90b257c",
          "transactionIndex": "0x1",
          "logIndex": "0xd",
          "removed": false
        },
        {
          "address": "0x5a1e00984af33bed5520fd13e9c940f9f913cf10",
          "topics": [
            "0xddf252ad1be2c89b69c2b068fc378daa952ba7f163c4a11628f55a4df523b3ef",
            "0x000000000000000000000000af7e6463a5317acc76de24cdc32dd1896825e768",
            "0x0000000000000000000000000000000000000000000000000000000000000000"
          ],
          "data": "0x00000000000000000000000000000000000000000000000579f587dd128e8000",
          "blockHash": "0xbaebfaf8753080b95eb5561a779c4f33e2dad3a4695e1cdaf5b3cf821c35fd25",
          "blockNumber": "0xdc483",
          "transactionHash": "0x4e54ed4ccd6e832866c0d747db9f04d5361b08e3d4c842a3b1b0626db90b257c",
          "transactionIndex": "0x1",
          "logIndex": "0xe",
          "removed": false
        },
        {
          "address": "0x5a1e00984af33bed5520fd13e9c940f9f913cf10",
          "topics": [
            "0xddf252ad1be2c89b69c2b068fc378daa952ba7f163c4a11628f55a4df523b3ef",
            "0x000000000000000000000000548719fba49b4af6ea1fb5ab7e806a934e408f5e",
            "0x0000000000000000000000000000000000000000000000000000000000000000"
          ],
          "data": "0x0000000000000000000000000000000000000000000000025c4aa76522a78000",
          "blockHash": "0xbaebfaf8753080b95eb5561a779c4f33e2dad3a4695e1cdaf5b3cf821c35fd25",
          "blockNumber": "0xdc483",
          "transactionHash": "0x4e54ed4ccd6e832866c0d747db9f04d5361b08e3d4c842a3b1b0626db90b257c",
          "transactionIndex": "0x1",
          "logIndex": "0xf",
          "removed": false
        },
        {
          "address": "0x5a1e00984af33bed5520fd13e9c940f9f913cf10",
          "topics": [
            "0xddf252ad1be2c89b69c2b068fc378daa952ba7f163c4a11628f55a4df523b3ef",
            "0x0000000000000000000000009eea9c32196f4a03a03b173803a72f43b3fe31e0",
            "0x0000000000000000000000000000000000000000000000000000000000000000"
          ],
          "data": "0x00000000000000000000000000000000000000000000004bea915e3828308000",
          "blockHash": "0xbaebfaf8753080b95eb5561a779c4f33e2dad3a4695e1cdaf5b3cf821c35fd25",
          "blockNumber": "0xdc483",
          "transactionHash": "0x4e54ed4ccd6e832866c0d747db9f04d5361b08e3d4c842a3b1b0626db90b257c",
          "transactionIndex": "0x1",
          "logIndex": "0x10",
          "removed": false
        },
        {
          "address": "0x5a1e00984af33bed5520fd13e9c940f9f913cf10",
          "topics": [
            "0xddf252ad1be2c89b69c2b068fc378daa952ba7f163c4a11628f55a4df523b3ef",
            "0x000000000000000000000000e61d3009a18918cfedd9ec51b48e0468a12003d5",
            "0x0000000000000000000000000000000000000000000000000000000000000000"
          ],
          "data": "0x000000000000000000000000000000000000000000000013362a1bce33efc000",
          "blockHash": "0xbaebfaf8753080b95eb5561a779c4f33e2dad3a4695e1cdaf5b3cf821c35fd25",
          "blockNumber": "0xdc483",
          "transactionHash": "0x4e54ed4ccd6e832866c0d747db9f04d5361b08e3d4c842a3b1b0626db90b257c",
          "transactionIndex": "0x1",
          "logIndex": "0x11",
          "removed": false
        },
        {
          "address": "0x5a1e00984af33bed5520fd13e9c940f9f913cf10",
          "topics": [
            "0xddf252ad1be2c89b69c2b068fc378daa952ba7f163c4a11628f55a4df523b3ef",
            "0x000000000000000000000000f59e927e4cf3d84acb808b3b8de6be7f2c67f215",
            "0x0000000000000000000000000000000000000000000000000000000000000000"
          ],
          "data": "0x0000000000000000000000000000000000000000000000088c625aac95ea4000",
          "blockHash": "0xbaebfaf8753080b95eb5561a779c4f33e2dad3a4695e1cdaf5b3cf821c35fd25",
          "blockNumber": "0xdc483",
          "transactionHash": "0x4e54ed4ccd6e832866c0d747db9f04d5361b08e3d4c842a3b1b0626db90b257c",
          "transactionIndex": "0x1",
          "logIndex": "0x12",
          "removed": false
        },
        {
          "address": "0x5a1e00984af33bed5520fd13e9c940f9f913cf10",
          "topics": [
            "0xddf252ad1be2c89b69c2b068fc378daa952ba7f163c4a11628f55a4df523b3ef",
            "0x000000000000000000000000f3c1883d48a6dfe248b2680c923552002db34b16",
            "0x0000000000000000000000000000000000000000000000000000000000000000"
          ],
          "data": "0x0000000000000000000000000000000000000000000000269da745ae14910000",
          "blockHash": "0xbaebfaf8753080b95eb5561a779c4f33e2dad3a4695e1cdaf5b3cf821c35fd25",
          "blockNumber": "0xdc483",
          "transactionHash": "0x4e54ed4ccd6e832866c0d747db9f04d5361b08e3d4c842a3b1b0626db90b257c",
          "transactionIndex": "0x1",
          "logIndex": "0x13",
          "removed": false
        },
        {
          "address": "0x5a1e00984af33bed5520fd13e9c940f9f913cf10",
          "topics": [
            "0xddf252ad1be2c89b69c2b068fc378daa952ba7f163c4a11628f55a4df523b3ef",
            "0x000000000000000000000000f80b444fec79cc4f8f6f7d03505355f252dd1865",
            "0x0000000000000000000000000000000000000000000000000000000000000000"
          ],
          "data": "0x0000000000000000000000000000000000000000000000001d84fa2e1dbbc000",
          "blockHash": "0xbaebfaf8753080b95eb5561a779c4f33e2dad3a4695e1cdaf5b3cf821c35fd25",
          "blockNumber": "0xdc483",
          "transactionHash": "0x4e54ed4ccd6e832866c0d747db9f04d5361b08e3d4c842a3b1b0626db90b257c",
          "transactionIndex": "0x1",
          "logIndex": "0x14",
          "removed": false
        },
        {
          "address": "0x5a1e00984af33bed5520fd13e9c940f9f913cf10",
          "topics": [
            "0xddf252ad1be2c89b69c2b068fc378daa952ba7f163c4a11628f55a4df523b3ef",
            "0x000000000000000000000000c8477ae5edd9dc7de588a46f47ee0c391e59b600",
            "0x0000000000000000000000000000000000000000000000000000000000000000"
          ],
          "data": "0x000000000000000000000000000000000000000000000003e439aedd14480000",
          "blockHash": "0xbaebfaf8753080b95eb5561a779c4f33e2dad3a4695e1cdaf5b3cf821c35fd25",
          "blockNumber": "0xdc483",
          "transactionHash": "0x4e54ed4ccd6e832866c0d747db9f04d5361b08e3d4c842a3b1b0626db90b257c",
          "transactionIndex": "0x1",
          "logIndex": "0x15",
          "removed": false
        },
        {
          "address": "0x5a1e00984af33bed5520fd13e9c940f9f913cf10",
          "topics": [
            "0xddf252ad1be2c89b69c2b068fc378daa952ba7f163c4a11628f55a4df523b3ef",
            "0x0000000000000000000000002b5650e8bd12f1df5ac15c3613949dc4df6e8735",
            "0x0000000000000000000000000000000000000000000000000000000000000000"
          ],
          "data": "0x000000000000000000000000000000000000000000000032d9b3c2fbf872c000",
          "blockHash": "0xbaebfaf8753080b95eb5561a779c4f33e2dad3a4695e1cdaf5b3cf821c35fd25",
          "blockNumber": "0xdc483",
          "transactionHash": "0x4e54ed4ccd6e832866c0d747db9f04d5361b08e3d4c842a3b1b0626db90b257c",
          "transactionIndex": "0x1",
          "logIndex": "0x16",
          "removed": false
        },
        {
          "address": "0x5a1e00984af33bed5520fd13e9c940f9f913cf10",
          "topics": [
            "0xddf252ad1be2c89b69c2b068fc378daa952ba7f163c4a11628f55a4df523b3ef",
            "0x0000000000000000000000006d987766d1c268694c88d243d0b7a34107a28577",
            "0x0000000000000000000000000000000000000000000000000000000000000000"
          ],
          "data": "0x000000000000000000000000000000000000000000000044dcb88026b27c0000",
          "blockHash": "0xbaebfaf8753080b95eb5561a779c4f33e2dad3a4695e1cdaf5b3cf821c35fd25",
          "blockNumber": "0xdc483",
          "transactionHash": "0x4e54ed4ccd6e832866c0d747db9f04d5361b08e3d4c842a3b1b0626db90b257c",
          "transactionIndex": "0x1",
          "logIndex": "0x17",
          "removed": false
        },
        {
          "address": "0x5a1e00984af33bed5520fd13e9c940f9f913cf10",
          "topics": [
            "0xddf252ad1be2c89b69c2b068fc378daa952ba7f163c4a11628f55a4df523b3ef",
            "0x00000000000000000000000003d35c5ed389a3fea9af8921c1b514c60b44e2c2",
            "0x0000000000000000000000000000000000000000000000000000000000000000"
          ],
          "data": "0x000000000000000000000000000000000000000000000001e205785339134000",
          "blockHash": "0xbaebfaf8753080b95eb5561a779c4f33e2dad3a4695e1cdaf5b3cf821c35fd25",
          "blockNumber": "0xdc483",
          "transactionHash": "0x4e54ed4ccd6e832866c0d747db9f04d5361b08e3d4c842a3b1b0626db90b257c",
          "transactionIndex": "0x1",
          "logIndex": "0x18",
          "removed": false
        },
        {
          "address": "0x5a1e00984af33bed5520fd13e9c940f9f913cf10",
          "topics": [
            "0xddf252ad1be2c89b69c2b068fc378daa952ba7f163c4a11628f55a4df523b3ef",
            "0x0000000000000000000000001db3c1376f99fdcc5b4c830776a2a56427599b71",
            "0x0000000000000000000000000000000000000000000000000000000000000000"
          ],
          "data": "0x0000000000000000000000000000000000000000000000065ae93e3b61404000",
          "blockHash": "0xbaebfaf8753080b95eb5561a779c4f33e2dad3a4695e1cdaf5b3cf821c35fd25",
          "blockNumber": "0xdc483",
          "transactionHash": "0x4e54ed4ccd6e832866c0d747db9f04d5361b08e3d4c842a3b1b0626db90b257c",
          "transactionIndex": "0x1",
          "logIndex": "0x19",
          "removed": false
        },
        {
          "address": "0x5a1e00984af33bed5520fd13e9c940f9f913cf10",
          "topics": [
            "0xddf252ad1be2c89b69c2b068fc378daa952ba7f163c4a11628f55a4df523b3ef",
            "0x0000000000000000000000006b7d8c7682cc336dfe26cc3e5042459193808bec",
            "0x0000000000000000000000000000000000000000000000000000000000000000"
          ],
          "data": "0x000000000000000000000000000000000000000000000000ab829138a9248000",
          "blockHash": "0xbaebfaf8753080b95eb5561a779c4f33e2dad3a4695e1cdaf5b3cf821c35fd25",
          "blockNumber": "0xdc483",
          "transactionHash": "0x4e54ed4ccd6e832866c0d747db9f04d5361b08e3d4c842a3b1b0626db90b257c",
          "transactionIndex": "0x1",
          "logIndex": "0x1a",
          "removed": false
        },
        {
          "address": "0x5a1e00984af33bed5520fd13e9c940f9f913cf10",
          "topics": [
            "0xddf252ad1be2c89b69c2b068fc378daa952ba7f163c4a11628f55a4df523b3ef",
            "0x000000000000000000000000b41f2e4e157bd0279545121944b4fd4e059afe1a",
            "0x0000000000000000000000000000000000000000000000000000000000000000"
          ],
          "data": "0x000000000000000000000000000000000000000000000000803b130b5c9c0000",
          "blockHash": "0xbaebfaf8753080b95eb5561a779c4f33e2dad3a4695e1cdaf5b3cf821c35fd25",
          "blockNumber": "0xdc483",
          "transactionHash": "0x4e54ed4ccd6e832866c0d747db9f04d5361b08e3d4c842a3b1b0626db90b257c",
          "transactionIndex": "0x1",
          "logIndex": "0x1b",
          "removed": false
        },
        {
          "address": "0x5a1e00984af33bed5520fd13e9c940f9f913cf10",
          "topics": [
            "0xddf252ad1be2c89b69c2b068fc378daa952ba7f163c4a11628f55a4df523b3ef",
            "0x000000000000000000000000e53f1411665efbfbf7397ee6ee16a8a1dc08229c",
            "0x0000000000000000000000000000000000000000000000000000000000000000"
          ],
          "data": "0x0000000000000000000000000000000000000000000000000de0b6b3a7640000",
          "blockHash": "0xbaebfaf8753080b95eb5561a779c4f33e2dad3a4695e1cdaf5b3cf821c35fd25",
          "blockNumber": "0xdc483",
          "transactionHash": "0x4e54ed4ccd6e832866c0d747db9f04d5361b08e3d4c842a3b1b0626db90b257c",
          "transactionIndex": "0x1",
          "logIndex": "0x1c",
          "removed": false
        },
        {
          "address": "0x5a1e00984af33bed5520fd13e9c940f9f913cf10",
          "topics": [
            "0xddf252ad1be2c89b69c2b068fc378daa952ba7f163c4a11628f55a4df523b3ef",
            "0x000000000000000000000000f26fe167a0f1ccd17f493fbd54bb840edc1d889d",
            "0x0000000000000000000000000000000000000000000000000000000000000000"
          ],
          "data": "0x0000000000000000000000000000000000000000000000002a2375b663ff0000",
          "blockHash": "0xbaebfaf8753080b95eb5561a779c4f33e2dad3a4695e1cdaf5b3cf821c35fd25",
          "blockNumber": "0xdc483",
          "transactionHash": "0x4e54ed4ccd6e832866c0d747db9f04d5361b08e3d4c842a3b1b0626db90b257c",
          "transactionIndex": "0x1",
          "logIndex": "0x1d",
          "removed": false
        },
        {
          "address": "0x2843c269d2a64ecfa63548e8b3fc0fd23b7f70cb",
          "topics": [
            "0x49628fd1471006c1482da88028e9ce4dbb080b815c9b0344d39e5a8e6ec1419f",
            "0x45f3d8a12a62a831a2fc92cd4ee5e725804f615e29e5f46eecc52bff1c641726",
            "0x0000000000000000000000002e2b1c42e38f5af81771e65d87729e57abd1337a",
            "0x0000000000000000000000000000000000000000000000000000000000000000"
          ],
          "data": "0x0000000000000000000000000000000000000000000000000000000000001415000000000000000000000000000000000000000000000000000000000000000100000000000000000000000000000000000000000000000000000000000f874700000000000000000000000000000000000000000000000000000000000f8747",
          "blockHash": "0xbaebfaf8753080b95eb5561a779c4f33e2dad3a4695e1cdaf5b3cf821c35fd25",
          "blockNumber": "0xdc483",
          "transactionHash": "0x4e54ed4ccd6e832866c0d747db9f04d5361b08e3d4c842a3b1b0626db90b257c",
          "transactionIndex": "0x1",
          "logIndex": "0x1e",
          "removed": false
        }
      ],
      "logsBloom": "0x004000001000000000000008002000000000002000802000800080008000030004080020000000002600008100040000108000000000000000000a000000200000040800000400000100000800000000000000800a000400010008008003002800000000020000000000040000000800082000004000000001000010000000000000000004000000000000400802800000000000000004e0000000000000000400440800100000000860120040004000000208000200001000000200a000010500000082004000101001000021000000002000820000008100040040010030c40000200000012000000080080000000000020000020000000000000000000000",
      "type": "0x2",
      "transactionHash": "0x4e54ed4ccd6e832866c0d747db9f04d5361b08e3d4c842a3b1b0626db90b257c",
      "transactionIndex": "0x1",
      "blockHash": "0xbaebfaf8753080b95eb5561a779c4f33e2dad3a4695e1cdaf5b3cf821c35fd25",
      "blockNumber": "0xdc483",
      "gasUsed": "0x14a189",
      "effectiveGasPrice": "0x5f5e100",
      "from": "0x660ad4b5a74130a4796b4d54bc6750ae93c86e6c",
      "to": "0x2843c269d2a64ecfa63548e8b3fc0fd23b7f70cb",
      "contractAddress": null,
      "gasUsedForL1": "0xa09f4",
      "l1BlockNumber": "0x15dbc9e"
    }
  ],
  "libraries": [],
  "pending": [],
  "returns": {},
  "timestamp": 1752531517,
  "chain": 7887,
  "commit": "c1a93e6a"
}