{
  "transactions": [
    {
      "hash": "0x5d5ac0e9f7fd54fbc7d7fa34be87e5188b6168f05556b661565d7513e275a84e",
      "transactionType": "CALL",
      "contractName": null,
      "contractAddress": "0x2843c269d2a64ecfa63548e8b3fc0fd23b7f70cb",
      "function": "handleOps((address,uint256,bytes,bytes,uint256,uint256,uint256,uint256,uint256,bytes,bytes)[],address)",
      "arguments": [
        "[(0x2e2B1c42E38f5af81771e65D87729E57ABD1337a, 4800, 0x, 0xb61d27f6000000000000000000000000acc000818e5bbd911d5d449aa81cb5ca240247390000000000000000000000000000000000000000000000000000000000000000000000000000000000000000000000000000000000000000000000000000006000000000000000000000000000000000000000000000000000000000000000c41cff79cd000000000000000000000000acc000818e5bbd911d5d449aa81cb5ca2402473900000000000000000000000000000000000000000000000000000000000000400000000000000000000000000000000000000000000000000000000000000044d22b59890000000000000000000000005a2b641b84b0230c8e75f55d5afd27f4dbd59d5b00000000000000000000000000000000000000000000000000000000000fd2000000000000000000000000000000000000000000000000000000000000000000000000000000000000000000000000000000000000000000, 4000000, 210000, 21000, 1, 1000000000, 0x0000000000000000000000000000000000000000, 0xbd096db6c3ac45cf8e5151fb9eca7701442e5f4fd85d78626b7e2e3869e1eb257fee60f4d8d0b02308475fb6edd697775ad79a204b299c985be46499da83fc5d1b7291b12196732ef9c245d449fda41ecab50024d1b4c93758c5a7fb9fc5b312955c11c9a52265fd0d8785b41d4ad6aea9d7fc966cd05690c5be1ca12b308462261b)]",
        "0x660ad4B5A74130a4796B4d54BC6750Ae93C86e6c"
      ],
      "transaction": {
        "from": "0x660ad4b5a74130a4796b4d54bc6750ae93c86e6c",
        "to": "0x2843c269d2a64ecfa63548e8b3fc0fd23b7f70cb",
        "value": "0x0",
        "input": "0x1fad948c0000000000000000000000000000000000000000000000000000000000000040000000000000000000000000660ad4b5a74130a4796b4d54bc6750ae93c86e6c000000000000000000000000000000000000000000000000000000000000000100000000000000000000000000000000000000000000000000000000000000200000000000000000000000002e2b1c42e38f5af81771e65d87729e57abd1337a00000000000000000000000000000000000000000000000000000000000012c00000000000000000000000000000000000000000000000000000000000000160000000000000000000000000000000000000000000000000000000000000018000000000000000000000000000000000000000000000000000000000003d0900000000000000000000000000000000000000000000000000000000000003345000000000000000000000000000000000000000000000000000000000000052080000000000000000000000000000000000000000000000000000000000000001000000000000000000000000000000000000000000000000000000003b9aca000000000000000000000000000000000000000000000000000000000000000320000000000000000000000000000000000000000000000000000000000000036000000000000000000000000000000000000000000000000000000000000000000000000000000000000000000000000000000000000000000000000000000164b61d27f6000000000000000000000000acc000818e5bbd911d5d449aa81cb5ca240247390000000000000000000000000000000000000000000000000000000000000000000000000000000000000000000000000000000000000000000000000000006000000000000000000000000000000000000000000000000000000000000000c41cff79cd000000000000000000000000acc000818e5bbd911d5d449aa81cb5ca2402473900000000000000000000000000000000000000000000000000000000000000400000000000000000000000000000000000000000000000000000000000000044d22b59890000000000000000000000005a2b641b84b0230c8e75f55d5afd27f4dbd59d5b00000000000000000000000000000000000000000000000000000000000fd200000000000000000000000000000000000000000000000000000000000000000000000000000000000000000000000000000000000000000000000000000000000000000000000000000000000000000000000000000000000000000000000000000000000000000000000000000000000000001400000000000000000000000000000000000000000000000000000000000000000000000000000000000000000000000000000000000000000000000000000082bd096db6c3ac45cf8e5151fb9eca7701442e5f4fd85d78626b7e2e3869e1eb257fee60f4d8d0b02308475fb6edd697775ad79a204b299c985be46499da83fc5d1b7291b12196732ef9c245d449fda41ecab50024d1b4c93758c5a7fb9fc5b312955c11c9a52265fd0d8785b41d4ad6aea9d7fc966cd05690c5be1ca12b308462261b000000000000000000000000000000000000000000000000000000000000",
        "nonce": "0x4be7e",
        "chainId": "0x1ecf"
      },
      "additionalContracts": [],
      "isFixedGasLimit": false
    },
    {
      "hash": "0xe762086f9195398d64b4cfb3df99e76aa0fc549e47c376632942ab1502e99ba9",
      "transactionType": "CALL",
      "contractName": null,
      "contractAddress": "0x2843c269d2a64ecfa63548e8b3fc0fd23b7f70cb",
      "function": "handleOps((address,uint256,bytes,bytes,uint256,uint256,uint256,uint256,uint256,bytes,bytes)[],address)",
      "arguments": [
        "[(0x2e2B1c42E38f5af81771e65D87729E57ABD1337a, 4801, 0x, 0xb61d27f6000000000000000000000000acc000818e5bbd911d5d449aa81cb5ca240247390000000000000000000000000000000000000000000000000000000000000000000000000000000000000000000000000000000000000000000000000000006000000000000000000000000000000000000000000000000000000000000000c41cff79cd000000000000000000000000acc000818e5bbd911d5d449aa81cb5ca2402473900000000000000000000000000000000000000000000000000000000000000400000000000000000000000000000000000000000000000000000000000000044d22b5989000000000000000000000000f369f78e3a0492cc4e96a90dae0728a38498e9c700000000000000000000000000000000000000000000000000000000000fd2000000000000000000000000000000000000000000000000000000000000000000000000000000000000000000000000000000000000000000, 4000000, 210000, 21000, 1, 1000000000, 0x0000000000000000000000000000000000000000, 0x91cbcf7526aad7231cded4899684b3afb04ea3753a32e063ff01d5d92423c3793dfb4678ca40cf39c9462c17dc4322b38caa75772648eca9c482713b9cd163ee1bd71d18aa05e2935542815bbf05a81d764324b8659e98bea35288e5dfcfe269766c0c038dcbc81d18f1c6b2f4352758cd128c78b5d04eb6a00a137018ac5217051b)]",
        "0x660ad4B5A74130a4796B4d54BC6750Ae93C86e6c"
      ],
      "transaction": {
        "from": "0x660ad4b5a74130a4796b4d54bc6750ae93c86e6c",
        "to": "0x2843c269d2a64ecfa63548e8b3fc0fd23b7f70cb",
        "value": "0x0",
        "input": "0x1fad948c0000000000000000000000000000000000000000000000000000000000000040000000000000000000000000660ad4b5a74130a4796b4d54bc6750ae93c86e6c000000000000000000000000000000000000000000000000000000000000000100000000000000000000000000000000000000000000000000000000000000200000000000000000000000002e2b1c42e38f5af81771e65d87729e57abd1337a00000000000000000000000000000000000000000000000000000000000012c10000000000000000000000000000000000000000000000000000000000000160000000000000000000000000000000000000000000000000000000000000018000000000000000000000000000000000000000000000000000000000003d0900000000000000000000000000000000000000000000000000000000000003345000000000000000000000000000000000000000000000000000000000000052080000000000000000000000000000000000000000000000000000000000000001000000000000000000000000000000000000000000000000000000003b9aca000000000000000000000000000000000000000000000000000000000000000320000000000000000000000000000000000000000000000000000000000000036000000000000000000000000000000000000000000000000000000000000000000000000000000000000000000000000000000000000000000000000000000164b61d27f6000000000000000000000000acc000818e5bbd911d5d449aa81cb5ca240247390000000000000000000000000000000000000000000000000000000000000000000000000000000000000000000000000000000000000000000000000000006000000000000000000000000000000000000000000000000000000000000000c41cff79cd000000000000000000000000acc000818e5bbd911d5d449aa81cb5ca2402473900000000000000000000000000000000000000000000000000000000000000400000000000000000000000000000000000000000000000000000000000000044d22b5989000000000000000000000000f369f78e3a0492cc4e96a90dae0728a38498e9c700000000000000000000000000000000000000000000000000000000000fd20000000000000000000000000000000000000000000000000000000000000000000000000000000000000000000000000000000000000000000000000000000000000000000000000000000000000000000000000000000000000000000000000000000000000000000000000000000000000000140000000000000000000000000000000000000000000000000000000000000000000000000000000000000000000000000000000000000000000000000000008291cbcf7526aad7231cded4899684b3afb04ea3753a32e063ff01d5d92423c3793dfb4678ca40cf39c9462c17dc4322b38caa75772648eca9c482713b9cd163ee1bd71d18aa05e2935542815bbf05a81d764324b8659e98bea35288e5dfcfe269766c0c038dcbc81d18f1c6b2f4352758cd128c78b5d04eb6a00a137018ac5217051b000000000000000000000000000000000000000000000000000000000000",
        "nonce": "0x4be7f",
        "chainId": "0x1ecf"
      },
      "additionalContracts": [],
      "isFixedGasLimit": false
    },
    {
      "hash": "0xd0eaa7fedf43bb63b21ac892b95958334a046609019d4e5e57cdf4d5b7990564",
      "transactionType": "CALL",
      "contractName": null,
      "contractAddress": "0x2843c269d2a64ecfa63548e8b3fc0fd23b7f70cb",
      "function": "handleOps((address,uint256,bytes,bytes,uint256,uint256,uint256,uint256,uint256,bytes,bytes)[],address)",
      "arguments": [
        "[(0x2e2B1c42E38f5af81771e65D87729E57ABD1337a, 4802, 0x, 0xb61d27f6000000000000000000000000acc000818e5bbd911d5d449aa81cb5ca240247390000000000000000000000000000000000000000000000000000000000000000000000000000000000000000000000000000000000000000000000000000006000000000000000000000000000000000000000000000000000000000000000c41cff79cd000000000000000000000000acc000818e5bbd911d5d449aa81cb5ca2402473900000000000000000000000000000000000000000000000000000000000000400000000000000000000000000000000000000000000000000000000000000044d22b59890000000000000000000000008a4720488ca32f1223ccfe5a087e250fe3bc5d7500000000000000000000000000000000000000000000000000000000000fd2000000000000000000000000000000000000000000000000000000000000000000000000000000000000000000000000000000000000000000, 4000000, 210000, 21000, 1, 1000000000, 0x0000000000000000000000000000000000000000, 0x46b5a5e9917280cbdc4843489e6c471ab61495139da5920e40dbb6f25ef56dd91c7472ff9a7f29cee76c2c1ffd291455ea63aa773ecb9e9caadb34ec0314c7df1b516d1e20c73451c33541ad5dc1e808935d043884a02383f632a7e023b77f7e7c1e35ae3bc46bea3246d0595a124f1766853cb65446339eb28ef55386a1d7aee01c)]",
        "0x660ad4B5A74130a4796B4d54BC6750Ae93C86e6c"
      ],
      "transaction": {
        "from": "0x660ad4b5a74130a4796b4d54bc6750ae93c86e6c",
        "to": "0x2843c269d2a64ecfa63548e8b3fc0fd23b7f70cb",
        "value": "0x0",
        "input": "0x1fad948c0000000000000000000000000000000000000000000000000000000000000040000000000000000000000000660ad4b5a74130a4796b4d54bc6750ae93c86e6c000000000000000000000000000000000000000000000000000000000000000100000000000000000000000000000000000000000000000000000000000000200000000000000000000000002e2b1c42e38f5af81771e65d87729e57abd1337a00000000000000000000000000000000000000000000000000000000000012c20000000000000000000000000000000000000000000000000000000000000160000000000000000000000000000000000000000000000000000000000000018000000000000000000000000000000000000000000000000000000000003d0900000000000000000000000000000000000000000000000000000000000003345000000000000000000000000000000000000000000000000000000000000052080000000000000000000000000000000000000000000000000000000000000001000000000000000000000000000000000000000000000000000000003b9aca000000000000000000000000000000000000000000000000000000000000000320000000000000000000000000000000000000000000000000000000000000036000000000000000000000000000000000000000000000000000000000000000000000000000000000000000000000000000000000000000000000000000000164b61d27f6000000000000000000000000acc000818e5bbd911d5d449aa81cb5ca240247390000000000000000000000000000000000000000000000000000000000000000000000000000000000000000000000000000000000000000000000000000006000000000000000000000000000000000000000000000000000000000000000c41cff79cd000000000000000000000000acc000818e5bbd911d5d449aa81cb5ca2402473900000000000000000000000000000000000000000000000000000000000000400000000000000000000000000000000000000000000000000000000000000044d22b59890000000000000000000000008a4720488ca32f1223ccfe5a087e250fe3bc5d7500000000000000000000000000000000000000000000000000000000000fd20000000000000000000000000000000000000000000000000000000000000000000000000000000000000000000000000000000000000000000000000000000000000000000000000000000000000000000000000000000000000000000000000000000000000000000000000000000000000000140000000000000000000000000000000000000000000000000000000000000000000000000000000000000000000000000000000000000000000000000000008246b5a5e9917280cbdc4843489e6c471ab61495139da5920e40dbb6f25ef56dd91c7472ff9a7f29cee76c2c1ffd291455ea63aa773ecb9e9caadb34ec0314c7df1b516d1e20c73451c33541ad5dc1e808935d043884a02383f632a7e023b77f7e7c1e35ae3bc46bea3246d0595a124f1766853cb65446339eb28ef55386a1d7aee01c000000000000000000000000000000000000000000000000000000000000",
        "nonce": "0x4be80",
        "chainId": "0x1ecf"
      },
      "additionalContracts": [],
      "isFixedGasLimit": false
    }
  ],
  "receipts": [
    {
      "status": "0x1",
      "cumulativeGasUsed": "0x41cdc",
      "logs": [
        {
          "address": "0x2843c269d2a64ecfa63548e8b3fc0fd23b7f70cb",
          "topics": [
            "0xbb47ee3e183a558b1a2ff0874b079f3fc5478b7454eacf2bfc5af2ff5878f972"
          ],
          "data": "0x",
          "blockHash": "0xfa161443fde00277cc074be3a0fe05ce0f3465650583969c5a829af508f4a591",
          "blockNumber": "0xcba6c",
          "transactionHash": "0x5d5ac0e9f7fd54fbc7d7fa34be87e5188b6168f05556b661565d7513e275a84e",
          "transactionIndex": "0x1",
          "logIndex": "0x0",
          "removed": false
        },
        {
          "address": "0xacc000818e5bbd911d5d449aa81cb5ca24024739",
          "topics": [
            "0x76a2a46953689d4861a5d3f6ed883ad7e6af674a21f8e162707159fc9dde614d",
            "0x7efe7055898bb49bcf4b4bac2964df4814ca5698c700d895f669b8da3b83443a",
            "0x0000000000000000000000000000000000000000000000000000000000000001"
          ],
          "data": "0x",
          "blockHash": "0xfa161443fde00277cc074be3a0fe05ce0f3465650583969c5a829af508f4a591",
          "blockNumber": "0xcba6c",
          "transactionHash": "0x5d5ac0e9f7fd54fbc7d7fa34be87e5188b6168f05556b661565d7513e275a84e",
          "transactionIndex": "0x1",
          "logIndex": "0x1",
          "removed": false
        },
        {
          "address": "0xacc000818e5bbd911d5d449aa81cb5ca24024739",
          "topics": [
            "0xa56b76017453f399ec2327ba00375dbfb1fd070ff854341ad6191e6a2e2de19c",
            "0x0000000000000000000000005a2b641b84b0230c8e75f55d5afd27f4dbd59d5b"
          ],
          "data": "0x00000000000000000000000000000000000000000000000000000000000fd2000000000000000000000000000000000000000000000000000000000067fe80cc",
          "blockHash": "0xfa161443fde00277cc074be3a0fe05ce0f3465650583969c5a829af508f4a591",
          "blockNumber": "0xcba6c",
          "transactionHash": "0x5d5ac0e9f7fd54fbc7d7fa34be87e5188b6168f05556b661565d7513e275a84e",
          "transactionIndex": "0x1",
          "logIndex": "0x2",
          "removed": false
        },
        {
          "address": "0x2843c269d2a64ecfa63548e8b3fc0fd23b7f70cb",
          "topics": [
            "0x49628fd1471006c1482da88028e9ce4dbb080b815c9b0344d39e5a8e6ec1419f",
            "0x92fcf38ddc6e708921af956f18d33884143858b36b9cc48b51d42d839dced967",
            "0x0000000000000000000000002e2b1c42e38f5af81771e65d87729e57abd1337a",
            "0x0000000000000000000000000000000000000000000000000000000000000000"
          ],
          "data": "0x00000000000000000000000000000000000000000000000000000000000012c00000000000000000000000000000000000000000000000000000000000000001000000000000000000000000000000000000000000000000000000000008ba3c000000000000000000000000000000000000000000000000000000000008ba3c",
          "blockHash": "0xfa161443fde00277cc074be3a0fe05ce0f3465650583969c5a829af508f4a591",
          "blockNumber": "0xcba6c",
          "transactionHash": "0x5d5ac0e9f7fd54fbc7d7fa34be87e5188b6168f05556b661565d7513e275a84e",
          "transactionIndex": "0x1",
          "logIndex": "0x3",
          "removed": false
        }
      ],
      "logsBloom": "0x00010000000008000000000000000000000000000000000000200000000000000008000000000080000000110000000000000000000000000000020000040000000000000000000000010000000000000000000000040000000000000000000800000000120000000000000200000800002000000000000000000000000000000000000000000000000002000000800000000000000000000000000100001000000400000200000000400000000000000000000000000000000002000000000000000000000000100001000000008000000004000000000000000000000260000000080000010000000000000000000000000000000000000000010020000000",
      "type": "0x2",
      "transactionHash": "0x5d5ac0e9f7fd54fbc7d7fa34be87e5188b6168f05556b661565d7513e275a84e",
      "transactionIndex": "0x1",
      "blockHash": "0xfa161443fde00277cc074be3a0fe05ce0f3465650583969c5a829af508f4a591",
      "blockNumber": "0xcba6c",
      "gasUsed": "0x41cdc",
      "effectiveGasPrice": "0x5f5e100",
      "from": "0x660ad4b5a74130a4796b4d54bc6750ae93c86e6c",
      "to": "0x2843c269d2a64ecfa63548e8b3fc0fd23b7f70cb",
      "contractAddress": null,
      "gasUsedForL1": "0x14565",
      "l1BlockNumber": "0x1535938"
    },
    {
      "status": "0x1",
      "cumulativeGasUsed": "0x41ea0",
      "logs": [
        {
          "address": "0x2843c269d2a64ecfa63548e8b3fc0fd23b7f70cb",
          "topics": [
            "0xbb47ee3e183a558b1a2ff0874b079f3fc5478b7454eacf2bfc5af2ff5878f972"
          ],
          "data": "0x",
          "blockHash": "0xde6f6bc1fba9d96674fb9c7e866879b5d05f2d562cc95bff952b168e16cb1d2a",
          "blockNumber": "0xcba6d",
          "transactionHash": "0xe762086f9195398d64b4cfb3df99e76aa0fc549e47c376632942ab1502e99ba9",
          "transactionIndex": "0x1",
          "logIndex": "0x0",
          "removed": false
        },
        {
          "address": "0xacc000818e5bbd911d5d449aa81cb5ca24024739",
          "topics": [
            "0x76a2a46953689d4861a5d3f6ed883ad7e6af674a21f8e162707159fc9dde614d",
            "0x4a05b6df1acce9e22cf008555fa8d477bd9f116f261f267f95c2b463047e016a",
            "0x0000000000000000000000000000000000000000000000000000000000000001"
          ],
          "data": "0x",
          "blockHash": "0xde6f6bc1fba9d96674fb9c7e866879b5d05f2d562cc95bff952b168e16cb1d2a",
          "blockNumber": "0xcba6d",
          "transactionHash": "0xe762086f9195398d64b4cfb3df99e76aa0fc549e47c376632942ab1502e99ba9",
          "transactionIndex": "0x1",
          "logIndex": "0x1",
          "removed": false
        },
        {
          "address": "0xacc000818e5bbd911d5d449aa81cb5ca24024739",
          "topics": [
            "0xa56b76017453f399ec2327ba00375dbfb1fd070ff854341ad6191e6a2e2de19c",
            "0x000000000000000000000000f369f78e3a0492cc4e96a90dae0728a38498e9c7"
          ],
          "data": "0x00000000000000000000000000000000000000000000000000000000000fd2000000000000000000000000000000000000000000000000000000000067fe80cd",
          "blockHash": "0xde6f6bc1fba9d96674fb9c7e866879b5d05f2d562cc95bff952b168e16cb1d2a",
          "blockNumber": "0xcba6d",
          "transactionHash": "0xe762086f9195398d64b4cfb3df99e76aa0fc549e47c376632942ab1502e99ba9",
          "transactionIndex": "0x1",
          "logIndex": "0x2",
          "removed": false
        },
        {
          "address": "0x2843c269d2a64ecfa63548e8b3fc0fd23b7f70cb",
          "topics": [
            "0x49628fd1471006c1482da88028e9ce4dbb080b815c9b0344d39e5a8e6ec1419f",
            "0x9d3741a28cc91d99104d0d1d62e6024c1d9e8fbc09e47b1775314650536db920",
            "0x0000000000000000000000002e2b1c42e38f5af81771e65d87729e57abd1337a",
            "0x0000000000000000000000000000000000000000000000000000000000000000"
          ],
          "data": "0x00000000000000000000000000000000000000000000000000000000000012c10000000000000000000000000000000000000000000000000000000000000001000000000000000000000000000000000000000000000000000000000008ba3c000000000000000000000000000000000000000000000000000000000008ba3c",
          "blockHash": "0xde6f6bc1fba9d96674fb9c7e866879b5d05f2d562cc95bff952b168e16cb1d2a",
          "blockNumber": "0xcba6d",
          "transactionHash": "0xe762086f9195398d64b4cfb3df99e76aa0fc549e47c376632942ab1502e99ba9",
          "transactionIndex": "0x1",
          "logIndex": "0x3",
          "removed": false
        }
      ],
      "logsBloom": "0x01010000000008000000000000000000000000000000000000000000000000002008000000000000000000010000000000000000000000040000020000040000000000000000000000010000000000008000000000040000000000000000000800000000020000000000000000000800002000000000000000000000100000000000000000040000000002000000800000020000000000000000000100001000000400000000000000400000000000000000000000000000000002000000000000000000000000100001100000008000000000000000000000000000000060000000080000010000000000000000000000000000000000000002010000000000",
      "type": "0x2",
      "transactionHash": "0xe762086f9195398d64b4cfb3df99e76aa0fc549e47c376632942ab1502e99ba9",
      "transactionIndex": "0x1",
      "blockHash": "0xde6f6bc1fba9d96674fb9c7e866879b5d05f2d562cc95bff952b168e16cb1d2a",
      "blockNumber": "0xcba6d",
      "gasUsed": "0x41ea0",
      "effectiveGasPrice": "0x5f5e100",
      "from": "0x660ad4b5a74130a4796b4d54bc6750ae93c86e6c",
      "to": "0x2843c269d2a64ecfa63548e8b3fc0fd23b7f70cb",
      "contractAddress": null,
      "gasUsedForL1": "0x1471d",
      "l1BlockNumber": "0x1535938"
    },
    {
      "status": "0x1",
      "cumulativeGasUsed": "0x41e0d",
      "logs": [
        {
          "address": "0x2843c269d2a64ecfa63548e8b3fc0fd23b7f70cb",
          "topics": [
            "0xbb47ee3e183a558b1a2ff0874b079f3fc5478b7454eacf2bfc5af2ff5878f972"
          ],
          "data": "0x",
          "blockHash": "0x69e6c9c65e61b87e47a5e429fd75df8c39f76398787e286bfb73bde4a804eb53",
          "blockNumber": "0xcba6e",
          "transactionHash": "0xd0eaa7fedf43bb63b21ac892b95958334a046609019d4e5e57cdf4d5b7990564",
          "transactionIndex": "0x1",
          "logIndex": "0x0",
          "removed": false
        },
        {
          "address": "0xacc000818e5bbd911d5d449aa81cb5ca24024739",
          "topics": [
            "0x76a2a46953689d4861a5d3f6ed883ad7e6af674a21f8e162707159fc9dde614d",
            "0x2fad4066aacd2052b8b133e635b4d73fbbe42674134fd28b91b0191d4a2cfb0d",
            "0x0000000000000000000000000000000000000000000000000000000000000001"
          ],
          "data": "0x",
          "blockHash": "0x69e6c9c65e61b87e47a5e429fd75df8c39f76398787e286bfb73bde4a804eb53",
          "blockNumber": "0xcba6e",
          "transactionHash": "0xd0eaa7fedf43bb63b21ac892b95958334a046609019d4e5e57cdf4d5b7990564",
          "transactionIndex": "0x1",
          "logIndex": "0x1",
          "removed": false
        },
        {
          "address": "0xacc000818e5bbd911d5d449aa81cb5ca24024739",
          "topics": [
            "0xa56b76017453f399ec2327ba00375dbfb1fd070ff854341ad6191e6a2e2de19c",
            "0x0000000000000000000000008a4720488ca32f1223ccfe5a087e250fe3bc5d75"
          ],
          "data": "0x00000000000000000000000000000000000000000000000000000000000fd2000000000000000000000000000000000000000000000000000000000067fe80cd",
          "blockHash": "0x69e6c9c65e61b87e47a5e429fd75df8c39f76398787e286bfb73bde4a804eb53",
          "blockNumber": "0xcba6e",
          "transactionHash": "0xd0eaa7fedf43bb63b21ac892b95958334a046609019d4e5e57cdf4d5b7990564",
          "transactionIndex": "0x1",
          "logIndex": "0x2",
          "removed": false
        },
        {
          "address": "0x2843c269d2a64ecfa63548e8b3fc0fd23b7f70cb",
          "topics": [
            "0x49628fd1471006c1482da88028e9ce4dbb080b815c9b0344d39e5a8e6ec1419f",
            "0xb345ccd97a710b78136b4598b401e298f289d1041210d14875b6a43cbedd8ffa",
            "0x0000000000000000000000002e2b1c42e38f5af81771e65d87729e57abd1337a",
            "0x0000000000000000000000000000000000000000000000000000000000000000"
          ],
          "data": "0x00000000000000000000000000000000000000000000000000000000000012c20000000000000000000000000000000000000000000000000000000000000001000000000000000000000000000000000000000000000000000000000008ba3c000000000000000000000000000000000000000000000000000000000008ba3c",
          "blockHash": "0x69e6c9c65e61b87e47a5e429fd75df8c39f76398787e286bfb73bde4a804eb53",
          "blockNumber": "0xcba6e",
          "transactionHash": "0xd0eaa7fedf43bb63b21ac892b95958334a046609019d4e5e57cdf4d5b7990564",
          "transactionIndex": "0x1",
          "logIndex": "0x3",
          "removed": false
        }
      ],
      "logsBloom": "0x00010000000008000000000000000000000000000000000000000010000000000008000000000010000000010000000000000000000000040000020000040000000000000000000000010000000000000000000000040000000000000000000802000000020000000000000000000800002000000000080000000000000000000000200000000800000002000000800000000000000000000000000100001000000400002000000000400000000000000000000000000000000002000000000000000010000000100001000000008000000000000000000000000000000060000000080000010000000000000000000000000000000000000000010000000000",
      "type": "0x2",
      "transactionHash": "0xd0eaa7fedf43bb63b21ac892b95958334a046609019d4e5e57cdf4d5b7990564",
      "transactionIndex": "0x1",
      "blockHash": "0x69e6c9c65e61b87e47a5e429fd75df8c39f76398787e286bfb73bde4a804eb53",
      "blockNumber": "0xcba6e",
      "gasUsed": "0x41e0d",
      "effectiveGasPrice": "0x5f5e100",
      "from": "0x660ad4b5a74130a4796b4d54bc6750ae93c86e6c",
      "to": "0x2843c269d2a64ecfa63548e8b3fc0fd23b7f70cb",
      "contractAddress": null,
      "gasUsedForL1": "0x1468a",
      "l1BlockNumber": "0x1535938"
    }
  ],
  "libraries": [],
  "pending": [],
  "returns": {},
  "timestamp": 1744300365,
  "chain": 7887,
  "commit": "33bf8698"
}