{
  "transactions": [
    {
      "hash": "0x35671c2d233e67213cb6661faf5759765f15c8b8e6b72a8407a68aa472230e28",
      "transactionType": "CALL",
      "contractName": null,
      "contractAddress": "0x2843c269d2a64ecfa63548e8b3fc0fd23b7f70cb",
      "function": "handleOps((address,uint256,bytes,bytes,uint256,uint256,uint256,uint256,uint256,bytes,bytes)[],address)",
      "arguments": [
        "[(0x2e2B1c42E38f5af81771e65D87729E57ABD1337a, 4797, 0x, 0xb61d27f6000000000000000000000000acc000818e5bbd911d5d449aa81cb5ca240247390000000000000000000000000000000000000000000000000000000000000000000000000000000000000000000000000000000000000000000000000000006000000000000000000000000000000000000000000000000000000000000000a41cff79cd00000000000000000000000000000000000000000000000000000000000000200000000000000000000000000000000000000000000000000000000000000044d22b59890000000000000000000000005a2b641b84b0230c8e75f55d5afd27f4dbd59d5b00000000000000000000000000000000000000000000000000000000000fd2000000000000000000000000000000000000000000000000000000000000000000000000000000000000000000000000000000000000000000, 4000000, 210000, 21000, 1, 1000000000, 0x0000000000000000000000000000000000000000, 0x47338b3e626dd1da3f1b5a59f803a8da35dca0fdeae1c9f6d7f710a7835734f8664be17d8464032a12f3d535eac990e85494c3563f7b3bb64794a62031db05451ce134e2775d6fe6e5ee170ac254a08cb530f6c9b99bbf815ac526675b7d15032c4259e7097162ca00f8c918dd498fb26d98fb94dee1957622a00c20008c0f0e4b1c)]",
        "0x660ad4B5A74130a4796B4d54BC6750Ae93C86e6c"
      ],
      "transaction": {
        "from": "0x660ad4b5a74130a4796b4d54bc6750ae93c86e6c",
        "to": "0x2843c269d2a64ecfa63548e8b3fc0fd23b7f70cb",
        "value": "0x0",
        "input": "0x1fad948c0000000000000000000000000000000000000000000000000000000000000040000000000000000000000000660ad4b5a74130a4796b4d54bc6750ae93c86e6c000000000000000000000000000000000000000000000000000000000000000100000000000000000000000000000000000000000000000000000000000000200000000000000000000000002e2b1c42e38f5af81771e65d87729e57abd1337a00000000000000000000000000000000000000000000000000000000000012bd0000000000000000000000000000000000000000000000000000000000000160000000000000000000000000000000000000000000000000000000000000018000000000000000000000000000000000000000000000000000000000003d0900000000000000000000000000000000000000000000000000000000000003345000000000000000000000000000000000000000000000000000000000000052080000000000000000000000000000000000000000000000000000000000000001000000000000000000000000000000000000000000000000000000003b9aca000000000000000000000000000000000000000000000000000000000000000300000000000000000000000000000000000000000000000000000000000000034000000000000000000000000000000000000000000000000000000000000000000000000000000000000000000000000000000000000000000000000000000144b61d27f6000000000000000000000000acc000818e5bbd911d5d449aa81cb5ca240247390000000000000000000000000000000000000000000000000000000000000000000000000000000000000000000000000000000000000000000000000000006000000000000000000000000000000000000000000000000000000000000000a41cff79cd00000000000000000000000000000000000000000000000000000000000000200000000000000000000000000000000000000000000000000000000000000044d22b59890000000000000000000000005a2b641b84b0230c8e75f55d5afd27f4dbd59d5b00000000000000000000000000000000000000000000000000000000000fd20000000000000000000000000000000000000000000000000000000000000000000000000000000000000000000000000000000000000000000000000000000000000000000000000000000000000000000000000000000000000000000000000000000000000000000000000000000000000000140000000000000000000000000000000000000000000000000000000000000000000000000000000000000000000000000000000000000000000000000000008247338b3e626dd1da3f1b5a59f803a8da35dca0fdeae1c9f6d7f710a7835734f8664be17d8464032a12f3d535eac990e85494c3563f7b3bb64794a62031db05451ce134e2775d6fe6e5ee170ac254a08cb530f6c9b99bbf815ac526675b7d15032c4259e7097162ca00f8c918dd498fb26d98fb94dee1957622a00c20008c0f0e4b1c000000000000000000000000000000000000000000000000000000000000",
        "nonce": "0x4be7b",
        "chainId": "0x1ecf"
      },
      "additionalContracts": [],
      "isFixedGasLimit": false
    },
    {
      "hash": "0x16d5c0f98b3068c3f5ef6aed5c97fd586918a34ba2aff0beb09530253409ec00",
      "transactionType": "CALL",
      "contractName": null,
      "contractAddress": "0x2843c269d2a64ecfa63548e8b3fc0fd23b7f70cb",
      "function": "handleOps((address,uint256,bytes,bytes,uint256,uint256,uint256,uint256,uint256,bytes,bytes)[],address)",
      "arguments": [
        "[(0x2e2B1c42E38f5af81771e65D87729E57ABD1337a, 4798, 0x, 0xb61d27f6000000000000000000000000acc000818e5bbd911d5d449aa81cb5ca240247390000000000000000000000000000000000000000000000000000000000000000000000000000000000000000000000000000000000000000000000000000006000000000000000000000000000000000000000000000000000000000000000a41cff79cd00000000000000000000000000000000000000000000000000000000000000200000000000000000000000000000000000000000000000000000000000000044d22b5989000000000000000000000000f369f78e3a0492cc4e96a90dae0728a38498e9c700000000000000000000000000000000000000000000000000000000000fd2000000000000000000000000000000000000000000000000000000000000000000000000000000000000000000000000000000000000000000, 4000000, 210000, 21000, 1, 1000000000, 0x0000000000000000000000000000000000000000, 0xf84ba0f509d3df58ef509fc43d558fdd36bed4754f75d6f5ffaa0625b2b443f96b88f9ece9637f4a32cbf03342ca3d82f03062b60f83900d5c8cec102c152e501beced930f5e8d1d7d8ce75a201e492c728983cfd89917aa603bcaa1c83893127360384fd41b35db51cb7316cb17fb5ad89cc1c9e3673bd3234c8364d0184c23161b)]",
        "0x660ad4B5A74130a4796B4d54BC6750Ae93C86e6c"
      ],
      "transaction": {
        "from": "0x660ad4b5a74130a4796b4d54bc6750ae93c86e6c",
        "to": "0x2843c269d2a64ecfa63548e8b3fc0fd23b7f70cb",
        "value": "0x0",
        "input": "0x1fad948c0000000000000000000000000000000000000000000000000000000000000040000000000000000000000000660ad4b5a74130a4796b4d54bc6750ae93c86e6c000000000000000000000000000000000000000000000000000000000000000100000000000000000000000000000000000000000000000000000000000000200000000000000000000000002e2b1c42e38f5af81771e65d87729e57abd1337a00000000000000000000000000000000000000000000000000000000000012be0000000000000000000000000000000000000000000000000000000000000160000000000000000000000000000000000000000000000000000000000000018000000000000000000000000000000000000000000000000000000000003d0900000000000000000000000000000000000000000000000000000000000003345000000000000000000000000000000000000000000000000000000000000052080000000000000000000000000000000000000000000000000000000000000001000000000000000000000000000000000000000000000000000000003b9aca000000000000000000000000000000000000000000000000000000000000000300000000000000000000000000000000000000000000000000000000000000034000000000000000000000000000000000000000000000000000000000000000000000000000000000000000000000000000000000000000000000000000000144b61d27f6000000000000000000000000acc000818e5bbd911d5d449aa81cb5ca240247390000000000000000000000000000000000000000000000000000000000000000000000000000000000000000000000000000000000000000000000000000006000000000000000000000000000000000000000000000000000000000000000a41cff79cd00000000000000000000000000000000000000000000000000000000000000200000000000000000000000000000000000000000000000000000000000000044d22b5989000000000000000000000000f369f78e3a0492cc4e96a90dae0728a38498e9c700000000000000000000000000000000000000000000000000000000000fd200000000000000000000000000000000000000000000000000000000000000000000000000000000000000000000000000000000000000000000000000000000000000000000000000000000000000000000000000000000000000000000000000000000000000000000000000000000000000001400000000000000000000000000000000000000000000000000000000000000000000000000000000000000000000000000000000000000000000000000000082f84ba0f509d3df58ef509fc43d558fdd36bed4754f75d6f5ffaa0625b2b443f96b88f9ece9637f4a32cbf03342ca3d82f03062b60f83900d5c8cec102c152e501beced930f5e8d1d7d8ce75a201e492c728983cfd89917aa603bcaa1c83893127360384fd41b35db51cb7316cb17fb5ad89cc1c9e3673bd3234c8364d0184c23161b000000000000000000000000000000000000000000000000000000000000",
        "nonce": "0x4be7c",
        "chainId": "0x1ecf"
      },
      "additionalContracts": [],
      "isFixedGasLimit": false
    },
    {
      "hash": "0x52ab2de3a47e277fbd8e8cdcbaa381b3d51275f0ea5ef6aeafa945f4327221bd",
      "transactionType": "CALL",
      "contractName": null,
      "contractAddress": "0x2843c269d2a64ecfa63548e8b3fc0fd23b7f70cb",
      "function": "handleOps((address,uint256,bytes,bytes,uint256,uint256,uint256,uint256,uint256,bytes,bytes)[],address)",
      "arguments": [
        "[(0x2e2B1c42E38f5af81771e65D87729E57ABD1337a, 4799, 0x, 0xb61d27f6000000000000000000000000acc000818e5bbd911d5d449aa81cb5ca240247390000000000000000000000000000000000000000000000000000000000000000000000000000000000000000000000000000000000000000000000000000006000000000000000000000000000000000000000000000000000000000000000a41cff79cd00000000000000000000000000000000000000000000000000000000000000200000000000000000000000000000000000000000000000000000000000000044d22b59890000000000000000000000008a4720488ca32f1223ccfe5a087e250fe3bc5d7500000000000000000000000000000000000000000000000000000000000fd2000000000000000000000000000000000000000000000000000000000000000000000000000000000000000000000000000000000000000000, 4000000, 210000, 21000, 1, 1000000000, 0x0000000000000000000000000000000000000000, 0x26c3eaf08c544c1ae99737f5bc74958ba1fcac63cb311f447380c1382e93b4a85c49bffdccdfc422263f827ca22125db955f6067c2ebe19f5c4c830e484f45f21b0181647c91b82848b04c69c755d796002331c13a35ad42149100c7ee789f5dc16220d249943e99e53648355b0195e4e594cfcc63a82b995f38e952189cb0ea8e1c)]",
        "0x660ad4B5A74130a4796B4d54BC6750Ae93C86e6c"
      ],
      "transaction": {
        "from": "0x660ad4b5a74130a4796b4d54bc6750ae93c86e6c",
        "to": "0x2843c269d2a64ecfa63548e8b3fc0fd23b7f70cb",
        "value": "0x0",
        "input": "0x1fad948c0000000000000000000000000000000000000000000000000000000000000040000000000000000000000000660ad4b5a74130a4796b4d54bc6750ae93c86e6c000000000000000000000000000000000000000000000000000000000000000100000000000000000000000000000000000000000000000000000000000000200000000000000000000000002e2b1c42e38f5af81771e65d87729e57abd1337a00000000000000000000000000000000000000000000000000000000000012bf0000000000000000000000000000000000000000000000000000000000000160000000000000000000000000000000000000000000000000000000000000018000000000000000000000000000000000000000000000000000000000003d0900000000000000000000000000000000000000000000000000000000000003345000000000000000000000000000000000000000000000000000000000000052080000000000000000000000000000000000000000000000000000000000000001000000000000000000000000000000000000000000000000000000003b9aca000000000000000000000000000000000000000000000000000000000000000300000000000000000000000000000000000000000000000000000000000000034000000000000000000000000000000000000000000000000000000000000000000000000000000000000000000000000000000000000000000000000000000144b61d27f6000000000000000000000000acc000818e5bbd911d5d449aa81cb5ca240247390000000000000000000000000000000000000000000000000000000000000000000000000000000000000000000000000000000000000000000000000000006000000000000000000000000000000000000000000000000000000000000000a41cff79cd00000000000000000000000000000000000000000000000000000000000000200000000000000000000000000000000000000000000000000000000000000044d22b59890000000000000000000000008a4720488ca32f1223ccfe5a087e250fe3bc5d7500000000000000000000000000000000000000000000000000000000000fd20000000000000000000000000000000000000000000000000000000000000000000000000000000000000000000000000000000000000000000000000000000000000000000000000000000000000000000000000000000000000000000000000000000000000000000000000000000000000000140000000000000000000000000000000000000000000000000000000000000000000000000000000000000000000000000000000000000000000000000000008226c3eaf08c544c1ae99737f5bc74958ba1fcac63cb311f447380c1382e93b4a85c49bffdccdfc422263f827ca22125db955f6067c2ebe19f5c4c830e484f45f21b0181647c91b82848b04c69c755d796002331c13a35ad42149100c7ee789f5dc16220d249943e99e53648355b0195e4e594cfcc63a82b995f38e952189cb0ea8e1c000000000000000000000000000000000000000000000000000000000000",
        "nonce": "0x4be7d",
        "chainId": "0x1ecf"
      },
      "additionalContracts": [],
      "isFixedGasLimit": false
    }
  ],
  "receipts": [
    {
      "status": "0x1",
      "cumulativeGasUsed": "0x3c68f",
      "logs": [
        {
          "address": "0x2843c269d2a64ecfa63548e8b3fc0fd23b7f70cb",
          "topics": [
            "0xbb47ee3e183a558b1a2ff0874b079f3fc5478b7454eacf2bfc5af2ff5878f972"
          ],
          "data": "0x",
          "blockHash": "0xe010d6c0f457a154f2539d60fefab1ca822484e012a2ac94325575daeeedca16",
          "blockNumber": "0xcba68",
          "transactionHash": "0x35671c2d233e67213cb6661faf5759765f15c8b8e6b72a8407a68aa472230e28",
          "transactionIndex": "0x1",
          "logIndex": "0x0",
          "removed": false
        },
        {
          "address": "0x2843c269d2a64ecfa63548e8b3fc0fd23b7f70cb",
          "topics": [
            "0x1c4fada7374c0a9ee8841fc38afe82932dc0f8e69012e927f061a8bae611a201",
            "0x699dec35c2b2d93554c11266a56325892e72c9f9728bfaf4854a55dd6c1f3db7",
            "0x0000000000000000000000002e2b1c42e38f5af81771e65d87729e57abd1337a"
          ],
          "data": "0x00000000000000000000000000000000000000000000000000000000000012bd0000000000000000000000000000000000000000000000000000000000000040000000000000000000000000000000000000000000000000000000000000008408c379a000000000000000000000000000000000000000000000000000000000000000200000000000000000000000000000000000000000000000000000000000000029416464726573733a206c6f772d6c6576656c2063616c6c20776974682076616c7565206661696c6564000000000000000000000000000000000000000000000000000000000000000000000000000000000000000000000000000000",
          "blockHash": "0xe010d6c0f457a154f2539d60fefab1ca822484e012a2ac94325575daeeedca16",
          "blockNumber": "0xcba68",
          "transactionHash": "0x35671c2d233e67213cb6661faf5759765f15c8b8e6b72a8407a68aa472230e28",
          "transactionIndex": "0x1",
          "logIndex": "0x1",
          "removed": false
        },
        {
          "address": "0x2843c269d2a64ecfa63548e8b3fc0fd23b7f70cb",
          "topics": [
            "0x49628fd1471006c1482da88028e9ce4dbb080b815c9b0344d39e5a8e6ec1419f",
            "0x699dec35c2b2d93554c11266a56325892e72c9f9728bfaf4854a55dd6c1f3db7",
            "0x0000000000000000000000002e2b1c42e38f5af81771e65d87729e57abd1337a",
            "0x0000000000000000000000000000000000000000000000000000000000000000"
          ],
          "data": "0x00000000000000000000000000000000000000000000000000000000000012bd000000000000000000000000000000000000000000000000000000000000000000000000000000000000000000000000000000000000000000000000000822dc00000000000000000000000000000000000000000000000000000000000822dc",
          "blockHash": "0xe010d6c0f457a154f2539d60fefab1ca822484e012a2ac94325575daeeedca16",
          "blockNumber": "0xcba68",
          "transactionHash": "0x35671c2d233e67213cb6661faf5759765f15c8b8e6b72a8407a68aa472230e28",
          "transactionIndex": "0x1",
          "logIndex": "0x2",
          "removed": false
        }
      ],
      "logsBloom": "0x000000000000000000000000000000000000000000000000000000000000000008080000000000000000000100000000000000000000000000000200000000000000000000000000000000000000000000000000000000000000000002400008000000000a0000000000000000000800002000000000000000000000000000000000000000000000000000000000808000000000000000000000000000000000000400000000000000400000000000000000000000000000000002000000000000000000000000100001000000000000000000000000000000000000000020000000000001010000000000000000000000000000000000000000000000000000",
      "type": "0x2",
      "transactionHash": "0x35671c2d233e67213cb6661faf5759765f15c8b8e6b72a8407a68aa472230e28",
      "transactionIndex": "0x1",
      "blockHash": "0xe010d6c0f457a154f2539d60fefab1ca822484e012a2ac94325575daeeedca16",
      "blockNumber": "0xcba68",
      "gasUsed": "0x3c68f",
      "effectiveGasPrice": "0x5f5e100",
      "from": "0x660ad4b5a74130a4796b4d54bc6750ae93c86e6c",
      "to": "0x2843c269d2a64ecfa63548e8b3fc0fd23b7f70cb",
      "contractAddress": null,
      "gasUsedForL1": "0x14b1f",
      "l1BlockNumber": "0x1535924"
    },
    {
      "status": "0x1",
      "cumulativeGasUsed": "0x3c0ed",
      "logs": [
        {
          "address": "0x2843c269d2a64ecfa63548e8b3fc0fd23b7f70cb",
          "topics": [
            "0xbb47ee3e183a558b1a2ff0874b079f3fc5478b7454eacf2bfc5af2ff5878f972"
          ],
          "data": "0x",
          "blockHash": "0xb1b9b8f5a8a7f5b484756acc2c5603c5766e3f0f40203726ded951d74cbc5653",
          "blockNumber": "0xcba69",
          "transactionHash": "0x16d5c0f98b3068c3f5ef6aed5c97fd586918a34ba2aff0beb09530253409ec00",
          "transactionIndex": "0x1",
          "logIndex": "0x0",
          "removed": false
        },
        {
          "address": "0x2843c269d2a64ecfa63548e8b3fc0fd23b7f70cb",
          "topics": [
            "0x1c4fada7374c0a9ee8841fc38afe82932dc0f8e69012e927f061a8bae611a201",
            "0x8e44820a6254f4da3727953aa7789317714a80862ef0c7845eded4c67488113a",
            "0x0000000000000000000000002e2b1c42e38f5af81771e65d87729e57abd1337a"
          ],
          "data": "0x00000000000000000000000000000000000000000000000000000000000012be0000000000000000000000000000000000000000000000000000000000000040000000000000000000000000000000000000000000000000000000000000008408c379a000000000000000000000000000000000000000000000000000000000000000200000000000000000000000000000000000000000000000000000000000000029416464726573733a206c6f772d6c6576656c2063616c6c20776974682076616c7565206661696c6564000000000000000000000000000000000000000000000000000000000000000000000000000000000000000000000000000000",
          "blockHash": "0xb1b9b8f5a8a7f5b484756acc2c5603c5766e3f0f40203726ded951d74cbc5653",
          "blockNumber": "0xcba69",
          "transactionHash": "0x16d5c0f98b3068c3f5ef6aed5c97fd586918a34ba2aff0beb09530253409ec00",
          "transactionIndex": "0x1",
          "logIndex": "0x1",
          "removed": false
        },
        {
          "address": "0x2843c269d2a64ecfa63548e8b3fc0fd23b7f70cb",
          "topics": [
            "0x49628fd1471006c1482da88028e9ce4dbb080b815c9b0344d39e5a8e6ec1419f",
            "0x8e44820a6254f4da3727953aa7789317714a80862ef0c7845eded4c67488113a",
            "0x0000000000000000000000002e2b1c42e38f5af81771e65d87729e57abd1337a",
            "0x0000000000000000000000000000000000000000000000000000000000000000"
          ],
          "data": "0x00000000000000000000000000000000000000000000000000000000000012be000000000000000000000000000000000000000000000000000000000000000000000000000000000000000000000000000000000000000000000000000822dc00000000000000000000000000000000000000000000000000000000000822dc",
          "blockHash": "0xb1b9b8f5a8a7f5b484756acc2c5603c5766e3f0f40203726ded951d74cbc5653",
          "blockNumber": "0xcba69",
          "transactionHash": "0x16d5c0f98b3068c3f5ef6aed5c97fd586918a34ba2aff0beb09530253409ec00",
          "transactionIndex": "0x1",
          "logIndex": "0x2",
          "removed": false
        }
      ],
      "logsBloom": "0x000000002000000000000000000000000000000000000000000000000000000000080000002000000000000100000000000000000000000000000200000000000000000000000000000000000000000000000000000000000000000000400008000000004a0000000000000000000800002000000000000000000000000000000000000000000000000000000000800000000000000000000000000000000000000400000000000000400000000000000000000000000000000002000000000000000000000000100001000000000000000000000000000000000000000020000000000001010000000000000000000000000000000000000000000000000000",
      "type": "0x2",
      "transactionHash": "0x16d5c0f98b3068c3f5ef6aed5c97fd586918a34ba2aff0beb09530253409ec00",
      "transactionIndex": "0x1",
      "blockHash": "0xb1b9b8f5a8a7f5b484756acc2c5603c5766e3f0f40203726ded951d74cbc5653",
      "blockNumber": "0xcba69",
      "gasUsed": "0x3c0ed",
      "effectiveGasPrice": "0x5f5e100",
      "from": "0x660ad4b5a74130a4796b4d54bc6750ae93c86e6c",
      "to": "0x2843c269d2a64ecfa63548e8b3fc0fd23b7f70cb",
      "contractAddress": null,
      "gasUsedForL1": "0x14565",
      "l1BlockNumber": "0x1535924"
    },
    {
      "status": "0x1",
      "cumulativeGasUsed": "0x3c56a",
      "logs": [
        {
          "address": "0x2843c269d2a64ecfa63548e8b3fc0fd23b7f70cb",
          "topics": [
            "0xbb47ee3e183a558b1a2ff0874b079f3fc5478b7454eacf2bfc5af2ff5878f972"
          ],
          "data": "0x",
          "blockHash": "0xbf26340d01cc718ef458006331de399efa61afc90c04cd457e39c817a1d82803",
          "blockNumber": "0xcba6a",
          "transactionHash": "0x52ab2de3a47e277fbd8e8cdcbaa381b3d51275f0ea5ef6aeafa945f4327221bd",
          "transactionIndex": "0x1",
          "logIndex": "0x0",
          "removed": false
        },
        {
          "address": "0x2843c269d2a64ecfa63548e8b3fc0fd23b7f70cb",
          "topics": [
            "0x1c4fada7374c0a9ee8841fc38afe82932dc0f8e69012e927f061a8bae611a201",
            "0x1606443b93d5e8b5a47050ad12146d3697ddab704ec5cde2a1d9089e0501261e",
            "0x0000000000000000000000002e2b1c42e38f5af81771e65d87729e57abd1337a"
          ],
          "data": "0x00000000000000000000000000000000000000000000000000000000000012bf0000000000000000000000000000000000000000000000000000000000000040000000000000000000000000000000000000000000000000000000000000008408c379a000000000000000000000000000000000000000000000000000000000000000200000000000000000000000000000000000000000000000000000000000000029416464726573733a206c6f772d6c6576656c2063616c6c20776974682076616c7565206661696c6564000000000000000000000000000000000000000000000000000000000000000000000000000000000000000000000000000000",
          "blockHash": "0xbf26340d01cc718ef458006331de399efa61afc90c04cd457e39c817a1d82803",
          "blockNumber": "0xcba6a",
          "transactionHash": "0x52ab2de3a47e277fbd8e8cdcbaa381b3d51275f0ea5ef6aeafa945f4327221bd",
          "transactionIndex": "0x1",
          "logIndex": "0x1",
          "removed": false
        },
        {
          "address": "0x2843c269d2a64ecfa63548e8b3fc0fd23b7f70cb",
          "topics": [
            "0x49628fd1471006c1482da88028e9ce4dbb080b815c9b0344d39e5a8e6ec1419f",
            "0x1606443b93d5e8b5a47050ad12146d3697ddab704ec5cde2a1d9089e0501261e",
            "0x0000000000000000000000002e2b1c42e38f5af81771e65d87729e57abd1337a",
            "0x0000000000000000000000000000000000000000000000000000000000000000"
          ],
          "data": "0x00000000000000000000000000000000000000000000000000000000000012bf000000000000000000000000000000000000000000000000000000000000000000000000000000000000000000000000000000000000000000000000000822dc00000000000000000000000000000000000000000000000000000000000822dc",
          "blockHash": "0xbf26340d01cc718ef458006331de399efa61afc90c04cd457e39c817a1d82803",
          "blockNumber": "0xcba6a",
          "transactionHash": "0x52ab2de3a47e277fbd8e8cdcbaa381b3d51275f0ea5ef6aeafa945f4327221bd",
          "transactionIndex": "0x1",
          "logIndex": "0x2",
          "removed": false
        }
      ],
      "logsBloom": "0x000000000000020000000000000000000000000000000000000000000000000000080000000000000000000100000000000000000000000000000200000000000000000000000000000000000000000000000000000000000000000000400008000000000a0000000000000000000800002000000000000000000000000000000000000000000000000000000000800000800000000000000000000000000000000400000000000000400000000000000000000000000000000002000000000000000000000000100001000000000000000000000000000000000000000020000000200001010000000000000000000000000000000000000000000000000000",
      "type": "0x2",
      "transactionHash": "0x52ab2de3a47e277fbd8e8cdcbaa381b3d51275f0ea5ef6aeafa945f4327221bd",
      "transactionIndex": "0x1",
      "blockHash": "0xbf26340d01cc718ef458006331de399efa61afc90c04cd457e39c817a1d82803",
      "blockNumber": "0xcba6a",
      "gasUsed": "0x3c56a",
      "effectiveGasPrice": "0x5f5e100",
      "from": "0x660ad4b5a74130a4796b4d54bc6750ae93c86e6c",
      "to": "0x2843c269d2a64ecfa63548e8b3fc0fd23b7f70cb",
      "contractAddress": null,
      "gasUsedForL1": "0x149fa",
      "l1BlockNumber": "0x1535924"
    }
  ],
  "libraries": [],
  "pending": [],
  "returns": {},
  "timestamp": 1744300124,
  "chain": 7887,
  "commit": "33bf8698"
}