{
  "transactions": [
    {
      "hash": "0x93d412fc49c246a4f4c4d0606446bb17657b2c118827fd52bc8b86da8ef08be9",
      "transactionType": "CALL",
      "contractName": null,
      "contractAddress": "0x2843c269d2a64ecfa63548e8b3fc0fd23b7f70cb",
      "function": "handleOps((address,uint256,bytes,bytes,uint256,uint256,uint256,uint256,uint256,bytes,bytes)[],address)",
      "arguments": [
        "[(0x2e2B1c42E38f5af81771e65D87729E57ABD1337a, 4714, 0x, 0xb61d27f6000000000000000000000000acc000818e5bbd911d5d449aa81cb5ca240247390000000000000000000000000000000000000000000000000000000000000000000000000000000000000000000000000000000000000000000000000000006000000000000000000000000000000000000000000000000000000000000000e4f801a698000000000000000000000000acc000818e5bbd911d5d449aa81cb5ca24024739000000000000000000000000000000000000000000000000000000000000006000000000000000000000000000000000000000000000000000000000000000000000000000000000000000000000000000000000000000000000000000000044d22b59890000000000000000000000005a2b641b84b0230c8e75f55d5afd27f4dbd59d5b00000000000000000000000000000000000000000000000000000000000fd2000000000000000000000000000000000000000000000000000000000000000000000000000000000000000000000000000000000000000000, 4000000, 210000, 21000, 1, 1000000000, 0x0000000000000000000000000000000000000000, 0x10c2aa24bd8ad327a240355f136763ff5fe7ea7c1c10fd1e58780566f118119710f3d4ef13f210aa99169025f390c5f3a296b73fc4c10bd176f1aaf77421f9721bb5311b1a5fdb5189b07bbaa0b20a7586df3b0a5e647cc7d16d007260306fc0f838fa4d28ac44f15b081ee1ef384f42779f7ac2438a343a6ae0af1bdf31710fc21b)]",
        "0x660ad4B5A74130a4796B4d54BC6750Ae93C86e6c"
      ],
      "transaction": {
        "from": "0x660ad4b5a74130a4796b4d54bc6750ae93c86e6c",
        "to": "0x2843c269d2a64ecfa63548e8b3fc0fd23b7f70cb",
        "value": "0x0",
        "input": "0x1fad948c0000000000000000000000000000000000000000000000000000000000000040000000000000000000000000660ad4b5a74130a4796b4d54bc6750ae93c86e6c000000000000000000000000000000000000000000000000000000000000000100000000000000000000000000000000000000000000000000000000000000200000000000000000000000002e2b1c42e38f5af81771e65d87729e57abd1337a000000000000000000000000000000000000000000000000000000000000126a0000000000000000000000000000000000000000000000000000000000000160000000000000000000000000000000000000000000000000000000000000018000000000000000000000000000000000000000000000000000000000003d0900000000000000000000000000000000000000000000000000000000000003345000000000000000000000000000000000000000000000000000000000000052080000000000000000000000000000000000000000000000000000000000000001000000000000000000000000000000000000000000000000000000003b9aca000000000000000000000000000000000000000000000000000000000000000340000000000000000000000000000000000000000000000000000000000000038000000000000000000000000000000000000000000000000000000000000000000000000000000000000000000000000000000000000000000000000000000184b61d27f6000000000000000000000000acc000818e5bbd911d5d449aa81cb5ca240247390000000000000000000000000000000000000000000000000000000000000000000000000000000000000000000000000000000000000000000000000000006000000000000000000000000000000000000000000000000000000000000000e4f801a698000000000000000000000000acc000818e5bbd911d5d449aa81cb5ca24024739000000000000000000000000000000000000000000000000000000000000006000000000000000000000000000000000000000000000000000000000000000000000000000000000000000000000000000000000000000000000000000000044d22b59890000000000000000000000005a2b641b84b0230c8e75f55d5afd27f4dbd59d5b00000000000000000000000000000000000000000000000000000000000fd20000000000000000000000000000000000000000000000000000000000000000000000000000000000000000000000000000000000000000000000000000000000000000000000000000000000000000000000000000000000000000000000000000000000000000000000000000000000000000140000000000000000000000000000000000000000000000000000000000000000000000000000000000000000000000000000000000000000000000000000008210c2aa24bd8ad327a240355f136763ff5fe7ea7c1c10fd1e58780566f118119710f3d4ef13f210aa99169025f390c5f3a296b73fc4c10bd176f1aaf77421f9721bb5311b1a5fdb5189b07bbaa0b20a7586df3b0a5e647cc7d16d007260306fc0f838fa4d28ac44f15b081ee1ef384f42779f7ac2438a343a6ae0af1bdf31710fc21b000000000000000000000000000000000000000000000000000000000000",
        "nonce": "0x4bdd6",
        "chainId": "0x1ecf"
      },
      "additionalContracts": [],
      "isFixedGasLimit": false
    },
    {
      "hash": "0xdf4abe7c08ac70318afdea198383845e830b5fbfb834fb3d7e48dc56039fbc1b",
      "transactionType": "CALL",
      "contractName": null,
      "contractAddress": "0x2843c269d2a64ecfa63548e8b3fc0fd23b7f70cb",
      "function": "handleOps((address,uint256,bytes,bytes,uint256,uint256,uint256,uint256,uint256,bytes,bytes)[],address)",
      "arguments": [
        "[(0x2e2B1c42E38f5af81771e65D87729E57ABD1337a, 4715, 0x, 0xb61d27f6000000000000000000000000acc000818e5bbd911d5d449aa81cb5ca240247390000000000000000000000000000000000000000000000000000000000000000000000000000000000000000000000000000000000000000000000000000006000000000000000000000000000000000000000000000000000000000000000e4f801a698000000000000000000000000acc000818e5bbd911d5d449aa81cb5ca24024739000000000000000000000000000000000000000000000000000000000000006000000000000000000000000000000000000000000000000000000000000000000000000000000000000000000000000000000000000000000000000000000044d22b5989000000000000000000000000f369f78e3a0492cc4e96a90dae0728a38498e9c700000000000000000000000000000000000000000000000000000000000fd2000000000000000000000000000000000000000000000000000000000000000000000000000000000000000000000000000000000000000000, 4000000, 210000, 21000, 1, 1000000000, 0x0000000000000000000000000000000000000000, 0xd85d8397e029457cded7720b185a861c060254ecdc9331d596152d7cc6c32ee4076d74f836261239a24abb9ec94aec6c890879bb774b86bf3a3252ccf73dd40d1b3467271ebd19e36b78179c1eecd2b97139abb90e406836f8f9f29fd2fe6c9b0656898f9f5712f904b17e6faa30224e9c42895ceb6b96e6675e80999c8e1ea9781c)]",
        "0x660ad4B5A74130a4796B4d54BC6750Ae93C86e6c"
      ],
      "transaction": {
        "from": "0x660ad4b5a74130a4796b4d54bc6750ae93c86e6c",
        "to": "0x2843c269d2a64ecfa63548e8b3fc0fd23b7f70cb",
        "value": "0x0",
        "input": "0x1fad948c0000000000000000000000000000000000000000000000000000000000000040000000000000000000000000660ad4b5a74130a4796b4d54bc6750ae93c86e6c000000000000000000000000000000000000000000000000000000000000000100000000000000000000000000000000000000000000000000000000000000200000000000000000000000002e2b1c42e38f5af81771e65d87729e57abd1337a000000000000000000000000000000000000000000000000000000000000126b0000000000000000000000000000000000000000000000000000000000000160000000000000000000000000000000000000000000000000000000000000018000000000000000000000000000000000000000000000000000000000003d0900000000000000000000000000000000000000000000000000000000000003345000000000000000000000000000000000000000000000000000000000000052080000000000000000000000000000000000000000000000000000000000000001000000000000000000000000000000000000000000000000000000003b9aca000000000000000000000000000000000000000000000000000000000000000340000000000000000000000000000000000000000000000000000000000000038000000000000000000000000000000000000000000000000000000000000000000000000000000000000000000000000000000000000000000000000000000184b61d27f6000000000000000000000000acc000818e5bbd911d5d449aa81cb5ca240247390000000000000000000000000000000000000000000000000000000000000000000000000000000000000000000000000000000000000000000000000000006000000000000000000000000000000000000000000000000000000000000000e4f801a698000000000000000000000000acc000818e5bbd911d5d449aa81cb5ca24024739000000000000000000000000000000000000000000000000000000000000006000000000000000000000000000000000000000000000000000000000000000000000000000000000000000000000000000000000000000000000000000000044d22b5989000000000000000000000000f369f78e3a0492cc4e96a90dae0728a38498e9c700000000000000000000000000000000000000000000000000000000000fd200000000000000000000000000000000000000000000000000000000000000000000000000000000000000000000000000000000000000000000000000000000000000000000000000000000000000000000000000000000000000000000000000000000000000000000000000000000000000001400000000000000000000000000000000000000000000000000000000000000000000000000000000000000000000000000000000000000000000000000000082d85d8397e029457cded7720b185a861c060254ecdc9331d596152d7cc6c32ee4076d74f836261239a24abb9ec94aec6c890879bb774b86bf3a3252ccf73dd40d1b3467271ebd19e36b78179c1eecd2b97139abb90e406836f8f9f29fd2fe6c9b0656898f9f5712f904b17e6faa30224e9c42895ceb6b96e6675e80999c8e1ea9781c000000000000000000000000000000000000000000000000000000000000",
        "nonce": "0x4bdd7",
        "chainId": "0x1ecf"
      },
      "additionalContracts": [],
      "isFixedGasLimit": false
    },
    {
      "hash": "0x14e7027458919617cc8873418cabdb22a4d2ae3698503ca10d85bebbd4ef2cbb",
      "transactionType": "CALL",
      "contractName": null,
      "contractAddress": "0x2843c269d2a64ecfa63548e8b3fc0fd23b7f70cb",
      "function": "handleOps((address,uint256,bytes,bytes,uint256,uint256,uint256,uint256,uint256,bytes,bytes)[],address)",
      "arguments": [
        "[(0x2e2B1c42E38f5af81771e65D87729E57ABD1337a, 4716, 0x, 0xb61d27f6000000000000000000000000acc000818e5bbd911d5d449aa81cb5ca240247390000000000000000000000000000000000000000000000000000000000000000000000000000000000000000000000000000000000000000000000000000006000000000000000000000000000000000000000000000000000000000000000e4f801a698000000000000000000000000acc000818e5bbd911d5d449aa81cb5ca24024739000000000000000000000000000000000000000000000000000000000000006000000000000000000000000000000000000000000000000000000000000000000000000000000000000000000000000000000000000000000000000000000044d22b59890000000000000000000000008a4720488ca32f1223ccfe5a087e250fe3bc5d7500000000000000000000000000000000000000000000000000000000000fd2000000000000000000000000000000000000000000000000000000000000000000000000000000000000000000000000000000000000000000, 4000000, 210000, 21000, 1, 1000000000, 0x0000000000000000000000000000000000000000, 0xca35115a3374713e75448838c089128569ff36e2d518670bb9ef91bea9f1077e6dec81c5741a7839be7dfaf9a69b5e00867215cfc6f1be67dbfa18b263ad50761ca26322cffdd69a936cda202bc33a5f7c3d5e5bcdf13736fdb7395041fd8f43710cc1fae80b1ead32e06b077655ccc759bd6e919467d8269cb20f73f69d17d77e1c)]",
        "0x660ad4B5A74130a4796B4d54BC6750Ae93C86e6c"
      ],
      "transaction": {
        "from": "0x660ad4b5a74130a4796b4d54bc6750ae93c86e6c",
        "to": "0x2843c269d2a64ecfa63548e8b3fc0fd23b7f70cb",
        "value": "0x0",
        "input": "0x1fad948c0000000000000000000000000000000000000000000000000000000000000040000000000000000000000000660ad4b5a74130a4796b4d54bc6750ae93c86e6c000000000000000000000000000000000000000000000000000000000000000100000000000000000000000000000000000000000000000000000000000000200000000000000000000000002e2b1c42e38f5af81771e65d87729e57abd1337a000000000000000000000000000000000000000000000000000000000000126c0000000000000000000000000000000000000000000000000000000000000160000000000000000000000000000000000000000000000000000000000000018000000000000000000000000000000000000000000000000000000000003d0900000000000000000000000000000000000000000000000000000000000003345000000000000000000000000000000000000000000000000000000000000052080000000000000000000000000000000000000000000000000000000000000001000000000000000000000000000000000000000000000000000000003b9aca000000000000000000000000000000000000000000000000000000000000000340000000000000000000000000000000000000000000000000000000000000038000000000000000000000000000000000000000000000000000000000000000000000000000000000000000000000000000000000000000000000000000000184b61d27f6000000000000000000000000acc000818e5bbd911d5d449aa81cb5ca240247390000000000000000000000000000000000000000000000000000000000000000000000000000000000000000000000000000000000000000000000000000006000000000000000000000000000000000000000000000000000000000000000e4f801a698000000000000000000000000acc000818e5bbd911d5d449aa81cb5ca24024739000000000000000000000000000000000000000000000000000000000000006000000000000000000000000000000000000000000000000000000000000000000000000000000000000000000000000000000000000000000000000000000044d22b59890000000000000000000000008a4720488ca32f1223ccfe5a087e250fe3bc5d7500000000000000000000000000000000000000000000000000000000000fd200000000000000000000000000000000000000000000000000000000000000000000000000000000000000000000000000000000000000000000000000000000000000000000000000000000000000000000000000000000000000000000000000000000000000000000000000000000000000001400000000000000000000000000000000000000000000000000000000000000000000000000000000000000000000000000000000000000000000000000000082ca35115a3374713e75448838c089128569ff36e2d518670bb9ef91bea9f1077e6dec81c5741a7839be7dfaf9a69b5e00867215cfc6f1be67dbfa18b263ad50761ca26322cffdd69a936cda202bc33a5f7c3d5e5bcdf13736fdb7395041fd8f43710cc1fae80b1ead32e06b077655ccc759bd6e919467d8269cb20f73f69d17d77e1c000000000000000000000000000000000000000000000000000000000000",
        "nonce": "0x4bdd8",
        "chainId": "0x1ecf"
      },
      "additionalContracts": [],
      "isFixedGasLimit": false
    }
  ],
  "receipts": [
    {
      "status": "0x1",
      "cumulativeGasUsed": "0x2f118",
      "logs": [
        {
          "address": "0x2843c269d2a64ecfa63548e8b3fc0fd23b7f70cb",
          "topics": [
            "0xbb47ee3e183a558b1a2ff0874b079f3fc5478b7454eacf2bfc5af2ff5878f972"
          ],
          "data": "0x",
          "blockHash": "0x6b5c31bdc98e81b96db4c0426c08e90708c88ed250aea7136d811d1dfb27d1c7",
          "blockNumber": "0xbe64e",
          "transactionHash": "0x93d412fc49c246a4f4c4d0606446bb17657b2c118827fd52bc8b86da8ef08be9",
          "transactionIndex": "0x1",
          "logIndex": "0x0",
          "removed": false
        },
        {
          "address": "0xacc000818e5bbd911d5d449aa81cb5ca24024739",
          "topics": [
            "0x82a2da5dee54ea8021c6545b4444620291e07ee83be6dd57edb175062715f3b4",
            "0x7efe7055898bb49bcf4b4bac2964df4814ca5698c700d895f669b8da3b83443a",
            "0x0000000000000000000000000000000000000000000000000000000000000001"
          ],
          "data": "0x0000000000000000000000000000000000000000000000000000000067f1e16f0000000000000000000000002e2b1c42e38f5af81771e65d87729e57abd1337a000000000000000000000000acc000818e5bbd911d5d449aa81cb5ca2402473900000000000000000000000000000000000000000000000000000000000000800000000000000000000000000000000000000000000000000000000000000044d22b59890000000000000000000000005a2b641b84b0230c8e75f55d5afd27f4dbd59d5b00000000000000000000000000000000000000000000000000000000000fd20000000000000000000000000000000000000000000000000000000000",
          "blockHash": "0x6b5c31bdc98e81b96db4c0426c08e90708c88ed250aea7136d811d1dfb27d1c7",
          "blockNumber": "0xbe64e",
          "transactionHash": "0x93d412fc49c246a4f4c4d0606446bb17657b2c118827fd52bc8b86da8ef08be9",
          "transactionIndex": "0x1",
          "logIndex": "0x1",
          "removed": false
        },
        {
          "address": "0x2843c269d2a64ecfa63548e8b3fc0fd23b7f70cb",
          "topics": [
            "0x49628fd1471006c1482da88028e9ce4dbb080b815c9b0344d39e5a8e6ec1419f",
            "0xb14b95c3e168228185665564c4d63a91f33999963450dca9fb3c35f80314dba9",
            "0x0000000000000000000000002e2b1c42e38f5af81771e65d87729e57abd1337a",
            "0x0000000000000000000000000000000000000000000000000000000000000000"
          ],
          "data": "0x000000000000000000000000000000000000000000000000000000000000126a00000000000000000000000000000000000000000000000000000000000000010000000000000000000000000000000000000000000000000000000000088ade0000000000000000000000000000000000000000000000000000000000088ade",
          "blockHash": "0x6b5c31bdc98e81b96db4c0426c08e90708c88ed250aea7136d811d1dfb27d1c7",
          "blockNumber": "0xbe64e",
          "transactionHash": "0x93d412fc49c246a4f4c4d0606446bb17657b2c118827fd52bc8b86da8ef08be9",
          "transactionIndex": "0x1",
          "logIndex": "0x2",
          "removed": false
        }
      ],
      "logsBloom": "0x00000000000008000000000000000000000800000000000010200000000000000008000000000000000000010000000000000000000000000000020000040000000000000000000000000000000000000000000000040000000000000000000800000000020000000000000200000800002000000000000000000000000000000000000000000000000102000000800000000000000000000000000000001000000400000000000000400008000000000010000001000000000002000000000000000000000000100001000000000000000004000000000000000000000060000000000000010000000000000000000000000000000000000000000000000000",
      "type": "0x2",
      "transactionHash": "0x93d412fc49c246a4f4c4d0606446bb17657b2c118827fd52bc8b86da8ef08be9",
      "transactionIndex": "0x1",
      "blockHash": "0x6b5c31bdc98e81b96db4c0426c08e90708c88ed250aea7136d811d1dfb27d1c7",
      "blockNumber": "0xbe64e",
      "gasUsed": "0x2f118",
      "effectiveGasPrice": "0x5f5e100",
      "from": "0x660ad4b5a74130a4796b4d54bc6750ae93c86e6c",
      "to": "0x2843c269d2a64ecfa63548e8b3fc0fd23b7f70cb",
      "contractAddress": null,
      "gasUsedForL1": "0x0",
      "l1BlockNumber": "0x151a566"
    },
    {
      "status": "0x1",
      "cumulativeGasUsed": "0x2f124",
      "logs": [
        {
          "address": "0x2843c269d2a64ecfa63548e8b3fc0fd23b7f70cb",
          "topics": [
            "0xbb47ee3e183a558b1a2ff0874b079f3fc5478b7454eacf2bfc5af2ff5878f972"
          ],
          "data": "0x",
          "blockHash": "0xdd36c7b091a556c6b67da79c83a86d9781889f4b3dcdac07ac0e44d27b7420c0",
          "blockNumber": "0xbe64f",
          "transactionHash": "0xdf4abe7c08ac70318afdea198383845e830b5fbfb834fb3d7e48dc56039fbc1b",
          "transactionIndex": "0x1",
          "logIndex": "0x0",
          "removed": false
        },
        {
          "address": "0xacc000818e5bbd911d5d449aa81cb5ca24024739",
          "topics": [
            "0x82a2da5dee54ea8021c6545b4444620291e07ee83be6dd57edb175062715f3b4",
            "0x4a05b6df1acce9e22cf008555fa8d477bd9f116f261f267f95c2b463047e016a",
            "0x0000000000000000000000000000000000000000000000000000000000000001"
          ],
          "data": "0x0000000000000000000000000000000000000000000000000000000067f1e1700000000000000000000000002e2b1c42e38f5af81771e65d87729e57abd1337a000000000000000000000000acc000818e5bbd911d5d449aa81cb5ca2402473900000000000000000000000000000000000000000000000000000000000000800000000000000000000000000000000000000000000000000000000000000044d22b5989000000000000000000000000f369f78e3a0492cc4e96a90dae0728a38498e9c700000000000000000000000000000000000000000000000000000000000fd20000000000000000000000000000000000000000000000000000000000",
          "blockHash": "0xdd36c7b091a556c6b67da79c83a86d9781889f4b3dcdac07ac0e44d27b7420c0",
          "blockNumber": "0xbe64f",
          "transactionHash": "0xdf4abe7c08ac70318afdea198383845e830b5fbfb834fb3d7e48dc56039fbc1b",
          "transactionIndex": "0x1",
          "logIndex": "0x1",
          "removed": false
        },
        {
          "address": "0x2843c269d2a64ecfa63548e8b3fc0fd23b7f70cb",
          "topics": [
            "0x49628fd1471006c1482da88028e9ce4dbb080b815c9b0344d39e5a8e6ec1419f",
            "0x49911ccad8042c8735180c368ec03818d5d63324de4129d59cc56682c2f66c67",
            "0x0000000000000000000000002e2b1c42e38f5af81771e65d87729e57abd1337a",
            "0x0000000000000000000000000000000000000000000000000000000000000000"
          ],
          "data": "0x000000000000000000000000000000000000000000000000000000000000126b00000000000000000000000000000000000000000000000000000000000000010000000000000000000000000000000000000000000000000000000000088ade0000000000000000000000000000000000000000000000000000000000088ade",
          "blockHash": "0xdd36c7b091a556c6b67da79c83a86d9781889f4b3dcdac07ac0e44d27b7420c0",
          "blockNumber": "0xbe64f",
          "transactionHash": "0xdf4abe7c08ac70318afdea198383845e830b5fbfb834fb3d7e48dc56039fbc1b",
          "transactionIndex": "0x1",
          "logIndex": "0x2",
          "removed": false
        }
      ],
      "logsBloom": "0x01000000000008000000000000000000000800000000000000000000000000002008000000000000000000010000000000000000000000000000020000040000000000000000000000000000000000000000000000040000000000000000000800000000020000000000000000000800002000000000000000000000000000000000000000000000000002000000800000000400000800000000000000001000000400000000000000400008000000000000000001000000000002000000000000000000000000100001100000000000000000000008000000000000000060000000000000010000000000000000000000000000000000000000000000000000",
      "type": "0x2",
      "transactionHash": "0xdf4abe7c08ac70318afdea198383845e830b5fbfb834fb3d7e48dc56039fbc1b",
      "transactionIndex": "0x1",
      "blockHash": "0xdd36c7b091a556c6b67da79c83a86d9781889f4b3dcdac07ac0e44d27b7420c0",
      "blockNumber": "0xbe64f",
      "gasUsed": "0x2f124",
      "effectiveGasPrice": "0x5f5e100",
      "from": "0x660ad4b5a74130a4796b4d54bc6750ae93c86e6c",
      "to": "0x2843c269d2a64ecfa63548e8b3fc0fd23b7f70cb",
      "contractAddress": null,
      "gasUsedForL1": "0x0",
      "l1BlockNumber": "0x151a566"
    },
    {
      "status": "0x1",
      "cumulativeGasUsed": "0x2f118",
      "logs": [
        {
          "address": "0x2843c269d2a64ecfa63548e8b3fc0fd23b7f70cb",
          "topics": [
            "0xbb47ee3e183a558b1a2ff0874b079f3fc5478b7454eacf2bfc5af2ff5878f972"
          ],
          "data": "0x",
          "blockHash": "0x7cf966094a1d82a1da01b1d68d4fe2cb2f6eb03fb3a4a37d73c056bf243424cf",
          "blockNumber": "0xbe650",
          "transactionHash": "0x14e7027458919617cc8873418cabdb22a4d2ae3698503ca10d85bebbd4ef2cbb",
          "transactionIndex": "0x1",
          "logIndex": "0x0",
          "removed": false
        },
        {
          "address": "0xacc000818e5bbd911d5d449aa81cb5ca24024739",
          "topics": [
            "0x82a2da5dee54ea8021c6545b4444620291e07ee83be6dd57edb175062715f3b4",
            "0x2fad4066aacd2052b8b133e635b4d73fbbe42674134fd28b91b0191d4a2cfb0d",
            "0x0000000000000000000000000000000000000000000000000000000000000001"
          ],
          "data": "0x0000000000000000000000000000000000000000000000000000000067f1e1710000000000000000000000002e2b1c42e38f5af81771e65d87729e57abd1337a000000000000000000000000acc000818e5bbd911d5d449aa81cb5ca2402473900000000000000000000000000000000000000000000000000000000000000800000000000000000000000000000000000000000000000000000000000000044d22b59890000000000000000000000008a4720488ca32f1223ccfe5a087e250fe3bc5d7500000000000000000000000000000000000000000000000000000000000fd20000000000000000000000000000000000000000000000000000000000",
          "blockHash": "0x7cf966094a1d82a1da01b1d68d4fe2cb2f6eb03fb3a4a37d73c056bf243424cf",
          "blockNumber": "0xbe650",
          "transactionHash": "0x14e7027458919617cc8873418cabdb22a4d2ae3698503ca10d85bebbd4ef2cbb",
          "transactionIndex": "0x1",
          "logIndex": "0x1",
          "removed": false
        },
        {
          "address": "0x2843c269d2a64ecfa63548e8b3fc0fd23b7f70cb",
          "topics": [
            "0x49628fd1471006c1482da88028e9ce4dbb080b815c9b0344d39e5a8e6ec1419f",
            "0xb5c56bcf6301f739ee5d1ddf1e3787328532291d125d77d5eca5919849b22ef6",
            "0x0000000000000000000000002e2b1c42e38f5af81771e65d87729e57abd1337a",
            "0x0000000000000000000000000000000000000000000000000000000000000000"
          ],
          "data": "0x000000000000000000000000000000000000000000000000000000000000126c00000000000000000000000000000000000000000000000000000000000000010000000000000000000000000000000000000000000000000000000000088ade0000000000000000000000000000000000000000000000000000000000088ade",
          "blockHash": "0x7cf966094a1d82a1da01b1d68d4fe2cb2f6eb03fb3a4a37d73c056bf243424cf",
          "blockNumber": "0xbe650",
          "transactionHash": "0x14e7027458919617cc8873418cabdb22a4d2ae3698503ca10d85bebbd4ef2cbb",
          "transactionIndex": "0x1",
          "logIndex": "0x2",
          "removed": false
        }
      ],
      "logsBloom": "0x00000000000008000000000000000000000800000000000000000000000000000008000000000000000000010000000000000000000000040000020000040000000000000000000000000000000000000000000000040000000000000000000800000000020000000000000000000800002000000000000400000000000000000000200000000000000002000000800000000001004000000000000000001000000400000000000000400008000000000000000001000000000002000000000000000010000000100001000000000000000000000000000000000000000060000000000000010000000000000000000000000000000000000000000000000000",
      "type": "0x2",
      "transactionHash": "0x14e7027458919617cc8873418cabdb22a4d2ae3698503ca10d85bebbd4ef2cbb",
      "transactionIndex": "0x1",
      "blockHash": "0x7cf966094a1d82a1da01b1d68d4fe2cb2f6eb03fb3a4a37d73c056bf243424cf",
      "blockNumber": "0xbe650",
      "gasUsed": "0x2f118",
      "effectiveGasPrice": "0x5f5e100",
      "from": "0x660ad4b5a74130a4796b4d54bc6750ae93c86e6c",
      "to": "0x2843c269d2a64ecfa63548e8b3fc0fd23b7f70cb",
      "contractAddress": null,
      "gasUsedForL1": "0x0",
      "l1BlockNumber": "0x151a566"
    }
  ],
  "libraries": [],
  "pending": [],
  "returns": {},
  "timestamp": 1742954737,
  "chain": 7887,
  "commit": "913fa152"
}