{
  "transactions": [
    {
      "hash": null,
      "transactionType": "CALL",
      "contractName": null,
      "contractAddress": "0x2843c269d2a64ecfa63548e8b3fc0fd23b7f70cb",
      "function": "handleOps((address,uint256,bytes,bytes,uint256,uint256,uint256,uint256,uint256,bytes,bytes)[],address)",
      "arguments": [
        "[(0x2e2B1c42E38f5af81771e65D87729E57ABD1337a, 4871, 0x, 0xb61d27f60000000000000000000000005a2b641b84b0230c8e75f55d5afd27f4dbd59d5b000000000000000000000000000000000000000000000000000000000000000000000000000000000000000000000000000000000000000000000000000000600000000000000000000000000000000000000000000000000000000000000084db9e9908000000000000000000000000d157904639e89df05e89e0dabeec99ae3d74f9aa000000000000000000000000000000000000000000000000000000000000004000000000000000000000000000000000000000000000000000000000000000010000000000000000000000006033b0fe6c23e6d160ab8a0381e4666e6978d32500000000000000000000000000000000000000000000000000000000, 4000000, 210000, 21000, 1, 1000000000, 0x0000000000000000000000000000000000000000, 0x3dfff19597eec5ab03928fa9193a4d506442cac181c95f311f8b5dbb12828b9034e2bd08e0bd5795d63ca0016bad93f92b906c1b280d6274c13f70802cc8e9531ce4eaf1c63a0fc22769de3886b8f649b634f974adb99bd37ab55c8835a991a1360575207d8b5fa6f2c714220c7b1f876ad8f14fcea687fad2bc3030f2048e17721c)]",
        "0x660ad4B5A74130a4796B4d54BC6750Ae93C86e6c"
      ],
      "transaction": {
        "from": "0x660ad4b5a74130a4796b4d54bc6750ae93c86e6c",
        "to": "0x2843c269d2a64ecfa63548e8b3fc0fd23b7f70cb",
        "value": "0x0",
        "input": "0x1fad948c0000000000000000000000000000000000000000000000000000000000000040000000000000000000000000660ad4b5a74130a4796b4d54bc6750ae93c86e6c000000000000000000000000000000000000000000000000000000000000000100000000000000000000000000000000000000000000000000000000000000200000000000000000000000002e2b1c42e38f5af81771e65d87729e57abd1337a00000000000000000000000000000000000000000000000000000000000013070000000000000000000000000000000000000000000000000000000000000160000000000000000000000000000000000000000000000000000000000000018000000000000000000000000000000000000000000000000000000000003d0900000000000000000000000000000000000000000000000000000000000003345000000000000000000000000000000000000000000000000000000000000052080000000000000000000000000000000000000000000000000000000000000001000000000000000000000000000000000000000000000000000000003b9aca0000000000000000000000000000000000000000000000000000000000000002e0000000000000000000000000000000000000000000000000000000000000032000000000000000000000000000000000000000000000000000000000000000000000000000000000000000000000000000000000000000000000000000000124b61d27f60000000000000000000000005a2b641b84b0230c8e75f55d5afd27f4dbd59d5b000000000000000000000000000000000000000000000000000000000000000000000000000000000000000000000000000000000000000000000000000000600000000000000000000000000000000000000000000000000000000000000084db9e9908000000000000000000000000d157904639e89df05e89e0dabeec99ae3d74f9aa000000000000000000000000000000000000000000000000000000000000004000000000000000000000000000000000000000000000000000000000000000010000000000000000000000006033b0fe6c23e6d160ab8a0381e4666e6978d32500000000000000000000000000000000000000000000000000000000000000000000000000000000000000000000000000000000000000000000000000000000000000000000000000000000000000000000000000000014000000000000000000000000000000000000000000000000000000000000000000000000000000000000000000000000000000000000000000000000000000823dfff19597eec5ab03928fa9193a4d506442cac181c95f311f8b5dbb12828b9034e2bd08e0bd5795d63ca0016bad93f92b906c1b280d6274c13f70802cc8e9531ce4eaf1c63a0fc22769de3886b8f649b634f974adb99bd37ab55c8835a991a1360575207d8b5fa6f2c714220c7b1f876ad8f14fcea687fad2bc3030f2048e17721c000000000000000000000000000000000000000000000000000000000000",
        "nonce": "0x4beb5",
        "chainId": "0x1ecf"
      },
      "additionalContracts": [],
      "isFixedGasLimit": false
    }
  ],
  "receipts": [],
  "libraries": [],
  "pending": [],
  "returns": {},
  "timestamp": 1746552694,
  "chain": 7887,
  "commit": "bd635c8c"
}