{
  "transactions": [
    {
      "hash": "0x14c849012ef27fc2370824423096a2bd332f8c55cc626d2baa872515bf76d9ee",
      "transactionType": "CALL",
      "contractName": null,
      "contractAddress": "0x2843c269d2a64ecfa63548e8b3fc0fd23b7f70cb",
      "function": "handleOps((address,uint256,bytes,bytes,uint256,uint256,uint256,uint256,uint256,bytes,bytes)[],address)",
      "arguments": [
        "[(0x2e2B1c42E38f5af81771e65D87729E57ABD1337a, 4726, 0x, 0xb61d27f60000000000000000000000003de040ef2fbf9158badf559c5606d7706ca7230900000000000000000000000000000000000000000000000000038d7ea4c6800000000000000000000000000000000000000000000000000000000000000000600000000000000000000000000000000000000000000000000000000000000104405e720a000000000000000000000000660ad4b5a74130a4796b4d54bc6750ae93c86e6c00000000000000000000000000000000000000000000003635c9adc5dea00000000000000000000000000000000000000000000000000000000000000007a120000000000000000000000000bef01d401b54c19b2bcfe93f5e55e0355fe24a7300000000000000000000000000000000000000000000000000000000000000c000000000000000000000000000000000000000000000000000000000000000e00000000000000000000000000000000000000000000000000000000000000000000000000000000000000000000000000000000000000000000000000000000000000000000000000000000000000000000000000000000000000000, 4000000, 210000, 21000, 1, 1000000000, 0x0000000000000000000000000000000000000000, 0x3e28eeed87f0c26ff7dd11f6d833fd0eb54ff4e1330bd63c105babeadd89a0c80a03f2f605d9a83d4b3896ba816ced40c4f49b6f32ff039338d4364b0bbcc2221bf3e5334de870355be477bb486f26e678e366e5500b0ea07500dd57cdc1c0244c5e1969b62ac0586bfcca914bb66288fbb6be7e247e41d4d5cf7297de9c5badb21b)]",
        "0x660ad4B5A74130a4796B4d54BC6750Ae93C86e6c"
      ],
      "transaction": {
        "from": "0x660ad4b5a74130a4796b4d54bc6750ae93c86e6c",
        "to": "0x2843c269d2a64ecfa63548e8b3fc0fd23b7f70cb",
        "value": "0x0",
        "input": "0x1fad948c0000000000000000000000000000000000000000000000000000000000000040000000000000000000000000660ad4b5a74130a4796b4d54bc6750ae93c86e6c000000000000000000000000000000000000000000000000000000000000000100000000000000000000000000000000000000000000000000000000000000200000000000000000000000002e2b1c42e38f5af81771e65d87729e57abd1337a00000000000000000000000000000000000000000000000000000000000012760000000000000000000000000000000000000000000000000000000000000160000000000000000000000000000000000000000000000000000000000000018000000000000000000000000000000000000000000000000000000000003d0900000000000000000000000000000000000000000000000000000000000003345000000000000000000000000000000000000000000000000000000000000052080000000000000000000000000000000000000000000000000000000000000001000000000000000000000000000000000000000000000000000000003b9aca00000000000000000000000000000000000000000000000000000000000000036000000000000000000000000000000000000000000000000000000000000003a0000000000000000000000000000000000000000000000000000000000000000000000000000000000000000000000000000000000000000000000000000001a4b61d27f60000000000000000000000003de040ef2fbf9158badf559c5606d7706ca7230900000000000000000000000000000000000000000000000000038d7ea4c6800000000000000000000000000000000000000000000000000000000000000000600000000000000000000000000000000000000000000000000000000000000104405e720a000000000000000000000000660ad4b5a74130a4796b4d54bc6750ae93c86e6c00000000000000000000000000000000000000000000003635c9adc5dea00000000000000000000000000000000000000000000000000000000000000007a120000000000000000000000000bef01d401b54c19b2bcfe93f5e55e0355fe24a7300000000000000000000000000000000000000000000000000000000000000c000000000000000000000000000000000000000000000000000000000000000e00000000000000000000000000000000000000000000000000000000000000000000000000000000000000000000000000000000000000000000000000000000000000000000000000000000000000000000000000000000000000000000000000000000000000000000000000000000000000000000000000000000000000000000000000000000000000000000000000000000000000014000000000000000000000000000000000000000000000000000000000000000000000000000000000000000000000000000000000000000000000000000000823e28eeed87f0c26ff7dd11f6d833fd0eb54ff4e1330bd63c105babeadd89a0c80a03f2f605d9a83d4b3896ba816ced40c4f49b6f32ff039338d4364b0bbcc2221bf3e5334de870355be477bb486f26e678e366e5500b0ea07500dd57cdc1c0244c5e1969b62ac0586bfcca914bb66288fbb6be7e247e41d4d5cf7297de9c5badb21b000000000000000000000000000000000000000000000000000000000000",
        "nonce": "0x4bde9",
        "chainId": "0x1ecf"
      },
      "additionalContracts": [],
      "isFixedGasLimit": false
    }
  ],
  "receipts": [
    {
      "status": "0x1",
      "cumulativeGasUsed": "0x5b066",
      "logs": [
        {
          "address": "0x2843c269d2a64ecfa63548e8b3fc0fd23b7f70cb",
          "topics": [
            "0xbb47ee3e183a558b1a2ff0874b079f3fc5478b7454eacf2bfc5af2ff5878f972"
          ],
          "data": "0x",
          "blockHash": "0xc08666fd87c97f4e2d3383d2393f0680eddd901063ca4b0df49613357d4af36a",
          "blockNumber": "0xbee1b",
          "transactionHash": "0x14c849012ef27fc2370824423096a2bd332f8c55cc626d2baa872515bf76d9ee",
          "transactionIndex": "0x1",
          "logIndex": "0x0",
          "removed": false
        },
        {
          "address": "0x010700808d59d2bb92257fcafacfe8e5bff7ab87",
          "topics": [
            "0xddf252ad1be2c89b69c2b068fc378daa952ba7f163c4a11628f55a4df523b3ef",
            "0x0000000000000000000000002e2b1c42e38f5af81771e65d87729e57abd1337a",
            "0x0000000000000000000000003de040ef2fbf9158badf559c5606d7706ca72309"
          ],
          "data": "0x00000000000000000000000000000000000000000000003635c9adc5dea00000",
          "blockHash": "0xc08666fd87c97f4e2d3383d2393f0680eddd901063ca4b0df49613357d4af36a",
          "blockNumber": "0xbee1b",
          "transactionHash": "0x14c849012ef27fc2370824423096a2bd332f8c55cc626d2baa872515bf76d9ee",
          "transactionIndex": "0x1",
          "logIndex": "0x1",
          "removed": false
        },
        {
          "address": "0x2321c637686b8da2e01c60d72fd82a595879da00",
          "topics": [
            "0x9ed9683bfff0f737f91f20945e98c912976d94e76860b05b48b15bc0d589be1f"
          ],
          "data": "0xebacac80269bf4898d46beb3327fc95818da6ee18ba2ee3a0468b10d58f59c65000000000000000000000000000000000000000000000000000000000000334febacac80269bf4898d46beb3327fc95818da6ee18ba2ee3a0468b10d58f59c65",
          "blockHash": "0xc08666fd87c97f4e2d3383d2393f0680eddd901063ca4b0df49613357d4af36a",
          "blockNumber": "0xbee1b",
          "transactionHash": "0x14c849012ef27fc2370824423096a2bd332f8c55cc626d2baa872515bf76d9ee",
          "transactionIndex": "0x1",
          "logIndex": "0x2",
          "removed": false
        },
        {
          "address": "0x3e9727470c66b1e77034590926cde0242b5a3dcc",
          "topics": [
            "0x45d70e73f9a26cea18d4009d1ad25ffbdc4114ce9d8ceb15959ae9eadb0a3a2c"
          ],
          "data": "0x0000000000000000000000000000000000000000000000000000000000001ecf000000000000000000000000bef01d401b54c19b2bcfe93f5e55e0355fe24a73000000000000000000000000000000000000000000000000000000000000a4b10000000000000000000000001827e7f732d5338315031d63cc54f41d3cdf6cda00001ecf1827e7f732d5338315031d63cc54f41d3cdf6cda00000000000047f5000000000000000000000000000000000000000000000000000000000007a1200000000000000000000000000000000000000000000000000000000000000000000000000000000000000000000000000000000000000000000000000000000000000000000000000000000000000000000000000000000000000000000001800000000000000000000000000000000000000000000000000000081c2b096ee8000000000000000000000000000000000000000000000000000381191b074618000000000000000000000000000000000000000000000000000004495eb5cb0000000000000000000000000000000000000000000000000000000000000000a0000000000000000000000000660ad4b5a74130a4796b4d54bc6750ae93c86e6c00000000000000000000000000000000000000000000003635c9adc5dea0000000001ecf1827e7f732d5338315031d63cc54f41d3cdf6cda00000000000047f500000000000000000000000000000000000000000000000000000000000000800000000000000000000000000000000000000000000000000000000000000000",
          "blockHash": "0xc08666fd87c97f4e2d3383d2393f0680eddd901063ca4b0df49613357d4af36a",
          "blockNumber": "0xbee1b",
          "transactionHash": "0x14c849012ef27fc2370824423096a2bd332f8c55cc626d2baa872515bf76d9ee",
          "transactionIndex": "0x1",
          "logIndex": "0x3",
          "removed": false
        },
        {
          "address": "0x3de040ef2fbf9158badf559c5606d7706ca72309",
          "topics": [
            "0xc74a00177d2c63e6eead5ea7936974ad9d0121f86140723b8909f8ec9662cc61"
          ],
          "data": "0x000000000000000000000000bef01d401b54c19b2bcfe93f5e55e0355fe24a730000000000000000000000002e2b1c42e38f5af81771e65d87729e57abd1337a000000000000000000000000660ad4b5a74130a4796b4d54bc6750ae93c86e6c00000000000000000000000000000000000000000000003635c9adc5dea0000000001ecf1827e7f732d5338315031d63cc54f41d3cdf6cda00000000000047f5",
          "blockHash": "0xc08666fd87c97f4e2d3383d2393f0680eddd901063ca4b0df49613357d4af36a",
          "blockNumber": "0xbee1b",
          "transactionHash": "0x14c849012ef27fc2370824423096a2bd332f8c55cc626d2baa872515bf76d9ee",
          "transactionIndex": "0x1",
          "logIndex": "0x4",
          "removed": false
        },
        {
          "address": "0x2843c269d2a64ecfa63548e8b3fc0fd23b7f70cb",
          "topics": [
            "0x49628fd1471006c1482da88028e9ce4dbb080b815c9b0344d39e5a8e6ec1419f",
            "0xe165b108a0142a971a2b97aa3841af2dd644bdb2fdd00a0ec6b9a4632d1c116b",
            "0x0000000000000000000000002e2b1c42e38f5af81771e65d87729e57abd1337a",
            "0x0000000000000000000000000000000000000000000000000000000000000000"
          ],
          "data": "0x0000000000000000000000000000000000000000000000000000000000001276000000000000000000000000000000000000000000000000000000000000000100000000000000000000000000000000000000000000000000000000000b1af800000000000000000000000000000000000000000000000000000000000b1af8",
          "blockHash": "0xc08666fd87c97f4e2d3383d2393f0680eddd901063ca4b0df49613357d4af36a",
          "blockNumber": "0xbee1b",
          "transactionHash": "0x14c849012ef27fc2370824423096a2bd332f8c55cc626d2baa872515bf76d9ee",
          "transactionIndex": "0x1",
          "logIndex": "0x5",
          "removed": false
        }
      ],
      "logsBloom": "0x00100000000400000000000000800000000002000000800000000000000200000008000000000000001000010000000000080000000000000000620000000000000000000000000000000048000000080000000000000000000c00000000000800000000020002000000000000000804002000000000000000000010000000000000000000000000002000000000800000000000000000000002000000000000001500000000000000400000000000008000000000000000000002000000000000080002000000100001400000000000010000000000000000000000000020000000000000010000000000000000800000000000000000400000000000000000",
      "type": "0x2",
      "transactionHash": "0x14c849012ef27fc2370824423096a2bd332f8c55cc626d2baa872515bf76d9ee",
      "transactionIndex": "0x1",
      "blockHash": "0xc08666fd87c97f4e2d3383d2393f0680eddd901063ca4b0df49613357d4af36a",
      "blockNumber": "0xbee1b",
      "gasUsed": "0x5b066",
      "effectiveGasPrice": "0x5f5e100",
      "from": "0x660ad4b5a74130a4796b4d54bc6750ae93c86e6c",
      "to": "0x2843c269d2a64ecfa63548e8b3fc0fd23b7f70cb",
      "contractAddress": null,
      "gasUsedForL1": "0x2dc",
      "l1BlockNumber": "0x151d072"
    }
  ],
  "libraries": [],
  "pending": [],
  "returns": {},
  "timestamp": 1743087477,
  "chain": 7887,
  "commit": "1fd003a1"
}