{
  "transactions": [
    {
      "hash": "0x17be26d347ecd21a10263a9822c24904de66022fe57ef3dbf1f3e02e8a9db51d",
      "transactionType": "CALL",
      "contractName": null,
      "contractAddress": "0x2843c269d2a64ecfa63548e8b3fc0fd23b7f70cb",
      "function": "handleOps((address,uint256,bytes,bytes,uint256,uint256,uint256,uint256,uint256,bytes,bytes)[],address)",
      "arguments": [
        "[(0x2e2B1c42E38f5af81771e65D87729E57ABD1337a, 4686, 0x, 0xb61d27f6000000000000000000000000010700808d59d2bb92257fcafacfe8e5bff7ab87000000000000000000000000000000000000000000000000000000000000000000000000000000000000000000000000000000000000000000000000000000600000000000000000000000000000000000000000000000000000000000000044095ea7b30000000000000000000000003de040ef2fbf9158badf559c5606d7706ca72309ffffffffffffffffffffffffffffffffffffffffffffffffffffffffffffffff00000000000000000000000000000000000000000000000000000000, 4000000, 210000, 21000, 1, 1000000000, 0x0000000000000000000000000000000000000000, 0xeeb8fd77663a1540c0a27973c75fc0e9f41bf9e962dc84c7ce2980fd6a2813e719126a044eef3e8657059b5b93268e5a5009941e8b4e1753d5b31d0fb34586fb1b47ebea2b5800746ad7745815a61279b6e764a1e947165784f5bbeb693942512a61ea005f404026790802b3201d80bb8aba0eab430507d386c165d3dc98f4d8911c)]",
        "0x660ad4B5A74130a4796B4d54BC6750Ae93C86e6c"
      ],
      "transaction": {
        "from": "0x660ad4b5a74130a4796b4d54bc6750ae93c86e6c",
        "to": "0x2843c269d2a64ecfa63548e8b3fc0fd23b7f70cb",
        "value": "0x0",
        "input": "0x1fad948c0000000000000000000000000000000000000000000000000000000000000040000000000000000000000000660ad4b5a74130a4796b4d54bc6750ae93c86e6c000000000000000000000000000000000000000000000000000000000000000100000000000000000000000000000000000000000000000000000000000000200000000000000000000000002e2b1c42e38f5af81771e65d87729e57abd1337a000000000000000000000000000000000000000000000000000000000000124e0000000000000000000000000000000000000000000000000000000000000160000000000000000000000000000000000000000000000000000000000000018000000000000000000000000000000000000000000000000000000000003d0900000000000000000000000000000000000000000000000000000000000003345000000000000000000000000000000000000000000000000000000000000052080000000000000000000000000000000000000000000000000000000000000001000000000000000000000000000000000000000000000000000000003b9aca0000000000000000000000000000000000000000000000000000000000000002a000000000000000000000000000000000000000000000000000000000000002e0000000000000000000000000000000000000000000000000000000000000000000000000000000000000000000000000000000000000000000000000000000e4b61d27f6000000000000000000000000010700808d59d2bb92257fcafacfe8e5bff7ab87000000000000000000000000000000000000000000000000000000000000000000000000000000000000000000000000000000000000000000000000000000600000000000000000000000000000000000000000000000000000000000000044095ea7b30000000000000000000000003de040ef2fbf9158badf559c5606d7706ca72309ffffffffffffffffffffffffffffffffffffffffffffffffffffffffffffffff0000000000000000000000000000000000000000000000000000000000000000000000000000000000000000000000000000000000000000000000000000000000000000000000000000000000000000000000000000001400000000000000000000000000000000000000000000000000000000000000000000000000000000000000000000000000000000000000000000000000000082eeb8fd77663a1540c0a27973c75fc0e9f41bf9e962dc84c7ce2980fd6a2813e719126a044eef3e8657059b5b93268e5a5009941e8b4e1753d5b31d0fb34586fb1b47ebea2b5800746ad7745815a61279b6e764a1e947165784f5bbeb693942512a61ea005f404026790802b3201d80bb8aba0eab430507d386c165d3dc98f4d8911c000000000000000000000000000000000000000000000000000000000000",
        "nonce": "0x4bdb9",
        "chainId": "0x1ecf"
      },
      "additionalContracts": [],
      "isFixedGasLimit": false
    },
    {
      "hash": "0x817e9b8df187a211211974fc348b65f48315ba4cbfa2afba5b75f0d7acf82445",
      "transactionType": "CALL",
      "contractName": null,
      "contractAddress": "0x2843c269d2a64ecfa63548e8b3fc0fd23b7f70cb",
      "function": "handleOps((address,uint256,bytes,bytes,uint256,uint256,uint256,uint256,uint256,bytes,bytes)[],address)",
      "arguments": [
        "[(0x2e2B1c42E38f5af81771e65D87729E57ABD1337a, 4687, 0x, 0xb61d27f60000000000000000000000003de040ef2fbf9158badf559c5606d7706ca72309000000000000000000000000000000000000000000000000000000000000000000000000000000000000000000000000000000000000000000000000000000600000000000000000000000000000000000000000000000000000000000000104405e720a000000000000000000000000660ad4b5a74130a4796b4d54bc6750ae93c86e6c0000000000000000000000000000000000000000000005ede20f01a459800000000000000000000000000000000000000000000000000000000000000007a120000000000000000000000000bef01d401b54c19b2bcfe93f5e55e0355fe24a7300000000000000000000000000000000000000000000000000000000000000c000000000000000000000000000000000000000000000000000000000000000e00000000000000000000000000000000000000000000000000000000000000000000000000000000000000000000000000000000000000000000000000000000000000000000000000000000000000000000000000000000000000000, 4000000, 210000, 21000, 1, 1000000000, 0x0000000000000000000000000000000000000000, 0x3a121cb52cc78d16dab53e92921ef6b29ac01c555119a385086ae941aa7dd57f3caa25553adf29a330e598ce296555664d459f5a1a0db7631bc6800cb930ca491b909d8e06f266ab13d1f7f4a7adfa056079c113b0ca9fe935e7558a9414682bae4545ba26b5f6a56c6af67da032a86bea97eaa0b1472c813dd98ca4700e0396e91b)]",
        "0x660ad4B5A74130a4796B4d54BC6750Ae93C86e6c"
      ],
      "transaction": {
        "from": "0x660ad4b5a74130a4796b4d54bc6750ae93c86e6c",
        "to": "0x2843c269d2a64ecfa63548e8b3fc0fd23b7f70cb",
        "value": "0x0",
        "input": "0x1fad948c0000000000000000000000000000000000000000000000000000000000000040000000000000000000000000660ad4b5a74130a4796b4d54bc6750ae93c86e6c000000000000000000000000000000000000000000000000000000000000000100000000000000000000000000000000000000000000000000000000000000200000000000000000000000002e2b1c42e38f5af81771e65d87729e57abd1337a000000000000000000000000000000000000000000000000000000000000124f0000000000000000000000000000000000000000000000000000000000000160000000000000000000000000000000000000000000000000000000000000018000000000000000000000000000000000000000000000000000000000003d0900000000000000000000000000000000000000000000000000000000000003345000000000000000000000000000000000000000000000000000000000000052080000000000000000000000000000000000000000000000000000000000000001000000000000000000000000000000000000000000000000000000003b9aca00000000000000000000000000000000000000000000000000000000000000036000000000000000000000000000000000000000000000000000000000000003a0000000000000000000000000000000000000000000000000000000000000000000000000000000000000000000000000000000000000000000000000000001a4b61d27f60000000000000000000000003de040ef2fbf9158badf559c5606d7706ca72309000000000000000000000000000000000000000000000000000000000000000000000000000000000000000000000000000000000000000000000000000000600000000000000000000000000000000000000000000000000000000000000104405e720a000000000000000000000000660ad4b5a74130a4796b4d54bc6750ae93c86e6c0000000000000000000000000000000000000000000005ede20f01a459800000000000000000000000000000000000000000000000000000000000000007a120000000000000000000000000bef01d401b54c19b2bcfe93f5e55e0355fe24a7300000000000000000000000000000000000000000000000000000000000000c000000000000000000000000000000000000000000000000000000000000000e00000000000000000000000000000000000000000000000000000000000000000000000000000000000000000000000000000000000000000000000000000000000000000000000000000000000000000000000000000000000000000000000000000000000000000000000000000000000000000000000000000000000000000000000000000000000000000000000000000000000000014000000000000000000000000000000000000000000000000000000000000000000000000000000000000000000000000000000000000000000000000000000823a121cb52cc78d16dab53e92921ef6b29ac01c555119a385086ae941aa7dd57f3caa25553adf29a330e598ce296555664d459f5a1a0db7631bc6800cb930ca491b909d8e06f266ab13d1f7f4a7adfa056079c113b0ca9fe935e7558a9414682bae4545ba26b5f6a56c6af67da032a86bea97eaa0b1472c813dd98ca4700e0396e91b000000000000000000000000000000000000000000000000000000000000",
        "nonce": "0x4bdba",
        "chainId": "0x1ecf"
      },
      "additionalContracts": [],
      "isFixedGasLimit": false
    }
  ],
  "receipts": [
    {
      "status": "0x1",
      "cumulativeGasUsed": "0x2e263",
      "logs": [
        {
          "address": "0x2843c269d2a64ecfa63548e8b3fc0fd23b7f70cb",
          "topics": [
            "0xbb47ee3e183a558b1a2ff0874b079f3fc5478b7454eacf2bfc5af2ff5878f972"
          ],
          "data": "0x",
          "blockHash": "0x537d887a5a7e0faa5d5bb4074acb25ebe4142446286c9fb8d57fc0c796f53d1f",
          "blockNumber": "0xbe0c9",
          "transactionHash": "0x17be26d347ecd21a10263a9822c24904de66022fe57ef3dbf1f3e02e8a9db51d",
          "transactionIndex": "0x1",
          "logIndex": "0x0",
          "removed": false
        },
        {
          "address": "0x010700808d59d2bb92257fcafacfe8e5bff7ab87",
          "topics": [
            "0x8c5be1e5ebec7d5bd14f71427d1e84f3dd0314c0f7b2291e5b200ac8c7c3b925",
            "0x0000000000000000000000002e2b1c42e38f5af81771e65d87729e57abd1337a",
            "0x0000000000000000000000003de040ef2fbf9158badf559c5606d7706ca72309"
          ],
          "data": "0xffffffffffffffffffffffffffffffffffffffffffffffffffffffffffffffff",
          "blockHash": "0x537d887a5a7e0faa5d5bb4074acb25ebe4142446286c9fb8d57fc0c796f53d1f",
          "blockNumber": "0xbe0c9",
          "transactionHash": "0x17be26d347ecd21a10263a9822c24904de66022fe57ef3dbf1f3e02e8a9db51d",
          "transactionIndex": "0x1",
          "logIndex": "0x1",
          "removed": false
        },
        {
          "address": "0x2843c269d2a64ecfa63548e8b3fc0fd23b7f70cb",
          "topics": [
            "0x49628fd1471006c1482da88028e9ce4dbb080b815c9b0344d39e5a8e6ec1419f",
            "0xc9bab68e5503dcc3b1e5066676b50fb7c53de31993bd2f5bb5ed3880560e9a20",
            "0x0000000000000000000000002e2b1c42e38f5af81771e65d87729e57abd1337a",
            "0x0000000000000000000000000000000000000000000000000000000000000000"
          ],
          "data": "0x000000000000000000000000000000000000000000000000000000000000124e00000000000000000000000000000000000000000000000000000000000000010000000000000000000000000000000000000000000000000000000000087daa0000000000000000000000000000000000000000000000000000000000087daa",
          "blockHash": "0x537d887a5a7e0faa5d5bb4074acb25ebe4142446286c9fb8d57fc0c796f53d1f",
          "blockNumber": "0xbe0c9",
          "transactionHash": "0x17be26d347ecd21a10263a9822c24904de66022fe57ef3dbf1f3e02e8a9db51d",
          "transactionIndex": "0x1",
          "logIndex": "0x2",
          "removed": false
        }
      ],
      "logsBloom": "0x00000000000400000000000000000000000000000000000000000000000000000008000000000000000000010000000000000000000000000000020000200000000000000000000000000000000000000000000000000000000400000000002800000000020000000000000000000800002000000000000000000000000000000000000000000000000000000000800000000000000000000000000000000000021400000000000000400000000000000000000000000000000002000000000000080000000000100001080000000000100000000000000000000000000020000010000000010000000000000000800000000000000000000000000000000000",
      "type": "0x2",
      "transactionHash": "0x17be26d347ecd21a10263a9822c24904de66022fe57ef3dbf1f3e02e8a9db51d",
      "transactionIndex": "0x1",
      "blockHash": "0x537d887a5a7e0faa5d5bb4074acb25ebe4142446286c9fb8d57fc0c796f53d1f",
      "blockNumber": "0xbe0c9",
      "gasUsed": "0x2e263",
      "effectiveGasPrice": "0x5f5e100",
      "from": "0x660ad4b5a74130a4796b4d54bc6750ae93c86e6c",
      "to": "0x2843c269d2a64ecfa63548e8b3fc0fd23b7f70cb",
      "contractAddress": null,
      "gasUsedForL1": "0x25e",
      "l1BlockNumber": "0x151899e"
    },
    {
      "status": "0x1",
      "cumulativeGasUsed": "0x48f7e",
      "logs": [
        {
          "address": "0x2843c269d2a64ecfa63548e8b3fc0fd23b7f70cb",
          "topics": [
            "0xbb47ee3e183a558b1a2ff0874b079f3fc5478b7454eacf2bfc5af2ff5878f972"
          ],
          "data": "0x",
          "blockHash": "0xf583c15f987608d2a55c8d9aabb5d88ea17cfe50d6a113f436634adf7314b1dc",
          "blockNumber": "0xbe0ca",
          "transactionHash": "0x817e9b8df187a211211974fc348b65f48315ba4cbfa2afba5b75f0d7acf82445",
          "transactionIndex": "0x1",
          "logIndex": "0x0",
          "removed": false
        },
        {
          "address": "0x2843c269d2a64ecfa63548e8b3fc0fd23b7f70cb",
          "topics": [
            "0x1c4fada7374c0a9ee8841fc38afe82932dc0f8e69012e927f061a8bae611a201",
            "0x2ab369ace0759d8cdb57279f22e18812784722976d8df3d079a8b330529a5df6",
            "0x0000000000000000000000002e2b1c42e38f5af81771e65d87729e57abd1337a"
          ],
          "data": "0x000000000000000000000000000000000000000000000000000000000000124f00000000000000000000000000000000000000000000000000000000000000400000000000000000000000000000000000000000000000000000000000000024962f6333f55a83f13e82a29ee3cdfc818b3fe62cda242e183626adac00b6944a191ec40200000000000000000000000000000000000000000000000000000000",
          "blockHash": "0xf583c15f987608d2a55c8d9aabb5d88ea17cfe50d6a113f436634adf7314b1dc",
          "blockNumber": "0xbe0ca",
          "transactionHash": "0x817e9b8df187a211211974fc348b65f48315ba4cbfa2afba5b75f0d7acf82445",
          "transactionIndex": "0x1",
          "logIndex": "0x1",
          "removed": false
        },
        {
          "address": "0x2843c269d2a64ecfa63548e8b3fc0fd23b7f70cb",
          "topics": [
            "0x49628fd1471006c1482da88028e9ce4dbb080b815c9b0344d39e5a8e6ec1419f",
            "0x2ab369ace0759d8cdb57279f22e18812784722976d8df3d079a8b330529a5df6",
            "0x0000000000000000000000002e2b1c42e38f5af81771e65d87729e57abd1337a",
            "0x0000000000000000000000000000000000000000000000000000000000000000"
          ],
          "data": "0x000000000000000000000000000000000000000000000000000000000000124f0000000000000000000000000000000000000000000000000000000000000000000000000000000000000000000000000000000000000000000000000009fcce000000000000000000000000000000000000000000000000000000000009fcce",
          "blockHash": "0xf583c15f987608d2a55c8d9aabb5d88ea17cfe50d6a113f436634adf7314b1dc",
          "blockNumber": "0xbe0ca",
          "transactionHash": "0x817e9b8df187a211211974fc348b65f48315ba4cbfa2afba5b75f0d7acf82445",
          "transactionIndex": "0x1",
          "logIndex": "0x2",
          "removed": false
        }
      ],
      "logsBloom": "0x000000000000000000000000000000000000000000000000000000000000000000080000000000000000000100000000000000000000000000000200000000000000000000000000000000000000000000000000000000000000000000400008000000000a0000000000000000000800002000000000000000000000000000000000000000000000000000000000800020000000000000000000000000000000000400000000000000400000000000000000000000000000000002000000000000000100000000100001000000000000000000000000000000000000000020000000000001010000000000000000000000000002000000000000000000000000",
      "type": "0x2",
      "transactionHash": "0x817e9b8df187a211211974fc348b65f48315ba4cbfa2afba5b75f0d7acf82445",
      "transactionIndex": "0x1",
      "blockHash": "0xf583c15f987608d2a55c8d9aabb5d88ea17cfe50d6a113f436634adf7314b1dc",
      "blockNumber": "0xbe0ca",
      "gasUsed": "0x48f7e",
      "effectiveGasPrice": "0x5f5e100",
      "from": "0x660ad4b5a74130a4796b4d54bc6750ae93c86e6c",
      "to": "0x2843c269d2a64ecfa63548e8b3fc0fd23b7f70cb",
      "contractAddress": null,
      "gasUsedForL1": "0x279",
      "l1BlockNumber": "0x151899e"
    }
  ],
  "libraries": [],
  "pending": [],
  "returns": {},
  "timestamp": 1742868824,
  "chain": 7887,
  "commit": "22333062"
}