{
  "transactions": [
    {
      "hash": "0x664a2155268876175c0c10771e29b99fab82490ccf64d6b28908c7cc13ca3206",
      "transactionType": "CALL",
      "contractName": null,
      "contractAddress": "0x2843c269d2a64ecfa63548e8b3fc0fd23b7f70cb",
      "function": "handleOps((address,uint256,bytes,bytes,uint256,uint256,uint256,uint256,uint256,bytes,bytes)[],address)",
      "arguments": [
        "[(0x2e2B1c42E38f5af81771e65D87729E57ABD1337a, 4708, 0x, 0xb61d27f60000000000000000000000003de040ef2fbf9158badf559c5606d7706ca72309000000000000000000000000000000000000000000000000000000000000000000000000000000000000000000000000000000000000000000000000000000600000000000000000000000000000000000000000000000000000000000000104405e720a000000000000000000000000660ad4b5a74130a4796b4d54bc6750ae93c86e6c0000000000000000000000000000000000000000000007b28996397229380000000000000000000000000000000000000000000000000000000000000007a120000000000000000000000000bef01d401b54c19b2bcfe93f5e55e0355fe24a7300000000000000000000000000000000000000000000000000000000000000c000000000000000000000000000000000000000000000000000000000000000e00000000000000000000000000000000000000000000000000000000000000000000000000000000000000000000000000000000000000000000000000000000000000000000000000000000000000000000000000000000000000000, 4000000, 210000, 21000, 1, 1000000000, 0x0000000000000000000000000000000000000000, 0xf4fb28201c56bc9058a84e2ff3cc1cfc8c29a355a28b3603f8a930438be183eb7b882e9ec85cfb1ef8f02a8015e9154cf8d9a07af57292f2d6ad74277a5f89e71c32638261a6cd7ffcb717830d5194e77418d67638f8247760793c002ded198110685b93641e1ca5d149265a960acaee008af330b8d35ede4cd0b89d16762a6b461c)]",
        "0x660ad4B5A74130a4796B4d54BC6750Ae93C86e6c"
      ],
      "transaction": {
        "from": "0x660ad4b5a74130a4796b4d54bc6750ae93c86e6c",
        "to": "0x2843c269d2a64ecfa63548e8b3fc0fd23b7f70cb",
        "value": "0x0",
        "input": "0x1fad948c0000000000000000000000000000000000000000000000000000000000000040000000000000000000000000660ad4b5a74130a4796b4d54bc6750ae93c86e6c000000000000000000000000000000000000000000000000000000000000000100000000000000000000000000000000000000000000000000000000000000200000000000000000000000002e2b1c42e38f5af81771e65d87729e57abd1337a00000000000000000000000000000000000000000000000000000000000012640000000000000000000000000000000000000000000000000000000000000160000000000000000000000000000000000000000000000000000000000000018000000000000000000000000000000000000000000000000000000000003d0900000000000000000000000000000000000000000000000000000000000003345000000000000000000000000000000000000000000000000000000000000052080000000000000000000000000000000000000000000000000000000000000001000000000000000000000000000000000000000000000000000000003b9aca00000000000000000000000000000000000000000000000000000000000000036000000000000000000000000000000000000000000000000000000000000003a0000000000000000000000000000000000000000000000000000000000000000000000000000000000000000000000000000000000000000000000000000001a4b61d27f60000000000000000000000003de040ef2fbf9158badf559c5606d7706ca72309000000000000000000000000000000000000000000000000000000000000000000000000000000000000000000000000000000000000000000000000000000600000000000000000000000000000000000000000000000000000000000000104405e720a000000000000000000000000660ad4b5a74130a4796b4d54bc6750ae93c86e6c0000000000000000000000000000000000000000000007b28996397229380000000000000000000000000000000000000000000000000000000000000007a120000000000000000000000000bef01d401b54c19b2bcfe93f5e55e0355fe24a7300000000000000000000000000000000000000000000000000000000000000c000000000000000000000000000000000000000000000000000000000000000e0000000000000000000000000000000000000000000000000000000000000000000000000000000000000000000000000000000000000000000000000000000000000000000000000000000000000000000000000000000000000000000000000000000000000000000000000000000000000000000000000000000000000000000000000000000000000000000000000000000000000001400000000000000000000000000000000000000000000000000000000000000000000000000000000000000000000000000000000000000000000000000000082f4fb28201c56bc9058a84e2ff3cc1cfc8c29a355a28b3603f8a930438be183eb7b882e9ec85cfb1ef8f02a8015e9154cf8d9a07af57292f2d6ad74277a5f89e71c32638261a6cd7ffcb717830d5194e77418d67638f8247760793c002ded198110685b93641e1ca5d149265a960acaee008af330b8d35ede4cd0b89d16762a6b461c000000000000000000000000000000000000000000000000000000000000",
        "nonce": "0x4bdd0",
        "chainId": "0x1ecf"
      },
      "additionalContracts": [],
      "isFixedGasLimit": false
    }
  ],
  "receipts": [
    {
      "status": "0x1",
      "cumulativeGasUsed": "0x50d61",
      "logs": [
        {
          "address": "0x2843c269d2a64ecfa63548e8b3fc0fd23b7f70cb",
          "topics": [
            "0xbb47ee3e183a558b1a2ff0874b079f3fc5478b7454eacf2bfc5af2ff5878f972"
          ],
          "data": "0x",
          "blockHash": "0xea24bad8b1335faea45dd29497a1c63cfdeb7fba7eaa5a43fdd7635211676cd9",
          "blockNumber": "0xbe411",
          "transactionHash": "0x664a2155268876175c0c10771e29b99fab82490ccf64d6b28908c7cc13ca3206",
          "transactionIndex": "0x1",
          "logIndex": "0x0",
          "removed": false
        },
        {
          "address": "0x2843c269d2a64ecfa63548e8b3fc0fd23b7f70cb",
          "topics": [
            "0x1c4fada7374c0a9ee8841fc38afe82932dc0f8e69012e927f061a8bae611a201",
            "0xf927a16efbff0d3d42295b608a77f3260989e698fc4c61af3f08ce8779f426e9",
            "0x0000000000000000000000002e2b1c42e38f5af81771e65d87729e57abd1337a"
          ],
          "data": "0x0000000000000000000000000000000000000000000000000000000000001264000000000000000000000000000000000000000000000000000000000000004000000000000000000000000000000000000000000000000000000000000000048d53e55300000000000000000000000000000000000000000000000000000000",
          "blockHash": "0xea24bad8b1335faea45dd29497a1c63cfdeb7fba7eaa5a43fdd7635211676cd9",
          "blockNumber": "0xbe411",
          "transactionHash": "0x664a2155268876175c0c10771e29b99fab82490ccf64d6b28908c7cc13ca3206",
          "transactionIndex": "0x1",
          "logIndex": "0x1",
          "removed": false
        },
        {
          "address": "0x2843c269d2a64ecfa63548e8b3fc0fd23b7f70cb",
          "topics": [
            "0x49628fd1471006c1482da88028e9ce4dbb080b815c9b0344d39e5a8e6ec1419f",
            "0xf927a16efbff0d3d42295b608a77f3260989e698fc4c61af3f08ce8779f426e9",
            "0x0000000000000000000000002e2b1c42e38f5af81771e65d87729e57abd1337a",
            "0x0000000000000000000000000000000000000000000000000000000000000000"
          ],
          "data": "0x0000000000000000000000000000000000000000000000000000000000001264000000000000000000000000000000000000000000000000000000000000000000000000000000000000000000000000000000000000000000000000000a6fde00000000000000000000000000000000000000000000000000000000000a6fde",
          "blockHash": "0xea24bad8b1335faea45dd29497a1c63cfdeb7fba7eaa5a43fdd7635211676cd9",
          "blockNumber": "0xbe411",
          "transactionHash": "0x664a2155268876175c0c10771e29b99fab82490ccf64d6b28908c7cc13ca3206",
          "transactionIndex": "0x1",
          "logIndex": "0x2",
          "removed": false
        }
      ],
      "logsBloom": "0x000000000000000000020000000000000000000000000000000000000000000000080000000000000000000100000000000000000000400000000200000000000000000000000000000000000000000000000000000000000000000000400008000000000a0000000000000000000800002000000000000000000000000000000000000000000000000000000000800000000000000000000000000200000000000400000000000000400000000000000000000000000000000002000000000000000000000000100001000000000000000000000000000000000000000020000000000001010000000000000000000000000000000000000000000000000000",
      "type": "0x2",
      "transactionHash": "0x664a2155268876175c0c10771e29b99fab82490ccf64d6b28908c7cc13ca3206",
      "transactionIndex": "0x1",
      "blockHash": "0xea24bad8b1335faea45dd29497a1c63cfdeb7fba7eaa5a43fdd7635211676cd9",
      "blockNumber": "0xbe411",
      "gasUsed": "0x50d61",
      "effectiveGasPrice": "0x5f5e100",
      "from": "0x660ad4b5a74130a4796b4d54bc6750ae93c86e6c",
      "to": "0x2843c269d2a64ecfa63548e8b3fc0fd23b7f70cb",
      "contractAddress": null,
      "gasUsedForL1": "0x98",
      "l1BlockNumber": "0x1519b25"
    }
  ],
  "libraries": [],
  "pending": [],
  "returns": {},
  "timestamp": 1742923016,
  "chain": 7887,
  "commit": "898bea16"
}