{
  "transactions": [
    {
      "hash": "0x0a1e92ebbab10fc7e2abc1ccb103a45e0f318ab47d7796670a80298aad5101fd",
      "transactionType": "CALL",
      "contractName": null,
      "contractAddress": "0x2843c269d2a64ecfa63548e8b3fc0fd23b7f70cb",
      "function": "handleOps((address,uint256,bytes,bytes,uint256,uint256,uint256,uint256,uint256,bytes,bytes)[],address)",
      "arguments": [
        "[(0x2e2B1c42E38f5af81771e65D87729E57ABD1337a, 4709, 0x, 0xb61d27f60000000000000000000000003de040ef2fbf9158badf559c5606d7706ca7230900000000000000000000000000000000000000000000000000038d7ea4c6800000000000000000000000000000000000000000000000000000000000000000600000000000000000000000000000000000000000000000000000000000000104405e720a000000000000000000000000660ad4b5a74130a4796b4d54bc6750ae93c86e6c0000000000000000000000000000000000000000000007b28996397229380000000000000000000000000000000000000000000000000000000000000007a120000000000000000000000000bef01d401b54c19b2bcfe93f5e55e0355fe24a7300000000000000000000000000000000000000000000000000000000000000c000000000000000000000000000000000000000000000000000000000000000e00000000000000000000000000000000000000000000000000000000000000000000000000000000000000000000000000000000000000000000000000000000000000000000000000000000000000000000000000000000000000000, 4000000, 210000, 21000, 1, 1000000000, 0x0000000000000000000000000000000000000000, 0x12e1af6cef00f9b2268ed83c42deb6b8906b2cbbcaebd07eb3f53b230595b0fe2e2796583de0491753106287fe2d62e5abc87f2664f7f069f378a8a6d8c2793d1b3a423511c9046ff01937d4ae2de2a50d8646736dfa7f70c7afa0b68b0f275b4a64b8e75bf088a3142055348292636dec7705ebd394aac70e9c2e157ebb6028411b)]",
        "0x660ad4B5A74130a4796B4d54BC6750Ae93C86e6c"
      ],
      "transaction": {
        "from": "0x660ad4b5a74130a4796b4d54bc6750ae93c86e6c",
        "to": "0x2843c269d2a64ecfa63548e8b3fc0fd23b7f70cb",
        "value": "0x0",
        "input": "0x1fad948c0000000000000000000000000000000000000000000000000000000000000040000000000000000000000000660ad4b5a74130a4796b4d54bc6750ae93c86e6c000000000000000000000000000000000000000000000000000000000000000100000000000000000000000000000000000000000000000000000000000000200000000000000000000000002e2b1c42e38f5af81771e65d87729e57abd1337a00000000000000000000000000000000000000000000000000000000000012650000000000000000000000000000000000000000000000000000000000000160000000000000000000000000000000000000000000000000000000000000018000000000000000000000000000000000000000000000000000000000003d0900000000000000000000000000000000000000000000000000000000000003345000000000000000000000000000000000000000000000000000000000000052080000000000000000000000000000000000000000000000000000000000000001000000000000000000000000000000000000000000000000000000003b9aca00000000000000000000000000000000000000000000000000000000000000036000000000000000000000000000000000000000000000000000000000000003a0000000000000000000000000000000000000000000000000000000000000000000000000000000000000000000000000000000000000000000000000000001a4b61d27f60000000000000000000000003de040ef2fbf9158badf559c5606d7706ca7230900000000000000000000000000000000000000000000000000038d7ea4c6800000000000000000000000000000000000000000000000000000000000000000600000000000000000000000000000000000000000000000000000000000000104405e720a000000000000000000000000660ad4b5a74130a4796b4d54bc6750ae93c86e6c0000000000000000000000000000000000000000000007b28996397229380000000000000000000000000000000000000000000000000000000000000007a120000000000000000000000000bef01d401b54c19b2bcfe93f5e55e0355fe24a7300000000000000000000000000000000000000000000000000000000000000c000000000000000000000000000000000000000000000000000000000000000e000000000000000000000000000000000000000000000000000000000000000000000000000000000000000000000000000000000000000000000000000000000000000000000000000000000000000000000000000000000000000000000000000000000000000000000000000000000000000000000000000000000000000000000000000000000000000000000000000000000000000140000000000000000000000000000000000000000000000000000000000000000000000000000000000000000000000000000000000000000000000000000008212e1af6cef00f9b2268ed83c42deb6b8906b2cbbcaebd07eb3f53b230595b0fe2e2796583de0491753106287fe2d62e5abc87f2664f7f069f378a8a6d8c2793d1b3a423511c9046ff01937d4ae2de2a50d8646736dfa7f70c7afa0b68b0f275b4a64b8e75bf088a3142055348292636dec7705ebd394aac70e9c2e157ebb6028411b000000000000000000000000000000000000000000000000000000000000",
        "nonce": "0x4bdd1",
        "chainId": "0x1ecf"
      },
      "additionalContracts": [],
      "isFixedGasLimit": false
    }
  ],
  "receipts": [
    {
      "status": "0x1",
      "cumulativeGasUsed": "0x633e2",
      "logs": [
        {
          "address": "0x2843c269d2a64ecfa63548e8b3fc0fd23b7f70cb",
          "topics": [
            "0xbb47ee3e183a558b1a2ff0874b079f3fc5478b7454eacf2bfc5af2ff5878f972"
          ],
          "data": "0x",
          "blockHash": "0xf9207616cff5ba0de2bf1e52228378d2fc9e195ee3cb413c00db81e2123deb81",
          "blockNumber": "0xbe41d",
          "transactionHash": "0x0a1e92ebbab10fc7e2abc1ccb103a45e0f318ab47d7796670a80298aad5101fd",
          "transactionIndex": "0x1",
          "logIndex": "0x0",
          "removed": false
        },
        {
          "address": "0x010700808d59d2bb92257fcafacfe8e5bff7ab87",
          "topics": [
            "0xddf252ad1be2c89b69c2b068fc378daa952ba7f163c4a11628f55a4df523b3ef",
            "0x0000000000000000000000002e2b1c42e38f5af81771e65d87729e57abd1337a",
            "0x0000000000000000000000003de040ef2fbf9158badf559c5606d7706ca72309"
          ],
          "data": "0x0000000000000000000000000000000000000000000007b28996397229380000",
          "blockHash": "0xf9207616cff5ba0de2bf1e52228378d2fc9e195ee3cb413c00db81e2123deb81",
          "blockNumber": "0xbe41d",
          "transactionHash": "0x0a1e92ebbab10fc7e2abc1ccb103a45e0f318ab47d7796670a80298aad5101fd",
          "transactionIndex": "0x1",
          "logIndex": "0x1",
          "removed": false
        },
        {
          "address": "0x2321c637686b8da2e01c60d72fd82a595879da00",
          "topics": [
            "0x9ed9683bfff0f737f91f20945e98c912976d94e76860b05b48b15bc0d589be1f"
          ],
          "data": "0xae69e46259140e51109bf263a911f85f156f07f1b2af95cbb9c51236a4dbf72800000000000000000000000000000000000000000000000000000000000032f6ae69e46259140e51109bf263a911f85f156f07f1b2af95cbb9c51236a4dbf728",
          "blockHash": "0xf9207616cff5ba0de2bf1e52228378d2fc9e195ee3cb413c00db81e2123deb81",
          "blockNumber": "0xbe41d",
          "transactionHash": "0x0a1e92ebbab10fc7e2abc1ccb103a45e0f318ab47d7796670a80298aad5101fd",
          "transactionIndex": "0x1",
          "logIndex": "0x2",
          "removed": false
        },
        {
          "address": "0x3e9727470c66b1e77034590926cde0242b5a3dcc",
          "topics": [
            "0x45d70e73f9a26cea18d4009d1ad25ffbdc4114ce9d8ceb15959ae9eadb0a3a2c"
          ],
          "data": "0x0000000000000000000000000000000000000000000000000000000000001ecf000000000000000000000000bef01d401b54c19b2bcfe93f5e55e0355fe24a73000000000000000000000000000000000000000000000000000000000000a4b10000000000000000000000001827e7f732d5338315031d63cc54f41d3cdf6cda00001ecf1827e7f732d5338315031d63cc54f41d3cdf6cda0000000000004779000000000000000000000000000000000000000000000000000000000007a120000000000000000000000000000000000000000000000000000000000000000000000000000000000000000000000000000000000000000000000000000000000000000000000000000000000000000000000000000000000000000000000180000000000000000000000000000000000000000000000000000008db76739ec00000000000000000000000000000000000000000000000000003832b3cca3d0000000000000000000000000000000000000000000000000000000177f188a44000000000000000000000000000000000000000000000000000000000000000a0000000000000000000000000660ad4b5a74130a4796b4d54bc6750ae93c86e6c0000000000000000000000000000000000000000000007b2899639722938000000001ecf1827e7f732d5338315031d63cc54f41d3cdf6cda000000000000477900000000000000000000000000000000000000000000000000000000000000800000000000000000000000000000000000000000000000000000000000000000",
          "blockHash": "0xf9207616cff5ba0de2bf1e52228378d2fc9e195ee3cb413c00db81e2123deb81",
          "blockNumber": "0xbe41d",
          "transactionHash": "0x0a1e92ebbab10fc7e2abc1ccb103a45e0f318ab47d7796670a80298aad5101fd",
          "transactionIndex": "0x1",
          "logIndex": "0x3",
          "removed": false
        },
        {
          "address": "0x3de040ef2fbf9158badf559c5606d7706ca72309",
          "topics": [
            "0xc74a00177d2c63e6eead5ea7936974ad9d0121f86140723b8909f8ec9662cc61"
          ],
          "data": "0x000000000000000000000000bef01d401b54c19b2bcfe93f5e55e0355fe24a730000000000000000000000002e2b1c42e38f5af81771e65d87729e57abd1337a000000000000000000000000660ad4b5a74130a4796b4d54bc6750ae93c86e6c0000000000000000000000000000000000000000000007b2899639722938000000001ecf1827e7f732d5338315031d63cc54f41d3cdf6cda0000000000004779",
          "blockHash": "0xf9207616cff5ba0de2bf1e52228378d2fc9e195ee3cb413c00db81e2123deb81",
          "blockNumber": "0xbe41d",
          "transactionHash": "0x0a1e92ebbab10fc7e2abc1ccb103a45e0f318ab47d7796670a80298aad5101fd",
          "transactionIndex": "0x1",
          "logIndex": "0x4",
          "removed": false
        },
        {
          "address": "0x2843c269d2a64ecfa63548e8b3fc0fd23b7f70cb",
          "topics": [
            "0x49628fd1471006c1482da88028e9ce4dbb080b815c9b0344d39e5a8e6ec1419f",
            "0xa7fcddfdac068c28f018b9d3729276c4773f00507a2b648af35d3ee7ad94d68c",
            "0x0000000000000000000000002e2b1c42e38f5af81771e65d87729e57abd1337a",
            "0x0000000000000000000000000000000000000000000000000000000000000000"
          ],
          "data": "0x0000000000000000000000000000000000000000000000000000000000001265000000000000000000000000000000000000000000000000000000000000000100000000000000000000000000000000000000000000000000000000000b934a00000000000000000000000000000000000000000000000000000000000b934a",
          "blockHash": "0xf9207616cff5ba0de2bf1e52228378d2fc9e195ee3cb413c00db81e2123deb81",
          "blockNumber": "0xbe41d",
          "transactionHash": "0x0a1e92ebbab10fc7e2abc1ccb103a45e0f318ab47d7796670a80298aad5101fd",
          "transactionIndex": "0x1",
          "logIndex": "0x5",
          "removed": false
        }
      ],
      "logsBloom": "0x00000000000400000000000000800000000002000000800000000000000200000008000000040000001000010000000000080000080000000000620000000000000000000000002000000048000000080000000000000000000c00000000000800000000020002000000000000000804002000000000000000000010000000000000000000000000002000000000800000000000000000000000000000000000001400000000000000400000000000008000000000000000000002000000000000080002000000100001400000000000010000000000000000000000000020000000000000010000000000000000800000000000000000400000000000000000",
      "type": "0x2",
      "transactionHash": "0x0a1e92ebbab10fc7e2abc1ccb103a45e0f318ab47d7796670a80298aad5101fd",
      "transactionIndex": "0x1",
      "blockHash": "0xf9207616cff5ba0de2bf1e52228378d2fc9e195ee3cb413c00db81e2123deb81",
      "blockNumber": "0xbe41d",
      "gasUsed": "0x633e2",
      "effectiveGasPrice": "0x5f5e100",
      "from": "0x660ad4b5a74130a4796b4d54bc6750ae93c86e6c",
      "to": "0x2843c269d2a64ecfa63548e8b3fc0fd23b7f70cb",
      "contractAddress": null,
      "gasUsedForL1": "0x9b",
      "l1BlockNumber": "0x1519b4f"
    }
  ],
  "libraries": [],
  "pending": [],
  "returns": {},
  "timestamp": 1742923541,
  "chain": 7887,
  "commit": "898bea16"
}