{
  "transactions": [
    {
      "hash": "0x296e76112d3e03022f50a5857bb91de4b762c7f793cc52aa8f0f0879639b52b1",
      "transactionType": "CALL",
      "contractName": null,
      "contractAddress": "0x2843c269d2a64ecfa63548e8b3fc0fd23b7f70cb",
      "function": "handleOps((address,uint256,bytes,bytes,uint256,uint256,uint256,uint256,uint256,bytes,bytes)[],address)",
      "arguments": [
        "[(0x2e2B1c42E38f5af81771e65D87729E57ABD1337a, 2639, 0x, 0xb61d27f60000000000000000000000002e2b1c42e38f5af81771e65d87729e57abd1337a0000000000000000000000000000000000000000000000000000000000000000000000000000000000000000000000000000000000000000000000000000006000000000000000000000000000000000000000000000000000000000000000c45f9d2301000000000000000000000000000000000000000000000000000000000000004000000000000000000000000000000000000000000000000000000000000000800000000000000000000000000000000000000000000000000000000000000001000000000000000000000000acc000818e5bbd911d5d449aa81cb5ca240247390000000000000000000000000000000000000000000000000000000000000001000000000000000000000000000000000000000000000000000000000000000100000000000000000000000000000000000000000000000000000000, 4000000, 210000, 21000, 1, 1000000000, 0x0000000000000000000000000000000000000000, 0xd07595047000dff587f2020822708ba9b87951490eafcbc56b9022110190898b7f317fec25420bf7a90854995a3ad4b6e475797422f7f7732678a0082a48c4391cd4f544bccc22db19768804cfdddd31e4cd3b5c9dad6190cbd6c0fbc3167ee43f4984abfc99ff3052fca129729b75f588f3eede7e78603c929071b5130ae41f5d1b)]",
        "0x660ad4B5A74130a4796B4d54BC6750Ae93C86e6c"
      ],
      "transaction": {
        "from": "0x660ad4b5a74130a4796b4d54bc6750ae93c86e6c",
        "to": "0x2843c269d2a64ecfa63548e8b3fc0fd23b7f70cb",
        "value": "0x0",
        "input": "0x1fad948c0000000000000000000000000000000000000000000000000000000000000040000000000000000000000000660ad4b5a74130a4796b4d54bc6750ae93c86e6c000000000000000000000000000000000000000000000000000000000000000100000000000000000000000000000000000000000000000000000000000000200000000000000000000000002e2b1c42e38f5af81771e65d87729e57abd1337a0000000000000000000000000000000000000000000000000000000000000a4f0000000000000000000000000000000000000000000000000000000000000160000000000000000000000000000000000000000000000000000000000000018000000000000000000000000000000000000000000000000000000000003d0900000000000000000000000000000000000000000000000000000000000003345000000000000000000000000000000000000000000000000000000000000052080000000000000000000000000000000000000000000000000000000000000001000000000000000000000000000000000000000000000000000000003b9aca000000000000000000000000000000000000000000000000000000000000000320000000000000000000000000000000000000000000000000000000000000036000000000000000000000000000000000000000000000000000000000000000000000000000000000000000000000000000000000000000000000000000000164b61d27f60000000000000000000000002e2b1c42e38f5af81771e65d87729e57abd1337a0000000000000000000000000000000000000000000000000000000000000000000000000000000000000000000000000000000000000000000000000000006000000000000000000000000000000000000000000000000000000000000000c45f9d2301000000000000000000000000000000000000000000000000000000000000004000000000000000000000000000000000000000000000000000000000000000800000000000000000000000000000000000000000000000000000000000000001000000000000000000000000acc000818e5bbd911d5d449aa81cb5ca24024739000000000000000000000000000000000000000000000000000000000000000100000000000000000000000000000000000000000000000000000000000000010000000000000000000000000000000000000000000000000000000000000000000000000000000000000000000000000000000000000000000000000000000000000000000000000000000000000000000000000000001400000000000000000000000000000000000000000000000000000000000000000000000000000000000000000000000000000000000000000000000000000082d07595047000dff587f2020822708ba9b87951490eafcbc56b9022110190898b7f317fec25420bf7a90854995a3ad4b6e475797422f7f7732678a0082a48c4391cd4f544bccc22db19768804cfdddd31e4cd3b5c9dad6190cbd6c0fbc3167ee43f4984abfc99ff3052fca129729b75f588f3eede7e78603c929071b5130ae41f5d1b000000000000000000000000000000000000000000000000000000000000",
        "nonce": "0x4caf",
        "chainId": "0x1ecf"
      },
      "additionalContracts": [],
      "isFixedGasLimit": false
    },
    {
      "hash": "0xa2ebb74853cc2cf8d613ec19a7957124db00f51bfeefc501837abdc40babc7a1",
      "transactionType": "CALL",
      "contractName": null,
      "contractAddress": "0x2843c269d2a64ecfa63548e8b3fc0fd23b7f70cb",
      "function": "handleOps((address,uint256,bytes,bytes,uint256,uint256,uint256,uint256,uint256,bytes,bytes)[],address)",
      "arguments": [
        "[(0x2e2B1c42E38f5af81771e65D87729E57ABD1337a, 2640, 0x, 0xb61d27f6000000000000000000000000acc000818e5bbd911d5d449aa81cb5ca240247390000000000000000000000000000000000000000000000000000000000000000000000000000000000000000000000000000000000000000000000000000006000000000000000000000000000000000000000000000000000000000000000e408d6122d000000000000000000000000793500709506652fcc61f0d2d0fda605638d4293000000000000000000000000000000000000000000000000000000000000006000000000000000000000000000000000000000000000000016b429b546828e7300000000000000000000000000000000000000000000000000000000000000038522d1b200000000000000000000000000000000000000000000000000000000c664c714000000000000000000000000000000000000000000000000000000009089e8ae0000000000000000000000000000000000000000000000000000000000000000000000000000000000000000000000000000000000000000, 4000000, 210000, 21000, 1, 1000000000, 0x0000000000000000000000000000000000000000, 0xf772bcf7df0d35f7facbbd75dcc65b2964a198943ce6c4971bd008f0616ff406316b66b908dccf7ee44795574ac560a233a8cb6b2d98d22e904c2fd8606214961c2fcfb1c7a20427f4f3681a6e3cc2f367a7c4402a9c1f2af5e92938f83f1e56ae59e32bdd6804c03bacb77bb556d9727acd0f15e3b5c05e530c9ba286f8ce58a11c)]",
        "0x660ad4B5A74130a4796B4d54BC6750Ae93C86e6c"
      ],
      "transaction": {
        "from": "0x660ad4b5a74130a4796b4d54bc6750ae93c86e6c",
        "to": "0x2843c269d2a64ecfa63548e8b3fc0fd23b7f70cb",
        "value": "0x0",
        "input": "0x1fad948c0000000000000000000000000000000000000000000000000000000000000040000000000000000000000000660ad4b5a74130a4796b4d54bc6750ae93c86e6c000000000000000000000000000000000000000000000000000000000000000100000000000000000000000000000000000000000000000000000000000000200000000000000000000000002e2b1c42e38f5af81771e65d87729e57abd1337a0000000000000000000000000000000000000000000000000000000000000a500000000000000000000000000000000000000000000000000000000000000160000000000000000000000000000000000000000000000000000000000000018000000000000000000000000000000000000000000000000000000000003d0900000000000000000000000000000000000000000000000000000000000003345000000000000000000000000000000000000000000000000000000000000052080000000000000000000000000000000000000000000000000000000000000001000000000000000000000000000000000000000000000000000000003b9aca000000000000000000000000000000000000000000000000000000000000000340000000000000000000000000000000000000000000000000000000000000038000000000000000000000000000000000000000000000000000000000000000000000000000000000000000000000000000000000000000000000000000000184b61d27f6000000000000000000000000acc000818e5bbd911d5d449aa81cb5ca240247390000000000000000000000000000000000000000000000000000000000000000000000000000000000000000000000000000000000000000000000000000006000000000000000000000000000000000000000000000000000000000000000e408d6122d000000000000000000000000793500709506652fcc61f0d2d0fda605638d4293000000000000000000000000000000000000000000000000000000000000006000000000000000000000000000000000000000000000000016b429b546828e7300000000000000000000000000000000000000000000000000000000000000038522d1b200000000000000000000000000000000000000000000000000000000c664c714000000000000000000000000000000000000000000000000000000009089e8ae000000000000000000000000000000000000000000000000000000000000000000000000000000000000000000000000000000000000000000000000000000000000000000000000000000000000000000000000000000000000000000000000000000000000000000000000000000000000001400000000000000000000000000000000000000000000000000000000000000000000000000000000000000000000000000000000000000000000000000000082f772bcf7df0d35f7facbbd75dcc65b2964a198943ce6c4971bd008f0616ff406316b66b908dccf7ee44795574ac560a233a8cb6b2d98d22e904c2fd8606214961c2fcfb1c7a20427f4f3681a6e3cc2f367a7c4402a9c1f2af5e92938f83f1e56ae59e32bdd6804c03bacb77bb556d9727acd0f15e3b5c05e530c9ba286f8ce58a11c000000000000000000000000000000000000000000000000000000000000",
        "nonce": "0x4cb0",
        "chainId": "0x1ecf"
      },
      "additionalContracts": [],
      "isFixedGasLimit": false
    },
    {
      "hash": "0xbdf62bcad09291a9042c9727245601a64c149594a505fe67fe3b6b2e97e41664",
      "transactionType": "CALL",
      "contractName": null,
      "contractAddress": "0x2843c269d2a64ecfa63548e8b3fc0fd23b7f70cb",
      "function": "handleOps((address,uint256,bytes,bytes,uint256,uint256,uint256,uint256,uint256,bytes,bytes)[],address)",
      "arguments": [
        "[(0x2e2B1c42E38f5af81771e65D87729E57ABD1337a, 2641, 0x, 0xb61d27f6000000000000000000000000acc000818e5bbd911d5d449aa81cb5ca2402473900000000000000000000000000000000000000000000000000000000000000000000000000000000000000000000000000000000000000000000000000000060000000000000000000000000000000000000000000000000000000000000006425c471a000000000000000000000000000000000000000000000000016b429b546828e73000000000000000000000000010600ff5f36c8ef3b6aaf2a88c2de85c798594a000000000000000000000000000000000000000000000000000000000003f48000000000000000000000000000000000000000000000000000000000, 4000000, 210000, 21000, 1, 1000000000, 0x0000000000000000000000000000000000000000, 0xa5633c902eea5b8d4f3c4aa46ca1e53dccc0585c1f2d7c02d9ba5e22e726c6015f4588614c36ce0d016e71190c7f18ac62c248e3f4852736e80df3edd4ee3cdb1cf7247365b630d5747d69f1ec0773b36b31a92b73f2d202c4f805a1ceb68d71a30f8fe504c326ad033bebb3be6ba04443a91cba65819b48ee92bd52836548b5e71b)]",
        "0x660ad4B5A74130a4796B4d54BC6750Ae93C86e6c"
      ],
      "transaction": {
        "from": "0x660ad4b5a74130a4796b4d54bc6750ae93c86e6c",
        "to": "0x2843c269d2a64ecfa63548e8b3fc0fd23b7f70cb",
        "value": "0x0",
        "input": "0x1fad948c0000000000000000000000000000000000000000000000000000000000000040000000000000000000000000660ad4b5a74130a4796b4d54bc6750ae93c86e6c000000000000000000000000000000000000000000000000000000000000000100000000000000000000000000000000000000000000000000000000000000200000000000000000000000002e2b1c42e38f5af81771e65d87729e57abd1337a0000000000000000000000000000000000000000000000000000000000000a510000000000000000000000000000000000000000000000000000000000000160000000000000000000000000000000000000000000000000000000000000018000000000000000000000000000000000000000000000000000000000003d0900000000000000000000000000000000000000000000000000000000000003345000000000000000000000000000000000000000000000000000000000000052080000000000000000000000000000000000000000000000000000000000000001000000000000000000000000000000000000000000000000000000003b9aca0000000000000000000000000000000000000000000000000000000000000002c0000000000000000000000000000000000000000000000000000000000000030000000000000000000000000000000000000000000000000000000000000000000000000000000000000000000000000000000000000000000000000000000104b61d27f6000000000000000000000000acc000818e5bbd911d5d449aa81cb5ca2402473900000000000000000000000000000000000000000000000000000000000000000000000000000000000000000000000000000000000000000000000000000060000000000000000000000000000000000000000000000000000000000000006425c471a000000000000000000000000000000000000000000000000016b429b546828e73000000000000000000000000010600ff5f36c8ef3b6aaf2a88c2de85c798594a000000000000000000000000000000000000000000000000000000000003f4800000000000000000000000000000000000000000000000000000000000000000000000000000000000000000000000000000000000000000000000000000000000000000000000000000000000000000000000000000001400000000000000000000000000000000000000000000000000000000000000000000000000000000000000000000000000000000000000000000000000000082a5633c902eea5b8d4f3c4aa46ca1e53dccc0585c1f2d7c02d9ba5e22e726c6015f4588614c36ce0d016e71190c7f18ac62c248e3f4852736e80df3edd4ee3cdb1cf7247365b630d5747d69f1ec0773b36b31a92b73f2d202c4f805a1ceb68d71a30f8fe504c326ad033bebb3be6ba04443a91cba65819b48ee92bd52836548b5e71b000000000000000000000000000000000000000000000000000000000000",
        "nonce": "0x4cb1",
        "chainId": "0x1ecf"
      },
      "additionalContracts": [],
      "isFixedGasLimit": false
    },
    {
      "hash": "0xcb8f9d35c87b2ba849cea77b9638c868d5e8152d85adbcf3acf48d0a329685bc",
      "transactionType": "CALL",
      "contractName": null,
      "contractAddress": "0x2843c269d2a64ecfa63548e8b3fc0fd23b7f70cb",
      "function": "handleOps((address,uint256,bytes,bytes,uint256,uint256,uint256,uint256,uint256,bytes,bytes)[],address)",
      "arguments": [
        "[(0x2e2B1c42E38f5af81771e65D87729E57ABD1337a, 2642, 0x, 0xb61d27f6000000000000000000000000acc000818e5bbd911d5d449aa81cb5ca24024739000000000000000000000000000000000000000000000000000000000000000000000000000000000000000000000000000000000000000000000000000000600000000000000000000000000000000000000000000000000000000000000084853551b800000000000000000000000000000000000000000000000016b429b546828e73000000000000000000000000000000000000000000000000000000000000004000000000000000000000000000000000000000000000000000000000000000114e494f5f474f5645524e4f525f524f4c4500000000000000000000000000000000000000000000000000000000000000000000000000000000000000, 4000000, 210000, 21000, 1, 1000000000, 0x0000000000000000000000000000000000000000, 0x326fdced418cc074d3ab93f7ac5fdee586ad3932c6cd996639e0556839b8b2420f80bdc7b3a8a6a5ffd16d38de61a5b53d3788008a0192685712238f2c617a5c1cfba81cdf992b71e9f0848af8ae10e7a6bf07c55072f6df8e9f19ce99c962012c1c5e2567b5d2c6bb35832036aa32805f959d54df397f426130a60a5e556698e01c)]",
        "0x660ad4B5A74130a4796B4d54BC6750Ae93C86e6c"
      ],
      "transaction": {
        "from": "0x660ad4b5a74130a4796b4d54bc6750ae93c86e6c",
        "to": "0x2843c269d2a64ecfa63548e8b3fc0fd23b7f70cb",
        "value": "0x0",
        "input": "0x1fad948c0000000000000000000000000000000000000000000000000000000000000040000000000000000000000000660ad4b5a74130a4796b4d54bc6750ae93c86e6c000000000000000000000000000000000000000000000000000000000000000100000000000000000000000000000000000000000000000000000000000000200000000000000000000000002e2b1c42e38f5af81771e65d87729e57abd1337a0000000000000000000000000000000000000000000000000000000000000a520000000000000000000000000000000000000000000000000000000000000160000000000000000000000000000000000000000000000000000000000000018000000000000000000000000000000000000000000000000000000000003d0900000000000000000000000000000000000000000000000000000000000003345000000000000000000000000000000000000000000000000000000000000052080000000000000000000000000000000000000000000000000000000000000001000000000000000000000000000000000000000000000000000000003b9aca0000000000000000000000000000000000000000000000000000000000000002e0000000000000000000000000000000000000000000000000000000000000032000000000000000000000000000000000000000000000000000000000000000000000000000000000000000000000000000000000000000000000000000000124b61d27f6000000000000000000000000acc000818e5bbd911d5d449aa81cb5ca24024739000000000000000000000000000000000000000000000000000000000000000000000000000000000000000000000000000000000000000000000000000000600000000000000000000000000000000000000000000000000000000000000084853551b800000000000000000000000000000000000000000000000016b429b546828e73000000000000000000000000000000000000000000000000000000000000004000000000000000000000000000000000000000000000000000000000000000114e494f5f474f5645524e4f525f524f4c450000000000000000000000000000000000000000000000000000000000000000000000000000000000000000000000000000000000000000000000000000000000000000000000000000000000000000000000000000000000000000000000000000000000001400000000000000000000000000000000000000000000000000000000000000000000000000000000000000000000000000000000000000000000000000000082326fdced418cc074d3ab93f7ac5fdee586ad3932c6cd996639e0556839b8b2420f80bdc7b3a8a6a5ffd16d38de61a5b53d3788008a0192685712238f2c617a5c1cfba81cdf992b71e9f0848af8ae10e7a6bf07c55072f6df8e9f19ce99c962012c1c5e2567b5d2c6bb35832036aa32805f959d54df397f426130a60a5e556698e01c000000000000000000000000000000000000000000000000000000000000",
        "nonce": "0x4cb2",
        "chainId": "0x1ecf"
      },
      "additionalContracts": [],
      "isFixedGasLimit": false
    },
    {
      "hash": "0xa8c549ec86d2889d4dd208e6dea60aa4a10d32663643454ac012d1752bfe249d",
      "transactionType": "CALL",
      "contractName": null,
      "contractAddress": "0x2843c269d2a64ecfa63548e8b3fc0fd23b7f70cb",
      "function": "handleOps((address,uint256,bytes,bytes,uint256,uint256,uint256,uint256,uint256,bytes,bytes)[],address)",
      "arguments": [
        "[(0x2e2B1c42E38f5af81771e65D87729E57ABD1337a, 2643, 0x, 0xb61d27f6000000000000000000000000793500709506652fcc61f0d2d0fda605638d4293000000000000000000000000000000000000000000000000000000000000000000000000000000000000000000000000000000000000000000000000000000600000000000000000000000000000000000000000000000000000000000000024f2fde38b000000000000000000000000acc000818e5bbd911d5d449aa81cb5ca2402473900000000000000000000000000000000000000000000000000000000, 4000000, 210000, 21000, 1, 1000000000, 0x0000000000000000000000000000000000000000, 0x767a741ad3bf418da7b6ef107e32b5d235b1bd32182d2e82e5cf070ca259aaa05cab306b798745a635a4d973f401d5b34d12db28ed25ee6ce6bfbf3ec08c707c1c0c5d70d7cb7288b1df9327587ca8c72d72ef3f7d5b7378976b0b95e748b945c11b60d49d73e2ffcf9c18bdecdd1c3809a2c58d7c052230ead84c4fe6c4b78c411b)]",
        "0x660ad4B5A74130a4796B4d54BC6750Ae93C86e6c"
      ],
      "transaction": {
        "from": "0x660ad4b5a74130a4796b4d54bc6750ae93c86e6c",
        "to": "0x2843c269d2a64ecfa63548e8b3fc0fd23b7f70cb",
        "value": "0x0",
        "input": "0x1fad948c0000000000000000000000000000000000000000000000000000000000000040000000000000000000000000660ad4b5a74130a4796b4d54bc6750ae93c86e6c000000000000000000000000000000000000000000000000000000000000000100000000000000000000000000000000000000000000000000000000000000200000000000000000000000002e2b1c42e38f5af81771e65d87729e57abd1337a0000000000000000000000000000000000000000000000000000000000000a530000000000000000000000000000000000000000000000000000000000000160000000000000000000000000000000000000000000000000000000000000018000000000000000000000000000000000000000000000000000000000003d0900000000000000000000000000000000000000000000000000000000000003345000000000000000000000000000000000000000000000000000000000000052080000000000000000000000000000000000000000000000000000000000000001000000000000000000000000000000000000000000000000000000003b9aca00000000000000000000000000000000000000000000000000000000000000028000000000000000000000000000000000000000000000000000000000000002c0000000000000000000000000000000000000000000000000000000000000000000000000000000000000000000000000000000000000000000000000000000c4b61d27f6000000000000000000000000793500709506652fcc61f0d2d0fda605638d4293000000000000000000000000000000000000000000000000000000000000000000000000000000000000000000000000000000000000000000000000000000600000000000000000000000000000000000000000000000000000000000000024f2fde38b000000000000000000000000acc000818e5bbd911d5d449aa81cb5ca240247390000000000000000000000000000000000000000000000000000000000000000000000000000000000000000000000000000000000000000000000000000000000000000000000000000000000000000000000000000001400000000000000000000000000000000000000000000000000000000000000000000000000000000000000000000000000000000000000000000000000000082767a741ad3bf418da7b6ef107e32b5d235b1bd32182d2e82e5cf070ca259aaa05cab306b798745a635a4d973f401d5b34d12db28ed25ee6ce6bfbf3ec08c707c1c0c5d70d7cb7288b1df9327587ca8c72d72ef3f7d5b7378976b0b95e748b945c11b60d49d73e2ffcf9c18bdecdd1c3809a2c58d7c052230ead84c4fe6c4b78c411b000000000000000000000000000000000000000000000000000000000000",
        "nonce": "0x4cb3",
        "chainId": "0x1ecf"
      },
      "additionalContracts": [],
      "isFixedGasLimit": false
    }
  ],
  "receipts": [
    {
      "status": "0x1",
      "cumulativeGasUsed": "0x11b6d2",
      "logs": [
        {
          "address": "0x2843c269d2a64ecfa63548e8b3fc0fd23b7f70cb",
          "topics": [
            "0xbb47ee3e183a558b1a2ff0874b079f3fc5478b7454eacf2bfc5af2ff5878f972"
          ],
          "data": "0x",
          "blockHash": "0xcb7f36b2b8fb9bac38e0b15c1c2c699780c0b7a39d460f6abe94431031e27b08",
          "blockNumber": "0x392cb",
          "transactionHash": "0x296e76112d3e03022f50a5857bb91de4b762c7f793cc52aa8f0f0879639b52b1",
          "transactionIndex": "0x1",
          "logIndex": "0x0",
          "removed": false
        },
        {
          "address": "0x2843c269d2a64ecfa63548e8b3fc0fd23b7f70cb",
          "topics": [
            "0x49628fd1471006c1482da88028e9ce4dbb080b815c9b0344d39e5a8e6ec1419f",
            "0x73267d0d3b675a093ae5a91b2d060822807e1c7318e3c8bdc552c0430308c2c1",
            "0x0000000000000000000000002e2b1c42e38f5af81771e65d87729e57abd1337a",
            "0x0000000000000000000000000000000000000000000000000000000000000000"
          ],
          "data": "0x0000000000000000000000000000000000000000000000000000000000000a4f000000000000000000000000000000000000000000000000000000000000000100000000000000000000000000000000000000000000000000000000000858ac00000000000000000000000000000000000000000000000000000000000858ac",
          "blockHash": "0xcb7f36b2b8fb9bac38e0b15c1c2c699780c0b7a39d460f6abe94431031e27b08",
          "blockNumber": "0x392cb",
          "transactionHash": "0x296e76112d3e03022f50a5857bb91de4b762c7f793cc52aa8f0f0879639b52b1",
          "transactionIndex": "0x1",
          "logIndex": "0x1",
          "removed": false
        }
      ],
      "logsBloom": "0x00000000000000000000000000000000000000000000000000000200000010000008000000000000000000010000000000000000000000000000020000000000000000000000000000000000000000000000000000000000000000000000000800000000020000000000000000000800002000000000000000000000000000000000000080000000000000000000800000000000000000000000000000000000000400000000000000400000000000000000000000000000000002000000000000000000000000100001000000000000000000000000000000000000000020000000000000010000000000000000000000000000000000000000000000000000",
      "type": "0x2",
      "transactionHash": "0x296e76112d3e03022f50a5857bb91de4b762c7f793cc52aa8f0f0879639b52b1",
      "transactionIndex": "0x1",
      "blockHash": "0xcb7f36b2b8fb9bac38e0b15c1c2c699780c0b7a39d460f6abe94431031e27b08",
      "blockNumber": "0x392cb",
      "gasUsed": "0x11b6d2",
      "effectiveGasPrice": "0x5f5e100",
      "from": "0x660ad4b5a74130a4796b4d54bc6750ae93c86e6c",
      "to": "0x2843c269d2a64ecfa63548e8b3fc0fd23b7f70cb",
      "contractAddress": null,
      "gasUsedForL1": "0xefef1",
      "l1BlockNumber": "0x14104ad"
    },
    {
      "status": "0x1",
      "cumulativeGasUsed": "0x141473",
      "logs": [
        {
          "address": "0x2843c269d2a64ecfa63548e8b3fc0fd23b7f70cb",
          "topics": [
            "0xbb47ee3e183a558b1a2ff0874b079f3fc5478b7454eacf2bfc5af2ff5878f972"
          ],
          "data": "0x",
          "blockHash": "0x042ce30b03e5b834c0bfdb8159a4dac2e528abc37f785d00b60d751c92fa6038",
          "blockNumber": "0x392cc",
          "transactionHash": "0xa2ebb74853cc2cf8d613ec19a7957124db00f51bfeefc501837abdc40babc7a1",
          "transactionIndex": "0x1",
          "logIndex": "0x0",
          "removed": false
        },
        {
          "address": "0xacc000818e5bbd911d5d449aa81cb5ca24024739",
          "topics": [
            "0x9ea6790c7dadfd01c9f8b9762b3682607af2c7e79e05a9f9fdf5580dde949151",
            "0x000000000000000000000000793500709506652fcc61f0d2d0fda605638d4293",
            "0x00000000000000000000000000000000000000000000000016b429b546828e73"
          ],
          "data": "0x8522d1b200000000000000000000000000000000000000000000000000000000",
          "blockHash": "0x042ce30b03e5b834c0bfdb8159a4dac2e528abc37f785d00b60d751c92fa6038",
          "blockNumber": "0x392cc",
          "transactionHash": "0xa2ebb74853cc2cf8d613ec19a7957124db00f51bfeefc501837abdc40babc7a1",
          "transactionIndex": "0x1",
          "logIndex": "0x1",
          "removed": false
        },
        {
          "address": "0xacc000818e5bbd911d5d449aa81cb5ca24024739",
          "topics": [
            "0x9ea6790c7dadfd01c9f8b9762b3682607af2c7e79e05a9f9fdf5580dde949151",
            "0x000000000000000000000000793500709506652fcc61f0d2d0fda605638d4293",
            "0x00000000000000000000000000000000000000000000000016b429b546828e73"
          ],
          "data": "0xc664c71400000000000000000000000000000000000000000000000000000000",
          "blockHash": "0x042ce30b03e5b834c0bfdb8159a4dac2e528abc37f785d00b60d751c92fa6038",
          "blockNumber": "0x392cc",
          "transactionHash": "0xa2ebb74853cc2cf8d613ec19a7957124db00f51bfeefc501837abdc40babc7a1",
          "transactionIndex": "0x1",
          "logIndex": "0x2",
          "removed": false
        },
        {
          "address": "0xacc000818e5bbd911d5d449aa81cb5ca24024739",
          "topics": [
            "0x9ea6790c7dadfd01c9f8b9762b3682607af2c7e79e05a9f9fdf5580dde949151",
            "0x000000000000000000000000793500709506652fcc61f0d2d0fda605638d4293",
            "0x00000000000000000000000000000000000000000000000016b429b546828e73"
          ],
          "data": "0x9089e8ae00000000000000000000000000000000000000000000000000000000",
          "blockHash": "0x042ce30b03e5b834c0bfdb8159a4dac2e528abc37f785d00b60d751c92fa6038",
          "blockNumber": "0x392cc",
          "transactionHash": "0xa2ebb74853cc2cf8d613ec19a7957124db00f51bfeefc501837abdc40babc7a1",
          "transactionIndex": "0x1",
          "logIndex": "0x3",
          "removed": false
        },
        {
          "address": "0x2843c269d2a64ecfa63548e8b3fc0fd23b7f70cb",
          "topics": [
            "0x49628fd1471006c1482da88028e9ce4dbb080b815c9b0344d39e5a8e6ec1419f",
            "0x7559c2d2e65b483ee0680741947ac782889546ab071cd3a615fef0defd1a7365",
            "0x0000000000000000000000002e2b1c42e38f5af81771e65d87729e57abd1337a",
            "0x0000000000000000000000000000000000000000000000000000000000000000"
          ],
          "data": "0x0000000000000000000000000000000000000000000000000000000000000a50000000000000000000000000000000000000000000000000000000000000000100000000000000000000000000000000000000000000000000000000000934d600000000000000000000000000000000000000000000000000000000000934d6",
          "blockHash": "0x042ce30b03e5b834c0bfdb8159a4dac2e528abc37f785d00b60d751c92fa6038",
          "blockNumber": "0x392cc",
          "transactionHash": "0xa2ebb74853cc2cf8d613ec19a7957124db00f51bfeefc501837abdc40babc7a1",
          "transactionIndex": "0x1",
          "logIndex": "0x4",
          "removed": false
        }
      ],
      "logsBloom": "0x00000004000088000000001000080000000000000000000000000000000000000008000000000000000000010000000000000000000000000400020000000000000000000000000000000000000000000000000000000000000000000000000800000000020008000000000000000800002000000000000000000000000000000000000000000000000002000000800000000000000000000000400000001000000400000000000000400000000000000000000000000000000002000000000000000000000000100001000000200080000400000000000000800800000020000000000000010000000000000000000000000000000000000000000000000000",
      "type": "0x2",
      "transactionHash": "0xa2ebb74853cc2cf8d613ec19a7957124db00f51bfeefc501837abdc40babc7a1",
      "transactionIndex": "0x1",
      "blockHash": "0x042ce30b03e5b834c0bfdb8159a4dac2e528abc37f785d00b60d751c92fa6038",
      "blockNumber": "0x392cc",
      "gasUsed": "0x141473",
      "effectiveGasPrice": "0x5f5e100",
      "from": "0x660ad4b5a74130a4796b4d54bc6750ae93c86e6c",
      "to": "0x2843c269d2a64ecfa63548e8b3fc0fd23b7f70cb",
      "contractAddress": null,
      "gasUsedForL1": "0x1066a0",
      "l1BlockNumber": "0x14104ad"
    },
    {
      "status": "0x1",
      "cumulativeGasUsed": "0x127f8e",
      "logs": [
        {
          "address": "0x2843c269d2a64ecfa63548e8b3fc0fd23b7f70cb",
          "topics": [
            "0xbb47ee3e183a558b1a2ff0874b079f3fc5478b7454eacf2bfc5af2ff5878f972"
          ],
          "data": "0x",
          "blockHash": "0x01654acba1f910cf9931a6712bb98f4eee496d2c5b17b98f5ee29a528adaecb3",
          "blockNumber": "0x392cd",
          "transactionHash": "0xbdf62bcad09291a9042c9727245601a64c149594a505fe67fe3b6b2e97e41664",
          "transactionIndex": "0x1",
          "logIndex": "0x0",
          "removed": false
        },
        {
          "address": "0xacc000818e5bbd911d5d449aa81cb5ca24024739",
          "topics": [
            "0xf98448b987f1428e0e230e1f3c6e2ce15b5693eaf31827fbd0b1ec4b424ae7cf",
            "0x00000000000000000000000000000000000000000000000016b429b546828e73",
            "0x000000000000000000000000010600ff5f36c8ef3b6aaf2a88c2de85c798594a"
          ],
          "data": "0x000000000000000000000000000000000000000000000000000000000003f48000000000000000000000000000000000000000000000000000000000671ac0ee0000000000000000000000000000000000000000000000000000000000000001",
          "blockHash": "0x01654acba1f910cf9931a6712bb98f4eee496d2c5b17b98f5ee29a528adaecb3",
          "blockNumber": "0x392cd",
          "transactionHash": "0xbdf62bcad09291a9042c9727245601a64c149594a505fe67fe3b6b2e97e41664",
          "transactionIndex": "0x1",
          "logIndex": "0x1",
          "removed": false
        },
        {
          "address": "0x2843c269d2a64ecfa63548e8b3fc0fd23b7f70cb",
          "topics": [
            "0x49628fd1471006c1482da88028e9ce4dbb080b815c9b0344d39e5a8e6ec1419f",
            "0x7bf7314510cdb208661d5232f2b6b32ea6c972b05f14664af88e9d36aa9dd452",
            "0x0000000000000000000000002e2b1c42e38f5af81771e65d87729e57abd1337a",
            "0x0000000000000000000000000000000000000000000000000000000000000000"
          ],
          "data": "0x0000000000000000000000000000000000000000000000000000000000000a5100000000000000000000000000000000000000000000000000000000000000010000000000000000000000000000000000000000000000000000000000088bce0000000000000000000000000000000000000000000000000000000000088bce",
          "blockHash": "0x01654acba1f910cf9931a6712bb98f4eee496d2c5b17b98f5ee29a528adaecb3",
          "blockNumber": "0x392cd",
          "transactionHash": "0xbdf62bcad09291a9042c9727245601a64c149594a505fe67fe3b6b2e97e41664",
          "transactionIndex": "0x1",
          "logIndex": "0x2",
          "removed": false
        }
      ],
      "logsBloom": "0x00000000000008002000000000000000000000000000000000000000000000000008000000000000000000010000000000000000000000000400020000000000000000000000000000000000000000000000000000000000000000000000000800004000020008000000000000000800002000000000000000000000000000000000000000000000000002000000800008000010000080000000020000001008000400000000000000402000000000000000000000000008000002000000000000000000000000100001000000000000000400000000000000000000000020000000000000010000000000000000000000000000000000000000000000000000",
      "type": "0x2",
      "transactionHash": "0xbdf62bcad09291a9042c9727245601a64c149594a505fe67fe3b6b2e97e41664",
      "transactionIndex": "0x1",
      "blockHash": "0x01654acba1f910cf9931a6712bb98f4eee496d2c5b17b98f5ee29a528adaecb3",
      "blockNumber": "0x392cd",
      "gasUsed": "0x127f8e",
      "effectiveGasPrice": "0x5f5e100",
      "from": "0x660ad4b5a74130a4796b4d54bc6750ae93c86e6c",
      "to": "0x2843c269d2a64ecfa63548e8b3fc0fd23b7f70cb",
      "contractAddress": null,
      "gasUsedForL1": "0xf9033",
      "l1BlockNumber": "0x14104ad"
    },
    {
      "status": "0x1",
      "cumulativeGasUsed": "0x1209d9",
      "logs": [
        {
          "address": "0x2843c269d2a64ecfa63548e8b3fc0fd23b7f70cb",
          "topics": [
            "0xbb47ee3e183a558b1a2ff0874b079f3fc5478b7454eacf2bfc5af2ff5878f972"
          ],
          "data": "0x",
          "blockHash": "0x4331abd6dea174b220024710087816576aa6ed211f80c120571afcfa59e60550",
          "blockNumber": "0x392ce",
          "transactionHash": "0xcb8f9d35c87b2ba849cea77b9638c868d5e8152d85adbcf3acf48d0a329685bc",
          "transactionIndex": "0x1",
          "logIndex": "0x0",
          "removed": false
        },
        {
          "address": "0xacc000818e5bbd911d5d449aa81cb5ca24024739",
          "topics": [
            "0x1256f5b5ecb89caec12db449738f2fbcd1ba5806cf38f35413f4e5c15bf6a450",
            "0x00000000000000000000000000000000000000000000000016b429b546828e73"
          ],
          "data": "0x000000000000000000000000000000000000000000000000000000000000002000000000000000000000000000000000000000000000000000000000000000114e494f5f474f5645524e4f525f524f4c45000000000000000000000000000000",
          "blockHash": "0x4331abd6dea174b220024710087816576aa6ed211f80c120571afcfa59e60550",
          "blockNumber": "0x392ce",
          "transactionHash": "0xcb8f9d35c87b2ba849cea77b9638c868d5e8152d85adbcf3acf48d0a329685bc",
          "transactionIndex": "0x1",
          "logIndex": "0x1",
          "removed": false
        },
        {
          "address": "0x2843c269d2a64ecfa63548e8b3fc0fd23b7f70cb",
          "topics": [
            "0x49628fd1471006c1482da88028e9ce4dbb080b815c9b0344d39e5a8e6ec1419f",
            "0x6fcff7e782b0bc8d9f72c40c4ffcf8ef42a2e61e44c4891858351f5e8c6d5119",
            "0x0000000000000000000000002e2b1c42e38f5af81771e65d87729e57abd1337a",
            "0x0000000000000000000000000000000000000000000000000000000000000000"
          ],
          "data": "0x0000000000000000000000000000000000000000000000000000000000000a5200000000000000000000000000000000000000000000000000000000000000010000000000000000000000000000000000000000000000000000000000082dfa0000000000000000000000000000000000000000000000000000000000082dfa",
          "blockHash": "0x4331abd6dea174b220024710087816576aa6ed211f80c120571afcfa59e60550",
          "blockNumber": "0x392ce",
          "transactionHash": "0xcb8f9d35c87b2ba849cea77b9638c868d5e8152d85adbcf3acf48d0a329685bc",
          "transactionIndex": "0x1",
          "logIndex": "0x2",
          "removed": false
        }
      ],
      "logsBloom": "0x00000000100008000000000000000000000000000000000000000000000000000008000000000000000000010000000000000000000000000400020000000000000000000000000000000000000000000000000000000000000000000000000800000000020008040000000000000800002000000000000000000000010000000000000000000000000002000000800000000000000000000000000000001000000400000000000000400000000000000004000000000000100002000000000000000000000000100001000000000000000400000000000000000000000020000000000000010000000000000000000000000000000000000000000400000000",
      "type": "0x2",
      "transactionHash": "0xcb8f9d35c87b2ba849cea77b9638c868d5e8152d85adbcf3acf48d0a329685bc",
      "transactionIndex": "0x1",
      "blockHash": "0x4331abd6dea174b220024710087816576aa6ed211f80c120571afcfa59e60550",
      "blockNumber": "0x392ce",
      "gasUsed": "0x1209d9",
      "effectiveGasPrice": "0x5f5e100",
      "from": "0x660ad4b5a74130a4796b4d54bc6750ae93c86e6c",
      "to": "0x2843c269d2a64ecfa63548e8b3fc0fd23b7f70cb",
      "contractAddress": null,
      "gasUsedForL1": "0xf825d",
      "l1BlockNumber": "0x14104ad"
    },
    {
      "status": "0x1",
      "cumulativeGasUsed": "0x11d853",
      "logs": [
        {
          "address": "0x2843c269d2a64ecfa63548e8b3fc0fd23b7f70cb",
          "topics": [
            "0xbb47ee3e183a558b1a2ff0874b079f3fc5478b7454eacf2bfc5af2ff5878f972"
          ],
          "data": "0x",
          "blockHash": "0xe0f816d91226f62696b528d72787080b8a1241a0ad57857a4329737b80ad49d9",
          "blockNumber": "0x392cf",
          "transactionHash": "0xa8c549ec86d2889d4dd208e6dea60aa4a10d32663643454ac012d1752bfe249d",
          "transactionIndex": "0x1",
          "logIndex": "0x0",
          "removed": false
        },
        {
          "address": "0x793500709506652fcc61f0d2d0fda605638d4293",
          "topics": [
            "0x8be0079c531659141344cd1fd0a4f28419497f9722a3daafe3b4186f6b6457e0",
            "0x0000000000000000000000002e2b1c42e38f5af81771e65d87729e57abd1337a",
            "0x000000000000000000000000acc000818e5bbd911d5d449aa81cb5ca24024739"
          ],
          "data": "0x",
          "blockHash": "0xe0f816d91226f62696b528d72787080b8a1241a0ad57857a4329737b80ad49d9",
          "blockNumber": "0x392cf",
          "transactionHash": "0xa8c549ec86d2889d4dd208e6dea60aa4a10d32663643454ac012d1752bfe249d",
          "transactionIndex": "0x1",
          "logIndex": "0x1",
          "removed": false
        },
        {
          "address": "0x2843c269d2a64ecfa63548e8b3fc0fd23b7f70cb",
          "topics": [
            "0x49628fd1471006c1482da88028e9ce4dbb080b815c9b0344d39e5a8e6ec1419f",
            "0x5f9642c4512a32d949e4b9f82e522e7462189cd3981e728c809eb5e5d2d6c21c",
            "0x0000000000000000000000002e2b1c42e38f5af81771e65d87729e57abd1337a",
            "0x0000000000000000000000000000000000000000000000000000000000000000"
          ],
          "data": "0x0000000000000000000000000000000000000000000000000000000000000a530000000000000000000000000000000000000000000000000000000000000001000000000000000000000000000000000000000000000000000000000008417b000000000000000000000000000000000000000000000000000000000008417b",
          "blockHash": "0xe0f816d91226f62696b528d72787080b8a1241a0ad57857a4329737b80ad49d9",
          "blockNumber": "0x392cf",
          "transactionHash": "0xa8c549ec86d2889d4dd208e6dea60aa4a10d32663643454ac012d1752bfe249d",
          "transactionIndex": "0x1",
          "logIndex": "0x2",
          "removed": false
        }
      ],
      "logsBloom": "0x00000000000000000000000000000000000000000000000000804000000000000008000000000000000000010000000000000800000000000004020000000000000000000000000000000000000000000001000000000000000000000001000800000000020000000000000000000800002000000000000000000000000000400000000000000000000000000000c00000000000000000000000000000000000000400000000000000400000000000000000000000000000000002000000000000000000000000100001000000000000000000000000050000000000000020000000000000010000000000010000000000020000000000000000000000000000",
      "type": "0x2",
      "transactionHash": "0xa8c549ec86d2889d4dd208e6dea60aa4a10d32663643454ac012d1752bfe249d",
      "transactionIndex": "0x1",
      "blockHash": "0xe0f816d91226f62696b528d72787080b8a1241a0ad57857a4329737b80ad49d9",
      "blockNumber": "0x392cf",
      "gasUsed": "0x11d853",
      "effectiveGasPrice": "0x5f5e100",
      "from": "0x660ad4b5a74130a4796b4d54bc6750ae93c86e6c",
      "to": "0x2843c269d2a64ecfa63548e8b3fc0fd23b7f70cb",
      "contractAddress": null,
      "gasUsedForL1": "0xf3d32",
      "l1BlockNumber": "0x14104ad"
    }
  ],
  "libraries": [],
  "pending": [],
  "returns": {},
  "timestamp": 1729806576,
  "chain": 7887,
  "commit": "25c7b55"
}