{
  "transactions": [
    {
      "hash": "0x5ce3f8e2fbcec19a0658cddc184ed802e931515115b046997f1ad791a39a83f9",
      "transactionType": "CALL",
      "contractName": null,
      "contractAddress": "0x2843c269d2a64ecfa63548e8b3fc0fd23b7f70cb",
      "function": "handleOps((address,uint256,bytes,bytes,uint256,uint256,uint256,uint256,uint256,bytes,bytes)[],address)",
      "arguments": [
        "[(0x2e2B1c42E38f5af81771e65D87729E57ABD1337a, 4720, 0x, 0xb61d27f6000000000000000000000000acc000818e5bbd911d5d449aa81cb5ca24024739000000000000000000000000000000000000000000000000000000000000000000000000000000000000000000000000000000000000000000000000000000600000000000000000000000000000000000000000000000000000000000000104d6bb62c60000000000000000000000002e2b1c42e38f5af81771e65d87729e57abd1337a000000000000000000000000acc000818e5bbd911d5d449aa81cb5ca240247390000000000000000000000000000000000000000000000000000000000000060000000000000000000000000000000000000000000000000000000000000006425c471a0000000000000000000000000000000000000000000000000783b0946b8c9d2e30000000000000000000000002e2b1c42e38f5af81771e65d87729e57abd1337a00000000000000000000000000000000000000000000000000000000000e80800000000000000000000000000000000000000000000000000000000000000000000000000000000000000000000000000000000000000000, 4000000, 210000, 21000, 1, 1000000000, 0x0000000000000000000000000000000000000000, 0x14d6ae9b2bc65e623c9de3e9ba3a29c7dbb7a94f63a7529963ccf98e2d3508fc3a0c8a0b8349917a261b9759185c173267893c2418798b53e6a3cf23860481b51b9b7e755c28b2251f9066dbb1f43fcc7a617b16c9d8bd1eb9c22acafad7cef60057aaafbfd164b25ecd880c82dd300ee0acdd981b33bfaa299e31c5b13c83c23c1b)]",
        "0x660ad4B5A74130a4796B4d54BC6750Ae93C86e6c"
      ],
      "transaction": {
        "from": "0x660ad4b5a74130a4796b4d54bc6750ae93c86e6c",
        "to": "0x2843c269d2a64ecfa63548e8b3fc0fd23b7f70cb",
        "value": "0x0",
        "input": "0x1fad948c0000000000000000000000000000000000000000000000000000000000000040000000000000000000000000660ad4b5a74130a4796b4d54bc6750ae93c86e6c000000000000000000000000000000000000000000000000000000000000000100000000000000000000000000000000000000000000000000000000000000200000000000000000000000002e2b1c42e38f5af81771e65d87729e57abd1337a00000000000000000000000000000000000000000000000000000000000012700000000000000000000000000000000000000000000000000000000000000160000000000000000000000000000000000000000000000000000000000000018000000000000000000000000000000000000000000000000000000000003d0900000000000000000000000000000000000000000000000000000000000003345000000000000000000000000000000000000000000000000000000000000052080000000000000000000000000000000000000000000000000000000000000001000000000000000000000000000000000000000000000000000000003b9aca00000000000000000000000000000000000000000000000000000000000000036000000000000000000000000000000000000000000000000000000000000003a0000000000000000000000000000000000000000000000000000000000000000000000000000000000000000000000000000000000000000000000000000001a4b61d27f6000000000000000000000000acc000818e5bbd911d5d449aa81cb5ca24024739000000000000000000000000000000000000000000000000000000000000000000000000000000000000000000000000000000000000000000000000000000600000000000000000000000000000000000000000000000000000000000000104d6bb62c60000000000000000000000002e2b1c42e38f5af81771e65d87729e57abd1337a000000000000000000000000acc000818e5bbd911d5d449aa81cb5ca240247390000000000000000000000000000000000000000000000000000000000000060000000000000000000000000000000000000000000000000000000000000006425c471a0000000000000000000000000000000000000000000000000783b0946b8c9d2e30000000000000000000000002e2b1c42e38f5af81771e65d87729e57abd1337a00000000000000000000000000000000000000000000000000000000000e808000000000000000000000000000000000000000000000000000000000000000000000000000000000000000000000000000000000000000000000000000000000000000000000000000000000000000000000000000000000000000000000000000000000000000000000000000000000000000140000000000000000000000000000000000000000000000000000000000000000000000000000000000000000000000000000000000000000000000000000008214d6ae9b2bc65e623c9de3e9ba3a29c7dbb7a94f63a7529963ccf98e2d3508fc3a0c8a0b8349917a261b9759185c173267893c2418798b53e6a3cf23860481b51b9b7e755c28b2251f9066dbb1f43fcc7a617b16c9d8bd1eb9c22acafad7cef60057aaafbfd164b25ecd880c82dd300ee0acdd981b33bfaa299e31c5b13c83c23c1b000000000000000000000000000000000000000000000000000000000000",
        "nonce": "0x4bde2",
        "chainId": "0x1ecf"
      },
      "additionalContracts": [],
      "isFixedGasLimit": false
    }
  ],
  "receipts": [
    {
      "status": "0x1",
      "cumulativeGasUsed": "0x299a2",
      "logs": [
        {
          "address": "0x2843c269d2a64ecfa63548e8b3fc0fd23b7f70cb",
          "topics": [
            "0xbb47ee3e183a558b1a2ff0874b079f3fc5478b7454eacf2bfc5af2ff5878f972"
          ],
          "data": "0x",
          "blockHash": "0x72d5d94f5daed05b0fc4e555bb0745ee25ea6a44d7da55256a61558b2acec395",
          "blockNumber": "0xbeb04",
          "transactionHash": "0x5ce3f8e2fbcec19a0658cddc184ed802e931515115b046997f1ad791a39a83f9",
          "transactionIndex": "0x1",
          "logIndex": "0x0",
          "removed": false
        },
        {
          "address": "0xacc000818e5bbd911d5d449aa81cb5ca24024739",
          "topics": [
            "0xbd9ac67a6e2f6463b80927326310338bcbb4bdb7936ce1365ea3e01067e7b9f7",
            "0x0ad95e032eb7beede43f2741b7bcef6566a6163eaa1ac1ef42441f25193096d8",
            "0x0000000000000000000000000000000000000000000000000000000000000001"
          ],
          "data": "0x",
          "blockHash": "0x72d5d94f5daed05b0fc4e555bb0745ee25ea6a44d7da55256a61558b2acec395",
          "blockNumber": "0xbeb04",
          "transactionHash": "0x5ce3f8e2fbcec19a0658cddc184ed802e931515115b046997f1ad791a39a83f9",
          "transactionIndex": "0x1",
          "logIndex": "0x1",
          "removed": false
        },
        {
          "address": "0x2843c269d2a64ecfa63548e8b3fc0fd23b7f70cb",
          "topics": [
            "0x49628fd1471006c1482da88028e9ce4dbb080b815c9b0344d39e5a8e6ec1419f",
            "0x9417e15f4779da20422e73cdbb0d0306d6370b2e235be351650872fa592f5ed5",
            "0x0000000000000000000000002e2b1c42e38f5af81771e65d87729e57abd1337a",
            "0x0000000000000000000000000000000000000000000000000000000000000000"
          ],
          "data": "0x0000000000000000000000000000000000000000000000000000000000001270000000000000000000000000000000000000000000000000000000000000000100000000000000000000000000000000000000000000000000000000000837870000000000000000000000000000000000000000000000000000000000083787",
          "blockHash": "0x72d5d94f5daed05b0fc4e555bb0745ee25ea6a44d7da55256a61558b2acec395",
          "blockNumber": "0xbeb04",
          "transactionHash": "0x5ce3f8e2fbcec19a0658cddc184ed802e931515115b046997f1ad791a39a83f9",
          "transactionIndex": "0x1",
          "logIndex": "0x2",
          "removed": false
        }
      ],
      "logsBloom": "0x00000000000008000000000000000000000000000000000000040000000000000008000000000000000000010000000008000000000000000000020000040000000000000000000000000000000000000000000000040000000000000000000800000000020000000000000000000800002000000000000000000000000000000000000000000000000002000040800000100000000000000000000000001000000400000000000000400000000000000000020000000000000002000000000000000000000000100001000000000000000000100000000000000000000060000000000010010000000000000200001000000000000000000000000000000000",
      "type": "0x2",
      "transactionHash": "0x5ce3f8e2fbcec19a0658cddc184ed802e931515115b046997f1ad791a39a83f9",
      "transactionIndex": "0x1",
      "blockHash": "0x72d5d94f5daed05b0fc4e555bb0745ee25ea6a44d7da55256a61558b2acec395",
      "blockNumber": "0xbeb04",
      "gasUsed": "0x299a2",
      "effectiveGasPrice": "0x5f5e100",
      "from": "0x660ad4b5a74130a4796b4d54bc6750ae93c86e6c",
      "to": "0x2843c269d2a64ecfa63548e8b3fc0fd23b7f70cb",
      "contractAddress": null,
      "gasUsedForL1": "0x336",
      "l1BlockNumber": "0x151baea"
    }
  ],
  "libraries": [],
  "pending": [],
  "returns": {},
  "timestamp": 1743021031,
  "chain": 7887,
  "commit": "d87b675d"
}