{
  "transactions": [
    {
      "hash": "0x66a4dd3701a3440e2a39940ca07cb818cfa49213ea1242a0ac9a7e757ce95227",
      "transactionType": "CALL",
      "contractName": null,
      "contractAddress": "0x2843c269d2a64ecfa63548e8b3fc0fd23b7f70cb",
      "function": "handleOps((address,uint256,bytes,bytes,uint256,uint256,uint256,uint256,uint256,bytes,bytes)[],address)",
      "arguments": [
        "[(0x2e2B1c42E38f5af81771e65D87729E57ABD1337a, 4449, 0x, 0xb61d27f6000000000000000000000000f369f78e3a0492cc4e96a90dae0728a38498e9c70000000000000000000000000000000000000000000000000000000000000000000000000000000000000000000000000000000000000000000000000000006000000000000000000000000000000000000000000000000000000000000000442f2ff15d0000000000000000000000000000000000000000000000000000000000000000000000000000000000000000acc000818e5bbd911d5d449aa81cb5ca2402473900000000000000000000000000000000000000000000000000000000, 4000000, 210000, 21000, 1, 1000000000, 0x0000000000000000000000000000000000000000, 0x9a2939f68cfdddf1775f4ee65e878b3a02b66d70db1cf169ee1f8b0932ef5a8e75268cdad4a07b6eafe628a46eeac48b14fdaf97825d36697bc340f7b8d618a91cb983dad91ca0654b76d4dd0a8e2fb5debc5fae06d2be1afb485c38da28af191e6f1bc276c65a1dbaa40a5e71405e243422ce6700ff56bfd0f474e9654e15c4f11b)]",
        "0x660ad4B5A74130a4796B4d54BC6750Ae93C86e6c"
      ],
      "transaction": {
        "from": "0x660ad4b5a74130a4796b4d54bc6750ae93c86e6c",
        "to": "0x2843c269d2a64ecfa63548e8b3fc0fd23b7f70cb",
        "value": "0x0",
        "input": "0x1fad948c0000000000000000000000000000000000000000000000000000000000000040000000000000000000000000660ad4b5a74130a4796b4d54bc6750ae93c86e6c000000000000000000000000000000000000000000000000000000000000000100000000000000000000000000000000000000000000000000000000000000200000000000000000000000002e2b1c42e38f5af81771e65d87729e57abd1337a00000000000000000000000000000000000000000000000000000000000011610000000000000000000000000000000000000000000000000000000000000160000000000000000000000000000000000000000000000000000000000000018000000000000000000000000000000000000000000000000000000000003d0900000000000000000000000000000000000000000000000000000000000003345000000000000000000000000000000000000000000000000000000000000052080000000000000000000000000000000000000000000000000000000000000001000000000000000000000000000000000000000000000000000000003b9aca0000000000000000000000000000000000000000000000000000000000000002a000000000000000000000000000000000000000000000000000000000000002e0000000000000000000000000000000000000000000000000000000000000000000000000000000000000000000000000000000000000000000000000000000e4b61d27f6000000000000000000000000f369f78e3a0492cc4e96a90dae0728a38498e9c70000000000000000000000000000000000000000000000000000000000000000000000000000000000000000000000000000000000000000000000000000006000000000000000000000000000000000000000000000000000000000000000442f2ff15d0000000000000000000000000000000000000000000000000000000000000000000000000000000000000000acc000818e5bbd911d5d449aa81cb5ca2402473900000000000000000000000000000000000000000000000000000000000000000000000000000000000000000000000000000000000000000000000000000000000000000000000000000000000000000000000000000014000000000000000000000000000000000000000000000000000000000000000000000000000000000000000000000000000000000000000000000000000000829a2939f68cfdddf1775f4ee65e878b3a02b66d70db1cf169ee1f8b0932ef5a8e75268cdad4a07b6eafe628a46eeac48b14fdaf97825d36697bc340f7b8d618a91cb983dad91ca0654b76d4dd0a8e2fb5debc5fae06d2be1afb485c38da28af191e6f1bc276c65a1dbaa40a5e71405e243422ce6700ff56bfd0f474e9654e15c4f11b000000000000000000000000000000000000000000000000000000000000",
        "nonce": "0x4bcaa",
        "chainId": "0x1ecf"
      },
      "additionalContracts": [],
      "isFixedGasLimit": false
    },
    {
      "hash": "0x0a01a6feac8aff1da8ef3c574b05f769fa702a954473eda02650da323ad091d7",
      "transactionType": "CALL",
      "contractName": null,
      "contractAddress": "0x2843c269d2a64ecfa63548e8b3fc0fd23b7f70cb",
      "function": "handleOps((address,uint256,bytes,bytes,uint256,uint256,uint256,uint256,uint256,bytes,bytes)[],address)",
      "arguments": [
        "[(0x2e2B1c42E38f5af81771e65D87729E57ABD1337a, 4450, 0x, 0xb61d27f6000000000000000000000000f369f78e3a0492cc4e96a90dae0728a38498e9c70000000000000000000000000000000000000000000000000000000000000000000000000000000000000000000000000000000000000000000000000000006000000000000000000000000000000000000000000000000000000000000000442f2ff15d6c4079fcac94e7142d8c209744c998efe53a188aadb7e55958f7ad3ea8a1d652000000000000000000000000acc000818e5bbd911d5d449aa81cb5ca2402473900000000000000000000000000000000000000000000000000000000, 4000000, 210000, 21000, 1, 1000000000, 0x0000000000000000000000000000000000000000, 0x6f2dfe55a1bdd90ae9785b382d0f48f8600f01b77353e2cbbda81244dec711c60d8ddb81d586a7843ae81ea5dca5839bd217fcca0d2b41d13955d1a1b69622b71c2f0e2a7d6925a59f66b093f8a6f5be60106a601914a4b3d076a1e61e4f8870052272d51e64979bb4bd8bfede1d5d15b1b2ac166dba151da10481bac2e391a69a1c)]",
        "0x660ad4B5A74130a4796B4d54BC6750Ae93C86e6c"
      ],
      "transaction": {
        "from": "0x660ad4b5a74130a4796b4d54bc6750ae93c86e6c",
        "to": "0x2843c269d2a64ecfa63548e8b3fc0fd23b7f70cb",
        "value": "0x0",
        "input": "0x1fad948c0000000000000000000000000000000000000000000000000000000000000040000000000000000000000000660ad4b5a74130a4796b4d54bc6750ae93c86e6c000000000000000000000000000000000000000000000000000000000000000100000000000000000000000000000000000000000000000000000000000000200000000000000000000000002e2b1c42e38f5af81771e65d87729e57abd1337a00000000000000000000000000000000000000000000000000000000000011620000000000000000000000000000000000000000000000000000000000000160000000000000000000000000000000000000000000000000000000000000018000000000000000000000000000000000000000000000000000000000003d0900000000000000000000000000000000000000000000000000000000000003345000000000000000000000000000000000000000000000000000000000000052080000000000000000000000000000000000000000000000000000000000000001000000000000000000000000000000000000000000000000000000003b9aca0000000000000000000000000000000000000000000000000000000000000002a000000000000000000000000000000000000000000000000000000000000002e0000000000000000000000000000000000000000000000000000000000000000000000000000000000000000000000000000000000000000000000000000000e4b61d27f6000000000000000000000000f369f78e3a0492cc4e96a90dae0728a38498e9c70000000000000000000000000000000000000000000000000000000000000000000000000000000000000000000000000000000000000000000000000000006000000000000000000000000000000000000000000000000000000000000000442f2ff15d6c4079fcac94e7142d8c209744c998efe53a188aadb7e55958f7ad3ea8a1d652000000000000000000000000acc000818e5bbd911d5d449aa81cb5ca2402473900000000000000000000000000000000000000000000000000000000000000000000000000000000000000000000000000000000000000000000000000000000000000000000000000000000000000000000000000000014000000000000000000000000000000000000000000000000000000000000000000000000000000000000000000000000000000000000000000000000000000826f2dfe55a1bdd90ae9785b382d0f48f8600f01b77353e2cbbda81244dec711c60d8ddb81d586a7843ae81ea5dca5839bd217fcca0d2b41d13955d1a1b69622b71c2f0e2a7d6925a59f66b093f8a6f5be60106a601914a4b3d076a1e61e4f8870052272d51e64979bb4bd8bfede1d5d15b1b2ac166dba151da10481bac2e391a69a1c000000000000000000000000000000000000000000000000000000000000",
        "nonce": "0x4bcab",
        "chainId": "0x1ecf"
      },
      "additionalContracts": [],
      "isFixedGasLimit": false
    },
    {
      "hash": "0xe311182ab986e7f4aa10aaa52d5ebed1f9ff8fbe7fd6d0efb63ccac28e3db872",
      "transactionType": "CALL",
      "contractName": null,
      "contractAddress": "0x2843c269d2a64ecfa63548e8b3fc0fd23b7f70cb",
      "function": "handleOps((address,uint256,bytes,bytes,uint256,uint256,uint256,uint256,uint256,bytes,bytes)[],address)",
      "arguments": [
        "[(0x2e2B1c42E38f5af81771e65D87729E57ABD1337a, 4451, 0x, 0xb61d27f6000000000000000000000000f369f78e3a0492cc4e96a90dae0728a38498e9c70000000000000000000000000000000000000000000000000000000000000000000000000000000000000000000000000000000000000000000000000000006000000000000000000000000000000000000000000000000000000000000000442f2ff15d189ab7a9244df0848122154315af71fe140f3db0fe014031783b0946b8c9d2e3000000000000000000000000acc000818e5bbd911d5d449aa81cb5ca2402473900000000000000000000000000000000000000000000000000000000, 4000000, 210000, 21000, 1, 1000000000, 0x0000000000000000000000000000000000000000, 0x6ca83d272aeb3d6ae356fb5122e13ef1001fdb80c3ee3e0718b58bac08b0815e3e188d3aa7cca5d637d1edeabd0bbb8f093012390f9d5eec18f1853eaa7448371c7e76f8cadb201490476a9065b41cd5f7edfdc4853bd2e9ca1e7d22c2ce3071d06aed7b3003a433458f2a1f5fa51a220485be90c69cee5cfef67874b0c14f24a91b)]",
        "0x660ad4B5A74130a4796B4d54BC6750Ae93C86e6c"
      ],
      "transaction": {
        "from": "0x660ad4b5a74130a4796b4d54bc6750ae93c86e6c",
        "to": "0x2843c269d2a64ecfa63548e8b3fc0fd23b7f70cb",
        "value": "0x0",
        "input": "0x1fad948c0000000000000000000000000000000000000000000000000000000000000040000000000000000000000000660ad4b5a74130a4796b4d54bc6750ae93c86e6c000000000000000000000000000000000000000000000000000000000000000100000000000000000000000000000000000000000000000000000000000000200000000000000000000000002e2b1c42e38f5af81771e65d87729e57abd1337a00000000000000000000000000000000000000000000000000000000000011630000000000000000000000000000000000000000000000000000000000000160000000000000000000000000000000000000000000000000000000000000018000000000000000000000000000000000000000000000000000000000003d0900000000000000000000000000000000000000000000000000000000000003345000000000000000000000000000000000000000000000000000000000000052080000000000000000000000000000000000000000000000000000000000000001000000000000000000000000000000000000000000000000000000003b9aca0000000000000000000000000000000000000000000000000000000000000002a000000000000000000000000000000000000000000000000000000000000002e0000000000000000000000000000000000000000000000000000000000000000000000000000000000000000000000000000000000000000000000000000000e4b61d27f6000000000000000000000000f369f78e3a0492cc4e96a90dae0728a38498e9c70000000000000000000000000000000000000000000000000000000000000000000000000000000000000000000000000000000000000000000000000000006000000000000000000000000000000000000000000000000000000000000000442f2ff15d189ab7a9244df0848122154315af71fe140f3db0fe014031783b0946b8c9d2e3000000000000000000000000acc000818e5bbd911d5d449aa81cb5ca2402473900000000000000000000000000000000000000000000000000000000000000000000000000000000000000000000000000000000000000000000000000000000000000000000000000000000000000000000000000000014000000000000000000000000000000000000000000000000000000000000000000000000000000000000000000000000000000000000000000000000000000826ca83d272aeb3d6ae356fb5122e13ef1001fdb80c3ee3e0718b58bac08b0815e3e188d3aa7cca5d637d1edeabd0bbb8f093012390f9d5eec18f1853eaa7448371c7e76f8cadb201490476a9065b41cd5f7edfdc4853bd2e9ca1e7d22c2ce3071d06aed7b3003a433458f2a1f5fa51a220485be90c69cee5cfef67874b0c14f24a91b000000000000000000000000000000000000000000000000000000000000",
        "nonce": "0x4bcac",
        "chainId": "0x1ecf"
      },
      "additionalContracts": [],
      "isFixedGasLimit": false
    },
    {
      "hash": "0xa5699cec1b1efc4f0a288a8b487301f9047ab44d1773630583330ccd1a82b5f2",
      "transactionType": "CALL",
      "contractName": null,
      "contractAddress": "0x2843c269d2a64ecfa63548e8b3fc0fd23b7f70cb",
      "function": "handleOps((address,uint256,bytes,bytes,uint256,uint256,uint256,uint256,uint256,bytes,bytes)[],address)",
      "arguments": [
        "[(0x2e2B1c42E38f5af81771e65D87729E57ABD1337a, 4452, 0x, 0xb61d27f6000000000000000000000000f369f78e3a0492cc4e96a90dae0728a38498e9c70000000000000000000000000000000000000000000000000000000000000000000000000000000000000000000000000000000000000000000000000000006000000000000000000000000000000000000000000000000000000000000000442f2ff15d71840dc4906352362b0cdaf79870196c8e42acafade72d5d5a6d59291253ceb1000000000000000000000000acc000818e5bbd911d5d449aa81cb5ca2402473900000000000000000000000000000000000000000000000000000000, 4000000, 210000, 21000, 1, 1000000000, 0x0000000000000000000000000000000000000000, 0x40a9cdd00a6575aec162c07ce960aa43d72a53ed4c951b30fa4ac5f69c3bba095c7f7257cd683ef6a1a902aeee2abfe4bcb77b943f1bdbba570c248531f287cb1c97cc45ab9df9003019718fab0d7db3080240242d23981f65c4571754009d22cd413012b0f1c6019b1b31fea7f939da2973914154e712d9f83609812ed684278e1c)]",
        "0x660ad4B5A74130a4796B4d54BC6750Ae93C86e6c"
      ],
      "transaction": {
        "from": "0x660ad4b5a74130a4796b4d54bc6750ae93c86e6c",
        "to": "0x2843c269d2a64ecfa63548e8b3fc0fd23b7f70cb",
        "value": "0x0",
        "input": "0x1fad948c0000000000000000000000000000000000000000000000000000000000000040000000000000000000000000660ad4b5a74130a4796b4d54bc6750ae93c86e6c000000000000000000000000000000000000000000000000000000000000000100000000000000000000000000000000000000000000000000000000000000200000000000000000000000002e2b1c42e38f5af81771e65d87729e57abd1337a00000000000000000000000000000000000000000000000000000000000011640000000000000000000000000000000000000000000000000000000000000160000000000000000000000000000000000000000000000000000000000000018000000000000000000000000000000000000000000000000000000000003d0900000000000000000000000000000000000000000000000000000000000003345000000000000000000000000000000000000000000000000000000000000052080000000000000000000000000000000000000000000000000000000000000001000000000000000000000000000000000000000000000000000000003b9aca0000000000000000000000000000000000000000000000000000000000000002a000000000000000000000000000000000000000000000000000000000000002e0000000000000000000000000000000000000000000000000000000000000000000000000000000000000000000000000000000000000000000000000000000e4b61d27f6000000000000000000000000f369f78e3a0492cc4e96a90dae0728a38498e9c70000000000000000000000000000000000000000000000000000000000000000000000000000000000000000000000000000000000000000000000000000006000000000000000000000000000000000000000000000000000000000000000442f2ff15d71840dc4906352362b0cdaf79870196c8e42acafade72d5d5a6d59291253ceb1000000000000000000000000acc000818e5bbd911d5d449aa81cb5ca24024739000000000000000000000000000000000000000000000000000000000000000000000000000000000000000000000000000000000000000000000000000000000000000000000000000000000000000000000000000000140000000000000000000000000000000000000000000000000000000000000000000000000000000000000000000000000000000000000000000000000000008240a9cdd00a6575aec162c07ce960aa43d72a53ed4c951b30fa4ac5f69c3bba095c7f7257cd683ef6a1a902aeee2abfe4bcb77b943f1bdbba570c248531f287cb1c97cc45ab9df9003019718fab0d7db3080240242d23981f65c4571754009d22cd413012b0f1c6019b1b31fea7f939da2973914154e712d9f83609812ed684278e1c000000000000000000000000000000000000000000000000000000000000",
        "nonce": "0x4bcad",
        "chainId": "0x1ecf"
      },
      "additionalContracts": [],
      "isFixedGasLimit": false
    },
    {
      "hash": "0xb5adbb4a8c95bd0c8e661f8a3f5406eddc9fa0af29d3252bbc136f1e8dba2364",
      "transactionType": "CALL",
      "contractName": null,
      "contractAddress": "0x2843c269d2a64ecfa63548e8b3fc0fd23b7f70cb",
      "function": "handleOps((address,uint256,bytes,bytes,uint256,uint256,uint256,uint256,uint256,bytes,bytes)[],address)",
      "arguments": [
        "[(0x2e2B1c42E38f5af81771e65D87729E57ABD1337a, 4453, 0x, 0xb61d27f6000000000000000000000000acc000818e5bbd911d5d449aa81cb5ca240247390000000000000000000000000000000000000000000000000000000000000000000000000000000000000000000000000000000000000000000000000000006000000000000000000000000000000000000000000000000000000000000000a408d6122d000000000000000000000000f369f78e3a0492cc4e96a90dae0728a38498e9c70000000000000000000000000000000000000000000000000000000000000060000000000000000000000000000000000000000000000000783b0946b8c9d2e300000000000000000000000000000000000000000000000000000000000000013659cfe60000000000000000000000000000000000000000000000000000000000000000000000000000000000000000000000000000000000000000, 4000000, 210000, 21000, 1, 1000000000, 0x0000000000000000000000000000000000000000, 0xed1c961564fcaebec6acda9d4e24d1e1c59eb9b9829eec7c84ba0e06abe6485177e5fefbd92655ef187b19678ea4178c0e8d47c37ef0b5beed206cec8d0d92a01c66e7f0e681e62da3149f34bdcffe26e419d0e3b94c071f76b21e7726c32f18c82e105eed0c8fb47aa85e530d4a1edc1567c8666db281bc9bd14cc39050e710a11b)]",
        "0x660ad4B5A74130a4796B4d54BC6750Ae93C86e6c"
      ],
      "transaction": {
        "from": "0x660ad4b5a74130a4796b4d54bc6750ae93c86e6c",
        "to": "0x2843c269d2a64ecfa63548e8b3fc0fd23b7f70cb",
        "value": "0x0",
        "input": "0x1fad948c0000000000000000000000000000000000000000000000000000000000000040000000000000000000000000660ad4b5a74130a4796b4d54bc6750ae93c86e6c000000000000000000000000000000000000000000000000000000000000000100000000000000000000000000000000000000000000000000000000000000200000000000000000000000002e2b1c42e38f5af81771e65d87729e57abd1337a00000000000000000000000000000000000000000000000000000000000011650000000000000000000000000000000000000000000000000000000000000160000000000000000000000000000000000000000000000000000000000000018000000000000000000000000000000000000000000000000000000000003d0900000000000000000000000000000000000000000000000000000000000003345000000000000000000000000000000000000000000000000000000000000052080000000000000000000000000000000000000000000000000000000000000001000000000000000000000000000000000000000000000000000000003b9aca000000000000000000000000000000000000000000000000000000000000000300000000000000000000000000000000000000000000000000000000000000034000000000000000000000000000000000000000000000000000000000000000000000000000000000000000000000000000000000000000000000000000000144b61d27f6000000000000000000000000acc000818e5bbd911d5d449aa81cb5ca240247390000000000000000000000000000000000000000000000000000000000000000000000000000000000000000000000000000000000000000000000000000006000000000000000000000000000000000000000000000000000000000000000a408d6122d000000000000000000000000f369f78e3a0492cc4e96a90dae0728a38498e9c70000000000000000000000000000000000000000000000000000000000000060000000000000000000000000000000000000000000000000783b0946b8c9d2e300000000000000000000000000000000000000000000000000000000000000013659cfe6000000000000000000000000000000000000000000000000000000000000000000000000000000000000000000000000000000000000000000000000000000000000000000000000000000000000000000000000000000000000000000000000000000000000000000000000000000000000001400000000000000000000000000000000000000000000000000000000000000000000000000000000000000000000000000000000000000000000000000000082ed1c961564fcaebec6acda9d4e24d1e1c59eb9b9829eec7c84ba0e06abe6485177e5fefbd92655ef187b19678ea4178c0e8d47c37ef0b5beed206cec8d0d92a01c66e7f0e681e62da3149f34bdcffe26e419d0e3b94c071f76b21e7726c32f18c82e105eed0c8fb47aa85e530d4a1edc1567c8666db281bc9bd14cc39050e710a11b000000000000000000000000000000000000000000000000000000000000",
        "nonce": "0x4bcae",
        "chainId": "0x1ecf"
      },
      "additionalContracts": [],
      "isFixedGasLimit": false
    },
    {
      "hash": "0x0fe87cfe9e61dc69f6e87781ff099414691d9261272fb4147d6bc20b43676a20",
      "transactionType": "CALL",
      "contractName": null,
      "contractAddress": "0x2843c269d2a64ecfa63548e8b3fc0fd23b7f70cb",
      "function": "handleOps((address,uint256,bytes,bytes,uint256,uint256,uint256,uint256,uint256,bytes,bytes)[],address)",
      "arguments": [
        "[(0x2e2B1c42E38f5af81771e65D87729E57ABD1337a, 4454, 0x, 0xb61d27f6000000000000000000000000acc000818e5bbd911d5d449aa81cb5ca2402473900000000000000000000000000000000000000000000000000000000000000000000000000000000000000000000000000000000000000000000000000000060000000000000000000000000000000000000000000000000000000000000006425c471a0000000000000000000000000000000000000000000000000783b0946b8c9d2e300000000000000000000000028fc10e12a78f986c78f973fc70ed88072b34c8e0000000000000000000000000000000000000000000000000000000000093a8000000000000000000000000000000000000000000000000000000000, 4000000, 210000, 21000, 1, 1000000000, 0x0000000000000000000000000000000000000000, 0xdf20de8c9ed0d140a280e627d85bf8b1e5364f5a219a9f6cd35819349fe6ba63473255c10e464aa8e819dc5dcae8ea3665c816b46d94cf26c9b741b7fd71544f1cc6463f4320ed1fee2073c52f79b98f56d8d2ca0bc63eea68db679e1a7db18caf54b28a12c9c588cc995689042cc78ecb49e57b0aebf66da90cfd24987833f4f81b)]",
        "0x660ad4B5A74130a4796B4d54BC6750Ae93C86e6c"
      ],
      "transaction": {
        "from": "0x660ad4b5a74130a4796b4d54bc6750ae93c86e6c",
        "to": "0x2843c269d2a64ecfa63548e8b3fc0fd23b7f70cb",
        "value": "0x0",
        "input": "0x1fad948c0000000000000000000000000000000000000000000000000000000000000040000000000000000000000000660ad4b5a74130a4796b4d54bc6750ae93c86e6c000000000000000000000000000000000000000000000000000000000000000100000000000000000000000000000000000000000000000000000000000000200000000000000000000000002e2b1c42e38f5af81771e65d87729e57abd1337a00000000000000000000000000000000000000000000000000000000000011660000000000000000000000000000000000000000000000000000000000000160000000000000000000000000000000000000000000000000000000000000018000000000000000000000000000000000000000000000000000000000003d0900000000000000000000000000000000000000000000000000000000000003345000000000000000000000000000000000000000000000000000000000000052080000000000000000000000000000000000000000000000000000000000000001000000000000000000000000000000000000000000000000000000003b9aca0000000000000000000000000000000000000000000000000000000000000002c0000000000000000000000000000000000000000000000000000000000000030000000000000000000000000000000000000000000000000000000000000000000000000000000000000000000000000000000000000000000000000000000104b61d27f6000000000000000000000000acc000818e5bbd911d5d449aa81cb5ca2402473900000000000000000000000000000000000000000000000000000000000000000000000000000000000000000000000000000000000000000000000000000060000000000000000000000000000000000000000000000000000000000000006425c471a0000000000000000000000000000000000000000000000000783b0946b8c9d2e300000000000000000000000028fc10e12a78f986c78f973fc70ed88072b34c8e0000000000000000000000000000000000000000000000000000000000093a800000000000000000000000000000000000000000000000000000000000000000000000000000000000000000000000000000000000000000000000000000000000000000000000000000000000000000000000000000001400000000000000000000000000000000000000000000000000000000000000000000000000000000000000000000000000000000000000000000000000000082df20de8c9ed0d140a280e627d85bf8b1e5364f5a219a9f6cd35819349fe6ba63473255c10e464aa8e819dc5dcae8ea3665c816b46d94cf26c9b741b7fd71544f1cc6463f4320ed1fee2073c52f79b98f56d8d2ca0bc63eea68db679e1a7db18caf54b28a12c9c588cc995689042cc78ecb49e57b0aebf66da90cfd24987833f4f81b000000000000000000000000000000000000000000000000000000000000",
        "nonce": "0x4bcaf",
        "chainId": "0x1ecf"
      },
      "additionalContracts": [],
      "isFixedGasLimit": false
    },
    {
      "hash": "0x11969991994070210a22947102d18ad99be27f57a66c2736cc24e0b935049fc0",
      "transactionType": "CALL",
      "contractName": null,
      "contractAddress": "0x2843c269d2a64ecfa63548e8b3fc0fd23b7f70cb",
      "function": "handleOps((address,uint256,bytes,bytes,uint256,uint256,uint256,uint256,uint256,bytes,bytes)[],address)",
      "arguments": [
        "[(0x2e2B1c42E38f5af81771e65D87729E57ABD1337a, 4455, 0x, 0xb61d27f6000000000000000000000000acc000818e5bbd911d5d449aa81cb5ca24024739000000000000000000000000000000000000000000000000000000000000000000000000000000000000000000000000000000000000000000000000000000600000000000000000000000000000000000000000000000000000000000000044d22b5989000000000000000000000000f369f78e3a0492cc4e96a90dae0728a38498e9c70000000000000000000000000000000000000000000000000000000000093a8000000000000000000000000000000000000000000000000000000000, 4000000, 210000, 21000, 1, 1000000000, 0x0000000000000000000000000000000000000000, 0x2904cd22b4230a882e135d0e4f07bb330f331c8b6a0bf6c8f3cbc0a4f8a668431fad719476b1d488128a130b8f170ee06c3c353feff772964460dbe4a4c612271bdafe978a16c8308ea3ce114721c2a73c09e464b903b6a09655f404baa26ea8bb0e3ccccfd8c2ab9f3a4d8b57927bb0c80fe90ffb866c1e639a6c41319ebc1e991c)]",
        "0x660ad4B5A74130a4796B4d54BC6750Ae93C86e6c"
      ],
      "transaction": {
        "from": "0x660ad4b5a74130a4796b4d54bc6750ae93c86e6c",
        "to": "0x2843c269d2a64ecfa63548e8b3fc0fd23b7f70cb",
        "value": "0x0",
        "input": "0x1fad948c0000000000000000000000000000000000000000000000000000000000000040000000000000000000000000660ad4b5a74130a4796b4d54bc6750ae93c86e6c000000000000000000000000000000000000000000000000000000000000000100000000000000000000000000000000000000000000000000000000000000200000000000000000000000002e2b1c42e38f5af81771e65d87729e57abd1337a00000000000000000000000000000000000000000000000000000000000011670000000000000000000000000000000000000000000000000000000000000160000000000000000000000000000000000000000000000000000000000000018000000000000000000000000000000000000000000000000000000000003d0900000000000000000000000000000000000000000000000000000000000003345000000000000000000000000000000000000000000000000000000000000052080000000000000000000000000000000000000000000000000000000000000001000000000000000000000000000000000000000000000000000000003b9aca0000000000000000000000000000000000000000000000000000000000000002a000000000000000000000000000000000000000000000000000000000000002e0000000000000000000000000000000000000000000000000000000000000000000000000000000000000000000000000000000000000000000000000000000e4b61d27f6000000000000000000000000acc000818e5bbd911d5d449aa81cb5ca24024739000000000000000000000000000000000000000000000000000000000000000000000000000000000000000000000000000000000000000000000000000000600000000000000000000000000000000000000000000000000000000000000044d22b5989000000000000000000000000f369f78e3a0492cc4e96a90dae0728a38498e9c70000000000000000000000000000000000000000000000000000000000093a8000000000000000000000000000000000000000000000000000000000000000000000000000000000000000000000000000000000000000000000000000000000000000000000000000000000000000000000000000000014000000000000000000000000000000000000000000000000000000000000000000000000000000000000000000000000000000000000000000000000000000822904cd22b4230a882e135d0e4f07bb330f331c8b6a0bf6c8f3cbc0a4f8a668431fad719476b1d488128a130b8f170ee06c3c353feff772964460dbe4a4c612271bdafe978a16c8308ea3ce114721c2a73c09e464b903b6a09655f404baa26ea8bb0e3ccccfd8c2ab9f3a4d8b57927bb0c80fe90ffb866c1e639a6c41319ebc1e991c000000000000000000000000000000000000000000000000000000000000",
        "nonce": "0x4bcb0",
        "chainId": "0x1ecf"
      },
      "additionalContracts": [],
      "isFixedGasLimit": false
    },
    {
      "hash": "0xd18ca5a235815fce9f47801d54cf5a84f9fd133c4aa1c5a014aa9a1abc5ce66d",
      "transactionType": "CALL",
      "contractName": null,
      "contractAddress": "0x2843c269d2a64ecfa63548e8b3fc0fd23b7f70cb",
      "function": "handleOps((address,uint256,bytes,bytes,uint256,uint256,uint256,uint256,uint256,bytes,bytes)[],address)",
      "arguments": [
        "[(0x2e2B1c42E38f5af81771e65D87729E57ABD1337a, 4456, 0x, 0xb61d27f6000000000000000000000000acc000818e5bbd911d5d449aa81cb5ca240247390000000000000000000000000000000000000000000000000000000000000000000000000000000000000000000000000000000000000000000000000000006000000000000000000000000000000000000000000000000000000000000000e408d6122d0000000000000000000000005a2b641b84b0230c8e75f55d5afd27f4dbd59d5b0000000000000000000000000000000000000000000000000000000000000060000000000000000000000000000000000000000000000000cb784571e5a321180000000000000000000000000000000000000000000000000000000000000003c233e2a3000000000000000000000000000000000000000000000000000000000e6ff43200000000000000000000000000000000000000000000000000000000725928510000000000000000000000000000000000000000000000000000000000000000000000000000000000000000000000000000000000000000, 4000000, 210000, 21000, 1, 1000000000, 0x0000000000000000000000000000000000000000, 0x616e4ad2a30cc74b46218a7ecb52edae2c2d2df394fd15678972b583edb6337448c48156ed6361481cec6a061180f2a93dc36f4b3f18c310f38daafd66bacdf51c307ed397192ebb9e2b418a67987fcd04b22a5465c2a03adfd24f6ff3f3f97e91614d2cd09e753d6589857eacac2008c9f42d776cccab188e9e35894f32bdcf761b)]",
        "0x660ad4B5A74130a4796B4d54BC6750Ae93C86e6c"
      ],
      "transaction": {
        "from": "0x660ad4b5a74130a4796b4d54bc6750ae93c86e6c",
        "to": "0x2843c269d2a64ecfa63548e8b3fc0fd23b7f70cb",
        "value": "0x0",
        "input": "0x1fad948c0000000000000000000000000000000000000000000000000000000000000040000000000000000000000000660ad4b5a74130a4796b4d54bc6750ae93c86e6c000000000000000000000000000000000000000000000000000000000000000100000000000000000000000000000000000000000000000000000000000000200000000000000000000000002e2b1c42e38f5af81771e65d87729e57abd1337a00000000000000000000000000000000000000000000000000000000000011680000000000000000000000000000000000000000000000000000000000000160000000000000000000000000000000000000000000000000000000000000018000000000000000000000000000000000000000000000000000000000003d0900000000000000000000000000000000000000000000000000000000000003345000000000000000000000000000000000000000000000000000000000000052080000000000000000000000000000000000000000000000000000000000000001000000000000000000000000000000000000000000000000000000003b9aca000000000000000000000000000000000000000000000000000000000000000340000000000000000000000000000000000000000000000000000000000000038000000000000000000000000000000000000000000000000000000000000000000000000000000000000000000000000000000000000000000000000000000184b61d27f6000000000000000000000000acc000818e5bbd911d5d449aa81cb5ca240247390000000000000000000000000000000000000000000000000000000000000000000000000000000000000000000000000000000000000000000000000000006000000000000000000000000000000000000000000000000000000000000000e408d6122d0000000000000000000000005a2b641b84b0230c8e75f55d5afd27f4dbd59d5b0000000000000000000000000000000000000000000000000000000000000060000000000000000000000000000000000000000000000000cb784571e5a321180000000000000000000000000000000000000000000000000000000000000003c233e2a3000000000000000000000000000000000000000000000000000000000e6ff4320000000000000000000000000000000000000000000000000000000072592851000000000000000000000000000000000000000000000000000000000000000000000000000000000000000000000000000000000000000000000000000000000000000000000000000000000000000000000000000000000000000000000000000000000000000000000000000000000000001400000000000000000000000000000000000000000000000000000000000000000000000000000000000000000000000000000000000000000000000000000082616e4ad2a30cc74b46218a7ecb52edae2c2d2df394fd15678972b583edb6337448c48156ed6361481cec6a061180f2a93dc36f4b3f18c310f38daafd66bacdf51c307ed397192ebb9e2b418a67987fcd04b22a5465c2a03adfd24f6ff3f3f97e91614d2cd09e753d6589857eacac2008c9f42d776cccab188e9e35894f32bdcf761b000000000000000000000000000000000000000000000000000000000000",
        "nonce": "0x4bcb1",
        "chainId": "0x1ecf"
      },
      "additionalContracts": [],
      "isFixedGasLimit": false
    },
    {
      "hash": "0x9d6ab083f8ddcf2bae3613ced8215a3ed893962cab910aaab6920d87643bdb85",
      "transactionType": "CALL",
      "contractName": null,
      "contractAddress": "0x2843c269d2a64ecfa63548e8b3fc0fd23b7f70cb",
      "function": "handleOps((address,uint256,bytes,bytes,uint256,uint256,uint256,uint256,uint256,bytes,bytes)[],address)",
      "arguments": [
        "[(0x2e2B1c42E38f5af81771e65D87729E57ABD1337a, 4457, 0x, 0xb61d27f6000000000000000000000000acc000818e5bbd911d5d449aa81cb5ca2402473900000000000000000000000000000000000000000000000000000000000000000000000000000000000000000000000000000000000000000000000000000060000000000000000000000000000000000000000000000000000000000000006425c471a0000000000000000000000000000000000000000000000000cb784571e5a3211800000000000000000000000028fc10e12a78f986c78f973fc70ed88072b34c8e0000000000000000000000000000000000000000000000000000000000093a8000000000000000000000000000000000000000000000000000000000, 4000000, 210000, 21000, 1, 1000000000, 0x0000000000000000000000000000000000000000, 0x00a1c451deccf86903d63d809bc05d8cf19e4fb942a650be3cc85e77c0d34f9966e6401d168df41f3565b7d9a8829b8f4dd98314259b83cb4dd126533a4b9c261ca68bc276f775d376e8f1e3d27bb067869d17e1c23cbbbda0a49d6afe261a29460aa031e059a695a18f45ed16f0d34369ab8374b93a146122fe68bde89f3ccc761c)]",
        "0x660ad4B5A74130a4796B4d54BC6750Ae93C86e6c"
      ],
      "transaction": {
        "from": "0x660ad4b5a74130a4796b4d54bc6750ae93c86e6c",
        "to": "0x2843c269d2a64ecfa63548e8b3fc0fd23b7f70cb",
        "value": "0x0",
        "input": "0x1fad948c0000000000000000000000000000000000000000000000000000000000000040000000000000000000000000660ad4b5a74130a4796b4d54bc6750ae93c86e6c000000000000000000000000000000000000000000000000000000000000000100000000000000000000000000000000000000000000000000000000000000200000000000000000000000002e2b1c42e38f5af81771e65d87729e57abd1337a00000000000000000000000000000000000000000000000000000000000011690000000000000000000000000000000000000000000000000000000000000160000000000000000000000000000000000000000000000000000000000000018000000000000000000000000000000000000000000000000000000000003d0900000000000000000000000000000000000000000000000000000000000003345000000000000000000000000000000000000000000000000000000000000052080000000000000000000000000000000000000000000000000000000000000001000000000000000000000000000000000000000000000000000000003b9aca0000000000000000000000000000000000000000000000000000000000000002c0000000000000000000000000000000000000000000000000000000000000030000000000000000000000000000000000000000000000000000000000000000000000000000000000000000000000000000000000000000000000000000000104b61d27f6000000000000000000000000acc000818e5bbd911d5d449aa81cb5ca2402473900000000000000000000000000000000000000000000000000000000000000000000000000000000000000000000000000000000000000000000000000000060000000000000000000000000000000000000000000000000000000000000006425c471a0000000000000000000000000000000000000000000000000cb784571e5a3211800000000000000000000000028fc10e12a78f986c78f973fc70ed88072b34c8e0000000000000000000000000000000000000000000000000000000000093a80000000000000000000000000000000000000000000000000000000000000000000000000000000000000000000000000000000000000000000000000000000000000000000000000000000000000000000000000000000140000000000000000000000000000000000000000000000000000000000000000000000000000000000000000000000000000000000000000000000000000008200a1c451deccf86903d63d809bc05d8cf19e4fb942a650be3cc85e77c0d34f9966e6401d168df41f3565b7d9a8829b8f4dd98314259b83cb4dd126533a4b9c261ca68bc276f775d376e8f1e3d27bb067869d17e1c23cbbbda0a49d6afe261a29460aa031e059a695a18f45ed16f0d34369ab8374b93a146122fe68bde89f3ccc761c000000000000000000000000000000000000000000000000000000000000",
        "nonce": "0x4bcb2",
        "chainId": "0x1ecf"
      },
      "additionalContracts": [],
      "isFixedGasLimit": false
    },
    {
      "hash": "0xacecfb13652f30fb4b54091e5f19cbf1075d5db6aa2cd8318df3b46cedcb4d4b",
      "transactionType": "CALL",
      "contractName": null,
      "contractAddress": "0x2843c269d2a64ecfa63548e8b3fc0fd23b7f70cb",
      "function": "handleOps((address,uint256,bytes,bytes,uint256,uint256,uint256,uint256,uint256,bytes,bytes)[],address)",
      "arguments": [
        "[(0x2e2B1c42E38f5af81771e65D87729E57ABD1337a, 4458, 0x, 0xb61d27f6000000000000000000000000acc000818e5bbd911d5d449aa81cb5ca24024739000000000000000000000000000000000000000000000000000000000000000000000000000000000000000000000000000000000000000000000000000000600000000000000000000000000000000000000000000000000000000000000084853551b8000000000000000000000000000000000000000000000000cb784571e5a321180000000000000000000000000000000000000000000000000000000000000040000000000000000000000000000000000000000000000000000000000000001553454355524954595f434f554e43494c5f524f4c45000000000000000000000000000000000000000000000000000000000000000000000000000000, 4000000, 210000, 21000, 1, 1000000000, 0x0000000000000000000000000000000000000000, 0x331231c333a2b4ab9686b23822ee552640f5209d1d537262046e563dbabfcf332b1090d7c1e52f79be4782b9622687176f37f8bf04888a9fd6493b40c6e698651bbedf88c74e21356007851e0a3194e4c3cde244f02c8f25e7bf16f33ebb90e48d37873cfa21bba8c61aa0ebdef337a00b66c8810bc3817b2708bcbfbcdca14e321c)]",
        "0x660ad4B5A74130a4796B4d54BC6750Ae93C86e6c"
      ],
      "transaction": {
        "from": "0x660ad4b5a74130a4796b4d54bc6750ae93c86e6c",
        "to": "0x2843c269d2a64ecfa63548e8b3fc0fd23b7f70cb",
        "value": "0x0",
        "input": "0x1fad948c0000000000000000000000000000000000000000000000000000000000000040000000000000000000000000660ad4b5a74130a4796b4d54bc6750ae93c86e6c000000000000000000000000000000000000000000000000000000000000000100000000000000000000000000000000000000000000000000000000000000200000000000000000000000002e2b1c42e38f5af81771e65d87729e57abd1337a000000000000000000000000000000000000000000000000000000000000116a0000000000000000000000000000000000000000000000000000000000000160000000000000000000000000000000000000000000000000000000000000018000000000000000000000000000000000000000000000000000000000003d0900000000000000000000000000000000000000000000000000000000000003345000000000000000000000000000000000000000000000000000000000000052080000000000000000000000000000000000000000000000000000000000000001000000000000000000000000000000000000000000000000000000003b9aca0000000000000000000000000000000000000000000000000000000000000002e0000000000000000000000000000000000000000000000000000000000000032000000000000000000000000000000000000000000000000000000000000000000000000000000000000000000000000000000000000000000000000000000124b61d27f6000000000000000000000000acc000818e5bbd911d5d449aa81cb5ca24024739000000000000000000000000000000000000000000000000000000000000000000000000000000000000000000000000000000000000000000000000000000600000000000000000000000000000000000000000000000000000000000000084853551b8000000000000000000000000000000000000000000000000cb784571e5a321180000000000000000000000000000000000000000000000000000000000000040000000000000000000000000000000000000000000000000000000000000001553454355524954595f434f554e43494c5f524f4c4500000000000000000000000000000000000000000000000000000000000000000000000000000000000000000000000000000000000000000000000000000000000000000000000000000000000000000000000000000000000000000000000000001400000000000000000000000000000000000000000000000000000000000000000000000000000000000000000000000000000000000000000000000000000082331231c333a2b4ab9686b23822ee552640f5209d1d537262046e563dbabfcf332b1090d7c1e52f79be4782b9622687176f37f8bf04888a9fd6493b40c6e698651bbedf88c74e21356007851e0a3194e4c3cde244f02c8f25e7bf16f33ebb90e48d37873cfa21bba8c61aa0ebdef337a00b66c8810bc3817b2708bcbfbcdca14e321c000000000000000000000000000000000000000000000000000000000000",
        "nonce": "0x4bcb3",
        "chainId": "0x1ecf"
      },
      "additionalContracts": [],
      "isFixedGasLimit": false
    }
  ],
  "receipts": [
    {
      "status": "0x1",
      "cumulativeGasUsed": "0x37afb",
      "logs": [
        {
          "address": "0x2843c269d2a64ecfa63548e8b3fc0fd23b7f70cb",
          "topics": [
            "0xbb47ee3e183a558b1a2ff0874b079f3fc5478b7454eacf2bfc5af2ff5878f972"
          ],
          "data": "0x",
          "blockHash": "0xe7a0e0cbaa03fd83040fb46a824aa344ada0b34f74e7545dce0f3ece414be09c",
          "blockNumber": "0xb3df3",
          "transactionHash": "0x66a4dd3701a3440e2a39940ca07cb818cfa49213ea1242a0ac9a7e757ce95227",
          "transactionIndex": "0x1",
          "logIndex": "0x0",
          "removed": false
        },
        {
          "address": "0xf369f78e3a0492cc4e96a90dae0728a38498e9c7",
          "topics": [
            "0x2f8788117e7eff1d82e926ec794901d17c78024a50270940304540a733656f0d",
            "0x0000000000000000000000000000000000000000000000000000000000000000",
            "0x000000000000000000000000acc000818e5bbd911d5d449aa81cb5ca24024739",
            "0x0000000000000000000000002e2b1c42e38f5af81771e65d87729e57abd1337a"
          ],
          "data": "0x",
          "blockHash": "0xe7a0e0cbaa03fd83040fb46a824aa344ada0b34f74e7545dce0f3ece414be09c",
          "blockNumber": "0xb3df3",
          "transactionHash": "0x66a4dd3701a3440e2a39940ca07cb818cfa49213ea1242a0ac9a7e757ce95227",
          "transactionIndex": "0x1",
          "logIndex": "0x1",
          "removed": false
        },
        {
          "address": "0x2843c269d2a64ecfa63548e8b3fc0fd23b7f70cb",
          "topics": [
            "0x49628fd1471006c1482da88028e9ce4dbb080b815c9b0344d39e5a8e6ec1419f",
            "0xf542afdf1f799258c55f21c012c1197069367b14550907006cd087c7a2e53027",
            "0x0000000000000000000000002e2b1c42e38f5af81771e65d87729e57abd1337a",
            "0x0000000000000000000000000000000000000000000000000000000000000000"
          ],
          "data": "0x0000000000000000000000000000000000000000000000000000000000001161000000000000000000000000000000000000000000000000000000000000000100000000000000000000000000000000000000000000000000000000000876100000000000000000000000000000000000000000000000000000000000087610",
          "blockHash": "0xe7a0e0cbaa03fd83040fb46a824aa344ada0b34f74e7545dce0f3ece414be09c",
          "blockNumber": "0xb3df3",
          "transactionHash": "0x66a4dd3701a3440e2a39940ca07cb818cfa49213ea1242a0ac9a7e757ce95227",
          "transactionIndex": "0x1",
          "logIndex": "0x2",
          "removed": false
        }
      ],
      "logsBloom": "0x00000004000000000000000000000004000000000000000000000000000000000008010000000000000000010000000000000000000000000004020000000000008000000000000000000000000000000000000000000010000000000000000800000000020000001000000000000800002000000000000000000000000000000000000000000000000000000000800000000000000000000000000000000000000400000000000000400000000000000000000000000000001002000000000000000000000000100001000000000000000000000000000100000000000020000000000000010000000000010000000000020000004000000000000000000000",
      "type": "0x2",
      "transactionHash": "0x66a4dd3701a3440e2a39940ca07cb818cfa49213ea1242a0ac9a7e757ce95227",
      "transactionIndex": "0x1",
      "blockHash": "0xe7a0e0cbaa03fd83040fb46a824aa344ada0b34f74e7545dce0f3ece414be09c",
      "blockNumber": "0xb3df3",
      "gasUsed": "0x37afb",
      "effectiveGasPrice": "0x5f5e100",
      "from": "0x660ad4b5a74130a4796b4d54bc6750ae93c86e6c",
      "to": "0x2843c269d2a64ecfa63548e8b3fc0fd23b7f70cb",
      "contractAddress": null,
      "gasUsedForL1": "0xa4dc",
      "l1BlockNumber": "0x14d3e5f"
    },
    {
      "status": "0x1",
      "cumulativeGasUsed": "0x3876c",
      "logs": [
        {
          "address": "0x2843c269d2a64ecfa63548e8b3fc0fd23b7f70cb",
          "topics": [
            "0xbb47ee3e183a558b1a2ff0874b079f3fc5478b7454eacf2bfc5af2ff5878f972"
          ],
          "data": "0x",
          "blockHash": "0x64bc458ffd7b15ef2da19d5f37b3e11a851c20e920638b9ddca3f4c26c268c12",
          "blockNumber": "0xb3df4",
          "transactionHash": "0x0a01a6feac8aff1da8ef3c574b05f769fa702a954473eda02650da323ad091d7",
          "transactionIndex": "0x1",
          "logIndex": "0x0",
          "removed": false
        },
        {
          "address": "0xf369f78e3a0492cc4e96a90dae0728a38498e9c7",
          "topics": [
            "0x2f8788117e7eff1d82e926ec794901d17c78024a50270940304540a733656f0d",
            "0x6c4079fcac94e7142d8c209744c998efe53a188aadb7e55958f7ad3ea8a1d652",
            "0x000000000000000000000000acc000818e5bbd911d5d449aa81cb5ca24024739",
            "0x0000000000000000000000002e2b1c42e38f5af81771e65d87729e57abd1337a"
          ],
          "data": "0x",
          "blockHash": "0x64bc458ffd7b15ef2da19d5f37b3e11a851c20e920638b9ddca3f4c26c268c12",
          "blockNumber": "0xb3df4",
          "transactionHash": "0x0a01a6feac8aff1da8ef3c574b05f769fa702a954473eda02650da323ad091d7",
          "transactionIndex": "0x1",
          "logIndex": "0x1",
          "removed": false
        },
        {
          "address": "0x2843c269d2a64ecfa63548e8b3fc0fd23b7f70cb",
          "topics": [
            "0x49628fd1471006c1482da88028e9ce4dbb080b815c9b0344d39e5a8e6ec1419f",
            "0xbe403df62d5fe04608a32de6f74775acb835bc5fc55d5a811d1a7dc2755f073d",
            "0x0000000000000000000000002e2b1c42e38f5af81771e65d87729e57abd1337a",
            "0x0000000000000000000000000000000000000000000000000000000000000000"
          ],
          "data": "0x0000000000000000000000000000000000000000000000000000000000001162000000000000000000000000000000000000000000000000000000000000000100000000000000000000000000000000000000000000000000000000000876100000000000000000000000000000000000000000000000000000000000087610",
          "blockHash": "0x64bc458ffd7b15ef2da19d5f37b3e11a851c20e920638b9ddca3f4c26c268c12",
          "blockNumber": "0xb3df4",
          "transactionHash": "0x0a01a6feac8aff1da8ef3c574b05f769fa702a954473eda02650da323ad091d7",
          "transactionIndex": "0x1",
          "logIndex": "0x2",
          "removed": false
        }
      ],
      "logsBloom": "0x00000004000000000000000000080004000000000000000000000000000000000008000000000000000002010000000000000000000000000004020000000000008000000000000000000000000000000000000000000010000000000000000800000000020080000000000000000800002000000000000000000000000000000000000000000000000000000000800000000000000000000000000000000000000400000000000000400000000000000000000000000000001002000000000000000000000000100001000000000000040000000000000100000000000120000000000000010000000000010000000000024000000000000000000000000000",
      "type": "0x2",
      "transactionHash": "0x0a01a6feac8aff1da8ef3c574b05f769fa702a954473eda02650da323ad091d7",
      "transactionIndex": "0x1",
      "blockHash": "0x64bc458ffd7b15ef2da19d5f37b3e11a851c20e920638b9ddca3f4c26c268c12",
      "blockNumber": "0xb3df4",
      "gasUsed": "0x3876c",
      "effectiveGasPrice": "0x5f5e100",
      "from": "0x660ad4b5a74130a4796b4d54bc6750ae93c86e6c",
      "to": "0x2843c269d2a64ecfa63548e8b3fc0fd23b7f70cb",
      "contractAddress": null,
      "gasUsedForL1": "0xafc1",
      "l1BlockNumber": "0x14d3e61"
    },
    {
      "status": "0x1",
      "cumulativeGasUsed": "0x38714",
      "logs": [
        {
          "address": "0x2843c269d2a64ecfa63548e8b3fc0fd23b7f70cb",
          "topics": [
            "0xbb47ee3e183a558b1a2ff0874b079f3fc5478b7454eacf2bfc5af2ff5878f972"
          ],
          "data": "0x",
          "blockHash": "0x77b4be9e2f9dc3c58a3840c4de0a75c2424c27cf79befa363fa86415654cba2f",
          "blockNumber": "0xb3df5",
          "transactionHash": "0xe311182ab986e7f4aa10aaa52d5ebed1f9ff8fbe7fd6d0efb63ccac28e3db872",
          "transactionIndex": "0x1",
          "logIndex": "0x0",
          "removed": false
        },
        {
          "address": "0xf369f78e3a0492cc4e96a90dae0728a38498e9c7",
          "topics": [
            "0x2f8788117e7eff1d82e926ec794901d17c78024a50270940304540a733656f0d",
            "0x189ab7a9244df0848122154315af71fe140f3db0fe014031783b0946b8c9d2e3",
            "0x000000000000000000000000acc000818e5bbd911d5d449aa81cb5ca24024739",
            "0x0000000000000000000000002e2b1c42e38f5af81771e65d87729e57abd1337a"
          ],
          "data": "0x",
          "blockHash": "0x77b4be9e2f9dc3c58a3840c4de0a75c2424c27cf79befa363fa86415654cba2f",
          "blockNumber": "0xb3df5",
          "transactionHash": "0xe311182ab986e7f4aa10aaa52d5ebed1f9ff8fbe7fd6d0efb63ccac28e3db872",
          "transactionIndex": "0x1",
          "logIndex": "0x1",
          "removed": false
        },
        {
          "address": "0x2843c269d2a64ecfa63548e8b3fc0fd23b7f70cb",
          "topics": [
            "0x49628fd1471006c1482da88028e9ce4dbb080b815c9b0344d39e5a8e6ec1419f",
            "0x01ca20c84f88663463519301551923921c5416a0bfb4f137b509afcee5764124",
            "0x0000000000000000000000002e2b1c42e38f5af81771e65d87729e57abd1337a",
            "0x0000000000000000000000000000000000000000000000000000000000000000"
          ],
          "data": "0x0000000000000000000000000000000000000000000000000000000000001163000000000000000000000000000000000000000000000000000000000000000100000000000000000000000000000000000000000000000000000000000876100000000000000000000000000000000000000000000000000000000000087610",
          "blockHash": "0x77b4be9e2f9dc3c58a3840c4de0a75c2424c27cf79befa363fa86415654cba2f",
          "blockNumber": "0xb3df5",
          "transactionHash": "0xe311182ab986e7f4aa10aaa52d5ebed1f9ff8fbe7fd6d0efb63ccac28e3db872",
          "transactionIndex": "0x1",
          "logIndex": "0x2",
          "removed": false
        }
      ],
      "logsBloom": "0x00000004000000000000000000000004000000000000000000000000000000000008000000000000000000018000000000000000000000000004020000000000008000004000000000000000000000000000000000000010000000000000000800000000020000000000000000000800002000000000000000010000000000000000000000000000000000000000800000000000000000000000000000000000000440000000000000400000000000000000000000000000001002000000000000000000000000100001000000000000000000000000000100000000000020000080000000010000000000010000000000020000000000000000000000000000",
      "type": "0x2",
      "transactionHash": "0xe311182ab986e7f4aa10aaa52d5ebed1f9ff8fbe7fd6d0efb63ccac28e3db872",
      "transactionIndex": "0x1",
      "blockHash": "0x77b4be9e2f9dc3c58a3840c4de0a75c2424c27cf79befa363fa86415654cba2f",
      "blockNumber": "0xb3df5",
      "gasUsed": "0x38714",
      "effectiveGasPrice": "0x5f5e100",
      "from": "0x660ad4b5a74130a4796b4d54bc6750ae93c86e6c",
      "to": "0x2843c269d2a64ecfa63548e8b3fc0fd23b7f70cb",
      "contractAddress": null,
      "gasUsedForL1": "0xaf75",
      "l1BlockNumber": "0x14d3e61"
    },
    {
      "status": "0x1",
      "cumulativeGasUsed": "0x389af",
      "logs": [
        {
          "address": "0x2843c269d2a64ecfa63548e8b3fc0fd23b7f70cb",
          "topics": [
            "0xbb47ee3e183a558b1a2ff0874b079f3fc5478b7454eacf2bfc5af2ff5878f972"
          ],
          "data": "0x",
          "blockHash": "0xb003578a8b8bc1b42edc9317418f51384999c7437ede6b197dd4fc41287a5f27",
          "blockNumber": "0xb3df6",
          "transactionHash": "0xa5699cec1b1efc4f0a288a8b487301f9047ab44d1773630583330ccd1a82b5f2",
          "transactionIndex": "0x1",
          "logIndex": "0x0",
          "removed": false
        },
        {
          "address": "0xf369f78e3a0492cc4e96a90dae0728a38498e9c7",
          "topics": [
            "0x2f8788117e7eff1d82e926ec794901d17c78024a50270940304540a733656f0d",
            "0x71840dc4906352362b0cdaf79870196c8e42acafade72d5d5a6d59291253ceb1",
            "0x000000000000000000000000acc000818e5bbd911d5d449aa81cb5ca24024739",
            "0x0000000000000000000000002e2b1c42e38f5af81771e65d87729e57abd1337a"
          ],
          "data": "0x",
          "blockHash": "0xb003578a8b8bc1b42edc9317418f51384999c7437ede6b197dd4fc41287a5f27",
          "blockNumber": "0xb3df6",
          "transactionHash": "0xa5699cec1b1efc4f0a288a8b487301f9047ab44d1773630583330ccd1a82b5f2",
          "transactionIndex": "0x1",
          "logIndex": "0x1",
          "removed": false
        },
        {
          "address": "0x2843c269d2a64ecfa63548e8b3fc0fd23b7f70cb",
          "topics": [
            "0x49628fd1471006c1482da88028e9ce4dbb080b815c9b0344d39e5a8e6ec1419f",
            "0xc0a9b09cbddd8665fec45da1f2fff5ed937ea6ee607c2d65bb336cae89dffd7e",
            "0x0000000000000000000000002e2b1c42e38f5af81771e65d87729e57abd1337a",
            "0x0000000000000000000000000000000000000000000000000000000000000000"
          ],
          "data": "0x0000000000000000000000000000000000000000000000000000000000001164000000000000000000000000000000000000000000000000000000000000000100000000000000000000000000000000000000000000000000000000000876100000000000000000000000000000000000000000000000000000000000087610",
          "blockHash": "0xb003578a8b8bc1b42edc9317418f51384999c7437ede6b197dd4fc41287a5f27",
          "blockNumber": "0xb3df6",
          "transactionHash": "0xa5699cec1b1efc4f0a288a8b487301f9047ab44d1773630583330ccd1a82b5f2",
          "transactionIndex": "0x1",
          "logIndex": "0x2",
          "removed": false
        }
      ],
      "logsBloom": "0x00000004000000000000000000000004800000000000000000000000000000000008000000000000000000010000000000000000000000000004020000000000008000000000000000000000000000000000000000000010000000000000000800000000020000000000000000000800002040000000000000000000000000002000000000000000000000000000800000000000000000000000000000000000000400000000000000400000000000000000000000000000001002000000000000000000000000300001000000000000000000400000000140000000000020000000000000010000000000010000000000020000000000000000000000000000",
      "type": "0x2",
      "transactionHash": "0xa5699cec1b1efc4f0a288a8b487301f9047ab44d1773630583330ccd1a82b5f2",
      "transactionIndex": "0x1",
      "blockHash": "0xb003578a8b8bc1b42edc9317418f51384999c7437ede6b197dd4fc41287a5f27",
      "blockNumber": "0xb3df6",
      "gasUsed": "0x389af",
      "effectiveGasPrice": "0x5f5e100",
      "from": "0x660ad4b5a74130a4796b4d54bc6750ae93c86e6c",
      "to": "0x2843c269d2a64ecfa63548e8b3fc0fd23b7f70cb",
      "contractAddress": null,
      "gasUsedForL1": "0xb21c",
      "l1BlockNumber": "0x14d3e61"
    },
    {
      "status": "0x1",
      "cumulativeGasUsed": "0x399a5",
      "logs": [
        {
          "address": "0x2843c269d2a64ecfa63548e8b3fc0fd23b7f70cb",
          "topics": [
            "0xbb47ee3e183a558b1a2ff0874b079f3fc5478b7454eacf2bfc5af2ff5878f972"
          ],
          "data": "0x",
          "blockHash": "0x3ec2bee8b996e24a4861dd444913808c7334bf1e7e7e42df73ec7a3e0db5b0d7",
          "blockNumber": "0xb3df7",
          "transactionHash": "0xb5adbb4a8c95bd0c8e661f8a3f5406eddc9fa0af29d3252bbc136f1e8dba2364",
          "transactionIndex": "0x1",
          "logIndex": "0x0",
          "removed": false
        },
        {
          "address": "0xacc000818e5bbd911d5d449aa81cb5ca24024739",
          "topics": [
            "0x9ea6790c7dadfd01c9f8b9762b3682607af2c7e79e05a9f9fdf5580dde949151",
            "0x000000000000000000000000f369f78e3a0492cc4e96a90dae0728a38498e9c7",
            "0x000000000000000000000000000000000000000000000000783b0946b8c9d2e3"
          ],
          "data": "0x3659cfe600000000000000000000000000000000000000000000000000000000",
          "blockHash": "0x3ec2bee8b996e24a4861dd444913808c7334bf1e7e7e42df73ec7a3e0db5b0d7",
          "blockNumber": "0xb3df7",
          "transactionHash": "0xb5adbb4a8c95bd0c8e661f8a3f5406eddc9fa0af29d3252bbc136f1e8dba2364",
          "transactionIndex": "0x1",
          "logIndex": "0x1",
          "removed": false
        },
        {
          "address": "0x2843c269d2a64ecfa63548e8b3fc0fd23b7f70cb",
          "topics": [
            "0x49628fd1471006c1482da88028e9ce4dbb080b815c9b0344d39e5a8e6ec1419f",
            "0x2056d1a20c59593c6afe939b4a9522a23d7475bd67afc7f00473582e51f840b7",
            "0x0000000000000000000000002e2b1c42e38f5af81771e65d87729e57abd1337a",
            "0x0000000000000000000000000000000000000000000000000000000000000000"
          ],
          "data": "0x0000000000000000000000000000000000000000000000000000000000001165000000000000000000000000000000000000000000000000000000000000000100000000000000000000000000000000000000000000000000000000000888750000000000000000000000000000000000000000000000000000000000088875",
          "blockHash": "0x3ec2bee8b996e24a4861dd444913808c7334bf1e7e7e42df73ec7a3e0db5b0d7",
          "blockNumber": "0xb3df7",
          "transactionHash": "0xb5adbb4a8c95bd0c8e661f8a3f5406eddc9fa0af29d3252bbc136f1e8dba2364",
          "transactionIndex": "0x1",
          "logIndex": "0x2",
          "removed": false
        }
      ],
      "logsBloom": "0x00000004000088000000000000000000000000000000000010000000000000000008000000000000000000010000000000000000000000000000020000000000000000000000000000000000000000000000000000000000000000000000000800000000020000000000000000200800002000000000000000000000100000000000000000000000000002000000800000020000000000000000000000001000000400000000000000400000000000000000000000000000000002000000000000000000020000100001000000200000000000000000000000000000000020000010000000010000000000000000200000000000000000000002000000000800",
      "type": "0x2",
      "transactionHash": "0xb5adbb4a8c95bd0c8e661f8a3f5406eddc9fa0af29d3252bbc136f1e8dba2364",
      "transactionIndex": "0x1",
      "blockHash": "0x3ec2bee8b996e24a4861dd444913808c7334bf1e7e7e42df73ec7a3e0db5b0d7",
      "blockNumber": "0xb3df7",
      "gasUsed": "0x399a5",
      "effectiveGasPrice": "0x5f5e100",
      "from": "0x660ad4b5a74130a4796b4d54bc6750ae93c86e6c",
      "to": "0x2843c269d2a64ecfa63548e8b3fc0fd23b7f70cb",
      "contractAddress": null,
      "gasUsedForL1": "0xaccf",
      "l1BlockNumber": "0x14d3e61"
    },
    {
      "status": "0x1",
      "cumulativeGasUsed": "0x39721",
      "logs": [
        {
          "address": "0x2843c269d2a64ecfa63548e8b3fc0fd23b7f70cb",
          "topics": [
            "0xbb47ee3e183a558b1a2ff0874b079f3fc5478b7454eacf2bfc5af2ff5878f972"
          ],
          "data": "0x",
          "blockHash": "0x467c1b8a0604a4f5f4cccebe4a8bd51a8a11849e9ac450337d3fdbc2ad756470",
          "blockNumber": "0xb3df8",
          "transactionHash": "0x0fe87cfe9e61dc69f6e87781ff099414691d9261272fb4147d6bc20b43676a20",
          "transactionIndex": "0x1",
          "logIndex": "0x0",
          "removed": false
        },
        {
          "address": "0xacc000818e5bbd911d5d449aa81cb5ca24024739",
          "topics": [
            "0xf98448b987f1428e0e230e1f3c6e2ce15b5693eaf31827fbd0b1ec4b424ae7cf",
            "0x000000000000000000000000000000000000000000000000783b0946b8c9d2e3",
            "0x00000000000000000000000028fc10e12a78f986c78f973fc70ed88072b34c8e"
          ],
          "data": "0x0000000000000000000000000000000000000000000000000000000000093a800000000000000000000000000000000000000000000000000000000067b7798f0000000000000000000000000000000000000000000000000000000000000001",
          "blockHash": "0x467c1b8a0604a4f5f4cccebe4a8bd51a8a11849e9ac450337d3fdbc2ad756470",
          "blockNumber": "0xb3df8",
          "transactionHash": "0x0fe87cfe9e61dc69f6e87781ff099414691d9261272fb4147d6bc20b43676a20",
          "transactionIndex": "0x1",
          "logIndex": "0x1",
          "removed": false
        },
        {
          "address": "0x2843c269d2a64ecfa63548e8b3fc0fd23b7f70cb",
          "topics": [
            "0x49628fd1471006c1482da88028e9ce4dbb080b815c9b0344d39e5a8e6ec1419f",
            "0xfb35ff4087296af6fbd48d20687fbb8cbf70c8452891bfdfd2334251a2b44794",
            "0x0000000000000000000000002e2b1c42e38f5af81771e65d87729e57abd1337a",
            "0x0000000000000000000000000000000000000000000000000000000000000000"
          ],
          "data": "0x000000000000000000000000000000000000000000000000000000000000116600000000000000000000000000000000000000000000000000000000000000010000000000000000000000000000000000000000000000000000000000088c080000000000000000000000000000000000000000000000000000000000088c08",
          "blockHash": "0x467c1b8a0604a4f5f4cccebe4a8bd51a8a11849e9ac450337d3fdbc2ad756470",
          "blockNumber": "0xb3df8",
          "transactionHash": "0x0fe87cfe9e61dc69f6e87781ff099414691d9261272fb4147d6bc20b43676a20",
          "transactionIndex": "0x1",
          "logIndex": "0x2",
          "removed": false
        }
      ],
      "logsBloom": "0x00000000000008000000000000000000000000000000000010000000000000000008000000000000000000010000000000000000000000000000020000000000000000000000000000000000000000000000000000000000000000000000001800800000020000000000000000200800002000000000000000000000000000100000000000000000000002000000800008000000000000000000000000001000000400000000000000402000000000000020000000000008000002000000000000000000000000100001000000000000000000000000000000000000000020000010000000010000000000000000000000800000000000000000100000000000",
      "type": "0x2",
      "transactionHash": "0x0fe87cfe9e61dc69f6e87781ff099414691d9261272fb4147d6bc20b43676a20",
      "transactionIndex": "0x1",
      "blockHash": "0x467c1b8a0604a4f5f4cccebe4a8bd51a8a11849e9ac450337d3fdbc2ad756470",
      "blockNumber": "0xb3df8",
      "gasUsed": "0x39721",
      "effectiveGasPrice": "0x5f5e100",
      "from": "0x660ad4b5a74130a4796b4d54bc6750ae93c86e6c",
      "to": "0x2843c269d2a64ecfa63548e8b3fc0fd23b7f70cb",
      "contractAddress": null,
      "gasUsedForL1": "0xa782",
      "l1BlockNumber": "0x14d3e61"
    },
    {
      "status": "0x1",
      "cumulativeGasUsed": "0x38478",
      "logs": [
        {
          "address": "0x2843c269d2a64ecfa63548e8b3fc0fd23b7f70cb",
          "topics": [
            "0xbb47ee3e183a558b1a2ff0874b079f3fc5478b7454eacf2bfc5af2ff5878f972"
          ],
          "data": "0x",
          "blockHash": "0x299c8aef496f213af7d3b161da0e22ceee0db48a1ac043e149411c28419f729b",
          "blockNumber": "0xb3df9",
          "transactionHash": "0x11969991994070210a22947102d18ad99be27f57a66c2736cc24e0b935049fc0",
          "transactionIndex": "0x1",
          "logIndex": "0x0",
          "removed": false
        },
        {
          "address": "0xacc000818e5bbd911d5d449aa81cb5ca24024739",
          "topics": [
            "0xa56b76017453f399ec2327ba00375dbfb1fd070ff854341ad6191e6a2e2de19c",
            "0x000000000000000000000000f369f78e3a0492cc4e96a90dae0728a38498e9c7"
          ],
          "data": "0x0000000000000000000000000000000000000000000000000000000000093a800000000000000000000000000000000000000000000000000000000067b4d690",
          "blockHash": "0x299c8aef496f213af7d3b161da0e22ceee0db48a1ac043e149411c28419f729b",
          "blockNumber": "0xb3df9",
          "transactionHash": "0x11969991994070210a22947102d18ad99be27f57a66c2736cc24e0b935049fc0",
          "transactionIndex": "0x1",
          "logIndex": "0x1",
          "removed": false
        },
        {
          "address": "0x2843c269d2a64ecfa63548e8b3fc0fd23b7f70cb",
          "topics": [
            "0x49628fd1471006c1482da88028e9ce4dbb080b815c9b0344d39e5a8e6ec1419f",
            "0x6222e74ea49ea047b84ba89a7250516cc9477a18c2225bb50698b0c95d61229d",
            "0x0000000000000000000000002e2b1c42e38f5af81771e65d87729e57abd1337a",
            "0x0000000000000000000000000000000000000000000000000000000000000000"
          ],
          "data": "0x000000000000000000000000000000000000000000000000000000000000116700000000000000000000000000000000000000000000000000000000000000010000000000000000000000000000000000000000000000000000000000087da30000000000000000000000000000000000000000000000000000000000087da3",
          "blockHash": "0x299c8aef496f213af7d3b161da0e22ceee0db48a1ac043e149411c28419f729b",
          "blockNumber": "0xb3df9",
          "transactionHash": "0x11969991994070210a22947102d18ad99be27f57a66c2736cc24e0b935049fc0",
          "transactionIndex": "0x1",
          "logIndex": "0x2",
          "removed": false
        }
      ],
      "logsBloom": "0x00000000000008000000000000000000000000000000000000000000000000000008000000000000000000010000000000000000000000000000020000000000000000000000000000010000000000000000000000000000000000000000000800000040020000000000000000000800002000000000000000000000100000000000000000080000000002000000800000020000000000000000000100001000000400000000000000400000000000000002000000000000000002000000000000000000000000100001000000000000000000000000000000000000000020000000000000010000000000000000000000000000000000000002010000000000",
      "type": "0x2",
      "transactionHash": "0x11969991994070210a22947102d18ad99be27f57a66c2736cc24e0b935049fc0",
      "transactionIndex": "0x1",
      "blockHash": "0x299c8aef496f213af7d3b161da0e22ceee0db48a1ac043e149411c28419f729b",
      "blockNumber": "0xb3df9",
      "gasUsed": "0x38478",
      "effectiveGasPrice": "0x5f5e100",
      "from": "0x660ad4b5a74130a4796b4d54bc6750ae93c86e6c",
      "to": "0x2843c269d2a64ecfa63548e8b3fc0fd23b7f70cb",
      "contractAddress": null,
      "gasUsedForL1": "0xa5be",
      "l1BlockNumber": "0x14d3e61"
    },
    {
      "status": "0x1",
      "cumulativeGasUsed": "0x45fe7",
      "logs": [
        {
          "address": "0x2843c269d2a64ecfa63548e8b3fc0fd23b7f70cb",
          "topics": [
            "0xbb47ee3e183a558b1a2ff0874b079f3fc5478b7454eacf2bfc5af2ff5878f972"
          ],
          "data": "0x",
          "blockHash": "0x028d523d4c350d34898cda9d93d24a18c3c927e7338edd26a58b41d38ab1bcb9",
          "blockNumber": "0xb3dfa",
          "transactionHash": "0xd18ca5a235815fce9f47801d54cf5a84f9fd133c4aa1c5a014aa9a1abc5ce66d",
          "transactionIndex": "0x1",
          "logIndex": "0x0",
          "removed": false
        },
        {
          "address": "0xacc000818e5bbd911d5d449aa81cb5ca24024739",
          "topics": [
            "0x9ea6790c7dadfd01c9f8b9762b3682607af2c7e79e05a9f9fdf5580dde949151",
            "0x0000000000000000000000005a2b641b84b0230c8e75f55d5afd27f4dbd59d5b",
            "0x000000000000000000000000000000000000000000000000cb784571e5a32118"
          ],
          "data": "0xc233e2a300000000000000000000000000000000000000000000000000000000",
          "blockHash": "0x028d523d4c350d34898cda9d93d24a18c3c927e7338edd26a58b41d38ab1bcb9",
          "blockNumber": "0xb3dfa",
          "transactionHash": "0xd18ca5a235815fce9f47801d54cf5a84f9fd133c4aa1c5a014aa9a1abc5ce66d",
          "transactionIndex": "0x1",
          "logIndex": "0x1",
          "removed": false
        },
        {
          "address": "0xacc000818e5bbd911d5d449aa81cb5ca24024739",
          "topics": [
            "0x9ea6790c7dadfd01c9f8b9762b3682607af2c7e79e05a9f9fdf5580dde949151",
            "0x0000000000000000000000005a2b641b84b0230c8e75f55d5afd27f4dbd59d5b",
            "0x000000000000000000000000000000000000000000000000cb784571e5a32118"
          ],
          "data": "0x0e6ff43200000000000000000000000000000000000000000000000000000000",
          "blockHash": "0x028d523d4c350d34898cda9d93d24a18c3c927e7338edd26a58b41d38ab1bcb9",
          "blockNumber": "0xb3dfa",
          "transactionHash": "0xd18ca5a235815fce9f47801d54cf5a84f9fd133c4aa1c5a014aa9a1abc5ce66d",
          "transactionIndex": "0x1",
          "logIndex": "0x2",
          "removed": false
        },
        {
          "address": "0xacc000818e5bbd911d5d449aa81cb5ca24024739",
          "topics": [
            "0x9ea6790c7dadfd01c9f8b9762b3682607af2c7e79e05a9f9fdf5580dde949151",
            "0x0000000000000000000000005a2b641b84b0230c8e75f55d5afd27f4dbd59d5b",
            "0x000000000000000000000000000000000000000000000000cb784571e5a32118"
          ],
          "data": "0x7259285100000000000000000000000000000000000000000000000000000000",
          "blockHash": "0x028d523d4c350d34898cda9d93d24a18c3c927e7338edd26a58b41d38ab1bcb9",
          "blockNumber": "0xb3dfa",
          "transactionHash": "0xd18ca5a235815fce9f47801d54cf5a84f9fd133c4aa1c5a014aa9a1abc5ce66d",
          "transactionIndex": "0x1",
          "logIndex": "0x3",
          "removed": false
        },
        {
          "address": "0x2843c269d2a64ecfa63548e8b3fc0fd23b7f70cb",
          "topics": [
            "0x49628fd1471006c1482da88028e9ce4dbb080b815c9b0344d39e5a8e6ec1419f",
            "0x7ac3296eae2e5b9671dccf2b491cb7f7e5a23ab681b4ca9b040b23df354a973e",
            "0x0000000000000000000000002e2b1c42e38f5af81771e65d87729e57abd1337a",
            "0x0000000000000000000000000000000000000000000000000000000000000000"
          ],
          "data": "0x0000000000000000000000000000000000000000000000000000000000001168000000000000000000000000000000000000000000000000000000000000000100000000000000000000000000000000000000000000000000000000000935100000000000000000000000000000000000000000000000000000000000093510",
          "blockHash": "0x028d523d4c350d34898cda9d93d24a18c3c927e7338edd26a58b41d38ab1bcb9",
          "blockNumber": "0xb3dfa",
          "transactionHash": "0xd18ca5a235815fce9f47801d54cf5a84f9fd133c4aa1c5a014aa9a1abc5ce66d",
          "transactionIndex": "0x1",
          "logIndex": "0x4",
          "removed": false
        }
      ],
      "logsBloom": "0x00000004000089000000000000000000000000000000000000000000400000000008008000000080000000010000000000000000000000000000020000000000000000000000000000000000000000000000000000000000000000000000000800000000120000000000000000000800002020000000000000000400000000000000000000000000000002000000800000000000000000000000000000001000000400000200000000400000000000000000000000000000000012000000000000000000000000100001000000200000000000000000000000000000000020000000000000010000000000000000000000000000000000000000000000000000",
      "type": "0x2",
      "transactionHash": "0xd18ca5a235815fce9f47801d54cf5a84f9fd133c4aa1c5a014aa9a1abc5ce66d",
      "transactionIndex": "0x1",
      "blockHash": "0x028d523d4c350d34898cda9d93d24a18c3c927e7338edd26a58b41d38ab1bcb9",
      "blockNumber": "0xb3dfa",
      "gasUsed": "0x45fe7",
      "effectiveGasPrice": "0x5f5e100",
      "from": "0x660ad4b5a74130a4796b4d54bc6750ae93c86e6c",
      "to": "0x2843c269d2a64ecfa63548e8b3fc0fd23b7f70cb",
      "contractAddress": null,
      "gasUsedForL1": "0xb1d0",
      "l1BlockNumber": "0x14d3e61"
    },
    {
      "status": "0x1",
      "cumulativeGasUsed": "0x3988e",
      "logs": [
        {
          "address": "0x2843c269d2a64ecfa63548e8b3fc0fd23b7f70cb",
          "topics": [
            "0xbb47ee3e183a558b1a2ff0874b079f3fc5478b7454eacf2bfc5af2ff5878f972"
          ],
          "data": "0x",
          "blockHash": "0xf2f22927fc514d15e544b82d4083b3a35dd0557a580360f1c79ea6badb0500d0",
          "blockNumber": "0xb3dfb",
          "transactionHash": "0x9d6ab083f8ddcf2bae3613ced8215a3ed893962cab910aaab6920d87643bdb85",
          "transactionIndex": "0x1",
          "logIndex": "0x0",
          "removed": false
        },
        {
          "address": "0xacc000818e5bbd911d5d449aa81cb5ca24024739",
          "topics": [
            "0xf98448b987f1428e0e230e1f3c6e2ce15b5693eaf31827fbd0b1ec4b424ae7cf",
            "0x000000000000000000000000000000000000000000000000cb784571e5a32118",
            "0x00000000000000000000000028fc10e12a78f986c78f973fc70ed88072b34c8e"
          ],
          "data": "0x0000000000000000000000000000000000000000000000000000000000093a800000000000000000000000000000000000000000000000000000000067ae3f110000000000000000000000000000000000000000000000000000000000000001",
          "blockHash": "0xf2f22927fc514d15e544b82d4083b3a35dd0557a580360f1c79ea6badb0500d0",
          "blockNumber": "0xb3dfb",
          "transactionHash": "0x9d6ab083f8ddcf2bae3613ced8215a3ed893962cab910aaab6920d87643bdb85",
          "transactionIndex": "0x1",
          "logIndex": "0x1",
          "removed": false
        },
        {
          "address": "0x2843c269d2a64ecfa63548e8b3fc0fd23b7f70cb",
          "topics": [
            "0x49628fd1471006c1482da88028e9ce4dbb080b815c9b0344d39e5a8e6ec1419f",
            "0xff93719bcbb57fbe30b379fa74a6bc063e250a329127e430fcdd4a7ea0e9b82c",
            "0x0000000000000000000000002e2b1c42e38f5af81771e65d87729e57abd1337a",
            "0x0000000000000000000000000000000000000000000000000000000000000000"
          ],
          "data": "0x000000000000000000000000000000000000000000000000000000000000116900000000000000000000000000000000000000000000000000000000000000010000000000000000000000000000000000000000000000000000000000088c080000000000000000000000000000000000000000000000000000000000088c08",
          "blockHash": "0xf2f22927fc514d15e544b82d4083b3a35dd0557a580360f1c79ea6badb0500d0",
          "blockNumber": "0xb3dfb",
          "transactionHash": "0x9d6ab083f8ddcf2bae3613ced8215a3ed893962cab910aaab6920d87643bdb85",
          "transactionIndex": "0x1",
          "logIndex": "0x2",
          "removed": false
        }
      ],
      "logsBloom": "0x00000000000008000000000000000000000000000000000000000000000000000008008000000000000000010000000000000000000000000000020000000000000000000000000000000000000000000000000000000000000000000000000800000000020000000000000000000800002020000000000000000000001000000000000000000000000002000000800008000000000000000000000000001000000400000000000000402000000000000020000000000008000012000100000000000000000000100001000000000000000000000000000000000000000020000000000000010002000000000000000000800000000000000000100000000000",
      "type": "0x2",
      "transactionHash": "0x9d6ab083f8ddcf2bae3613ced8215a3ed893962cab910aaab6920d87643bdb85",
      "transactionIndex": "0x1",
      "blockHash": "0xf2f22927fc514d15e544b82d4083b3a35dd0557a580360f1c79ea6badb0500d0",
      "blockNumber": "0xb3dfb",
      "gasUsed": "0x3988e",
      "effectiveGasPrice": "0x5f5e100",
      "from": "0x660ad4b5a74130a4796b4d54bc6750ae93c86e6c",
      "to": "0x2843c269d2a64ecfa63548e8b3fc0fd23b7f70cb",
      "contractAddress": null,
      "gasUsedForL1": "0xa8fb",
      "l1BlockNumber": "0x14d3e61"
    },
    {
      "status": "0x1",
      "cumulativeGasUsed": "0x330eb",
      "logs": [
        {
          "address": "0x2843c269d2a64ecfa63548e8b3fc0fd23b7f70cb",
          "topics": [
            "0xbb47ee3e183a558b1a2ff0874b079f3fc5478b7454eacf2bfc5af2ff5878f972"
          ],
          "data": "0x",
          "blockHash": "0x3986ae8f791b680852b91eac45ba0506f00705d541abbafc59ca7b8893126875",
          "blockNumber": "0xb3dfc",
          "transactionHash": "0xacecfb13652f30fb4b54091e5f19cbf1075d5db6aa2cd8318df3b46cedcb4d4b",
          "transactionIndex": "0x1",
          "logIndex": "0x0",
          "removed": false
        },
        {
          "address": "0xacc000818e5bbd911d5d449aa81cb5ca24024739",
          "topics": [
            "0x1256f5b5ecb89caec12db449738f2fbcd1ba5806cf38f35413f4e5c15bf6a450",
            "0x000000000000000000000000000000000000000000000000cb784571e5a32118"
          ],
          "data": "0x0000000000000000000000000000000000000000000000000000000000000020000000000000000000000000000000000000000000000000000000000000001553454355524954595f434f554e43494c5f524f4c450000000000000000000000",
          "blockHash": "0x3986ae8f791b680852b91eac45ba0506f00705d541abbafc59ca7b8893126875",
          "blockNumber": "0xb3dfc",
          "transactionHash": "0xacecfb13652f30fb4b54091e5f19cbf1075d5db6aa2cd8318df3b46cedcb4d4b",
          "transactionIndex": "0x1",
          "logIndex": "0x1",
          "removed": false
        },
        {
          "address": "0x2843c269d2a64ecfa63548e8b3fc0fd23b7f70cb",
          "topics": [
            "0x49628fd1471006c1482da88028e9ce4dbb080b815c9b0344d39e5a8e6ec1419f",
            "0xeebe3b75937de33df6b0ae5d6734fcbd13da8ae5ff352ededfc01439226c886e",
            "0x0000000000000000000000002e2b1c42e38f5af81771e65d87729e57abd1337a",
            "0x0000000000000000000000000000000000000000000000000000000000000000"
          ],
          "data": "0x000000000000000000000000000000000000000000000000000000000000116a00000000000000000000000000000000000000000000000000000000000000010000000000000000000000000000000000000000000000000000000000082e340000000000000000000000000000000000000000000000000000000000082e34",
          "blockHash": "0x3986ae8f791b680852b91eac45ba0506f00705d541abbafc59ca7b8893126875",
          "blockNumber": "0xb3dfc",
          "transactionHash": "0xacecfb13652f30fb4b54091e5f19cbf1075d5db6aa2cd8318df3b46cedcb4d4b",
          "transactionIndex": "0x1",
          "logIndex": "0x2",
          "removed": false
        }
      ],
      "logsBloom": "0x00000000100008000000000000000000000000000000000000000000000000000008008000000000000000010000000000000000000000000000020000000000000000000000000000000400000000000000000000000000000000000000000800000000020000000000000000200800002020000000000000000000000000000000000000000000000002000000800000000004000000000000000000001000000400000000000000400000000000000004000000000000000012000000000000000000000000100001000000000000000000000000000000000000000020000000000000010000000000000000000000000000000000000000000400000000",
      "type": "0x2",
      "transactionHash": "0xacecfb13652f30fb4b54091e5f19cbf1075d5db6aa2cd8318df3b46cedcb4d4b",
      "transactionIndex": "0x1",
      "blockHash": "0x3986ae8f791b680852b91eac45ba0506f00705d541abbafc59ca7b8893126875",
      "blockNumber": "0xb3dfc",
      "gasUsed": "0x330eb",
      "effectiveGasPrice": "0x5f5e100",
      "from": "0x660ad4b5a74130a4796b4d54bc6750ae93c86e6c",
      "to": "0x2843c269d2a64ecfa63548e8b3fc0fd23b7f70cb",
      "contractAddress": null,
      "gasUsedForL1": "0xa8fb",
      "l1BlockNumber": "0x14d3e61"
    }
  ],
  "libraries": [],
  "pending": [],
  "returns": {},
  "timestamp": 1739472658,
  "chain": 7887,
  "commit": "479299c"
}