{
  "transactions": [
    {
      "hash": "0xc66ce6378fd7bf0dd56f1814fd45b879c0f97b1ae3de640cdeddd198453b5721",
      "transactionType": "CALL",
      "contractName": null,
      "contractAddress": "0x2843c269d2a64ecfa63548e8b3fc0fd23b7f70cb",
      "function": "handleOps((address,uint256,bytes,bytes,uint256,uint256,uint256,uint256,uint256,bytes,bytes)[],address)",
      "arguments": [
        "[(0x2e2B1c42E38f5af81771e65D87729E57ABD1337a, 4655, 0x, 0xb61d27f6000000000000000000000000acc000818e5bbd911d5d449aa81cb5ca24024739000000000000000000000000000000000000000000000000000000000000000000000000000000000000000000000000000000000000000000000000000000600000000000000000000000000000000000000000000000000000000000000044fe0776f5000000000000000000000000000000000000000000000000783b0946b8c9d2e30000000000000000000000002e2b1c42e38f5af81771e65d87729e57abd1337a00000000000000000000000000000000000000000000000000000000, 4000000, 210000, 21000, 1, 1000000000, 0x0000000000000000000000000000000000000000, 0x4e5a7621680913539bfa67c27c99893480cad4db2fa604eac76f9dfaec9bfa4a61162c5624e59c1ff92adcb693654580494ec0e3cccc304b42c88b249d0059401c004910211d6ea007ba5e8bc87f0d6cd0cc2a07bcc723f9cd8939519a6f649172513e587f5620feebb4825fcd2df4fe067f237a33655f201ad08892bdeb40d59f1b)]",
        "0x660ad4B5A74130a4796B4d54BC6750Ae93C86e6c"
      ],
      "transaction": {
        "from": "0x660ad4b5a74130a4796b4d54bc6750ae93c86e6c",
        "to": "0x2843c269d2a64ecfa63548e8b3fc0fd23b7f70cb",
        "value": "0x0",
        "input": "0x1fad948c0000000000000000000000000000000000000000000000000000000000000040000000000000000000000000660ad4b5a74130a4796b4d54bc6750ae93c86e6c000000000000000000000000000000000000000000000000000000000000000100000000000000000000000000000000000000000000000000000000000000200000000000000000000000002e2b1c42e38f5af81771e65d87729e57abd1337a000000000000000000000000000000000000000000000000000000000000122f0000000000000000000000000000000000000000000000000000000000000160000000000000000000000000000000000000000000000000000000000000018000000000000000000000000000000000000000000000000000000000003d0900000000000000000000000000000000000000000000000000000000000003345000000000000000000000000000000000000000000000000000000000000052080000000000000000000000000000000000000000000000000000000000000001000000000000000000000000000000000000000000000000000000003b9aca0000000000000000000000000000000000000000000000000000000000000002a000000000000000000000000000000000000000000000000000000000000002e0000000000000000000000000000000000000000000000000000000000000000000000000000000000000000000000000000000000000000000000000000000e4b61d27f6000000000000000000000000acc000818e5bbd911d5d449aa81cb5ca24024739000000000000000000000000000000000000000000000000000000000000000000000000000000000000000000000000000000000000000000000000000000600000000000000000000000000000000000000000000000000000000000000044fe0776f5000000000000000000000000000000000000000000000000783b0946b8c9d2e30000000000000000000000002e2b1c42e38f5af81771e65d87729e57abd1337a00000000000000000000000000000000000000000000000000000000000000000000000000000000000000000000000000000000000000000000000000000000000000000000000000000000000000000000000000000014000000000000000000000000000000000000000000000000000000000000000000000000000000000000000000000000000000000000000000000000000000824e5a7621680913539bfa67c27c99893480cad4db2fa604eac76f9dfaec9bfa4a61162c5624e59c1ff92adcb693654580494ec0e3cccc304b42c88b249d0059401c004910211d6ea007ba5e8bc87f0d6cd0cc2a07bcc723f9cd8939519a6f649172513e587f5620feebb4825fcd2df4fe067f237a33655f201ad08892bdeb40d59f1b000000000000000000000000000000000000000000000000000000000000",
        "nonce": "0x4bd98",
        "chainId": "0x1ecf"
      },
      "additionalContracts": [],
      "isFixedGasLimit": false
    }
  ],
  "receipts": [
    {
      "status": "0x1",
      "cumulativeGasUsed": "0x2ada5",
      "logs": [
        {
          "address": "0x2843c269d2a64ecfa63548e8b3fc0fd23b7f70cb",
          "topics": [
            "0xbb47ee3e183a558b1a2ff0874b079f3fc5478b7454eacf2bfc5af2ff5878f972"
          ],
          "data": "0x",
          "blockHash": "0x6b3b9d912943588bdcaa7293b878ace4b8303cac3c41e0f16309491fd9416dd3",
          "blockNumber": "0xbcc61",
          "transactionHash": "0xc66ce6378fd7bf0dd56f1814fd45b879c0f97b1ae3de640cdeddd198453b5721",
          "transactionIndex": "0x1",
          "logIndex": "0x0",
          "removed": false
        },
        {
          "address": "0xacc000818e5bbd911d5d449aa81cb5ca24024739",
          "topics": [
            "0xf229baa593af28c41b1d16b748cd7688f0c83aaf92d4be41c44005defe84c166",
            "0x000000000000000000000000000000000000000000000000783b0946b8c9d2e3",
            "0x0000000000000000000000002e2b1c42e38f5af81771e65d87729e57abd1337a"
          ],
          "data": "0x",
          "blockHash": "0x6b3b9d912943588bdcaa7293b878ace4b8303cac3c41e0f16309491fd9416dd3",
          "blockNumber": "0xbcc61",
          "transactionHash": "0xc66ce6378fd7bf0dd56f1814fd45b879c0f97b1ae3de640cdeddd198453b5721",
          "transactionIndex": "0x1",
          "logIndex": "0x1",
          "removed": false
        },
        {
          "address": "0x2843c269d2a64ecfa63548e8b3fc0fd23b7f70cb",
          "topics": [
            "0x49628fd1471006c1482da88028e9ce4dbb080b815c9b0344d39e5a8e6ec1419f",
            "0x39dd454b69607cc85ea9e26ad1c024c79a1db2f03fc80d94f5fe09bef6d2feff",
            "0x0000000000000000000000002e2b1c42e38f5af81771e65d87729e57abd1337a",
            "0x0000000000000000000000000000000000000000000000000000000000000000"
          ],
          "data": "0x000000000000000000000000000000000000000000000000000000000000122f000000000000000000000000000000000000000000000000000000000000000100000000000000000000000000000000000000000000000000000000000832700000000000000000000000000000000000000000000000000000000000083270",
          "blockHash": "0x6b3b9d912943588bdcaa7293b878ace4b8303cac3c41e0f16309491fd9416dd3",
          "blockNumber": "0xbcc61",
          "transactionHash": "0xc66ce6378fd7bf0dd56f1814fd45b879c0f97b1ae3de640cdeddd198453b5721",
          "transactionIndex": "0x1",
          "logIndex": "0x2",
          "removed": false
        }
      ],
      "logsBloom": "0x00000000000008000000004000000000000000000000000010000000000000000008000000000000000000010000000000000000000000000000020000000000000000000000000000000000000000000004000000000000000000000000000800000000020000000000000004200800002000000000000000000000000000000000000000000000000002000000800000000000000000000000000000001000000400000000000000400000000000000000000000000000000002000000000000000000000040100001000000000000000000000000000000000000000020000010002000010000000000000000000000000000000000000000000000000400",
      "type": "0x2",
      "transactionHash": "0xc66ce6378fd7bf0dd56f1814fd45b879c0f97b1ae3de640cdeddd198453b5721",
      "transactionIndex": "0x1",
      "blockHash": "0x6b3b9d912943588bdcaa7293b878ace4b8303cac3c41e0f16309491fd9416dd3",
      "blockNumber": "0xbcc61",
      "gasUsed": "0x2ada5",
      "effectiveGasPrice": "0x5f5e100",
      "from": "0x660ad4b5a74130a4796b4d54bc6750ae93c86e6c",
      "to": "0x2843c269d2a64ecfa63548e8b3fc0fd23b7f70cb",
      "contractAddress": null,
      "gasUsedForL1": "0x3529",
      "l1BlockNumber": "0x1512990"
    }
  ],
  "libraries": [],
  "pending": [],
  "returns": {},
  "timestamp": 1742572511,
  "chain": 7887,
  "commit": "72dc8d9f"
}