{
  "transactions": [
    {
      "hash": "0x896801b01e1304a9b59ad2604769da8108333da583d9a46273d96314113430f5",
      "transactionType": "CALL",
      "contractName": null,
      "contractAddress": "0x2843c269d2a64ecfa63548e8b3fc0fd23b7f70cb",
      "function": "handleOps((address,uint256,bytes,bytes,uint256,uint256,uint256,uint256,uint256,bytes,bytes)[],address)",
      "arguments": [
        "[(0x2e2B1c42E38f5af81771e65D87729E57ABD1337a, 4717, 0x, 0xb61d27f6000000000000000000000000acc000818e5bbd911d5d449aa81cb5ca24024739000000000000000000000000000000000000000000000000000000000000000000000000000000000000000000000000000000000000000000000000000000600000000000000000000000000000000000000000000000000000000000000104f801a698000000000000000000000000acc000818e5bbd911d5d449aa81cb5ca2402473900000000000000000000000000000000000000000000000000000000000000600000000000000000000000000000000000000000000000000000000000000000000000000000000000000000000000000000000000000000000000000000006425c471a000000000000000000000000000000000000000000000000000000000000000000000000000000000000000002e2b1c42e38f5af81771e65d87729e57abd1337a00000000000000000000000000000000000000000000000000000000000fd2000000000000000000000000000000000000000000000000000000000000000000000000000000000000000000000000000000000000000000, 4000000, 210000, 21000, 1, 1000000000, 0x0000000000000000000000000000000000000000, 0x061450e24bd665682bbbf9b674b05063117a555fb4916c104a231573549484603020444c090ee2ca1e5d89da1b2ce208cac5ce29196fa167637334b7d2d5d4b01c87e1b271df9867e00db2b6ffd598c6c7da16190d461a0ff11997db4a77ca4ef95207c442b276db59895f80892975c161bbfff65854a963d578f52b704a65e6871b)]",
        "0x660ad4B5A74130a4796B4d54BC6750Ae93C86e6c"
      ],
      "transaction": {
        "from": "0x660ad4b5a74130a4796b4d54bc6750ae93c86e6c",
        "to": "0x2843c269d2a64ecfa63548e8b3fc0fd23b7f70cb",
        "value": "0x0",
        "input": "0x1fad948c0000000000000000000000000000000000000000000000000000000000000040000000000000000000000000660ad4b5a74130a4796b4d54bc6750ae93c86e6c000000000000000000000000000000000000000000000000000000000000000100000000000000000000000000000000000000000000000000000000000000200000000000000000000000002e2b1c42e38f5af81771e65d87729e57abd1337a000000000000000000000000000000000000000000000000000000000000126d0000000000000000000000000000000000000000000000000000000000000160000000000000000000000000000000000000000000000000000000000000018000000000000000000000000000000000000000000000000000000000003d0900000000000000000000000000000000000000000000000000000000000003345000000000000000000000000000000000000000000000000000000000000052080000000000000000000000000000000000000000000000000000000000000001000000000000000000000000000000000000000000000000000000003b9aca00000000000000000000000000000000000000000000000000000000000000036000000000000000000000000000000000000000000000000000000000000003a0000000000000000000000000000000000000000000000000000000000000000000000000000000000000000000000000000000000000000000000000000001a4b61d27f6000000000000000000000000acc000818e5bbd911d5d449aa81cb5ca24024739000000000000000000000000000000000000000000000000000000000000000000000000000000000000000000000000000000000000000000000000000000600000000000000000000000000000000000000000000000000000000000000104f801a698000000000000000000000000acc000818e5bbd911d5d449aa81cb5ca2402473900000000000000000000000000000000000000000000000000000000000000600000000000000000000000000000000000000000000000000000000000000000000000000000000000000000000000000000000000000000000000000000006425c471a000000000000000000000000000000000000000000000000000000000000000000000000000000000000000002e2b1c42e38f5af81771e65d87729e57abd1337a00000000000000000000000000000000000000000000000000000000000fd200000000000000000000000000000000000000000000000000000000000000000000000000000000000000000000000000000000000000000000000000000000000000000000000000000000000000000000000000000000000000000000000000000000000000000000000000000000000000001400000000000000000000000000000000000000000000000000000000000000000000000000000000000000000000000000000000000000000000000000000082061450e24bd665682bbbf9b674b05063117a555fb4916c104a231573549484603020444c090ee2ca1e5d89da1b2ce208cac5ce29196fa167637334b7d2d5d4b01c87e1b271df9867e00db2b6ffd598c6c7da16190d461a0ff11997db4a77ca4ef95207c442b276db59895f80892975c161bbfff65854a963d578f52b704a65e6871b000000000000000000000000000000000000000000000000000000000000",
        "nonce": "0x4bdd9",
        "chainId": "0x1ecf"
      },
      "additionalContracts": [],
      "isFixedGasLimit": false
    }
  ],
  "receipts": [
    {
      "status": "0x1",
      "cumulativeGasUsed": "0x2fdff",
      "logs": [
        {
          "address": "0x2843c269d2a64ecfa63548e8b3fc0fd23b7f70cb",
          "topics": [
            "0xbb47ee3e183a558b1a2ff0874b079f3fc5478b7454eacf2bfc5af2ff5878f972"
          ],
          "data": "0x",
          "blockHash": "0x5e760a157ede6e3d955aa946ebb36234f366a239caf8d973a0494254aba45135",
          "blockNumber": "0xbe661",
          "transactionHash": "0x896801b01e1304a9b59ad2604769da8108333da583d9a46273d96314113430f5",
          "transactionIndex": "0x1",
          "logIndex": "0x0",
          "removed": false
        },
        {
          "address": "0xacc000818e5bbd911d5d449aa81cb5ca24024739",
          "topics": [
            "0x82a2da5dee54ea8021c6545b4444620291e07ee83be6dd57edb175062715f3b4",
            "0xc961c36ac064bc0a4f2e0be23c833c3e8d938587ce2f328fb818b8045e1137b1",
            "0x0000000000000000000000000000000000000000000000000000000000000001"
          ],
          "data": "0x0000000000000000000000000000000000000000000000000000000067f1e4c20000000000000000000000002e2b1c42e38f5af81771e65d87729e57abd1337a000000000000000000000000acc000818e5bbd911d5d449aa81cb5ca240247390000000000000000000000000000000000000000000000000000000000000080000000000000000000000000000000000000000000000000000000000000006425c471a000000000000000000000000000000000000000000000000000000000000000000000000000000000000000002e2b1c42e38f5af81771e65d87729e57abd1337a00000000000000000000000000000000000000000000000000000000000fd20000000000000000000000000000000000000000000000000000000000",
          "blockHash": "0x5e760a157ede6e3d955aa946ebb36234f366a239caf8d973a0494254aba45135",
          "blockNumber": "0xbe661",
          "transactionHash": "0x896801b01e1304a9b59ad2604769da8108333da583d9a46273d96314113430f5",
          "transactionIndex": "0x1",
          "logIndex": "0x1",
          "removed": false
        },
        {
          "address": "0x2843c269d2a64ecfa63548e8b3fc0fd23b7f70cb",
          "topics": [
            "0x49628fd1471006c1482da88028e9ce4dbb080b815c9b0344d39e5a8e6ec1419f",
            "0xebb938a903f1ac4c92b7deae5cfe4a31270aebfd6480128e43a9889fc16242c5",
            "0x0000000000000000000000002e2b1c42e38f5af81771e65d87729e57abd1337a",
            "0x0000000000000000000000000000000000000000000000000000000000000000"
          ],
          "data": "0x000000000000000000000000000000000000000000000000000000000000126d000000000000000000000000000000000000000000000000000000000000000100000000000000000000000000000000000000000000000000000000000895ed00000000000000000000000000000000000000000000000000000000000895ed",
          "blockHash": "0x5e760a157ede6e3d955aa946ebb36234f366a239caf8d973a0494254aba45135",
          "blockNumber": "0xbe661",
          "transactionHash": "0x896801b01e1304a9b59ad2604769da8108333da583d9a46273d96314113430f5",
          "transactionIndex": "0x1",
          "logIndex": "0x2",
          "removed": false
        }
      ],
      "logsBloom": "0x00000000000008000000000000000000000800000000000000000000000000000008000000000000000000010000008000000000000000000000020000040000000000000000000000000004000000000000000000040000000000000000000800000200020000000000000000000800002000000000000000000000000000000000000000000000000002000000800000000000000000000000000000001000000400000000000000400008000000000000000001000000000002000000000000000000000000100001000000000000000000000000000000000000000060000000400400010000000000000000000000000040000000000000000000000000",
      "type": "0x2",
      "transactionHash": "0x896801b01e1304a9b59ad2604769da8108333da583d9a46273d96314113430f5",
      "transactionIndex": "0x1",
      "blockHash": "0x5e760a157ede6e3d955aa946ebb36234f366a239caf8d973a0494254aba45135",
      "blockNumber": "0xbe661",
      "gasUsed": "0x2fdff",
      "effectiveGasPrice": "0x5f5e100",
      "from": "0x660ad4b5a74130a4796b4d54bc6750ae93c86e6c",
      "to": "0x2843c269d2a64ecfa63548e8b3fc0fd23b7f70cb",
      "contractAddress": null,
      "gasUsedForL1": "0x0",
      "l1BlockNumber": "0x151a5af"
    }
  ],
  "libraries": [],
  "pending": [],
  "returns": {},
  "timestamp": 1742955586,
  "chain": 7887,
  "commit": "a06ad2a7"
}