{
  "transactions": [
    {
      "hash": "0x33840f162f0865e57e7fd3ed79ab0ce90146d8cefdb4d58fc4c0f8b73dbaf737",
      "transactionType": "CALL",
      "contractName": null,
      "contractAddress": "0x2843c269d2a64ecfa63548e8b3fc0fd23b7f70cb",
      "function": "handleOps((address,uint256,bytes,bytes,uint256,uint256,uint256,uint256,uint256,bytes,bytes)[],address)",
      "arguments": [
        "[(0x2e2B1c42E38f5af81771e65D87729E57ABD1337a, 4803, 0x, 0xb61d27f6000000000000000000000000acc000818e5bbd911d5d449aa81cb5ca240247390000000000000000000000000000000000000000000000000000000000000000000000000000000000000000000000000000000000000000000000000000006000000000000000000000000000000000000000000000000000000000000000e41cff79cd000000000000000000000000acc000818e5bbd911d5d449aa81cb5ca240247390000000000000000000000000000000000000000000000000000000000000040000000000000000000000000000000000000000000000000000000000000006425c471a000000000000000000000000000000000000000000000000000000000000000000000000000000000000000002e2b1c42e38f5af81771e65d87729e57abd1337a00000000000000000000000000000000000000000000000000000000000fd2000000000000000000000000000000000000000000000000000000000000000000000000000000000000000000000000000000000000000000, 4000000, 210000, 21000, 1, 1000000000, 0x0000000000000000000000000000000000000000, 0x6785005f76911755911e4339f01bbb2ab3661712b6e918c9d67535f3dd1054933f93c1578b0b418a7b830b784e872a8a90f7af4b0536b66f3770789a96de0c311c5520f2ad633359355e9d5f152ed63c34fa0bd7bed2b1f8113d3deb19fb0dcb657296c4c0226a5a5692d8262ba50fe08a9e291d51b22be0de63857accee68bc861b)]",
        "0x660ad4B5A74130a4796B4d54BC6750Ae93C86e6c"
      ],
      "transaction": {
        "from": "0x660ad4b5a74130a4796b4d54bc6750ae93c86e6c",
        "to": "0x2843c269d2a64ecfa63548e8b3fc0fd23b7f70cb",
        "value": "0x0",
        "input": "0x1fad948c0000000000000000000000000000000000000000000000000000000000000040000000000000000000000000660ad4b5a74130a4796b4d54bc6750ae93c86e6c000000000000000000000000000000000000000000000000000000000000000100000000000000000000000000000000000000000000000000000000000000200000000000000000000000002e2b1c42e38f5af81771e65d87729e57abd1337a00000000000000000000000000000000000000000000000000000000000012c30000000000000000000000000000000000000000000000000000000000000160000000000000000000000000000000000000000000000000000000000000018000000000000000000000000000000000000000000000000000000000003d0900000000000000000000000000000000000000000000000000000000000003345000000000000000000000000000000000000000000000000000000000000052080000000000000000000000000000000000000000000000000000000000000001000000000000000000000000000000000000000000000000000000003b9aca000000000000000000000000000000000000000000000000000000000000000340000000000000000000000000000000000000000000000000000000000000038000000000000000000000000000000000000000000000000000000000000000000000000000000000000000000000000000000000000000000000000000000184b61d27f6000000000000000000000000acc000818e5bbd911d5d449aa81cb5ca240247390000000000000000000000000000000000000000000000000000000000000000000000000000000000000000000000000000000000000000000000000000006000000000000000000000000000000000000000000000000000000000000000e41cff79cd000000000000000000000000acc000818e5bbd911d5d449aa81cb5ca240247390000000000000000000000000000000000000000000000000000000000000040000000000000000000000000000000000000000000000000000000000000006425c471a000000000000000000000000000000000000000000000000000000000000000000000000000000000000000002e2b1c42e38f5af81771e65d87729e57abd1337a00000000000000000000000000000000000000000000000000000000000fd2000000000000000000000000000000000000000000000000000000000000000000000000000000000000000000000000000000000000000000000000000000000000000000000000000000000000000000000000000000000000000000000000000000000000000000000000000000000000000014000000000000000000000000000000000000000000000000000000000000000000000000000000000000000000000000000000000000000000000000000000826785005f76911755911e4339f01bbb2ab3661712b6e918c9d67535f3dd1054933f93c1578b0b418a7b830b784e872a8a90f7af4b0536b66f3770789a96de0c311c5520f2ad633359355e9d5f152ed63c34fa0bd7bed2b1f8113d3deb19fb0dcb657296c4c0226a5a5692d8262ba50fe08a9e291d51b22be0de63857accee68bc861b000000000000000000000000000000000000000000000000000000000000",
        "nonce": "0x4be81",
        "chainId": "0x1ecf"
      },
      "additionalContracts": [],
      "isFixedGasLimit": false
    }
  ],
  "receipts": [
    {
      "status": "0x1",
      "cumulativeGasUsed": "0x41af3",
      "logs": [
        {
          "address": "0x2843c269d2a64ecfa63548e8b3fc0fd23b7f70cb",
          "topics": [
            "0xbb47ee3e183a558b1a2ff0874b079f3fc5478b7454eacf2bfc5af2ff5878f972"
          ],
          "data": "0x",
          "blockHash": "0xfa370f50bba2532212f83e00d94af9b00275089cf35225a80e21e03e14166f2d",
          "blockNumber": "0xcba75",
          "transactionHash": "0x33840f162f0865e57e7fd3ed79ab0ce90146d8cefdb4d58fc4c0f8b73dbaf737",
          "transactionIndex": "0x1",
          "logIndex": "0x0",
          "removed": false
        },
        {
          "address": "0xacc000818e5bbd911d5d449aa81cb5ca24024739",
          "topics": [
            "0x76a2a46953689d4861a5d3f6ed883ad7e6af674a21f8e162707159fc9dde614d",
            "0xc961c36ac064bc0a4f2e0be23c833c3e8d938587ce2f328fb818b8045e1137b1",
            "0x0000000000000000000000000000000000000000000000000000000000000001"
          ],
          "data": "0x",
          "blockHash": "0xfa370f50bba2532212f83e00d94af9b00275089cf35225a80e21e03e14166f2d",
          "blockNumber": "0xcba75",
          "transactionHash": "0x33840f162f0865e57e7fd3ed79ab0ce90146d8cefdb4d58fc4c0f8b73dbaf737",
          "transactionIndex": "0x1",
          "logIndex": "0x1",
          "removed": false
        },
        {
          "address": "0xacc000818e5bbd911d5d449aa81cb5ca24024739",
          "topics": [
            "0xf98448b987f1428e0e230e1f3c6e2ce15b5693eaf31827fbd0b1ec4b424ae7cf",
            "0x0000000000000000000000000000000000000000000000000000000000000000",
            "0x0000000000000000000000002e2b1c42e38f5af81771e65d87729e57abd1337a"
          ],
          "data": "0x00000000000000000000000000000000000000000000000000000000000fd2000000000000000000000000000000000000000000000000000000000067f7ea100000000000000000000000000000000000000000000000000000000000000000",
          "blockHash": "0xfa370f50bba2532212f83e00d94af9b00275089cf35225a80e21e03e14166f2d",
          "blockNumber": "0xcba75",
          "transactionHash": "0x33840f162f0865e57e7fd3ed79ab0ce90146d8cefdb4d58fc4c0f8b73dbaf737",
          "transactionIndex": "0x1",
          "logIndex": "0x2",
          "removed": false
        },
        {
          "address": "0x2843c269d2a64ecfa63548e8b3fc0fd23b7f70cb",
          "topics": [
            "0x49628fd1471006c1482da88028e9ce4dbb080b815c9b0344d39e5a8e6ec1419f",
            "0xb6d93bfff6847ac7b3b4ff0abcdc6e0e9cbbe95b001cd95716fde032eab7de3c",
            "0x0000000000000000000000002e2b1c42e38f5af81771e65d87729e57abd1337a",
            "0x0000000000000000000000000000000000000000000000000000000000000000"
          ],
          "data": "0x00000000000000000000000000000000000000000000000000000000000012c30000000000000000000000000000000000000000000000000000000000000001000000000000000000000000000000000000000000000000000000000008c4ef000000000000000000000000000000000000000000000000000000000008c4ef",
          "blockHash": "0xfa370f50bba2532212f83e00d94af9b00275089cf35225a80e21e03e14166f2d",
          "blockNumber": "0xcba75",
          "transactionHash": "0x33840f162f0865e57e7fd3ed79ab0ce90146d8cefdb4d58fc4c0f8b73dbaf737",
          "transactionIndex": "0x1",
          "logIndex": "0x3",
          "removed": false
        }
      ],
      "logsBloom": "0x00010000000008000000000000000000000000000000000000000000000000000008000000000000000000010000000000000000000000000000020000040000000000000200000000080004000000000000000000040000000000000000000800000200020000000000000000000800002000000000000000000000000000000000000000000000000002000000800008000000000000000000000000001000000400000000000000402000000000000000000000000008000002000000000000000000000000100001002000008000000000000000000000000000000060000000080400010000000000000000000000000000000000000000000000000000",
      "type": "0x2",
      "transactionHash": "0x33840f162f0865e57e7fd3ed79ab0ce90146d8cefdb4d58fc4c0f8b73dbaf737",
      "transactionIndex": "0x1",
      "blockHash": "0xfa370f50bba2532212f83e00d94af9b00275089cf35225a80e21e03e14166f2d",
      "blockNumber": "0xcba75",
      "gasUsed": "0x41af3",
      "effectiveGasPrice": "0x5f5e100",
      "from": "0x660ad4b5a74130a4796b4d54bc6750ae93c86e6c",
      "to": "0x2843c269d2a64ecfa63548e8b3fc0fd23b7f70cb",
      "contractAddress": null,
      "gasUsedForL1": "0x13712",
      "l1BlockNumber": "0x1535949"
    }
  ],
  "libraries": [],
  "pending": [],
  "returns": {},
  "timestamp": 1744300560,
  "chain": 7887,
  "commit": "33bf8698"
}