{
  "transactions": [
    {
      "hash": "0xf4faf3b688e448b825ac2ae947feb4acc2247548969d352c01297b1d9ebaf03a",
      "transactionType": "CALL",
      "contractName": null,
      "contractAddress": "0x2843c269d2a64ecfa63548e8b3fc0fd23b7f70cb",
      "function": "handleOps((address,uint256,bytes,bytes,uint256,uint256,uint256,uint256,uint256,bytes,bytes)[],address)",
      "arguments": [
        "[(0x2e2B1c42E38f5af81771e65D87729E57ABD1337a, 4968, 0x, 0xb61d27f6000000000000000000000000d157904639e89df05e89e0dabeec99ae3d74f9aa000000000000000000000000000000000000000000000000000000000000000000000000000000000000000000000000000000000000000000000000000000600000000000000000000000000000000000000000000000000000000000000024063d11de000000000000000000000000000000000000000000001fc3842bd1f071c0000000000000000000000000000000000000000000000000000000000000, 4000000, 210000, 21000, 1, 1000000000, 0x0000000000000000000000000000000000000000, 0xe7fcfcac9cc8a2a17766bf9294db75a7e37c4fcb2095381dbc48d5fcec2d00c5081c74ad34f4e93ca647e2d1e522d4aa17970e34c089aa7ce7a26f7f0538e8c71cc5d920ef2582e80087cd6659013b74e7e7ae7b3459c1df9e02e0a8b236e427aa5d1e61727d26849c65c8e0941f2a2d0f0a696a63130e1530a9b1dac97c35ae771b)]",
        "0x660ad4B5A74130a4796B4d54BC6750Ae93C86e6c"
      ],
      "transaction": {
        "from": "0x660ad4b5a74130a4796b4d54bc6750ae93c86e6c",
        "to": "0x2843c269d2a64ecfa63548e8b3fc0fd23b7f70cb",
        "value": "0x0",
        "input": "0x1fad948c0000000000000000000000000000000000000000000000000000000000000040000000000000000000000000660ad4b5a74130a4796b4d54bc6750ae93c86e6c000000000000000000000000000000000000000000000000000000000000000100000000000000000000000000000000000000000000000000000000000000200000000000000000000000002e2b1c42e38f5af81771e65d87729e57abd1337a00000000000000000000000000000000000000000000000000000000000013680000000000000000000000000000000000000000000000000000000000000160000000000000000000000000000000000000000000000000000000000000018000000000000000000000000000000000000000000000000000000000003d0900000000000000000000000000000000000000000000000000000000000003345000000000000000000000000000000000000000000000000000000000000052080000000000000000000000000000000000000000000000000000000000000001000000000000000000000000000000000000000000000000000000003b9aca00000000000000000000000000000000000000000000000000000000000000028000000000000000000000000000000000000000000000000000000000000002c0000000000000000000000000000000000000000000000000000000000000000000000000000000000000000000000000000000000000000000000000000000c4b61d27f6000000000000000000000000d157904639e89df05e89e0dabeec99ae3d74f9aa000000000000000000000000000000000000000000000000000000000000000000000000000000000000000000000000000000000000000000000000000000600000000000000000000000000000000000000000000000000000000000000024063d11de000000000000000000000000000000000000000000001fc3842bd1f071c000000000000000000000000000000000000000000000000000000000000000000000000000000000000000000000000000000000000000000000000000000000000000000000000000000000000000000000000000000000001400000000000000000000000000000000000000000000000000000000000000000000000000000000000000000000000000000000000000000000000000000082e7fcfcac9cc8a2a17766bf9294db75a7e37c4fcb2095381dbc48d5fcec2d00c5081c74ad34f4e93ca647e2d1e522d4aa17970e34c089aa7ce7a26f7f0538e8c71cc5d920ef2582e80087cd6659013b74e7e7ae7b3459c1df9e02e0a8b236e427aa5d1e61727d26849c65c8e0941f2a2d0f0a696a63130e1530a9b1dac97c35ae771b000000000000000000000000000000000000000000000000000000000000",
        "nonce": "0x4bf4a",
        "chainId": "0x1ecf"
      },
      "additionalContracts": [],
      "isFixedGasLimit": false
    }
  ],
  "receipts": [
    {
      "status": "0x1",
      "cumulativeGasUsed": "0x4c5cf",
      "logs": [
        {
          "address": "0x2843c269d2a64ecfa63548e8b3fc0fd23b7f70cb",
          "topics": [
            "0xbb47ee3e183a558b1a2ff0874b079f3fc5478b7454eacf2bfc5af2ff5878f972"
          ],
          "data": "0x",
          "blockHash": "0xa3a62b7b6119d8dd9bb3618757f8fda80d009eccf04a6622029027d919e7bbbe",
          "blockNumber": "0xd9a14",
          "transactionHash": "0xf4faf3b688e448b825ac2ae947feb4acc2247548969d352c01297b1d9ebaf03a",
          "transactionIndex": "0x1",
          "logIndex": "0x0",
          "removed": false
        },
        {
          "address": "0x010700808d59d2bb92257fcafacfe8e5bff7ab87",
          "topics": [
            "0xddf252ad1be2c89b69c2b068fc378daa952ba7f163c4a11628f55a4df523b3ef",
            "0x000000000000000000000000d157904639e89df05e89e0dabeec99ae3d74f9aa",
            "0x000000000000000000000000793500709506652fcc61f0d2d0fda605638d4293"
          ],
          "data": "0x000000000000000000000000000000000000000000001fc3842bd1f071c00000",
          "blockHash": "0xa3a62b7b6119d8dd9bb3618757f8fda80d009eccf04a6622029027d919e7bbbe",
          "blockNumber": "0xd9a14",
          "transactionHash": "0xf4faf3b688e448b825ac2ae947feb4acc2247548969d352c01297b1d9ebaf03a",
          "transactionIndex": "0x1",
          "logIndex": "0x1",
          "removed": false
        },
        {
          "address": "0x2843c269d2a64ecfa63548e8b3fc0fd23b7f70cb",
          "topics": [
            "0x49628fd1471006c1482da88028e9ce4dbb080b815c9b0344d39e5a8e6ec1419f",
            "0x23bb04625b339102ed63d859835d28f7f6e95dd327413aa75dfceb2199d08fa3",
            "0x0000000000000000000000002e2b1c42e38f5af81771e65d87729e57abd1337a",
            "0x0000000000000000000000000000000000000000000000000000000000000000"
          ],
          "data": "0x0000000000000000000000000000000000000000000000000000000000001368000000000000000000000000000000000000000000000000000000000000000100000000000000000000000000000000000000000000000000000000000883600000000000000000000000000000000000000000000000000000000000088360",
          "blockHash": "0xa3a62b7b6119d8dd9bb3618757f8fda80d009eccf04a6622029027d919e7bbbe",
          "blockNumber": "0xd9a14",
          "transactionHash": "0xf4faf3b688e448b825ac2ae947feb4acc2247548969d352c01297b1d9ebaf03a",
          "transactionIndex": "0x1",
          "logIndex": "0x2",
          "removed": false
        }
      ],
      "logsBloom": "0x00002000000400000000001000080000000000000000000000000000000001000008000000000000000000010000008000000000000000000000020000000000000000000000000000000008000000000000000020000000000000000000000800000000020000000000000000000800002000000000000000000010000000000000000000000000000000000000800000000000000000000000000000000000001400000000000000400000000000000000008000000000000002000000000000000002000000100001000000000080000000000000000000000000000020000000000000010000000000000000800000000000000000000000000000000800",
      "type": "0x2",
      "transactionHash": "0xf4faf3b688e448b825ac2ae947feb4acc2247548969d352c01297b1d9ebaf03a",
      "transactionIndex": "0x1",
      "blockHash": "0xa3a62b7b6119d8dd9bb3618757f8fda80d009eccf04a6622029027d919e7bbbe",
      "blockNumber": "0xd9a14",
      "gasUsed": "0x4c5cf",
      "effectiveGasPrice": "0x5f5e100",
      "from": "0x660ad4b5a74130a4796b4d54bc6750ae93c86e6c",
      "to": "0x2843c269d2a64ecfa63548e8b3fc0fd23b7f70cb",
      "contractAddress": null,
      "gasUsedForL1": "0x1e0e4",
      "l1BlockNumber": "0x15bfe00"
    }
  ],
  "libraries": [],
  "pending": [],
  "returns": {},
  "timestamp": 1751150965,
  "chain": 7887,
  "commit": "77adfb65"
}