{
  "transactions": [
    {
      "hash": "0xeb35ca97695936a2d7228f789913cdd56b4d03464b49be184c41a022ae09705b",
      "transactionType": "CREATE2",
      "contractName": "RewardsDistributor",
      "contractAddress": "0x78e6d65403329a7b9cfd7de2ce9e4b9f7ec57ce4",
      "function": null,
      "arguments": [
        "0x010700808D59d2bb92257fCafACfe8e5bFF7aB87",
        "1718690400",
        "0x8a4720488CA32f1223ccFE5A087e250fE3BC5D75"
      ],
      "transaction": {
        "from": "0x660ad4b5a74130a4796b4d54bc6750ae93c86e6c",
        "to": "0x4e59b44847b379578588920ca78fbf26c0b4956c",
        "value": "0x0",
        "input": "0x00000000000000000000000000000000000000000000000000000000000000006101006040523060805234801562000015575f80fd5b506040516200245138038062002451833981016040819052620000389162000129565b6200004262000060565b6001600160a01b0392831660c05260a0919091521660e0526200016e565b7ff0c57e16840df040f15088dc2f81fe391c3923bec73e23a9662efc9c229c6a00805468010000000000000000900460ff1615620000b15760405163f92ee8a960e01b815260040160405180910390fd5b80546001600160401b0390811614620001115780546001600160401b0319166001600160401b0390811782556040519081527fc7f505b2f371ae2175ee4913f4499e1f2633a7b5936321eed1cdaeb6115181d29060200160405180910390a15b50565b6001600160a01b038116811462000111575f80fd5b5f805f606084860312156200013c575f80fd5b8351620001498162000114565b602085015160408601519194509250620001638162000114565b809150509250925092565b60805160a05160c05160e05161227e620001d35f395f81816107100152610a3a01525f818161035c015281816109b901526111fe01525f818161051201528181610f080152610f3b01525f81816114c2015281816114eb015261162e015261227e5ff3fe60806040526004361061026a575f3560e01c8063863e76db1161014a578063c2ebe9e6116100be578063d547741f11610078578063d547741f146107a3578063d54ad2a1146107c2578063d7504742146107d7578063d8f9f12d146107f2578063d9c2702c14610806578063ebf0c71714610825575f80fd5b8063c2ebe9e6146106d4578063c5c03699146106ff578063c8c6738514610732578063ca21b17714610746578063cc11298e14610765578063cefff0fa14610784575f80fd5b8063a8b7a25a1161010f578063a8b7a25a14610605578063abadaf9a14610624578063ad3cb1cc14610639578063bd9d518b14610676578063be986420146106a1578063c0d8012c146106b5575f80fd5b8063863e76db1461057357806391d14854146105895780639b9b8c56146105a85780639d5eb3a1146105d3578063a217fddf146105f2575f80fd5b806347e63380116101e15780635b36c66b116101a65780635b36c66b146104ae578063682336b7146104cd57806371f8ef27146104e457806378e979251461050157806379c3d5e7146105345780637e1c0c0914610555575f80fd5b806347e63380146104125780634dcaf8b1146104455780634e102072146104705780634f1ef2861461048757806352d1902d1461049a575f80fd5b806318c411071161023257806318c411071461032c578063212ca34f1461034b57806321ff997014610396578063248a9ca3146103b55780632f2ff15d146103d457806336568abe146103f3575f80fd5b806301ffc9a71461026e57806304d50bd8146102a2578063063d11de146102cf5780630eb664ac146102f05780630ef096431461030f575b5f80fd5b348015610279575f80fd5b5061028d610288366004611da4565b610839565b60405190151581526020015b60405180910390f35b3480156102ad575f80fd5b506102c16102bc366004611de6565b61086f565b604051908152602001610299565b3480156102da575f80fd5b506102ee6102e9366004611dff565b6109a2565b005b3480156102fb575f80fd5b5061028d61030a366004611de6565b6109f8565b34801561031a575f80fd5b506102ee610329366004611de6565b50565b348015610337575f80fd5b506102c1610346366004611de6565b610a04565b348015610356575f80fd5b5061037e7f000000000000000000000000000000000000000000000000000000000000000081565b6040516001600160a01b039091168152602001610299565b3480156103a1575f80fd5b506102ee6103b0366004611dff565b610af0565b3480156103c0575f80fd5b506102c16103cf366004611dff565b610b4e565b3480156103df575f80fd5b506102ee6103ee366004611e16565b610b6e565b3480156103fe575f80fd5b506102ee61040d366004611e16565b610b90565b34801561041d575f80fd5b506102c17f56730d7d989818781b81ff2da8c4c452dd13af73dfb8c4f4723e21d17335fd2481565b348015610450575f80fd5b506102c161045f366004611de6565b60086020525f908152604090205481565b34801561047b575f80fd5b506102c163675cc72b81565b6102ee610495366004611e85565b610bc8565b3480156104a5575f80fd5b506102c1610be3565b3480156104b9575f80fd5b506102ee6104c8366004611f25565b610bfe565b3480156104d8575f80fd5b506102c163671a6e3a81565b3480156104ef575f80fd5b506102c169010f0cf064dd5920000081565b34801561050c575f80fd5b506102c17f000000000000000000000000000000000000000000000000000000000000000081565b34801561053f575f80fd5b50610548610e24565b6040516102999190611f45565b348015610560575f80fd5b506102c16a034f086f3b33b68400000081565b34801561057e575f80fd5b506102c16201518081565b348015610594575f80fd5b5061028d6105a3366004611e16565b610e35565b3480156105b3575f80fd5b506102c16105c2366004611de6565b600a6020525f908152604090205481565b3480156105de575f80fd5b506102ee6105ed366004611de6565b610e6b565b3480156105fd575f80fd5b506102c15f81565b348015610610575f80fd5b506102ee61061f366004611de6565b610eb8565b34801561062f575f80fd5b506102c160035481565b348015610644575f80fd5b50610669604051806040016040528060058152602001640352e302e360dc1b81525081565b6040516102999190611fb3565b348015610681575f80fd5b506102c1610690366004611de6565b60096020525f908152604090205481565b3480156106ac575f80fd5b506102c1602881565b3480156106c0575f80fd5b506102c16106cf366004611dff565b610f05565b3480156106df575f80fd5b506102c16106ee366004611dff565b60066020525f908152604090205481565b34801561070a575f80fd5b5061037e7f000000000000000000000000000000000000000000000000000000000000000081565b34801561073d575f80fd5b506102c1611014565b348015610751575f80fd5b506102ee610760366004611fe5565b61102a565b348015610770575f80fd5b506102c161077f366004611f25565b611286565b34801561078f575f80fd5b506102ee61079e366004611dff565b6112aa565b3480156107ae575f80fd5b506102ee6107bd366004611e16565b6112e7565b3480156107cd575f80fd5b506102c160015481565b3480156107e2575f80fd5b506102c1670de0b6b3a764000081565b3480156107fd575f80fd5b506102c1611303565b348015610811575f80fd5b506102c1610820366004611dff565b611309565b348015610830575f80fd5b506102c15f5481565b5f6001600160e01b03198216637965db0b60e01b148061086957506301ffc9a760e01b6001600160e01b03198316145b92915050565b5f61087b600b83611320565b1561088857505f19919050565b6001600160a01b0382165f9081526009602052604090205415806108d157506001600160a01b0382165f908152600960205260409020546108cd9062015180906120b4565b4210155b156108e7575069010f0cf064dd59200000919050565b5f6108f562015180426120db565b6001600160a01b0384165f908152600960205260408120549192509061091f9062015180906120db565b90508082111561093c575069010f0cf064dd592000009392505050565b6001600160a01b0384165f908152600a602052604090205469010f0cf064dd592000001115610999576001600160a01b0384165f908152600a60205260409020546109919069010f0cf064dd592000006120ee565b949350505050565b505f9392505050565b5f6109ac81611341565b6109f46001600160a01b037f00000000000000000000000000000000000000000000000000000000000000001673793500709506652fcc61f0d2d0fda605638d42938461134b565b5050565b5f610869600b83611320565b6001600160a01b038181165f8181526002602052604080822054905163751b97e760e11b815260048101939093529092909183917f0000000000000000000000000000000000000000000000000000000000000000169063ea372fce90602401602060405180830381865afa158015610a7f573d5f803e3d5ffd5b505050506040513d601f19601f82011682018060405250810190610aa39190612101565b905063671a6e3a8110158015610abc575063675cc72b81105b15610ae957670de0b6b3a7640000821015610ad75781610991565b610991670de0b6b3a7640000836120ee565b5092915050565b7f56730d7d989818781b81ff2da8c4c452dd13af73dfb8c4f4723e21d17335fd24610b1a81611341565b5f54827f26df13263ccd588bd14d17b939ae977c1d51960da437d7eb886d1cfb6f3d068260405160405180910390a3505f55565b5f9081525f80516020612229833981519152602052604090206001015490565b610b7782610b4e565b610b8081611341565b610b8a838361139d565b50505050565b6001600160a01b0381163314610bb95760405163334bd91960e11b815260040160405180910390fd5b610bc3828261143e565b505050565b610bd06114b7565b610bd98261155d565b6109f48282611567565b5f610bec611623565b505f8051602061220983398151915290565b7ff0c57e16840df040f15088dc2f81fe391c3923bec73e23a9662efc9c229c6a008054600160401b810460ff16159067ffffffffffffffff165f81158015610c435750825b90505f8267ffffffffffffffff166001148015610c5f5750303b155b905081158015610c6d575080155b15610c8b5760405163f92ee8a960e01b815260040160405180910390fd5b845467ffffffffffffffff191660011785558315610cb557845460ff60401b1916600160401b1785555b610cbd61166c565b610cc561166c565b610ccf5f3361139d565b50610cfa7f56730d7d989818781b81ff2da8c4c452dd13af73dfb8c4f4723e21d17335fd243361139d565b505f878155600387905560015b60288111610dd357670de0b6b3a76400005f5b82811015610d43576069610d2f836064612118565b610d3991906120db565b9150600101610d1a565b505f670de0b6b3a7640000610d63836a034f086f3b33b684000000612118565b610d6d91906120db565b90505f84610d86836a034f086f3b33b6840000006120ee565b610d9091906120ee565b90508060065f610da16001886120ee565b815260208101919091526040015f2055610dbb81866120b4565b94505050508080610dcb9061212f565b915050610d07565b50508315610e1b57845460ff60401b19168555604051600181527fc7f505b2f371ae2175ee4913f4499e1f2633a7b5936321eed1cdaeb6115181d29060200160405180910390a15b50505050505050565b6060610e30600b611674565b905090565b5f9182525f80516020612229833981519152602090815260408084206001600160a01b0393909316845291905290205460ff1690565b5f610e7581611341565b610e80600b83611680565b506040516001600160a01b038316907f68ef3aa953187edc98ed83d14858f20b7a4b3359d39fd9eff4bea91e2d98333f905f90a25050565b5f610ec281611341565b610ecd600b83611694565b506040516001600160a01b038316907f0df5589edc13d46bb1d4d9df78ec2616f3529f1e8ceaccd34b1fb8a787edcd5b905f90a25050565b5f7f0000000000000000000000000000000000000000000000000000000000000000821015610f3557505f919050565b5f610f607f0000000000000000000000000000000000000000000000000000000000000000846120ee565b90505f610f706276a700836120db565b90505f6028821015610ff6575f5b82811015610fa8575f81815260066020526040902054610f9e90836120b4565b9150600101610f7e565b505f610fb76276a70085612147565b5f848152600660205260408120549192506276a700610fd68484612118565b610fe091906120db565b9050610fec81856120b4565b9350505050610991565b61100b6a034f086f3b33b684000000826120b4565b95945050505050565b5f600154611020611303565b610e3091906120ee565b6110326116a8565b5f80546001600160a01b038416825260086020526040909120540361107a5760405163f83369ff60e01b81526001600160a01b03831660048201526024015b60405180910390fd5b61108382610a04565b81116110ad57604051632058b6db60e01b81526001600160a01b0383166004820152602401611071565b604080516001600160a01b03841660208201529081018290525f9060600160408051601f198184030181528282528051602091820120908301520160405160208183030381529060405280519060200120905061110c845f54836116f2565b15155f0361113157838160405163571e214960e11b815260040161107192919061215a565b5f61113b84610a04565b61114590846120ee565b905061114f611014565b81111561118e578060015461116491906120b4565b61116c611303565b604051630a0bf79560e01b815260048101929092526024820152604401611071565b5f6111998583611707565b90508060015f8282546111ac91906120b4565b90915550506001600160a01b0385165f90815260026020526040812080548392906111d89084906120b4565b90915550505f80546001600160a01b0380881683526008602052604090922055611225907f000000000000000000000000000000000000000000000000000000000000000016868361134b565b60405181906001600160a01b038716907f5329b89678b0f095cae2abe10b88ad57329871ee9296ae8f358a46b9fa0ff328905f90a3505050610bc360017f9b779b17422d0df92223018b32b4d1fa46e071723d6817e2486d003becc55f0055565b5f61129083610f05565b61129983610f05565b6112a391906120ee565b9392505050565b5f6112b481611341565b60035460405183907fd12719f869a4621325e2d0f36e2a6fefcd87e2defb17983e2f2dcbe8b6759622905f90a350600355565b6112f082610b4e565b6112f981611341565b610b8a838361143e565b5f610e30425b5f60035461131683610f05565b61086991906120b4565b6001600160a01b0381165f90815260018301602052604081205415156112a3565b6103298133611869565b604080516001600160a01b038416602482015260448082018490528251808303909101815260649091019091526020810180516001600160e01b031663a9059cbb60e01b179052610bc39084906118a2565b5f5f805160206122298339815191526113b68484610e35565b611435575f848152602082815260408083206001600160a01b03871684529091529020805460ff191660011790556113eb3390565b6001600160a01b0316836001600160a01b0316857f2f8788117e7eff1d82e926ec794901d17c78024a50270940304540a733656f0d60405160405180910390a46001915050610869565b5f915050610869565b5f5f805160206122298339815191526114578484610e35565b15611435575f848152602082815260408083206001600160a01b0387168085529252808320805460ff1916905551339287917ff6391f5c32d9c69d2a47ea670b442974b53935d1edc7fd64eb21e047a839171b9190a46001915050610869565b306001600160a01b037f000000000000000000000000000000000000000000000000000000000000000016148061153d57507f00000000000000000000000000000000000000000000000000000000000000006001600160a01b03166115315f80516020612209833981519152546001600160a01b031690565b6001600160a01b031614155b1561155b5760405163703e46dd60e11b815260040160405180910390fd5b565b5f6109f481611341565b816001600160a01b03166352d1902d6040518163ffffffff1660e01b8152600401602060405180830381865afa9250505080156115c1575060408051601f3d908101601f191682019092526115be91810190612101565b60015b6115e957604051634c9c8ce360e01b81526001600160a01b0383166004820152602401611071565b5f80516020612209833981519152811461161957604051632a87526960e21b815260048101829052602401611071565b610bc38383611903565b306001600160a01b037f0000000000000000000000000000000000000000000000000000000000000000161461155b5760405163703e46dd60e11b815260040160405180910390fd5b61155b611958565b60605f6112a3836119a1565b5f6112a3836001600160a01b0384166119fa565b5f6112a3836001600160a01b038416611a46565b7f9b779b17422d0df92223018b32b4d1fa46e071723d6817e2486d003becc55f008054600119016116ec57604051633ee5aeb560e01b815260040160405180910390fd5b60029055565b5f826116fe8584611b20565b14949350505050565b5f611713600b84611320565b1561175a576001600160a01b0383165f908152600960209081526040808320429055600a9091528120805484929061174c9084906120b4565b909155508291506108699050565b5f61176862015180426120db565b6001600160a01b0385165f9081526009602052604081205491925090156117b4576001600160a01b0385165f908152600960205260409020546117af9062015180906120db565b6117b6565b5f5b6001600160a01b0386165f9081526009602052604090205490915015806117dc57508082115b156117fa576001600160a01b0385165f908152600a60205260408120555b5f6118048661086f565b9050808511156118165780935061181a565b8493505b6001600160a01b0386165f908152600a6020526040812080548692906118419084906120b4565b9091555050506001600160a01b0385165f908152600960205260409020429055505092915050565b6118738282610e35565b6109f45760405163e2517d3f60e01b81526001600160a01b038216600482015260248101839052604401611071565b5f6118b66001600160a01b03841683611b62565b905080515f141580156118da5750808060200190518101906118d891906121a6565b155b15610bc357604051635274afe760e01b81526001600160a01b0384166004820152602401611071565b61190c82611b6f565b6040516001600160a01b038316907fbc7cd75a20ee27fd9adebab32041f755214dbc6bffa90cc0225b39da2e5c2d3b905f90a280511561195057610bc38282611bd2565b6109f4611c3b565b7ff0c57e16840df040f15088dc2f81fe391c3923bec73e23a9662efc9c229c6a0054600160401b900460ff1661155b57604051631afcd79f60e31b815260040160405180910390fd5b6060815f018054806020026020016040519081016040528092919081815260200182805480156119ee57602002820191905f5260205f20905b8154815260200190600101908083116119da575b50505050509050919050565b5f818152600183016020526040812054611a3f57508154600181810184555f848152602080822090930184905584548482528286019093526040902091909155610869565b505f610869565b5f8181526001830160205260408120548015611435575f611a686001836120ee565b85549091505f90611a7b906001906120ee565b9050808214611ada575f865f018281548110611a9957611a996121c5565b905f5260205f200154905080875f018481548110611ab957611ab96121c5565b5f918252602080832090910192909255918252600188019052604090208390555b8554869080611aeb57611aeb6121d9565b600190038181905f5260205f20015f90559055856001015f8681526020019081526020015f205f905560019350505050610869565b5f81815b8451811015611b5a57611b5082868381518110611b4357611b436121c5565b6020026020010151611c5a565b9150600101611b24565b509392505050565b60606112a383835f611c86565b806001600160a01b03163b5f03611ba457604051634c9c8ce360e01b81526001600160a01b0382166004820152602401611071565b5f8051602061220983398151915280546001600160a01b0319166001600160a01b0392909216919091179055565b60605f80846001600160a01b031684604051611bee91906121ed565b5f60405180830381855af49150503d805f8114611c26576040519150601f19603f3d011682016040523d82523d5f602084013e611c2b565b606091505b509150915061100b858383611d1f565b341561155b5760405163b398979f60e01b815260040160405180910390fd5b5f818310611c74575f8281526020849052604090206112a3565b5f8381526020839052604090206112a3565b606081471015611cab5760405163cd78605960e01b8152306004820152602401611071565b5f80856001600160a01b03168486604051611cc691906121ed565b5f6040518083038185875af1925050503d805f8114611d00576040519150601f19603f3d011682016040523d82523d5f602084013e611d05565b606091505b5091509150611d15868383611d1f565b9695505050505050565b606082611d3457611d2f82611d7b565b6112a3565b8151158015611d4b57506001600160a01b0384163b155b15611d7457604051639996b31560e01b81526001600160a01b0385166004820152602401611071565b50806112a3565b805115611d8b5780518082602001fd5b604051630a12f52160e11b815260040160405180910390fd5b5f60208284031215611db4575f80fd5b81356001600160e01b0319811681146112a3575f80fd5b80356001600160a01b0381168114611de1575f80fd5b919050565b5f60208284031215611df6575f80fd5b6112a382611dcb565b5f60208284031215611e0f575f80fd5b5035919050565b5f8060408385031215611e27575f80fd5b82359150611e3760208401611dcb565b90509250929050565b634e487b7160e01b5f52604160045260245ffd5b604051601f8201601f1916810167ffffffffffffffff81118282101715611e7d57611e7d611e40565b604052919050565b5f8060408385031215611e96575f80fd5b611e9f83611dcb565b915060208084013567ffffffffffffffff80821115611ebc575f80fd5b818601915086601f830112611ecf575f80fd5b813581811115611ee157611ee1611e40565b611ef3601f8201601f19168501611e54565b91508082528784828501011115611f08575f80fd5b80848401858401375f848284010152508093505050509250929050565b5f8060408385031215611f36575f80fd5b50508035926020909101359150565b602080825282518282018190525f9190848201906040850190845b81811015611f855783516001600160a01b031683529284019291840191600101611f60565b50909695505050505050565b5f5b83811015611fab578181015183820152602001611f93565b50505f910152565b602081525f8251806020840152611fd1816040850160208701611f91565b601f01601f19169190910160400192915050565b5f805f60608486031215611ff7575f80fd5b833567ffffffffffffffff8082111561200e575f80fd5b818601915086601f830112612021575f80fd5b813560208282111561203557612035611e40565b8160051b9250612046818401611e54565b828152928401810192818101908a85111561205f575f80fd5b948201945b8486101561207d57853582529482019490820190612064565b975061208c9050888201611dcb565b955050505050604084013590509250925092565b634e487b7160e01b5f52601160045260245ffd5b80820180821115610869576108696120a0565b634e487b7160e01b5f52601260045260245ffd5b5f826120e9576120e96120c7565b500490565b81810381811115610869576108696120a0565b5f60208284031215612111575f80fd5b5051919050565b8082028115828204841417610869576108696120a0565b5f60018201612140576121406120a0565b5060010190565b5f82612155576121556120c7565b500690565b604080825283519082018190525f906020906060840190828701845b8281101561219257815184529284019290840190600101612176565b505050602093909301939093525092915050565b5f602082840312156121b6575f80fd5b815180151581146112a3575f80fd5b634e487b7160e01b5f52603260045260245ffd5b634e487b7160e01b5f52603160045260245ffd5b5f82516121fe818460208701611f91565b919091019291505056fe360894a13ba1a3210667c828492db98dca3e2076cc3735a920a3ca505d382bbc02dd7bc7dec4dceedda775e58dd541e08a116c6c53815c0bd028192f7b626800a26469706673582212206666bc0876f46ff7eccd728e9551a162c2306f4f93c85865584c294c5e916a6b64736f6c63430008180033000000000000000000000000010700808d59d2bb92257fcafacfe8e5bff7ab8700000000000000000000000000000000000000000000000000000000667122600000000000000000000000008a4720488ca32f1223ccfe5a087e250fe3bc5d75",
        "nonce": "0x4bf3a",
        "chainId": "0x1ecf"
      },
      "additionalContracts": [],
      "isFixedGasLimit": false
    },
    {
      "hash": "0xa07948c0552e6153154e702f63e582674f6c9085fe49e3ed85ac4c47d3335f20",
      "transactionType": "CALL",
      "contractName": null,
      "contractAddress": "0x2843c269d2a64ecfa63548e8b3fc0fd23b7f70cb",
      "function": "handleOps((address,uint256,bytes,bytes,uint256,uint256,uint256,uint256,uint256,bytes,bytes)[],address)",
      "arguments": [
        "[(0x2e2B1c42E38f5af81771e65D87729E57ABD1337a, 4961, 0x, 0xb61d27f6000000000000000000000000d157904639e89df05e89e0dabeec99ae3d74f9aa0000000000000000000000000000000000000000000000000000000000000000000000000000000000000000000000000000000000000000000000000000006000000000000000000000000000000000000000000000000000000000000000644f1ef28600000000000000000000000078e6d65403329a7b9cfd7de2ce9e4b9f7ec57ce40000000000000000000000000000000000000000000000000000000000000040000000000000000000000000000000000000000000000000000000000000000000000000000000000000000000000000000000000000000000000000, 4000000, 210000, 21000, 1, 1000000000, 0x0000000000000000000000000000000000000000, 0x27a625c0c3636eab6173851db8cf0935c11ba0e5f4dff14f4e4da285792b71915a1f97ff320d4a9755f732d1e3b7a74be07a8be2094203f52eef411849811e861b7fbea1cad5f1ba27f511c32d383b88d272a87b8f4c5933b540fdd7d2c340819d44265bd9d0294671ae3ab6534a9d9c76b9687e55a25bd8a90087a54d4c432a321b)]",
        "0x660ad4B5A74130a4796B4d54BC6750Ae93C86e6c"
      ],
      "transaction": {
        "from": "0x660ad4b5a74130a4796b4d54bc6750ae93c86e6c",
        "to": "0x2843c269d2a64ecfa63548e8b3fc0fd23b7f70cb",
        "value": "0x0",
        "input": "0x1fad948c0000000000000000000000000000000000000000000000000000000000000040000000000000000000000000660ad4b5a74130a4796b4d54bc6750ae93c86e6c000000000000000000000000000000000000000000000000000000000000000100000000000000000000000000000000000000000000000000000000000000200000000000000000000000002e2b1c42e38f5af81771e65d87729e57abd1337a00000000000000000000000000000000000000000000000000000000000013610000000000000000000000000000000000000000000000000000000000000160000000000000000000000000000000000000000000000000000000000000018000000000000000000000000000000000000000000000000000000000003d0900000000000000000000000000000000000000000000000000000000000003345000000000000000000000000000000000000000000000000000000000000052080000000000000000000000000000000000000000000000000000000000000001000000000000000000000000000000000000000000000000000000003b9aca0000000000000000000000000000000000000000000000000000000000000002c0000000000000000000000000000000000000000000000000000000000000030000000000000000000000000000000000000000000000000000000000000000000000000000000000000000000000000000000000000000000000000000000104b61d27f6000000000000000000000000d157904639e89df05e89e0dabeec99ae3d74f9aa0000000000000000000000000000000000000000000000000000000000000000000000000000000000000000000000000000000000000000000000000000006000000000000000000000000000000000000000000000000000000000000000644f1ef28600000000000000000000000078e6d65403329a7b9cfd7de2ce9e4b9f7ec57ce400000000000000000000000000000000000000000000000000000000000000400000000000000000000000000000000000000000000000000000000000000000000000000000000000000000000000000000000000000000000000000000000000000000000000000000000000000000000000000000000000000000000000000000000000000000000000000000000000000000000000140000000000000000000000000000000000000000000000000000000000000000000000000000000000000000000000000000000000000000000000000000008227a625c0c3636eab6173851db8cf0935c11ba0e5f4dff14f4e4da285792b71915a1f97ff320d4a9755f732d1e3b7a74be07a8be2094203f52eef411849811e861b7fbea1cad5f1ba27f511c32d383b88d272a87b8f4c5933b540fdd7d2c340819d44265bd9d0294671ae3ab6534a9d9c76b9687e55a25bd8a90087a54d4c432a321b000000000000000000000000000000000000000000000000000000000000",
        "nonce": "0x4bf3b",
        "chainId": "0x1ecf"
      },
      "additionalContracts": [],
      "isFixedGasLimit": false
    },
    {
      "hash": "0x058a9101e6c8f2215974fc2eaab3a5dcbbbd1ecc7c961807dca65c68a2c3b933",
      "transactionType": "CALL",
      "contractName": null,
      "contractAddress": "0x2843c269d2a64ecfa63548e8b3fc0fd23b7f70cb",
      "function": "handleOps((address,uint256,bytes,bytes,uint256,uint256,uint256,uint256,uint256,bytes,bytes)[],address)",
      "arguments": [
        "[(0x2e2B1c42E38f5af81771e65D87729E57ABD1337a, 4962, 0x, 0xb61d27f6000000000000000000000000d157904639e89df05e89e0dabeec99ae3d74f9aa000000000000000000000000000000000000000000000000000000000000000000000000000000000000000000000000000000000000000000000000000000600000000000000000000000000000000000000000000000000000000000000024063d11de0000000000000000000000000000000000000000000054b40b1f852bda00000000000000000000000000000000000000000000000000000000000000, 4000000, 210000, 21000, 1, 1000000000, 0x0000000000000000000000000000000000000000, 0xee3c3e4cd136c53b1b488fd19796b62e1726160d1b0c12bab9c437e57581b6fd6f7c77aadbab520595dce524c0d81c984495a44d5a438af79fc8523f2003189b1bc09bb0506bbd95d0be828acc18871a50c228d7da2ae9f9c04d56e78bfa16654a6050bdc85d8f34d81fbad7d2c52a8bc958914d06b66c4544555031b13a17c0341b)]",
        "0x660ad4B5A74130a4796B4d54BC6750Ae93C86e6c"
      ],
      "transaction": {
        "from": "0x660ad4b5a74130a4796b4d54bc6750ae93c86e6c",
        "to": "0x2843c269d2a64ecfa63548e8b3fc0fd23b7f70cb",
        "value": "0x0",
        "input": "0x1fad948c0000000000000000000000000000000000000000000000000000000000000040000000000000000000000000660ad4b5a74130a4796b4d54bc6750ae93c86e6c000000000000000000000000000000000000000000000000000000000000000100000000000000000000000000000000000000000000000000000000000000200000000000000000000000002e2b1c42e38f5af81771e65d87729e57abd1337a00000000000000000000000000000000000000000000000000000000000013620000000000000000000000000000000000000000000000000000000000000160000000000000000000000000000000000000000000000000000000000000018000000000000000000000000000000000000000000000000000000000003d0900000000000000000000000000000000000000000000000000000000000003345000000000000000000000000000000000000000000000000000000000000052080000000000000000000000000000000000000000000000000000000000000001000000000000000000000000000000000000000000000000000000003b9aca00000000000000000000000000000000000000000000000000000000000000028000000000000000000000000000000000000000000000000000000000000002c0000000000000000000000000000000000000000000000000000000000000000000000000000000000000000000000000000000000000000000000000000000c4b61d27f6000000000000000000000000d157904639e89df05e89e0dabeec99ae3d74f9aa000000000000000000000000000000000000000000000000000000000000000000000000000000000000000000000000000000000000000000000000000000600000000000000000000000000000000000000000000000000000000000000024063d11de0000000000000000000000000000000000000000000054b40b1f852bda0000000000000000000000000000000000000000000000000000000000000000000000000000000000000000000000000000000000000000000000000000000000000000000000000000000000000000000000000000000000001400000000000000000000000000000000000000000000000000000000000000000000000000000000000000000000000000000000000000000000000000000082ee3c3e4cd136c53b1b488fd19796b62e1726160d1b0c12bab9c437e57581b6fd6f7c77aadbab520595dce524c0d81c984495a44d5a438af79fc8523f2003189b1bc09bb0506bbd95d0be828acc18871a50c228d7da2ae9f9c04d56e78bfa16654a6050bdc85d8f34d81fbad7d2c52a8bc958914d06b66c4544555031b13a17c0341b000000000000000000000000000000000000000000000000000000000000",
        "nonce": "0x4bf3c",
        "chainId": "0x1ecf"
      },
      "additionalContracts": [],
      "isFixedGasLimit": false
    }
  ],
  "receipts": [
    {
      "status": "0x1",
      "cumulativeGasUsed": "0x3dad03",
      "logs": [
        {
          "address": "0x78e6d65403329a7b9cfd7de2ce9e4b9f7ec57ce4",
          "topics": [
            "0xc7f505b2f371ae2175ee4913f4499e1f2633a7b5936321eed1cdaeb6115181d2"
          ],
          "data": "0x000000000000000000000000000000000000000000000000ffffffffffffffff",
          "blockHash": "0x7c63d8a59632ff8d0be3064a16eb6332c38c4e2c58e7e49e2f9a30a06dd639c0",
          "blockNumber": "0xd83c6",
          "transactionHash": "0xeb35ca97695936a2d7228f789913cdd56b4d03464b49be184c41a022ae09705b",
          "transactionIndex": "0x1",
          "logIndex": "0x0",
          "removed": false
        }
      ],
      "logsBloom": "0x00000000001000000000000000000000000000000000000000000000000000000000000000000000000000000000000000000000000000000000000000000000000000000000000000000000000000000000000000000000000000000000000000000000000000000000000000000000000000000000000000000000000000000000000000000000000800000000000000000000000080000000000000000000000000000000000000000000000000000000000000000000000000000000000000000000000000000000000000000000000001000004000000000000000000000000000000000000000000000080000000000000000000000000000000000000",
      "type": "0x2",
      "transactionHash": "0xeb35ca97695936a2d7228f789913cdd56b4d03464b49be184c41a022ae09705b",
      "transactionIndex": "0x1",
      "blockHash": "0x7c63d8a59632ff8d0be3064a16eb6332c38c4e2c58e7e49e2f9a30a06dd639c0",
      "blockNumber": "0xd83c6",
      "gasUsed": "0x3dad03",
      "effectiveGasPrice": "0x5f5e100",
      "from": "0x660ad4b5a74130a4796b4d54bc6750ae93c86e6c",
      "to": "0x4e59b44847b379578588920ca78fbf26c0b4956c",
      "contractAddress": null,
      "gasUsedForL1": "0x1f4065",
      "l1BlockNumber": "0x15b567e"
    },
    {
      "status": "0x1",
      "cumulativeGasUsed": "0x5caea",
      "logs": [
        {
          "address": "0x2843c269d2a64ecfa63548e8b3fc0fd23b7f70cb",
          "topics": [
            "0xbb47ee3e183a558b1a2ff0874b079f3fc5478b7454eacf2bfc5af2ff5878f972"
          ],
          "data": "0x",
          "blockHash": "0x965d46309d8aab5679f77d96719c14c2b73b2c1d6f678b5bee40fdaf9c41ea27",
          "blockNumber": "0xd83c7",
          "transactionHash": "0xa07948c0552e6153154e702f63e582674f6c9085fe49e3ed85ac4c47d3335f20",
          "transactionIndex": "0x1",
          "logIndex": "0x0",
          "removed": false
        },
        {
          "address": "0xd157904639e89df05e89e0dabeec99ae3d74f9aa",
          "topics": [
            "0xbc7cd75a20ee27fd9adebab32041f755214dbc6bffa90cc0225b39da2e5c2d3b",
            "0x00000000000000000000000078e6d65403329a7b9cfd7de2ce9e4b9f7ec57ce4"
          ],
          "data": "0x",
          "blockHash": "0x965d46309d8aab5679f77d96719c14c2b73b2c1d6f678b5bee40fdaf9c41ea27",
          "blockNumber": "0xd83c7",
          "transactionHash": "0xa07948c0552e6153154e702f63e582674f6c9085fe49e3ed85ac4c47d3335f20",
          "transactionIndex": "0x1",
          "logIndex": "0x1",
          "removed": false
        },
        {
          "address": "0x2843c269d2a64ecfa63548e8b3fc0fd23b7f70cb",
          "topics": [
            "0x49628fd1471006c1482da88028e9ce4dbb080b815c9b0344d39e5a8e6ec1419f",
            "0x2a02192d2d24ab0c7c874a2a7fd9f543989a28554c3e017a11ec1dfc0b675fde",
            "0x0000000000000000000000002e2b1c42e38f5af81771e65d87729e57abd1337a",
            "0x0000000000000000000000000000000000000000000000000000000000000000"
          ],
          "data": "0x0000000000000000000000000000000000000000000000000000000000001361000000000000000000000000000000000000000000000000000000000000000100000000000000000000000000000000000000000000000000000000000847d200000000000000000000000000000000000000000000000000000000000847d2",
          "blockHash": "0x965d46309d8aab5679f77d96719c14c2b73b2c1d6f678b5bee40fdaf9c41ea27",
          "blockNumber": "0xd83c7",
          "transactionHash": "0xa07948c0552e6153154e702f63e582674f6c9085fe49e3ed85ac4c47d3335f20",
          "transactionIndex": "0x1",
          "logIndex": "0x2",
          "removed": false
        }
      ],
      "logsBloom": "0x00000000000000000000000000000000400800000000000000000000000000000008000000020000000000010000000000000000000000000000020000000000000000000000000000004000000002000000000000000000000000100000000800000000020000000000000000000800002000010000000000000000000004000000000000000000000000000000800000000000000000000000000000000000000400000000000000408000000000000000000000000000000002000100000000000020000000100001000000000000000000000000000000000000000020000000000000010000000000000000000000000000000000000020000000000000",
      "type": "0x2",
      "transactionHash": "0xa07948c0552e6153154e702f63e582674f6c9085fe49e3ed85ac4c47d3335f20",
      "transactionIndex": "0x1",
      "blockHash": "0x965d46309d8aab5679f77d96719c14c2b73b2c1d6f678b5bee40fdaf9c41ea27",
      "blockNumber": "0xd83c7",
      "gasUsed": "0x5caea",
      "effectiveGasPrice": "0x5f5e100",
      "from": "0x660ad4b5a74130a4796b4d54bc6750ae93c86e6c",
      "to": "0x2843c269d2a64ecfa63548e8b3fc0fd23b7f70cb",
      "contractAddress": null,
      "gasUsedForL1": "0x32676",
      "l1BlockNumber": "0x15b567e"
    },
    {
      "status": "0x1",
      "cumulativeGasUsed": "0x5f604",
      "logs": [
        {
          "address": "0x2843c269d2a64ecfa63548e8b3fc0fd23b7f70cb",
          "topics": [
            "0xbb47ee3e183a558b1a2ff0874b079f3fc5478b7454eacf2bfc5af2ff5878f972"
          ],
          "data": "0x",
          "blockHash": "0xbc8288928be51564298f7111a3cdb1197dca3fb3d1161b8064448f436f2b0485",
          "blockNumber": "0xd83c8",
          "transactionHash": "0x058a9101e6c8f2215974fc2eaab3a5dcbbbd1ecc7c961807dca65c68a2c3b933",
          "transactionIndex": "0x1",
          "logIndex": "0x0",
          "removed": false
        },
        {
          "address": "0x010700808d59d2bb92257fcafacfe8e5bff7ab87",
          "topics": [
            "0xddf252ad1be2c89b69c2b068fc378daa952ba7f163c4a11628f55a4df523b3ef",
            "0x000000000000000000000000d157904639e89df05e89e0dabeec99ae3d74f9aa",
            "0x000000000000000000000000793500709506652fcc61f0d2d0fda605638d4293"
          ],
          "data": "0x0000000000000000000000000000000000000000000054b40b1f852bda000000",
          "blockHash": "0xbc8288928be51564298f7111a3cdb1197dca3fb3d1161b8064448f436f2b0485",
          "blockNumber": "0xd83c8",
          "transactionHash": "0x058a9101e6c8f2215974fc2eaab3a5dcbbbd1ecc7c961807dca65c68a2c3b933",
          "transactionIndex": "0x1",
          "logIndex": "0x1",
          "removed": false
        },
        {
          "address": "0x2843c269d2a64ecfa63548e8b3fc0fd23b7f70cb",
          "topics": [
            "0x49628fd1471006c1482da88028e9ce4dbb080b815c9b0344d39e5a8e6ec1419f",
            "0x9bce1b3a642370fd150d9c1151434c96d2186f7fc3f5a4933ea62d759dbd87b6",
            "0x0000000000000000000000002e2b1c42e38f5af81771e65d87729e57abd1337a",
            "0x0000000000000000000000000000000000000000000000000000000000000000"
          ],
          "data": "0x0000000000000000000000000000000000000000000000000000000000001362000000000000000000000000000000000000000000000000000000000000000100000000000000000000000000000000000000000000000000000000000883600000000000000000000000000000000000000000000000000000000000088360",
          "blockHash": "0xbc8288928be51564298f7111a3cdb1197dca3fb3d1161b8064448f436f2b0485",
          "blockNumber": "0xd83c8",
          "transactionHash": "0x058a9101e6c8f2215974fc2eaab3a5dcbbbd1ecc7c961807dca65c68a2c3b933",
          "transactionIndex": "0x1",
          "logIndex": "0x2",
          "removed": false
        }
      ],
      "logsBloom": "0x00002000000400000000001000080000020000000000000000000000000001000008000000000000000000010000000000000000000000000000020000000000000000000000000000000008000000000000000002000000000000000000000800000000020000000000000000000800002000100000000000000010000000000000000000000000000000000000800000000000000000000000000000000000001400000000000000400000000000000000000000000000000002000000000000000002000000100001000000000080000000000000000000000000000020000000000000010000000000000000800000000000000000000000000000000800",
      "type": "0x2",
      "transactionHash": "0x058a9101e6c8f2215974fc2eaab3a5dcbbbd1ecc7c961807dca65c68a2c3b933",
      "transactionIndex": "0x1",
      "blockHash": "0xbc8288928be51564298f7111a3cdb1197dca3fb3d1161b8064448f436f2b0485",
      "blockNumber": "0xd83c8",
      "gasUsed": "0x5f604",
      "effectiveGasPrice": "0x5f5e100",
      "from": "0x660ad4b5a74130a4796b4d54bc6750ae93c86e6c",
      "to": "0x2843c269d2a64ecfa63548e8b3fc0fd23b7f70cb",
      "contractAddress": null,
      "gasUsedForL1": "0x3110d",
      "l1BlockNumber": "0x15b567e"
    }
  ],
  "libraries": [],
  "pending": [],
  "returns": {},
  "timestamp": 1750633433,
  "chain": 7887,
  "commit": "a39f76b7"
}