{
  "transactions": [
    {
      "hash": "0xca46e2bed1919a84db8e712d01d1994e6f8d2e9d18863399a26c59fdbe93d6f4",
      "transactionType": "CALL",
      "contractName": null,
      "contractAddress": "0x2843c269d2a64ecfa63548e8b3fc0fd23b7f70cb",
      "function": "handleOps((address,uint256,bytes,bytes,uint256,uint256,uint256,uint256,uint256,bytes,bytes)[],address)",
      "arguments": [
        "[(0x2e2B1c42E38f5af81771e65D87729E57ABD1337a, 4616, 0x, 0xb61d27f6000000000000000000000000acc000818e5bbd911d5d449aa81cb5ca2402473900000000000000000000000000000000000000000000000000000000000000000000000000000000000000000000000000000000000000000000000000000060000000000000000000000000000000000000000000000000000000000000006425c471a0000000000000000000000000000000000000000000000000783b0946b8c9d2e300000000000000000000000028fc10e12a78f986c78f973fc70ed88072b34c8e00000000000000000000000000000000000000000000000000000000000e808000000000000000000000000000000000000000000000000000000000, 4000000, 210000, 21000, 1, 1000000000, 0x0000000000000000000000000000000000000000, 0xf98d025c8fde31fc03baf0385155f600a2b8f22eb5ce66eb107025ec7fa14bd02de6330264e02fb562f6fe77d0c835f75e156f1ffe01e4cef4a6387b94f98cd31b8fa50d88f4194ef28485ca147110ba4c20afe6b0fa44199c311fd954953aafb1205590fd08abde87d8280bc39b796249a1ed5e41d315b876898a40fc7c19e9ec1b)]",
        "0x660ad4B5A74130a4796B4d54BC6750Ae93C86e6c"
      ],
      "transaction": {
        "from": "0x660ad4b5a74130a4796b4d54bc6750ae93c86e6c",
        "to": "0x2843c269d2a64ecfa63548e8b3fc0fd23b7f70cb",
        "value": "0x0",
        "input": "0x1fad948c0000000000000000000000000000000000000000000000000000000000000040000000000000000000000000660ad4b5a74130a4796b4d54bc6750ae93c86e6c000000000000000000000000000000000000000000000000000000000000000100000000000000000000000000000000000000000000000000000000000000200000000000000000000000002e2b1c42e38f5af81771e65d87729e57abd1337a00000000000000000000000000000000000000000000000000000000000012080000000000000000000000000000000000000000000000000000000000000160000000000000000000000000000000000000000000000000000000000000018000000000000000000000000000000000000000000000000000000000003d0900000000000000000000000000000000000000000000000000000000000003345000000000000000000000000000000000000000000000000000000000000052080000000000000000000000000000000000000000000000000000000000000001000000000000000000000000000000000000000000000000000000003b9aca0000000000000000000000000000000000000000000000000000000000000002c0000000000000000000000000000000000000000000000000000000000000030000000000000000000000000000000000000000000000000000000000000000000000000000000000000000000000000000000000000000000000000000000104b61d27f6000000000000000000000000acc000818e5bbd911d5d449aa81cb5ca2402473900000000000000000000000000000000000000000000000000000000000000000000000000000000000000000000000000000000000000000000000000000060000000000000000000000000000000000000000000000000000000000000006425c471a0000000000000000000000000000000000000000000000000783b0946b8c9d2e300000000000000000000000028fc10e12a78f986c78f973fc70ed88072b34c8e00000000000000000000000000000000000000000000000000000000000e80800000000000000000000000000000000000000000000000000000000000000000000000000000000000000000000000000000000000000000000000000000000000000000000000000000000000000000000000000000001400000000000000000000000000000000000000000000000000000000000000000000000000000000000000000000000000000000000000000000000000000082f98d025c8fde31fc03baf0385155f600a2b8f22eb5ce66eb107025ec7fa14bd02de6330264e02fb562f6fe77d0c835f75e156f1ffe01e4cef4a6387b94f98cd31b8fa50d88f4194ef28485ca147110ba4c20afe6b0fa44199c311fd954953aafb1205590fd08abde87d8280bc39b796249a1ed5e41d315b876898a40fc7c19e9ec1b000000000000000000000000000000000000000000000000000000000000",
        "nonce": "0x4bd14",
        "chainId": "0x1ecf"
      },
      "additionalContracts": [],
      "isFixedGasLimit": false
    }
  ],
  "receipts": [
    {
      "status": "0x1",
      "cumulativeGasUsed": "0x39983",
      "logs": [
        {
          "address": "0x2843c269d2a64ecfa63548e8b3fc0fd23b7f70cb",
          "topics": [
            "0xbb47ee3e183a558b1a2ff0874b079f3fc5478b7454eacf2bfc5af2ff5878f972"
          ],
          "data": "0x",
          "blockHash": "0x4d72dc97a0e2717d64518810bbad22d931e7cd4e095896f7e372621a9ab37444",
          "blockNumber": "0xbbeac",
          "transactionHash": "0xca46e2bed1919a84db8e712d01d1994e6f8d2e9d18863399a26c59fdbe93d6f4",
          "transactionIndex": "0x1",
          "logIndex": "0x0",
          "removed": false
        },
        {
          "address": "0xacc000818e5bbd911d5d449aa81cb5ca24024739",
          "topics": [
            "0xf98448b987f1428e0e230e1f3c6e2ce15b5693eaf31827fbd0b1ec4b424ae7cf",
            "0x000000000000000000000000000000000000000000000000783b0946b8c9d2e3",
            "0x00000000000000000000000028fc10e12a78f986c78f973fc70ed88072b34c8e"
          ],
          "data": "0x00000000000000000000000000000000000000000000000000000000000e80800000000000000000000000000000000000000000000000000000000067da02ee0000000000000000000000000000000000000000000000000000000000000000",
          "blockHash": "0x4d72dc97a0e2717d64518810bbad22d931e7cd4e095896f7e372621a9ab37444",
          "blockNumber": "0xbbeac",
          "transactionHash": "0xca46e2bed1919a84db8e712d01d1994e6f8d2e9d18863399a26c59fdbe93d6f4",
          "transactionIndex": "0x1",
          "logIndex": "0x1",
          "removed": false
        },
        {
          "address": "0x2843c269d2a64ecfa63548e8b3fc0fd23b7f70cb",
          "topics": [
            "0x49628fd1471006c1482da88028e9ce4dbb080b815c9b0344d39e5a8e6ec1419f",
            "0xf6f15a8ab4a9059dc73fda0ef0e8c944617c2e6c1b97afc93070569db3fa5756",
            "0x0000000000000000000000002e2b1c42e38f5af81771e65d87729e57abd1337a",
            "0x0000000000000000000000000000000000000000000000000000000000000000"
          ],
          "data": "0x0000000000000000000000000000000000000000000000000000000000001208000000000000000000000000000000000000000000000000000000000000000100000000000000000000000000000000000000000000000000000000000852f200000000000000000000000000000000000000000000000000000000000852f2",
          "blockHash": "0x4d72dc97a0e2717d64518810bbad22d931e7cd4e095896f7e372621a9ab37444",
          "blockNumber": "0xbbeac",
          "transactionHash": "0xca46e2bed1919a84db8e712d01d1994e6f8d2e9d18863399a26c59fdbe93d6f4",
          "transactionIndex": "0x1",
          "logIndex": "0x2",
          "removed": false
        }
      ],
      "logsBloom": "0x00000000000008000000000000000000000000000000000010800000000000008008000000000000000000010000000000000000000000000000020000000000000000000000000000000000000000000000000000000000000000000000000800000000020000000000000000200800002000000000000000000000000000000000000000000000000002000000800008000000040000000000000000001000000400000000000000402000000000000020000000000008000002000000000000000000000000100001000000000000000000000000000000000000000020000010000000010000000000000000000000800000000000000000100000000000",
      "type": "0x2",
      "transactionHash": "0xca46e2bed1919a84db8e712d01d1994e6f8d2e9d18863399a26c59fdbe93d6f4",
      "transactionIndex": "0x1",
      "blockHash": "0x4d72dc97a0e2717d64518810bbad22d931e7cd4e095896f7e372621a9ab37444",
      "blockNumber": "0xbbeac",
      "gasUsed": "0x39983",
      "effectiveGasPrice": "0x5f5e100",
      "from": "0x660ad4b5a74130a4796b4d54bc6750ae93c86e6c",
      "to": "0x2843c269d2a64ecfa63548e8b3fc0fd23b7f70cb",
      "contractAddress": null,
      "gasUsedForL1": "0xe95e",
      "l1BlockNumber": "0x150de8b"
    }
  ],
  "libraries": [],
  "pending": [],
  "returns": {},
  "timestamp": 1742340846,
  "chain": 7887,
  "commit": "55bc0a1a"
}