{
  "transactions": [
    {
      "hash": "0x300ca03707caaa9e36162c24eb4664cef78cfa710a0e16fb631246f82d1eb820",
      "transactionType": "CALL",
      "contractName": null,
      "contractAddress": "0x1842a4eff3efd24c50b63c3cf89cecee245fc2bd",
      "function": "addDepositFor(address)",
      "arguments": [
        "0x3e9727470C66B1e77034590926CDe0242B5A3dCc"
      ],
      "transaction": {
        "from": "0x660ad4b5a74130a4796b4d54bc6750ae93c86e6c",
        "to": "0x1842a4eff3efd24c50b63c3cf89cecee245fc2bd",
        "value": "0x2c68af0bb140000",
        "input": "0x0993969a0000000000000000000000003e9727470c66b1e77034590926cde0242b5a3dcc",
        "nonce": "0x4bdbb",
        "chainId": "0x1ecf"
      },
      "additionalContracts": [],
      "isFixedGasLimit": false
    }
  ],
  "receipts": [
    {
      "status": "0x1",
      "cumulativeGasUsed": "0x10d59",
      "logs": [
        {
          "address": "0x2843c269d2a64ecfa63548e8b3fc0fd23b7f70cb",
          "topics": [
            "0x2da466a7b24304f47e87fa2e1e5a81b9831ce54fec19055ce277ca2f39ba42c4",
            "0x0000000000000000000000001842a4eff3efd24c50b63c3cf89cecee245fc2bd"
          ],
          "data": "0x000000000000000000000000000000000000000000000001ae5ad23502b7551b",
          "blockHash": "0x5460e6b8ef0431b0668e5fb854ad027127c394438a957e37deb1fec7ce838edb",
          "blockNumber": "0xbe3b9",
          "transactionHash": "0x300ca03707caaa9e36162c24eb4664cef78cfa710a0e16fb631246f82d1eb820",
          "transactionIndex": "0x1",
          "logIndex": "0x0",
          "removed": false
        }
      ],
      "logsBloom": "0x40000000000000000000000000004000000000000000000000000000000000000000000000000000000000000000000000000000000000000000000000000000000000000000000000000000000000000000000000000000000000000000200800000000000000000000000000000000002000000000000000000000000200000000000000000000000000000000800000000000000000000000000000000000000000000000000000000000000000000004000000000000000000000000000000000000000000000000000000000000000000000000000000000000000000000040000000000000000000000000000000000000000000000000000000000000",
      "type": "0x2",
      "transactionHash": "0x300ca03707caaa9e36162c24eb4664cef78cfa710a0e16fb631246f82d1eb820",
      "transactionIndex": "0x1",
      "blockHash": "0x5460e6b8ef0431b0668e5fb854ad027127c394438a957e37deb1fec7ce838edb",
      "blockNumber": "0xbe3b9",
      "gasUsed": "0x10d59",
      "effectiveGasPrice": "0x5f5e100",
      "from": "0x660ad4b5a74130a4796b4d54bc6750ae93c86e6c",
      "to": "0x1842a4eff3efd24c50b63c3cf89cecee245fc2bd",
      "contractAddress": null,
      "gasUsedForL1": "0x29",
      "l1BlockNumber": "0x15199fd"
    }
  ],
  "libraries": [],
  "pending": [],
  "returns": {},
  "timestamp": 1742919454,
  "chain": 7887,
  "commit": "898bea16"
}