{
  "transactions": [
    {
      "hash": "0x74f44e2e6c232d83476dd631ca68a5547b5cb5d9fbaa830dc71d05413c0aedde",
      "transactionType": "CALL",
      "contractName": null,
      "contractAddress": "0x2843c269d2a64ecfa63548e8b3fc0fd23b7f70cb",
      "function": "handleOps((address,uint256,bytes,bytes,uint256,uint256,uint256,uint256,uint256,bytes,bytes)[],address)",
      "arguments": [
        "[(0x2e2B1c42E38f5af81771e65D87729E57ABD1337a, 3823, 0x, 0xb61d27f60000000000000000000000005a2b641b84b0230c8e75f55d5afd27f4dbd59d5b0000000000000000000000000000000000000000000000000000000000000000000000000000000000000000000000000000000000000000000000000000006000000000000000000000000000000000000000000000000000000000000007a4e2c463160000000000000000000000003e9727470c66b1e77034590926cde0242b5a3dcc00000000000000000000000000000000000000000000000000000000000000600000000000000000000000000000000000000000000000000000000000000400000000000000000000000000000000000000000000000000000000000000001c000000000000000000000000da100067134959575d87d11d54f2722ba3c934ab000000000000000000000000057e70cca0dc435786a50fcf440bf8fcc1eeaf170000000000000000000000000e7000967bcb5fc76a5a89082db04ed0bf9548d800000000000000000000000005dc0010c9902ecf6cbc921c6a4bd971c69e5a2e000000000000000000000000e040001c257237839a69e9683349c173297876f000000000000000000000000005de0003c333a503bea5224fcc64f0d4b5446c38000000000000000000000000e16e00eefcd866e8ae5a4e43bbdd6831da6391e1000000000000000000000000ee70005ec41738ea7ed2b97d7d56ac829f1e99e60000000000000000000000005da1004f7341d510c6651c67b4efceea76cac0e8000000000000000000000000505de0f7a5d786063348ab5bc31e3a21344fa7b00000000000000000000000000050110dd97a2bf4fdd8d69530b3e85d2e3edfbc0000000000000000000000000ee700095aedfe0814fff7d6dfd75461de8e2b19000000000000000000000000e70f10cd4bd932a28b80d48d771026a4c88e6285000000000000000000000000501b7c581aef05b8dd6c4924338fcbe8f930ab4600000000000000000000000011a1e3777010fcbc31bd1b9b095b2009ca04b1ed00000000000000000000000017a060e324a8629fbd096a295cc88ee4939d36460000000000000000000000000a070085e529c98036b1779dba6d3896e10197d100000000000000000000000057e090ce57d03152fa6dc4b45fa0382c19c2409d0000000000000000000000005705d0c6956bccc6cf91b122ec36ef0f741659b30000000000000000000000000b7c000778b98ae2bc5af57906ef3578c243c15900000000000000000000000006d7002a76545f255657ac27313b28831aa6bced000000000000000000000000a9b000d6479e5fa53010b0d67c55fff823f618440000000000000000000000001100003a4f372b763d98407adad1ac310203d2df0000000000000000000000006000003a8ed10ef59185adf65fc51c72f975be850000000000000000000000009e70005da96a71017572258f4d1bba67e0bee246000000000000000000000000cbe70061ce17e7469c474af342e063bacb33e5c1000000000000000000000000cbb7c0f98bb7312b821e78ab76312cd3950fbfca000000000000000000000000aa0e00f095eb986cb65fd3fa328782c7fe4cefd9000000000000000000000000000000000000000000000000000000000000001c000000000000000000000000000000000000000000000000000000000000000100000000000000000000000000000000000000000000000000000000000000010000000000000000000000000000000000000000000000000000000000000001000000000000000000000000000000000000000000000000000000000000000100000000000000000000000000000000000000000000000000000000000000010000000000000000000000000000000000000000000000000000000000000001000000000000000000000000000000000000000000000000000000000000000100000000000000000000000000000000000000000000000000000000000000010000000000000000000000000000000000000000000000000000000000000001000000000000000000000000000000000000000000000000000000000000000100000000000000000000000000000000000000000000000000000000000000010000000000000000000000000000000000000000000000000000000000000001000000000000000000000000000000000000000000000000000000000000000100000000000000000000000000000000000000000000000000000000000000010000000000000000000000000000000000000000000000000000000000000001000000000000000000000000000000000000000000000000000000000000000100000000000000000000000000000000000000000000000000000000000000010000000000000000000000000000000000000000000000000000000000000001000000000000000000000000000000000000000000000000000000000000000100000000000000000000000000000000000000000000000000000000000000010000000000000000000000000000000000000000000000000000000000000001000000000000000000000000000000000000000000000000000000000000000100000000000000000000000000000000000000000000000000000000000000010000000000000000000000000000000000000000000000000000000000000001000000000000000000000000000000000000000000000000000000000000000100000000000000000000000000000000000000000000000000000000000000010000000000000000000000000000000000000000000000000000000000000001000000000000000000000000000000000000000000000000000000000000000100000000000000000000000000000000000000000000000000000000, 4000000, 210000, 21000, 1, 1000000000, 0x0000000000000000000000000000000000000000, 0x837ac4bfe88d79a3fa1a91cbcf1067253e0a21aab7b521c70fe533486a635dfa3b3e81679e4b1ea5d3543f7da09f50ae14d50e81ed904a97900c496ed8ab2c341bdde9bdb687f14e22339a5eb47802dcee6319a7ec3750cf1716276ac76d7ee9d513f774d409d8a0d106a6953d329a0b57e0c13ee62c8e1bb952fc6d9b1dbe6c651c)]",
        "0x660ad4B5A74130a4796B4d54BC6750Ae93C86e6c"
      ],
      "transaction": {
        "from": "0x660ad4b5a74130a4796b4d54bc6750ae93c86e6c",
        "to": "0x2843c269d2a64ecfa63548e8b3fc0fd23b7f70cb",
        "value": "0x0",
        "input": "0x1fad948c0000000000000000000000000000000000000000000000000000000000000040000000000000000000000000660ad4b5a74130a4796b4d54bc6750ae93c86e6c000000000000000000000000000000000000000000000000000000000000000100000000000000000000000000000000000000000000000000000000000000200000000000000000000000002e2b1c42e38f5af81771e65d87729e57abd1337a0000000000000000000000000000000000000000000000000000000000000eef0000000000000000000000000000000000000000000000000000000000000160000000000000000000000000000000000000000000000000000000000000018000000000000000000000000000000000000000000000000000000000003d0900000000000000000000000000000000000000000000000000000000000003345000000000000000000000000000000000000000000000000000000000000052080000000000000000000000000000000000000000000000000000000000000001000000000000000000000000000000000000000000000000000000003b9aca000000000000000000000000000000000000000000000000000000000000000a000000000000000000000000000000000000000000000000000000000000000a4000000000000000000000000000000000000000000000000000000000000000000000000000000000000000000000000000000000000000000000000000000844b61d27f60000000000000000000000005a2b641b84b0230c8e75f55d5afd27f4dbd59d5b0000000000000000000000000000000000000000000000000000000000000000000000000000000000000000000000000000000000000000000000000000006000000000000000000000000000000000000000000000000000000000000007a4e2c463160000000000000000000000003e9727470c66b1e77034590926cde0242b5a3dcc00000000000000000000000000000000000000000000000000000000000000600000000000000000000000000000000000000000000000000000000000000400000000000000000000000000000000000000000000000000000000000000001c000000000000000000000000da100067134959575d87d11d54f2722ba3c934ab000000000000000000000000057e70cca0dc435786a50fcf440bf8fcc1eeaf170000000000000000000000000e7000967bcb5fc76a5a89082db04ed0bf9548d800000000000000000000000005dc0010c9902ecf6cbc921c6a4bd971c69e5a2e000000000000000000000000e040001c257237839a69e9683349c173297876f000000000000000000000000005de0003c333a503bea5224fcc64f0d4b5446c38000000000000000000000000e16e00eefcd866e8ae5a4e43bbdd6831da6391e1000000000000000000000000ee70005ec41738ea7ed2b97d7d56ac829f1e99e60000000000000000000000005da1004f7341d510c6651c67b4efceea76cac0e8000000000000000000000000505de0f7a5d786063348ab5bc31e3a21344fa7b00000000000000000000000000050110dd97a2bf4fdd8d69530b3e85d2e3edfbc0000000000000000000000000ee700095aedfe0814fff7d6dfd75461de8e2b19000000000000000000000000e70f10cd4bd932a28b80d48d771026a4c88e6285000000000000000000000000501b7c581aef05b8dd6c4924338fcbe8f930ab4600000000000000000000000011a1e3777010fcbc31bd1b9b095b2009ca04b1ed00000000000000000000000017a060e324a8629fbd096a295cc88ee4939d36460000000000000000000000000a070085e529c98036b1779dba6d3896e10197d100000000000000000000000057e090ce57d03152fa6dc4b45fa0382c19c2409d0000000000000000000000005705d0c6956bccc6cf91b122ec36ef0f741659b30000000000000000000000000b7c000778b98ae2bc5af57906ef3578c243c15900000000000000000000000006d7002a76545f255657ac27313b28831aa6bced000000000000000000000000a9b000d6479e5fa53010b0d67c55fff823f618440000000000000000000000001100003a4f372b763d98407adad1ac310203d2df0000000000000000000000006000003a8ed10ef59185adf65fc51c72f975be850000000000000000000000009e70005da96a71017572258f4d1bba67e0bee246000000000000000000000000cbe70061ce17e7469c474af342e063bacb33e5c1000000000000000000000000cbb7c0f98bb7312b821e78ab76312cd3950fbfca000000000000000000000000aa0e00f095eb986cb65fd3fa328782c7fe4cefd9000000000000000000000000000000000000000000000000000000000000001c00000000000000000000000000000000000000000000000000000000000000010000000000000000000000000000000000000000000000000000000000000001000000000000000000000000000000000000000000000000000000000000000100000000000000000000000000000000000000000000000000000000000000010000000000000000000000000000000000000000000000000000000000000001000000000000000000000000000000000000000000000000000000000000000100000000000000000000000000000000000000000000000000000000000000010000000000000000000000000000000000000000000000000000000000000001000000000000000000000000000000000000000000000000000000000000000100000000000000000000000000000000000000000000000000000000000000010000000000000000000000000000000000000000000000000000000000000001000000000000000000000000000000000000000000000000000000000000000100000000000000000000000000000000000000000000000000000000000000010000000000000000000000000000000000000000000000000000000000000001000000000000000000000000000000000000000000000000000000000000000100000000000000000000000000000000000000000000000000000000000000010000000000000000000000000000000000000000000000000000000000000001000000000000000000000000000000000000000000000000000000000000000100000000000000000000000000000000000000000000000000000000000000010000000000000000000000000000000000000000000000000000000000000001000000000000000000000000000000000000000000000000000000000000000100000000000000000000000000000000000000000000000000000000000000010000000000000000000000000000000000000000000000000000000000000001000000000000000000000000000000000000000000000000000000000000000100000000000000000000000000000000000000000000000000000000000000010000000000000000000000000000000000000000000000000000000000000001000000000000000000000000000000000000000000000000000000000000000100000000000000000000000000000000000000000000000000000000000000010000000000000000000000000000000000000000000000000000000000000000000000000000000000000000000000000000000000000000000000000000000000000000000000000000000000000000000000000000001400000000000000000000000000000000000000000000000000000000000000000000000000000000000000000000000000000000000000000000000000000082837ac4bfe88d79a3fa1a91cbcf1067253e0a21aab7b521c70fe533486a635dfa3b3e81679e4b1ea5d3543f7da09f50ae14d50e81ed904a97900c496ed8ab2c341bdde9bdb687f14e22339a5eb47802dcee6319a7ec3750cf1716276ac76d7ee9d513f774d409d8a0d106a6953d329a0b57e0c13ee62c8e1bb952fc6d9b1dbe6c651c000000000000000000000000000000000000000000000000000000000000",
        "nonce": "0x4b7e7",
        "chainId": "0x1ecf"
      },
      "additionalContracts": [],
      "isFixedGasLimit": false
    }
  ],
  "receipts": [
    {
      "status": "0x1",
      "cumulativeGasUsed": "0x14f8e1",
      "logs": [
        {
          "address": "0x2843c269d2a64ecfa63548e8b3fc0fd23b7f70cb",
          "topics": [
            "0xbb47ee3e183a558b1a2ff0874b079f3fc5478b7454eacf2bfc5af2ff5878f972"
          ],
          "data": "0x",
          "blockHash": "0x743bbcdd2506ce09ecf03fee9136fb55e80cddfe65aea22e3467ab74b9de0e9b",
          "blockNumber": "0x83de8",
          "transactionHash": "0x74f44e2e6c232d83476dd631ca68a5547b5cb5d9fbaa830dc71d05413c0aedde",
          "transactionIndex": "0x1",
          "logIndex": "0x0",
          "removed": false
        },
        {
          "address": "0x2843c269d2a64ecfa63548e8b3fc0fd23b7f70cb",
          "topics": [
            "0x49628fd1471006c1482da88028e9ce4dbb080b815c9b0344d39e5a8e6ec1419f",
            "0xb7ba5dccbbefaa2419f3ff573d110380e4fc110826292732a3fb79b15f21f6e4",
            "0x0000000000000000000000002e2b1c42e38f5af81771e65d87729e57abd1337a",
            "0x0000000000000000000000000000000000000000000000000000000000000000"
          ],
          "data": "0x0000000000000000000000000000000000000000000000000000000000000eef000000000000000000000000000000000000000000000000000000000000000100000000000000000000000000000000000000000000000000000000000afcfe00000000000000000000000000000000000000000000000000000000000afcfe",
          "blockHash": "0x743bbcdd2506ce09ecf03fee9136fb55e80cddfe65aea22e3467ab74b9de0e9b",
          "blockNumber": "0x83de8",
          "transactionHash": "0x74f44e2e6c232d83476dd631ca68a5547b5cb5d9fbaa830dc71d05413c0aedde",
          "transactionIndex": "0x1",
          "logIndex": "0x1",
          "removed": false
        }
      ],
      "logsBloom": "0x00000000000000000000000000000000000000000000000000000000000000000008000000000000000000010000000000000000000000000000020000000000000000000000000000000000000000000000000000000000004000000000000800000000020004000000000000000800002000000000000000000000000000000000000000000000000000000000800000000020000000000000000000000000000400000000000000400000000000000000000000000000000002000000000000000000000000100001000000000000000000000000000000000000000020000000000000010000000000000000000000000000000000000000000000000000",
      "type": "0x2",
      "transactionHash": "0x74f44e2e6c232d83476dd631ca68a5547b5cb5d9fbaa830dc71d05413c0aedde",
      "transactionIndex": "0x1",
      "blockHash": "0x743bbcdd2506ce09ecf03fee9136fb55e80cddfe65aea22e3467ab74b9de0e9b",
      "blockNumber": "0x83de8",
      "gasUsed": "0x14f8e1",
      "effectiveGasPrice": "0x5f5e100",
      "from": "0x660ad4b5a74130a4796b4d54bc6750ae93c86e6c",
      "to": "0x2843c269d2a64ecfa63548e8b3fc0fd23b7f70cb",
      "contractAddress": null,
      "gasUsedForL1": "0xf1a30",
      "l1BlockNumber": "0x144110d"
    }
  ],
  "libraries": [],
  "pending": [],
  "returns": {},
  "timestamp": 1732215318,
  "chain": 7887,
  "commit": "8f2ea4e"
}