{
  "transactions": [
    {
      "hash": null,
      "transactionType": "CALL",
      "contractName": null,
      "contractAddress": "0x2843c269d2a64ecfa63548e8b3fc0fd23b7f70cb",
      "function": "handleOps((address,uint256,bytes,bytes,uint256,uint256,uint256,uint256,uint256,bytes,bytes)[],address)",
      "arguments": [
        "[(0x2e2B1c42E38f5af81771e65D87729E57ABD1337a, 3578, 0x, 0xb61d27f6000000000000000000000000010700808d59d2bb92257fcafacfe8e5bff7ab870000000000000000000000000000000000000000000000000000000000000000000000000000000000000000000000000000000000000000000000000000006000000000000000000000000000000000000000000000000000000000000000449dc29fac000000000000000000000000d157904639e89df05e89e0dabeec99ae3d74f9aa0000000000000000000000000000000000000000000000097c9ce4cf6d5c000000000000000000000000000000000000000000000000000000000000, 4000000, 210000, 21000, 1, 1000000000, 0x0000000000000000000000000000000000000000, 0x71e731d7784465c735b2924e0ec080d6dd4e73a18d4a1b0f1e857278d0f7113f3c6442fec9fddd2d35772dde49cc706ee65cc0ab4a7b4ebc7ec31ebc020061981be0ff81808a9fa090f2f42207e6e9b8da1bdfa52c9b5bccc4f2f8f268df6051414081ad9cdbb50baab8cfa1732f4a5d4d14d545a2aa44049533732e13839b99d71b)]",
        "0x660ad4B5A74130a4796B4d54BC6750Ae93C86e6c"
      ],
      "transaction": {
        "from": "0x660ad4b5a74130a4796b4d54bc6750ae93c86e6c",
        "to": "0x2843c269d2a64ecfa63548e8b3fc0fd23b7f70cb",
        "gas": "0x3dcec",
        "value": "0x0",
        "input": "0x1fad948c0000000000000000000000000000000000000000000000000000000000000040000000000000000000000000660ad4b5a74130a4796b4d54bc6750ae93c86e6c000000000000000000000000000000000000000000000000000000000000000100000000000000000000000000000000000000000000000000000000000000200000000000000000000000002e2b1c42e38f5af81771e65d87729e57abd1337a0000000000000000000000000000000000000000000000000000000000000dfa0000000000000000000000000000000000000000000000000000000000000160000000000000000000000000000000000000000000000000000000000000018000000000000000000000000000000000000000000000000000000000003d0900000000000000000000000000000000000000000000000000000000000003345000000000000000000000000000000000000000000000000000000000000052080000000000000000000000000000000000000000000000000000000000000001000000000000000000000000000000000000000000000000000000003b9aca0000000000000000000000000000000000000000000000000000000000000002a000000000000000000000000000000000000000000000000000000000000002e0000000000000000000000000000000000000000000000000000000000000000000000000000000000000000000000000000000000000000000000000000000e4b61d27f6000000000000000000000000010700808d59d2bb92257fcafacfe8e5bff7ab870000000000000000000000000000000000000000000000000000000000000000000000000000000000000000000000000000000000000000000000000000006000000000000000000000000000000000000000000000000000000000000000449dc29fac000000000000000000000000d157904639e89df05e89e0dabeec99ae3d74f9aa0000000000000000000000000000000000000000000000097c9ce4cf6d5c0000000000000000000000000000000000000000000000000000000000000000000000000000000000000000000000000000000000000000000000000000000000000000000000000000000000000000000000000000000000140000000000000000000000000000000000000000000000000000000000000000000000000000000000000000000000000000000000000000000000000000008271e731d7784465c735b2924e0ec080d6dd4e73a18d4a1b0f1e857278d0f7113f3c6442fec9fddd2d35772dde49cc706ee65cc0ab4a7b4ebc7ec31ebc020061981be0ff81808a9fa090f2f42207e6e9b8da1bdfa52c9b5bccc4f2f8f268df6051414081ad9cdbb50baab8cfa1732f4a5d4d14d545a2aa44049533732e13839b99d71b000000000000000000000000000000000000000000000000000000000000",
        "nonce": "0x5f30",
        "chainId": "0x1ecf"
      },
      "additionalContracts": [],
      "isFixedGasLimit": false
    },
    {
      "hash": null,
      "transactionType": "CALL",
      "contractName": null,
      "contractAddress": "0x2843c269d2a64ecfa63548e8b3fc0fd23b7f70cb",
      "function": "handleOps((address,uint256,bytes,bytes,uint256,uint256,uint256,uint256,uint256,bytes,bytes)[],address)",
      "arguments": [
        "[(0x2e2B1c42E38f5af81771e65D87729E57ABD1337a, 3579, 0x, 0xb61d27f6000000000000000000000000010700808d59d2bb92257fcafacfe8e5bff7ab8700000000000000000000000000000000000000000000000000000000000000000000000000000000000000000000000000000000000000000000000000000060000000000000000000000000000000000000000000000000000000000000004440c10f19000000000000000000000000bfc95f5aa3c146fa406639180990e0ee459164760000000000000000000000000000000000000000000000056bc75e2d6310000000000000000000000000000000000000000000000000000000000000, 4000000, 210000, 21000, 1, 1000000000, 0x0000000000000000000000000000000000000000, 0xaed847ce89e1e052e3836e201d82559655b1060fcbe9c0f37fc07f1b4594d7277b2584ec8b06a95daa15240e7ce8d9be2b157ed4bf7da9528136d27db15ce5ea1baa7e3d90351e5e4880bc284b1275173f227ad21b4f6669a03dbed4fbfbeb73f56ef53dea9533096ee5ec5520c316cbb70b283745c4052dc0b819d3ceca3444101c)]",
        "0x660ad4B5A74130a4796B4d54BC6750Ae93C86e6c"
      ],
      "transaction": {
        "from": "0x660ad4b5a74130a4796b4d54bc6750ae93c86e6c",
        "to": "0x2843c269d2a64ecfa63548e8b3fc0fd23b7f70cb",
        "gas": "0x3d100",
        "value": "0x0",
        "input": "0x1fad948c0000000000000000000000000000000000000000000000000000000000000040000000000000000000000000660ad4b5a74130a4796b4d54bc6750ae93c86e6c000000000000000000000000000000000000000000000000000000000000000100000000000000000000000000000000000000000000000000000000000000200000000000000000000000002e2b1c42e38f5af81771e65d87729e57abd1337a0000000000000000000000000000000000000000000000000000000000000dfb0000000000000000000000000000000000000000000000000000000000000160000000000000000000000000000000000000000000000000000000000000018000000000000000000000000000000000000000000000000000000000003d0900000000000000000000000000000000000000000000000000000000000003345000000000000000000000000000000000000000000000000000000000000052080000000000000000000000000000000000000000000000000000000000000001000000000000000000000000000000000000000000000000000000003b9aca0000000000000000000000000000000000000000000000000000000000000002a000000000000000000000000000000000000000000000000000000000000002e0000000000000000000000000000000000000000000000000000000000000000000000000000000000000000000000000000000000000000000000000000000e4b61d27f6000000000000000000000000010700808d59d2bb92257fcafacfe8e5bff7ab8700000000000000000000000000000000000000000000000000000000000000000000000000000000000000000000000000000000000000000000000000000060000000000000000000000000000000000000000000000000000000000000004440c10f19000000000000000000000000bfc95f5aa3c146fa406639180990e0ee459164760000000000000000000000000000000000000000000000056bc75e2d631000000000000000000000000000000000000000000000000000000000000000000000000000000000000000000000000000000000000000000000000000000000000000000000000000000000000000000000000000000000001400000000000000000000000000000000000000000000000000000000000000000000000000000000000000000000000000000000000000000000000000000082aed847ce89e1e052e3836e201d82559655b1060fcbe9c0f37fc07f1b4594d7277b2584ec8b06a95daa15240e7ce8d9be2b157ed4bf7da9528136d27db15ce5ea1baa7e3d90351e5e4880bc284b1275173f227ad21b4f6669a03dbed4fbfbeb73f56ef53dea9533096ee5ec5520c316cbb70b283745c4052dc0b819d3ceca3444101c000000000000000000000000000000000000000000000000000000000000",
        "nonce": "0x5f31",
        "chainId": "0x1ecf"
      },
      "additionalContracts": [],
      "isFixedGasLimit": false
    },
    {
      "hash": null,
      "transactionType": "CALL",
      "contractName": null,
      "contractAddress": "0x2843c269d2a64ecfa63548e8b3fc0fd23b7f70cb",
      "function": "handleOps((address,uint256,bytes,bytes,uint256,uint256,uint256,uint256,uint256,bytes,bytes)[],address)",
      "arguments": [
        "[(0x2e2B1c42E38f5af81771e65D87729E57ABD1337a, 3580, 0x, 0xb61d27f6000000000000000000000000010700808d59d2bb92257fcafacfe8e5bff7ab8700000000000000000000000000000000000000000000000000000000000000000000000000000000000000000000000000000000000000000000000000000060000000000000000000000000000000000000000000000000000000000000004440c10f19000000000000000000000000bb14fb6f2a2b8db4aa924d561e4b7cbd7ab464fe000000000000000000000000000000000000000000000002b5e3af16b188000000000000000000000000000000000000000000000000000000000000, 4000000, 210000, 21000, 1, 1000000000, 0x0000000000000000000000000000000000000000, 0x08ad2899954ce2355ed2645c0c8d55279633be293506d76615fdee85f5450c265c3e4f0c0bf6cb9cffcfb49b8e18526f66c9876f9aeb3bd918c2da319286660f1b03d28304cd091d020ebdb4dc34cf007783eaea155ac661f5e481d352c14c5fd778fa39903e140054e8673a85b836c3d14e204c9d8e82e192fb2bffc468db076f1c)]",
        "0x660ad4B5A74130a4796B4d54BC6750Ae93C86e6c"
      ],
      "transaction": {
        "from": "0x660ad4b5a74130a4796b4d54bc6750ae93c86e6c",
        "to": "0x2843c269d2a64ecfa63548e8b3fc0fd23b7f70cb",
        "gas": "0x3d0de",
        "value": "0x0",
        "input": "0x1fad948c0000000000000000000000000000000000000000000000000000000000000040000000000000000000000000660ad4b5a74130a4796b4d54bc6750ae93c86e6c000000000000000000000000000000000000000000000000000000000000000100000000000000000000000000000000000000000000000000000000000000200000000000000000000000002e2b1c42e38f5af81771e65d87729e57abd1337a0000000000000000000000000000000000000000000000000000000000000dfc0000000000000000000000000000000000000000000000000000000000000160000000000000000000000000000000000000000000000000000000000000018000000000000000000000000000000000000000000000000000000000003d0900000000000000000000000000000000000000000000000000000000000003345000000000000000000000000000000000000000000000000000000000000052080000000000000000000000000000000000000000000000000000000000000001000000000000000000000000000000000000000000000000000000003b9aca0000000000000000000000000000000000000000000000000000000000000002a000000000000000000000000000000000000000000000000000000000000002e0000000000000000000000000000000000000000000000000000000000000000000000000000000000000000000000000000000000000000000000000000000e4b61d27f6000000000000000000000000010700808d59d2bb92257fcafacfe8e5bff7ab8700000000000000000000000000000000000000000000000000000000000000000000000000000000000000000000000000000000000000000000000000000060000000000000000000000000000000000000000000000000000000000000004440c10f19000000000000000000000000bb14fb6f2a2b8db4aa924d561e4b7cbd7ab464fe000000000000000000000000000000000000000000000002b5e3af16b1880000000000000000000000000000000000000000000000000000000000000000000000000000000000000000000000000000000000000000000000000000000000000000000000000000000000000000000000000000000000140000000000000000000000000000000000000000000000000000000000000000000000000000000000000000000000000000000000000000000000000000008208ad2899954ce2355ed2645c0c8d55279633be293506d76615fdee85f5450c265c3e4f0c0bf6cb9cffcfb49b8e18526f66c9876f9aeb3bd918c2da319286660f1b03d28304cd091d020ebdb4dc34cf007783eaea155ac661f5e481d352c14c5fd778fa39903e140054e8673a85b836c3d14e204c9d8e82e192fb2bffc468db076f1c000000000000000000000000000000000000000000000000000000000000",
        "nonce": "0x5f32",
        "chainId": "0x1ecf"
      },
      "additionalContracts": [],
      "isFixedGasLimit": false
    },
    {
      "hash": null,
      "transactionType": "CALL",
      "contractName": null,
      "contractAddress": "0x2843c269d2a64ecfa63548e8b3fc0fd23b7f70cb",
      "function": "handleOps((address,uint256,bytes,bytes,uint256,uint256,uint256,uint256,uint256,bytes,bytes)[],address)",
      "arguments": [
        "[(0x2e2B1c42E38f5af81771e65D87729E57ABD1337a, 3581, 0x, 0xb61d27f6000000000000000000000000010700808d59d2bb92257fcafacfe8e5bff7ab8700000000000000000000000000000000000000000000000000000000000000000000000000000000000000000000000000000000000000000000000000000060000000000000000000000000000000000000000000000000000000000000004440c10f19000000000000000000000000dd80a6df2c177093d21f88532d694b292d3df9e50000000000000000000000000000000000000000000000015af1d78b58c4000000000000000000000000000000000000000000000000000000000000, 4000000, 210000, 21000, 1, 1000000000, 0x0000000000000000000000000000000000000000, 0xf20fb9bbd8bd915e922bdfc46fc270a6707ac605a0394e3c8f8d088042c134856d0901a6203918b63556a3f3576d95e511e6ac9a2b1220eb75dd6cb83e7201c31b9b00d1b9cacde25c77957d567772274437060a9ceef2336296a14d890a351117227b7db22e6ad4d306161ed702cb30e87dc664e712afc26050a5200aa229c5301b)]",
        "0x660ad4B5A74130a4796B4d54BC6750Ae93C86e6c"
      ],
      "transaction": {
        "from": "0x660ad4b5a74130a4796b4d54bc6750ae93c86e6c",
        "to": "0x2843c269d2a64ecfa63548e8b3fc0fd23b7f70cb",
        "gas": "0x40a67",
        "value": "0x0",
        "input": "0x1fad948c0000000000000000000000000000000000000000000000000000000000000040000000000000000000000000660ad4b5a74130a4796b4d54bc6750ae93c86e6c000000000000000000000000000000000000000000000000000000000000000100000000000000000000000000000000000000000000000000000000000000200000000000000000000000002e2b1c42e38f5af81771e65d87729e57abd1337a0000000000000000000000000000000000000000000000000000000000000dfd0000000000000000000000000000000000000000000000000000000000000160000000000000000000000000000000000000000000000000000000000000018000000000000000000000000000000000000000000000000000000000003d0900000000000000000000000000000000000000000000000000000000000003345000000000000000000000000000000000000000000000000000000000000052080000000000000000000000000000000000000000000000000000000000000001000000000000000000000000000000000000000000000000000000003b9aca0000000000000000000000000000000000000000000000000000000000000002a000000000000000000000000000000000000000000000000000000000000002e0000000000000000000000000000000000000000000000000000000000000000000000000000000000000000000000000000000000000000000000000000000e4b61d27f6000000000000000000000000010700808d59d2bb92257fcafacfe8e5bff7ab8700000000000000000000000000000000000000000000000000000000000000000000000000000000000000000000000000000000000000000000000000000060000000000000000000000000000000000000000000000000000000000000004440c10f19000000000000000000000000dd80a6df2c177093d21f88532d694b292d3df9e50000000000000000000000000000000000000000000000015af1d78b58c400000000000000000000000000000000000000000000000000000000000000000000000000000000000000000000000000000000000000000000000000000000000000000000000000000000000000000000000000000000001400000000000000000000000000000000000000000000000000000000000000000000000000000000000000000000000000000000000000000000000000000082f20fb9bbd8bd915e922bdfc46fc270a6707ac605a0394e3c8f8d088042c134856d0901a6203918b63556a3f3576d95e511e6ac9a2b1220eb75dd6cb83e7201c31b9b00d1b9cacde25c77957d567772274437060a9ceef2336296a14d890a351117227b7db22e6ad4d306161ed702cb30e87dc664e712afc26050a5200aa229c5301b000000000000000000000000000000000000000000000000000000000000",
        "nonce": "0x5f33",
        "chainId": "0x1ecf"
      },
      "additionalContracts": [],
      "isFixedGasLimit": false
    }
  ],
  "receipts": [],
  "libraries": [],
  "pending": [],
  "returns": {},
  "timestamp": 1730791500,
  "chain": 7887,
  "commit": "7a0cfbdc"
}