{
  "transactions": [
    {
      "hash": "0x62d255b7766663900f663fedd75227567b0309b213536d6c979e231f8d849869",
      "transactionType": "CALL",
      "contractName": null,
      "contractAddress": "0x2843c269d2a64ecfa63548e8b3fc0fd23b7f70cb",
      "function": "handleOps((address,uint256,bytes,bytes,uint256,uint256,uint256,uint256,uint256,bytes,bytes)[],address)",
      "arguments": [
        "[(0x2e2B1c42E38f5af81771e65D87729E57ABD1337a, 4412, 0x, 0xb61d27f6000000000000000000000000010700808d59d2bb92257fcafacfe8e5bff7ab870000000000000000000000000000000000000000000000000000000000000000000000000000000000000000000000000000000000000000000000000000006000000000000000000000000000000000000000000000000000000000000000449dc29fac000000000000000000000000d157904639e89df05e89e0dabeec99ae3d74f9aa000000000000000000000000000000000000000000000319870ed48d57f8000000000000000000000000000000000000000000000000000000000000, 4000000, 210000, 21000, 1, 1000000000, 0x0000000000000000000000000000000000000000, 0xa1ced10909a375412530efca1be848e1f4d8eaf9f26d2d171d86db84dcd904421b77fe441f265e3917c14a73e396e90868b6d984006998d4e30a0ff91634cbc21be9cc27a252ca124509f869a662757c51ec482d401b58ea6b5af38c04091f2d771313c7c9ec053678359d809574bc94433f88c86440d4bd72128976a2a23c38451c)]",
        "0x660ad4B5A74130a4796B4d54BC6750Ae93C86e6c"
      ],
      "transaction": {
        "from": "0x660ad4b5a74130a4796b4d54bc6750ae93c86e6c",
        "to": "0x2843c269d2a64ecfa63548e8b3fc0fd23b7f70cb",
        "value": "0x0",
        "input": "0x1fad948c0000000000000000000000000000000000000000000000000000000000000040000000000000000000000000660ad4b5a74130a4796b4d54bc6750ae93c86e6c000000000000000000000000000000000000000000000000000000000000000100000000000000000000000000000000000000000000000000000000000000200000000000000000000000002e2b1c42e38f5af81771e65d87729e57abd1337a000000000000000000000000000000000000000000000000000000000000113c0000000000000000000000000000000000000000000000000000000000000160000000000000000000000000000000000000000000000000000000000000018000000000000000000000000000000000000000000000000000000000003d0900000000000000000000000000000000000000000000000000000000000003345000000000000000000000000000000000000000000000000000000000000052080000000000000000000000000000000000000000000000000000000000000001000000000000000000000000000000000000000000000000000000003b9aca0000000000000000000000000000000000000000000000000000000000000002a000000000000000000000000000000000000000000000000000000000000002e0000000000000000000000000000000000000000000000000000000000000000000000000000000000000000000000000000000000000000000000000000000e4b61d27f6000000000000000000000000010700808d59d2bb92257fcafacfe8e5bff7ab870000000000000000000000000000000000000000000000000000000000000000000000000000000000000000000000000000000000000000000000000000006000000000000000000000000000000000000000000000000000000000000000449dc29fac000000000000000000000000d157904639e89df05e89e0dabeec99ae3d74f9aa000000000000000000000000000000000000000000000319870ed48d57f800000000000000000000000000000000000000000000000000000000000000000000000000000000000000000000000000000000000000000000000000000000000000000000000000000000000000000000000000000000001400000000000000000000000000000000000000000000000000000000000000000000000000000000000000000000000000000000000000000000000000000082a1ced10909a375412530efca1be848e1f4d8eaf9f26d2d171d86db84dcd904421b77fe441f265e3917c14a73e396e90868b6d984006998d4e30a0ff91634cbc21be9cc27a252ca124509f869a662757c51ec482d401b58ea6b5af38c04091f2d771313c7c9ec053678359d809574bc94433f88c86440d4bd72128976a2a23c38451c000000000000000000000000000000000000000000000000000000000000",
        "nonce": "0x4bc71",
        "chainId": "0x1ecf"
      },
      "additionalContracts": [],
      "isFixedGasLimit": false
    },
    {
      "hash": "0x6c7e1c622099b98997623994741d2eabad5a3cc58a4e7bae4884dae0457a6a26",
      "transactionType": "CALL",
      "contractName": null,
      "contractAddress": "0x2843c269d2a64ecfa63548e8b3fc0fd23b7f70cb",
      "function": "handleOps((address,uint256,bytes,bytes,uint256,uint256,uint256,uint256,uint256,bytes,bytes)[],address)",
      "arguments": [
        "[(0x2e2B1c42E38f5af81771e65D87729E57ABD1337a, 4413, 0x, 0xb61d27f6000000000000000000000000010700808d59d2bb92257fcafacfe8e5bff7ab8700000000000000000000000000000000000000000000000000000000000000000000000000000000000000000000000000000000000000000000000000000060000000000000000000000000000000000000000000000000000000000000004440c10f1900000000000000000000000085bd43dbb99a2290e4cd930fc6b952d903f83ffb000000000000000000000000000000000000000000000319870ed48d57f8000000000000000000000000000000000000000000000000000000000000, 4000000, 210000, 21000, 1, 1000000000, 0x0000000000000000000000000000000000000000, 0x9e4569b44fddcb71cda563e94cde8bdaa17ba5675455e0e4e5c562184381520d3ac4c8903f3324ee2dbe0d4837e123a5509e1d212c8c420e169d8aca499f954a1b9c74101c52a4091f5a6f96a8b19914c9ce98576606757d06dbb5a0db3898d4d577cdd0dcf739767ab5dedbfb31f53589dcf4321183eb13c71f54c286c3f11bc51b)]",
        "0x660ad4B5A74130a4796B4d54BC6750Ae93C86e6c"
      ],
      "transaction": {
        "from": "0x660ad4b5a74130a4796b4d54bc6750ae93c86e6c",
        "to": "0x2843c269d2a64ecfa63548e8b3fc0fd23b7f70cb",
        "value": "0x0",
        "input": "0x1fad948c0000000000000000000000000000000000000000000000000000000000000040000000000000000000000000660ad4b5a74130a4796b4d54bc6750ae93c86e6c000000000000000000000000000000000000000000000000000000000000000100000000000000000000000000000000000000000000000000000000000000200000000000000000000000002e2b1c42e38f5af81771e65d87729e57abd1337a000000000000000000000000000000000000000000000000000000000000113d0000000000000000000000000000000000000000000000000000000000000160000000000000000000000000000000000000000000000000000000000000018000000000000000000000000000000000000000000000000000000000003d0900000000000000000000000000000000000000000000000000000000000003345000000000000000000000000000000000000000000000000000000000000052080000000000000000000000000000000000000000000000000000000000000001000000000000000000000000000000000000000000000000000000003b9aca0000000000000000000000000000000000000000000000000000000000000002a000000000000000000000000000000000000000000000000000000000000002e0000000000000000000000000000000000000000000000000000000000000000000000000000000000000000000000000000000000000000000000000000000e4b61d27f6000000000000000000000000010700808d59d2bb92257fcafacfe8e5bff7ab8700000000000000000000000000000000000000000000000000000000000000000000000000000000000000000000000000000000000000000000000000000060000000000000000000000000000000000000000000000000000000000000004440c10f1900000000000000000000000085bd43dbb99a2290e4cd930fc6b952d903f83ffb000000000000000000000000000000000000000000000319870ed48d57f8000000000000000000000000000000000000000000000000000000000000000000000000000000000000000000000000000000000000000000000000000000000000000000000000000000000000000000000000000000000014000000000000000000000000000000000000000000000000000000000000000000000000000000000000000000000000000000000000000000000000000000829e4569b44fddcb71cda563e94cde8bdaa17ba5675455e0e4e5c562184381520d3ac4c8903f3324ee2dbe0d4837e123a5509e1d212c8c420e169d8aca499f954a1b9c74101c52a4091f5a6f96a8b19914c9ce98576606757d06dbb5a0db3898d4d577cdd0dcf739767ab5dedbfb31f53589dcf4321183eb13c71f54c286c3f11bc51b000000000000000000000000000000000000000000000000000000000000",
        "nonce": "0x4bc72",
        "chainId": "0x1ecf"
      },
      "additionalContracts": [],
      "isFixedGasLimit": false
    }
  ],
  "receipts": [
    {
      "status": "0x1",
      "cumulativeGasUsed": "0x62219",
      "logs": [
        {
          "address": "0x2843c269d2a64ecfa63548e8b3fc0fd23b7f70cb",
          "topics": [
            "0xbb47ee3e183a558b1a2ff0874b079f3fc5478b7454eacf2bfc5af2ff5878f972"
          ],
          "data": "0x",
          "blockHash": "0x2a3ff9dab2027d16f49d822ba4cb010ab882d0404a301bc23262f11050471bb0",
          "blockNumber": "0xb0eae",
          "transactionHash": "0x62d255b7766663900f663fedd75227567b0309b213536d6c979e231f8d849869",
          "transactionIndex": "0x1",
          "logIndex": "0x0",
          "removed": false
        },
        {
          "address": "0x010700808d59d2bb92257fcafacfe8e5bff7ab87",
          "topics": [
            "0xddf252ad1be2c89b69c2b068fc378daa952ba7f163c4a11628f55a4df523b3ef",
            "0x000000000000000000000000d157904639e89df05e89e0dabeec99ae3d74f9aa",
            "0x0000000000000000000000000000000000000000000000000000000000000000"
          ],
          "data": "0x000000000000000000000000000000000000000000000319870ed48d57f80000",
          "blockHash": "0x2a3ff9dab2027d16f49d822ba4cb010ab882d0404a301bc23262f11050471bb0",
          "blockNumber": "0xb0eae",
          "transactionHash": "0x62d255b7766663900f663fedd75227567b0309b213536d6c979e231f8d849869",
          "transactionIndex": "0x1",
          "logIndex": "0x1",
          "removed": false
        },
        {
          "address": "0x2843c269d2a64ecfa63548e8b3fc0fd23b7f70cb",
          "topics": [
            "0x49628fd1471006c1482da88028e9ce4dbb080b815c9b0344d39e5a8e6ec1419f",
            "0xbfe6a52a0568123ede678c8befa309fa28aea745416c048e0e5cf404d58efb55",
            "0x0000000000000000000000002e2b1c42e38f5af81771e65d87729e57abd1337a",
            "0x0000000000000000000000000000000000000000000000000000000000000000"
          ],
          "data": "0x000000000000000000000000000000000000000000000000000000000000113c0000000000000000000000000000000000000000000000000000000000000001000000000000000000000000000000000000000000000000000000000008ebc5000000000000000000000000000000000000000000000000000000000008ebc5",
          "blockHash": "0x2a3ff9dab2027d16f49d822ba4cb010ab882d0404a301bc23262f11050471bb0",
          "blockNumber": "0xb0eae",
          "transactionHash": "0x62d255b7766663900f663fedd75227567b0309b213536d6c979e231f8d849869",
          "transactionIndex": "0x1",
          "logIndex": "0x2",
          "removed": false
        }
      ],
      "logsBloom": "0x00002000000400000000000000000000000000000000000000000000000001000008000000000000000000010000000000200000000000000000020000000000000000000000000000000008000000000000000000000000000000000000000800000000020000000000000000000800002000000000000000000010000000000000000000000000000000000000800000000000000000000000000000000000001400000000000000400000000000000000000000000000000002000000000000000002000000100001000000000000000000000000000000000000000020000000000000010000000000000000800000000000020000000000000000004800",
      "type": "0x2",
      "transactionHash": "0x62d255b7766663900f663fedd75227567b0309b213536d6c979e231f8d849869",
      "transactionIndex": "0x1",
      "blockHash": "0x2a3ff9dab2027d16f49d822ba4cb010ab882d0404a301bc23262f11050471bb0",
      "blockNumber": "0xb0eae",
      "gasUsed": "0x62219",
      "effectiveGasPrice": "0x5f5e100",
      "from": "0x660ad4b5a74130a4796b4d54bc6750ae93c86e6c",
      "to": "0x2843c269d2a64ecfa63548e8b3fc0fd23b7f70cb",
      "contractAddress": null,
      "gasUsedForL1": "0x2c9e9",
      "l1BlockNumber": "0x14c4904"
    },
    {
      "status": "0x1",
      "cumulativeGasUsed": "0x613eb",
      "logs": [
        {
          "address": "0x2843c269d2a64ecfa63548e8b3fc0fd23b7f70cb",
          "topics": [
            "0xbb47ee3e183a558b1a2ff0874b079f3fc5478b7454eacf2bfc5af2ff5878f972"
          ],
          "data": "0x",
          "blockHash": "0xf07cd37981e0584faf96886b8d4f2b5b1531a29a4246a6e18ec3a6c1ce80b9a0",
          "blockNumber": "0xb0eaf",
          "transactionHash": "0x6c7e1c622099b98997623994741d2eabad5a3cc58a4e7bae4884dae0457a6a26",
          "transactionIndex": "0x1",
          "logIndex": "0x0",
          "removed": false
        },
        {
          "address": "0x010700808d59d2bb92257fcafacfe8e5bff7ab87",
          "topics": [
            "0xddf252ad1be2c89b69c2b068fc378daa952ba7f163c4a11628f55a4df523b3ef",
            "0x0000000000000000000000000000000000000000000000000000000000000000",
            "0x00000000000000000000000085bd43dbb99a2290e4cd930fc6b952d903f83ffb"
          ],
          "data": "0x000000000000000000000000000000000000000000000319870ed48d57f80000",
          "blockHash": "0xf07cd37981e0584faf96886b8d4f2b5b1531a29a4246a6e18ec3a6c1ce80b9a0",
          "blockNumber": "0xb0eaf",
          "transactionHash": "0x6c7e1c622099b98997623994741d2eabad5a3cc58a4e7bae4884dae0457a6a26",
          "transactionIndex": "0x1",
          "logIndex": "0x1",
          "removed": false
        },
        {
          "address": "0x2843c269d2a64ecfa63548e8b3fc0fd23b7f70cb",
          "topics": [
            "0x49628fd1471006c1482da88028e9ce4dbb080b815c9b0344d39e5a8e6ec1419f",
            "0x254438e2d50a0acdd636ece9b51c860a3bf4b2152a2303435c56006bc6b220be",
            "0x0000000000000000000000002e2b1c42e38f5af81771e65d87729e57abd1337a",
            "0x0000000000000000000000000000000000000000000000000000000000000000"
          ],
          "data": "0x000000000000000000000000000000000000000000000000000000000000113d0000000000000000000000000000000000000000000000000000000000000001000000000000000000000000000000000000000000000000000000000008e486000000000000000000000000000000000000000000000000000000000008e486",
          "blockHash": "0xf07cd37981e0584faf96886b8d4f2b5b1531a29a4246a6e18ec3a6c1ce80b9a0",
          "blockNumber": "0xb0eaf",
          "transactionHash": "0x6c7e1c622099b98997623994741d2eabad5a3cc58a4e7bae4884dae0457a6a26",
          "transactionIndex": "0x1",
          "logIndex": "0x2",
          "removed": false
        }
      ],
      "logsBloom": "0x00000000000400000000000000000400000000000000000000000000000000000008000000000000000000010000000000400000000000000000020000000000000000000000000000000008000000000000000000000000000000000000080800000000020000000000000000000800002000000000000000000010000000000000000000000000000000000000800000000000000000000000000010000000001400000000000000400000000000000000000000000000000002000000000000000002000000101001000000000000000000000000000000000000000020000000000000010000000000000000800000000000000000000000000000000000",
      "type": "0x2",
      "transactionHash": "0x6c7e1c622099b98997623994741d2eabad5a3cc58a4e7bae4884dae0457a6a26",
      "transactionIndex": "0x1",
      "blockHash": "0xf07cd37981e0584faf96886b8d4f2b5b1531a29a4246a6e18ec3a6c1ce80b9a0",
      "blockNumber": "0xb0eaf",
      "gasUsed": "0x613eb",
      "effectiveGasPrice": "0x5f5e100",
      "from": "0x660ad4b5a74130a4796b4d54bc6750ae93c86e6c",
      "to": "0x2843c269d2a64ecfa63548e8b3fc0fd23b7f70cb",
      "contractAddress": null,
      "gasUsedForL1": "0x2c3bc",
      "l1BlockNumber": "0x14c4904"
    }
  ],
  "libraries": [],
  "pending": [],
  "returns": {},
  "timestamp": 1738714455,
  "chain": 7887,
  "commit": "e6dbe408"
}