{
  "transactions": [
    {
      "hash": "0x700a3e1df092d06e7769e20e61bdf74f943c407bbe941d29c0ecd45174848b11",
      "transactionType": "CALL",
      "contractName": null,
      "contractAddress": "0x2843c269d2a64ecfa63548e8b3fc0fd23b7f70cb",
      "function": "handleOps((address,uint256,bytes,bytes,uint256,uint256,uint256,uint256,uint256,bytes,bytes)[],address)",
      "arguments": [
        "[(0x2e2B1c42E38f5af81771e65D87729E57ABD1337a, 4479, 0x, 0xb61d27f6000000000000000000000000010700808d59d2bb92257fcafacfe8e5bff7ab870000000000000000000000000000000000000000000000000000000000000000000000000000000000000000000000000000000000000000000000000000006000000000000000000000000000000000000000000000000000000000000000449dc29fac000000000000000000000000d157904639e89df05e89e0dabeec99ae3d74f9aa00000000000000000000000000000000000000000000014542ba12a337c0000000000000000000000000000000000000000000000000000000000000, 4000000, 210000, 21000, 1, 1000000000, 0x0000000000000000000000000000000000000000, 0xc771ef265cb73ea2bc9af45ef65cfc0aab428d8b42ac51d423ac75303518b52e6907af9a87fcfbe71ef06c616f0e9f099a3a110562af33c52164b75ecaf58c9f1c79c9cc97aea39fa2e03149eeb7362265d8ba71b30de9587ed70d42fa90d6d39721f154d986b82fac0a8ad45fba2392a5b80c98ef76d05ee31841709f00a370121c)]",
        "0x660ad4B5A74130a4796B4d54BC6750Ae93C86e6c"
      ],
      "transaction": {
        "from": "0x660ad4b5a74130a4796b4d54bc6750ae93c86e6c",
        "to": "0x2843c269d2a64ecfa63548e8b3fc0fd23b7f70cb",
        "value": "0x0",
        "input": "0x1fad948c0000000000000000000000000000000000000000000000000000000000000040000000000000000000000000660ad4b5a74130a4796b4d54bc6750ae93c86e6c000000000000000000000000000000000000000000000000000000000000000100000000000000000000000000000000000000000000000000000000000000200000000000000000000000002e2b1c42e38f5af81771e65d87729e57abd1337a000000000000000000000000000000000000000000000000000000000000117f0000000000000000000000000000000000000000000000000000000000000160000000000000000000000000000000000000000000000000000000000000018000000000000000000000000000000000000000000000000000000000003d0900000000000000000000000000000000000000000000000000000000000003345000000000000000000000000000000000000000000000000000000000000052080000000000000000000000000000000000000000000000000000000000000001000000000000000000000000000000000000000000000000000000003b9aca0000000000000000000000000000000000000000000000000000000000000002a000000000000000000000000000000000000000000000000000000000000002e0000000000000000000000000000000000000000000000000000000000000000000000000000000000000000000000000000000000000000000000000000000e4b61d27f6000000000000000000000000010700808d59d2bb92257fcafacfe8e5bff7ab870000000000000000000000000000000000000000000000000000000000000000000000000000000000000000000000000000000000000000000000000000006000000000000000000000000000000000000000000000000000000000000000449dc29fac000000000000000000000000d157904639e89df05e89e0dabeec99ae3d74f9aa00000000000000000000000000000000000000000000014542ba12a337c000000000000000000000000000000000000000000000000000000000000000000000000000000000000000000000000000000000000000000000000000000000000000000000000000000000000000000000000000000000001400000000000000000000000000000000000000000000000000000000000000000000000000000000000000000000000000000000000000000000000000000082c771ef265cb73ea2bc9af45ef65cfc0aab428d8b42ac51d423ac75303518b52e6907af9a87fcfbe71ef06c616f0e9f099a3a110562af33c52164b75ecaf58c9f1c79c9cc97aea39fa2e03149eeb7362265d8ba71b30de9587ed70d42fa90d6d39721f154d986b82fac0a8ad45fba2392a5b80c98ef76d05ee31841709f00a370121c000000000000000000000000000000000000000000000000000000000000",
        "nonce": "0x4bcd8",
        "chainId": "0x1ecf"
      },
      "additionalContracts": [],
      "isFixedGasLimit": false
    },
    {
      "hash": "0xa48ebe3a3c868549d0efeee685320b4bfc468e6c685b60ebf01e7701fec45a5f",
      "transactionType": "CALL",
      "contractName": null,
      "contractAddress": "0x2843c269d2a64ecfa63548e8b3fc0fd23b7f70cb",
      "function": "handleOps((address,uint256,bytes,bytes,uint256,uint256,uint256,uint256,uint256,bytes,bytes)[],address)",
      "arguments": [
        "[(0x2e2B1c42E38f5af81771e65D87729E57ABD1337a, 4480, 0x, 0xb61d27f6000000000000000000000000010700808d59d2bb92257fcafacfe8e5bff7ab8700000000000000000000000000000000000000000000000000000000000000000000000000000000000000000000000000000000000000000000000000000060000000000000000000000000000000000000000000000000000000000000004440c10f190000000000000000000000005a1e00884e35bf2dc39af51712d08bef24b1817f00000000000000000000000000000000000000000000014542ba12a337c0000000000000000000000000000000000000000000000000000000000000, 4000000, 210000, 21000, 1, 1000000000, 0x0000000000000000000000000000000000000000, 0x655df97e8b3cff60eec12d4bc202ba86ad714d81288498a44aa37587650185f56e597e4a6541f25c8f93919344d4f4360db4cec7c123ba736325a3d094a6b3db1c9799d144c4b7aa2751b657b45de6cfc69415a0e8fab7866dae00c137c8f87f3118d405333beae51dee6b6ca31c7643ba604d27d8573ae357c1c89efd512e5c991c)]",
        "0x660ad4B5A74130a4796B4d54BC6750Ae93C86e6c"
      ],
      "transaction": {
        "from": "0x660ad4b5a74130a4796b4d54bc6750ae93c86e6c",
        "to": "0x2843c269d2a64ecfa63548e8b3fc0fd23b7f70cb",
        "value": "0x0",
        "input": "0x1fad948c0000000000000000000000000000000000000000000000000000000000000040000000000000000000000000660ad4b5a74130a4796b4d54bc6750ae93c86e6c000000000000000000000000000000000000000000000000000000000000000100000000000000000000000000000000000000000000000000000000000000200000000000000000000000002e2b1c42e38f5af81771e65d87729e57abd1337a00000000000000000000000000000000000000000000000000000000000011800000000000000000000000000000000000000000000000000000000000000160000000000000000000000000000000000000000000000000000000000000018000000000000000000000000000000000000000000000000000000000003d0900000000000000000000000000000000000000000000000000000000000003345000000000000000000000000000000000000000000000000000000000000052080000000000000000000000000000000000000000000000000000000000000001000000000000000000000000000000000000000000000000000000003b9aca0000000000000000000000000000000000000000000000000000000000000002a000000000000000000000000000000000000000000000000000000000000002e0000000000000000000000000000000000000000000000000000000000000000000000000000000000000000000000000000000000000000000000000000000e4b61d27f6000000000000000000000000010700808d59d2bb92257fcafacfe8e5bff7ab8700000000000000000000000000000000000000000000000000000000000000000000000000000000000000000000000000000000000000000000000000000060000000000000000000000000000000000000000000000000000000000000004440c10f190000000000000000000000005a1e00884e35bf2dc39af51712d08bef24b1817f00000000000000000000000000000000000000000000014542ba12a337c000000000000000000000000000000000000000000000000000000000000000000000000000000000000000000000000000000000000000000000000000000000000000000000000000000000000000000000000000000000001400000000000000000000000000000000000000000000000000000000000000000000000000000000000000000000000000000000000000000000000000000082655df97e8b3cff60eec12d4bc202ba86ad714d81288498a44aa37587650185f56e597e4a6541f25c8f93919344d4f4360db4cec7c123ba736325a3d094a6b3db1c9799d144c4b7aa2751b657b45de6cfc69415a0e8fab7866dae00c137c8f87f3118d405333beae51dee6b6ca31c7643ba604d27d8573ae357c1c89efd512e5c991c000000000000000000000000000000000000000000000000000000000000",
        "nonce": "0x4bcd9",
        "chainId": "0x1ecf"
      },
      "additionalContracts": [],
      "isFixedGasLimit": false
    }
  ],
  "receipts": [
    {
      "status": "0x1",
      "cumulativeGasUsed": "0x5147c",
      "logs": [
        {
          "address": "0x2843c269d2a64ecfa63548e8b3fc0fd23b7f70cb",
          "topics": [
            "0xbb47ee3e183a558b1a2ff0874b079f3fc5478b7454eacf2bfc5af2ff5878f972"
          ],
          "data": "0x",
          "blockHash": "0x44010b5bc743e1edc80843d48d4accb11d9d1f80515fc0cb2b8338a0a28e3f7a",
          "blockNumber": "0xb7e24",
          "transactionHash": "0x700a3e1df092d06e7769e20e61bdf74f943c407bbe941d29c0ecd45174848b11",
          "transactionIndex": "0x1",
          "logIndex": "0x0",
          "removed": false
        },
        {
          "address": "0x010700808d59d2bb92257fcafacfe8e5bff7ab87",
          "topics": [
            "0xddf252ad1be2c89b69c2b068fc378daa952ba7f163c4a11628f55a4df523b3ef",
            "0x000000000000000000000000d157904639e89df05e89e0dabeec99ae3d74f9aa",
            "0x0000000000000000000000000000000000000000000000000000000000000000"
          ],
          "data": "0x00000000000000000000000000000000000000000000014542ba12a337c00000",
          "blockHash": "0x44010b5bc743e1edc80843d48d4accb11d9d1f80515fc0cb2b8338a0a28e3f7a",
          "blockNumber": "0xb7e24",
          "transactionHash": "0x700a3e1df092d06e7769e20e61bdf74f943c407bbe941d29c0ecd45174848b11",
          "transactionIndex": "0x1",
          "logIndex": "0x1",
          "removed": false
        },
        {
          "address": "0x2843c269d2a64ecfa63548e8b3fc0fd23b7f70cb",
          "topics": [
            "0x49628fd1471006c1482da88028e9ce4dbb080b815c9b0344d39e5a8e6ec1419f",
            "0xe958b5949de16245e754ae62bd36559ccb5e933b8cfdcd4c50391f2ac5819901",
            "0x0000000000000000000000002e2b1c42e38f5af81771e65d87729e57abd1337a",
            "0x0000000000000000000000000000000000000000000000000000000000000000"
          ],
          "data": "0x000000000000000000000000000000000000000000000000000000000000117f0000000000000000000000000000000000000000000000000000000000000001000000000000000000000000000000000000000000000000000000000008e1f7000000000000000000000000000000000000000000000000000000000008e1f7",
          "blockHash": "0x44010b5bc743e1edc80843d48d4accb11d9d1f80515fc0cb2b8338a0a28e3f7a",
          "blockNumber": "0xb7e24",
          "transactionHash": "0x700a3e1df092d06e7769e20e61bdf74f943c407bbe941d29c0ecd45174848b11",
          "transactionIndex": "0x1",
          "logIndex": "0x2",
          "removed": false
        }
      ],
      "logsBloom": "0x00002000000400000000000000000000000000000000000000000000000001000008000000000000000000010000000000000000000000000000020000000000000000000080000000000008000000000000000000000000000000000000000800000000020000000000000000000802002000000000000000000010000000000000000000000000000000000000800000000000000000000000000000000000001400000000001000400000000000000000000000000000000002000000000000000002000000100001000000000000000000000000000000000000000020000000000000010000000000000000800000000000000000000000000000000800",
      "type": "0x2",
      "transactionHash": "0x700a3e1df092d06e7769e20e61bdf74f943c407bbe941d29c0ecd45174848b11",
      "transactionIndex": "0x1",
      "blockHash": "0x44010b5bc743e1edc80843d48d4accb11d9d1f80515fc0cb2b8338a0a28e3f7a",
      "blockNumber": "0xb7e24",
      "gasUsed": "0x5147c",
      "effectiveGasPrice": "0x5f5e100",
      "from": "0x660ad4b5a74130a4796b4d54bc6750ae93c86e6c",
      "to": "0x2843c269d2a64ecfa63548e8b3fc0fd23b7f70cb",
      "contractAddress": null,
      "gasUsedForL1": "0x1c619",
      "l1BlockNumber": "0x14e20b7"
    },
    {
      "status": "0x1",
      "cumulativeGasUsed": "0x51112",
      "logs": [
        {
          "address": "0x2843c269d2a64ecfa63548e8b3fc0fd23b7f70cb",
          "topics": [
            "0xbb47ee3e183a558b1a2ff0874b079f3fc5478b7454eacf2bfc5af2ff5878f972"
          ],
          "data": "0x",
          "blockHash": "0xc6901b87802b19ee0f0b6bdb86236fc2896b2f149d78cbf316dd5e811efdbca5",
          "blockNumber": "0xb7e25",
          "transactionHash": "0xa48ebe3a3c868549d0efeee685320b4bfc468e6c685b60ebf01e7701fec45a5f",
          "transactionIndex": "0x1",
          "logIndex": "0x0",
          "removed": false
        },
        {
          "address": "0x010700808d59d2bb92257fcafacfe8e5bff7ab87",
          "topics": [
            "0xddf252ad1be2c89b69c2b068fc378daa952ba7f163c4a11628f55a4df523b3ef",
            "0x0000000000000000000000000000000000000000000000000000000000000000",
            "0x0000000000000000000000005a1e00884e35bf2dc39af51712d08bef24b1817f"
          ],
          "data": "0x00000000000000000000000000000000000000000000014542ba12a337c00000",
          "blockHash": "0xc6901b87802b19ee0f0b6bdb86236fc2896b2f149d78cbf316dd5e811efdbca5",
          "blockNumber": "0xb7e25",
          "transactionHash": "0xa48ebe3a3c868549d0efeee685320b4bfc468e6c685b60ebf01e7701fec45a5f",
          "transactionIndex": "0x1",
          "logIndex": "0x1",
          "removed": false
        },
        {
          "address": "0x2843c269d2a64ecfa63548e8b3fc0fd23b7f70cb",
          "topics": [
            "0x49628fd1471006c1482da88028e9ce4dbb080b815c9b0344d39e5a8e6ec1419f",
            "0xc31bb99dfabd340d398120a3e7db44110aba6b3c7101f309f1b44dc5a109f86b",
            "0x0000000000000000000000002e2b1c42e38f5af81771e65d87729e57abd1337a",
            "0x0000000000000000000000000000000000000000000000000000000000000000"
          ],
          "data": "0x00000000000000000000000000000000000000000000000000000000000011800000000000000000000000000000000000000000000000000000000000000001000000000000000000000000000000000000000000000000000000000008da9a000000000000000000000000000000000000000000000000000000000008da9a",
          "blockHash": "0xc6901b87802b19ee0f0b6bdb86236fc2896b2f149d78cbf316dd5e811efdbca5",
          "blockNumber": "0xb7e25",
          "transactionHash": "0xa48ebe3a3c868549d0efeee685320b4bfc468e6c685b60ebf01e7701fec45a5f",
          "transactionIndex": "0x1",
          "logIndex": "0x2",
          "removed": false
        }
      ],
      "logsBloom": "0x00000800000402000000000000000000000000000800000000000000000000000008000000000000000000010000400000000000000000000000020000100000000000000000000000000008000000080000000000000000000000000000000800000000020000000000000000000800002000000000000000000010000000000000000000000000000000000000800000000000000000000000000000000000001400000000000000400000000000000000000000000000000002000000000000000002000000100001000000000000000000000000000000000000000020000000000000010000000000000000800000000000000000000000000000000000",
      "type": "0x2",
      "transactionHash": "0xa48ebe3a3c868549d0efeee685320b4bfc468e6c685b60ebf01e7701fec45a5f",
      "transactionIndex": "0x1",
      "blockHash": "0xc6901b87802b19ee0f0b6bdb86236fc2896b2f149d78cbf316dd5e811efdbca5",
      "blockNumber": "0xb7e25",
      "gasUsed": "0x51112",
      "effectiveGasPrice": "0x5f5e100",
      "from": "0x660ad4b5a74130a4796b4d54bc6750ae93c86e6c",
      "to": "0x2843c269d2a64ecfa63548e8b3fc0fd23b7f70cb",
      "contractAddress": null,
      "gasUsedForL1": "0x1cae9",
      "l1BlockNumber": "0x14e20b7"
    }
  ],
  "libraries": [],
  "pending": [],
  "returns": {},
  "timestamp": 1740173279,
  "chain": 7887,
  "commit": "c141d86"
}