{
  "transactions": [
    {
      "hash": "0xe2379c5e26e9fa8aebc41ca44ab08125c85bf968db117bc705c9a172448053ba",
      "transactionType": "CALL",
      "contractName": null,
      "contractAddress": "0x2843c269d2a64ecfa63548e8b3fc0fd23b7f70cb",
      "function": "handleOps((address,uint256,bytes,bytes,uint256,uint256,uint256,uint256,uint256,bytes,bytes)[],address)",
      "arguments": [
        "[(0x2e2B1c42E38f5af81771e65D87729E57ABD1337a, 5150, 0x, 0xb61d27f60000000000000000000000003de040ef2fbf9158badf559c5606d7706ca72309000000000000000000000000000000000000000000000000000000000000000000000000000000000000000000000000000000000000000000000000000000600000000000000000000000000000000000000000000000000000000000000104e272ad3f000000000000000000000000000000000000000000000000000000000000004000000000000000000000000000000000000000000000000000000000000000a00000000000000000000000000000000000000000000000000000000000000002000000000000000000000000c249179b24a9b2b8d76a2026a49d7bb4307ca674000000000000000000000000bef01d401b54c19b2bcfe93f5e55e0355fe24a7300000000000000000000000000000000000000000000000000000000000000020000000000000000000000000000000000000000000000000000000000000000000000000000000000000000000000000000000000000000000000000000000000000000000000000000000000000000000000000000000000000000, 4000000, 210000, 21000, 1, 1000000000, 0x0000000000000000000000000000000000000000, 0xa269eb132a50d2c4fd9417f15bb0cade003a798862e23ec938a9076dd09283fd4431b477e94a58455bf1bed28ad14eb43ada8e3e18f781587f48f053cfcad30f1c15900cf4d5869074062b84f6636d45b15da1dc6c5db25c2a381ede48e0db03167e7818e4d8d33da0b0252d2f291d65be0d1ad006819e4e930078ef9c3176fdc31c)]",
        "0x660ad4B5A74130a4796B4d54BC6750Ae93C86e6c"
      ],
      "transaction": {
        "from": "0x660ad4b5a74130a4796b4d54bc6750ae93c86e6c",
        "to": "0x2843c269d2a64ecfa63548e8b3fc0fd23b7f70cb",
        "value": "0x0",
        "input": "0x1fad948c0000000000000000000000000000000000000000000000000000000000000040000000000000000000000000660ad4b5a74130a4796b4d54bc6750ae93c86e6c000000000000000000000000000000000000000000000000000000000000000100000000000000000000000000000000000000000000000000000000000000200000000000000000000000002e2b1c42e38f5af81771e65d87729e57abd1337a000000000000000000000000000000000000000000000000000000000000141e0000000000000000000000000000000000000000000000000000000000000160000000000000000000000000000000000000000000000000000000000000018000000000000000000000000000000000000000000000000000000000003d0900000000000000000000000000000000000000000000000000000000000003345000000000000000000000000000000000000000000000000000000000000052080000000000000000000000000000000000000000000000000000000000000001000000000000000000000000000000000000000000000000000000003b9aca00000000000000000000000000000000000000000000000000000000000000036000000000000000000000000000000000000000000000000000000000000003a0000000000000000000000000000000000000000000000000000000000000000000000000000000000000000000000000000000000000000000000000000001a4b61d27f60000000000000000000000003de040ef2fbf9158badf559c5606d7706ca72309000000000000000000000000000000000000000000000000000000000000000000000000000000000000000000000000000000000000000000000000000000600000000000000000000000000000000000000000000000000000000000000104e272ad3f000000000000000000000000000000000000000000000000000000000000004000000000000000000000000000000000000000000000000000000000000000a00000000000000000000000000000000000000000000000000000000000000002000000000000000000000000c249179b24a9b2b8d76a2026a49d7bb4307ca674000000000000000000000000bef01d401b54c19b2bcfe93f5e55e0355fe24a730000000000000000000000000000000000000000000000000000000000000002000000000000000000000000000000000000000000000000000000000000000000000000000000000000000000000000000000000000000000000000000000000000000000000000000000000000000000000000000000000000000000000000000000000000000000000000000000000000000000000000000000000000000000000000000000000000000000000000000000000000001400000000000000000000000000000000000000000000000000000000000000000000000000000000000000000000000000000000000000000000000000000082a269eb132a50d2c4fd9417f15bb0cade003a798862e23ec938a9076dd09283fd4431b477e94a58455bf1bed28ad14eb43ada8e3e18f781587f48f053cfcad30f1c15900cf4d5869074062b84f6636d45b15da1dc6c5db25c2a381ede48e0db03167e7818e4d8d33da0b0252d2f291d65be0d1ad006819e4e930078ef9c3176fdc31c000000000000000000000000000000000000000000000000000000000000",
        "nonce": "0x4c00e",
        "chainId": "0x1ecf"
      },
      "additionalContracts": [],
      "isFixedGasLimit": false
    }
  ],
  "receipts": [
    {
      "status": "0x1",
      "cumulativeGasUsed": "0x8419e",
      "logs": [
        {
          "address": "0x2843c269d2a64ecfa63548e8b3fc0fd23b7f70cb",
          "topics": [
            "0xbb47ee3e183a558b1a2ff0874b079f3fc5478b7454eacf2bfc5af2ff5878f972"
          ],
          "data": "0x",
          "blockHash": "0xe54d99e000c41a5179e9fcd08b3ae6268a9c14010ed2127a64a39a7fac8748b3",
          "blockNumber": "0xdc5db",
          "transactionHash": "0xe2379c5e26e9fa8aebc41ca44ab08125c85bf968db117bc705c9a172448053ba",
          "transactionIndex": "0x1",
          "logIndex": "0x0",
          "removed": false
        },
        {
          "address": "0x3de040ef2fbf9158badf559c5606d7706ca72309",
          "topics": [
            "0x857309f1a328784e9fc9749624be5d32fd8e7afab58e7fe9a218dd613a37f15c"
          ],
          "data": "0x000000000000000000000000c249179b24a9b2b8d76a2026a49d7bb4307ca6740000000000000000000000000000000000000000000000000000000000000000",
          "blockHash": "0xe54d99e000c41a5179e9fcd08b3ae6268a9c14010ed2127a64a39a7fac8748b3",
          "blockNumber": "0xdc5db",
          "transactionHash": "0xe2379c5e26e9fa8aebc41ca44ab08125c85bf968db117bc705c9a172448053ba",
          "transactionIndex": "0x1",
          "logIndex": "0x1",
          "removed": false
        },
        {
          "address": "0x3de040ef2fbf9158badf559c5606d7706ca72309",
          "topics": [
            "0x857309f1a328784e9fc9749624be5d32fd8e7afab58e7fe9a218dd613a37f15c"
          ],
          "data": "0x000000000000000000000000bef01d401b54c19b2bcfe93f5e55e0355fe24a730000000000000000000000000000000000000000000000000000000000000000",
          "blockHash": "0xe54d99e000c41a5179e9fcd08b3ae6268a9c14010ed2127a64a39a7fac8748b3",
          "blockNumber": "0xdc5db",
          "transactionHash": "0xe2379c5e26e9fa8aebc41ca44ab08125c85bf968db117bc705c9a172448053ba",
          "transactionIndex": "0x1",
          "logIndex": "0x2",
          "removed": false
        },
        {
          "address": "0x2843c269d2a64ecfa63548e8b3fc0fd23b7f70cb",
          "topics": [
            "0x49628fd1471006c1482da88028e9ce4dbb080b815c9b0344d39e5a8e6ec1419f",
            "0xc274f26d4616996a6bfcd1cedc1a334e394f59d1f5d083836b4e11592e566a2c",
            "0x0000000000000000000000002e2b1c42e38f5af81771e65d87729e57abd1337a",
            "0x0000000000000000000000000000000000000000000000000000000000000000"
          ],
          "data": "0x000000000000000000000000000000000000000000000000000000000000141e000000000000000000000000000000000000000000000000000000000000000100000000000000000000000000000000000000000000000000000000000857e000000000000000000000000000000000000000000000000000000000000857e0",
          "blockHash": "0xe54d99e000c41a5179e9fcd08b3ae6268a9c14010ed2127a64a39a7fac8748b3",
          "blockNumber": "0xdc5db",
          "transactionHash": "0xe2379c5e26e9fa8aebc41ca44ab08125c85bf968db117bc705c9a172448053ba",
          "transactionIndex": "0x1",
          "logIndex": "0x3",
          "removed": false
        }
      ],
      "logsBloom": "0x00000040000000000000000000000000000002000000000000000000000000000008000000000000000000010000000000000000000000000000020000000000000000000000000000000000000000000000000000000000000000000000000800000000020000000800000000000804002000100000000000000000000000000000000000000000000000000000800000000000000000000000000000000000000400000000000000400000000000008000000000000000000002000000000000000000000000100001000000000000000000000000000000000000000020000400000000010000000000010000000000000800000000000000000000000000",
      "type": "0x2",
      "transactionHash": "0xe2379c5e26e9fa8aebc41ca44ab08125c85bf968db117bc705c9a172448053ba",
      "transactionIndex": "0x1",
      "blockHash": "0xe54d99e000c41a5179e9fcd08b3ae6268a9c14010ed2127a64a39a7fac8748b3",
      "blockNumber": "0xdc5db",
      "gasUsed": "0x8419e",
      "effectiveGasPrice": "0x5f5e100",
      "from": "0x660ad4b5a74130a4796b4d54bc6750ae93c86e6c",
      "to": "0x2843c269d2a64ecfa63548e8b3fc0fd23b7f70cb",
      "contractAddress": null,
      "gasUsedForL1": "0x5ae40",
      "l1BlockNumber": "0x15df2cb"
    }
  ],
  "libraries": [],
  "pending": [],
  "returns": {},
  "timestamp": 1752698645,
  "chain": 7887,
  "commit": "77adfb65"
}