{
  "transactions": [
    {
      "hash": "0x2c237f80571904fcdab74150c57aa66f3131678191b35d6b90233d17a7583589",
      "transactionType": "CALL",
      "contractName": null,
      "contractAddress": "0x2843c269d2a64ecfa63548e8b3fc0fd23b7f70cb",
      "function": "handleOps((address,uint256,bytes,bytes,uint256,uint256,uint256,uint256,uint256,bytes,bytes)[],address)",
      "arguments": [
        "[(0x2e2B1c42E38f5af81771e65D87729E57ABD1337a, 4898, 0x, 0xb61d27f60000000000000000000000005a2b641b84b0230c8e75f55d5afd27f4dbd59d5b0000000000000000000000000000000000000000000000000000000000000000000000000000000000000000000000000000000000000000000000000000006000000000000000000000000000000000000000000000000000000000000000e4e2c463160000000000000000000000003e9727470c66b1e77034590926cde0242b5a3dcc000000000000000000000000000000000000000000000000000000000000006000000000000000000000000000000000000000000000000000000000000000a000000000000000000000000000000000000000000000000000000000000000010000000000000000000000006033b0fe6c23e6d160ab8a0381e4666e6978d3250000000000000000000000000000000000000000000000000000000000000001000000000000000000000000000000000000000000000000000000000000000100000000000000000000000000000000000000000000000000000000, 4000000, 210000, 21000, 1, 1000000000, 0x0000000000000000000000000000000000000000, 0x3d780463596f120f9d22bc7fa20c82bcb08ee9fe56ab0830d7e46a5cbbcc5ad3786d0019e8730dcd683b34c9a83d701ec38e82609b2f5c3865b303c828ef83fb1bb8e918ccd7cdd02be28390ce25abc1c6d293144ba50b5e7a658ebd830d854b001f635dfe55146fa83e423d40c557c220868a465635207ad12accab07bca2f4ef1c)]",
        "0x660ad4B5A74130a4796B4d54BC6750Ae93C86e6c"
      ],
      "transaction": {
        "from": "0x660ad4b5a74130a4796b4d54bc6750ae93c86e6c",
        "to": "0x2843c269d2a64ecfa63548e8b3fc0fd23b7f70cb",
        "value": "0x0",
        "input": "0x1fad948c0000000000000000000000000000000000000000000000000000000000000040000000000000000000000000660ad4b5a74130a4796b4d54bc6750ae93c86e6c000000000000000000000000000000000000000000000000000000000000000100000000000000000000000000000000000000000000000000000000000000200000000000000000000000002e2b1c42e38f5af81771e65d87729e57abd1337a00000000000000000000000000000000000000000000000000000000000013220000000000000000000000000000000000000000000000000000000000000160000000000000000000000000000000000000000000000000000000000000018000000000000000000000000000000000000000000000000000000000003d0900000000000000000000000000000000000000000000000000000000000003345000000000000000000000000000000000000000000000000000000000000052080000000000000000000000000000000000000000000000000000000000000001000000000000000000000000000000000000000000000000000000003b9aca000000000000000000000000000000000000000000000000000000000000000340000000000000000000000000000000000000000000000000000000000000038000000000000000000000000000000000000000000000000000000000000000000000000000000000000000000000000000000000000000000000000000000184b61d27f60000000000000000000000005a2b641b84b0230c8e75f55d5afd27f4dbd59d5b0000000000000000000000000000000000000000000000000000000000000000000000000000000000000000000000000000000000000000000000000000006000000000000000000000000000000000000000000000000000000000000000e4e2c463160000000000000000000000003e9727470c66b1e77034590926cde0242b5a3dcc000000000000000000000000000000000000000000000000000000000000006000000000000000000000000000000000000000000000000000000000000000a000000000000000000000000000000000000000000000000000000000000000010000000000000000000000006033b0fe6c23e6d160ab8a0381e4666e6978d3250000000000000000000000000000000000000000000000000000000000000001000000000000000000000000000000000000000000000000000000000000000100000000000000000000000000000000000000000000000000000000000000000000000000000000000000000000000000000000000000000000000000000000000000000000000000000000000000000000000000000014000000000000000000000000000000000000000000000000000000000000000000000000000000000000000000000000000000000000000000000000000000823d780463596f120f9d22bc7fa20c82bcb08ee9fe56ab0830d7e46a5cbbcc5ad3786d0019e8730dcd683b34c9a83d701ec38e82609b2f5c3865b303c828ef83fb1bb8e918ccd7cdd02be28390ce25abc1c6d293144ba50b5e7a658ebd830d854b001f635dfe55146fa83e423d40c557c220868a465635207ad12accab07bca2f4ef1c000000000000000000000000000000000000000000000000000000000000",
        "nonce": "0x4bed7",
        "chainId": "0x1ecf"
      },
      "additionalContracts": [],
      "isFixedGasLimit": false
    }
  ],
  "receipts": [
    {
      "status": "0x1",
      "cumulativeGasUsed": "0x431b3",
      "logs": [
        {
          "address": "0x2843c269d2a64ecfa63548e8b3fc0fd23b7f70cb",
          "topics": [
            "0xbb47ee3e183a558b1a2ff0874b079f3fc5478b7454eacf2bfc5af2ff5878f972"
          ],
          "data": "0x",
          "blockHash": "0x798b3c85654b11dcfbedcd36062a2bd4bc0e437b4734db40871402a10aca248e",
          "blockNumber": "0xd13ad",
          "transactionHash": "0x2c237f80571904fcdab74150c57aa66f3131678191b35d6b90233d17a7583589",
          "transactionIndex": "0x1",
          "logIndex": "0x0",
          "removed": false
        },
        {
          "address": "0x2843c269d2a64ecfa63548e8b3fc0fd23b7f70cb",
          "topics": [
            "0x49628fd1471006c1482da88028e9ce4dbb080b815c9b0344d39e5a8e6ec1419f",
            "0xbfd997138a48900f0ceb72cedf3c6ed38084e6cb7ce77ab556270abdf9592b34",
            "0x0000000000000000000000002e2b1c42e38f5af81771e65d87729e57abd1337a",
            "0x0000000000000000000000000000000000000000000000000000000000000000"
          ],
          "data": "0x0000000000000000000000000000000000000000000000000000000000001322000000000000000000000000000000000000000000000000000000000000000100000000000000000000000000000000000000000000000000000000000876520000000000000000000000000000000000000000000000000000000000087652",
          "blockHash": "0x798b3c85654b11dcfbedcd36062a2bd4bc0e437b4734db40871402a10aca248e",
          "blockNumber": "0xd13ad",
          "transactionHash": "0x2c237f80571904fcdab74150c57aa66f3131678191b35d6b90233d17a7583589",
          "transactionIndex": "0x1",
          "logIndex": "0x1",
          "removed": false
        }
      ],
      "logsBloom": "0x00000000000000000000000000000000000000000000000000000000000000000008000000000000000000010000000000000000000000000000020000000000000000000000000000000000000000000000000000000000000000000000000800000000020000000000000000000800002000000000000000000000000000000000000000000000000000000000800001000000000000000000000000000000000400000000000000400000000000000000000000000000000002000000000000000000000000100001002000100000000000000000000000000000000020000000000000010000000000000000000000000000000000000000000000000000",
      "type": "0x2",
      "transactionHash": "0x2c237f80571904fcdab74150c57aa66f3131678191b35d6b90233d17a7583589",
      "transactionIndex": "0x1",
      "blockHash": "0x798b3c85654b11dcfbedcd36062a2bd4bc0e437b4734db40871402a10aca248e",
      "blockNumber": "0xd13ad",
      "gasUsed": "0x431b3",
      "effectiveGasPrice": "0x5f5e100",
      "from": "0x660ad4b5a74130a4796b4d54bc6750ae93c86e6c",
      "to": "0x2843c269d2a64ecfa63548e8b3fc0fd23b7f70cb",
      "contractAddress": null,
      "gasUsedForL1": "0x15670",
      "l1BlockNumber": "0x1573343"
    }
  ],
  "libraries": [],
  "pending": [],
  "returns": {},
  "timestamp": 1747354035,
  "chain": 7887,
  "commit": "18c41c9e"
}