{
  "transactions": [
    {
      "hash": "0x9203f131a1e03cbd7698f35c14d54a3293931df69e8c083c8405ceba9626d416",
      "transactionType": "CALL",
      "contractName": null,
      "contractAddress": "0x2843c269d2a64ecfa63548e8b3fc0fd23b7f70cb",
      "function": "handleOps((address,uint256,bytes,bytes,uint256,uint256,uint256,uint256,uint256,bytes,bytes)[],address)",
      "arguments": [
        "[(0x2e2B1c42E38f5af81771e65D87729E57ABD1337a, 4604, 0x, 0xb61d27f6000000000000000000000000acc000818e5bbd911d5d449aa81cb5ca2402473900000000000000000000000000000000000000000000000000000000000000000000000000000000000000000000000000000000000000000000000000000060000000000000000000000000000000000000000000000000000000000000006425c471a000000000000000000000000000000000000000000000000016b429b546828e730000000000000000000000002e2b1c42e38f5af81771e65d87729e57abd1337a000000000000000000000000000000000000000000000000000000000000000000000000000000000000000000000000000000000000000000000000, 4000000, 210000, 21000, 1, 1000000000, 0x0000000000000000000000000000000000000000, 0x6d7d3d2c5cccd09718f8ad4296fee3cab4602bfbbe9fe9fa76829be6cabacc6561e06902f0238c783be84f5a47d3d5b870fcdab79e3788d8225981fe054b66021c293ce47231f70abf30c39d3ae29e41405fc94bf1507a4d10db48e867104968af2621394a7d90a28c737658dd5a17813e4da58a0c2a2d46e8c93ecca410d83b821c)]",
        "0x660ad4B5A74130a4796B4d54BC6750Ae93C86e6c"
      ],
      "transaction": {
        "from": "0x660ad4b5a74130a4796b4d54bc6750ae93c86e6c",
        "to": "0x2843c269d2a64ecfa63548e8b3fc0fd23b7f70cb",
        "value": "0x0",
        "input": "0x1fad948c0000000000000000000000000000000000000000000000000000000000000040000000000000000000000000660ad4b5a74130a4796b4d54bc6750ae93c86e6c000000000000000000000000000000000000000000000000000000000000000100000000000000000000000000000000000000000000000000000000000000200000000000000000000000002e2b1c42e38f5af81771e65d87729e57abd1337a00000000000000000000000000000000000000000000000000000000000011fc0000000000000000000000000000000000000000000000000000000000000160000000000000000000000000000000000000000000000000000000000000018000000000000000000000000000000000000000000000000000000000003d0900000000000000000000000000000000000000000000000000000000000003345000000000000000000000000000000000000000000000000000000000000052080000000000000000000000000000000000000000000000000000000000000001000000000000000000000000000000000000000000000000000000003b9aca0000000000000000000000000000000000000000000000000000000000000002c0000000000000000000000000000000000000000000000000000000000000030000000000000000000000000000000000000000000000000000000000000000000000000000000000000000000000000000000000000000000000000000000104b61d27f6000000000000000000000000acc000818e5bbd911d5d449aa81cb5ca2402473900000000000000000000000000000000000000000000000000000000000000000000000000000000000000000000000000000000000000000000000000000060000000000000000000000000000000000000000000000000000000000000006425c471a000000000000000000000000000000000000000000000000016b429b546828e730000000000000000000000002e2b1c42e38f5af81771e65d87729e57abd1337a000000000000000000000000000000000000000000000000000000000000000000000000000000000000000000000000000000000000000000000000000000000000000000000000000000000000000000000000000000000000000000000000000000000000000000000000000000000000000000000014000000000000000000000000000000000000000000000000000000000000000000000000000000000000000000000000000000000000000000000000000000826d7d3d2c5cccd09718f8ad4296fee3cab4602bfbbe9fe9fa76829be6cabacc6561e06902f0238c783be84f5a47d3d5b870fcdab79e3788d8225981fe054b66021c293ce47231f70abf30c39d3ae29e41405fc94bf1507a4d10db48e867104968af2621394a7d90a28c737658dd5a17813e4da58a0c2a2d46e8c93ecca410d83b821c000000000000000000000000000000000000000000000000000000000000",
        "nonce": "0x4bd01",
        "chainId": "0x1ecf"
      },
      "additionalContracts": [],
      "isFixedGasLimit": false
    }
  ],
  "receipts": [
    {
      "status": "0x1",
      "cumulativeGasUsed": "0x444bc",
      "logs": [
        {
          "address": "0x2843c269d2a64ecfa63548e8b3fc0fd23b7f70cb",
          "topics": [
            "0xbb47ee3e183a558b1a2ff0874b079f3fc5478b7454eacf2bfc5af2ff5878f972"
          ],
          "data": "0x",
          "blockHash": "0x7f568cb25bc43924923594ae10df7ae2a2139382f6ebfa79692d2700f8e973ea",
          "blockNumber": "0xba398",
          "transactionHash": "0x9203f131a1e03cbd7698f35c14d54a3293931df69e8c083c8405ceba9626d416",
          "transactionIndex": "0x1",
          "logIndex": "0x0",
          "removed": false
        },
        {
          "address": "0xacc000818e5bbd911d5d449aa81cb5ca24024739",
          "topics": [
            "0xf98448b987f1428e0e230e1f3c6e2ce15b5693eaf31827fbd0b1ec4b424ae7cf",
            "0x00000000000000000000000000000000000000000000000016b429b546828e73",
            "0x0000000000000000000000002e2b1c42e38f5af81771e65d87729e57abd1337a"
          ],
          "data": "0x00000000000000000000000000000000000000000000000000000000000000000000000000000000000000000000000000000000000000000000000067c75b100000000000000000000000000000000000000000000000000000000000000001",
          "blockHash": "0x7f568cb25bc43924923594ae10df7ae2a2139382f6ebfa79692d2700f8e973ea",
          "blockNumber": "0xba398",
          "transactionHash": "0x9203f131a1e03cbd7698f35c14d54a3293931df69e8c083c8405ceba9626d416",
          "transactionIndex": "0x1",
          "logIndex": "0x1",
          "removed": false
        },
        {
          "address": "0x2843c269d2a64ecfa63548e8b3fc0fd23b7f70cb",
          "topics": [
            "0x49628fd1471006c1482da88028e9ce4dbb080b815c9b0344d39e5a8e6ec1419f",
            "0xd2ad9232def8c05e0ca220535a9ad4d05c0e7e968b5999d5d2e2c6757ba6656f",
            "0x0000000000000000000000002e2b1c42e38f5af81771e65d87729e57abd1337a",
            "0x0000000000000000000000000000000000000000000000000000000000000000"
          ],
          "data": "0x00000000000000000000000000000000000000000000000000000000000011fc000000000000000000000000000000000000000000000000000000000000000100000000000000000000000000000000000000000000000000000000000895d700000000000000000000000000000000000000000000000000000000000895d7",
          "blockHash": "0x7f568cb25bc43924923594ae10df7ae2a2139382f6ebfa79692d2700f8e973ea",
          "blockNumber": "0xba398",
          "transactionHash": "0x9203f131a1e03cbd7698f35c14d54a3293931df69e8c083c8405ceba9626d416",
          "transactionIndex": "0x1",
          "logIndex": "0x2",
          "removed": false
        }
      ],
      "logsBloom": "0x00000000000008000000000000000400000000000000000000000000000000000008000000000000000000010000000000000000000000000400020000000000200000008000000000000000000000000000000000000000000000000000000800000000020008000000000000000800002000000000000000000000000000000000000000000000000002000000800008000000000000000000000000001000000400000000000000402000000000000000000000000008000002000000000000000000000000100001000000000000000400000000000000000000000020000000000000010000000000000000000000000000000000000000000000000000",
      "type": "0x2",
      "transactionHash": "0x9203f131a1e03cbd7698f35c14d54a3293931df69e8c083c8405ceba9626d416",
      "transactionIndex": "0x1",
      "blockHash": "0x7f568cb25bc43924923594ae10df7ae2a2139382f6ebfa79692d2700f8e973ea",
      "blockNumber": "0xba398",
      "gasUsed": "0x444bc",
      "effectiveGasPrice": "0x5f5e100",
      "from": "0x660ad4b5a74130a4796b4d54bc6750ae93c86e6c",
      "to": "0x2843c269d2a64ecfa63548e8b3fc0fd23b7f70cb",
      "contractAddress": null,
      "gasUsedForL1": "0x14b72",
      "l1BlockNumber": "0x14f52cf"
    }
  ],
  "libraries": [],
  "pending": [],
  "returns": {},
  "timestamp": 1741118224,
  "chain": 7887,
  "commit": "30bf7b73"
}