{
  "transactions": [
    {
      "hash": "0xcf21b7ef9d26c797aced248c20731d03f0b547e9d327f7b26190052a7fd49079",
      "transactionType": "CALL",
      "contractName": null,
      "contractAddress": "0x2843c269d2a64ecfa63548e8b3fc0fd23b7f70cb",
      "function": "handleOps((address,uint256,bytes,bytes,uint256,uint256,uint256,uint256,uint256,bytes,bytes)[],address)",
      "arguments": [
        "[(0x2e2B1c42E38f5af81771e65D87729E57ABD1337a, 4603, 0x, 0xb61d27f6000000000000000000000000acc000818e5bbd911d5d449aa81cb5ca24024739000000000000000000000000000000000000000000000000000000000000000000000000000000000000000000000000000000000000000000000000000000600000000000000000000000000000000000000000000000000000000000000064b7d2b16200000000000000000000000000000000000000000000000016b429b546828e730000000000000000000000000000000000000000000000000000000000000000000000000000000000000000000000000000000000000000000000000000000000000000000000000000000000000000000000000000000000000000, 4000000, 210000, 21000, 1, 1000000000, 0x0000000000000000000000000000000000000000, 0x9cee357ff32f2cec449d3683419d4af5b008142dbad6f8d5c037329318693a2d58f467b23dcc6a3f23ae66ffbc0d4348bf130ba9e9c7b3b781f77e943815ea531ca164b5973926066957a2324df70e7d9903dd1aa6a147d0f778e8853ad31e28bb7fd70710c5b29168cc94f2e6b876783aded921cce0a28ca76175465aeb8412c21b)]",
        "0x660ad4B5A74130a4796B4d54BC6750Ae93C86e6c"
      ],
      "transaction": {
        "from": "0x660ad4b5a74130a4796b4d54bc6750ae93c86e6c",
        "to": "0x2843c269d2a64ecfa63548e8b3fc0fd23b7f70cb",
        "value": "0x0",
        "input": "0x1fad948c0000000000000000000000000000000000000000000000000000000000000040000000000000000000000000660ad4b5a74130a4796b4d54bc6750ae93c86e6c000000000000000000000000000000000000000000000000000000000000000100000000000000000000000000000000000000000000000000000000000000200000000000000000000000002e2b1c42e38f5af81771e65d87729e57abd1337a00000000000000000000000000000000000000000000000000000000000011fb0000000000000000000000000000000000000000000000000000000000000160000000000000000000000000000000000000000000000000000000000000018000000000000000000000000000000000000000000000000000000000003d0900000000000000000000000000000000000000000000000000000000000003345000000000000000000000000000000000000000000000000000000000000052080000000000000000000000000000000000000000000000000000000000000001000000000000000000000000000000000000000000000000000000003b9aca0000000000000000000000000000000000000000000000000000000000000002c0000000000000000000000000000000000000000000000000000000000000030000000000000000000000000000000000000000000000000000000000000000000000000000000000000000000000000000000000000000000000000000000104b61d27f6000000000000000000000000acc000818e5bbd911d5d449aa81cb5ca24024739000000000000000000000000000000000000000000000000000000000000000000000000000000000000000000000000000000000000000000000000000000600000000000000000000000000000000000000000000000000000000000000064b7d2b16200000000000000000000000000000000000000000000000016b429b546828e730000000000000000000000000000000000000000000000000000000000000000000000000000000000000000000000000000000000000000000000000000000000000000000000000000000000000000000000000000000000000000000000000000000000000000000000000000000000000000000000000000000000000000000000000000000000000000000000000000000000000014000000000000000000000000000000000000000000000000000000000000000000000000000000000000000000000000000000000000000000000000000000829cee357ff32f2cec449d3683419d4af5b008142dbad6f8d5c037329318693a2d58f467b23dcc6a3f23ae66ffbc0d4348bf130ba9e9c7b3b781f77e943815ea531ca164b5973926066957a2324df70e7d9903dd1aa6a147d0f778e8853ad31e28bb7fd70710c5b29168cc94f2e6b876783aded921cce0a28ca76175465aeb8412c21b000000000000000000000000000000000000000000000000000000000000",
        "nonce": "0x4bd00",
        "chainId": "0x1ecf"
      },
      "additionalContracts": [],
      "isFixedGasLimit": false
    }
  ],
  "receipts": [
    {
      "status": "0x1",
      "cumulativeGasUsed": "0x3e3cd",
      "logs": [
        {
          "address": "0x2843c269d2a64ecfa63548e8b3fc0fd23b7f70cb",
          "topics": [
            "0xbb47ee3e183a558b1a2ff0874b079f3fc5478b7454eacf2bfc5af2ff5878f972"
          ],
          "data": "0x",
          "blockHash": "0x7694d9a703976960315006d84b6bfc2db73ee924f69e182a9711f87bc27f7321",
          "blockNumber": "0xba396",
          "transactionHash": "0xcf21b7ef9d26c797aced248c20731d03f0b547e9d327f7b26190052a7fd49079",
          "transactionIndex": "0x1",
          "logIndex": "0x0",
          "removed": false
        },
        {
          "address": "0xacc000818e5bbd911d5d449aa81cb5ca24024739",
          "topics": [
            "0xf229baa593af28c41b1d16b748cd7688f0c83aaf92d4be41c44005defe84c166",
            "0x00000000000000000000000000000000000000000000000016b429b546828e73",
            "0x0000000000000000000000000000000000000000000000000000000000000000"
          ],
          "data": "0x",
          "blockHash": "0x7694d9a703976960315006d84b6bfc2db73ee924f69e182a9711f87bc27f7321",
          "blockNumber": "0xba396",
          "transactionHash": "0xcf21b7ef9d26c797aced248c20731d03f0b547e9d327f7b26190052a7fd49079",
          "transactionIndex": "0x1",
          "logIndex": "0x1",
          "removed": false
        },
        {
          "address": "0x2843c269d2a64ecfa63548e8b3fc0fd23b7f70cb",
          "topics": [
            "0x49628fd1471006c1482da88028e9ce4dbb080b815c9b0344d39e5a8e6ec1419f",
            "0xb6c09f8b95d289106185b982164d80d462f48f8f41e0e9e88910fd5c7a621351",
            "0x0000000000000000000000002e2b1c42e38f5af81771e65d87729e57abd1337a",
            "0x0000000000000000000000000000000000000000000000000000000000000000"
          ],
          "data": "0x00000000000000000000000000000000000000000000000000000000000011fb0000000000000000000000000000000000000000000000000000000000000001000000000000000000000000000000000000000000000000000000000008527b000000000000000000000000000000000000000000000000000000000008527b",
          "blockHash": "0x7694d9a703976960315006d84b6bfc2db73ee924f69e182a9711f87bc27f7321",
          "blockNumber": "0xba396",
          "transactionHash": "0xcf21b7ef9d26c797aced248c20731d03f0b547e9d327f7b26190052a7fd49079",
          "transactionIndex": "0x1",
          "logIndex": "0x2",
          "removed": false
        }
      ],
      "logsBloom": "0x00000000000008000000000000000000000000000000000000000000000000000008000000000000000000010000000000000000000000000400020000000000000000000000000000000000000000000000000000000000000000000000000800000000020008000000000004000800002000000000000000000000000000000000000000000000000002000000800000000000000000000000000000001000000400000000000000400000000000000000000000008000000002000000000000000000000000100001000000000000000400000000001800000000000020000000002000010000000000000000000000000000000000000000000000000400",
      "type": "0x2",
      "transactionHash": "0xcf21b7ef9d26c797aced248c20731d03f0b547e9d327f7b26190052a7fd49079",
      "transactionIndex": "0x1",
      "blockHash": "0x7694d9a703976960315006d84b6bfc2db73ee924f69e182a9711f87bc27f7321",
      "blockNumber": "0xba396",
      "gasUsed": "0x3e3cd",
      "effectiveGasPrice": "0x5f5e100",
      "from": "0x660ad4b5a74130a4796b4d54bc6750ae93c86e6c",
      "to": "0x2843c269d2a64ecfa63548e8b3fc0fd23b7f70cb",
      "contractAddress": null,
      "gasUsedForL1": "0x1490b",
      "l1BlockNumber": "0x14f52b8"
    }
  ],
  "libraries": [],
  "pending": [],
  "returns": {},
  "timestamp": 1741117943,
  "chain": 7887,
  "commit": "30bf7b73"
}