{
  "transactions": [
    {
      "hash": "0xd97f0db7d9daaccacc82ef2a76251c186f01122f056764d5a10a8c6f69737de9",
      "transactionType": "CALL",
      "contractName": null,
      "contractAddress": "0x2843c269d2a64ecfa63548e8b3fc0fd23b7f70cb",
      "function": "handleOps((address,uint256,bytes,bytes,uint256,uint256,uint256,uint256,uint256,bytes,bytes)[],address)",
      "arguments": [
        "[(0x2e2B1c42E38f5af81771e65D87729E57ABD1337a, 4602, 0x, 0xb61d27f6000000000000000000000000acc000818e5bbd911d5d449aa81cb5ca2402473900000000000000000000000000000000000000000000000000000000000000000000000000000000000000000000000000000000000000000000000000000060000000000000000000000000000000000000000000000000000000000000006425c471a000000000000000000000000000000000000000000000000016b429b546828e730000000000000000000000000000000000000000000000000000000000000000000000000000000000000000000000000000000000000000000000000000000000000000000000000000000000000000000000000000000000000000, 4000000, 210000, 21000, 1, 1000000000, 0x0000000000000000000000000000000000000000, 0x89de775c1d824672f69693dca735a7d0f1eea286ca82a3baf5f0934ac26b72a866ab36873d35294f73ba2cb4e986c1b9fb250624895726dc1fd1fe75f4da76701b84c85e328483382a66aee74044123e627cd477333524923b1175b7fefb9bee9064c12b259645594e6166c914a618bb9f56355ab5a1eb6649ea2b15f589dd8b4a1b)]",
        "0x660ad4B5A74130a4796B4d54BC6750Ae93C86e6c"
      ],
      "transaction": {
        "from": "0x660ad4b5a74130a4796b4d54bc6750ae93c86e6c",
        "to": "0x2843c269d2a64ecfa63548e8b3fc0fd23b7f70cb",
        "value": "0x0",
        "input": "0x1fad948c0000000000000000000000000000000000000000000000000000000000000040000000000000000000000000660ad4b5a74130a4796b4d54bc6750ae93c86e6c000000000000000000000000000000000000000000000000000000000000000100000000000000000000000000000000000000000000000000000000000000200000000000000000000000002e2b1c42e38f5af81771e65d87729e57abd1337a00000000000000000000000000000000000000000000000000000000000011fa0000000000000000000000000000000000000000000000000000000000000160000000000000000000000000000000000000000000000000000000000000018000000000000000000000000000000000000000000000000000000000003d0900000000000000000000000000000000000000000000000000000000000003345000000000000000000000000000000000000000000000000000000000000052080000000000000000000000000000000000000000000000000000000000000001000000000000000000000000000000000000000000000000000000003b9aca0000000000000000000000000000000000000000000000000000000000000002c0000000000000000000000000000000000000000000000000000000000000030000000000000000000000000000000000000000000000000000000000000000000000000000000000000000000000000000000000000000000000000000000104b61d27f6000000000000000000000000acc000818e5bbd911d5d449aa81cb5ca2402473900000000000000000000000000000000000000000000000000000000000000000000000000000000000000000000000000000000000000000000000000000060000000000000000000000000000000000000000000000000000000000000006425c471a000000000000000000000000000000000000000000000000016b429b546828e7300000000000000000000000000000000000000000000000000000000000000000000000000000000000000000000000000000000000000000000000000000000000000000000000000000000000000000000000000000000000000000000000000000000000000000000000000000000000000000000000000000000000000000000000000000000000000000000000000000000000000140000000000000000000000000000000000000000000000000000000000000000000000000000000000000000000000000000000000000000000000000000008289de775c1d824672f69693dca735a7d0f1eea286ca82a3baf5f0934ac26b72a866ab36873d35294f73ba2cb4e986c1b9fb250624895726dc1fd1fe75f4da76701b84c85e328483382a66aee74044123e627cd477333524923b1175b7fefb9bee9064c12b259645594e6166c914a618bb9f56355ab5a1eb6649ea2b15f589dd8b4a1b000000000000000000000000000000000000000000000000000000000000",
        "nonce": "0x4bcff",
        "chainId": "0x1ecf"
      },
      "additionalContracts": [],
      "isFixedGasLimit": false
    }
  ],
  "receipts": [
    {
      "status": "0x1",
      "cumulativeGasUsed": "0x44333",
      "logs": [
        {
          "address": "0x2843c269d2a64ecfa63548e8b3fc0fd23b7f70cb",
          "topics": [
            "0xbb47ee3e183a558b1a2ff0874b079f3fc5478b7454eacf2bfc5af2ff5878f972"
          ],
          "data": "0x",
          "blockHash": "0xd4f2f6764b2e15bd5aa464d10f53a1bef098652c0ad959740106d96b167ef60f",
          "blockNumber": "0xba392",
          "transactionHash": "0xd97f0db7d9daaccacc82ef2a76251c186f01122f056764d5a10a8c6f69737de9",
          "transactionIndex": "0x1",
          "logIndex": "0x0",
          "removed": false
        },
        {
          "address": "0xacc000818e5bbd911d5d449aa81cb5ca24024739",
          "topics": [
            "0xf98448b987f1428e0e230e1f3c6e2ce15b5693eaf31827fbd0b1ec4b424ae7cf",
            "0x00000000000000000000000000000000000000000000000016b429b546828e73",
            "0x0000000000000000000000000000000000000000000000000000000000000000"
          ],
          "data": "0x00000000000000000000000000000000000000000000000000000000000000000000000000000000000000000000000000000000000000000000000067c7575a0000000000000000000000000000000000000000000000000000000000000001",
          "blockHash": "0xd4f2f6764b2e15bd5aa464d10f53a1bef098652c0ad959740106d96b167ef60f",
          "blockNumber": "0xba392",
          "transactionHash": "0xd97f0db7d9daaccacc82ef2a76251c186f01122f056764d5a10a8c6f69737de9",
          "transactionIndex": "0x1",
          "logIndex": "0x1",
          "removed": false
        },
        {
          "address": "0x2843c269d2a64ecfa63548e8b3fc0fd23b7f70cb",
          "topics": [
            "0x49628fd1471006c1482da88028e9ce4dbb080b815c9b0344d39e5a8e6ec1419f",
            "0xa70d9f9306e6562cadc32f64a8767acb03a3434174efeefae9a8a80781123416",
            "0x0000000000000000000000002e2b1c42e38f5af81771e65d87729e57abd1337a",
            "0x0000000000000000000000000000000000000000000000000000000000000000"
          ],
          "data": "0x00000000000000000000000000000000000000000000000000000000000011fa000000000000000000000000000000000000000000000000000000000000000100000000000000000000000000000000000000000000000000000000000895d700000000000000000000000000000000000000000000000000000000000895d7",
          "blockHash": "0xd4f2f6764b2e15bd5aa464d10f53a1bef098652c0ad959740106d96b167ef60f",
          "blockNumber": "0xba392",
          "transactionHash": "0xd97f0db7d9daaccacc82ef2a76251c186f01122f056764d5a10a8c6f69737de9",
          "transactionIndex": "0x1",
          "logIndex": "0x2",
          "removed": false
        }
      ],
      "logsBloom": "0x00000000000008000000000000000000000000000000000000000000000000000008000000000000000000010000000000000000000000000400020000000000000000000000000000000000000000000000000000000000000000000000000800000000020008000000000000000800002000000000000000000000000000000000000000000000000002000000800008000000000000000000000000001000000400000000000002402000000000000000000000000008000002000000000000000000000000100001000000000000000401000000000000000000000020000000000000010000000000000000000000000000000000000000000200000000",
      "type": "0x2",
      "transactionHash": "0xd97f0db7d9daaccacc82ef2a76251c186f01122f056764d5a10a8c6f69737de9",
      "transactionIndex": "0x1",
      "blockHash": "0xd4f2f6764b2e15bd5aa464d10f53a1bef098652c0ad959740106d96b167ef60f",
      "blockNumber": "0xba392",
      "gasUsed": "0x44333",
      "effectiveGasPrice": "0x5f5e100",
      "from": "0x660ad4b5a74130a4796b4d54bc6750ae93c86e6c",
      "to": "0x2843c269d2a64ecfa63548e8b3fc0fd23b7f70cb",
      "contractAddress": null,
      "gasUsedForL1": "0x14ad9",
      "l1BlockNumber": "0x14f5280"
    }
  ],
  "libraries": [],
  "pending": [],
  "returns": {},
  "timestamp": 1741117274,
  "chain": 7887,
  "commit": "6eb5d938"
}