{
  "transactions": [
    {
      "hash": "0x1a9f1333b9670a521e299565e4857c799332f49ad2b4114e4aea7f478eca3135",
      "transactionType": "CALL",
      "contractName": null,
      "contractAddress": "0x2843c269d2a64ecfa63548e8b3fc0fd23b7f70cb",
      "function": "handleOps((address,uint256,bytes,bytes,uint256,uint256,uint256,uint256,uint256,bytes,bytes)[],address)",
      "arguments": [
        "[(0x2e2B1c42E38f5af81771e65D87729E57ABD1337a, 4660, 0x, 0xb61d27f6000000000000000000000000e1857425c14afe4142ce4df1ecb3439f194d5d1b0000000000000000000000000000000000000000000000000000000000000000000000000000000000000000000000000000000000000000000000000000006000000000000000000000000000000000000000000000000000000000000000c4e272ad3f0000000000000000000000000000000000000000000000000000000000000040000000000000000000000000000000000000000000000000000000000000008000000000000000000000000000000000000000000000000000000000000000010000000000000000000000000bf0dcefa8d7e31d18cef882a74499fa277f088c0000000000000000000000000000000000000000000000000000000000000001000000000000000000000000000000000000000000000000000000000000000000000000000000000000000000000000000000000000000000000000, 4000000, 210000, 21000, 1, 1000000000, 0x0000000000000000000000000000000000000000, 0xb9a792549609fd0f93af6e2910303c333687d4c5042e5c86cc7c947fc38da94500d4574cda8efeeb2e89776d85ded4ed7a240ebb0568d48503d4e3b12076f2511b)]",
        "0x660ad4B5A74130a4796B4d54BC6750Ae93C86e6c"
      ],
      "transaction": {
        "from": "0x660ad4b5a74130a4796b4d54bc6750ae93c86e6c",
        "to": "0x2843c269d2a64ecfa63548e8b3fc0fd23b7f70cb",
        "value": "0x0",
        "input": "0x1fad948c0000000000000000000000000000000000000000000000000000000000000040000000000000000000000000660ad4b5a74130a4796b4d54bc6750ae93c86e6c000000000000000000000000000000000000000000000000000000000000000100000000000000000000000000000000000000000000000000000000000000200000000000000000000000002e2b1c42e38f5af81771e65d87729e57abd1337a00000000000000000000000000000000000000000000000000000000000012340000000000000000000000000000000000000000000000000000000000000160000000000000000000000000000000000000000000000000000000000000018000000000000000000000000000000000000000000000000000000000003d0900000000000000000000000000000000000000000000000000000000000003345000000000000000000000000000000000000000000000000000000000000052080000000000000000000000000000000000000000000000000000000000000001000000000000000000000000000000000000000000000000000000003b9aca000000000000000000000000000000000000000000000000000000000000000320000000000000000000000000000000000000000000000000000000000000036000000000000000000000000000000000000000000000000000000000000000000000000000000000000000000000000000000000000000000000000000000164b61d27f6000000000000000000000000e1857425c14afe4142ce4df1ecb3439f194d5d1b0000000000000000000000000000000000000000000000000000000000000000000000000000000000000000000000000000000000000000000000000000006000000000000000000000000000000000000000000000000000000000000000c4e272ad3f0000000000000000000000000000000000000000000000000000000000000040000000000000000000000000000000000000000000000000000000000000008000000000000000000000000000000000000000000000000000000000000000010000000000000000000000000bf0dcefa8d7e31d18cef882a74499fa277f088c000000000000000000000000000000000000000000000000000000000000000100000000000000000000000000000000000000000000000000000000000000000000000000000000000000000000000000000000000000000000000000000000000000000000000000000000000000000000000000000000000000000000000000000000000000000000000000000000000000000000001400000000000000000000000000000000000000000000000000000000000000000000000000000000000000000000000000000000000000000000000000000041b9a792549609fd0f93af6e2910303c333687d4c5042e5c86cc7c947fc38da94500d4574cda8efeeb2e89776d85ded4ed7a240ebb0568d48503d4e3b12076f2511b00000000000000000000000000000000000000000000000000000000000000",
        "nonce": "0x4bda3",
        "chainId": "0x1ecf"
      },
      "additionalContracts": [],
      "isFixedGasLimit": false
    }
  ],
  "receipts": [
    {
      "status": "0x1",
      "cumulativeGasUsed": "0x248d9",
      "logs": [
        {
          "address": "0x2843c269d2a64ecfa63548e8b3fc0fd23b7f70cb",
          "topics": [
            "0xbb47ee3e183a558b1a2ff0874b079f3fc5478b7454eacf2bfc5af2ff5878f972"
          ],
          "data": "0x",
          "blockHash": "0x530dd983045a24398e2975d551acf3548bc0cee2e4b6c8ef8351748842a16951",
          "blockNumber": "0xbdf59",
          "transactionHash": "0x1a9f1333b9670a521e299565e4857c799332f49ad2b4114e4aea7f478eca3135",
          "transactionIndex": "0x1",
          "logIndex": "0x0",
          "removed": false
        },
        {
          "address": "0xe1857425c14afe4142ce4df1ecb3439f194d5d1b",
          "topics": [
            "0x857309f1a328784e9fc9749624be5d32fd8e7afab58e7fe9a218dd613a37f15c"
          ],
          "data": "0x0000000000000000000000000bf0dcefa8d7e31d18cef882a74499fa277f088c0000000000000000000000000000000000000000000000000000000000000000",
          "blockHash": "0x530dd983045a24398e2975d551acf3548bc0cee2e4b6c8ef8351748842a16951",
          "blockNumber": "0xbdf59",
          "transactionHash": "0x1a9f1333b9670a521e299565e4857c799332f49ad2b4114e4aea7f478eca3135",
          "transactionIndex": "0x1",
          "logIndex": "0x1",
          "removed": false
        },
        {
          "address": "0x2843c269d2a64ecfa63548e8b3fc0fd23b7f70cb",
          "topics": [
            "0x49628fd1471006c1482da88028e9ce4dbb080b815c9b0344d39e5a8e6ec1419f",
            "0xe5cc00400dbd740cb7f396457e50df296515b19d63d90d9f7766efd10edd056c",
            "0x0000000000000000000000002e2b1c42e38f5af81771e65d87729e57abd1337a",
            "0x0000000000000000000000000000000000000000000000000000000000000000"
          ],
          "data": "0x0000000000000000000000000000000000000000000000000000000000001234000000000000000000000000000000000000000000000000000000000000000100000000000000000000000000000000000000000000000000000000000803980000000000000000000000000000000000000000000000000000000000080398",
          "blockHash": "0x530dd983045a24398e2975d551acf3548bc0cee2e4b6c8ef8351748842a16951",
          "blockNumber": "0xbdf59",
          "transactionHash": "0x1a9f1333b9670a521e299565e4857c799332f49ad2b4114e4aea7f478eca3135",
          "transactionIndex": "0x1",
          "logIndex": "0x2",
          "removed": false
        }
      ],
      "logsBloom": "0x00000040000000000000000000000000000000000000000000000000000000000008000000000000000000010000000000000000000000000000020000000000000000000000000000000000000000000000040000000000000000000000000800000000020000000000000000000800006000100000000000400000000000002000000000000000000000000000800000000000000000000000000000000100000400000000000000400000000000000000000000000000000002000000000000000000000000100001000000000000000000000000000000000000000020000000000000010000000000010000000000000000000000800000000000000000",
      "type": "0x2",
      "transactionHash": "0x1a9f1333b9670a521e299565e4857c799332f49ad2b4114e4aea7f478eca3135",
      "transactionIndex": "0x1",
      "blockHash": "0x530dd983045a24398e2975d551acf3548bc0cee2e4b6c8ef8351748842a16951",
      "blockNumber": "0xbdf59",
      "gasUsed": "0x248d9",
      "effectiveGasPrice": "0x5f5e100",
      "from": "0x660ad4b5a74130a4796b4d54bc6750ae93c86e6c",
      "to": "0x2843c269d2a64ecfa63548e8b3fc0fd23b7f70cb",
      "contractAddress": null,
      "gasUsedForL1": "0x0",
      "l1BlockNumber": "0x1517e87"
    }
  ],
  "libraries": [],
  "pending": [],
  "returns": {},
  "timestamp": 1742834492,
  "chain": 7887,
  "commit": "015dbeea"
}