{
  "transactions": [
    {
      "hash": "0x0f1e60957524add6214ce04b4cce09aa88747b75ae464fcb6fc0dabd228846a1",
      "transactionType": "CALL",
      "contractName": null,
      "contractAddress": "0x2843c269d2a64ecfa63548e8b3fc0fd23b7f70cb",
      "function": "handleOps((address,uint256,bytes,bytes,uint256,uint256,uint256,uint256,uint256,bytes,bytes)[],address)",
      "arguments": [
        "[(0x2e2B1c42E38f5af81771e65D87729E57ABD1337a, 4861, 0x, 0xb61d27f6000000000000000000000000d157904639e89df05e89e0dabeec99ae3d74f9aa0000000000000000000000000000000000000000000000000000000000000000000000000000000000000000000000000000000000000000000000000000006000000000000000000000000000000000000000000000000000000000000000249d5eb3a10000000000000000000000007d467d99028199d99b1c91850c4dea0c82addf5200000000000000000000000000000000000000000000000000000000, 4000000, 210000, 21000, 1, 1000000000, 0x0000000000000000000000000000000000000000, 0x4e47337ea6963ce208993794c8ea4ac41685a03e417f527449c0ca1876828c1a79fbb95bb05152457ec99f06ca490eb345df7fba81e70641cc579ebdab04b8151c05c9b990b141b8a5b277e31d90480f6018829bafb0765d831e4133bf7e6523e35f7815c4e5fa551c7c13bea1c2286a70838f3fd3ad54ecaf41f0c9b76e16ba7c1b)]",
        "0x660ad4B5A74130a4796B4d54BC6750Ae93C86e6c"
      ],
      "transaction": {
        "from": "0x660ad4b5a74130a4796b4d54bc6750ae93c86e6c",
        "to": "0x2843c269d2a64ecfa63548e8b3fc0fd23b7f70cb",
        "value": "0x0",
        "input": "0x1fad948c0000000000000000000000000000000000000000000000000000000000000040000000000000000000000000660ad4b5a74130a4796b4d54bc6750ae93c86e6c000000000000000000000000000000000000000000000000000000000000000100000000000000000000000000000000000000000000000000000000000000200000000000000000000000002e2b1c42e38f5af81771e65d87729e57abd1337a00000000000000000000000000000000000000000000000000000000000012fd0000000000000000000000000000000000000000000000000000000000000160000000000000000000000000000000000000000000000000000000000000018000000000000000000000000000000000000000000000000000000000003d0900000000000000000000000000000000000000000000000000000000000003345000000000000000000000000000000000000000000000000000000000000052080000000000000000000000000000000000000000000000000000000000000001000000000000000000000000000000000000000000000000000000003b9aca00000000000000000000000000000000000000000000000000000000000000028000000000000000000000000000000000000000000000000000000000000002c0000000000000000000000000000000000000000000000000000000000000000000000000000000000000000000000000000000000000000000000000000000c4b61d27f6000000000000000000000000d157904639e89df05e89e0dabeec99ae3d74f9aa0000000000000000000000000000000000000000000000000000000000000000000000000000000000000000000000000000000000000000000000000000006000000000000000000000000000000000000000000000000000000000000000249d5eb3a10000000000000000000000007d467d99028199d99b1c91850c4dea0c82addf5200000000000000000000000000000000000000000000000000000000000000000000000000000000000000000000000000000000000000000000000000000000000000000000000000000000000000000000000000000014000000000000000000000000000000000000000000000000000000000000000000000000000000000000000000000000000000000000000000000000000000824e47337ea6963ce208993794c8ea4ac41685a03e417f527449c0ca1876828c1a79fbb95bb05152457ec99f06ca490eb345df7fba81e70641cc579ebdab04b8151c05c9b990b141b8a5b277e31d90480f6018829bafb0765d831e4133bf7e6523e35f7815c4e5fa551c7c13bea1c2286a70838f3fd3ad54ecaf41f0c9b76e16ba7c1b000000000000000000000000000000000000000000000000000000000000",
        "nonce": "0x4bea8",
        "chainId": "0x1ecf"
      },
      "additionalContracts": [],
      "isFixedGasLimit": false
    }
  ],
  "receipts": [
    {
      "status": "0x1",
      "cumulativeGasUsed": "0x55252",
      "logs": [
        {
          "address": "0x2843c269d2a64ecfa63548e8b3fc0fd23b7f70cb",
          "topics": [
            "0xbb47ee3e183a558b1a2ff0874b079f3fc5478b7454eacf2bfc5af2ff5878f972"
          ],
          "data": "0x",
          "blockHash": "0xa54f71b9287df03c20005504d508d24b4dc451f22508380d80447fc880a66567",
          "blockNumber": "0xceb46",
          "transactionHash": "0x0f1e60957524add6214ce04b4cce09aa88747b75ae464fcb6fc0dabd228846a1",
          "transactionIndex": "0x1",
          "logIndex": "0x0",
          "removed": false
        },
        {
          "address": "0xd157904639e89df05e89e0dabeec99ae3d74f9aa",
          "topics": [
            "0x68ef3aa953187edc98ed83d14858f20b7a4b3359d39fd9eff4bea91e2d98333f",
            "0x0000000000000000000000007d467d99028199d99b1c91850c4dea0c82addf52"
          ],
          "data": "0x",
          "blockHash": "0xa54f71b9287df03c20005504d508d24b4dc451f22508380d80447fc880a66567",
          "blockNumber": "0xceb46",
          "transactionHash": "0x0f1e60957524add6214ce04b4cce09aa88747b75ae464fcb6fc0dabd228846a1",
          "transactionIndex": "0x1",
          "logIndex": "0x1",
          "removed": false
        },
        {
          "address": "0x2843c269d2a64ecfa63548e8b3fc0fd23b7f70cb",
          "topics": [
            "0x49628fd1471006c1482da88028e9ce4dbb080b815c9b0344d39e5a8e6ec1419f",
            "0x1ac1dcb398c0e8d816f743bb36e87dd4e240dfbbb96836cd02704adbe1805a1a",
            "0x0000000000000000000000002e2b1c42e38f5af81771e65d87729e57abd1337a",
            "0x0000000000000000000000000000000000000000000000000000000000000000"
          ],
          "data": "0x00000000000000000000000000000000000000000000000000000000000012fd0000000000000000000000000000000000000000000000000000000000000001000000000000000000000000000000000000000000000000000000000009203e000000000000000000000000000000000000000000000000000000000009203e",
          "blockHash": "0xa54f71b9287df03c20005504d508d24b4dc451f22508380d80447fc880a66567",
          "blockNumber": "0xceb46",
          "transactionHash": "0x0f1e60957524add6214ce04b4cce09aa88747b75ae464fcb6fc0dabd228846a1",
          "transactionIndex": "0x1",
          "logIndex": "0x2",
          "removed": false
        }
      ],
      "logsBloom": "0x00000000000000000000000000000000000800000000000000000000000000000008000000000000000004010000000000000000000000000000020000000020000000000000000000000000000002000000000000000000000000000000000800000000020000000000000000000800002008000000000000000000000004000000004000000000000000000000800000000000000000000000000000000000000400000000000000400000000000000000000000000000000002000100000000000000000001100001000000000000000000000000400000000000000020000000000000010000000000000000000000000000000000000000800000000001",
      "type": "0x2",
      "transactionHash": "0x0f1e60957524add6214ce04b4cce09aa88747b75ae464fcb6fc0dabd228846a1",
      "transactionIndex": "0x1",
      "blockHash": "0xa54f71b9287df03c20005504d508d24b4dc451f22508380d80447fc880a66567",
      "blockNumber": "0xceb46",
      "gasUsed": "0x55252",
      "effectiveGasPrice": "0x5f5e100",
      "from": "0x660ad4b5a74130a4796b4d54bc6750ae93c86e6c",
      "to": "0x2843c269d2a64ecfa63548e8b3fc0fd23b7f70cb",
      "contractAddress": null,
      "gasUsedForL1": "0x1bf89",
      "l1BlockNumber": "0x1558eb6"
    }
  ],
  "libraries": [],
  "pending": [],
  "returns": {},
  "timestamp": 1746045774,
  "chain": 7887,
  "commit": "756bf240"
}