{
  "transactions": [
    {
      "hash": "0x30bf708e9320d6c50e17743df64009df9b978f9d3e97a7c81b7b89c50b92fb21",
      "transactionType": "CALL",
      "contractName": null,
      "contractAddress": "0x2843c269d2a64ecfa63548e8b3fc0fd23b7f70cb",
      "function": "handleOps((address,uint256,bytes,bytes,uint256,uint256,uint256,uint256,uint256,bytes,bytes)[],address)",
      "arguments": [
        "[(0x2e2B1c42E38f5af81771e65D87729E57ABD1337a, 3861, 0x, 0xb61d27f6000000000000000000000000010700808d59d2bb92257fcafacfe8e5bff7ab870000000000000000000000000000000000000000000000000000000000000000000000000000000000000000000000000000000000000000000000000000006000000000000000000000000000000000000000000000000000000000000000449dc29fac000000000000000000000000d157904639e89df05e89e0dabeec99ae3d74f9aa0000000000000000000000000000000000000000000000042d4896c587d9000000000000000000000000000000000000000000000000000000000000, 4000000, 210000, 21000, 1, 1000000000, 0x0000000000000000000000000000000000000000, 0xd38115b630bb36a5008dc4637d86ea6f06fcdf83b28badae3b6101365e84dcc41fb21f1214bb5f0950941c8484a2936ea6f95f19b0706322d4345716a621b1271b17052c18502e9c46f6ade4f555e2112526ffe778dd775f6ea982a1d67e9ddd3d32f830904eb0e915f10bd6be0390cdbb01d50a5cd912a68177aada5742e5ff8a1b)]",
        "0x660ad4B5A74130a4796B4d54BC6750Ae93C86e6c"
      ],
      "transaction": {
        "from": "0x660ad4b5a74130a4796b4d54bc6750ae93c86e6c",
        "to": "0x2843c269d2a64ecfa63548e8b3fc0fd23b7f70cb",
        "value": "0x0",
        "input": "0x1fad948c0000000000000000000000000000000000000000000000000000000000000040000000000000000000000000660ad4b5a74130a4796b4d54bc6750ae93c86e6c000000000000000000000000000000000000000000000000000000000000000100000000000000000000000000000000000000000000000000000000000000200000000000000000000000002e2b1c42e38f5af81771e65d87729e57abd1337a0000000000000000000000000000000000000000000000000000000000000f150000000000000000000000000000000000000000000000000000000000000160000000000000000000000000000000000000000000000000000000000000018000000000000000000000000000000000000000000000000000000000003d0900000000000000000000000000000000000000000000000000000000000003345000000000000000000000000000000000000000000000000000000000000052080000000000000000000000000000000000000000000000000000000000000001000000000000000000000000000000000000000000000000000000003b9aca0000000000000000000000000000000000000000000000000000000000000002a000000000000000000000000000000000000000000000000000000000000002e0000000000000000000000000000000000000000000000000000000000000000000000000000000000000000000000000000000000000000000000000000000e4b61d27f6000000000000000000000000010700808d59d2bb92257fcafacfe8e5bff7ab870000000000000000000000000000000000000000000000000000000000000000000000000000000000000000000000000000000000000000000000000000006000000000000000000000000000000000000000000000000000000000000000449dc29fac000000000000000000000000d157904639e89df05e89e0dabeec99ae3d74f9aa0000000000000000000000000000000000000000000000042d4896c587d900000000000000000000000000000000000000000000000000000000000000000000000000000000000000000000000000000000000000000000000000000000000000000000000000000000000000000000000000000000001400000000000000000000000000000000000000000000000000000000000000000000000000000000000000000000000000000000000000000000000000000082d38115b630bb36a5008dc4637d86ea6f06fcdf83b28badae3b6101365e84dcc41fb21f1214bb5f0950941c8484a2936ea6f95f19b0706322d4345716a621b1271b17052c18502e9c46f6ade4f555e2112526ffe778dd775f6ea982a1d67e9ddd3d32f830904eb0e915f10bd6be0390cdbb01d50a5cd912a68177aada5742e5ff8a1b000000000000000000000000000000000000000000000000000000000000",
        "nonce": "0x4b879",
        "chainId": "0x1ecf"
      },
      "additionalContracts": [],
      "isFixedGasLimit": false
    },
    {
      "hash": "0x9a4d5bc35c84dee8c62ad6cec9fb5ec93efa2b6d40e532f51afd3635dc6f0e07",
      "transactionType": "CALL",
      "contractName": null,
      "contractAddress": "0x2843c269d2a64ecfa63548e8b3fc0fd23b7f70cb",
      "function": "handleOps((address,uint256,bytes,bytes,uint256,uint256,uint256,uint256,uint256,bytes,bytes)[],address)",
      "arguments": [
        "[(0x2e2B1c42E38f5af81771e65D87729E57ABD1337a, 3862, 0x, 0xb61d27f6000000000000000000000000010700808d59d2bb92257fcafacfe8e5bff7ab8700000000000000000000000000000000000000000000000000000000000000000000000000000000000000000000000000000000000000000000000000000060000000000000000000000000000000000000000000000000000000000000004440c10f1900000000000000000000000090038c150d7528f88ad2b13780886f72e6cb033e000000000000000000000000000000000000000000000002b5e3af16b188000000000000000000000000000000000000000000000000000000000000, 4000000, 210000, 21000, 1, 1000000000, 0x0000000000000000000000000000000000000000, 0xa344607bcd473ad0e4b48e32de4ed931f54fa1b37df1e5d22155d2a088064a070308165d313876fad5f8a31b97900734082dc5e468bd83339f87b6cce04150141b38de8f6447a1a360703f4d1a4195c07afbecabd25fa30ef9953aa552804a233b59bf7fe3825e5ee77c6e3d024db6c75facbb1f73c89f58a66b8958da3bb748f01c)]",
        "0x660ad4B5A74130a4796B4d54BC6750Ae93C86e6c"
      ],
      "transaction": {
        "from": "0x660ad4b5a74130a4796b4d54bc6750ae93c86e6c",
        "to": "0x2843c269d2a64ecfa63548e8b3fc0fd23b7f70cb",
        "value": "0x0",
        "input": "0x1fad948c0000000000000000000000000000000000000000000000000000000000000040000000000000000000000000660ad4b5a74130a4796b4d54bc6750ae93c86e6c000000000000000000000000000000000000000000000000000000000000000100000000000000000000000000000000000000000000000000000000000000200000000000000000000000002e2b1c42e38f5af81771e65d87729e57abd1337a0000000000000000000000000000000000000000000000000000000000000f160000000000000000000000000000000000000000000000000000000000000160000000000000000000000000000000000000000000000000000000000000018000000000000000000000000000000000000000000000000000000000003d0900000000000000000000000000000000000000000000000000000000000003345000000000000000000000000000000000000000000000000000000000000052080000000000000000000000000000000000000000000000000000000000000001000000000000000000000000000000000000000000000000000000003b9aca0000000000000000000000000000000000000000000000000000000000000002a000000000000000000000000000000000000000000000000000000000000002e0000000000000000000000000000000000000000000000000000000000000000000000000000000000000000000000000000000000000000000000000000000e4b61d27f6000000000000000000000000010700808d59d2bb92257fcafacfe8e5bff7ab8700000000000000000000000000000000000000000000000000000000000000000000000000000000000000000000000000000000000000000000000000000060000000000000000000000000000000000000000000000000000000000000004440c10f1900000000000000000000000090038c150d7528f88ad2b13780886f72e6cb033e000000000000000000000000000000000000000000000002b5e3af16b18800000000000000000000000000000000000000000000000000000000000000000000000000000000000000000000000000000000000000000000000000000000000000000000000000000000000000000000000000000000001400000000000000000000000000000000000000000000000000000000000000000000000000000000000000000000000000000000000000000000000000000082a344607bcd473ad0e4b48e32de4ed931f54fa1b37df1e5d22155d2a088064a070308165d313876fad5f8a31b97900734082dc5e468bd83339f87b6cce04150141b38de8f6447a1a360703f4d1a4195c07afbecabd25fa30ef9953aa552804a233b59bf7fe3825e5ee77c6e3d024db6c75facbb1f73c89f58a66b8958da3bb748f01c000000000000000000000000000000000000000000000000000000000000",
        "nonce": "0x4b87a",
        "chainId": "0x1ecf"
      },
      "additionalContracts": [],
      "isFixedGasLimit": false
    },
    {
      "hash": "0x2f02938a27ad0b6217b2e0d4bcd0503838d9a305f896c003670ba1b12f72b7c1",
      "transactionType": "CALL",
      "contractName": null,
      "contractAddress": "0x2843c269d2a64ecfa63548e8b3fc0fd23b7f70cb",
      "function": "handleOps((address,uint256,bytes,bytes,uint256,uint256,uint256,uint256,uint256,bytes,bytes)[],address)",
      "arguments": [
        "[(0x2e2B1c42E38f5af81771e65D87729E57ABD1337a, 3863, 0x, 0xb61d27f6000000000000000000000000010700808d59d2bb92257fcafacfe8e5bff7ab8700000000000000000000000000000000000000000000000000000000000000000000000000000000000000000000000000000000000000000000000000000060000000000000000000000000000000000000000000000000000000000000004440c10f19000000000000000000000000b14fbf93044fa716c9cf4bc8f112d1441af2edad0000000000000000000000000000000000000000000000015af1d78b58c4000000000000000000000000000000000000000000000000000000000000, 4000000, 210000, 21000, 1, 1000000000, 0x0000000000000000000000000000000000000000, 0x7021b287faebd6b1328485e4e78d92271046d6a2476922e3e196fd11000e5855470591d57e60539d27a69c5214d36d269ddbb1072448df1158fedab3349e03951b019d3ad8a186d4074bfdb6b1ccb845be48bd5b2286d5b7d69e704c4f15fdbda47d85945219a9e3da34acd4a762ff0e38a0585a34602185d7a6f5b3b33aee4e391c)]",
        "0x660ad4B5A74130a4796B4d54BC6750Ae93C86e6c"
      ],
      "transaction": {
        "from": "0x660ad4b5a74130a4796b4d54bc6750ae93c86e6c",
        "to": "0x2843c269d2a64ecfa63548e8b3fc0fd23b7f70cb",
        "value": "0x0",
        "input": "0x1fad948c0000000000000000000000000000000000000000000000000000000000000040000000000000000000000000660ad4b5a74130a4796b4d54bc6750ae93c86e6c000000000000000000000000000000000000000000000000000000000000000100000000000000000000000000000000000000000000000000000000000000200000000000000000000000002e2b1c42e38f5af81771e65d87729e57abd1337a0000000000000000000000000000000000000000000000000000000000000f170000000000000000000000000000000000000000000000000000000000000160000000000000000000000000000000000000000000000000000000000000018000000000000000000000000000000000000000000000000000000000003d0900000000000000000000000000000000000000000000000000000000000003345000000000000000000000000000000000000000000000000000000000000052080000000000000000000000000000000000000000000000000000000000000001000000000000000000000000000000000000000000000000000000003b9aca0000000000000000000000000000000000000000000000000000000000000002a000000000000000000000000000000000000000000000000000000000000002e0000000000000000000000000000000000000000000000000000000000000000000000000000000000000000000000000000000000000000000000000000000e4b61d27f6000000000000000000000000010700808d59d2bb92257fcafacfe8e5bff7ab8700000000000000000000000000000000000000000000000000000000000000000000000000000000000000000000000000000000000000000000000000000060000000000000000000000000000000000000000000000000000000000000004440c10f19000000000000000000000000b14fbf93044fa716c9cf4bc8f112d1441af2edad0000000000000000000000000000000000000000000000015af1d78b58c4000000000000000000000000000000000000000000000000000000000000000000000000000000000000000000000000000000000000000000000000000000000000000000000000000000000000000000000000000000000014000000000000000000000000000000000000000000000000000000000000000000000000000000000000000000000000000000000000000000000000000000827021b287faebd6b1328485e4e78d92271046d6a2476922e3e196fd11000e5855470591d57e60539d27a69c5214d36d269ddbb1072448df1158fedab3349e03951b019d3ad8a186d4074bfdb6b1ccb845be48bd5b2286d5b7d69e704c4f15fdbda47d85945219a9e3da34acd4a762ff0e38a0585a34602185d7a6f5b3b33aee4e391c000000000000000000000000000000000000000000000000000000000000",
        "nonce": "0x4b87b",
        "chainId": "0x1ecf"
      },
      "additionalContracts": [],
      "isFixedGasLimit": false
    },
    {
      "hash": "0x1a3bb58988f3efdb1c4cc408c69cc9d3a98c5e943ab5b05c528d5135384ddb45",
      "transactionType": "CALL",
      "contractName": null,
      "contractAddress": "0x2843c269d2a64ecfa63548e8b3fc0fd23b7f70cb",
      "function": "handleOps((address,uint256,bytes,bytes,uint256,uint256,uint256,uint256,uint256,bytes,bytes)[],address)",
      "arguments": [
        "[(0x2e2B1c42E38f5af81771e65D87729E57ABD1337a, 3864, 0x, 0xb61d27f6000000000000000000000000010700808d59d2bb92257fcafacfe8e5bff7ab8700000000000000000000000000000000000000000000000000000000000000000000000000000000000000000000000000000000000000000000000000000060000000000000000000000000000000000000000000000000000000000000004440c10f1900000000000000000000000097debef83901141e56d5c541c0f282a66b144e110000000000000000000000000000000000000000000000000e92596fd629000000000000000000000000000000000000000000000000000000000000, 4000000, 210000, 21000, 1, 1000000000, 0x0000000000000000000000000000000000000000, 0x9742e4bacc635b45b1e10e80d42da72083fa0e9f2829deda521fecb1b01a5bcc40fc5cddb061ba70bf07f1edd1ef2d2e169425f2359790de612f75e6ae3762011c8b8c0dcb47dc193e0492fc8d4ac3cf1ae11ab071653b4b807e50adf1cff9caa43cbb744e80b8ed5bf5a5af1a87a19d447c50e6ed7d04be618026aaac50ae8b541b)]",
        "0x660ad4B5A74130a4796B4d54BC6750Ae93C86e6c"
      ],
      "transaction": {
        "from": "0x660ad4b5a74130a4796b4d54bc6750ae93c86e6c",
        "to": "0x2843c269d2a64ecfa63548e8b3fc0fd23b7f70cb",
        "value": "0x0",
        "input": "0x1fad948c0000000000000000000000000000000000000000000000000000000000000040000000000000000000000000660ad4b5a74130a4796b4d54bc6750ae93c86e6c000000000000000000000000000000000000000000000000000000000000000100000000000000000000000000000000000000000000000000000000000000200000000000000000000000002e2b1c42e38f5af81771e65d87729e57abd1337a0000000000000000000000000000000000000000000000000000000000000f180000000000000000000000000000000000000000000000000000000000000160000000000000000000000000000000000000000000000000000000000000018000000000000000000000000000000000000000000000000000000000003d0900000000000000000000000000000000000000000000000000000000000003345000000000000000000000000000000000000000000000000000000000000052080000000000000000000000000000000000000000000000000000000000000001000000000000000000000000000000000000000000000000000000003b9aca0000000000000000000000000000000000000000000000000000000000000002a000000000000000000000000000000000000000000000000000000000000002e0000000000000000000000000000000000000000000000000000000000000000000000000000000000000000000000000000000000000000000000000000000e4b61d27f6000000000000000000000000010700808d59d2bb92257fcafacfe8e5bff7ab8700000000000000000000000000000000000000000000000000000000000000000000000000000000000000000000000000000000000000000000000000000060000000000000000000000000000000000000000000000000000000000000004440c10f1900000000000000000000000097debef83901141e56d5c541c0f282a66b144e110000000000000000000000000000000000000000000000000e92596fd629000000000000000000000000000000000000000000000000000000000000000000000000000000000000000000000000000000000000000000000000000000000000000000000000000000000000000000000000000000000014000000000000000000000000000000000000000000000000000000000000000000000000000000000000000000000000000000000000000000000000000000829742e4bacc635b45b1e10e80d42da72083fa0e9f2829deda521fecb1b01a5bcc40fc5cddb061ba70bf07f1edd1ef2d2e169425f2359790de612f75e6ae3762011c8b8c0dcb47dc193e0492fc8d4ac3cf1ae11ab071653b4b807e50adf1cff9caa43cbb744e80b8ed5bf5a5af1a87a19d447c50e6ed7d04be618026aaac50ae8b541b000000000000000000000000000000000000000000000000000000000000",
        "nonce": "0x4b87c",
        "chainId": "0x1ecf"
      },
      "additionalContracts": [],
      "isFixedGasLimit": false
    },
    {
      "hash": "0x3e94ba39d38a9b6c26cad2eae92a6109cda25879d3a9abf9d187b5db78557635",
      "transactionType": "CALL",
      "contractName": null,
      "contractAddress": "0x2843c269d2a64ecfa63548e8b3fc0fd23b7f70cb",
      "function": "handleOps((address,uint256,bytes,bytes,uint256,uint256,uint256,uint256,uint256,bytes,bytes)[],address)",
      "arguments": [
        "[(0x2e2B1c42E38f5af81771e65D87729E57ABD1337a, 3865, 0x, 0xb61d27f6000000000000000000000000010700808d59d2bb92257fcafacfe8e5bff7ab8700000000000000000000000000000000000000000000000000000000000000000000000000000000000000000000000000000000000000000000000000000060000000000000000000000000000000000000000000000000000000000000004440c10f190000000000000000000000000d8c40ab2f2a67df76892ec15a368de297f5a6d70000000000000000000000000000000000000000000000000de0b6b3a764000000000000000000000000000000000000000000000000000000000000, 4000000, 210000, 21000, 1, 1000000000, 0x0000000000000000000000000000000000000000, 0x958d8fb359e43643232c8fd2dd94c5596428c9d3f935e607851923dc4085b4171feee57d08a24abc9beac65042b367a612144514c0e80ec319116055e85a8f891b0e2172dac820a864e1f1542faf38acc15617ac3171bc5f99410dd37cdd4ae8f6206fd4d123907cb6960850e8bc585952e7e12b28541c1c440c228fb5023f525d1b)]",
        "0x660ad4B5A74130a4796B4d54BC6750Ae93C86e6c"
      ],
      "transaction": {
        "from": "0x660ad4b5a74130a4796b4d54bc6750ae93c86e6c",
        "to": "0x2843c269d2a64ecfa63548e8b3fc0fd23b7f70cb",
        "value": "0x0",
        "input": "0x1fad948c0000000000000000000000000000000000000000000000000000000000000040000000000000000000000000660ad4b5a74130a4796b4d54bc6750ae93c86e6c000000000000000000000000000000000000000000000000000000000000000100000000000000000000000000000000000000000000000000000000000000200000000000000000000000002e2b1c42e38f5af81771e65d87729e57abd1337a0000000000000000000000000000000000000000000000000000000000000f190000000000000000000000000000000000000000000000000000000000000160000000000000000000000000000000000000000000000000000000000000018000000000000000000000000000000000000000000000000000000000003d0900000000000000000000000000000000000000000000000000000000000003345000000000000000000000000000000000000000000000000000000000000052080000000000000000000000000000000000000000000000000000000000000001000000000000000000000000000000000000000000000000000000003b9aca0000000000000000000000000000000000000000000000000000000000000002a000000000000000000000000000000000000000000000000000000000000002e0000000000000000000000000000000000000000000000000000000000000000000000000000000000000000000000000000000000000000000000000000000e4b61d27f6000000000000000000000000010700808d59d2bb92257fcafacfe8e5bff7ab8700000000000000000000000000000000000000000000000000000000000000000000000000000000000000000000000000000000000000000000000000000060000000000000000000000000000000000000000000000000000000000000004440c10f190000000000000000000000000d8c40ab2f2a67df76892ec15a368de297f5a6d70000000000000000000000000000000000000000000000000de0b6b3a76400000000000000000000000000000000000000000000000000000000000000000000000000000000000000000000000000000000000000000000000000000000000000000000000000000000000000000000000000000000001400000000000000000000000000000000000000000000000000000000000000000000000000000000000000000000000000000000000000000000000000000082958d8fb359e43643232c8fd2dd94c5596428c9d3f935e607851923dc4085b4171feee57d08a24abc9beac65042b367a612144514c0e80ec319116055e85a8f891b0e2172dac820a864e1f1542faf38acc15617ac3171bc5f99410dd37cdd4ae8f6206fd4d123907cb6960850e8bc585952e7e12b28541c1c440c228fb5023f525d1b000000000000000000000000000000000000000000000000000000000000",
        "nonce": "0x4b87d",
        "chainId": "0x1ecf"
      },
      "additionalContracts": [],
      "isFixedGasLimit": false
    }
  ],
  "receipts": [
    {
      "status": "0x1",
      "cumulativeGasUsed": "0x40e26",
      "logs": [
        {
          "address": "0x2843c269d2a64ecfa63548e8b3fc0fd23b7f70cb",
          "topics": [
            "0xbb47ee3e183a558b1a2ff0874b079f3fc5478b7454eacf2bfc5af2ff5878f972"
          ],
          "data": "0x",
          "blockHash": "0x42c3b6ecb021a64ed3657a445271583ba2cc9835ff40bf9970b0e89f7ddbe89e",
          "blockNumber": "0x9371f",
          "transactionHash": "0x30bf708e9320d6c50e17743df64009df9b978f9d3e97a7c81b7b89c50b92fb21",
          "transactionIndex": "0x1",
          "logIndex": "0x0",
          "removed": false
        },
        {
          "address": "0x010700808d59d2bb92257fcafacfe8e5bff7ab87",
          "topics": [
            "0xddf252ad1be2c89b69c2b068fc378daa952ba7f163c4a11628f55a4df523b3ef",
            "0x000000000000000000000000d157904639e89df05e89e0dabeec99ae3d74f9aa",
            "0x0000000000000000000000000000000000000000000000000000000000000000"
          ],
          "data": "0x0000000000000000000000000000000000000000000000042d4896c587d90000",
          "blockHash": "0x42c3b6ecb021a64ed3657a445271583ba2cc9835ff40bf9970b0e89f7ddbe89e",
          "blockNumber": "0x9371f",
          "transactionHash": "0x30bf708e9320d6c50e17743df64009df9b978f9d3e97a7c81b7b89c50b92fb21",
          "transactionIndex": "0x1",
          "logIndex": "0x1",
          "removed": false
        },
        {
          "address": "0x2843c269d2a64ecfa63548e8b3fc0fd23b7f70cb",
          "topics": [
            "0x49628fd1471006c1482da88028e9ce4dbb080b815c9b0344d39e5a8e6ec1419f",
            "0x60e5ea18b916efc7eae2ee5d6842bc2895897e1dab29e83fd7a759de90d4e65c",
            "0x0000000000000000000000002e2b1c42e38f5af81771e65d87729e57abd1337a",
            "0x0000000000000000000000000000000000000000000000000000000000000000"
          ],
          "data": "0x0000000000000000000000000000000000000000000000000000000000000f1500000000000000000000000000000000000000000000000000000000000000010000000000000000000000000000000000000000000000000000000000086e170000000000000000000000000000000000000000000000000000000000086e17",
          "blockHash": "0x42c3b6ecb021a64ed3657a445271583ba2cc9835ff40bf9970b0e89f7ddbe89e",
          "blockNumber": "0x9371f",
          "transactionHash": "0x30bf708e9320d6c50e17743df64009df9b978f9d3e97a7c81b7b89c50b92fb21",
          "transactionIndex": "0x1",
          "logIndex": "0x2",
          "removed": false
        }
      ],
      "logsBloom": "0x00002000000400000000000000000000000000000000000000000000000001000008000000000000000000010000000000000200000000000000020000000000000000000000000000000008000000000000000000000000000000000000000800000000020000000000000000000800002000000000000000000010000000000000000000000000000000000000800000000000000000000000000000000000001400000000000000400000000000000000000000000000000002000000000000000002000000100001000000000000000000000000001000000000000020000000000000010000000000000000800000000000000000000000000000000810",
      "type": "0x2",
      "transactionHash": "0x30bf708e9320d6c50e17743df64009df9b978f9d3e97a7c81b7b89c50b92fb21",
      "transactionIndex": "0x1",
      "blockHash": "0x42c3b6ecb021a64ed3657a445271583ba2cc9835ff40bf9970b0e89f7ddbe89e",
      "blockNumber": "0x9371f",
      "gasUsed": "0x40e26",
      "effectiveGasPrice": "0x5f5e100",
      "from": "0x660ad4b5a74130a4796b4d54bc6750ae93c86e6c",
      "to": "0x2843c269d2a64ecfa63548e8b3fc0fd23b7f70cb",
      "contractAddress": null,
      "gasUsedForL1": "0x141a9",
      "l1BlockNumber": "0x145e3cf"
    },
    {
      "status": "0x1",
      "cumulativeGasUsed": "0x403d5",
      "logs": [
        {
          "address": "0x2843c269d2a64ecfa63548e8b3fc0fd23b7f70cb",
          "topics": [
            "0xbb47ee3e183a558b1a2ff0874b079f3fc5478b7454eacf2bfc5af2ff5878f972"
          ],
          "data": "0x",
          "blockHash": "0xd5bd13c6b4b3b448cc84732a785b5ca79b2bcb7c322282db32a28c7666875b84",
          "blockNumber": "0x93720",
          "transactionHash": "0x9a4d5bc35c84dee8c62ad6cec9fb5ec93efa2b6d40e532f51afd3635dc6f0e07",
          "transactionIndex": "0x1",
          "logIndex": "0x0",
          "removed": false
        },
        {
          "address": "0x010700808d59d2bb92257fcafacfe8e5bff7ab87",
          "topics": [
            "0xddf252ad1be2c89b69c2b068fc378daa952ba7f163c4a11628f55a4df523b3ef",
            "0x0000000000000000000000000000000000000000000000000000000000000000",
            "0x00000000000000000000000090038c150d7528f88ad2b13780886f72e6cb033e"
          ],
          "data": "0x000000000000000000000000000000000000000000000002b5e3af16b1880000",
          "blockHash": "0xd5bd13c6b4b3b448cc84732a785b5ca79b2bcb7c322282db32a28c7666875b84",
          "blockNumber": "0x93720",
          "transactionHash": "0x9a4d5bc35c84dee8c62ad6cec9fb5ec93efa2b6d40e532f51afd3635dc6f0e07",
          "transactionIndex": "0x1",
          "logIndex": "0x1",
          "removed": false
        },
        {
          "address": "0x2843c269d2a64ecfa63548e8b3fc0fd23b7f70cb",
          "topics": [
            "0x49628fd1471006c1482da88028e9ce4dbb080b815c9b0344d39e5a8e6ec1419f",
            "0xd465fe6aaaa221e44d96d6aff22d77af2b245ff6596ae204c5e1c142f6972f4f",
            "0x0000000000000000000000002e2b1c42e38f5af81771e65d87729e57abd1337a",
            "0x0000000000000000000000000000000000000000000000000000000000000000"
          ],
          "data": "0x0000000000000000000000000000000000000000000000000000000000000f16000000000000000000000000000000000000000000000000000000000000000100000000000000000000000000000000000000000000000000000000000866480000000000000000000000000000000000000000000000000000000000086648",
          "blockHash": "0xd5bd13c6b4b3b448cc84732a785b5ca79b2bcb7c322282db32a28c7666875b84",
          "blockNumber": "0x93720",
          "transactionHash": "0x9a4d5bc35c84dee8c62ad6cec9fb5ec93efa2b6d40e532f51afd3635dc6f0e07",
          "transactionIndex": "0x1",
          "logIndex": "0x2",
          "removed": false
        }
      ],
      "logsBloom": "0x08000000000400000000000000000000000000000000000000000000000000000008000000000000000000010000000000000000000000000000020000000000000000000000000000000008000000000000004000000000000000000000080800000000020000000000000000000800002010000000000000000010000000000000000000200000000000000000800080000000000000000000000000000000001400000000000000400000000000000000000000000000000002000000000000000002000000100001000000000000000000000000000000000000000020000000000000010000000000000000800000000000000000000000000000000000",
      "type": "0x2",
      "transactionHash": "0x9a4d5bc35c84dee8c62ad6cec9fb5ec93efa2b6d40e532f51afd3635dc6f0e07",
      "transactionIndex": "0x1",
      "blockHash": "0xd5bd13c6b4b3b448cc84732a785b5ca79b2bcb7c322282db32a28c7666875b84",
      "blockNumber": "0x93720",
      "gasUsed": "0x403d5",
      "effectiveGasPrice": "0x5f5e100",
      "from": "0x660ad4b5a74130a4796b4d54bc6750ae93c86e6c",
      "to": "0x2843c269d2a64ecfa63548e8b3fc0fd23b7f70cb",
      "contractAddress": null,
      "gasUsedForL1": "0x13ffa",
      "l1BlockNumber": "0x145e3cf"
    },
    {
      "status": "0x1",
      "cumulativeGasUsed": "0x404e8",
      "logs": [
        {
          "address": "0x2843c269d2a64ecfa63548e8b3fc0fd23b7f70cb",
          "topics": [
            "0xbb47ee3e183a558b1a2ff0874b079f3fc5478b7454eacf2bfc5af2ff5878f972"
          ],
          "data": "0x",
          "blockHash": "0x5299af782325e3704830d2472c66a96f073624f54b9161b7df41a9537a5816f6",
          "blockNumber": "0x93721",
          "transactionHash": "0x2f02938a27ad0b6217b2e0d4bcd0503838d9a305f896c003670ba1b12f72b7c1",
          "transactionIndex": "0x1",
          "logIndex": "0x0",
          "removed": false
        },
        {
          "address": "0x010700808d59d2bb92257fcafacfe8e5bff7ab87",
          "topics": [
            "0xddf252ad1be2c89b69c2b068fc378daa952ba7f163c4a11628f55a4df523b3ef",
            "0x0000000000000000000000000000000000000000000000000000000000000000",
            "0x000000000000000000000000b14fbf93044fa716c9cf4bc8f112d1441af2edad"
          ],
          "data": "0x0000000000000000000000000000000000000000000000015af1d78b58c40000",
          "blockHash": "0x5299af782325e3704830d2472c66a96f073624f54b9161b7df41a9537a5816f6",
          "blockNumber": "0x93721",
          "transactionHash": "0x2f02938a27ad0b6217b2e0d4bcd0503838d9a305f896c003670ba1b12f72b7c1",
          "transactionIndex": "0x1",
          "logIndex": "0x1",
          "removed": false
        },
        {
          "address": "0x2843c269d2a64ecfa63548e8b3fc0fd23b7f70cb",
          "topics": [
            "0x49628fd1471006c1482da88028e9ce4dbb080b815c9b0344d39e5a8e6ec1419f",
            "0x9104ffe86a7943cb21108bbaa420784d841e616ee1bc32cfc7eded6b2de6a920",
            "0x0000000000000000000000002e2b1c42e38f5af81771e65d87729e57abd1337a",
            "0x0000000000000000000000000000000000000000000000000000000000000000"
          ],
          "data": "0x0000000000000000000000000000000000000000000000000000000000000f17000000000000000000000000000000000000000000000000000000000000000100000000000000000000000000000000000000000000000000000000000866480000000000000000000000000000000000000000000000000000000000086648",
          "blockHash": "0x5299af782325e3704830d2472c66a96f073624f54b9161b7df41a9537a5816f6",
          "blockNumber": "0x93721",
          "transactionHash": "0x2f02938a27ad0b6217b2e0d4bcd0503838d9a305f896c003670ba1b12f72b7c1",
          "transactionIndex": "0x1",
          "logIndex": "0x2",
          "removed": false
        }
      ],
      "logsBloom": "0x00000000000400000000000000000000000000000000000000000000000000000008000000000000000000010000000000000000000000000000020000000000000000000000000000000008000000000000000000000000000000000000000800000000020000000000400000000880002000000000000040800010000000000000000000000000000000000000800000000000000000000000000000000000001400000000004000400000000000000000000000000000000002000000000000000002000000100001000000000000000000000000004000000000000020000000000000010000000000000000800000000000000000000000000000000000",
      "type": "0x2",
      "transactionHash": "0x2f02938a27ad0b6217b2e0d4bcd0503838d9a305f896c003670ba1b12f72b7c1",
      "transactionIndex": "0x1",
      "blockHash": "0x5299af782325e3704830d2472c66a96f073624f54b9161b7df41a9537a5816f6",
      "blockNumber": "0x93721",
      "gasUsed": "0x404e8",
      "effectiveGasPrice": "0x5f5e100",
      "from": "0x660ad4b5a74130a4796b4d54bc6750ae93c86e6c",
      "to": "0x2843c269d2a64ecfa63548e8b3fc0fd23b7f70cb",
      "contractAddress": null,
      "gasUsedForL1": "0x14119",
      "l1BlockNumber": "0x145e3cf"
    },
    {
      "status": "0x1",
      "cumulativeGasUsed": "0x4018b",
      "logs": [
        {
          "address": "0x2843c269d2a64ecfa63548e8b3fc0fd23b7f70cb",
          "topics": [
            "0xbb47ee3e183a558b1a2ff0874b079f3fc5478b7454eacf2bfc5af2ff5878f972"
          ],
          "data": "0x",
          "blockHash": "0x62357fb5da2dec85b26f2f5f0a261335ce5c3ebf54f60c7a823d274eb0c4ec22",
          "blockNumber": "0x93722",
          "transactionHash": "0x1a3bb58988f3efdb1c4cc408c69cc9d3a98c5e943ab5b05c528d5135384ddb45",
          "transactionIndex": "0x1",
          "logIndex": "0x0",
          "removed": false
        },
        {
          "address": "0x010700808d59d2bb92257fcafacfe8e5bff7ab87",
          "topics": [
            "0xddf252ad1be2c89b69c2b068fc378daa952ba7f163c4a11628f55a4df523b3ef",
            "0x0000000000000000000000000000000000000000000000000000000000000000",
            "0x00000000000000000000000097debef83901141e56d5c541c0f282a66b144e11"
          ],
          "data": "0x0000000000000000000000000000000000000000000000000e92596fd6290000",
          "blockHash": "0x62357fb5da2dec85b26f2f5f0a261335ce5c3ebf54f60c7a823d274eb0c4ec22",
          "blockNumber": "0x93722",
          "transactionHash": "0x1a3bb58988f3efdb1c4cc408c69cc9d3a98c5e943ab5b05c528d5135384ddb45",
          "transactionIndex": "0x1",
          "logIndex": "0x1",
          "removed": false
        },
        {
          "address": "0x2843c269d2a64ecfa63548e8b3fc0fd23b7f70cb",
          "topics": [
            "0x49628fd1471006c1482da88028e9ce4dbb080b815c9b0344d39e5a8e6ec1419f",
            "0xc38e9bb0e7d76d10a385b6d86535c0b71a2e895861f8d7ade6708155285d0162",
            "0x0000000000000000000000002e2b1c42e38f5af81771e65d87729e57abd1337a",
            "0x0000000000000000000000000000000000000000000000000000000000000000"
          ],
          "data": "0x0000000000000000000000000000000000000000000000000000000000000f18000000000000000000000000000000000000000000000000000000000000000100000000000000000000000000000000000000000000000000000000000866480000000000000000000000000000000000000000000000000000000000086648",
          "blockHash": "0x62357fb5da2dec85b26f2f5f0a261335ce5c3ebf54f60c7a823d274eb0c4ec22",
          "blockNumber": "0x93722",
          "transactionHash": "0x1a3bb58988f3efdb1c4cc408c69cc9d3a98c5e943ab5b05c528d5135384ddb45",
          "transactionIndex": "0x1",
          "logIndex": "0x2",
          "removed": false
        }
      ],
      "logsBloom": "0x00000000000400000000000000000000000000000000000000000000000000000008000000000000000000010000000000000000000000000000020000000000000000000000000000000008000000000000000000000000000000004000000800000000020000000000000000000800002000000000000000000010000000000000000000000000000000000000800000080000000000000000000000000000001410000000000000400000000000000000000000000000000002000000000000000002000008100001000000000000000000000000000000000000000020000000000000010000000000001040800000000000000000000000000000000000",
      "type": "0x2",
      "transactionHash": "0x1a3bb58988f3efdb1c4cc408c69cc9d3a98c5e943ab5b05c528d5135384ddb45",
      "transactionIndex": "0x1",
      "blockHash": "0x62357fb5da2dec85b26f2f5f0a261335ce5c3ebf54f60c7a823d274eb0c4ec22",
      "blockNumber": "0x93722",
      "gasUsed": "0x4018b",
      "effectiveGasPrice": "0x5f5e100",
      "from": "0x660ad4b5a74130a4796b4d54bc6750ae93c86e6c",
      "to": "0x2843c269d2a64ecfa63548e8b3fc0fd23b7f70cb",
      "contractAddress": null,
      "gasUsedForL1": "0x13dbc",
      "l1BlockNumber": "0x145e3cf"
    },
    {
      "status": "0x1",
      "cumulativeGasUsed": "0x402aa",
      "logs": [
        {
          "address": "0x2843c269d2a64ecfa63548e8b3fc0fd23b7f70cb",
          "topics": [
            "0xbb47ee3e183a558b1a2ff0874b079f3fc5478b7454eacf2bfc5af2ff5878f972"
          ],
          "data": "0x",
          "blockHash": "0x5176392b06c5736967c4e7bf5e7b2400172f961193d6b30b4aea36abbaa87678",
          "blockNumber": "0x93723",
          "transactionHash": "0x3e94ba39d38a9b6c26cad2eae92a6109cda25879d3a9abf9d187b5db78557635",
          "transactionIndex": "0x1",
          "logIndex": "0x0",
          "removed": false
        },
        {
          "address": "0x010700808d59d2bb92257fcafacfe8e5bff7ab87",
          "topics": [
            "0xddf252ad1be2c89b69c2b068fc378daa952ba7f163c4a11628f55a4df523b3ef",
            "0x0000000000000000000000000000000000000000000000000000000000000000",
            "0x0000000000000000000000000d8c40ab2f2a67df76892ec15a368de297f5a6d7"
          ],
          "data": "0x0000000000000000000000000000000000000000000000000de0b6b3a7640000",
          "blockHash": "0x5176392b06c5736967c4e7bf5e7b2400172f961193d6b30b4aea36abbaa87678",
          "blockNumber": "0x93723",
          "transactionHash": "0x3e94ba39d38a9b6c26cad2eae92a6109cda25879d3a9abf9d187b5db78557635",
          "transactionIndex": "0x1",
          "logIndex": "0x1",
          "removed": false
        },
        {
          "address": "0x2843c269d2a64ecfa63548e8b3fc0fd23b7f70cb",
          "topics": [
            "0x49628fd1471006c1482da88028e9ce4dbb080b815c9b0344d39e5a8e6ec1419f",
            "0x9f0ed1246d79b8c02014f2285afc8e8f07e64e2137c0fea93a0e9db8497e3e4b",
            "0x0000000000000000000000002e2b1c42e38f5af81771e65d87729e57abd1337a",
            "0x0000000000000000000000000000000000000000000000000000000000000000"
          ],
          "data": "0x0000000000000000000000000000000000000000000000000000000000000f19000000000000000000000000000000000000000000000000000000000000000100000000000000000000000000000000000000000000000000000000000866480000000000000000000000000000000000000000000000000000000000086648",
          "blockHash": "0x5176392b06c5736967c4e7bf5e7b2400172f961193d6b30b4aea36abbaa87678",
          "blockNumber": "0x93723",
          "transactionHash": "0x3e94ba39d38a9b6c26cad2eae92a6109cda25879d3a9abf9d187b5db78557635",
          "transactionIndex": "0x1",
          "logIndex": "0x2",
          "removed": false
        }
      ],
      "logsBloom": "0x00000000000400000000000000000000000000000000000000001000000000000008000000000000000000010000000000000000000000000000020000000000020000000001000000002008000000000000000000000000000000000000000800000000020000000000000000000800002000000000000000000010000000000000000000000000000000000000800000000000000000000000000000000000001400000000000001400000000000000000000000000000000002000000000000000002000000100001000000000000000000000000000000000000000020000000000000010000000000000000800000000000000000000000000000000400",
      "type": "0x2",
      "transactionHash": "0x3e94ba39d38a9b6c26cad2eae92a6109cda25879d3a9abf9d187b5db78557635",
      "transactionIndex": "0x1",
      "blockHash": "0x5176392b06c5736967c4e7bf5e7b2400172f961193d6b30b4aea36abbaa87678",
      "blockNumber": "0x93723",
      "gasUsed": "0x402aa",
      "effectiveGasPrice": "0x5f5e100",
      "from": "0x660ad4b5a74130a4796b4d54bc6750ae93c86e6c",
      "to": "0x2843c269d2a64ecfa63548e8b3fc0fd23b7f70cb",
      "contractAddress": null,
      "gasUsedForL1": "0x13edb",
      "l1BlockNumber": "0x145e3cf"
    }
  ],
  "libraries": [],
  "pending": [],
  "returns": {},
  "timestamp": 1733657876,
  "chain": 7887,
  "commit": "08ef83f1"
}