{
  "transactions": [
    {
      "hash": "0xb8fb4a110caf1b459d4e3c65d77de12a024b02dbd21cd8323e5a7a48d7f9bdb6",
      "transactionType": "CALL",
      "contractName": null,
      "contractAddress": "0x2843c269d2a64ecfa63548e8b3fc0fd23b7f70cb",
      "function": "handleOps((address,uint256,bytes,bytes,uint256,uint256,uint256,uint256,uint256,bytes,bytes)[],address)",
      "arguments": [
        "[(0x2e2B1c42E38f5af81771e65D87729E57ABD1337a, 4782, 0x, 0xb61d27f6000000000000000000000000d157904639e89df05e89e0dabeec99ae3d74f9aa000000000000000000000000000000000000000000000000000000000000000000000000000000000000000000000000000000000000000000000000000000600000000000000000000000000000000000000000000000000000000000000024cefff0fa00000000000000000000000000000000000000000000152d02c7e14af680000000000000000000000000000000000000000000000000000000000000, 4000000, 210000, 21000, 1, 1000000000, 0x0000000000000000000000000000000000000000, 0xefdcdcb3c926c82cca3f20ed82bfc2fd99334ad50de0b3474b5942391662d6f67fd59ed7868b9877fd3857e8c84b1af54de6155a81280a6a6e13344b14f0ac341c3b541e70a3a85025f85cf82575ba862a4be84c003dc36326f1e0c0d1ce7da03066e93ddcfb78b6267e9504f81b90a90e35ce96575a38b06d6e43ce9a76152bd61c)]",
        "0x660ad4B5A74130a4796B4d54BC6750Ae93C86e6c"
      ],
      "transaction": {
        "from": "0x660ad4b5a74130a4796b4d54bc6750ae93c86e6c",
        "to": "0x2843c269d2a64ecfa63548e8b3fc0fd23b7f70cb",
        "value": "0x0",
        "input": "0x1fad948c0000000000000000000000000000000000000000000000000000000000000040000000000000000000000000660ad4b5a74130a4796b4d54bc6750ae93c86e6c000000000000000000000000000000000000000000000000000000000000000100000000000000000000000000000000000000000000000000000000000000200000000000000000000000002e2b1c42e38f5af81771e65d87729e57abd1337a00000000000000000000000000000000000000000000000000000000000012ae0000000000000000000000000000000000000000000000000000000000000160000000000000000000000000000000000000000000000000000000000000018000000000000000000000000000000000000000000000000000000000003d0900000000000000000000000000000000000000000000000000000000000003345000000000000000000000000000000000000000000000000000000000000052080000000000000000000000000000000000000000000000000000000000000001000000000000000000000000000000000000000000000000000000003b9aca00000000000000000000000000000000000000000000000000000000000000028000000000000000000000000000000000000000000000000000000000000002c0000000000000000000000000000000000000000000000000000000000000000000000000000000000000000000000000000000000000000000000000000000c4b61d27f6000000000000000000000000d157904639e89df05e89e0dabeec99ae3d74f9aa000000000000000000000000000000000000000000000000000000000000000000000000000000000000000000000000000000000000000000000000000000600000000000000000000000000000000000000000000000000000000000000024cefff0fa00000000000000000000000000000000000000000000152d02c7e14af68000000000000000000000000000000000000000000000000000000000000000000000000000000000000000000000000000000000000000000000000000000000000000000000000000000000000000000000000000000000001400000000000000000000000000000000000000000000000000000000000000000000000000000000000000000000000000000000000000000000000000000082efdcdcb3c926c82cca3f20ed82bfc2fd99334ad50de0b3474b5942391662d6f67fd59ed7868b9877fd3857e8c84b1af54de6155a81280a6a6e13344b14f0ac341c3b541e70a3a85025f85cf82575ba862a4be84c003dc36326f1e0c0d1ce7da03066e93ddcfb78b6267e9504f81b90a90e35ce96575a38b06d6e43ce9a76152bd61c000000000000000000000000000000000000000000000000000000000000",
        "nonce": "0x4be66",
        "chainId": "0x1ecf"
      },
      "additionalContracts": [],
      "isFixedGasLimit": false
    }
  ],
  "receipts": [
    {
      "status": "0x1",
      "cumulativeGasUsed": "0x2fcf7",
      "logs": [
        {
          "address": "0x2843c269d2a64ecfa63548e8b3fc0fd23b7f70cb",
          "topics": [
            "0xbb47ee3e183a558b1a2ff0874b079f3fc5478b7454eacf2bfc5af2ff5878f972"
          ],
          "data": "0x",
          "blockHash": "0x7e74e107a3f2745adf6e7355db54993c61bfae05ebecd31b44cffc653bc0d1ff",
          "blockNumber": "0xca2ae",
          "transactionHash": "0xb8fb4a110caf1b459d4e3c65d77de12a024b02dbd21cd8323e5a7a48d7f9bdb6",
          "transactionIndex": "0x1",
          "logIndex": "0x0",
          "removed": false
        },
        {
          "address": "0xd157904639e89df05e89e0dabeec99ae3d74f9aa",
          "topics": [
            "0xd12719f869a4621325e2d0f36e2a6fefcd87e2defb17983e2f2dcbe8b6759622",
            "0x00000000000000000000000000000000000000000000152d02c7e14af6800000",
            "0x0000000000000000000000000000000000000000000000000000000000000000"
          ],
          "data": "0x",
          "blockHash": "0x7e74e107a3f2745adf6e7355db54993c61bfae05ebecd31b44cffc653bc0d1ff",
          "blockNumber": "0xca2ae",
          "transactionHash": "0xb8fb4a110caf1b459d4e3c65d77de12a024b02dbd21cd8323e5a7a48d7f9bdb6",
          "transactionIndex": "0x1",
          "logIndex": "0x1",
          "removed": false
        },
        {
          "address": "0x2843c269d2a64ecfa63548e8b3fc0fd23b7f70cb",
          "topics": [
            "0x49628fd1471006c1482da88028e9ce4dbb080b815c9b0344d39e5a8e6ec1419f",
            "0x2643d8e860c4071b42bf6e3aa0802425b9d808cc62e4c0811c5a844550ccc2f7",
            "0x0000000000000000000000002e2b1c42e38f5af81771e65d87729e57abd1337a",
            "0x0000000000000000000000000000000000000000000000000000000000000000"
          ],
          "data": "0x00000000000000000000000000000000000000000000000000000000000012ae000000000000000000000000000000000000000000000000000000000000000100000000000000000000000000000000000000000000000000000000000882e500000000000000000000000000000000000000000000000000000000000882e5",
          "blockHash": "0x7e74e107a3f2745adf6e7355db54993c61bfae05ebecd31b44cffc653bc0d1ff",
          "blockNumber": "0xca2ae",
          "transactionHash": "0xb8fb4a110caf1b459d4e3c65d77de12a024b02dbd21cd8323e5a7a48d7f9bdb6",
          "transactionIndex": "0x1",
          "logIndex": "0x2",
          "removed": false
        }
      ],
      "logsBloom": "0x00000000000000000000000000000000000800000000000000000000000000000008000000000000000000010000000000000008000000000000020000000000000000000000000000000000000000000000000000000000000000000000000800000000020000000000000000000800002000000000000000000000000004000080000000000000000000000000800000000000000000000000000000000000000400000000000200400000000000000000000000002000000002000100000000000000040000100001000000000000000008000000010000000000000020000000000000030000000000000000000000000000000000000000000000000000",
      "type": "0x2",
      "transactionHash": "0xb8fb4a110caf1b459d4e3c65d77de12a024b02dbd21cd8323e5a7a48d7f9bdb6",
      "transactionIndex": "0x1",
      "blockHash": "0x7e74e107a3f2745adf6e7355db54993c61bfae05ebecd31b44cffc653bc0d1ff",
      "blockNumber": "0xca2ae",
      "gasUsed": "0x2fcf7",
      "effectiveGasPrice": "0x5f5e100",
      "from": "0x660ad4b5a74130a4796b4d54bc6750ae93c86e6c",
      "to": "0x2843c269d2a64ecfa63548e8b3fc0fd23b7f70cb",
      "contractAddress": null,
      "gasUsedForL1": "0x19a0",
      "l1BlockNumber": "0x152b493"
    }
  ],
  "libraries": [],
  "pending": [],
  "returns": {},
  "timestamp": 1743791875,
  "chain": 7887,
  "commit": "49c6eccf"
}