{
  "transactions": [
    {
      "hash": "0xc478c677fb171b24a61d6d899fdeeecdfd8b15428ecf2967c38b41e0209d9b22",
      "transactionType": "CALL",
      "contractName": null,
      "contractAddress": "0x2843c269d2a64ecfa63548e8b3fc0fd23b7f70cb",
      "function": "handleOps((address,uint256,bytes,bytes,uint256,uint256,uint256,uint256,uint256,bytes,bytes)[],address)",
      "arguments": [
        "[(0x2e2B1c42E38f5af81771e65D87729E57ABD1337a, 2630, 0x, 0xb61d27f6000000000000000000000000010700808d59d2bb92257fcafacfe8e5bff7ab870000000000000000000000000000000000000000000000000000000000000000000000000000000000000000000000000000000000000000000000000000006000000000000000000000000000000000000000000000000000000000000000449dc29fac000000000000000000000000d157904639e89df05e89e0dabeec99ae3d74f9aa0000000000000000000000000000000000000000000000083d6c7aab6360000000000000000000000000000000000000000000000000000000000000, 4000000, 210000, 21000, 1, 1000000000, 0x0000000000000000000000000000000000000000, 0x0124592e83e5c11053b601e18e5d5625292a2d273f76ac06afdcc6559579e15647d4b3c225e2c09f6098e784b57663b83293232674f9dba8544453d031c51bdd1be10406dd10d413012008de72b738342aad2d91fa6687c9bc5d4aa0a8b2aebefb757662e81010b01b8b61e10fc128a501de704b9ae07f9a5edafb4f8a6eeaadc01c)]",
        "0x660ad4B5A74130a4796B4d54BC6750Ae93C86e6c"
      ],
      "transaction": {
        "from": "0x660ad4b5a74130a4796b4d54bc6750ae93c86e6c",
        "to": "0x2843c269d2a64ecfa63548e8b3fc0fd23b7f70cb",
        "value": "0x0",
        "input": "0x1fad948c0000000000000000000000000000000000000000000000000000000000000040000000000000000000000000660ad4b5a74130a4796b4d54bc6750ae93c86e6c000000000000000000000000000000000000000000000000000000000000000100000000000000000000000000000000000000000000000000000000000000200000000000000000000000002e2b1c42e38f5af81771e65d87729e57abd1337a0000000000000000000000000000000000000000000000000000000000000a460000000000000000000000000000000000000000000000000000000000000160000000000000000000000000000000000000000000000000000000000000018000000000000000000000000000000000000000000000000000000000003d0900000000000000000000000000000000000000000000000000000000000003345000000000000000000000000000000000000000000000000000000000000052080000000000000000000000000000000000000000000000000000000000000001000000000000000000000000000000000000000000000000000000003b9aca0000000000000000000000000000000000000000000000000000000000000002a000000000000000000000000000000000000000000000000000000000000002e0000000000000000000000000000000000000000000000000000000000000000000000000000000000000000000000000000000000000000000000000000000e4b61d27f6000000000000000000000000010700808d59d2bb92257fcafacfe8e5bff7ab870000000000000000000000000000000000000000000000000000000000000000000000000000000000000000000000000000000000000000000000000000006000000000000000000000000000000000000000000000000000000000000000449dc29fac000000000000000000000000d157904639e89df05e89e0dabeec99ae3d74f9aa0000000000000000000000000000000000000000000000083d6c7aab6360000000000000000000000000000000000000000000000000000000000000000000000000000000000000000000000000000000000000000000000000000000000000000000000000000000000000000000000000000000000014000000000000000000000000000000000000000000000000000000000000000000000000000000000000000000000000000000000000000000000000000000820124592e83e5c11053b601e18e5d5625292a2d273f76ac06afdcc6559579e15647d4b3c225e2c09f6098e784b57663b83293232674f9dba8544453d031c51bdd1be10406dd10d413012008de72b738342aad2d91fa6687c9bc5d4aa0a8b2aebefb757662e81010b01b8b61e10fc128a501de704b9ae07f9a5edafb4f8a6eeaadc01c000000000000000000000000000000000000000000000000000000000000",
        "nonce": "0x4c9d",
        "chainId": "0x1ecf"
      },
      "additionalContracts": [],
      "isFixedGasLimit": false
    },
    {
      "hash": "0x7762a6012fd9a04733bf2d77485a3d71c9c500ce0092d896e0152d1c340420e3",
      "transactionType": "CALL",
      "contractName": null,
      "contractAddress": "0x2843c269d2a64ecfa63548e8b3fc0fd23b7f70cb",
      "function": "handleOps((address,uint256,bytes,bytes,uint256,uint256,uint256,uint256,uint256,bytes,bytes)[],address)",
      "arguments": [
        "[(0x2e2B1c42E38f5af81771e65D87729E57ABD1337a, 2631, 0x, 0xb61d27f6000000000000000000000000010700808d59d2bb92257fcafacfe8e5bff7ab8700000000000000000000000000000000000000000000000000000000000000000000000000000000000000000000000000000000000000000000000000000060000000000000000000000000000000000000000000000000000000000000004440c10f19000000000000000000000000bb14fb6f2a2b8db4aa924d561e4b7cbd7ab464fe000000000000000000000000000000000000000000000002b5e3af16b188000000000000000000000000000000000000000000000000000000000000, 4000000, 210000, 21000, 1, 1000000000, 0x0000000000000000000000000000000000000000, 0x7fa41615217cd736c5321916b42266fa3c9db6ea8dcd6ec3fbc4853ae87db1667cf3070587fa975ad787d703acdd0b0711895e63bf308399f9043dfb36d140011b46b76578cdc3dfc24b468f219e9ac887482214f92ca41188f1bd16af5d7dcc3957f9b9829a20801c4f5f9f73a5c54ba7fe8b140603c0fc3710d5fc5a0085c3461c)]",
        "0x660ad4B5A74130a4796B4d54BC6750Ae93C86e6c"
      ],
      "transaction": {
        "from": "0x660ad4b5a74130a4796b4d54bc6750ae93c86e6c",
        "to": "0x2843c269d2a64ecfa63548e8b3fc0fd23b7f70cb",
        "value": "0x0",
        "input": "0x1fad948c0000000000000000000000000000000000000000000000000000000000000040000000000000000000000000660ad4b5a74130a4796b4d54bc6750ae93c86e6c000000000000000000000000000000000000000000000000000000000000000100000000000000000000000000000000000000000000000000000000000000200000000000000000000000002e2b1c42e38f5af81771e65d87729e57abd1337a0000000000000000000000000000000000000000000000000000000000000a470000000000000000000000000000000000000000000000000000000000000160000000000000000000000000000000000000000000000000000000000000018000000000000000000000000000000000000000000000000000000000003d0900000000000000000000000000000000000000000000000000000000000003345000000000000000000000000000000000000000000000000000000000000052080000000000000000000000000000000000000000000000000000000000000001000000000000000000000000000000000000000000000000000000003b9aca0000000000000000000000000000000000000000000000000000000000000002a000000000000000000000000000000000000000000000000000000000000002e0000000000000000000000000000000000000000000000000000000000000000000000000000000000000000000000000000000000000000000000000000000e4b61d27f6000000000000000000000000010700808d59d2bb92257fcafacfe8e5bff7ab8700000000000000000000000000000000000000000000000000000000000000000000000000000000000000000000000000000000000000000000000000000060000000000000000000000000000000000000000000000000000000000000004440c10f19000000000000000000000000bb14fb6f2a2b8db4aa924d561e4b7cbd7ab464fe000000000000000000000000000000000000000000000002b5e3af16b188000000000000000000000000000000000000000000000000000000000000000000000000000000000000000000000000000000000000000000000000000000000000000000000000000000000000000000000000000000000014000000000000000000000000000000000000000000000000000000000000000000000000000000000000000000000000000000000000000000000000000000827fa41615217cd736c5321916b42266fa3c9db6ea8dcd6ec3fbc4853ae87db1667cf3070587fa975ad787d703acdd0b0711895e63bf308399f9043dfb36d140011b46b76578cdc3dfc24b468f219e9ac887482214f92ca41188f1bd16af5d7dcc3957f9b9829a20801c4f5f9f73a5c54ba7fe8b140603c0fc3710d5fc5a0085c3461c000000000000000000000000000000000000000000000000000000000000",
        "nonce": "0x4c9e",
        "chainId": "0x1ecf"
      },
      "additionalContracts": [],
      "isFixedGasLimit": false
    },
    {
      "hash": "0x6553f803188a81725d0efc05f11f171685a233de590e39749c7ea0cb818c08be",
      "transactionType": "CALL",
      "contractName": null,
      "contractAddress": "0x2843c269d2a64ecfa63548e8b3fc0fd23b7f70cb",
      "function": "handleOps((address,uint256,bytes,bytes,uint256,uint256,uint256,uint256,uint256,bytes,bytes)[],address)",
      "arguments": [
        "[(0x2e2B1c42E38f5af81771e65D87729E57ABD1337a, 2632, 0x, 0xb61d27f6000000000000000000000000010700808d59d2bb92257fcafacfe8e5bff7ab8700000000000000000000000000000000000000000000000000000000000000000000000000000000000000000000000000000000000000000000000000000060000000000000000000000000000000000000000000000000000000000000004440c10f1900000000000000000000000050f8d3bd8b3e02254ba2e092eb0d73f4ccaed4bd000000000000000000000000000000000000000000000002c3c465ca58ec000000000000000000000000000000000000000000000000000000000000, 4000000, 210000, 21000, 1, 1000000000, 0x0000000000000000000000000000000000000000, 0xf2da1dd7e3912d7e7a62f1cb8106ca64d5f71b79624bcaf0014838b5690bdb851db21bed058d2631cf307fd4e1f7a3e9388ef087eead2f594cee76f0c0fd59e71bb7bedc57d68a24acc39cf08224d5c69ebc172d7765015c5445e4153db33b21295d0e3b13e94931a976845fba19a44fb76521bd9a7535e378b5c4574e369dde5e1c)]",
        "0x660ad4B5A74130a4796B4d54BC6750Ae93C86e6c"
      ],
      "transaction": {
        "from": "0x660ad4b5a74130a4796b4d54bc6750ae93c86e6c",
        "to": "0x2843c269d2a64ecfa63548e8b3fc0fd23b7f70cb",
        "value": "0x0",
        "input": "0x1fad948c0000000000000000000000000000000000000000000000000000000000000040000000000000000000000000660ad4b5a74130a4796b4d54bc6750ae93c86e6c000000000000000000000000000000000000000000000000000000000000000100000000000000000000000000000000000000000000000000000000000000200000000000000000000000002e2b1c42e38f5af81771e65d87729e57abd1337a0000000000000000000000000000000000000000000000000000000000000a480000000000000000000000000000000000000000000000000000000000000160000000000000000000000000000000000000000000000000000000000000018000000000000000000000000000000000000000000000000000000000003d0900000000000000000000000000000000000000000000000000000000000003345000000000000000000000000000000000000000000000000000000000000052080000000000000000000000000000000000000000000000000000000000000001000000000000000000000000000000000000000000000000000000003b9aca0000000000000000000000000000000000000000000000000000000000000002a000000000000000000000000000000000000000000000000000000000000002e0000000000000000000000000000000000000000000000000000000000000000000000000000000000000000000000000000000000000000000000000000000e4b61d27f6000000000000000000000000010700808d59d2bb92257fcafacfe8e5bff7ab8700000000000000000000000000000000000000000000000000000000000000000000000000000000000000000000000000000000000000000000000000000060000000000000000000000000000000000000000000000000000000000000004440c10f1900000000000000000000000050f8d3bd8b3e02254ba2e092eb0d73f4ccaed4bd000000000000000000000000000000000000000000000002c3c465ca58ec00000000000000000000000000000000000000000000000000000000000000000000000000000000000000000000000000000000000000000000000000000000000000000000000000000000000000000000000000000000001400000000000000000000000000000000000000000000000000000000000000000000000000000000000000000000000000000000000000000000000000000082f2da1dd7e3912d7e7a62f1cb8106ca64d5f71b79624bcaf0014838b5690bdb851db21bed058d2631cf307fd4e1f7a3e9388ef087eead2f594cee76f0c0fd59e71bb7bedc57d68a24acc39cf08224d5c69ebc172d7765015c5445e4153db33b21295d0e3b13e94931a976845fba19a44fb76521bd9a7535e378b5c4574e369dde5e1c000000000000000000000000000000000000000000000000000000000000",
        "nonce": "0x4c9f",
        "chainId": "0x1ecf"
      },
      "additionalContracts": [],
      "isFixedGasLimit": false
    },
    {
      "hash": "0xafe1ae76d1fce92c63796795e3eed2fe3b1a6092f0d3b14717ceb9572059e3fa",
      "transactionType": "CALL",
      "contractName": null,
      "contractAddress": "0x2843c269d2a64ecfa63548e8b3fc0fd23b7f70cb",
      "function": "handleOps((address,uint256,bytes,bytes,uint256,uint256,uint256,uint256,uint256,bytes,bytes)[],address)",
      "arguments": [
        "[(0x2e2B1c42E38f5af81771e65D87729E57ABD1337a, 2633, 0x, 0xb61d27f6000000000000000000000000010700808d59d2bb92257fcafacfe8e5bff7ab8700000000000000000000000000000000000000000000000000000000000000000000000000000000000000000000000000000000000000000000000000000060000000000000000000000000000000000000000000000000000000000000004440c10f1900000000000000000000000039f8f1d7b4ac6087ee65445355cfbc95da62cb54000000000000000000000000000000000000000000000002c3c465ca58ec000000000000000000000000000000000000000000000000000000000000, 4000000, 210000, 21000, 1, 1000000000, 0x0000000000000000000000000000000000000000, 0xda584c757856688a67c005e92cb57c3bfd2ecaf267ef5d707544bb41e895711765073e61eb0ee6fa71e4816611e4c64ece26d1d98300d5f7314364c44af0eb581cc27d97121592589bdd0306c043caa6e290990e610e3bcf417a74175059cbfe557f31567cd6f3252268988452b0538cd2f0a299fe402fadff9c40a8c3ae83b9731c)]",
        "0x660ad4B5A74130a4796B4d54BC6750Ae93C86e6c"
      ],
      "transaction": {
        "from": "0x660ad4b5a74130a4796b4d54bc6750ae93c86e6c",
        "to": "0x2843c269d2a64ecfa63548e8b3fc0fd23b7f70cb",
        "value": "0x0",
        "input": "0x1fad948c0000000000000000000000000000000000000000000000000000000000000040000000000000000000000000660ad4b5a74130a4796b4d54bc6750ae93c86e6c000000000000000000000000000000000000000000000000000000000000000100000000000000000000000000000000000000000000000000000000000000200000000000000000000000002e2b1c42e38f5af81771e65d87729e57abd1337a0000000000000000000000000000000000000000000000000000000000000a490000000000000000000000000000000000000000000000000000000000000160000000000000000000000000000000000000000000000000000000000000018000000000000000000000000000000000000000000000000000000000003d0900000000000000000000000000000000000000000000000000000000000003345000000000000000000000000000000000000000000000000000000000000052080000000000000000000000000000000000000000000000000000000000000001000000000000000000000000000000000000000000000000000000003b9aca0000000000000000000000000000000000000000000000000000000000000002a000000000000000000000000000000000000000000000000000000000000002e0000000000000000000000000000000000000000000000000000000000000000000000000000000000000000000000000000000000000000000000000000000e4b61d27f6000000000000000000000000010700808d59d2bb92257fcafacfe8e5bff7ab8700000000000000000000000000000000000000000000000000000000000000000000000000000000000000000000000000000000000000000000000000000060000000000000000000000000000000000000000000000000000000000000004440c10f1900000000000000000000000039f8f1d7b4ac6087ee65445355cfbc95da62cb54000000000000000000000000000000000000000000000002c3c465ca58ec00000000000000000000000000000000000000000000000000000000000000000000000000000000000000000000000000000000000000000000000000000000000000000000000000000000000000000000000000000000001400000000000000000000000000000000000000000000000000000000000000000000000000000000000000000000000000000000000000000000000000000082da584c757856688a67c005e92cb57c3bfd2ecaf267ef5d707544bb41e895711765073e61eb0ee6fa71e4816611e4c64ece26d1d98300d5f7314364c44af0eb581cc27d97121592589bdd0306c043caa6e290990e610e3bcf417a74175059cbfe557f31567cd6f3252268988452b0538cd2f0a299fe402fadff9c40a8c3ae83b9731c000000000000000000000000000000000000000000000000000000000000",
        "nonce": "0x4ca0",
        "chainId": "0x1ecf"
      },
      "additionalContracts": [],
      "isFixedGasLimit": false
    }
  ],
  "receipts": [
    {
      "status": "0x1",
      "cumulativeGasUsed": "0x1295a8",
      "logs": [
        {
          "address": "0x2843c269d2a64ecfa63548e8b3fc0fd23b7f70cb",
          "topics": [
            "0xbb47ee3e183a558b1a2ff0874b079f3fc5478b7454eacf2bfc5af2ff5878f972"
          ],
          "data": "0x",
          "blockHash": "0xce10bcf1756f0d9822fa4c1e2488b3043e0dd824a25ca55dc20174adb84bd093",
          "blockNumber": "0x39147",
          "transactionHash": "0xc478c677fb171b24a61d6d899fdeeecdfd8b15428ecf2967c38b41e0209d9b22",
          "transactionIndex": "0x1",
          "logIndex": "0x0",
          "removed": false
        },
        {
          "address": "0x010700808d59d2bb92257fcafacfe8e5bff7ab87",
          "topics": [
            "0xddf252ad1be2c89b69c2b068fc378daa952ba7f163c4a11628f55a4df523b3ef",
            "0x000000000000000000000000d157904639e89df05e89e0dabeec99ae3d74f9aa",
            "0x0000000000000000000000000000000000000000000000000000000000000000"
          ],
          "data": "0x0000000000000000000000000000000000000000000000083d6c7aab63600000",
          "blockHash": "0xce10bcf1756f0d9822fa4c1e2488b3043e0dd824a25ca55dc20174adb84bd093",
          "blockNumber": "0x39147",
          "transactionHash": "0xc478c677fb171b24a61d6d899fdeeecdfd8b15428ecf2967c38b41e0209d9b22",
          "transactionIndex": "0x1",
          "logIndex": "0x1",
          "removed": false
        },
        {
          "address": "0x2843c269d2a64ecfa63548e8b3fc0fd23b7f70cb",
          "topics": [
            "0x49628fd1471006c1482da88028e9ce4dbb080b815c9b0344d39e5a8e6ec1419f",
            "0xe1dc3aaa3ba09dabe3aa213bee354b463bf9de786a8a8d1929012d0f558faedd",
            "0x0000000000000000000000002e2b1c42e38f5af81771e65d87729e57abd1337a",
            "0x0000000000000000000000000000000000000000000000000000000000000000"
          ],
          "data": "0x0000000000000000000000000000000000000000000000000000000000000a4600000000000000000000000000000000000000000000000000000000000000010000000000000000000000000000000000000000000000000000000000086da50000000000000000000000000000000000000000000000000000000000086da5",
          "blockHash": "0xce10bcf1756f0d9822fa4c1e2488b3043e0dd824a25ca55dc20174adb84bd093",
          "blockNumber": "0x39147",
          "transactionHash": "0xc478c677fb171b24a61d6d899fdeeecdfd8b15428ecf2967c38b41e0209d9b22",
          "transactionIndex": "0x1",
          "logIndex": "0x2",
          "removed": false
        }
      ],
      "logsBloom": "0x00002000000400000000000000000000000000000000000000000000000001000008000000000000000000010000000000000000000000000000020000000000000000000000000000000008000000000000000000000000000000000000000800000000020000000000000000000800002000000000000000000010000000000000000000000000000000000000800000000000000000000000000000000000011400000000000020400000000000000000000000000000000002000000000000000002000000100001000000000000000000000000000000000000000020008000000000010000000000000000800000000000000000000000000000000800",
      "type": "0x2",
      "transactionHash": "0xc478c677fb171b24a61d6d899fdeeecdfd8b15428ecf2967c38b41e0209d9b22",
      "transactionIndex": "0x1",
      "blockHash": "0xce10bcf1756f0d9822fa4c1e2488b3043e0dd824a25ca55dc20174adb84bd093",
      "blockNumber": "0x39147",
      "gasUsed": "0x1295a8",
      "effectiveGasPrice": "0x5f5e100",
      "from": "0x660ad4b5a74130a4796b4d54bc6750ae93c86e6c",
      "to": "0x2843c269d2a64ecfa63548e8b3fc0fd23b7f70cb",
      "contractAddress": null,
      "gasUsedForL1": "0xfc98f",
      "l1BlockNumber": "0x140c691"
    },
    {
      "status": "0x1",
      "cumulativeGasUsed": "0x12a9cd",
      "logs": [
        {
          "address": "0x2843c269d2a64ecfa63548e8b3fc0fd23b7f70cb",
          "topics": [
            "0xbb47ee3e183a558b1a2ff0874b079f3fc5478b7454eacf2bfc5af2ff5878f972"
          ],
          "data": "0x",
          "blockHash": "0x9cc833fb6b0a073183a24b1818cf4e989667b37ea833cb15dc85a4ea4673393c",
          "blockNumber": "0x39148",
          "transactionHash": "0x7762a6012fd9a04733bf2d77485a3d71c9c500ce0092d896e0152d1c340420e3",
          "transactionIndex": "0x1",
          "logIndex": "0x0",
          "removed": false
        },
        {
          "address": "0x010700808d59d2bb92257fcafacfe8e5bff7ab87",
          "topics": [
            "0xddf252ad1be2c89b69c2b068fc378daa952ba7f163c4a11628f55a4df523b3ef",
            "0x0000000000000000000000000000000000000000000000000000000000000000",
            "0x000000000000000000000000bb14fb6f2a2b8db4aa924d561e4b7cbd7ab464fe"
          ],
          "data": "0x000000000000000000000000000000000000000000000002b5e3af16b1880000",
          "blockHash": "0x9cc833fb6b0a073183a24b1818cf4e989667b37ea833cb15dc85a4ea4673393c",
          "blockNumber": "0x39148",
          "transactionHash": "0x7762a6012fd9a04733bf2d77485a3d71c9c500ce0092d896e0152d1c340420e3",
          "transactionIndex": "0x1",
          "logIndex": "0x1",
          "removed": false
        },
        {
          "address": "0x2843c269d2a64ecfa63548e8b3fc0fd23b7f70cb",
          "topics": [
            "0x49628fd1471006c1482da88028e9ce4dbb080b815c9b0344d39e5a8e6ec1419f",
            "0xee69dd9f2a3ff513742f02a6a54b9b04b123ca20113c8259682f00bcfa75576f",
            "0x0000000000000000000000002e2b1c42e38f5af81771e65d87729e57abd1337a",
            "0x0000000000000000000000000000000000000000000000000000000000000000"
          ],
          "data": "0x0000000000000000000000000000000000000000000000000000000000000a47000000000000000000000000000000000000000000000000000000000000000100000000000000000000000000000000000000000000000000000000000865d500000000000000000000000000000000000000000000000000000000000865d5",
          "blockHash": "0x9cc833fb6b0a073183a24b1818cf4e989667b37ea833cb15dc85a4ea4673393c",
          "blockNumber": "0x39148",
          "transactionHash": "0x7762a6012fd9a04733bf2d77485a3d71c9c500ce0092d896e0152d1c340420e3",
          "transactionIndex": "0x1",
          "logIndex": "0x2",
          "removed": false
        }
      ],
      "logsBloom": "0x00000000000400000000000000000000000000000000000000000000000000000008000008000000000000010000000000000000000000000000020000000000000000000000000000000008000000000000000000000000000000000000000800000000020000800000000000000800002000000000000000000010000000000000000000000000000000000000800004000000000000000000000000001000001400000000000000404000000000000000000000000000000002000000000000010002000000100001000000000000000000000000000000000000000020000000000000010000000000000000800000000000000000000000000000000000",
      "type": "0x2",
      "transactionHash": "0x7762a6012fd9a04733bf2d77485a3d71c9c500ce0092d896e0152d1c340420e3",
      "transactionIndex": "0x1",
      "blockHash": "0x9cc833fb6b0a073183a24b1818cf4e989667b37ea833cb15dc85a4ea4673393c",
      "blockNumber": "0x39148",
      "gasUsed": "0x12a9cd",
      "effectiveGasPrice": "0x5f5e100",
      "from": "0x660ad4b5a74130a4796b4d54bc6750ae93c86e6c",
      "to": "0x2843c269d2a64ecfa63548e8b3fc0fd23b7f70cb",
      "contractAddress": null,
      "gasUsedForL1": "0xfe66e",
      "l1BlockNumber": "0x140c691"
    },
    {
      "status": "0x1",
      "cumulativeGasUsed": "0x128cfa",
      "logs": [
        {
          "address": "0x2843c269d2a64ecfa63548e8b3fc0fd23b7f70cb",
          "topics": [
            "0xbb47ee3e183a558b1a2ff0874b079f3fc5478b7454eacf2bfc5af2ff5878f972"
          ],
          "data": "0x",
          "blockHash": "0x4e3e68959d91877aeaee258004cc5b8137b88d94a3987219405149c76df2b0d5",
          "blockNumber": "0x39149",
          "transactionHash": "0x6553f803188a81725d0efc05f11f171685a233de590e39749c7ea0cb818c08be",
          "transactionIndex": "0x1",
          "logIndex": "0x0",
          "removed": false
        },
        {
          "address": "0x010700808d59d2bb92257fcafacfe8e5bff7ab87",
          "topics": [
            "0xddf252ad1be2c89b69c2b068fc378daa952ba7f163c4a11628f55a4df523b3ef",
            "0x0000000000000000000000000000000000000000000000000000000000000000",
            "0x00000000000000000000000050f8d3bd8b3e02254ba2e092eb0d73f4ccaed4bd"
          ],
          "data": "0x000000000000000000000000000000000000000000000002c3c465ca58ec0000",
          "blockHash": "0x4e3e68959d91877aeaee258004cc5b8137b88d94a3987219405149c76df2b0d5",
          "blockNumber": "0x39149",
          "transactionHash": "0x6553f803188a81725d0efc05f11f171685a233de590e39749c7ea0cb818c08be",
          "transactionIndex": "0x1",
          "logIndex": "0x1",
          "removed": false
        },
        {
          "address": "0x2843c269d2a64ecfa63548e8b3fc0fd23b7f70cb",
          "topics": [
            "0x49628fd1471006c1482da88028e9ce4dbb080b815c9b0344d39e5a8e6ec1419f",
            "0x49af6355684ee55bd74b3226d3d3d304174967259e8143209fa9851f71d26af6",
            "0x0000000000000000000000002e2b1c42e38f5af81771e65d87729e57abd1337a",
            "0x0000000000000000000000000000000000000000000000000000000000000000"
          ],
          "data": "0x0000000000000000000000000000000000000000000000000000000000000a48000000000000000000000000000000000000000000000000000000000000000100000000000000000000000000000000000000000000000000000000000865d500000000000000000000000000000000000000000000000000000000000865d5",
          "blockHash": "0x4e3e68959d91877aeaee258004cc5b8137b88d94a3987219405149c76df2b0d5",
          "blockNumber": "0x39149",
          "transactionHash": "0x6553f803188a81725d0efc05f11f171685a233de590e39749c7ea0cb818c08be",
          "transactionIndex": "0x1",
          "logIndex": "0x2",
          "removed": false
        }
      ],
      "logsBloom": "0x00000000000400000000000000000000000000000000000000000080000000000008000000000000000000010000000000000000000000000000020000000000000000000000000000000008000000000000000000000000000800000000000800000000020000800000000000000800002000000000000000000010000000000000000000000000000000000000800000000000000000000000000000000000001400000000000000400000000000000000000000000000200002000000000000000002000000100001000000000000000000000000000000000000000020000000000000010000000000000000800000000000000000000000000400000000",
      "type": "0x2",
      "transactionHash": "0x6553f803188a81725d0efc05f11f171685a233de590e39749c7ea0cb818c08be",
      "transactionIndex": "0x1",
      "blockHash": "0x4e3e68959d91877aeaee258004cc5b8137b88d94a3987219405149c76df2b0d5",
      "blockNumber": "0x39149",
      "gasUsed": "0x128cfa",
      "effectiveGasPrice": "0x5f5e100",
      "from": "0x660ad4b5a74130a4796b4d54bc6750ae93c86e6c",
      "to": "0x2843c269d2a64ecfa63548e8b3fc0fd23b7f70cb",
      "contractAddress": null,
      "gasUsedForL1": "0xfc98f",
      "l1BlockNumber": "0x140c691"
    },
    {
      "status": "0x1",
      "cumulativeGasUsed": "0x130067",
      "logs": [
        {
          "address": "0x2843c269d2a64ecfa63548e8b3fc0fd23b7f70cb",
          "topics": [
            "0xbb47ee3e183a558b1a2ff0874b079f3fc5478b7454eacf2bfc5af2ff5878f972"
          ],
          "data": "0x",
          "blockHash": "0x73d7ba047c25ef62efd08ad55fceb4d8dcde167af260e573a2cba6f43808b903",
          "blockNumber": "0x3914a",
          "transactionHash": "0xafe1ae76d1fce92c63796795e3eed2fe3b1a6092f0d3b14717ceb9572059e3fa",
          "transactionIndex": "0x1",
          "logIndex": "0x0",
          "removed": false
        },
        {
          "address": "0x010700808d59d2bb92257fcafacfe8e5bff7ab87",
          "topics": [
            "0xddf252ad1be2c89b69c2b068fc378daa952ba7f163c4a11628f55a4df523b3ef",
            "0x0000000000000000000000000000000000000000000000000000000000000000",
            "0x00000000000000000000000039f8f1d7b4ac6087ee65445355cfbc95da62cb54"
          ],
          "data": "0x000000000000000000000000000000000000000000000002c3c465ca58ec0000",
          "blockHash": "0x73d7ba047c25ef62efd08ad55fceb4d8dcde167af260e573a2cba6f43808b903",
          "blockNumber": "0x3914a",
          "transactionHash": "0xafe1ae76d1fce92c63796795e3eed2fe3b1a6092f0d3b14717ceb9572059e3fa",
          "transactionIndex": "0x1",
          "logIndex": "0x1",
          "removed": false
        },
        {
          "address": "0x2843c269d2a64ecfa63548e8b3fc0fd23b7f70cb",
          "topics": [
            "0x49628fd1471006c1482da88028e9ce4dbb080b815c9b0344d39e5a8e6ec1419f",
            "0xe8dd09410408caffd81c7d54ecbe7f20a5fe95ec6f195df424cf487b5fb844c2",
            "0x0000000000000000000000002e2b1c42e38f5af81771e65d87729e57abd1337a",
            "0x0000000000000000000000000000000000000000000000000000000000000000"
          ],
          "data": "0x0000000000000000000000000000000000000000000000000000000000000a49000000000000000000000000000000000000000000000000000000000000000100000000000000000000000000000000000000000000000000000000000865d500000000000000000000000000000000000000000000000000000000000865d5",
          "blockHash": "0x73d7ba047c25ef62efd08ad55fceb4d8dcde167af260e573a2cba6f43808b903",
          "blockNumber": "0x3914a",
          "transactionHash": "0xafe1ae76d1fce92c63796795e3eed2fe3b1a6092f0d3b14717ceb9572059e3fa",
          "transactionIndex": "0x1",
          "logIndex": "0x2",
          "removed": false
        }
      ],
      "logsBloom": "0x00000000000400000000000000000000000000000000400000040000000000000008000000000000008000010000000000000000000000000000020000000000000000000000000000000008000000000000000000000000000000000000000800000000020000000000000000000800002000000000000000000010000000000000000000000000000000000000800000000000000000000000000000000000001400000000000000400000000000000000000000000000000003000000000000000002000000100001000000000000000000000000000000000000000020000000000000010000000000000400800000200000000000000000000000000000",
      "type": "0x2",
      "transactionHash": "0xafe1ae76d1fce92c63796795e3eed2fe3b1a6092f0d3b14717ceb9572059e3fa",
      "transactionIndex": "0x1",
      "blockHash": "0x73d7ba047c25ef62efd08ad55fceb4d8dcde167af260e573a2cba6f43808b903",
      "blockNumber": "0x3914a",
      "gasUsed": "0x130067",
      "effectiveGasPrice": "0x5f5e100",
      "from": "0x660ad4b5a74130a4796b4d54bc6750ae93c86e6c",
      "to": "0x2843c269d2a64ecfa63548e8b3fc0fd23b7f70cb",
      "contractAddress": null,
      "gasUsedForL1": "0x103d08",
      "l1BlockNumber": "0x140c691"
    }
  ],
  "libraries": [],
  "pending": [],
  "returns": {},
  "timestamp": 1729615002,
  "chain": 7887,
  "commit": "d9f92df3"
}