{
  "transactions": [
    {
      "hash": null,
      "transactionType": "CALL",
      "contractName": null,
      "contractAddress": "0x2843C269D2a64eCfA63548E8B3Fc0FD23B7F70cb",
      "function": "handleOps((address,uint256,bytes,bytes,uint256,uint256,uint256,uint256,uint256,bytes,bytes)[],address)",
      "arguments": [
        "[(0x2e2B1c42E38f5af81771e65D87729E57ABD1337a, 35, 0x, 0xb61d27f6000000000000000000000000336a76a7a2a1e97ce20c420f39fc08c441234aa2000000000000000000000000000000000000000000000000000000000000000000000000000000000000000000000000000000000000000000000000000000600000000000000000000000000000000000000000000000000000000000000024f2fde38b000000000000000000000000c1f4d15c16a1f3555e0a5f7aefd1e17ad4aaf40b00000000000000000000000000000000000000000000000000000000, 4000000, 210000, 21000, 1, 1000000000, 0x1842a4eff3efd24c50b63c3cf89cecee245fc2bd, 0x8e81a8e4b8781215b5f7be3c6396020946ebbe6f3e880bb36d7d4d48f4f8137e457518220e1a40bb8816dabdef5a00430088bd955e3bcb66dacc7e4619699a1b1c)]",
        "0x660ad4B5A74130a4796B4d54BC6750Ae93C86e6c"
      ],
      "transaction": {
        "type": "0x02",
        "from": "0x660ad4b5a74130a4796b4d54bc6750ae93c86e6c",
        "to": "0x2843c269d2a64ecfa63548e8b3fc0fd23b7f70cb",
        "gas": "0x55055",
        "value": "0x0",
        "data": "0x1fad948c0000000000000000000000000000000000000000000000000000000000000040000000000000000000000000660ad4b5a74130a4796b4d54bc6750ae93c86e6c000000000000000000000000000000000000000000000000000000000000000100000000000000000000000000000000000000000000000000000000000000200000000000000000000000002e2b1c42e38f5af81771e65d87729e57abd1337a00000000000000000000000000000000000000000000000000000000000000230000000000000000000000000000000000000000000000000000000000000160000000000000000000000000000000000000000000000000000000000000018000000000000000000000000000000000000000000000000000000000003d0900000000000000000000000000000000000000000000000000000000000003345000000000000000000000000000000000000000000000000000000000000052080000000000000000000000000000000000000000000000000000000000000001000000000000000000000000000000000000000000000000000000003b9aca00000000000000000000000000000000000000000000000000000000000000028000000000000000000000000000000000000000000000000000000000000002c0000000000000000000000000000000000000000000000000000000000000000000000000000000000000000000000000000000000000000000000000000000c4b61d27f6000000000000000000000000336a76a7a2a1e97ce20c420f39fc08c441234aa2000000000000000000000000000000000000000000000000000000000000000000000000000000000000000000000000000000000000000000000000000000600000000000000000000000000000000000000000000000000000000000000024f2fde38b000000000000000000000000c1f4d15c16a1f3555e0a5f7aefd1e17ad4aaf40b000000000000000000000000000000000000000000000000000000000000000000000000000000000000000000000000000000000000000000000000000000000000000000000000000000000000000000000000000000141842a4eff3efd24c50b63c3cf89cecee245fc2bd00000000000000000000000000000000000000000000000000000000000000000000000000000000000000418e81a8e4b8781215b5f7be3c6396020946ebbe6f3e880bb36d7d4d48f4f8137e457518220e1a40bb8816dabdef5a00430088bd955e3bcb66dacc7e4619699a1b1c00000000000000000000000000000000000000000000000000000000000000",
        "nonce": "0x1a91",
        "accessList": []
      },
      "additionalContracts": [],
      "isFixedGasLimit": false
    }
  ],
  "receipts": [],
  "libraries": [],
  "pending": [],
  "returns": {},
  "timestamp": 1709323627,
  "chain": 7887,
  "multi": false,
  "commit": "1b7553e"
}