{
  "transactions": [
    {
      "hash": "0x68f772adad0af8a3d073bfd5a82b6f937844c0b0dbd7394f755dff4d80399421",
      "transactionType": "CALL",
      "contractName": null,
      "contractAddress": "0x2843c269d2a64ecfa63548e8b3fc0fd23b7f70cb",
      "function": "handleOps((address,uint256,bytes,bytes,uint256,uint256,uint256,uint256,uint256,bytes,bytes)[],address)",
      "arguments": [
        "[(0x2e2B1c42E38f5af81771e65D87729E57ABD1337a, 2513, 0x, 0xb61d27f60000000000000000000000005a2b641b84b0230c8e75f55d5afd27f4dbd59d5b0000000000000000000000000000000000000000000000000000000000000000000000000000000000000000000000000000000000000000000000000000006000000000000000000000000000000000000000000000000000000000000000e4e2c463160000000000000000000000003e9727470c66b1e77034590926cde0242b5a3dcc000000000000000000000000000000000000000000000000000000000000006000000000000000000000000000000000000000000000000000000000000000a00000000000000000000000000000000000000000000000000000000000000001000000000000000000000000736f6c64c8e25db3560db6cdb9ccaa35fcbe8a390000000000000000000000000000000000000000000000000000000000000001000000000000000000000000000000000000000000000000000000000000000100000000000000000000000000000000000000000000000000000000, 4000000, 210000, 21000, 1, 1000000000, 0x0000000000000000000000000000000000000000, 0x4151d486411782dc4a60dc7e2ea70eaa1de37db8e480958cf4d0a3213e6195e030f1d3889a4207b62d581eb1864c12789f8e1451128dacf9bd56c28f3a4fda691b5d67ae7d0d72e0aa555a5414d0b058fd1f23c03ee50488b80a4575e44c7cf0656b1c6e99e2c9a6a4f0c3191d5487d12732c162087dc4ad4ab236f95896a495f31c)]",
        "0x660ad4B5A74130a4796B4d54BC6750Ae93C86e6c"
      ],
      "transaction": {
        "from": "0x660ad4b5a74130a4796b4d54bc6750ae93c86e6c",
        "to": "0x2843c269d2a64ecfa63548e8b3fc0fd23b7f70cb",
        "value": "0x0",
        "input": "0x1fad948c0000000000000000000000000000000000000000000000000000000000000040000000000000000000000000660ad4b5a74130a4796b4d54bc6750ae93c86e6c000000000000000000000000000000000000000000000000000000000000000100000000000000000000000000000000000000000000000000000000000000200000000000000000000000002e2b1c42e38f5af81771e65d87729e57abd1337a00000000000000000000000000000000000000000000000000000000000009d10000000000000000000000000000000000000000000000000000000000000160000000000000000000000000000000000000000000000000000000000000018000000000000000000000000000000000000000000000000000000000003d0900000000000000000000000000000000000000000000000000000000000003345000000000000000000000000000000000000000000000000000000000000052080000000000000000000000000000000000000000000000000000000000000001000000000000000000000000000000000000000000000000000000003b9aca000000000000000000000000000000000000000000000000000000000000000340000000000000000000000000000000000000000000000000000000000000038000000000000000000000000000000000000000000000000000000000000000000000000000000000000000000000000000000000000000000000000000000184b61d27f60000000000000000000000005a2b641b84b0230c8e75f55d5afd27f4dbd59d5b0000000000000000000000000000000000000000000000000000000000000000000000000000000000000000000000000000000000000000000000000000006000000000000000000000000000000000000000000000000000000000000000e4e2c463160000000000000000000000003e9727470c66b1e77034590926cde0242b5a3dcc000000000000000000000000000000000000000000000000000000000000006000000000000000000000000000000000000000000000000000000000000000a00000000000000000000000000000000000000000000000000000000000000001000000000000000000000000736f6c64c8e25db3560db6cdb9ccaa35fcbe8a390000000000000000000000000000000000000000000000000000000000000001000000000000000000000000000000000000000000000000000000000000000100000000000000000000000000000000000000000000000000000000000000000000000000000000000000000000000000000000000000000000000000000000000000000000000000000000000000000000000000000014000000000000000000000000000000000000000000000000000000000000000000000000000000000000000000000000000000000000000000000000000000824151d486411782dc4a60dc7e2ea70eaa1de37db8e480958cf4d0a3213e6195e030f1d3889a4207b62d581eb1864c12789f8e1451128dacf9bd56c28f3a4fda691b5d67ae7d0d72e0aa555a5414d0b058fd1f23c03ee50488b80a4575e44c7cf0656b1c6e99e2c9a6a4f0c3191d5487d12732c162087dc4ad4ab236f95896a495f31c000000000000000000000000000000000000000000000000000000000000",
        "nonce": "0x4b82",
        "chainId": "0x1ecf"
      },
      "additionalContracts": [],
      "isFixedGasLimit": false
    }
  ],
  "receipts": [
    {
      "status": "0x1",
      "cumulativeGasUsed": "0x107b48",
      "logs": [
        {
          "address": "0x2843c269d2a64ecfa63548e8b3fc0fd23b7f70cb",
          "topics": [
            "0xbb47ee3e183a558b1a2ff0874b079f3fc5478b7454eacf2bfc5af2ff5878f972"
          ],
          "data": "0x",
          "blockHash": "0xdefc8ab00d1d1c0087e5f8faf0e8767d03b1cdd3761f6a1eb85553087d6be3c7",
          "blockNumber": "0x37a88",
          "transactionHash": "0x68f772adad0af8a3d073bfd5a82b6f937844c0b0dbd7394f755dff4d80399421",
          "transactionIndex": "0x1",
          "logIndex": "0x0",
          "removed": false
        },
        {
          "address": "0x2843c269d2a64ecfa63548e8b3fc0fd23b7f70cb",
          "topics": [
            "0x49628fd1471006c1482da88028e9ce4dbb080b815c9b0344d39e5a8e6ec1419f",
            "0x2dc0b2008fa7840a561dc6ad2f6a789e21f74ed32a47e44a8a0c87b568e4f4c8",
            "0x0000000000000000000000002e2b1c42e38f5af81771e65d87729e57abd1337a",
            "0x0000000000000000000000000000000000000000000000000000000000000000"
          ],
          "data": "0x00000000000000000000000000000000000000000000000000000000000009d100000000000000000000000000000000000000000000000000000000000000010000000000000000000000000000000000000000000000000000000000087fdd0000000000000000000000000000000000000000000000000000000000087fdd",
          "blockHash": "0xdefc8ab00d1d1c0087e5f8faf0e8767d03b1cdd3761f6a1eb85553087d6be3c7",
          "blockNumber": "0x37a88",
          "transactionHash": "0x68f772adad0af8a3d073bfd5a82b6f937844c0b0dbd7394f755dff4d80399421",
          "transactionIndex": "0x1",
          "logIndex": "0x1",
          "removed": false
        }
      ],
      "logsBloom": "0x00000000000000000000000000000000000000000000000000000000000000000008000000000000000000010000000000000000000000000000020000000000000000000000000000000000000100000000000000000000000000000000000800000000020000000000000000000800002000000000000000000000000000000000000000000000000000000000800000000000000000000000000000000000000400000000000000400200000000000000000000000000000002000000000000000000000000100001000000000000000000000000000000400000000020000000000000010000000000000000000000000000000000000000000000000000",
      "type": "0x2",
      "transactionHash": "0x68f772adad0af8a3d073bfd5a82b6f937844c0b0dbd7394f755dff4d80399421",
      "transactionIndex": "0x1",
      "blockHash": "0xdefc8ab00d1d1c0087e5f8faf0e8767d03b1cdd3761f6a1eb85553087d6be3c7",
      "blockNumber": "0x37a88",
      "gasUsed": "0x107b48",
      "effectiveGasPrice": "0x5f5e100",
      "from": "0x660ad4b5a74130a4796b4d54bc6750ae93c86e6c",
      "to": "0x2843c269d2a64ecfa63548e8b3fc0fd23b7f70cb",
      "contractAddress": null,
      "gasUsedForL1": "0xd9664",
      "l1BlockNumber": "0x13e5d6c"
    }
  ],
  "libraries": [],
  "pending": [],
  "returns": {},
  "timestamp": 1727710102,
  "chain": 7887,
  "commit": "475d076"
}