{
  "transactions": [
    {
      "hash": "0x558161a484b5a0c5042d2124a475db89f4235c88726628a7ce401b8b87b3b8a9",
      "transactionType": "CALL",
      "contractName": null,
      "contractAddress": "0x2843c269d2a64ecfa63548e8b3fc0fd23b7f70cb",
      "function": "handleOps((address,uint256,bytes,bytes,uint256,uint256,uint256,uint256,uint256,bytes,bytes)[],address)",
      "arguments": [
        "[(0x2e2B1c42E38f5af81771e65D87729E57ABD1337a, 3576, 0x, 0xb61d27f60000000000000000000000005a2b641b84b0230c8e75f55d5afd27f4dbd59d5b0000000000000000000000000000000000000000000000000000000000000000000000000000000000000000000000000000000000000000000000000000006000000000000000000000000000000000000000000000000000000000000000e4e2c463160000000000000000000000003e9727470c66b1e77034590926cde0242b5a3dcc000000000000000000000000000000000000000000000000000000000000006000000000000000000000000000000000000000000000000000000000000000a0000000000000000000000000000000000000000000000000000000000000000100000000000000000000000069006c45c3358359815d4dc55fa314ab0e70776b0000000000000000000000000000000000000000000000000000000000000001000000000000000000000000000000000000000000000000000000000000000100000000000000000000000000000000000000000000000000000000, 4000000, 210000, 21000, 1, 1000000000, 0x0000000000000000000000000000000000000000, 0xce68a5ceecf7747076cc4d3ff478bb918504fc26eac13ee7b1132dde495366fe737a079018acc421133d6b5f24e9960d1634c5037494c16948b5c0a3eee657391c9d5bd6fdcf6e02410f92448374ccc229cc207bad2788329d3df0af5b4d14c8085c812c812c0d048631245704cf0d3f4ef83d8629b64f05f966340592957dbace1c)]",
        "0x660ad4B5A74130a4796B4d54BC6750Ae93C86e6c"
      ],
      "transaction": {
        "from": "0x660ad4b5a74130a4796b4d54bc6750ae93c86e6c",
        "to": "0x2843c269d2a64ecfa63548e8b3fc0fd23b7f70cb",
        "value": "0x0",
        "input": "0x1fad948c0000000000000000000000000000000000000000000000000000000000000040000000000000000000000000660ad4b5a74130a4796b4d54bc6750ae93c86e6c000000000000000000000000000000000000000000000000000000000000000100000000000000000000000000000000000000000000000000000000000000200000000000000000000000002e2b1c42e38f5af81771e65d87729e57abd1337a0000000000000000000000000000000000000000000000000000000000000df80000000000000000000000000000000000000000000000000000000000000160000000000000000000000000000000000000000000000000000000000000018000000000000000000000000000000000000000000000000000000000003d0900000000000000000000000000000000000000000000000000000000000003345000000000000000000000000000000000000000000000000000000000000052080000000000000000000000000000000000000000000000000000000000000001000000000000000000000000000000000000000000000000000000003b9aca000000000000000000000000000000000000000000000000000000000000000340000000000000000000000000000000000000000000000000000000000000038000000000000000000000000000000000000000000000000000000000000000000000000000000000000000000000000000000000000000000000000000000184b61d27f60000000000000000000000005a2b641b84b0230c8e75f55d5afd27f4dbd59d5b0000000000000000000000000000000000000000000000000000000000000000000000000000000000000000000000000000000000000000000000000000006000000000000000000000000000000000000000000000000000000000000000e4e2c463160000000000000000000000003e9727470c66b1e77034590926cde0242b5a3dcc000000000000000000000000000000000000000000000000000000000000006000000000000000000000000000000000000000000000000000000000000000a0000000000000000000000000000000000000000000000000000000000000000100000000000000000000000069006c45c3358359815d4dc55fa314ab0e70776b000000000000000000000000000000000000000000000000000000000000000100000000000000000000000000000000000000000000000000000000000000010000000000000000000000000000000000000000000000000000000000000000000000000000000000000000000000000000000000000000000000000000000000000000000000000000000000000000000000000000001400000000000000000000000000000000000000000000000000000000000000000000000000000000000000000000000000000000000000000000000000000082ce68a5ceecf7747076cc4d3ff478bb918504fc26eac13ee7b1132dde495366fe737a079018acc421133d6b5f24e9960d1634c5037494c16948b5c0a3eee657391c9d5bd6fdcf6e02410f92448374ccc229cc207bad2788329d3df0af5b4d14c8085c812c812c0d048631245704cf0d3f4ef83d8629b64f05f966340592957dbace1c000000000000000000000000000000000000000000000000000000000000",
        "nonce": "0x5f2d",
        "chainId": "0x1ecf"
      },
      "additionalContracts": [],
      "isFixedGasLimit": false
    }
  ],
  "receipts": [
    {
      "status": "0x1",
      "cumulativeGasUsed": "0x55c78",
      "logs": [
        {
          "address": "0x2843c269d2a64ecfa63548e8b3fc0fd23b7f70cb",
          "topics": [
            "0xbb47ee3e183a558b1a2ff0874b079f3fc5478b7454eacf2bfc5af2ff5878f972"
          ],
          "data": "0x",
          "blockHash": "0xf388e3d43210d74802be50d590dfdd2e302f6b96abb13578865250a2f6ccb852",
          "blockNumber": "0x3cc0f",
          "transactionHash": "0x558161a484b5a0c5042d2124a475db89f4235c88726628a7ce401b8b87b3b8a9",
          "transactionIndex": "0x1",
          "logIndex": "0x0",
          "removed": false
        },
        {
          "address": "0x2843c269d2a64ecfa63548e8b3fc0fd23b7f70cb",
          "topics": [
            "0x49628fd1471006c1482da88028e9ce4dbb080b815c9b0344d39e5a8e6ec1419f",
            "0x8d734b1b48870e18a4925a66bd50a0c70aaf56808b3e750e081617078f1b51b7",
            "0x0000000000000000000000002e2b1c42e38f5af81771e65d87729e57abd1337a",
            "0x0000000000000000000000000000000000000000000000000000000000000000"
          ],
          "data": "0x0000000000000000000000000000000000000000000000000000000000000df800000000000000000000000000000000000000000000000000000000000000010000000000000000000000000000000000000000000000000000000000087fc60000000000000000000000000000000000000000000000000000000000087fc6",
          "blockHash": "0xf388e3d43210d74802be50d590dfdd2e302f6b96abb13578865250a2f6ccb852",
          "blockNumber": "0x3cc0f",
          "transactionHash": "0x558161a484b5a0c5042d2124a475db89f4235c88726628a7ce401b8b87b3b8a9",
          "transactionIndex": "0x1",
          "logIndex": "0x1",
          "removed": false
        }
      ],
      "logsBloom": "0x00000000000000000000000000000000000000000000000000000000000000000008000000000000000000010000000000000000000000000000020000000000000000000000000000000000000000000000000000000000000000000000000800000000020000000000000000000800002000000000000000000000000000000200000000000000000000000000800000000000000000000000000000000000000400000000000000400000000000000000000000000000000002000000000400000000000000100001000000000000000000000000000000000000000020000000000000010000000000000004000000000000000000000000000000000000",
      "type": "0x2",
      "transactionHash": "0x558161a484b5a0c5042d2124a475db89f4235c88726628a7ce401b8b87b3b8a9",
      "transactionIndex": "0x1",
      "blockHash": "0xf388e3d43210d74802be50d590dfdd2e302f6b96abb13578865250a2f6ccb852",
      "blockNumber": "0x3cc0f",
      "gasUsed": "0x55c78",
      "effectiveGasPrice": "0x5f5e100",
      "from": "0x660ad4b5a74130a4796b4d54bc6750ae93c86e6c",
      "to": "0x2843c269d2a64ecfa63548e8b3fc0fd23b7f70cb",
      "contractAddress": null,
      "gasUsedForL1": "0x277b4",
      "l1BlockNumber": "0x14237e5"
    }
  ],
  "libraries": [],
  "pending": [],
  "returns": {},
  "timestamp": 1730754873,
  "chain": 7887,
  "commit": "142576b"
}