{
  "transactions": [
    {
      "hash": "0xc6c26b9f412de4f7eaf5f5989e5a5a6399db38084bd1d75444cba88ec4837c0d",
      "transactionType": "CALL",
      "contractName": null,
      "contractAddress": "0x010700ab046dd8e92b0e3587842080df36364ed3",
      "function": "revokeRole(bytes32,address)",
      "arguments": [
        "0x7b765e0e932d348852a6f810bfa1ab891e259123f02db8cdcde614c570223357",
        "0x660ad4B5A74130a4796B4d54BC6750Ae93C86e6c"
      ],
      "transaction": {
        "from": "0x660ad4b5a74130a4796b4d54bc6750ae93c86e6c",
        "to": "0x010700ab046dd8e92b0e3587842080df36364ed3",
        "gas": "0x133ea",
        "value": "0x0",
        "input": "0xd547741f7b765e0e932d348852a6f810bfa1ab891e259123f02db8cdcde614c570223357000000000000000000000000660ad4b5a74130a4796b4d54bc6750ae93c86e6c",
        "nonce": "0x32c",
        "chainId": "0xa4b1"
      },
      "additionalContracts": [],
      "isFixedGasLimit": false
    }
  ],
  "receipts": [
    {
      "status": "0x1",
      "cumulativeGasUsed": "0xd225",
      "logs": [
        {
          "address": "0x010700ab046dd8e92b0e3587842080df36364ed3",
          "topics": [
            "0xf6391f5c32d9c69d2a47ea670b442974b53935d1edc7fd64eb21e047a839171b",
            "0x7b765e0e932d348852a6f810bfa1ab891e259123f02db8cdcde614c570223357",
            "0x000000000000000000000000660ad4b5a74130a4796b4d54bc6750ae93c86e6c",
            "0x000000000000000000000000660ad4b5a74130a4796b4d54bc6750ae93c86e6c"
          ],
          "data": "0x",
          "blockHash": "0x2e308bc7f7dd07aa90a8979389caccd4252fabd1ce054e09fbc1056a134f54a0",
          "blockNumber": "0x130742cd",
          "transactionHash": "0xc6c26b9f412de4f7eaf5f5989e5a5a6399db38084bd1d75444cba88ec4837c0d",
          "transactionIndex": "0x1",
          "logIndex": "0x0",
          "removed": false
        }
      ],
      "logsBloom": "0x00000000000000000000000000000000000000000000000000000000000000000000000000000000000000000000000000200000000000000000000000000000000000000000000002000000000000000000000000000000000001000000080040000000000000000000000000000000000000000000000000020000000000000000000040000000000000000000000000000000000000000000000000000000000000000000000000000000000000000000000000000000000000000000000000000002000000000100000000000000000000000000000008000000000000000000004000000000000000000400000000000000000000000000000000000000",
      "type": "0x2",
      "transactionHash": "0xc6c26b9f412de4f7eaf5f5989e5a5a6399db38084bd1d75444cba88ec4837c0d",
      "transactionIndex": "0x1",
      "blockHash": "0x2e308bc7f7dd07aa90a8979389caccd4252fabd1ce054e09fbc1056a134f54a0",
      "blockNumber": "0x130742cd",
      "gasUsed": "0xd225",
      "effectiveGasPrice": "0x993e78",
      "from": "0x660ad4b5a74130a4796b4d54bc6750ae93c86e6c",
      "to": "0x010700ab046dd8e92b0e3587842080df36364ed3",
      "contractAddress": null,
      "gasUsedForL1": "0xc8c",
      "l1BlockNumber": "0x15189f3"
    }
  ],
  "libraries": [],
  "pending": [],
  "returns": {},
  "timestamp": 1742869835,
  "chain": 42161,
  "commit": "cd6c11a0"
}