{
  "transactions": [
    {
      "hash": "0x5e4495dfba4023380c3ce32a0c33da6eb7ef01ae3d31112d0eb1214c181fa5f5",
      "transactionType": "CALL",
      "contractName": null,
      "contractAddress": "0x2843c269d2a64ecfa63548e8b3fc0fd23b7f70cb",
      "function": "handleOps((address,uint256,bytes,bytes,uint256,uint256,uint256,uint256,uint256,bytes,bytes)[],address)",
      "arguments": [
        "[(0x2e2B1c42E38f5af81771e65D87729E57ABD1337a, 1866, 0x, 0xb61d27f6000000000000000000000000c7fca8ab6d1e1142790454e7e5655d93c3b03ed6000000000000000000000000000000000000000000000000002a1390f84d8f9600000000000000000000000000000000000000000000000000000000000000600000000000000000000000000000000000000000000000000000000000000104405e720a000000000000000000000000660ad4b5a74130a4796b4d54bc6750ae93c86e6c00000000000000000000000000000000000000000000000000038d7ea4c68000000000000000000000000000000000000000000000000000000000000007a1200000000000000000000000003301d0616365f55a54059707e49f93d18159f12900000000000000000000000000000000000000000000000000000000000000c000000000000000000000000000000000000000000000000000000000000000e00000000000000000000000000000000000000000000000000000000000000000000000000000000000000000000000000000000000000000000000000000000000000000000000000000000000000000000000000000000000000000, 4000000, 210000, 21000, 1, 1000000000, 0x0000000000000000000000000000000000000000, 0x977c2f01ca5af75a85bc749a82b6b441ac9409e4eab0a27170b0e8efb81bd36571b9670db3712b5c3e093edb3b65064c44be31775fd7f0d9619535de72fab8d81b)]",
        "0x660ad4B5A74130a4796B4d54BC6750Ae93C86e6c"
      ],
      "transaction": {
        "from": "0x660ad4b5a74130a4796b4d54bc6750ae93c86e6c",
        "to": "0x2843c269d2a64ecfa63548e8b3fc0fd23b7f70cb",
        "gas": "0x7a2650",
        "value": "0x0",
        "input": "0x1fad948c0000000000000000000000000000000000000000000000000000000000000040000000000000000000000000660ad4b5a74130a4796b4d54bc6750ae93c86e6c000000000000000000000000000000000000000000000000000000000000000100000000000000000000000000000000000000000000000000000000000000200000000000000000000000002e2b1c42e38f5af81771e65d87729e57abd1337a000000000000000000000000000000000000000000000000000000000000074a0000000000000000000000000000000000000000000000000000000000000160000000000000000000000000000000000000000000000000000000000000018000000000000000000000000000000000000000000000000000000000003d0900000000000000000000000000000000000000000000000000000000000003345000000000000000000000000000000000000000000000000000000000000052080000000000000000000000000000000000000000000000000000000000000001000000000000000000000000000000000000000000000000000000003b9aca00000000000000000000000000000000000000000000000000000000000000036000000000000000000000000000000000000000000000000000000000000003a0000000000000000000000000000000000000000000000000000000000000000000000000000000000000000000000000000000000000000000000000000001a4b61d27f6000000000000000000000000c7fca8ab6d1e1142790454e7e5655d93c3b03ed6000000000000000000000000000000000000000000000000002a1390f84d8f9600000000000000000000000000000000000000000000000000000000000000600000000000000000000000000000000000000000000000000000000000000104405e720a000000000000000000000000660ad4b5a74130a4796b4d54bc6750ae93c86e6c00000000000000000000000000000000000000000000000000038d7ea4c68000000000000000000000000000000000000000000000000000000000000007a1200000000000000000000000003301d0616365f55a54059707e49f93d18159f12900000000000000000000000000000000000000000000000000000000000000c000000000000000000000000000000000000000000000000000000000000000e0000000000000000000000000000000000000000000000000000000000000000000000000000000000000000000000000000000000000000000000000000000000000000000000000000000000000000000000000000000000000000000000000000000000000000000000000000000000000000000000000000000000000000000000000000000000000000000000000000000000000001400000000000000000000000000000000000000000000000000000000000000000000000000000000000000000000000000000000000000000000000000000041977c2f01ca5af75a85bc749a82b6b441ac9409e4eab0a27170b0e8efb81bd36571b9670db3712b5c3e093edb3b65064c44be31775fd7f0d9619535de72fab8d81b00000000000000000000000000000000000000000000000000000000000000",
        "nonce": "0x37a4",
        "chainId": "0x1ecf"
      },
      "additionalContracts": [],
      "isFixedGasLimit": false
    }
  ],
  "receipts": [
    {
      "status": "0x1",
      "cumulativeGasUsed": "0xc2030",
      "logs": [
        {
          "address": "0x2843c269d2a64ecfa63548e8b3fc0fd23b7f70cb",
          "topics": [
            "0xbb47ee3e183a558b1a2ff0874b079f3fc5478b7454eacf2bfc5af2ff5878f972"
          ],
          "data": "0x",
          "blockHash": "0x0249d268c3857bb0c30633d8c82f473e00763937f4ed69a3222a756ff0715b65",
          "blockNumber": "0x29fe6",
          "transactionHash": "0x5e4495dfba4023380c3ce32a0c33da6eb7ef01ae3d31112d0eb1214c181fa5f5",
          "transactionIndex": "0x1",
          "logIndex": "0x0",
          "removed": false
        },
        {
          "address": "0x0ee700095aedfe0814fff7d6dfd75461de8e2b19",
          "topics": [
            "0xddf252ad1be2c89b69c2b068fc378daa952ba7f163c4a11628f55a4df523b3ef",
            "0x0000000000000000000000002e2b1c42e38f5af81771e65d87729e57abd1337a",
            "0x0000000000000000000000000000000000000000000000000000000000000000"
          ],
          "data": "0x00000000000000000000000000000000000000000000000000038d7ea4c68000",
          "blockHash": "0x0249d268c3857bb0c30633d8c82f473e00763937f4ed69a3222a756ff0715b65",
          "blockNumber": "0x29fe6",
          "transactionHash": "0x5e4495dfba4023380c3ce32a0c33da6eb7ef01ae3d31112d0eb1214c181fa5f5",
          "transactionIndex": "0x1",
          "logIndex": "0x1",
          "removed": false
        },
        {
          "address": "0xc2a01cd64dcebd3f5531b9847be9ac6ee3c1f69a",
          "topics": [
            "0x9ed9683bfff0f737f91f20945e98c912976d94e76860b05b48b15bc0d589be1f"
          ],
          "data": "0x5036218966fe0de76f37d706704b92d0163118cb81b761041c3b2fdf640b3fae000000000000000000000000000000000000000000000000000000000000010c5036218966fe0de76f37d706704b92d0163118cb81b761041c3b2fdf640b3fae",
          "blockHash": "0x0249d268c3857bb0c30633d8c82f473e00763937f4ed69a3222a756ff0715b65",
          "blockNumber": "0x29fe6",
          "transactionHash": "0x5e4495dfba4023380c3ce32a0c33da6eb7ef01ae3d31112d0eb1214c181fa5f5",
          "transactionIndex": "0x1",
          "logIndex": "0x2",
          "removed": false
        },
        {
          "address": "0x3e9727470c66b1e77034590926cde0242b5a3dcc",
          "topics": [
            "0x45d70e73f9a26cea18d4009d1ad25ffbdc4114ce9d8ceb15959ae9eadb0a3a2c"
          ],
          "data": "0x0000000000000000000000000000000000000000000000000000000000001ecf0000000000000000000000003301d0616365f55a54059707e49f93d18159f1290000000000000000000000000000000000000000000000000000000000000001000000000000000000000000e2c2291b80bfc8bd0e4fc8af196ae5fc9136aee000001ecfe2c2291b80bfc8bd0e4fc8af196ae5fc9136aee000000000000001ff000000000000000000000000000000000000000000000000000000000007a1200000000000000000000000000000000000000000000000000000000000000000000000000000000000000000000000000000000000000000000000000000000000000000000000000000000000000000000000000000000000000000000001800000000000000000000000000000000000000000000000000008896574dc3ce2000000000000000000000000000000000000000000000000001935c2de6726a000000000000000000000000000000000000000000000000000085468a50a2c1400000000000000000000000000000000000000000000000000000000000000a0000000000000000000000000660ad4b5a74130a4796b4d54bc6750ae93c86e6c00000000000000000000000000000000000000000000000000038d7ea4c6800000001ecfe2c2291b80bfc8bd0e4fc8af196ae5fc9136aee000000000000001ff00000000000000000000000000000000000000000000000000000000000000800000000000000000000000000000000000000000000000000000000000000000",
          "blockHash": "0x0249d268c3857bb0c30633d8c82f473e00763937f4ed69a3222a756ff0715b65",
          "blockNumber": "0x29fe6",
          "transactionHash": "0x5e4495dfba4023380c3ce32a0c33da6eb7ef01ae3d31112d0eb1214c181fa5f5",
          "transactionIndex": "0x1",
          "logIndex": "0x3",
          "removed": false
        },
        {
          "address": "0xc7fca8ab6d1e1142790454e7e5655d93c3b03ed6",
          "topics": [
            "0xc74a00177d2c63e6eead5ea7936974ad9d0121f86140723b8909f8ec9662cc61"
          ],
          "data": "0x0000000000000000000000003301d0616365f55a54059707e49f93d18159f1290000000000000000000000002e2b1c42e38f5af81771e65d87729e57abd1337a000000000000000000000000660ad4b5a74130a4796b4d54bc6750ae93c86e6c00000000000000000000000000000000000000000000000000038d7ea4c6800000001ecfe2c2291b80bfc8bd0e4fc8af196ae5fc9136aee000000000000001ff",
          "blockHash": "0x0249d268c3857bb0c30633d8c82f473e00763937f4ed69a3222a756ff0715b65",
          "blockNumber": "0x29fe6",
          "transactionHash": "0x5e4495dfba4023380c3ce32a0c33da6eb7ef01ae3d31112d0eb1214c181fa5f5",
          "transactionIndex": "0x1",
          "logIndex": "0x4",
          "removed": false
        },
        {
          "address": "0x2843c269d2a64ecfa63548e8b3fc0fd23b7f70cb",
          "topics": [
            "0x49628fd1471006c1482da88028e9ce4dbb080b815c9b0344d39e5a8e6ec1419f",
            "0x821c917bbe39d9d96b54e0eba0292a142d6e80f020f8ded24f736df945c90237",
            "0x0000000000000000000000002e2b1c42e38f5af81771e65d87729e57abd1337a",
            "0x0000000000000000000000000000000000000000000000000000000000000000"
          ],
          "data": "0x000000000000000000000000000000000000000000000000000000000000074a000000000000000000000000000000000000000000000000000000000000000100000000000000000000000000000000000000000000000000000000000acd9f00000000000000000000000000000000000000000000000000000000000acd9f",
          "blockHash": "0x0249d268c3857bb0c30633d8c82f473e00763937f4ed69a3222a756ff0715b65",
          "blockNumber": "0x29fe6",
          "transactionHash": "0x5e4495dfba4023380c3ce32a0c33da6eb7ef01ae3d31112d0eb1214c181fa5f5",
          "transactionIndex": "0x1",
          "logIndex": "0x5",
          "removed": false
        }
      ],
      "logsBloom": "0x00000000000000000000000000800000000000000000900008000000000200000008000000000000001000010000008000080000000400000000620000000000000000000000000000000008000000080000000000000000000800000000000800000000020002000000020000000800002000000000000000000011000000000000000000000000002000000000800000000000000000000000000000000000000400040000000000400000000000000000000000000000000002000000000000000002000000100021000000000000000000000000000800000000040060000000000000010000000000000000000000000400000000400000000000000000",
      "type": "0x2",
      "transactionHash": "0x5e4495dfba4023380c3ce32a0c33da6eb7ef01ae3d31112d0eb1214c181fa5f5",
      "transactionIndex": "0x1",
      "blockHash": "0x0249d268c3857bb0c30633d8c82f473e00763937f4ed69a3222a756ff0715b65",
      "blockNumber": "0x29fe6",
      "gasUsed": "0xc2030",
      "effectiveGasPrice": "0x5f5e100",
      "from": "0x660ad4b5a74130a4796b4d54bc6750ae93c86e6c",
      "to": "0x2843c269d2a64ecfa63548e8b3fc0fd23b7f70cb",
      "contractAddress": null,
      "gasUsedForL1": "0x6b265",
      "l1BlockNumber": "0x130ee6a"
    }
  ],
  "libraries": [],
  "pending": [],
  "returns": {},
  "timestamp": 1717088110,
  "chain": 7887,
  "commit": "c61d6c7"
}