{
  "transactions": [
    {
      "hash": "0xcb99b0edbe59e96cf7b22329e3759df02262c650b3017232d5b053e4775a4d55",
      "transactionType": "CALL",
      "contractName": null,
      "contractAddress": "0x2843c269d2a64ecfa63548e8b3fc0fd23b7f70cb",
      "function": "handleOps((address,uint256,bytes,bytes,uint256,uint256,uint256,uint256,uint256,bytes,bytes)[],address)",
      "arguments": [
        "[(0x2e2B1c42E38f5af81771e65D87729E57ABD1337a, 5169, 0x, 0xb61d27f60000000000000000000000003de040ef2fbf9158badf559c5606d7706ca7230900000000000000000000000000000000000000000000000000b1a2bc2ec5000000000000000000000000000000000000000000000000000000000000000000600000000000000000000000000000000000000000000000000000000000000104405e720a000000000000000000000000660ad4b5a74130a4796b4d54bc6750ae93c86e6c0000000000000000000000000000000000000000000000000de0b6b3a7640000000000000000000000000000000000000000000000000000000000000007a1200000000000000000000000002eaf8605ac68794c148034285e8ad6a049b7aa8800000000000000000000000000000000000000000000000000000000000000c000000000000000000000000000000000000000000000000000000000000000e00000000000000000000000000000000000000000000000000000000000000000000000000000000000000000000000000000000000000000000000000000000000000000000000000000000000000000000000000000000000000000, 4000000, 210000, 21000, 1, 1000000000, 0x0000000000000000000000000000000000000000, 0xdd90a1cfab4d3ccc6712902987e1f3dcf019364ab375b3740f48a4bf00074ea31d8db3b6d619764822efb3da6cd774e8ff1f49429a10d9e8185bfbf582fcfb991b026835a8defbac0d4f6d0c689d98a603f8cc3f7495cac63030476d2c5066649c40cdc16f36e62a89f651200b363d4798d68ba5b9fbddbe2f6bb340dfe74c635b1b)]",
        "0x660ad4B5A74130a4796B4d54BC6750Ae93C86e6c"
      ],
      "transaction": {
        "from": "0x660ad4b5a74130a4796b4d54bc6750ae93c86e6c",
        "to": "0x2843c269d2a64ecfa63548e8b3fc0fd23b7f70cb",
        "value": "0x0",
        "input": "0x1fad948c0000000000000000000000000000000000000000000000000000000000000040000000000000000000000000660ad4b5a74130a4796b4d54bc6750ae93c86e6c000000000000000000000000000000000000000000000000000000000000000100000000000000000000000000000000000000000000000000000000000000200000000000000000000000002e2b1c42e38f5af81771e65d87729e57abd1337a00000000000000000000000000000000000000000000000000000000000014310000000000000000000000000000000000000000000000000000000000000160000000000000000000000000000000000000000000000000000000000000018000000000000000000000000000000000000000000000000000000000003d0900000000000000000000000000000000000000000000000000000000000003345000000000000000000000000000000000000000000000000000000000000052080000000000000000000000000000000000000000000000000000000000000001000000000000000000000000000000000000000000000000000000003b9aca00000000000000000000000000000000000000000000000000000000000000036000000000000000000000000000000000000000000000000000000000000003a0000000000000000000000000000000000000000000000000000000000000000000000000000000000000000000000000000000000000000000000000000001a4b61d27f60000000000000000000000003de040ef2fbf9158badf559c5606d7706ca7230900000000000000000000000000000000000000000000000000b1a2bc2ec5000000000000000000000000000000000000000000000000000000000000000000600000000000000000000000000000000000000000000000000000000000000104405e720a000000000000000000000000660ad4b5a74130a4796b4d54bc6750ae93c86e6c0000000000000000000000000000000000000000000000000de0b6b3a7640000000000000000000000000000000000000000000000000000000000000007a1200000000000000000000000002eaf8605ac68794c148034285e8ad6a049b7aa8800000000000000000000000000000000000000000000000000000000000000c000000000000000000000000000000000000000000000000000000000000000e0000000000000000000000000000000000000000000000000000000000000000000000000000000000000000000000000000000000000000000000000000000000000000000000000000000000000000000000000000000000000000000000000000000000000000000000000000000000000000000000000000000000000000000000000000000000000000000000000000000000000001400000000000000000000000000000000000000000000000000000000000000000000000000000000000000000000000000000000000000000000000000000082dd90a1cfab4d3ccc6712902987e1f3dcf019364ab375b3740f48a4bf00074ea31d8db3b6d619764822efb3da6cd774e8ff1f49429a10d9e8185bfbf582fcfb991b026835a8defbac0d4f6d0c689d98a603f8cc3f7495cac63030476d2c5066649c40cdc16f36e62a89f651200b363d4798d68ba5b9fbddbe2f6bb340dfe74c635b1b000000000000000000000000000000000000000000000000000000000000",
        "nonce": "0x4c01f",
        "chainId": "0x1ecf"
      },
      "additionalContracts": [],
      "isFixedGasLimit": false
    }
  ],
  "receipts": [
    {
      "status": "0x1",
      "cumulativeGasUsed": "0xc1f2d",
      "logs": [
        {
          "address": "0x2843c269d2a64ecfa63548e8b3fc0fd23b7f70cb",
          "topics": [
            "0xbb47ee3e183a558b1a2ff0874b079f3fc5478b7454eacf2bfc5af2ff5878f972"
          ],
          "data": "0x",
          "blockHash": "0xbb80fc9ab11074dccd8b8e7ab810a6e04a59b096b5d50dea7135120426adb47a",
          "blockNumber": "0xdc5f6",
          "transactionHash": "0xcb99b0edbe59e96cf7b22329e3759df02262c650b3017232d5b053e4775a4d55",
          "transactionIndex": "0x1",
          "logIndex": "0x0",
          "removed": false
        },
        {
          "address": "0x010700808d59d2bb92257fcafacfe8e5bff7ab87",
          "topics": [
            "0xddf252ad1be2c89b69c2b068fc378daa952ba7f163c4a11628f55a4df523b3ef",
            "0x0000000000000000000000002e2b1c42e38f5af81771e65d87729e57abd1337a",
            "0x0000000000000000000000003de040ef2fbf9158badf559c5606d7706ca72309"
          ],
          "data": "0x0000000000000000000000000000000000000000000000000de0b6b3a7640000",
          "blockHash": "0xbb80fc9ab11074dccd8b8e7ab810a6e04a59b096b5d50dea7135120426adb47a",
          "blockNumber": "0xdc5f6",
          "transactionHash": "0xcb99b0edbe59e96cf7b22329e3759df02262c650b3017232d5b053e4775a4d55",
          "transactionIndex": "0x1",
          "logIndex": "0x1",
          "removed": false
        },
        {
          "address": "0x010700808d59d2bb92257fcafacfe8e5bff7ab87",
          "topics": [
            "0xdec2bacdd2f05b59de34da9b523dff8be42e5e38e818c82fdb0bae774387a724",
            "0x0000000000000000000000002e2b1c42e38f5af81771e65d87729e57abd1337a"
          ],
          "data": "0x0000000000000000000000000000000000000000000000004cbe26c0576ec0000000000000000000000000000000000000000000000000003edd700cb00ac000",
          "blockHash": "0xbb80fc9ab11074dccd8b8e7ab810a6e04a59b096b5d50dea7135120426adb47a",
          "blockNumber": "0xdc5f6",
          "transactionHash": "0xcb99b0edbe59e96cf7b22329e3759df02262c650b3017232d5b053e4775a4d55",
          "transactionIndex": "0x1",
          "logIndex": "0x2",
          "removed": false
        },
        {
          "address": "0x2321c637686b8da2e01c60d72fd82a595879da00",
          "topics": [
            "0x9ed9683bfff0f737f91f20945e98c912976d94e76860b05b48b15bc0d589be1f"
          ],
          "data": "0x76f5151a722dfb1cd19bc1bdb649163c205df3aeb046c0740886266c5ae67160000000000000000000000000000000000000000000000000000000000000d46276f5151a722dfb1cd19bc1bdb649163c205df3aeb046c0740886266c5ae67160",
          "blockHash": "0xbb80fc9ab11074dccd8b8e7ab810a6e04a59b096b5d50dea7135120426adb47a",
          "blockNumber": "0xdc5f6",
          "transactionHash": "0xcb99b0edbe59e96cf7b22329e3759df02262c650b3017232d5b053e4775a4d55",
          "transactionIndex": "0x1",
          "logIndex": "0x3",
          "removed": false
        },
        {
          "address": "0x3e9727470c66b1e77034590926cde0242b5a3dcc",
          "topics": [
            "0x45d70e73f9a26cea18d4009d1ad25ffbdc4114ce9d8ceb15959ae9eadb0a3a2c"
          ],
          "data": "0x0000000000000000000000000000000000000000000000000000000000001ecf0000000000000000000000002eaf8605ac68794c148034285e8ad6a049b7aa88000000000000000000000000000000000000000000000000000000000000a4b1000000000000000000000000f30b64f02c665722e1b2ab7731d8b845224adaec00001ecff30b64f02c665722e1b2ab7731d8b845224adaec000000000000f6bf000000000000000000000000000000000000000000000000000000000007a12000000000000000000000000000000000000000000000000000000000000000000000000000000000000000000000000000000000000000000000000000000000000000000000000000000000000000000000000000000000000000000000018000000000000000000000000000000000000000000000000000002b8ec5d498cc00000000000000000000000000000000000000000000000000b174b688ca25b400000000000000000000000000000000000000000000000000000276e026418000000000000000000000000000000000000000000000000000000000000000a0000000000000000000000000660ad4b5a74130a4796b4d54bc6750ae93c86e6c0000000000000000000000000000000000000000000000000de0b6b3a764000000001ecff30b64f02c665722e1b2ab7731d8b845224adaec000000000000f6bf00000000000000000000000000000000000000000000000000000000000000800000000000000000000000000000000000000000000000000000000000000000",
          "blockHash": "0xbb80fc9ab11074dccd8b8e7ab810a6e04a59b096b5d50dea7135120426adb47a",
          "blockNumber": "0xdc5f6",
          "transactionHash": "0xcb99b0edbe59e96cf7b22329e3759df02262c650b3017232d5b053e4775a4d55",
          "transactionIndex": "0x1",
          "logIndex": "0x4",
          "removed": false
        },
        {
          "address": "0x3de040ef2fbf9158badf559c5606d7706ca72309",
          "topics": [
            "0xc74a00177d2c63e6eead5ea7936974ad9d0121f86140723b8909f8ec9662cc61"
          ],
          "data": "0x0000000000000000000000002eaf8605ac68794c148034285e8ad6a049b7aa880000000000000000000000002e2b1c42e38f5af81771e65d87729e57abd1337a000000000000000000000000660ad4b5a74130a4796b4d54bc6750ae93c86e6c0000000000000000000000000000000000000000000000000de0b6b3a764000000001ecff30b64f02c665722e1b2ab7731d8b845224adaec000000000000f6bf",
          "blockHash": "0xbb80fc9ab11074dccd8b8e7ab810a6e04a59b096b5d50dea7135120426adb47a",
          "blockNumber": "0xdc5f6",
          "transactionHash": "0xcb99b0edbe59e96cf7b22329e3759df02262c650b3017232d5b053e4775a4d55",
          "transactionIndex": "0x1",
          "logIndex": "0x5",
          "removed": false
        },
        {
          "address": "0x2843c269d2a64ecfa63548e8b3fc0fd23b7f70cb",
          "topics": [
            "0x49628fd1471006c1482da88028e9ce4dbb080b815c9b0344d39e5a8e6ec1419f",
            "0x52bdf604432b769298eab2c9a6f1ad8e933da469d0646f1edd7737c9b87ad935",
            "0x0000000000000000000000002e2b1c42e38f5af81771e65d87729e57abd1337a",
            "0x0000000000000000000000000000000000000000000000000000000000000000"
          ],
          "data": "0x0000000000000000000000000000000000000000000000000000000000001431000000000000000000000000000000000000000000000000000000000000000100000000000000000000000000000000000000000000000000000000000bc0c200000000000000000000000000000000000000000000000000000000000bc0c2",
          "blockHash": "0xbb80fc9ab11074dccd8b8e7ab810a6e04a59b096b5d50dea7135120426adb47a",
          "blockNumber": "0xdc5f6",
          "transactionHash": "0xcb99b0edbe59e96cf7b22329e3759df02262c650b3017232d5b053e4775a4d55",
          "transactionIndex": "0x1",
          "logIndex": "0x6",
          "removed": false
        }
      ],
      "logsBloom": "0x00000000000400000000100000800000000002000000800000000000000200000008000000000200001000010000000000080000000000000000620000000000000000000000000000000048000000080000000000000000000c00000000000800000000020002000040000000000804002000000000000000000010000000000000000000000000002000000000800000000000000000000000000000000000041400000000000000400000000000008000000000000000000002000000000000080002000000100001400000000000010000000000000000000000000020000000000000010000000000000000800000000000000000400000000000000010",
      "type": "0x2",
      "transactionHash": "0xcb99b0edbe59e96cf7b22329e3759df02262c650b3017232d5b053e4775a4d55",
      "transactionIndex": "0x1",
      "blockHash": "0xbb80fc9ab11074dccd8b8e7ab810a6e04a59b096b5d50dea7135120426adb47a",
      "blockNumber": "0xdc5f6",
      "gasUsed": "0xc1f2d",
      "effectiveGasPrice": "0x5f5e100",
      "from": "0x660ad4b5a74130a4796b4d54bc6750ae93c86e6c",
      "to": "0x2843c269d2a64ecfa63548e8b3fc0fd23b7f70cb",
      "contractAddress": null,
      "gasUsedForL1": "0x5a6c4",
      "l1BlockNumber": "0x15df434"
    }
  ],
  "libraries": [],
  "pending": [],
  "returns": {},
  "timestamp": 1752703015,
  "chain": 7887,
  "commit": "ef9c27fd"
}