{
  "transactions": [
    {
      "hash": "0x54f6886378a8cdbe1e40d5e33c19758e9e18e87d02ed7d767c2ea41be30c1cb6",
      "transactionType": "CALL",
      "contractName": null,
      "contractAddress": "0x2843c269d2a64ecfa63548e8b3fc0fd23b7f70cb",
      "function": "handleOps((address,uint256,bytes,bytes,uint256,uint256,uint256,uint256,uint256,bytes,bytes)[],address)",
      "arguments": [
        "[(0x2e2B1c42E38f5af81771e65D87729E57ABD1337a, 1871, 0x, 0xb61d27f6000000000000000000000000c7fca8ab6d1e1142790454e7e5655d93c3b03ed6000000000000000000000000000000000000000000000000002d4197b1e89dc700000000000000000000000000000000000000000000000000000000000000600000000000000000000000000000000000000000000000000000000000000104405e720a000000000000000000000000660ad4b5a74130a4796b4d54bc6750ae93c86e6c0000000000000000000000000000000000000000000000026773e1458b2f5415000000000000000000000000000000000000000000000000000000000007a1200000000000000000000000003301d0616365f55a54059707e49f93d18159f12900000000000000000000000000000000000000000000000000000000000000c000000000000000000000000000000000000000000000000000000000000000e00000000000000000000000000000000000000000000000000000000000000000000000000000000000000000000000000000000000000000000000000000000000000000000000000000000000000000000000000000000000000000, 4000000, 210000, 21000, 1, 1000000000, 0x0000000000000000000000000000000000000000, 0x5a367e8e3c2495a321940a14b334ffa1124fd9f15419ae52a17a48ceac89d203736c565160fe071b179ed58b884942cd9a7d4696399aca7a80cb5abd57c0bb821b)]",
        "0x660ad4B5A74130a4796B4d54BC6750Ae93C86e6c"
      ],
      "transaction": {
        "from": "0x660ad4b5a74130a4796b4d54bc6750ae93c86e6c",
        "to": "0x2843c269d2a64ecfa63548e8b3fc0fd23b7f70cb",
        "gas": "0xaaba5e",
        "value": "0x0",
        "input": "0x1fad948c0000000000000000000000000000000000000000000000000000000000000040000000000000000000000000660ad4b5a74130a4796b4d54bc6750ae93c86e6c000000000000000000000000000000000000000000000000000000000000000100000000000000000000000000000000000000000000000000000000000000200000000000000000000000002e2b1c42e38f5af81771e65d87729e57abd1337a000000000000000000000000000000000000000000000000000000000000074f0000000000000000000000000000000000000000000000000000000000000160000000000000000000000000000000000000000000000000000000000000018000000000000000000000000000000000000000000000000000000000003d0900000000000000000000000000000000000000000000000000000000000003345000000000000000000000000000000000000000000000000000000000000052080000000000000000000000000000000000000000000000000000000000000001000000000000000000000000000000000000000000000000000000003b9aca00000000000000000000000000000000000000000000000000000000000000036000000000000000000000000000000000000000000000000000000000000003a0000000000000000000000000000000000000000000000000000000000000000000000000000000000000000000000000000000000000000000000000000001a4b61d27f6000000000000000000000000c7fca8ab6d1e1142790454e7e5655d93c3b03ed6000000000000000000000000000000000000000000000000002d4197b1e89dc700000000000000000000000000000000000000000000000000000000000000600000000000000000000000000000000000000000000000000000000000000104405e720a000000000000000000000000660ad4b5a74130a4796b4d54bc6750ae93c86e6c0000000000000000000000000000000000000000000000026773e1458b2f5415000000000000000000000000000000000000000000000000000000000007a1200000000000000000000000003301d0616365f55a54059707e49f93d18159f12900000000000000000000000000000000000000000000000000000000000000c000000000000000000000000000000000000000000000000000000000000000e00000000000000000000000000000000000000000000000000000000000000000000000000000000000000000000000000000000000000000000000000000000000000000000000000000000000000000000000000000000000000000000000000000000000000000000000000000000000000000000000000000000000000000000000000000000000000000000000000000000000000014000000000000000000000000000000000000000000000000000000000000000000000000000000000000000000000000000000000000000000000000000000415a367e8e3c2495a321940a14b334ffa1124fd9f15419ae52a17a48ceac89d203736c565160fe071b179ed58b884942cd9a7d4696399aca7a80cb5abd57c0bb821b00000000000000000000000000000000000000000000000000000000000000",
        "nonce": "0x37ac",
        "chainId": "0x1ecf"
      },
      "additionalContracts": [],
      "isFixedGasLimit": false
    }
  ],
  "receipts": [
    {
      "status": "0x1",
      "cumulativeGasUsed": "0xcc0da",
      "logs": [
        {
          "address": "0x2843c269d2a64ecfa63548e8b3fc0fd23b7f70cb",
          "topics": [
            "0xbb47ee3e183a558b1a2ff0874b079f3fc5478b7454eacf2bfc5af2ff5878f972"
          ],
          "data": "0x",
          "blockHash": "0xe733491f466f12b3c9d7061678330af09f9447ecb48edd1c960cd655396be6bb",
          "blockNumber": "0x2a01b",
          "transactionHash": "0x54f6886378a8cdbe1e40d5e33c19758e9e18e87d02ed7d767c2ea41be30c1cb6",
          "transactionIndex": "0x1",
          "logIndex": "0x0",
          "removed": false
        },
        {
          "address": "0x0ee700095aedfe0814fff7d6dfd75461de8e2b19",
          "topics": [
            "0xddf252ad1be2c89b69c2b068fc378daa952ba7f163c4a11628f55a4df523b3ef",
            "0x0000000000000000000000002e2b1c42e38f5af81771e65d87729e57abd1337a",
            "0x0000000000000000000000000000000000000000000000000000000000000000"
          ],
          "data": "0x0000000000000000000000000000000000000000000000026773e1458b2f5415",
          "blockHash": "0xe733491f466f12b3c9d7061678330af09f9447ecb48edd1c960cd655396be6bb",
          "blockNumber": "0x2a01b",
          "transactionHash": "0x54f6886378a8cdbe1e40d5e33c19758e9e18e87d02ed7d767c2ea41be30c1cb6",
          "transactionIndex": "0x1",
          "logIndex": "0x1",
          "removed": false
        },
        {
          "address": "0xc2a01cd64dcebd3f5531b9847be9ac6ee3c1f69a",
          "topics": [
            "0x9ed9683bfff0f737f91f20945e98c912976d94e76860b05b48b15bc0d589be1f"
          ],
          "data": "0x25695a60e6d897ce5d0b9a8c31dd4163dd2ceb45573ced20d8249218af44d4f5000000000000000000000000000000000000000000000000000000000000010d25695a60e6d897ce5d0b9a8c31dd4163dd2ceb45573ced20d8249218af44d4f5",
          "blockHash": "0xe733491f466f12b3c9d7061678330af09f9447ecb48edd1c960cd655396be6bb",
          "blockNumber": "0x2a01b",
          "transactionHash": "0x54f6886378a8cdbe1e40d5e33c19758e9e18e87d02ed7d767c2ea41be30c1cb6",
          "transactionIndex": "0x1",
          "logIndex": "0x2",
          "removed": false
        },
        {
          "address": "0x3e9727470c66b1e77034590926cde0242b5a3dcc",
          "topics": [
            "0x45d70e73f9a26cea18d4009d1ad25ffbdc4114ce9d8ceb15959ae9eadb0a3a2c"
          ],
          "data": "0x0000000000000000000000000000000000000000000000000000000000001ecf0000000000000000000000003301d0616365f55a54059707e49f93d18159f1290000000000000000000000000000000000000000000000000000000000000001000000000000000000000000e2c2291b80bfc8bd0e4fc8af196ae5fc9136aee000001ecfe2c2291b80bfc8bd0e4fc8af196ae5fc9136aee00000000000000200000000000000000000000000000000000000000000000000000000000007a120000000000000000000000000000000000000000000000000000000000000000000000000000000000000000000000000000000000000000000000000000000000000000000000000000000000000000000000000000000000000000000000180000000000000000000000000000000000000000000000000000b57ac8c9906cf0000000000000000000000000000000000000000000000000016bd9332a1f740000000000000000000000000000000000000000000000000000b2c57f2ad9fb800000000000000000000000000000000000000000000000000000000000000a0000000000000000000000000660ad4b5a74130a4796b4d54bc6750ae93c86e6c0000000000000000000000000000000000000000000000026773e1458b2f541500001ecfe2c2291b80bfc8bd0e4fc8af196ae5fc9136aee0000000000000020000000000000000000000000000000000000000000000000000000000000000800000000000000000000000000000000000000000000000000000000000000000",
          "blockHash": "0xe733491f466f12b3c9d7061678330af09f9447ecb48edd1c960cd655396be6bb",
          "blockNumber": "0x2a01b",
          "transactionHash": "0x54f6886378a8cdbe1e40d5e33c19758e9e18e87d02ed7d767c2ea41be30c1cb6",
          "transactionIndex": "0x1",
          "logIndex": "0x3",
          "removed": false
        },
        {
          "address": "0xc7fca8ab6d1e1142790454e7e5655d93c3b03ed6",
          "topics": [
            "0xc74a00177d2c63e6eead5ea7936974ad9d0121f86140723b8909f8ec9662cc61"
          ],
          "data": "0x0000000000000000000000003301d0616365f55a54059707e49f93d18159f1290000000000000000000000002e2b1c42e38f5af81771e65d87729e57abd1337a000000000000000000000000660ad4b5a74130a4796b4d54bc6750ae93c86e6c0000000000000000000000000000000000000000000000026773e1458b2f541500001ecfe2c2291b80bfc8bd0e4fc8af196ae5fc9136aee00000000000000200",
          "blockHash": "0xe733491f466f12b3c9d7061678330af09f9447ecb48edd1c960cd655396be6bb",
          "blockNumber": "0x2a01b",
          "transactionHash": "0x54f6886378a8cdbe1e40d5e33c19758e9e18e87d02ed7d767c2ea41be30c1cb6",
          "transactionIndex": "0x1",
          "logIndex": "0x4",
          "removed": false
        },
        {
          "address": "0x2843c269d2a64ecfa63548e8b3fc0fd23b7f70cb",
          "topics": [
            "0x49628fd1471006c1482da88028e9ce4dbb080b815c9b0344d39e5a8e6ec1419f",
            "0x2e95adfd41469d18311dcc0cd3333a65fefea7247188d278b8e319cb7b73dcc8",
            "0x0000000000000000000000002e2b1c42e38f5af81771e65d87729e57abd1337a",
            "0x0000000000000000000000000000000000000000000000000000000000000000"
          ],
          "data": "0x000000000000000000000000000000000000000000000000000000000000074f000000000000000000000000000000000000000000000000000000000000000100000000000000000000000000000000000000000000000000000000000acd9f00000000000000000000000000000000000000000000000000000000000acd9f",
          "blockHash": "0xe733491f466f12b3c9d7061678330af09f9447ecb48edd1c960cd655396be6bb",
          "blockNumber": "0x2a01b",
          "transactionHash": "0x54f6886378a8cdbe1e40d5e33c19758e9e18e87d02ed7d767c2ea41be30c1cb6",
          "transactionIndex": "0x1",
          "logIndex": "0x5",
          "removed": false
        }
      ],
      "logsBloom": "0x00000000000000000000000000800000800000000000900000008000000200000008000000000000001000010000000000080000000400000000620000000000000000000000000000040008000000080000000000000000000800000000000800000000020002000000020000000800002000000000000000000011000000000000000000000000002000000000800000000000000000000000000000000000000400040000000000400000000000000000000000000000000002000000000000000002000000100021000000000000000000000000000800000000000060000000000000010000000000000000000000000400000000400000000000000000",
      "type": "0x2",
      "transactionHash": "0x54f6886378a8cdbe1e40d5e33c19758e9e18e87d02ed7d767c2ea41be30c1cb6",
      "transactionIndex": "0x1",
      "blockHash": "0xe733491f466f12b3c9d7061678330af09f9447ecb48edd1c960cd655396be6bb",
      "blockNumber": "0x2a01b",
      "gasUsed": "0xcc0da",
      "effectiveGasPrice": "0x5f5e100",
      "from": "0x660ad4b5a74130a4796b4d54bc6750ae93c86e6c",
      "to": "0x2843c269d2a64ecfa63548e8b3fc0fd23b7f70cb",
      "contractAddress": null,
      "gasUsedForL1": "0x765ab",
      "l1BlockNumber": "0x130f003"
    }
  ],
  "libraries": [],
  "pending": [],
  "returns": {},
  "timestamp": 1717093032,
  "chain": 7887,
  "commit": "c61d6c7"
}