{
  "transactions": [
    {
      "hash": "0x2b4e49d5528a132365c8224fbc2bc4499597a79e847277fd4c2cdcdba1735af7",
      "transactionType": "CALL",
      "contractName": null,
      "contractAddress": "0x2843c269d2a64ecfa63548e8b3fc0fd23b7f70cb",
      "function": "handleOps((address,uint256,bytes,bytes,uint256,uint256,uint256,uint256,uint256,bytes,bytes)[],address)",
      "arguments": [
        "[(0x2e2B1c42E38f5af81771e65D87729E57ABD1337a, 1868, 0x, 0xb61d27f60000000000000000000000000ee700095aedfe0814fff7d6dfd75461de8e2b19000000000000000000000000000000000000000000000000000000000000000000000000000000000000000000000000000000000000000000000000000000600000000000000000000000000000000000000000000000000000000000000044095ea7b3000000000000000000000000c7fca8ab6d1e1142790454e7e5655d93c3b03ed6ffffffffffffffffffffffffffffffffffffffffffffffffffffffffffffffff00000000000000000000000000000000000000000000000000000000, 4000000, 210000, 21000, 1, 1000000000, 0x0000000000000000000000000000000000000000, 0x6b34ead55624179676fee6e3d3a50d237c4a4ec5eb41801daa37b5efd022d5475b40dae5fcdeae2d6ae1ca3a552698474621929e0faa7c01cd741e4ea53e8ed31c)]",
        "0x660ad4B5A74130a4796B4d54BC6750Ae93C86e6c"
      ],
      "transaction": {
        "from": "0x660ad4b5a74130a4796b4d54bc6750ae93c86e6c",
        "to": "0x2843c269d2a64ecfa63548e8b3fc0fd23b7f70cb",
        "gas": "0x312f2c",
        "value": "0x0",
        "input": "0x1fad948c0000000000000000000000000000000000000000000000000000000000000040000000000000000000000000660ad4b5a74130a4796b4d54bc6750ae93c86e6c000000000000000000000000000000000000000000000000000000000000000100000000000000000000000000000000000000000000000000000000000000200000000000000000000000002e2b1c42e38f5af81771e65d87729e57abd1337a000000000000000000000000000000000000000000000000000000000000074c0000000000000000000000000000000000000000000000000000000000000160000000000000000000000000000000000000000000000000000000000000018000000000000000000000000000000000000000000000000000000000003d0900000000000000000000000000000000000000000000000000000000000003345000000000000000000000000000000000000000000000000000000000000052080000000000000000000000000000000000000000000000000000000000000001000000000000000000000000000000000000000000000000000000003b9aca0000000000000000000000000000000000000000000000000000000000000002a000000000000000000000000000000000000000000000000000000000000002e0000000000000000000000000000000000000000000000000000000000000000000000000000000000000000000000000000000000000000000000000000000e4b61d27f60000000000000000000000000ee700095aedfe0814fff7d6dfd75461de8e2b19000000000000000000000000000000000000000000000000000000000000000000000000000000000000000000000000000000000000000000000000000000600000000000000000000000000000000000000000000000000000000000000044095ea7b3000000000000000000000000c7fca8ab6d1e1142790454e7e5655d93c3b03ed6ffffffffffffffffffffffffffffffffffffffffffffffffffffffffffffffff00000000000000000000000000000000000000000000000000000000000000000000000000000000000000000000000000000000000000000000000000000000000000000000000000000000000000000000000000000014000000000000000000000000000000000000000000000000000000000000000000000000000000000000000000000000000000000000000000000000000000416b34ead55624179676fee6e3d3a50d237c4a4ec5eb41801daa37b5efd022d5475b40dae5fcdeae2d6ae1ca3a552698474621929e0faa7c01cd741e4ea53e8ed31c00000000000000000000000000000000000000000000000000000000000000",
        "nonce": "0x37a6",
        "chainId": "0x1ecf"
      },
      "additionalContracts": [],
      "isFixedGasLimit": false
    },
    {
      "hash": "0x65d82644a11714b0bd413fcf05b87957dadd72923cac1b3e0b4289f527938779",
      "transactionType": "CALL",
      "contractName": null,
      "contractAddress": "0x2843c269d2a64ecfa63548e8b3fc0fd23b7f70cb",
      "function": "handleOps((address,uint256,bytes,bytes,uint256,uint256,uint256,uint256,uint256,bytes,bytes)[],address)",
      "arguments": [
        "[(0x2e2B1c42E38f5af81771e65D87729E57ABD1337a, 1869, 0x, 0xb61d27f6000000000000000000000000c7fca8ab6d1e1142790454e7e5655d93c3b03ed6000000000000000000000000000000000000000000000000002a1390f84d8f9600000000000000000000000000000000000000000000000000000000000000600000000000000000000000000000000000000000000000000000000000000104405e720a000000000000000000000000660ad4b5a74130a4796b4d54bc6750ae93c86e6c0000000000000000000000000000000000000000000000026773e1458b2f6c20000000000000000000000000000000000000000000000000000000000007a1200000000000000000000000003301d0616365f55a54059707e49f93d18159f12900000000000000000000000000000000000000000000000000000000000000c000000000000000000000000000000000000000000000000000000000000000e00000000000000000000000000000000000000000000000000000000000000000000000000000000000000000000000000000000000000000000000000000000000000000000000000000000000000000000000000000000000000000, 4000000, 210000, 21000, 1, 1000000000, 0x0000000000000000000000000000000000000000, 0x629532bc9c8cc4333b9f340e7ebefba9d49d75fa258324dbe8c536eaab99bd49169c43f743e6dc2d13d30395555b475d00d6d1a5da77cce5d342ca2120e659f11c)]",
        "0x660ad4B5A74130a4796B4d54BC6750Ae93C86e6c"
      ],
      "transaction": {
        "from": "0x660ad4b5a74130a4796b4d54bc6750ae93c86e6c",
        "to": "0x2843c269d2a64ecfa63548e8b3fc0fd23b7f70cb",
        "gas": "0x46427c",
        "value": "0x0",
        "input": "0x1fad948c0000000000000000000000000000000000000000000000000000000000000040000000000000000000000000660ad4b5a74130a4796b4d54bc6750ae93c86e6c000000000000000000000000000000000000000000000000000000000000000100000000000000000000000000000000000000000000000000000000000000200000000000000000000000002e2b1c42e38f5af81771e65d87729e57abd1337a000000000000000000000000000000000000000000000000000000000000074d0000000000000000000000000000000000000000000000000000000000000160000000000000000000000000000000000000000000000000000000000000018000000000000000000000000000000000000000000000000000000000003d0900000000000000000000000000000000000000000000000000000000000003345000000000000000000000000000000000000000000000000000000000000052080000000000000000000000000000000000000000000000000000000000000001000000000000000000000000000000000000000000000000000000003b9aca00000000000000000000000000000000000000000000000000000000000000036000000000000000000000000000000000000000000000000000000000000003a0000000000000000000000000000000000000000000000000000000000000000000000000000000000000000000000000000000000000000000000000000001a4b61d27f6000000000000000000000000c7fca8ab6d1e1142790454e7e5655d93c3b03ed6000000000000000000000000000000000000000000000000002a1390f84d8f9600000000000000000000000000000000000000000000000000000000000000600000000000000000000000000000000000000000000000000000000000000104405e720a000000000000000000000000660ad4b5a74130a4796b4d54bc6750ae93c86e6c0000000000000000000000000000000000000000000000026773e1458b2f6c20000000000000000000000000000000000000000000000000000000000007a1200000000000000000000000003301d0616365f55a54059707e49f93d18159f12900000000000000000000000000000000000000000000000000000000000000c000000000000000000000000000000000000000000000000000000000000000e0000000000000000000000000000000000000000000000000000000000000000000000000000000000000000000000000000000000000000000000000000000000000000000000000000000000000000000000000000000000000000000000000000000000000000000000000000000000000000000000000000000000000000000000000000000000000000000000000000000000000001400000000000000000000000000000000000000000000000000000000000000000000000000000000000000000000000000000000000000000000000000000041629532bc9c8cc4333b9f340e7ebefba9d49d75fa258324dbe8c536eaab99bd49169c43f743e6dc2d13d30395555b475d00d6d1a5da77cce5d342ca2120e659f11c00000000000000000000000000000000000000000000000000000000000000",
        "nonce": "0x37a7",
        "chainId": "0x1ecf"
      },
      "additionalContracts": [],
      "isFixedGasLimit": false
    }
  ],
  "receipts": [],
  "libraries": [],
  "pending": [],
  "returns": {},
  "timestamp": 1717089621,
  "chain": 7887,
  "commit": "c61d6c7"
}