{
  "transactions": [
    {
      "hash": "0x89e2a50cc1ba11f45a35ed6f33507b3b22b297f52ca9b04ca8ef0975d1e6829e",
      "transactionType": "CALL",
      "contractName": null,
      "contractAddress": "0x2843c269d2a64ecfa63548e8b3fc0fd23b7f70cb",
      "function": "handleOps((address,uint256,bytes,bytes,uint256,uint256,uint256,uint256,uint256,bytes,bytes)[],address)",
      "arguments": [
        "[(0x2e2B1c42E38f5af81771e65D87729E57ABD1337a, 4685, 0x, 0xb61d27f60000000000000000000000003de040ef2fbf9158badf559c5606d7706ca7230900000000000000000000000000000000000000000000000000b1a2bc2ec5000000000000000000000000000000000000000000000000000000000000000000600000000000000000000000000000000000000000000000000000000000000104405e720a000000000000000000000000660ad4b5a74130a4796b4d54bc6750ae93c86e6c0000000000000000000000000000000000000000000005ede20f01a459800000000000000000000000000000000000000000000000000000000000000007a120000000000000000000000000bef01d401b54c19b2bcfe93f5e55e0355fe24a7300000000000000000000000000000000000000000000000000000000000000c000000000000000000000000000000000000000000000000000000000000000e00000000000000000000000000000000000000000000000000000000000000000000000000000000000000000000000000000000000000000000000000000000000000000000000000000000000000000000000000000000000000000, 4000000, 210000, 21000, 1, 1000000000, 0x0000000000000000000000000000000000000000, 0xe873e57f321a3960d58166183f7d38a616c836bf850e15c349c364584a8b4d153010ff7296cd262d48388c47617dd062530bc446e5ae27f4f969cb137e41e28e1c195a3f83786d9385d779cd5f0ee71211eef49169b76e52abedec7cd7851d01ca4aad3730e3bede49bac607f29db1c23cd0d325703643b4038272d5e9472ba6271b)]",
        "0x660ad4B5A74130a4796B4d54BC6750Ae93C86e6c"
      ],
      "transaction": {
        "from": "0x660ad4b5a74130a4796b4d54bc6750ae93c86e6c",
        "to": "0x2843c269d2a64ecfa63548e8b3fc0fd23b7f70cb",
        "value": "0x0",
        "input": "0x1fad948c0000000000000000000000000000000000000000000000000000000000000040000000000000000000000000660ad4b5a74130a4796b4d54bc6750ae93c86e6c000000000000000000000000000000000000000000000000000000000000000100000000000000000000000000000000000000000000000000000000000000200000000000000000000000002e2b1c42e38f5af81771e65d87729e57abd1337a000000000000000000000000000000000000000000000000000000000000124d0000000000000000000000000000000000000000000000000000000000000160000000000000000000000000000000000000000000000000000000000000018000000000000000000000000000000000000000000000000000000000003d0900000000000000000000000000000000000000000000000000000000000003345000000000000000000000000000000000000000000000000000000000000052080000000000000000000000000000000000000000000000000000000000000001000000000000000000000000000000000000000000000000000000003b9aca00000000000000000000000000000000000000000000000000000000000000036000000000000000000000000000000000000000000000000000000000000003a0000000000000000000000000000000000000000000000000000000000000000000000000000000000000000000000000000000000000000000000000000001a4b61d27f60000000000000000000000003de040ef2fbf9158badf559c5606d7706ca7230900000000000000000000000000000000000000000000000000b1a2bc2ec5000000000000000000000000000000000000000000000000000000000000000000600000000000000000000000000000000000000000000000000000000000000104405e720a000000000000000000000000660ad4b5a74130a4796b4d54bc6750ae93c86e6c0000000000000000000000000000000000000000000005ede20f01a459800000000000000000000000000000000000000000000000000000000000000007a120000000000000000000000000bef01d401b54c19b2bcfe93f5e55e0355fe24a7300000000000000000000000000000000000000000000000000000000000000c000000000000000000000000000000000000000000000000000000000000000e0000000000000000000000000000000000000000000000000000000000000000000000000000000000000000000000000000000000000000000000000000000000000000000000000000000000000000000000000000000000000000000000000000000000000000000000000000000000000000000000000000000000000000000000000000000000000000000000000000000000000001400000000000000000000000000000000000000000000000000000000000000000000000000000000000000000000000000000000000000000000000000000082e873e57f321a3960d58166183f7d38a616c836bf850e15c349c364584a8b4d153010ff7296cd262d48388c47617dd062530bc446e5ae27f4f969cb137e41e28e1c195a3f83786d9385d779cd5f0ee71211eef49169b76e52abedec7cd7851d01ca4aad3730e3bede49bac607f29db1c23cd0d325703643b4038272d5e9472ba6271b000000000000000000000000000000000000000000000000000000000000",
        "nonce": "0x4bdb8",
        "chainId": "0x1ecf"
      },
      "additionalContracts": [],
      "isFixedGasLimit": false
    }
  ],
  "receipts": [
    {
      "status": "0x1",
      "cumulativeGasUsed": "0x3c453",
      "logs": [
        {
          "address": "0x2843c269d2a64ecfa63548e8b3fc0fd23b7f70cb",
          "topics": [
            "0xbb47ee3e183a558b1a2ff0874b079f3fc5478b7454eacf2bfc5af2ff5878f972"
          ],
          "data": "0x",
          "blockHash": "0x2054b77c99b50774292b52229ad3e84cda9d2c618b799c91b27e58373a7f32d1",
          "blockNumber": "0xbe0bf",
          "transactionHash": "0x89e2a50cc1ba11f45a35ed6f33507b3b22b297f52ca9b04ca8ef0975d1e6829e",
          "transactionIndex": "0x1",
          "logIndex": "0x0",
          "removed": false
        },
        {
          "address": "0x2843c269d2a64ecfa63548e8b3fc0fd23b7f70cb",
          "topics": [
            "0x1c4fada7374c0a9ee8841fc38afe82932dc0f8e69012e927f061a8bae611a201",
            "0xb889a87533e66c4289f76247b37ed172bb1f82ea0e581c048a042a1fe073f716",
            "0x0000000000000000000000002e2b1c42e38f5af81771e65d87729e57abd1337a"
          ],
          "data": "0x000000000000000000000000000000000000000000000000000000000000124d0000000000000000000000000000000000000000000000000000000000000040000000000000000000000000000000000000000000000000000000000000006408c379a0000000000000000000000000000000000000000000000000000000000000002000000000000000000000000000000000000000000000000000000000000000145452414e534645525f46524f4d5f4641494c454400000000000000000000000000000000000000000000000000000000000000000000000000000000",
          "blockHash": "0x2054b77c99b50774292b52229ad3e84cda9d2c618b799c91b27e58373a7f32d1",
          "blockNumber": "0xbe0bf",
          "transactionHash": "0x89e2a50cc1ba11f45a35ed6f33507b3b22b297f52ca9b04ca8ef0975d1e6829e",
          "transactionIndex": "0x1",
          "logIndex": "0x1",
          "removed": false
        },
        {
          "address": "0x2843c269d2a64ecfa63548e8b3fc0fd23b7f70cb",
          "topics": [
            "0x49628fd1471006c1482da88028e9ce4dbb080b815c9b0344d39e5a8e6ec1419f",
            "0xb889a87533e66c4289f76247b37ed172bb1f82ea0e581c048a042a1fe073f716",
            "0x0000000000000000000000002e2b1c42e38f5af81771e65d87729e57abd1337a",
            "0x0000000000000000000000000000000000000000000000000000000000000000"
          ],
          "data": "0x000000000000000000000000000000000000000000000000000000000000124d000000000000000000000000000000000000000000000000000000000000000000000000000000000000000000000000000000000000000000000000000945ad00000000000000000000000000000000000000000000000000000000000945ad",
          "blockHash": "0x2054b77c99b50774292b52229ad3e84cda9d2c618b799c91b27e58373a7f32d1",
          "blockNumber": "0xbe0bf",
          "transactionHash": "0x89e2a50cc1ba11f45a35ed6f33507b3b22b297f52ca9b04ca8ef0975d1e6829e",
          "transactionIndex": "0x1",
          "logIndex": "0x2",
          "removed": false
        }
      ],
      "logsBloom": "0x000000000000000000000000000000000000000000000000000000000000000000080000000000000000000100000000000000000000000000000200000000000000000000000000000000000000000000000000000000000000000000400008000000000a0000000000000000000800002000000000000000000000000000000000000000000800000000000000800000000000000000000000000000200000000400000000000000400000000000000000000000000000000002000000000000000000000000100001000000000000000000000000000000000001000020000000000001010000000000000000000000000000000000000000000000000000",
      "type": "0x2",
      "transactionHash": "0x89e2a50cc1ba11f45a35ed6f33507b3b22b297f52ca9b04ca8ef0975d1e6829e",
      "transactionIndex": "0x1",
      "blockHash": "0x2054b77c99b50774292b52229ad3e84cda9d2c618b799c91b27e58373a7f32d1",
      "blockNumber": "0xbe0bf",
      "gasUsed": "0x3c453",
      "effectiveGasPrice": "0x5f5e100",
      "from": "0x660ad4b5a74130a4796b4d54bc6750ae93c86e6c",
      "to": "0x2843c269d2a64ecfa63548e8b3fc0fd23b7f70cb",
      "contractAddress": null,
      "gasUsedForL1": "0x28b",
      "l1BlockNumber": "0x1518968"
    }
  ],
  "libraries": [],
  "pending": [],
  "returns": {},
  "timestamp": 1742868171,
  "chain": 7887,
  "commit": "22333062"
}