{
  "transactions": [
    {
      "hash": "0x1d3067c47ef61c3f42e9340756d9bc25e3366bd5e7f73889c508dfb0976d0b80",
      "transactionType": "CALL",
      "contractName": null,
      "contractAddress": "0x2843c269d2a64ecfa63548e8b3fc0fd23b7f70cb",
      "function": "handleOps((address,uint256,bytes,bytes,uint256,uint256,uint256,uint256,uint256,bytes,bytes)[],address)",
      "arguments": [
        "[(0x2e2B1c42E38f5af81771e65D87729E57ABD1337a, 4684, 0x, 0xb61d27f60000000000000000000000003de040ef2fbf9158badf559c5606d7706ca7230900000000000000000000000000000000000000000000000000b1a2bc2ec5000000000000000000000000000000000000000000000000000000000000000000600000000000000000000000000000000000000000000000000000000000000104405e720a000000000000000000000000660ad4b5a74130a4796b4d54bc6750ae93c86e6c0000000000000000000000000000000000000000000007b28996397229380000000000000000000000000000000000000000000000000000000000000007a120000000000000000000000000bef01d401b54c19b2bcfe93f5e55e0355fe24a7300000000000000000000000000000000000000000000000000000000000000c000000000000000000000000000000000000000000000000000000000000000e00000000000000000000000000000000000000000000000000000000000000000000000000000000000000000000000000000000000000000000000000000000000000000000000000000000000000000000000000000000000000000, 4000000, 210000, 21000, 1, 1000000000, 0x0000000000000000000000000000000000000000, 0xf19b550239724af4ad5f7fcd0f7049cf04e5c0016ef603ada9ded094256d910241c9e7e0fc20bfebff9ca02c86d68ff104d4b42dc7f3dcaad47439f7284429251cbdb73fe04746c249a036b25fd1c1e64b14342c24cc92fd28c47710b9eb4a5576395d7035f238733ed442e34ba29edae3507d0f615402aab06fb2b7865f3581e61b)]",
        "0x660ad4B5A74130a4796B4d54BC6750Ae93C86e6c"
      ],
      "transaction": {
        "from": "0x660ad4b5a74130a4796b4d54bc6750ae93c86e6c",
        "to": "0x2843c269d2a64ecfa63548e8b3fc0fd23b7f70cb",
        "value": "0x0",
        "input": "0x1fad948c0000000000000000000000000000000000000000000000000000000000000040000000000000000000000000660ad4b5a74130a4796b4d54bc6750ae93c86e6c000000000000000000000000000000000000000000000000000000000000000100000000000000000000000000000000000000000000000000000000000000200000000000000000000000002e2b1c42e38f5af81771e65d87729e57abd1337a000000000000000000000000000000000000000000000000000000000000124c0000000000000000000000000000000000000000000000000000000000000160000000000000000000000000000000000000000000000000000000000000018000000000000000000000000000000000000000000000000000000000003d0900000000000000000000000000000000000000000000000000000000000003345000000000000000000000000000000000000000000000000000000000000052080000000000000000000000000000000000000000000000000000000000000001000000000000000000000000000000000000000000000000000000003b9aca00000000000000000000000000000000000000000000000000000000000000036000000000000000000000000000000000000000000000000000000000000003a0000000000000000000000000000000000000000000000000000000000000000000000000000000000000000000000000000000000000000000000000000001a4b61d27f60000000000000000000000003de040ef2fbf9158badf559c5606d7706ca7230900000000000000000000000000000000000000000000000000b1a2bc2ec5000000000000000000000000000000000000000000000000000000000000000000600000000000000000000000000000000000000000000000000000000000000104405e720a000000000000000000000000660ad4b5a74130a4796b4d54bc6750ae93c86e6c0000000000000000000000000000000000000000000007b28996397229380000000000000000000000000000000000000000000000000000000000000007a120000000000000000000000000bef01d401b54c19b2bcfe93f5e55e0355fe24a7300000000000000000000000000000000000000000000000000000000000000c000000000000000000000000000000000000000000000000000000000000000e0000000000000000000000000000000000000000000000000000000000000000000000000000000000000000000000000000000000000000000000000000000000000000000000000000000000000000000000000000000000000000000000000000000000000000000000000000000000000000000000000000000000000000000000000000000000000000000000000000000000000001400000000000000000000000000000000000000000000000000000000000000000000000000000000000000000000000000000000000000000000000000000082f19b550239724af4ad5f7fcd0f7049cf04e5c0016ef603ada9ded094256d910241c9e7e0fc20bfebff9ca02c86d68ff104d4b42dc7f3dcaad47439f7284429251cbdb73fe04746c249a036b25fd1c1e64b14342c24cc92fd28c47710b9eb4a5576395d7035f238733ed442e34ba29edae3507d0f615402aab06fb2b7865f3581e61b000000000000000000000000000000000000000000000000000000000000",
        "nonce": "0x4bdb7",
        "chainId": "0x1ecf"
      },
      "additionalContracts": [],
      "isFixedGasLimit": false
    }
  ],
  "receipts": [
    {
      "status": "0x1",
      "cumulativeGasUsed": "0x33337",
      "logs": [
        {
          "address": "0x2843c269d2a64ecfa63548e8b3fc0fd23b7f70cb",
          "topics": [
            "0xbb47ee3e183a558b1a2ff0874b079f3fc5478b7454eacf2bfc5af2ff5878f972"
          ],
          "data": "0x",
          "blockHash": "0x3a35cb26b693521d7971f3ca2713afc4b381c0970eb5fdaeea4dbc6c0540c268",
          "blockNumber": "0xbe0be",
          "transactionHash": "0x1d3067c47ef61c3f42e9340756d9bc25e3366bd5e7f73889c508dfb0976d0b80",
          "transactionIndex": "0x1",
          "logIndex": "0x0",
          "removed": false
        },
        {
          "address": "0x2843c269d2a64ecfa63548e8b3fc0fd23b7f70cb",
          "topics": [
            "0x1c4fada7374c0a9ee8841fc38afe82932dc0f8e69012e927f061a8bae611a201",
            "0x111c275a11fbbcb337055ffdb84a99cf76d37412cbfc6f37f684b316a2b8efd5",
            "0x0000000000000000000000002e2b1c42e38f5af81771e65d87729e57abd1337a"
          ],
          "data": "0x000000000000000000000000000000000000000000000000000000000000124c0000000000000000000000000000000000000000000000000000000000000040000000000000000000000000000000000000000000000000000000000000000447ebad2000000000000000000000000000000000000000000000000000000000",
          "blockHash": "0x3a35cb26b693521d7971f3ca2713afc4b381c0970eb5fdaeea4dbc6c0540c268",
          "blockNumber": "0xbe0be",
          "transactionHash": "0x1d3067c47ef61c3f42e9340756d9bc25e3366bd5e7f73889c508dfb0976d0b80",
          "transactionIndex": "0x1",
          "logIndex": "0x1",
          "removed": false
        },
        {
          "address": "0x2843c269d2a64ecfa63548e8b3fc0fd23b7f70cb",
          "topics": [
            "0x49628fd1471006c1482da88028e9ce4dbb080b815c9b0344d39e5a8e6ec1419f",
            "0x111c275a11fbbcb337055ffdb84a99cf76d37412cbfc6f37f684b316a2b8efd5",
            "0x0000000000000000000000002e2b1c42e38f5af81771e65d87729e57abd1337a",
            "0x0000000000000000000000000000000000000000000000000000000000000000"
          ],
          "data": "0x000000000000000000000000000000000000000000000000000000000000124c0000000000000000000000000000000000000000000000000000000000000000000000000000000000000000000000000000000000000000000000000008c317000000000000000000000000000000000000000000000000000000000008c317",
          "blockHash": "0x3a35cb26b693521d7971f3ca2713afc4b381c0970eb5fdaeea4dbc6c0540c268",
          "blockNumber": "0xbe0be",
          "transactionHash": "0x1d3067c47ef61c3f42e9340756d9bc25e3366bd5e7f73889c508dfb0976d0b80",
          "transactionIndex": "0x1",
          "logIndex": "0x2",
          "removed": false
        }
      ],
      "logsBloom": "0x000000000000000000000000000000000000000000000000000000000000000000080000000000000000000100000000000000000000000000000200000000000000000000000000000000000000000000000000000000000000000000400008004000000a0000000000000000000800002000000000000000000000000000000000000000000000000040000000800000000000000000000000000000000000000400000000000000400000000000000000000000000000000002000000000000000000000000100001000000000000000000000000000000000000000020000000000001010000000000000000000000000000010000000000000000000000",
      "type": "0x2",
      "transactionHash": "0x1d3067c47ef61c3f42e9340756d9bc25e3366bd5e7f73889c508dfb0976d0b80",
      "transactionIndex": "0x1",
      "blockHash": "0x3a35cb26b693521d7971f3ca2713afc4b381c0970eb5fdaeea4dbc6c0540c268",
      "blockNumber": "0xbe0be",
      "gasUsed": "0x33337",
      "effectiveGasPrice": "0x5f5e100",
      "from": "0x660ad4b5a74130a4796b4d54bc6750ae93c86e6c",
      "to": "0x2843c269d2a64ecfa63548e8b3fc0fd23b7f70cb",
      "contractAddress": null,
      "gasUsedForL1": "0x285",
      "l1BlockNumber": "0x1518933"
    }
  ],
  "libraries": [],
  "pending": [],
  "returns": {},
  "timestamp": 1742867535,
  "chain": 7887,
  "commit": "22333062"
}