{
  "transactions": [
    {
      "hash": "0x79de58217360190d7fdcb2c4126aa1e6218bd2ddebe5d6431b0ab9225831e3dc",
      "transactionType": "CALL",
      "contractName": null,
      "contractAddress": "0x2843c269d2a64ecfa63548e8b3fc0fd23b7f70cb",
      "function": "handleOps((address,uint256,bytes,bytes,uint256,uint256,uint256,uint256,uint256,bytes,bytes)[],address)",
      "arguments": [
        "[(0x2e2B1c42E38f5af81771e65D87729E57ABD1337a, 1869, 0x, 0xb61d27f6000000000000000000000000c7fca8ab6d1e1142790454e7e5655d93c3b03ed6000000000000000000000000000000000000000000000000002a1390f84d8f9600000000000000000000000000000000000000000000000000000000000000600000000000000000000000000000000000000000000000000000000000000104405e720a000000000000000000000000660ad4b5a74130a4796b4d54bc6750ae93c86e6c0000000000000000000000000000000000000000000000026773e1458b2f6c20000000000000000000000000000000000000000000000000000000000007a1200000000000000000000000003301d0616365f55a54059707e49f93d18159f12900000000000000000000000000000000000000000000000000000000000000c000000000000000000000000000000000000000000000000000000000000000e00000000000000000000000000000000000000000000000000000000000000000000000000000000000000000000000000000000000000000000000000000000000000000000000000000000000000000000000000000000000000000, 4000000, 210000, 21000, 1, 1000000000, 0x0000000000000000000000000000000000000000, 0x629532bc9c8cc4333b9f340e7ebefba9d49d75fa258324dbe8c536eaab99bd49169c43f743e6dc2d13d30395555b475d00d6d1a5da77cce5d342ca2120e659f11c)]",
        "0x660ad4B5A74130a4796B4d54BC6750Ae93C86e6c"
      ],
      "transaction": {
        "from": "0x660ad4b5a74130a4796b4d54bc6750ae93c86e6c",
        "to": "0x2843c269d2a64ecfa63548e8b3fc0fd23b7f70cb",
        "gas": "0x6963ba",
        "value": "0x0",
        "input": "0x1fad948c0000000000000000000000000000000000000000000000000000000000000040000000000000000000000000660ad4b5a74130a4796b4d54bc6750ae93c86e6c000000000000000000000000000000000000000000000000000000000000000100000000000000000000000000000000000000000000000000000000000000200000000000000000000000002e2b1c42e38f5af81771e65d87729e57abd1337a000000000000000000000000000000000000000000000000000000000000074d0000000000000000000000000000000000000000000000000000000000000160000000000000000000000000000000000000000000000000000000000000018000000000000000000000000000000000000000000000000000000000003d0900000000000000000000000000000000000000000000000000000000000003345000000000000000000000000000000000000000000000000000000000000052080000000000000000000000000000000000000000000000000000000000000001000000000000000000000000000000000000000000000000000000003b9aca00000000000000000000000000000000000000000000000000000000000000036000000000000000000000000000000000000000000000000000000000000003a0000000000000000000000000000000000000000000000000000000000000000000000000000000000000000000000000000000000000000000000000000001a4b61d27f6000000000000000000000000c7fca8ab6d1e1142790454e7e5655d93c3b03ed6000000000000000000000000000000000000000000000000002a1390f84d8f9600000000000000000000000000000000000000000000000000000000000000600000000000000000000000000000000000000000000000000000000000000104405e720a000000000000000000000000660ad4b5a74130a4796b4d54bc6750ae93c86e6c0000000000000000000000000000000000000000000000026773e1458b2f6c20000000000000000000000000000000000000000000000000000000000007a1200000000000000000000000003301d0616365f55a54059707e49f93d18159f12900000000000000000000000000000000000000000000000000000000000000c000000000000000000000000000000000000000000000000000000000000000e0000000000000000000000000000000000000000000000000000000000000000000000000000000000000000000000000000000000000000000000000000000000000000000000000000000000000000000000000000000000000000000000000000000000000000000000000000000000000000000000000000000000000000000000000000000000000000000000000000000000000001400000000000000000000000000000000000000000000000000000000000000000000000000000000000000000000000000000000000000000000000000000041629532bc9c8cc4333b9f340e7ebefba9d49d75fa258324dbe8c536eaab99bd49169c43f743e6dc2d13d30395555b475d00d6d1a5da77cce5d342ca2120e659f11c00000000000000000000000000000000000000000000000000000000000000",
        "nonce": "0x37aa",
        "chainId": "0x1ecf"
      },
      "additionalContracts": [],
      "isFixedGasLimit": false
    }
  ],
  "receipts": [
    {
      "status": "0x1",
      "cumulativeGasUsed": "0xa16fa",
      "logs": [
        {
          "address": "0x2843c269d2a64ecfa63548e8b3fc0fd23b7f70cb",
          "topics": [
            "0xbb47ee3e183a558b1a2ff0874b079f3fc5478b7454eacf2bfc5af2ff5878f972"
          ],
          "data": "0x",
          "blockHash": "0x6abc73c8e51b15a18f0e3c45ae108a6ed96a3d3a01f4fc255bc81faa9d5d9b09",
          "blockNumber": "0x2a010",
          "transactionHash": "0x79de58217360190d7fdcb2c4126aa1e6218bd2ddebe5d6431b0ab9225831e3dc",
          "transactionIndex": "0x1",
          "logIndex": "0x0",
          "removed": false
        },
        {
          "address": "0x2843c269d2a64ecfa63548e8b3fc0fd23b7f70cb",
          "topics": [
            "0x1c4fada7374c0a9ee8841fc38afe82932dc0f8e69012e927f061a8bae611a201",
            "0xb3cafbcf42f3970064e5a08e7d9ed8dc6a3f9f01966d6f9c7df5d6cfd454c76c",
            "0x0000000000000000000000002e2b1c42e38f5af81771e65d87729e57abd1337a"
          ],
          "data": "0x000000000000000000000000000000000000000000000000000000000000074d00000000000000000000000000000000000000000000000000000000000000400000000000000000000000000000000000000000000000000000000000000064e450d38c0000000000000000000000002e2b1c42e38f5af81771e65d87729e57abd1337a0000000000000000000000000000000000000000000000026773e1458b2f54150000000000000000000000000000000000000000000000026773e1458b2f6c2000000000000000000000000000000000000000000000000000000000",
          "blockHash": "0x6abc73c8e51b15a18f0e3c45ae108a6ed96a3d3a01f4fc255bc81faa9d5d9b09",
          "blockNumber": "0x2a010",
          "transactionHash": "0x79de58217360190d7fdcb2c4126aa1e6218bd2ddebe5d6431b0ab9225831e3dc",
          "transactionIndex": "0x1",
          "logIndex": "0x1",
          "removed": false
        },
        {
          "address": "0x2843c269d2a64ecfa63548e8b3fc0fd23b7f70cb",
          "topics": [
            "0x49628fd1471006c1482da88028e9ce4dbb080b815c9b0344d39e5a8e6ec1419f",
            "0xb3cafbcf42f3970064e5a08e7d9ed8dc6a3f9f01966d6f9c7df5d6cfd454c76c",
            "0x0000000000000000000000002e2b1c42e38f5af81771e65d87729e57abd1337a",
            "0x0000000000000000000000000000000000000000000000000000000000000000"
          ],
          "data": "0x000000000000000000000000000000000000000000000000000000000000074d0000000000000000000000000000000000000000000000000000000000000000000000000000000000000000000000000000000000000000000000000008dab7000000000000000000000000000000000000000000000000000000000008dab7",
          "blockHash": "0x6abc73c8e51b15a18f0e3c45ae108a6ed96a3d3a01f4fc255bc81faa9d5d9b09",
          "blockNumber": "0x2a010",
          "transactionHash": "0x79de58217360190d7fdcb2c4126aa1e6218bd2ddebe5d6431b0ab9225831e3dc",
          "transactionIndex": "0x1",
          "logIndex": "0x2",
          "removed": false
        }
      ],
      "logsBloom": "0x000000000000000000000000000000000000000000000200000000000000000000080000000000000000000100000000000000000000000200000200000000000000000000000000000000000000000000000000000000000000000000400008000000000a0000000000000000000800002000000000000000000000000000000000000000000000000000000000800000000000000000000000000000000000000400000000000000400000000000000000000000004000000002000000000000000000000000100001000000000000000000000000000000000000000020000000000001010000000000000000000000000000000000000000000000000000",
      "type": "0x2",
      "transactionHash": "0x79de58217360190d7fdcb2c4126aa1e6218bd2ddebe5d6431b0ab9225831e3dc",
      "transactionIndex": "0x1",
      "blockHash": "0x6abc73c8e51b15a18f0e3c45ae108a6ed96a3d3a01f4fc255bc81faa9d5d9b09",
      "blockNumber": "0x2a010",
      "gasUsed": "0xa16fa",
      "effectiveGasPrice": "0x5f5e100",
      "from": "0x660ad4b5a74130a4796b4d54bc6750ae93c86e6c",
      "to": "0x2843c269d2a64ecfa63548e8b3fc0fd23b7f70cb",
      "contractAddress": null,
      "gasUsedForL1": "0x6c88d",
      "l1BlockNumber": "0x130ef83"
    }
  ],
  "libraries": [],
  "pending": [],
  "returns": {},
  "timestamp": 1717091500,
  "chain": 7887,
  "commit": "c61d6c7"
}