{
  "transactions": [
    {
      "hash": "0x245725f339851404bd7c65bc9b024a6a5dc091d7fc51ef53c39c1ef140bfd45a",
      "transactionType": "CALL",
      "contractName": null,
      "contractAddress": "0x2843c269d2a64ecfa63548e8b3fc0fd23b7f70cb",
      "function": "handleOps((address,uint256,bytes,bytes,uint256,uint256,uint256,uint256,uint256,bytes,bytes)[],address)",
      "arguments": [
        "[(0x2e2B1c42E38f5af81771e65D87729E57ABD1337a, 1868, 0x, 0xb61d27f60000000000000000000000000ee700095aedfe0814fff7d6dfd75461de8e2b19000000000000000000000000000000000000000000000000000000000000000000000000000000000000000000000000000000000000000000000000000000600000000000000000000000000000000000000000000000000000000000000044095ea7b3000000000000000000000000c7fca8ab6d1e1142790454e7e5655d93c3b03ed6ffffffffffffffffffffffffffffffffffffffffffffffffffffffffffffffff00000000000000000000000000000000000000000000000000000000, 4000000, 210000, 21000, 1, 1000000000, 0x0000000000000000000000000000000000000000, 0x6b34ead55624179676fee6e3d3a50d237c4a4ec5eb41801daa37b5efd022d5475b40dae5fcdeae2d6ae1ca3a552698474621929e0faa7c01cd741e4ea53e8ed31c)]",
        "0x660ad4B5A74130a4796B4d54BC6750Ae93C86e6c"
      ],
      "transaction": {
        "from": "0x660ad4b5a74130a4796b4d54bc6750ae93c86e6c",
        "to": "0x2843c269d2a64ecfa63548e8b3fc0fd23b7f70cb",
        "gas": "0x49c6c2",
        "value": "0x0",
        "input": "0x1fad948c0000000000000000000000000000000000000000000000000000000000000040000000000000000000000000660ad4b5a74130a4796b4d54bc6750ae93c86e6c000000000000000000000000000000000000000000000000000000000000000100000000000000000000000000000000000000000000000000000000000000200000000000000000000000002e2b1c42e38f5af81771e65d87729e57abd1337a000000000000000000000000000000000000000000000000000000000000074c0000000000000000000000000000000000000000000000000000000000000160000000000000000000000000000000000000000000000000000000000000018000000000000000000000000000000000000000000000000000000000003d0900000000000000000000000000000000000000000000000000000000000003345000000000000000000000000000000000000000000000000000000000000052080000000000000000000000000000000000000000000000000000000000000001000000000000000000000000000000000000000000000000000000003b9aca0000000000000000000000000000000000000000000000000000000000000002a000000000000000000000000000000000000000000000000000000000000002e0000000000000000000000000000000000000000000000000000000000000000000000000000000000000000000000000000000000000000000000000000000e4b61d27f60000000000000000000000000ee700095aedfe0814fff7d6dfd75461de8e2b19000000000000000000000000000000000000000000000000000000000000000000000000000000000000000000000000000000000000000000000000000000600000000000000000000000000000000000000000000000000000000000000044095ea7b3000000000000000000000000c7fca8ab6d1e1142790454e7e5655d93c3b03ed6ffffffffffffffffffffffffffffffffffffffffffffffffffffffffffffffff00000000000000000000000000000000000000000000000000000000000000000000000000000000000000000000000000000000000000000000000000000000000000000000000000000000000000000000000000000014000000000000000000000000000000000000000000000000000000000000000000000000000000000000000000000000000000000000000000000000000000416b34ead55624179676fee6e3d3a50d237c4a4ec5eb41801daa37b5efd022d5475b40dae5fcdeae2d6ae1ca3a552698474621929e0faa7c01cd741e4ea53e8ed31c00000000000000000000000000000000000000000000000000000000000000",
        "nonce": "0x37a9",
        "chainId": "0x1ecf"
      },
      "additionalContracts": [],
      "isFixedGasLimit": false
    }
  ],
  "receipts": [
    {
      "status": "0x1",
      "cumulativeGasUsed": "0x8aa4b",
      "logs": [
        {
          "address": "0x2843c269d2a64ecfa63548e8b3fc0fd23b7f70cb",
          "topics": [
            "0xbb47ee3e183a558b1a2ff0874b079f3fc5478b7454eacf2bfc5af2ff5878f972"
          ],
          "data": "0x",
          "blockHash": "0x89a7fcb0a00385d329535cf969e27d6ff9ea1c29c89f222199d3561dc39cee41",
          "blockNumber": "0x2a00d",
          "transactionHash": "0x245725f339851404bd7c65bc9b024a6a5dc091d7fc51ef53c39c1ef140bfd45a",
          "transactionIndex": "0x1",
          "logIndex": "0x0",
          "removed": false
        },
        {
          "address": "0x0ee700095aedfe0814fff7d6dfd75461de8e2b19",
          "topics": [
            "0x8c5be1e5ebec7d5bd14f71427d1e84f3dd0314c0f7b2291e5b200ac8c7c3b925",
            "0x0000000000000000000000002e2b1c42e38f5af81771e65d87729e57abd1337a",
            "0x000000000000000000000000c7fca8ab6d1e1142790454e7e5655d93c3b03ed6"
          ],
          "data": "0xffffffffffffffffffffffffffffffffffffffffffffffffffffffffffffffff",
          "blockHash": "0x89a7fcb0a00385d329535cf969e27d6ff9ea1c29c89f222199d3561dc39cee41",
          "blockNumber": "0x2a00d",
          "transactionHash": "0x245725f339851404bd7c65bc9b024a6a5dc091d7fc51ef53c39c1ef140bfd45a",
          "transactionIndex": "0x1",
          "logIndex": "0x1",
          "removed": false
        },
        {
          "address": "0x2843c269d2a64ecfa63548e8b3fc0fd23b7f70cb",
          "topics": [
            "0x49628fd1471006c1482da88028e9ce4dbb080b815c9b0344d39e5a8e6ec1419f",
            "0xd1ad12edffce718e49e28db835bbedf2c9be71416d76c1d50426867ecd71601d",
            "0x0000000000000000000000002e2b1c42e38f5af81771e65d87729e57abd1337a",
            "0x0000000000000000000000000000000000000000000000000000000000000000"
          ],
          "data": "0x000000000000000000000000000000000000000000000000000000000000074c0000000000000000000000000000000000000000000000000000000000000001000000000000000000000000000000000000000000000000000000000007f972000000000000000000000000000000000000000000000000000000000007f972",
          "blockHash": "0x89a7fcb0a00385d329535cf969e27d6ff9ea1c29c89f222199d3561dc39cee41",
          "blockNumber": "0x2a00d",
          "transactionHash": "0x245725f339851404bd7c65bc9b024a6a5dc091d7fc51ef53c39c1ef140bfd45a",
          "transactionIndex": "0x1",
          "logIndex": "0x2",
          "removed": false
        }
      ],
      "logsBloom": "0x00000000000000040000000000000000000000000000000000001000000000000008000000000000000000010000000000000000000400000000020000200000000000000000000000000800000000000000000000000000000000000000000800000000020000000000000000000800002000000000000000000000000000000000000000000000000000000000800000000000000000000000000000004000020400000000000000400000200000000000800000000000000002000000000000000000000000100001000000000000000000000000000000000000000060000010000000010000000000000000000000000400000000000000000000000000",
      "type": "0x2",
      "transactionHash": "0x245725f339851404bd7c65bc9b024a6a5dc091d7fc51ef53c39c1ef140bfd45a",
      "transactionIndex": "0x1",
      "blockHash": "0x89a7fcb0a00385d329535cf969e27d6ff9ea1c29c89f222199d3561dc39cee41",
      "blockNumber": "0x2a00d",
      "gasUsed": "0x8aa4b",
      "effectiveGasPrice": "0x5f5e100",
      "from": "0x660ad4b5a74130a4796b4d54bc6750ae93c86e6c",
      "to": "0x2843c269d2a64ecfa63548e8b3fc0fd23b7f70cb",
      "contractAddress": null,
      "gasUsedForL1": "0x659c4",
      "l1BlockNumber": "0x130ef7e"
    }
  ],
  "libraries": [],
  "pending": [],
  "returns": {},
  "timestamp": 1717091438,
  "chain": 7887,
  "commit": "c61d6c7"
}