{
  "transactions": [
    {
      "hash": "0x3ca4b59b8da0b77b2d154adbc0eb2274bbacf03b5c32dc384285fc55b50d99f0",
      "transactionType": "CALL",
      "contractName": null,
      "contractAddress": "0x2843c269d2a64ecfa63548e8b3fc0fd23b7f70cb",
      "function": "handleOps((address,uint256,bytes,bytes,uint256,uint256,uint256,uint256,uint256,bytes,bytes)[],address)",
      "arguments": [
        "[(0x2e2B1c42E38f5af81771e65D87729E57ABD1337a, 1870, 0x, 0xb61d27f6000000000000000000000000c7fca8ab6d1e1142790454e7e5655d93c3b03ed6000000000000000000000000000000000000000000000000002a1390f84d8f9600000000000000000000000000000000000000000000000000000000000000600000000000000000000000000000000000000000000000000000000000000104405e720a000000000000000000000000660ad4b5a74130a4796b4d54bc6750ae93c86e6c0000000000000000000000000000000000000000000000026773e1458b2f5415000000000000000000000000000000000000000000000000000000000007a1200000000000000000000000003301d0616365f55a54059707e49f93d18159f12900000000000000000000000000000000000000000000000000000000000000c000000000000000000000000000000000000000000000000000000000000000e00000000000000000000000000000000000000000000000000000000000000000000000000000000000000000000000000000000000000000000000000000000000000000000000000000000000000000000000000000000000000000, 4000000, 210000, 21000, 1, 1000000000, 0x0000000000000000000000000000000000000000, 0x0043805fc2e8e1086bc1a4b41d8097a2bfe52c39f955024a0e8ae8197295a78a4a27e1f7f4c080a3fad084487783e35ac8521d6d83ab3939f6bbc1336461ed8d1b)]",
        "0x660ad4B5A74130a4796B4d54BC6750Ae93C86e6c"
      ],
      "transaction": {
        "from": "0x660ad4b5a74130a4796b4d54bc6750ae93c86e6c",
        "to": "0x2843c269d2a64ecfa63548e8b3fc0fd23b7f70cb",
        "gas": "0x9bc904",
        "value": "0x0",
        "input": "0x1fad948c0000000000000000000000000000000000000000000000000000000000000040000000000000000000000000660ad4b5a74130a4796b4d54bc6750ae93c86e6c000000000000000000000000000000000000000000000000000000000000000100000000000000000000000000000000000000000000000000000000000000200000000000000000000000002e2b1c42e38f5af81771e65d87729e57abd1337a000000000000000000000000000000000000000000000000000000000000074e0000000000000000000000000000000000000000000000000000000000000160000000000000000000000000000000000000000000000000000000000000018000000000000000000000000000000000000000000000000000000000003d0900000000000000000000000000000000000000000000000000000000000003345000000000000000000000000000000000000000000000000000000000000052080000000000000000000000000000000000000000000000000000000000000001000000000000000000000000000000000000000000000000000000003b9aca00000000000000000000000000000000000000000000000000000000000000036000000000000000000000000000000000000000000000000000000000000003a0000000000000000000000000000000000000000000000000000000000000000000000000000000000000000000000000000000000000000000000000000001a4b61d27f6000000000000000000000000c7fca8ab6d1e1142790454e7e5655d93c3b03ed6000000000000000000000000000000000000000000000000002a1390f84d8f9600000000000000000000000000000000000000000000000000000000000000600000000000000000000000000000000000000000000000000000000000000104405e720a000000000000000000000000660ad4b5a74130a4796b4d54bc6750ae93c86e6c0000000000000000000000000000000000000000000000026773e1458b2f5415000000000000000000000000000000000000000000000000000000000007a1200000000000000000000000003301d0616365f55a54059707e49f93d18159f12900000000000000000000000000000000000000000000000000000000000000c000000000000000000000000000000000000000000000000000000000000000e00000000000000000000000000000000000000000000000000000000000000000000000000000000000000000000000000000000000000000000000000000000000000000000000000000000000000000000000000000000000000000000000000000000000000000000000000000000000000000000000000000000000000000000000000000000000000000000000000000000000000014000000000000000000000000000000000000000000000000000000000000000000000000000000000000000000000000000000000000000000000000000000410043805fc2e8e1086bc1a4b41d8097a2bfe52c39f955024a0e8ae8197295a78a4a27e1f7f4c080a3fad084487783e35ac8521d6d83ab3939f6bbc1336461ed8d1b00000000000000000000000000000000000000000000000000000000000000",
        "nonce": "0x37ab",
        "chainId": "0x1ecf"
      },
      "additionalContracts": [],
      "isFixedGasLimit": false
    }
  ],
  "receipts": [
    {
      "status": "0x1",
      "cumulativeGasUsed": "0xc12ad",
      "logs": [
        {
          "address": "0x2843c269d2a64ecfa63548e8b3fc0fd23b7f70cb",
          "topics": [
            "0xbb47ee3e183a558b1a2ff0874b079f3fc5478b7454eacf2bfc5af2ff5878f972"
          ],
          "data": "0x",
          "blockHash": "0xd3450081babc2244fa94954253aeb83da8a39223de14e33c68a492067e339ef4",
          "blockNumber": "0x2a01a",
          "transactionHash": "0x3ca4b59b8da0b77b2d154adbc0eb2274bbacf03b5c32dc384285fc55b50d99f0",
          "transactionIndex": "0x1",
          "logIndex": "0x0",
          "removed": false
        },
        {
          "address": "0x2843c269d2a64ecfa63548e8b3fc0fd23b7f70cb",
          "topics": [
            "0x1c4fada7374c0a9ee8841fc38afe82932dc0f8e69012e927f061a8bae611a201",
            "0x7ea93a772636d3586916d5865f72dd076de1da7423e10985b446ffe4e9644441",
            "0x0000000000000000000000002e2b1c42e38f5af81771e65d87729e57abd1337a"
          ],
          "data": "0x000000000000000000000000000000000000000000000000000000000000074e000000000000000000000000000000000000000000000000000000000000004000000000000000000000000000000000000000000000000000000000000000048d53e55300000000000000000000000000000000000000000000000000000000",
          "blockHash": "0xd3450081babc2244fa94954253aeb83da8a39223de14e33c68a492067e339ef4",
          "blockNumber": "0x2a01a",
          "transactionHash": "0x3ca4b59b8da0b77b2d154adbc0eb2274bbacf03b5c32dc384285fc55b50d99f0",
          "transactionIndex": "0x1",
          "logIndex": "0x1",
          "removed": false
        },
        {
          "address": "0x2843c269d2a64ecfa63548e8b3fc0fd23b7f70cb",
          "topics": [
            "0x49628fd1471006c1482da88028e9ce4dbb080b815c9b0344d39e5a8e6ec1419f",
            "0x7ea93a772636d3586916d5865f72dd076de1da7423e10985b446ffe4e9644441",
            "0x0000000000000000000000002e2b1c42e38f5af81771e65d87729e57abd1337a",
            "0x0000000000000000000000000000000000000000000000000000000000000000"
          ],
          "data": "0x000000000000000000000000000000000000000000000000000000000000074e000000000000000000000000000000000000000000000000000000000000000000000000000000000000000000000000000000000000000000000000000a086a00000000000000000000000000000000000000000000000000000000000a086a",
          "blockHash": "0xd3450081babc2244fa94954253aeb83da8a39223de14e33c68a492067e339ef4",
          "blockNumber": "0x2a01a",
          "transactionHash": "0x3ca4b59b8da0b77b2d154adbc0eb2274bbacf03b5c32dc384285fc55b50d99f0",
          "transactionIndex": "0x1",
          "logIndex": "0x2",
          "removed": false
        }
      ],
      "logsBloom": "0x000000000000000000000000000000000000000000000000000000000000000000080000000000000000000100000000000000000000000000000200000000000000000000000000000000200000000000000000000000000000000000400108000000000a0000000000000000000800002000000000000000000000000000000000000000000000000000000000800000000000000000000000000000000000000400000000000000400000000000000000000000000000000002000000000000000000000000100001000000000000000000000000000000000000000020000000000001010000000000000000000000000002000000000000000000000000",
      "type": "0x2",
      "transactionHash": "0x3ca4b59b8da0b77b2d154adbc0eb2274bbacf03b5c32dc384285fc55b50d99f0",
      "transactionIndex": "0x1",
      "blockHash": "0xd3450081babc2244fa94954253aeb83da8a39223de14e33c68a492067e339ef4",
      "blockNumber": "0x2a01a",
      "gasUsed": "0xc12ad",
      "effectiveGasPrice": "0x5f5e100",
      "from": "0x660ad4b5a74130a4796b4d54bc6750ae93c86e6c",
      "to": "0x2843c269d2a64ecfa63548e8b3fc0fd23b7f70cb",
      "contractAddress": null,
      "gasUsedForL1": "0x77504",
      "l1BlockNumber": "0x130efec"
    }
  ],
  "libraries": [],
  "pending": [],
  "returns": {},
  "timestamp": 1717092767,
  "chain": 7887,
  "commit": "c61d6c7"
}