{
  "transactions": [
    {
      "hash": "0x4b5453c6d053e6f4ee2fa4a443a059d57212009a906d88fcf4487187f69d1e6d",
      "transactionType": "CALL",
      "contractName": null,
      "contractAddress": "0x2843c269d2a64ecfa63548e8b3fc0fd23b7f70cb",
      "function": "handleOps((address,uint256,bytes,bytes,uint256,uint256,uint256,uint256,uint256,bytes,bytes)[],address)",
      "arguments": [
        "[(0x2e2B1c42E38f5af81771e65D87729E57ABD1337a, 5170, 0x, 0xb61d27f6000000000000000000000000010700808d59d2bb92257fcafacfe8e5bff7ab870000000000000000000000000000000000000000000000000000000000000000000000000000000000000000000000000000000000000000000000000000006000000000000000000000000000000000000000000000000000000000000000449dc29fac000000000000000000000000d157904639e89df05e89e0dabeec99ae3d74f9aa000000000000000000000000000000000000000000000061b437d1f21302023000000000000000000000000000000000000000000000000000000000, 4000000, 210000, 21000, 1, 1000000000, 0x0000000000000000000000000000000000000000, 0x255b2b55c87744415eccd5c10a64cfdaff2618ddab22e4394707f224fb2e7d4d7e54192e91e56a901aceb7d3966b73a89ed9a863de0f701be5975b8a145831fb1c7e98f9e379ff4fad3997110960a5253d700ba7ea5916026dbbc24db371a2f5fd131354c5fdc53df8a48104cfb7c89b2ab5b4e4e7d6b4e58c8d9ec46dfcfed6831b)]",
        "0x660ad4B5A74130a4796B4d54BC6750Ae93C86e6c"
      ],
      "transaction": {
        "from": "0x660ad4b5a74130a4796b4d54bc6750ae93c86e6c",
        "to": "0x2843c269d2a64ecfa63548e8b3fc0fd23b7f70cb",
        "value": "0x0",
        "input": "0x1fad948c0000000000000000000000000000000000000000000000000000000000000040000000000000000000000000660ad4b5a74130a4796b4d54bc6750ae93c86e6c000000000000000000000000000000000000000000000000000000000000000100000000000000000000000000000000000000000000000000000000000000200000000000000000000000002e2b1c42e38f5af81771e65d87729e57abd1337a00000000000000000000000000000000000000000000000000000000000014320000000000000000000000000000000000000000000000000000000000000160000000000000000000000000000000000000000000000000000000000000018000000000000000000000000000000000000000000000000000000000003d0900000000000000000000000000000000000000000000000000000000000003345000000000000000000000000000000000000000000000000000000000000052080000000000000000000000000000000000000000000000000000000000000001000000000000000000000000000000000000000000000000000000003b9aca0000000000000000000000000000000000000000000000000000000000000002a000000000000000000000000000000000000000000000000000000000000002e0000000000000000000000000000000000000000000000000000000000000000000000000000000000000000000000000000000000000000000000000000000e4b61d27f6000000000000000000000000010700808d59d2bb92257fcafacfe8e5bff7ab870000000000000000000000000000000000000000000000000000000000000000000000000000000000000000000000000000000000000000000000000000006000000000000000000000000000000000000000000000000000000000000000449dc29fac000000000000000000000000d157904639e89df05e89e0dabeec99ae3d74f9aa000000000000000000000000000000000000000000000061b437d1f2130202300000000000000000000000000000000000000000000000000000000000000000000000000000000000000000000000000000000000000000000000000000000000000000000000000000000000000000000000000000001400000000000000000000000000000000000000000000000000000000000000000000000000000000000000000000000000000000000000000000000000000082255b2b55c87744415eccd5c10a64cfdaff2618ddab22e4394707f224fb2e7d4d7e54192e91e56a901aceb7d3966b73a89ed9a863de0f701be5975b8a145831fb1c7e98f9e379ff4fad3997110960a5253d700ba7ea5916026dbbc24db371a2f5fd131354c5fdc53df8a48104cfb7c89b2ab5b4e4e7d6b4e58c8d9ec46dfcfed6831b000000000000000000000000000000000000000000000000000000000000",
        "nonce": "0x4c020",
        "chainId": "0x1ecf"
      },
      "additionalContracts": [],
      "isFixedGasLimit": false
    },
    {
      "hash": "0xc003453718d37146857c224fd30b89c8a4194f58ada95acc1372ebd0e0e4d671",
      "transactionType": "CALL",
      "contractName": null,
      "contractAddress": "0x2843c269d2a64ecfa63548e8b3fc0fd23b7f70cb",
      "function": "handleOps((address,uint256,bytes,bytes,uint256,uint256,uint256,uint256,uint256,bytes,bytes)[],address)",
      "arguments": [
        "[(0x2e2B1c42E38f5af81771e65D87729E57ABD1337a, 5171, 0x, 0xb61d27f6000000000000000000000000010700808d59d2bb92257fcafacfe8e5bff7ab87000000000000000000000000000000000000000000000000000000000000000000000000000000000000000000000000000000000000000000000000000000600000000000000000000000000000000000000000000000000000000000000f8468573107000000000000000000000000000000000000000000000000000000000000004000000000000000000000000000000000000000000000000000000000000007e0000000000000000000000000000000000000000000000000000000000000003c0000000000000000000000007e6071bb0e16b1fb28e1957b861b26117e56cc3f000000000000000000000000694ad53083de3142dd790da2fd66adc5aad9ecf7000000000000000000000000c2f77a505545798ed01c9304fa5a0abd4799f24a0000000000000000000000004df40270546514a7bb21f4c4ec269b3c549ac9a60000000000000000000000000a6d6a9f95e68f0ab78eb081b5b21760ccc673560000000000000000000000001d66b926a66594ad8cd613da6af5cc1c3c5863af000000000000000000000000fd9f3a0eac7f06ddd8f579b9cffdf6def86da3a90000000000000000000000009ba6a569eb6c92dfe30f90c0ff8ebd13ff316848000000000000000000000000864990eec44952ac4245614f448adbce2bdb5028000000000000000000000000d014ba010a8abbf75142de92d155f9911d1ae59800000000000000000000000029725fea0e3826b3c1b67599954108a4921697fd000000000000000000000000eaff2cfb01cd4c0b89c46817b7dc9368e857602a000000000000000000000000c3ffd33d56fdb24c8e1e9f6b27220ef906c851e9000000000000000000000000e61d3009a18918cfedd9ec51b48e0468a12003d50000000000000000000000002b9798745734e81c3060871045f8c7a3c8eb2cab000000000000000000000000250d3d4dd20b1817e52841b46cd4d48f6b4bceea0000000000000000000000008a0eebe9be754eb13d8cf93d1b728d78865577ea0000000000000000000000003934d981a66e4bfd0f82ef99c9f405767f1ccfbd000000000000000000000000deb6d1d8b199ce89c520100ba2be493ee45ba41c00000000000000000000000057ae483fcc306d8c71e771a4fbc14605bf8347bb00000000000000000000000015483bafb9e57c2778e456886617f86f6adda1c1000000000000000000000000911b291a67b62d4358199af36b94f4bbab43c2ee000000000000000000000000a3b1f5f8bd3150da92b32e853f474067f1e9fe02000000000000000000000000fdb3a148993974ed5156ec653477f7334d6058450000000000000000000000008cad29e294f0b7c2844462e8344e0629e2d5b108000000000000000000000000f59e927e4cf3d84acb808b3b8de6be7f2c67f215000000000000000000000000abbc5fa34fbc91b77c3306bedb94e25404dbeadc0000000000000000000000002d33caf07d0396b73635c232222b4105e2d60c610000000000000000000000008e926c278acf7d63d223f090e68bff402bfa568c000000000000000000000000c516baaa766112e551108e776357e9c8502376a9000000000000000000000000f514265cb9535b8dff64dc838f68a6ef64aa7cd8000000000000000000000000eead23e83ac9139ec420b1083467fa05ede5616e000000000000000000000000e6b5cfe8ad719a36d2b5f4d9b036bb8b8288532f000000000000000000000000af7e6463a5317acc76de24cdc32dd1896825e7680000000000000000000000006d987766d1c268694c88d243d0b7a34107a285770000000000000000000000006e0f6424e81e2fe0e783cfed34d552b01e92126200000000000000000000000034d8bad8b1e84287f9a99fd0162787c065f2422d000000000000000000000000c8dc1327ae81062aebb1e301042d9ab3394b414900000000000000000000000004efe7fd10cd546d30faf75475c1275b9d15dbc6000000000000000000000000483e3583854e9a16d3412ae3cc3102cdbf2a7d15000000000000000000000000893a246066bd976e44d6d00684dec07c52baa492000000000000000000000000a62c037582c28a51e5611303280f3e7352fee8ad00000000000000000000000093f96a75cd46af34121266756edb99878070701c000000000000000000000000d5d7540ccef6c99be67486ac2b8d317ffc6544ea0000000000000000000000006bb4c01cc2430875751a5dde0a466d987c0f13650000000000000000000000008d4908b7595f4645e0cfed46eabb25b5e5296ce500000000000000000000000088db47d58abe4a27619e59f211765ad53c8137140000000000000000000000003daee3e4bba14dc32265bebcee32be963ca27e04000000000000000000000000560ffe35ad1a41bdfd4f1a54ac43b6fe1ff30458000000000000000000000000f8719f51d7cc5738a7e1e0ed0974a60e708f67ea0000000000000000000000008dde2c811ebdc2f6cb4e6a02e547712cca1a85770000000000000000000000006f837c207925400f246bca336eb64e0ed21edcc2000000000000000000000000bf54d351e38da7d755359fabf89e8864fd0377cb000000000000000000000000548719fba49b4af6ea1fb5ab7e806a934e408f5e0000000000000000000000000b475e5f6ef7b2f840ff43d8d564205a1e5ed84a00000000000000000000000031b2dda4b9b16d092af34b684d6b0cb2eb5f3bb50000000000000000000000001c95ab93f8971cc774b27c39ee3561fa335bddee0000000000000000000000007534657adac296fcfbe16bd08af258e33bee017a000000000000000000000000e2d3c5c99994c16faf4e1fdf1fc23ca4cfc1ef42000000000000000000000000c8477ae5edd9dc7de588a46f47ee0c391e59b600000000000000000000000000000000000000000000000000000000000000003c00000000000000000000000000000000000000000000001c61b558b727bc000000000000000000000000000000000000000000000000001662ac445d1b2f0000000000000000000000000000000000000000000000000007985fe26f423dc000000000000000000000000000000000000000000000000005493214d5a6240000000000000000000000000000000000000000000000000002e257c44d79d260000000000000000000000000000000000000000000000000020eb4e219c11d6000000000000000000000000000000000000000000000000001d55251305aac5000000000000000000000000000000000000000000000000001885ce7a81fd980000000000000000000000000000000000000000000000000020d84e85ea32a600000000000000000000000000000000000000000000000000177aa3fdafa630000000000000000000000000000000000000000000000000000f13a85e73d2ab800000000000000000000000000000000000000000000000000e7a7b878234f0800000000000000000000000000000000000000000000000000e76eb9a55832f000000000000000000000000000000000000000000000000000de9ea830bb9fe800000000000000000000000000000000000000000000000000bb5e62609d5fa800000000000000000000000000000000000000000000000000bb5e62609d5fa8000000000000000000000000000000000000000000000000017306d85a3c309800000000000000000000000000000000000000000000000000a8d0c45da495e800000000000000000000000000000000000000000000000000e32a502f5dddf000000000000000000000000000000000000000000000000000942a716f6bdaf0000000000000000000000000000000000000000000000000013ce3764af47c7400000000000000000000000000000000000000000000000000bdbe55d48539f400000000000000000000000000000000000000000000000000869a7910e7223200000000000000000000000000000000000000000000000000968a64e353b538000000000000000000000000000000000000000000000000007c02710503434200000000000000000000000000000000000000000000000001041da226669e9c000000000000000000000000000000000000000000000000006f00f5b668bbec00000000000000000000000000000000000000000000000000694a13e4e08f9800000000000000000000000000000000000000000000000000659da74bc263ca000000000000000000000000000000000000000000000000005e368e650edff2000000000000000000000000000000000000000000000000005dbb10f15caa06000000000000000000000000000000000000000000000000008f0b8c7a843cfc000000000000000000000000000000000000000000000000005cc41609f83e2e000000000000000000000000000000000000000000000000005cc41609f83e2e000000000000000000000000000000000000000000000000005c4898960a6d78000000000000000000000000000000000000000000000000005561bd0a171e6a000000000000000000000000000000000000000000000000005528be37106788000000000000000000000000000000000000000000000000004a367807eddf96000000000000000000000000000000000000000000000000004a367807eddf960000000000000000000000000000000000000000000000000043a9da9f39398a0000000000000000000000000000000000000000000000000043629c177fbba200000000000000000000000000000000000000000000000000434adc94ec91aa0000000000000000000000000000000000000000000000000038a954bb63ea92000000000000000000000000000000000000000000000000003573a5af25909c00000000000000000000000000000000000000000000000000337a0cea6804080000000000000000000000000000000000000000000000000030de7de355bffc000000000000000000000000000000000000000000000000002f8884f1a4ac44000000000000000000000000000000000000000000000000002eb2c95a78328c000000000000000000000000000000000000000000000000002e9fc9beb76ca8000000000000000000000000000000000000000000000000002e620b04de51b2000000000000000000000000000000000000000000000000005ae45fefa692bc000000000000000000000000000000000000000000000000002bef17f447465a000000000000000000000000000000000000000000000000002bbf98ef20f26a000000000000000000000000000000000000000000000000002a2be1435b28f200000000000000000000000000000000000000000000000000277b2f78eb02a40000000000000000000000000000000000000000000000000026f632375869c60000000000000000000000000000000000000000000000000038375715567cce00000000000000000000000000000000000000000000000000251b3c03d9226600000000000000000000000000000000000000000000000000251b3c03d922660000000000000000000000000000000000000000000000000016438a68cd528e0000000000000000000000000000000000000000000000000000000000, 4000000, 210000, 21000, 1, 1000000000, 0x0000000000000000000000000000000000000000, 0x9f0e50da148e3c828fec5e619749f964ffe03adabcc8c2baa1afc3ef56a32f0d2d2820777c3381a443b9edf57ffc7597a4d54f777791db297476b11bf1fa29e11ceaffcea395fa735b29468831a0b1be712dba55abba4964a0e7a898f607756a063ca8dbec1df7ac8283e16e1bf529a1b03eaf422ea32a7a6267c037c823b461f01b)]",
        "0x660ad4B5A74130a4796B4d54BC6750Ae93C86e6c"
      ],
      "transaction": {
        "from": "0x660ad4b5a74130a4796b4d54bc6750ae93c86e6c",
        "to": "0x2843c269d2a64ecfa63548e8b3fc0fd23b7f70cb",
        "value": "0x0",
        "input": "0x1fad948c0000000000000000000000000000000000000000000000000000000000000040000000000000000000000000660ad4b5a74130a4796b4d54bc6750ae93c86e6c000000000000000000000000000000000000000000000000000000000000000100000000000000000000000000000000000000000000000000000000000000200000000000000000000000002e2b1c42e38f5af81771e65d87729e57abd1337a00000000000000000000000000000000000000000000000000000000000014330000000000000000000000000000000000000000000000000000000000000160000000000000000000000000000000000000000000000000000000000000018000000000000000000000000000000000000000000000000000000000003d0900000000000000000000000000000000000000000000000000000000000003345000000000000000000000000000000000000000000000000000000000000052080000000000000000000000000000000000000000000000000000000000000001000000000000000000000000000000000000000000000000000000003b9aca0000000000000000000000000000000000000000000000000000000000000011e0000000000000000000000000000000000000000000000000000000000000122000000000000000000000000000000000000000000000000000000000000000000000000000000000000000000000000000000000000000000000000000001024b61d27f6000000000000000000000000010700808d59d2bb92257fcafacfe8e5bff7ab87000000000000000000000000000000000000000000000000000000000000000000000000000000000000000000000000000000000000000000000000000000600000000000000000000000000000000000000000000000000000000000000f8468573107000000000000000000000000000000000000000000000000000000000000004000000000000000000000000000000000000000000000000000000000000007e0000000000000000000000000000000000000000000000000000000000000003c0000000000000000000000007e6071bb0e16b1fb28e1957b861b26117e56cc3f000000000000000000000000694ad53083de3142dd790da2fd66adc5aad9ecf7000000000000000000000000c2f77a505545798ed01c9304fa5a0abd4799f24a0000000000000000000000004df40270546514a7bb21f4c4ec269b3c549ac9a60000000000000000000000000a6d6a9f95e68f0ab78eb081b5b21760ccc673560000000000000000000000001d66b926a66594ad8cd613da6af5cc1c3c5863af000000000000000000000000fd9f3a0eac7f06ddd8f579b9cffdf6def86da3a90000000000000000000000009ba6a569eb6c92dfe30f90c0ff8ebd13ff316848000000000000000000000000864990eec44952ac4245614f448adbce2bdb5028000000000000000000000000d014ba010a8abbf75142de92d155f9911d1ae59800000000000000000000000029725fea0e3826b3c1b67599954108a4921697fd000000000000000000000000eaff2cfb01cd4c0b89c46817b7dc9368e857602a000000000000000000000000c3ffd33d56fdb24c8e1e9f6b27220ef906c851e9000000000000000000000000e61d3009a18918cfedd9ec51b48e0468a12003d50000000000000000000000002b9798745734e81c3060871045f8c7a3c8eb2cab000000000000000000000000250d3d4dd20b1817e52841b46cd4d48f6b4bceea0000000000000000000000008a0eebe9be754eb13d8cf93d1b728d78865577ea0000000000000000000000003934d981a66e4bfd0f82ef99c9f405767f1ccfbd000000000000000000000000deb6d1d8b199ce89c520100ba2be493ee45ba41c00000000000000000000000057ae483fcc306d8c71e771a4fbc14605bf8347bb00000000000000000000000015483bafb9e57c2778e456886617f86f6adda1c1000000000000000000000000911b291a67b62d4358199af36b94f4bbab43c2ee000000000000000000000000a3b1f5f8bd3150da92b32e853f474067f1e9fe02000000000000000000000000fdb3a148993974ed5156ec653477f7334d6058450000000000000000000000008cad29e294f0b7c2844462e8344e0629e2d5b108000000000000000000000000f59e927e4cf3d84acb808b3b8de6be7f2c67f215000000000000000000000000abbc5fa34fbc91b77c3306bedb94e25404dbeadc0000000000000000000000002d33caf07d0396b73635c232222b4105e2d60c610000000000000000000000008e926c278acf7d63d223f090e68bff402bfa568c000000000000000000000000c516baaa766112e551108e776357e9c8502376a9000000000000000000000000f514265cb9535b8dff64dc838f68a6ef64aa7cd8000000000000000000000000eead23e83ac9139ec420b1083467fa05ede5616e000000000000000000000000e6b5cfe8ad719a36d2b5f4d9b036bb8b8288532f000000000000000000000000af7e6463a5317acc76de24cdc32dd1896825e7680000000000000000000000006d987766d1c268694c88d243d0b7a34107a285770000000000000000000000006e0f6424e81e2fe0e783cfed34d552b01e92126200000000000000000000000034d8bad8b1e84287f9a99fd0162787c065f2422d000000000000000000000000c8dc1327ae81062aebb1e301042d9ab3394b414900000000000000000000000004efe7fd10cd546d30faf75475c1275b9d15dbc6000000000000000000000000483e3583854e9a16d3412ae3cc3102cdbf2a7d15000000000000000000000000893a246066bd976e44d6d00684dec07c52baa492000000000000000000000000a62c037582c28a51e5611303280f3e7352fee8ad00000000000000000000000093f96a75cd46af34121266756edb99878070701c000000000000000000000000d5d7540ccef6c99be67486ac2b8d317ffc6544ea0000000000000000000000006bb4c01cc2430875751a5dde0a466d987c0f13650000000000000000000000008d4908b7595f4645e0cfed46eabb25b5e5296ce500000000000000000000000088db47d58abe4a27619e59f211765ad53c8137140000000000000000000000003daee3e4bba14dc32265bebcee32be963ca27e04000000000000000000000000560ffe35ad1a41bdfd4f1a54ac43b6fe1ff30458000000000000000000000000f8719f51d7cc5738a7e1e0ed0974a60e708f67ea0000000000000000000000008dde2c811ebdc2f6cb4e6a02e547712cca1a85770000000000000000000000006f837c207925400f246bca336eb64e0ed21edcc2000000000000000000000000bf54d351e38da7d755359fabf89e8864fd0377cb000000000000000000000000548719fba49b4af6ea1fb5ab7e806a934e408f5e0000000000000000000000000b475e5f6ef7b2f840ff43d8d564205a1e5ed84a00000000000000000000000031b2dda4b9b16d092af34b684d6b0cb2eb5f3bb50000000000000000000000001c95ab93f8971cc774b27c39ee3561fa335bddee0000000000000000000000007534657adac296fcfbe16bd08af258e33bee017a000000000000000000000000e2d3c5c99994c16faf4e1fdf1fc23ca4cfc1ef42000000000000000000000000c8477ae5edd9dc7de588a46f47ee0c391e59b600000000000000000000000000000000000000000000000000000000000000003c00000000000000000000000000000000000000000000001c61b558b727bc000000000000000000000000000000000000000000000000001662ac445d1b2f0000000000000000000000000000000000000000000000000007985fe26f423dc000000000000000000000000000000000000000000000000005493214d5a6240000000000000000000000000000000000000000000000000002e257c44d79d260000000000000000000000000000000000000000000000000020eb4e219c11d6000000000000000000000000000000000000000000000000001d55251305aac5000000000000000000000000000000000000000000000000001885ce7a81fd980000000000000000000000000000000000000000000000000020d84e85ea32a600000000000000000000000000000000000000000000000000177aa3fdafa630000000000000000000000000000000000000000000000000000f13a85e73d2ab800000000000000000000000000000000000000000000000000e7a7b878234f0800000000000000000000000000000000000000000000000000e76eb9a55832f000000000000000000000000000000000000000000000000000de9ea830bb9fe800000000000000000000000000000000000000000000000000bb5e62609d5fa800000000000000000000000000000000000000000000000000bb5e62609d5fa8000000000000000000000000000000000000000000000000017306d85a3c309800000000000000000000000000000000000000000000000000a8d0c45da495e800000000000000000000000000000000000000000000000000e32a502f5dddf000000000000000000000000000000000000000000000000000942a716f6bdaf0000000000000000000000000000000000000000000000000013ce3764af47c7400000000000000000000000000000000000000000000000000bdbe55d48539f400000000000000000000000000000000000000000000000000869a7910e7223200000000000000000000000000000000000000000000000000968a64e353b538000000000000000000000000000000000000000000000000007c02710503434200000000000000000000000000000000000000000000000001041da226669e9c000000000000000000000000000000000000000000000000006f00f5b668bbec00000000000000000000000000000000000000000000000000694a13e4e08f9800000000000000000000000000000000000000000000000000659da74bc263ca000000000000000000000000000000000000000000000000005e368e650edff2000000000000000000000000000000000000000000000000005dbb10f15caa06000000000000000000000000000000000000000000000000008f0b8c7a843cfc000000000000000000000000000000000000000000000000005cc41609f83e2e000000000000000000000000000000000000000000000000005cc41609f83e2e000000000000000000000000000000000000000000000000005c4898960a6d78000000000000000000000000000000000000000000000000005561bd0a171e6a000000000000000000000000000000000000000000000000005528be37106788000000000000000000000000000000000000000000000000004a367807eddf96000000000000000000000000000000000000000000000000004a367807eddf960000000000000000000000000000000000000000000000000043a9da9f39398a0000000000000000000000000000000000000000000000000043629c177fbba200000000000000000000000000000000000000000000000000434adc94ec91aa0000000000000000000000000000000000000000000000000038a954bb63ea92000000000000000000000000000000000000000000000000003573a5af25909c00000000000000000000000000000000000000000000000000337a0cea6804080000000000000000000000000000000000000000000000000030de7de355bffc000000000000000000000000000000000000000000000000002f8884f1a4ac44000000000000000000000000000000000000000000000000002eb2c95a78328c000000000000000000000000000000000000000000000000002e9fc9beb76ca8000000000000000000000000000000000000000000000000002e620b04de51b2000000000000000000000000000000000000000000000000005ae45fefa692bc000000000000000000000000000000000000000000000000002bef17f447465a000000000000000000000000000000000000000000000000002bbf98ef20f26a000000000000000000000000000000000000000000000000002a2be1435b28f200000000000000000000000000000000000000000000000000277b2f78eb02a40000000000000000000000000000000000000000000000000026f632375869c60000000000000000000000000000000000000000000000000038375715567cce00000000000000000000000000000000000000000000000000251b3c03d9226600000000000000000000000000000000000000000000000000251b3c03d922660000000000000000000000000000000000000000000000000016438a68cd528e0000000000000000000000000000000000000000000000000000000000000000000000000000000000000000000000000000000000000000000000000000000000000000000000000000000000000000000000000000000014000000000000000000000000000000000000000000000000000000000000000000000000000000000000000000000000000000000000000000000000000000829f0e50da148e3c828fec5e619749f964ffe03adabcc8c2baa1afc3ef56a32f0d2d2820777c3381a443b9edf57ffc7597a4d54f777791db297476b11bf1fa29e11ceaffcea395fa735b29468831a0b1be712dba55abba4964a0e7a898f607756a063ca8dbec1df7ac8283e16e1bf529a1b03eaf422ea32a7a6267c037c823b461f01b000000000000000000000000000000000000000000000000000000000000",
        "nonce": "0x4c021",
        "chainId": "0x1ecf"
      },
      "additionalContracts": [],
      "isFixedGasLimit": false
    }
  ],
  "receipts": [
    {
      "status": "0x1",
      "cumulativeGasUsed": "0x9ca11",
      "logs": [
        {
          "address": "0x2843c269d2a64ecfa63548e8b3fc0fd23b7f70cb",
          "topics": [
            "0xbb47ee3e183a558b1a2ff0874b079f3fc5478b7454eacf2bfc5af2ff5878f972"
          ],
          "data": "0x",
          "blockHash": "0xf2f654e810e65c5b26abb3899d54e9584aad475272477a07fb83bd64607f351b",
          "blockNumber": "0xdca18",
          "transactionHash": "0x4b5453c6d053e6f4ee2fa4a443a059d57212009a906d88fcf4487187f69d1e6d",
          "transactionIndex": "0x1",
          "logIndex": "0x0",
          "removed": false
        },
        {
          "address": "0x010700808d59d2bb92257fcafacfe8e5bff7ab87",
          "topics": [
            "0xddf252ad1be2c89b69c2b068fc378daa952ba7f163c4a11628f55a4df523b3ef",
            "0x000000000000000000000000d157904639e89df05e89e0dabeec99ae3d74f9aa",
            "0x0000000000000000000000000000000000000000000000000000000000000000"
          ],
          "data": "0x000000000000000000000000000000000000000000000061b437d1f213020230",
          "blockHash": "0xf2f654e810e65c5b26abb3899d54e9584aad475272477a07fb83bd64607f351b",
          "blockNumber": "0xdca18",
          "transactionHash": "0x4b5453c6d053e6f4ee2fa4a443a059d57212009a906d88fcf4487187f69d1e6d",
          "transactionIndex": "0x1",
          "logIndex": "0x1",
          "removed": false
        },
        {
          "address": "0x2843c269d2a64ecfa63548e8b3fc0fd23b7f70cb",
          "topics": [
            "0x49628fd1471006c1482da88028e9ce4dbb080b815c9b0344d39e5a8e6ec1419f",
            "0xbd126c035e15aef51dd3c9c9d2a5461d7822ce03709b2bfb58ee5ef71f73bb65",
            "0x0000000000000000000000002e2b1c42e38f5af81771e65d87729e57abd1337a",
            "0x0000000000000000000000000000000000000000000000000000000000000000"
          ],
          "data": "0x00000000000000000000000000000000000000000000000000000000000014320000000000000000000000000000000000000000000000000000000000000001000000000000000000000000000000000000000000000000000000000008cfd1000000000000000000000000000000000000000000000000000000000008cfd1",
          "blockHash": "0xf2f654e810e65c5b26abb3899d54e9584aad475272477a07fb83bd64607f351b",
          "blockNumber": "0xdca18",
          "transactionHash": "0x4b5453c6d053e6f4ee2fa4a443a059d57212009a906d88fcf4487187f69d1e6d",
          "transactionIndex": "0x1",
          "logIndex": "0x2",
          "removed": false
        }
      ],
      "logsBloom": "0x00002000000400000000000000000000000000000000000000000000000001000008000000000000000000010000000000000000000000000000020000000000000000000000000000000008000000000000000000000000040000000000000800000000020000000000000000000800002000000000000000000010000000000000000000000000000000000000800000000000000000000000000000000000001400000000000000400000000000000000000000000000000002000000000000000002000000100001000000000000000000000000000000200000000020000000000000010000000000400000800000000000000000000000000000000800",
      "type": "0x2",
      "transactionHash": "0x4b5453c6d053e6f4ee2fa4a443a059d57212009a906d88fcf4487187f69d1e6d",
      "transactionIndex": "0x1",
      "blockHash": "0xf2f654e810e65c5b26abb3899d54e9584aad475272477a07fb83bd64607f351b",
      "blockNumber": "0xdca18",
      "gasUsed": "0x9ca11",
      "effectiveGasPrice": "0x5f5e100",
      "from": "0x660ad4b5a74130a4796b4d54bc6750ae93c86e6c",
      "to": "0x2843c269d2a64ecfa63548e8b3fc0fd23b7f70cb",
      "contractAddress": null,
      "gasUsedForL1": "0x68ea8",
      "l1BlockNumber": "0x15e96d4"
    },
    {
      "status": "0x1",
      "cumulativeGasUsed": "0x43243b",
      "logs": [
        {
          "address": "0x2843c269d2a64ecfa63548e8b3fc0fd23b7f70cb",
          "topics": [
            "0xbb47ee3e183a558b1a2ff0874b079f3fc5478b7454eacf2bfc5af2ff5878f972"
          ],
          "data": "0x",
          "blockHash": "0xc4613ea9de7682d05b946cd1c7f98b7d6d629d184d0d5b53735eff868d24e396",
          "blockNumber": "0xdca19",
          "transactionHash": "0xc003453718d37146857c224fd30b89c8a4194f58ada95acc1372ebd0e0e4d671",
          "transactionIndex": "0x1",
          "logIndex": "0x0",
          "removed": false
        },
        {
          "address": "0x010700808d59d2bb92257fcafacfe8e5bff7ab87",
          "topics": [
            "0xddf252ad1be2c89b69c2b068fc378daa952ba7f163c4a11628f55a4df523b3ef",
            "0x0000000000000000000000000000000000000000000000000000000000000000",
            "0x0000000000000000000000007e6071bb0e16b1fb28e1957b861b26117e56cc3f"
          ],
          "data": "0x00000000000000000000000000000000000000000000001c61b558b727bc0000",
          "blockHash": "0xc4613ea9de7682d05b946cd1c7f98b7d6d629d184d0d5b53735eff868d24e396",
          "blockNumber": "0xdca19",
          "transactionHash": "0xc003453718d37146857c224fd30b89c8a4194f58ada95acc1372ebd0e0e4d671",
          "transactionIndex": "0x1",
          "logIndex": "0x1",
          "removed": false
        },
        {
          "address": "0x010700808d59d2bb92257fcafacfe8e5bff7ab87",
          "topics": [
            "0xddf252ad1be2c89b69c2b068fc378daa952ba7f163c4a11628f55a4df523b3ef",
            "0x0000000000000000000000000000000000000000000000000000000000000000",
            "0x000000000000000000000000694ad53083de3142dd790da2fd66adc5aad9ecf7"
          ],
          "data": "0x00000000000000000000000000000000000000000000001662ac445d1b2f0000",
          "blockHash": "0xc4613ea9de7682d05b946cd1c7f98b7d6d629d184d0d5b53735eff868d24e396",
          "blockNumber": "0xdca19",
          "transactionHash": "0xc003453718d37146857c224fd30b89c8a4194f58ada95acc1372ebd0e0e4d671",
          "transactionIndex": "0x1",
          "logIndex": "0x2",
          "removed": false
        },
        {
          "address": "0x010700808d59d2bb92257fcafacfe8e5bff7ab87",
          "topics": [
            "0xddf252ad1be2c89b69c2b068fc378daa952ba7f163c4a11628f55a4df523b3ef",
            "0x0000000000000000000000000000000000000000000000000000000000000000",
            "0x000000000000000000000000c2f77a505545798ed01c9304fa5a0abd4799f24a"
          ],
          "data": "0x000000000000000000000000000000000000000000000007985fe26f423dc000",
          "blockHash": "0xc4613ea9de7682d05b946cd1c7f98b7d6d629d184d0d5b53735eff868d24e396",
          "blockNumber": "0xdca19",
          "transactionHash": "0xc003453718d37146857c224fd30b89c8a4194f58ada95acc1372ebd0e0e4d671",
          "transactionIndex": "0x1",
          "logIndex": "0x3",
          "removed": false
        },
        {
          "address": "0x010700808d59d2bb92257fcafacfe8e5bff7ab87",
          "topics": [
            "0xdec2bacdd2f05b59de34da9b523dff8be42e5e38e818c82fdb0bae774387a724",
            "0x000000000000000000000000c2f77a505545798ed01c9304fa5a0abd4799f24a"
          ],
          "data": "0x00000000000000000000000000000000000000000000000dcd3537bd01fc13f600000000000000000000000000000000000000000000001565951a2c4439d3f6",
          "blockHash": "0xc4613ea9de7682d05b946cd1c7f98b7d6d629d184d0d5b53735eff868d24e396",
          "blockNumber": "0xdca19",
          "transactionHash": "0xc003453718d37146857c224fd30b89c8a4194f58ada95acc1372ebd0e0e4d671",
          "transactionIndex": "0x1",
          "logIndex": "0x4",
          "removed": false
        },
        {
          "address": "0x010700808d59d2bb92257fcafacfe8e5bff7ab87",
          "topics": [
            "0xddf252ad1be2c89b69c2b068fc378daa952ba7f163c4a11628f55a4df523b3ef",
            "0x0000000000000000000000000000000000000000000000000000000000000000",
            "0x0000000000000000000000004df40270546514a7bb21f4c4ec269b3c549ac9a6"
          ],
          "data": "0x000000000000000000000000000000000000000000000005493214d5a6240000",
          "blockHash": "0xc4613ea9de7682d05b946cd1c7f98b7d6d629d184d0d5b53735eff868d24e396",
          "blockNumber": "0xdca19",
          "transactionHash": "0xc003453718d37146857c224fd30b89c8a4194f58ada95acc1372ebd0e0e4d671",
          "transactionIndex": "0x1",
          "logIndex": "0x5",
          "removed": false
        },
        {
          "address": "0x010700808d59d2bb92257fcafacfe8e5bff7ab87",
          "topics": [
            "0xddf252ad1be2c89b69c2b068fc378daa952ba7f163c4a11628f55a4df523b3ef",
            "0x0000000000000000000000000000000000000000000000000000000000000000",
            "0x0000000000000000000000000a6d6a9f95e68f0ab78eb081b5b21760ccc67356"
          ],
          "data": "0x000000000000000000000000000000000000000000000002e257c44d79d26000",
          "blockHash": "0xc4613ea9de7682d05b946cd1c7f98b7d6d629d184d0d5b53735eff868d24e396",
          "blockNumber": "0xdca19",
          "transactionHash": "0xc003453718d37146857c224fd30b89c8a4194f58ada95acc1372ebd0e0e4d671",
          "transactionIndex": "0x1",
          "logIndex": "0x6",
          "removed": false
        },
        {
          "address": "0x010700808d59d2bb92257fcafacfe8e5bff7ab87",
          "topics": [
            "0xdec2bacdd2f05b59de34da9b523dff8be42e5e38e818c82fdb0bae774387a724",
            "0x0000000000000000000000000a6d6a9f95e68f0ab78eb081b5b21760ccc67356"
          ],
          "data": "0x0000000000000000000000000000000000000000000000012f5db97ce98a126200000000000000000000000000000000000000000000000411b57dca635c7262",
          "blockHash": "0xc4613ea9de7682d05b946cd1c7f98b7d6d629d184d0d5b53735eff868d24e396",
          "blockNumber": "0xdca19",
          "transactionHash": "0xc003453718d37146857c224fd30b89c8a4194f58ada95acc1372ebd0e0e4d671",
          "transactionIndex": "0x1",
          "logIndex": "0x7",
          "removed": false
        },
        {
          "address": "0x010700808d59d2bb92257fcafacfe8e5bff7ab87",
          "topics": [
            "0xddf252ad1be2c89b69c2b068fc378daa952ba7f163c4a11628f55a4df523b3ef",
            "0x0000000000000000000000000000000000000000000000000000000000000000",
            "0x0000000000000000000000001d66b926a66594ad8cd613da6af5cc1c3c5863af"
          ],
          "data": "0x0000000000000000000000000000000000000000000000020eb4e219c11d6000",
          "blockHash": "0xc4613ea9de7682d05b946cd1c7f98b7d6d629d184d0d5b53735eff868d24e396",
          "blockNumber": "0xdca19",
          "transactionHash": "0xc003453718d37146857c224fd30b89c8a4194f58ada95acc1372ebd0e0e4d671",
          "transactionIndex": "0x1",
          "logIndex": "0x8",
          "removed": false
        },
        {
          "address": "0x010700808d59d2bb92257fcafacfe8e5bff7ab87",
          "topics": [
            "0xdec2bacdd2f05b59de34da9b523dff8be42e5e38e818c82fdb0bae774387a724",
            "0x0000000000000000000000001d66b926a66594ad8cd613da6af5cc1c3c5863af"
          ],
          "data": "0x0000000000000000000000000000000000000000000000002040449669696fa30000000000000000000000000000000000000000000000022ef526b02a86cfa3",
          "blockHash": "0xc4613ea9de7682d05b946cd1c7f98b7d6d629d184d0d5b53735eff868d24e396",
          "blockNumber": "0xdca19",
          "transactionHash": "0xc003453718d37146857c224fd30b89c8a4194f58ada95acc1372ebd0e0e4d671",
          "transactionIndex": "0x1",
          "logIndex": "0x9",
          "removed": false
        },
        {
          "address": "0x010700808d59d2bb92257fcafacfe8e5bff7ab87",
          "topics": [
            "0xddf252ad1be2c89b69c2b068fc378daa952ba7f163c4a11628f55a4df523b3ef",
            "0x0000000000000000000000000000000000000000000000000000000000000000",
            "0x000000000000000000000000fd9f3a0eac7f06ddd8f579b9cffdf6def86da3a9"
          ],
          "data": "0x000000000000000000000000000000000000000000000001d55251305aac5000",
          "blockHash": "0xc4613ea9de7682d05b946cd1c7f98b7d6d629d184d0d5b53735eff868d24e396",
          "blockNumber": "0xdca19",
          "transactionHash": "0xc003453718d37146857c224fd30b89c8a4194f58ada95acc1372ebd0e0e4d671",
          "transactionIndex": "0x1",
          "logIndex": "0xa",
          "removed": false
        },
        {
          "address": "0x010700808d59d2bb92257fcafacfe8e5bff7ab87",
          "topics": [
            "0xdec2bacdd2f05b59de34da9b523dff8be42e5e38e818c82fdb0bae774387a724",
            "0x000000000000000000000000fd9f3a0eac7f06ddd8f579b9cffdf6def86da3a9"
          ],
          "data": "0x000000000000000000000000000000000000000000000000ccb0bfd2a1c8f3a9000000000000000000000000000000000000000000000002a2031102fc7543a9",
          "blockHash": "0xc4613ea9de7682d05b946cd1c7f98b7d6d629d184d0d5b53735eff868d24e396",
          "blockNumber": "0xdca19",
          "transactionHash": "0xc003453718d37146857c224fd30b89c8a4194f58ada95acc1372ebd0e0e4d671",
          "transactionIndex": "0x1",
          "logIndex": "0xb",
          "removed": false
        },
        {
          "address": "0x010700808d59d2bb92257fcafacfe8e5bff7ab87",
          "topics": [
            "0xddf252ad1be2c89b69c2b068fc378daa952ba7f163c4a11628f55a4df523b3ef",
            "0x0000000000000000000000000000000000000000000000000000000000000000",
            "0x0000000000000000000000009ba6a569eb6c92dfe30f90c0ff8ebd13ff316848"
          ],
          "data": "0x000000000000000000000000000000000000000000000001885ce7a81fd98000",
          "blockHash": "0xc4613ea9de7682d05b946cd1c7f98b7d6d629d184d0d5b53735eff868d24e396",
          "blockNumber": "0xdca19",
          "transactionHash": "0xc003453718d37146857c224fd30b89c8a4194f58ada95acc1372ebd0e0e4d671",
          "transactionIndex": "0x1",
          "logIndex": "0xc",
          "removed": false
        },
        {
          "address": "0x010700808d59d2bb92257fcafacfe8e5bff7ab87",
          "topics": [
            "0xdec2bacdd2f05b59de34da9b523dff8be42e5e38e818c82fdb0bae774387a724",
            "0x0000000000000000000000009ba6a569eb6c92dfe30f90c0ff8ebd13ff316848"
          ],
          "data": "0x000000000000000000000000000000000000000000000000172f649f8948b3880000000000000000000000000000000000000000000000019f8c4c47a9223388",
          "blockHash": "0xc4613ea9de7682d05b946cd1c7f98b7d6d629d184d0d5b53735eff868d24e396",
          "blockNumber": "0xdca19",
          "transactionHash": "0xc003453718d37146857c224fd30b89c8a4194f58ada95acc1372ebd0e0e4d671",
          "transactionIndex": "0x1",
          "logIndex": "0xd",
          "removed": false
        },
        {
          "address": "0x010700808d59d2bb92257fcafacfe8e5bff7ab87",
          "topics": [
            "0xddf252ad1be2c89b69c2b068fc378daa952ba7f163c4a11628f55a4df523b3ef",
            "0x0000000000000000000000000000000000000000000000000000000000000000",
            "0x000000000000000000000000864990eec44952ac4245614f448adbce2bdb5028"
          ],
          "data": "0x0000000000000000000000000000000000000000000000020d84e85ea32a6000",
          "blockHash": "0xc4613ea9de7682d05b946cd1c7f98b7d6d629d184d0d5b53735eff868d24e396",
          "blockNumber": "0xdca19",
          "transactionHash": "0xc003453718d37146857c224fd30b89c8a4194f58ada95acc1372ebd0e0e4d671",
          "transactionIndex": "0x1",
          "logIndex": "0xe",
          "removed": false
        },
        {
          "address": "0x010700808d59d2bb92257fcafacfe8e5bff7ab87",
          "topics": [
            "0xdec2bacdd2f05b59de34da9b523dff8be42e5e38e818c82fdb0bae774387a724",
            "0x000000000000000000000000864990eec44952ac4245614f448adbce2bdb5028"
          ],
          "data": "0x00000000000000000000000000000000000000000000000000000000000717e80000000000000000000000000000000000000000000000020d84e85ea33177e8",
          "blockHash": "0xc4613ea9de7682d05b946cd1c7f98b7d6d629d184d0d5b53735eff868d24e396",
          "blockNumber": "0xdca19",
          "transactionHash": "0xc003453718d37146857c224fd30b89c8a4194f58ada95acc1372ebd0e0e4d671",
          "transactionIndex": "0x1",
          "logIndex": "0xf",
          "removed": false
        },
        {
          "address": "0x010700808d59d2bb92257fcafacfe8e5bff7ab87",
          "topics": [
            "0xddf252ad1be2c89b69c2b068fc378daa952ba7f163c4a11628f55a4df523b3ef",
            "0x0000000000000000000000000000000000000000000000000000000000000000",
            "0x000000000000000000000000d014ba010a8abbf75142de92d155f9911d1ae598"
          ],
          "data": "0x00000000000000000000000000000000000000000000000177aa3fdafa630000",
          "blockHash": "0xc4613ea9de7682d05b946cd1c7f98b7d6d629d184d0d5b53735eff868d24e396",
          "blockNumber": "0xdca19",
          "transactionHash": "0xc003453718d37146857c224fd30b89c8a4194f58ada95acc1372ebd0e0e4d671",
          "transactionIndex": "0x1",
          "logIndex": "0x10",
          "removed": false
        },
        {
          "address": "0x010700808d59d2bb92257fcafacfe8e5bff7ab87",
          "topics": [
            "0xdec2bacdd2f05b59de34da9b523dff8be42e5e38e818c82fdb0bae774387a724",
            "0x000000000000000000000000d014ba010a8abbf75142de92d155f9911d1ae598"
          ],
          "data": "0x0000000000000000000000000000000000000000000000005eaac353d7b5ed57000000000000000000000000000000000000000000000001d655032ed218ed57",
          "blockHash": "0xc4613ea9de7682d05b946cd1c7f98b7d6d629d184d0d5b53735eff868d24e396",
          "blockNumber": "0xdca19",
          "transactionHash": "0xc003453718d37146857c224fd30b89c8a4194f58ada95acc1372ebd0e0e4d671",
          "transactionIndex": "0x1",
          "logIndex": "0x11",
          "removed": false
        },
        {
          "address": "0x010700808d59d2bb92257fcafacfe8e5bff7ab87",
          "topics": [
            "0xddf252ad1be2c89b69c2b068fc378daa952ba7f163c4a11628f55a4df523b3ef",
            "0x0000000000000000000000000000000000000000000000000000000000000000",
            "0x00000000000000000000000029725fea0e3826b3c1b67599954108a4921697fd"
          ],
          "data": "0x000000000000000000000000000000000000000000000000f13a85e73d2ab800",
          "blockHash": "0xc4613ea9de7682d05b946cd1c7f98b7d6d629d184d0d5b53735eff868d24e396",
          "blockNumber": "0xdca19",
          "transactionHash": "0xc003453718d37146857c224fd30b89c8a4194f58ada95acc1372ebd0e0e4d671",
          "transactionIndex": "0x1",
          "logIndex": "0x12",
          "removed": false
        },
        {
          "address": "0x010700808d59d2bb92257fcafacfe8e5bff7ab87",
          "topics": [
            "0xdec2bacdd2f05b59de34da9b523dff8be42e5e38e818c82fdb0bae774387a724",
            "0x00000000000000000000000029725fea0e3826b3c1b67599954108a4921697fd"
          ],
          "data": "0x000000000000000000000000000000000000000000000000023315cb87670c76000000000000000000000000000000000000000000000000f36d9bb2c491c476",
          "blockHash": "0xc4613ea9de7682d05b946cd1c7f98b7d6d629d184d0d5b53735eff868d24e396",
          "blockNumber": "0xdca19",
          "transactionHash": "0xc003453718d37146857c224fd30b89c8a4194f58ada95acc1372ebd0e0e4d671",
          "transactionIndex": "0x1",
          "logIndex": "0x13",
          "removed": false
        },
        {
          "address": "0x010700808d59d2bb92257fcafacfe8e5bff7ab87",
          "topics": [
            "0xddf252ad1be2c89b69c2b068fc378daa952ba7f163c4a11628f55a4df523b3ef",
            "0x0000000000000000000000000000000000000000000000000000000000000000",
            "0x000000000000000000000000eaff2cfb01cd4c0b89c46817b7dc9368e857602a"
          ],
          "data": "0x000000000000000000000000000000000000000000000000e7a7b878234f0800",
          "blockHash": "0xc4613ea9de7682d05b946cd1c7f98b7d6d629d184d0d5b53735eff868d24e396",
          "blockNumber": "0xdca19",
          "transactionHash": "0xc003453718d37146857c224fd30b89c8a4194f58ada95acc1372ebd0e0e4d671",
          "transactionIndex": "0x1",
          "logIndex": "0x14",
          "removed": false
        },
        {
          "address": "0x010700808d59d2bb92257fcafacfe8e5bff7ab87",
          "topics": [
            "0xdec2bacdd2f05b59de34da9b523dff8be42e5e38e818c82fdb0bae774387a724",
            "0x000000000000000000000000eaff2cfb01cd4c0b89c46817b7dc9368e857602a"
          ],
          "data": "0x000000000000000000000000000000000000000000000000038001405bbc6691000000000000000000000000000000000000000000000000eb27b9b87f0b6e91",
          "blockHash": "0xc4613ea9de7682d05b946cd1c7f98b7d6d629d184d0d5b53735eff868d24e396",
          "blockNumber": "0xdca19",
          "transactionHash": "0xc003453718d37146857c224fd30b89c8a4194f58ada95acc1372ebd0e0e4d671",
          "transactionIndex": "0x1",
          "logIndex": "0x15",
          "removed": false
        },
        {
          "address": "0x010700808d59d2bb92257fcafacfe8e5bff7ab87",
          "topics": [
            "0xddf252ad1be2c89b69c2b068fc378daa952ba7f163c4a11628f55a4df523b3ef",
            "0x0000000000000000000000000000000000000000000000000000000000000000",
            "0x000000000000000000000000c3ffd33d56fdb24c8e1e9f6b27220ef906c851e9"
          ],
          "data": "0x000000000000000000000000000000000000000000000000e76eb9a55832f000",
          "blockHash": "0xc4613ea9de7682d05b946cd1c7f98b7d6d629d184d0d5b53735eff868d24e396",
          "blockNumber": "0xdca19",
          "transactionHash": "0xc003453718d37146857c224fd30b89c8a4194f58ada95acc1372ebd0e0e4d671",
          "transactionIndex": "0x1",
          "logIndex": "0x16",
          "removed": false
        },
        {
          "address": "0x010700808d59d2bb92257fcafacfe8e5bff7ab87",
          "topics": [
            "0xdec2bacdd2f05b59de34da9b523dff8be42e5e38e818c82fdb0bae774387a724",
            "0x000000000000000000000000c3ffd33d56fdb24c8e1e9f6b27220ef906c851e9"
          ],
          "data": "0x00000000000000000000000000000000000000000000000000004da49cc45aaa000000000000000000000000000000000000000000000000e76f0749f4f74aaa",
          "blockHash": "0xc4613ea9de7682d05b946cd1c7f98b7d6d629d184d0d5b53735eff868d24e396",
          "blockNumber": "0xdca19",
          "transactionHash": "0xc003453718d37146857c224fd30b89c8a4194f58ada95acc1372ebd0e0e4d671",
          "transactionIndex": "0x1",
          "logIndex": "0x17",
          "removed": false
        },
        {
          "address": "0x010700808d59d2bb92257fcafacfe8e5bff7ab87",
          "topics": [
            "0xddf252ad1be2c89b69c2b068fc378daa952ba7f163c4a11628f55a4df523b3ef",
            "0x0000000000000000000000000000000000000000000000000000000000000000",
            "0x000000000000000000000000e61d3009a18918cfedd9ec51b48e0468a12003d5"
          ],
          "data": "0x000000000000000000000000000000000000000000000000de9ea830bb9fe800",
          "blockHash": "0xc4613ea9de7682d05b946cd1c7f98b7d6d629d184d0d5b53735eff868d24e396",
          "blockNumber": "0xdca19",
          "transactionHash": "0xc003453718d37146857c224fd30b89c8a4194f58ada95acc1372ebd0e0e4d671",
          "transactionIndex": "0x1",
          "logIndex": "0x18",
          "removed": false
        },
        {
          "address": "0x010700808d59d2bb92257fcafacfe8e5bff7ab87",
          "topics": [
            "0xdec2bacdd2f05b59de34da9b523dff8be42e5e38e818c82fdb0bae774387a724",
            "0x000000000000000000000000e61d3009a18918cfedd9ec51b48e0468a12003d5"
          ],
          "data": "0x0000000000000000000000000000000000000000000000002ddd6cfc9746378d0000000000000000000000000000000000000000000000010c7c152d52e61f8d",
          "blockHash": "0xc4613ea9de7682d05b946cd1c7f98b7d6d629d184d0d5b53735eff868d24e396",
          "blockNumber": "0xdca19",
          "transactionHash": "0xc003453718d37146857c224fd30b89c8a4194f58ada95acc1372ebd0e0e4d671",
          "transactionIndex": "0x1",
          "logIndex": "0x19",
          "removed": false
        },
        {
          "address": "0x010700808d59d2bb92257fcafacfe8e5bff7ab87",
          "topics": [
            "0xddf252ad1be2c89b69c2b068fc378daa952ba7f163c4a11628f55a4df523b3ef",
            "0x0000000000000000000000000000000000000000000000000000000000000000",
            "0x0000000000000000000000002b9798745734e81c3060871045f8c7a3c8eb2cab"
          ],
          "data": "0x000000000000000000000000000000000000000000000000bb5e62609d5fa800",
          "blockHash": "0xc4613ea9de7682d05b946cd1c7f98b7d6d629d184d0d5b53735eff868d24e396",
          "blockNumber": "0xdca19",
          "transactionHash": "0xc003453718d37146857c224fd30b89c8a4194f58ada95acc1372ebd0e0e4d671",
          "transactionIndex": "0x1",
          "logIndex": "0x1a",
          "removed": false
        },
        {
          "address": "0x010700808d59d2bb92257fcafacfe8e5bff7ab87",
          "topics": [
            "0xdec2bacdd2f05b59de34da9b523dff8be42e5e38e818c82fdb0bae774387a724",
            "0x0000000000000000000000002b9798745734e81c3060871045f8c7a3c8eb2cab"
          ],
          "data": "0x0000000000000000000000000000000000000000000000010c7e91303be5c47e000000000000000000000000000000000000000000000001c7dcf390d9456c7e",
          "blockHash": "0xc4613ea9de7682d05b946cd1c7f98b7d6d629d184d0d5b53735eff868d24e396",
          "blockNumber": "0xdca19",
          "transactionHash": "0xc003453718d37146857c224fd30b89c8a4194f58ada95acc1372ebd0e0e4d671",
          "transactionIndex": "0x1",
          "logIndex": "0x1b",
          "removed": false
        },
        {
          "address": "0x010700808d59d2bb92257fcafacfe8e5bff7ab87",
          "topics": [
            "0xddf252ad1be2c89b69c2b068fc378daa952ba7f163c4a11628f55a4df523b3ef",
            "0x0000000000000000000000000000000000000000000000000000000000000000",
            "0x000000000000000000000000250d3d4dd20b1817e52841b46cd4d48f6b4bceea"
          ],
          "data": "0x000000000000000000000000000000000000000000000000bb5e62609d5fa800",
          "blockHash": "0xc4613ea9de7682d05b946cd1c7f98b7d6d629d184d0d5b53735eff868d24e396",
          "blockNumber": "0xdca19",
          "transactionHash": "0xc003453718d37146857c224fd30b89c8a4194f58ada95acc1372ebd0e0e4d671",
          "transactionIndex": "0x1",
          "logIndex": "0x1c",
          "removed": false
        },
        {
          "address": "0x010700808d59d2bb92257fcafacfe8e5bff7ab87",
          "topics": [
            "0xdec2bacdd2f05b59de34da9b523dff8be42e5e38e818c82fdb0bae774387a724",
            "0x000000000000000000000000250d3d4dd20b1817e52841b46cd4d48f6b4bceea"
          ],
          "data": "0x00000000000000000000000000000000000000000000000000b242e7be7e121a000000000000000000000000000000000000000000000000bc10a5485bddba1a",
          "blockHash": "0xc4613ea9de7682d05b946cd1c7f98b7d6d629d184d0d5b53735eff868d24e396",
          "blockNumber": "0xdca19",
          "transactionHash": "0xc003453718d37146857c224fd30b89c8a4194f58ada95acc1372ebd0e0e4d671",
          "transactionIndex": "0x1",
          "logIndex": "0x1d",
          "removed": false
        },
        {
          "address": "0x010700808d59d2bb92257fcafacfe8e5bff7ab87",
          "topics": [
            "0xddf252ad1be2c89b69c2b068fc378daa952ba7f163c4a11628f55a4df523b3ef",
            "0x0000000000000000000000000000000000000000000000000000000000000000",
            "0x0000000000000000000000008a0eebe9be754eb13d8cf93d1b728d78865577ea"
          ],
          "data": "0x0000000000000000000000000000000000000000000000017306d85a3c309800",
          "blockHash": "0xc4613ea9de7682d05b946cd1c7f98b7d6d629d184d0d5b53735eff868d24e396",
          "blockNumber": "0xdca19",
          "transactionHash": "0xc003453718d37146857c224fd30b89c8a4194f58ada95acc1372ebd0e0e4d671",
          "transactionIndex": "0x1",
          "logIndex": "0x1e",
          "removed": false
        },
        {
          "address": "0x010700808d59d2bb92257fcafacfe8e5bff7ab87",
          "topics": [
            "0xdec2bacdd2f05b59de34da9b523dff8be42e5e38e818c82fdb0bae774387a724",
            "0x0000000000000000000000008a0eebe9be754eb13d8cf93d1b728d78865577ea"
          ],
          "data": "0x000000000000000000000000000000000000000000000005760ccc1bd2b9790f000000000000000000000000000000000000000000000006e913a4760eea110f",
          "blockHash": "0xc4613ea9de7682d05b946cd1c7f98b7d6d629d184d0d5b53735eff868d24e396",
          "blockNumber": "0xdca19",
          "transactionHash": "0xc003453718d37146857c224fd30b89c8a4194f58ada95acc1372ebd0e0e4d671",
          "transactionIndex": "0x1",
          "logIndex": "0x1f",
          "removed": false
        },
        {
          "address": "0x010700808d59d2bb92257fcafacfe8e5bff7ab87",
          "topics": [
            "0xddf252ad1be2c89b69c2b068fc378daa952ba7f163c4a11628f55a4df523b3ef",
            "0x0000000000000000000000000000000000000000000000000000000000000000",
            "0x0000000000000000000000003934d981a66e4bfd0f82ef99c9f405767f1ccfbd"
          ],
          "data": "0x000000000000000000000000000000000000000000000000a8d0c45da495e800",
          "blockHash": "0xc4613ea9de7682d05b946cd1c7f98b7d6d629d184d0d5b53735eff868d24e396",
          "blockNumber": "0xdca19",
          "transactionHash": "0xc003453718d37146857c224fd30b89c8a4194f58ada95acc1372ebd0e0e4d671",
          "transactionIndex": "0x1",
          "logIndex": "0x20",
          "removed": false
        },
        {
          "address": "0x010700808d59d2bb92257fcafacfe8e5bff7ab87",
          "topics": [
            "0xdec2bacdd2f05b59de34da9b523dff8be42e5e38e818c82fdb0bae774387a724",
            "0x0000000000000000000000003934d981a66e4bfd0f82ef99c9f405767f1ccfbd"
          ],
          "data": "0x0000000000000000000000000000000000000000000000000381dadeed1db8a9000000000000000000000000000000000000000000000000ac529f3c91b3a0a9",
          "blockHash": "0xc4613ea9de7682d05b946cd1c7f98b7d6d629d184d0d5b53735eff868d24e396",
          "blockNumber": "0xdca19",
          "transactionHash": "0xc003453718d37146857c224fd30b89c8a4194f58ada95acc1372ebd0e0e4d671",
          "transactionIndex": "0x1",
          "logIndex": "0x21",
          "removed": false
        },
        {
          "address": "0x010700808d59d2bb92257fcafacfe8e5bff7ab87",
          "topics": [
            "0xddf252ad1be2c89b69c2b068fc378daa952ba7f163c4a11628f55a4df523b3ef",
            "0x0000000000000000000000000000000000000000000000000000000000000000",
            "0x000000000000000000000000deb6d1d8b199ce89c520100ba2be493ee45ba41c"
          ],
          "data": "0x000000000000000000000000000000000000000000000000e32a502f5dddf000",
          "blockHash": "0xc4613ea9de7682d05b946cd1c7f98b7d6d629d184d0d5b53735eff868d24e396",
          "blockNumber": "0xdca19",
          "transactionHash": "0xc003453718d37146857c224fd30b89c8a4194f58ada95acc1372ebd0e0e4d671",
          "transactionIndex": "0x1",
          "logIndex": "0x22",
          "removed": false
        },
        {
          "address": "0x010700808d59d2bb92257fcafacfe8e5bff7ab87",
          "topics": [
            "0xdec2bacdd2f05b59de34da9b523dff8be42e5e38e818c82fdb0bae774387a724",
            "0x000000000000000000000000deb6d1d8b199ce89c520100ba2be493ee45ba41c"
          ],
          "data": "0x00000000000000000000000000000000000000000000000b871c5159f564d3f300000000000000000000000000000000000000000000000c6a46a1895342c3f3",
          "blockHash": "0xc4613ea9de7682d05b946cd1c7f98b7d6d629d184d0d5b53735eff868d24e396",
          "blockNumber": "0xdca19",
          "transactionHash": "0xc003453718d37146857c224fd30b89c8a4194f58ada95acc1372ebd0e0e4d671",
          "transactionIndex": "0x1",
          "logIndex": "0x23",
          "removed": false
        },
        {
          "address": "0x010700808d59d2bb92257fcafacfe8e5bff7ab87",
          "topics": [
            "0xddf252ad1be2c89b69c2b068fc378daa952ba7f163c4a11628f55a4df523b3ef",
            "0x0000000000000000000000000000000000000000000000000000000000000000",
            "0x00000000000000000000000057ae483fcc306d8c71e771a4fbc14605bf8347bb"
          ],
          "data": "0x000000000000000000000000000000000000000000000000942a716f6bdaf000",
          "blockHash": "0xc4613ea9de7682d05b946cd1c7f98b7d6d629d184d0d5b53735eff868d24e396",
          "blockNumber": "0xdca19",
          "transactionHash": "0xc003453718d37146857c224fd30b89c8a4194f58ada95acc1372ebd0e0e4d671",
          "transactionIndex": "0x1",
          "logIndex": "0x24",
          "removed": false
        },
        {
          "address": "0x010700808d59d2bb92257fcafacfe8e5bff7ab87",
          "topics": [
            "0xdec2bacdd2f05b59de34da9b523dff8be42e5e38e818c82fdb0bae774387a724",
            "0x00000000000000000000000057ae483fcc306d8c71e771a4fbc14605bf8347bb"
          ],
          "data": "0x0000000000000000000000000000000000000000000000000de0bcc48907debe000000000000000000000000000000000000000000000000a20b2e33f4e2cebe",
          "blockHash": "0xc4613ea9de7682d05b946cd1c7f98b7d6d629d184d0d5b53735eff868d24e396",
          "blockNumber": "0xdca19",
          "transactionHash": "0xc003453718d37146857c224fd30b89c8a4194f58ada95acc1372ebd0e0e4d671",
          "transactionIndex": "0x1",
          "logIndex": "0x25",
          "removed": false
        },
        {
          "address": "0x010700808d59d2bb92257fcafacfe8e5bff7ab87",
          "topics": [
            "0xddf252ad1be2c89b69c2b068fc378daa952ba7f163c4a11628f55a4df523b3ef",
            "0x0000000000000000000000000000000000000000000000000000000000000000",
            "0x00000000000000000000000015483bafb9e57c2778e456886617f86f6adda1c1"
          ],
          "data": "0x0000000000000000000000000000000000000000000000013ce3764af47c7400",
          "blockHash": "0xc4613ea9de7682d05b946cd1c7f98b7d6d629d184d0d5b53735eff868d24e396",
          "blockNumber": "0xdca19",
          "transactionHash": "0xc003453718d37146857c224fd30b89c8a4194f58ada95acc1372ebd0e0e4d671",
          "transactionIndex": "0x1",
          "logIndex": "0x26",
          "removed": false
        },
        {
          "address": "0x010700808d59d2bb92257fcafacfe8e5bff7ab87",
          "topics": [
            "0xdec2bacdd2f05b59de34da9b523dff8be42e5e38e818c82fdb0bae774387a724",
            "0x00000000000000000000000015483bafb9e57c2778e456886617f86f6adda1c1"
          ],
          "data": "0x000000000000000000000000000000000000000000000001040f3e24adec167b00000000000000000000000000000000000000000000000240f2b46fa2688a7b",
          "blockHash": "0xc4613ea9de7682d05b946cd1c7f98b7d6d629d184d0d5b53735eff868d24e396",
          "blockNumber": "0xdca19",
          "transactionHash": "0xc003453718d37146857c224fd30b89c8a4194f58ada95acc1372ebd0e0e4d671",
          "transactionIndex": "0x1",
          "logIndex": "0x27",
          "removed": false
        },
        {
          "address": "0x010700808d59d2bb92257fcafacfe8e5bff7ab87",
          "topics": [
            "0xddf252ad1be2c89b69c2b068fc378daa952ba7f163c4a11628f55a4df523b3ef",
            "0x0000000000000000000000000000000000000000000000000000000000000000",
            "0x000000000000000000000000911b291a67b62d4358199af36b94f4bbab43c2ee"
          ],
          "data": "0x000000000000000000000000000000000000000000000000bdbe55d48539f400",
          "blockHash": "0xc4613ea9de7682d05b946cd1c7f98b7d6d629d184d0d5b53735eff868d24e396",
          "blockNumber": "0xdca19",
          "transactionHash": "0xc003453718d37146857c224fd30b89c8a4194f58ada95acc1372ebd0e0e4d671",
          "transactionIndex": "0x1",
          "logIndex": "0x28",
          "removed": false
        },
        {
          "address": "0x010700808d59d2bb92257fcafacfe8e5bff7ab87",
          "topics": [
            "0xdec2bacdd2f05b59de34da9b523dff8be42e5e38e818c82fdb0bae774387a724",
            "0x000000000000000000000000911b291a67b62d4358199af36b94f4bbab43c2ee"
          ],
          "data": "0x000000000000000000000000000000000000000000000001061ff33db54404f2000000000000000000000000000000000000000000000001c3de49123a7df8f2",
          "blockHash": "0xc4613ea9de7682d05b946cd1c7f98b7d6d629d184d0d5b53735eff868d24e396",
          "blockNumber": "0xdca19",
          "transactionHash": "0xc003453718d37146857c224fd30b89c8a4194f58ada95acc1372ebd0e0e4d671",
          "transactionIndex": "0x1",
          "logIndex": "0x29",
          "removed": false
        },
        {
          "address": "0x010700808d59d2bb92257fcafacfe8e5bff7ab87",
          "topics": [
            "0xddf252ad1be2c89b69c2b068fc378daa952ba7f163c4a11628f55a4df523b3ef",
            "0x0000000000000000000000000000000000000000000000000000000000000000",
            "0x000000000000000000000000a3b1f5f8bd3150da92b32e853f474067f1e9fe02"
          ],
          "data": "0x000000000000000000000000000000000000000000000000869a7910e7223200",
          "blockHash": "0xc4613ea9de7682d05b946cd1c7f98b7d6d629d184d0d5b53735eff868d24e396",
          "blockNumber": "0xdca19",
          "transactionHash": "0xc003453718d37146857c224fd30b89c8a4194f58ada95acc1372ebd0e0e4d671",
          "transactionIndex": "0x1",
          "logIndex": "0x2a",
          "removed": false
        },
        {
          "address": "0x010700808d59d2bb92257fcafacfe8e5bff7ab87",
          "topics": [
            "0xdec2bacdd2f05b59de34da9b523dff8be42e5e38e818c82fdb0bae774387a724",
            "0x000000000000000000000000a3b1f5f8bd3150da92b32e853f474067f1e9fe02"
          ],
          "data": "0x00000000000000000000000000000000000000000000000047d4f25e903d47fd000000000000000000000000000000000000000000000000ce6f6b6f775f79fd",
          "blockHash": "0xc4613ea9de7682d05b946cd1c7f98b7d6d629d184d0d5b53735eff868d24e396",
          "blockNumber": "0xdca19",
          "transactionHash": "0xc003453718d37146857c224fd30b89c8a4194f58ada95acc1372ebd0e0e4d671",
          "transactionIndex": "0x1",
          "logIndex": "0x2b",
          "removed": false
        },
        {
          "address": "0x010700808d59d2bb92257fcafacfe8e5bff7ab87",
          "topics": [
            "0xddf252ad1be2c89b69c2b068fc378daa952ba7f163c4a11628f55a4df523b3ef",
            "0x0000000000000000000000000000000000000000000000000000000000000000",
            "0x000000000000000000000000fdb3a148993974ed5156ec653477f7334d605845"
          ],
          "data": "0x000000000000000000000000000000000000000000000000968a64e353b53800",
          "blockHash": "0xc4613ea9de7682d05b946cd1c7f98b7d6d629d184d0d5b53735eff868d24e396",
          "blockNumber": "0xdca19",
          "transactionHash": "0xc003453718d37146857c224fd30b89c8a4194f58ada95acc1372ebd0e0e4d671",
          "transactionIndex": "0x1",
          "logIndex": "0x2c",
          "removed": false
        },
        {
          "address": "0x010700808d59d2bb92257fcafacfe8e5bff7ab87",
          "topics": [
            "0xddf252ad1be2c89b69c2b068fc378daa952ba7f163c4a11628f55a4df523b3ef",
            "0x0000000000000000000000000000000000000000000000000000000000000000",
            "0x0000000000000000000000008cad29e294f0b7c2844462e8344e0629e2d5b108"
          ],
          "data": "0x0000000000000000000000000000000000000000000000007c02710503434200",
          "blockHash": "0xc4613ea9de7682d05b946cd1c7f98b7d6d629d184d0d5b53735eff868d24e396",
          "blockNumber": "0xdca19",
          "transactionHash": "0xc003453718d37146857c224fd30b89c8a4194f58ada95acc1372ebd0e0e4d671",
          "transactionIndex": "0x1",
          "logIndex": "0x2d",
          "removed": false
        },
        {
          "address": "0x010700808d59d2bb92257fcafacfe8e5bff7ab87",
          "topics": [
            "0xddf252ad1be2c89b69c2b068fc378daa952ba7f163c4a11628f55a4df523b3ef",
            "0x0000000000000000000000000000000000000000000000000000000000000000",
            "0x000000000000000000000000f59e927e4cf3d84acb808b3b8de6be7f2c67f215"
          ],
          "data": "0x000000000000000000000000000000000000000000000001041da226669e9c00",
          "blockHash": "0xc4613ea9de7682d05b946cd1c7f98b7d6d629d184d0d5b53735eff868d24e396",
          "blockNumber": "0xdca19",
          "transactionHash": "0xc003453718d37146857c224fd30b89c8a4194f58ada95acc1372ebd0e0e4d671",
          "transactionIndex": "0x1",
          "logIndex": "0x2e",
          "removed": false
        },
        {
          "address": "0x010700808d59d2bb92257fcafacfe8e5bff7ab87",
          "topics": [
            "0xdec2bacdd2f05b59de34da9b523dff8be42e5e38e818c82fdb0bae774387a724",
            "0x000000000000000000000000f59e927e4cf3d84acb808b3b8de6be7f2c67f215"
          ],
          "data": "0x00000000000000000000000000000000000000000000000022920ed23f44b3f400000000000000000000000000000000000000000000000126afb0f8a5e34ff4",
          "blockHash": "0xc4613ea9de7682d05b946cd1c7f98b7d6d629d184d0d5b53735eff868d24e396",
          "blockNumber": "0xdca19",
          "transactionHash": "0xc003453718d37146857c224fd30b89c8a4194f58ada95acc1372ebd0e0e4d671",
          "transactionIndex": "0x1",
          "logIndex": "0x2f",
          "removed": false
        },
        {
          "address": "0x010700808d59d2bb92257fcafacfe8e5bff7ab87",
          "topics": [
            "0xddf252ad1be2c89b69c2b068fc378daa952ba7f163c4a11628f55a4df523b3ef",
            "0x0000000000000000000000000000000000000000000000000000000000000000",
            "0x000000000000000000000000abbc5fa34fbc91b77c3306bedb94e25404dbeadc"
          ],
          "data": "0x0000000000000000000000000000000000000000000000006f00f5b668bbec00",
          "blockHash": "0xc4613ea9de7682d05b946cd1c7f98b7d6d629d184d0d5b53735eff868d24e396",
          "blockNumber": "0xdca19",
          "transactionHash": "0xc003453718d37146857c224fd30b89c8a4194f58ada95acc1372ebd0e0e4d671",
          "transactionIndex": "0x1",
          "logIndex": "0x30",
          "removed": false
        },
        {
          "address": "0x010700808d59d2bb92257fcafacfe8e5bff7ab87",
          "topics": [
            "0xdec2bacdd2f05b59de34da9b523dff8be42e5e38e818c82fdb0bae774387a724",
            "0x000000000000000000000000abbc5fa34fbc91b77c3306bedb94e25404dbeadc"
          ],
          "data": "0x00000000000000000000000000000000000000000000000000008dc767fe7dcb0000000000000000000000000000000000000000000000006f01837dd0ba69cb",
          "blockHash": "0xc4613ea9de7682d05b946cd1c7f98b7d6d629d184d0d5b53735eff868d24e396",
          "blockNumber": "0xdca19",
          "transactionHash": "0xc003453718d37146857c224fd30b89c8a4194f58ada95acc1372ebd0e0e4d671",
          "transactionIndex": "0x1",
          "logIndex": "0x31",
          "removed": false
        },
        {
          "address": "0x010700808d59d2bb92257fcafacfe8e5bff7ab87",
          "topics": [
            "0xddf252ad1be2c89b69c2b068fc378daa952ba7f163c4a11628f55a4df523b3ef",
            "0x0000000000000000000000000000000000000000000000000000000000000000",
            "0x0000000000000000000000002d33caf07d0396b73635c232222b4105e2d60c61"
          ],
          "data": "0x000000000000000000000000000000000000000000000000694a13e4e08f9800",
          "blockHash": "0xc4613ea9de7682d05b946cd1c7f98b7d6d629d184d0d5b53735eff868d24e396",
          "blockNumber": "0xdca19",
          "transactionHash": "0xc003453718d37146857c224fd30b89c8a4194f58ada95acc1372ebd0e0e4d671",
          "transactionIndex": "0x1",
          "logIndex": "0x32",
          "removed": false
        },
        {
          "address": "0x010700808d59d2bb92257fcafacfe8e5bff7ab87",
          "topics": [
            "0xdec2bacdd2f05b59de34da9b523dff8be42e5e38e818c82fdb0bae774387a724",
            "0x0000000000000000000000002d33caf07d0396b73635c232222b4105e2d60c61"
          ],
          "data": "0x000000000000000000000000000000000000000000000000ed18c087fcc677f80000000000000000000000000000000000000000000000015662d46cdd560ff8",
          "blockHash": "0xc4613ea9de7682d05b946cd1c7f98b7d6d629d184d0d5b53735eff868d24e396",
          "blockNumber": "0xdca19",
          "transactionHash": "0xc003453718d37146857c224fd30b89c8a4194f58ada95acc1372ebd0e0e4d671",
          "transactionIndex": "0x1",
          "logIndex": "0x33",
          "removed": false
        },
        {
          "address": "0x010700808d59d2bb92257fcafacfe8e5bff7ab87",
          "topics": [
            "0xddf252ad1be2c89b69c2b068fc378daa952ba7f163c4a11628f55a4df523b3ef",
            "0x0000000000000000000000000000000000000000000000000000000000000000",
            "0x0000000000000000000000008e926c278acf7d63d223f090e68bff402bfa568c"
          ],
          "data": "0x000000000000000000000000000000000000000000000000659da74bc263ca00",
          "blockHash": "0xc4613ea9de7682d05b946cd1c7f98b7d6d629d184d0d5b53735eff868d24e396",
          "blockNumber": "0xdca19",
          "transactionHash": "0xc003453718d37146857c224fd30b89c8a4194f58ada95acc1372ebd0e0e4d671",
          "transactionIndex": "0x1",
          "logIndex": "0x34",
          "removed": false
        },
        {
          "address": "0x010700808d59d2bb92257fcafacfe8e5bff7ab87",
          "topics": [
            "0xdec2bacdd2f05b59de34da9b523dff8be42e5e38e818c82fdb0bae774387a724",
            "0x0000000000000000000000008e926c278acf7d63d223f090e68bff402bfa568c"
          ],
          "data": "0x00000000000000000000000000000000000000000000000025404d53767f05450000000000000000000000000000000000000000000000008addf49f38e2cf45",
          "blockHash": "0xc4613ea9de7682d05b946cd1c7f98b7d6d629d184d0d5b53735eff868d24e396",
          "blockNumber": "0xdca19",
          "transactionHash": "0xc003453718d37146857c224fd30b89c8a4194f58ada95acc1372ebd0e0e4d671",
          "transactionIndex": "0x1",
          "logIndex": "0x35",
          "removed": false
        },
        {
          "address": "0x010700808d59d2bb92257fcafacfe8e5bff7ab87",
          "topics": [
            "0xddf252ad1be2c89b69c2b068fc378daa952ba7f163c4a11628f55a4df523b3ef",
            "0x0000000000000000000000000000000000000000000000000000000000000000",
            "0x000000000000000000000000c516baaa766112e551108e776357e9c8502376a9"
          ],
          "data": "0x0000000000000000000000000000000000000000000000005e368e650edff200",
          "blockHash": "0xc4613ea9de7682d05b946cd1c7f98b7d6d629d184d0d5b53735eff868d24e396",
          "blockNumber": "0xdca19",
          "transactionHash": "0xc003453718d37146857c224fd30b89c8a4194f58ada95acc1372ebd0e0e4d671",
          "transactionIndex": "0x1",
          "logIndex": "0x36",
          "removed": false
        },
        {
          "address": "0x010700808d59d2bb92257fcafacfe8e5bff7ab87",
          "topics": [
            "0xdec2bacdd2f05b59de34da9b523dff8be42e5e38e818c82fdb0bae774387a724",
            "0x000000000000000000000000c516baaa766112e551108e776357e9c8502376a9"
          ],
          "data": "0x00000000000000000000000000000000000000000000000000001872d3c1b2bb0000000000000000000000000000000000000000000000005e36a6d7e2a1a4bb",
          "blockHash": "0xc4613ea9de7682d05b946cd1c7f98b7d6d629d184d0d5b53735eff868d24e396",
          "blockNumber": "0xdca19",
          "transactionHash": "0xc003453718d37146857c224fd30b89c8a4194f58ada95acc1372ebd0e0e4d671",
          "transactionIndex": "0x1",
          "logIndex": "0x37",
          "removed": false
        },
        {
          "address": "0x010700808d59d2bb92257fcafacfe8e5bff7ab87",
          "topics": [
            "0xddf252ad1be2c89b69c2b068fc378daa952ba7f163c4a11628f55a4df523b3ef",
            "0x0000000000000000000000000000000000000000000000000000000000000000",
            "0x000000000000000000000000f514265cb9535b8dff64dc838f68a6ef64aa7cd8"
          ],
          "data": "0x0000000000000000000000000000000000000000000000005dbb10f15caa0600",
          "blockHash": "0xc4613ea9de7682d05b946cd1c7f98b7d6d629d184d0d5b53735eff868d24e396",
          "blockNumber": "0xdca19",
          "transactionHash": "0xc003453718d37146857c224fd30b89c8a4194f58ada95acc1372ebd0e0e4d671",
          "transactionIndex": "0x1",
          "logIndex": "0x38",
          "removed": false
        },
        {
          "address": "0x010700808d59d2bb92257fcafacfe8e5bff7ab87",
          "topics": [
            "0xdec2bacdd2f05b59de34da9b523dff8be42e5e38e818c82fdb0bae774387a724",
            "0x000000000000000000000000f514265cb9535b8dff64dc838f68a6ef64aa7cd8"
          ],
          "data": "0x00000000000000000000000000000000000000000000000000008b293276ae670000000000000000000000000000000000000000000000005dbb9c1a8f20b467",
          "blockHash": "0xc4613ea9de7682d05b946cd1c7f98b7d6d629d184d0d5b53735eff868d24e396",
          "blockNumber": "0xdca19",
          "transactionHash": "0xc003453718d37146857c224fd30b89c8a4194f58ada95acc1372ebd0e0e4d671",
          "transactionIndex": "0x1",
          "logIndex": "0x39",
          "removed": false
        },
        {
          "address": "0x010700808d59d2bb92257fcafacfe8e5bff7ab87",
          "topics": [
            "0xddf252ad1be2c89b69c2b068fc378daa952ba7f163c4a11628f55a4df523b3ef",
            "0x0000000000000000000000000000000000000000000000000000000000000000",
            "0x000000000000000000000000eead23e83ac9139ec420b1083467fa05ede5616e"
          ],
          "data": "0x0000000000000000000000000000000000000000000000008f0b8c7a843cfc00",
          "blockHash": "0xc4613ea9de7682d05b946cd1c7f98b7d6d629d184d0d5b53735eff868d24e396",
          "blockNumber": "0xdca19",
          "transactionHash": "0xc003453718d37146857c224fd30b89c8a4194f58ada95acc1372ebd0e0e4d671",
          "transactionIndex": "0x1",
          "logIndex": "0x3a",
          "removed": false
        },
        {
          "address": "0x010700808d59d2bb92257fcafacfe8e5bff7ab87",
          "topics": [
            "0xddf252ad1be2c89b69c2b068fc378daa952ba7f163c4a11628f55a4df523b3ef",
            "0x0000000000000000000000000000000000000000000000000000000000000000",
            "0x000000000000000000000000e6b5cfe8ad719a36d2b5f4d9b036bb8b8288532f"
          ],
          "data": "0x0000000000000000000000000000000000000000000000005cc41609f83e2e00",
          "blockHash": "0xc4613ea9de7682d05b946cd1c7f98b7d6d629d184d0d5b53735eff868d24e396",
          "blockNumber": "0xdca19",
          "transactionHash": "0xc003453718d37146857c224fd30b89c8a4194f58ada95acc1372ebd0e0e4d671",
          "transactionIndex": "0x1",
          "logIndex": "0x3b",
          "removed": false
        },
        {
          "address": "0x010700808d59d2bb92257fcafacfe8e5bff7ab87",
          "topics": [
            "0xdec2bacdd2f05b59de34da9b523dff8be42e5e38e818c82fdb0bae774387a724",
            "0x000000000000000000000000e6b5cfe8ad719a36d2b5f4d9b036bb8b8288532f"
          ],
          "data": "0x000000000000000000000000000000000000000000000008c9ab7cfee19b020a000000000000000000000000000000000000000000000009266f9308d9d9300a",
          "blockHash": "0xc4613ea9de7682d05b946cd1c7f98b7d6d629d184d0d5b53735eff868d24e396",
          "blockNumber": "0xdca19",
          "transactionHash": "0xc003453718d37146857c224fd30b89c8a4194f58ada95acc1372ebd0e0e4d671",
          "transactionIndex": "0x1",
          "logIndex": "0x3c",
          "removed": false
        },
        {
          "address": "0x010700808d59d2bb92257fcafacfe8e5bff7ab87",
          "topics": [
            "0xddf252ad1be2c89b69c2b068fc378daa952ba7f163c4a11628f55a4df523b3ef",
            "0x0000000000000000000000000000000000000000000000000000000000000000",
            "0x000000000000000000000000af7e6463a5317acc76de24cdc32dd1896825e768"
          ],
          "data": "0x0000000000000000000000000000000000000000000000005cc41609f83e2e00",
          "blockHash": "0xc4613ea9de7682d05b946cd1c7f98b7d6d629d184d0d5b53735eff868d24e396",
          "blockNumber": "0xdca19",
          "transactionHash": "0xc003453718d37146857c224fd30b89c8a4194f58ada95acc1372ebd0e0e4d671",
          "transactionIndex": "0x1",
          "logIndex": "0x3d",
          "removed": false
        },
        {
          "address": "0x010700808d59d2bb92257fcafacfe8e5bff7ab87",
          "topics": [
            "0xdec2bacdd2f05b59de34da9b523dff8be42e5e38e818c82fdb0bae774387a724",
            "0x000000000000000000000000af7e6463a5317acc76de24cdc32dd1896825e768"
          ],
          "data": "0x000000000000000000000000000000000000000000000000000042448a15466b0000000000000000000000000000000000000000000000005cc4584e8253746b",
          "blockHash": "0xc4613ea9de7682d05b946cd1c7f98b7d6d629d184d0d5b53735eff868d24e396",
          "blockNumber": "0xdca19",
          "transactionHash": "0xc003453718d37146857c224fd30b89c8a4194f58ada95acc1372ebd0e0e4d671",
          "transactionIndex": "0x1",
          "logIndex": "0x3e",
          "removed": false
        },
        {
          "address": "0x010700808d59d2bb92257fcafacfe8e5bff7ab87",
          "topics": [
            "0xddf252ad1be2c89b69c2b068fc378daa952ba7f163c4a11628f55a4df523b3ef",
            "0x0000000000000000000000000000000000000000000000000000000000000000",
            "0x0000000000000000000000006d987766d1c268694c88d243d0b7a34107a28577"
          ],
          "data": "0x0000000000000000000000000000000000000000000000005c4898960a6d7800",
          "blockHash": "0xc4613ea9de7682d05b946cd1c7f98b7d6d629d184d0d5b53735eff868d24e396",
          "blockNumber": "0xdca19",
          "transactionHash": "0xc003453718d37146857c224fd30b89c8a4194f58ada95acc1372ebd0e0e4d671",
          "transactionIndex": "0x1",
          "logIndex": "0x3f",
          "removed": false
        },
        {
          "address": "0x010700808d59d2bb92257fcafacfe8e5bff7ab87",
          "topics": [
            "0xdec2bacdd2f05b59de34da9b523dff8be42e5e38e818c82fdb0bae774387a724",
            "0x0000000000000000000000006d987766d1c268694c88d243d0b7a34107a28577"
          ],
          "data": "0x00000000000000000000000000000000000000000000000001d04d9a0c4a91d10000000000000000000000000000000000000000000000005e18e63016b809d1",
          "blockHash": "0xc4613ea9de7682d05b946cd1c7f98b7d6d629d184d0d5b53735eff868d24e396",
          "blockNumber": "0xdca19",
          "transactionHash": "0xc003453718d37146857c224fd30b89c8a4194f58ada95acc1372ebd0e0e4d671",
          "transactionIndex": "0x1",
          "logIndex": "0x40",
          "removed": false
        },
        {
          "address": "0x010700808d59d2bb92257fcafacfe8e5bff7ab87",
          "topics": [
            "0xddf252ad1be2c89b69c2b068fc378daa952ba7f163c4a11628f55a4df523b3ef",
            "0x0000000000000000000000000000000000000000000000000000000000000000",
            "0x0000000000000000000000006e0f6424e81e2fe0e783cfed34d552b01e921262"
          ],
          "data": "0x0000000000000000000000000000000000000000000000005561bd0a171e6a00",
          "blockHash": "0xc4613ea9de7682d05b946cd1c7f98b7d6d629d184d0d5b53735eff868d24e396",
          "blockNumber": "0xdca19",
          "transactionHash": "0xc003453718d37146857c224fd30b89c8a4194f58ada95acc1372ebd0e0e4d671",
          "transactionIndex": "0x1",
          "logIndex": "0x41",
          "removed": false
        },
        {
          "address": "0x010700808d59d2bb92257fcafacfe8e5bff7ab87",
          "topics": [
            "0xdec2bacdd2f05b59de34da9b523dff8be42e5e38e818c82fdb0bae774387a724",
            "0x0000000000000000000000006e0f6424e81e2fe0e783cfed34d552b01e921262"
          ],
          "data": "0x00000000000000000000000000000000000000000000000c5950c0d5a592244500000000000000000000000000000000000000000000000caeb27ddfbcb08e45",
          "blockHash": "0xc4613ea9de7682d05b946cd1c7f98b7d6d629d184d0d5b53735eff868d24e396",
          "blockNumber": "0xdca19",
          "transactionHash": "0xc003453718d37146857c224fd30b89c8a4194f58ada95acc1372ebd0e0e4d671",
          "transactionIndex": "0x1",
          "logIndex": "0x42",
          "removed": false
        },
        {
          "address": "0x010700808d59d2bb92257fcafacfe8e5bff7ab87",
          "topics": [
            "0xddf252ad1be2c89b69c2b068fc378daa952ba7f163c4a11628f55a4df523b3ef",
            "0x0000000000000000000000000000000000000000000000000000000000000000",
            "0x00000000000000000000000034d8bad8b1e84287f9a99fd0162787c065f2422d"
          ],
          "data": "0x0000000000000000000000000000000000000000000000005528be3710678800",
          "blockHash": "0xc4613ea9de7682d05b946cd1c7f98b7d6d629d184d0d5b53735eff868d24e396",
          "blockNumber": "0xdca19",
          "transactionHash": "0xc003453718d37146857c224fd30b89c8a4194f58ada95acc1372ebd0e0e4d671",
          "transactionIndex": "0x1",
          "logIndex": "0x43",
          "removed": false
        },
        {
          "address": "0x010700808d59d2bb92257fcafacfe8e5bff7ab87",
          "topics": [
            "0xdec2bacdd2f05b59de34da9b523dff8be42e5e38e818c82fdb0bae774387a724",
            "0x00000000000000000000000034d8bad8b1e84287f9a99fd0162787c065f2422d"
          ],
          "data": "0x00000000000000000000000000000000000000000000000081a43980689fbb74000000000000000000000000000000000000000000000000d6ccf7b779074374",
          "blockHash": "0xc4613ea9de7682d05b946cd1c7f98b7d6d629d184d0d5b53735eff868d24e396",
          "blockNumber": "0xdca19",
          "transactionHash": "0xc003453718d37146857c224fd30b89c8a4194f58ada95acc1372ebd0e0e4d671",
          "transactionIndex": "0x1",
          "logIndex": "0x44",
          "removed": false
        },
        {
          "address": "0x010700808d59d2bb92257fcafacfe8e5bff7ab87",
          "topics": [
            "0xddf252ad1be2c89b69c2b068fc378daa952ba7f163c4a11628f55a4df523b3ef",
            "0x0000000000000000000000000000000000000000000000000000000000000000",
            "0x000000000000000000000000c8dc1327ae81062aebb1e301042d9ab3394b4149"
          ],
          "data": "0x0000000000000000000000000000000000000000000000004a367807eddf9600",
          "blockHash": "0xc4613ea9de7682d05b946cd1c7f98b7d6d629d184d0d5b53735eff868d24e396",
          "blockNumber": "0xdca19",
          "transactionHash": "0xc003453718d37146857c224fd30b89c8a4194f58ada95acc1372ebd0e0e4d671",
          "transactionIndex": "0x1",
          "logIndex": "0x45",
          "removed": false
        },
        {
          "address": "0x010700808d59d2bb92257fcafacfe8e5bff7ab87",
          "topics": [
            "0xdec2bacdd2f05b59de34da9b523dff8be42e5e38e818c82fdb0bae774387a724",
            "0x000000000000000000000000c8dc1327ae81062aebb1e301042d9ab3394b4149"
          ],
          "data": "0x00000000000000000000000000000000000000000000000002b0d6229fd643f60000000000000000000000000000000000000000000000004ce74e2a8db5d9f6",
          "blockHash": "0xc4613ea9de7682d05b946cd1c7f98b7d6d629d184d0d5b53735eff868d24e396",
          "blockNumber": "0xdca19",
          "transactionHash": "0xc003453718d37146857c224fd30b89c8a4194f58ada95acc1372ebd0e0e4d671",
          "transactionIndex": "0x1",
          "logIndex": "0x46",
          "removed": false
        },
        {
          "address": "0x010700808d59d2bb92257fcafacfe8e5bff7ab87",
          "topics": [
            "0xddf252ad1be2c89b69c2b068fc378daa952ba7f163c4a11628f55a4df523b3ef",
            "0x0000000000000000000000000000000000000000000000000000000000000000",
            "0x00000000000000000000000004efe7fd10cd546d30faf75475c1275b9d15dbc6"
          ],
          "data": "0x0000000000000000000000000000000000000000000000004a367807eddf9600",
          "blockHash": "0xc4613ea9de7682d05b946cd1c7f98b7d6d629d184d0d5b53735eff868d24e396",
          "blockNumber": "0xdca19",
          "transactionHash": "0xc003453718d37146857c224fd30b89c8a4194f58ada95acc1372ebd0e0e4d671",
          "transactionIndex": "0x1",
          "logIndex": "0x47",
          "removed": false
        },
        {
          "address": "0x010700808d59d2bb92257fcafacfe8e5bff7ab87",
          "topics": [
            "0xdec2bacdd2f05b59de34da9b523dff8be42e5e38e818c82fdb0bae774387a724",
            "0x00000000000000000000000004efe7fd10cd546d30faf75475c1275b9d15dbc6"
          ],
          "data": "0x00000000000000000000000000000000000000000000000000238cf1007ce9e00000000000000000000000000000000000000000000000004a5a04f8ee5c7fe0",
          "blockHash": "0xc4613ea9de7682d05b946cd1c7f98b7d6d629d184d0d5b53735eff868d24e396",
          "blockNumber": "0xdca19",
          "transactionHash": "0xc003453718d37146857c224fd30b89c8a4194f58ada95acc1372ebd0e0e4d671",
          "transactionIndex": "0x1",
          "logIndex": "0x48",
          "removed": false
        },
        {
          "address": "0x010700808d59d2bb92257fcafacfe8e5bff7ab87",
          "topics": [
            "0xddf252ad1be2c89b69c2b068fc378daa952ba7f163c4a11628f55a4df523b3ef",
            "0x0000000000000000000000000000000000000000000000000000000000000000",
            "0x000000000000000000000000483e3583854e9a16d3412ae3cc3102cdbf2a7d15"
          ],
          "data": "0x00000000000000000000000000000000000000000000000043a9da9f39398a00",
          "blockHash": "0xc4613ea9de7682d05b946cd1c7f98b7d6d629d184d0d5b53735eff868d24e396",
          "blockNumber": "0xdca19",
          "transactionHash": "0xc003453718d37146857c224fd30b89c8a4194f58ada95acc1372ebd0e0e4d671",
          "transactionIndex": "0x1",
          "logIndex": "0x49",
          "removed": false
        },
        {
          "address": "0x010700808d59d2bb92257fcafacfe8e5bff7ab87",
          "topics": [
            "0xdec2bacdd2f05b59de34da9b523dff8be42e5e38e818c82fdb0bae774387a724",
            "0x000000000000000000000000483e3583854e9a16d3412ae3cc3102cdbf2a7d15"
          ],
          "data": "0x000000000000000000000000000000000000000000000000e25fb26671f50af800000000000000000000000000000000000000000000000126098d05ab2e94f8",
          "blockHash": "0xc4613ea9de7682d05b946cd1c7f98b7d6d629d184d0d5b53735eff868d24e396",
          "blockNumber": "0xdca19",
          "transactionHash": "0xc003453718d37146857c224fd30b89c8a4194f58ada95acc1372ebd0e0e4d671",
          "transactionIndex": "0x1",
          "logIndex": "0x4a",
          "removed": false
        },
        {
          "address": "0x010700808d59d2bb92257fcafacfe8e5bff7ab87",
          "topics": [
            "0xddf252ad1be2c89b69c2b068fc378daa952ba7f163c4a11628f55a4df523b3ef",
            "0x0000000000000000000000000000000000000000000000000000000000000000",
            "0x000000000000000000000000893a246066bd976e44d6d00684dec07c52baa492"
          ],
          "data": "0x00000000000000000000000000000000000000000000000043629c177fbba200",
          "blockHash": "0xc4613ea9de7682d05b946cd1c7f98b7d6d629d184d0d5b53735eff868d24e396",
          "blockNumber": "0xdca19",
          "transactionHash": "0xc003453718d37146857c224fd30b89c8a4194f58ada95acc1372ebd0e0e4d671",
          "transactionIndex": "0x1",
          "logIndex": "0x4b",
          "removed": false
        },
        {
          "address": "0x010700808d59d2bb92257fcafacfe8e5bff7ab87",
          "topics": [
            "0xddf252ad1be2c89b69c2b068fc378daa952ba7f163c4a11628f55a4df523b3ef",
            "0x0000000000000000000000000000000000000000000000000000000000000000",
            "0x000000000000000000000000a62c037582c28a51e5611303280f3e7352fee8ad"
          ],
          "data": "0x000000000000000000000000000000000000000000000000434adc94ec91aa00",
          "blockHash": "0xc4613ea9de7682d05b946cd1c7f98b7d6d629d184d0d5b53735eff868d24e396",
          "blockNumber": "0xdca19",
          "transactionHash": "0xc003453718d37146857c224fd30b89c8a4194f58ada95acc1372ebd0e0e4d671",
          "transactionIndex": "0x1",
          "logIndex": "0x4c",
          "removed": false
        },
        {
          "address": "0x010700808d59d2bb92257fcafacfe8e5bff7ab87",
          "topics": [
            "0xddf252ad1be2c89b69c2b068fc378daa952ba7f163c4a11628f55a4df523b3ef",
            "0x0000000000000000000000000000000000000000000000000000000000000000",
            "0x00000000000000000000000093f96a75cd46af34121266756edb99878070701c"
          ],
          "data": "0x00000000000000000000000000000000000000000000000038a954bb63ea9200",
          "blockHash": "0xc4613ea9de7682d05b946cd1c7f98b7d6d629d184d0d5b53735eff868d24e396",
          "blockNumber": "0xdca19",
          "transactionHash": "0xc003453718d37146857c224fd30b89c8a4194f58ada95acc1372ebd0e0e4d671",
          "transactionIndex": "0x1",
          "logIndex": "0x4d",
          "removed": false
        },
        {
          "address": "0x010700808d59d2bb92257fcafacfe8e5bff7ab87",
          "topics": [
            "0xdec2bacdd2f05b59de34da9b523dff8be42e5e38e818c82fdb0bae774387a724",
            "0x00000000000000000000000093f96a75cd46af34121266756edb99878070701c"
          ],
          "data": "0x00000000000000000000000000000000000000000000000000001e51057e41f600000000000000000000000000000000000000000000000038a9730c6968d3f6",
          "blockHash": "0xc4613ea9de7682d05b946cd1c7f98b7d6d629d184d0d5b53735eff868d24e396",
          "blockNumber": "0xdca19",
          "transactionHash": "0xc003453718d37146857c224fd30b89c8a4194f58ada95acc1372ebd0e0e4d671",
          "transactionIndex": "0x1",
          "logIndex": "0x4e",
          "removed": false
        },
        {
          "address": "0x010700808d59d2bb92257fcafacfe8e5bff7ab87",
          "topics": [
            "0xddf252ad1be2c89b69c2b068fc378daa952ba7f163c4a11628f55a4df523b3ef",
            "0x0000000000000000000000000000000000000000000000000000000000000000",
            "0x000000000000000000000000d5d7540ccef6c99be67486ac2b8d317ffc6544ea"
          ],
          "data": "0x0000000000000000000000000000000000000000000000003573a5af25909c00",
          "blockHash": "0xc4613ea9de7682d05b946cd1c7f98b7d6d629d184d0d5b53735eff868d24e396",
          "blockNumber": "0xdca19",
          "transactionHash": "0xc003453718d37146857c224fd30b89c8a4194f58ada95acc1372ebd0e0e4d671",
          "transactionIndex": "0x1",
          "logIndex": "0x4f",
          "removed": false
        },
        {
          "address": "0x010700808d59d2bb92257fcafacfe8e5bff7ab87",
          "topics": [
            "0xddf252ad1be2c89b69c2b068fc378daa952ba7f163c4a11628f55a4df523b3ef",
            "0x0000000000000000000000000000000000000000000000000000000000000000",
            "0x0000000000000000000000006bb4c01cc2430875751a5dde0a466d987c0f1365"
          ],
          "data": "0x000000000000000000000000000000000000000000000000337a0cea68040800",
          "blockHash": "0xc4613ea9de7682d05b946cd1c7f98b7d6d629d184d0d5b53735eff868d24e396",
          "blockNumber": "0xdca19",
          "transactionHash": "0xc003453718d37146857c224fd30b89c8a4194f58ada95acc1372ebd0e0e4d671",
          "transactionIndex": "0x1",
          "logIndex": "0x50",
          "removed": false
        },
        {
          "address": "0x010700808d59d2bb92257fcafacfe8e5bff7ab87",
          "topics": [
            "0xdec2bacdd2f05b59de34da9b523dff8be42e5e38e818c82fdb0bae774387a724",
            "0x0000000000000000000000006bb4c01cc2430875751a5dde0a466d987c0f1365"
          ],
          "data": "0x00000000000000000000000000000000000000000000000000001e61d1c89a7d000000000000000000000000000000000000000000000000337a2b4c39cca27d",
          "blockHash": "0xc4613ea9de7682d05b946cd1c7f98b7d6d629d184d0d5b53735eff868d24e396",
          "blockNumber": "0xdca19",
          "transactionHash": "0xc003453718d37146857c224fd30b89c8a4194f58ada95acc1372ebd0e0e4d671",
          "transactionIndex": "0x1",
          "logIndex": "0x51",
          "removed": false
        },
        {
          "address": "0x010700808d59d2bb92257fcafacfe8e5bff7ab87",
          "topics": [
            "0xddf252ad1be2c89b69c2b068fc378daa952ba7f163c4a11628f55a4df523b3ef",
            "0x0000000000000000000000000000000000000000000000000000000000000000",
            "0x0000000000000000000000008d4908b7595f4645e0cfed46eabb25b5e5296ce5"
          ],
          "data": "0x00000000000000000000000000000000000000000000000030de7de355bffc00",
          "blockHash": "0xc4613ea9de7682d05b946cd1c7f98b7d6d629d184d0d5b53735eff868d24e396",
          "blockNumber": "0xdca19",
          "transactionHash": "0xc003453718d37146857c224fd30b89c8a4194f58ada95acc1372ebd0e0e4d671",
          "transactionIndex": "0x1",
          "logIndex": "0x52",
          "removed": false
        },
        {
          "address": "0x010700808d59d2bb92257fcafacfe8e5bff7ab87",
          "topics": [
            "0xddf252ad1be2c89b69c2b068fc378daa952ba7f163c4a11628f55a4df523b3ef",
            "0x0000000000000000000000000000000000000000000000000000000000000000",
            "0x00000000000000000000000088db47d58abe4a27619e59f211765ad53c813714"
          ],
          "data": "0x0000000000000000000000000000000000000000000000002f8884f1a4ac4400",
          "blockHash": "0xc4613ea9de7682d05b946cd1c7f98b7d6d629d184d0d5b53735eff868d24e396",
          "blockNumber": "0xdca19",
          "transactionHash": "0xc003453718d37146857c224fd30b89c8a4194f58ada95acc1372ebd0e0e4d671",
          "transactionIndex": "0x1",
          "logIndex": "0x53",
          "removed": false
        },
        {
          "address": "0x010700808d59d2bb92257fcafacfe8e5bff7ab87",
          "topics": [
            "0xdec2bacdd2f05b59de34da9b523dff8be42e5e38e818c82fdb0bae774387a724",
            "0x00000000000000000000000088db47d58abe4a27619e59f211765ad53c813714"
          ],
          "data": "0x0000000000000000000000000000000000000000000000110311ac3cf0084ef1000000000000000000000000000000000000000000000011329a312e94b492f1",
          "blockHash": "0xc4613ea9de7682d05b946cd1c7f98b7d6d629d184d0d5b53735eff868d24e396",
          "blockNumber": "0xdca19",
          "transactionHash": "0xc003453718d37146857c224fd30b89c8a4194f58ada95acc1372ebd0e0e4d671",
          "transactionIndex": "0x1",
          "logIndex": "0x54",
          "removed": false
        },
        {
          "address": "0x010700808d59d2bb92257fcafacfe8e5bff7ab87",
          "topics": [
            "0xddf252ad1be2c89b69c2b068fc378daa952ba7f163c4a11628f55a4df523b3ef",
            "0x0000000000000000000000000000000000000000000000000000000000000000",
            "0x0000000000000000000000003daee3e4bba14dc32265bebcee32be963ca27e04"
          ],
          "data": "0x0000000000000000000000000000000000000000000000002eb2c95a78328c00",
          "blockHash": "0xc4613ea9de7682d05b946cd1c7f98b7d6d629d184d0d5b53735eff868d24e396",
          "blockNumber": "0xdca19",
          "transactionHash": "0xc003453718d37146857c224fd30b89c8a4194f58ada95acc1372ebd0e0e4d671",
          "transactionIndex": "0x1",
          "logIndex": "0x55",
          "removed": false
        },
        {
          "address": "0x010700808d59d2bb92257fcafacfe8e5bff7ab87",
          "topics": [
            "0xdec2bacdd2f05b59de34da9b523dff8be42e5e38e818c82fdb0bae774387a724",
            "0x0000000000000000000000003daee3e4bba14dc32265bebcee32be963ca27e04"
          ],
          "data": "0x00000000000000000000000000000000000000000000000039a9d1a37146539f000000000000000000000000000000000000000000000000685c9afde978df9f",
          "blockHash": "0xc4613ea9de7682d05b946cd1c7f98b7d6d629d184d0d5b53735eff868d24e396",
          "blockNumber": "0xdca19",
          "transactionHash": "0xc003453718d37146857c224fd30b89c8a4194f58ada95acc1372ebd0e0e4d671",
          "transactionIndex": "0x1",
          "logIndex": "0x56",
          "removed": false
        },
        {
          "address": "0x010700808d59d2bb92257fcafacfe8e5bff7ab87",
          "topics": [
            "0xddf252ad1be2c89b69c2b068fc378daa952ba7f163c4a11628f55a4df523b3ef",
            "0x0000000000000000000000000000000000000000000000000000000000000000",
            "0x000000000000000000000000560ffe35ad1a41bdfd4f1a54ac43b6fe1ff30458"
          ],
          "data": "0x0000000000000000000000000000000000000000000000002e9fc9beb76ca800",
          "blockHash": "0xc4613ea9de7682d05b946cd1c7f98b7d6d629d184d0d5b53735eff868d24e396",
          "blockNumber": "0xdca19",
          "transactionHash": "0xc003453718d37146857c224fd30b89c8a4194f58ada95acc1372ebd0e0e4d671",
          "transactionIndex": "0x1",
          "logIndex": "0x57",
          "removed": false
        },
        {
          "address": "0x010700808d59d2bb92257fcafacfe8e5bff7ab87",
          "topics": [
            "0xdec2bacdd2f05b59de34da9b523dff8be42e5e38e818c82fdb0bae774387a724",
            "0x000000000000000000000000560ffe35ad1a41bdfd4f1a54ac43b6fe1ff30458"
          ],
          "data": "0x00000000000000000000000000000000000000000000000378ca9f9c99aca2bc000000000000000000000000000000000000000000000003a76a695b51194abc",
          "blockHash": "0xc4613ea9de7682d05b946cd1c7f98b7d6d629d184d0d5b53735eff868d24e396",
          "blockNumber": "0xdca19",
          "transactionHash": "0xc003453718d37146857c224fd30b89c8a4194f58ada95acc1372ebd0e0e4d671",
          "transactionIndex": "0x1",
          "logIndex": "0x58",
          "removed": false
        },
        {
          "address": "0x010700808d59d2bb92257fcafacfe8e5bff7ab87",
          "topics": [
            "0xddf252ad1be2c89b69c2b068fc378daa952ba7f163c4a11628f55a4df523b3ef",
            "0x0000000000000000000000000000000000000000000000000000000000000000",
            "0x000000000000000000000000f8719f51d7cc5738a7e1e0ed0974a60e708f67ea"
          ],
          "data": "0x0000000000000000000000000000000000000000000000002e620b04de51b200",
          "blockHash": "0xc4613ea9de7682d05b946cd1c7f98b7d6d629d184d0d5b53735eff868d24e396",
          "blockNumber": "0xdca19",
          "transactionHash": "0xc003453718d37146857c224fd30b89c8a4194f58ada95acc1372ebd0e0e4d671",
          "transactionIndex": "0x1",
          "logIndex": "0x59",
          "removed": false
        },
        {
          "address": "0x010700808d59d2bb92257fcafacfe8e5bff7ab87",
          "topics": [
            "0xddf252ad1be2c89b69c2b068fc378daa952ba7f163c4a11628f55a4df523b3ef",
            "0x0000000000000000000000000000000000000000000000000000000000000000",
            "0x0000000000000000000000008dde2c811ebdc2f6cb4e6a02e547712cca1a8577"
          ],
          "data": "0x0000000000000000000000000000000000000000000000005ae45fefa692bc00",
          "blockHash": "0xc4613ea9de7682d05b946cd1c7f98b7d6d629d184d0d5b53735eff868d24e396",
          "blockNumber": "0xdca19",
          "transactionHash": "0xc003453718d37146857c224fd30b89c8a4194f58ada95acc1372ebd0e0e4d671",
          "transactionIndex": "0x1",
          "logIndex": "0x5a",
          "removed": false
        },
        {
          "address": "0x010700808d59d2bb92257fcafacfe8e5bff7ab87",
          "topics": [
            "0xdec2bacdd2f05b59de34da9b523dff8be42e5e38e818c82fdb0bae774387a724",
            "0x0000000000000000000000008dde2c811ebdc2f6cb4e6a02e547712cca1a8577"
          ],
          "data": "0x000000000000000000000000000000000000000000000007438a66cc43c246c10000000000000000000000000000000000000000000000079e6ec6bbea5502c1",
          "blockHash": "0xc4613ea9de7682d05b946cd1c7f98b7d6d629d184d0d5b53735eff868d24e396",
          "blockNumber": "0xdca19",
          "transactionHash": "0xc003453718d37146857c224fd30b89c8a4194f58ada95acc1372ebd0e0e4d671",
          "transactionIndex": "0x1",
          "logIndex": "0x5b",
          "removed": false
        },
        {
          "address": "0x010700808d59d2bb92257fcafacfe8e5bff7ab87",
          "topics": [
            "0xddf252ad1be2c89b69c2b068fc378daa952ba7f163c4a11628f55a4df523b3ef",
            "0x0000000000000000000000000000000000000000000000000000000000000000",
            "0x0000000000000000000000006f837c207925400f246bca336eb64e0ed21edcc2"
          ],
          "data": "0x0000000000000000000000000000000000000000000000002bef17f447465a00",
          "blockHash": "0xc4613ea9de7682d05b946cd1c7f98b7d6d629d184d0d5b53735eff868d24e396",
          "blockNumber": "0xdca19",
          "transactionHash": "0xc003453718d37146857c224fd30b89c8a4194f58ada95acc1372ebd0e0e4d671",
          "transactionIndex": "0x1",
          "logIndex": "0x5c",
          "removed": false
        },
        {
          "address": "0x010700808d59d2bb92257fcafacfe8e5bff7ab87",
          "topics": [
            "0xdec2bacdd2f05b59de34da9b523dff8be42e5e38e818c82fdb0bae774387a724",
            "0x0000000000000000000000006f837c207925400f246bca336eb64e0ed21edcc2"
          ],
          "data": "0x0000000000000000000000000000000000000000000000000f66342d4a34981a0000000000000000000000000000000000000000000000003b554c21917af21a",
          "blockHash": "0xc4613ea9de7682d05b946cd1c7f98b7d6d629d184d0d5b53735eff868d24e396",
          "blockNumber": "0xdca19",
          "transactionHash": "0xc003453718d37146857c224fd30b89c8a4194f58ada95acc1372ebd0e0e4d671",
          "transactionIndex": "0x1",
          "logIndex": "0x5d",
          "removed": false
        },
        {
          "address": "0x010700808d59d2bb92257fcafacfe8e5bff7ab87",
          "topics": [
            "0xddf252ad1be2c89b69c2b068fc378daa952ba7f163c4a11628f55a4df523b3ef",
            "0x0000000000000000000000000000000000000000000000000000000000000000",
            "0x000000000000000000000000bf54d351e38da7d755359fabf89e8864fd0377cb"
          ],
          "data": "0x0000000000000000000000000000000000000000000000002bbf98ef20f26a00",
          "blockHash": "0xc4613ea9de7682d05b946cd1c7f98b7d6d629d184d0d5b53735eff868d24e396",
          "blockNumber": "0xdca19",
          "transactionHash": "0xc003453718d37146857c224fd30b89c8a4194f58ada95acc1372ebd0e0e4d671",
          "transactionIndex": "0x1",
          "logIndex": "0x5e",
          "removed": false
        },
        {
          "address": "0x010700808d59d2bb92257fcafacfe8e5bff7ab87",
          "topics": [
            "0xdec2bacdd2f05b59de34da9b523dff8be42e5e38e818c82fdb0bae774387a724",
            "0x000000000000000000000000bf54d351e38da7d755359fabf89e8864fd0377cb"
          ],
          "data": "0x0000000000000000000000000000000000000000000000000f442058484cd6c40000000000000000000000000000000000000000000000003b03b947693f40c4",
          "blockHash": "0xc4613ea9de7682d05b946cd1c7f98b7d6d629d184d0d5b53735eff868d24e396",
          "blockNumber": "0xdca19",
          "transactionHash": "0xc003453718d37146857c224fd30b89c8a4194f58ada95acc1372ebd0e0e4d671",
          "transactionIndex": "0x1",
          "logIndex": "0x5f",
          "removed": false
        },
        {
          "address": "0x010700808d59d2bb92257fcafacfe8e5bff7ab87",
          "topics": [
            "0xddf252ad1be2c89b69c2b068fc378daa952ba7f163c4a11628f55a4df523b3ef",
            "0x0000000000000000000000000000000000000000000000000000000000000000",
            "0x000000000000000000000000548719fba49b4af6ea1fb5ab7e806a934e408f5e"
          ],
          "data": "0x0000000000000000000000000000000000000000000000002a2be1435b28f200",
          "blockHash": "0xc4613ea9de7682d05b946cd1c7f98b7d6d629d184d0d5b53735eff868d24e396",
          "blockNumber": "0xdca19",
          "transactionHash": "0xc003453718d37146857c224fd30b89c8a4194f58ada95acc1372ebd0e0e4d671",
          "transactionIndex": "0x1",
          "logIndex": "0x60",
          "removed": false
        },
        {
          "address": "0x010700808d59d2bb92257fcafacfe8e5bff7ab87",
          "topics": [
            "0xdec2bacdd2f05b59de34da9b523dff8be42e5e38e818c82fdb0bae774387a724",
            "0x000000000000000000000000548719fba49b4af6ea1fb5ab7e806a934e408f5e"
          ],
          "data": "0x00000000000000000000000000000000000000000000000000005dbd2d6155060000000000000000000000000000000000000000000000002a2c3f00888a4706",
          "blockHash": "0xc4613ea9de7682d05b946cd1c7f98b7d6d629d184d0d5b53735eff868d24e396",
          "blockNumber": "0xdca19",
          "transactionHash": "0xc003453718d37146857c224fd30b89c8a4194f58ada95acc1372ebd0e0e4d671",
          "transactionIndex": "0x1",
          "logIndex": "0x61",
          "removed": false
        },
        {
          "address": "0x010700808d59d2bb92257fcafacfe8e5bff7ab87",
          "topics": [
            "0xddf252ad1be2c89b69c2b068fc378daa952ba7f163c4a11628f55a4df523b3ef",
            "0x0000000000000000000000000000000000000000000000000000000000000000",
            "0x0000000000000000000000000b475e5f6ef7b2f840ff43d8d564205a1e5ed84a"
          ],
          "data": "0x000000000000000000000000000000000000000000000000277b2f78eb02a400",
          "blockHash": "0xc4613ea9de7682d05b946cd1c7f98b7d6d629d184d0d5b53735eff868d24e396",
          "blockNumber": "0xdca19",
          "transactionHash": "0xc003453718d37146857c224fd30b89c8a4194f58ada95acc1372ebd0e0e4d671",
          "transactionIndex": "0x1",
          "logIndex": "0x62",
          "removed": false
        },
        {
          "address": "0x010700808d59d2bb92257fcafacfe8e5bff7ab87",
          "topics": [
            "0xdec2bacdd2f05b59de34da9b523dff8be42e5e38e818c82fdb0bae774387a724",
            "0x0000000000000000000000000b475e5f6ef7b2f840ff43d8d564205a1e5ed84a"
          ],
          "data": "0x0000000000000000000000000000000000000000000000019bef8ad6f18f7fbe000000000000000000000000000000000000000000000001c36aba4fdc9223be",
          "blockHash": "0xc4613ea9de7682d05b946cd1c7f98b7d6d629d184d0d5b53735eff868d24e396",
          "blockNumber": "0xdca19",
          "transactionHash": "0xc003453718d37146857c224fd30b89c8a4194f58ada95acc1372ebd0e0e4d671",
          "transactionIndex": "0x1",
          "logIndex": "0x63",
          "removed": false
        },
        {
          "address": "0x010700808d59d2bb92257fcafacfe8e5bff7ab87",
          "topics": [
            "0xddf252ad1be2c89b69c2b068fc378daa952ba7f163c4a11628f55a4df523b3ef",
            "0x0000000000000000000000000000000000000000000000000000000000000000",
            "0x00000000000000000000000031b2dda4b9b16d092af34b684d6b0cb2eb5f3bb5"
          ],
          "data": "0x00000000000000000000000000000000000000000000000026f632375869c600",
          "blockHash": "0xc4613ea9de7682d05b946cd1c7f98b7d6d629d184d0d5b53735eff868d24e396",
          "blockNumber": "0xdca19",
          "transactionHash": "0xc003453718d37146857c224fd30b89c8a4194f58ada95acc1372ebd0e0e4d671",
          "transactionIndex": "0x1",
          "logIndex": "0x64",
          "removed": false
        },
        {
          "address": "0x010700808d59d2bb92257fcafacfe8e5bff7ab87",
          "topics": [
            "0xddf252ad1be2c89b69c2b068fc378daa952ba7f163c4a11628f55a4df523b3ef",
            "0x0000000000000000000000000000000000000000000000000000000000000000",
            "0x0000000000000000000000001c95ab93f8971cc774b27c39ee3561fa335bddee"
          ],
          "data": "0x00000000000000000000000000000000000000000000000038375715567cce00",
          "blockHash": "0xc4613ea9de7682d05b946cd1c7f98b7d6d629d184d0d5b53735eff868d24e396",
          "blockNumber": "0xdca19",
          "transactionHash": "0xc003453718d37146857c224fd30b89c8a4194f58ada95acc1372ebd0e0e4d671",
          "transactionIndex": "0x1",
          "logIndex": "0x65",
          "removed": false
        },
        {
          "address": "0x010700808d59d2bb92257fcafacfe8e5bff7ab87",
          "topics": [
            "0xdec2bacdd2f05b59de34da9b523dff8be42e5e38e818c82fdb0bae774387a724",
            "0x0000000000000000000000001c95ab93f8971cc774b27c39ee3561fa335bddee"
          ],
          "data": "0x00000000000000000000000000000000000000000000000d11bc92eea4439c4300000000000000000000000000000000000000000000000d49f3ea03fac06a43",
          "blockHash": "0xc4613ea9de7682d05b946cd1c7f98b7d6d629d184d0d5b53735eff868d24e396",
          "blockNumber": "0xdca19",
          "transactionHash": "0xc003453718d37146857c224fd30b89c8a4194f58ada95acc1372ebd0e0e4d671",
          "transactionIndex": "0x1",
          "logIndex": "0x66",
          "removed": false
        },
        {
          "address": "0x010700808d59d2bb92257fcafacfe8e5bff7ab87",
          "topics": [
            "0xddf252ad1be2c89b69c2b068fc378daa952ba7f163c4a11628f55a4df523b3ef",
            "0x0000000000000000000000000000000000000000000000000000000000000000",
            "0x0000000000000000000000007534657adac296fcfbe16bd08af258e33bee017a"
          ],
          "data": "0x000000000000000000000000000000000000000000000000251b3c03d9226600",
          "blockHash": "0xc4613ea9de7682d05b946cd1c7f98b7d6d629d184d0d5b53735eff868d24e396",
          "blockNumber": "0xdca19",
          "transactionHash": "0xc003453718d37146857c224fd30b89c8a4194f58ada95acc1372ebd0e0e4d671",
          "transactionIndex": "0x1",
          "logIndex": "0x67",
          "removed": false
        },
        {
          "address": "0x010700808d59d2bb92257fcafacfe8e5bff7ab87",
          "topics": [
            "0xdec2bacdd2f05b59de34da9b523dff8be42e5e38e818c82fdb0bae774387a724",
            "0x0000000000000000000000007534657adac296fcfbe16bd08af258e33bee017a"
          ],
          "data": "0x00000000000000000000000000000000000000000000000000006d5d748895a8000000000000000000000000000000000000000000000000251ba9614daafba8",
          "blockHash": "0xc4613ea9de7682d05b946cd1c7f98b7d6d629d184d0d5b53735eff868d24e396",
          "blockNumber": "0xdca19",
          "transactionHash": "0xc003453718d37146857c224fd30b89c8a4194f58ada95acc1372ebd0e0e4d671",
          "transactionIndex": "0x1",
          "logIndex": "0x68",
          "removed": false
        },
        {
          "address": "0x010700808d59d2bb92257fcafacfe8e5bff7ab87",
          "topics": [
            "0xddf252ad1be2c89b69c2b068fc378daa952ba7f163c4a11628f55a4df523b3ef",
            "0x0000000000000000000000000000000000000000000000000000000000000000",
            "0x000000000000000000000000e2d3c5c99994c16faf4e1fdf1fc23ca4cfc1ef42"
          ],
          "data": "0x000000000000000000000000000000000000000000000000251b3c03d9226600",
          "blockHash": "0xc4613ea9de7682d05b946cd1c7f98b7d6d629d184d0d5b53735eff868d24e396",
          "blockNumber": "0xdca19",
          "transactionHash": "0xc003453718d37146857c224fd30b89c8a4194f58ada95acc1372ebd0e0e4d671",
          "transactionIndex": "0x1",
          "logIndex": "0x69",
          "removed": false
        },
        {
          "address": "0x010700808d59d2bb92257fcafacfe8e5bff7ab87",
          "topics": [
            "0xdec2bacdd2f05b59de34da9b523dff8be42e5e38e818c82fdb0bae774387a724",
            "0x000000000000000000000000e2d3c5c99994c16faf4e1fdf1fc23ca4cfc1ef42"
          ],
          "data": "0x00000000000000000000000000000000000000000000000120814478b461fab4000000000000000000000000000000000000000000000001459c807c8d8460b4",
          "blockHash": "0xc4613ea9de7682d05b946cd1c7f98b7d6d629d184d0d5b53735eff868d24e396",
          "blockNumber": "0xdca19",
          "transactionHash": "0xc003453718d37146857c224fd30b89c8a4194f58ada95acc1372ebd0e0e4d671",
          "transactionIndex": "0x1",
          "logIndex": "0x6a",
          "removed": false
        },
        {
          "address": "0x010700808d59d2bb92257fcafacfe8e5bff7ab87",
          "topics": [
            "0xddf252ad1be2c89b69c2b068fc378daa952ba7f163c4a11628f55a4df523b3ef",
            "0x0000000000000000000000000000000000000000000000000000000000000000",
            "0x000000000000000000000000c8477ae5edd9dc7de588a46f47ee0c391e59b600"
          ],
          "data": "0x00000000000000000000000000000000000000000000000016438a68cd528e00",
          "blockHash": "0xc4613ea9de7682d05b946cd1c7f98b7d6d629d184d0d5b53735eff868d24e396",
          "blockNumber": "0xdca19",
          "transactionHash": "0xc003453718d37146857c224fd30b89c8a4194f58ada95acc1372ebd0e0e4d671",
          "transactionIndex": "0x1",
          "logIndex": "0x6b",
          "removed": false
        },
        {
          "address": "0x010700808d59d2bb92257fcafacfe8e5bff7ab87",
          "topics": [
            "0xdec2bacdd2f05b59de34da9b523dff8be42e5e38e818c82fdb0bae774387a724",
            "0x000000000000000000000000c8477ae5edd9dc7de588a46f47ee0c391e59b600"
          ],
          "data": "0x00000000000000000000000000000000000000000000000000004975384883b90000000000000000000000000000000000000000000000001643d3de059b11b9",
          "blockHash": "0xc4613ea9de7682d05b946cd1c7f98b7d6d629d184d0d5b53735eff868d24e396",
          "blockNumber": "0xdca19",
          "transactionHash": "0xc003453718d37146857c224fd30b89c8a4194f58ada95acc1372ebd0e0e4d671",
          "transactionIndex": "0x1",
          "logIndex": "0x6c",
          "removed": false
        },
        {
          "address": "0x2843c269d2a64ecfa63548e8b3fc0fd23b7f70cb",
          "topics": [
            "0x49628fd1471006c1482da88028e9ce4dbb080b815c9b0344d39e5a8e6ec1419f",
            "0x9ddd66908da18a1dfa4889cd875d721868dcd0149e294140d59c23df022709e4",
            "0x0000000000000000000000002e2b1c42e38f5af81771e65d87729e57abd1337a",
            "0x0000000000000000000000000000000000000000000000000000000000000000"
          ],
          "data": "0x0000000000000000000000000000000000000000000000000000000000001433000000000000000000000000000000000000000000000000000000000000000100000000000000000000000000000000000000000000000000000000002905730000000000000000000000000000000000000000000000000000000000290573",
          "blockHash": "0xc4613ea9de7682d05b946cd1c7f98b7d6d629d184d0d5b53735eff868d24e396",
          "blockNumber": "0xdca19",
          "transactionHash": "0xc003453718d37146857c224fd30b89c8a4194f58ada95acc1372ebd0e0e4d671",
          "transactionIndex": "0x1",
          "logIndex": "0x6d",
          "removed": false
        }
      ],
      "logsBloom": "0x000021041004000000000000403800100002402000a00000882404008018020000082101008803002020008300000100008801000400000000000a000011040500010092000400001100001c080001048080400402900000101000210400002800004002024000400840000002010a0018200141480000000000401024000800000080000000001000080040004280090200000000400000000000000040000104540800042100200860020040100004000000200020900084000290a000010584020002124a00100c010420810000000024009200200000800800040100280000000000010124002000908006808420000a4060021084000200800800000000",
      "type": "0x2",
      "transactionHash": "0xc003453718d37146857c224fd30b89c8a4194f58ada95acc1372ebd0e0e4d671",
      "transactionIndex": "0x1",
      "blockHash": "0xc4613ea9de7682d05b946cd1c7f98b7d6d629d184d0d5b53735eff868d24e396",
      "blockNumber": "0xdca19",
      "gasUsed": "0x43243b",
      "effectiveGasPrice": "0x5f5e100",
      "from": "0x660ad4b5a74130a4796b4d54bc6750ae93c86e6c",
      "to": "0x2843c269d2a64ecfa63548e8b3fc0fd23b7f70cb",
      "contractAddress": null,
      "gasUsedForL1": "0x1b93cf",
      "l1BlockNumber": "0x15e96d4"
    }
  ],
  "libraries": [],
  "pending": [],
  "returns": {},
  "timestamp": 1753205364,
  "chain": 7887,
  "commit": "2f99a2d3"
}