{
  "transactions": [
    {
      "hash": "0x8493513d1dc09e2b29065c7d6289385f1bd48d4f0e535626c8799d7ae6289d03",
      "transactionType": "CALL",
      "contractName": null,
      "contractAddress": "0x2843c269d2a64ecfa63548e8b3fc0fd23b7f70cb",
      "function": "handleOps((address,uint256,bytes,bytes,uint256,uint256,uint256,uint256,uint256,bytes,bytes)[],address)",
      "arguments": [
        "[(0x2e2B1c42E38f5af81771e65D87729E57ABD1337a, 5149, 0x, 0xb61d27f6000000000000000000000000010700808d59d2bb92257fcafacfe8e5bff7ab870000000000000000000000000000000000000000000000000000000000000000000000000000000000000000000000000000000000000000000000000000006000000000000000000000000000000000000000000000000000000000000008444a6cc67700000000000000000000000000000000000000000000000000000000000000400000000000000000000000000000000000000000000000000000000000000440000000000000000000000000000000000000000000000000000000000000001f0000000000000000000000003dff091f993bc44f96d304243b6cd05d93b26b62000000000000000000000000717243c43874d7fbbc6d7f343b977e8a08e8ab74000000000000000000000000d8511cedbf108a50fdf429a08e55e49356890169000000000000000000000000a62c037582c28a51e5611303280f3e7352fee8ad0000000000000000000000005bf8370897c549fc746834bcbaf5866c9f09f6020000000000000000000000008e7ee117bd41dd5ca6a76f215b3ac6ea040d7dd9000000000000000000000000a8317e15999d79640d1e4bb0975fa77ebd94e67100000000000000000000000022b72ea718c11e780ad293113a9c921bbcb3e4e100000000000000000000000093f96a75cd46af34121266756edb99878070701c0000000000000000000000002fff680e91cc24602429944dd3c0acfe115d749b00000000000000000000000098ca1fb488c76337c4aef26eff0a7c9d886f61040000000000000000000000000d12dd469d710a910d053fe6b04cd37875baa33500000000000000000000000001b46ce63fadcde524998d9387c6c2cfe9d9a3ce0000000000000000000000001fab6ffaf7ba08f47e8fa7f1e79b1c816beeddd1000000000000000000000000272244338d0034d45eb59e56e3cc5bc2b7a9f9ff000000000000000000000000040e5b7bba58b87283bea12136717f21a300685e00000000000000000000000063fa661c8b1f85dd7b9f66fbdad4c4fa7fe97e0000000000000000000000000057ae483fcc306d8c71e771a4fbc14605bf8347bb000000000000000000000000cf1b41b446be154b1539d251fb31fb906c186481000000000000000000000000937120ecb7576bf60c79c2c68ec32c6b489148fe000000000000000000000000b0a2b3e4469277bac8e773be4cdae009848fba42000000000000000000000000bf54d351e38da7d755359fabf89e8864fd0377cb000000000000000000000000342cb256218eff45705f023352b433659c566185000000000000000000000000e403173f8dcba7339b56d940dcd73c5cb29b1526000000000000000000000000babbab46d33d4c24474b83c484228d3b618b30f0000000000000000000000000b43862cdc00bfef7ca9e7447a017af8f230a9bc300000000000000000000000036f12da92c05ac7e266761999a0fe336c559beb80000000000000000000000007f26e00d5e13d016e1bcfbc680cfacf7a6744e1400000000000000000000000076b2e9a5a3a81f302dbb160e88397175f315bc61000000000000000000000000a5c646a304c88051ca8521d8170520e807a88260000000000000000000000000e847c816b99eb3f7f380b1b377c4c446743666d5000000000000000000000000000000000000000000000000000000000000001f00000000000000000000000000000000000000000000000010cd71eae12cff800000000000000000000000000000000000000000000000000614fabb8ce7ce78000000000000000000000000000000000000000000000000036c29c30f40b8a00000000000000000000000000000000000000000000000032e7c3451e74c64c00000000000000000000000000000000000000000000000000250ecd743f2fcb00000000000000000000000000000000000000000000000000ea8cc973ff6379000000000000000000000000000000000000000000000000013183a2b01713e5000000000000000000000000000000000000000000000000039f4b975017cca00000000000000000000000000000000000000000000000002623f0d719c8a7f0000000000000000000000000000000000000000000000000004630452e39f7fa80000000000000000000000000000000000000000000000006dd88b3ce8c5c320000000000000000000000000000000000000000000000000016d48e9f6207eb00000000000000000000000000000000000000000000000000303a48258416fd800000000000000000000000000000000000000000000000005fcbbb7c2b46ad000000000000000000000000000000000000000000000000171757a259a76a30000000000000000000000000000000000000000000000000116b615d5394758a00000000000000000000000000000000000000000000000049401413343390700000000000000000000000000000000000000000000000005ff751e05dd6b6040000000000000000000000000000000000000000000000000027d52b7849d6828000000000000000000000000000000000000000000000000046c3c9cce611ff80000000000000000000000000000000000000000000000015f921471e5e34c800000000000000000000000000000000000000000000000017406606fc6774e00000000000000000000000000000000000000000000000000e74be50790801fa0000000000000000000000000000000000000000000000000908f6f24ba4f1fa00000000000000000000000000000000000000000000000013b59819ce93b31000000000000000000000000000000000000000000000000000dbd10698f710f3800000000000000000000000000000000000000000000000002493846280adee8000000000000000000000000000000000000000000000000227dcec53221fff0000000000000000000000000000000000000000000000000156f685ca83c6620000000000000000000000000000000000000000000000001d4564dcd79376b600000000000000000000000000000000000000000000000012621fd74ec02b96000000000000000000000000000000000000000000000000000000000, 4000000, 210000, 21000, 1, 1000000000, 0x0000000000000000000000000000000000000000, 0xddf3bb18da3c0ebfefaecf272e42febb0a3ad069addc531f2df87c5ff46ac106091d915273a7abbe5bb73db9d898f9d8626a3539bc23fa6d83ebeb4f1ed3e13e1bea769c5a0fb653a8ea9a87288ceacee331dd840ead3375ce186df62b7fde97942509ae70b38ada7cf659ec9805657613fb99537a9c240d6cca7bf54be30568861b)]",
        "0x660ad4B5A74130a4796B4d54BC6750Ae93C86e6c"
      ],
      "transaction": {
        "from": "0x660ad4b5a74130a4796b4d54bc6750ae93c86e6c",
        "to": "0x2843c269d2a64ecfa63548e8b3fc0fd23b7f70cb",
        "value": "0x0",
        "input": "0x1fad948c0000000000000000000000000000000000000000000000000000000000000040000000000000000000000000660ad4b5a74130a4796b4d54bc6750ae93c86e6c000000000000000000000000000000000000000000000000000000000000000100000000000000000000000000000000000000000000000000000000000000200000000000000000000000002e2b1c42e38f5af81771e65d87729e57abd1337a000000000000000000000000000000000000000000000000000000000000141d0000000000000000000000000000000000000000000000000000000000000160000000000000000000000000000000000000000000000000000000000000018000000000000000000000000000000000000000000000000000000000003d0900000000000000000000000000000000000000000000000000000000000003345000000000000000000000000000000000000000000000000000000000000052080000000000000000000000000000000000000000000000000000000000000001000000000000000000000000000000000000000000000000000000003b9aca000000000000000000000000000000000000000000000000000000000000000aa00000000000000000000000000000000000000000000000000000000000000ae0000000000000000000000000000000000000000000000000000000000000000000000000000000000000000000000000000000000000000000000000000008e4b61d27f6000000000000000000000000010700808d59d2bb92257fcafacfe8e5bff7ab870000000000000000000000000000000000000000000000000000000000000000000000000000000000000000000000000000000000000000000000000000006000000000000000000000000000000000000000000000000000000000000008444a6cc67700000000000000000000000000000000000000000000000000000000000000400000000000000000000000000000000000000000000000000000000000000440000000000000000000000000000000000000000000000000000000000000001f0000000000000000000000003dff091f993bc44f96d304243b6cd05d93b26b62000000000000000000000000717243c43874d7fbbc6d7f343b977e8a08e8ab74000000000000000000000000d8511cedbf108a50fdf429a08e55e49356890169000000000000000000000000a62c037582c28a51e5611303280f3e7352fee8ad0000000000000000000000005bf8370897c549fc746834bcbaf5866c9f09f6020000000000000000000000008e7ee117bd41dd5ca6a76f215b3ac6ea040d7dd9000000000000000000000000a8317e15999d79640d1e4bb0975fa77ebd94e67100000000000000000000000022b72ea718c11e780ad293113a9c921bbcb3e4e100000000000000000000000093f96a75cd46af34121266756edb99878070701c0000000000000000000000002fff680e91cc24602429944dd3c0acfe115d749b00000000000000000000000098ca1fb488c76337c4aef26eff0a7c9d886f61040000000000000000000000000d12dd469d710a910d053fe6b04cd37875baa33500000000000000000000000001b46ce63fadcde524998d9387c6c2cfe9d9a3ce0000000000000000000000001fab6ffaf7ba08f47e8fa7f1e79b1c816beeddd1000000000000000000000000272244338d0034d45eb59e56e3cc5bc2b7a9f9ff000000000000000000000000040e5b7bba58b87283bea12136717f21a300685e00000000000000000000000063fa661c8b1f85dd7b9f66fbdad4c4fa7fe97e0000000000000000000000000057ae483fcc306d8c71e771a4fbc14605bf8347bb000000000000000000000000cf1b41b446be154b1539d251fb31fb906c186481000000000000000000000000937120ecb7576bf60c79c2c68ec32c6b489148fe000000000000000000000000b0a2b3e4469277bac8e773be4cdae009848fba42000000000000000000000000bf54d351e38da7d755359fabf89e8864fd0377cb000000000000000000000000342cb256218eff45705f023352b433659c566185000000000000000000000000e403173f8dcba7339b56d940dcd73c5cb29b1526000000000000000000000000babbab46d33d4c24474b83c484228d3b618b30f0000000000000000000000000b43862cdc00bfef7ca9e7447a017af8f230a9bc300000000000000000000000036f12da92c05ac7e266761999a0fe336c559beb80000000000000000000000007f26e00d5e13d016e1bcfbc680cfacf7a6744e1400000000000000000000000076b2e9a5a3a81f302dbb160e88397175f315bc61000000000000000000000000a5c646a304c88051ca8521d8170520e807a88260000000000000000000000000e847c816b99eb3f7f380b1b377c4c446743666d5000000000000000000000000000000000000000000000000000000000000001f00000000000000000000000000000000000000000000000010cd71eae12cff800000000000000000000000000000000000000000000000000614fabb8ce7ce78000000000000000000000000000000000000000000000000036c29c30f40b8a00000000000000000000000000000000000000000000000032e7c3451e74c64c00000000000000000000000000000000000000000000000000250ecd743f2fcb00000000000000000000000000000000000000000000000000ea8cc973ff6379000000000000000000000000000000000000000000000000013183a2b01713e5000000000000000000000000000000000000000000000000039f4b975017cca00000000000000000000000000000000000000000000000002623f0d719c8a7f0000000000000000000000000000000000000000000000000004630452e39f7fa80000000000000000000000000000000000000000000000006dd88b3ce8c5c320000000000000000000000000000000000000000000000000016d48e9f6207eb00000000000000000000000000000000000000000000000000303a48258416fd800000000000000000000000000000000000000000000000005fcbbb7c2b46ad000000000000000000000000000000000000000000000000171757a259a76a30000000000000000000000000000000000000000000000000116b615d5394758a00000000000000000000000000000000000000000000000049401413343390700000000000000000000000000000000000000000000000005ff751e05dd6b6040000000000000000000000000000000000000000000000000027d52b7849d6828000000000000000000000000000000000000000000000000046c3c9cce611ff80000000000000000000000000000000000000000000000015f921471e5e34c800000000000000000000000000000000000000000000000017406606fc6774e00000000000000000000000000000000000000000000000000e74be50790801fa0000000000000000000000000000000000000000000000000908f6f24ba4f1fa00000000000000000000000000000000000000000000000013b59819ce93b31000000000000000000000000000000000000000000000000000dbd10698f710f3800000000000000000000000000000000000000000000000002493846280adee8000000000000000000000000000000000000000000000000227dcec53221fff0000000000000000000000000000000000000000000000000156f685ca83c6620000000000000000000000000000000000000000000000001d4564dcd79376b600000000000000000000000000000000000000000000000012621fd74ec02b9600000000000000000000000000000000000000000000000000000000000000000000000000000000000000000000000000000000000000000000000000000000000000000000000000000000000000000000000000000001400000000000000000000000000000000000000000000000000000000000000000000000000000000000000000000000000000000000000000000000000000082ddf3bb18da3c0ebfefaecf272e42febb0a3ad069addc531f2df87c5ff46ac106091d915273a7abbe5bb73db9d898f9d8626a3539bc23fa6d83ebeb4f1ed3e13e1bea769c5a0fb653a8ea9a87288ceacee331dd840ead3375ce186df62b7fde97942509ae70b38ada7cf659ec9805657613fb99537a9c240d6cca7bf54be30568861b000000000000000000000000000000000000000000000000000000000000",
        "nonce": "0x4c00d",
        "chainId": "0x1ecf"
      },
      "additionalContracts": [],
      "isFixedGasLimit": false
    }
  ],
  "receipts": [
    {
      "status": "0x1",
      "cumulativeGasUsed": "0x1cc1d8",
      "logs": [
        {
          "address": "0x2843c269d2a64ecfa63548e8b3fc0fd23b7f70cb",
          "topics": [
            "0xbb47ee3e183a558b1a2ff0874b079f3fc5478b7454eacf2bfc5af2ff5878f972"
          ],
          "data": "0x",
          "blockHash": "0x8e8c5c08bf52ef4b2c17c21fa44d1771b75b80365d508597a91b4a2a4f141257",
          "blockNumber": "0xdc590",
          "transactionHash": "0x8493513d1dc09e2b29065c7d6289385f1bd48d4f0e535626c8799d7ae6289d03",
          "transactionIndex": "0x1",
          "logIndex": "0x0",
          "removed": false
        },
        {
          "address": "0x010700808d59d2bb92257fcafacfe8e5bff7ab87",
          "topics": [
            "0xddf252ad1be2c89b69c2b068fc378daa952ba7f163c4a11628f55a4df523b3ef",
            "0x0000000000000000000000003dff091f993bc44f96d304243b6cd05d93b26b62",
            "0x0000000000000000000000000000000000000000000000000000000000000000"
          ],
          "data": "0x00000000000000000000000000000000000000000000000010cd71eae12cff80",
          "blockHash": "0x8e8c5c08bf52ef4b2c17c21fa44d1771b75b80365d508597a91b4a2a4f141257",
          "blockNumber": "0xdc590",
          "transactionHash": "0x8493513d1dc09e2b29065c7d6289385f1bd48d4f0e535626c8799d7ae6289d03",
          "transactionIndex": "0x1",
          "logIndex": "0x1",
          "removed": false
        },
        {
          "address": "0x010700808d59d2bb92257fcafacfe8e5bff7ab87",
          "topics": [
            "0xddf252ad1be2c89b69c2b068fc378daa952ba7f163c4a11628f55a4df523b3ef",
            "0x000000000000000000000000717243c43874d7fbbc6d7f343b977e8a08e8ab74",
            "0x0000000000000000000000000000000000000000000000000000000000000000"
          ],
          "data": "0x0000000000000000000000000000000000000000000000000614fabb8ce7ce78",
          "blockHash": "0x8e8c5c08bf52ef4b2c17c21fa44d1771b75b80365d508597a91b4a2a4f141257",
          "blockNumber": "0xdc590",
          "transactionHash": "0x8493513d1dc09e2b29065c7d6289385f1bd48d4f0e535626c8799d7ae6289d03",
          "transactionIndex": "0x1",
          "logIndex": "0x2",
          "removed": false
        },
        {
          "address": "0x010700808d59d2bb92257fcafacfe8e5bff7ab87",
          "topics": [
            "0xddf252ad1be2c89b69c2b068fc378daa952ba7f163c4a11628f55a4df523b3ef",
            "0x000000000000000000000000d8511cedbf108a50fdf429a08e55e49356890169",
            "0x0000000000000000000000000000000000000000000000000000000000000000"
          ],
          "data": "0x000000000000000000000000000000000000000000000000036c29c30f40b8a0",
          "blockHash": "0x8e8c5c08bf52ef4b2c17c21fa44d1771b75b80365d508597a91b4a2a4f141257",
          "blockNumber": "0xdc590",
          "transactionHash": "0x8493513d1dc09e2b29065c7d6289385f1bd48d4f0e535626c8799d7ae6289d03",
          "transactionIndex": "0x1",
          "logIndex": "0x3",
          "removed": false
        },
        {
          "address": "0x010700808d59d2bb92257fcafacfe8e5bff7ab87",
          "topics": [
            "0xdec2bacdd2f05b59de34da9b523dff8be42e5e38e818c82fdb0bae774387a724",
            "0x000000000000000000000000d8511cedbf108a50fdf429a08e55e49356890169"
          ],
          "data": "0x000000000000000000000000000000000000000000000000036c53f53a908b5500000000000000000000000000000000000000000000000000002a322b4fd2b5",
          "blockHash": "0x8e8c5c08bf52ef4b2c17c21fa44d1771b75b80365d508597a91b4a2a4f141257",
          "blockNumber": "0xdc590",
          "transactionHash": "0x8493513d1dc09e2b29065c7d6289385f1bd48d4f0e535626c8799d7ae6289d03",
          "transactionIndex": "0x1",
          "logIndex": "0x4",
          "removed": false
        },
        {
          "address": "0x010700808d59d2bb92257fcafacfe8e5bff7ab87",
          "topics": [
            "0xddf252ad1be2c89b69c2b068fc378daa952ba7f163c4a11628f55a4df523b3ef",
            "0x000000000000000000000000a62c037582c28a51e5611303280f3e7352fee8ad",
            "0x0000000000000000000000000000000000000000000000000000000000000000"
          ],
          "data": "0x0000000000000000000000000000000000000000000000032e7c3451e74c64c0",
          "blockHash": "0x8e8c5c08bf52ef4b2c17c21fa44d1771b75b80365d508597a91b4a2a4f141257",
          "blockNumber": "0xdc590",
          "transactionHash": "0x8493513d1dc09e2b29065c7d6289385f1bd48d4f0e535626c8799d7ae6289d03",
          "transactionIndex": "0x1",
          "logIndex": "0x5",
          "removed": false
        },
        {
          "address": "0x010700808d59d2bb92257fcafacfe8e5bff7ab87",
          "topics": [
            "0xddf252ad1be2c89b69c2b068fc378daa952ba7f163c4a11628f55a4df523b3ef",
            "0x0000000000000000000000005bf8370897c549fc746834bcbaf5866c9f09f602",
            "0x0000000000000000000000000000000000000000000000000000000000000000"
          ],
          "data": "0x0000000000000000000000000000000000000000000000000250ecd743f2fcb0",
          "blockHash": "0x8e8c5c08bf52ef4b2c17c21fa44d1771b75b80365d508597a91b4a2a4f141257",
          "blockNumber": "0xdc590",
          "transactionHash": "0x8493513d1dc09e2b29065c7d6289385f1bd48d4f0e535626c8799d7ae6289d03",
          "transactionIndex": "0x1",
          "logIndex": "0x6",
          "removed": false
        },
        {
          "address": "0x010700808d59d2bb92257fcafacfe8e5bff7ab87",
          "topics": [
            "0xddf252ad1be2c89b69c2b068fc378daa952ba7f163c4a11628f55a4df523b3ef",
            "0x0000000000000000000000008e7ee117bd41dd5ca6a76f215b3ac6ea040d7dd9",
            "0x0000000000000000000000000000000000000000000000000000000000000000"
          ],
          "data": "0x0000000000000000000000000000000000000000000000000ea8cc973ff63790",
          "blockHash": "0x8e8c5c08bf52ef4b2c17c21fa44d1771b75b80365d508597a91b4a2a4f141257",
          "blockNumber": "0xdc590",
          "transactionHash": "0x8493513d1dc09e2b29065c7d6289385f1bd48d4f0e535626c8799d7ae6289d03",
          "transactionIndex": "0x1",
          "logIndex": "0x7",
          "removed": false
        },
        {
          "address": "0x010700808d59d2bb92257fcafacfe8e5bff7ab87",
          "topics": [
            "0xddf252ad1be2c89b69c2b068fc378daa952ba7f163c4a11628f55a4df523b3ef",
            "0x000000000000000000000000a8317e15999d79640d1e4bb0975fa77ebd94e671",
            "0x0000000000000000000000000000000000000000000000000000000000000000"
          ],
          "data": "0x00000000000000000000000000000000000000000000000013183a2b01713e50",
          "blockHash": "0x8e8c5c08bf52ef4b2c17c21fa44d1771b75b80365d508597a91b4a2a4f141257",
          "blockNumber": "0xdc590",
          "transactionHash": "0x8493513d1dc09e2b29065c7d6289385f1bd48d4f0e535626c8799d7ae6289d03",
          "transactionIndex": "0x1",
          "logIndex": "0x8",
          "removed": false
        },
        {
          "address": "0x010700808d59d2bb92257fcafacfe8e5bff7ab87",
          "topics": [
            "0xddf252ad1be2c89b69c2b068fc378daa952ba7f163c4a11628f55a4df523b3ef",
            "0x00000000000000000000000022b72ea718c11e780ad293113a9c921bbcb3e4e1",
            "0x0000000000000000000000000000000000000000000000000000000000000000"
          ],
          "data": "0x00000000000000000000000000000000000000000000000039f4b975017cca00",
          "blockHash": "0x8e8c5c08bf52ef4b2c17c21fa44d1771b75b80365d508597a91b4a2a4f141257",
          "blockNumber": "0xdc590",
          "transactionHash": "0x8493513d1dc09e2b29065c7d6289385f1bd48d4f0e535626c8799d7ae6289d03",
          "transactionIndex": "0x1",
          "logIndex": "0x9",
          "removed": false
        },
        {
          "address": "0x010700808d59d2bb92257fcafacfe8e5bff7ab87",
          "topics": [
            "0xddf252ad1be2c89b69c2b068fc378daa952ba7f163c4a11628f55a4df523b3ef",
            "0x00000000000000000000000093f96a75cd46af34121266756edb99878070701c",
            "0x0000000000000000000000000000000000000000000000000000000000000000"
          ],
          "data": "0x000000000000000000000000000000000000000000000002623f0d719c8a7f00",
          "blockHash": "0x8e8c5c08bf52ef4b2c17c21fa44d1771b75b80365d508597a91b4a2a4f141257",
          "blockNumber": "0xdc590",
          "transactionHash": "0x8493513d1dc09e2b29065c7d6289385f1bd48d4f0e535626c8799d7ae6289d03",
          "transactionIndex": "0x1",
          "logIndex": "0xa",
          "removed": false
        },
        {
          "address": "0x010700808d59d2bb92257fcafacfe8e5bff7ab87",
          "topics": [
            "0xdec2bacdd2f05b59de34da9b523dff8be42e5e38e818c82fdb0bae774387a724",
            "0x00000000000000000000000093f96a75cd46af34121266756edb99878070701c"
          ],
          "data": "0x000000000000000000000000000000000000000000000002623f2bc2a208c0f600000000000000000000000000000000000000000000000000001e51057e41f6",
          "blockHash": "0x8e8c5c08bf52ef4b2c17c21fa44d1771b75b80365d508597a91b4a2a4f141257",
          "blockNumber": "0xdc590",
          "transactionHash": "0x8493513d1dc09e2b29065c7d6289385f1bd48d4f0e535626c8799d7ae6289d03",
          "transactionIndex": "0x1",
          "logIndex": "0xb",
          "removed": false
        },
        {
          "address": "0x010700808d59d2bb92257fcafacfe8e5bff7ab87",
          "topics": [
            "0xddf252ad1be2c89b69c2b068fc378daa952ba7f163c4a11628f55a4df523b3ef",
            "0x0000000000000000000000002fff680e91cc24602429944dd3c0acfe115d749b",
            "0x0000000000000000000000000000000000000000000000000000000000000000"
          ],
          "data": "0x00000000000000000000000000000000000000000000000004630452e39f7fa8",
          "blockHash": "0x8e8c5c08bf52ef4b2c17c21fa44d1771b75b80365d508597a91b4a2a4f141257",
          "blockNumber": "0xdc590",
          "transactionHash": "0x8493513d1dc09e2b29065c7d6289385f1bd48d4f0e535626c8799d7ae6289d03",
          "transactionIndex": "0x1",
          "logIndex": "0xc",
          "removed": false
        },
        {
          "address": "0x010700808d59d2bb92257fcafacfe8e5bff7ab87",
          "topics": [
            "0xddf252ad1be2c89b69c2b068fc378daa952ba7f163c4a11628f55a4df523b3ef",
            "0x00000000000000000000000098ca1fb488c76337c4aef26eff0a7c9d886f6104",
            "0x0000000000000000000000000000000000000000000000000000000000000000"
          ],
          "data": "0x0000000000000000000000000000000000000000000000006dd88b3ce8c5c320",
          "blockHash": "0x8e8c5c08bf52ef4b2c17c21fa44d1771b75b80365d508597a91b4a2a4f141257",
          "blockNumber": "0xdc590",
          "transactionHash": "0x8493513d1dc09e2b29065c7d6289385f1bd48d4f0e535626c8799d7ae6289d03",
          "transactionIndex": "0x1",
          "logIndex": "0xd",
          "removed": false
        },
        {
          "address": "0x010700808d59d2bb92257fcafacfe8e5bff7ab87",
          "topics": [
            "0xddf252ad1be2c89b69c2b068fc378daa952ba7f163c4a11628f55a4df523b3ef",
            "0x0000000000000000000000000d12dd469d710a910d053fe6b04cd37875baa335",
            "0x0000000000000000000000000000000000000000000000000000000000000000"
          ],
          "data": "0x000000000000000000000000000000000000000000000000016d48e9f6207eb0",
          "blockHash": "0x8e8c5c08bf52ef4b2c17c21fa44d1771b75b80365d508597a91b4a2a4f141257",
          "blockNumber": "0xdc590",
          "transactionHash": "0x8493513d1dc09e2b29065c7d6289385f1bd48d4f0e535626c8799d7ae6289d03",
          "transactionIndex": "0x1",
          "logIndex": "0xe",
          "removed": false
        },
        {
          "address": "0x010700808d59d2bb92257fcafacfe8e5bff7ab87",
          "topics": [
            "0xdec2bacdd2f05b59de34da9b523dff8be42e5e38e818c82fdb0bae774387a724",
            "0x0000000000000000000000000d12dd469d710a910d053fe6b04cd37875baa335"
          ],
          "data": "0x000000000000000000000000000000000000000000000000016dddea15608f30000000000000000000000000000000000000000000000000000095001f401080",
          "blockHash": "0x8e8c5c08bf52ef4b2c17c21fa44d1771b75b80365d508597a91b4a2a4f141257",
          "blockNumber": "0xdc590",
          "transactionHash": "0x8493513d1dc09e2b29065c7d6289385f1bd48d4f0e535626c8799d7ae6289d03",
          "transactionIndex": "0x1",
          "logIndex": "0xf",
          "removed": false
        },
        {
          "address": "0x010700808d59d2bb92257fcafacfe8e5bff7ab87",
          "topics": [
            "0xddf252ad1be2c89b69c2b068fc378daa952ba7f163c4a11628f55a4df523b3ef",
            "0x00000000000000000000000001b46ce63fadcde524998d9387c6c2cfe9d9a3ce",
            "0x0000000000000000000000000000000000000000000000000000000000000000"
          ],
          "data": "0x0000000000000000000000000000000000000000000000000303a48258416fd8",
          "blockHash": "0x8e8c5c08bf52ef4b2c17c21fa44d1771b75b80365d508597a91b4a2a4f141257",
          "blockNumber": "0xdc590",
          "transactionHash": "0x8493513d1dc09e2b29065c7d6289385f1bd48d4f0e535626c8799d7ae6289d03",
          "transactionIndex": "0x1",
          "logIndex": "0x10",
          "removed": false
        },
        {
          "address": "0x010700808d59d2bb92257fcafacfe8e5bff7ab87",
          "topics": [
            "0xdec2bacdd2f05b59de34da9b523dff8be42e5e38e818c82fdb0bae774387a724",
            "0x00000000000000000000000001b46ce63fadcde524998d9387c6c2cfe9d9a3ce"
          ],
          "data": "0x0000000000000000000000000000000000000000000000000a7fa328d1a96976000000000000000000000000000000000000000000000000077bfea67967f99e",
          "blockHash": "0x8e8c5c08bf52ef4b2c17c21fa44d1771b75b80365d508597a91b4a2a4f141257",
          "blockNumber": "0xdc590",
          "transactionHash": "0x8493513d1dc09e2b29065c7d6289385f1bd48d4f0e535626c8799d7ae6289d03",
          "transactionIndex": "0x1",
          "logIndex": "0x11",
          "removed": false
        },
        {
          "address": "0x010700808d59d2bb92257fcafacfe8e5bff7ab87",
          "topics": [
            "0xddf252ad1be2c89b69c2b068fc378daa952ba7f163c4a11628f55a4df523b3ef",
            "0x0000000000000000000000001fab6ffaf7ba08f47e8fa7f1e79b1c816beeddd1",
            "0x0000000000000000000000000000000000000000000000000000000000000000"
          ],
          "data": "0x00000000000000000000000000000000000000000000000005fcbbb7c2b46ad0",
          "blockHash": "0x8e8c5c08bf52ef4b2c17c21fa44d1771b75b80365d508597a91b4a2a4f141257",
          "blockNumber": "0xdc590",
          "transactionHash": "0x8493513d1dc09e2b29065c7d6289385f1bd48d4f0e535626c8799d7ae6289d03",
          "transactionIndex": "0x1",
          "logIndex": "0x12",
          "removed": false
        },
        {
          "address": "0x010700808d59d2bb92257fcafacfe8e5bff7ab87",
          "topics": [
            "0xdec2bacdd2f05b59de34da9b523dff8be42e5e38e818c82fdb0bae774387a724",
            "0x0000000000000000000000001fab6ffaf7ba08f47e8fa7f1e79b1c816beeddd1"
          ],
          "data": "0x00000000000000000000000000000000000000000000000005fcbbb7c2b46bc000000000000000000000000000000000000000000000000000000000000000f0",
          "blockHash": "0x8e8c5c08bf52ef4b2c17c21fa44d1771b75b80365d508597a91b4a2a4f141257",
          "blockNumber": "0xdc590",
          "transactionHash": "0x8493513d1dc09e2b29065c7d6289385f1bd48d4f0e535626c8799d7ae6289d03",
          "transactionIndex": "0x1",
          "logIndex": "0x13",
          "removed": false
        },
        {
          "address": "0x010700808d59d2bb92257fcafacfe8e5bff7ab87",
          "topics": [
            "0xddf252ad1be2c89b69c2b068fc378daa952ba7f163c4a11628f55a4df523b3ef",
            "0x000000000000000000000000272244338d0034d45eb59e56e3cc5bc2b7a9f9ff",
            "0x0000000000000000000000000000000000000000000000000000000000000000"
          ],
          "data": "0x00000000000000000000000000000000000000000000000171757a259a76a300",
          "blockHash": "0x8e8c5c08bf52ef4b2c17c21fa44d1771b75b80365d508597a91b4a2a4f141257",
          "blockNumber": "0xdc590",
          "transactionHash": "0x8493513d1dc09e2b29065c7d6289385f1bd48d4f0e535626c8799d7ae6289d03",
          "transactionIndex": "0x1",
          "logIndex": "0x14",
          "removed": false
        },
        {
          "address": "0x010700808d59d2bb92257fcafacfe8e5bff7ab87",
          "topics": [
            "0xddf252ad1be2c89b69c2b068fc378daa952ba7f163c4a11628f55a4df523b3ef",
            "0x000000000000000000000000040e5b7bba58b87283bea12136717f21a300685e",
            "0x0000000000000000000000000000000000000000000000000000000000000000"
          ],
          "data": "0x00000000000000000000000000000000000000000000000116b615d5394758a0",
          "blockHash": "0x8e8c5c08bf52ef4b2c17c21fa44d1771b75b80365d508597a91b4a2a4f141257",
          "blockNumber": "0xdc590",
          "transactionHash": "0x8493513d1dc09e2b29065c7d6289385f1bd48d4f0e535626c8799d7ae6289d03",
          "transactionIndex": "0x1",
          "logIndex": "0x15",
          "removed": false
        },
        {
          "address": "0x010700808d59d2bb92257fcafacfe8e5bff7ab87",
          "topics": [
            "0xddf252ad1be2c89b69c2b068fc378daa952ba7f163c4a11628f55a4df523b3ef",
            "0x00000000000000000000000063fa661c8b1f85dd7b9f66fbdad4c4fa7fe97e00",
            "0x0000000000000000000000000000000000000000000000000000000000000000"
          ],
          "data": "0x0000000000000000000000000000000000000000000000049401413343390700",
          "blockHash": "0x8e8c5c08bf52ef4b2c17c21fa44d1771b75b80365d508597a91b4a2a4f141257",
          "blockNumber": "0xdc590",
          "transactionHash": "0x8493513d1dc09e2b29065c7d6289385f1bd48d4f0e535626c8799d7ae6289d03",
          "transactionIndex": "0x1",
          "logIndex": "0x16",
          "removed": false
        },
        {
          "address": "0x010700808d59d2bb92257fcafacfe8e5bff7ab87",
          "topics": [
            "0xdec2bacdd2f05b59de34da9b523dff8be42e5e38e818c82fdb0bae774387a724",
            "0x00000000000000000000000063fa661c8b1f85dd7b9f66fbdad4c4fa7fe97e00"
          ],
          "data": "0x00000000000000000000000000000000000000000000000b11eaf76a4d9f40000000000000000000000000000000000000000000000000067de9b6370a663900",
          "blockHash": "0x8e8c5c08bf52ef4b2c17c21fa44d1771b75b80365d508597a91b4a2a4f141257",
          "blockNumber": "0xdc590",
          "transactionHash": "0x8493513d1dc09e2b29065c7d6289385f1bd48d4f0e535626c8799d7ae6289d03",
          "transactionIndex": "0x1",
          "logIndex": "0x17",
          "removed": false
        },
        {
          "address": "0x010700808d59d2bb92257fcafacfe8e5bff7ab87",
          "topics": [
            "0xddf252ad1be2c89b69c2b068fc378daa952ba7f163c4a11628f55a4df523b3ef",
            "0x00000000000000000000000057ae483fcc306d8c71e771a4fbc14605bf8347bb",
            "0x0000000000000000000000000000000000000000000000000000000000000000"
          ],
          "data": "0x000000000000000000000000000000000000000000000005ff751e05dd6b6040",
          "blockHash": "0x8e8c5c08bf52ef4b2c17c21fa44d1771b75b80365d508597a91b4a2a4f141257",
          "blockNumber": "0xdc590",
          "transactionHash": "0x8493513d1dc09e2b29065c7d6289385f1bd48d4f0e535626c8799d7ae6289d03",
          "transactionIndex": "0x1",
          "logIndex": "0x18",
          "removed": false
        },
        {
          "address": "0x010700808d59d2bb92257fcafacfe8e5bff7ab87",
          "topics": [
            "0xdec2bacdd2f05b59de34da9b523dff8be42e5e38e818c82fdb0bae774387a724",
            "0x00000000000000000000000057ae483fcc306d8c71e771a4fbc14605bf8347bb"
          ],
          "data": "0x0000000000000000000000000000000000000000000000060d55daca66733efe0000000000000000000000000000000000000000000000000de0bcc48907debe",
          "blockHash": "0x8e8c5c08bf52ef4b2c17c21fa44d1771b75b80365d508597a91b4a2a4f141257",
          "blockNumber": "0xdc590",
          "transactionHash": "0x8493513d1dc09e2b29065c7d6289385f1bd48d4f0e535626c8799d7ae6289d03",
          "transactionIndex": "0x1",
          "logIndex": "0x19",
          "removed": false
        },
        {
          "address": "0x010700808d59d2bb92257fcafacfe8e5bff7ab87",
          "topics": [
            "0xddf252ad1be2c89b69c2b068fc378daa952ba7f163c4a11628f55a4df523b3ef",
            "0x000000000000000000000000cf1b41b446be154b1539d251fb31fb906c186481",
            "0x0000000000000000000000000000000000000000000000000000000000000000"
          ],
          "data": "0x000000000000000000000000000000000000000000000000027d52b7849d6828",
          "blockHash": "0x8e8c5c08bf52ef4b2c17c21fa44d1771b75b80365d508597a91b4a2a4f141257",
          "blockNumber": "0xdc590",
          "transactionHash": "0x8493513d1dc09e2b29065c7d6289385f1bd48d4f0e535626c8799d7ae6289d03",
          "transactionIndex": "0x1",
          "logIndex": "0x1a",
          "removed": false
        },
        {
          "address": "0x010700808d59d2bb92257fcafacfe8e5bff7ab87",
          "topics": [
            "0xddf252ad1be2c89b69c2b068fc378daa952ba7f163c4a11628f55a4df523b3ef",
            "0x000000000000000000000000937120ecb7576bf60c79c2c68ec32c6b489148fe",
            "0x0000000000000000000000000000000000000000000000000000000000000000"
          ],
          "data": "0x000000000000000000000000000000000000000000000000046c3c9cce611ff8",
          "blockHash": "0x8e8c5c08bf52ef4b2c17c21fa44d1771b75b80365d508597a91b4a2a4f141257",
          "blockNumber": "0xdc590",
          "transactionHash": "0x8493513d1dc09e2b29065c7d6289385f1bd48d4f0e535626c8799d7ae6289d03",
          "transactionIndex": "0x1",
          "logIndex": "0x1b",
          "removed": false
        },
        {
          "address": "0x010700808d59d2bb92257fcafacfe8e5bff7ab87",
          "topics": [
            "0xdec2bacdd2f05b59de34da9b523dff8be42e5e38e818c82fdb0bae774387a724",
            "0x000000000000000000000000937120ecb7576bf60c79c2c68ec32c6b489148fe"
          ],
          "data": "0x0000000000000000000000000000000000000000000000107e39b42fe3a1e47f00000000000000000000000000000000000000000000001079cd77931540c487",
          "blockHash": "0x8e8c5c08bf52ef4b2c17c21fa44d1771b75b80365d508597a91b4a2a4f141257",
          "blockNumber": "0xdc590",
          "transactionHash": "0x8493513d1dc09e2b29065c7d6289385f1bd48d4f0e535626c8799d7ae6289d03",
          "transactionIndex": "0x1",
          "logIndex": "0x1c",
          "removed": false
        },
        {
          "address": "0x010700808d59d2bb92257fcafacfe8e5bff7ab87",
          "topics": [
            "0xddf252ad1be2c89b69c2b068fc378daa952ba7f163c4a11628f55a4df523b3ef",
            "0x000000000000000000000000b0a2b3e4469277bac8e773be4cdae009848fba42",
            "0x0000000000000000000000000000000000000000000000000000000000000000"
          ],
          "data": "0x0000000000000000000000000000000000000000000000015f921471e5e34c80",
          "blockHash": "0x8e8c5c08bf52ef4b2c17c21fa44d1771b75b80365d508597a91b4a2a4f141257",
          "blockNumber": "0xdc590",
          "transactionHash": "0x8493513d1dc09e2b29065c7d6289385f1bd48d4f0e535626c8799d7ae6289d03",
          "transactionIndex": "0x1",
          "logIndex": "0x1d",
          "removed": false
        },
        {
          "address": "0x010700808d59d2bb92257fcafacfe8e5bff7ab87",
          "topics": [
            "0xdec2bacdd2f05b59de34da9b523dff8be42e5e38e818c82fdb0bae774387a724",
            "0x000000000000000000000000b0a2b3e4469277bac8e773be4cdae009848fba42"
          ],
          "data": "0x000000000000000000000000000000000000000000000001626e0262f7dbab1100000000000000000000000000000000000000000000000002dbedf111f85e91",
          "blockHash": "0x8e8c5c08bf52ef4b2c17c21fa44d1771b75b80365d508597a91b4a2a4f141257",
          "blockNumber": "0xdc590",
          "transactionHash": "0x8493513d1dc09e2b29065c7d6289385f1bd48d4f0e535626c8799d7ae6289d03",
          "transactionIndex": "0x1",
          "logIndex": "0x1e",
          "removed": false
        },
        {
          "address": "0x010700808d59d2bb92257fcafacfe8e5bff7ab87",
          "topics": [
            "0xddf252ad1be2c89b69c2b068fc378daa952ba7f163c4a11628f55a4df523b3ef",
            "0x000000000000000000000000bf54d351e38da7d755359fabf89e8864fd0377cb",
            "0x0000000000000000000000000000000000000000000000000000000000000000"
          ],
          "data": "0x0000000000000000000000000000000000000000000000017406606fc6774e00",
          "blockHash": "0x8e8c5c08bf52ef4b2c17c21fa44d1771b75b80365d508597a91b4a2a4f141257",
          "blockNumber": "0xdc590",
          "transactionHash": "0x8493513d1dc09e2b29065c7d6289385f1bd48d4f0e535626c8799d7ae6289d03",
          "transactionIndex": "0x1",
          "logIndex": "0x1f",
          "removed": false
        },
        {
          "address": "0x010700808d59d2bb92257fcafacfe8e5bff7ab87",
          "topics": [
            "0xdec2bacdd2f05b59de34da9b523dff8be42e5e38e818c82fdb0bae774387a724",
            "0x000000000000000000000000bf54d351e38da7d755359fabf89e8864fd0377cb"
          ],
          "data": "0x000000000000000000000000000000000000000000000001834a80c80ec424c40000000000000000000000000000000000000000000000000f442058484cd6c4",
          "blockHash": "0x8e8c5c08bf52ef4b2c17c21fa44d1771b75b80365d508597a91b4a2a4f141257",
          "blockNumber": "0xdc590",
          "transactionHash": "0x8493513d1dc09e2b29065c7d6289385f1bd48d4f0e535626c8799d7ae6289d03",
          "transactionIndex": "0x1",
          "logIndex": "0x20",
          "removed": false
        },
        {
          "address": "0x010700808d59d2bb92257fcafacfe8e5bff7ab87",
          "topics": [
            "0xddf252ad1be2c89b69c2b068fc378daa952ba7f163c4a11628f55a4df523b3ef",
            "0x000000000000000000000000342cb256218eff45705f023352b433659c566185",
            "0x0000000000000000000000000000000000000000000000000000000000000000"
          ],
          "data": "0x000000000000000000000000000000000000000000000000e74be50790801fa0",
          "blockHash": "0x8e8c5c08bf52ef4b2c17c21fa44d1771b75b80365d508597a91b4a2a4f141257",
          "blockNumber": "0xdc590",
          "transactionHash": "0x8493513d1dc09e2b29065c7d6289385f1bd48d4f0e535626c8799d7ae6289d03",
          "transactionIndex": "0x1",
          "logIndex": "0x21",
          "removed": false
        },
        {
          "address": "0x010700808d59d2bb92257fcafacfe8e5bff7ab87",
          "topics": [
            "0xddf252ad1be2c89b69c2b068fc378daa952ba7f163c4a11628f55a4df523b3ef",
            "0x000000000000000000000000e403173f8dcba7339b56d940dcd73c5cb29b1526",
            "0x0000000000000000000000000000000000000000000000000000000000000000"
          ],
          "data": "0x000000000000000000000000000000000000000000000000908f6f24ba4f1fa0",
          "blockHash": "0x8e8c5c08bf52ef4b2c17c21fa44d1771b75b80365d508597a91b4a2a4f141257",
          "blockNumber": "0xdc590",
          "transactionHash": "0x8493513d1dc09e2b29065c7d6289385f1bd48d4f0e535626c8799d7ae6289d03",
          "transactionIndex": "0x1",
          "logIndex": "0x22",
          "removed": false
        },
        {
          "address": "0x010700808d59d2bb92257fcafacfe8e5bff7ab87",
          "topics": [
            "0xddf252ad1be2c89b69c2b068fc378daa952ba7f163c4a11628f55a4df523b3ef",
            "0x000000000000000000000000babbab46d33d4c24474b83c484228d3b618b30f0",
            "0x0000000000000000000000000000000000000000000000000000000000000000"
          ],
          "data": "0x0000000000000000000000000000000000000000000000013b59819ce93b3100",
          "blockHash": "0x8e8c5c08bf52ef4b2c17c21fa44d1771b75b80365d508597a91b4a2a4f141257",
          "blockNumber": "0xdc590",
          "transactionHash": "0x8493513d1dc09e2b29065c7d6289385f1bd48d4f0e535626c8799d7ae6289d03",
          "transactionIndex": "0x1",
          "logIndex": "0x23",
          "removed": false
        },
        {
          "address": "0x010700808d59d2bb92257fcafacfe8e5bff7ab87",
          "topics": [
            "0xdec2bacdd2f05b59de34da9b523dff8be42e5e38e818c82fdb0bae774387a724",
            "0x000000000000000000000000babbab46d33d4c24474b83c484228d3b618b30f0"
          ],
          "data": "0x0000000000000000000000000000000000000000000000013b71a41913e35eae0000000000000000000000000000000000000000000000000018227c2aa82dae",
          "blockHash": "0x8e8c5c08bf52ef4b2c17c21fa44d1771b75b80365d508597a91b4a2a4f141257",
          "blockNumber": "0xdc590",
          "transactionHash": "0x8493513d1dc09e2b29065c7d6289385f1bd48d4f0e535626c8799d7ae6289d03",
          "transactionIndex": "0x1",
          "logIndex": "0x24",
          "removed": false
        },
        {
          "address": "0x010700808d59d2bb92257fcafacfe8e5bff7ab87",
          "topics": [
            "0xddf252ad1be2c89b69c2b068fc378daa952ba7f163c4a11628f55a4df523b3ef",
            "0x000000000000000000000000b43862cdc00bfef7ca9e7447a017af8f230a9bc3",
            "0x0000000000000000000000000000000000000000000000000000000000000000"
          ],
          "data": "0x0000000000000000000000000000000000000000000000000dbd10698f710f38",
          "blockHash": "0x8e8c5c08bf52ef4b2c17c21fa44d1771b75b80365d508597a91b4a2a4f141257",
          "blockNumber": "0xdc590",
          "transactionHash": "0x8493513d1dc09e2b29065c7d6289385f1bd48d4f0e535626c8799d7ae6289d03",
          "transactionIndex": "0x1",
          "logIndex": "0x25",
          "removed": false
        },
        {
          "address": "0x010700808d59d2bb92257fcafacfe8e5bff7ab87",
          "topics": [
            "0xdec2bacdd2f05b59de34da9b523dff8be42e5e38e818c82fdb0bae774387a724",
            "0x000000000000000000000000b43862cdc00bfef7ca9e7447a017af8f230a9bc3"
          ],
          "data": "0x0000000000000000000000000000000000000000000000000dbd6a3be260303b000000000000000000000000000000000000000000000000000059d252ef2103",
          "blockHash": "0x8e8c5c08bf52ef4b2c17c21fa44d1771b75b80365d508597a91b4a2a4f141257",
          "blockNumber": "0xdc590",
          "transactionHash": "0x8493513d1dc09e2b29065c7d6289385f1bd48d4f0e535626c8799d7ae6289d03",
          "transactionIndex": "0x1",
          "logIndex": "0x26",
          "removed": false
        },
        {
          "address": "0x010700808d59d2bb92257fcafacfe8e5bff7ab87",
          "topics": [
            "0xddf252ad1be2c89b69c2b068fc378daa952ba7f163c4a11628f55a4df523b3ef",
            "0x00000000000000000000000036f12da92c05ac7e266761999a0fe336c559beb8",
            "0x0000000000000000000000000000000000000000000000000000000000000000"
          ],
          "data": "0x00000000000000000000000000000000000000000000000002493846280adee8",
          "blockHash": "0x8e8c5c08bf52ef4b2c17c21fa44d1771b75b80365d508597a91b4a2a4f141257",
          "blockNumber": "0xdc590",
          "transactionHash": "0x8493513d1dc09e2b29065c7d6289385f1bd48d4f0e535626c8799d7ae6289d03",
          "transactionIndex": "0x1",
          "logIndex": "0x27",
          "removed": false
        },
        {
          "address": "0x010700808d59d2bb92257fcafacfe8e5bff7ab87",
          "topics": [
            "0xdec2bacdd2f05b59de34da9b523dff8be42e5e38e818c82fdb0bae774387a724",
            "0x00000000000000000000000036f12da92c05ac7e266761999a0fe336c559beb8"
          ],
          "data": "0x0000000000000000000000000000000000000000000000000a78596f715bfc10000000000000000000000000000000000000000000000000082f212949511d28",
          "blockHash": "0x8e8c5c08bf52ef4b2c17c21fa44d1771b75b80365d508597a91b4a2a4f141257",
          "blockNumber": "0xdc590",
          "transactionHash": "0x8493513d1dc09e2b29065c7d6289385f1bd48d4f0e535626c8799d7ae6289d03",
          "transactionIndex": "0x1",
          "logIndex": "0x28",
          "removed": false
        },
        {
          "address": "0x010700808d59d2bb92257fcafacfe8e5bff7ab87",
          "topics": [
            "0xddf252ad1be2c89b69c2b068fc378daa952ba7f163c4a11628f55a4df523b3ef",
            "0x0000000000000000000000007f26e00d5e13d016e1bcfbc680cfacf7a6744e14",
            "0x0000000000000000000000000000000000000000000000000000000000000000"
          ],
          "data": "0x000000000000000000000000000000000000000000000000227dcec53221fff0",
          "blockHash": "0x8e8c5c08bf52ef4b2c17c21fa44d1771b75b80365d508597a91b4a2a4f141257",
          "blockNumber": "0xdc590",
          "transactionHash": "0x8493513d1dc09e2b29065c7d6289385f1bd48d4f0e535626c8799d7ae6289d03",
          "transactionIndex": "0x1",
          "logIndex": "0x29",
          "removed": false
        },
        {
          "address": "0x010700808d59d2bb92257fcafacfe8e5bff7ab87",
          "topics": [
            "0xddf252ad1be2c89b69c2b068fc378daa952ba7f163c4a11628f55a4df523b3ef",
            "0x00000000000000000000000076b2e9a5a3a81f302dbb160e88397175f315bc61",
            "0x0000000000000000000000000000000000000000000000000000000000000000"
          ],
          "data": "0x000000000000000000000000000000000000000000000000156f685ca83c6620",
          "blockHash": "0x8e8c5c08bf52ef4b2c17c21fa44d1771b75b80365d508597a91b4a2a4f141257",
          "blockNumber": "0xdc590",
          "transactionHash": "0x8493513d1dc09e2b29065c7d6289385f1bd48d4f0e535626c8799d7ae6289d03",
          "transactionIndex": "0x1",
          "logIndex": "0x2a",
          "removed": false
        },
        {
          "address": "0x010700808d59d2bb92257fcafacfe8e5bff7ab87",
          "topics": [
            "0xddf252ad1be2c89b69c2b068fc378daa952ba7f163c4a11628f55a4df523b3ef",
            "0x000000000000000000000000a5c646a304c88051ca8521d8170520e807a88260",
            "0x0000000000000000000000000000000000000000000000000000000000000000"
          ],
          "data": "0x000000000000000000000000000000000000000000000001d4564dcd79376b60",
          "blockHash": "0x8e8c5c08bf52ef4b2c17c21fa44d1771b75b80365d508597a91b4a2a4f141257",
          "blockNumber": "0xdc590",
          "transactionHash": "0x8493513d1dc09e2b29065c7d6289385f1bd48d4f0e535626c8799d7ae6289d03",
          "transactionIndex": "0x1",
          "logIndex": "0x2b",
          "removed": false
        },
        {
          "address": "0x010700808d59d2bb92257fcafacfe8e5bff7ab87",
          "topics": [
            "0xdec2bacdd2f05b59de34da9b523dff8be42e5e38e818c82fdb0bae774387a724",
            "0x000000000000000000000000a5c646a304c88051ca8521d8170520e807a88260"
          ],
          "data": "0x000000000000000000000000000000000000000000000001d45654b1fcbea5b0000000000000000000000000000000000000000000000000000006e483873a50",
          "blockHash": "0x8e8c5c08bf52ef4b2c17c21fa44d1771b75b80365d508597a91b4a2a4f141257",
          "blockNumber": "0xdc590",
          "transactionHash": "0x8493513d1dc09e2b29065c7d6289385f1bd48d4f0e535626c8799d7ae6289d03",
          "transactionIndex": "0x1",
          "logIndex": "0x2c",
          "removed": false
        },
        {
          "address": "0x010700808d59d2bb92257fcafacfe8e5bff7ab87",
          "topics": [
            "0xddf252ad1be2c89b69c2b068fc378daa952ba7f163c4a11628f55a4df523b3ef",
            "0x000000000000000000000000e847c816b99eb3f7f380b1b377c4c446743666d5",
            "0x0000000000000000000000000000000000000000000000000000000000000000"
          ],
          "data": "0x0000000000000000000000000000000000000000000000012621fd74ec02b960",
          "blockHash": "0x8e8c5c08bf52ef4b2c17c21fa44d1771b75b80365d508597a91b4a2a4f141257",
          "blockNumber": "0xdc590",
          "transactionHash": "0x8493513d1dc09e2b29065c7d6289385f1bd48d4f0e535626c8799d7ae6289d03",
          "transactionIndex": "0x1",
          "logIndex": "0x2d",
          "removed": false
        },
        {
          "address": "0x2843c269d2a64ecfa63548e8b3fc0fd23b7f70cb",
          "topics": [
            "0x49628fd1471006c1482da88028e9ce4dbb080b815c9b0344d39e5a8e6ec1419f",
            "0x19fcb74a8b177aad2bbf2926ab9fd4ce729a5d8fb765ab59789f4a592ffa7209",
            "0x0000000000000000000000002e2b1c42e38f5af81771e65d87729e57abd1337a",
            "0x0000000000000000000000000000000000000000000000000000000000000000"
          ],
          "data": "0x000000000000000000000000000000000000000000000000000000000000141d000000000000000000000000000000000000000000000000000000000000000100000000000000000000000000000000000000000000000000000000001474840000000000000000000000000000000000000000000000000000000000147484",
          "blockHash": "0x8e8c5c08bf52ef4b2c17c21fa44d1771b75b80365d508597a91b4a2a4f141257",
          "blockNumber": "0xdc590",
          "transactionHash": "0x8493513d1dc09e2b29065c7d6289385f1bd48d4f0e535626c8799d7ae6289d03",
          "transactionIndex": "0x1",
          "logIndex": "0x2e",
          "removed": false
        }
      ],
      "logsBloom": "0x080004080004000000000010081000000000800000000000002008100010002020080004000012000000000108002000040000000000000000000200021000000c00001000000000800000280000000400000000000080000000240000010008000100800200080000400000030009100020000000000080a0004010002000000010001402000000000082080200800900000000000008800000000400000040241400500000008400400000100000000000000000000000240002000000000400004082001000100001002221c00020000100000000000090080000000020001000010040051000040000000080800110000000020244010000000000000040",
      "type": "0x2",
      "transactionHash": "0x8493513d1dc09e2b29065c7d6289385f1bd48d4f0e535626c8799d7ae6289d03",
      "transactionIndex": "0x1",
      "blockHash": "0x8e8c5c08bf52ef4b2c17c21fa44d1771b75b80365d508597a91b4a2a4f141257",
      "blockNumber": "0xdc590",
      "gasUsed": "0x1cc1d8",
      "effectiveGasPrice": "0x5f5e100",
      "from": "0x660ad4b5a74130a4796b4d54bc6750ae93c86e6c",
      "to": "0x2843c269d2a64ecfa63548e8b3fc0fd23b7f70cb",
      "contractAddress": null,
      "gasUsedForL1": "0xc4d42",
      "l1BlockNumber": "0x15deb93"
    }
  ],
  "libraries": [],
  "pending": [],
  "returns": {},
  "timestamp": 1752676398,
  "chain": 7887,
  "commit": "2f99a2d3"
}