{
  "transactions": [
    {
      "hash": "0x8c83ba62fde55b86fd2a4f52be7df7c4cfc7fd4b57285fc72762e7c5e9170e88",
      "transactionType": "CALL",
      "contractName": null,
      "contractAddress": "0x2843c269d2a64ecfa63548e8b3fc0fd23b7f70cb",
      "function": "handleOps((address,uint256,bytes,bytes,uint256,uint256,uint256,uint256,uint256,bytes,bytes)[],address)",
      "arguments": [
        "[(0x2e2B1c42E38f5af81771e65D87729E57ABD1337a, 5145, 0x, 0xb61d27f6000000000000000000000000010700808d59d2bb92257fcafacfe8e5bff7ab870000000000000000000000000000000000000000000000000000000000000000000000000000000000000000000000000000000000000000000000000000006000000000000000000000000000000000000000000000000000000000000004444a6cc67700000000000000000000000000000000000000000000000000000000000000400000000000000000000000000000000000000000000000000000000000000240000000000000000000000000000000000000000000000000000000000000000f0000000000000000000000008dde2c811ebdc2f6cb4e6a02e547712cca1a8577000000000000000000000000b604229540ae0a8286c014af2e1366cc8f17bcc6000000000000000000000000c339f12bf48affadfe35b5501f18d38937c2048e000000000000000000000000524b17c6ecbcd0230583407980fcd2ed6e3748de0000000000000000000000008b04410adc77a3035dabee06370f939ec3aceaeb000000000000000000000000a3b1f5f8bd3150da92b32e853f474067f1e9fe020000000000000000000000004feff2c7809f9a91c4016894c66f03d6d0bde2ba000000000000000000000000f8746ce669176680a6864b9532d2c875c729fef6000000000000000000000000eaff2cfb01cd4c0b89c46817b7dc9368e857602a00000000000000000000000056a66d37f3054c39d65b0d28957b9a17d0affcd20000000000000000000000000d18c6d0265178580d0f76e05eb8366de5e540c8000000000000000000000000c516baaa766112e551108e776357e9c8502376a9000000000000000000000000fb78b91b9a95087cbc0538c35ac6763900cadc0f0000000000000000000000006e0f6424e81e2fe0e783cfed34d552b01e9212620000000000000000000000008d4908b7595f4645e0cfed46eabb25b5e5296ce5000000000000000000000000000000000000000000000000000000000000000f0000000000000000000000000000000000000000000000052c08fed1932703600000000000000000000000000000000000000000000000002d774100ed888dc000000000000000000000000000000000000000000000000009589638d272a5a80000000000000000000000000000000000000000000000247ea75bb01fd6cc00000000000000000000000000000000000000000000000000dc31fd59fbd31740000000000000000000000000000000000000000000000005deec105b62da0b8000000000000000000000000000000000000000000000000043a0179ba92f5d600000000000000000000000000000000000000000000000002108c1201632a84000000000000000000000000000000000000000000000000b4d2e367d42753b000000000000000000000000000000000000000000000000000de0b6b3a7640000000000000000000000000000000000000000000000000000122b67d28c39eaa000000000000000000000000000000000000000000000000393219746a09c0f00000000000000000000000000000000000000000000000000029c8f3d9e8bfe70000000000000000000000000000000000000000000000004341e482aa24780400000000000000000000000000000000000000000000000020705cde6056f3b6000000000000000000000000000000000000000000000000000000000, 4000000, 210000, 21000, 1, 1000000000, 0x0000000000000000000000000000000000000000, 0x457f0c9b4448d5309f3f73b299f60c93c1709f0e253b44c6edbff3c00c95b48e658ef13a2d1ce716aa7399d26fa79a3e5538a74c70ed4ca76ff8f9e0e5b2ae1c1c0644847a63f975bd1e0237f01c16d1061c9c014accf9f7d804d62cc37ac0a07862891f18dd04f2cb03ad62fdaffc87fd6268a0d563d46486ec72db8e6f8167d21c)]",
        "0x660ad4B5A74130a4796B4d54BC6750Ae93C86e6c"
      ],
      "transaction": {
        "from": "0x660ad4b5a74130a4796b4d54bc6750ae93c86e6c",
        "to": "0x2843c269d2a64ecfa63548e8b3fc0fd23b7f70cb",
        "value": "0x0",
        "input": "0x1fad948c0000000000000000000000000000000000000000000000000000000000000040000000000000000000000000660ad4b5a74130a4796b4d54bc6750ae93c86e6c000000000000000000000000000000000000000000000000000000000000000100000000000000000000000000000000000000000000000000000000000000200000000000000000000000002e2b1c42e38f5af81771e65d87729e57abd1337a00000000000000000000000000000000000000000000000000000000000014190000000000000000000000000000000000000000000000000000000000000160000000000000000000000000000000000000000000000000000000000000018000000000000000000000000000000000000000000000000000000000003d0900000000000000000000000000000000000000000000000000000000000003345000000000000000000000000000000000000000000000000000000000000052080000000000000000000000000000000000000000000000000000000000000001000000000000000000000000000000000000000000000000000000003b9aca0000000000000000000000000000000000000000000000000000000000000006a000000000000000000000000000000000000000000000000000000000000006e0000000000000000000000000000000000000000000000000000000000000000000000000000000000000000000000000000000000000000000000000000004e4b61d27f6000000000000000000000000010700808d59d2bb92257fcafacfe8e5bff7ab870000000000000000000000000000000000000000000000000000000000000000000000000000000000000000000000000000000000000000000000000000006000000000000000000000000000000000000000000000000000000000000004444a6cc67700000000000000000000000000000000000000000000000000000000000000400000000000000000000000000000000000000000000000000000000000000240000000000000000000000000000000000000000000000000000000000000000f0000000000000000000000008dde2c811ebdc2f6cb4e6a02e547712cca1a8577000000000000000000000000b604229540ae0a8286c014af2e1366cc8f17bcc6000000000000000000000000c339f12bf48affadfe35b5501f18d38937c2048e000000000000000000000000524b17c6ecbcd0230583407980fcd2ed6e3748de0000000000000000000000008b04410adc77a3035dabee06370f939ec3aceaeb000000000000000000000000a3b1f5f8bd3150da92b32e853f474067f1e9fe020000000000000000000000004feff2c7809f9a91c4016894c66f03d6d0bde2ba000000000000000000000000f8746ce669176680a6864b9532d2c875c729fef6000000000000000000000000eaff2cfb01cd4c0b89c46817b7dc9368e857602a00000000000000000000000056a66d37f3054c39d65b0d28957b9a17d0affcd20000000000000000000000000d18c6d0265178580d0f76e05eb8366de5e540c8000000000000000000000000c516baaa766112e551108e776357e9c8502376a9000000000000000000000000fb78b91b9a95087cbc0538c35ac6763900cadc0f0000000000000000000000006e0f6424e81e2fe0e783cfed34d552b01e9212620000000000000000000000008d4908b7595f4645e0cfed46eabb25b5e5296ce5000000000000000000000000000000000000000000000000000000000000000f0000000000000000000000000000000000000000000000052c08fed1932703600000000000000000000000000000000000000000000000002d774100ed888dc000000000000000000000000000000000000000000000000009589638d272a5a80000000000000000000000000000000000000000000000247ea75bb01fd6cc00000000000000000000000000000000000000000000000000dc31fd59fbd31740000000000000000000000000000000000000000000000005deec105b62da0b8000000000000000000000000000000000000000000000000043a0179ba92f5d600000000000000000000000000000000000000000000000002108c1201632a84000000000000000000000000000000000000000000000000b4d2e367d42753b000000000000000000000000000000000000000000000000000de0b6b3a7640000000000000000000000000000000000000000000000000000122b67d28c39eaa000000000000000000000000000000000000000000000000393219746a09c0f00000000000000000000000000000000000000000000000000029c8f3d9e8bfe70000000000000000000000000000000000000000000000004341e482aa24780400000000000000000000000000000000000000000000000020705cde6056f3b600000000000000000000000000000000000000000000000000000000000000000000000000000000000000000000000000000000000000000000000000000000000000000000000000000000000000000000000000000001400000000000000000000000000000000000000000000000000000000000000000000000000000000000000000000000000000000000000000000000000000082457f0c9b4448d5309f3f73b299f60c93c1709f0e253b44c6edbff3c00c95b48e658ef13a2d1ce716aa7399d26fa79a3e5538a74c70ed4ca76ff8f9e0e5b2ae1c1c0644847a63f975bd1e0237f01c16d1061c9c014accf9f7d804d62cc37ac0a07862891f18dd04f2cb03ad62fdaffc87fd6268a0d563d46486ec72db8e6f8167d21c000000000000000000000000000000000000000000000000000000000000",
        "nonce": "0x4c009",
        "chainId": "0x1ecf"
      },
      "additionalContracts": [],
      "isFixedGasLimit": false
    }
  ],
  "receipts": [
    {
      "status": "0x1",
      "cumulativeGasUsed": "0x11d068",
      "logs": [
        {
          "address": "0x2843c269d2a64ecfa63548e8b3fc0fd23b7f70cb",
          "topics": [
            "0xbb47ee3e183a558b1a2ff0874b079f3fc5478b7454eacf2bfc5af2ff5878f972"
          ],
          "data": "0x",
          "blockHash": "0x1d365b29cbd010f5a65d1b5e082c3ff2a799dee9d4fd174475c90110748d49f2",
          "blockNumber": "0xdc537",
          "transactionHash": "0x8c83ba62fde55b86fd2a4f52be7df7c4cfc7fd4b57285fc72762e7c5e9170e88",
          "transactionIndex": "0x1",
          "logIndex": "0x0",
          "removed": false
        },
        {
          "address": "0x010700808d59d2bb92257fcafacfe8e5bff7ab87",
          "topics": [
            "0xddf252ad1be2c89b69c2b068fc378daa952ba7f163c4a11628f55a4df523b3ef",
            "0x0000000000000000000000008dde2c811ebdc2f6cb4e6a02e547712cca1a8577",
            "0x0000000000000000000000000000000000000000000000000000000000000000"
          ],
          "data": "0x0000000000000000000000000000000000000000000000052c08fed193270360",
          "blockHash": "0x1d365b29cbd010f5a65d1b5e082c3ff2a799dee9d4fd174475c90110748d49f2",
          "blockNumber": "0xdc537",
          "transactionHash": "0x8c83ba62fde55b86fd2a4f52be7df7c4cfc7fd4b57285fc72762e7c5e9170e88",
          "transactionIndex": "0x1",
          "logIndex": "0x1",
          "removed": false
        },
        {
          "address": "0x010700808d59d2bb92257fcafacfe8e5bff7ab87",
          "topics": [
            "0xdec2bacdd2f05b59de34da9b523dff8be42e5e38e818c82fdb0bae774387a724",
            "0x0000000000000000000000008dde2c811ebdc2f6cb4e6a02e547712cca1a8577"
          ],
          "data": "0x00000000000000000000000000000000000000000000000c6f93659dd6e94a21000000000000000000000000000000000000000000000007438a66cc43c246c1",
          "blockHash": "0x1d365b29cbd010f5a65d1b5e082c3ff2a799dee9d4fd174475c90110748d49f2",
          "blockNumber": "0xdc537",
          "transactionHash": "0x8c83ba62fde55b86fd2a4f52be7df7c4cfc7fd4b57285fc72762e7c5e9170e88",
          "transactionIndex": "0x1",
          "logIndex": "0x2",
          "removed": false
        },
        {
          "address": "0x010700808d59d2bb92257fcafacfe8e5bff7ab87",
          "topics": [
            "0xddf252ad1be2c89b69c2b068fc378daa952ba7f163c4a11628f55a4df523b3ef",
            "0x000000000000000000000000b604229540ae0a8286c014af2e1366cc8f17bcc6",
            "0x0000000000000000000000000000000000000000000000000000000000000000"
          ],
          "data": "0x0000000000000000000000000000000000000000000000002d774100ed888dc0",
          "blockHash": "0x1d365b29cbd010f5a65d1b5e082c3ff2a799dee9d4fd174475c90110748d49f2",
          "blockNumber": "0xdc537",
          "transactionHash": "0x8c83ba62fde55b86fd2a4f52be7df7c4cfc7fd4b57285fc72762e7c5e9170e88",
          "transactionIndex": "0x1",
          "logIndex": "0x3",
          "removed": false
        },
        {
          "address": "0x010700808d59d2bb92257fcafacfe8e5bff7ab87",
          "topics": [
            "0xddf252ad1be2c89b69c2b068fc378daa952ba7f163c4a11628f55a4df523b3ef",
            "0x000000000000000000000000c339f12bf48affadfe35b5501f18d38937c2048e",
            "0x0000000000000000000000000000000000000000000000000000000000000000"
          ],
          "data": "0x00000000000000000000000000000000000000000000000009589638d272a5a8",
          "blockHash": "0x1d365b29cbd010f5a65d1b5e082c3ff2a799dee9d4fd174475c90110748d49f2",
          "blockNumber": "0xdc537",
          "transactionHash": "0x8c83ba62fde55b86fd2a4f52be7df7c4cfc7fd4b57285fc72762e7c5e9170e88",
          "transactionIndex": "0x1",
          "logIndex": "0x4",
          "removed": false
        },
        {
          "address": "0x010700808d59d2bb92257fcafacfe8e5bff7ab87",
          "topics": [
            "0xddf252ad1be2c89b69c2b068fc378daa952ba7f163c4a11628f55a4df523b3ef",
            "0x000000000000000000000000524b17c6ecbcd0230583407980fcd2ed6e3748de",
            "0x0000000000000000000000000000000000000000000000000000000000000000"
          ],
          "data": "0x0000000000000000000000000000000000000000000000247ea75bb01fd6cc00",
          "blockHash": "0x1d365b29cbd010f5a65d1b5e082c3ff2a799dee9d4fd174475c90110748d49f2",
          "blockNumber": "0xdc537",
          "transactionHash": "0x8c83ba62fde55b86fd2a4f52be7df7c4cfc7fd4b57285fc72762e7c5e9170e88",
          "transactionIndex": "0x1",
          "logIndex": "0x5",
          "removed": false
        },
        {
          "address": "0x010700808d59d2bb92257fcafacfe8e5bff7ab87",
          "topics": [
            "0xdec2bacdd2f05b59de34da9b523dff8be42e5e38e818c82fdb0bae774387a724",
            "0x000000000000000000000000524b17c6ecbcd0230583407980fcd2ed6e3748de"
          ],
          "data": "0x000000000000000000000000000000000000000000000026cb78726c810bb7930000000000000000000000000000000000000000000000024cd116bc6134eb93",
          "blockHash": "0x1d365b29cbd010f5a65d1b5e082c3ff2a799dee9d4fd174475c90110748d49f2",
          "blockNumber": "0xdc537",
          "transactionHash": "0x8c83ba62fde55b86fd2a4f52be7df7c4cfc7fd4b57285fc72762e7c5e9170e88",
          "transactionIndex": "0x1",
          "logIndex": "0x6",
          "removed": false
        },
        {
          "address": "0x010700808d59d2bb92257fcafacfe8e5bff7ab87",
          "topics": [
            "0xddf252ad1be2c89b69c2b068fc378daa952ba7f163c4a11628f55a4df523b3ef",
            "0x0000000000000000000000008b04410adc77a3035dabee06370f939ec3aceaeb",
            "0x0000000000000000000000000000000000000000000000000000000000000000"
          ],
          "data": "0x000000000000000000000000000000000000000000000000dc31fd59fbd31740",
          "blockHash": "0x1d365b29cbd010f5a65d1b5e082c3ff2a799dee9d4fd174475c90110748d49f2",
          "blockNumber": "0xdc537",
          "transactionHash": "0x8c83ba62fde55b86fd2a4f52be7df7c4cfc7fd4b57285fc72762e7c5e9170e88",
          "transactionIndex": "0x1",
          "logIndex": "0x7",
          "removed": false
        },
        {
          "address": "0x010700808d59d2bb92257fcafacfe8e5bff7ab87",
          "topics": [
            "0xddf252ad1be2c89b69c2b068fc378daa952ba7f163c4a11628f55a4df523b3ef",
            "0x000000000000000000000000a3b1f5f8bd3150da92b32e853f474067f1e9fe02",
            "0x0000000000000000000000000000000000000000000000000000000000000000"
          ],
          "data": "0x000000000000000000000000000000000000000000000005deec105b62da0b80",
          "blockHash": "0x1d365b29cbd010f5a65d1b5e082c3ff2a799dee9d4fd174475c90110748d49f2",
          "blockNumber": "0xdc537",
          "transactionHash": "0x8c83ba62fde55b86fd2a4f52be7df7c4cfc7fd4b57285fc72762e7c5e9170e88",
          "transactionIndex": "0x1",
          "logIndex": "0x8",
          "removed": false
        },
        {
          "address": "0x010700808d59d2bb92257fcafacfe8e5bff7ab87",
          "topics": [
            "0xdec2bacdd2f05b59de34da9b523dff8be42e5e38e818c82fdb0bae774387a724",
            "0x000000000000000000000000a3b1f5f8bd3150da92b32e853f474067f1e9fe02"
          ],
          "data": "0x00000000000000000000000000000000000000000000000626c102b9f317537d00000000000000000000000000000000000000000000000047d4f25e903d47fd",
          "blockHash": "0x1d365b29cbd010f5a65d1b5e082c3ff2a799dee9d4fd174475c90110748d49f2",
          "blockNumber": "0xdc537",
          "transactionHash": "0x8c83ba62fde55b86fd2a4f52be7df7c4cfc7fd4b57285fc72762e7c5e9170e88",
          "transactionIndex": "0x1",
          "logIndex": "0x9",
          "removed": false
        },
        {
          "address": "0x010700808d59d2bb92257fcafacfe8e5bff7ab87",
          "topics": [
            "0xddf252ad1be2c89b69c2b068fc378daa952ba7f163c4a11628f55a4df523b3ef",
            "0x0000000000000000000000004feff2c7809f9a91c4016894c66f03d6d0bde2ba",
            "0x0000000000000000000000000000000000000000000000000000000000000000"
          ],
          "data": "0x00000000000000000000000000000000000000000000000043a0179ba92f5d60",
          "blockHash": "0x1d365b29cbd010f5a65d1b5e082c3ff2a799dee9d4fd174475c90110748d49f2",
          "blockNumber": "0xdc537",
          "transactionHash": "0x8c83ba62fde55b86fd2a4f52be7df7c4cfc7fd4b57285fc72762e7c5e9170e88",
          "transactionIndex": "0x1",
          "logIndex": "0xa",
          "removed": false
        },
        {
          "address": "0x010700808d59d2bb92257fcafacfe8e5bff7ab87",
          "topics": [
            "0xddf252ad1be2c89b69c2b068fc378daa952ba7f163c4a11628f55a4df523b3ef",
            "0x000000000000000000000000f8746ce669176680a6864b9532d2c875c729fef6",
            "0x0000000000000000000000000000000000000000000000000000000000000000"
          ],
          "data": "0x0000000000000000000000000000000000000000000000002108c1201632a840",
          "blockHash": "0x1d365b29cbd010f5a65d1b5e082c3ff2a799dee9d4fd174475c90110748d49f2",
          "blockNumber": "0xdc537",
          "transactionHash": "0x8c83ba62fde55b86fd2a4f52be7df7c4cfc7fd4b57285fc72762e7c5e9170e88",
          "transactionIndex": "0x1",
          "logIndex": "0xb",
          "removed": false
        },
        {
          "address": "0x010700808d59d2bb92257fcafacfe8e5bff7ab87",
          "topics": [
            "0xddf252ad1be2c89b69c2b068fc378daa952ba7f163c4a11628f55a4df523b3ef",
            "0x000000000000000000000000eaff2cfb01cd4c0b89c46817b7dc9368e857602a",
            "0x0000000000000000000000000000000000000000000000000000000000000000"
          ],
          "data": "0x00000000000000000000000000000000000000000000000b4d2e367d42753b00",
          "blockHash": "0x1d365b29cbd010f5a65d1b5e082c3ff2a799dee9d4fd174475c90110748d49f2",
          "blockNumber": "0xdc537",
          "transactionHash": "0x8c83ba62fde55b86fd2a4f52be7df7c4cfc7fd4b57285fc72762e7c5e9170e88",
          "transactionIndex": "0x1",
          "logIndex": "0xc",
          "removed": false
        },
        {
          "address": "0x010700808d59d2bb92257fcafacfe8e5bff7ab87",
          "topics": [
            "0xdec2bacdd2f05b59de34da9b523dff8be42e5e38e818c82fdb0bae774387a724",
            "0x000000000000000000000000eaff2cfb01cd4c0b89c46817b7dc9368e857602a"
          ],
          "data": "0x00000000000000000000000000000000000000000000000b50ae37bd9e31a191000000000000000000000000000000000000000000000000038001405bbc6691",
          "blockHash": "0x1d365b29cbd010f5a65d1b5e082c3ff2a799dee9d4fd174475c90110748d49f2",
          "blockNumber": "0xdc537",
          "transactionHash": "0x8c83ba62fde55b86fd2a4f52be7df7c4cfc7fd4b57285fc72762e7c5e9170e88",
          "transactionIndex": "0x1",
          "logIndex": "0xd",
          "removed": false
        },
        {
          "address": "0x010700808d59d2bb92257fcafacfe8e5bff7ab87",
          "topics": [
            "0xddf252ad1be2c89b69c2b068fc378daa952ba7f163c4a11628f55a4df523b3ef",
            "0x00000000000000000000000056a66d37f3054c39d65b0d28957b9a17d0affcd2",
            "0x0000000000000000000000000000000000000000000000000000000000000000"
          ],
          "data": "0x0000000000000000000000000000000000000000000000000de0b6b3a7640000",
          "blockHash": "0x1d365b29cbd010f5a65d1b5e082c3ff2a799dee9d4fd174475c90110748d49f2",
          "blockNumber": "0xdc537",
          "transactionHash": "0x8c83ba62fde55b86fd2a4f52be7df7c4cfc7fd4b57285fc72762e7c5e9170e88",
          "transactionIndex": "0x1",
          "logIndex": "0xe",
          "removed": false
        },
        {
          "address": "0x010700808d59d2bb92257fcafacfe8e5bff7ab87",
          "topics": [
            "0xddf252ad1be2c89b69c2b068fc378daa952ba7f163c4a11628f55a4df523b3ef",
            "0x0000000000000000000000000d18c6d0265178580d0f76e05eb8366de5e540c8",
            "0x0000000000000000000000000000000000000000000000000000000000000000"
          ],
          "data": "0x000000000000000000000000000000000000000000000000122b67d28c39eaa0",
          "blockHash": "0x1d365b29cbd010f5a65d1b5e082c3ff2a799dee9d4fd174475c90110748d49f2",
          "blockNumber": "0xdc537",
          "transactionHash": "0x8c83ba62fde55b86fd2a4f52be7df7c4cfc7fd4b57285fc72762e7c5e9170e88",
          "transactionIndex": "0x1",
          "logIndex": "0xf",
          "removed": false
        },
        {
          "address": "0x010700808d59d2bb92257fcafacfe8e5bff7ab87",
          "topics": [
            "0xddf252ad1be2c89b69c2b068fc378daa952ba7f163c4a11628f55a4df523b3ef",
            "0x000000000000000000000000c516baaa766112e551108e776357e9c8502376a9",
            "0x0000000000000000000000000000000000000000000000000000000000000000"
          ],
          "data": "0x00000000000000000000000000000000000000000000000393219746a09c0f00",
          "blockHash": "0x1d365b29cbd010f5a65d1b5e082c3ff2a799dee9d4fd174475c90110748d49f2",
          "blockNumber": "0xdc537",
          "transactionHash": "0x8c83ba62fde55b86fd2a4f52be7df7c4cfc7fd4b57285fc72762e7c5e9170e88",
          "transactionIndex": "0x1",
          "logIndex": "0x10",
          "removed": false
        },
        {
          "address": "0x010700808d59d2bb92257fcafacfe8e5bff7ab87",
          "topics": [
            "0xdec2bacdd2f05b59de34da9b523dff8be42e5e38e818c82fdb0bae774387a724",
            "0x000000000000000000000000c516baaa766112e551108e776357e9c8502376a9"
          ],
          "data": "0x0000000000000000000000000000000000000000000000039321afb9745dc1bb00000000000000000000000000000000000000000000000000001872d3c1b2bb",
          "blockHash": "0x1d365b29cbd010f5a65d1b5e082c3ff2a799dee9d4fd174475c90110748d49f2",
          "blockNumber": "0xdc537",
          "transactionHash": "0x8c83ba62fde55b86fd2a4f52be7df7c4cfc7fd4b57285fc72762e7c5e9170e88",
          "transactionIndex": "0x1",
          "logIndex": "0x11",
          "removed": false
        },
        {
          "address": "0x010700808d59d2bb92257fcafacfe8e5bff7ab87",
          "topics": [
            "0xddf252ad1be2c89b69c2b068fc378daa952ba7f163c4a11628f55a4df523b3ef",
            "0x000000000000000000000000fb78b91b9a95087cbc0538c35ac6763900cadc0f",
            "0x0000000000000000000000000000000000000000000000000000000000000000"
          ],
          "data": "0x000000000000000000000000000000000000000000000000029c8f3d9e8bfe70",
          "blockHash": "0x1d365b29cbd010f5a65d1b5e082c3ff2a799dee9d4fd174475c90110748d49f2",
          "blockNumber": "0xdc537",
          "transactionHash": "0x8c83ba62fde55b86fd2a4f52be7df7c4cfc7fd4b57285fc72762e7c5e9170e88",
          "transactionIndex": "0x1",
          "logIndex": "0x12",
          "removed": false
        },
        {
          "address": "0x010700808d59d2bb92257fcafacfe8e5bff7ab87",
          "topics": [
            "0xdec2bacdd2f05b59de34da9b523dff8be42e5e38e818c82fdb0bae774387a724",
            "0x000000000000000000000000fb78b91b9a95087cbc0538c35ac6763900cadc0f"
          ],
          "data": "0x00000000000000000000000000000000000000000000000d8b3a90cfe2ad9dcb00000000000000000000000000000000000000000000000d889e019244219f5b",
          "blockHash": "0x1d365b29cbd010f5a65d1b5e082c3ff2a799dee9d4fd174475c90110748d49f2",
          "blockNumber": "0xdc537",
          "transactionHash": "0x8c83ba62fde55b86fd2a4f52be7df7c4cfc7fd4b57285fc72762e7c5e9170e88",
          "transactionIndex": "0x1",
          "logIndex": "0x13",
          "removed": false
        },
        {
          "address": "0x010700808d59d2bb92257fcafacfe8e5bff7ab87",
          "topics": [
            "0xddf252ad1be2c89b69c2b068fc378daa952ba7f163c4a11628f55a4df523b3ef",
            "0x0000000000000000000000006e0f6424e81e2fe0e783cfed34d552b01e921262",
            "0x0000000000000000000000000000000000000000000000000000000000000000"
          ],
          "data": "0x000000000000000000000000000000000000000000000004341e482aa2478040",
          "blockHash": "0x1d365b29cbd010f5a65d1b5e082c3ff2a799dee9d4fd174475c90110748d49f2",
          "blockNumber": "0xdc537",
          "transactionHash": "0x8c83ba62fde55b86fd2a4f52be7df7c4cfc7fd4b57285fc72762e7c5e9170e88",
          "transactionIndex": "0x1",
          "logIndex": "0x14",
          "removed": false
        },
        {
          "address": "0x010700808d59d2bb92257fcafacfe8e5bff7ab87",
          "topics": [
            "0xdec2bacdd2f05b59de34da9b523dff8be42e5e38e818c82fdb0bae774387a724",
            "0x0000000000000000000000006e0f6424e81e2fe0e783cfed34d552b01e921262"
          ],
          "data": "0x0000000000000000000000000000000000000000000000108d6f090047d9a48500000000000000000000000000000000000000000000000c5950c0d5a5922445",
          "blockHash": "0x1d365b29cbd010f5a65d1b5e082c3ff2a799dee9d4fd174475c90110748d49f2",
          "blockNumber": "0xdc537",
          "transactionHash": "0x8c83ba62fde55b86fd2a4f52be7df7c4cfc7fd4b57285fc72762e7c5e9170e88",
          "transactionIndex": "0x1",
          "logIndex": "0x15",
          "removed": false
        },
        {
          "address": "0x010700808d59d2bb92257fcafacfe8e5bff7ab87",
          "topics": [
            "0xddf252ad1be2c89b69c2b068fc378daa952ba7f163c4a11628f55a4df523b3ef",
            "0x0000000000000000000000008d4908b7595f4645e0cfed46eabb25b5e5296ce5",
            "0x0000000000000000000000000000000000000000000000000000000000000000"
          ],
          "data": "0x0000000000000000000000000000000000000000000000020705cde6056f3b60",
          "blockHash": "0x1d365b29cbd010f5a65d1b5e082c3ff2a799dee9d4fd174475c90110748d49f2",
          "blockNumber": "0xdc537",
          "transactionHash": "0x8c83ba62fde55b86fd2a4f52be7df7c4cfc7fd4b57285fc72762e7c5e9170e88",
          "transactionIndex": "0x1",
          "logIndex": "0x16",
          "removed": false
        },
        {
          "address": "0x2843c269d2a64ecfa63548e8b3fc0fd23b7f70cb",
          "topics": [
            "0x49628fd1471006c1482da88028e9ce4dbb080b815c9b0344d39e5a8e6ec1419f",
            "0x6f37ba3b09bf4abef5e24a5409b0a74b75686bb99253663e3eb553f54edf712e",
            "0x0000000000000000000000002e2b1c42e38f5af81771e65d87729e57abd1337a",
            "0x0000000000000000000000000000000000000000000000000000000000000000"
          ],
          "data": "0x0000000000000000000000000000000000000000000000000000000000001419000000000000000000000000000000000000000000000000000000000000000100000000000000000000000000000000000000000000000000000000000e76c600000000000000000000000000000000000000000000000000000000000e76c6",
          "blockHash": "0x1d365b29cbd010f5a65d1b5e082c3ff2a799dee9d4fd174475c90110748d49f2",
          "blockNumber": "0xdc537",
          "transactionHash": "0x8c83ba62fde55b86fd2a4f52be7df7c4cfc7fd4b57285fc72762e7c5e9170e88",
          "transactionIndex": "0x1",
          "logIndex": "0x17",
          "removed": false
        }
      ],
      "logsBloom": "0x04000000000400000000000000040000000040400000000080000440100000000008000100000200000000010000000000000000000000010080020000001401000008000000000002000008080000002000000000000000102000010000000800000000020000200040000000010800103000000000000000000010200000400000800000000000002000000041800000000000000000000000000000400000041400000000000000400000000000000000040000002800400002000000000000000002020000100001000000000000000000000000000000000000000020004001000008050400200010000080800000000000040000000000010000000000",
      "type": "0x2",
      "transactionHash": "0x8c83ba62fde55b86fd2a4f52be7df7c4cfc7fd4b57285fc72762e7c5e9170e88",
      "transactionIndex": "0x1",
      "blockHash": "0x1d365b29cbd010f5a65d1b5e082c3ff2a799dee9d4fd174475c90110748d49f2",
      "blockNumber": "0xdc537",
      "gasUsed": "0x11d068",
      "effectiveGasPrice": "0x5f5e100",
      "from": "0x660ad4b5a74130a4796b4d54bc6750ae93c86e6c",
      "to": "0x2843c269d2a64ecfa63548e8b3fc0fd23b7f70cb",
      "contractAddress": null,
      "gasUsedForL1": "0x829d9",
      "l1BlockNumber": "0x15dda68"
    }
  ],
  "libraries": [],
  "pending": [],
  "returns": {},
  "timestamp": 1752623403,
  "chain": 7887,
  "commit": "caa895ac"
}