{
  "transactions": [
    {
      "hash": null,
      "transactionType": "CALL",
      "contractName": null,
      "contractAddress": "0x2843C269D2a64eCfA63548E8B3Fc0FD23B7F70cb",
      "function": "handleOps((address,uint256,bytes,bytes,uint256,uint256,uint256,uint256,uint256,bytes,bytes)[],address)",
      "arguments": [
        "[(0x2e2B1c42E38f5af81771e65D87729E57ABD1337a, 1757, 0x, 0xb61d27f60000000000000000000000002e2b1c42e38f5af81771e65d87729e57abd1337a0000000000000000000000000000000000000000000000000000000000000000000000000000000000000000000000000000000000000000000000000000006000000000000000000000000000000000000000000000000000000000000000c4ca85f334000000000000000000000000000000000000000000000000000000000000004000000000000000000000000000000000000000000000000000000000000000020000000000000000000000000000000000000000000000000000000000000003000000000000000000000000660ad4b5a74130a4796b4d54bc6750ae93c86e6c000000000000000000000000c1f4d15c16a1f3555e0a5f7aefd1e17ad4aaf40b00000000000000000000000094561e98dd5e55271f91a103e4979aa6c493745e00000000000000000000000000000000000000000000000000000000, 4000000, 210000, 21000, 1, 1000000000, 0x0000000000000000000000000000000000000000, 0xed1cbf94ec74aaf8ba571cb6b3ae15d8cd746be507cefa1a6680fe85b1d82c93204d80a1756cd973b9c132e5d3ca784bcbb5ccf6086132c48e2660531c1142c31c)]",
        "0x660ad4B5A74130a4796B4d54BC6750Ae93C86e6c"
      ],
      "transaction": {
        "type": "0x00",
        "from": "0x660ad4b5a74130a4796b4d54bc6750ae93c86e6c",
        "to": "0x2843c269d2a64ecfa63548e8b3fc0fd23b7f70cb",
        "gas": "0x45f48",
        "value": "0x0",
        "data": "0x1fad948c0000000000000000000000000000000000000000000000000000000000000040000000000000000000000000660ad4b5a74130a4796b4d54bc6750ae93c86e6c000000000000000000000000000000000000000000000000000000000000000100000000000000000000000000000000000000000000000000000000000000200000000000000000000000002e2b1c42e38f5af81771e65d87729e57abd1337a00000000000000000000000000000000000000000000000000000000000006dd0000000000000000000000000000000000000000000000000000000000000160000000000000000000000000000000000000000000000000000000000000018000000000000000000000000000000000000000000000000000000000003d0900000000000000000000000000000000000000000000000000000000000003345000000000000000000000000000000000000000000000000000000000000052080000000000000000000000000000000000000000000000000000000000000001000000000000000000000000000000000000000000000000000000003b9aca000000000000000000000000000000000000000000000000000000000000000320000000000000000000000000000000000000000000000000000000000000036000000000000000000000000000000000000000000000000000000000000000000000000000000000000000000000000000000000000000000000000000000164b61d27f60000000000000000000000002e2b1c42e38f5af81771e65d87729e57abd1337a0000000000000000000000000000000000000000000000000000000000000000000000000000000000000000000000000000000000000000000000000000006000000000000000000000000000000000000000000000000000000000000000c4ca85f334000000000000000000000000000000000000000000000000000000000000004000000000000000000000000000000000000000000000000000000000000000020000000000000000000000000000000000000000000000000000000000000003000000000000000000000000660ad4b5a74130a4796b4d54bc6750ae93c86e6c000000000000000000000000c1f4d15c16a1f3555e0a5f7aefd1e17ad4aaf40b00000000000000000000000094561e98dd5e55271f91a103e4979aa6c493745e0000000000000000000000000000000000000000000000000000000000000000000000000000000000000000000000000000000000000000000000000000000000000000000000000000000000000000000000000000001400000000000000000000000000000000000000000000000000000000000000000000000000000000000000000000000000000000000000000000000000000041ed1cbf94ec74aaf8ba571cb6b3ae15d8cd746be507cefa1a6680fe85b1d82c93204d80a1756cd973b9c132e5d3ca784bcbb5ccf6086132c48e2660531c1142c31c00000000000000000000000000000000000000000000000000000000000000",
        "nonce": "0x36d2"
      },
      "additionalContracts": [],
      "isFixedGasLimit": false
    }
  ],
  "receipts": [],
  "libraries": [],
  "pending": [],
  "returns": {},
  "timestamp": 1716329161,
  "chain": 7887,
  "commit": "4eef09c"
}