{
  "transactions": [
    {
      "hash": "0xb0d122aad714a66ed115ffce08166e2dc2c94906383fa5b1794d4feb06d8391f",
      "transactionType": "CALL",
      "contractName": null,
      "contractAddress": "0x2843c269d2a64ecfa63548e8b3fc0fd23b7f70cb",
      "function": "handleOps((address,uint256,bytes,bytes,uint256,uint256,uint256,uint256,uint256,bytes,bytes)[],address)",
      "arguments": [
        "[(0x2e2B1c42E38f5af81771e65D87729E57ABD1337a, 4466, 0x, 0xb61d27f6000000000000000000000000010700808d59d2bb92257fcafacfe8e5bff7ab870000000000000000000000000000000000000000000000000000000000000000000000000000000000000000000000000000000000000000000000000000006000000000000000000000000000000000000000000000000000000000000000449dc29fac000000000000000000000000d157904639e89df05e89e0dabeec99ae3d74f9aa0000000000000000000000000000000000000000000034f086f3b33b6840000000000000000000000000000000000000000000000000000000000000, 4000000, 210000, 21000, 1, 1000000000, 0x0000000000000000000000000000000000000000, 0x8be95746f39d230e5ca6febae426568f8cf39faa140d82038d5da30f2bfb36f2283ca37bcc4c48b8689087a3873f2c3936655e53c79cce7b9e47342122bb2dfd1c7b38948d41656d0bbc2549f8994238b4beac74fbb30eadfac3492123ac6c79b20281415fc5f0af7f21278a61805292b373f7f3e45c36b1f905d75fa8708692841c)]",
        "0x660ad4B5A74130a4796B4d54BC6750Ae93C86e6c"
      ],
      "transaction": {
        "from": "0x660ad4b5a74130a4796b4d54bc6750ae93c86e6c",
        "to": "0x2843c269d2a64ecfa63548e8b3fc0fd23b7f70cb",
        "value": "0x0",
        "input": "0x1fad948c0000000000000000000000000000000000000000000000000000000000000040000000000000000000000000660ad4b5a74130a4796b4d54bc6750ae93c86e6c000000000000000000000000000000000000000000000000000000000000000100000000000000000000000000000000000000000000000000000000000000200000000000000000000000002e2b1c42e38f5af81771e65d87729e57abd1337a00000000000000000000000000000000000000000000000000000000000011720000000000000000000000000000000000000000000000000000000000000160000000000000000000000000000000000000000000000000000000000000018000000000000000000000000000000000000000000000000000000000003d0900000000000000000000000000000000000000000000000000000000000003345000000000000000000000000000000000000000000000000000000000000052080000000000000000000000000000000000000000000000000000000000000001000000000000000000000000000000000000000000000000000000003b9aca0000000000000000000000000000000000000000000000000000000000000002a000000000000000000000000000000000000000000000000000000000000002e0000000000000000000000000000000000000000000000000000000000000000000000000000000000000000000000000000000000000000000000000000000e4b61d27f6000000000000000000000000010700808d59d2bb92257fcafacfe8e5bff7ab870000000000000000000000000000000000000000000000000000000000000000000000000000000000000000000000000000000000000000000000000000006000000000000000000000000000000000000000000000000000000000000000449dc29fac000000000000000000000000d157904639e89df05e89e0dabeec99ae3d74f9aa0000000000000000000000000000000000000000000034f086f3b33b6840000000000000000000000000000000000000000000000000000000000000000000000000000000000000000000000000000000000000000000000000000000000000000000000000000000000000000000000000000000000014000000000000000000000000000000000000000000000000000000000000000000000000000000000000000000000000000000000000000000000000000000828be95746f39d230e5ca6febae426568f8cf39faa140d82038d5da30f2bfb36f2283ca37bcc4c48b8689087a3873f2c3936655e53c79cce7b9e47342122bb2dfd1c7b38948d41656d0bbc2549f8994238b4beac74fbb30eadfac3492123ac6c79b20281415fc5f0af7f21278a61805292b373f7f3e45c36b1f905d75fa8708692841c000000000000000000000000000000000000000000000000000000000000",
        "nonce": "0x4bcbf",
        "chainId": "0x1ecf"
      },
      "additionalContracts": [],
      "isFixedGasLimit": false
    },
    {
      "hash": "0x89b7e551e84a3cee1f2a79b30b38a0a2ff0794fb32e14075f414551f28a96dd1",
      "transactionType": "CALL",
      "contractName": null,
      "contractAddress": "0x2843c269d2a64ecfa63548e8b3fc0fd23b7f70cb",
      "function": "handleOps((address,uint256,bytes,bytes,uint256,uint256,uint256,uint256,uint256,bytes,bytes)[],address)",
      "arguments": [
        "[(0x2e2B1c42E38f5af81771e65D87729E57ABD1337a, 4467, 0x, 0xb61d27f6000000000000000000000000010700808d59d2bb92257fcafacfe8e5bff7ab8700000000000000000000000000000000000000000000000000000000000000000000000000000000000000000000000000000000000000000000000000000060000000000000000000000000000000000000000000000000000000000000004440c10f190000000000000000000000005a1e00884e35bf2dc39af51712d08bef24b1817f0000000000000000000000000000000000000000000034f086f3b33b6840000000000000000000000000000000000000000000000000000000000000, 4000000, 210000, 21000, 1, 1000000000, 0x0000000000000000000000000000000000000000, 0x159cc3518a7c3b837b196f30f884f3f683aab492766a2108158275914c7dcb0b49548ee1ec1b2b3cef2f8d5fa2ec926b4a15148cdd80a6046e10c9560340ad901be37c53f6e4ca4386dd1396ea01362ff2cc2e979455501df342acd092eb4f913e70c7c36153af0141d9c447051fbc6bb32fa1bb7fc1d18c40682bc6ec633b23b91b)]",
        "0x660ad4B5A74130a4796B4d54BC6750Ae93C86e6c"
      ],
      "transaction": {
        "from": "0x660ad4b5a74130a4796b4d54bc6750ae93c86e6c",
        "to": "0x2843c269d2a64ecfa63548e8b3fc0fd23b7f70cb",
        "value": "0x0",
        "input": "0x1fad948c0000000000000000000000000000000000000000000000000000000000000040000000000000000000000000660ad4b5a74130a4796b4d54bc6750ae93c86e6c000000000000000000000000000000000000000000000000000000000000000100000000000000000000000000000000000000000000000000000000000000200000000000000000000000002e2b1c42e38f5af81771e65d87729e57abd1337a00000000000000000000000000000000000000000000000000000000000011730000000000000000000000000000000000000000000000000000000000000160000000000000000000000000000000000000000000000000000000000000018000000000000000000000000000000000000000000000000000000000003d0900000000000000000000000000000000000000000000000000000000000003345000000000000000000000000000000000000000000000000000000000000052080000000000000000000000000000000000000000000000000000000000000001000000000000000000000000000000000000000000000000000000003b9aca0000000000000000000000000000000000000000000000000000000000000002a000000000000000000000000000000000000000000000000000000000000002e0000000000000000000000000000000000000000000000000000000000000000000000000000000000000000000000000000000000000000000000000000000e4b61d27f6000000000000000000000000010700808d59d2bb92257fcafacfe8e5bff7ab8700000000000000000000000000000000000000000000000000000000000000000000000000000000000000000000000000000000000000000000000000000060000000000000000000000000000000000000000000000000000000000000004440c10f190000000000000000000000005a1e00884e35bf2dc39af51712d08bef24b1817f0000000000000000000000000000000000000000000034f086f3b33b684000000000000000000000000000000000000000000000000000000000000000000000000000000000000000000000000000000000000000000000000000000000000000000000000000000000000000000000000000000000001400000000000000000000000000000000000000000000000000000000000000000000000000000000000000000000000000000000000000000000000000000082159cc3518a7c3b837b196f30f884f3f683aab492766a2108158275914c7dcb0b49548ee1ec1b2b3cef2f8d5fa2ec926b4a15148cdd80a6046e10c9560340ad901be37c53f6e4ca4386dd1396ea01362ff2cc2e979455501df342acd092eb4f913e70c7c36153af0141d9c447051fbc6bb32fa1bb7fc1d18c40682bc6ec633b23b91b000000000000000000000000000000000000000000000000000000000000",
        "nonce": "0x4bcc0",
        "chainId": "0x1ecf"
      },
      "additionalContracts": [],
      "isFixedGasLimit": false
    }
  ],
  "receipts": [
    {
      "status": "0x1",
      "cumulativeGasUsed": "0x45cf8",
      "logs": [
        {
          "address": "0x2843c269d2a64ecfa63548e8b3fc0fd23b7f70cb",
          "topics": [
            "0xbb47ee3e183a558b1a2ff0874b079f3fc5478b7454eacf2bfc5af2ff5878f972"
          ],
          "data": "0x",
          "blockHash": "0x62c6544dc51a5d9a2f38f82005ebd91681d98e2da15c662423c3f99a2f8acca5",
          "blockNumber": "0xb4fa4",
          "transactionHash": "0xb0d122aad714a66ed115ffce08166e2dc2c94906383fa5b1794d4feb06d8391f",
          "transactionIndex": "0x1",
          "logIndex": "0x0",
          "removed": false
        },
        {
          "address": "0x010700808d59d2bb92257fcafacfe8e5bff7ab87",
          "topics": [
            "0xddf252ad1be2c89b69c2b068fc378daa952ba7f163c4a11628f55a4df523b3ef",
            "0x000000000000000000000000d157904639e89df05e89e0dabeec99ae3d74f9aa",
            "0x0000000000000000000000000000000000000000000000000000000000000000"
          ],
          "data": "0x0000000000000000000000000000000000000000000034f086f3b33b68400000",
          "blockHash": "0x62c6544dc51a5d9a2f38f82005ebd91681d98e2da15c662423c3f99a2f8acca5",
          "blockNumber": "0xb4fa4",
          "transactionHash": "0xb0d122aad714a66ed115ffce08166e2dc2c94906383fa5b1794d4feb06d8391f",
          "transactionIndex": "0x1",
          "logIndex": "0x1",
          "removed": false
        },
        {
          "address": "0x2843c269d2a64ecfa63548e8b3fc0fd23b7f70cb",
          "topics": [
            "0x49628fd1471006c1482da88028e9ce4dbb080b815c9b0344d39e5a8e6ec1419f",
            "0x33e40ab82a7dfca8973f2e597a4461ca8c288c3142d8c21c460a6ab9b2287afc",
            "0x0000000000000000000000002e2b1c42e38f5af81771e65d87729e57abd1337a",
            "0x0000000000000000000000000000000000000000000000000000000000000000"
          ],
          "data": "0x00000000000000000000000000000000000000000000000000000000000011720000000000000000000000000000000000000000000000000000000000000001000000000000000000000000000000000000000000000000000000000008e1ea000000000000000000000000000000000000000000000000000000000008e1ea",
          "blockHash": "0x62c6544dc51a5d9a2f38f82005ebd91681d98e2da15c662423c3f99a2f8acca5",
          "blockNumber": "0xb4fa4",
          "transactionHash": "0xb0d122aad714a66ed115ffce08166e2dc2c94906383fa5b1794d4feb06d8391f",
          "transactionIndex": "0x1",
          "logIndex": "0x2",
          "removed": false
        }
      ],
      "logsBloom": "0x00002000000400000000000000000000000000000000000000000000000001000008000000400000000000010000000000000000000000000000020000000000000000000000000000000008000000000000000000000000000000000000000800000000020000000000000000000800002000000000000000000010000000008000000000000000000000000000800000000000000000000000000000000000001400000000000000400000000000000000000000000000000002000000000000000002000000100001000000000000000000000000000000000000000020000000000000010000000000000000800000000000000000000000000000000800",
      "type": "0x0",
      "transactionHash": "0xb0d122aad714a66ed115ffce08166e2dc2c94906383fa5b1794d4feb06d8391f",
      "transactionIndex": "0x1",
      "blockHash": "0x62c6544dc51a5d9a2f38f82005ebd91681d98e2da15c662423c3f99a2f8acca5",
      "blockNumber": "0xb4fa4",
      "gasUsed": "0x45cf8",
      "effectiveGasPrice": "0x5f5e100",
      "from": "0x660ad4b5a74130a4796b4d54bc6750ae93c86e6c",
      "to": "0x2843c269d2a64ecfa63548e8b3fc0fd23b7f70cb",
      "contractAddress": null,
      "gasUsedForL1": "0x10e97",
      "l1BlockNumber": "0x14daec1"
    },
    {
      "status": "0x1",
      "cumulativeGasUsed": "0x494d5",
      "logs": [
        {
          "address": "0x2843c269d2a64ecfa63548e8b3fc0fd23b7f70cb",
          "topics": [
            "0xbb47ee3e183a558b1a2ff0874b079f3fc5478b7454eacf2bfc5af2ff5878f972"
          ],
          "data": "0x",
          "blockHash": "0x28ee74442a927d1d76fe09d331582b84c7360e393404e17da2c1db06ba8111a7",
          "blockNumber": "0xb4fa5",
          "transactionHash": "0x89b7e551e84a3cee1f2a79b30b38a0a2ff0794fb32e14075f414551f28a96dd1",
          "transactionIndex": "0x1",
          "logIndex": "0x0",
          "removed": false
        },
        {
          "address": "0x010700808d59d2bb92257fcafacfe8e5bff7ab87",
          "topics": [
            "0xddf252ad1be2c89b69c2b068fc378daa952ba7f163c4a11628f55a4df523b3ef",
            "0x0000000000000000000000000000000000000000000000000000000000000000",
            "0x0000000000000000000000005a1e00884e35bf2dc39af51712d08bef24b1817f"
          ],
          "data": "0x0000000000000000000000000000000000000000000034f086f3b33b68400000",
          "blockHash": "0x28ee74442a927d1d76fe09d331582b84c7360e393404e17da2c1db06ba8111a7",
          "blockNumber": "0xb4fa5",
          "transactionHash": "0x89b7e551e84a3cee1f2a79b30b38a0a2ff0794fb32e14075f414551f28a96dd1",
          "transactionIndex": "0x1",
          "logIndex": "0x1",
          "removed": false
        },
        {
          "address": "0x2843c269d2a64ecfa63548e8b3fc0fd23b7f70cb",
          "topics": [
            "0x49628fd1471006c1482da88028e9ce4dbb080b815c9b0344d39e5a8e6ec1419f",
            "0x8426eb4d45c0ed9bc8533207e4b1dd212503f07c30f49123f640fea471280f21",
            "0x0000000000000000000000002e2b1c42e38f5af81771e65d87729e57abd1337a",
            "0x0000000000000000000000000000000000000000000000000000000000000000"
          ],
          "data": "0x0000000000000000000000000000000000000000000000000000000000001173000000000000000000000000000000000000000000000000000000000000000100000000000000000000000000000000000000000000000000000000000916c900000000000000000000000000000000000000000000000000000000000916c9",
          "blockHash": "0x28ee74442a927d1d76fe09d331582b84c7360e393404e17da2c1db06ba8111a7",
          "blockNumber": "0xb4fa5",
          "transactionHash": "0x89b7e551e84a3cee1f2a79b30b38a0a2ff0794fb32e14075f414551f28a96dd1",
          "transactionIndex": "0x1",
          "logIndex": "0x2",
          "removed": false
        }
      ],
      "logsBloom": "0x00000000000400000000000000000000000000000800000000000000000000000008000100000000000000010000000000000000000000000000020000100000040000000000000000000008000000080000000000000000000000000000000800000000020000000000000000000800002000000000000000000010000000000000000000000000000000000000800000000000000000000000000000000000001400000000000000400000000000000000000000000000000002000000000000000002000000100001000000000000000000000000000000000000000020000040000000010000000000000000800000000000000000000000000000000000",
      "type": "0x0",
      "transactionHash": "0x89b7e551e84a3cee1f2a79b30b38a0a2ff0794fb32e14075f414551f28a96dd1",
      "transactionIndex": "0x1",
      "blockHash": "0x28ee74442a927d1d76fe09d331582b84c7360e393404e17da2c1db06ba8111a7",
      "blockNumber": "0xb4fa5",
      "gasUsed": "0x494d5",
      "effectiveGasPrice": "0x5f5e100",
      "from": "0x660ad4b5a74130a4796b4d54bc6750ae93c86e6c",
      "to": "0x2843c269d2a64ecfa63548e8b3fc0fd23b7f70cb",
      "contractAddress": null,
      "gasUsedForL1": "0x10bc1",
      "l1BlockNumber": "0x14daec1"
    }
  ],
  "libraries": [],
  "pending": [],
  "returns": {},
  "timestamp": 1739820992,
  "chain": 7887,
  "commit": "e4a023b"
}