{
  "transactions": [
    {
      "hash": null,
      "transactionType": "CALL",
      "contractName": null,
      "contractAddress": "0x2843c269d2a64ecfa63548e8b3fc0fd23b7f70cb",
      "function": "handleOps((address,uint256,bytes,bytes,uint256,uint256,uint256,uint256,uint256,bytes,bytes)[],address)",
      "arguments": [
        "[(0x2e2B1c42E38f5af81771e65D87729E57ABD1337a, 3743, 0x, 0xb61d27f60000000000000000000000005a2b641b84b0230c8e75f55d5afd27f4dbd59d5b000000000000000000000000000000000000000000000000000000000000000000000000000000000000000000000000000000000000000000000000000000600000000000000000000000000000000000000000000000000000000000000144db9e99080000000000000000000000003e9727470c66b1e77034590926cde0242b5a3dcc000000000000000000000000000000000000000000000000000000000000004000000000000000000000000000000000000000000000000000000000000000070000000000000000000000006332e56a423480a211e301cb85be12814e9238bb0000000000000000000000002b98775abe9cdeb041e3c2e56c76ce2560af57fb00000000000000000000000012ff8947a2524303c13ca7da9be4914381f6557a00000000000000000000000072846179ef1467b2b71f2bb7525fcd4450e46b2a000000000000000000000000897da4d039f64090bfdb33cd2ed2da81add6fb02000000000000000000000000a7527c270f30cf3dafa6e82603b4978e1a8493590000000000000000000000006dbb5ee7c63775013faf810527dbede2810d7aee00000000000000000000000000000000000000000000000000000000, 4000000, 210000, 21000, 1, 1000000000, 0x0000000000000000000000000000000000000000, 0xfc4ce1218c6d1ce0f14266566ca7e3608ac728e92d2e8b9ae5c5bfef7eceb13006ad3d5963164a09e80227a7ba8b027c1f73a658e25d5623b63539dbde697e0b1b2bfa04443a9f70de4deda214dd5efa493b2b6605a3f5901028627c30306e35b52ef619bae887256b47822c14e2f773ad85ea7bc4a27e37698b1e5678a6fbe5bf1c)]",
        "0x660ad4B5A74130a4796B4d54BC6750Ae93C86e6c"
      ],
      "transaction": {
        "from": "0x660ad4b5a74130a4796b4d54bc6750ae93c86e6c",
        "to": "0x2843c269d2a64ecfa63548e8b3fc0fd23b7f70cb",
        "value": "0x0",
        "input": "0x1fad948c0000000000000000000000000000000000000000000000000000000000000040000000000000000000000000660ad4b5a74130a4796b4d54bc6750ae93c86e6c000000000000000000000000000000000000000000000000000000000000000100000000000000000000000000000000000000000000000000000000000000200000000000000000000000002e2b1c42e38f5af81771e65d87729e57abd1337a0000000000000000000000000000000000000000000000000000000000000e9f0000000000000000000000000000000000000000000000000000000000000160000000000000000000000000000000000000000000000000000000000000018000000000000000000000000000000000000000000000000000000000003d0900000000000000000000000000000000000000000000000000000000000003345000000000000000000000000000000000000000000000000000000000000052080000000000000000000000000000000000000000000000000000000000000001000000000000000000000000000000000000000000000000000000003b9aca0000000000000000000000000000000000000000000000000000000000000003a000000000000000000000000000000000000000000000000000000000000003e0000000000000000000000000000000000000000000000000000000000000000000000000000000000000000000000000000000000000000000000000000001e4b61d27f60000000000000000000000005a2b641b84b0230c8e75f55d5afd27f4dbd59d5b000000000000000000000000000000000000000000000000000000000000000000000000000000000000000000000000000000000000000000000000000000600000000000000000000000000000000000000000000000000000000000000144db9e99080000000000000000000000003e9727470c66b1e77034590926cde0242b5a3dcc000000000000000000000000000000000000000000000000000000000000004000000000000000000000000000000000000000000000000000000000000000070000000000000000000000006332e56a423480a211e301cb85be12814e9238bb0000000000000000000000002b98775abe9cdeb041e3c2e56c76ce2560af57fb00000000000000000000000012ff8947a2524303c13ca7da9be4914381f6557a00000000000000000000000072846179ef1467b2b71f2bb7525fcd4450e46b2a000000000000000000000000897da4d039f64090bfdb33cd2ed2da81add6fb02000000000000000000000000a7527c270f30cf3dafa6e82603b4978e1a8493590000000000000000000000006dbb5ee7c63775013faf810527dbede2810d7aee0000000000000000000000000000000000000000000000000000000000000000000000000000000000000000000000000000000000000000000000000000000000000000000000000000000000000000000000000000001400000000000000000000000000000000000000000000000000000000000000000000000000000000000000000000000000000000000000000000000000000082fc4ce1218c6d1ce0f14266566ca7e3608ac728e92d2e8b9ae5c5bfef7eceb13006ad3d5963164a09e80227a7ba8b027c1f73a658e25d5623b63539dbde697e0b1b2bfa04443a9f70de4deda214dd5efa493b2b6605a3f5901028627c30306e35b52ef619bae887256b47822c14e2f773ad85ea7bc4a27e37698b1e5678a6fbe5bf1c000000000000000000000000000000000000000000000000000000000000",
        "nonce": "0x6053",
        "chainId": "0x1ecf"
      },
      "additionalContracts": [],
      "isFixedGasLimit": false
    }
  ],
  "receipts": [],
  "libraries": [],
  "pending": [],
  "returns": {},
  "timestamp": 1731276224,
  "chain": 7887,
  "commit": "850d688"
}