{
  "transactions": [
    {
      "hash": "0xc9d00e87cb057ec328aa06db8d142f3b89ee2aa1613c627a7bf86cf6cbafa577",
      "transactionType": "CALL",
      "contractName": null,
      "contractAddress": "0x2843c269d2a64ecfa63548e8b3fc0fd23b7f70cb",
      "function": "handleOps((address,uint256,bytes,bytes,uint256,uint256,uint256,uint256,uint256,bytes,bytes)[],address)",
      "arguments": [
        "[(0x2e2B1c42E38f5af81771e65D87729E57ABD1337a, 4482, 0x, 0xb61d27f60000000000000000000000005a1e00884e35bf2dc39af51712d08bef24b1817f000000000000000000000000000000000000000000000000000000000000000000000000000000000000000000000000000000000000000000000000000000600000000000000000000000000000000000000000000000000000000000000024d9f1aed90000000000000000000000000000000000000000000000000000037e11d6000000000000000000000000000000000000000000000000000000000000, 4000000, 210000, 21000, 1, 1000000000, 0x0000000000000000000000000000000000000000, 0x393cc5761db5c449f9ab154e0a4354370ca84a01e043f18b21b209c1cb651c3b67407a244b75fffe10e402b46e62762ececfa1db12813b234b46091e7b55dd8e1c)]",
        "0x660ad4B5A74130a4796B4d54BC6750Ae93C86e6c"
      ],
      "transaction": {
        "from": "0x660ad4b5a74130a4796b4d54bc6750ae93c86e6c",
        "to": "0x2843c269d2a64ecfa63548e8b3fc0fd23b7f70cb",
        "value": "0x0",
        "input": "0x1fad948c0000000000000000000000000000000000000000000000000000000000000040000000000000000000000000660ad4b5a74130a4796b4d54bc6750ae93c86e6c000000000000000000000000000000000000000000000000000000000000000100000000000000000000000000000000000000000000000000000000000000200000000000000000000000002e2b1c42e38f5af81771e65d87729e57abd1337a00000000000000000000000000000000000000000000000000000000000011820000000000000000000000000000000000000000000000000000000000000160000000000000000000000000000000000000000000000000000000000000018000000000000000000000000000000000000000000000000000000000003d0900000000000000000000000000000000000000000000000000000000000003345000000000000000000000000000000000000000000000000000000000000052080000000000000000000000000000000000000000000000000000000000000001000000000000000000000000000000000000000000000000000000003b9aca00000000000000000000000000000000000000000000000000000000000000028000000000000000000000000000000000000000000000000000000000000002c0000000000000000000000000000000000000000000000000000000000000000000000000000000000000000000000000000000000000000000000000000000c4b61d27f60000000000000000000000005a1e00884e35bf2dc39af51712d08bef24b1817f000000000000000000000000000000000000000000000000000000000000000000000000000000000000000000000000000000000000000000000000000000600000000000000000000000000000000000000000000000000000000000000024d9f1aed90000000000000000000000000000000000000000000000000000037e11d600000000000000000000000000000000000000000000000000000000000000000000000000000000000000000000000000000000000000000000000000000000000000000000000000000000000000000000000000000000001400000000000000000000000000000000000000000000000000000000000000000000000000000000000000000000000000000000000000000000000000000041393cc5761db5c449f9ab154e0a4354370ca84a01e043f18b21b209c1cb651c3b67407a244b75fffe10e402b46e62762ececfa1db12813b234b46091e7b55dd8e1c00000000000000000000000000000000000000000000000000000000000000",
        "nonce": "0x4bcdc",
        "chainId": "0x1ecf"
      },
      "additionalContracts": [],
      "isFixedGasLimit": false
    }
  ],
  "receipts": [
    {
      "status": "0x1",
      "cumulativeGasUsed": "0x426ce",
      "logs": [
        {
          "address": "0x2843c269d2a64ecfa63548e8b3fc0fd23b7f70cb",
          "topics": [
            "0xbb47ee3e183a558b1a2ff0874b079f3fc5478b7454eacf2bfc5af2ff5878f972"
          ],
          "data": "0x",
          "blockHash": "0x729f4728439398e8e65a91dd5b51de2271e297e330680cefc8b82dd2dd4b1a60",
          "blockNumber": "0xb7e2b",
          "transactionHash": "0xc9d00e87cb057ec328aa06db8d142f3b89ee2aa1613c627a7bf86cf6cbafa577",
          "transactionIndex": "0x1",
          "logIndex": "0x0",
          "removed": false
        },
        {
          "address": "0x05dc0010c9902ecf6cbc921c6a4bd971c69e5a2e",
          "topics": [
            "0xddf252ad1be2c89b69c2b068fc378daa952ba7f163c4a11628f55a4df523b3ef",
            "0x0000000000000000000000005a1e00884e35bf2dc39af51712d08bef24b1817f",
            "0x000000000000000000000000793500709506652fcc61f0d2d0fda605638d4293"
          ],
          "data": "0x0000000000000000000000000000000000000000000000000000037e11d60000",
          "blockHash": "0x729f4728439398e8e65a91dd5b51de2271e297e330680cefc8b82dd2dd4b1a60",
          "blockNumber": "0xb7e2b",
          "transactionHash": "0xc9d00e87cb057ec328aa06db8d142f3b89ee2aa1613c627a7bf86cf6cbafa577",
          "transactionIndex": "0x1",
          "logIndex": "0x1",
          "removed": false
        },
        {
          "address": "0x2843c269d2a64ecfa63548e8b3fc0fd23b7f70cb",
          "topics": [
            "0x49628fd1471006c1482da88028e9ce4dbb080b815c9b0344d39e5a8e6ec1419f",
            "0x8739db9e50b563d682d8e9d91773441506b5bbc050939a76f357580b5d8b2196",
            "0x0000000000000000000000002e2b1c42e38f5af81771e65d87729e57abd1337a",
            "0x0000000000000000000000000000000000000000000000000000000000000000"
          ],
          "data": "0x000000000000000000000000000000000000000000000000000000000000118200000000000000000000000000000000000000000000000000000000000000010000000000000000000000000000000000000000000000000000000000084bb30000000000000000000000000000000000000000000000000000000000084bb3",
          "blockHash": "0x729f4728439398e8e65a91dd5b51de2271e297e330680cefc8b82dd2dd4b1a60",
          "blockNumber": "0xb7e2b",
          "transactionHash": "0xc9d00e87cb057ec328aa06db8d142f3b89ee2aa1613c627a7bf86cf6cbafa577",
          "transactionIndex": "0x1",
          "logIndex": "0x2",
          "removed": false
        }
      ],
      "logsBloom": "0x00000000000000000000001000080000000000000800000000000000000000000008000000000000000000010000000000008000000000400000020000100000000000000000000200000008000100080000000000000000000000000000000800000000020000000000000000000800002000000000000000000010000000000000000000000000000000000000800000000000000000000000000000000000000400000000040000400000000000000000000000000000000002000000000000000002000000100001000000000080000000000000020000000000000020000000000000010000000000000000000000000000000000000000000000000000",
      "type": "0x2",
      "transactionHash": "0xc9d00e87cb057ec328aa06db8d142f3b89ee2aa1613c627a7bf86cf6cbafa577",
      "transactionIndex": "0x1",
      "blockHash": "0x729f4728439398e8e65a91dd5b51de2271e297e330680cefc8b82dd2dd4b1a60",
      "blockNumber": "0xb7e2b",
      "gasUsed": "0x426ce",
      "effectiveGasPrice": "0x5f5e100",
      "from": "0x660ad4b5a74130a4796b4d54bc6750ae93c86e6c",
      "to": "0x2843c269d2a64ecfa63548e8b3fc0fd23b7f70cb",
      "contractAddress": null,
      "gasUsedForL1": "0x17eb1",
      "l1BlockNumber": "0x14e20fc"
    }
  ],
  "libraries": [],
  "pending": [],
  "returns": {},
  "timestamp": 1740174116,
  "chain": 7887,
  "commit": "2472c2c"
}