{
  "transactions": [
    {
      "hash": "0xd9e46fe693d0a737c5101ef7e14da961b6f23c46551707e5604d0d1e540a8604",
      "transactionType": "CALL",
      "contractName": null,
      "contractAddress": "0x2843c269d2a64ecfa63548e8b3fc0fd23b7f70cb",
      "function": "handleOps((address,uint256,bytes,bytes,uint256,uint256,uint256,uint256,uint256,bytes,bytes)[],address)",
      "arguments": [
        "[(0x2e2B1c42E38f5af81771e65D87729E57ABD1337a, 4409, 0x, 0xb61d27f6000000000000000000000000010700808d59d2bb92257fcafacfe8e5bff7ab870000000000000000000000000000000000000000000000000000000000000000000000000000000000000000000000000000000000000000000000000000006000000000000000000000000000000000000000000000000000000000000000449dc29fac000000000000000000000000d157904639e89df05e89e0dabeec99ae3d74f9aa00000000000000000000000000000000000000000000000168d28e3f0028000000000000000000000000000000000000000000000000000000000000, 4000000, 210000, 21000, 1, 1000000000, 0x0000000000000000000000000000000000000000, 0x26e664a6a98849c27298a4405877b14c4ef0f1efe423e5e5336487fbd0cae92c0504bd8764cc5cf2a58e53e9c08a2695239564458842da724786b8a3686702dc1ba1ddd1df60d199ab8f8bf66b66fd98ee6b63093fb756837414c2c379bdbbe0b060b91186b88430f1705c0eca5df88b86baf02449a4e17f225a2e74b17b7da71e1b)]",
        "0x660ad4B5A74130a4796B4d54BC6750Ae93C86e6c"
      ],
      "transaction": {
        "from": "0x660ad4b5a74130a4796b4d54bc6750ae93c86e6c",
        "to": "0x2843c269d2a64ecfa63548e8b3fc0fd23b7f70cb",
        "value": "0x0",
        "input": "0x1fad948c0000000000000000000000000000000000000000000000000000000000000040000000000000000000000000660ad4b5a74130a4796b4d54bc6750ae93c86e6c000000000000000000000000000000000000000000000000000000000000000100000000000000000000000000000000000000000000000000000000000000200000000000000000000000002e2b1c42e38f5af81771e65d87729e57abd1337a00000000000000000000000000000000000000000000000000000000000011390000000000000000000000000000000000000000000000000000000000000160000000000000000000000000000000000000000000000000000000000000018000000000000000000000000000000000000000000000000000000000003d0900000000000000000000000000000000000000000000000000000000000003345000000000000000000000000000000000000000000000000000000000000052080000000000000000000000000000000000000000000000000000000000000001000000000000000000000000000000000000000000000000000000003b9aca0000000000000000000000000000000000000000000000000000000000000002a000000000000000000000000000000000000000000000000000000000000002e0000000000000000000000000000000000000000000000000000000000000000000000000000000000000000000000000000000000000000000000000000000e4b61d27f6000000000000000000000000010700808d59d2bb92257fcafacfe8e5bff7ab870000000000000000000000000000000000000000000000000000000000000000000000000000000000000000000000000000000000000000000000000000006000000000000000000000000000000000000000000000000000000000000000449dc29fac000000000000000000000000d157904639e89df05e89e0dabeec99ae3d74f9aa00000000000000000000000000000000000000000000000168d28e3f00280000000000000000000000000000000000000000000000000000000000000000000000000000000000000000000000000000000000000000000000000000000000000000000000000000000000000000000000000000000000140000000000000000000000000000000000000000000000000000000000000000000000000000000000000000000000000000000000000000000000000000008226e664a6a98849c27298a4405877b14c4ef0f1efe423e5e5336487fbd0cae92c0504bd8764cc5cf2a58e53e9c08a2695239564458842da724786b8a3686702dc1ba1ddd1df60d199ab8f8bf66b66fd98ee6b63093fb756837414c2c379bdbbe0b060b91186b88430f1705c0eca5df88b86baf02449a4e17f225a2e74b17b7da71e1b000000000000000000000000000000000000000000000000000000000000",
        "nonce": "0x4bc6d",
        "chainId": "0x1ecf"
      },
      "additionalContracts": [],
      "isFixedGasLimit": false
    },
    {
      "hash": "0x9e2818e6179bc7b052e3d1d54dd447e91968b62786e0d84b94f25be7ca942610",
      "transactionType": "CALL",
      "contractName": null,
      "contractAddress": "0x2843c269d2a64ecfa63548e8b3fc0fd23b7f70cb",
      "function": "handleOps((address,uint256,bytes,bytes,uint256,uint256,uint256,uint256,uint256,bytes,bytes)[],address)",
      "arguments": [
        "[(0x2e2B1c42E38f5af81771e65D87729E57ABD1337a, 4410, 0x, 0xb61d27f6000000000000000000000000010700808d59d2bb92257fcafacfe8e5bff7ab8700000000000000000000000000000000000000000000000000000000000000000000000000000000000000000000000000000000000000000000000000000060000000000000000000000000000000000000000000000000000000000000004440c10f190000000000000000000000004f9f1c7b9fe78dd394e28ccea16cb8d0465e61f10000000000000000000000000000000000000000000000015af1d78b58c4000000000000000000000000000000000000000000000000000000000000, 4000000, 210000, 21000, 1, 1000000000, 0x0000000000000000000000000000000000000000, 0x122c00758919723934a20ffeeac00c18871ea5b50b2a2ce69c615d22c6350d7b27202b445fe0957211f0e4a8e6352c3140ce337cb42f407c054f028fce9074501c4d1915c58c1882febf1d876b2e0ddaabc9bd6425fe2c6945cfdf18024f797bf31b3088a945db062c3d182d68bb192284b61eeb3d981e5e388542e6bff97ed0581b)]",
        "0x660ad4B5A74130a4796B4d54BC6750Ae93C86e6c"
      ],
      "transaction": {
        "from": "0x660ad4b5a74130a4796b4d54bc6750ae93c86e6c",
        "to": "0x2843c269d2a64ecfa63548e8b3fc0fd23b7f70cb",
        "value": "0x0",
        "input": "0x1fad948c0000000000000000000000000000000000000000000000000000000000000040000000000000000000000000660ad4b5a74130a4796b4d54bc6750ae93c86e6c000000000000000000000000000000000000000000000000000000000000000100000000000000000000000000000000000000000000000000000000000000200000000000000000000000002e2b1c42e38f5af81771e65d87729e57abd1337a000000000000000000000000000000000000000000000000000000000000113a0000000000000000000000000000000000000000000000000000000000000160000000000000000000000000000000000000000000000000000000000000018000000000000000000000000000000000000000000000000000000000003d0900000000000000000000000000000000000000000000000000000000000003345000000000000000000000000000000000000000000000000000000000000052080000000000000000000000000000000000000000000000000000000000000001000000000000000000000000000000000000000000000000000000003b9aca0000000000000000000000000000000000000000000000000000000000000002a000000000000000000000000000000000000000000000000000000000000002e0000000000000000000000000000000000000000000000000000000000000000000000000000000000000000000000000000000000000000000000000000000e4b61d27f6000000000000000000000000010700808d59d2bb92257fcafacfe8e5bff7ab8700000000000000000000000000000000000000000000000000000000000000000000000000000000000000000000000000000000000000000000000000000060000000000000000000000000000000000000000000000000000000000000004440c10f190000000000000000000000004f9f1c7b9fe78dd394e28ccea16cb8d0465e61f10000000000000000000000000000000000000000000000015af1d78b58c400000000000000000000000000000000000000000000000000000000000000000000000000000000000000000000000000000000000000000000000000000000000000000000000000000000000000000000000000000000001400000000000000000000000000000000000000000000000000000000000000000000000000000000000000000000000000000000000000000000000000000082122c00758919723934a20ffeeac00c18871ea5b50b2a2ce69c615d22c6350d7b27202b445fe0957211f0e4a8e6352c3140ce337cb42f407c054f028fce9074501c4d1915c58c1882febf1d876b2e0ddaabc9bd6425fe2c6945cfdf18024f797bf31b3088a945db062c3d182d68bb192284b61eeb3d981e5e388542e6bff97ed0581b000000000000000000000000000000000000000000000000000000000000",
        "nonce": "0x4bc6e",
        "chainId": "0x1ecf"
      },
      "additionalContracts": [],
      "isFixedGasLimit": false
    },
    {
      "hash": "0x5b9a7e9fb9243774650a408e4a8bd38dc325443adec0fce914376091afd7ae2a",
      "transactionType": "CALL",
      "contractName": null,
      "contractAddress": "0x2843c269d2a64ecfa63548e8b3fc0fd23b7f70cb",
      "function": "handleOps((address,uint256,bytes,bytes,uint256,uint256,uint256,uint256,uint256,bytes,bytes)[],address)",
      "arguments": [
        "[(0x2e2B1c42E38f5af81771e65D87729E57ABD1337a, 4411, 0x, 0xb61d27f6000000000000000000000000010700808d59d2bb92257fcafacfe8e5bff7ab8700000000000000000000000000000000000000000000000000000000000000000000000000000000000000000000000000000000000000000000000000000060000000000000000000000000000000000000000000000000000000000000004440c10f19000000000000000000000000d8511cedbf108a50fdf429a08e55e493568901690000000000000000000000000000000000000000000000000de0b6b3a764000000000000000000000000000000000000000000000000000000000000, 4000000, 210000, 21000, 1, 1000000000, 0x0000000000000000000000000000000000000000, 0x02ccdcf0edb17cee7d46c12f9ffe26f4b315310c94cfad6e11dda218cb2b0aad529b58534a17b16264dd5d1e2e70589c181229b5dd7df94d2bcc6f570cabb2a91bab69946b4dc01bfa77d01b78fbec84754a07e71ee0509e4f5dbb0b713cce2155447584df40f06cdc5c9e13e9183f4db4a7ba47626621e65670394e02940cd67c1c)]",
        "0x660ad4B5A74130a4796B4d54BC6750Ae93C86e6c"
      ],
      "transaction": {
        "from": "0x660ad4b5a74130a4796b4d54bc6750ae93c86e6c",
        "to": "0x2843c269d2a64ecfa63548e8b3fc0fd23b7f70cb",
        "value": "0x0",
        "input": "0x1fad948c0000000000000000000000000000000000000000000000000000000000000040000000000000000000000000660ad4b5a74130a4796b4d54bc6750ae93c86e6c000000000000000000000000000000000000000000000000000000000000000100000000000000000000000000000000000000000000000000000000000000200000000000000000000000002e2b1c42e38f5af81771e65d87729e57abd1337a000000000000000000000000000000000000000000000000000000000000113b0000000000000000000000000000000000000000000000000000000000000160000000000000000000000000000000000000000000000000000000000000018000000000000000000000000000000000000000000000000000000000003d0900000000000000000000000000000000000000000000000000000000000003345000000000000000000000000000000000000000000000000000000000000052080000000000000000000000000000000000000000000000000000000000000001000000000000000000000000000000000000000000000000000000003b9aca0000000000000000000000000000000000000000000000000000000000000002a000000000000000000000000000000000000000000000000000000000000002e0000000000000000000000000000000000000000000000000000000000000000000000000000000000000000000000000000000000000000000000000000000e4b61d27f6000000000000000000000000010700808d59d2bb92257fcafacfe8e5bff7ab8700000000000000000000000000000000000000000000000000000000000000000000000000000000000000000000000000000000000000000000000000000060000000000000000000000000000000000000000000000000000000000000004440c10f19000000000000000000000000d8511cedbf108a50fdf429a08e55e493568901690000000000000000000000000000000000000000000000000de0b6b3a7640000000000000000000000000000000000000000000000000000000000000000000000000000000000000000000000000000000000000000000000000000000000000000000000000000000000000000000000000000000000140000000000000000000000000000000000000000000000000000000000000000000000000000000000000000000000000000000000000000000000000000008202ccdcf0edb17cee7d46c12f9ffe26f4b315310c94cfad6e11dda218cb2b0aad529b58534a17b16264dd5d1e2e70589c181229b5dd7df94d2bcc6f570cabb2a91bab69946b4dc01bfa77d01b78fbec84754a07e71ee0509e4f5dbb0b713cce2155447584df40f06cdc5c9e13e9183f4db4a7ba47626621e65670394e02940cd67c1c000000000000000000000000000000000000000000000000000000000000",
        "nonce": "0x4bc6f",
        "chainId": "0x1ecf"
      },
      "additionalContracts": [],
      "isFixedGasLimit": false
    }
  ],
  "receipts": [
    {
      "status": "0x1",
      "cumulativeGasUsed": "0x6b1b9",
      "logs": [
        {
          "address": "0x2843c269d2a64ecfa63548e8b3fc0fd23b7f70cb",
          "topics": [
            "0xbb47ee3e183a558b1a2ff0874b079f3fc5478b7454eacf2bfc5af2ff5878f972"
          ],
          "data": "0x",
          "blockHash": "0x7355388b0710ae84b73a5dd1d7300bf7cef2a9b43df7cb9030cb8b425d965d56",
          "blockNumber": "0xb0b8b",
          "transactionHash": "0xd9e46fe693d0a737c5101ef7e14da961b6f23c46551707e5604d0d1e540a8604",
          "transactionIndex": "0x1",
          "logIndex": "0x0",
          "removed": false
        },
        {
          "address": "0x010700808d59d2bb92257fcafacfe8e5bff7ab87",
          "topics": [
            "0xddf252ad1be2c89b69c2b068fc378daa952ba7f163c4a11628f55a4df523b3ef",
            "0x000000000000000000000000d157904639e89df05e89e0dabeec99ae3d74f9aa",
            "0x0000000000000000000000000000000000000000000000000000000000000000"
          ],
          "data": "0x00000000000000000000000000000000000000000000000168d28e3f00280000",
          "blockHash": "0x7355388b0710ae84b73a5dd1d7300bf7cef2a9b43df7cb9030cb8b425d965d56",
          "blockNumber": "0xb0b8b",
          "transactionHash": "0xd9e46fe693d0a737c5101ef7e14da961b6f23c46551707e5604d0d1e540a8604",
          "transactionIndex": "0x1",
          "logIndex": "0x1",
          "removed": false
        },
        {
          "address": "0x2843c269d2a64ecfa63548e8b3fc0fd23b7f70cb",
          "topics": [
            "0x49628fd1471006c1482da88028e9ce4dbb080b815c9b0344d39e5a8e6ec1419f",
            "0x418a049417eb9fc4e41d689324d89219eefa880a1c4146268540c5217e9cb6d3",
            "0x0000000000000000000000002e2b1c42e38f5af81771e65d87729e57abd1337a",
            "0x0000000000000000000000000000000000000000000000000000000000000000"
          ],
          "data": "0x00000000000000000000000000000000000000000000000000000000000011390000000000000000000000000000000000000000000000000000000000000001000000000000000000000000000000000000000000000000000000000008ebc5000000000000000000000000000000000000000000000000000000000008ebc5",
          "blockHash": "0x7355388b0710ae84b73a5dd1d7300bf7cef2a9b43df7cb9030cb8b425d965d56",
          "blockNumber": "0xb0b8b",
          "transactionHash": "0xd9e46fe693d0a737c5101ef7e14da961b6f23c46551707e5604d0d1e540a8604",
          "transactionIndex": "0x1",
          "logIndex": "0x2",
          "removed": false
        }
      ],
      "logsBloom": "0x00002000000400000000000000000000000000000000000000000000000001000008000000000000000000010000000800000000000000000000020000000000000000000000000000000008000000000000000000000000008000000000000800000000020000000000000000000800002000000000000000000010000000000000000000000000000000000000800000000000000000000000000000000000001400000000000000400000000000000000000000000000000002000000000000000002000000100001000000000004000000000000000000000000000020000000000000010000000000000000800000000000000000000000000000000800",
      "type": "0x2",
      "transactionHash": "0xd9e46fe693d0a737c5101ef7e14da961b6f23c46551707e5604d0d1e540a8604",
      "transactionIndex": "0x1",
      "blockHash": "0x7355388b0710ae84b73a5dd1d7300bf7cef2a9b43df7cb9030cb8b425d965d56",
      "blockNumber": "0xb0b8b",
      "gasUsed": "0x6b1b9",
      "effectiveGasPrice": "0x5f5e100",
      "from": "0x660ad4b5a74130a4796b4d54bc6750ae93c86e6c",
      "to": "0x2843c269d2a64ecfa63548e8b3fc0fd23b7f70cb",
      "contractAddress": null,
      "gasUsedForL1": "0x35995",
      "l1BlockNumber": "0x14c2db5"
    },
    {
      "status": "0x1",
      "cumulativeGasUsed": "0x6ba4f",
      "logs": [
        {
          "address": "0x2843c269d2a64ecfa63548e8b3fc0fd23b7f70cb",
          "topics": [
            "0xbb47ee3e183a558b1a2ff0874b079f3fc5478b7454eacf2bfc5af2ff5878f972"
          ],
          "data": "0x",
          "blockHash": "0x8dbd76a7ed85cafc3de8143e96868109188aa17ecba0047e255b2e797561161d",
          "blockNumber": "0xb0b8c",
          "transactionHash": "0x9e2818e6179bc7b052e3d1d54dd447e91968b62786e0d84b94f25be7ca942610",
          "transactionIndex": "0x1",
          "logIndex": "0x0",
          "removed": false
        },
        {
          "address": "0x010700808d59d2bb92257fcafacfe8e5bff7ab87",
          "topics": [
            "0xddf252ad1be2c89b69c2b068fc378daa952ba7f163c4a11628f55a4df523b3ef",
            "0x0000000000000000000000000000000000000000000000000000000000000000",
            "0x0000000000000000000000004f9f1c7b9fe78dd394e28ccea16cb8d0465e61f1"
          ],
          "data": "0x0000000000000000000000000000000000000000000000015af1d78b58c40000",
          "blockHash": "0x8dbd76a7ed85cafc3de8143e96868109188aa17ecba0047e255b2e797561161d",
          "blockNumber": "0xb0b8c",
          "transactionHash": "0x9e2818e6179bc7b052e3d1d54dd447e91968b62786e0d84b94f25be7ca942610",
          "transactionIndex": "0x1",
          "logIndex": "0x1",
          "removed": false
        },
        {
          "address": "0x2843c269d2a64ecfa63548e8b3fc0fd23b7f70cb",
          "topics": [
            "0x49628fd1471006c1482da88028e9ce4dbb080b815c9b0344d39e5a8e6ec1419f",
            "0x9a4753040495ca5305ae2c3a99b00cd6e30e71bef49e14666067969a2a509b00",
            "0x0000000000000000000000002e2b1c42e38f5af81771e65d87729e57abd1337a",
            "0x0000000000000000000000000000000000000000000000000000000000000000"
          ],
          "data": "0x000000000000000000000000000000000000000000000000000000000000113a0000000000000000000000000000000000000000000000000000000000000001000000000000000000000000000000000000000000000000000000000008e486000000000000000000000000000000000000000000000000000000000008e486",
          "blockHash": "0x8dbd76a7ed85cafc3de8143e96868109188aa17ecba0047e255b2e797561161d",
          "blockNumber": "0xb0b8c",
          "transactionHash": "0x9e2818e6179bc7b052e3d1d54dd447e91968b62786e0d84b94f25be7ca942610",
          "transactionIndex": "0x1",
          "logIndex": "0x2",
          "removed": false
        }
      ],
      "logsBloom": "0x00000000000400000000000000400000000000000000000000000000000000000008000000000000000000010000000000000000000000000000020000000000000000000000000000000008000000000000000000000000000000000000000800000000020080000000000000000800002000000000000000000010000008000000000000000000000000000000800000000000000000000000000000000000001400000000000000402000000000000000000000200000000002000000000000000002000000100001000000000000000000000000000000000000000022000000000000010000000000000000800000000000000000000000000000000000",
      "type": "0x2",
      "transactionHash": "0x9e2818e6179bc7b052e3d1d54dd447e91968b62786e0d84b94f25be7ca942610",
      "transactionIndex": "0x1",
      "blockHash": "0x8dbd76a7ed85cafc3de8143e96868109188aa17ecba0047e255b2e797561161d",
      "blockNumber": "0xb0b8c",
      "gasUsed": "0x6ba4f",
      "effectiveGasPrice": "0x5f5e100",
      "from": "0x660ad4b5a74130a4796b4d54bc6750ae93c86e6c",
      "to": "0x2843c269d2a64ecfa63548e8b3fc0fd23b7f70cb",
      "contractAddress": null,
      "gasUsedForL1": "0x36a38",
      "l1BlockNumber": "0x14c2db5"
    },
    {
      "status": "0x1",
      "cumulativeGasUsed": "0x6acb2",
      "logs": [
        {
          "address": "0x2843c269d2a64ecfa63548e8b3fc0fd23b7f70cb",
          "topics": [
            "0xbb47ee3e183a558b1a2ff0874b079f3fc5478b7454eacf2bfc5af2ff5878f972"
          ],
          "data": "0x",
          "blockHash": "0xc75b7b63c9b6f269125e4a09de734a74f15796d56ca6f1984bd4fd59bfa116d0",
          "blockNumber": "0xb0b8d",
          "transactionHash": "0x5b9a7e9fb9243774650a408e4a8bd38dc325443adec0fce914376091afd7ae2a",
          "transactionIndex": "0x1",
          "logIndex": "0x0",
          "removed": false
        },
        {
          "address": "0x010700808d59d2bb92257fcafacfe8e5bff7ab87",
          "topics": [
            "0xddf252ad1be2c89b69c2b068fc378daa952ba7f163c4a11628f55a4df523b3ef",
            "0x0000000000000000000000000000000000000000000000000000000000000000",
            "0x000000000000000000000000d8511cedbf108a50fdf429a08e55e49356890169"
          ],
          "data": "0x0000000000000000000000000000000000000000000000000de0b6b3a7640000",
          "blockHash": "0xc75b7b63c9b6f269125e4a09de734a74f15796d56ca6f1984bd4fd59bfa116d0",
          "blockNumber": "0xb0b8d",
          "transactionHash": "0x5b9a7e9fb9243774650a408e4a8bd38dc325443adec0fce914376091afd7ae2a",
          "transactionIndex": "0x1",
          "logIndex": "0x1",
          "removed": false
        },
        {
          "address": "0x2843c269d2a64ecfa63548e8b3fc0fd23b7f70cb",
          "topics": [
            "0x49628fd1471006c1482da88028e9ce4dbb080b815c9b0344d39e5a8e6ec1419f",
            "0x093ad12d404a7597331b87c26dcf65e89ca5b42d24bf3c479d1e8a21680f24f1",
            "0x0000000000000000000000002e2b1c42e38f5af81771e65d87729e57abd1337a",
            "0x0000000000000000000000000000000000000000000000000000000000000000"
          ],
          "data": "0x000000000000000000000000000000000000000000000000000000000000113b0000000000000000000000000000000000000000000000000000000000000001000000000000000000000000000000000000000000000000000000000008e486000000000000000000000000000000000000000000000000000000000008e486",
          "blockHash": "0xc75b7b63c9b6f269125e4a09de734a74f15796d56ca6f1984bd4fd59bfa116d0",
          "blockNumber": "0xb0b8d",
          "transactionHash": "0x5b9a7e9fb9243774650a408e4a8bd38dc325443adec0fce914376091afd7ae2a",
          "transactionIndex": "0x1",
          "logIndex": "0x2",
          "removed": false
        }
      ],
      "logsBloom": "0x00000000000400000000000000000000000000000000000000000000000000000008000000000000000000010000000000000000000000000000020000000000000000000000000000000008000000000000000000000000000000000000000800000002020000000000000002000800002000000000000000000010000000000000000000000000000000000000800000000000000000000000000000000000001400040000000400400000000000000000000000000000000002000000000000000002000000100001000000000000000000000000000000000000000020000000000000010000000000000000800000000000000200000000000000000000",
      "type": "0x2",
      "transactionHash": "0x5b9a7e9fb9243774650a408e4a8bd38dc325443adec0fce914376091afd7ae2a",
      "transactionIndex": "0x1",
      "blockHash": "0xc75b7b63c9b6f269125e4a09de734a74f15796d56ca6f1984bd4fd59bfa116d0",
      "blockNumber": "0xb0b8d",
      "gasUsed": "0x6acb2",
      "effectiveGasPrice": "0x5f5e100",
      "from": "0x660ad4b5a74130a4796b4d54bc6750ae93c86e6c",
      "to": "0x2843c269d2a64ecfa63548e8b3fc0fd23b7f70cb",
      "contractAddress": null,
      "gasUsedForL1": "0x35c9b",
      "l1BlockNumber": "0x14c2db5"
    }
  ],
  "libraries": [],
  "pending": [],
  "returns": {},
  "timestamp": 1738630000,
  "chain": 7887,
  "commit": "a13647a3"
}