{
  "transactions": [
    {
      "hash": "0x681cecafb0055cd5badbe379ad4bec9428ecd2adf7782e6722edf0fe90f58d56",
      "transactionType": "CALL",
      "contractName": null,
      "contractAddress": "0x2843c269d2a64ecfa63548e8b3fc0fd23b7f70cb",
      "function": "handleOps((address,uint256,bytes,bytes,uint256,uint256,uint256,uint256,uint256,bytes,bytes)[],address)",
      "arguments": [
        "[(0x2e2B1c42E38f5af81771e65D87729E57ABD1337a, 4652, 0x, 0xb61d27f6000000000000000000000000010700808d59d2bb92257fcafacfe8e5bff7ab8700000000000000000000000000000000000000000000000000000000000000000000000000000000000000000000000000000000000000000000000000000060000000000000000000000000000000000000000000000000000000000000004440c10f19000000000000000000000000793500709506652fcc61f0d2d0fda605638d4293000000000000000000000000000000000000000000018d4dfb48a80ce72dc00000000000000000000000000000000000000000000000000000000000, 4000000, 210000, 21000, 1, 1000000000, 0x0000000000000000000000000000000000000000, 0xd0732ec2cce9dfcda2d286440463afc0022f41f290f9ec633e17cd5b3160fa5e1e1918c2a2b206530ca5fc5b85e6baf302df805f3bdd7eba1650dc2fe31bdd121c9275b17f7fd84d23390a72f27544d4a6867f612788d9c93a20292f7c0ae9ab0a14a2a36eb977d38618b5361db61308b584fa2c698a3786710e781fd2e5c343e11b)]",
        "0x660ad4B5A74130a4796B4d54BC6750Ae93C86e6c"
      ],
      "transaction": {
        "from": "0x660ad4b5a74130a4796b4d54bc6750ae93c86e6c",
        "to": "0x2843c269d2a64ecfa63548e8b3fc0fd23b7f70cb",
        "value": "0x0",
        "input": "0x1fad948c0000000000000000000000000000000000000000000000000000000000000040000000000000000000000000660ad4b5a74130a4796b4d54bc6750ae93c86e6c000000000000000000000000000000000000000000000000000000000000000100000000000000000000000000000000000000000000000000000000000000200000000000000000000000002e2b1c42e38f5af81771e65d87729e57abd1337a000000000000000000000000000000000000000000000000000000000000122c0000000000000000000000000000000000000000000000000000000000000160000000000000000000000000000000000000000000000000000000000000018000000000000000000000000000000000000000000000000000000000003d0900000000000000000000000000000000000000000000000000000000000003345000000000000000000000000000000000000000000000000000000000000052080000000000000000000000000000000000000000000000000000000000000001000000000000000000000000000000000000000000000000000000003b9aca0000000000000000000000000000000000000000000000000000000000000002a000000000000000000000000000000000000000000000000000000000000002e0000000000000000000000000000000000000000000000000000000000000000000000000000000000000000000000000000000000000000000000000000000e4b61d27f6000000000000000000000000010700808d59d2bb92257fcafacfe8e5bff7ab8700000000000000000000000000000000000000000000000000000000000000000000000000000000000000000000000000000000000000000000000000000060000000000000000000000000000000000000000000000000000000000000004440c10f19000000000000000000000000793500709506652fcc61f0d2d0fda605638d4293000000000000000000000000000000000000000000018d4dfb48a80ce72dc0000000000000000000000000000000000000000000000000000000000000000000000000000000000000000000000000000000000000000000000000000000000000000000000000000000000000000000000000000000001400000000000000000000000000000000000000000000000000000000000000000000000000000000000000000000000000000000000000000000000000000082d0732ec2cce9dfcda2d286440463afc0022f41f290f9ec633e17cd5b3160fa5e1e1918c2a2b206530ca5fc5b85e6baf302df805f3bdd7eba1650dc2fe31bdd121c9275b17f7fd84d23390a72f27544d4a6867f612788d9c93a20292f7c0ae9ab0a14a2a36eb977d38618b5361db61308b584fa2c698a3786710e781fd2e5c343e11b000000000000000000000000000000000000000000000000000000000000",
        "nonce": "0x4bd95",
        "chainId": "0x1ecf"
      },
      "additionalContracts": [],
      "isFixedGasLimit": false
    },
    {
      "hash": "0x3210a162f3b9294e9dfd69eec7ea472783edb5cce568633156b03a4e0ee11198",
      "transactionType": "CALL",
      "contractName": null,
      "contractAddress": "0x2843c269d2a64ecfa63548e8b3fc0fd23b7f70cb",
      "function": "handleOps((address,uint256,bytes,bytes,uint256,uint256,uint256,uint256,uint256,bytes,bytes)[],address)",
      "arguments": [
        "[(0x2e2B1c42E38f5af81771e65D87729E57ABD1337a, 4653, 0x, 0xb61d27f6000000000000000000000000010700808d59d2bb92257fcafacfe8e5bff7ab8700000000000000000000000000000000000000000000000000000000000000000000000000000000000000000000000000000000000000000000000000000060000000000000000000000000000000000000000000000000000000000000004440c10f19000000000000000000000000b821108724b52ac141c9165c01242e746eebc53c00000000000000000000000000000000000000000003b8e97d229a2d5480000000000000000000000000000000000000000000000000000000000000, 4000000, 210000, 21000, 1, 1000000000, 0x0000000000000000000000000000000000000000, 0xc560e554c503e2f55670bcc614382b615c1aa0d5398257e7e9ec78caab59a491304e324e5699d84cf9c76b358e8f6a179fbc82689a7329898f1cab95d9fca57e1b941219600e85cce64128c66a8133d2a18d0259daa6ef526f60a48bca409ce90c3ac3555abc4c7406f2b22f0eb54165721bf966e283be932b1f286b77c2e05a5a1c)]",
        "0x660ad4B5A74130a4796B4d54BC6750Ae93C86e6c"
      ],
      "transaction": {
        "from": "0x660ad4b5a74130a4796b4d54bc6750ae93c86e6c",
        "to": "0x2843c269d2a64ecfa63548e8b3fc0fd23b7f70cb",
        "value": "0x0",
        "input": "0x1fad948c0000000000000000000000000000000000000000000000000000000000000040000000000000000000000000660ad4b5a74130a4796b4d54bc6750ae93c86e6c000000000000000000000000000000000000000000000000000000000000000100000000000000000000000000000000000000000000000000000000000000200000000000000000000000002e2b1c42e38f5af81771e65d87729e57abd1337a000000000000000000000000000000000000000000000000000000000000122d0000000000000000000000000000000000000000000000000000000000000160000000000000000000000000000000000000000000000000000000000000018000000000000000000000000000000000000000000000000000000000003d0900000000000000000000000000000000000000000000000000000000000003345000000000000000000000000000000000000000000000000000000000000052080000000000000000000000000000000000000000000000000000000000000001000000000000000000000000000000000000000000000000000000003b9aca0000000000000000000000000000000000000000000000000000000000000002a000000000000000000000000000000000000000000000000000000000000002e0000000000000000000000000000000000000000000000000000000000000000000000000000000000000000000000000000000000000000000000000000000e4b61d27f6000000000000000000000000010700808d59d2bb92257fcafacfe8e5bff7ab8700000000000000000000000000000000000000000000000000000000000000000000000000000000000000000000000000000000000000000000000000000060000000000000000000000000000000000000000000000000000000000000004440c10f19000000000000000000000000b821108724b52ac141c9165c01242e746eebc53c00000000000000000000000000000000000000000003b8e97d229a2d548000000000000000000000000000000000000000000000000000000000000000000000000000000000000000000000000000000000000000000000000000000000000000000000000000000000000000000000000000000000001400000000000000000000000000000000000000000000000000000000000000000000000000000000000000000000000000000000000000000000000000000082c560e554c503e2f55670bcc614382b615c1aa0d5398257e7e9ec78caab59a491304e324e5699d84cf9c76b358e8f6a179fbc82689a7329898f1cab95d9fca57e1b941219600e85cce64128c66a8133d2a18d0259daa6ef526f60a48bca409ce90c3ac3555abc4c7406f2b22f0eb54165721bf966e283be932b1f286b77c2e05a5a1c000000000000000000000000000000000000000000000000000000000000",
        "nonce": "0x4bd96",
        "chainId": "0x1ecf"
      },
      "additionalContracts": [],
      "isFixedGasLimit": false
    },
    {
      "hash": "0x96561d2d90f5e43c10dfffd907985f35cba1fbfc77dca90fba4532b20151d434",
      "transactionType": "CALL",
      "contractName": null,
      "contractAddress": "0x2843c269d2a64ecfa63548e8b3fc0fd23b7f70cb",
      "function": "handleOps((address,uint256,bytes,bytes,uint256,uint256,uint256,uint256,uint256,bytes,bytes)[],address)",
      "arguments": [
        "[(0x2e2B1c42E38f5af81771e65D87729E57ABD1337a, 4654, 0x, 0xb61d27f6000000000000000000000000010700808d59d2bb92257fcafacfe8e5bff7ab8700000000000000000000000000000000000000000000000000000000000000000000000000000000000000000000000000000000000000000000000000000060000000000000000000000000000000000000000000000000000000000000004440c10f19000000000000000000000000d157904639e89df05e89e0dabeec99ae3d74f9aa00000000000000000000000000000000000000000001b1e7c0cd8bda21c9670f00000000000000000000000000000000000000000000000000000000, 4000000, 210000, 21000, 1, 1000000000, 0x0000000000000000000000000000000000000000, 0xcfddd5fbf3775cfae6e951e8ac3e958b54e23e466e304bafd16732ca676fc5a80e750a4830df331462c36100911755ec4a22fbc9a9b8268ab3f46e82f6e994f71bf2a2ee8283c78f6e0c480a33548196138b09c8109c1efdcf0fde7684a08479b36d18a10bc6714a8f17e0e8cccc79e4b8498e387a934edd9db3e6a323f271406c1c)]",
        "0x660ad4B5A74130a4796B4d54BC6750Ae93C86e6c"
      ],
      "transaction": {
        "from": "0x660ad4b5a74130a4796b4d54bc6750ae93c86e6c",
        "to": "0x2843c269d2a64ecfa63548e8b3fc0fd23b7f70cb",
        "value": "0x0",
        "input": "0x1fad948c0000000000000000000000000000000000000000000000000000000000000040000000000000000000000000660ad4b5a74130a4796b4d54bc6750ae93c86e6c000000000000000000000000000000000000000000000000000000000000000100000000000000000000000000000000000000000000000000000000000000200000000000000000000000002e2b1c42e38f5af81771e65d87729e57abd1337a000000000000000000000000000000000000000000000000000000000000122e0000000000000000000000000000000000000000000000000000000000000160000000000000000000000000000000000000000000000000000000000000018000000000000000000000000000000000000000000000000000000000003d0900000000000000000000000000000000000000000000000000000000000003345000000000000000000000000000000000000000000000000000000000000052080000000000000000000000000000000000000000000000000000000000000001000000000000000000000000000000000000000000000000000000003b9aca0000000000000000000000000000000000000000000000000000000000000002a000000000000000000000000000000000000000000000000000000000000002e0000000000000000000000000000000000000000000000000000000000000000000000000000000000000000000000000000000000000000000000000000000e4b61d27f6000000000000000000000000010700808d59d2bb92257fcafacfe8e5bff7ab8700000000000000000000000000000000000000000000000000000000000000000000000000000000000000000000000000000000000000000000000000000060000000000000000000000000000000000000000000000000000000000000004440c10f19000000000000000000000000d157904639e89df05e89e0dabeec99ae3d74f9aa00000000000000000000000000000000000000000001b1e7c0cd8bda21c9670f0000000000000000000000000000000000000000000000000000000000000000000000000000000000000000000000000000000000000000000000000000000000000000000000000000000000000000000000000000001400000000000000000000000000000000000000000000000000000000000000000000000000000000000000000000000000000000000000000000000000000082cfddd5fbf3775cfae6e951e8ac3e958b54e23e466e304bafd16732ca676fc5a80e750a4830df331462c36100911755ec4a22fbc9a9b8268ab3f46e82f6e994f71bf2a2ee8283c78f6e0c480a33548196138b09c8109c1efdcf0fde7684a08479b36d18a10bc6714a8f17e0e8cccc79e4b8498e387a934edd9db3e6a323f271406c1c000000000000000000000000000000000000000000000000000000000000",
        "nonce": "0x4bd97",
        "chainId": "0x1ecf"
      },
      "additionalContracts": [],
      "isFixedGasLimit": false
    }
  ],
  "receipts": [
    {
      "status": "0x1",
      "cumulativeGasUsed": "0x37e74",
      "logs": [
        {
          "address": "0x2843c269d2a64ecfa63548e8b3fc0fd23b7f70cb",
          "topics": [
            "0xbb47ee3e183a558b1a2ff0874b079f3fc5478b7454eacf2bfc5af2ff5878f972"
          ],
          "data": "0x",
          "blockHash": "0x77e630231b7d509acdf1a59ec43e64c19727adf156a1934025109fe3113b82d6",
          "blockNumber": "0xbcc4c",
          "transactionHash": "0x681cecafb0055cd5badbe379ad4bec9428ecd2adf7782e6722edf0fe90f58d56",
          "transactionIndex": "0x1",
          "logIndex": "0x0",
          "removed": false
        },
        {
          "address": "0x010700808d59d2bb92257fcafacfe8e5bff7ab87",
          "topics": [
            "0xddf252ad1be2c89b69c2b068fc378daa952ba7f163c4a11628f55a4df523b3ef",
            "0x0000000000000000000000000000000000000000000000000000000000000000",
            "0x000000000000000000000000793500709506652fcc61f0d2d0fda605638d4293"
          ],
          "data": "0x000000000000000000000000000000000000000000018d4dfb48a80ce72dc000",
          "blockHash": "0x77e630231b7d509acdf1a59ec43e64c19727adf156a1934025109fe3113b82d6",
          "blockNumber": "0xbcc4c",
          "transactionHash": "0x681cecafb0055cd5badbe379ad4bec9428ecd2adf7782e6722edf0fe90f58d56",
          "transactionIndex": "0x1",
          "logIndex": "0x1",
          "removed": false
        },
        {
          "address": "0x2843c269d2a64ecfa63548e8b3fc0fd23b7f70cb",
          "topics": [
            "0x49628fd1471006c1482da88028e9ce4dbb080b815c9b0344d39e5a8e6ec1419f",
            "0xb869c4fabcacb849bfb363d9283f80307447d7125b22622bb777941ce44970be",
            "0x0000000000000000000000002e2b1c42e38f5af81771e65d87729e57abd1337a",
            "0x0000000000000000000000000000000000000000000000000000000000000000"
          ],
          "data": "0x000000000000000000000000000000000000000000000000000000000000122c0000000000000000000000000000000000000000000000000000000000000001000000000000000000000000000000000000000000000000000000000008dabe000000000000000000000000000000000000000000000000000000000008dabe",
          "blockHash": "0x77e630231b7d509acdf1a59ec43e64c19727adf156a1934025109fe3113b82d6",
          "blockNumber": "0xbcc4c",
          "transactionHash": "0x681cecafb0055cd5badbe379ad4bec9428ecd2adf7782e6722edf0fe90f58d56",
          "transactionIndex": "0x1",
          "logIndex": "0x2",
          "removed": false
        }
      ],
      "logsBloom": "0x00000000000400000000001000080000000000000000000000000000000000000008000000000000000000010000000000000000000000000000020000000000000000000000000000000008000000000000000000000000000000000000000800000000020000000000000000000800002000000000000000000010000000000000000000000000000000000000800000000000000000000000000000000000001401000000000000400000000000000000000000000000000002000000000000000002000000100001000000000080000000000000000000000000000020000000000000010000200000000000800000000000000010000000000000000000",
      "type": "0x2",
      "transactionHash": "0x681cecafb0055cd5badbe379ad4bec9428ecd2adf7782e6722edf0fe90f58d56",
      "transactionIndex": "0x1",
      "blockHash": "0x77e630231b7d509acdf1a59ec43e64c19727adf156a1934025109fe3113b82d6",
      "blockNumber": "0xbcc4c",
      "gasUsed": "0x37e74",
      "effectiveGasPrice": "0x5f5e100",
      "from": "0x660ad4b5a74130a4796b4d54bc6750ae93c86e6c",
      "to": "0x2843c269d2a64ecfa63548e8b3fc0fd23b7f70cb",
      "contractAddress": null,
      "gasUsedForL1": "0x37ff",
      "l1BlockNumber": "0x15128bd"
    },
    {
      "status": "0x1",
      "cumulativeGasUsed": "0x3c18b",
      "logs": [
        {
          "address": "0x2843c269d2a64ecfa63548e8b3fc0fd23b7f70cb",
          "topics": [
            "0xbb47ee3e183a558b1a2ff0874b079f3fc5478b7454eacf2bfc5af2ff5878f972"
          ],
          "data": "0x",
          "blockHash": "0xe219193a0aa5b8f5b32bb4892b235c40cad654f26141d15e6f302c92b5a22793",
          "blockNumber": "0xbcc4d",
          "transactionHash": "0x3210a162f3b9294e9dfd69eec7ea472783edb5cce568633156b03a4e0ee11198",
          "transactionIndex": "0x1",
          "logIndex": "0x0",
          "removed": false
        },
        {
          "address": "0x010700808d59d2bb92257fcafacfe8e5bff7ab87",
          "topics": [
            "0xddf252ad1be2c89b69c2b068fc378daa952ba7f163c4a11628f55a4df523b3ef",
            "0x0000000000000000000000000000000000000000000000000000000000000000",
            "0x000000000000000000000000b821108724b52ac141c9165c01242e746eebc53c"
          ],
          "data": "0x00000000000000000000000000000000000000000003b8e97d229a2d54800000",
          "blockHash": "0xe219193a0aa5b8f5b32bb4892b235c40cad654f26141d15e6f302c92b5a22793",
          "blockNumber": "0xbcc4d",
          "transactionHash": "0x3210a162f3b9294e9dfd69eec7ea472783edb5cce568633156b03a4e0ee11198",
          "transactionIndex": "0x1",
          "logIndex": "0x1",
          "removed": false
        },
        {
          "address": "0x2843c269d2a64ecfa63548e8b3fc0fd23b7f70cb",
          "topics": [
            "0x49628fd1471006c1482da88028e9ce4dbb080b815c9b0344d39e5a8e6ec1419f",
            "0x8e82fdf5150f6a4467509c0e4c544ace24c2bb0a22ef57f0c39df2115929df11",
            "0x0000000000000000000000002e2b1c42e38f5af81771e65d87729e57abd1337a",
            "0x0000000000000000000000000000000000000000000000000000000000000000"
          ],
          "data": "0x000000000000000000000000000000000000000000000000000000000000122d000000000000000000000000000000000000000000000000000000000000000100000000000000000000000000000000000000000000000000000000000916dc00000000000000000000000000000000000000000000000000000000000916dc",
          "blockHash": "0xe219193a0aa5b8f5b32bb4892b235c40cad654f26141d15e6f302c92b5a22793",
          "blockNumber": "0xbcc4d",
          "transactionHash": "0x3210a162f3b9294e9dfd69eec7ea472783edb5cce568633156b03a4e0ee11198",
          "transactionIndex": "0x1",
          "logIndex": "0x2",
          "removed": false
        }
      ],
      "logsBloom": "0x00000000000400000000000000000000000000000000000000000000000000000008000000000000100000010000000000000000000000040000020000000000000000000000000000000008020000000000000000000100000000000000000800000000024000000000000000000800002000000000000000000010000000000000000000000000000000000000800000000000000000000000000000000000001400000000000000400000000000000000000000000000000002000000004000000002000000100001000000000000000000000000000000000000000020000000000000010000000000000000800000000000000000000000000000000000",
      "type": "0x2",
      "transactionHash": "0x3210a162f3b9294e9dfd69eec7ea472783edb5cce568633156b03a4e0ee11198",
      "transactionIndex": "0x1",
      "blockHash": "0xe219193a0aa5b8f5b32bb4892b235c40cad654f26141d15e6f302c92b5a22793",
      "blockNumber": "0xbcc4d",
      "gasUsed": "0x3c18b",
      "effectiveGasPrice": "0x5f5e100",
      "from": "0x660ad4b5a74130a4796b4d54bc6750ae93c86e6c",
      "to": "0x2843c269d2a64ecfa63548e8b3fc0fd23b7f70cb",
      "contractAddress": null,
      "gasUsedForL1": "0x384a",
      "l1BlockNumber": "0x15128bd"
    },
    {
      "status": "0x1",
      "cumulativeGasUsed": "0x37ee4",
      "logs": [
        {
          "address": "0x2843c269d2a64ecfa63548e8b3fc0fd23b7f70cb",
          "topics": [
            "0xbb47ee3e183a558b1a2ff0874b079f3fc5478b7454eacf2bfc5af2ff5878f972"
          ],
          "data": "0x",
          "blockHash": "0xe8cfb38fd032311503fd159f4d5b1152356df0dce17b7d02ad5534f1796482e1",
          "blockNumber": "0xbcc4e",
          "transactionHash": "0x96561d2d90f5e43c10dfffd907985f35cba1fbfc77dca90fba4532b20151d434",
          "transactionIndex": "0x1",
          "logIndex": "0x0",
          "removed": false
        },
        {
          "address": "0x010700808d59d2bb92257fcafacfe8e5bff7ab87",
          "topics": [
            "0xddf252ad1be2c89b69c2b068fc378daa952ba7f163c4a11628f55a4df523b3ef",
            "0x0000000000000000000000000000000000000000000000000000000000000000",
            "0x000000000000000000000000d157904639e89df05e89e0dabeec99ae3d74f9aa"
          ],
          "data": "0x00000000000000000000000000000000000000000001b1e7c0cd8bda21c9670f",
          "blockHash": "0xe8cfb38fd032311503fd159f4d5b1152356df0dce17b7d02ad5534f1796482e1",
          "blockNumber": "0xbcc4e",
          "transactionHash": "0x96561d2d90f5e43c10dfffd907985f35cba1fbfc77dca90fba4532b20151d434",
          "transactionIndex": "0x1",
          "logIndex": "0x1",
          "removed": false
        },
        {
          "address": "0x2843c269d2a64ecfa63548e8b3fc0fd23b7f70cb",
          "topics": [
            "0x49628fd1471006c1482da88028e9ce4dbb080b815c9b0344d39e5a8e6ec1419f",
            "0xe337d4bf324844de81b87259040b27ee1d33c7f641ad18460731d4ef97e2dda2",
            "0x0000000000000000000000002e2b1c42e38f5af81771e65d87729e57abd1337a",
            "0x0000000000000000000000000000000000000000000000000000000000000000"
          ],
          "data": "0x000000000000000000000000000000000000000000000000000000000000122e0000000000000000000000000000000000000000000000000000000000000001000000000000000000000000000000000000000000000000000000000008dabe000000000000000000000000000000000000000000000000000000000008dabe",
          "blockHash": "0xe8cfb38fd032311503fd159f4d5b1152356df0dce17b7d02ad5534f1796482e1",
          "blockNumber": "0xbcc4e",
          "transactionHash": "0x96561d2d90f5e43c10dfffd907985f35cba1fbfc77dca90fba4532b20151d434",
          "transactionIndex": "0x1",
          "logIndex": "0x2",
          "removed": false
        }
      ],
      "logsBloom": "0x00002000000400000000000000000000000000000000000000000000010001000008000000000000000000010000000000000000000000000000020000000000000000000000000000000008000000000000000000000000000000000000000800000000020000000000000000000800002000000000000000000010000000000000000000000000000000000000800000000000000000000000000000000000001400000000000000400000000000000000000000000000000002000000000000000002000000100001000000000000000000000000000000008000000020000000000000010000000000000000800000000000000000000000000000000800",
      "type": "0x2",
      "transactionHash": "0x96561d2d90f5e43c10dfffd907985f35cba1fbfc77dca90fba4532b20151d434",
      "transactionIndex": "0x1",
      "blockHash": "0xe8cfb38fd032311503fd159f4d5b1152356df0dce17b7d02ad5534f1796482e1",
      "blockNumber": "0xbcc4e",
      "gasUsed": "0x37ee4",
      "effectiveGasPrice": "0x5f5e100",
      "from": "0x660ad4b5a74130a4796b4d54bc6750ae93c86e6c",
      "to": "0x2843c269d2a64ecfa63548e8b3fc0fd23b7f70cb",
      "contractAddress": null,
      "gasUsedForL1": "0x3863",
      "l1BlockNumber": "0x15128bd"
    }
  ],
  "libraries": [],
  "pending": [],
  "returns": {},
  "timestamp": 1742570006,
  "chain": 7887,
  "commit": "f23166e2"
}