{
  "transactions": [
    {
      "hash": "0x0e582739f5a4d9605c001b7e2000de6140e478098f664ca7c907d7886bfd96f3",
      "transactionType": "CALL",
      "contractName": null,
      "contractAddress": "0x2843c269d2a64ecfa63548e8b3fc0fd23b7f70cb",
      "function": "handleOps((address,uint256,bytes,bytes,uint256,uint256,uint256,uint256,uint256,bytes,bytes)[],address)",
      "arguments": [
        "[(0x2e2B1c42E38f5af81771e65D87729E57ABD1337a, 4627, 0x, 0xb61d27f6000000000000000000000000010700808d59d2bb92257fcafacfe8e5bff7ab870000000000000000000000000000000000000000000000000000000000000000000000000000000000000000000000000000000000000000000000000000006000000000000000000000000000000000000000000000000000000000000000644f1ef286000000000000000000000000d70052c77dc9e5291c79842420a6d51010ed014c0000000000000000000000000000000000000000000000000000000000000040000000000000000000000000000000000000000000000000000000000000000000000000000000000000000000000000000000000000000000000000, 4000000, 210000, 21000, 1, 1000000000, 0x0000000000000000000000000000000000000000, 0x06e8b2623c1addf57c0b5b0e045c490d96793bd7df631a228d348bf2a4115c30763922c42198b92cade84024426659ff8b08d0c39ae6c0247faf51b3151425cb1b8d89d062c25df95785f8138e0119fdb158fb7d1f33343755c27453affd4c6d9d3464dded2e7963c117fca0ba8d5fc9e416a5f6d827d5e309c5be613672a0f6581b)]",
        "0x660ad4B5A74130a4796B4d54BC6750Ae93C86e6c"
      ],
      "transaction": {
        "from": "0x660ad4b5a74130a4796b4d54bc6750ae93c86e6c",
        "to": "0x2843c269d2a64ecfa63548e8b3fc0fd23b7f70cb",
        "value": "0x0",
        "input": "0x1fad948c0000000000000000000000000000000000000000000000000000000000000040000000000000000000000000660ad4b5a74130a4796b4d54bc6750ae93c86e6c000000000000000000000000000000000000000000000000000000000000000100000000000000000000000000000000000000000000000000000000000000200000000000000000000000002e2b1c42e38f5af81771e65d87729e57abd1337a00000000000000000000000000000000000000000000000000000000000012130000000000000000000000000000000000000000000000000000000000000160000000000000000000000000000000000000000000000000000000000000018000000000000000000000000000000000000000000000000000000000003d0900000000000000000000000000000000000000000000000000000000000003345000000000000000000000000000000000000000000000000000000000000052080000000000000000000000000000000000000000000000000000000000000001000000000000000000000000000000000000000000000000000000003b9aca0000000000000000000000000000000000000000000000000000000000000002c0000000000000000000000000000000000000000000000000000000000000030000000000000000000000000000000000000000000000000000000000000000000000000000000000000000000000000000000000000000000000000000000104b61d27f6000000000000000000000000010700808d59d2bb92257fcafacfe8e5bff7ab870000000000000000000000000000000000000000000000000000000000000000000000000000000000000000000000000000000000000000000000000000006000000000000000000000000000000000000000000000000000000000000000644f1ef286000000000000000000000000d70052c77dc9e5291c79842420a6d51010ed014c00000000000000000000000000000000000000000000000000000000000000400000000000000000000000000000000000000000000000000000000000000000000000000000000000000000000000000000000000000000000000000000000000000000000000000000000000000000000000000000000000000000000000000000000000000000000000000000000000000000000000140000000000000000000000000000000000000000000000000000000000000000000000000000000000000000000000000000000000000000000000000000008206e8b2623c1addf57c0b5b0e045c490d96793bd7df631a228d348bf2a4115c30763922c42198b92cade84024426659ff8b08d0c39ae6c0247faf51b3151425cb1b8d89d062c25df95785f8138e0119fdb158fb7d1f33343755c27453affd4c6d9d3464dded2e7963c117fca0ba8d5fc9e416a5f6d827d5e309c5be613672a0f6581b000000000000000000000000000000000000000000000000000000000000",
        "nonce": "0x4bd3f",
        "chainId": "0x1ecf"
      },
      "additionalContracts": [],
      "isFixedGasLimit": false
    }
  ],
  "receipts": [
    {
      "status": "0x1",
      "cumulativeGasUsed": "0x33cf3",
      "logs": [
        {
          "address": "0x2843c269d2a64ecfa63548e8b3fc0fd23b7f70cb",
          "topics": [
            "0xbb47ee3e183a558b1a2ff0874b079f3fc5478b7454eacf2bfc5af2ff5878f972"
          ],
          "data": "0x",
          "blockHash": "0x03d145762270521eddc0053ed4da0c97d5e8d3cbc88c38dc242360be007f02ce",
          "blockNumber": "0xbc29e",
          "transactionHash": "0x0e582739f5a4d9605c001b7e2000de6140e478098f664ca7c907d7886bfd96f3",
          "transactionIndex": "0x1",
          "logIndex": "0x0",
          "removed": false
        },
        {
          "address": "0x010700808d59d2bb92257fcafacfe8e5bff7ab87",
          "topics": [
            "0xbc7cd75a20ee27fd9adebab32041f755214dbc6bffa90cc0225b39da2e5c2d3b",
            "0x000000000000000000000000d70052c77dc9e5291c79842420a6d51010ed014c"
          ],
          "data": "0x",
          "blockHash": "0x03d145762270521eddc0053ed4da0c97d5e8d3cbc88c38dc242360be007f02ce",
          "blockNumber": "0xbc29e",
          "transactionHash": "0x0e582739f5a4d9605c001b7e2000de6140e478098f664ca7c907d7886bfd96f3",
          "transactionIndex": "0x1",
          "logIndex": "0x1",
          "removed": false
        },
        {
          "address": "0x2843c269d2a64ecfa63548e8b3fc0fd23b7f70cb",
          "topics": [
            "0x49628fd1471006c1482da88028e9ce4dbb080b815c9b0344d39e5a8e6ec1419f",
            "0xc27672c86013f682276f6b4076757a5b79ac89b3258b0f39b12c84ca8c154b9e",
            "0x0000000000000000000000002e2b1c42e38f5af81771e65d87729e57abd1337a",
            "0x0000000000000000000000000000000000000000000000000000000000000000"
          ],
          "data": "0x000000000000000000000000000000000000000000000000000000000000121300000000000000000000000000000000000000000000000000000000000000010000000000000000000000000000000000000000000000000000000000083c160000000000000000000000000000000000000000000000000000000000083c16",
          "blockHash": "0x03d145762270521eddc0053ed4da0c97d5e8d3cbc88c38dc242360be007f02ce",
          "blockNumber": "0xbc29e",
          "transactionHash": "0x0e582739f5a4d9605c001b7e2000de6140e478098f664ca7c907d7886bfd96f3",
          "transactionIndex": "0x1",
          "logIndex": "0x2",
          "removed": false
        }
      ],
      "logsBloom": "0x00000000000400000000000000000000400000000000000000000000000000000008000000000000000000010000000000000000010000000000020000000000000000000000000000000000000002004000000000000002000000000000000800000000020000000000000000000800002000000000000000000000000000000000000000000000400000000000800000000000000000000000000000000000001400000000000000400000000000000000000000000000000202000000000000000020000000100001000000000000800000000000000000000000000020000000000000010000000000000000800000000000000000000000000000000000",
      "type": "0x2",
      "transactionHash": "0x0e582739f5a4d9605c001b7e2000de6140e478098f664ca7c907d7886bfd96f3",
      "transactionIndex": "0x1",
      "blockHash": "0x03d145762270521eddc0053ed4da0c97d5e8d3cbc88c38dc242360be007f02ce",
      "blockNumber": "0xbc29e",
      "gasUsed": "0x33cf3",
      "effectiveGasPrice": "0x5f5e100",
      "from": "0x660ad4b5a74130a4796b4d54bc6750ae93c86e6c",
      "to": "0x2843c269d2a64ecfa63548e8b3fc0fd23b7f70cb",
      "contractAddress": null,
      "gasUsedForL1": "0xa6ac",
      "l1BlockNumber": "0x150f883"
    }
  ],
  "libraries": [],
  "pending": [],
  "returns": {},
  "timestamp": 1742421113,
  "chain": 7887,
  "commit": "66c3d777"
}