{
  "transactions": [
    {
      "hash": "0x402ea17a60b0aea3b154e13e559361b605356c2bc155b8877d1b81631114fc51",
      "transactionType": "CALL",
      "contractName": null,
      "contractAddress": "0x2843c269d2a64ecfa63548e8b3fc0fd23b7f70cb",
      "function": "handleOps((address,uint256,bytes,bytes,uint256,uint256,uint256,uint256,uint256,bytes,bytes)[],address)",
      "arguments": [
        "[(0x2e2B1c42E38f5af81771e65D87729E57ABD1337a, 4875, 0x, 0xb61d27f60000000000000000000000006033b0fe6c23e6d160ab8a0381e4666e6978d3250000000000000000000000000000000000000000000000000000000000000000000000000000000000000000000000000000000000000000000000000000006000000000000000000000000000000000000000000000000000000000000001c47d5e81e2000000000000000000000000000000000000000000000000000000000000008000000000000000000000000000000000000000000000000000000000000000c0000000000000000000000000000000000000000000000000000000000000010000000000000000000000000000000000000000000000000000000000000001800000000000000000000000000000000000000000000000000000000000000001000000000000000000000000db791af345a21588957e4e45596411b2be2bd4cd00000000000000000000000000000000000000000000000000000000000000010000000000000000000000000000000000000000000000000000000000000000000000000000000000000000000000000000000000000000000000000000000100000000000000000000000000000000000000000000000000000000000000200000000000000000000000000000000000000000000000000000000000000004d09de08a0000000000000000000000000000000000000000000000000000000000000000000000000000000000000000000000000000000000000000000000154b49503a31202d204e696f20456c656374696f6e73000000000000000000000000000000000000000000000000000000000000000000000000000000, 4000000, 210000, 21000, 1, 1000000000, 0x0000000000000000000000000000000000000000, 0x1865c7da728dbaf477d3953a2a6fdede985c675a164687ab8d140453df1a4af536069318702e3f574fc8c88f7f05324b504981a493e772d979405f87994a50ef1be31f516141b9886662db1dcaf120dcc8b04bd8225a6708007a9ad810d02f1c0e3f34cd0da34e6a1e7dfeed147dfff3d72dd6156b5d1732d28c4e9e8582a4a0f41c)]",
        "0x660ad4B5A74130a4796B4d54BC6750Ae93C86e6c"
      ],
      "transaction": {
        "from": "0x660ad4b5a74130a4796b4d54bc6750ae93c86e6c",
        "to": "0x2843c269d2a64ecfa63548e8b3fc0fd23b7f70cb",
        "value": "0x0",
        "input": "0x1fad948c0000000000000000000000000000000000000000000000000000000000000040000000000000000000000000660ad4b5a74130a4796b4d54bc6750ae93c86e6c000000000000000000000000000000000000000000000000000000000000000100000000000000000000000000000000000000000000000000000000000000200000000000000000000000002e2b1c42e38f5af81771e65d87729e57abd1337a000000000000000000000000000000000000000000000000000000000000130b0000000000000000000000000000000000000000000000000000000000000160000000000000000000000000000000000000000000000000000000000000018000000000000000000000000000000000000000000000000000000000003d0900000000000000000000000000000000000000000000000000000000000003345000000000000000000000000000000000000000000000000000000000000052080000000000000000000000000000000000000000000000000000000000000001000000000000000000000000000000000000000000000000000000003b9aca000000000000000000000000000000000000000000000000000000000000000420000000000000000000000000000000000000000000000000000000000000046000000000000000000000000000000000000000000000000000000000000000000000000000000000000000000000000000000000000000000000000000000264b61d27f60000000000000000000000006033b0fe6c23e6d160ab8a0381e4666e6978d3250000000000000000000000000000000000000000000000000000000000000000000000000000000000000000000000000000000000000000000000000000006000000000000000000000000000000000000000000000000000000000000001c47d5e81e2000000000000000000000000000000000000000000000000000000000000008000000000000000000000000000000000000000000000000000000000000000c0000000000000000000000000000000000000000000000000000000000000010000000000000000000000000000000000000000000000000000000000000001800000000000000000000000000000000000000000000000000000000000000001000000000000000000000000db791af345a21588957e4e45596411b2be2bd4cd00000000000000000000000000000000000000000000000000000000000000010000000000000000000000000000000000000000000000000000000000000000000000000000000000000000000000000000000000000000000000000000000100000000000000000000000000000000000000000000000000000000000000200000000000000000000000000000000000000000000000000000000000000004d09de08a0000000000000000000000000000000000000000000000000000000000000000000000000000000000000000000000000000000000000000000000154b49503a31202d204e696f20456c656374696f6e73000000000000000000000000000000000000000000000000000000000000000000000000000000000000000000000000000000000000000000000000000000000000000000000000000000000000000000000000000000000000000000000000000014000000000000000000000000000000000000000000000000000000000000000000000000000000000000000000000000000000000000000000000000000000821865c7da728dbaf477d3953a2a6fdede985c675a164687ab8d140453df1a4af536069318702e3f574fc8c88f7f05324b504981a493e772d979405f87994a50ef1be31f516141b9886662db1dcaf120dcc8b04bd8225a6708007a9ad810d02f1c0e3f34cd0da34e6a1e7dfeed147dfff3d72dd6156b5d1732d28c4e9e8582a4a0f41c000000000000000000000000000000000000000000000000000000000000",
        "nonce": "0x4beb9",
        "chainId": "0x1ecf"
      },
      "additionalContracts": [],
      "isFixedGasLimit": false
    },
    {
      "hash": "0x25f2b0b0ba3dc5ac1b8dd4efe7346538f02cceccb5b71645b4f283ad7f99c493",
      "transactionType": "CALL",
      "contractName": null,
      "contractAddress": "0x2843c269d2a64ecfa63548e8b3fc0fd23b7f70cb",
      "function": "handleOps((address,uint256,bytes,bytes,uint256,uint256,uint256,uint256,uint256,bytes,bytes)[],address)",
      "arguments": [
        "[(0x2e2B1c42E38f5af81771e65D87729E57ABD1337a, 4876, 0x, 0xb61d27f60000000000000000000000006033b0fe6c23e6d160ab8a0381e4666e6978d3250000000000000000000000000000000000000000000000000000000000000000000000000000000000000000000000000000000000000000000000000000006000000000000000000000000000000000000000000000000000000000000001c47d5e81e2000000000000000000000000000000000000000000000000000000000000008000000000000000000000000000000000000000000000000000000000000000c0000000000000000000000000000000000000000000000000000000000000010000000000000000000000000000000000000000000000000000000000000001800000000000000000000000000000000000000000000000000000000000000001000000000000000000000000db791af345a21588957e4e45596411b2be2bd4cd00000000000000000000000000000000000000000000000000000000000000010000000000000000000000000000000000000000000000000000000000000000000000000000000000000000000000000000000000000000000000000000000100000000000000000000000000000000000000000000000000000000000000200000000000000000000000000000000000000000000000000000000000000004d09de08a0000000000000000000000000000000000000000000000000000000000000000000000000000000000000000000000000000000000000000000000104b49503a32202d204275796261636b730000000000000000000000000000000000000000000000000000000000000000000000000000000000000000, 4000000, 210000, 21000, 1, 1000000000, 0x0000000000000000000000000000000000000000, 0xf0c72b67520312c62f7162132853a40e143257ea16fd800c4e7acc4b2b4a45b41af7124151618be5402d5efdd6a81294c64c3cfc2963843cff6d59342133edae1b875a6cd746e03a52a0cd2249b6d2d4ae80b0319977a880661ab758083625b79b389f946e8125b551e202180d2617005fa8a793e4857c6010e288e0c73e53769d1c)]",
        "0x660ad4B5A74130a4796B4d54BC6750Ae93C86e6c"
      ],
      "transaction": {
        "from": "0x660ad4b5a74130a4796b4d54bc6750ae93c86e6c",
        "to": "0x2843c269d2a64ecfa63548e8b3fc0fd23b7f70cb",
        "value": "0x0",
        "input": "0x1fad948c0000000000000000000000000000000000000000000000000000000000000040000000000000000000000000660ad4b5a74130a4796b4d54bc6750ae93c86e6c000000000000000000000000000000000000000000000000000000000000000100000000000000000000000000000000000000000000000000000000000000200000000000000000000000002e2b1c42e38f5af81771e65d87729e57abd1337a000000000000000000000000000000000000000000000000000000000000130c0000000000000000000000000000000000000000000000000000000000000160000000000000000000000000000000000000000000000000000000000000018000000000000000000000000000000000000000000000000000000000003d0900000000000000000000000000000000000000000000000000000000000003345000000000000000000000000000000000000000000000000000000000000052080000000000000000000000000000000000000000000000000000000000000001000000000000000000000000000000000000000000000000000000003b9aca000000000000000000000000000000000000000000000000000000000000000420000000000000000000000000000000000000000000000000000000000000046000000000000000000000000000000000000000000000000000000000000000000000000000000000000000000000000000000000000000000000000000000264b61d27f60000000000000000000000006033b0fe6c23e6d160ab8a0381e4666e6978d3250000000000000000000000000000000000000000000000000000000000000000000000000000000000000000000000000000000000000000000000000000006000000000000000000000000000000000000000000000000000000000000001c47d5e81e2000000000000000000000000000000000000000000000000000000000000008000000000000000000000000000000000000000000000000000000000000000c0000000000000000000000000000000000000000000000000000000000000010000000000000000000000000000000000000000000000000000000000000001800000000000000000000000000000000000000000000000000000000000000001000000000000000000000000db791af345a21588957e4e45596411b2be2bd4cd00000000000000000000000000000000000000000000000000000000000000010000000000000000000000000000000000000000000000000000000000000000000000000000000000000000000000000000000000000000000000000000000100000000000000000000000000000000000000000000000000000000000000200000000000000000000000000000000000000000000000000000000000000004d09de08a0000000000000000000000000000000000000000000000000000000000000000000000000000000000000000000000000000000000000000000000104b49503a32202d204275796261636b73000000000000000000000000000000000000000000000000000000000000000000000000000000000000000000000000000000000000000000000000000000000000000000000000000000000000000000000000000000000000000000000000000000000000001400000000000000000000000000000000000000000000000000000000000000000000000000000000000000000000000000000000000000000000000000000082f0c72b67520312c62f7162132853a40e143257ea16fd800c4e7acc4b2b4a45b41af7124151618be5402d5efdd6a81294c64c3cfc2963843cff6d59342133edae1b875a6cd746e03a52a0cd2249b6d2d4ae80b0319977a880661ab758083625b79b389f946e8125b551e202180d2617005fa8a793e4857c6010e288e0c73e53769d1c000000000000000000000000000000000000000000000000000000000000",
        "nonce": "0x4beba",
        "chainId": "0x1ecf"
      },
      "additionalContracts": [],
      "isFixedGasLimit": false
    },
    {
      "hash": "0xc3fec4fdb731b7f39ab01e8b491b50d32377fd45b6c95d94a35e11f8a53d3d23",
      "transactionType": "CALL",
      "contractName": null,
      "contractAddress": "0x2843c269d2a64ecfa63548e8b3fc0fd23b7f70cb",
      "function": "handleOps((address,uint256,bytes,bytes,uint256,uint256,uint256,uint256,uint256,bytes,bytes)[],address)",
      "arguments": [
        "[(0x2e2B1c42E38f5af81771e65D87729E57ABD1337a, 4877, 0x, 0xb61d27f60000000000000000000000006033b0fe6c23e6d160ab8a0381e4666e6978d3250000000000000000000000000000000000000000000000000000000000000000000000000000000000000000000000000000000000000000000000000000006000000000000000000000000000000000000000000000000000000000000001c47d5e81e2000000000000000000000000000000000000000000000000000000000000008000000000000000000000000000000000000000000000000000000000000000c0000000000000000000000000000000000000000000000000000000000000010000000000000000000000000000000000000000000000000000000000000001800000000000000000000000000000000000000000000000000000000000000001000000000000000000000000db791af345a21588957e4e45596411b2be2bd4cd00000000000000000000000000000000000000000000000000000000000000010000000000000000000000000000000000000000000000000000000000000000000000000000000000000000000000000000000000000000000000000000000100000000000000000000000000000000000000000000000000000000000000200000000000000000000000000000000000000000000000000000000000000004d09de08a0000000000000000000000000000000000000000000000000000000000000000000000000000000000000000000000000000000000000000000000184b49503a33202d20436c61776261636b2066726f6d204d4d000000000000000000000000000000000000000000000000000000000000000000000000, 4000000, 210000, 21000, 1, 1000000000, 0x0000000000000000000000000000000000000000, 0xeee063c7a3a7e462c2c55a96625b2741d2eb88dbc9cc4200f2bf0350b759f6972b1a775a2ec5a6f5426ebc8640a7ac94f0adbe254d12859940073026643fb2df1bde834008475811484cf77e1dad16b3ce54aa56fb9c1e5eecaef2b02606ca685c4dfa70cf209df3e8cca804667df1816f06e3f20a016917ccc81e226b51c7344a1c)]",
        "0x660ad4B5A74130a4796B4d54BC6750Ae93C86e6c"
      ],
      "transaction": {
        "from": "0x660ad4b5a74130a4796b4d54bc6750ae93c86e6c",
        "to": "0x2843c269d2a64ecfa63548e8b3fc0fd23b7f70cb",
        "value": "0x0",
        "input": "0x1fad948c0000000000000000000000000000000000000000000000000000000000000040000000000000000000000000660ad4b5a74130a4796b4d54bc6750ae93c86e6c000000000000000000000000000000000000000000000000000000000000000100000000000000000000000000000000000000000000000000000000000000200000000000000000000000002e2b1c42e38f5af81771e65d87729e57abd1337a000000000000000000000000000000000000000000000000000000000000130d0000000000000000000000000000000000000000000000000000000000000160000000000000000000000000000000000000000000000000000000000000018000000000000000000000000000000000000000000000000000000000003d0900000000000000000000000000000000000000000000000000000000000003345000000000000000000000000000000000000000000000000000000000000052080000000000000000000000000000000000000000000000000000000000000001000000000000000000000000000000000000000000000000000000003b9aca000000000000000000000000000000000000000000000000000000000000000420000000000000000000000000000000000000000000000000000000000000046000000000000000000000000000000000000000000000000000000000000000000000000000000000000000000000000000000000000000000000000000000264b61d27f60000000000000000000000006033b0fe6c23e6d160ab8a0381e4666e6978d3250000000000000000000000000000000000000000000000000000000000000000000000000000000000000000000000000000000000000000000000000000006000000000000000000000000000000000000000000000000000000000000001c47d5e81e2000000000000000000000000000000000000000000000000000000000000008000000000000000000000000000000000000000000000000000000000000000c0000000000000000000000000000000000000000000000000000000000000010000000000000000000000000000000000000000000000000000000000000001800000000000000000000000000000000000000000000000000000000000000001000000000000000000000000db791af345a21588957e4e45596411b2be2bd4cd00000000000000000000000000000000000000000000000000000000000000010000000000000000000000000000000000000000000000000000000000000000000000000000000000000000000000000000000000000000000000000000000100000000000000000000000000000000000000000000000000000000000000200000000000000000000000000000000000000000000000000000000000000004d09de08a0000000000000000000000000000000000000000000000000000000000000000000000000000000000000000000000000000000000000000000000184b49503a33202d20436c61776261636b2066726f6d204d4d00000000000000000000000000000000000000000000000000000000000000000000000000000000000000000000000000000000000000000000000000000000000000000000000000000000000000000000000000000000000000000000001400000000000000000000000000000000000000000000000000000000000000000000000000000000000000000000000000000000000000000000000000000082eee063c7a3a7e462c2c55a96625b2741d2eb88dbc9cc4200f2bf0350b759f6972b1a775a2ec5a6f5426ebc8640a7ac94f0adbe254d12859940073026643fb2df1bde834008475811484cf77e1dad16b3ce54aa56fb9c1e5eecaef2b02606ca685c4dfa70cf209df3e8cca804667df1816f06e3f20a016917ccc81e226b51c7344a1c000000000000000000000000000000000000000000000000000000000000",
        "nonce": "0x4bebb",
        "chainId": "0x1ecf"
      },
      "additionalContracts": [],
      "isFixedGasLimit": false
    }
  ],
  "receipts": [
    {
      "status": "0x1",
      "cumulativeGasUsed": "0x45ea1",
      "logs": [
        {
          "address": "0x2843c269d2a64ecfa63548e8b3fc0fd23b7f70cb",
          "topics": [
            "0xbb47ee3e183a558b1a2ff0874b079f3fc5478b7454eacf2bfc5af2ff5878f972"
          ],
          "data": "0x",
          "blockHash": "0xbabc4da53601692528b9a504e474ea5a3ffe20198e217fb22294d7d9fe85e383",
          "blockNumber": "0xcfb96",
          "transactionHash": "0x402ea17a60b0aea3b154e13e559361b605356c2bc155b8877d1b81631114fc51",
          "transactionIndex": "0x1",
          "logIndex": "0x0",
          "removed": false
        },
        {
          "address": "0x6033b0fe6c23e6d160ab8a0381e4666e6978d325",
          "topics": [
            "0x7d84a6263ae0d98d3329bd7b46bb4e8d6f98cd35a7adb45c274c8b7fd5ebd5e0"
          ],
          "data": "0x410b499cb2e94742e84c9b2503850c9ec8ef8248e1c1afcd47bd98aa4fba6e250000000000000000000000002e2b1c42e38f5af81771e65d87729e57abd1337a0000000000000000000000000000000000000000000000000000000000000120000000000000000000000000000000000000000000000000000000000000016000000000000000000000000000000000000000000000000000000000000001a0000000000000000000000000000000000000000000000000000000000000020000000000000000000000000000000000000000000000000000000000681ba2a6000000000000000000000000000000000000000000000000000000006837522600000000000000000000000000000000000000000000000000000000000002800000000000000000000000000000000000000000000000000000000000000001000000000000000000000000db791af345a21588957e4e45596411b2be2bd4cd00000000000000000000000000000000000000000000000000000000000000010000000000000000000000000000000000000000000000000000000000000000000000000000000000000000000000000000000000000000000000000000000100000000000000000000000000000000000000000000000000000000000000200000000000000000000000000000000000000000000000000000000000000000000000000000000000000000000000000000000000000000000000000000000100000000000000000000000000000000000000000000000000000000000000200000000000000000000000000000000000000000000000000000000000000004d09de08a0000000000000000000000000000000000000000000000000000000000000000000000000000000000000000000000000000000000000000000000154b49503a31202d204e696f20456c656374696f6e730000000000000000000000",
          "blockHash": "0xbabc4da53601692528b9a504e474ea5a3ffe20198e217fb22294d7d9fe85e383",
          "blockNumber": "0xcfb96",
          "transactionHash": "0x402ea17a60b0aea3b154e13e559361b605356c2bc155b8877d1b81631114fc51",
          "transactionIndex": "0x1",
          "logIndex": "0x1",
          "removed": false
        },
        {
          "address": "0x2843c269d2a64ecfa63548e8b3fc0fd23b7f70cb",
          "topics": [
            "0x49628fd1471006c1482da88028e9ce4dbb080b815c9b0344d39e5a8e6ec1419f",
            "0x42dc06477b8f1dd1099085836a501652879e523748d172048ad74a12e7dde5b0",
            "0x0000000000000000000000002e2b1c42e38f5af81771e65d87729e57abd1337a",
            "0x0000000000000000000000000000000000000000000000000000000000000000"
          ],
          "data": "0x000000000000000000000000000000000000000000000000000000000000130b00000000000000000000000000000000000000000000000000000000000000010000000000000000000000000000000000000000000000000000000000091be00000000000000000000000000000000000000000000000000000000000091be0",
          "blockHash": "0xbabc4da53601692528b9a504e474ea5a3ffe20198e217fb22294d7d9fe85e383",
          "blockNumber": "0xcfb96",
          "transactionHash": "0x402ea17a60b0aea3b154e13e559361b605356c2bc155b8877d1b81631114fc51",
          "transactionIndex": "0x1",
          "logIndex": "0x2",
          "removed": false
        }
      ],
      "logsBloom": "0x0000000000000000000000000020000000000000000000000000000000000000000800000000000000000001000000000000000000000000000002000000000000000000000a000000000000000000000000000000000000000000000000004800000000020000000000000000000800002000000000000000000000000000000000000000000000000000000000800000000000000000000000000000000000080400000000000000400000000000000000000000000000000002000000000200000000000000100001000000000000000000000000000000000000000020000000000000010000004000000000000000000000000000004000000000000800",
      "type": "0x2",
      "transactionHash": "0x402ea17a60b0aea3b154e13e559361b605356c2bc155b8877d1b81631114fc51",
      "transactionIndex": "0x1",
      "blockHash": "0xbabc4da53601692528b9a504e474ea5a3ffe20198e217fb22294d7d9fe85e383",
      "blockNumber": "0xcfb96",
      "gasUsed": "0x45ea1",
      "effectiveGasPrice": "0x5f5e100",
      "from": "0x660ad4b5a74130a4796b4d54bc6750ae93c86e6c",
      "to": "0x2843c269d2a64ecfa63548e8b3fc0fd23b7f70cb",
      "contractAddress": null,
      "gasUsedForL1": "0xc724",
      "l1BlockNumber": "0x1563309"
    },
    {
      "status": "0x1",
      "cumulativeGasUsed": "0x45a9e",
      "logs": [
        {
          "address": "0x2843c269d2a64ecfa63548e8b3fc0fd23b7f70cb",
          "topics": [
            "0xbb47ee3e183a558b1a2ff0874b079f3fc5478b7454eacf2bfc5af2ff5878f972"
          ],
          "data": "0x",
          "blockHash": "0x775faf00c0b5d8ed9a527afe522e64949b53217a7523662fda4ebc8dbf8833dc",
          "blockNumber": "0xcfb97",
          "transactionHash": "0x25f2b0b0ba3dc5ac1b8dd4efe7346538f02cceccb5b71645b4f283ad7f99c493",
          "transactionIndex": "0x1",
          "logIndex": "0x0",
          "removed": false
        },
        {
          "address": "0x6033b0fe6c23e6d160ab8a0381e4666e6978d325",
          "topics": [
            "0x7d84a6263ae0d98d3329bd7b46bb4e8d6f98cd35a7adb45c274c8b7fd5ebd5e0"
          ],
          "data": "0x630fb14d2557ca656d44c4461247d4dc901486b801cc175a2b785e381500ac690000000000000000000000002e2b1c42e38f5af81771e65d87729e57abd1337a0000000000000000000000000000000000000000000000000000000000000120000000000000000000000000000000000000000000000000000000000000016000000000000000000000000000000000000000000000000000000000000001a0000000000000000000000000000000000000000000000000000000000000020000000000000000000000000000000000000000000000000000000000681ba2a8000000000000000000000000000000000000000000000000000000006837522800000000000000000000000000000000000000000000000000000000000002800000000000000000000000000000000000000000000000000000000000000001000000000000000000000000db791af345a21588957e4e45596411b2be2bd4cd00000000000000000000000000000000000000000000000000000000000000010000000000000000000000000000000000000000000000000000000000000000000000000000000000000000000000000000000000000000000000000000000100000000000000000000000000000000000000000000000000000000000000200000000000000000000000000000000000000000000000000000000000000000000000000000000000000000000000000000000000000000000000000000000100000000000000000000000000000000000000000000000000000000000000200000000000000000000000000000000000000000000000000000000000000004d09de08a0000000000000000000000000000000000000000000000000000000000000000000000000000000000000000000000000000000000000000000000104b49503a32202d204275796261636b7300000000000000000000000000000000",
          "blockHash": "0x775faf00c0b5d8ed9a527afe522e64949b53217a7523662fda4ebc8dbf8833dc",
          "blockNumber": "0xcfb97",
          "transactionHash": "0x25f2b0b0ba3dc5ac1b8dd4efe7346538f02cceccb5b71645b4f283ad7f99c493",
          "transactionIndex": "0x1",
          "logIndex": "0x1",
          "removed": false
        },
        {
          "address": "0x2843c269d2a64ecfa63548e8b3fc0fd23b7f70cb",
          "topics": [
            "0x49628fd1471006c1482da88028e9ce4dbb080b815c9b0344d39e5a8e6ec1419f",
            "0xa9239d5933639150802a41d5a7c6db643641af359375411834f111203ae35296",
            "0x0000000000000000000000002e2b1c42e38f5af81771e65d87729e57abd1337a",
            "0x0000000000000000000000000000000000000000000000000000000000000000"
          ],
          "data": "0x000000000000000000000000000000000000000000000000000000000000130c00000000000000000000000000000000000000000000000000000000000000010000000000000000000000000000000000000000000000000000000000091be00000000000000000000000000000000000000000000000000000000000091be0",
          "blockHash": "0x775faf00c0b5d8ed9a527afe522e64949b53217a7523662fda4ebc8dbf8833dc",
          "blockNumber": "0xcfb97",
          "transactionHash": "0x25f2b0b0ba3dc5ac1b8dd4efe7346538f02cceccb5b71645b4f283ad7f99c493",
          "transactionIndex": "0x1",
          "logIndex": "0x2",
          "removed": false
        }
      ],
      "logsBloom": "0x00000000000000000000000020000000000000000000000000000000000001000008000000000000000000010000000000000000000000000000020000000000000000000002000000000000000000000000000000000000000000000000000800000000020000000000000000000800002000000000000000000000000000000000000000000000000000000000800000000000000000000000000000000000080400000000000000400000000000000000000000000000000002000000000200000000000000100001000000000000000000800000000000000000000020000000000000010000004000000000000000000000000000004000000000000800",
      "type": "0x2",
      "transactionHash": "0x25f2b0b0ba3dc5ac1b8dd4efe7346538f02cceccb5b71645b4f283ad7f99c493",
      "transactionIndex": "0x1",
      "blockHash": "0x775faf00c0b5d8ed9a527afe522e64949b53217a7523662fda4ebc8dbf8833dc",
      "blockNumber": "0xcfb97",
      "gasUsed": "0x45a9e",
      "effectiveGasPrice": "0x5f5e100",
      "from": "0x660ad4b5a74130a4796b4d54bc6750ae93c86e6c",
      "to": "0x2843c269d2a64ecfa63548e8b3fc0fd23b7f70cb",
      "contractAddress": null,
      "gasUsedForL1": "0xc35d",
      "l1BlockNumber": "0x1563309"
    },
    {
      "status": "0x1",
      "cumulativeGasUsed": "0x45fb6",
      "logs": [
        {
          "address": "0x2843c269d2a64ecfa63548e8b3fc0fd23b7f70cb",
          "topics": [
            "0xbb47ee3e183a558b1a2ff0874b079f3fc5478b7454eacf2bfc5af2ff5878f972"
          ],
          "data": "0x",
          "blockHash": "0xf55403de06376c98cd431056e5b67afca1d125dc53524ecbca86a03df85d3655",
          "blockNumber": "0xcfb98",
          "transactionHash": "0xc3fec4fdb731b7f39ab01e8b491b50d32377fd45b6c95d94a35e11f8a53d3d23",
          "transactionIndex": "0x1",
          "logIndex": "0x0",
          "removed": false
        },
        {
          "address": "0x6033b0fe6c23e6d160ab8a0381e4666e6978d325",
          "topics": [
            "0x7d84a6263ae0d98d3329bd7b46bb4e8d6f98cd35a7adb45c274c8b7fd5ebd5e0"
          ],
          "data": "0x4ee1e396ebb621edb86698b67d37eff0aae214fb53c7ee195f84837a72dcd1d20000000000000000000000002e2b1c42e38f5af81771e65d87729e57abd1337a0000000000000000000000000000000000000000000000000000000000000120000000000000000000000000000000000000000000000000000000000000016000000000000000000000000000000000000000000000000000000000000001a0000000000000000000000000000000000000000000000000000000000000020000000000000000000000000000000000000000000000000000000000681ba2aa000000000000000000000000000000000000000000000000000000006837522a00000000000000000000000000000000000000000000000000000000000002800000000000000000000000000000000000000000000000000000000000000001000000000000000000000000db791af345a21588957e4e45596411b2be2bd4cd00000000000000000000000000000000000000000000000000000000000000010000000000000000000000000000000000000000000000000000000000000000000000000000000000000000000000000000000000000000000000000000000100000000000000000000000000000000000000000000000000000000000000200000000000000000000000000000000000000000000000000000000000000000000000000000000000000000000000000000000000000000000000000000000100000000000000000000000000000000000000000000000000000000000000200000000000000000000000000000000000000000000000000000000000000004d09de08a0000000000000000000000000000000000000000000000000000000000000000000000000000000000000000000000000000000000000000000000184b49503a33202d20436c61776261636b2066726f6d204d4d0000000000000000",
          "blockHash": "0xf55403de06376c98cd431056e5b67afca1d125dc53524ecbca86a03df85d3655",
          "blockNumber": "0xcfb98",
          "transactionHash": "0xc3fec4fdb731b7f39ab01e8b491b50d32377fd45b6c95d94a35e11f8a53d3d23",
          "transactionIndex": "0x1",
          "logIndex": "0x1",
          "removed": false
        },
        {
          "address": "0x2843c269d2a64ecfa63548e8b3fc0fd23b7f70cb",
          "topics": [
            "0x49628fd1471006c1482da88028e9ce4dbb080b815c9b0344d39e5a8e6ec1419f",
            "0x9fc4e09534cd93ee3b52f80c2e1ff8addead53a8eff09460298a5e614d748f13",
            "0x0000000000000000000000002e2b1c42e38f5af81771e65d87729e57abd1337a",
            "0x0000000000000000000000000000000000000000000000000000000000000000"
          ],
          "data": "0x000000000000000000000000000000000000000000000000000000000000130d00000000000000000000000000000000000000000000000000000000000000010000000000000000000000000000000000000000000000000000000000091be00000000000000000000000000000000000000000000000000000000000091be0",
          "blockHash": "0xf55403de06376c98cd431056e5b67afca1d125dc53524ecbca86a03df85d3655",
          "blockNumber": "0xcfb98",
          "transactionHash": "0xc3fec4fdb731b7f39ab01e8b491b50d32377fd45b6c95d94a35e11f8a53d3d23",
          "transactionIndex": "0x1",
          "logIndex": "0x2",
          "removed": false
        }
      ],
      "logsBloom": "0x00000001000000000000000000000000000000000000000000000000000000000008000000000000000000010000000000000000000000000000020000000000000000000002000000200000000000000000000000000000000000000000000800000000020000000000000000000800002000001000000000000000000000000000000000000000000000000000800000000000000000000000000000000000080400000000000000400000000000000000000000000000000002000000000200000000000000100001000000000000000000000000000000000000000020000000000000010000004000000000000000000000000000004000000000000800",
      "type": "0x2",
      "transactionHash": "0xc3fec4fdb731b7f39ab01e8b491b50d32377fd45b6c95d94a35e11f8a53d3d23",
      "transactionIndex": "0x1",
      "blockHash": "0xf55403de06376c98cd431056e5b67afca1d125dc53524ecbca86a03df85d3655",
      "blockNumber": "0xcfb98",
      "gasUsed": "0x45fb6",
      "effectiveGasPrice": "0x5f5e100",
      "from": "0x660ad4b5a74130a4796b4d54bc6750ae93c86e6c",
      "to": "0x2843c269d2a64ecfa63548e8b3fc0fd23b7f70cb",
      "contractAddress": null,
      "gasUsedForL1": "0xc815",
      "l1BlockNumber": "0x1563309"
    }
  ],
  "libraries": [],
  "pending": [],
  "returns": {},
  "timestamp": 1746555178,
  "chain": 7887,
  "commit": "bd635c8c"
}