{
  "transactions": [
    {
      "hash": "0xfcb041504724d55aec95d951be3f1f3d304cf8c027b47281596ccc971417670b",
      "transactionType": "CALL",
      "contractName": null,
      "contractAddress": "0x2843c269d2a64ecfa63548e8b3fc0fd23b7f70cb",
      "function": "handleOps((address,uint256,bytes,bytes,uint256,uint256,uint256,uint256,uint256,bytes,bytes)[],address)",
      "arguments": [
        "[(0x2e2B1c42E38f5af81771e65D87729E57ABD1337a, 4872, 0x, 0xb61d27f60000000000000000000000002e2b1c42e38f5af81771e65d87729e57abd1337a0000000000000000000000000000000000000000000000000000000000000000000000000000000000000000000000000000000000000000000000000000006000000000000000000000000000000000000000000000000000000000000000c45f9d23010000000000000000000000000000000000000000000000000000000000000040000000000000000000000000000000000000000000000000000000000000008000000000000000000000000000000000000000000000000000000000000000010000000000000000000000006033b0fe6c23e6d160ab8a0381e4666e6978d3250000000000000000000000000000000000000000000000000000000000000001000000000000000000000000000000000000000000000000000000000000000100000000000000000000000000000000000000000000000000000000, 4000000, 210000, 21000, 1, 1000000000, 0x0000000000000000000000000000000000000000, 0xd9f22f164dd38dc3e8854682e1b6f2ff72ad2d0869f3a66de4c81a35048b18735e06fd5cc9322096d7c35f7b7f9174d3203061aaf3a8dfa751eee3ab5f715dc91b70388e4c5319f690bdb6d8a9a48f3cef3543cf1250cf0ba0aa0b32dd1c7c6738092335bd77ee5a9450454e09220022ffae86781cd28e5858fb900f813759e88d1c)]",
        "0x660ad4B5A74130a4796B4d54BC6750Ae93C86e6c"
      ],
      "transaction": {
        "from": "0x660ad4b5a74130a4796b4d54bc6750ae93c86e6c",
        "to": "0x2843c269d2a64ecfa63548e8b3fc0fd23b7f70cb",
        "value": "0x0",
        "input": "0x1fad948c0000000000000000000000000000000000000000000000000000000000000040000000000000000000000000660ad4b5a74130a4796b4d54bc6750ae93c86e6c000000000000000000000000000000000000000000000000000000000000000100000000000000000000000000000000000000000000000000000000000000200000000000000000000000002e2b1c42e38f5af81771e65d87729e57abd1337a00000000000000000000000000000000000000000000000000000000000013080000000000000000000000000000000000000000000000000000000000000160000000000000000000000000000000000000000000000000000000000000018000000000000000000000000000000000000000000000000000000000003d0900000000000000000000000000000000000000000000000000000000000003345000000000000000000000000000000000000000000000000000000000000052080000000000000000000000000000000000000000000000000000000000000001000000000000000000000000000000000000000000000000000000003b9aca000000000000000000000000000000000000000000000000000000000000000320000000000000000000000000000000000000000000000000000000000000036000000000000000000000000000000000000000000000000000000000000000000000000000000000000000000000000000000000000000000000000000000164b61d27f60000000000000000000000002e2b1c42e38f5af81771e65d87729e57abd1337a0000000000000000000000000000000000000000000000000000000000000000000000000000000000000000000000000000000000000000000000000000006000000000000000000000000000000000000000000000000000000000000000c45f9d23010000000000000000000000000000000000000000000000000000000000000040000000000000000000000000000000000000000000000000000000000000008000000000000000000000000000000000000000000000000000000000000000010000000000000000000000006033b0fe6c23e6d160ab8a0381e4666e6978d325000000000000000000000000000000000000000000000000000000000000000100000000000000000000000000000000000000000000000000000000000000010000000000000000000000000000000000000000000000000000000000000000000000000000000000000000000000000000000000000000000000000000000000000000000000000000000000000000000000000000001400000000000000000000000000000000000000000000000000000000000000000000000000000000000000000000000000000000000000000000000000000082d9f22f164dd38dc3e8854682e1b6f2ff72ad2d0869f3a66de4c81a35048b18735e06fd5cc9322096d7c35f7b7f9174d3203061aaf3a8dfa751eee3ab5f715dc91b70388e4c5319f690bdb6d8a9a48f3cef3543cf1250cf0ba0aa0b32dd1c7c6738092335bd77ee5a9450454e09220022ffae86781cd28e5858fb900f813759e88d1c000000000000000000000000000000000000000000000000000000000000",
        "nonce": "0x4beb6",
        "chainId": "0x1ecf"
      },
      "additionalContracts": [],
      "isFixedGasLimit": false
    },
    {
      "hash": "0x2f3863e6df88a136eb36e8a0778feed31d670d5a395b60a5ce58999fc72e4a7d",
      "transactionType": "CALL",
      "contractName": null,
      "contractAddress": "0x2843c269d2a64ecfa63548e8b3fc0fd23b7f70cb",
      "function": "handleOps((address,uint256,bytes,bytes,uint256,uint256,uint256,uint256,uint256,bytes,bytes)[],address)",
      "arguments": [
        "[(0x2e2B1c42E38f5af81771e65D87729E57ABD1337a, 4873, 0x, 0xb61d27f60000000000000000000000002e2b1c42e38f5af81771e65d87729e57abd1337a0000000000000000000000000000000000000000000000000000000000000000000000000000000000000000000000000000000000000000000000000000006000000000000000000000000000000000000000000000000000000000000000c45f9d2301000000000000000000000000000000000000000000000000000000000000004000000000000000000000000000000000000000000000000000000000000000800000000000000000000000000000000000000000000000000000000000000001000000000000000000000000010700808d59d2bb92257fcafacfe8e5bff7ab870000000000000000000000000000000000000000000000000000000000000001000000000000000000000000000000000000000000000000000000000000000100000000000000000000000000000000000000000000000000000000, 4000000, 210000, 21000, 1, 1000000000, 0x0000000000000000000000000000000000000000, 0x9ac65474cad8495033fb282d7b07755898572f6c9a8196dcf6124b9bde2e68527e361bc39ce4c9aac0241797acf164bffc61e0847420bf88372325a96049cc461c8d37e515d317acc76c440832b03e10a6ee350ca9d8efadf811a131eee781b73c0c359ff1340549fb1e96010391345094652244563ac5a10e57ad50957bc1869a1b)]",
        "0x660ad4B5A74130a4796B4d54BC6750Ae93C86e6c"
      ],
      "transaction": {
        "from": "0x660ad4b5a74130a4796b4d54bc6750ae93c86e6c",
        "to": "0x2843c269d2a64ecfa63548e8b3fc0fd23b7f70cb",
        "value": "0x0",
        "input": "0x1fad948c0000000000000000000000000000000000000000000000000000000000000040000000000000000000000000660ad4b5a74130a4796b4d54bc6750ae93c86e6c000000000000000000000000000000000000000000000000000000000000000100000000000000000000000000000000000000000000000000000000000000200000000000000000000000002e2b1c42e38f5af81771e65d87729e57abd1337a00000000000000000000000000000000000000000000000000000000000013090000000000000000000000000000000000000000000000000000000000000160000000000000000000000000000000000000000000000000000000000000018000000000000000000000000000000000000000000000000000000000003d0900000000000000000000000000000000000000000000000000000000000003345000000000000000000000000000000000000000000000000000000000000052080000000000000000000000000000000000000000000000000000000000000001000000000000000000000000000000000000000000000000000000003b9aca000000000000000000000000000000000000000000000000000000000000000320000000000000000000000000000000000000000000000000000000000000036000000000000000000000000000000000000000000000000000000000000000000000000000000000000000000000000000000000000000000000000000000164b61d27f60000000000000000000000002e2b1c42e38f5af81771e65d87729e57abd1337a0000000000000000000000000000000000000000000000000000000000000000000000000000000000000000000000000000000000000000000000000000006000000000000000000000000000000000000000000000000000000000000000c45f9d2301000000000000000000000000000000000000000000000000000000000000004000000000000000000000000000000000000000000000000000000000000000800000000000000000000000000000000000000000000000000000000000000001000000000000000000000000010700808d59d2bb92257fcafacfe8e5bff7ab870000000000000000000000000000000000000000000000000000000000000001000000000000000000000000000000000000000000000000000000000000000100000000000000000000000000000000000000000000000000000000000000000000000000000000000000000000000000000000000000000000000000000000000000000000000000000000000000000000000000000014000000000000000000000000000000000000000000000000000000000000000000000000000000000000000000000000000000000000000000000000000000829ac65474cad8495033fb282d7b07755898572f6c9a8196dcf6124b9bde2e68527e361bc39ce4c9aac0241797acf164bffc61e0847420bf88372325a96049cc461c8d37e515d317acc76c440832b03e10a6ee350ca9d8efadf811a131eee781b73c0c359ff1340549fb1e96010391345094652244563ac5a10e57ad50957bc1869a1b000000000000000000000000000000000000000000000000000000000000",
        "nonce": "0x4beb7",
        "chainId": "0x1ecf"
      },
      "additionalContracts": [],
      "isFixedGasLimit": false
    },
    {
      "hash": "0x5d85352ca6ef11d7fa5e3a973d2cc76b1058b66a0c86ae7b848a34315c8f1bb6",
      "transactionType": "CALL",
      "contractName": null,
      "contractAddress": "0x2843c269d2a64ecfa63548e8b3fc0fd23b7f70cb",
      "function": "handleOps((address,uint256,bytes,bytes,uint256,uint256,uint256,uint256,uint256,bytes,bytes)[],address)",
      "arguments": [
        "[(0x2e2B1c42E38f5af81771e65D87729E57ABD1337a, 4874, 0x, 0xb61d27f6000000000000000000000000010700808d59d2bb92257fcafacfe8e5bff7ab870000000000000000000000000000000000000000000000000000000000000000000000000000000000000000000000000000000000000000000000000000006000000000000000000000000000000000000000000000000000000000000000245c19a95c0000000000000000000000002e2b1c42e38f5af81771e65d87729e57abd1337a00000000000000000000000000000000000000000000000000000000, 4000000, 210000, 21000, 1, 1000000000, 0x0000000000000000000000000000000000000000, 0x214d5cc218d99998a301401efc59b0e08d70f4309595824c09377649572fb95762229176a57907d07b84c0f6f4d09e7a4d1a4124a21587a7bc709912a3f44b601c016f7fa9bc3cfcbfec6aeac8319e3c5e9b0fdfdfd9209557e561ad0ebf7cd1e631f449bdac2aeefee2ea5809b734563cf9afa7df539a84c78916934b8877a0481b)]",
        "0x660ad4B5A74130a4796B4d54BC6750Ae93C86e6c"
      ],
      "transaction": {
        "from": "0x660ad4b5a74130a4796b4d54bc6750ae93c86e6c",
        "to": "0x2843c269d2a64ecfa63548e8b3fc0fd23b7f70cb",
        "value": "0x0",
        "input": "0x1fad948c0000000000000000000000000000000000000000000000000000000000000040000000000000000000000000660ad4b5a74130a4796b4d54bc6750ae93c86e6c000000000000000000000000000000000000000000000000000000000000000100000000000000000000000000000000000000000000000000000000000000200000000000000000000000002e2b1c42e38f5af81771e65d87729e57abd1337a000000000000000000000000000000000000000000000000000000000000130a0000000000000000000000000000000000000000000000000000000000000160000000000000000000000000000000000000000000000000000000000000018000000000000000000000000000000000000000000000000000000000003d0900000000000000000000000000000000000000000000000000000000000003345000000000000000000000000000000000000000000000000000000000000052080000000000000000000000000000000000000000000000000000000000000001000000000000000000000000000000000000000000000000000000003b9aca00000000000000000000000000000000000000000000000000000000000000028000000000000000000000000000000000000000000000000000000000000002c0000000000000000000000000000000000000000000000000000000000000000000000000000000000000000000000000000000000000000000000000000000c4b61d27f6000000000000000000000000010700808d59d2bb92257fcafacfe8e5bff7ab870000000000000000000000000000000000000000000000000000000000000000000000000000000000000000000000000000000000000000000000000000006000000000000000000000000000000000000000000000000000000000000000245c19a95c0000000000000000000000002e2b1c42e38f5af81771e65d87729e57abd1337a0000000000000000000000000000000000000000000000000000000000000000000000000000000000000000000000000000000000000000000000000000000000000000000000000000000000000000000000000000001400000000000000000000000000000000000000000000000000000000000000000000000000000000000000000000000000000000000000000000000000000082214d5cc218d99998a301401efc59b0e08d70f4309595824c09377649572fb95762229176a57907d07b84c0f6f4d09e7a4d1a4124a21587a7bc709912a3f44b601c016f7fa9bc3cfcbfec6aeac8319e3c5e9b0fdfdfd9209557e561ad0ebf7cd1e631f449bdac2aeefee2ea5809b734563cf9afa7df539a84c78916934b8877a0481b000000000000000000000000000000000000000000000000000000000000",
        "nonce": "0x4beb8",
        "chainId": "0x1ecf"
      },
      "additionalContracts": [],
      "isFixedGasLimit": false
    }
  ],
  "receipts": [
    {
      "status": "0x1",
      "cumulativeGasUsed": "0x35e55",
      "logs": [
        {
          "address": "0x2843c269d2a64ecfa63548e8b3fc0fd23b7f70cb",
          "topics": [
            "0xbb47ee3e183a558b1a2ff0874b079f3fc5478b7454eacf2bfc5af2ff5878f972"
          ],
          "data": "0x",
          "blockHash": "0x90654816c6dd3b599ef39389b2fd2c9e224b8827a5ba57bde413299b59221e56",
          "blockNumber": "0xcfb91",
          "transactionHash": "0xfcb041504724d55aec95d951be3f1f3d304cf8c027b47281596ccc971417670b",
          "transactionIndex": "0x1",
          "logIndex": "0x0",
          "removed": false
        },
        {
          "address": "0x2843c269d2a64ecfa63548e8b3fc0fd23b7f70cb",
          "topics": [
            "0x49628fd1471006c1482da88028e9ce4dbb080b815c9b0344d39e5a8e6ec1419f",
            "0x67cbf45d38b3384ed46c097fe6671415fb6f60a3bcefbdacdf33a6ea10798e85",
            "0x0000000000000000000000002e2b1c42e38f5af81771e65d87729e57abd1337a",
            "0x0000000000000000000000000000000000000000000000000000000000000000"
          ],
          "data": "0x000000000000000000000000000000000000000000000000000000000000130800000000000000000000000000000000000000000000000000000000000000010000000000000000000000000000000000000000000000000000000000084f370000000000000000000000000000000000000000000000000000000000084f37",
          "blockHash": "0x90654816c6dd3b599ef39389b2fd2c9e224b8827a5ba57bde413299b59221e56",
          "blockNumber": "0xcfb91",
          "transactionHash": "0xfcb041504724d55aec95d951be3f1f3d304cf8c027b47281596ccc971417670b",
          "transactionIndex": "0x1",
          "logIndex": "0x1",
          "removed": false
        }
      ],
      "logsBloom": "0x00000000000000000000000000000000000000000000000000000000000000000208000000000000000000010000000000000000000000000000020000000000000000000000000000000000000000000000000000000000000000000000000800000000020000000000000000000800002000000000000000000000000000000000000000000000000000000000800000000000000000000000000000000000000400000000000000400000000000000000000000000000000002000000000000000000000000100001000000000000000000000000000000800000001020000000000000010000000000000000000000000000000000000000000000000000",
      "type": "0x2",
      "transactionHash": "0xfcb041504724d55aec95d951be3f1f3d304cf8c027b47281596ccc971417670b",
      "transactionIndex": "0x1",
      "blockHash": "0x90654816c6dd3b599ef39389b2fd2c9e224b8827a5ba57bde413299b59221e56",
      "blockNumber": "0xcfb91",
      "gasUsed": "0x35e55",
      "effectiveGasPrice": "0x5f5e100",
      "from": "0x660ad4b5a74130a4796b4d54bc6750ae93c86e6c",
      "to": "0x2843c269d2a64ecfa63548e8b3fc0fd23b7f70cb",
      "contractAddress": null,
      "gasUsedForL1": "0xafdc",
      "l1BlockNumber": "0x15632d8"
    },
    {
      "status": "0x1",
      "cumulativeGasUsed": "0x30fa7",
      "logs": [
        {
          "address": "0x2843c269d2a64ecfa63548e8b3fc0fd23b7f70cb",
          "topics": [
            "0xbb47ee3e183a558b1a2ff0874b079f3fc5478b7454eacf2bfc5af2ff5878f972"
          ],
          "data": "0x",
          "blockHash": "0x40075f9fc42c92b0ecdf251dd0999afd3d2021774f76524e18362a724966f966",
          "blockNumber": "0xcfb92",
          "transactionHash": "0x2f3863e6df88a136eb36e8a0778feed31d670d5a395b60a5ce58999fc72e4a7d",
          "transactionIndex": "0x1",
          "logIndex": "0x0",
          "removed": false
        },
        {
          "address": "0x2843c269d2a64ecfa63548e8b3fc0fd23b7f70cb",
          "topics": [
            "0x49628fd1471006c1482da88028e9ce4dbb080b815c9b0344d39e5a8e6ec1419f",
            "0xb1325b8397321f876c716958fd69e7b7e1b69b9e4327cb2a131254585afd623c",
            "0x0000000000000000000000002e2b1c42e38f5af81771e65d87729e57abd1337a",
            "0x0000000000000000000000000000000000000000000000000000000000000000"
          ],
          "data": "0x0000000000000000000000000000000000000000000000000000000000001309000000000000000000000000000000000000000000000000000000000000000100000000000000000000000000000000000000000000000000000000000809410000000000000000000000000000000000000000000000000000000000080941",
          "blockHash": "0x40075f9fc42c92b0ecdf251dd0999afd3d2021774f76524e18362a724966f966",
          "blockNumber": "0xcfb92",
          "transactionHash": "0x2f3863e6df88a136eb36e8a0778feed31d670d5a395b60a5ce58999fc72e4a7d",
          "transactionIndex": "0x1",
          "logIndex": "0x1",
          "removed": false
        }
      ],
      "logsBloom": "0x00000000000000000000000000000000000000000000000000000000000000000008000000000000000000010000000000000000000000000000020000000000000000000000000000000000000000000000000000000000000000000000000800001000020000000000000000000800002000000000000000000000000000000000000000000000000000000000800000000000000000000000000000000000010400000000000000400000000000000000000002000000000002000000000000000000000000100001000000000000000000000000000000000000000020000000000000010000000000000000000000000000000000000000000000000000",
      "type": "0x2",
      "transactionHash": "0x2f3863e6df88a136eb36e8a0778feed31d670d5a395b60a5ce58999fc72e4a7d",
      "transactionIndex": "0x1",
      "blockHash": "0x40075f9fc42c92b0ecdf251dd0999afd3d2021774f76524e18362a724966f966",
      "blockNumber": "0xcfb92",
      "gasUsed": "0x30fa7",
      "effectiveGasPrice": "0x5f5e100",
      "from": "0x660ad4b5a74130a4796b4d54bc6750ae93c86e6c",
      "to": "0x2843c269d2a64ecfa63548e8b3fc0fd23b7f70cb",
      "contractAddress": null,
      "gasUsedForL1": "0xaeea",
      "l1BlockNumber": "0x15632d9"
    },
    {
      "status": "0x1",
      "cumulativeGasUsed": "0x43f86",
      "logs": [
        {
          "address": "0x2843c269d2a64ecfa63548e8b3fc0fd23b7f70cb",
          "topics": [
            "0xbb47ee3e183a558b1a2ff0874b079f3fc5478b7454eacf2bfc5af2ff5878f972"
          ],
          "data": "0x",
          "blockHash": "0x6ecbe74ce5ebcf3e26fe797f526f3aebad1767bc2601787c1be47544278d301b",
          "blockNumber": "0xcfb93",
          "transactionHash": "0x5d85352ca6ef11d7fa5e3a973d2cc76b1058b66a0c86ae7b848a34315c8f1bb6",
          "transactionIndex": "0x1",
          "logIndex": "0x0",
          "removed": false
        },
        {
          "address": "0x010700808d59d2bb92257fcafacfe8e5bff7ab87",
          "topics": [
            "0x3134e8a2e6d97e929a7e54011ea5485d7d196dd5f0ba4d4ef95803e8e3fc257f",
            "0x0000000000000000000000002e2b1c42e38f5af81771e65d87729e57abd1337a",
            "0x0000000000000000000000000000000000000000000000000000000000000000",
            "0x0000000000000000000000002e2b1c42e38f5af81771e65d87729e57abd1337a"
          ],
          "data": "0x",
          "blockHash": "0x6ecbe74ce5ebcf3e26fe797f526f3aebad1767bc2601787c1be47544278d301b",
          "blockNumber": "0xcfb93",
          "transactionHash": "0x5d85352ca6ef11d7fa5e3a973d2cc76b1058b66a0c86ae7b848a34315c8f1bb6",
          "transactionIndex": "0x1",
          "logIndex": "0x1",
          "removed": false
        },
        {
          "address": "0x010700808d59d2bb92257fcafacfe8e5bff7ab87",
          "topics": [
            "0xdec2bacdd2f05b59de34da9b523dff8be42e5e38e818c82fdb0bae774387a724",
            "0x0000000000000000000000002e2b1c42e38f5af81771e65d87729e57abd1337a"
          ],
          "data": "0x00000000000000000000000000000000000000000000000000000000000000000000000000000000000000000000000000000000000000004cbe26c0576ec000",
          "blockHash": "0x6ecbe74ce5ebcf3e26fe797f526f3aebad1767bc2601787c1be47544278d301b",
          "blockNumber": "0xcfb93",
          "transactionHash": "0x5d85352ca6ef11d7fa5e3a973d2cc76b1058b66a0c86ae7b848a34315c8f1bb6",
          "transactionIndex": "0x1",
          "logIndex": "0x2",
          "removed": false
        },
        {
          "address": "0x2843c269d2a64ecfa63548e8b3fc0fd23b7f70cb",
          "topics": [
            "0x49628fd1471006c1482da88028e9ce4dbb080b815c9b0344d39e5a8e6ec1419f",
            "0xcb8eaef0fb25aee67e65bcbac46df8e423668eea952b6109ff58b7eb47c60c67",
            "0x0000000000000000000000002e2b1c42e38f5af81771e65d87729e57abd1337a",
            "0x0000000000000000000000000000000000000000000000000000000000000000"
          ],
          "data": "0x000000000000000000000000000000000000000000000000000000000000130a000000000000000000000000000000000000000000000000000000000000000100000000000000000000000000000000000000000000000000000000000922290000000000000000000000000000000000000000000000000000000000092229",
          "blockHash": "0x6ecbe74ce5ebcf3e26fe797f526f3aebad1767bc2601787c1be47544278d301b",
          "blockNumber": "0xcfb93",
          "transactionHash": "0x5d85352ca6ef11d7fa5e3a973d2cc76b1058b66a0c86ae7b848a34315c8f1bb6",
          "transactionIndex": "0x1",
          "logIndex": "0x3",
          "removed": false
        }
      ],
      "logsBloom": "0x00000000000400000000000000000000000020020000000000000000000000000008040000000200000010010000000000020000000000000000020000000000000000000000000000000000000000000000000020000000000000000000000800000000020000000040000000000800002000000000000000000000000000000000000000000000000000000000800000000000000000000000000000000000041400000000000000400000000000000000000000000000000002000000000000000000000000100001000000000000000000000000000000000000000020000000000000010000000000000000800000000000000000000000000000000000",
      "type": "0x2",
      "transactionHash": "0x5d85352ca6ef11d7fa5e3a973d2cc76b1058b66a0c86ae7b848a34315c8f1bb6",
      "transactionIndex": "0x1",
      "blockHash": "0x6ecbe74ce5ebcf3e26fe797f526f3aebad1767bc2601787c1be47544278d301b",
      "blockNumber": "0xcfb93",
      "gasUsed": "0x43f86",
      "effectiveGasPrice": "0x5f5e100",
      "from": "0x660ad4b5a74130a4796b4d54bc6750ae93c86e6c",
      "to": "0x2843c269d2a64ecfa63548e8b3fc0fd23b7f70cb",
      "contractAddress": null,
      "gasUsedForL1": "0xa991",
      "l1BlockNumber": "0x15632d9"
    }
  ],
  "libraries": [],
  "pending": [],
  "returns": {},
  "timestamp": 1746554602,
  "chain": 7887,
  "commit": "bd635c8c"
}