{
  "transactions": [
    {
      "hash": "0xeeee5131a8960193f617ed64f6fb40c34e8d1d1ed6919bfc6dad0b06aa0ce8ff",
      "transactionType": "CALL",
      "contractName": null,
      "contractAddress": "0x2843c269d2a64ecfa63548e8b3fc0fd23b7f70cb",
      "function": "handleOps((address,uint256,bytes,bytes,uint256,uint256,uint256,uint256,uint256,bytes,bytes)[],address)",
      "arguments": [
        "[(0x2e2B1c42E38f5af81771e65D87729E57ABD1337a, 4476, 0x, 0xb61d27f60000000000000000000000005a1e00884e35bf2dc39af51712d08bef24b1817f000000000000000000000000000000000000000000000000000000000000000000000000000000000000000000000000000000000000000000000000000000600000000000000000000000000000000000000000000000000000000000000004380d831b00000000000000000000000000000000000000000000000000000000, 4000000, 210000, 21000, 1, 1000000000, 0x0000000000000000000000000000000000000000, 0xbab6acfe33d7aec57e3692102127e1cfa5f60c4c0b517fc55de75c745597537f051eb602cb2e4eff65918aa49f1c7d0e726fa52d3bb41803ae2020e4510824031b)]",
        "0x660ad4B5A74130a4796B4d54BC6750Ae93C86e6c"
      ],
      "transaction": {
        "from": "0x660ad4b5a74130a4796b4d54bc6750ae93c86e6c",
        "to": "0x2843c269d2a64ecfa63548e8b3fc0fd23b7f70cb",
        "value": "0x0",
        "input": "0x1fad948c0000000000000000000000000000000000000000000000000000000000000040000000000000000000000000660ad4b5a74130a4796b4d54bc6750ae93c86e6c000000000000000000000000000000000000000000000000000000000000000100000000000000000000000000000000000000000000000000000000000000200000000000000000000000002e2b1c42e38f5af81771e65d87729e57abd1337a000000000000000000000000000000000000000000000000000000000000117c0000000000000000000000000000000000000000000000000000000000000160000000000000000000000000000000000000000000000000000000000000018000000000000000000000000000000000000000000000000000000000003d0900000000000000000000000000000000000000000000000000000000000003345000000000000000000000000000000000000000000000000000000000000052080000000000000000000000000000000000000000000000000000000000000001000000000000000000000000000000000000000000000000000000003b9aca00000000000000000000000000000000000000000000000000000000000000026000000000000000000000000000000000000000000000000000000000000002a0000000000000000000000000000000000000000000000000000000000000000000000000000000000000000000000000000000000000000000000000000000a4b61d27f60000000000000000000000005a1e00884e35bf2dc39af51712d08bef24b1817f000000000000000000000000000000000000000000000000000000000000000000000000000000000000000000000000000000000000000000000000000000600000000000000000000000000000000000000000000000000000000000000004380d831b0000000000000000000000000000000000000000000000000000000000000000000000000000000000000000000000000000000000000000000000000000000000000000000000000000000000000000000000000000001400000000000000000000000000000000000000000000000000000000000000000000000000000000000000000000000000000000000000000000000000000041bab6acfe33d7aec57e3692102127e1cfa5f60c4c0b517fc55de75c745597537f051eb602cb2e4eff65918aa49f1c7d0e726fa52d3bb41803ae2020e4510824031b00000000000000000000000000000000000000000000000000000000000000",
        "nonce": "0x4bcd3",
        "chainId": "0x1ecf"
      },
      "additionalContracts": [],
      "isFixedGasLimit": false
    }
  ],
  "receipts": [
    {
      "status": "0x1",
      "cumulativeGasUsed": "0x2bbc7",
      "logs": [
        {
          "address": "0x2843c269d2a64ecfa63548e8b3fc0fd23b7f70cb",
          "topics": [
            "0xbb47ee3e183a558b1a2ff0874b079f3fc5478b7454eacf2bfc5af2ff5878f972"
          ],
          "data": "0x",
          "blockHash": "0x6364dfbdbed4e3fec92647aed07e3002b22e9a930fba588993520c9ad23f7c88",
          "blockNumber": "0xb79fa",
          "transactionHash": "0xeeee5131a8960193f617ed64f6fb40c34e8d1d1ed6919bfc6dad0b06aa0ce8ff",
          "transactionIndex": "0x1",
          "logIndex": "0x0",
          "removed": false
        },
        {
          "address": "0x5a1e00884e35bf2dc39af51712d08bef24b1817f",
          "topics": [
            "0x8233a98787b42c8a85877e43d0969d9758e213000c07b8e1db21707dd06d05d1"
          ],
          "data": "0x0000000000000000000000000000000000000000000000000000000000000001000000000000000000000000000000000000000000000000000003bdf8236cef",
          "blockHash": "0x6364dfbdbed4e3fec92647aed07e3002b22e9a930fba588993520c9ad23f7c88",
          "blockNumber": "0xb79fa",
          "transactionHash": "0xeeee5131a8960193f617ed64f6fb40c34e8d1d1ed6919bfc6dad0b06aa0ce8ff",
          "transactionIndex": "0x1",
          "logIndex": "0x1",
          "removed": false
        },
        {
          "address": "0x2843c269d2a64ecfa63548e8b3fc0fd23b7f70cb",
          "topics": [
            "0x49628fd1471006c1482da88028e9ce4dbb080b815c9b0344d39e5a8e6ec1419f",
            "0x1506e8054791ac2c7745c683647bf9b646c9aacb05cdf8e7ecafaa068dbdba7a",
            "0x0000000000000000000000002e2b1c42e38f5af81771e65d87729e57abd1337a",
            "0x0000000000000000000000000000000000000000000000000000000000000000"
          ],
          "data": "0x000000000000000000000000000000000000000000000000000000000000117c000000000000000000000000000000000000000000000000000000000000000100000000000000000000000000000000000000000000000000000000000851430000000000000000000000000000000000000000000000000000000000085143",
          "blockHash": "0x6364dfbdbed4e3fec92647aed07e3002b22e9a930fba588993520c9ad23f7c88",
          "blockNumber": "0xb79fa",
          "transactionHash": "0xeeee5131a8960193f617ed64f6fb40c34e8d1d1ed6919bfc6dad0b06aa0ce8ff",
          "transactionIndex": "0x1",
          "logIndex": "0x2",
          "removed": false
        }
      ],
      "logsBloom": "0x00000000000000000000000000000000000000020000000000000000000000000408000000000000000000010000000000000000000000000000020000000000000000000000200000000000000000000000000000000000000000000000000800000000020000000000000000000800002000000000000000000000000000000000000000000000000000000000800000000000000000040000000000000020000400000000000000400010000000000000000000000000000002000000000000000020000000100001000000000000000000000000000000000000000020000000000000010000000040000000000000000000000000000000000000000000",
      "type": "0x2",
      "transactionHash": "0xeeee5131a8960193f617ed64f6fb40c34e8d1d1ed6919bfc6dad0b06aa0ce8ff",
      "transactionIndex": "0x1",
      "blockHash": "0x6364dfbdbed4e3fec92647aed07e3002b22e9a930fba588993520c9ad23f7c88",
      "blockNumber": "0xb79fa",
      "gasUsed": "0x2bbc7",
      "effectiveGasPrice": "0x5f5e100",
      "from": "0x660ad4b5a74130a4796b4d54bc6750ae93c86e6c",
      "to": "0x2843c269d2a64ecfa63548e8b3fc0fd23b7f70cb",
      "contractAddress": null,
      "gasUsedForL1": "0xe32",
      "l1BlockNumber": "0x14e08df"
    }
  ],
  "libraries": [],
  "pending": [],
  "returns": {},
  "timestamp": 1740099717,
  "chain": 7887,
  "commit": "34f6567"
}