{
  "transactions": [
    {
      "hash": "0x4c0d7c1011674ffa0ad227c1d85deb4bc5cc83797bb39cb367dd50d23c162296",
      "transactionType": "CALL",
      "contractName": null,
      "contractAddress": "0x2843c269d2a64ecfa63548e8b3fc0fd23b7f70cb",
      "function": "handleOps((address,uint256,bytes,bytes,uint256,uint256,uint256,uint256,uint256,bytes,bytes)[],address)",
      "arguments": [
        "[(0x2e2B1c42E38f5af81771e65D87729E57ABD1337a, 4383, 0x, 0xb61d27f6000000000000000000000000010700808d59d2bb92257fcafacfe8e5bff7ab870000000000000000000000000000000000000000000000000000000000000000000000000000000000000000000000000000000000000000000000000000006000000000000000000000000000000000000000000000000000000000000000449dc29fac000000000000000000000000d157904639e89df05e89e0dabeec99ae3d74f9aa0000000000000000000000000000000000000000000000008ac7230489e8000000000000000000000000000000000000000000000000000000000000, 4000000, 210000, 21000, 1, 1000000000, 0x0000000000000000000000000000000000000000, 0xef6f1359cd1a139a480c4dd212213b9afd00065737771b5713d4ab75ca6568d70323bf578697f2a29ed71fc63901556f3aeaa69406633c66444a9bbec9a03b9f1c576d15ae74689584fafaa6d929aabc586fb994fadf3d9f29eb1091bad4a798126ed33ed6fdad76cbd7d08494073f453eb64784640c67b195f314be8c11b8d22f1b)]",
        "0x660ad4B5A74130a4796B4d54BC6750Ae93C86e6c"
      ],
      "transaction": {
        "from": "0x660ad4b5a74130a4796b4d54bc6750ae93c86e6c",
        "to": "0x2843c269d2a64ecfa63548e8b3fc0fd23b7f70cb",
        "value": "0x0",
        "input": "0x1fad948c0000000000000000000000000000000000000000000000000000000000000040000000000000000000000000660ad4b5a74130a4796b4d54bc6750ae93c86e6c000000000000000000000000000000000000000000000000000000000000000100000000000000000000000000000000000000000000000000000000000000200000000000000000000000002e2b1c42e38f5af81771e65d87729e57abd1337a000000000000000000000000000000000000000000000000000000000000111f0000000000000000000000000000000000000000000000000000000000000160000000000000000000000000000000000000000000000000000000000000018000000000000000000000000000000000000000000000000000000000003d0900000000000000000000000000000000000000000000000000000000000003345000000000000000000000000000000000000000000000000000000000000052080000000000000000000000000000000000000000000000000000000000000001000000000000000000000000000000000000000000000000000000003b9aca0000000000000000000000000000000000000000000000000000000000000002a000000000000000000000000000000000000000000000000000000000000002e0000000000000000000000000000000000000000000000000000000000000000000000000000000000000000000000000000000000000000000000000000000e4b61d27f6000000000000000000000000010700808d59d2bb92257fcafacfe8e5bff7ab870000000000000000000000000000000000000000000000000000000000000000000000000000000000000000000000000000000000000000000000000000006000000000000000000000000000000000000000000000000000000000000000449dc29fac000000000000000000000000d157904639e89df05e89e0dabeec99ae3d74f9aa0000000000000000000000000000000000000000000000008ac7230489e800000000000000000000000000000000000000000000000000000000000000000000000000000000000000000000000000000000000000000000000000000000000000000000000000000000000000000000000000000000001400000000000000000000000000000000000000000000000000000000000000000000000000000000000000000000000000000000000000000000000000000082ef6f1359cd1a139a480c4dd212213b9afd00065737771b5713d4ab75ca6568d70323bf578697f2a29ed71fc63901556f3aeaa69406633c66444a9bbec9a03b9f1c576d15ae74689584fafaa6d929aabc586fb994fadf3d9f29eb1091bad4a798126ed33ed6fdad76cbd7d08494073f453eb64784640c67b195f314be8c11b8d22f1b000000000000000000000000000000000000000000000000000000000000",
        "nonce": "0x4bc3c",
        "chainId": "0x1ecf"
      },
      "additionalContracts": [],
      "isFixedGasLimit": false
    },
    {
      "hash": "0xe92362071b9e0c35c19a1805b9269e7b1593ae75e267f5159c40f6216fc87274",
      "transactionType": "CALL",
      "contractName": null,
      "contractAddress": "0x2843c269d2a64ecfa63548e8b3fc0fd23b7f70cb",
      "function": "handleOps((address,uint256,bytes,bytes,uint256,uint256,uint256,uint256,uint256,bytes,bytes)[],address)",
      "arguments": [
        "[(0x2e2B1c42E38f5af81771e65D87729E57ABD1337a, 4384, 0x, 0xb61d27f6000000000000000000000000010700808d59d2bb92257fcafacfe8e5bff7ab8700000000000000000000000000000000000000000000000000000000000000000000000000000000000000000000000000000000000000000000000000000060000000000000000000000000000000000000000000000000000000000000004440c10f19000000000000000000000000fff4012cfbc3c3261d396786fa084ee4b8c444080000000000000000000000000000000000000000000000008ac7230489e8000000000000000000000000000000000000000000000000000000000000, 4000000, 210000, 21000, 1, 1000000000, 0x0000000000000000000000000000000000000000, 0x1fe03cffe2e292d12d91ef54be3f9bc76f6b524b71750aa06d2dc6147c4e66087ddc4ba956a53b218fd90988ac09d891d18e944457583f35ab78fdf805b9833e1c8ff84373caf825e47594e75ee25e40b5941298c9d32b0044549292bf86b754c210a90990b2f1c5d289524e06716317624f37b61b227369c36a1db72e355bae001b)]",
        "0x660ad4B5A74130a4796B4d54BC6750Ae93C86e6c"
      ],
      "transaction": {
        "from": "0x660ad4b5a74130a4796b4d54bc6750ae93c86e6c",
        "to": "0x2843c269d2a64ecfa63548e8b3fc0fd23b7f70cb",
        "value": "0x0",
        "input": "0x1fad948c0000000000000000000000000000000000000000000000000000000000000040000000000000000000000000660ad4b5a74130a4796b4d54bc6750ae93c86e6c000000000000000000000000000000000000000000000000000000000000000100000000000000000000000000000000000000000000000000000000000000200000000000000000000000002e2b1c42e38f5af81771e65d87729e57abd1337a00000000000000000000000000000000000000000000000000000000000011200000000000000000000000000000000000000000000000000000000000000160000000000000000000000000000000000000000000000000000000000000018000000000000000000000000000000000000000000000000000000000003d0900000000000000000000000000000000000000000000000000000000000003345000000000000000000000000000000000000000000000000000000000000052080000000000000000000000000000000000000000000000000000000000000001000000000000000000000000000000000000000000000000000000003b9aca0000000000000000000000000000000000000000000000000000000000000002a000000000000000000000000000000000000000000000000000000000000002e0000000000000000000000000000000000000000000000000000000000000000000000000000000000000000000000000000000000000000000000000000000e4b61d27f6000000000000000000000000010700808d59d2bb92257fcafacfe8e5bff7ab8700000000000000000000000000000000000000000000000000000000000000000000000000000000000000000000000000000000000000000000000000000060000000000000000000000000000000000000000000000000000000000000004440c10f19000000000000000000000000fff4012cfbc3c3261d396786fa084ee4b8c444080000000000000000000000000000000000000000000000008ac7230489e8000000000000000000000000000000000000000000000000000000000000000000000000000000000000000000000000000000000000000000000000000000000000000000000000000000000000000000000000000000000014000000000000000000000000000000000000000000000000000000000000000000000000000000000000000000000000000000000000000000000000000000821fe03cffe2e292d12d91ef54be3f9bc76f6b524b71750aa06d2dc6147c4e66087ddc4ba956a53b218fd90988ac09d891d18e944457583f35ab78fdf805b9833e1c8ff84373caf825e47594e75ee25e40b5941298c9d32b0044549292bf86b754c210a90990b2f1c5d289524e06716317624f37b61b227369c36a1db72e355bae001b000000000000000000000000000000000000000000000000000000000000",
        "nonce": "0x4bc3d",
        "chainId": "0x1ecf"
      },
      "additionalContracts": [],
      "isFixedGasLimit": false
    }
  ],
  "receipts": [
    {
      "status": "0x1",
      "cumulativeGasUsed": "0x124bc1",
      "logs": [
        {
          "address": "0x2843c269d2a64ecfa63548e8b3fc0fd23b7f70cb",
          "topics": [
            "0xbb47ee3e183a558b1a2ff0874b079f3fc5478b7454eacf2bfc5af2ff5878f972"
          ],
          "data": "0x",
          "blockHash": "0xe73b41cf852f6b84079339289df7c41bd2ac6b09203817e2425525edb580793a",
          "blockNumber": "0xac7c7",
          "transactionHash": "0x4c0d7c1011674ffa0ad227c1d85deb4bc5cc83797bb39cb367dd50d23c162296",
          "transactionIndex": "0x1",
          "logIndex": "0x0",
          "removed": false
        },
        {
          "address": "0x010700808d59d2bb92257fcafacfe8e5bff7ab87",
          "topics": [
            "0xddf252ad1be2c89b69c2b068fc378daa952ba7f163c4a11628f55a4df523b3ef",
            "0x000000000000000000000000d157904639e89df05e89e0dabeec99ae3d74f9aa",
            "0x0000000000000000000000000000000000000000000000000000000000000000"
          ],
          "data": "0x0000000000000000000000000000000000000000000000008ac7230489e80000",
          "blockHash": "0xe73b41cf852f6b84079339289df7c41bd2ac6b09203817e2425525edb580793a",
          "blockNumber": "0xac7c7",
          "transactionHash": "0x4c0d7c1011674ffa0ad227c1d85deb4bc5cc83797bb39cb367dd50d23c162296",
          "transactionIndex": "0x1",
          "logIndex": "0x1",
          "removed": false
        },
        {
          "address": "0x2843c269d2a64ecfa63548e8b3fc0fd23b7f70cb",
          "topics": [
            "0x49628fd1471006c1482da88028e9ce4dbb080b815c9b0344d39e5a8e6ec1419f",
            "0x9bc5b66c6c07dc414058dcdd3362389e9444d9c6125f44ddafabd6bb46e9b718",
            "0x0000000000000000000000002e2b1c42e38f5af81771e65d87729e57abd1337a",
            "0x0000000000000000000000000000000000000000000000000000000000000000"
          ],
          "data": "0x000000000000000000000000000000000000000000000000000000000000111f0000000000000000000000000000000000000000000000000000000000000001000000000000000000000000000000000000000000000000000000000008ebc5000000000000000000000000000000000000000000000000000000000008ebc5",
          "blockHash": "0xe73b41cf852f6b84079339289df7c41bd2ac6b09203817e2425525edb580793a",
          "blockNumber": "0xac7c7",
          "transactionHash": "0x4c0d7c1011674ffa0ad227c1d85deb4bc5cc83797bb39cb367dd50d23c162296",
          "transactionIndex": "0x1",
          "logIndex": "0x2",
          "removed": false
        }
      ],
      "logsBloom": "0x00002000000400000000000000000000000000000000000000000000000001000008000000000000000000010000000000000000000000000000020000000000000000000000000000000008000000000000000000000000000000000000000800000000020000000000000000000800002000000000000000000010000000000000000000000000000000000000800000000000000000020000000000000000001400000000000000400000000800000000000200000000000002000000000000000002000000100001000000000000000000000000000000000000000020000000000000010000000000000000800000000000000000000000000000000800",
      "type": "0x2",
      "transactionHash": "0x4c0d7c1011674ffa0ad227c1d85deb4bc5cc83797bb39cb367dd50d23c162296",
      "transactionIndex": "0x1",
      "blockHash": "0xe73b41cf852f6b84079339289df7c41bd2ac6b09203817e2425525edb580793a",
      "blockNumber": "0xac7c7",
      "gasUsed": "0x124bc1",
      "effectiveGasPrice": "0x5f5e100",
      "from": "0x660ad4b5a74130a4796b4d54bc6750ae93c86e6c",
      "to": "0x2843c269d2a64ecfa63548e8b3fc0fd23b7f70cb",
      "contractAddress": null,
      "gasUsedForL1": "0xef3a9",
      "l1BlockNumber": "0x14aba1c"
    },
    {
      "status": "0x1",
      "cumulativeGasUsed": "0x12150f",
      "logs": [
        {
          "address": "0x2843c269d2a64ecfa63548e8b3fc0fd23b7f70cb",
          "topics": [
            "0xbb47ee3e183a558b1a2ff0874b079f3fc5478b7454eacf2bfc5af2ff5878f972"
          ],
          "data": "0x",
          "blockHash": "0x86e0e06fd5f11b9a0a78037a0ff34b649a648557d4f113a3925ade8069b9ffd8",
          "blockNumber": "0xac7c8",
          "transactionHash": "0xe92362071b9e0c35c19a1805b9269e7b1593ae75e267f5159c40f6216fc87274",
          "transactionIndex": "0x1",
          "logIndex": "0x0",
          "removed": false
        },
        {
          "address": "0x010700808d59d2bb92257fcafacfe8e5bff7ab87",
          "topics": [
            "0xddf252ad1be2c89b69c2b068fc378daa952ba7f163c4a11628f55a4df523b3ef",
            "0x0000000000000000000000000000000000000000000000000000000000000000",
            "0x000000000000000000000000fff4012cfbc3c3261d396786fa084ee4b8c44408"
          ],
          "data": "0x0000000000000000000000000000000000000000000000008ac7230489e80000",
          "blockHash": "0x86e0e06fd5f11b9a0a78037a0ff34b649a648557d4f113a3925ade8069b9ffd8",
          "blockNumber": "0xac7c8",
          "transactionHash": "0xe92362071b9e0c35c19a1805b9269e7b1593ae75e267f5159c40f6216fc87274",
          "transactionIndex": "0x1",
          "logIndex": "0x1",
          "removed": false
        },
        {
          "address": "0x2843c269d2a64ecfa63548e8b3fc0fd23b7f70cb",
          "topics": [
            "0x49628fd1471006c1482da88028e9ce4dbb080b815c9b0344d39e5a8e6ec1419f",
            "0x4394212670673ffbecd010a304568c79dcde399a6f5d6f0ab1b8b97e0937bc5a",
            "0x0000000000000000000000002e2b1c42e38f5af81771e65d87729e57abd1337a",
            "0x0000000000000000000000000000000000000000000000000000000000000000"
          ],
          "data": "0x00000000000000000000000000000000000000000000000000000000000011200000000000000000000000000000000000000000000000000000000000000001000000000000000000000000000000000000000000000000000000000008e486000000000000000000000000000000000000000000000000000000000008e486",
          "blockHash": "0x86e0e06fd5f11b9a0a78037a0ff34b649a648557d4f113a3925ade8069b9ffd8",
          "blockNumber": "0xac7c8",
          "transactionHash": "0xe92362071b9e0c35c19a1805b9269e7b1593ae75e267f5159c40f6216fc87274",
          "transactionIndex": "0x1",
          "logIndex": "0x2",
          "removed": false
        }
      ],
      "logsBloom": "0x00000000000400000200000000000000000000000000000000000000000000000008000000000000000000010000000000000000000000000000020000000000000000000000000000000008000000040000000000000000000000000000000800000000020000000000000000000800002000000000000000000010000000000000000000004000000000000000800000000000000000000000000000000000001400000000000000400000000000000000000000000004000002000000000000001002000000100001000000000000000000000000000000000000000020000000000000010000000000000000800000000000080000000000000000000000",
      "type": "0x2",
      "transactionHash": "0xe92362071b9e0c35c19a1805b9269e7b1593ae75e267f5159c40f6216fc87274",
      "transactionIndex": "0x1",
      "blockHash": "0x86e0e06fd5f11b9a0a78037a0ff34b649a648557d4f113a3925ade8069b9ffd8",
      "blockNumber": "0xac7c8",
      "gasUsed": "0x12150f",
      "effectiveGasPrice": "0x5f5e100",
      "from": "0x660ad4b5a74130a4796b4d54bc6750ae93c86e6c",
      "to": "0x2843c269d2a64ecfa63548e8b3fc0fd23b7f70cb",
      "contractAddress": null,
      "gasUsedForL1": "0xec510",
      "l1BlockNumber": "0x14aba1c"
    }
  ],
  "libraries": [],
  "pending": [],
  "returns": {},
  "timestamp": 1737482515,
  "chain": 7887,
  "commit": "bd589bbc"
}