{
  "transactions": [
    {
      "hash": "0xcbcb17c35014200b2675827e9ddb2551b6770a974bedec3b083a5fee6fdc7f2b",
      "transactionType": "CREATE2",
      "contractName": "BridgedToken",
      "contractAddress": "0x8870b65e6f59563746290eb09dae40f976a6229e",
      "function": null,
      "arguments": [
        "18"
      ],
      "transaction": {
        "from": "0x660ad4b5a74130a4796b4d54bc6750ae93c86e6c",
        "to": "0x4e59b44847b379578588920ca78fbf26c0b4956c",
        "value": "0x0",
        "input": "0x2f0eb36b3287e72f9c028aba78d9daaf5aab0274becff940035d09f88f028eab60c0604052306080523480156200001557600080fd5b50604051620021d7380380620021d7833981016040819052620000389162000102565b620000426200004e565b60ff1660a0526200012e565b7ff0c57e16840df040f15088dc2f81fe391c3923bec73e23a9662efc9c229c6a00805468010000000000000000900460ff16156200009f5760405163f92ee8a960e01b815260040160405180910390fd5b80546001600160401b0390811614620000ff5780546001600160401b0319166001600160401b0390811782556040519081527fc7f505b2f371ae2175ee4913f4499e1f2633a7b5936321eed1cdaeb6115181d29060200160405180910390a15b50565b6000602082840312156200011557600080fd5b815160ff811681146200012757600080fd5b9392505050565b60805160a0516120756200016260003960006102e7015260008181610ea501528181610ece015261103301526120756000f3fe6080604052600436106101b75760003560e01c80637ecebe00116100ec578063ad3cb1cc1161008a578063d547741f11610064578063d547741f146104f3578063db0ed6a014610513578063dd62ed3e14610533578063f72c0d8b1461055357600080fd5b8063ad3cb1cc14610480578063d505accf146104b1578063d5391393146104d157600080fd5b806395d89b41116100c657806395d89b41146104165780639dc29fac1461042b578063a217fddf1461044b578063a9059cbb1461046057600080fd5b80637ecebe00146103ae57806384b0196e146103ce57806391d14854146103f657600080fd5b8063313ce5671161015957806340c10f191161013357806340c10f19146103465780634f1ef2861461036657806352d1902d1461037957806370a082311461038e57600080fd5b8063313ce567146102d35780633644e5151461031157806336568abe1461032657600080fd5b806318160ddd1161019557806318160ddd1461023357806323b872dd14610271578063248a9ca3146102915780632f2ff15d146102b157600080fd5b806301ffc9a7146101bc57806306fdde03146101f1578063095ea7b314610213575b600080fd5b3480156101c857600080fd5b506101dc6101d73660046119a0565b610587565b60405190151581526020015b60405180910390f35b3480156101fd57600080fd5b506102066105be565b6040516101e89190611a1a565b34801561021f57600080fd5b506101dc61022e366004611a49565b610667565b34801561023f57600080fd5b507f52c63247e1f47db19d5ce0460030c497f067ca4cebf71ba98eeadabe20bace02545b6040519081526020016101e8565b34801561027d57600080fd5b506101dc61028c366004611a73565b61067f565b34801561029d57600080fd5b506102636102ac366004611aaf565b6106a5565b3480156102bd57600080fd5b506102d16102cc366004611ac8565b6106c7565b005b3480156102df57600080fd5b5060405160ff7f00000000000000000000000000000000000000000000000000000000000000001681526020016101e8565b34801561031d57600080fd5b506102636106e9565b34801561033257600080fd5b506102d1610341366004611ac8565b6106f8565b34801561035257600080fd5b506102d1610361366004611a49565b610730565b6102d1610374366004611b80565b610752565b34801561038557600080fd5b50610263610771565b34801561039a57600080fd5b506102636103a9366004611be2565b61078e565b3480156103ba57600080fd5b506102636103c9366004611be2565b6107c1565b3480156103da57600080fd5b506103e36107cc565b6040516101e89796959493929190611bfd565b34801561040257600080fd5b506101dc610411366004611ac8565b61087d565b34801561042257600080fd5b506102066108b5565b34801561043757600080fd5b506102d1610446366004611a49565b6108f4565b34801561045757600080fd5b50610263600081565b34801561046c57600080fd5b506101dc61047b366004611a49565b610916565b34801561048c57600080fd5b50610206604051806040016040528060058152602001640352e302e360dc1b81525081565b3480156104bd57600080fd5b506102d16104cc366004611c96565b610924565b3480156104dd57600080fd5b5061026360008051602061200083398151915281565b3480156104ff57600080fd5b506102d161050e366004611ac8565b610a7d565b34801561051f57600080fd5b506102d161052e366004611d29565b610a99565b34801561053f57600080fd5b5061026361054e366004611dbf565b610c16565b34801561055f57600080fd5b506102637f189ab7a9244df0848122154315af71fe140f3db0fe014031783b0946b8c9d2e381565b60006001600160e01b03198216637965db0b60e01b14806105b857506301ffc9a760e01b6001600160e01b03198316145b92915050565b60606000600080516020611fa08339815191525b90508060030180546105e390611de9565b80601f016020809104026020016040519081016040528092919081815260200182805461060f90611de9565b801561065c5780601f106106315761010080835404028352916020019161065c565b820191906000526020600020905b81548152906001019060200180831161063f57829003601f168201915b505050505091505090565b600033610675818585610c60565b5060019392505050565b60003361068d858285610c6d565b610698858585610ccd565b60019150505b9392505050565b6000908152600080516020612020833981519152602052604090206001015490565b6106d0826106a5565b6106d981610d2c565b6106e38383610d39565b50505050565b60006106f3610dde565b905090565b6001600160a01b03811633146107215760405163334bd91960e11b815260040160405180910390fd5b61072b8282610de8565b505050565b60008051602061200083398151915261074881610d2c565b61072b8383610e64565b61075a610e9a565b61076382610f41565b61076d8282610f6b565b5050565b600061077b611028565b50600080516020611fe083398151915290565b600080600080516020611fa08339815191525b6001600160a01b0390931660009081526020939093525050604090205490565b60006105b882611071565b60006060808280808381600080516020611fc083398151915280549091501580156107f957506001810154155b6108425760405162461bcd60e51b81526020600482015260156024820152741152540dcc4c8e88155b9a5b9a5d1a585b1a5e9959605a1b60448201526064015b60405180910390fd5b61084a61109a565b6108526110d9565b60408051600080825260208201909252600f60f81b9c939b5091995046985030975095509350915050565b6000918252600080516020612020833981519152602090815260408084206001600160a01b0393909316845291905290205460ff1690565b7f52c63247e1f47db19d5ce0460030c497f067ca4cebf71ba98eeadabe20bace048054606091600080516020611fa0833981519152916105e390611de9565b60008051602061200083398151915261090c81610d2c565b61072b83836110f1565b600033610675818585610ccd565b834211156109485760405163313c898160e11b815260048101859052602401610839565b60007f6e71edae12b1b97f4d1f60370fef10105fa2faae0126114a169c64845d6126c98888886109b48c6001600160a01b031660009081527f5ab42ced628888259c08ac98db1eb0cf702fc1501344311d8b100cd1bfe4bb006020526040902080546001810190915590565b6040805160208101969096526001600160a01b0394851690860152929091166060840152608083015260a082015260c0810186905260e0016040516020818303038152906040528051906020012090506000610a0f82611127565b90506000610a1f82878787611154565b9050896001600160a01b0316816001600160a01b031614610a66576040516325c0072360e11b81526001600160a01b0380831660048301528b166024820152604401610839565b610a718a8a8a610c60565b50505050505050505050565b610a86826106a5565b610a8f81610d2c565b6106e38383610de8565b7ff0c57e16840df040f15088dc2f81fe391c3923bec73e23a9662efc9c229c6a008054600160401b810460ff16159067ffffffffffffffff16600081158015610adf5750825b905060008267ffffffffffffffff166001148015610afc5750303b155b905081158015610b0a575080155b15610b285760405163f92ee8a960e01b815260040160405180910390fd5b845467ffffffffffffffff191660011785558315610b5257845460ff60401b1916600160401b1785555b610b5c8a8a611182565b610b658a611194565b610b6d6111bf565b610b756111bf565b610b80600089610d39565b50610b9960008051602061200083398151915288610d39565b50610bc47f189ab7a9244df0848122154315af71fe140f3db0fe014031783b0946b8c9d2e387610d39565b508315610a7157845460ff60401b19168555604051600181527fc7f505b2f371ae2175ee4913f4499e1f2633a7b5936321eed1cdaeb6115181d29060200160405180910390a150505050505050505050565b6001600160a01b0391821660009081527f52c63247e1f47db19d5ce0460030c497f067ca4cebf71ba98eeadabe20bace016020908152604080832093909416825291909152205490565b61072b83838360016111c7565b6000610c798484610c16565b905060001981146106e35781811015610cbe57604051637dc7a0d960e11b81526001600160a01b03841660048201526024810182905260448101839052606401610839565b6106e3848484840360006111c7565b6001600160a01b038316610cf757604051634b637e8f60e11b815260006004820152602401610839565b6001600160a01b038216610d215760405163ec442f0560e01b815260006004820152602401610839565b61072b8383836112af565b610d3681336113ed565b50565b6000600080516020612020833981519152610d54848461087d565b610dd4576000848152602082815260408083206001600160a01b03871684529091529020805460ff19166001179055610d8a3390565b6001600160a01b0316836001600160a01b0316857f2f8788117e7eff1d82e926ec794901d17c78024a50270940304540a733656f0d60405160405180910390a460019150506105b8565b60009150506105b8565b60006106f3611426565b6000600080516020612020833981519152610e03848461087d565b15610dd4576000848152602082815260408083206001600160a01b0387168085529252808320805460ff1916905551339287917ff6391f5c32d9c69d2a47ea670b442974b53935d1edc7fd64eb21e047a839171b9190a460019150506105b8565b6001600160a01b038216610e8e5760405163ec442f0560e01b815260006004820152602401610839565b61076d600083836112af565b306001600160a01b037f0000000000000000000000000000000000000000000000000000000000000000161480610f2157507f00000000000000000000000000000000000000000000000000000000000000006001600160a01b0316610f15600080516020611fe0833981519152546001600160a01b031690565b6001600160a01b031614155b15610f3f5760405163703e46dd60e11b815260040160405180910390fd5b565b7f189ab7a9244df0848122154315af71fe140f3db0fe014031783b0946b8c9d2e361076d81610d2c565b816001600160a01b03166352d1902d6040518163ffffffff1660e01b8152600401602060405180830381865afa925050508015610fc5575060408051601f3d908101601f19168201909252610fc291810190611e23565b60015b610fed57604051634c9c8ce360e01b81526001600160a01b0383166004820152602401610839565b600080516020611fe0833981519152811461101e57604051632a87526960e21b815260048101829052602401610839565b61072b838361149a565b306001600160a01b037f00000000000000000000000000000000000000000000000000000000000000001614610f3f5760405163703e46dd60e11b815260040160405180910390fd5b6000807f5ab42ced628888259c08ac98db1eb0cf702fc1501344311d8b100cd1bfe4bb006107a1565b7fa16a46d94261c7517cc8ff89f61c0ce93598e3c849801011dee649a6a557d1028054606091600080516020611fc0833981519152916105e390611de9565b60606000600080516020611fc08339815191526105d2565b6001600160a01b03821661111b57604051634b637e8f60e11b815260006004820152602401610839565b61076d826000836112af565b60006105b8611134610dde565b8360405161190160f01b8152600281019290925260228201526042902090565b600080600080611166888888886114f0565b92509250925061117682826115bf565b50909695505050505050565b61118a611678565b61076d82826116c1565b61119c611678565b610d3681604051806040016040528060018152602001603160f81b815250611712565b610f3f611678565b600080516020611fa08339815191526001600160a01b0385166112005760405163e602df0560e01b815260006004820152602401610839565b6001600160a01b03841661122a57604051634a1406b160e11b815260006004820152602401610839565b6001600160a01b038086166000908152600183016020908152604080832093881683529290522083905581156112a857836001600160a01b0316856001600160a01b03167f8c5be1e5ebec7d5bd14f71427d1e84f3dd0314c0f7b2291e5b200ac8c7c3b9258560405161129f91815260200190565b60405180910390a35b5050505050565b600080516020611fa08339815191526001600160a01b0384166112eb57818160020160008282546112e09190611e3c565b9091555061135d9050565b6001600160a01b0384166000908152602082905260409020548281101561133e5760405163391434e360e21b81526001600160a01b03861660048201526024810182905260448101849052606401610839565b6001600160a01b03851660009081526020839052604090209083900390555b6001600160a01b03831661137b57600281018054839003905561139a565b6001600160a01b03831660009081526020829052604090208054830190555b826001600160a01b0316846001600160a01b03167fddf252ad1be2c89b69c2b068fc378daa952ba7f163c4a11628f55a4df523b3ef846040516113df91815260200190565b60405180910390a350505050565b6113f7828261087d565b61076d5760405163e2517d3f60e01b81526001600160a01b038216600482015260248101839052604401610839565b60007f8b73c3c69bb8fe3d512ecc4cf759cc79239f7b179b0ffacaa9a75d522b39400f611451611773565b6114596117dd565b60408051602081019490945283019190915260608201524660808201523060a082015260c00160405160208183030381529060405280519060200120905090565b6114a382611821565b6040516001600160a01b038316907fbc7cd75a20ee27fd9adebab32041f755214dbc6bffa90cc0225b39da2e5c2d3b90600090a28051156114e85761072b8282611886565b61076d6118fc565b600080807f7fffffffffffffffffffffffffffffff5d576e7357a4501ddfe92f46681b20a084111561152b57506000915060039050826115b5565b604080516000808252602082018084528a905260ff891692820192909252606081018790526080810186905260019060a0016020604051602081039080840390855afa15801561157f573d6000803e3d6000fd5b5050604051601f1901519150506001600160a01b0381166115ab575060009250600191508290506115b5565b9250600091508190505b9450945094915050565b60008260038111156115d3576115d3611e5d565b036115dc575050565b60018260038111156115f0576115f0611e5d565b0361160e5760405163f645eedf60e01b815260040160405180910390fd5b600282600381111561162257611622611e5d565b036116435760405163fce698f760e01b815260048101829052602401610839565b600382600381111561165757611657611e5d565b0361076d576040516335e2f38360e21b815260048101829052602401610839565b7ff0c57e16840df040f15088dc2f81fe391c3923bec73e23a9662efc9c229c6a0054600160401b900460ff16610f3f57604051631afcd79f60e31b815260040160405180910390fd5b6116c9611678565b600080516020611fa08339815191527f52c63247e1f47db19d5ce0460030c497f067ca4cebf71ba98eeadabe20bace036117038482611ec3565b50600481016106e38382611ec3565b61171a611678565b600080516020611fc08339815191527fa16a46d94261c7517cc8ff89f61c0ce93598e3c849801011dee649a6a557d1026117548482611ec3565b50600381016117638382611ec3565b5060008082556001909101555050565b6000600080516020611fc08339815191528161178d61109a565b8051909150156117a557805160209091012092915050565b815480156117b4579392505050565b7fc5d2460186f7233c927e7db2dcc703c0e500b653ca82273b7bfad8045d85a470935050505090565b6000600080516020611fc0833981519152816117f76110d9565b80519091501561180f57805160209091012092915050565b600182015480156117b4579392505050565b806001600160a01b03163b60000361185757604051634c9c8ce360e01b81526001600160a01b0382166004820152602401610839565b600080516020611fe083398151915280546001600160a01b0319166001600160a01b0392909216919091179055565b6060600080846001600160a01b0316846040516118a39190611f83565b600060405180830381855af49150503d80600081146118de576040519150601f19603f3d011682016040523d82523d6000602084013e6118e3565b606091505b50915091506118f385838361191b565b95945050505050565b3415610f3f5760405163b398979f60e01b815260040160405180910390fd5b6060826119305761192b82611977565b61069e565b815115801561194757506001600160a01b0384163b155b1561197057604051639996b31560e01b81526001600160a01b0385166004820152602401610839565b508061069e565b8051156119875780518082602001fd5b604051630a12f52160e11b815260040160405180910390fd5b6000602082840312156119b257600080fd5b81356001600160e01b03198116811461069e57600080fd5b60005b838110156119e55781810151838201526020016119cd565b50506000910152565b60008151808452611a068160208601602086016119ca565b601f01601f19169290920160200192915050565b60208152600061069e60208301846119ee565b80356001600160a01b0381168114611a4457600080fd5b919050565b60008060408385031215611a5c57600080fd5b611a6583611a2d565b946020939093013593505050565b600080600060608486031215611a8857600080fd5b611a9184611a2d565b9250611a9f60208501611a2d565b9150604084013590509250925092565b600060208284031215611ac157600080fd5b5035919050565b60008060408385031215611adb57600080fd5b82359150611aeb60208401611a2d565b90509250929050565b634e487b7160e01b600052604160045260246000fd5b600067ffffffffffffffff80841115611b2557611b25611af4565b604051601f8501601f19908116603f01168101908282118183101715611b4d57611b4d611af4565b81604052809350858152868686011115611b6657600080fd5b858560208301376000602087830101525050509392505050565b60008060408385031215611b9357600080fd5b611b9c83611a2d565b9150602083013567ffffffffffffffff811115611bb857600080fd5b8301601f81018513611bc957600080fd5b611bd885823560208401611b0a565b9150509250929050565b600060208284031215611bf457600080fd5b61069e82611a2d565b60ff60f81b881681526000602060e06020840152611c1e60e084018a6119ee565b8381036040850152611c30818a6119ee565b606085018990526001600160a01b038816608086015260a0850187905284810360c08601528551808252602080880193509091019060005b81811015611c8457835183529284019291840191600101611c68565b50909c9b505050505050505050505050565b600080600080600080600060e0888a031215611cb157600080fd5b611cba88611a2d565b9650611cc860208901611a2d565b95506040880135945060608801359350608088013560ff81168114611cec57600080fd5b9699959850939692959460a0840135945060c09093013592915050565b600082601f830112611d1a57600080fd5b61069e83833560208501611b0a565b600080600080600060a08688031215611d4157600080fd5b853567ffffffffffffffff80821115611d5957600080fd5b611d6589838a01611d09565b96506020880135915080821115611d7b57600080fd5b50611d8888828901611d09565b945050611d9760408701611a2d565b9250611da560608701611a2d565b9150611db360808701611a2d565b90509295509295909350565b60008060408385031215611dd257600080fd5b611ddb83611a2d565b9150611aeb60208401611a2d565b600181811c90821680611dfd57607f821691505b602082108103611e1d57634e487b7160e01b600052602260045260246000fd5b50919050565b600060208284031215611e3557600080fd5b5051919050565b808201808211156105b857634e487b7160e01b600052601160045260246000fd5b634e487b7160e01b600052602160045260246000fd5b601f82111561072b576000816000526020600020601f850160051c81016020861015611e9c5750805b601f850160051c820191505b81811015611ebb57828155600101611ea8565b505050505050565b815167ffffffffffffffff811115611edd57611edd611af4565b611ef181611eeb8454611de9565b84611e73565b602080601f831160018114611f265760008415611f0e5750858301515b600019600386901b1c1916600185901b178555611ebb565b600085815260208120601f198616915b82811015611f5557888601518255948401946001909101908401611f36565b5085821015611f735787850151600019600388901b60f8161c191681555b5050505050600190811b01905550565b60008251611f958184602087016119ca565b919091019291505056fe52c63247e1f47db19d5ce0460030c497f067ca4cebf71ba98eeadabe20bace00a16a46d94261c7517cc8ff89f61c0ce93598e3c849801011dee649a6a557d100360894a13ba1a3210667c828492db98dca3e2076cc3735a920a3ca505d382bbc9f2df0fed2c77648de5860a4cc508cd0818c85b8b8a1ab4ceeef8d981c8956a602dd7bc7dec4dceedda775e58dd541e08a116c6c53815c0bd028192f7b626800a26469706673582212209319d7290f83d74acf38e9d44cc34fbb4b71a00fa0065da7b961fd37bb8b510e64736f6c634300081800330000000000000000000000000000000000000000000000000000000000000012",
        "nonce": "0x5c61",
        "chainId": "0x1ecf"
      },
      "additionalContracts": [],
      "isFixedGasLimit": false
    },
    {
      "hash": "0x8d5b09798d100824b508a7840995c51fdddf8da69b184bab0f2053387a23abb7",
      "transactionType": "CREATE2",
      "contractName": "UUPSProxy",
      "contractAddress": "0xaaa0e01e5841a58069d5a68162800fe92d0d0ef7",
      "function": null,
      "arguments": [
        "0x8870B65E6f59563746290eb09DaE40f976a6229e",
        "0x"
      ],
      "transaction": {
        "from": "0x660ad4b5a74130a4796b4d54bc6750ae93c86e6c",
        "to": "0x4e59b44847b379578588920ca78fbf26c0b4956c",
        "value": "0x0",
        "input": "0xa1ff4a9a87ab9cef9855dc7914ddd7696764c5d4afe00e10fab3c98b8e726322608060405234801561001057600080fd5b506040516104f23803806104f283398101604081905261002f916102ef565b818161003d82826000610046565b5050505061040c565b61004f83610072565b60008251118061005c5750805b1561006d5761006b83836100b2565b505b505050565b61007b816100de565b6040516001600160a01b038216907fbc7cd75a20ee27fd9adebab32041f755214dbc6bffa90cc0225b39da2e5c2d3b90600090a250565b60606100d783836040518060600160405280602781526020016104cb60279139610191565b9392505050565b6001600160a01b0381163b6101505760405162461bcd60e51b815260206004820152602d60248201527f455243313936373a206e657720696d706c656d656e746174696f6e206973206e60448201526c1bdd08184818dbdb9d1c9858dd609a1b60648201526084015b60405180910390fd5b7f360894a13ba1a3210667c828492db98dca3e2076cc3735a920a3ca505d382bbc80546001600160a01b0319166001600160a01b0392909216919091179055565b6060600080856001600160a01b0316856040516101ae91906103bd565b600060405180830381855af49150503d80600081146101e9576040519150601f19603f3d011682016040523d82523d6000602084013e6101ee565b606091505b5090925090506102008683838761020a565b9695505050505050565b60608315610279578251600003610272576001600160a01b0385163b6102725760405162461bcd60e51b815260206004820152601d60248201527f416464726573733a2063616c6c20746f206e6f6e2d636f6e74726163740000006044820152606401610147565b5081610283565b610283838361028b565b949350505050565b81511561029b5781518083602001fd5b8060405162461bcd60e51b815260040161014791906103d9565b634e487b7160e01b600052604160045260246000fd5b60005b838110156102e65781810151838201526020016102ce565b50506000910152565b6000806040838503121561030257600080fd5b82516001600160a01b038116811461031957600080fd5b60208401519092506001600160401b038082111561033657600080fd5b818501915085601f83011261034a57600080fd5b81518181111561035c5761035c6102b5565b604051601f8201601f19908116603f01168101908382118183101715610384576103846102b5565b8160405282815288602084870101111561039d57600080fd5b6103ae8360208301602088016102cb565b80955050505050509250929050565b600082516103cf8184602087016102cb565b9190910192915050565b60208152600082518060208401526103f88160408501602087016102cb565b601f01601f19169190910160400192915050565b60b18061041a6000396000f3fe608060405236601057600e6013565b005b600e5b601f601b6021565b6058565b565b600060537f360894a13ba1a3210667c828492db98dca3e2076cc3735a920a3ca505d382bbc546001600160a01b031690565b905090565b3660008037600080366000845af43d6000803e8080156076573d6000f35b3d6000fdfea2646970667358221220e4729a9151ae035d045957efd7b00de729dcfc8e70be2ed0f1599f5e5c3a2fa264736f6c63430008180033416464726573733a206c6f772d6c6576656c2064656c65676174652063616c6c206661696c65640000000000000000000000008870b65e6f59563746290eb09dae40f976a6229e00000000000000000000000000000000000000000000000000000000000000400000000000000000000000000000000000000000000000000000000000000000",
        "nonce": "0x5c62",
        "chainId": "0x1ecf"
      },
      "additionalContracts": [],
      "isFixedGasLimit": false
    },
    {
      "hash": "0x479e0c77a215edf5c9203568dc596b02ba7e7dd1f1dfb3ca62cb855e265784ec",
      "transactionType": "CALL",
      "contractName": null,
      "contractAddress": "0x2843c269d2a64ecfa63548e8b3fc0fd23b7f70cb",
      "function": "handleOps((address,uint256,bytes,bytes,uint256,uint256,uint256,uint256,uint256,bytes,bytes)[],address)",
      "arguments": [
        "[(0x2e2B1c42E38f5af81771e65D87729E57ABD1337a, 2731, 0x, 0xb61d27f60000000000000000000000002e2b1c42e38f5af81771e65d87729e57abd1337a0000000000000000000000000000000000000000000000000000000000000000000000000000000000000000000000000000000000000000000000000000006000000000000000000000000000000000000000000000000000000000000000c45f9d2301000000000000000000000000000000000000000000000000000000000000004000000000000000000000000000000000000000000000000000000000000000800000000000000000000000000000000000000000000000000000000000000001000000000000000000000000aaa0e01e5841a58069d5a68162800fe92d0d0ef70000000000000000000000000000000000000000000000000000000000000001000000000000000000000000000000000000000000000000000000000000000100000000000000000000000000000000000000000000000000000000, 4000000, 210000, 21000, 1, 1000000000, 0x0000000000000000000000000000000000000000, 0xcbd4db6473806e70d4f1f8115a179bb00c2ce3f3d2c7c9667cd0fed588454b9733937a3990f4b28c4fa18dc21692179576c8727caaa42497c25f886d52faf8b61bdd2ddfef6672b057f8a4db163acbab401440db8f6bc2424dc7907095e0c5333520259b3d3f7fd95d7cfadd21e66a9b9d20c0770033df04e6b7294bba490a75871c)]",
        "0x660ad4B5A74130a4796B4d54BC6750Ae93C86e6c"
      ],
      "transaction": {
        "from": "0x660ad4b5a74130a4796b4d54bc6750ae93c86e6c",
        "to": "0x2843c269d2a64ecfa63548e8b3fc0fd23b7f70cb",
        "value": "0x0",
        "input": "0x1fad948c0000000000000000000000000000000000000000000000000000000000000040000000000000000000000000660ad4b5a74130a4796b4d54bc6750ae93c86e6c000000000000000000000000000000000000000000000000000000000000000100000000000000000000000000000000000000000000000000000000000000200000000000000000000000002e2b1c42e38f5af81771e65d87729e57abd1337a0000000000000000000000000000000000000000000000000000000000000aab0000000000000000000000000000000000000000000000000000000000000160000000000000000000000000000000000000000000000000000000000000018000000000000000000000000000000000000000000000000000000000003d0900000000000000000000000000000000000000000000000000000000000003345000000000000000000000000000000000000000000000000000000000000052080000000000000000000000000000000000000000000000000000000000000001000000000000000000000000000000000000000000000000000000003b9aca000000000000000000000000000000000000000000000000000000000000000320000000000000000000000000000000000000000000000000000000000000036000000000000000000000000000000000000000000000000000000000000000000000000000000000000000000000000000000000000000000000000000000164b61d27f60000000000000000000000002e2b1c42e38f5af81771e65d87729e57abd1337a0000000000000000000000000000000000000000000000000000000000000000000000000000000000000000000000000000000000000000000000000000006000000000000000000000000000000000000000000000000000000000000000c45f9d2301000000000000000000000000000000000000000000000000000000000000004000000000000000000000000000000000000000000000000000000000000000800000000000000000000000000000000000000000000000000000000000000001000000000000000000000000aaa0e01e5841a58069d5a68162800fe92d0d0ef7000000000000000000000000000000000000000000000000000000000000000100000000000000000000000000000000000000000000000000000000000000010000000000000000000000000000000000000000000000000000000000000000000000000000000000000000000000000000000000000000000000000000000000000000000000000000000000000000000000000000001400000000000000000000000000000000000000000000000000000000000000000000000000000000000000000000000000000000000000000000000000000082cbd4db6473806e70d4f1f8115a179bb00c2ce3f3d2c7c9667cd0fed588454b9733937a3990f4b28c4fa18dc21692179576c8727caaa42497c25f886d52faf8b61bdd2ddfef6672b057f8a4db163acbab401440db8f6bc2424dc7907095e0c5333520259b3d3f7fd95d7cfadd21e66a9b9d20c0770033df04e6b7294bba490a75871c000000000000000000000000000000000000000000000000000000000000",
        "nonce": "0x5c63",
        "chainId": "0x1ecf"
      },
      "additionalContracts": [],
      "isFixedGasLimit": false
    },
    {
      "hash": "0x726ce8ad28f9c720aac3e21766aacdde24e7a17663359d94b25720beef71a015",
      "transactionType": "CALL",
      "contractName": null,
      "contractAddress": "0x2843c269d2a64ecfa63548e8b3fc0fd23b7f70cb",
      "function": "handleOps((address,uint256,bytes,bytes,uint256,uint256,uint256,uint256,uint256,bytes,bytes)[],address)",
      "arguments": [
        "[(0x2e2B1c42E38f5af81771e65D87729E57ABD1337a, 2732, 0x, 0xb61d27f6000000000000000000000000aaa0e01e5841a58069d5a68162800fe92d0d0ef7000000000000000000000000000000000000000000000000000000000000000000000000000000000000000000000000000000000000000000000000000000600000000000000000000000000000000000000000000000000000000000000124db0ed6a000000000000000000000000000000000000000000000000000000000000000a000000000000000000000000000000000000000000000000000000000000000e00000000000000000000000002e2b1c42e38f5af81771e65d87729e57abd1337a0000000000000000000000002e2b1c42e38f5af81771e65d87729e57abd1337a0000000000000000000000002e2b1c42e38f5af81771e65d87729e57abd1337a000000000000000000000000000000000000000000000000000000000000000941617665204141564500000000000000000000000000000000000000000000000000000000000000000000000000000000000000000000000000000000000005614141564500000000000000000000000000000000000000000000000000000000000000000000000000000000000000000000000000000000000000, 4000000, 210000, 21000, 1, 1000000000, 0x0000000000000000000000000000000000000000, 0xcca68dff528755c381b8db6d7425515517a640ccb02f64303f623c89446a35c56174721bbdfc145e94c021a58398a900d999b4d4a355677fbcf9c7ed05b8b2e31cd788f0e77f941eb1fc62a159bb293763252bec19e8d3c1cbbbecc6723d057f6673431bae0bc8cd0e3476dba82936f9e857f96e148702bc72aa1291d7e7ba71921c)]",
        "0x660ad4B5A74130a4796B4d54BC6750Ae93C86e6c"
      ],
      "transaction": {
        "from": "0x660ad4b5a74130a4796b4d54bc6750ae93c86e6c",
        "to": "0x2843c269d2a64ecfa63548e8b3fc0fd23b7f70cb",
        "value": "0x0",
        "input": "0x1fad948c0000000000000000000000000000000000000000000000000000000000000040000000000000000000000000660ad4b5a74130a4796b4d54bc6750ae93c86e6c000000000000000000000000000000000000000000000000000000000000000100000000000000000000000000000000000000000000000000000000000000200000000000000000000000002e2b1c42e38f5af81771e65d87729e57abd1337a0000000000000000000000000000000000000000000000000000000000000aac0000000000000000000000000000000000000000000000000000000000000160000000000000000000000000000000000000000000000000000000000000018000000000000000000000000000000000000000000000000000000000003d0900000000000000000000000000000000000000000000000000000000000003345000000000000000000000000000000000000000000000000000000000000052080000000000000000000000000000000000000000000000000000000000000001000000000000000000000000000000000000000000000000000000003b9aca00000000000000000000000000000000000000000000000000000000000000038000000000000000000000000000000000000000000000000000000000000003c0000000000000000000000000000000000000000000000000000000000000000000000000000000000000000000000000000000000000000000000000000001c4b61d27f6000000000000000000000000aaa0e01e5841a58069d5a68162800fe92d0d0ef7000000000000000000000000000000000000000000000000000000000000000000000000000000000000000000000000000000000000000000000000000000600000000000000000000000000000000000000000000000000000000000000124db0ed6a000000000000000000000000000000000000000000000000000000000000000a000000000000000000000000000000000000000000000000000000000000000e00000000000000000000000002e2b1c42e38f5af81771e65d87729e57abd1337a0000000000000000000000002e2b1c42e38f5af81771e65d87729e57abd1337a0000000000000000000000002e2b1c42e38f5af81771e65d87729e57abd1337a00000000000000000000000000000000000000000000000000000000000000094161766520414156450000000000000000000000000000000000000000000000000000000000000000000000000000000000000000000000000000000000000561414156450000000000000000000000000000000000000000000000000000000000000000000000000000000000000000000000000000000000000000000000000000000000000000000000000000000000000000000000000000000000000000000000000000000000000000000000000000000000001400000000000000000000000000000000000000000000000000000000000000000000000000000000000000000000000000000000000000000000000000000082cca68dff528755c381b8db6d7425515517a640ccb02f64303f623c89446a35c56174721bbdfc145e94c021a58398a900d999b4d4a355677fbcf9c7ed05b8b2e31cd788f0e77f941eb1fc62a159bb293763252bec19e8d3c1cbbbecc6723d057f6673431bae0bc8cd0e3476dba82936f9e857f96e148702bc72aa1291d7e7ba71921c000000000000000000000000000000000000000000000000000000000000",
        "nonce": "0x5c64",
        "chainId": "0x1ecf"
      },
      "additionalContracts": [],
      "isFixedGasLimit": false
    }
  ],
  "receipts": [
    {
      "status": "0x1",
      "cumulativeGasUsed": "0x474f8c",
      "logs": [
        {
          "address": "0x8870b65e6f59563746290eb09dae40f976a6229e",
          "topics": [
            "0xc7f505b2f371ae2175ee4913f4499e1f2633a7b5936321eed1cdaeb6115181d2"
          ],
          "data": "0x000000000000000000000000000000000000000000000000ffffffffffffffff",
          "blockHash": "0xab17ceab8bb36d7c13876ecd3f836c436fbd6a877872400cb9468bea2ee276ec",
          "blockNumber": "0x3c6dd",
          "transactionHash": "0xcbcb17c35014200b2675827e9ddb2551b6770a974bedec3b083a5fee6fdc7f2b",
          "transactionIndex": "0x1",
          "logIndex": "0x0",
          "removed": false
        }
      ],
      "logsBloom": "0x00000000000000000000000000000000000000000000000000000000000000000000000000000000000000000000000000000000000000000000000000000000000000000000000000000000000000000000000000000000000000000000000000000000000000000000000000000000000000000000000000000000000000000000000000000000000800000000000000000000000080000000000000000000000000000000000000000000000000000000001200000000000000000000000000000000000000000000000000000000000000000004000000000000000000000000000000000000000000000000000000002000000000000000000000000000",
      "type": "0x2",
      "transactionHash": "0xcbcb17c35014200b2675827e9ddb2551b6770a974bedec3b083a5fee6fdc7f2b",
      "transactionIndex": "0x1",
      "blockHash": "0xab17ceab8bb36d7c13876ecd3f836c436fbd6a877872400cb9468bea2ee276ec",
      "blockNumber": "0x3c6dd",
      "gasUsed": "0x474f8c",
      "effectiveGasPrice": "0x5f5e100",
      "from": "0x660ad4b5a74130a4796b4d54bc6750ae93c86e6c",
      "to": "0x4e59b44847b379578588920ca78fbf26c0b4956c",
      "contractAddress": null,
      "gasUsedForL1": "0x2aa3ba",
      "l1BlockNumber": "0x14205f7"
    },
    {
      "status": "0x1",
      "cumulativeGasUsed": "0xbf7dd",
      "logs": [
        {
          "address": "0xaaa0e01e5841a58069d5a68162800fe92d0d0ef7",
          "topics": [
            "0xbc7cd75a20ee27fd9adebab32041f755214dbc6bffa90cc0225b39da2e5c2d3b",
            "0x0000000000000000000000008870b65e6f59563746290eb09dae40f976a6229e"
          ],
          "data": "0x",
          "blockHash": "0x51a1c18b07e440bb1ec96158775c45a29db9552d601a7f9b7b23049af37df1b7",
          "blockNumber": "0x3c6de",
          "transactionHash": "0x8d5b09798d100824b508a7840995c51fdddf8da69b184bab0f2053387a23abb7",
          "transactionIndex": "0x1",
          "logIndex": "0x0",
          "removed": false
        }
      ],
      "logsBloom": "0x08000040000000000000000000000000400000000000000000000000000000000000000000000000000000000000000000000000000000000000000000000000000000000000000000000000000003000000000000000000000000000000000000000000000000000000000000000000000000000000000000000000000000000000000000000000000000000000000000000000000000000000000000000000000000000000000000000000000000000000000000000000000000000000000000000020000000000000000000000000000200000000000000000000000000000000000000000000000000000000080000000000040000000000000000000000",
      "type": "0x2",
      "transactionHash": "0x8d5b09798d100824b508a7840995c51fdddf8da69b184bab0f2053387a23abb7",
      "transactionIndex": "0x1",
      "blockHash": "0x51a1c18b07e440bb1ec96158775c45a29db9552d601a7f9b7b23049af37df1b7",
      "blockNumber": "0x3c6de",
      "gasUsed": "0xbf7dd",
      "effectiveGasPrice": "0x5f5e100",
      "from": "0x660ad4b5a74130a4796b4d54bc6750ae93c86e6c",
      "to": "0x4e59b44847b379578588920ca78fbf26c0b4956c",
      "contractAddress": null,
      "gasUsedForL1": "0x9e1e7",
      "l1BlockNumber": "0x14205f7"
    },
    {
      "status": "0x1",
      "cumulativeGasUsed": "0x734c7",
      "logs": [
        {
          "address": "0x2843c269d2a64ecfa63548e8b3fc0fd23b7f70cb",
          "topics": [
            "0xbb47ee3e183a558b1a2ff0874b079f3fc5478b7454eacf2bfc5af2ff5878f972"
          ],
          "data": "0x",
          "blockHash": "0x680e7a70a500044c165418c8463050c29af9013e2eba7ddab8518c0c3ad8a90a",
          "blockNumber": "0x3c6df",
          "transactionHash": "0x479e0c77a215edf5c9203568dc596b02ba7e7dd1f1dfb3ca62cb855e265784ec",
          "transactionIndex": "0x1",
          "logIndex": "0x0",
          "removed": false
        },
        {
          "address": "0x2843c269d2a64ecfa63548e8b3fc0fd23b7f70cb",
          "topics": [
            "0x49628fd1471006c1482da88028e9ce4dbb080b815c9b0344d39e5a8e6ec1419f",
            "0x05f51149475a2536fd5005d7f1baa60e18d4f116d287f8bd647b7be26bdb714d",
            "0x0000000000000000000000002e2b1c42e38f5af81771e65d87729e57abd1337a",
            "0x0000000000000000000000000000000000000000000000000000000000000000"
          ],
          "data": "0x0000000000000000000000000000000000000000000000000000000000000aab000000000000000000000000000000000000000000000000000000000000000100000000000000000000000000000000000000000000000000000000000858830000000000000000000000000000000000000000000000000000000000085883",
          "blockHash": "0x680e7a70a500044c165418c8463050c29af9013e2eba7ddab8518c0c3ad8a90a",
          "blockNumber": "0x3c6df",
          "transactionHash": "0x479e0c77a215edf5c9203568dc596b02ba7e7dd1f1dfb3ca62cb855e265784ec",
          "transactionIndex": "0x1",
          "logIndex": "0x1",
          "removed": false
        }
      ],
      "logsBloom": "0x00000000000000000000000000000000000000000000000000000000000000040008000008000000000000010000000000000000000000000000020000000000000000000000000000000000000000000000000000000000000000000000000800000000020000000000000000000800002000000000000000000000000000000000000000000000000000000000800000000000000000000000004000000000000400000000000000400000000000000000000000000000000002000000000000000000000000100001000000000000000000000000000000000000000020000000000000010000000000000000000000000000000000000000000000000000",
      "type": "0x2",
      "transactionHash": "0x479e0c77a215edf5c9203568dc596b02ba7e7dd1f1dfb3ca62cb855e265784ec",
      "transactionIndex": "0x1",
      "blockHash": "0x680e7a70a500044c165418c8463050c29af9013e2eba7ddab8518c0c3ad8a90a",
      "blockNumber": "0x3c6df",
      "gasUsed": "0x734c7",
      "effectiveGasPrice": "0x5f5e100",
      "from": "0x660ad4b5a74130a4796b4d54bc6750ae93c86e6c",
      "to": "0x2843c269d2a64ecfa63548e8b3fc0fd23b7f70cb",
      "contractAddress": null,
      "gasUsedForL1": "0x47d06",
      "l1BlockNumber": "0x14205f8"
    },
    {
      "status": "0x1",
      "cumulativeGasUsed": "0xa172c",
      "logs": [
        {
          "address": "0x2843c269d2a64ecfa63548e8b3fc0fd23b7f70cb",
          "topics": [
            "0xbb47ee3e183a558b1a2ff0874b079f3fc5478b7454eacf2bfc5af2ff5878f972"
          ],
          "data": "0x",
          "blockHash": "0x0115dfc2de12781463ce97557f62987d868322134dc734ba168eedc61ddb6a17",
          "blockNumber": "0x3c6e0",
          "transactionHash": "0x726ce8ad28f9c720aac3e21766aacdde24e7a17663359d94b25720beef71a015",
          "transactionIndex": "0x1",
          "logIndex": "0x0",
          "removed": false
        },
        {
          "address": "0xaaa0e01e5841a58069d5a68162800fe92d0d0ef7",
          "topics": [
            "0x2f8788117e7eff1d82e926ec794901d17c78024a50270940304540a733656f0d",
            "0x0000000000000000000000000000000000000000000000000000000000000000",
            "0x0000000000000000000000002e2b1c42e38f5af81771e65d87729e57abd1337a",
            "0x0000000000000000000000002e2b1c42e38f5af81771e65d87729e57abd1337a"
          ],
          "data": "0x",
          "blockHash": "0x0115dfc2de12781463ce97557f62987d868322134dc734ba168eedc61ddb6a17",
          "blockNumber": "0x3c6e0",
          "transactionHash": "0x726ce8ad28f9c720aac3e21766aacdde24e7a17663359d94b25720beef71a015",
          "transactionIndex": "0x1",
          "logIndex": "0x1",
          "removed": false
        },
        {
          "address": "0xaaa0e01e5841a58069d5a68162800fe92d0d0ef7",
          "topics": [
            "0x2f8788117e7eff1d82e926ec794901d17c78024a50270940304540a733656f0d",
            "0x9f2df0fed2c77648de5860a4cc508cd0818c85b8b8a1ab4ceeef8d981c8956a6",
            "0x0000000000000000000000002e2b1c42e38f5af81771e65d87729e57abd1337a",
            "0x0000000000000000000000002e2b1c42e38f5af81771e65d87729e57abd1337a"
          ],
          "data": "0x",
          "blockHash": "0x0115dfc2de12781463ce97557f62987d868322134dc734ba168eedc61ddb6a17",
          "blockNumber": "0x3c6e0",
          "transactionHash": "0x726ce8ad28f9c720aac3e21766aacdde24e7a17663359d94b25720beef71a015",
          "transactionIndex": "0x1",
          "logIndex": "0x2",
          "removed": false
        },
        {
          "address": "0xaaa0e01e5841a58069d5a68162800fe92d0d0ef7",
          "topics": [
            "0x2f8788117e7eff1d82e926ec794901d17c78024a50270940304540a733656f0d",
            "0x189ab7a9244df0848122154315af71fe140f3db0fe014031783b0946b8c9d2e3",
            "0x0000000000000000000000002e2b1c42e38f5af81771e65d87729e57abd1337a",
            "0x0000000000000000000000002e2b1c42e38f5af81771e65d87729e57abd1337a"
          ],
          "data": "0x",
          "blockHash": "0x0115dfc2de12781463ce97557f62987d868322134dc734ba168eedc61ddb6a17",
          "blockNumber": "0x3c6e0",
          "transactionHash": "0x726ce8ad28f9c720aac3e21766aacdde24e7a17663359d94b25720beef71a015",
          "transactionIndex": "0x1",
          "logIndex": "0x3",
          "removed": false
        },
        {
          "address": "0xaaa0e01e5841a58069d5a68162800fe92d0d0ef7",
          "topics": [
            "0xc7f505b2f371ae2175ee4913f4499e1f2633a7b5936321eed1cdaeb6115181d2"
          ],
          "data": "0x0000000000000000000000000000000000000000000000000000000000000001",
          "blockHash": "0x0115dfc2de12781463ce97557f62987d868322134dc734ba168eedc61ddb6a17",
          "blockNumber": "0x3c6e0",
          "transactionHash": "0x726ce8ad28f9c720aac3e21766aacdde24e7a17663359d94b25720beef71a015",
          "transactionIndex": "0x1",
          "logIndex": "0x4",
          "removed": false
        },
        {
          "address": "0x2843c269d2a64ecfa63548e8b3fc0fd23b7f70cb",
          "topics": [
            "0x49628fd1471006c1482da88028e9ce4dbb080b815c9b0344d39e5a8e6ec1419f",
            "0x97a72db46c03831f3091828bdc4b407fe6f87f05770b274fea1cc0f79fd1acdd",
            "0x0000000000000000000000002e2b1c42e38f5af81771e65d87729e57abd1337a",
            "0x0000000000000000000000000000000000000000000000000000000000000000"
          ],
          "data": "0x0000000000000000000000000000000000000000000000000000000000000aac000000000000000000000000000000000000000000000000000000000000000100000000000000000000000000000000000000000000000000000000000ad73700000000000000000000000000000000000000000000000000000000000ad737",
          "blockHash": "0x0115dfc2de12781463ce97557f62987d868322134dc734ba168eedc61ddb6a17",
          "blockNumber": "0x3c6e0",
          "transactionHash": "0x726ce8ad28f9c720aac3e21766aacdde24e7a17663359d94b25720beef71a015",
          "transactionIndex": "0x1",
          "logIndex": "0x5",
          "removed": false
        }
      ],
      "logsBloom": "0x00000044000000000000000000000000000000000000000000000000000000000008000000000000000000018000004000000000000000000000020000000000000000000000000000000000000001000000000000000000000000000000000800000000020000000000000000000800002000000000000000010000001000000000000000008000000800000000800000000000000080000000000000000000000400000000080000400000000000000000000000000000001002000000000000000020000000100001000000000000001000000004000100000000000020000080000000010000000000000000000000000000040000000000000000000000",
      "type": "0x2",
      "transactionHash": "0x726ce8ad28f9c720aac3e21766aacdde24e7a17663359d94b25720beef71a015",
      "transactionIndex": "0x1",
      "blockHash": "0x0115dfc2de12781463ce97557f62987d868322134dc734ba168eedc61ddb6a17",
      "blockNumber": "0x3c6e0",
      "gasUsed": "0xa172c",
      "effectiveGasPrice": "0x5f5e100",
      "from": "0x660ad4b5a74130a4796b4d54bc6750ae93c86e6c",
      "to": "0x2843c269d2a64ecfa63548e8b3fc0fd23b7f70cb",
      "contractAddress": null,
      "gasUsedForL1": "0x495a5",
      "l1BlockNumber": "0x14205f8"
    }
  ],
  "libraries": [],
  "pending": [],
  "returns": {},
  "timestamp": 1730600815,
  "chain": 7887,
  "commit": "4b10b9b"
}