{
  "transactions": [
    {
      "hash": "0x7d053afeae76637688b12043d7a4ec6036889ab2f88093509cf18e1ff93a7819",
      "transactionType": "CALL",
      "contractName": null,
      "contractAddress": "0x2843c269d2a64ecfa63548e8b3fc0fd23b7f70cb",
      "function": "handleOps((address,uint256,bytes,bytes,uint256,uint256,uint256,uint256,uint256,bytes,bytes)[],address)",
      "arguments": [
        "[(0x2e2B1c42E38f5af81771e65D87729E57ABD1337a, 2507, 0x, 0xb61d27f6000000000000000000000000010700808d59d2bb92257fcafacfe8e5bff7ab870000000000000000000000000000000000000000000000000000000000000000000000000000000000000000000000000000000000000000000000000000006000000000000000000000000000000000000000000000000000000000000000449dc29fac000000000000000000000000d157904639e89df05e89e0dabeec99ae3d74f9aa000000000000000000000000000000000000000000000a968163f0a57b40000000000000000000000000000000000000000000000000000000000000, 4000000, 210000, 21000, 1, 1000000000, 0x0000000000000000000000000000000000000000, 0xa7f6d3ffb0be5d0dfec27fc50d10e6010abd54641247f9fb49eef5d9050bd04e2e44855d207a20c7ea04605dc14c4c899bb9015329749a464d098faebd96146e1c95e25235b3fa0891c671bd369d2e1d992bd57f876860ab99a977235e043fbd857c1669ac628fa56830350ffdf082df40d58a1c5b896b2451f2d9cce4fa1e74181b)]",
        "0x660ad4B5A74130a4796B4d54BC6750Ae93C86e6c"
      ],
      "transaction": {
        "from": "0x660ad4b5a74130a4796b4d54bc6750ae93c86e6c",
        "to": "0x2843c269d2a64ecfa63548e8b3fc0fd23b7f70cb",
        "value": "0x0",
        "input": "0x1fad948c0000000000000000000000000000000000000000000000000000000000000040000000000000000000000000660ad4b5a74130a4796b4d54bc6750ae93c86e6c000000000000000000000000000000000000000000000000000000000000000100000000000000000000000000000000000000000000000000000000000000200000000000000000000000002e2b1c42e38f5af81771e65d87729e57abd1337a00000000000000000000000000000000000000000000000000000000000009cb0000000000000000000000000000000000000000000000000000000000000160000000000000000000000000000000000000000000000000000000000000018000000000000000000000000000000000000000000000000000000000003d0900000000000000000000000000000000000000000000000000000000000003345000000000000000000000000000000000000000000000000000000000000052080000000000000000000000000000000000000000000000000000000000000001000000000000000000000000000000000000000000000000000000003b9aca0000000000000000000000000000000000000000000000000000000000000002a000000000000000000000000000000000000000000000000000000000000002e0000000000000000000000000000000000000000000000000000000000000000000000000000000000000000000000000000000000000000000000000000000e4b61d27f6000000000000000000000000010700808d59d2bb92257fcafacfe8e5bff7ab870000000000000000000000000000000000000000000000000000000000000000000000000000000000000000000000000000000000000000000000000000006000000000000000000000000000000000000000000000000000000000000000449dc29fac000000000000000000000000d157904639e89df05e89e0dabeec99ae3d74f9aa000000000000000000000000000000000000000000000a968163f0a57b4000000000000000000000000000000000000000000000000000000000000000000000000000000000000000000000000000000000000000000000000000000000000000000000000000000000000000000000000000000000001400000000000000000000000000000000000000000000000000000000000000000000000000000000000000000000000000000000000000000000000000000082a7f6d3ffb0be5d0dfec27fc50d10e6010abd54641247f9fb49eef5d9050bd04e2e44855d207a20c7ea04605dc14c4c899bb9015329749a464d098faebd96146e1c95e25235b3fa0891c671bd369d2e1d992bd57f876860ab99a977235e043fbd857c1669ac628fa56830350ffdf082df40d58a1c5b896b2451f2d9cce4fa1e74181b000000000000000000000000000000000000000000000000000000000000",
        "nonce": "0x4b7b",
        "chainId": "0x1ecf"
      },
      "additionalContracts": [],
      "isFixedGasLimit": false
    },
    {
      "hash": "0xf3661d51f7e5039b45cbea212532aba1e6ac5e809ff092ff8b32182f7ae852b8",
      "transactionType": "CALL",
      "contractName": null,
      "contractAddress": "0x2843c269d2a64ecfa63548e8b3fc0fd23b7f70cb",
      "function": "handleOps((address,uint256,bytes,bytes,uint256,uint256,uint256,uint256,uint256,bytes,bytes)[],address)",
      "arguments": [
        "[(0x2e2B1c42E38f5af81771e65D87729E57ABD1337a, 2508, 0x, 0xb61d27f6000000000000000000000000010700808d59d2bb92257fcafacfe8e5bff7ab8700000000000000000000000000000000000000000000000000000000000000000000000000000000000000000000000000000000000000000000000000000060000000000000000000000000000000000000000000000000000000000000004440c10f1900000000000000000000000068242cfeda40ff286b045d388f4c5859713027ae000000000000000000000000000000000000000000000a968163f0a57b40000000000000000000000000000000000000000000000000000000000000, 4000000, 210000, 21000, 1, 1000000000, 0x0000000000000000000000000000000000000000, 0x0099e12bdc49df940f6be1073a974cd3a83c6bb30940aebca0029ad3fef91fad1954cb7a20a72d09e426818cbe3ffb2f5a68fd93f6ad0b95b2f22044e47ca0d31b6832df0b21d71a41b0700c6fa3343373de7d365e23a149af2dc7fc19c83238f215cd4b8bda4ef32a98749d20a78a96c7017df40d8ad2d06636f2d7b68052319f1c)]",
        "0x660ad4B5A74130a4796B4d54BC6750Ae93C86e6c"
      ],
      "transaction": {
        "from": "0x660ad4b5a74130a4796b4d54bc6750ae93c86e6c",
        "to": "0x2843c269d2a64ecfa63548e8b3fc0fd23b7f70cb",
        "value": "0x0",
        "input": "0x1fad948c0000000000000000000000000000000000000000000000000000000000000040000000000000000000000000660ad4b5a74130a4796b4d54bc6750ae93c86e6c000000000000000000000000000000000000000000000000000000000000000100000000000000000000000000000000000000000000000000000000000000200000000000000000000000002e2b1c42e38f5af81771e65d87729e57abd1337a00000000000000000000000000000000000000000000000000000000000009cc0000000000000000000000000000000000000000000000000000000000000160000000000000000000000000000000000000000000000000000000000000018000000000000000000000000000000000000000000000000000000000003d0900000000000000000000000000000000000000000000000000000000000003345000000000000000000000000000000000000000000000000000000000000052080000000000000000000000000000000000000000000000000000000000000001000000000000000000000000000000000000000000000000000000003b9aca0000000000000000000000000000000000000000000000000000000000000002a000000000000000000000000000000000000000000000000000000000000002e0000000000000000000000000000000000000000000000000000000000000000000000000000000000000000000000000000000000000000000000000000000e4b61d27f6000000000000000000000000010700808d59d2bb92257fcafacfe8e5bff7ab8700000000000000000000000000000000000000000000000000000000000000000000000000000000000000000000000000000000000000000000000000000060000000000000000000000000000000000000000000000000000000000000004440c10f1900000000000000000000000068242cfeda40ff286b045d388f4c5859713027ae000000000000000000000000000000000000000000000a968163f0a57b40000000000000000000000000000000000000000000000000000000000000000000000000000000000000000000000000000000000000000000000000000000000000000000000000000000000000000000000000000000000014000000000000000000000000000000000000000000000000000000000000000000000000000000000000000000000000000000000000000000000000000000820099e12bdc49df940f6be1073a974cd3a83c6bb30940aebca0029ad3fef91fad1954cb7a20a72d09e426818cbe3ffb2f5a68fd93f6ad0b95b2f22044e47ca0d31b6832df0b21d71a41b0700c6fa3343373de7d365e23a149af2dc7fc19c83238f215cd4b8bda4ef32a98749d20a78a96c7017df40d8ad2d06636f2d7b68052319f1c000000000000000000000000000000000000000000000000000000000000",
        "nonce": "0x4b7c",
        "chainId": "0x1ecf"
      },
      "additionalContracts": [],
      "isFixedGasLimit": false
    }
  ],
  "receipts": [
    {
      "status": "0x1",
      "cumulativeGasUsed": "0xe1f84",
      "logs": [
        {
          "address": "0x2843c269d2a64ecfa63548e8b3fc0fd23b7f70cb",
          "topics": [
            "0xbb47ee3e183a558b1a2ff0874b079f3fc5478b7454eacf2bfc5af2ff5878f972"
          ],
          "data": "0x",
          "blockHash": "0xdbbc9ea9e372d366fa18b78d2021694b8b250a01b34a03b5f0fe0ba9949579e5",
          "blockNumber": "0x375f8",
          "transactionHash": "0x7d053afeae76637688b12043d7a4ec6036889ab2f88093509cf18e1ff93a7819",
          "transactionIndex": "0x1",
          "logIndex": "0x0",
          "removed": false
        },
        {
          "address": "0x010700808d59d2bb92257fcafacfe8e5bff7ab87",
          "topics": [
            "0xddf252ad1be2c89b69c2b068fc378daa952ba7f163c4a11628f55a4df523b3ef",
            "0x000000000000000000000000d157904639e89df05e89e0dabeec99ae3d74f9aa",
            "0x0000000000000000000000000000000000000000000000000000000000000000"
          ],
          "data": "0x000000000000000000000000000000000000000000000a968163f0a57b400000",
          "blockHash": "0xdbbc9ea9e372d366fa18b78d2021694b8b250a01b34a03b5f0fe0ba9949579e5",
          "blockNumber": "0x375f8",
          "transactionHash": "0x7d053afeae76637688b12043d7a4ec6036889ab2f88093509cf18e1ff93a7819",
          "transactionIndex": "0x1",
          "logIndex": "0x1",
          "removed": false
        },
        {
          "address": "0x2843c269d2a64ecfa63548e8b3fc0fd23b7f70cb",
          "topics": [
            "0x49628fd1471006c1482da88028e9ce4dbb080b815c9b0344d39e5a8e6ec1419f",
            "0x08b4e98b5800abcb90f2285b896a28a408c36538bf51c70553216b58dd73ab3a",
            "0x0000000000000000000000002e2b1c42e38f5af81771e65d87729e57abd1337a",
            "0x0000000000000000000000000000000000000000000000000000000000000000"
          ],
          "data": "0x00000000000000000000000000000000000000000000000000000000000009cb000000000000000000000000000000000000000000000000000000000000000100000000000000000000000000000000000000000000000000000000000863ed00000000000000000000000000000000000000000000000000000000000863ed",
          "blockHash": "0xdbbc9ea9e372d366fa18b78d2021694b8b250a01b34a03b5f0fe0ba9949579e5",
          "blockNumber": "0x375f8",
          "transactionHash": "0x7d053afeae76637688b12043d7a4ec6036889ab2f88093509cf18e1ff93a7819",
          "transactionIndex": "0x1",
          "logIndex": "0x2",
          "removed": false
        }
      ],
      "logsBloom": "0x00002000000400000000000000000000000000000000000000000000000001000008000000000000000000010000000000000000000000000000020000000002000000000000000000000008000000000000000000800000000000000000000800000000020000000000000000000800002000000000000000000010000000000000000000000000000000000000800000000000000000000000000000000000001400000000000000400000000000000000000000000000000002000000000000000002000000100001000000000000000000000000000000000004000020000000000000010000000000000000800000000000000000000000000000000800",
      "type": "0x2",
      "transactionHash": "0x7d053afeae76637688b12043d7a4ec6036889ab2f88093509cf18e1ff93a7819",
      "transactionIndex": "0x1",
      "blockHash": "0xdbbc9ea9e372d366fa18b78d2021694b8b250a01b34a03b5f0fe0ba9949579e5",
      "blockNumber": "0x375f8",
      "gasUsed": "0xe1f84",
      "effectiveGasPrice": "0x5f5e100",
      "from": "0x660ad4b5a74130a4796b4d54bc6750ae93c86e6c",
      "to": "0x2843c269d2a64ecfa63548e8b3fc0fd23b7f70cb",
      "contractAddress": null,
      "gasUsedForL1": "0xb5d19",
      "l1BlockNumber": "0x13dd094"
    },
    {
      "status": "0x1",
      "cumulativeGasUsed": "0xdf88a",
      "logs": [
        {
          "address": "0x2843c269d2a64ecfa63548e8b3fc0fd23b7f70cb",
          "topics": [
            "0xbb47ee3e183a558b1a2ff0874b079f3fc5478b7454eacf2bfc5af2ff5878f972"
          ],
          "data": "0x",
          "blockHash": "0xa7992799b86bfb7d69c2db2ce7e102e35e9397a5e9a66c7c3629a09839b82916",
          "blockNumber": "0x375f9",
          "transactionHash": "0xf3661d51f7e5039b45cbea212532aba1e6ac5e809ff092ff8b32182f7ae852b8",
          "transactionIndex": "0x1",
          "logIndex": "0x0",
          "removed": false
        },
        {
          "address": "0x010700808d59d2bb92257fcafacfe8e5bff7ab87",
          "topics": [
            "0xddf252ad1be2c89b69c2b068fc378daa952ba7f163c4a11628f55a4df523b3ef",
            "0x0000000000000000000000000000000000000000000000000000000000000000",
            "0x00000000000000000000000068242cfeda40ff286b045d388f4c5859713027ae"
          ],
          "data": "0x000000000000000000000000000000000000000000000a968163f0a57b400000",
          "blockHash": "0xa7992799b86bfb7d69c2db2ce7e102e35e9397a5e9a66c7c3629a09839b82916",
          "blockNumber": "0x375f9",
          "transactionHash": "0xf3661d51f7e5039b45cbea212532aba1e6ac5e809ff092ff8b32182f7ae852b8",
          "transactionIndex": "0x1",
          "logIndex": "0x1",
          "removed": false
        },
        {
          "address": "0x2843c269d2a64ecfa63548e8b3fc0fd23b7f70cb",
          "topics": [
            "0x49628fd1471006c1482da88028e9ce4dbb080b815c9b0344d39e5a8e6ec1419f",
            "0x6810765efbcea65d2fc3b040b629fb5356755771d9e59c4c99e677382a0b7194",
            "0x0000000000000000000000002e2b1c42e38f5af81771e65d87729e57abd1337a",
            "0x0000000000000000000000000000000000000000000000000000000000000000"
          ],
          "data": "0x00000000000000000000000000000000000000000000000000000000000009cc00000000000000000000000000000000000000000000000000000000000000010000000000000000000000000000000000000000000000000000000000085c1e0000000000000000000000000000000000000000000000000000000000085c1e",
          "blockHash": "0xa7992799b86bfb7d69c2db2ce7e102e35e9397a5e9a66c7c3629a09839b82916",
          "blockNumber": "0x375f9",
          "transactionHash": "0xf3661d51f7e5039b45cbea212532aba1e6ac5e809ff092ff8b32182f7ae852b8",
          "transactionIndex": "0x1",
          "logIndex": "0x2",
          "removed": false
        }
      ],
      "logsBloom": "0x00000000040400000000000000000000000000000100000000000000000000000008000000008000000000010000000000000000000000000000020000000000000000000000000000000008000000000000000000000000000000000000000800000000020000000000000000000800002000000400000080000010000000000000000000000000000000000000800000000000000000000000000000000000001400000000000000400000000000000000000000000000000002000000000400000002000000100001000000000000000000000000000000000000000020000000000000010000000000000000800000000000000000000000000000000000",
      "type": "0x2",
      "transactionHash": "0xf3661d51f7e5039b45cbea212532aba1e6ac5e809ff092ff8b32182f7ae852b8",
      "transactionIndex": "0x1",
      "blockHash": "0xa7992799b86bfb7d69c2db2ce7e102e35e9397a5e9a66c7c3629a09839b82916",
      "blockNumber": "0x375f9",
      "gasUsed": "0xdf88a",
      "effectiveGasPrice": "0x5f5e100",
      "from": "0x660ad4b5a74130a4796b4d54bc6750ae93c86e6c",
      "to": "0x2843c269d2a64ecfa63548e8b3fc0fd23b7f70cb",
      "contractAddress": null,
      "gasUsedForL1": "0xb3ed9",
      "l1BlockNumber": "0x13dd094"
    }
  ],
  "libraries": [],
  "pending": [],
  "returns": {},
  "timestamp": 1727275641,
  "chain": 7887,
  "commit": "f657a5c"
}