{
  "transactions": [
    {
      "hash": "0xc4d1aa548696899a37ae53818a28385059eba574a0b560907401e9d0d54891eb",
      "transactionType": "CALL",
      "contractName": null,
      "contractAddress": "0x2843c269d2a64ecfa63548e8b3fc0fd23b7f70cb",
      "function": "handleOps((address,uint256,bytes,bytes,uint256,uint256,uint256,uint256,uint256,bytes,bytes)[],address)",
      "arguments": [
        "[(0x2e2B1c42E38f5af81771e65D87729E57ABD1337a, 4613, 0x, 0xb61d27f6000000000000000000000000f369f78e3a0492cc4e96a90dae0728a38498e9c7000000000000000000000000000000000000000000000000000000000000000000000000000000000000000000000000000000000000000000000000000000600000000000000000000000000000000000000000000000000000000000000044d547741f189ab7a9244df0848122154315af71fe140f3db0fe014031783b0946b8c9d2e30000000000000000000000002e2b1c42e38f5af81771e65d87729e57abd1337a00000000000000000000000000000000000000000000000000000000, 4000000, 210000, 21000, 1, 1000000000, 0x0000000000000000000000000000000000000000, 0xbfdd99d396dc251b38953a6d539ffd9b110419d2b0027e219dda5f34af749c170cd10c4ab448c6857b65f1215dced5841dc9d76b1567de4dcbbfab1c423ce8d31c32bf3d63737cdfd9d2bdc95f8187a291dcd6a958192a6df9c742c2a5efa99f23581932039eb39fabfb7ed75d680b4ab35b9f9f76d9872e55cadef0de255ad8e71b)]",
        "0x660ad4B5A74130a4796B4d54BC6750Ae93C86e6c"
      ],
      "transaction": {
        "from": "0x660ad4b5a74130a4796b4d54bc6750ae93c86e6c",
        "to": "0x2843c269d2a64ecfa63548e8b3fc0fd23b7f70cb",
        "value": "0x0",
        "input": "0x1fad948c0000000000000000000000000000000000000000000000000000000000000040000000000000000000000000660ad4b5a74130a4796b4d54bc6750ae93c86e6c000000000000000000000000000000000000000000000000000000000000000100000000000000000000000000000000000000000000000000000000000000200000000000000000000000002e2b1c42e38f5af81771e65d87729e57abd1337a00000000000000000000000000000000000000000000000000000000000012050000000000000000000000000000000000000000000000000000000000000160000000000000000000000000000000000000000000000000000000000000018000000000000000000000000000000000000000000000000000000000003d0900000000000000000000000000000000000000000000000000000000000003345000000000000000000000000000000000000000000000000000000000000052080000000000000000000000000000000000000000000000000000000000000001000000000000000000000000000000000000000000000000000000003b9aca0000000000000000000000000000000000000000000000000000000000000002a000000000000000000000000000000000000000000000000000000000000002e0000000000000000000000000000000000000000000000000000000000000000000000000000000000000000000000000000000000000000000000000000000e4b61d27f6000000000000000000000000f369f78e3a0492cc4e96a90dae0728a38498e9c7000000000000000000000000000000000000000000000000000000000000000000000000000000000000000000000000000000000000000000000000000000600000000000000000000000000000000000000000000000000000000000000044d547741f189ab7a9244df0848122154315af71fe140f3db0fe014031783b0946b8c9d2e30000000000000000000000002e2b1c42e38f5af81771e65d87729e57abd1337a0000000000000000000000000000000000000000000000000000000000000000000000000000000000000000000000000000000000000000000000000000000000000000000000000000000000000000000000000000001400000000000000000000000000000000000000000000000000000000000000000000000000000000000000000000000000000000000000000000000000000082bfdd99d396dc251b38953a6d539ffd9b110419d2b0027e219dda5f34af749c170cd10c4ab448c6857b65f1215dced5841dc9d76b1567de4dcbbfab1c423ce8d31c32bf3d63737cdfd9d2bdc95f8187a291dcd6a958192a6df9c742c2a5efa99f23581932039eb39fabfb7ed75d680b4ab35b9f9f76d9872e55cadef0de255ad8e71b000000000000000000000000000000000000000000000000000000000000",
        "nonce": "0x4bd11",
        "chainId": "0x1ecf"
      },
      "additionalContracts": [],
      "isFixedGasLimit": false
    },
    {
      "hash": "0x379124b205e8d36d87180a72a540168a548d2ca1ef23b3f33033873dbd6cf582",
      "transactionType": "CALL",
      "contractName": null,
      "contractAddress": "0x2843c269d2a64ecfa63548e8b3fc0fd23b7f70cb",
      "function": "handleOps((address,uint256,bytes,bytes,uint256,uint256,uint256,uint256,uint256,bytes,bytes)[],address)",
      "arguments": [
        "[(0x2e2B1c42E38f5af81771e65D87729E57ABD1337a, 4614, 0x, 0xb61d27f6000000000000000000000000f369f78e3a0492cc4e96a90dae0728a38498e9c7000000000000000000000000000000000000000000000000000000000000000000000000000000000000000000000000000000000000000000000000000000600000000000000000000000000000000000000000000000000000000000000044d547741f71840dc4906352362b0cdaf79870196c8e42acafade72d5d5a6d59291253ceb10000000000000000000000002e2b1c42e38f5af81771e65d87729e57abd1337a00000000000000000000000000000000000000000000000000000000, 4000000, 210000, 21000, 1, 1000000000, 0x0000000000000000000000000000000000000000, 0x0ee6bf51b5d58d724127135f4f4b129602101883604307721e7e78221726305d6ee6c19dfd8e8865373f7de42bcc768ef8210f439a72a0d1fbe1e6a65f338d221b1409567d2af83212834012120632ce60f6d97303c7291cc406a789afc4a5133b34e2e2c847d5c061938bec2f53bf3520d9f8461afb351e578d9f60a5d36862bf1c)]",
        "0x660ad4B5A74130a4796B4d54BC6750Ae93C86e6c"
      ],
      "transaction": {
        "from": "0x660ad4b5a74130a4796b4d54bc6750ae93c86e6c",
        "to": "0x2843c269d2a64ecfa63548e8b3fc0fd23b7f70cb",
        "value": "0x0",
        "input": "0x1fad948c0000000000000000000000000000000000000000000000000000000000000040000000000000000000000000660ad4b5a74130a4796b4d54bc6750ae93c86e6c000000000000000000000000000000000000000000000000000000000000000100000000000000000000000000000000000000000000000000000000000000200000000000000000000000002e2b1c42e38f5af81771e65d87729e57abd1337a00000000000000000000000000000000000000000000000000000000000012060000000000000000000000000000000000000000000000000000000000000160000000000000000000000000000000000000000000000000000000000000018000000000000000000000000000000000000000000000000000000000003d0900000000000000000000000000000000000000000000000000000000000003345000000000000000000000000000000000000000000000000000000000000052080000000000000000000000000000000000000000000000000000000000000001000000000000000000000000000000000000000000000000000000003b9aca0000000000000000000000000000000000000000000000000000000000000002a000000000000000000000000000000000000000000000000000000000000002e0000000000000000000000000000000000000000000000000000000000000000000000000000000000000000000000000000000000000000000000000000000e4b61d27f6000000000000000000000000f369f78e3a0492cc4e96a90dae0728a38498e9c7000000000000000000000000000000000000000000000000000000000000000000000000000000000000000000000000000000000000000000000000000000600000000000000000000000000000000000000000000000000000000000000044d547741f71840dc4906352362b0cdaf79870196c8e42acafade72d5d5a6d59291253ceb10000000000000000000000002e2b1c42e38f5af81771e65d87729e57abd1337a00000000000000000000000000000000000000000000000000000000000000000000000000000000000000000000000000000000000000000000000000000000000000000000000000000000000000000000000000000014000000000000000000000000000000000000000000000000000000000000000000000000000000000000000000000000000000000000000000000000000000820ee6bf51b5d58d724127135f4f4b129602101883604307721e7e78221726305d6ee6c19dfd8e8865373f7de42bcc768ef8210f439a72a0d1fbe1e6a65f338d221b1409567d2af83212834012120632ce60f6d97303c7291cc406a789afc4a5133b34e2e2c847d5c061938bec2f53bf3520d9f8461afb351e578d9f60a5d36862bf1c000000000000000000000000000000000000000000000000000000000000",
        "nonce": "0x4bd12",
        "chainId": "0x1ecf"
      },
      "additionalContracts": [],
      "isFixedGasLimit": false
    },
    {
      "hash": "0x809c929d962e248fc4367bbe2d927b25c08958f60a2988d0ff30437e06538999",
      "transactionType": "CALL",
      "contractName": null,
      "contractAddress": "0x2843c269d2a64ecfa63548e8b3fc0fd23b7f70cb",
      "function": "handleOps((address,uint256,bytes,bytes,uint256,uint256,uint256,uint256,uint256,bytes,bytes)[],address)",
      "arguments": [
        "[(0x2e2B1c42E38f5af81771e65D87729E57ABD1337a, 4615, 0x, 0xb61d27f6000000000000000000000000f369f78e3a0492cc4e96a90dae0728a38498e9c7000000000000000000000000000000000000000000000000000000000000000000000000000000000000000000000000000000000000000000000000000000600000000000000000000000000000000000000000000000000000000000000044d547741f00000000000000000000000000000000000000000000000000000000000000000000000000000000000000002e2b1c42e38f5af81771e65d87729e57abd1337a00000000000000000000000000000000000000000000000000000000, 4000000, 210000, 21000, 1, 1000000000, 0x0000000000000000000000000000000000000000, 0x82673c7a948534e74cb9f43fd0d6e1c02e34c2b9af63fbcbebe003670d366df87ff2de29ce35f2bc4a721312fe049d4d008b9df7fe444392deaa09ac243e2f1e1bb2c9211237d2d7f6468357613cf6cd7a26da46cfa3db4daf5601cf99c466c3c6042c92b9e1425a23f30d8afb91c53bb7af233d1fc3c0059705f6c0f9ad2842051b)]",
        "0x660ad4B5A74130a4796B4d54BC6750Ae93C86e6c"
      ],
      "transaction": {
        "from": "0x660ad4b5a74130a4796b4d54bc6750ae93c86e6c",
        "to": "0x2843c269d2a64ecfa63548e8b3fc0fd23b7f70cb",
        "value": "0x0",
        "input": "0x1fad948c0000000000000000000000000000000000000000000000000000000000000040000000000000000000000000660ad4b5a74130a4796b4d54bc6750ae93c86e6c000000000000000000000000000000000000000000000000000000000000000100000000000000000000000000000000000000000000000000000000000000200000000000000000000000002e2b1c42e38f5af81771e65d87729e57abd1337a00000000000000000000000000000000000000000000000000000000000012070000000000000000000000000000000000000000000000000000000000000160000000000000000000000000000000000000000000000000000000000000018000000000000000000000000000000000000000000000000000000000003d0900000000000000000000000000000000000000000000000000000000000003345000000000000000000000000000000000000000000000000000000000000052080000000000000000000000000000000000000000000000000000000000000001000000000000000000000000000000000000000000000000000000003b9aca0000000000000000000000000000000000000000000000000000000000000002a000000000000000000000000000000000000000000000000000000000000002e0000000000000000000000000000000000000000000000000000000000000000000000000000000000000000000000000000000000000000000000000000000e4b61d27f6000000000000000000000000f369f78e3a0492cc4e96a90dae0728a38498e9c7000000000000000000000000000000000000000000000000000000000000000000000000000000000000000000000000000000000000000000000000000000600000000000000000000000000000000000000000000000000000000000000044d547741f00000000000000000000000000000000000000000000000000000000000000000000000000000000000000002e2b1c42e38f5af81771e65d87729e57abd1337a000000000000000000000000000000000000000000000000000000000000000000000000000000000000000000000000000000000000000000000000000000000000000000000000000000000000000000000000000000140000000000000000000000000000000000000000000000000000000000000000000000000000000000000000000000000000000000000000000000000000008282673c7a948534e74cb9f43fd0d6e1c02e34c2b9af63fbcbebe003670d366df87ff2de29ce35f2bc4a721312fe049d4d008b9df7fe444392deaa09ac243e2f1e1bb2c9211237d2d7f6468357613cf6cd7a26da46cfa3db4daf5601cf99c466c3c6042c92b9e1425a23f30d8afb91c53bb7af233d1fc3c0059705f6c0f9ad2842051b000000000000000000000000000000000000000000000000000000000000",
        "nonce": "0x4bd13",
        "chainId": "0x1ecf"
      },
      "additionalContracts": [],
      "isFixedGasLimit": false
    }
  ],
  "receipts": [
    {
      "status": "0x1",
      "cumulativeGasUsed": "0x36965",
      "logs": [
        {
          "address": "0x2843c269d2a64ecfa63548e8b3fc0fd23b7f70cb",
          "topics": [
            "0xbb47ee3e183a558b1a2ff0874b079f3fc5478b7454eacf2bfc5af2ff5878f972"
          ],
          "data": "0x",
          "blockHash": "0xf7ae7522775a420ba02e672e8db61de95382471c8985152a7fba3e23ed0e67fa",
          "blockNumber": "0xbbea9",
          "transactionHash": "0xc4d1aa548696899a37ae53818a28385059eba574a0b560907401e9d0d54891eb",
          "transactionIndex": "0x1",
          "logIndex": "0x0",
          "removed": false
        },
        {
          "address": "0xf369f78e3a0492cc4e96a90dae0728a38498e9c7",
          "topics": [
            "0xf6391f5c32d9c69d2a47ea670b442974b53935d1edc7fd64eb21e047a839171b",
            "0x189ab7a9244df0848122154315af71fe140f3db0fe014031783b0946b8c9d2e3",
            "0x0000000000000000000000002e2b1c42e38f5af81771e65d87729e57abd1337a",
            "0x0000000000000000000000002e2b1c42e38f5af81771e65d87729e57abd1337a"
          ],
          "data": "0x",
          "blockHash": "0xf7ae7522775a420ba02e672e8db61de95382471c8985152a7fba3e23ed0e67fa",
          "blockNumber": "0xbbea9",
          "transactionHash": "0xc4d1aa548696899a37ae53818a28385059eba574a0b560907401e9d0d54891eb",
          "transactionIndex": "0x1",
          "logIndex": "0x1",
          "removed": false
        },
        {
          "address": "0x2843c269d2a64ecfa63548e8b3fc0fd23b7f70cb",
          "topics": [
            "0x49628fd1471006c1482da88028e9ce4dbb080b815c9b0344d39e5a8e6ec1419f",
            "0x1af6ce31455aaff126f07211d9754984987240aada625209a8919b4995e5158d",
            "0x0000000000000000000000002e2b1c42e38f5af81771e65d87729e57abd1337a",
            "0x0000000000000000000000000000000000000000000000000000000000000000"
          ],
          "data": "0x00000000000000000000000000000000000000000000000000000000000012050000000000000000000000000000000000000000000000000000000000000001000000000000000000000000000000000000000000000000000000000008397d000000000000000000000000000000000000000000000000000000000008397d",
          "blockHash": "0xf7ae7522775a420ba02e672e8db61de95382471c8985152a7fba3e23ed0e67fa",
          "blockNumber": "0xbbea9",
          "transactionHash": "0xc4d1aa548696899a37ae53818a28385059eba574a0b560907401e9d0d54891eb",
          "transactionIndex": "0x1",
          "logIndex": "0x2",
          "removed": false
        }
      ],
      "logsBloom": "0x00000000000000000000000000000004000000000000000000000000000000000008000000000000000000018000000000200000000000000000020000000000008000000000000000000000000000000000000000000010000000000000000840000000020000000000000000000800002000000000000000010000000000000000000040000000000000000000800000000000000000000000000000000000000400000000000000400000000000000000000000000000000002000000000000000020000000100001000000000000000000000000004000000000000020000080000000010000000000000000000000000000000000000000000080000000",
      "type": "0x2",
      "transactionHash": "0xc4d1aa548696899a37ae53818a28385059eba574a0b560907401e9d0d54891eb",
      "transactionIndex": "0x1",
      "blockHash": "0xf7ae7522775a420ba02e672e8db61de95382471c8985152a7fba3e23ed0e67fa",
      "blockNumber": "0xbbea9",
      "gasUsed": "0x36965",
      "effectiveGasPrice": "0x5f5e100",
      "from": "0x660ad4b5a74130a4796b4d54bc6750ae93c86e6c",
      "to": "0x2843c269d2a64ecfa63548e8b3fc0fd23b7f70cb",
      "contractAddress": null,
      "gasUsedForL1": "0xe7bc",
      "l1BlockNumber": "0x150de85"
    },
    {
      "status": "0x1",
      "cumulativeGasUsed": "0x3682b",
      "logs": [
        {
          "address": "0x2843c269d2a64ecfa63548e8b3fc0fd23b7f70cb",
          "topics": [
            "0xbb47ee3e183a558b1a2ff0874b079f3fc5478b7454eacf2bfc5af2ff5878f972"
          ],
          "data": "0x",
          "blockHash": "0xe96f66f3a07f1a64bd1fa5e4c8bf26960d9c9bacdf2b17288ef77200cff16158",
          "blockNumber": "0xbbeaa",
          "transactionHash": "0x379124b205e8d36d87180a72a540168a548d2ca1ef23b3f33033873dbd6cf582",
          "transactionIndex": "0x1",
          "logIndex": "0x0",
          "removed": false
        },
        {
          "address": "0xf369f78e3a0492cc4e96a90dae0728a38498e9c7",
          "topics": [
            "0xf6391f5c32d9c69d2a47ea670b442974b53935d1edc7fd64eb21e047a839171b",
            "0x71840dc4906352362b0cdaf79870196c8e42acafade72d5d5a6d59291253ceb1",
            "0x0000000000000000000000002e2b1c42e38f5af81771e65d87729e57abd1337a",
            "0x0000000000000000000000002e2b1c42e38f5af81771e65d87729e57abd1337a"
          ],
          "data": "0x",
          "blockHash": "0xe96f66f3a07f1a64bd1fa5e4c8bf26960d9c9bacdf2b17288ef77200cff16158",
          "blockNumber": "0xbbeaa",
          "transactionHash": "0x379124b205e8d36d87180a72a540168a548d2ca1ef23b3f33033873dbd6cf582",
          "transactionIndex": "0x1",
          "logIndex": "0x1",
          "removed": false
        },
        {
          "address": "0x2843c269d2a64ecfa63548e8b3fc0fd23b7f70cb",
          "topics": [
            "0x49628fd1471006c1482da88028e9ce4dbb080b815c9b0344d39e5a8e6ec1419f",
            "0xfb81d125a1c82043186c636edc0ea61ffbaee4a3391dcb321487441a21711e11",
            "0x0000000000000000000000002e2b1c42e38f5af81771e65d87729e57abd1337a",
            "0x0000000000000000000000000000000000000000000000000000000000000000"
          ],
          "data": "0x00000000000000000000000000000000000000000000000000000000000012060000000000000000000000000000000000000000000000000000000000000001000000000000000000000000000000000000000000000000000000000008397d000000000000000000000000000000000000000000000000000000000008397d",
          "blockHash": "0xe96f66f3a07f1a64bd1fa5e4c8bf26960d9c9bacdf2b17288ef77200cff16158",
          "blockNumber": "0xbbeaa",
          "transactionHash": "0x379124b205e8d36d87180a72a540168a548d2ca1ef23b3f33033873dbd6cf582",
          "transactionIndex": "0x1",
          "logIndex": "0x2",
          "removed": false
        }
      ],
      "logsBloom": "0x00000000000000000000000000000004800000000000000000000000000000000008000000000000000000010000000000200000000000000000020000000000008000000000000000000000000000000000000000000010000000000000000840000000020000000000000000000800002040000000000000000000000000000000000040000000000000000000800000000000000000000000000000000000000400000000000000400000000000000000000000000000000002000002000000000000000000340001040000000000000000000000000000000000000020000000000000010000000000000000000000000000000000000000000000000000",
      "type": "0x2",
      "transactionHash": "0x379124b205e8d36d87180a72a540168a548d2ca1ef23b3f33033873dbd6cf582",
      "transactionIndex": "0x1",
      "blockHash": "0xe96f66f3a07f1a64bd1fa5e4c8bf26960d9c9bacdf2b17288ef77200cff16158",
      "blockNumber": "0xbbeaa",
      "gasUsed": "0x3682b",
      "effectiveGasPrice": "0x5f5e100",
      "from": "0x660ad4b5a74130a4796b4d54bc6750ae93c86e6c",
      "to": "0x2843c269d2a64ecfa63548e8b3fc0fd23b7f70cb",
      "contractAddress": null,
      "gasUsedForL1": "0xe682",
      "l1BlockNumber": "0x150de85"
    },
    {
      "status": "0x1",
      "cumulativeGasUsed": "0x35363",
      "logs": [
        {
          "address": "0x2843c269d2a64ecfa63548e8b3fc0fd23b7f70cb",
          "topics": [
            "0xbb47ee3e183a558b1a2ff0874b079f3fc5478b7454eacf2bfc5af2ff5878f972"
          ],
          "data": "0x",
          "blockHash": "0x34c9a51c47400a9ae02e2366e4c5dfa6b06a8d02213587b2633cc87b50ec7bb9",
          "blockNumber": "0xbbeab",
          "transactionHash": "0x809c929d962e248fc4367bbe2d927b25c08958f60a2988d0ff30437e06538999",
          "transactionIndex": "0x1",
          "logIndex": "0x0",
          "removed": false
        },
        {
          "address": "0xf369f78e3a0492cc4e96a90dae0728a38498e9c7",
          "topics": [
            "0xf6391f5c32d9c69d2a47ea670b442974b53935d1edc7fd64eb21e047a839171b",
            "0x0000000000000000000000000000000000000000000000000000000000000000",
            "0x0000000000000000000000002e2b1c42e38f5af81771e65d87729e57abd1337a",
            "0x0000000000000000000000002e2b1c42e38f5af81771e65d87729e57abd1337a"
          ],
          "data": "0x",
          "blockHash": "0x34c9a51c47400a9ae02e2366e4c5dfa6b06a8d02213587b2633cc87b50ec7bb9",
          "blockNumber": "0xbbeab",
          "transactionHash": "0x809c929d962e248fc4367bbe2d927b25c08958f60a2988d0ff30437e06538999",
          "transactionIndex": "0x1",
          "logIndex": "0x1",
          "removed": false
        },
        {
          "address": "0x2843c269d2a64ecfa63548e8b3fc0fd23b7f70cb",
          "topics": [
            "0x49628fd1471006c1482da88028e9ce4dbb080b815c9b0344d39e5a8e6ec1419f",
            "0xa7d9909458589215bdf783a22426fd0e773c38fba858aebccf1e7e4755802d02",
            "0x0000000000000000000000002e2b1c42e38f5af81771e65d87729e57abd1337a",
            "0x0000000000000000000000000000000000000000000000000000000000000000"
          ],
          "data": "0x0000000000000000000000000000000000000000000000000000000000001207000000000000000000000000000000000000000000000000000000000000000100000000000000000000000000000000000000000000000000000000000832750000000000000000000000000000000000000000000000000000000000083275",
          "blockHash": "0x34c9a51c47400a9ae02e2366e4c5dfa6b06a8d02213587b2633cc87b50ec7bb9",
          "blockNumber": "0xbbeab",
          "transactionHash": "0x809c929d962e248fc4367bbe2d927b25c08958f60a2988d0ff30437e06538999",
          "transactionIndex": "0x1",
          "logIndex": "0x2",
          "removed": false
        }
      ],
      "logsBloom": "0x00000000000000000000000000000004000000000000000000000000000000000008000000000000000000010000000000200000000000000000020000000000008000000000000000000000001000000000000000000010000000000000000840000000020000000000040000000800002000000000000000000000000000000000000040000000000000000000800000000000000000000000000000000000000400000000000000400000000000000000000000000000000002000000000000000000000010100001000000000000000000000000000000000000000020000000000000010000000000000000000000000000000000000000000000000000",
      "type": "0x2",
      "transactionHash": "0x809c929d962e248fc4367bbe2d927b25c08958f60a2988d0ff30437e06538999",
      "transactionIndex": "0x1",
      "blockHash": "0x34c9a51c47400a9ae02e2366e4c5dfa6b06a8d02213587b2633cc87b50ec7bb9",
      "blockNumber": "0xbbeab",
      "gasUsed": "0x35363",
      "effectiveGasPrice": "0x5f5e100",
      "from": "0x660ad4b5a74130a4796b4d54bc6750ae93c86e6c",
      "to": "0x2843c269d2a64ecfa63548e8b3fc0fd23b7f70cb",
      "contractAddress": null,
      "gasUsedForL1": "0xdb16",
      "l1BlockNumber": "0x150de85"
    }
  ],
  "libraries": [],
  "pending": [],
  "returns": {},
  "timestamp": 1742340773,
  "chain": 7887,
  "commit": "55bc0a1a"
}