{
  "transactions": [
    {
      "hash": null,
      "transactionType": "CALL",
      "contractName": null,
      "contractAddress": "0x5a2b641b84b0230c8e75f55d5afd27f4dbd59d5b",
      "function": "registerApp(string,address,address[],uint256[4])",
      "arguments": [
        "\"Socket\"",
        "0x3e9727470C66B1e77034590926CDe0242B5A3dCc",
        "[0xaBc64E84c653e0f077c0178E4b1fAC01Bfcc20b0, 0xDB09c7C2C4071e3Ca1bAD0C357906Efa17c25102, 0x7D4E3628C3DEce7bA053c296eEA3729318F93715, 0xFe6E2862ef74ADF306AAcd575eAF5F45281B1017, 0x342f5BA3230f6D1E32Aa775440BDcB93647dD4CD, 0x4c9c64B2FAe0e13dF9A635ad699c5eFC386D1Cee, 0x345B2061EA8256689349fca968CF7Af0Ff6011Aa, 0x8D23e5Ba32Ca80809d60eD70ddbd96e6b3D61015, 0x28A6468dE32690f63D8095e8980B43ab48F9470C, 0xCE2FC6C6bFCF04f2f857338ecF6004381F414926, 0xe3F4C9cCA8eA855497D63800beFb43f290aC78c6, 0xC7FCA8aB6D1E1142790454e7e5655d93c3b03ed6, 0x24f287b474a05E48627846148cCdA3D05de03953, 0xdA100067134959575D87D11d54F2722Ba3C934aB, 0x0E7000967bcB5fC76A5A89082db04ed0Bf9548d8, 0x05DC0010C9902EcF6CBc921c6A4bd971c69E5A2E, 0xE040001C257237839a69E9683349C173297876F0, 0x05dE0003C333A503bea5224fCc64f0D4b5446C38, 0xe16E00eeFCd866e8aE5a4e43bBdd6831da6391E1, 0xee70005Ec41738eA7ED2B97D7d56ac829F1E99e6, 0x5da1004F7341D510C6651C67B4EFcEEA76Cac0E8, 0x505de0f7a5d786063348aB5BC31e3a21344fA7B0, 0x0050110dd97a2bf4fDD8D69530B3e85d2e3EDfbc, 0x0Ee700095AeDFe0814fFf7d6DFD75461De8e2b19, 0x057e70cCa0dC435786a50FcF440bf8FcC1eEAf17, 0xe70F10CD4bD932a28b80d48D771026a4c88E6285]",
        "[60, 10, 2592000, 10000000000000000]"
      ],
      "transaction": {
        "from": "0x660ad4b5a74130a4796b4d54bc6750ae93c86e6c",
        "to": "0x5a2b641b84b0230c8e75f55d5afd27f4dbd59d5b",
        "gas": "0x10d02e",
        "value": "0x0",
        "input": "0x8e4c900900000000000000000000000000000000000000000000000000000000000000e00000000000000000000000003e9727470c66b1e77034590926cde0242b5a3dcc0000000000000000000000000000000000000000000000000000000000000120000000000000000000000000000000000000000000000000000000000000003c000000000000000000000000000000000000000000000000000000000000000a0000000000000000000000000000000000000000000000000000000000278d00000000000000000000000000000000000000000000000000002386f26fc100000000000000000000000000000000000000000000000000000000000000000006536f636b65740000000000000000000000000000000000000000000000000000000000000000000000000000000000000000000000000000000000000000001a000000000000000000000000abc64e84c653e0f077c0178e4b1fac01bfcc20b0000000000000000000000000db09c7c2c4071e3ca1bad0c357906efa17c251020000000000000000000000007d4e3628c3dece7ba053c296eea3729318f93715000000000000000000000000fe6e2862ef74adf306aacd575eaf5f45281b1017000000000000000000000000342f5ba3230f6d1e32aa775440bdcb93647dd4cd0000000000000000000000004c9c64b2fae0e13df9a635ad699c5efc386d1cee000000000000000000000000345b2061ea8256689349fca968cf7af0ff6011aa0000000000000000000000008d23e5ba32ca80809d60ed70ddbd96e6b3d6101500000000000000000000000028a6468de32690f63d8095e8980b43ab48f9470c000000000000000000000000ce2fc6c6bfcf04f2f857338ecf6004381f414926000000000000000000000000e3f4c9cca8ea855497d63800befb43f290ac78c6000000000000000000000000c7fca8ab6d1e1142790454e7e5655d93c3b03ed600000000000000000000000024f287b474a05e48627846148ccda3d05de03953000000000000000000000000da100067134959575d87d11d54f2722ba3c934ab0000000000000000000000000e7000967bcb5fc76a5a89082db04ed0bf9548d800000000000000000000000005dc0010c9902ecf6cbc921c6a4bd971c69e5a2e000000000000000000000000e040001c257237839a69e9683349c173297876f000000000000000000000000005de0003c333a503bea5224fcc64f0d4b5446c38000000000000000000000000e16e00eefcd866e8ae5a4e43bbdd6831da6391e1000000000000000000000000ee70005ec41738ea7ed2b97d7d56ac829f1e99e60000000000000000000000005da1004f7341d510c6651c67b4efceea76cac0e8000000000000000000000000505de0f7a5d786063348ab5bc31e3a21344fa7b00000000000000000000000000050110dd97a2bf4fdd8d69530b3e85d2e3edfbc0000000000000000000000000ee700095aedfe0814fff7d6dfd75461de8e2b19000000000000000000000000057e70cca0dc435786a50fcf440bf8fcc1eeaf17000000000000000000000000e70f10cd4bd932a28b80d48d771026a4c88e6285",
        "nonce": "0x36df",
        "chainId": "0x1ecf"
      },
      "additionalContracts": [],
      "isFixedGasLimit": false
    }
  ],
  "receipts": [],
  "libraries": [],
  "pending": [],
  "returns": {},
  "timestamp": 1716396992,
  "chain": 7887,
  "commit": "fee1823"
}