{
  "transactions": [
    {
      "hash": "0x59c9dda460e7cad508e221c532636f6bab12c72b84445dd36b6a416b1023a71e",
      "transactionType": "CALL",
      "contractName": null,
      "contractAddress": "0x2843c269d2a64ecfa63548e8b3fc0fd23b7f70cb",
      "function": "handleOps((address,uint256,bytes,bytes,uint256,uint256,uint256,uint256,uint256,bytes,bytes)[],address)",
      "arguments": [
        "[(0x2e2B1c42E38f5af81771e65D87729E57ABD1337a, 4730, 0x, 0xb61d27f600000000000000000000000026181dfc530d96523350e895180b09baf3d816a00000000000000000000000000000000000000000000000000000000000000000000000000000000000000000000000000000000000000000000000000000006000000000000000000000000000000000000000000000000000000000000000c430d9bd040000000000000000000000000000000000000000000000000000000000000040000000000000000000000000000000000000000000000000000000000000008000000000000000000000000000000000000000000000000000000000000000010000000000000000000000003de040ef2fbf9158badf559c5606d7706ca723090000000000000000000000000000000000000000000000000000000000000001000000000000000000000000000000000000000000000000000000000000000100000000000000000000000000000000000000000000000000000000, 4000000, 210000, 21000, 1, 1000000000, 0x0000000000000000000000000000000000000000, 0xd7b58d19323883b7110d2ff80027b1e78d6b31db47fc13a1d143d0d9f7f9c66a46fb3059bf59a97ead5ecb70a993afe8e626777ec6c7fd2f2b511f3ed5edf3a81c774d8c13ff23c613167cf691bb5e0c138e1f3059cbf1a692e2791b84cbba7946221ab8344964920233dd26ad8fb012186e1bbaa4fab439345550eae20b9e815f1c)]",
        "0x660ad4B5A74130a4796B4d54BC6750Ae93C86e6c"
      ],
      "transaction": {
        "from": "0x660ad4b5a74130a4796b4d54bc6750ae93c86e6c",
        "to": "0x2843c269d2a64ecfa63548e8b3fc0fd23b7f70cb",
        "gas": "0x6b74d4",
        "value": "0x0",
        "input": "0x1fad948c0000000000000000000000000000000000000000000000000000000000000040000000000000000000000000660ad4b5a74130a4796b4d54bc6750ae93c86e6c000000000000000000000000000000000000000000000000000000000000000100000000000000000000000000000000000000000000000000000000000000200000000000000000000000002e2b1c42e38f5af81771e65d87729e57abd1337a000000000000000000000000000000000000000000000000000000000000127a0000000000000000000000000000000000000000000000000000000000000160000000000000000000000000000000000000000000000000000000000000018000000000000000000000000000000000000000000000000000000000003d0900000000000000000000000000000000000000000000000000000000000003345000000000000000000000000000000000000000000000000000000000000052080000000000000000000000000000000000000000000000000000000000000001000000000000000000000000000000000000000000000000000000003b9aca000000000000000000000000000000000000000000000000000000000000000320000000000000000000000000000000000000000000000000000000000000036000000000000000000000000000000000000000000000000000000000000000000000000000000000000000000000000000000000000000000000000000000164b61d27f600000000000000000000000026181dfc530d96523350e895180b09baf3d816a00000000000000000000000000000000000000000000000000000000000000000000000000000000000000000000000000000000000000000000000000000006000000000000000000000000000000000000000000000000000000000000000c430d9bd040000000000000000000000000000000000000000000000000000000000000040000000000000000000000000000000000000000000000000000000000000008000000000000000000000000000000000000000000000000000000000000000010000000000000000000000003de040ef2fbf9158badf559c5606d7706ca72309000000000000000000000000000000000000000000000000000000000000000100000000000000000000000000000000000000000000000000000000000000010000000000000000000000000000000000000000000000000000000000000000000000000000000000000000000000000000000000000000000000000000000000000000000000000000000000000000000000000000001400000000000000000000000000000000000000000000000000000000000000000000000000000000000000000000000000000000000000000000000000000082d7b58d19323883b7110d2ff80027b1e78d6b31db47fc13a1d143d0d9f7f9c66a46fb3059bf59a97ead5ecb70a993afe8e626777ec6c7fd2f2b511f3ed5edf3a81c774d8c13ff23c613167cf691bb5e0c138e1f3059cbf1a692e2791b84cbba7946221ab8344964920233dd26ad8fb012186e1bbaa4fab439345550eae20b9e815f1c000000000000000000000000000000000000000000000000000000000000",
        "nonce": "0x4bdf1",
        "chainId": "0x1ecf"
      },
      "additionalContracts": [],
      "isFixedGasLimit": false
    }
  ],
  "receipts": [
    {
      "status": "0x1",
      "cumulativeGasUsed": "0x36a4b",
      "logs": [
        {
          "address": "0x2843c269d2a64ecfa63548e8b3fc0fd23b7f70cb",
          "topics": [
            "0xbb47ee3e183a558b1a2ff0874b079f3fc5478b7454eacf2bfc5af2ff5878f972"
          ],
          "data": "0x",
          "blockHash": "0xa0f9ba3c1dd0c4a7154faeee86f8a383f67a5d91819c425d58587dac66cd62c3",
          "blockNumber": "0xbf72d",
          "transactionHash": "0x59c9dda460e7cad508e221c532636f6bab12c72b84445dd36b6a416b1023a71e",
          "transactionIndex": "0x1",
          "logIndex": "0x0",
          "removed": false
        },
        {
          "address": "0x26181dfc530d96523350e895180b09baf3d816a0",
          "topics": [
            "0x450fa36031cd2ac24da0a5a12e84a04ef6fe8a5730ee08ee3adb786de1705149",
            "0x99f365329fd216803e4b61ab3a29cc07a63390fc6d3d2649f17a170394722da3"
          ],
          "data": "0x000000000000000000000000000000000000000000000000000000000000002000000000000000000000000000000000000000000000000000000000000000010000000000000000000000000000000000000000000000000000000000000001",
          "blockHash": "0xa0f9ba3c1dd0c4a7154faeee86f8a383f67a5d91819c425d58587dac66cd62c3",
          "blockNumber": "0xbf72d",
          "transactionHash": "0x59c9dda460e7cad508e221c532636f6bab12c72b84445dd36b6a416b1023a71e",
          "transactionIndex": "0x1",
          "logIndex": "0x1",
          "removed": false
        },
        {
          "address": "0x2843c269d2a64ecfa63548e8b3fc0fd23b7f70cb",
          "topics": [
            "0x49628fd1471006c1482da88028e9ce4dbb080b815c9b0344d39e5a8e6ec1419f",
            "0x49ef1fe8a37140d7d7769b6a3267db5417c792716d3f6875200f3a1457208f96",
            "0x0000000000000000000000002e2b1c42e38f5af81771e65d87729e57abd1337a",
            "0x0000000000000000000000000000000000000000000000000000000000000000"
          ],
          "data": "0x000000000000000000000000000000000000000000000000000000000000127a0000000000000000000000000000000000000000000000000000000000000001000000000000000000000000000000000000000000000000000000000008ef29000000000000000000000000000000000000000000000000000000000008ef29",
          "blockHash": "0xa0f9ba3c1dd0c4a7154faeee86f8a383f67a5d91819c425d58587dac66cd62c3",
          "blockNumber": "0xbf72d",
          "transactionHash": "0x59c9dda460e7cad508e221c532636f6bab12c72b84445dd36b6a416b1023a71e",
          "transactionIndex": "0x1",
          "logIndex": "0x2",
          "removed": false
        }
      ],
      "logsBloom": "0x00000000000000000000000000000000000080000000000000000080000000000008000000000000000000010000000000000000000000000080020000000000000000000000000000000000008000000000000000000000000000000000000800000000020000000000000000001800002000800000000000000000000000000000080080040000000000000000800000000000000000000000000000000000000400000010800000400000000000000000000000000000000082000000000000000000000000100001000000000000000000000000000000000000000020000000000000010000000000000000000000000000000000000000000000000000",
      "type": "0x2",
      "transactionHash": "0x59c9dda460e7cad508e221c532636f6bab12c72b84445dd36b6a416b1023a71e",
      "transactionIndex": "0x1",
      "blockHash": "0xa0f9ba3c1dd0c4a7154faeee86f8a383f67a5d91819c425d58587dac66cd62c3",
      "blockNumber": "0xbf72d",
      "gasUsed": "0x36a4b",
      "effectiveGasPrice": "0x5f5e100",
      "from": "0x660ad4b5a74130a4796b4d54bc6750ae93c86e6c",
      "to": "0x2843c269d2a64ecfa63548e8b3fc0fd23b7f70cb",
      "contractAddress": null,
      "gasUsedForL1": "0xb45",
      "l1BlockNumber": "0x151f35b"
    }
  ],
  "libraries": [],
  "pending": [],
  "returns": {},
  "timestamp": 1743195371,
  "chain": 7887,
  "commit": "d508ac78"
}