{
  "transactions": [
    {
      "hash": "0x41be1d033e194be1a228da6b10cb8f982a77a15c8120c21d0b2c59e0c5ce642a",
      "transactionType": "CALL",
      "contractName": null,
      "contractAddress": "0x2843c269d2a64ecfa63548e8b3fc0fd23b7f70cb",
      "function": "handleOps((address,uint256,bytes,bytes,uint256,uint256,uint256,uint256,uint256,bytes,bytes)[],address)",
      "arguments": [
        "[(0x2e2B1c42E38f5af81771e65D87729E57ABD1337a, 4382, 0x, 0xb61d27f600000000000000000000000026181dfc530d96523350e895180b09baf3d816a0000000000000000000000000000000000000000000000000000000000000000000000000000000000000000000000000000000000000000000000000000000600000000000000000000000000000000000000000000000000000000000000a8430d9bd04000000000000000000000000000000000000000000000000000000000000004000000000000000000000000000000000000000000000000000000000000005600000000000000000000000000000000000000000000000000000000000000028000000000000000000000000abc64e84c653e0f077c0178e4b1fac01bfcc20b0000000000000000000000000db09c7c2c4071e3ca1bad0c357906efa17c251020000000000000000000000007d4e3628c3dece7ba053c296eea3729318f93715000000000000000000000000fe6e2862ef74adf306aacd575eaf5f45281b1017000000000000000000000000342f5ba3230f6d1e32aa775440bdcb93647dd4cd0000000000000000000000004c9c64b2fae0e13df9a635ad699c5efc386d1cee000000000000000000000000345b2061ea8256689349fca968cf7af0ff6011aa0000000000000000000000008d23e5ba32ca80809d60ed70ddbd96e6b3d6101500000000000000000000000028a6468de32690f63d8095e8980b43ab48f9470c000000000000000000000000ce2fc6c6bfcf04f2f857338ecf6004381f414926000000000000000000000000e3f4c9cca8ea855497d63800befb43f290ac78c6000000000000000000000000c7fca8ab6d1e1142790454e7e5655d93c3b03ed600000000000000000000000024f287b474a05e48627846148ccda3d05de03953000000000000000000000000a2a13094bab725d6d9dd8b9b5c01f1a1bf67f986000000000000000000000000e1857425c14afe4142ce4df1ecb3439f194d5d1b00000000000000000000000090128652cf49a44f0374d0ee7d3782df59e72a8c000000000000000000000000d17b43d94f0bf2960d285e89de5b9a8369e3ed5b000000000000000000000000f5d3d976872e01b7b7af7964ca9cf4d9925847260000000000000000000000007da5691fb59740cf02cc7dc16743be9dcbf685b5000000000000000000000000e5b6205cfc03786fc554c40767a591b8dcbc1e76000000000000000000000000a968c2771d5e984979589ef8f6fa59d5818a208f000000000000000000000000bba40ecf76e13219d3b17b730a4be2136918e91e0000000000000000000000009119d9d07ff1feb8cd902a05603f6596d4a0d75400000000000000000000000050291565834df33346103e1ff1dd5e0b19402443000000000000000000000000ae7f260b74f289ab3701fb01cbf81bcd764542220000000000000000000000005324a41fac86c0d6cd301b3144124fd3c399fd8700000000000000000000000004481a364acfd0776a30a6731d9ee5425b9300ea000000000000000000000000d0d4cdb49dda0f9b4785b3823eedaa84b84afad900000000000000000000000019e5c67db27284907978f4fd856403346816bf870000000000000000000000005f40795576557877d0fed93b5a9ea8a1959248620000000000000000000000002d82862810e1b040b8ea419dc309572364e574e700000000000000000000000045113356a5b8b1ba8a8bc75dcaac42be066638800000000000000000000000008cd4725d32ccfb201a25f1e1a18260e53f37c927000000000000000000000000b0fc8b7fb66958fe813475bbdc91c1ac75725442000000000000000000000000ca7e797319b83a3d7bc9ac18e449e9df9e2ba547000000000000000000000000d1dae5b7256fe762edabda7ff051f036a868b4f7000000000000000000000000e897bdc146f5f2c986d547d07e6da55074fccd7b0000000000000000000000007799b5f05d75dece15d85507875879cedc62e16e0000000000000000000000000b61e51cbcfd6a9f7a03c413731b0bbb378eb6d4000000000000000000000000c27a019dd349c52b0af2195303d3cd0528ed29dc0000000000000000000000000000000000000000000000000000000000000028000000000000000000000000000000000000000000000000000000000000000100000000000000000000000000000000000000000000000000000000000000010000000000000000000000000000000000000000000000000000000000000001000000000000000000000000000000000000000000000000000000000000000100000000000000000000000000000000000000000000000000000000000000010000000000000000000000000000000000000000000000000000000000000001000000000000000000000000000000000000000000000000000000000000000100000000000000000000000000000000000000000000000000000000000000010000000000000000000000000000000000000000000000000000000000000001000000000000000000000000000000000000000000000000000000000000000100000000000000000000000000000000000000000000000000000000000000010000000000000000000000000000000000000000000000000000000000000001000000000000000000000000000000000000000000000000000000000000000100000000000000000000000000000000000000000000000000000000000000010000000000000000000000000000000000000000000000000000000000000001000000000000000000000000000000000000000000000000000000000000000100000000000000000000000000000000000000000000000000000000000000010000000000000000000000000000000000000000000000000000000000000001000000000000000000000000000000000000000000000000000000000000000100000000000000000000000000000000000000000000000000000000000000010000000000000000000000000000000000000000000000000000000000000001000000000000000000000000000000000000000000000000000000000000000100000000000000000000000000000000000000000000000000000000000000010000000000000000000000000000000000000000000000000000000000000001000000000000000000000000000000000000000000000000000000000000000100000000000000000000000000000000000000000000000000000000000000010000000000000000000000000000000000000000000000000000000000000001000000000000000000000000000000000000000000000000000000000000000100000000000000000000000000000000000000000000000000000000000000010000000000000000000000000000000000000000000000000000000000000001000000000000000000000000000000000000000000000000000000000000000100000000000000000000000000000000000000000000000000000000000000010000000000000000000000000000000000000000000000000000000000000001000000000000000000000000000000000000000000000000000000000000000100000000000000000000000000000000000000000000000000000000000000010000000000000000000000000000000000000000000000000000000000000001000000000000000000000000000000000000000000000000000000000000000100000000000000000000000000000000000000000000000000000000000000010000000000000000000000000000000000000000000000000000000000000001000000000000000000000000000000000000000000000000000000000000000100000000000000000000000000000000000000000000000000000000, 4000000, 210000, 21000, 1, 1000000000, 0x0000000000000000000000000000000000000000, 0xf9e70b0ae088c54d50301814f5ba48cec8157a5db199e0810b1a408adbf43eca0123b0ae5a14b09995577c0f224dd1cd3de6553d2ee7c212e3b566744b98582c1cd26b94641cb6f1b0f57dec152ef0274f8e5ace50411f9b19bc7eb4c0a2de3cad71728eebcdb99efaf1955ff4829c2122332a69e479f69aef9146cecf8c1924c01c)]",
        "0x660ad4B5A74130a4796B4d54BC6750Ae93C86e6c"
      ],
      "transaction": {
        "from": "0x660ad4b5a74130a4796b4d54bc6750ae93c86e6c",
        "to": "0x2843c269d2a64ecfa63548e8b3fc0fd23b7f70cb",
        "gas": "0x42172fe",
        "value": "0x0",
        "input": "0x1fad948c0000000000000000000000000000000000000000000000000000000000000040000000000000000000000000660ad4b5a74130a4796b4d54bc6750ae93c86e6c000000000000000000000000000000000000000000000000000000000000000100000000000000000000000000000000000000000000000000000000000000200000000000000000000000002e2b1c42e38f5af81771e65d87729e57abd1337a000000000000000000000000000000000000000000000000000000000000111e0000000000000000000000000000000000000000000000000000000000000160000000000000000000000000000000000000000000000000000000000000018000000000000000000000000000000000000000000000000000000000003d0900000000000000000000000000000000000000000000000000000000000003345000000000000000000000000000000000000000000000000000000000000052080000000000000000000000000000000000000000000000000000000000000001000000000000000000000000000000000000000000000000000000003b9aca000000000000000000000000000000000000000000000000000000000000000ce00000000000000000000000000000000000000000000000000000000000000d2000000000000000000000000000000000000000000000000000000000000000000000000000000000000000000000000000000000000000000000000000000b24b61d27f600000000000000000000000026181dfc530d96523350e895180b09baf3d816a0000000000000000000000000000000000000000000000000000000000000000000000000000000000000000000000000000000000000000000000000000000600000000000000000000000000000000000000000000000000000000000000a8430d9bd04000000000000000000000000000000000000000000000000000000000000004000000000000000000000000000000000000000000000000000000000000005600000000000000000000000000000000000000000000000000000000000000028000000000000000000000000abc64e84c653e0f077c0178e4b1fac01bfcc20b0000000000000000000000000db09c7c2c4071e3ca1bad0c357906efa17c251020000000000000000000000007d4e3628c3dece7ba053c296eea3729318f93715000000000000000000000000fe6e2862ef74adf306aacd575eaf5f45281b1017000000000000000000000000342f5ba3230f6d1e32aa775440bdcb93647dd4cd0000000000000000000000004c9c64b2fae0e13df9a635ad699c5efc386d1cee000000000000000000000000345b2061ea8256689349fca968cf7af0ff6011aa0000000000000000000000008d23e5ba32ca80809d60ed70ddbd96e6b3d6101500000000000000000000000028a6468de32690f63d8095e8980b43ab48f9470c000000000000000000000000ce2fc6c6bfcf04f2f857338ecf6004381f414926000000000000000000000000e3f4c9cca8ea855497d63800befb43f290ac78c6000000000000000000000000c7fca8ab6d1e1142790454e7e5655d93c3b03ed600000000000000000000000024f287b474a05e48627846148ccda3d05de03953000000000000000000000000a2a13094bab725d6d9dd8b9b5c01f1a1bf67f986000000000000000000000000e1857425c14afe4142ce4df1ecb3439f194d5d1b00000000000000000000000090128652cf49a44f0374d0ee7d3782df59e72a8c000000000000000000000000d17b43d94f0bf2960d285e89de5b9a8369e3ed5b000000000000000000000000f5d3d976872e01b7b7af7964ca9cf4d9925847260000000000000000000000007da5691fb59740cf02cc7dc16743be9dcbf685b5000000000000000000000000e5b6205cfc03786fc554c40767a591b8dcbc1e76000000000000000000000000a968c2771d5e984979589ef8f6fa59d5818a208f000000000000000000000000bba40ecf76e13219d3b17b730a4be2136918e91e0000000000000000000000009119d9d07ff1feb8cd902a05603f6596d4a0d75400000000000000000000000050291565834df33346103e1ff1dd5e0b19402443000000000000000000000000ae7f260b74f289ab3701fb01cbf81bcd764542220000000000000000000000005324a41fac86c0d6cd301b3144124fd3c399fd8700000000000000000000000004481a364acfd0776a30a6731d9ee5425b9300ea000000000000000000000000d0d4cdb49dda0f9b4785b3823eedaa84b84afad900000000000000000000000019e5c67db27284907978f4fd856403346816bf870000000000000000000000005f40795576557877d0fed93b5a9ea8a1959248620000000000000000000000002d82862810e1b040b8ea419dc309572364e574e700000000000000000000000045113356a5b8b1ba8a8bc75dcaac42be066638800000000000000000000000008cd4725d32ccfb201a25f1e1a18260e53f37c927000000000000000000000000b0fc8b7fb66958fe813475bbdc91c1ac75725442000000000000000000000000ca7e797319b83a3d7bc9ac18e449e9df9e2ba547000000000000000000000000d1dae5b7256fe762edabda7ff051f036a868b4f7000000000000000000000000e897bdc146f5f2c986d547d07e6da55074fccd7b0000000000000000000000007799b5f05d75dece15d85507875879cedc62e16e0000000000000000000000000b61e51cbcfd6a9f7a03c413731b0bbb378eb6d4000000000000000000000000c27a019dd349c52b0af2195303d3cd0528ed29dc000000000000000000000000000000000000000000000000000000000000002800000000000000000000000000000000000000000000000000000000000000010000000000000000000000000000000000000000000000000000000000000001000000000000000000000000000000000000000000000000000000000000000100000000000000000000000000000000000000000000000000000000000000010000000000000000000000000000000000000000000000000000000000000001000000000000000000000000000000000000000000000000000000000000000100000000000000000000000000000000000000000000000000000000000000010000000000000000000000000000000000000000000000000000000000000001000000000000000000000000000000000000000000000000000000000000000100000000000000000000000000000000000000000000000000000000000000010000000000000000000000000000000000000000000000000000000000000001000000000000000000000000000000000000000000000000000000000000000100000000000000000000000000000000000000000000000000000000000000010000000000000000000000000000000000000000000000000000000000000001000000000000000000000000000000000000000000000000000000000000000100000000000000000000000000000000000000000000000000000000000000010000000000000000000000000000000000000000000000000000000000000001000000000000000000000000000000000000000000000000000000000000000100000000000000000000000000000000000000000000000000000000000000010000000000000000000000000000000000000000000000000000000000000001000000000000000000000000000000000000000000000000000000000000000100000000000000000000000000000000000000000000000000000000000000010000000000000000000000000000000000000000000000000000000000000001000000000000000000000000000000000000000000000000000000000000000100000000000000000000000000000000000000000000000000000000000000010000000000000000000000000000000000000000000000000000000000000001000000000000000000000000000000000000000000000000000000000000000100000000000000000000000000000000000000000000000000000000000000010000000000000000000000000000000000000000000000000000000000000001000000000000000000000000000000000000000000000000000000000000000100000000000000000000000000000000000000000000000000000000000000010000000000000000000000000000000000000000000000000000000000000001000000000000000000000000000000000000000000000000000000000000000100000000000000000000000000000000000000000000000000000000000000010000000000000000000000000000000000000000000000000000000000000001000000000000000000000000000000000000000000000000000000000000000100000000000000000000000000000000000000000000000000000000000000010000000000000000000000000000000000000000000000000000000000000001000000000000000000000000000000000000000000000000000000000000000100000000000000000000000000000000000000000000000000000000000000010000000000000000000000000000000000000000000000000000000000000000000000000000000000000000000000000000000000000000000000000000000000000000000000000000000000000000000000000000001400000000000000000000000000000000000000000000000000000000000000000000000000000000000000000000000000000000000000000000000000000082f9e70b0ae088c54d50301814f5ba48cec8157a5db199e0810b1a408adbf43eca0123b0ae5a14b09995577c0f224dd1cd3de6553d2ee7c212e3b566744b98582c1cd26b94641cb6f1b0f57dec152ef0274f8e5ace50411f9b19bc7eb4c0a2de3cad71728eebcdb99efaf1955ff4829c2122332a69e479f69aef9146cecf8c1924c01c000000000000000000000000000000000000000000000000000000000000",
        "nonce": "0x4bc34",
        "chainId": "0x1ecf"
      },
      "additionalContracts": [],
      "isFixedGasLimit": false
    }
  ],
  "receipts": [
    {
      "status": "0x1",
      "cumulativeGasUsed": "0x2ecc8a",
      "logs": [
        {
          "address": "0x2843c269d2a64ecfa63548e8b3fc0fd23b7f70cb",
          "topics": [
            "0xbb47ee3e183a558b1a2ff0874b079f3fc5478b7454eacf2bfc5af2ff5878f972"
          ],
          "data": "0x",
          "blockHash": "0x2389538d452e854eb41e1f514e6e5afbc57c1cc1c274874f863cc9c8967d0a05",
          "blockNumber": "0xac020",
          "transactionHash": "0x41be1d033e194be1a228da6b10cb8f982a77a15c8120c21d0b2c59e0c5ce642a",
          "transactionIndex": "0x1",
          "logIndex": "0x0",
          "removed": false
        },
        {
          "address": "0x26181dfc530d96523350e895180b09baf3d816a0",
          "topics": [
            "0x450fa36031cd2ac24da0a5a12e84a04ef6fe8a5730ee08ee3adb786de1705149",
            "0x59d75d8db3621b10edaa996215485d41339435cce3af040053591b59781a7247"
          ],
          "data": "0x000000000000000000000000000000000000000000000000000000000000002000000000000000000000000000000000000000000000000000000000000000280000000000000000000000000000000000000000000000000000000000000001000000000000000000000000000000000000000000000000000000000000000100000000000000000000000000000000000000000000000000000000000000010000000000000000000000000000000000000000000000000000000000000001000000000000000000000000000000000000000000000000000000000000000100000000000000000000000000000000000000000000000000000000000000010000000000000000000000000000000000000000000000000000000000000001000000000000000000000000000000000000000000000000000000000000000100000000000000000000000000000000000000000000000000000000000000010000000000000000000000000000000000000000000000000000000000000001000000000000000000000000000000000000000000000000000000000000000100000000000000000000000000000000000000000000000000000000000000010000000000000000000000000000000000000000000000000000000000000001000000000000000000000000000000000000000000000000000000000000000100000000000000000000000000000000000000000000000000000000000000010000000000000000000000000000000000000000000000000000000000000001000000000000000000000000000000000000000000000000000000000000000100000000000000000000000000000000000000000000000000000000000000010000000000000000000000000000000000000000000000000000000000000001000000000000000000000000000000000000000000000000000000000000000100000000000000000000000000000000000000000000000000000000000000010000000000000000000000000000000000000000000000000000000000000001000000000000000000000000000000000000000000000000000000000000000100000000000000000000000000000000000000000000000000000000000000010000000000000000000000000000000000000000000000000000000000000001000000000000000000000000000000000000000000000000000000000000000100000000000000000000000000000000000000000000000000000000000000010000000000000000000000000000000000000000000000000000000000000001000000000000000000000000000000000000000000000000000000000000000100000000000000000000000000000000000000000000000000000000000000010000000000000000000000000000000000000000000000000000000000000001000000000000000000000000000000000000000000000000000000000000000100000000000000000000000000000000000000000000000000000000000000010000000000000000000000000000000000000000000000000000000000000001000000000000000000000000000000000000000000000000000000000000000100000000000000000000000000000000000000000000000000000000000000010000000000000000000000000000000000000000000000000000000000000001000000000000000000000000000000000000000000000000000000000000000100000000000000000000000000000000000000000000000000000000000000010000000000000000000000000000000000000000000000000000000000000001",
          "blockHash": "0x2389538d452e854eb41e1f514e6e5afbc57c1cc1c274874f863cc9c8967d0a05",
          "blockNumber": "0xac020",
          "transactionHash": "0x41be1d033e194be1a228da6b10cb8f982a77a15c8120c21d0b2c59e0c5ce642a",
          "transactionIndex": "0x1",
          "logIndex": "0x1",
          "removed": false
        },
        {
          "address": "0x2843c269d2a64ecfa63548e8b3fc0fd23b7f70cb",
          "topics": [
            "0x49628fd1471006c1482da88028e9ce4dbb080b815c9b0344d39e5a8e6ec1419f",
            "0xc235e308719d79177df8e2b7c433c99b649f869218ac39712c62b1227f8f0d00",
            "0x0000000000000000000000002e2b1c42e38f5af81771e65d87729e57abd1337a",
            "0x0000000000000000000000000000000000000000000000000000000000000000"
          ],
          "data": "0x000000000000000000000000000000000000000000000000000000000000111e0000000000000000000000000000000000000000000000000000000000000001000000000000000000000000000000000000000000000000000000000021d1d8000000000000000000000000000000000000000000000000000000000021d1d8",
          "blockHash": "0x2389538d452e854eb41e1f514e6e5afbc57c1cc1c274874f863cc9c8967d0a05",
          "blockNumber": "0xac020",
          "transactionHash": "0x41be1d033e194be1a228da6b10cb8f982a77a15c8120c21d0b2c59e0c5ce642a",
          "transactionIndex": "0x1",
          "logIndex": "0x2",
          "removed": false
        }
      ],
      "logsBloom": "0x00000000000000000000000000000000000080040000000000000080000000000008000000000000000000010000000000000000000000000080020000000000000000000000000000000000000002000000000000040000000000000000000800000000020000000000000000001800002000000000000000000000000000000000000080040000020000000000800000000000000000000000000000000000000400000000000000400000000000000000000000000000010002000000000000000000000000120001000000000000000000000000000000000000000020000000000000010000000000000000000000000000000000000000000000000000",
      "type": "0x2",
      "transactionHash": "0x41be1d033e194be1a228da6b10cb8f982a77a15c8120c21d0b2c59e0c5ce642a",
      "transactionIndex": "0x1",
      "blockHash": "0x2389538d452e854eb41e1f514e6e5afbc57c1cc1c274874f863cc9c8967d0a05",
      "blockNumber": "0xac020",
      "gasUsed": "0x2ecc8a",
      "effectiveGasPrice": "0x5f5e100",
      "from": "0x660ad4b5a74130a4796b4d54bc6750ae93c86e6c",
      "to": "0x2843c269d2a64ecfa63548e8b3fc0fd23b7f70cb",
      "contractAddress": null,
      "gasUsedForL1": "0xf7797",
      "l1BlockNumber": "0x14a4d33"
    }
  ],
  "libraries": [],
  "pending": [],
  "returns": {},
  "timestamp": 1737146206,
  "chain": 7887,
  "commit": "164f36d"
}