{
  "transactions": [
    {
      "hash": "0xcbfe142a49e3dab536a5ad6786c8a20cdf3e66c714fe6e752f40d0d7048e347c",
      "transactionType": "CALL",
      "contractName": null,
      "contractAddress": "0x2843c269d2a64ecfa63548e8b3fc0fd23b7f70cb",
      "function": "handleOps((address,uint256,bytes,bytes,uint256,uint256,uint256,uint256,uint256,bytes,bytes)[],address)",
      "arguments": [
        "[(0x2e2B1c42E38f5af81771e65D87729E57ABD1337a, 4477, 0x, 0xb61d27f60000000000000000000000005a1e00884e35bf2dc39af51712d08bef24b1817f0000000000000000000000000000000000000000000000000000000000000000000000000000000000000000000000000000000000000000000000000000006000000000000000000000000000000000000000000000000000000000000000247cb647598adcb0c74de81606baa2c3dc7106096a65b4bc707b113e78538de70b5b3112b500000000000000000000000000000000000000000000000000000000, 4000000, 210000, 21000, 1, 1000000000, 0x0000000000000000000000000000000000000000, 0x93935bbb55922f8313323d39fc62075178d8c30bead5c651f37f681691bbf8d11ea55772b0e4e4facbe79f1f4010090002be699b7710bfb1ef260568d399ecbb1c)]",
        "0x660ad4B5A74130a4796B4d54BC6750Ae93C86e6c"
      ],
      "transaction": {
        "from": "0x660ad4b5a74130a4796b4d54bc6750ae93c86e6c",
        "to": "0x2843c269d2a64ecfa63548e8b3fc0fd23b7f70cb",
        "value": "0x0",
        "input": "0x1fad948c0000000000000000000000000000000000000000000000000000000000000040000000000000000000000000660ad4b5a74130a4796b4d54bc6750ae93c86e6c000000000000000000000000000000000000000000000000000000000000000100000000000000000000000000000000000000000000000000000000000000200000000000000000000000002e2b1c42e38f5af81771e65d87729e57abd1337a000000000000000000000000000000000000000000000000000000000000117d0000000000000000000000000000000000000000000000000000000000000160000000000000000000000000000000000000000000000000000000000000018000000000000000000000000000000000000000000000000000000000003d0900000000000000000000000000000000000000000000000000000000000003345000000000000000000000000000000000000000000000000000000000000052080000000000000000000000000000000000000000000000000000000000000001000000000000000000000000000000000000000000000000000000003b9aca00000000000000000000000000000000000000000000000000000000000000028000000000000000000000000000000000000000000000000000000000000002c0000000000000000000000000000000000000000000000000000000000000000000000000000000000000000000000000000000000000000000000000000000c4b61d27f60000000000000000000000005a1e00884e35bf2dc39af51712d08bef24b1817f0000000000000000000000000000000000000000000000000000000000000000000000000000000000000000000000000000000000000000000000000000006000000000000000000000000000000000000000000000000000000000000000247cb647598adcb0c74de81606baa2c3dc7106096a65b4bc707b113e78538de70b5b3112b5000000000000000000000000000000000000000000000000000000000000000000000000000000000000000000000000000000000000000000000000000000000000000000000000000000000000000000000000000000140000000000000000000000000000000000000000000000000000000000000000000000000000000000000000000000000000000000000000000000000000004193935bbb55922f8313323d39fc62075178d8c30bead5c651f37f681691bbf8d11ea55772b0e4e4facbe79f1f4010090002be699b7710bfb1ef260568d399ecbb1c00000000000000000000000000000000000000000000000000000000000000",
        "nonce": "0x4bcd5",
        "chainId": "0x1ecf"
      },
      "additionalContracts": [],
      "isFixedGasLimit": false
    }
  ],
  "receipts": [
    {
      "status": "0x1",
      "cumulativeGasUsed": "0x44826",
      "logs": [
        {
          "address": "0x2843c269d2a64ecfa63548e8b3fc0fd23b7f70cb",
          "topics": [
            "0xbb47ee3e183a558b1a2ff0874b079f3fc5478b7454eacf2bfc5af2ff5878f972"
          ],
          "data": "0x",
          "blockHash": "0x80fae961d441306fd53333a94753525cd6891d98f1a43cd53dae13668c59bb0e",
          "blockNumber": "0xb7e13",
          "transactionHash": "0xcbfe142a49e3dab536a5ad6786c8a20cdf3e66c714fe6e752f40d0d7048e347c",
          "transactionIndex": "0x1",
          "logIndex": "0x0",
          "removed": false
        },
        {
          "address": "0x5a1e00884e35bf2dc39af51712d08bef24b1817f",
          "topics": [
            "0x42cbc405e4dbf1b691e85b9a34b08ecfcf7a9ad9078bf4d645ccfa1fac11c10b"
          ],
          "data": "0x8adcb0c74de81606baa2c3dc7106096a65b4bc707b113e78538de70b5b3112b5",
          "blockHash": "0x80fae961d441306fd53333a94753525cd6891d98f1a43cd53dae13668c59bb0e",
          "blockNumber": "0xb7e13",
          "transactionHash": "0xcbfe142a49e3dab536a5ad6786c8a20cdf3e66c714fe6e752f40d0d7048e347c",
          "transactionIndex": "0x1",
          "logIndex": "0x1",
          "removed": false
        },
        {
          "address": "0x2843c269d2a64ecfa63548e8b3fc0fd23b7f70cb",
          "topics": [
            "0x49628fd1471006c1482da88028e9ce4dbb080b815c9b0344d39e5a8e6ec1419f",
            "0x34396e0c8258a9221fb1a434ba11124bb6acd2f50cc450c65796f90d978b570b",
            "0x0000000000000000000000002e2b1c42e38f5af81771e65d87729e57abd1337a",
            "0x0000000000000000000000000000000000000000000000000000000000000000"
          ],
          "data": "0x000000000000000000000000000000000000000000000000000000000000117d000000000000000000000000000000000000000000000000000000000000000100000000000000000000000000000000000000000000000000000000000850ad00000000000000000000000000000000000000000000000000000000000850ad",
          "blockHash": "0x80fae961d441306fd53333a94753525cd6891d98f1a43cd53dae13668c59bb0e",
          "blockNumber": "0xb7e13",
          "transactionHash": "0xcbfe142a49e3dab536a5ad6786c8a20cdf3e66c714fe6e752f40d0d7048e347c",
          "transactionIndex": "0x1",
          "logIndex": "0x2",
          "removed": false
        }
      ],
      "logsBloom": "0x00000000000000000000000000000000000000000000000000000000000000000408002000000000000200010000000000000000000000000000020000000000000000000000004000000000004000000000000000000000000000000000000800000000020000000000000000000800002000000000000000000000000000000000000000000000000000000000800000000000000000000000000010000020000400000000000000400010000000000000000000000000000002000000000000000000000000100001000000000000000000000000000000000000000020000000000000010000040000000000000000000000000000000000000000000000",
      "type": "0x2",
      "transactionHash": "0xcbfe142a49e3dab536a5ad6786c8a20cdf3e66c714fe6e752f40d0d7048e347c",
      "transactionIndex": "0x1",
      "blockHash": "0x80fae961d441306fd53333a94753525cd6891d98f1a43cd53dae13668c59bb0e",
      "blockNumber": "0xb7e13",
      "gasUsed": "0x44826",
      "effectiveGasPrice": "0x5f5e100",
      "from": "0x660ad4b5a74130a4796b4d54bc6750ae93c86e6c",
      "to": "0x2843c269d2a64ecfa63548e8b3fc0fd23b7f70cb",
      "contractAddress": null,
      "gasUsedForL1": "0x1993e",
      "l1BlockNumber": "0x14e201d"
    }
  ],
  "libraries": [],
  "pending": [],
  "returns": {},
  "timestamp": 1740171435,
  "chain": 7887,
  "commit": "574397c"
}