{
  "transactions": [
    {
      "hash": "0x0a95170a641e3de91fbd45bd6323a4d9e6b3bfed03ec27ef670fab9dfbaca3c8",
      "transactionType": "CALL",
      "contractName": null,
      "contractAddress": "0x2843c269d2a64ecfa63548e8b3fc0fd23b7f70cb",
      "function": "handleOps((address,uint256,bytes,bytes,uint256,uint256,uint256,uint256,uint256,bytes,bytes)[],address)",
      "arguments": [
        "[(0x2e2B1c42E38f5af81771e65D87729E57ABD1337a, 4617, 0x, 0xb61d27f6000000000000000000000000acc000818e5bbd911d5d449aa81cb5ca24024739000000000000000000000000000000000000000000000000000000000000000000000000000000000000000000000000000000000000000000000000000000600000000000000000000000000000000000000000000000000000000000000044d22b59890000000000000000000000005a2b641b84b0230c8e75f55d5afd27f4dbd59d5b0000000000000000000000000000000000000000000000000000000000093a8000000000000000000000000000000000000000000000000000000000, 4000000, 210000, 21000, 1, 1000000000, 0x0000000000000000000000000000000000000000, 0x5efa55cb3e64e11b1fb3077d2abde5dc8f4922934755d685ab1b7d266479279b2ce9ef516bebcd4a17448cb09bd31e654ab426e3f6fd9b4bbe3fbd54570f47cd1c2a3548d2535883f1e6fd3bfa3f4f8a719a2938a4a269813761abdb5b33f4da28321b7e291c3d246923c43f2408bc4ade63d77c8267992385712e7e624f5f5e441c)]",
        "0x660ad4B5A74130a4796B4d54BC6750Ae93C86e6c"
      ],
      "transaction": {
        "from": "0x660ad4b5a74130a4796b4d54bc6750ae93c86e6c",
        "to": "0x2843c269d2a64ecfa63548e8b3fc0fd23b7f70cb",
        "value": "0x0",
        "input": "0x1fad948c0000000000000000000000000000000000000000000000000000000000000040000000000000000000000000660ad4b5a74130a4796b4d54bc6750ae93c86e6c000000000000000000000000000000000000000000000000000000000000000100000000000000000000000000000000000000000000000000000000000000200000000000000000000000002e2b1c42e38f5af81771e65d87729e57abd1337a00000000000000000000000000000000000000000000000000000000000012090000000000000000000000000000000000000000000000000000000000000160000000000000000000000000000000000000000000000000000000000000018000000000000000000000000000000000000000000000000000000000003d0900000000000000000000000000000000000000000000000000000000000003345000000000000000000000000000000000000000000000000000000000000052080000000000000000000000000000000000000000000000000000000000000001000000000000000000000000000000000000000000000000000000003b9aca0000000000000000000000000000000000000000000000000000000000000002a000000000000000000000000000000000000000000000000000000000000002e0000000000000000000000000000000000000000000000000000000000000000000000000000000000000000000000000000000000000000000000000000000e4b61d27f6000000000000000000000000acc000818e5bbd911d5d449aa81cb5ca24024739000000000000000000000000000000000000000000000000000000000000000000000000000000000000000000000000000000000000000000000000000000600000000000000000000000000000000000000000000000000000000000000044d22b59890000000000000000000000005a2b641b84b0230c8e75f55d5afd27f4dbd59d5b0000000000000000000000000000000000000000000000000000000000093a8000000000000000000000000000000000000000000000000000000000000000000000000000000000000000000000000000000000000000000000000000000000000000000000000000000000000000000000000000000014000000000000000000000000000000000000000000000000000000000000000000000000000000000000000000000000000000000000000000000000000000825efa55cb3e64e11b1fb3077d2abde5dc8f4922934755d685ab1b7d266479279b2ce9ef516bebcd4a17448cb09bd31e654ab426e3f6fd9b4bbe3fbd54570f47cd1c2a3548d2535883f1e6fd3bfa3f4f8a719a2938a4a269813761abdb5b33f4da28321b7e291c3d246923c43f2408bc4ade63d77c8267992385712e7e624f5f5e441c000000000000000000000000000000000000000000000000000000000000",
        "nonce": "0x4bd15",
        "chainId": "0x1ecf"
      },
      "additionalContracts": [],
      "isFixedGasLimit": false
    }
  ],
  "receipts": [
    {
      "status": "0x1",
      "cumulativeGasUsed": "0x3c60d",
      "logs": [
        {
          "address": "0x2843c269d2a64ecfa63548e8b3fc0fd23b7f70cb",
          "topics": [
            "0xbb47ee3e183a558b1a2ff0874b079f3fc5478b7454eacf2bfc5af2ff5878f972"
          ],
          "data": "0x",
          "blockHash": "0x22ecc46ff0b6dfa49b540bec691ffc12aacccf3887bb09742bb9b0f4e2aa6567",
          "blockNumber": "0xbbead",
          "transactionHash": "0x0a95170a641e3de91fbd45bd6323a4d9e6b3bfed03ec27ef670fab9dfbaca3c8",
          "transactionIndex": "0x1",
          "logIndex": "0x0",
          "removed": false
        },
        {
          "address": "0xacc000818e5bbd911d5d449aa81cb5ca24024739",
          "topics": [
            "0xa56b76017453f399ec2327ba00375dbfb1fd070ff854341ad6191e6a2e2de19c",
            "0x0000000000000000000000005a2b641b84b0230c8e75f55d5afd27f4dbd59d5b"
          ],
          "data": "0x0000000000000000000000000000000000000000000000000000000000093a800000000000000000000000000000000000000000000000000000000067e09a9e",
          "blockHash": "0x22ecc46ff0b6dfa49b540bec691ffc12aacccf3887bb09742bb9b0f4e2aa6567",
          "blockNumber": "0xbbead",
          "transactionHash": "0x0a95170a641e3de91fbd45bd6323a4d9e6b3bfed03ec27ef670fab9dfbaca3c8",
          "transactionIndex": "0x1",
          "logIndex": "0x1",
          "removed": false
        },
        {
          "address": "0x2843c269d2a64ecfa63548e8b3fc0fd23b7f70cb",
          "topics": [
            "0x49628fd1471006c1482da88028e9ce4dbb080b815c9b0344d39e5a8e6ec1419f",
            "0x845a9c81e63afa4fd0c6229868ba35026fdbff9975cb9b64e2ae6dda84a42ec2",
            "0x0000000000000000000000002e2b1c42e38f5af81771e65d87729e57abd1337a",
            "0x0000000000000000000000000000000000000000000000000000000000000000"
          ],
          "data": "0x000000000000000000000000000000000000000000000000000000000000120900000000000000000000000000000000000000000000000000000000000000010000000000000000000000000000000000000000000000000000000000087da30000000000000000000000000000000000000000000000000000000000087da3",
          "blockHash": "0x22ecc46ff0b6dfa49b540bec691ffc12aacccf3887bb09742bb9b0f4e2aa6567",
          "blockNumber": "0xbbead",
          "transactionHash": "0x0a95170a641e3de91fbd45bd6323a4d9e6b3bfed03ec27ef670fab9dfbaca3c8",
          "transactionIndex": "0x1",
          "logIndex": "0x2",
          "removed": false
        }
      ],
      "logsBloom": "0x0000000000000800000000000000000000000000000000000000000000000000000c000000000080000000010000000000000000000000000000020000000000000000000000000000010000010000000000000000000000000000000000000800000000120000000000000000000800002000000000000000000000000000000000000000000000000002000000800000000000000000000000000101001000000400000200000000400000000000000000000000000000000002000000000000000000000000100001000000000000000000000000000000000000000020000000000000010000000000000000000000000000000000000000010000000000",
      "type": "0x2",
      "transactionHash": "0x0a95170a641e3de91fbd45bd6323a4d9e6b3bfed03ec27ef670fab9dfbaca3c8",
      "transactionIndex": "0x1",
      "blockHash": "0x22ecc46ff0b6dfa49b540bec691ffc12aacccf3887bb09742bb9b0f4e2aa6567",
      "blockNumber": "0xbbead",
      "gasUsed": "0x3c60d",
      "effectiveGasPrice": "0x5f5e100",
      "from": "0x660ad4b5a74130a4796b4d54bc6750ae93c86e6c",
      "to": "0x2843c269d2a64ecfa63548e8b3fc0fd23b7f70cb",
      "contractAddress": null,
      "gasUsedForL1": "0xe753",
      "l1BlockNumber": "0x150de8f"
    }
  ],
  "libraries": [],
  "pending": [],
  "returns": {},
  "timestamp": 1742340894,
  "chain": 7887,
  "commit": "55bc0a1a"
}