{
  "transactions": [
    {
      "hash": "0x94b405375f6cf9b6bc214053e6a1a35becbaf9fa98ab10d14a71ada3874cddb3",
      "transactionType": "CALL",
      "contractName": null,
      "contractAddress": "0x2843c269d2a64ecfa63548e8b3fc0fd23b7f70cb",
      "function": "handleOps((address,uint256,bytes,bytes,uint256,uint256,uint256,uint256,uint256,bytes,bytes)[],address)",
      "arguments": [
        "[(0x2e2B1c42E38f5af81771e65D87729E57ABD1337a, 4722, 0x, 0xb61d27f6000000000000000000000000010700808d59d2bb92257fcafacfe8e5bff7ab870000000000000000000000000000000000000000000000000000000000000000000000000000000000000000000000000000000000000000000000000000006000000000000000000000000000000000000000000000000000000000000000449dc29fac00000000000000000000000026e508d5d63499e549d958b42c4e2630272ce2a20000000000000000000000000000000000000000000011ffdbf6b2b2eb20000000000000000000000000000000000000000000000000000000000000, 4000000, 210000, 21000, 1, 1000000000, 0x0000000000000000000000000000000000000000, 0x6d0dccbe969e1ff40ddc51f5835ba19eedafc42fc0d83807b9b6370fc0ea4ae33ff67c04c135555f295adf1788b412b68093ea86fa673ec0183a70e1671b5e8a1cf104d51b60b0e2267eb15b3fa97fb49ba7899d8ca0407bec911d7d2f4826274236dd87be690f7f964e95ffb27c14f0b7f03fc268cda2c92316b0ce5d0faf905b1c)]",
        "0x660ad4B5A74130a4796B4d54BC6750Ae93C86e6c"
      ],
      "transaction": {
        "from": "0x660ad4b5a74130a4796b4d54bc6750ae93c86e6c",
        "to": "0x2843c269d2a64ecfa63548e8b3fc0fd23b7f70cb",
        "value": "0x0",
        "input": "0x1fad948c0000000000000000000000000000000000000000000000000000000000000040000000000000000000000000660ad4b5a74130a4796b4d54bc6750ae93c86e6c000000000000000000000000000000000000000000000000000000000000000100000000000000000000000000000000000000000000000000000000000000200000000000000000000000002e2b1c42e38f5af81771e65d87729e57abd1337a00000000000000000000000000000000000000000000000000000000000012720000000000000000000000000000000000000000000000000000000000000160000000000000000000000000000000000000000000000000000000000000018000000000000000000000000000000000000000000000000000000000003d0900000000000000000000000000000000000000000000000000000000000003345000000000000000000000000000000000000000000000000000000000000052080000000000000000000000000000000000000000000000000000000000000001000000000000000000000000000000000000000000000000000000003b9aca0000000000000000000000000000000000000000000000000000000000000002a000000000000000000000000000000000000000000000000000000000000002e0000000000000000000000000000000000000000000000000000000000000000000000000000000000000000000000000000000000000000000000000000000e4b61d27f6000000000000000000000000010700808d59d2bb92257fcafacfe8e5bff7ab870000000000000000000000000000000000000000000000000000000000000000000000000000000000000000000000000000000000000000000000000000006000000000000000000000000000000000000000000000000000000000000000449dc29fac00000000000000000000000026e508d5d63499e549d958b42c4e2630272ce2a20000000000000000000000000000000000000000000011ffdbf6b2b2eb20000000000000000000000000000000000000000000000000000000000000000000000000000000000000000000000000000000000000000000000000000000000000000000000000000000000000000000000000000000000014000000000000000000000000000000000000000000000000000000000000000000000000000000000000000000000000000000000000000000000000000000826d0dccbe969e1ff40ddc51f5835ba19eedafc42fc0d83807b9b6370fc0ea4ae33ff67c04c135555f295adf1788b412b68093ea86fa673ec0183a70e1671b5e8a1cf104d51b60b0e2267eb15b3fa97fb49ba7899d8ca0407bec911d7d2f4826274236dd87be690f7f964e95ffb27c14f0b7f03fc268cda2c92316b0ce5d0faf905b1c000000000000000000000000000000000000000000000000000000000000",
        "nonce": "0x4bde5",
        "chainId": "0x1ecf"
      },
      "additionalContracts": [],
      "isFixedGasLimit": false
    },
    {
      "hash": "0xf133b6b41fd337cdd645adfd735f0433071f7892e0b8a1e9d5e5714638bb7279",
      "transactionType": "CALL",
      "contractName": null,
      "contractAddress": "0x2843c269d2a64ecfa63548e8b3fc0fd23b7f70cb",
      "function": "handleOps((address,uint256,bytes,bytes,uint256,uint256,uint256,uint256,uint256,bytes,bytes)[],address)",
      "arguments": [
        "[(0x2e2B1c42E38f5af81771e65D87729E57ABD1337a, 4723, 0x, 0xb61d27f6000000000000000000000000010700808d59d2bb92257fcafacfe8e5bff7ab8700000000000000000000000000000000000000000000000000000000000000000000000000000000000000000000000000000000000000000000000000000060000000000000000000000000000000000000000000000000000000000000004440c10f19000000000000000000000000d157904639e89df05e89e0dabeec99ae3d74f9aa0000000000000000000000000000000000000000000011ffdbf6b2b2eb20000000000000000000000000000000000000000000000000000000000000, 4000000, 210000, 21000, 1, 1000000000, 0x0000000000000000000000000000000000000000, 0x4ee31e4387f9d8452fc73842b36a77a42a209377ca8071869021baa3d5ebb48d511638ee8ed65fd4448a1fc551bc4eacccbbbe1c698670c70b948873974084d11b214776380465540ffe8ebdcf7ea886fd60266b5cd2268e31b8ba2b4ec1550d9d0b07ccac0e30ab3c79fe1d0d26a1f33e308fd88fd23d0da21d6f4bcd72ea88ce1b)]",
        "0x660ad4B5A74130a4796B4d54BC6750Ae93C86e6c"
      ],
      "transaction": {
        "from": "0x660ad4b5a74130a4796b4d54bc6750ae93c86e6c",
        "to": "0x2843c269d2a64ecfa63548e8b3fc0fd23b7f70cb",
        "value": "0x0",
        "input": "0x1fad948c0000000000000000000000000000000000000000000000000000000000000040000000000000000000000000660ad4b5a74130a4796b4d54bc6750ae93c86e6c000000000000000000000000000000000000000000000000000000000000000100000000000000000000000000000000000000000000000000000000000000200000000000000000000000002e2b1c42e38f5af81771e65d87729e57abd1337a00000000000000000000000000000000000000000000000000000000000012730000000000000000000000000000000000000000000000000000000000000160000000000000000000000000000000000000000000000000000000000000018000000000000000000000000000000000000000000000000000000000003d0900000000000000000000000000000000000000000000000000000000000003345000000000000000000000000000000000000000000000000000000000000052080000000000000000000000000000000000000000000000000000000000000001000000000000000000000000000000000000000000000000000000003b9aca0000000000000000000000000000000000000000000000000000000000000002a000000000000000000000000000000000000000000000000000000000000002e0000000000000000000000000000000000000000000000000000000000000000000000000000000000000000000000000000000000000000000000000000000e4b61d27f6000000000000000000000000010700808d59d2bb92257fcafacfe8e5bff7ab8700000000000000000000000000000000000000000000000000000000000000000000000000000000000000000000000000000000000000000000000000000060000000000000000000000000000000000000000000000000000000000000004440c10f19000000000000000000000000d157904639e89df05e89e0dabeec99ae3d74f9aa0000000000000000000000000000000000000000000011ffdbf6b2b2eb20000000000000000000000000000000000000000000000000000000000000000000000000000000000000000000000000000000000000000000000000000000000000000000000000000000000000000000000000000000000014000000000000000000000000000000000000000000000000000000000000000000000000000000000000000000000000000000000000000000000000000000824ee31e4387f9d8452fc73842b36a77a42a209377ca8071869021baa3d5ebb48d511638ee8ed65fd4448a1fc551bc4eacccbbbe1c698670c70b948873974084d11b214776380465540ffe8ebdcf7ea886fd60266b5cd2268e31b8ba2b4ec1550d9d0b07ccac0e30ab3c79fe1d0d26a1f33e308fd88fd23d0da21d6f4bcd72ea88ce1b000000000000000000000000000000000000000000000000000000000000",
        "nonce": "0x4bde6",
        "chainId": "0x1ecf"
      },
      "additionalContracts": [],
      "isFixedGasLimit": false
    }
  ],
  "receipts": [
    {
      "status": "0x1",
      "cumulativeGasUsed": "0x35243",
      "logs": [
        {
          "address": "0x2843c269d2a64ecfa63548e8b3fc0fd23b7f70cb",
          "topics": [
            "0xbb47ee3e183a558b1a2ff0874b079f3fc5478b7454eacf2bfc5af2ff5878f972"
          ],
          "data": "0x",
          "blockHash": "0xf13ff5c9ce050837d6d0f4d4aba9e6194a1045c5780bed8931f301078c1d6447",
          "blockNumber": "0xbeb53",
          "transactionHash": "0x94b405375f6cf9b6bc214053e6a1a35becbaf9fa98ab10d14a71ada3874cddb3",
          "transactionIndex": "0x1",
          "logIndex": "0x0",
          "removed": false
        },
        {
          "address": "0x010700808d59d2bb92257fcafacfe8e5bff7ab87",
          "topics": [
            "0xddf252ad1be2c89b69c2b068fc378daa952ba7f163c4a11628f55a4df523b3ef",
            "0x00000000000000000000000026e508d5d63499e549d958b42c4e2630272ce2a2",
            "0x0000000000000000000000000000000000000000000000000000000000000000"
          ],
          "data": "0x0000000000000000000000000000000000000000000011ffdbf6b2b2eb200000",
          "blockHash": "0xf13ff5c9ce050837d6d0f4d4aba9e6194a1045c5780bed8931f301078c1d6447",
          "blockNumber": "0xbeb53",
          "transactionHash": "0x94b405375f6cf9b6bc214053e6a1a35becbaf9fa98ab10d14a71ada3874cddb3",
          "transactionIndex": "0x1",
          "logIndex": "0x1",
          "removed": false
        },
        {
          "address": "0x2843c269d2a64ecfa63548e8b3fc0fd23b7f70cb",
          "topics": [
            "0x49628fd1471006c1482da88028e9ce4dbb080b815c9b0344d39e5a8e6ec1419f",
            "0xecbdbdf7ea48972080db29c82d38eff8c4e26c9a71515d912ede2f1251461e36",
            "0x0000000000000000000000002e2b1c42e38f5af81771e65d87729e57abd1337a",
            "0x0000000000000000000000000000000000000000000000000000000000000000"
          ],
          "data": "0x00000000000000000000000000000000000000000000000000000000000012720000000000000000000000000000000000000000000000000000000000000001000000000000000000000000000000000000000000000000000000000008e368000000000000000000000000000000000000000000000000000000000008e368",
          "blockHash": "0xf13ff5c9ce050837d6d0f4d4aba9e6194a1045c5780bed8931f301078c1d6447",
          "blockNumber": "0xbeb53",
          "transactionHash": "0x94b405375f6cf9b6bc214053e6a1a35becbaf9fa98ab10d14a71ada3874cddb3",
          "transactionIndex": "0x1",
          "logIndex": "0x2",
          "removed": false
        }
      ],
      "logsBloom": "0x00000000000400000000000000000000000000000000000000000000000000000008000400000000000000010000000000000000000000000000020000004000000000000000000000000008000000000000000000000000000000000000000800000000020000000000000000000808002000000000000000000010000000000000000000000000000000000000800000000000000000000000000000000000001400000000000000400000000000000000000100000000000002000000000000000002000000100001000000000002000000000000000200000000000020000000000000010000000000000000800000000000000000000000000000000000",
      "type": "0x2",
      "transactionHash": "0x94b405375f6cf9b6bc214053e6a1a35becbaf9fa98ab10d14a71ada3874cddb3",
      "transactionIndex": "0x1",
      "blockHash": "0xf13ff5c9ce050837d6d0f4d4aba9e6194a1045c5780bed8931f301078c1d6447",
      "blockNumber": "0xbeb53",
      "gasUsed": "0x35243",
      "effectiveGasPrice": "0x5f5e100",
      "from": "0x660ad4b5a74130a4796b4d54bc6750ae93c86e6c",
      "to": "0x2843c269d2a64ecfa63548e8b3fc0fd23b7f70cb",
      "contractAddress": null,
      "gasUsedForL1": "0x351",
      "l1BlockNumber": "0x151bdad"
    },
    {
      "status": "0x1",
      "cumulativeGasUsed": "0x353d0",
      "logs": [
        {
          "address": "0x2843c269d2a64ecfa63548e8b3fc0fd23b7f70cb",
          "topics": [
            "0xbb47ee3e183a558b1a2ff0874b079f3fc5478b7454eacf2bfc5af2ff5878f972"
          ],
          "data": "0x",
          "blockHash": "0x4dffefe6fd0f6ba063e58223c2d1ab83e42eeb9f4abce7f60ed838331bc8fd1f",
          "blockNumber": "0xbeb54",
          "transactionHash": "0xf133b6b41fd337cdd645adfd735f0433071f7892e0b8a1e9d5e5714638bb7279",
          "transactionIndex": "0x1",
          "logIndex": "0x0",
          "removed": false
        },
        {
          "address": "0x010700808d59d2bb92257fcafacfe8e5bff7ab87",
          "topics": [
            "0xddf252ad1be2c89b69c2b068fc378daa952ba7f163c4a11628f55a4df523b3ef",
            "0x0000000000000000000000000000000000000000000000000000000000000000",
            "0x000000000000000000000000d157904639e89df05e89e0dabeec99ae3d74f9aa"
          ],
          "data": "0x0000000000000000000000000000000000000000000011ffdbf6b2b2eb200000",
          "blockHash": "0x4dffefe6fd0f6ba063e58223c2d1ab83e42eeb9f4abce7f60ed838331bc8fd1f",
          "blockNumber": "0xbeb54",
          "transactionHash": "0xf133b6b41fd337cdd645adfd735f0433071f7892e0b8a1e9d5e5714638bb7279",
          "transactionIndex": "0x1",
          "logIndex": "0x1",
          "removed": false
        },
        {
          "address": "0x2843c269d2a64ecfa63548e8b3fc0fd23b7f70cb",
          "topics": [
            "0x49628fd1471006c1482da88028e9ce4dbb080b815c9b0344d39e5a8e6ec1419f",
            "0x87aa671c6fc55678600d2915204b32b3300682657e6119f29f8ddfb2a1f3e81f",
            "0x0000000000000000000000002e2b1c42e38f5af81771e65d87729e57abd1337a",
            "0x0000000000000000000000000000000000000000000000000000000000000000"
          ],
          "data": "0x00000000000000000000000000000000000000000000000000000000000012730000000000000000000000000000000000000000000000000000000000000001000000000000000000000000000000000000000000000000000000000008e4d1000000000000000000000000000000000000000000000000000000000008e4d1",
          "blockHash": "0x4dffefe6fd0f6ba063e58223c2d1ab83e42eeb9f4abce7f60ed838331bc8fd1f",
          "blockNumber": "0xbeb54",
          "transactionHash": "0xf133b6b41fd337cdd645adfd735f0433071f7892e0b8a1e9d5e5714638bb7279",
          "transactionIndex": "0x1",
          "logIndex": "0x2",
          "removed": false
        }
      ],
      "logsBloom": "0x00002000000400000000000000000000000000000800000000000000000001000008000000000000000000010008000000000000000000000000020000000000000000000000000000000008000000000000000000000000000000000000000800000000020000000000000000000800002000000000000000000010000000000000000000000000000000000000800000000000000400000000000000000000001400000000000000400000000000000000000000000000000002000000000000000002000000100001000000000000000000000000000000000000000020000000000000010000000000000000800000000000000000000000000000000800",
      "type": "0x2",
      "transactionHash": "0xf133b6b41fd337cdd645adfd735f0433071f7892e0b8a1e9d5e5714638bb7279",
      "transactionIndex": "0x1",
      "blockHash": "0x4dffefe6fd0f6ba063e58223c2d1ab83e42eeb9f4abce7f60ed838331bc8fd1f",
      "blockNumber": "0xbeb54",
      "gasUsed": "0x353d0",
      "effectiveGasPrice": "0x5f5e100",
      "from": "0x660ad4b5a74130a4796b4d54bc6750ae93c86e6c",
      "to": "0x2843c269d2a64ecfa63548e8b3fc0fd23b7f70cb",
      "contractAddress": null,
      "gasUsedForL1": "0x34d",
      "l1BlockNumber": "0x151bdad"
    }
  ],
  "libraries": [],
  "pending": [],
  "returns": {},
  "timestamp": 1743029541,
  "chain": 7887,
  "commit": "20fcf140"
}