{
  "transactions": [
    {
      "hash": "0x222cbe169b80a7e98fd3bd2bb6f1c0b56e265a4def26d8dd4b4130de23b02a45",
      "transactionType": "CALL",
      "contractName": null,
      "contractAddress": "0x2843c269d2a64ecfa63548e8b3fc0fd23b7f70cb",
      "function": "handleOps((address,uint256,bytes,bytes,uint256,uint256,uint256,uint256,uint256,bytes,bytes)[],address)",
      "arguments": [
        "[(0x2e2B1c42E38f5af81771e65D87729E57ABD1337a, 4391, 0x, 0xb61d27f6000000000000000000000000010700808d59d2bb92257fcafacfe8e5bff7ab870000000000000000000000000000000000000000000000000000000000000000000000000000000000000000000000000000000000000000000000000000006000000000000000000000000000000000000000000000000000000000000000449dc29fac000000000000000000000000d157904639e89df05e89e0dabeec99ae3d74f9aa000000000000000000000000000000000000000000000000a28246f52fd3000000000000000000000000000000000000000000000000000000000000, 4000000, 210000, 21000, 1, 1000000000, 0x0000000000000000000000000000000000000000, 0x24958aaf11c22c9fa405a35bfdf208ffbf8ecda15526f31d476bca87431463eb60d46338f57b1a6b27216cb8b8991d2493215db7cb9b345d580a7bbd0dad5b0c1bb61e52c7fa3542495fed5fb0bdf2c14cd26c0427a8ce78dd1a27a955a646c9b1048d439b201b44c3e3af855cab83a8a9469091e5011c1b8129a14bdd0a54f57f1c)]",
        "0x660ad4B5A74130a4796B4d54BC6750Ae93C86e6c"
      ],
      "transaction": {
        "from": "0x660ad4b5a74130a4796b4d54bc6750ae93c86e6c",
        "to": "0x2843c269d2a64ecfa63548e8b3fc0fd23b7f70cb",
        "value": "0x0",
        "input": "0x1fad948c0000000000000000000000000000000000000000000000000000000000000040000000000000000000000000660ad4b5a74130a4796b4d54bc6750ae93c86e6c000000000000000000000000000000000000000000000000000000000000000100000000000000000000000000000000000000000000000000000000000000200000000000000000000000002e2b1c42e38f5af81771e65d87729e57abd1337a00000000000000000000000000000000000000000000000000000000000011270000000000000000000000000000000000000000000000000000000000000160000000000000000000000000000000000000000000000000000000000000018000000000000000000000000000000000000000000000000000000000003d0900000000000000000000000000000000000000000000000000000000000003345000000000000000000000000000000000000000000000000000000000000052080000000000000000000000000000000000000000000000000000000000000001000000000000000000000000000000000000000000000000000000003b9aca0000000000000000000000000000000000000000000000000000000000000002a000000000000000000000000000000000000000000000000000000000000002e0000000000000000000000000000000000000000000000000000000000000000000000000000000000000000000000000000000000000000000000000000000e4b61d27f6000000000000000000000000010700808d59d2bb92257fcafacfe8e5bff7ab870000000000000000000000000000000000000000000000000000000000000000000000000000000000000000000000000000000000000000000000000000006000000000000000000000000000000000000000000000000000000000000000449dc29fac000000000000000000000000d157904639e89df05e89e0dabeec99ae3d74f9aa000000000000000000000000000000000000000000000000a28246f52fd30000000000000000000000000000000000000000000000000000000000000000000000000000000000000000000000000000000000000000000000000000000000000000000000000000000000000000000000000000000000140000000000000000000000000000000000000000000000000000000000000000000000000000000000000000000000000000000000000000000000000000008224958aaf11c22c9fa405a35bfdf208ffbf8ecda15526f31d476bca87431463eb60d46338f57b1a6b27216cb8b8991d2493215db7cb9b345d580a7bbd0dad5b0c1bb61e52c7fa3542495fed5fb0bdf2c14cd26c0427a8ce78dd1a27a955a646c9b1048d439b201b44c3e3af855cab83a8a9469091e5011c1b8129a14bdd0a54f57f1c000000000000000000000000000000000000000000000000000000000000",
        "nonce": "0x4bc52",
        "chainId": "0x1ecf"
      },
      "additionalContracts": [],
      "isFixedGasLimit": false
    },
    {
      "hash": "0x9ecc4ebd40ca81d321e4b7fc59dce84b814a2356ccdade2a6933f4e18c7eeb8b",
      "transactionType": "CALL",
      "contractName": null,
      "contractAddress": "0x2843c269d2a64ecfa63548e8b3fc0fd23b7f70cb",
      "function": "handleOps((address,uint256,bytes,bytes,uint256,uint256,uint256,uint256,uint256,bytes,bytes)[],address)",
      "arguments": [
        "[(0x2e2B1c42E38f5af81771e65D87729E57ABD1337a, 4392, 0x, 0xb61d27f6000000000000000000000000010700808d59d2bb92257fcafacfe8e5bff7ab8700000000000000000000000000000000000000000000000000000000000000000000000000000000000000000000000000000000000000000000000000000060000000000000000000000000000000000000000000000000000000000000004440c10f1900000000000000000000000007895f6fff3e75275e9eac72143e700b2c7e16af0000000000000000000000000000000000000000000000008ac7230489e8000000000000000000000000000000000000000000000000000000000000, 4000000, 210000, 21000, 1, 1000000000, 0x0000000000000000000000000000000000000000, 0x2a0fb5b5a666b87fb600ea6c00dd21f9e3b64de767c5d0d6d1e889d90ea06a952e351ea69c2e0dccd381fb17bf66d6fbd1fe92a8e5e3026668c0a4582accb96c1b5b0f45232c8a4d6c3d0b7e70a062d7ebd6ff2d69549e79a7588b5c3b1d50b8857adbfc2f611cfa49e5a967ea69a512ff61df278b97ea4cfc72d37a00499491661b)]",
        "0x660ad4B5A74130a4796B4d54BC6750Ae93C86e6c"
      ],
      "transaction": {
        "from": "0x660ad4b5a74130a4796b4d54bc6750ae93c86e6c",
        "to": "0x2843c269d2a64ecfa63548e8b3fc0fd23b7f70cb",
        "value": "0x0",
        "input": "0x1fad948c0000000000000000000000000000000000000000000000000000000000000040000000000000000000000000660ad4b5a74130a4796b4d54bc6750ae93c86e6c000000000000000000000000000000000000000000000000000000000000000100000000000000000000000000000000000000000000000000000000000000200000000000000000000000002e2b1c42e38f5af81771e65d87729e57abd1337a00000000000000000000000000000000000000000000000000000000000011280000000000000000000000000000000000000000000000000000000000000160000000000000000000000000000000000000000000000000000000000000018000000000000000000000000000000000000000000000000000000000003d0900000000000000000000000000000000000000000000000000000000000003345000000000000000000000000000000000000000000000000000000000000052080000000000000000000000000000000000000000000000000000000000000001000000000000000000000000000000000000000000000000000000003b9aca0000000000000000000000000000000000000000000000000000000000000002a000000000000000000000000000000000000000000000000000000000000002e0000000000000000000000000000000000000000000000000000000000000000000000000000000000000000000000000000000000000000000000000000000e4b61d27f6000000000000000000000000010700808d59d2bb92257fcafacfe8e5bff7ab8700000000000000000000000000000000000000000000000000000000000000000000000000000000000000000000000000000000000000000000000000000060000000000000000000000000000000000000000000000000000000000000004440c10f1900000000000000000000000007895f6fff3e75275e9eac72143e700b2c7e16af0000000000000000000000000000000000000000000000008ac7230489e8000000000000000000000000000000000000000000000000000000000000000000000000000000000000000000000000000000000000000000000000000000000000000000000000000000000000000000000000000000000014000000000000000000000000000000000000000000000000000000000000000000000000000000000000000000000000000000000000000000000000000000822a0fb5b5a666b87fb600ea6c00dd21f9e3b64de767c5d0d6d1e889d90ea06a952e351ea69c2e0dccd381fb17bf66d6fbd1fe92a8e5e3026668c0a4582accb96c1b5b0f45232c8a4d6c3d0b7e70a062d7ebd6ff2d69549e79a7588b5c3b1d50b8857adbfc2f611cfa49e5a967ea69a512ff61df278b97ea4cfc72d37a00499491661b000000000000000000000000000000000000000000000000000000000000",
        "nonce": "0x4bc53",
        "chainId": "0x1ecf"
      },
      "additionalContracts": [],
      "isFixedGasLimit": false
    },
    {
      "hash": "0x0d1f5c56ca1a6c9d71ba0140bc987c7f5fa4663ad3983c0e9fa98f8c3e5fd6da",
      "transactionType": "CALL",
      "contractName": null,
      "contractAddress": "0x2843c269d2a64ecfa63548e8b3fc0fd23b7f70cb",
      "function": "handleOps((address,uint256,bytes,bytes,uint256,uint256,uint256,uint256,uint256,bytes,bytes)[],address)",
      "arguments": [
        "[(0x2e2B1c42E38f5af81771e65D87729E57ABD1337a, 4393, 0x, 0xb61d27f6000000000000000000000000010700808d59d2bb92257fcafacfe8e5bff7ab8700000000000000000000000000000000000000000000000000000000000000000000000000000000000000000000000000000000000000000000000000000060000000000000000000000000000000000000000000000000000000000000004440c10f190000000000000000000000000a2449cb6b4d643c521936fce08eb6747e936d5700000000000000000000000000000000000000000000000017bb23f0a5eb000000000000000000000000000000000000000000000000000000000000, 4000000, 210000, 21000, 1, 1000000000, 0x0000000000000000000000000000000000000000, 0x210700a53cbf261f6147914bc21db52dffe12f8d8c1598a1049965bfbb01e2524270ae09444f8b26f79b69b3d5f3ffc7de69cc03f84493d2b876b00869035e511b55c3a6e4703e6c7b74a58b2421fb5677d417a01cabbb1d8266d245ba693b36146981904bb6286ffc190aacfdb1332add8ac44d3b85c50059c771c69a0bcdc68b1c)]",
        "0x660ad4B5A74130a4796B4d54BC6750Ae93C86e6c"
      ],
      "transaction": {
        "from": "0x660ad4b5a74130a4796b4d54bc6750ae93c86e6c",
        "to": "0x2843c269d2a64ecfa63548e8b3fc0fd23b7f70cb",
        "value": "0x0",
        "input": "0x1fad948c0000000000000000000000000000000000000000000000000000000000000040000000000000000000000000660ad4b5a74130a4796b4d54bc6750ae93c86e6c000000000000000000000000000000000000000000000000000000000000000100000000000000000000000000000000000000000000000000000000000000200000000000000000000000002e2b1c42e38f5af81771e65d87729e57abd1337a00000000000000000000000000000000000000000000000000000000000011290000000000000000000000000000000000000000000000000000000000000160000000000000000000000000000000000000000000000000000000000000018000000000000000000000000000000000000000000000000000000000003d0900000000000000000000000000000000000000000000000000000000000003345000000000000000000000000000000000000000000000000000000000000052080000000000000000000000000000000000000000000000000000000000000001000000000000000000000000000000000000000000000000000000003b9aca0000000000000000000000000000000000000000000000000000000000000002a000000000000000000000000000000000000000000000000000000000000002e0000000000000000000000000000000000000000000000000000000000000000000000000000000000000000000000000000000000000000000000000000000e4b61d27f6000000000000000000000000010700808d59d2bb92257fcafacfe8e5bff7ab8700000000000000000000000000000000000000000000000000000000000000000000000000000000000000000000000000000000000000000000000000000060000000000000000000000000000000000000000000000000000000000000004440c10f190000000000000000000000000a2449cb6b4d643c521936fce08eb6747e936d5700000000000000000000000000000000000000000000000017bb23f0a5eb00000000000000000000000000000000000000000000000000000000000000000000000000000000000000000000000000000000000000000000000000000000000000000000000000000000000000000000000000000000001400000000000000000000000000000000000000000000000000000000000000000000000000000000000000000000000000000000000000000000000000000082210700a53cbf261f6147914bc21db52dffe12f8d8c1598a1049965bfbb01e2524270ae09444f8b26f79b69b3d5f3ffc7de69cc03f84493d2b876b00869035e511b55c3a6e4703e6c7b74a58b2421fb5677d417a01cabbb1d8266d245ba693b36146981904bb6286ffc190aacfdb1332add8ac44d3b85c50059c771c69a0bcdc68b1c000000000000000000000000000000000000000000000000000000000000",
        "nonce": "0x4bc54",
        "chainId": "0x1ecf"
      },
      "additionalContracts": [],
      "isFixedGasLimit": false
    }
  ],
  "receipts": [
    {
      "status": "0x1",
      "cumulativeGasUsed": "0x4f314",
      "logs": [
        {
          "address": "0x2843c269d2a64ecfa63548e8b3fc0fd23b7f70cb",
          "topics": [
            "0xbb47ee3e183a558b1a2ff0874b079f3fc5478b7454eacf2bfc5af2ff5878f972"
          ],
          "data": "0x",
          "blockHash": "0xf446e5296deffb536ed821fa87a6165171d56ec343baaf2141ae70e88e02041a",
          "blockNumber": "0xaf069",
          "transactionHash": "0x222cbe169b80a7e98fd3bd2bb6f1c0b56e265a4def26d8dd4b4130de23b02a45",
          "transactionIndex": "0x1",
          "logIndex": "0x0",
          "removed": false
        },
        {
          "address": "0x010700808d59d2bb92257fcafacfe8e5bff7ab87",
          "topics": [
            "0xddf252ad1be2c89b69c2b068fc378daa952ba7f163c4a11628f55a4df523b3ef",
            "0x000000000000000000000000d157904639e89df05e89e0dabeec99ae3d74f9aa",
            "0x0000000000000000000000000000000000000000000000000000000000000000"
          ],
          "data": "0x000000000000000000000000000000000000000000000000a28246f52fd30000",
          "blockHash": "0xf446e5296deffb536ed821fa87a6165171d56ec343baaf2141ae70e88e02041a",
          "blockNumber": "0xaf069",
          "transactionHash": "0x222cbe169b80a7e98fd3bd2bb6f1c0b56e265a4def26d8dd4b4130de23b02a45",
          "transactionIndex": "0x1",
          "logIndex": "0x1",
          "removed": false
        },
        {
          "address": "0x2843c269d2a64ecfa63548e8b3fc0fd23b7f70cb",
          "topics": [
            "0x49628fd1471006c1482da88028e9ce4dbb080b815c9b0344d39e5a8e6ec1419f",
            "0x95b2ced43adfcbc34228d5c71f960c4553a774193138f5ddb5afbf1d3b4d2f99",
            "0x0000000000000000000000002e2b1c42e38f5af81771e65d87729e57abd1337a",
            "0x0000000000000000000000000000000000000000000000000000000000000000"
          ],
          "data": "0x00000000000000000000000000000000000000000000000000000000000011270000000000000000000000000000000000000000000000000000000000000001000000000000000000000000000000000000000000000000000000000008ebc5000000000000000000000000000000000000000000000000000000000008ebc5",
          "blockHash": "0xf446e5296deffb536ed821fa87a6165171d56ec343baaf2141ae70e88e02041a",
          "blockNumber": "0xaf069",
          "transactionHash": "0x222cbe169b80a7e98fd3bd2bb6f1c0b56e265a4def26d8dd4b4130de23b02a45",
          "transactionIndex": "0x1",
          "logIndex": "0x2",
          "removed": false
        }
      ],
      "logsBloom": "0x00002000000400000000000000000000000000000000000000000000000001000008000000000000000000010000000000000000000000000000020000000000000000000040000000000008000000000000800000000000000000000000000800000000020000000000000000000800002000000000000000000010000000000000000000000000000000000000800000000000000000000000000000000000001400000000000000400000000000000000000000000000000002000000000000000002000000140001000000000000000000000000000000000000000020000000000000010000000000000000800000000000000000000000000000000800",
      "type": "0x2",
      "transactionHash": "0x222cbe169b80a7e98fd3bd2bb6f1c0b56e265a4def26d8dd4b4130de23b02a45",
      "transactionIndex": "0x1",
      "blockHash": "0xf446e5296deffb536ed821fa87a6165171d56ec343baaf2141ae70e88e02041a",
      "blockNumber": "0xaf069",
      "gasUsed": "0x4f314",
      "effectiveGasPrice": "0x5f5e100",
      "from": "0x660ad4b5a74130a4796b4d54bc6750ae93c86e6c",
      "to": "0x2843c269d2a64ecfa63548e8b3fc0fd23b7f70cb",
      "contractAddress": null,
      "gasUsedForL1": "0x19af0",
      "l1BlockNumber": "0x14b9c18"
    },
    {
      "status": "0x1",
      "cumulativeGasUsed": "0x496c5",
      "logs": [
        {
          "address": "0x2843c269d2a64ecfa63548e8b3fc0fd23b7f70cb",
          "topics": [
            "0xbb47ee3e183a558b1a2ff0874b079f3fc5478b7454eacf2bfc5af2ff5878f972"
          ],
          "data": "0x",
          "blockHash": "0xdfeb5b7959223acd87e3ccd5ae2b3c5bd1e31229656c26b2366a7ad159fc9965",
          "blockNumber": "0xaf06a",
          "transactionHash": "0x9ecc4ebd40ca81d321e4b7fc59dce84b814a2356ccdade2a6933f4e18c7eeb8b",
          "transactionIndex": "0x1",
          "logIndex": "0x0",
          "removed": false
        },
        {
          "address": "0x010700808d59d2bb92257fcafacfe8e5bff7ab87",
          "topics": [
            "0xddf252ad1be2c89b69c2b068fc378daa952ba7f163c4a11628f55a4df523b3ef",
            "0x0000000000000000000000000000000000000000000000000000000000000000",
            "0x00000000000000000000000007895f6fff3e75275e9eac72143e700b2c7e16af"
          ],
          "data": "0x0000000000000000000000000000000000000000000000008ac7230489e80000",
          "blockHash": "0xdfeb5b7959223acd87e3ccd5ae2b3c5bd1e31229656c26b2366a7ad159fc9965",
          "blockNumber": "0xaf06a",
          "transactionHash": "0x9ecc4ebd40ca81d321e4b7fc59dce84b814a2356ccdade2a6933f4e18c7eeb8b",
          "transactionIndex": "0x1",
          "logIndex": "0x1",
          "removed": false
        },
        {
          "address": "0x2843c269d2a64ecfa63548e8b3fc0fd23b7f70cb",
          "topics": [
            "0x49628fd1471006c1482da88028e9ce4dbb080b815c9b0344d39e5a8e6ec1419f",
            "0x0fbbfba6cb47e255f7fd470ad20b3bbb4d57471a7ad09558e55da0f639b7a02e",
            "0x0000000000000000000000002e2b1c42e38f5af81771e65d87729e57abd1337a",
            "0x0000000000000000000000000000000000000000000000000000000000000000"
          ],
          "data": "0x0000000000000000000000000000000000000000000000000000000000001128000000000000000000000000000000000000000000000000000000000000000100000000000000000000000000000000000000000000000000000000000896dd00000000000000000000000000000000000000000000000000000000000896dd",
          "blockHash": "0xdfeb5b7959223acd87e3ccd5ae2b3c5bd1e31229656c26b2366a7ad159fc9965",
          "blockNumber": "0xaf06a",
          "transactionHash": "0x9ecc4ebd40ca81d321e4b7fc59dce84b814a2356ccdade2a6933f4e18c7eeb8b",
          "transactionIndex": "0x1",
          "logIndex": "0x2",
          "removed": false
        }
      ],
      "logsBloom": "0x00000000000400000000000000000000000000800000000000000000000000000008000000000000000000018000000000000000000000002000020000000000000000000000000000000008000000000000000000000000000000000000000800000000020000008000000000000800002000000000000000000010000000000000000000000000000000000000800000000000000000000000000000000000001400000000000000400000000000400000000000000000000002000000000000000002000000100001000000000000000000000000000000000000000020000000000000010000000000008000800000000000000000000000000000000000",
      "type": "0x2",
      "transactionHash": "0x9ecc4ebd40ca81d321e4b7fc59dce84b814a2356ccdade2a6933f4e18c7eeb8b",
      "transactionIndex": "0x1",
      "blockHash": "0xdfeb5b7959223acd87e3ccd5ae2b3c5bd1e31229656c26b2366a7ad159fc9965",
      "blockNumber": "0xaf06a",
      "gasUsed": "0x496c5",
      "effectiveGasPrice": "0x5f5e100",
      "from": "0x660ad4b5a74130a4796b4d54bc6750ae93c86e6c",
      "to": "0x2843c269d2a64ecfa63548e8b3fc0fd23b7f70cb",
      "contractAddress": null,
      "gasUsedForL1": "0x19d1c",
      "l1BlockNumber": "0x14b9c18"
    },
    {
      "status": "0x1",
      "cumulativeGasUsed": "0x494a5",
      "logs": [
        {
          "address": "0x2843c269d2a64ecfa63548e8b3fc0fd23b7f70cb",
          "topics": [
            "0xbb47ee3e183a558b1a2ff0874b079f3fc5478b7454eacf2bfc5af2ff5878f972"
          ],
          "data": "0x",
          "blockHash": "0xb3b465c205d29a1d070a2a95efa3868d11817401cae2a7577fb01dd01d9f936c",
          "blockNumber": "0xaf06b",
          "transactionHash": "0x0d1f5c56ca1a6c9d71ba0140bc987c7f5fa4663ad3983c0e9fa98f8c3e5fd6da",
          "transactionIndex": "0x1",
          "logIndex": "0x0",
          "removed": false
        },
        {
          "address": "0x010700808d59d2bb92257fcafacfe8e5bff7ab87",
          "topics": [
            "0xddf252ad1be2c89b69c2b068fc378daa952ba7f163c4a11628f55a4df523b3ef",
            "0x0000000000000000000000000000000000000000000000000000000000000000",
            "0x0000000000000000000000000a2449cb6b4d643c521936fce08eb6747e936d57"
          ],
          "data": "0x00000000000000000000000000000000000000000000000017bb23f0a5eb0000",
          "blockHash": "0xb3b465c205d29a1d070a2a95efa3868d11817401cae2a7577fb01dd01d9f936c",
          "blockNumber": "0xaf06b",
          "transactionHash": "0x0d1f5c56ca1a6c9d71ba0140bc987c7f5fa4663ad3983c0e9fa98f8c3e5fd6da",
          "transactionIndex": "0x1",
          "logIndex": "0x1",
          "removed": false
        },
        {
          "address": "0x2843c269d2a64ecfa63548e8b3fc0fd23b7f70cb",
          "topics": [
            "0x49628fd1471006c1482da88028e9ce4dbb080b815c9b0344d39e5a8e6ec1419f",
            "0x2d644e4132fafa0e819e68e371bb5755ca6eec18f10f5ef923096c5fe5cc39f3",
            "0x0000000000000000000000002e2b1c42e38f5af81771e65d87729e57abd1337a",
            "0x0000000000000000000000000000000000000000000000000000000000000000"
          ],
          "data": "0x0000000000000000000000000000000000000000000000000000000000001129000000000000000000000000000000000000000000000000000000000000000100000000000000000000000000000000000000000000000000000000000896dd00000000000000000000000000000000000000000000000000000000000896dd",
          "blockHash": "0xb3b465c205d29a1d070a2a95efa3868d11817401cae2a7577fb01dd01d9f936c",
          "blockNumber": "0xaf06b",
          "transactionHash": "0x0d1f5c56ca1a6c9d71ba0140bc987c7f5fa4663ad3983c0e9fa98f8c3e5fd6da",
          "transactionIndex": "0x1",
          "logIndex": "0x2",
          "removed": false
        }
      ],
      "logsBloom": "0x00000000000400000000000000000000000000000000000000000000000000000008000010000000000000010000000000000000000000000000020000000000000000000000400000000008000000000000000001000000000000000000080800000000020100000000000000000800002000000000000000000010000000000000000000000000020000000000800000000000000000000000000000000000001400000000000000400000000000000000000000000000000002000000000000000002000000100001000000000000000000000000000000000000000020000000000000010000000000000000800000000000000000000000000000000000",
      "type": "0x2",
      "transactionHash": "0x0d1f5c56ca1a6c9d71ba0140bc987c7f5fa4663ad3983c0e9fa98f8c3e5fd6da",
      "transactionIndex": "0x1",
      "blockHash": "0xb3b465c205d29a1d070a2a95efa3868d11817401cae2a7577fb01dd01d9f936c",
      "blockNumber": "0xaf06b",
      "gasUsed": "0x494a5",
      "effectiveGasPrice": "0x5f5e100",
      "from": "0x660ad4b5a74130a4796b4d54bc6750ae93c86e6c",
      "to": "0x2843c269d2a64ecfa63548e8b3fc0fd23b7f70cb",
      "contractAddress": null,
      "gasUsedForL1": "0x19af0",
      "l1BlockNumber": "0x14b9c18"
    }
  ],
  "libraries": [],
  "pending": [],
  "returns": {},
  "timestamp": 1738180111,
  "chain": 7887,
  "commit": "e4923f4d"
}