{
  "transactions": [
    {
      "hash": "0x6842ff7e334f74029388d04caf059e6c9c738e50c3fe9295102fe19a4308e137",
      "transactionType": "CALL",
      "contractName": null,
      "contractAddress": "0x2843c269d2a64ecfa63548e8b3fc0fd23b7f70cb",
      "function": "handleOps((address,uint256,bytes,bytes,uint256,uint256,uint256,uint256,uint256,bytes,bytes)[],address)",
      "arguments": [
        "[(0x2e2B1c42E38f5af81771e65D87729E57ABD1337a, 4650, 0x, 0xb61d27f6000000000000000000000000acc000818e5bbd911d5d449aa81cb5ca2402473900000000000000000000000000000000000000000000000000000000000000000000000000000000000000000000000000000000000000000000000000000060000000000000000000000000000000000000000000000000000000000000006425c471a000000000000000000000000000000000000000000000000000000000000000000000000000000000000000002e2b1c42e38f5af81771e65d87729e57abd1337a00000000000000000000000000000000000000000000000000000000000e808000000000000000000000000000000000000000000000000000000000, 4000000, 210000, 21000, 1, 1000000000, 0x0000000000000000000000000000000000000000, 0x25c7cd4c9b570f3b021d4f262164ee3568a26eb6b0716786ffeba1040986074f4525e6d6e3f70c38751db62c405c0d8c88da5d46561e9a638f9360077eeffcc31c1c7e40f22c15821773601a86c3c5b51eacce77224a710fb9b5bd807287bbb80138fbc8edcf7f4a174ac4b19f645159cbffdf07cf394be55a872a5bf6ed7373631c)]",
        "0x660ad4B5A74130a4796B4d54BC6750Ae93C86e6c"
      ],
      "transaction": {
        "from": "0x660ad4b5a74130a4796b4d54bc6750ae93c86e6c",
        "to": "0x2843c269d2a64ecfa63548e8b3fc0fd23b7f70cb",
        "value": "0x0",
        "input": "0x1fad948c0000000000000000000000000000000000000000000000000000000000000040000000000000000000000000660ad4b5a74130a4796b4d54bc6750ae93c86e6c000000000000000000000000000000000000000000000000000000000000000100000000000000000000000000000000000000000000000000000000000000200000000000000000000000002e2b1c42e38f5af81771e65d87729e57abd1337a000000000000000000000000000000000000000000000000000000000000122a0000000000000000000000000000000000000000000000000000000000000160000000000000000000000000000000000000000000000000000000000000018000000000000000000000000000000000000000000000000000000000003d0900000000000000000000000000000000000000000000000000000000000003345000000000000000000000000000000000000000000000000000000000000052080000000000000000000000000000000000000000000000000000000000000001000000000000000000000000000000000000000000000000000000003b9aca0000000000000000000000000000000000000000000000000000000000000002c0000000000000000000000000000000000000000000000000000000000000030000000000000000000000000000000000000000000000000000000000000000000000000000000000000000000000000000000000000000000000000000000104b61d27f6000000000000000000000000acc000818e5bbd911d5d449aa81cb5ca2402473900000000000000000000000000000000000000000000000000000000000000000000000000000000000000000000000000000000000000000000000000000060000000000000000000000000000000000000000000000000000000000000006425c471a000000000000000000000000000000000000000000000000000000000000000000000000000000000000000002e2b1c42e38f5af81771e65d87729e57abd1337a00000000000000000000000000000000000000000000000000000000000e8080000000000000000000000000000000000000000000000000000000000000000000000000000000000000000000000000000000000000000000000000000000000000000000000000000000000000000000000000000000140000000000000000000000000000000000000000000000000000000000000000000000000000000000000000000000000000000000000000000000000000008225c7cd4c9b570f3b021d4f262164ee3568a26eb6b0716786ffeba1040986074f4525e6d6e3f70c38751db62c405c0d8c88da5d46561e9a638f9360077eeffcc31c1c7e40f22c15821773601a86c3c5b51eacce77224a710fb9b5bd807287bbb80138fbc8edcf7f4a174ac4b19f645159cbffdf07cf394be55a872a5bf6ed7373631c000000000000000000000000000000000000000000000000000000000000",
        "nonce": "0x4bd91",
        "chainId": "0x1ecf"
      },
      "additionalContracts": [],
      "isFixedGasLimit": false
    },
    {
      "hash": "0x73cc09fb298ccdbcf6b060b61940288c554766932dcf0798a12f6eadca538ddb",
      "transactionType": "CALL",
      "contractName": null,
      "contractAddress": "0x2843c269d2a64ecfa63548e8b3fc0fd23b7f70cb",
      "function": "handleOps((address,uint256,bytes,bytes,uint256,uint256,uint256,uint256,uint256,bytes,bytes)[],address)",
      "arguments": [
        "[(0x2e2B1c42E38f5af81771e65D87729E57ABD1337a, 4651, 0x, 0xb61d27f6000000000000000000000000acc000818e5bbd911d5d449aa81cb5ca24024739000000000000000000000000000000000000000000000000000000000000000000000000000000000000000000000000000000000000000000000000000000600000000000000000000000000000000000000000000000000000000000000104f801a698000000000000000000000000acc000818e5bbd911d5d449aa81cb5ca2402473900000000000000000000000000000000000000000000000000000000000000600000000000000000000000000000000000000000000000000000000000000000000000000000000000000000000000000000000000000000000000000000006425c471a0000000000000000000000000000000000000000000000000783b0946b8c9d2e30000000000000000000000002e2b1c42e38f5af81771e65d87729e57abd1337a00000000000000000000000000000000000000000000000000000000000e80800000000000000000000000000000000000000000000000000000000000000000000000000000000000000000000000000000000000000000, 4000000, 210000, 21000, 1, 1000000000, 0x0000000000000000000000000000000000000000, 0xd2696490c478cb43ef508e0cbe5eac26c7fd80ea6580a436a118f481618840897b4090dd2a774e1f17f6fa439325e4bfcae292e17f79366ecbe600b1653c1f721bfbfbfe881655ed6ffb911bf622268bdde5c1189ae2059bbd222fa3f69323a17c7fce358f3e76a8f2c7f2e4755ebf9982ebf0ab1b1866c06f22f787851d4b881b1b)]",
        "0x660ad4B5A74130a4796B4d54BC6750Ae93C86e6c"
      ],
      "transaction": {
        "from": "0x660ad4b5a74130a4796b4d54bc6750ae93c86e6c",
        "to": "0x2843c269d2a64ecfa63548e8b3fc0fd23b7f70cb",
        "value": "0x0",
        "input": "0x1fad948c0000000000000000000000000000000000000000000000000000000000000040000000000000000000000000660ad4b5a74130a4796b4d54bc6750ae93c86e6c000000000000000000000000000000000000000000000000000000000000000100000000000000000000000000000000000000000000000000000000000000200000000000000000000000002e2b1c42e38f5af81771e65d87729e57abd1337a000000000000000000000000000000000000000000000000000000000000122b0000000000000000000000000000000000000000000000000000000000000160000000000000000000000000000000000000000000000000000000000000018000000000000000000000000000000000000000000000000000000000003d0900000000000000000000000000000000000000000000000000000000000003345000000000000000000000000000000000000000000000000000000000000052080000000000000000000000000000000000000000000000000000000000000001000000000000000000000000000000000000000000000000000000003b9aca00000000000000000000000000000000000000000000000000000000000000036000000000000000000000000000000000000000000000000000000000000003a0000000000000000000000000000000000000000000000000000000000000000000000000000000000000000000000000000000000000000000000000000001a4b61d27f6000000000000000000000000acc000818e5bbd911d5d449aa81cb5ca24024739000000000000000000000000000000000000000000000000000000000000000000000000000000000000000000000000000000000000000000000000000000600000000000000000000000000000000000000000000000000000000000000104f801a698000000000000000000000000acc000818e5bbd911d5d449aa81cb5ca2402473900000000000000000000000000000000000000000000000000000000000000600000000000000000000000000000000000000000000000000000000000000000000000000000000000000000000000000000000000000000000000000000006425c471a0000000000000000000000000000000000000000000000000783b0946b8c9d2e30000000000000000000000002e2b1c42e38f5af81771e65d87729e57abd1337a00000000000000000000000000000000000000000000000000000000000e8080000000000000000000000000000000000000000000000000000000000000000000000000000000000000000000000000000000000000000000000000000000000000000000000000000000000000000000000000000000000000000000000000000000000000000000000000000000000000001400000000000000000000000000000000000000000000000000000000000000000000000000000000000000000000000000000000000000000000000000000082d2696490c478cb43ef508e0cbe5eac26c7fd80ea6580a436a118f481618840897b4090dd2a774e1f17f6fa439325e4bfcae292e17f79366ecbe600b1653c1f721bfbfbfe881655ed6ffb911bf622268bdde5c1189ae2059bbd222fa3f69323a17c7fce358f3e76a8f2c7f2e4755ebf9982ebf0ab1b1866c06f22f787851d4b881b1b000000000000000000000000000000000000000000000000000000000000",
        "nonce": "0x4bd92",
        "chainId": "0x1ecf"
      },
      "additionalContracts": [],
      "isFixedGasLimit": false
    }
  ],
  "receipts": [
    {
      "status": "0x1",
      "cumulativeGasUsed": "0x2f244",
      "logs": [
        {
          "address": "0x2843c269d2a64ecfa63548e8b3fc0fd23b7f70cb",
          "topics": [
            "0xbb47ee3e183a558b1a2ff0874b079f3fc5478b7454eacf2bfc5af2ff5878f972"
          ],
          "data": "0x",
          "blockHash": "0xcb6e0b6536e6bdede0d5ead827c1aeec9ce5b1c3cde0210d21401e1e8f2df7ca",
          "blockNumber": "0xbc9e7",
          "transactionHash": "0x6842ff7e334f74029388d04caf059e6c9c738e50c3fe9295102fe19a4308e137",
          "transactionIndex": "0x1",
          "logIndex": "0x0",
          "removed": false
        },
        {
          "address": "0xacc000818e5bbd911d5d449aa81cb5ca24024739",
          "topics": [
            "0xf98448b987f1428e0e230e1f3c6e2ce15b5693eaf31827fbd0b1ec4b424ae7cf",
            "0x0000000000000000000000000000000000000000000000000000000000000000",
            "0x0000000000000000000000002e2b1c42e38f5af81771e65d87729e57abd1337a"
          ],
          "data": "0x00000000000000000000000000000000000000000000000000000000000e80800000000000000000000000000000000000000000000000000000000067dca7dc0000000000000000000000000000000000000000000000000000000000000000",
          "blockHash": "0xcb6e0b6536e6bdede0d5ead827c1aeec9ce5b1c3cde0210d21401e1e8f2df7ca",
          "blockNumber": "0xbc9e7",
          "transactionHash": "0x6842ff7e334f74029388d04caf059e6c9c738e50c3fe9295102fe19a4308e137",
          "transactionIndex": "0x1",
          "logIndex": "0x1",
          "removed": false
        },
        {
          "address": "0x2843c269d2a64ecfa63548e8b3fc0fd23b7f70cb",
          "topics": [
            "0x49628fd1471006c1482da88028e9ce4dbb080b815c9b0344d39e5a8e6ec1419f",
            "0xf61b1236c31896a77ca44bbf402a069b2a0d801ed8798b200fc6abe548d9e6aa",
            "0x0000000000000000000000002e2b1c42e38f5af81771e65d87729e57abd1337a",
            "0x0000000000000000000000000000000000000000000000000000000000000000"
          ],
          "data": "0x000000000000000000000000000000000000000000000000000000000000122a00000000000000000000000000000000000000000000000000000000000000010000000000000000000000000000000000000000000000000000000000084dfa0000000000000000000000000000000000000000000000000000000000084dfa",
          "blockHash": "0xcb6e0b6536e6bdede0d5ead827c1aeec9ce5b1c3cde0210d21401e1e8f2df7ca",
          "blockNumber": "0xbc9e7",
          "transactionHash": "0x6842ff7e334f74029388d04caf059e6c9c738e50c3fe9295102fe19a4308e137",
          "transactionIndex": "0x1",
          "logIndex": "0x2",
          "removed": false
        }
      ],
      "logsBloom": "0x00000000000008000000000000000000000000000000000000000000000000000008000000000000000000010000000000000000000000000000020000000000000010000000000000000000000000000000000000000000000000000100000800000000020000000000000100000800002000000000000000000000000000000000000000000000000002000000800008000000000000000000000000001000000400000000000000402000000000000000000000000008000002000000000000000000000000100001000000000000000000000000000000000000000020000000000000010000000000000000000000000000000000000000000000000000",
      "type": "0x2",
      "transactionHash": "0x6842ff7e334f74029388d04caf059e6c9c738e50c3fe9295102fe19a4308e137",
      "transactionIndex": "0x1",
      "blockHash": "0xcb6e0b6536e6bdede0d5ead827c1aeec9ce5b1c3cde0210d21401e1e8f2df7ca",
      "blockNumber": "0xbc9e7",
      "gasUsed": "0x2f244",
      "effectiveGasPrice": "0x5f5e100",
      "from": "0x660ad4b5a74130a4796b4d54bc6750ae93c86e6c",
      "to": "0x2843c269d2a64ecfa63548e8b3fc0fd23b7f70cb",
      "contractAddress": null,
      "gasUsedForL1": "0x480c",
      "l1BlockNumber": "0x15116a6"
    },
    {
      "status": "0x1",
      "cumulativeGasUsed": "0x34957",
      "logs": [
        {
          "address": "0x2843c269d2a64ecfa63548e8b3fc0fd23b7f70cb",
          "topics": [
            "0xbb47ee3e183a558b1a2ff0874b079f3fc5478b7454eacf2bfc5af2ff5878f972"
          ],
          "data": "0x",
          "blockHash": "0xd713530ab3cd37fef1bb2999fdcf4e4c2cb609421e14939da006dbd5140b8ed1",
          "blockNumber": "0xbc9e8",
          "transactionHash": "0x73cc09fb298ccdbcf6b060b61940288c554766932dcf0798a12f6eadca538ddb",
          "transactionIndex": "0x1",
          "logIndex": "0x0",
          "removed": false
        },
        {
          "address": "0xacc000818e5bbd911d5d449aa81cb5ca24024739",
          "topics": [
            "0x82a2da5dee54ea8021c6545b4444620291e07ee83be6dd57edb175062715f3b4",
            "0x0ad95e032eb7beede43f2741b7bcef6566a6163eaa1ac1ef42441f25193096d8",
            "0x0000000000000000000000000000000000000000000000000000000000000001"
          ],
          "data": "0x0000000000000000000000000000000000000000000000000000000067eb285d0000000000000000000000002e2b1c42e38f5af81771e65d87729e57abd1337a000000000000000000000000acc000818e5bbd911d5d449aa81cb5ca240247390000000000000000000000000000000000000000000000000000000000000080000000000000000000000000000000000000000000000000000000000000006425c471a0000000000000000000000000000000000000000000000000783b0946b8c9d2e30000000000000000000000002e2b1c42e38f5af81771e65d87729e57abd1337a00000000000000000000000000000000000000000000000000000000000e808000000000000000000000000000000000000000000000000000000000",
          "blockHash": "0xd713530ab3cd37fef1bb2999fdcf4e4c2cb609421e14939da006dbd5140b8ed1",
          "blockNumber": "0xbc9e8",
          "transactionHash": "0x73cc09fb298ccdbcf6b060b61940288c554766932dcf0798a12f6eadca538ddb",
          "transactionIndex": "0x1",
          "logIndex": "0x1",
          "removed": false
        },
        {
          "address": "0x2843c269d2a64ecfa63548e8b3fc0fd23b7f70cb",
          "topics": [
            "0x49628fd1471006c1482da88028e9ce4dbb080b815c9b0344d39e5a8e6ec1419f",
            "0x5acd3f736b60b572ed2c52196c4b747a6f1ab2b529e5653d35163d56f4115216",
            "0x0000000000000000000000002e2b1c42e38f5af81771e65d87729e57abd1337a",
            "0x0000000000000000000000000000000000000000000000000000000000000000"
          ],
          "data": "0x000000000000000000000000000000000000000000000000000000000000122b000000000000000000000000000000000000000000000000000000000000000100000000000000000000000000000000000000000000000000000000000895ed00000000000000000000000000000000000000000000000000000000000895ed",
          "blockHash": "0xd713530ab3cd37fef1bb2999fdcf4e4c2cb609421e14939da006dbd5140b8ed1",
          "blockNumber": "0xbc9e8",
          "transactionHash": "0x73cc09fb298ccdbcf6b060b61940288c554766932dcf0798a12f6eadca538ddb",
          "transactionIndex": "0x1",
          "logIndex": "0x2",
          "removed": false
        }
      ],
      "logsBloom": "0x00000000000008000000000000000000000800000000000000000000000000000008000000000000000000010000000008000000000000000000020000040000000000000000000000000000000000000000000000040000000000000000000800000000220000000000000000000800002000000000000000000000000000000000000000000000000002000040800000000000000000000000000000001000000400000000000000400008000000000000000001000000000002000000000000000000000000108001000000000000000000000000000000000000000060000000000010010000000000000000000000000000000000000000000400000000",
      "type": "0x2",
      "transactionHash": "0x73cc09fb298ccdbcf6b060b61940288c554766932dcf0798a12f6eadca538ddb",
      "transactionIndex": "0x1",
      "blockHash": "0xd713530ab3cd37fef1bb2999fdcf4e4c2cb609421e14939da006dbd5140b8ed1",
      "blockNumber": "0xbc9e8",
      "gasUsed": "0x34957",
      "effectiveGasPrice": "0x5f5e100",
      "from": "0x660ad4b5a74130a4796b4d54bc6750ae93c86e6c",
      "to": "0x2843c269d2a64ecfa63548e8b3fc0fd23b7f70cb",
      "contractAddress": null,
      "gasUsedForL1": "0x4af8",
      "l1BlockNumber": "0x15116a6"
    }
  ],
  "libraries": [],
  "pending": [],
  "returns": {},
  "timestamp": 1742514141,
  "chain": 7887,
  "commit": "91433bee"
}