{
  "transactions": [
    {
      "hash": "0x099156d8ccb8d57c4e638a9f4c4e9d0d2f8891c92f35cf25467bf60fed7a9003",
      "transactionType": "CALL",
      "contractName": null,
      "contractAddress": "0x36E2DBe085eE4d028fD60f70670f662365d0E978",
      "function": "revokeRole(bytes32,address)",
      "arguments": [
        "0xc4c453d647953c0fd35db5a34ee76e60fb4abc3a8fb891a25936b70b38f29253",
        "0x660ad4B5A74130a4796B4d54BC6750Ae93C86e6c"
      ],
      "transaction": {
        "type": "0x02",
        "from": "0x660ad4b5a74130a4796b4d54bc6750ae93c86e6c",
        "to": "0x36e2dbe085ee4d028fd60f70670f662365d0e978",
        "gas": "0x1049c",
        "value": "0x0",
        "data": "0xd547741fc4c453d647953c0fd35db5a34ee76e60fb4abc3a8fb891a25936b70b38f29253000000000000000000000000660ad4b5a74130a4796b4d54bc6750ae93c86e6c",
        "nonce": "0x92",
        "accessList": []
      },
      "additionalContracts": [],
      "isFixedGasLimit": false
    },
    {
      "hash": "0xc575d8f77901ba5c32e92877d6da36dfe59d14726c0f0e505357e6dad5c9c11c",
      "transactionType": "CALL",
      "contractName": null,
      "contractAddress": "0x36E2DBe085eE4d028fD60f70670f662365d0E978",
      "function": "grantRole(bytes32,address)",
      "arguments": [
        "0xc4c453d647953c0fd35db5a34ee76e60fb4abc3a8fb891a25936b70b38f29253",
        "0x8bFe32Ac9C21609F45eE6AE44d4E326973700614"
      ],
      "transaction": {
        "type": "0x02",
        "from": "0x660ad4b5a74130a4796b4d54bc6750ae93c86e6c",
        "to": "0x36e2dbe085ee4d028fd60f70670f662365d0e978",
        "gas": "0x15b41",
        "value": "0x0",
        "data": "0x2f2ff15dc4c453d647953c0fd35db5a34ee76e60fb4abc3a8fb891a25936b70b38f292530000000000000000000000008bfe32ac9c21609f45ee6ae44d4e326973700614",
        "nonce": "0x93",
        "accessList": []
      },
      "additionalContracts": [],
      "isFixedGasLimit": false
    },
    {
      "hash": "0x5c69f7a48052ae607f375f379127c0f375bb7de7f911e822282212bc21bb0fc5",
      "transactionType": "CALL",
      "contractName": null,
      "contractAddress": "0xeb61Ae531F3a3b06E9da77Ec4AD03B102F5b4eF2",
      "function": "revokeRole(bytes32,address)",
      "arguments": [
        "0xc4c453d647953c0fd35db5a34ee76e60fb4abc3a8fb891a25936b70b38f29253",
        "0x660ad4B5A74130a4796B4d54BC6750Ae93C86e6c"
      ],
      "transaction": {
        "type": "0x02",
        "from": "0x660ad4b5a74130a4796b4d54bc6750ae93c86e6c",
        "to": "0xeb61ae531f3a3b06e9da77ec4ad03b102f5b4ef2",
        "gas": "0x1042e",
        "value": "0x0",
        "data": "0xd547741fc4c453d647953c0fd35db5a34ee76e60fb4abc3a8fb891a25936b70b38f29253000000000000000000000000660ad4b5a74130a4796b4d54bc6750ae93c86e6c",
        "nonce": "0x94",
        "accessList": []
      },
      "additionalContracts": [],
      "isFixedGasLimit": false
    },
    {
      "hash": "0xdfe5de5b5b4f384dbd89584955d5e826dbf954e8c2e1a2d9192b8af0de3463c4",
      "transactionType": "CALL",
      "contractName": null,
      "contractAddress": "0xeb61Ae531F3a3b06E9da77Ec4AD03B102F5b4eF2",
      "function": "grantRole(bytes32,address)",
      "arguments": [
        "0xc4c453d647953c0fd35db5a34ee76e60fb4abc3a8fb891a25936b70b38f29253",
        "0x8bFe32Ac9C21609F45eE6AE44d4E326973700614"
      ],
      "transaction": {
        "type": "0x02",
        "from": "0x660ad4b5a74130a4796b4d54bc6750ae93c86e6c",
        "to": "0xeb61ae531f3a3b06e9da77ec4ad03b102f5b4ef2",
        "gas": "0x15b0d",
        "value": "0x0",
        "data": "0x2f2ff15dc4c453d647953c0fd35db5a34ee76e60fb4abc3a8fb891a25936b70b38f292530000000000000000000000008bfe32ac9c21609f45ee6ae44d4e326973700614",
        "nonce": "0x95",
        "accessList": []
      },
      "additionalContracts": [],
      "isFixedGasLimit": false
    },
    {
      "hash": "0x089959211e9f18793a22a39d5585278624d32d119908260675c078b41a77f945",
      "transactionType": "CALL",
      "contractName": null,
      "contractAddress": "0x4b7945796aFe4d2fCe6D271bF7773b5163E1bcC1",
      "function": "revokeRole(bytes32,address)",
      "arguments": [
        "0xc4c453d647953c0fd35db5a34ee76e60fb4abc3a8fb891a25936b70b38f29253",
        "0x660ad4B5A74130a4796B4d54BC6750Ae93C86e6c"
      ],
      "transaction": {
        "type": "0x02",
        "from": "0x660ad4b5a74130a4796b4d54bc6750ae93c86e6c",
        "to": "0x4b7945796afe4d2fce6d271bf7773b5163e1bcc1",
        "gas": "0x104e2",
        "value": "0x0",
        "data": "0xd547741fc4c453d647953c0fd35db5a34ee76e60fb4abc3a8fb891a25936b70b38f29253000000000000000000000000660ad4b5a74130a4796b4d54bc6750ae93c86e6c",
        "nonce": "0x96",
        "accessList": []
      },
      "additionalContracts": [],
      "isFixedGasLimit": false
    },
    {
      "hash": "0xf5f1101b6ed812ba8e9b332c150c02ecd6325a590192531e964dd8911025b706",
      "transactionType": "CALL",
      "contractName": null,
      "contractAddress": "0x4b7945796aFe4d2fCe6D271bF7773b5163E1bcC1",
      "function": "grantRole(bytes32,address)",
      "arguments": [
        "0xc4c453d647953c0fd35db5a34ee76e60fb4abc3a8fb891a25936b70b38f29253",
        "0x8bFe32Ac9C21609F45eE6AE44d4E326973700614"
      ],
      "transaction": {
        "type": "0x02",
        "from": "0x660ad4b5a74130a4796b4d54bc6750ae93c86e6c",
        "to": "0x4b7945796afe4d2fce6d271bf7773b5163e1bcc1",
        "gas": "0x15bd4",
        "value": "0x0",
        "data": "0x2f2ff15dc4c453d647953c0fd35db5a34ee76e60fb4abc3a8fb891a25936b70b38f292530000000000000000000000008bfe32ac9c21609f45ee6ae44d4e326973700614",
        "nonce": "0x97",
        "accessList": []
      },
      "additionalContracts": [],
      "isFixedGasLimit": false
    },
    {
      "hash": "0xd40b5fc41f5a1b5d7e68eae429939e11480620aea7a6db5ef5213698cb5aa981",
      "transactionType": "CALL",
      "contractName": null,
      "contractAddress": "0x6F855dE562CC9d019757f5F68a15Cd392FF52962",
      "function": "revokeRole(bytes32,address)",
      "arguments": [
        "0xc4c453d647953c0fd35db5a34ee76e60fb4abc3a8fb891a25936b70b38f29253",
        "0x660ad4B5A74130a4796B4d54BC6750Ae93C86e6c"
      ],
      "transaction": {
        "type": "0x02",
        "from": "0x660ad4b5a74130a4796b4d54bc6750ae93c86e6c",
        "to": "0x6f855de562cc9d019757f5f68a15cd392ff52962",
        "gas": "0x10509",
        "value": "0x0",
        "data": "0xd547741fc4c453d647953c0fd35db5a34ee76e60fb4abc3a8fb891a25936b70b38f29253000000000000000000000000660ad4b5a74130a4796b4d54bc6750ae93c86e6c",
        "nonce": "0x98",
        "accessList": []
      },
      "additionalContracts": [],
      "isFixedGasLimit": false
    },
    {
      "hash": "0x5ee882e1a9cbac2ba81691085ec5a89ce1b5088fe2bd0776b7346721b2feefbd",
      "transactionType": "CALL",
      "contractName": null,
      "contractAddress": "0x6F855dE562CC9d019757f5F68a15Cd392FF52962",
      "function": "grantRole(bytes32,address)",
      "arguments": [
        "0xc4c453d647953c0fd35db5a34ee76e60fb4abc3a8fb891a25936b70b38f29253",
        "0x8bFe32Ac9C21609F45eE6AE44d4E326973700614"
      ],
      "transaction": {
        "type": "0x02",
        "from": "0x660ad4b5a74130a4796b4d54bc6750ae93c86e6c",
        "to": "0x6f855de562cc9d019757f5f68a15cd392ff52962",
        "gas": "0x15b91",
        "value": "0x0",
        "data": "0x2f2ff15dc4c453d647953c0fd35db5a34ee76e60fb4abc3a8fb891a25936b70b38f292530000000000000000000000008bfe32ac9c21609f45ee6ae44d4e326973700614",
        "nonce": "0x99",
        "accessList": []
      },
      "additionalContracts": [],
      "isFixedGasLimit": false
    },
    {
      "hash": "0xa135b546502c1bdaaf4045ff4aa4b6ecb78cbe7cd13a6c3f451cd28ae53550d4",
      "transactionType": "CALL",
      "contractName": null,
      "contractAddress": "0xc5d01939Af7Ce9Ffc505F0bb36eFeDde7920f2dc",
      "function": "revokeRole(bytes32,address)",
      "arguments": [
        "0xc4c453d647953c0fd35db5a34ee76e60fb4abc3a8fb891a25936b70b38f29253",
        "0x660ad4B5A74130a4796B4d54BC6750Ae93C86e6c"
      ],
      "transaction": {
        "type": "0x02",
        "from": "0x660ad4b5a74130a4796b4d54bc6750ae93c86e6c",
        "to": "0xc5d01939af7ce9ffc505f0bb36efedde7920f2dc",
        "gas": "0x105c0",
        "value": "0x0",
        "data": "0xd547741fc4c453d647953c0fd35db5a34ee76e60fb4abc3a8fb891a25936b70b38f29253000000000000000000000000660ad4b5a74130a4796b4d54bc6750ae93c86e6c",
        "nonce": "0x9a",
        "accessList": []
      },
      "additionalContracts": [],
      "isFixedGasLimit": false
    },
    {
      "hash": "0x75fbde467738e5061144468389c43ba2485c8279ec0d9fbf01d115ada8cf8a84",
      "transactionType": "CALL",
      "contractName": null,
      "contractAddress": "0xc5d01939Af7Ce9Ffc505F0bb36eFeDde7920f2dc",
      "function": "grantRole(bytes32,address)",
      "arguments": [
        "0xc4c453d647953c0fd35db5a34ee76e60fb4abc3a8fb891a25936b70b38f29253",
        "0x8bFe32Ac9C21609F45eE6AE44d4E326973700614"
      ],
      "transaction": {
        "type": "0x02",
        "from": "0x660ad4b5a74130a4796b4d54bc6750ae93c86e6c",
        "to": "0xc5d01939af7ce9ffc505f0bb36efedde7920f2dc",
        "gas": "0x15c7f",
        "value": "0x0",
        "data": "0x2f2ff15dc4c453d647953c0fd35db5a34ee76e60fb4abc3a8fb891a25936b70b38f292530000000000000000000000008bfe32ac9c21609f45ee6ae44d4e326973700614",
        "nonce": "0x9b",
        "accessList": []
      },
      "additionalContracts": [],
      "isFixedGasLimit": false
    },
    {
      "hash": "0x6dfc2ad2e9c44209a7b005b22bda52bdd41d928ca1f5aca06798daffed95a6c0",
      "transactionType": "CALL",
      "contractName": null,
      "contractAddress": "0x05369D989D9dD9cD6537E667865Ee8157d5EE91B",
      "function": "revokeRole(bytes32,address)",
      "arguments": [
        "0xc4c453d647953c0fd35db5a34ee76e60fb4abc3a8fb891a25936b70b38f29253",
        "0x660ad4B5A74130a4796B4d54BC6750Ae93C86e6c"
      ],
      "transaction": {
        "type": "0x02",
        "from": "0x660ad4b5a74130a4796b4d54bc6750ae93c86e6c",
        "to": "0x05369d989d9dd9cd6537e667865ee8157d5ee91b",
        "gas": "0x104e8",
        "value": "0x0",
        "data": "0xd547741fc4c453d647953c0fd35db5a34ee76e60fb4abc3a8fb891a25936b70b38f29253000000000000000000000000660ad4b5a74130a4796b4d54bc6750ae93c86e6c",
        "nonce": "0x9c",
        "accessList": []
      },
      "additionalContracts": [],
      "isFixedGasLimit": false
    },
    {
      "hash": "0x2438154b4eaa25eea40984b6c32e9eb3541f6cc1ada329250c8d9ba31ab781c8",
      "transactionType": "CALL",
      "contractName": null,
      "contractAddress": "0x05369D989D9dD9cD6537E667865Ee8157d5EE91B",
      "function": "grantRole(bytes32,address)",
      "arguments": [
        "0xc4c453d647953c0fd35db5a34ee76e60fb4abc3a8fb891a25936b70b38f29253",
        "0x8bFe32Ac9C21609F45eE6AE44d4E326973700614"
      ],
      "transaction": {
        "type": "0x02",
        "from": "0x660ad4b5a74130a4796b4d54bc6750ae93c86e6c",
        "to": "0x05369d989d9dd9cd6537e667865ee8157d5ee91b",
        "gas": "0x15bbc",
        "value": "0x0",
        "data": "0x2f2ff15dc4c453d647953c0fd35db5a34ee76e60fb4abc3a8fb891a25936b70b38f292530000000000000000000000008bfe32ac9c21609f45ee6ae44d4e326973700614",
        "nonce": "0x9d",
        "accessList": []
      },
      "additionalContracts": [],
      "isFixedGasLimit": false
    },
    {
      "hash": "0x6c83c1361043e5c69d2406bfd8c777b98aaf1b3e1b2773f87c79cb1824689aa4",
      "transactionType": "CALL",
      "contractName": null,
      "contractAddress": "0x4D585D346DFB27b297C37F480a82d4cAB39491Bb",
      "function": "revokeRole(bytes32,address)",
      "arguments": [
        "0xc4c453d647953c0fd35db5a34ee76e60fb4abc3a8fb891a25936b70b38f29253",
        "0x660ad4B5A74130a4796B4d54BC6750Ae93C86e6c"
      ],
      "transaction": {
        "type": "0x02",
        "from": "0x660ad4b5a74130a4796b4d54bc6750ae93c86e6c",
        "to": "0x4d585d346dfb27b297c37f480a82d4cab39491bb",
        "gas": "0x104f9",
        "value": "0x0",
        "data": "0xd547741fc4c453d647953c0fd35db5a34ee76e60fb4abc3a8fb891a25936b70b38f29253000000000000000000000000660ad4b5a74130a4796b4d54bc6750ae93c86e6c",
        "nonce": "0x9e",
        "accessList": []
      },
      "additionalContracts": [],
      "isFixedGasLimit": false
    },
    {
      "hash": "0x16fec47c68194cfe64cf8bf27adf3ba88c889c5d784c6a99ea40f4b213fd88bd",
      "transactionType": "CALL",
      "contractName": null,
      "contractAddress": "0x4D585D346DFB27b297C37F480a82d4cAB39491Bb",
      "function": "grantRole(bytes32,address)",
      "arguments": [
        "0xc4c453d647953c0fd35db5a34ee76e60fb4abc3a8fb891a25936b70b38f29253",
        "0x8bFe32Ac9C21609F45eE6AE44d4E326973700614"
      ],
      "transaction": {
        "type": "0x02",
        "from": "0x660ad4b5a74130a4796b4d54bc6750ae93c86e6c",
        "to": "0x4d585d346dfb27b297c37f480a82d4cab39491bb",
        "gas": "0x15c74",
        "value": "0x0",
        "data": "0x2f2ff15dc4c453d647953c0fd35db5a34ee76e60fb4abc3a8fb891a25936b70b38f292530000000000000000000000008bfe32ac9c21609f45ee6ae44d4e326973700614",
        "nonce": "0x9f",
        "accessList": []
      },
      "additionalContracts": [],
      "isFixedGasLimit": false
    },
    {
      "hash": "0x204d2594c75840fb30dc1e0b1bc6ef4786e1010b5cead9182743b2be37253af7",
      "transactionType": "CALL",
      "contractName": null,
      "contractAddress": "0x00A0c9d82B95a17Cdf2D46703F2DcA13EB0E8A94",
      "function": "revokeRole(bytes32,address)",
      "arguments": [
        "0xc4c453d647953c0fd35db5a34ee76e60fb4abc3a8fb891a25936b70b38f29253",
        "0x660ad4B5A74130a4796B4d54BC6750Ae93C86e6c"
      ],
      "transaction": {
        "type": "0x02",
        "from": "0x660ad4b5a74130a4796b4d54bc6750ae93c86e6c",
        "to": "0x00a0c9d82b95a17cdf2d46703f2dca13eb0e8a94",
        "gas": "0x105b2",
        "value": "0x0",
        "data": "0xd547741fc4c453d647953c0fd35db5a34ee76e60fb4abc3a8fb891a25936b70b38f29253000000000000000000000000660ad4b5a74130a4796b4d54bc6750ae93c86e6c",
        "nonce": "0xa0",
        "accessList": []
      },
      "additionalContracts": [],
      "isFixedGasLimit": false
    },
    {
      "hash": "0x24a0e7ee9acde5554a40e983e271e2d164afdc19bfdc88cc84abaea54077a14f",
      "transactionType": "CALL",
      "contractName": null,
      "contractAddress": "0x00A0c9d82B95a17Cdf2D46703F2DcA13EB0E8A94",
      "function": "grantRole(bytes32,address)",
      "arguments": [
        "0xc4c453d647953c0fd35db5a34ee76e60fb4abc3a8fb891a25936b70b38f29253",
        "0x8bFe32Ac9C21609F45eE6AE44d4E326973700614"
      ],
      "transaction": {
        "type": "0x02",
        "from": "0x660ad4b5a74130a4796b4d54bc6750ae93c86e6c",
        "to": "0x00a0c9d82b95a17cdf2d46703f2dca13eb0e8a94",
        "gas": "0x15c91",
        "value": "0x0",
        "data": "0x2f2ff15dc4c453d647953c0fd35db5a34ee76e60fb4abc3a8fb891a25936b70b38f292530000000000000000000000008bfe32ac9c21609f45ee6ae44d4e326973700614",
        "nonce": "0xa1",
        "accessList": []
      },
      "additionalContracts": [],
      "isFixedGasLimit": false
    },
    {
      "hash": "0x06bd02363241d1e6c7a6dd8f5dbf9d23314a4726d992170e3b8bef911147fcb8",
      "transactionType": "CALL",
      "contractName": null,
      "contractAddress": "0x47469683AEAD0B5EF2c599ff34d55C3D998393Bf",
      "function": "revokeRole(bytes32,address)",
      "arguments": [
        "0xc4c453d647953c0fd35db5a34ee76e60fb4abc3a8fb891a25936b70b38f29253",
        "0x660ad4B5A74130a4796B4d54BC6750Ae93C86e6c"
      ],
      "transaction": {
        "type": "0x02",
        "from": "0x660ad4b5a74130a4796b4d54bc6750ae93c86e6c",
        "to": "0x47469683aead0b5ef2c599ff34d55c3d998393bf",
        "gas": "0x10577",
        "value": "0x0",
        "data": "0xd547741fc4c453d647953c0fd35db5a34ee76e60fb4abc3a8fb891a25936b70b38f29253000000000000000000000000660ad4b5a74130a4796b4d54bc6750ae93c86e6c",
        "nonce": "0xa2",
        "accessList": []
      },
      "additionalContracts": [],
      "isFixedGasLimit": false
    },
    {
      "hash": "0xd5ab4bf30d9c8b29b24d41527f3fb7f3b45a4fff12fb017848eb63e78de0bb3a",
      "transactionType": "CALL",
      "contractName": null,
      "contractAddress": "0x47469683AEAD0B5EF2c599ff34d55C3D998393Bf",
      "function": "grantRole(bytes32,address)",
      "arguments": [
        "0xc4c453d647953c0fd35db5a34ee76e60fb4abc3a8fb891a25936b70b38f29253",
        "0x8bFe32Ac9C21609F45eE6AE44d4E326973700614"
      ],
      "transaction": {
        "type": "0x02",
        "from": "0x660ad4b5a74130a4796b4d54bc6750ae93c86e6c",
        "to": "0x47469683aead0b5ef2c599ff34d55c3d998393bf",
        "gas": "0x15c50",
        "value": "0x0",
        "data": "0x2f2ff15dc4c453d647953c0fd35db5a34ee76e60fb4abc3a8fb891a25936b70b38f292530000000000000000000000008bfe32ac9c21609f45ee6ae44d4e326973700614",
        "nonce": "0xa3",
        "accessList": []
      },
      "additionalContracts": [],
      "isFixedGasLimit": false
    },
    {
      "hash": "0x7e8cd1f3f7ca494521a52fab036a9453ee71695fe4aa079406dc540121935fb6",
      "transactionType": "CALL",
      "contractName": null,
      "contractAddress": "0xC88A469B96A62d4DA14Dc5e23BDBC495D2b15C6B",
      "function": "revokeRole(bytes32,address)",
      "arguments": [
        "0xc4c453d647953c0fd35db5a34ee76e60fb4abc3a8fb891a25936b70b38f29253",
        "0x660ad4B5A74130a4796B4d54BC6750Ae93C86e6c"
      ],
      "transaction": {
        "type": "0x02",
        "from": "0x660ad4b5a74130a4796b4d54bc6750ae93c86e6c",
        "to": "0xc88a469b96a62d4da14dc5e23bdbc495d2b15c6b",
        "gas": "0x10509",
        "value": "0x0",
        "data": "0xd547741fc4c453d647953c0fd35db5a34ee76e60fb4abc3a8fb891a25936b70b38f29253000000000000000000000000660ad4b5a74130a4796b4d54bc6750ae93c86e6c",
        "nonce": "0xa4",
        "accessList": []
      },
      "additionalContracts": [],
      "isFixedGasLimit": false
    },
    {
      "hash": "0xf979ef79ba164d6151c2601d009087cc3baeeb986ad3b842fe863ba24a5de5e9",
      "transactionType": "CALL",
      "contractName": null,
      "contractAddress": "0xC88A469B96A62d4DA14Dc5e23BDBC495D2b15C6B",
      "function": "grantRole(bytes32,address)",
      "arguments": [
        "0xc4c453d647953c0fd35db5a34ee76e60fb4abc3a8fb891a25936b70b38f29253",
        "0x8bFe32Ac9C21609F45eE6AE44d4E326973700614"
      ],
      "transaction": {
        "type": "0x02",
        "from": "0x660ad4b5a74130a4796b4d54bc6750ae93c86e6c",
        "to": "0xc88a469b96a62d4da14dc5e23bdbc495d2b15c6b",
        "gas": "0x15baf",
        "value": "0x0",
        "data": "0x2f2ff15dc4c453d647953c0fd35db5a34ee76e60fb4abc3a8fb891a25936b70b38f292530000000000000000000000008bfe32ac9c21609f45ee6ae44d4e326973700614",
        "nonce": "0xa5",
        "accessList": []
      },
      "additionalContracts": [],
      "isFixedGasLimit": false
    },
    {
      "hash": "0x47d8bbdd543a48cc6a7407becb01bf8677cfdfc2baab5d25e45ab91ce2526ed8",
      "transactionType": "CALL",
      "contractName": null,
      "contractAddress": "0x755cD5d147036E11c76F1EeffDd94794fC265f0d",
      "function": "revokeRole(bytes32,address)",
      "arguments": [
        "0xc4c453d647953c0fd35db5a34ee76e60fb4abc3a8fb891a25936b70b38f29253",
        "0x660ad4B5A74130a4796B4d54BC6750Ae93C86e6c"
      ],
      "transaction": {
        "type": "0x02",
        "from": "0x660ad4b5a74130a4796b4d54bc6750ae93c86e6c",
        "to": "0x755cd5d147036e11c76f1eeffdd94794fc265f0d",
        "gas": "0x104ec",
        "value": "0x0",
        "data": "0xd547741fc4c453d647953c0fd35db5a34ee76e60fb4abc3a8fb891a25936b70b38f29253000000000000000000000000660ad4b5a74130a4796b4d54bc6750ae93c86e6c",
        "nonce": "0xa6",
        "accessList": []
      },
      "additionalContracts": [],
      "isFixedGasLimit": false
    },
    {
      "hash": "0x1b86cda1c3a92763876b2506b617125f41da4cfdd5318406a9127d7882e4e859",
      "transactionType": "CALL",
      "contractName": null,
      "contractAddress": "0x755cD5d147036E11c76F1EeffDd94794fC265f0d",
      "function": "grantRole(bytes32,address)",
      "arguments": [
        "0xc4c453d647953c0fd35db5a34ee76e60fb4abc3a8fb891a25936b70b38f29253",
        "0x8bFe32Ac9C21609F45eE6AE44d4E326973700614"
      ],
      "transaction": {
        "type": "0x02",
        "from": "0x660ad4b5a74130a4796b4d54bc6750ae93c86e6c",
        "to": "0x755cd5d147036e11c76f1eeffdd94794fc265f0d",
        "gas": "0x15c36",
        "value": "0x0",
        "data": "0x2f2ff15dc4c453d647953c0fd35db5a34ee76e60fb4abc3a8fb891a25936b70b38f292530000000000000000000000008bfe32ac9c21609f45ee6ae44d4e326973700614",
        "nonce": "0xa7",
        "accessList": []
      },
      "additionalContracts": [],
      "isFixedGasLimit": false
    },
    {
      "hash": "0x187ee99c00461404be9c38f86cccf7ace072062cecb0047155bf9b4e7629a7c7",
      "transactionType": "CALL",
      "contractName": null,
      "contractAddress": "0xD97E3cD27fb8af306b2CD42A61B7cbaAF044D08D",
      "function": "revokeRole(bytes32,address)",
      "arguments": [
        "0xc4c453d647953c0fd35db5a34ee76e60fb4abc3a8fb891a25936b70b38f29253",
        "0x660ad4B5A74130a4796B4d54BC6750Ae93C86e6c"
      ],
      "transaction": {
        "type": "0x02",
        "from": "0x660ad4b5a74130a4796b4d54bc6750ae93c86e6c",
        "to": "0xd97e3cd27fb8af306b2cd42a61b7cbaaf044d08d",
        "gas": "0x10512",
        "value": "0x0",
        "data": "0xd547741fc4c453d647953c0fd35db5a34ee76e60fb4abc3a8fb891a25936b70b38f29253000000000000000000000000660ad4b5a74130a4796b4d54bc6750ae93c86e6c",
        "nonce": "0xa8",
        "accessList": []
      },
      "additionalContracts": [],
      "isFixedGasLimit": false
    },
    {
      "hash": "0x0f2db570635e127c2d67d5830f4a12cb9ed1621056de39c5004468cadffd18fa",
      "transactionType": "CALL",
      "contractName": null,
      "contractAddress": "0xD97E3cD27fb8af306b2CD42A61B7cbaAF044D08D",
      "function": "grantRole(bytes32,address)",
      "arguments": [
        "0xc4c453d647953c0fd35db5a34ee76e60fb4abc3a8fb891a25936b70b38f29253",
        "0x8bFe32Ac9C21609F45eE6AE44d4E326973700614"
      ],
      "transaction": {
        "type": "0x02",
        "from": "0x660ad4b5a74130a4796b4d54bc6750ae93c86e6c",
        "to": "0xd97e3cd27fb8af306b2cd42a61b7cbaaf044d08d",
        "gas": "0x15bb6",
        "value": "0x0",
        "data": "0x2f2ff15dc4c453d647953c0fd35db5a34ee76e60fb4abc3a8fb891a25936b70b38f292530000000000000000000000008bfe32ac9c21609f45ee6ae44d4e326973700614",
        "nonce": "0xa9",
        "accessList": []
      },
      "additionalContracts": [],
      "isFixedGasLimit": false
    },
    {
      "hash": "0x7352f3fb7a006ee8ce2228aa7af53c405c8ec9473f74062d2e9e2a3d72c72454",
      "transactionType": "CALL",
      "contractName": null,
      "contractAddress": "0x7C852c2a3e367453Ce3a68A4D12c313BaD0565e3",
      "function": "revokeRole(bytes32,address)",
      "arguments": [
        "0xc4c453d647953c0fd35db5a34ee76e60fb4abc3a8fb891a25936b70b38f29253",
        "0x660ad4B5A74130a4796B4d54BC6750Ae93C86e6c"
      ],
      "transaction": {
        "type": "0x02",
        "from": "0x660ad4b5a74130a4796b4d54bc6750ae93c86e6c",
        "to": "0x7c852c2a3e367453ce3a68a4d12c313bad0565e3",
        "gas": "0x104f4",
        "value": "0x0",
        "data": "0xd547741fc4c453d647953c0fd35db5a34ee76e60fb4abc3a8fb891a25936b70b38f29253000000000000000000000000660ad4b5a74130a4796b4d54bc6750ae93c86e6c",
        "nonce": "0xaa",
        "accessList": []
      },
      "additionalContracts": [],
      "isFixedGasLimit": false
    },
    {
      "hash": "0x889edcefa2c37a32fd85b6c6a8d04368149d5d298ef378e5e38cc930c75887ff",
      "transactionType": "CALL",
      "contractName": null,
      "contractAddress": "0x7C852c2a3e367453Ce3a68A4D12c313BaD0565e3",
      "function": "grantRole(bytes32,address)",
      "arguments": [
        "0xc4c453d647953c0fd35db5a34ee76e60fb4abc3a8fb891a25936b70b38f29253",
        "0x8bFe32Ac9C21609F45eE6AE44d4E326973700614"
      ],
      "transaction": {
        "type": "0x02",
        "from": "0x660ad4b5a74130a4796b4d54bc6750ae93c86e6c",
        "to": "0x7c852c2a3e367453ce3a68a4d12c313bad0565e3",
        "gas": "0x15b9a",
        "value": "0x0",
        "data": "0x2f2ff15dc4c453d647953c0fd35db5a34ee76e60fb4abc3a8fb891a25936b70b38f292530000000000000000000000008bfe32ac9c21609f45ee6ae44d4e326973700614",
        "nonce": "0xab",
        "accessList": []
      },
      "additionalContracts": [],
      "isFixedGasLimit": false
    },
    {
      "hash": "0xa936e04bd8289cdec43acadd617a4fe5423e0519581a5986bbf274e4952751b0",
      "transactionType": "CALL",
      "contractName": null,
      "contractAddress": "0x351d8894fB8bfa1b0eFF77bFD9Aab18eA2da8fDd",
      "function": "revokeRole(bytes32,address)",
      "arguments": [
        "0xc4c453d647953c0fd35db5a34ee76e60fb4abc3a8fb891a25936b70b38f29253",
        "0x660ad4B5A74130a4796B4d54BC6750Ae93C86e6c"
      ],
      "transaction": {
        "type": "0x02",
        "from": "0x660ad4b5a74130a4796b4d54bc6750ae93c86e6c",
        "to": "0x351d8894fb8bfa1b0eff77bfd9aab18ea2da8fdd",
        "gas": "0x104b6",
        "value": "0x0",
        "data": "0xd547741fc4c453d647953c0fd35db5a34ee76e60fb4abc3a8fb891a25936b70b38f29253000000000000000000000000660ad4b5a74130a4796b4d54bc6750ae93c86e6c",
        "nonce": "0xac",
        "accessList": []
      },
      "additionalContracts": [],
      "isFixedGasLimit": false
    },
    {
      "hash": "0xce3342ae8ecfd63cbd1cb11257b520bfd5f3d5bf1ac3aae3ad09928771623786",
      "transactionType": "CALL",
      "contractName": null,
      "contractAddress": "0x351d8894fB8bfa1b0eFF77bFD9Aab18eA2da8fDd",
      "function": "grantRole(bytes32,address)",
      "arguments": [
        "0xc4c453d647953c0fd35db5a34ee76e60fb4abc3a8fb891a25936b70b38f29253",
        "0x8bFe32Ac9C21609F45eE6AE44d4E326973700614"
      ],
      "transaction": {
        "type": "0x02",
        "from": "0x660ad4b5a74130a4796b4d54bc6750ae93c86e6c",
        "to": "0x351d8894fb8bfa1b0eff77bfd9aab18ea2da8fdd",
        "gas": "0x15c6c",
        "value": "0x0",
        "data": "0x2f2ff15dc4c453d647953c0fd35db5a34ee76e60fb4abc3a8fb891a25936b70b38f292530000000000000000000000008bfe32ac9c21609f45ee6ae44d4e326973700614",
        "nonce": "0xad",
        "accessList": []
      },
      "additionalContracts": [],
      "isFixedGasLimit": false
    },
    {
      "hash": "0x92510b0e69d5a09a9df53faefacc9a73e8f0f69c989b1cf77994f2b079fee6f5",
      "transactionType": "CALL",
      "contractName": null,
      "contractAddress": "0x70ae312d3f1c9116BF89db833DaDc060D4AD820F",
      "function": "revokeRole(bytes32,address)",
      "arguments": [
        "0xc4c453d647953c0fd35db5a34ee76e60fb4abc3a8fb891a25936b70b38f29253",
        "0x660ad4B5A74130a4796B4d54BC6750Ae93C86e6c"
      ],
      "transaction": {
        "type": "0x02",
        "from": "0x660ad4b5a74130a4796b4d54bc6750ae93c86e6c",
        "to": "0x70ae312d3f1c9116bf89db833dadc060d4ad820f",
        "gas": "0x1056f",
        "value": "0x0",
        "data": "0xd547741fc4c453d647953c0fd35db5a34ee76e60fb4abc3a8fb891a25936b70b38f29253000000000000000000000000660ad4b5a74130a4796b4d54bc6750ae93c86e6c",
        "nonce": "0xae",
        "accessList": []
      },
      "additionalContracts": [],
      "isFixedGasLimit": false
    },
    {
      "hash": "0xa1e10496e68f713e58c135fbfc8bc45114ad3560eb3384bf7249269902974bb3",
      "transactionType": "CALL",
      "contractName": null,
      "contractAddress": "0x70ae312d3f1c9116BF89db833DaDc060D4AD820F",
      "function": "grantRole(bytes32,address)",
      "arguments": [
        "0xc4c453d647953c0fd35db5a34ee76e60fb4abc3a8fb891a25936b70b38f29253",
        "0x8bFe32Ac9C21609F45eE6AE44d4E326973700614"
      ],
      "transaction": {
        "type": "0x02",
        "from": "0x660ad4b5a74130a4796b4d54bc6750ae93c86e6c",
        "to": "0x70ae312d3f1c9116bf89db833dadc060d4ad820f",
        "gas": "0x15c65",
        "value": "0x0",
        "data": "0x2f2ff15dc4c453d647953c0fd35db5a34ee76e60fb4abc3a8fb891a25936b70b38f292530000000000000000000000008bfe32ac9c21609f45ee6ae44d4e326973700614",
        "nonce": "0xaf",
        "accessList": []
      },
      "additionalContracts": [],
      "isFixedGasLimit": false
    },
    {
      "hash": "0xf581aab98cb069a54608d5d24b44ed97076109deca2a50ab37dc1931cb7aaa96",
      "transactionType": "CALL",
      "contractName": null,
      "contractAddress": "0x8bD30d8c5d5cBb5e41Af7B9A4bD654b34772e890",
      "function": "revokeRole(bytes32,address)",
      "arguments": [
        "0xc4c453d647953c0fd35db5a34ee76e60fb4abc3a8fb891a25936b70b38f29253",
        "0x660ad4B5A74130a4796B4d54BC6750Ae93C86e6c"
      ],
      "transaction": {
        "type": "0x02",
        "from": "0x660ad4b5a74130a4796b4d54bc6750ae93c86e6c",
        "to": "0x8bd30d8c5d5cbb5e41af7b9a4bd654b34772e890",
        "gas": "0x105a2",
        "value": "0x0",
        "data": "0xd547741fc4c453d647953c0fd35db5a34ee76e60fb4abc3a8fb891a25936b70b38f29253000000000000000000000000660ad4b5a74130a4796b4d54bc6750ae93c86e6c",
        "nonce": "0xb0",
        "accessList": []
      },
      "additionalContracts": [],
      "isFixedGasLimit": false
    },
    {
      "hash": "0xe41d983c54aee6ceca8f827dcbb98920100fb16a9a802e8ee0db4050974d7892",
      "transactionType": "CALL",
      "contractName": null,
      "contractAddress": "0x8bD30d8c5d5cBb5e41Af7B9A4bD654b34772e890",
      "function": "grantRole(bytes32,address)",
      "arguments": [
        "0xc4c453d647953c0fd35db5a34ee76e60fb4abc3a8fb891a25936b70b38f29253",
        "0x8bFe32Ac9C21609F45eE6AE44d4E326973700614"
      ],
      "transaction": {
        "type": "0x02",
        "from": "0x660ad4b5a74130a4796b4d54bc6750ae93c86e6c",
        "to": "0x8bd30d8c5d5cbb5e41af7b9a4bd654b34772e890",
        "gas": "0x15c26",
        "value": "0x0",
        "data": "0x2f2ff15dc4c453d647953c0fd35db5a34ee76e60fb4abc3a8fb891a25936b70b38f292530000000000000000000000008bfe32ac9c21609f45ee6ae44d4e326973700614",
        "nonce": "0xb1",
        "accessList": []
      },
      "additionalContracts": [],
      "isFixedGasLimit": false
    },
    {
      "hash": "0x9ec0afcb166d6989df815a23ab2c044013c657ceb447336b4d4155eb4cd3b6ef",
      "transactionType": "CALL",
      "contractName": null,
      "contractAddress": "0xdf34E61B6e7B9e348713d528fEB019d504d38c1e",
      "function": "revokeRole(bytes32,address)",
      "arguments": [
        "0xc4c453d647953c0fd35db5a34ee76e60fb4abc3a8fb891a25936b70b38f29253",
        "0x660ad4B5A74130a4796B4d54BC6750Ae93C86e6c"
      ],
      "transaction": {
        "type": "0x02",
        "from": "0x660ad4b5a74130a4796b4d54bc6750ae93c86e6c",
        "to": "0xdf34e61b6e7b9e348713d528feb019d504d38c1e",
        "gas": "0x10564",
        "value": "0x0",
        "data": "0xd547741fc4c453d647953c0fd35db5a34ee76e60fb4abc3a8fb891a25936b70b38f29253000000000000000000000000660ad4b5a74130a4796b4d54bc6750ae93c86e6c",
        "nonce": "0xb2",
        "accessList": []
      },
      "additionalContracts": [],
      "isFixedGasLimit": false
    },
    {
      "hash": "0x36ad5c2915d804dd92a0bb4ea1936f4f52cd33a312678677623b2550892c1552",
      "transactionType": "CALL",
      "contractName": null,
      "contractAddress": "0xdf34E61B6e7B9e348713d528fEB019d504d38c1e",
      "function": "grantRole(bytes32,address)",
      "arguments": [
        "0xc4c453d647953c0fd35db5a34ee76e60fb4abc3a8fb891a25936b70b38f29253",
        "0x8bFe32Ac9C21609F45eE6AE44d4E326973700614"
      ],
      "transaction": {
        "type": "0x02",
        "from": "0x660ad4b5a74130a4796b4d54bc6750ae93c86e6c",
        "to": "0xdf34e61b6e7b9e348713d528feb019d504d38c1e",
        "gas": "0x15bf6",
        "value": "0x0",
        "data": "0x2f2ff15dc4c453d647953c0fd35db5a34ee76e60fb4abc3a8fb891a25936b70b38f292530000000000000000000000008bfe32ac9c21609f45ee6ae44d4e326973700614",
        "nonce": "0xb3",
        "accessList": []
      },
      "additionalContracts": [],
      "isFixedGasLimit": false
    },
    {
      "hash": "0x8e3ba254b3a6bb55910cebd4f1991c385303fc7d9134e205bd37d68386a29461",
      "transactionType": "CALL",
      "contractName": null,
      "contractAddress": "0x9d46297E4d0fb4D911bDE9746dBb7077d897a908",
      "function": "revokeRole(bytes32,address)",
      "arguments": [
        "0xc4c453d647953c0fd35db5a34ee76e60fb4abc3a8fb891a25936b70b38f29253",
        "0x660ad4B5A74130a4796B4d54BC6750Ae93C86e6c"
      ],
      "transaction": {
        "type": "0x02",
        "from": "0x660ad4b5a74130a4796b4d54bc6750ae93c86e6c",
        "to": "0x9d46297e4d0fb4d911bde9746dbb7077d897a908",
        "gas": "0x105e3",
        "value": "0x0",
        "data": "0xd547741fc4c453d647953c0fd35db5a34ee76e60fb4abc3a8fb891a25936b70b38f29253000000000000000000000000660ad4b5a74130a4796b4d54bc6750ae93c86e6c",
        "nonce": "0xb4",
        "accessList": []
      },
      "additionalContracts": [],
      "isFixedGasLimit": false
    },
    {
      "hash": "0xa19d153f7effc6ca9f580506a797f6d3f3ce5cffa583c809bdda01d438bf8ce6",
      "transactionType": "CALL",
      "contractName": null,
      "contractAddress": "0x9d46297E4d0fb4D911bDE9746dBb7077d897a908",
      "function": "grantRole(bytes32,address)",
      "arguments": [
        "0xc4c453d647953c0fd35db5a34ee76e60fb4abc3a8fb891a25936b70b38f29253",
        "0x8bFe32Ac9C21609F45eE6AE44d4E326973700614"
      ],
      "transaction": {
        "type": "0x02",
        "from": "0x660ad4b5a74130a4796b4d54bc6750ae93c86e6c",
        "to": "0x9d46297e4d0fb4d911bde9746dbb7077d897a908",
        "gas": "0x15ce0",
        "value": "0x0",
        "data": "0x2f2ff15dc4c453d647953c0fd35db5a34ee76e60fb4abc3a8fb891a25936b70b38f292530000000000000000000000008bfe32ac9c21609f45ee6ae44d4e326973700614",
        "nonce": "0xb5",
        "accessList": []
      },
      "additionalContracts": [],
      "isFixedGasLimit": false
    },
    {
      "hash": "0x6a0684733e8a1bcdb2c222ffd7902ccce52fb268b86ee1f7fb7b0da3af0312ed",
      "transactionType": "CALL",
      "contractName": null,
      "contractAddress": "0x36E2DBe085eE4d028fD60f70670f662365d0E978",
      "function": "nominateOwner(address)",
      "arguments": [
        "0x8bFe32Ac9C21609F45eE6AE44d4E326973700614"
      ],
      "transaction": {
        "type": "0x02",
        "from": "0x660ad4b5a74130a4796b4d54bc6750ae93c86e6c",
        "to": "0x36e2dbe085ee4d028fd60f70670f662365d0e978",
        "gas": "0x1461e",
        "value": "0x0",
        "data": "0x5b94db270000000000000000000000008bfe32ac9c21609f45ee6ae44d4e326973700614",
        "nonce": "0xb6",
        "accessList": []
      },
      "additionalContracts": [],
      "isFixedGasLimit": false
    },
    {
      "hash": "0x133d25a290831c906c57383ad6071803fb86c28658efe9f223b96c138cb2fb79",
      "transactionType": "CALL",
      "contractName": null,
      "contractAddress": "0xeb61Ae531F3a3b06E9da77Ec4AD03B102F5b4eF2",
      "function": "nominateOwner(address)",
      "arguments": [
        "0x8bFe32Ac9C21609F45eE6AE44d4E326973700614"
      ],
      "transaction": {
        "type": "0x02",
        "from": "0x660ad4b5a74130a4796b4d54bc6750ae93c86e6c",
        "to": "0xeb61ae531f3a3b06e9da77ec4ad03b102f5b4ef2",
        "gas": "0x1463a",
        "value": "0x0",
        "data": "0x5b94db270000000000000000000000008bfe32ac9c21609f45ee6ae44d4e326973700614",
        "nonce": "0xb7",
        "accessList": []
      },
      "additionalContracts": [],
      "isFixedGasLimit": false
    },
    {
      "hash": "0x232a19fa130c10c6e4950fca30de21dc39293aa246bd3f2dacf01dbe8d0a66a1",
      "transactionType": "CALL",
      "contractName": null,
      "contractAddress": "0x4b7945796aFe4d2fCe6D271bF7773b5163E1bcC1",
      "function": "nominateOwner(address)",
      "arguments": [
        "0x8bFe32Ac9C21609F45eE6AE44d4E326973700614"
      ],
      "transaction": {
        "type": "0x02",
        "from": "0x660ad4b5a74130a4796b4d54bc6750ae93c86e6c",
        "to": "0x4b7945796afe4d2fce6d271bf7773b5163e1bcc1",
        "gas": "0x14601",
        "value": "0x0",
        "data": "0x5b94db270000000000000000000000008bfe32ac9c21609f45ee6ae44d4e326973700614",
        "nonce": "0xb8",
        "accessList": []
      },
      "additionalContracts": [],
      "isFixedGasLimit": false
    },
    {
      "hash": "0x8fddbd39dc0904a0990cae1df233107cab5a649f9df6b0e8fb3124177a6f0f45",
      "transactionType": "CALL",
      "contractName": null,
      "contractAddress": "0x6F855dE562CC9d019757f5F68a15Cd392FF52962",
      "function": "nominateOwner(address)",
      "arguments": [
        "0x8bFe32Ac9C21609F45eE6AE44d4E326973700614"
      ],
      "transaction": {
        "type": "0x02",
        "from": "0x660ad4b5a74130a4796b4d54bc6750ae93c86e6c",
        "to": "0x6f855de562cc9d019757f5f68a15cd392ff52962",
        "gas": "0x14616",
        "value": "0x0",
        "data": "0x5b94db270000000000000000000000008bfe32ac9c21609f45ee6ae44d4e326973700614",
        "nonce": "0xb9",
        "accessList": []
      },
      "additionalContracts": [],
      "isFixedGasLimit": false
    },
    {
      "hash": "0xa0fdd61f9494c0d403daa6c93578352da6b1251b9702239c3edc7046e1c7d866",
      "transactionType": "CALL",
      "contractName": null,
      "contractAddress": "0xc5d01939Af7Ce9Ffc505F0bb36eFeDde7920f2dc",
      "function": "nominateOwner(address)",
      "arguments": [
        "0x8bFe32Ac9C21609F45eE6AE44d4E326973700614"
      ],
      "transaction": {
        "type": "0x02",
        "from": "0x660ad4b5a74130a4796b4d54bc6750ae93c86e6c",
        "to": "0xc5d01939af7ce9ffc505f0bb36efedde7920f2dc",
        "gas": "0x14612",
        "value": "0x0",
        "data": "0x5b94db270000000000000000000000008bfe32ac9c21609f45ee6ae44d4e326973700614",
        "nonce": "0xba",
        "accessList": []
      },
      "additionalContracts": [],
      "isFixedGasLimit": false
    },
    {
      "hash": "0xdc114d57060fa068f4f5536aab2ff73d4b5b4b4da433f9d2b71f72dadff6d38b",
      "transactionType": "CALL",
      "contractName": null,
      "contractAddress": "0x05369D989D9dD9cD6537E667865Ee8157d5EE91B",
      "function": "nominateOwner(address)",
      "arguments": [
        "0x8bFe32Ac9C21609F45eE6AE44d4E326973700614"
      ],
      "transaction": {
        "type": "0x02",
        "from": "0x660ad4b5a74130a4796b4d54bc6750ae93c86e6c",
        "to": "0x05369d989d9dd9cd6537e667865ee8157d5ee91b",
        "gas": "0x14695",
        "value": "0x0",
        "data": "0x5b94db270000000000000000000000008bfe32ac9c21609f45ee6ae44d4e326973700614",
        "nonce": "0xbb",
        "accessList": []
      },
      "additionalContracts": [],
      "isFixedGasLimit": false
    },
    {
      "hash": "0x9dd8072ece3ebcf81fce3bed1e90e33ddef4ec0e9629bd0ecbdd4170fea325f2",
      "transactionType": "CALL",
      "contractName": null,
      "contractAddress": "0x4D585D346DFB27b297C37F480a82d4cAB39491Bb",
      "function": "nominateOwner(address)",
      "arguments": [
        "0x8bFe32Ac9C21609F45eE6AE44d4E326973700614"
      ],
      "transaction": {
        "type": "0x02",
        "from": "0x660ad4b5a74130a4796b4d54bc6750ae93c86e6c",
        "to": "0x4d585d346dfb27b297c37f480a82d4cab39491bb",
        "gas": "0x146b2",
        "value": "0x0",
        "data": "0x5b94db270000000000000000000000008bfe32ac9c21609f45ee6ae44d4e326973700614",
        "nonce": "0xbc",
        "accessList": []
      },
      "additionalContracts": [],
      "isFixedGasLimit": false
    },
    {
      "hash": "0x9e1e424bcf84dfeec39b7648bcb1552e07532f09efe9c55693b8ea62a4b3ba21",
      "transactionType": "CALL",
      "contractName": null,
      "contractAddress": "0x00A0c9d82B95a17Cdf2D46703F2DcA13EB0E8A94",
      "function": "nominateOwner(address)",
      "arguments": [
        "0x8bFe32Ac9C21609F45eE6AE44d4E326973700614"
      ],
      "transaction": {
        "type": "0x02",
        "from": "0x660ad4b5a74130a4796b4d54bc6750ae93c86e6c",
        "to": "0x00a0c9d82b95a17cdf2d46703f2dca13eb0e8a94",
        "gas": "0x146a7",
        "value": "0x0",
        "data": "0x5b94db270000000000000000000000008bfe32ac9c21609f45ee6ae44d4e326973700614",
        "nonce": "0xbd",
        "accessList": []
      },
      "additionalContracts": [],
      "isFixedGasLimit": false
    },
    {
      "hash": "0x6c613abfc9b0f544a2d3890b6fc9afb78af2fb5a207bbd13bbb6580ee8433c02",
      "transactionType": "CALL",
      "contractName": null,
      "contractAddress": "0x47469683AEAD0B5EF2c599ff34d55C3D998393Bf",
      "function": "nominateOwner(address)",
      "arguments": [
        "0x8bFe32Ac9C21609F45eE6AE44d4E326973700614"
      ],
      "transaction": {
        "type": "0x02",
        "from": "0x660ad4b5a74130a4796b4d54bc6750ae93c86e6c",
        "to": "0x47469683aead0b5ef2c599ff34d55c3d998393bf",
        "gas": "0x1466e",
        "value": "0x0",
        "data": "0x5b94db270000000000000000000000008bfe32ac9c21609f45ee6ae44d4e326973700614",
        "nonce": "0xbe",
        "accessList": []
      },
      "additionalContracts": [],
      "isFixedGasLimit": false
    },
    {
      "hash": "0x11fcde702de8a310284e08d3b82e460f2e9a014bf753b33c8e9d795f067eafef",
      "transactionType": "CALL",
      "contractName": null,
      "contractAddress": "0xC88A469B96A62d4DA14Dc5e23BDBC495D2b15C6B",
      "function": "nominateOwner(address)",
      "arguments": [
        "0x8bFe32Ac9C21609F45eE6AE44d4E326973700614"
      ],
      "transaction": {
        "type": "0x02",
        "from": "0x660ad4b5a74130a4796b4d54bc6750ae93c86e6c",
        "to": "0xc88a469b96a62d4da14dc5e23bdbc495d2b15c6b",
        "gas": "0x1468b",
        "value": "0x0",
        "data": "0x5b94db270000000000000000000000008bfe32ac9c21609f45ee6ae44d4e326973700614",
        "nonce": "0xbf",
        "accessList": []
      },
      "additionalContracts": [],
      "isFixedGasLimit": false
    },
    {
      "hash": "0xfd0418cd173deb429d3729c0d32aee7457047d26360ef1837ceb80c3c8078c16",
      "transactionType": "CALL",
      "contractName": null,
      "contractAddress": "0x755cD5d147036E11c76F1EeffDd94794fC265f0d",
      "function": "nominateOwner(address)",
      "arguments": [
        "0x8bFe32Ac9C21609F45eE6AE44d4E326973700614"
      ],
      "transaction": {
        "type": "0x02",
        "from": "0x660ad4b5a74130a4796b4d54bc6750ae93c86e6c",
        "to": "0x755cd5d147036e11c76f1eeffdd94794fc265f0d",
        "gas": "0x14699",
        "value": "0x0",
        "data": "0x5b94db270000000000000000000000008bfe32ac9c21609f45ee6ae44d4e326973700614",
        "nonce": "0xc0",
        "accessList": []
      },
      "additionalContracts": [],
      "isFixedGasLimit": false
    },
    {
      "hash": "0x774197d8dd6566592beb93bbc6ca5b2ca80e012d2b1df60e3f0ca5eb1f886ee9",
      "transactionType": "CALL",
      "contractName": null,
      "contractAddress": "0xD97E3cD27fb8af306b2CD42A61B7cbaAF044D08D",
      "function": "nominateOwner(address)",
      "arguments": [
        "0x8bFe32Ac9C21609F45eE6AE44d4E326973700614"
      ],
      "transaction": {
        "type": "0x02",
        "from": "0x660ad4b5a74130a4796b4d54bc6750ae93c86e6c",
        "to": "0xd97e3cd27fb8af306b2cd42a61b7cbaaf044d08d",
        "gas": "0x14659",
        "value": "0x0",
        "data": "0x5b94db270000000000000000000000008bfe32ac9c21609f45ee6ae44d4e326973700614",
        "nonce": "0xc1",
        "accessList": []
      },
      "additionalContracts": [],
      "isFixedGasLimit": false
    },
    {
      "hash": "0xd43bd51e19cfc3e9b317a4ee08cf5d1538862596f067ed8eb367c0b0006221bf",
      "transactionType": "CALL",
      "contractName": null,
      "contractAddress": "0x7C852c2a3e367453Ce3a68A4D12c313BaD0565e3",
      "function": "nominateOwner(address)",
      "arguments": [
        "0x8bFe32Ac9C21609F45eE6AE44d4E326973700614"
      ],
      "transaction": {
        "type": "0x02",
        "from": "0x660ad4b5a74130a4796b4d54bc6750ae93c86e6c",
        "to": "0x7c852c2a3e367453ce3a68a4d12c313bad0565e3",
        "gas": "0x1472c",
        "value": "0x0",
        "data": "0x5b94db270000000000000000000000008bfe32ac9c21609f45ee6ae44d4e326973700614",
        "nonce": "0xc2",
        "accessList": []
      },
      "additionalContracts": [],
      "isFixedGasLimit": false
    },
    {
      "hash": "0xe4b74fd95e3c0700aad1500d95e347b5dc816d04bf80366ede849fe23fbc40d6",
      "transactionType": "CALL",
      "contractName": null,
      "contractAddress": "0x351d8894fB8bfa1b0eFF77bFD9Aab18eA2da8fDd",
      "function": "nominateOwner(address)",
      "arguments": [
        "0x8bFe32Ac9C21609F45eE6AE44d4E326973700614"
      ],
      "transaction": {
        "type": "0x02",
        "from": "0x660ad4b5a74130a4796b4d54bc6750ae93c86e6c",
        "to": "0x351d8894fb8bfa1b0eff77bfd9aab18ea2da8fdd",
        "gas": "0x14749",
        "value": "0x0",
        "data": "0x5b94db270000000000000000000000008bfe32ac9c21609f45ee6ae44d4e326973700614",
        "nonce": "0xc3",
        "accessList": []
      },
      "additionalContracts": [],
      "isFixedGasLimit": false
    },
    {
      "hash": "0xb59020d1b7b23353bb9aeaf857829715f2686756461ab4519c766626ea8cdbaa",
      "transactionType": "CALL",
      "contractName": null,
      "contractAddress": "0x70ae312d3f1c9116BF89db833DaDc060D4AD820F",
      "function": "nominateOwner(address)",
      "arguments": [
        "0x8bFe32Ac9C21609F45eE6AE44d4E326973700614"
      ],
      "transaction": {
        "type": "0x02",
        "from": "0x660ad4b5a74130a4796b4d54bc6750ae93c86e6c",
        "to": "0x70ae312d3f1c9116bf89db833dadc060d4ad820f",
        "gas": "0x146fb",
        "value": "0x0",
        "data": "0x5b94db270000000000000000000000008bfe32ac9c21609f45ee6ae44d4e326973700614",
        "nonce": "0xc4",
        "accessList": []
      },
      "additionalContracts": [],
      "isFixedGasLimit": false
    },
    {
      "hash": "0x9e4ea05836e8c731fb151b8b000c42b3a40fbd2026c513a829b6e6739106fdc5",
      "transactionType": "CALL",
      "contractName": null,
      "contractAddress": "0x8bD30d8c5d5cBb5e41Af7B9A4bD654b34772e890",
      "function": "nominateOwner(address)",
      "arguments": [
        "0x8bFe32Ac9C21609F45eE6AE44d4E326973700614"
      ],
      "transaction": {
        "type": "0x02",
        "from": "0x660ad4b5a74130a4796b4d54bc6750ae93c86e6c",
        "to": "0x8bd30d8c5d5cbb5e41af7b9a4bd654b34772e890",
        "gas": "0x14717",
        "value": "0x0",
        "data": "0x5b94db270000000000000000000000008bfe32ac9c21609f45ee6ae44d4e326973700614",
        "nonce": "0xc5",
        "accessList": []
      },
      "additionalContracts": [],
      "isFixedGasLimit": false
    },
    {
      "hash": "0x37519851ccaaebe68f55522080ea1819dc2775ff9739edfe5ccc0c2e8836d83d",
      "transactionType": "CALL",
      "contractName": null,
      "contractAddress": "0xdf34E61B6e7B9e348713d528fEB019d504d38c1e",
      "function": "nominateOwner(address)",
      "arguments": [
        "0x8bFe32Ac9C21609F45eE6AE44d4E326973700614"
      ],
      "transaction": {
        "type": "0x02",
        "from": "0x660ad4b5a74130a4796b4d54bc6750ae93c86e6c",
        "to": "0xdf34e61b6e7b9e348713d528feb019d504d38c1e",
        "gas": "0x14729",
        "value": "0x0",
        "data": "0x5b94db270000000000000000000000008bfe32ac9c21609f45ee6ae44d4e326973700614",
        "nonce": "0xc6",
        "accessList": []
      },
      "additionalContracts": [],
      "isFixedGasLimit": false
    },
    {
      "hash": "0x074c94702809a43fefa60a3b9b873d40c8525c04ebd04a1066c1733b5622da98",
      "transactionType": "CALL",
      "contractName": null,
      "contractAddress": "0x9d46297E4d0fb4D911bDE9746dBb7077d897a908",
      "function": "nominateOwner(address)",
      "arguments": [
        "0x8bFe32Ac9C21609F45eE6AE44d4E326973700614"
      ],
      "transaction": {
        "type": "0x02",
        "from": "0x660ad4b5a74130a4796b4d54bc6750ae93c86e6c",
        "to": "0x9d46297e4d0fb4d911bde9746dbb7077d897a908",
        "gas": "0x146f0",
        "value": "0x0",
        "data": "0x5b94db270000000000000000000000008bfe32ac9c21609f45ee6ae44d4e326973700614",
        "nonce": "0xc7",
        "accessList": []
      },
      "additionalContracts": [],
      "isFixedGasLimit": false
    }
  ],
  "receipts": [
    {
      "transactionHash": "0x099156d8ccb8d57c4e638a9f4c4e9d0d2f8891c92f35cf25467bf60fed7a9003",
      "transactionIndex": "0x3",
      "blockHash": "0xf711f4d74baa9243c50e622781473ff5f3af15b56b06ad99b81dac4f8e2c6f8e",
      "blockNumber": "0xcbbb97b",
      "from": "0x660ad4B5A74130a4796B4d54BC6750Ae93C86e6c",
      "to": "0x36E2DBe085eE4d028fD60f70670f662365d0E978",
      "cumulativeGasUsed": "0x1ffd7",
      "gasUsed": "0x9eef",
      "contractAddress": null,
      "logs": [
        {
          "address": "0x36E2DBe085eE4d028fD60f70670f662365d0E978",
          "topics": [
            "0x155aaafb6329a2098580462df33ec4b7441b19729b9601c5fc17ae1cf99a8a52",
            "0xc4c453d647953c0fd35db5a34ee76e60fb4abc3a8fb891a25936b70b38f29253",
            "0x000000000000000000000000660ad4b5a74130a4796b4d54bc6750ae93c86e6c"
          ],
          "data": "0x",
          "blockHash": "0xf711f4d74baa9243c50e622781473ff5f3af15b56b06ad99b81dac4f8e2c6f8e",
          "blockNumber": "0xcbbb97b",
          "transactionHash": "0x099156d8ccb8d57c4e638a9f4c4e9d0d2f8891c92f35cf25467bf60fed7a9003",
          "transactionIndex": "0x3",
          "logIndex": "0x1",
          "removed": false
        }
      ],
      "status": "0x1",
      "logsBloom": "0x00000000000000000000000000000000000000000000000000000000000000000040000000000000000000000000000000000020000000000000000000000000000000000000000000000000000000000000000020000000000001000000080000000000000000000000000010000000000000000000000000000000000000000000000000000000000000000040000000000000000000000000000000000000000000000000000000000000000000000000000000000000000000000000000000000000000000000100000000004000000000000000000000000001400000000000000000000000000000000000000000000000000000000001000000000000",
      "type": "0x2",
      "effectiveGasPrice": "0x1512c68"
    },
    {
      "transactionHash": "0xc575d8f77901ba5c32e92877d6da36dfe59d14726c0f0e505357e6dad5c9c11c",
      "transactionIndex": "0x1",
      "blockHash": "0x9532cc45ad92392f9cdd6a06c4b3271f6426b0466749416671ac2a551a1838a3",
      "blockNumber": "0xcbbb97f",
      "from": "0x660ad4B5A74130a4796B4d54BC6750Ae93C86e6c",
      "to": "0x36E2DBe085eE4d028fD60f70670f662365d0E978",
      "cumulativeGasUsed": "0xf4a1",
      "gasUsed": "0xf4a1",
      "contractAddress": null,
      "logs": [
        {
          "address": "0x36E2DBe085eE4d028fD60f70670f662365d0E978",
          "topics": [
            "0x2ae6a113c0ed5b78a53413ffbb7679881f11145ccfba4fb92e863dfcd5a1d2f3",
            "0xc4c453d647953c0fd35db5a34ee76e60fb4abc3a8fb891a25936b70b38f29253",
            "0x0000000000000000000000008bfe32ac9c21609f45ee6ae44d4e326973700614"
          ],
          "data": "0x",
          "blockHash": "0x9532cc45ad92392f9cdd6a06c4b3271f6426b0466749416671ac2a551a1838a3",
          "blockNumber": "0xcbbb97f",
          "transactionHash": "0xc575d8f77901ba5c32e92877d6da36dfe59d14726c0f0e505357e6dad5c9c11c",
          "transactionIndex": "0x1",
          "logIndex": "0x0",
          "removed": false
        }
      ],
      "status": "0x1",
      "logsBloom": "0x00000000000000100000000000000000000000000000000000000000000000000000000000000000000000000000000000000000000000000000000000000000000000000000000000400000000000000000000020000000000000000000000000000000000000000000000010000000000000000000800000000000000000000000000000000000000000000000000000000000000000000001000000000000000000000000000000000000000000000000000010000000000000000000000000000000000000000000000000004000000000000000000000000001400000000000004000000000000000000000000000000000000000000001000000000000",
      "type": "0x2",
      "effectiveGasPrice": "0x14f6748"
    },
    {
      "transactionHash": "0x5c69f7a48052ae607f375f379127c0f375bb7de7f911e822282212bc21bb0fc5",
      "transactionIndex": "0x5",
      "blockHash": "0x793526bac809a7ba4328878783437f7e9fb0abff2141053aaaf8758d1359f61d",
      "blockNumber": "0xcbbb99b",
      "from": "0x660ad4B5A74130a4796B4d54BC6750Ae93C86e6c",
      "to": "0xeb61Ae531F3a3b06E9da77Ec4AD03B102F5b4eF2",
      "cumulativeGasUsed": "0x284fb2",
      "gasUsed": "0xa0a4",
      "contractAddress": null,
      "logs": [
        {
          "address": "0xeb61Ae531F3a3b06E9da77Ec4AD03B102F5b4eF2",
          "topics": [
            "0x155aaafb6329a2098580462df33ec4b7441b19729b9601c5fc17ae1cf99a8a52",
            "0xc4c453d647953c0fd35db5a34ee76e60fb4abc3a8fb891a25936b70b38f29253",
            "0x000000000000000000000000660ad4b5a74130a4796b4d54bc6750ae93c86e6c"
          ],
          "data": "0x",
          "blockHash": "0x793526bac809a7ba4328878783437f7e9fb0abff2141053aaaf8758d1359f61d",
          "blockNumber": "0xcbbb99b",
          "transactionHash": "0x5c69f7a48052ae607f375f379127c0f375bb7de7f911e822282212bc21bb0fc5",
          "transactionIndex": "0x5",
          "logIndex": "0x2",
          "removed": false
        }
      ],
      "status": "0x1",
      "logsBloom": "0x00000000000000000000000000000000000000000000000000000000000000000040000000000000000000000000000000000020000000000000000000000000000000000000000000000000000000000000000020000000000001000000080000000000000000000000000010000200000000000000000000000000000000000000000000000000010000000040000000000000000000000000000000000000000000000000000000000000000000000000000000000000000000000000000000000000000000000100200000004000000000000000000000000000000000000000000000000000000000000000000000000000000000000000000000000000",
      "type": "0x2",
      "effectiveGasPrice": "0x146ace8"
    },
    {
      "transactionHash": "0xdfe5de5b5b4f384dbd89584955d5e826dbf954e8c2e1a2d9192b8af0de3463c4",
      "transactionIndex": "0x3",
      "blockHash": "0x12f781f52618668afff0cddeb384c2a4e6e6c020696e19160605622ec4bcd767",
      "blockNumber": "0xcbbb99e",
      "from": "0x660ad4B5A74130a4796B4d54BC6750Ae93C86e6c",
      "to": "0xeb61Ae531F3a3b06E9da77Ec4AD03B102F5b4eF2",
      "cumulativeGasUsed": "0x6624a",
      "gasUsed": "0xf5d9",
      "contractAddress": null,
      "logs": [
        {
          "address": "0xeb61Ae531F3a3b06E9da77Ec4AD03B102F5b4eF2",
          "topics": [
            "0x2ae6a113c0ed5b78a53413ffbb7679881f11145ccfba4fb92e863dfcd5a1d2f3",
            "0xc4c453d647953c0fd35db5a34ee76e60fb4abc3a8fb891a25936b70b38f29253",
            "0x0000000000000000000000008bfe32ac9c21609f45ee6ae44d4e326973700614"
          ],
          "data": "0x",
          "blockHash": "0x12f781f52618668afff0cddeb384c2a4e6e6c020696e19160605622ec4bcd767",
          "blockNumber": "0xcbbb99e",
          "transactionHash": "0xdfe5de5b5b4f384dbd89584955d5e826dbf954e8c2e1a2d9192b8af0de3463c4",
          "transactionIndex": "0x3",
          "logIndex": "0x5",
          "removed": false
        }
      ],
      "status": "0x1",
      "logsBloom": "0x00000000000000100000000000000000000000000000000000000000000000000000000000000000000000000000000000000000000000000000000000000000000000000000000000400000000000000000000020000000000000000000000000000000000000000000000010000200000000000000800000000000000000000000000000000000010000000000000000000000000000000001000000000000000000000000000000000000000000000000000010000000000000000000000000000000000000000000200000004000000000000000000000000000000000000000004000000000000000000000000000000000000000000000000000000000",
      "type": "0x2",
      "effectiveGasPrice": "0x148c7f8"
    },
    {
      "transactionHash": "0x089959211e9f18793a22a39d5585278624d32d119908260675c078b41a77f945",
      "transactionIndex": "0x6",
      "blockHash": "0x5dce0b54eb46343c6615a33f174c972418809e8f204f5c43f77bcff643ffeff7",
      "blockNumber": "0xcbbb9a1",
      "from": "0x660ad4B5A74130a4796B4d54BC6750Ae93C86e6c",
      "to": "0x4b7945796aFe4d2fCe6D271bF7773b5163E1bcC1",
      "cumulativeGasUsed": "0xaa790",
      "gasUsed": "0xa08c",
      "contractAddress": null,
      "logs": [
        {
          "address": "0x4b7945796aFe4d2fCe6D271bF7773b5163E1bcC1",
          "topics": [
            "0x155aaafb6329a2098580462df33ec4b7441b19729b9601c5fc17ae1cf99a8a52",
            "0xc4c453d647953c0fd35db5a34ee76e60fb4abc3a8fb891a25936b70b38f29253",
            "0x000000000000000000000000660ad4b5a74130a4796b4d54bc6750ae93c86e6c"
          ],
          "data": "0x",
          "blockHash": "0x5dce0b54eb46343c6615a33f174c972418809e8f204f5c43f77bcff643ffeff7",
          "blockNumber": "0xcbbb9a1",
          "transactionHash": "0x089959211e9f18793a22a39d5585278624d32d119908260675c078b41a77f945",
          "transactionIndex": "0x6",
          "logIndex": "0xa",
          "removed": false
        }
      ],
      "status": "0x1",
      "logsBloom": "0x00000000000000000000000000000000000000000000000000000000000000000040000000000000000000000000000000000020000000000000000000000000000000000000000000000000000000000000000020000000000001000000088000000000000000000000000010000000000000000000000000010000000000000000000000000000000000000040000000000000000000000000000000000000000000000000000000000000000000000000000000000000000000000000000000000000000000000100000000004000000000000000000000000000000000000000000000000000000000000000000000000000000000000000200000000000",
      "type": "0x2",
      "effectiveGasPrice": "0x146b4b8"
    },
    {
      "transactionHash": "0xf5f1101b6ed812ba8e9b332c150c02ecd6325a590192531e964dd8911025b706",
      "transactionIndex": "0x2",
      "blockHash": "0x508dddb8379a4e748e672cf76b91faa2ee1d7c94a2cdf636910bab08c06a107c",
      "blockNumber": "0xcbbb9a4",
      "from": "0x660ad4B5A74130a4796B4d54BC6750Ae93C86e6c",
      "to": "0x4b7945796aFe4d2fCe6D271bF7773b5163E1bcC1",
      "cumulativeGasUsed": "0x391f9",
      "gasUsed": "0xf651",
      "contractAddress": null,
      "logs": [
        {
          "address": "0x4b7945796aFe4d2fCe6D271bF7773b5163E1bcC1",
          "topics": [
            "0x2ae6a113c0ed5b78a53413ffbb7679881f11145ccfba4fb92e863dfcd5a1d2f3",
            "0xc4c453d647953c0fd35db5a34ee76e60fb4abc3a8fb891a25936b70b38f29253",
            "0x0000000000000000000000008bfe32ac9c21609f45ee6ae44d4e326973700614"
          ],
          "data": "0x",
          "blockHash": "0x508dddb8379a4e748e672cf76b91faa2ee1d7c94a2cdf636910bab08c06a107c",
          "blockNumber": "0xcbbb9a4",
          "transactionHash": "0xf5f1101b6ed812ba8e9b332c150c02ecd6325a590192531e964dd8911025b706",
          "transactionIndex": "0x2",
          "logIndex": "0x5",
          "removed": false
        }
      ],
      "status": "0x1",
      "logsBloom": "0x00000000000000100000000000000000000000000000000000000000000000000000000000000000000000000000000000000000000000000000000000000000000000000000000000400000000000000000000020000000000000000000008000000000000000000000000010000000000000000000800000010000000000000000000000000000000000000000000000000000000000000001000000000000000000000000000000000000000000000000000010000000000000000000000000000000000000000000000000004000000000000000000000000000000000000000004000000000000000000000000000000000000000000000200000000000",
      "type": "0x2",
      "effectiveGasPrice": "0x1445740"
    },
    {
      "transactionHash": "0xd40b5fc41f5a1b5d7e68eae429939e11480620aea7a6db5ef5213698cb5aa981",
      "transactionIndex": "0x1",
      "blockHash": "0x7d8660e56613a5c1d2108bb871b0864b66fde27605999725339aa1408c16dfad",
      "blockNumber": "0xcbbb9c0",
      "from": "0x660ad4B5A74130a4796B4d54BC6750Ae93C86e6c",
      "to": "0x6F855dE562CC9d019757f5F68a15Cd392FF52962",
      "cumulativeGasUsed": "0xa38a",
      "gasUsed": "0xa38a",
      "contractAddress": null,
      "logs": [
        {
          "address": "0x6F855dE562CC9d019757f5F68a15Cd392FF52962",
          "topics": [
            "0x155aaafb6329a2098580462df33ec4b7441b19729b9601c5fc17ae1cf99a8a52",
            "0xc4c453d647953c0fd35db5a34ee76e60fb4abc3a8fb891a25936b70b38f29253",
            "0x000000000000000000000000660ad4b5a74130a4796b4d54bc6750ae93c86e6c"
          ],
          "data": "0x",
          "blockHash": "0x7d8660e56613a5c1d2108bb871b0864b66fde27605999725339aa1408c16dfad",
          "blockNumber": "0xcbbb9c0",
          "transactionHash": "0xd40b5fc41f5a1b5d7e68eae429939e11480620aea7a6db5ef5213698cb5aa981",
          "transactionIndex": "0x1",
          "logIndex": "0x0",
          "removed": false
        }
      ],
      "status": "0x1",
      "logsBloom": "0x00000080000000000000000000000000000000000000000000000000000000000040000000000000000000000000000000000020000000000000000000000000000000080000000000000000000000000000000020000000000001000080080000000000000000000000000010000000000000000000000000000000000000000000000000000000000000000040000000000000000000000000000000000000000000000000000000000000000000000000000000000000000000000000000000000000000000000100000000004000000000000000000000000000000000000000000000000000000000000000000000000000000000000000000000000000",
      "type": "0x2",
      "effectiveGasPrice": "0x1377a48"
    },
    {
      "transactionHash": "0x5ee882e1a9cbac2ba81691085ec5a89ce1b5088fe2bd0776b7346721b2feefbd",
      "transactionIndex": "0x1",
      "blockHash": "0xe59be44210e7adf3474e39b3d339fc5c9bf79444d78fa553a865d9a95ae7c5d6",
      "blockNumber": "0xcbbb9dc",
      "from": "0x660ad4B5A74130a4796B4d54BC6750Ae93C86e6c",
      "to": "0x6F855dE562CC9d019757f5F68a15Cd392FF52962",
      "cumulativeGasUsed": "0xfa16",
      "gasUsed": "0xfa16",
      "contractAddress": null,
      "logs": [
        {
          "address": "0x6F855dE562CC9d019757f5F68a15Cd392FF52962",
          "topics": [
            "0x2ae6a113c0ed5b78a53413ffbb7679881f11145ccfba4fb92e863dfcd5a1d2f3",
            "0xc4c453d647953c0fd35db5a34ee76e60fb4abc3a8fb891a25936b70b38f29253",
            "0x0000000000000000000000008bfe32ac9c21609f45ee6ae44d4e326973700614"
          ],
          "data": "0x",
          "blockHash": "0xe59be44210e7adf3474e39b3d339fc5c9bf79444d78fa553a865d9a95ae7c5d6",
          "blockNumber": "0xcbbb9dc",
          "transactionHash": "0x5ee882e1a9cbac2ba81691085ec5a89ce1b5088fe2bd0776b7346721b2feefbd",
          "transactionIndex": "0x1",
          "logIndex": "0x0",
          "removed": false
        }
      ],
      "status": "0x1",
      "logsBloom": "0x00000080000000100000000000000000000000000000000000000000000000000000000000000000000000000000000000000000000000000000000000000000000000080000000000400000000000000000000020000000000000000080000000000000000000000000000010000000000000000000800000000000000000000000000000000000000000000000000000000000000000000001000000000000000000000000000000000000000000000000000010000000000000000000000000000000000000000000000000004000000000000000000000000000000000000000004000000000000000000000000000000000000000000000000000000000",
      "type": "0x2",
      "effectiveGasPrice": "0x131ade8"
    },
    {
      "transactionHash": "0xa135b546502c1bdaaf4045ff4aa4b6ecb78cbe7cd13a6c3f451cd28ae53550d4",
      "transactionIndex": "0x3",
      "blockHash": "0xdf04f31e02cd9d5e198976546e056fea4cfe0422cad3a2b00fb69baaa96ddbbd",
      "blockNumber": "0xcbbb9f7",
      "from": "0x660ad4B5A74130a4796B4d54BC6750Ae93C86e6c",
      "to": "0xc5d01939Af7Ce9Ffc505F0bb36eFeDde7920f2dc",
      "cumulativeGasUsed": "0x58685",
      "gasUsed": "0xa3f4",
      "contractAddress": null,
      "logs": [
        {
          "address": "0xc5d01939Af7Ce9Ffc505F0bb36eFeDde7920f2dc",
          "topics": [
            "0x155aaafb6329a2098580462df33ec4b7441b19729b9601c5fc17ae1cf99a8a52",
            "0xc4c453d647953c0fd35db5a34ee76e60fb4abc3a8fb891a25936b70b38f29253",
            "0x000000000000000000000000660ad4b5a74130a4796b4d54bc6750ae93c86e6c"
          ],
          "data": "0x",
          "blockHash": "0xdf04f31e02cd9d5e198976546e056fea4cfe0422cad3a2b00fb69baaa96ddbbd",
          "blockNumber": "0xcbbb9f7",
          "transactionHash": "0xa135b546502c1bdaaf4045ff4aa4b6ecb78cbe7cd13a6c3f451cd28ae53550d4",
          "transactionIndex": "0x3",
          "logIndex": "0x5",
          "removed": false
        }
      ],
      "status": "0x1",
      "logsBloom": "0x00000000000000000000000000000000000000000000000000000000000000000040000000000000000000000000000000000020000000000000000000000000000000000000000000000000000000000000004020000000000001000000080000000000000000000000000010000000000000000000000000000000000000000000000000000000000000000040000000000000000000000000000000000000000000000000000000000000000000000000010000000000000000000000000000000000000000000100000000004000000000000000000000000002000000000000000000000000000000000000000000000000000000000000000000000000",
      "type": "0x2",
      "effectiveGasPrice": "0x134ea08"
    },
    {
      "transactionHash": "0x75fbde467738e5061144468389c43ba2485c8279ec0d9fbf01d115ada8cf8a84",
      "transactionIndex": "0x4",
      "blockHash": "0x559b699cd0cdde5793c99e3fccae5b2fd3a82bba52401a7a7f10584b4efc4db4",
      "blockNumber": "0xcbbba13",
      "from": "0x660ad4B5A74130a4796B4d54BC6750Ae93C86e6c",
      "to": "0xc5d01939Af7Ce9Ffc505F0bb36eFeDde7920f2dc",
      "cumulativeGasUsed": "0x6ac11",
      "gasUsed": "0xfb56",
      "contractAddress": null,
      "logs": [
        {
          "address": "0xc5d01939Af7Ce9Ffc505F0bb36eFeDde7920f2dc",
          "topics": [
            "0x2ae6a113c0ed5b78a53413ffbb7679881f11145ccfba4fb92e863dfcd5a1d2f3",
            "0xc4c453d647953c0fd35db5a34ee76e60fb4abc3a8fb891a25936b70b38f29253",
            "0x0000000000000000000000008bfe32ac9c21609f45ee6ae44d4e326973700614"
          ],
          "data": "0x",
          "blockHash": "0x559b699cd0cdde5793c99e3fccae5b2fd3a82bba52401a7a7f10584b4efc4db4",
          "blockNumber": "0xcbbba13",
          "transactionHash": "0x75fbde467738e5061144468389c43ba2485c8279ec0d9fbf01d115ada8cf8a84",
          "transactionIndex": "0x4",
          "logIndex": "0x7",
          "removed": false
        }
      ],
      "status": "0x1",
      "logsBloom": "0x00000000000000100000000000000000000000000000000000000000000000000000000000000000000000000000000000000000000000000000000000000000000000000000000000400000000000000000004020000000000000000000000000000000000000000000000010000000000000000000800000000000000000000000000000000000000000000000000000000000000000000001000000000000000000000000000000000000000000000000010010000000000000000000000000000000000000000000000000004000000000000000000000000002000000000000004000000000000000000000000000000000000000000000000000000000",
      "type": "0x2",
      "effectiveGasPrice": "0x12c00c8"
    },
    {
      "transactionHash": "0x6dfc2ad2e9c44209a7b005b22bda52bdd41d928ca1f5aca06798daffed95a6c0",
      "transactionIndex": "0x2",
      "blockHash": "0x70b71a70c7f3e2b32832e6bc8c93690185b88ff833e64fe436eff975f2f48ceb",
      "blockNumber": "0xcbbba16",
      "from": "0x660ad4B5A74130a4796B4d54BC6750Ae93C86e6c",
      "to": "0x05369D989D9dD9cD6537E667865Ee8157d5EE91B",
      "cumulativeGasUsed": "0x195a9",
      "gasUsed": "0xa621",
      "contractAddress": null,
      "logs": [
        {
          "address": "0x05369D989D9dD9cD6537E667865Ee8157d5EE91B",
          "topics": [
            "0x155aaafb6329a2098580462df33ec4b7441b19729b9601c5fc17ae1cf99a8a52",
            "0xc4c453d647953c0fd35db5a34ee76e60fb4abc3a8fb891a25936b70b38f29253",
            "0x000000000000000000000000660ad4b5a74130a4796b4d54bc6750ae93c86e6c"
          ],
          "data": "0x",
          "blockHash": "0x70b71a70c7f3e2b32832e6bc8c93690185b88ff833e64fe436eff975f2f48ceb",
          "blockNumber": "0xcbbba16",
          "transactionHash": "0x6dfc2ad2e9c44209a7b005b22bda52bdd41d928ca1f5aca06798daffed95a6c0",
          "transactionIndex": "0x2",
          "logIndex": "0x1",
          "removed": false
        }
      ],
      "status": "0x1",
      "logsBloom": "0x00000000000000000000000000000000000000000000000000000000000000000040000000000000000000000000000000000020000000000000000000000000000000000000010000000000000000000000000020000000000001000000080000000000000000000000000010000000000000000000000000000000000000000000000000000000000000000040000000000000000000000000000000000000000000000000000000000000000000000000000000000000000000000000000000000000400000000100000000004000400000000000000000000000000000000000000000000000000000000000000000000000000000000000000000000000",
      "type": "0x2",
      "effectiveGasPrice": "0x129d618"
    },
    {
      "transactionHash": "0x2438154b4eaa25eea40984b6c32e9eb3541f6cc1ada329250c8d9ba31ab781c8",
      "transactionIndex": "0x3",
      "blockHash": "0x1e3e61529cb26369d7e31b7ff66e753dd9d23cf993eeb617bf90db23ad2d0209",
      "blockNumber": "0xcbbba32",
      "from": "0x660ad4B5A74130a4796B4d54BC6750Ae93C86e6c",
      "to": "0x05369D989D9dD9cD6537E667865Ee8157d5EE91B",
      "cumulativeGasUsed": "0x5f5bc",
      "gasUsed": "0xfcee",
      "contractAddress": null,
      "logs": [
        {
          "address": "0x05369D989D9dD9cD6537E667865Ee8157d5EE91B",
          "topics": [
            "0x2ae6a113c0ed5b78a53413ffbb7679881f11145ccfba4fb92e863dfcd5a1d2f3",
            "0xc4c453d647953c0fd35db5a34ee76e60fb4abc3a8fb891a25936b70b38f29253",
            "0x0000000000000000000000008bfe32ac9c21609f45ee6ae44d4e326973700614"
          ],
          "data": "0x",
          "blockHash": "0x1e3e61529cb26369d7e31b7ff66e753dd9d23cf993eeb617bf90db23ad2d0209",
          "blockNumber": "0xcbbba32",
          "transactionHash": "0x2438154b4eaa25eea40984b6c32e9eb3541f6cc1ada329250c8d9ba31ab781c8",
          "transactionIndex": "0x3",
          "logIndex": "0x6",
          "removed": false
        }
      ],
      "status": "0x1",
      "logsBloom": "0x00000000000000100000000000000000000000000000000000000000000000000000000000000000000000000000000000000000000000000000000000000000000000000000010000400000000000000000000020000000000000000000000000000000000000000000000010000000000000000000800000000000000000000000000000000000000000000000000000000000000000000001000000000000000000000000000000000000000000000000000010000000000000000000000000000000400000000000000000004000400000000000000000000000000000000000004000000000000000000000000000000000000000000000000000000000",
      "type": "0x2",
      "effectiveGasPrice": "0x1249270"
    },
    {
      "transactionHash": "0x6c83c1361043e5c69d2406bfd8c777b98aaf1b3e1b2773f87c79cb1824689aa4",
      "transactionIndex": "0x2",
      "blockHash": "0xa8a2846d92273bb0eca66c32d0a430cd9c01211bd9f6640936515fa647a81dca",
      "blockNumber": "0xcbbba4f",
      "from": "0x660ad4B5A74130a4796B4d54BC6750Ae93C86e6c",
      "to": "0x4D585D346DFB27b297C37F480a82d4cAB39491Bb",
      "cumulativeGasUsed": "0x44e2b",
      "gasUsed": "0xaa3b",
      "contractAddress": null,
      "logs": [
        {
          "address": "0x4D585D346DFB27b297C37F480a82d4cAB39491Bb",
          "topics": [
            "0x155aaafb6329a2098580462df33ec4b7441b19729b9601c5fc17ae1cf99a8a52",
            "0xc4c453d647953c0fd35db5a34ee76e60fb4abc3a8fb891a25936b70b38f29253",
            "0x000000000000000000000000660ad4b5a74130a4796b4d54bc6750ae93c86e6c"
          ],
          "data": "0x",
          "blockHash": "0xa8a2846d92273bb0eca66c32d0a430cd9c01211bd9f6640936515fa647a81dca",
          "blockNumber": "0xcbbba4f",
          "transactionHash": "0x6c83c1361043e5c69d2406bfd8c777b98aaf1b3e1b2773f87c79cb1824689aa4",
          "transactionIndex": "0x2",
          "logIndex": "0x7",
          "removed": false
        }
      ],
      "status": "0x1",
      "logsBloom": "0x00000000000000000000000000000000000000000000000000000000000000000040000000000000000000000000000000000020000000000000000000000000000000000000000000000000000000000000010020000000000001000000080001000000000000000000000010000000000000000000000000000000000000000000000000000000000000000040000000000000000000000000000000000000000000000000000000000000000000000000000000000000000000000008000000000000000000000100000000004000000000000000000000000000000000000000000000000000000000000000000000000000000000000000000000000000",
      "type": "0x2",
      "effectiveGasPrice": "0x1186928"
    },
    {
      "transactionHash": "0x16fec47c68194cfe64cf8bf27adf3ba88c889c5d784c6a99ea40f4b213fd88bd",
      "transactionIndex": "0x2",
      "blockHash": "0x5c98a5ee355087279bb7130b5ca52e8abc178412bd511d04b68e4c7c437cc3b2",
      "blockNumber": "0xcbbba6c",
      "from": "0x660ad4B5A74130a4796B4d54BC6750Ae93C86e6c",
      "to": "0x4D585D346DFB27b297C37F480a82d4cAB39491Bb",
      "cumulativeGasUsed": "0x3731b",
      "gasUsed": "0xfee6",
      "contractAddress": null,
      "logs": [
        {
          "address": "0x4D585D346DFB27b297C37F480a82d4cAB39491Bb",
          "topics": [
            "0x2ae6a113c0ed5b78a53413ffbb7679881f11145ccfba4fb92e863dfcd5a1d2f3",
            "0xc4c453d647953c0fd35db5a34ee76e60fb4abc3a8fb891a25936b70b38f29253",
            "0x0000000000000000000000008bfe32ac9c21609f45ee6ae44d4e326973700614"
          ],
          "data": "0x",
          "blockHash": "0x5c98a5ee355087279bb7130b5ca52e8abc178412bd511d04b68e4c7c437cc3b2",
          "blockNumber": "0xcbbba6c",
          "transactionHash": "0x16fec47c68194cfe64cf8bf27adf3ba88c889c5d784c6a99ea40f4b213fd88bd",
          "transactionIndex": "0x2",
          "logIndex": "0x4",
          "removed": false
        }
      ],
      "status": "0x1",
      "logsBloom": "0x00000000000000100000000000000000000000000000000000000000000000000000000000000000000000000000000000000000000000000000000000000000000000000000000000400000000000000000010020000000000000000000000001000000000000000000000010000000000000000000800000000000000000000000000000000000000000000000000000000000000000000001000000000000000000000000000000000000000000000000000010000000000000000008000000000000000000000000000000004000000000000000000000000000000000000000004000000000000000000000000000000000000000000000000000000000",
      "type": "0x2",
      "effectiveGasPrice": "0x11b8220"
    },
    {
      "transactionHash": "0x204d2594c75840fb30dc1e0b1bc6ef4786e1010b5cead9182743b2be37253af7",
      "transactionIndex": "0x1",
      "blockHash": "0xac47aa362dbe7c2614ec8139a63fabed7006a39c7a067cdfb8232b7b42d7e453",
      "blockNumber": "0xcbbba70",
      "from": "0x660ad4B5A74130a4796B4d54BC6750Ae93C86e6c",
      "to": "0x00A0c9d82B95a17Cdf2D46703F2DcA13EB0E8A94",
      "cumulativeGasUsed": "0xa9bd",
      "gasUsed": "0xa9bd",
      "contractAddress": null,
      "logs": [
        {
          "address": "0x00A0c9d82B95a17Cdf2D46703F2DcA13EB0E8A94",
          "topics": [
            "0x155aaafb6329a2098580462df33ec4b7441b19729b9601c5fc17ae1cf99a8a52",
            "0xc4c453d647953c0fd35db5a34ee76e60fb4abc3a8fb891a25936b70b38f29253",
            "0x000000000000000000000000660ad4b5a74130a4796b4d54bc6750ae93c86e6c"
          ],
          "data": "0x",
          "blockHash": "0xac47aa362dbe7c2614ec8139a63fabed7006a39c7a067cdfb8232b7b42d7e453",
          "blockNumber": "0xcbbba70",
          "transactionHash": "0x204d2594c75840fb30dc1e0b1bc6ef4786e1010b5cead9182743b2be37253af7",
          "transactionIndex": "0x1",
          "logIndex": "0x0",
          "removed": false
        }
      ],
      "status": "0x1",
      "logsBloom": "0x00000000000000000000000000000000000000000000000000004000000000000040000000000000000000000000000000000020000000000000000000000000000000000000000000000000000000000000000020000000000001000000080000040000000000000000000010000000000000000000000000000000000000000000000000000000000000000040000000000000000000000000000000000000000000000000000000000000000000000000000000000000000000000000000000000001000000000100000000004000000000000000000000000000000000000000000000000000000000000000000000000000000000000000000000000000",
      "type": "0x2",
      "effectiveGasPrice": "0x11a1ea8"
    },
    {
      "transactionHash": "0x24a0e7ee9acde5554a40e983e271e2d164afdc19bfdc88cc84abaea54077a14f",
      "transactionIndex": "0x1",
      "blockHash": "0xa722a910db967e2d3ba1f89553d9974860fe05ebb0a996da800200262513ddf5",
      "blockNumber": "0xcbbba74",
      "from": "0x660ad4B5A74130a4796B4d54BC6750Ae93C86e6c",
      "to": "0x00A0c9d82B95a17Cdf2D46703F2DcA13EB0E8A94",
      "cumulativeGasUsed": "0xffce",
      "gasUsed": "0xffce",
      "contractAddress": null,
      "logs": [
        {
          "address": "0x00A0c9d82B95a17Cdf2D46703F2DcA13EB0E8A94",
          "topics": [
            "0x2ae6a113c0ed5b78a53413ffbb7679881f11145ccfba4fb92e863dfcd5a1d2f3",
            "0xc4c453d647953c0fd35db5a34ee76e60fb4abc3a8fb891a25936b70b38f29253",
            "0x0000000000000000000000008bfe32ac9c21609f45ee6ae44d4e326973700614"
          ],
          "data": "0x",
          "blockHash": "0xa722a910db967e2d3ba1f89553d9974860fe05ebb0a996da800200262513ddf5",
          "blockNumber": "0xcbbba74",
          "transactionHash": "0x24a0e7ee9acde5554a40e983e271e2d164afdc19bfdc88cc84abaea54077a14f",
          "transactionIndex": "0x1",
          "logIndex": "0x0",
          "removed": false
        }
      ],
      "status": "0x1",
      "logsBloom": "0x00000000000000100000000000000000000000000000000000004000000000000000000000000000000000000000000000000000000000000000000000000000000000000000000000400000000000000000000020000000000000000000000000040000000000000000000010000000000000000000800000000000000000000000000000000000000000000000000000000000000000000001000000000000000000000000000000000000000000000000000010000000000000000000000000000001000000000000000000004000000000000000000000000000000000000000004000000000000000000000000000000000000000000000000000000000",
      "type": "0x2",
      "effectiveGasPrice": "0x1180f50"
    },
    {
      "transactionHash": "0x06bd02363241d1e6c7a6dd8f5dbf9d23314a4726d992170e3b8bef911147fcb8",
      "transactionIndex": "0x7",
      "blockHash": "0x9f137da2ca8a4755141348d6af2af608fe6e6c83b22a8e9b7e1ab3f5b47525e8",
      "blockNumber": "0xcbbba77",
      "from": "0x660ad4B5A74130a4796B4d54BC6750Ae93C86e6c",
      "to": "0x47469683AEAD0B5EF2c599ff34d55C3D998393Bf",
      "cumulativeGasUsed": "0xef29a",
      "gasUsed": "0xaaaf",
      "contractAddress": null,
      "logs": [
        {
          "address": "0x47469683AEAD0B5EF2c599ff34d55C3D998393Bf",
          "topics": [
            "0x155aaafb6329a2098580462df33ec4b7441b19729b9601c5fc17ae1cf99a8a52",
            "0xc4c453d647953c0fd35db5a34ee76e60fb4abc3a8fb891a25936b70b38f29253",
            "0x000000000000000000000000660ad4b5a74130a4796b4d54bc6750ae93c86e6c"
          ],
          "data": "0x",
          "blockHash": "0x9f137da2ca8a4755141348d6af2af608fe6e6c83b22a8e9b7e1ab3f5b47525e8",
          "blockNumber": "0xcbbba77",
          "transactionHash": "0x06bd02363241d1e6c7a6dd8f5dbf9d23314a4726d992170e3b8bef911147fcb8",
          "transactionIndex": "0x7",
          "logIndex": "0x12",
          "removed": false
        }
      ],
      "status": "0x1",
      "logsBloom": "0x00000800000000000000000000000000000000000000000000000000000000000040000000000000000000000000000000000020000000000000000000000000000000000000000000000000000000000000000020000000000001000000080000000000000000000000000010000000000000000000000000000000000000000000000000000000000000000040000000000000000000000000000000000000000000020000000000100000000000000000000000000000000000000000000000000000000000000100000000004000000000000000000000000000000000000000000000000000000000000000000000000000000000000000000000000000",
      "type": "0x2",
      "effectiveGasPrice": "0x115cd30"
    },
    {
      "transactionHash": "0xd5ab4bf30d9c8b29b24d41527f3fb7f3b45a4fff12fb017848eb63e78de0bb3a",
      "transactionIndex": "0x2",
      "blockHash": "0x68711b22a6c48a9957fba8c256e5e751704fe9563caf56392b998dea83b894ca",
      "blockNumber": "0xcbbba93",
      "from": "0x660ad4B5A74130a4796B4d54BC6750Ae93C86e6c",
      "to": "0x47469683AEAD0B5EF2c599ff34d55C3D998393Bf",
      "cumulativeGasUsed": "0x36ea4",
      "gasUsed": "0x10398",
      "contractAddress": null,
      "logs": [
        {
          "address": "0x47469683AEAD0B5EF2c599ff34d55C3D998393Bf",
          "topics": [
            "0x2ae6a113c0ed5b78a53413ffbb7679881f11145ccfba4fb92e863dfcd5a1d2f3",
            "0xc4c453d647953c0fd35db5a34ee76e60fb4abc3a8fb891a25936b70b38f29253",
            "0x0000000000000000000000008bfe32ac9c21609f45ee6ae44d4e326973700614"
          ],
          "data": "0x",
          "blockHash": "0x68711b22a6c48a9957fba8c256e5e751704fe9563caf56392b998dea83b894ca",
          "blockNumber": "0xcbbba93",
          "transactionHash": "0xd5ab4bf30d9c8b29b24d41527f3fb7f3b45a4fff12fb017848eb63e78de0bb3a",
          "transactionIndex": "0x2",
          "logIndex": "0x2",
          "removed": false
        }
      ],
      "status": "0x1",
      "logsBloom": "0x00000800000000100000000000000000000000000000000000000000000000000000000000000000000000000000000000000000000000000000000000000000000000000000000000400000000000000000000020000000000000000000000000000000000000000000000010000000000000000000800000000000000000000000000000000000000000000000000000000000000000000001000000000000000000020000000000100000000000000000000010000000000000000000000000000000000000000000000000004000000000000000000000000000000000000000004000000000000000000000000000000000000000000000000000000000",
      "type": "0x2",
      "effectiveGasPrice": "0x1091b30"
    },
    {
      "transactionHash": "0x7e8cd1f3f7ca494521a52fab036a9453ee71695fe4aa079406dc540121935fb6",
      "transactionIndex": "0x6",
      "blockHash": "0x437a616c64fa7d2d3415e62d626ea23a2368fe0f569fd1b62634440163a5f6e5",
      "blockNumber": "0xcbbbaaf",
      "from": "0x660ad4B5A74130a4796B4d54BC6750Ae93C86e6c",
      "to": "0xC88A469B96A62d4DA14Dc5e23BDBC495D2b15C6B",
      "cumulativeGasUsed": "0x17695d",
      "gasUsed": "0xb01b",
      "contractAddress": null,
      "logs": [
        {
          "address": "0xC88A469B96A62d4DA14Dc5e23BDBC495D2b15C6B",
          "topics": [
            "0x155aaafb6329a2098580462df33ec4b7441b19729b9601c5fc17ae1cf99a8a52",
            "0xc4c453d647953c0fd35db5a34ee76e60fb4abc3a8fb891a25936b70b38f29253",
            "0x000000000000000000000000660ad4b5a74130a4796b4d54bc6750ae93c86e6c"
          ],
          "data": "0x",
          "blockHash": "0x437a616c64fa7d2d3415e62d626ea23a2368fe0f569fd1b62634440163a5f6e5",
          "blockNumber": "0xcbbbaaf",
          "transactionHash": "0x7e8cd1f3f7ca494521a52fab036a9453ee71695fe4aa079406dc540121935fb6",
          "transactionIndex": "0x6",
          "logIndex": "0x23",
          "removed": false
        }
      ],
      "status": "0x1",
      "logsBloom": "0x00000000000000000000000000000000000000000000000000000000000000000040000000000000000000000000000000800020000000000000000000000000000000000000000000000000000000001000000020000000000001000000080000000000200000000000000010000000000000000000000000000000000000000000000000000000000000000040000000000000000000000000000000000000000000000000000000000000000000000000000000000000000000000000000000000000000000000100000000004000000000000000000000000000000000000000000000000000000000000000000000000000000000000000000000000000",
      "type": "0x2",
      "effectiveGasPrice": "0x101d7d0"
    },
    {
      "transactionHash": "0xf979ef79ba164d6151c2601d009087cc3baeeb986ad3b842fe863ba24a5de5e9",
      "transactionIndex": "0x5",
      "blockHash": "0x44b85e31d4787e8dbe2120c328d620f668a435201ff7e55764ef310f4bb3953a",
      "blockNumber": "0xcbbbaca",
      "from": "0x660ad4B5A74130a4796B4d54BC6750Ae93C86e6c",
      "to": "0xC88A469B96A62d4DA14Dc5e23BDBC495D2b15C6B",
      "cumulativeGasUsed": "0x9076b",
      "gasUsed": "0x1054c",
      "contractAddress": null,
      "logs": [
        {
          "address": "0xC88A469B96A62d4DA14Dc5e23BDBC495D2b15C6B",
          "topics": [
            "0x2ae6a113c0ed5b78a53413ffbb7679881f11145ccfba4fb92e863dfcd5a1d2f3",
            "0xc4c453d647953c0fd35db5a34ee76e60fb4abc3a8fb891a25936b70b38f29253",
            "0x0000000000000000000000008bfe32ac9c21609f45ee6ae44d4e326973700614"
          ],
          "data": "0x",
          "blockHash": "0x44b85e31d4787e8dbe2120c328d620f668a435201ff7e55764ef310f4bb3953a",
          "blockNumber": "0xcbbbaca",
          "transactionHash": "0xf979ef79ba164d6151c2601d009087cc3baeeb986ad3b842fe863ba24a5de5e9",
          "transactionIndex": "0x5",
          "logIndex": "0x4",
          "removed": false
        }
      ],
      "status": "0x1",
      "logsBloom": "0x00000000000000100000000000000000000000000000000000000000000000000000000000000000000000000000000000800000000000000000000000000000000000000000000000400000000000001000000020000000000000000000000000000000200000000000000010000000000000000000800000000000000000000000000000000000000000000000000000000000000000000001000000000000000000000000000000000000000000000000000010000000000000000000000000000000000000000000000000004000000000000000000000000000000000000000004000000000000000000000000000000000000000000000000000000000",
      "type": "0x2",
      "effectiveGasPrice": "0x1029738"
    },
    {
      "transactionHash": "0x47d8bbdd543a48cc6a7407becb01bf8677cfdfc2baab5d25e45ab91ce2526ed8",
      "transactionIndex": "0x5",
      "blockHash": "0xc06476a5f9f3bab424ebce4d069f0a26ecb6e9921e7f34436bfae79476d92c74",
      "blockNumber": "0xcbbbae2",
      "from": "0x660ad4B5A74130a4796B4d54BC6750Ae93C86e6c",
      "to": "0x755cD5d147036E11c76F1EeffDd94794fC265f0d",
      "cumulativeGasUsed": "0xad6d2",
      "gasUsed": "0xb055",
      "contractAddress": null,
      "logs": [
        {
          "address": "0x755cD5d147036E11c76F1EeffDd94794fC265f0d",
          "topics": [
            "0x155aaafb6329a2098580462df33ec4b7441b19729b9601c5fc17ae1cf99a8a52",
            "0xc4c453d647953c0fd35db5a34ee76e60fb4abc3a8fb891a25936b70b38f29253",
            "0x000000000000000000000000660ad4b5a74130a4796b4d54bc6750ae93c86e6c"
          ],
          "data": "0x",
          "blockHash": "0xc06476a5f9f3bab424ebce4d069f0a26ecb6e9921e7f34436bfae79476d92c74",
          "blockNumber": "0xcbbbae2",
          "transactionHash": "0x47d8bbdd543a48cc6a7407becb01bf8677cfdfc2baab5d25e45ab91ce2526ed8",
          "transactionIndex": "0x5",
          "logIndex": "0x6",
          "removed": false
        }
      ],
      "status": "0x1",
      "logsBloom": "0x00000000000000000000000000000000000400000000000000000000000000000040000000000000000000000000000000000020000000000000000000000000000000000000000000000000000000000000000020000000000001000000080000000000000000000000000010000000000000000000000000000000000000000001000000000000000000000040000000000000000000000000000000000000000000000000000000000000000000000000000000000000000000000000000000000000000000000100000000004000000000000000000000000000004000000000000000000000000000000000000000000000000000000000000000000000",
      "type": "0x2",
      "effectiveGasPrice": "0x100be90"
    },
    {
      "transactionHash": "0x1b86cda1c3a92763876b2506b617125f41da4cfdd5318406a9127d7882e4e859",
      "transactionIndex": "0x2",
      "blockHash": "0x9ab69bd5b13f3a48db0c11c0e1810d23a2cef03c6490cff3059af2d7c9c219b1",
      "blockNumber": "0xcbbbaff",
      "from": "0x660ad4B5A74130a4796B4d54BC6750Ae93C86e6c",
      "to": "0x755cD5d147036E11c76F1EeffDd94794fC265f0d",
      "cumulativeGasUsed": "0x702b7",
      "gasUsed": "0x107db",
      "contractAddress": null,
      "logs": [
        {
          "address": "0x755cD5d147036E11c76F1EeffDd94794fC265f0d",
          "topics": [
            "0x2ae6a113c0ed5b78a53413ffbb7679881f11145ccfba4fb92e863dfcd5a1d2f3",
            "0xc4c453d647953c0fd35db5a34ee76e60fb4abc3a8fb891a25936b70b38f29253",
            "0x0000000000000000000000008bfe32ac9c21609f45ee6ae44d4e326973700614"
          ],
          "data": "0x",
          "blockHash": "0x9ab69bd5b13f3a48db0c11c0e1810d23a2cef03c6490cff3059af2d7c9c219b1",
          "blockNumber": "0xcbbbaff",
          "transactionHash": "0x1b86cda1c3a92763876b2506b617125f41da4cfdd5318406a9127d7882e4e859",
          "transactionIndex": "0x2",
          "logIndex": "0x7",
          "removed": false
        }
      ],
      "status": "0x1",
      "logsBloom": "0x00000000000000100000000000000000000400000000000000000000000000000000000000000000000000000000000000000000000000000000000000000000000000000000000000400000000000000000000020000000000000000000000000000000000000000000000010000000000000000000800000000000000000000001000000000000000000000000000000000000000000000001000000000000000000000000000000000000000000000000000010000000000000000000000000000000000000000000000000004000000000000000000000000000004000000000004000000000000000000000000000000000000000000000000000000000",
      "type": "0x2",
      "effectiveGasPrice": "0xfa1770"
    },
    {
      "transactionHash": "0x187ee99c00461404be9c38f86cccf7ace072062cecb0047155bf9b4e7629a7c7",
      "transactionIndex": "0x5",
      "blockHash": "0x5db549d638799ad58fa6797b4a6e4683c6a4bafb39950660d4ab7acd903316d1",
      "blockNumber": "0xcbbbb03",
      "from": "0x660ad4B5A74130a4796B4d54BC6750Ae93C86e6c",
      "to": "0xD97E3cD27fb8af306b2CD42A61B7cbaAF044D08D",
      "cumulativeGasUsed": "0xcf3e8",
      "gasUsed": "0xb280",
      "contractAddress": null,
      "logs": [
        {
          "address": "0xD97E3cD27fb8af306b2CD42A61B7cbaAF044D08D",
          "topics": [
            "0x155aaafb6329a2098580462df33ec4b7441b19729b9601c5fc17ae1cf99a8a52",
            "0xc4c453d647953c0fd35db5a34ee76e60fb4abc3a8fb891a25936b70b38f29253",
            "0x000000000000000000000000660ad4b5a74130a4796b4d54bc6750ae93c86e6c"
          ],
          "data": "0x",
          "blockHash": "0x5db549d638799ad58fa6797b4a6e4683c6a4bafb39950660d4ab7acd903316d1",
          "blockNumber": "0xcbbbb03",
          "transactionHash": "0x187ee99c00461404be9c38f86cccf7ace072062cecb0047155bf9b4e7629a7c7",
          "transactionIndex": "0x5",
          "logIndex": "0x12",
          "removed": false
        }
      ],
      "status": "0x1",
      "logsBloom": "0x00000000000000000000000000000000000000000000000000000000000000000040000000000000000000000000000000000020000000000000000000000000000000000000000000000000000000000000000020000000000001040000080000000000000000000000000010000000000000000000000000000000000000000000000000000000000000000040100000000000000000040000000000000000000000000000000000000000000000000000000000000000000000000000000000000000000000000100000000004000000000000000000000000000000000000000000000000000000000000000000000000000000000000000000000000000",
      "type": "0x2",
      "effectiveGasPrice": "0xf911b8"
    },
    {
      "transactionHash": "0x0f2db570635e127c2d67d5830f4a12cb9ed1621056de39c5004468cadffd18fa",
      "transactionIndex": "0x3",
      "blockHash": "0x36f06360d6c9de76a3f11f9f790aabd9405df04a6bb69b0afc2bd1b7fa22058b",
      "blockNumber": "0xcbbbb21",
      "from": "0x660ad4B5A74130a4796B4d54BC6750Ae93C86e6c",
      "to": "0xD97E3cD27fb8af306b2CD42A61B7cbaAF044D08D",
      "cumulativeGasUsed": "0x4ac02",
      "gasUsed": "0x10aaa",
      "contractAddress": null,
      "logs": [
        {
          "address": "0xD97E3cD27fb8af306b2CD42A61B7cbaAF044D08D",
          "topics": [
            "0x2ae6a113c0ed5b78a53413ffbb7679881f11145ccfba4fb92e863dfcd5a1d2f3",
            "0xc4c453d647953c0fd35db5a34ee76e60fb4abc3a8fb891a25936b70b38f29253",
            "0x0000000000000000000000008bfe32ac9c21609f45ee6ae44d4e326973700614"
          ],
          "data": "0x",
          "blockHash": "0x36f06360d6c9de76a3f11f9f790aabd9405df04a6bb69b0afc2bd1b7fa22058b",
          "blockNumber": "0xcbbbb21",
          "transactionHash": "0x0f2db570635e127c2d67d5830f4a12cb9ed1621056de39c5004468cadffd18fa",
          "transactionIndex": "0x3",
          "logIndex": "0x3",
          "removed": false
        }
      ],
      "status": "0x1",
      "logsBloom": "0x00000000000000100000000000000000000000000000000000000000000000000000000000000000000000000000000000000000000000000000000000000000000000000000000000400000000000000000000020000000000000040000000000000000000000000000000010000000000000000000800000000000000000000000000000000000000000000000100000000000000000040001000000000000000000000000000000000000000000000000000010000000000000000000000000000000000000000000000000004000000000000000000000000000000000000000004000000000000000000000000000000000000000000000000000000000",
      "type": "0x2",
      "effectiveGasPrice": "0xf116c0"
    },
    {
      "transactionHash": "0x7352f3fb7a006ee8ce2228aa7af53c405c8ec9473f74062d2e9e2a3d72c72454",
      "transactionIndex": "0x3",
      "blockHash": "0x4b090dc97065f986635d5058b7ea9484fa96f6056e19c4494bafe36b2af95cd1",
      "blockNumber": "0xcbbbb26",
      "from": "0x660ad4B5A74130a4796B4d54BC6750Ae93C86e6c",
      "to": "0x7C852c2a3e367453Ce3a68A4D12c313BaD0565e3",
      "cumulativeGasUsed": "0x4644c",
      "gasUsed": "0xb541",
      "contractAddress": null,
      "logs": [
        {
          "address": "0x7C852c2a3e367453Ce3a68A4D12c313BaD0565e3",
          "topics": [
            "0x155aaafb6329a2098580462df33ec4b7441b19729b9601c5fc17ae1cf99a8a52",
            "0xc4c453d647953c0fd35db5a34ee76e60fb4abc3a8fb891a25936b70b38f29253",
            "0x000000000000000000000000660ad4b5a74130a4796b4d54bc6750ae93c86e6c"
          ],
          "data": "0x",
          "blockHash": "0x4b090dc97065f986635d5058b7ea9484fa96f6056e19c4494bafe36b2af95cd1",
          "blockNumber": "0xcbbbb26",
          "transactionHash": "0x7352f3fb7a006ee8ce2228aa7af53c405c8ec9473f74062d2e9e2a3d72c72454",
          "transactionIndex": "0x3",
          "logIndex": "0x3",
          "removed": false
        }
      ],
      "status": "0x1",
      "logsBloom": "0x00000000000000000000000000000000000000000000000000000000000000000040000000000000000080000000000000000060000000000000000000000000000000000000000000000000000000000000000020000000000001000000080000000000000000000000000010000000000000000000000000000000000000000000000000000000000000000040000000000000000000000000000000000000000000000000000000000000000000000000000000000000000000000000000000000000000000000100000000004000000000000000000000000000000000000000000000400000000000000000000000000000000000000000000000000000",
      "type": "0x2",
      "effectiveGasPrice": "0xf0d840"
    },
    {
      "transactionHash": "0x889edcefa2c37a32fd85b6c6a8d04368149d5d298ef378e5e38cc930c75887ff",
      "transactionIndex": "0x5",
      "blockHash": "0xe4a4e7ef64a9f4e6ff81375656a3bc3a6276a4614e80e8602e88b76313e3014a",
      "blockNumber": "0xcbbbb41",
      "from": "0x660ad4B5A74130a4796B4d54BC6750Ae93C86e6c",
      "to": "0x7C852c2a3e367453Ce3a68A4D12c313BaD0565e3",
      "cumulativeGasUsed": "0x7c8ec",
      "gasUsed": "0x10b60",
      "contractAddress": null,
      "logs": [
        {
          "address": "0x7C852c2a3e367453Ce3a68A4D12c313BaD0565e3",
          "topics": [
            "0x2ae6a113c0ed5b78a53413ffbb7679881f11145ccfba4fb92e863dfcd5a1d2f3",
            "0xc4c453d647953c0fd35db5a34ee76e60fb4abc3a8fb891a25936b70b38f29253",
            "0x0000000000000000000000008bfe32ac9c21609f45ee6ae44d4e326973700614"
          ],
          "data": "0x",
          "blockHash": "0xe4a4e7ef64a9f4e6ff81375656a3bc3a6276a4614e80e8602e88b76313e3014a",
          "blockNumber": "0xcbbbb41",
          "transactionHash": "0x889edcefa2c37a32fd85b6c6a8d04368149d5d298ef378e5e38cc930c75887ff",
          "transactionIndex": "0x5",
          "logIndex": "0x6",
          "removed": false
        }
      ],
      "status": "0x1",
      "logsBloom": "0x00000000000000100000000000000000000000000000000000000000000000000000000000000000000080000000000000000040000000000000000000000000000000000000000000400000000000000000000020000000000000000000000000000000000000000000000010000000000000000000800000000000000000000000000000000000000000000000000000000000000000000001000000000000000000000000000000000000000000000000000010000000000000000000000000000000000000000000000000004000000000000000000000000000000000000000004000400000000000000000000000000000000000000000000000000000",
      "type": "0x2",
      "effectiveGasPrice": "0xeea5c0"
    },
    {
      "transactionHash": "0xa936e04bd8289cdec43acadd617a4fe5423e0519581a5986bbf274e4952751b0",
      "transactionIndex": "0x3",
      "blockHash": "0xa2b3c64c0664552e2b3f7bb2f31d0d564039cafa9a23a4810868f08424233ceb",
      "blockNumber": "0xcbbbb5c",
      "from": "0x660ad4B5A74130a4796B4d54BC6750Ae93C86e6c",
      "to": "0x351d8894fB8bfa1b0eFF77bFD9Aab18eA2da8fDd",
      "cumulativeGasUsed": "0x2645f",
      "gasUsed": "0xb95e",
      "contractAddress": null,
      "logs": [
        {
          "address": "0x351d8894fB8bfa1b0eFF77bFD9Aab18eA2da8fDd",
          "topics": [
            "0x155aaafb6329a2098580462df33ec4b7441b19729b9601c5fc17ae1cf99a8a52",
            "0xc4c453d647953c0fd35db5a34ee76e60fb4abc3a8fb891a25936b70b38f29253",
            "0x000000000000000000000000660ad4b5a74130a4796b4d54bc6750ae93c86e6c"
          ],
          "data": "0x",
          "blockHash": "0xa2b3c64c0664552e2b3f7bb2f31d0d564039cafa9a23a4810868f08424233ceb",
          "blockNumber": "0xcbbbb5c",
          "transactionHash": "0xa936e04bd8289cdec43acadd617a4fe5423e0519581a5986bbf274e4952751b0",
          "transactionIndex": "0x3",
          "logIndex": "0x1",
          "removed": false
        }
      ],
      "status": "0x1",
      "logsBloom": "0x00000000000000000000000000000000000000000000000000000000000000000050000000000000000000000000000000000020000000000000000000000000000000000000000000000000000000000000000020000000000001000000080100000000000000000000000010000000000000000000000000000000000000000000000000000000200000000040000000000000000000000000000000000000000000000000000000000000000000000000000000000000000000000000000000000000000000000100000000004000000000000000000000000000000000000000000000000000000000000000000000000000000000000000000000000000",
      "type": "0x2",
      "effectiveGasPrice": "0xe48fb8"
    },
    {
      "transactionHash": "0xce3342ae8ecfd63cbd1cb11257b520bfd5f3d5bf1ac3aae3ad09928771623786",
      "transactionIndex": "0x1",
      "blockHash": "0x698f13fcd70757c4b0d3385c192e5a197feee7308fc6e393f46712f45b3f7259",
      "blockNumber": "0xcbbbb7b",
      "from": "0x660ad4B5A74130a4796B4d54BC6750Ae93C86e6c",
      "to": "0x351d8894fB8bfa1b0eFF77bFD9Aab18eA2da8fDd",
      "cumulativeGasUsed": "0x11147",
      "gasUsed": "0x11147",
      "contractAddress": null,
      "logs": [
        {
          "address": "0x351d8894fB8bfa1b0eFF77bFD9Aab18eA2da8fDd",
          "topics": [
            "0x2ae6a113c0ed5b78a53413ffbb7679881f11145ccfba4fb92e863dfcd5a1d2f3",
            "0xc4c453d647953c0fd35db5a34ee76e60fb4abc3a8fb891a25936b70b38f29253",
            "0x0000000000000000000000008bfe32ac9c21609f45ee6ae44d4e326973700614"
          ],
          "data": "0x",
          "blockHash": "0x698f13fcd70757c4b0d3385c192e5a197feee7308fc6e393f46712f45b3f7259",
          "blockNumber": "0xcbbbb7b",
          "transactionHash": "0xce3342ae8ecfd63cbd1cb11257b520bfd5f3d5bf1ac3aae3ad09928771623786",
          "transactionIndex": "0x1",
          "logIndex": "0x0",
          "removed": false
        }
      ],
      "status": "0x1",
      "logsBloom": "0x00000000000000100000000000000000000000000000000000000000000000000010000000000000000000000000000000000000000000000000000000000000000000000000000000400000000000000000000020000000000000000000000100000000000000000000000010000000000000000000800000000000000000000000000000000000200000000000000000000000000000000001000000000000000000000000000000000000000000000000000010000000000000000000000000000000000000000000000000004000000000000000000000000000000000000000004000000000000000000000000000000000000000000000000000000000",
      "type": "0x2",
      "effectiveGasPrice": "0xde4270"
    },
    {
      "transactionHash": "0x92510b0e69d5a09a9df53faefacc9a73e8f0f69c989b1cf77994f2b079fee6f5",
      "transactionIndex": "0x2",
      "blockHash": "0x802cd2bb648367f11ef86bb94f8e081444ef7b94cd90bb91efe05afc2bc1abe9",
      "blockNumber": "0xcbbbb98",
      "from": "0x660ad4B5A74130a4796B4d54BC6750Ae93C86e6c",
      "to": "0x70ae312d3f1c9116BF89db833DaDc060D4AD820F",
      "cumulativeGasUsed": "0x14c31",
      "gasUsed": "0xbeb6",
      "contractAddress": null,
      "logs": [
        {
          "address": "0x70ae312d3f1c9116BF89db833DaDc060D4AD820F",
          "topics": [
            "0x155aaafb6329a2098580462df33ec4b7441b19729b9601c5fc17ae1cf99a8a52",
            "0xc4c453d647953c0fd35db5a34ee76e60fb4abc3a8fb891a25936b70b38f29253",
            "0x000000000000000000000000660ad4b5a74130a4796b4d54bc6750ae93c86e6c"
          ],
          "data": "0x",
          "blockHash": "0x802cd2bb648367f11ef86bb94f8e081444ef7b94cd90bb91efe05afc2bc1abe9",
          "blockNumber": "0xcbbbb98",
          "transactionHash": "0x92510b0e69d5a09a9df53faefacc9a73e8f0f69c989b1cf77994f2b079fee6f5",
          "transactionIndex": "0x2",
          "logIndex": "0x0",
          "removed": false
        }
      ],
      "status": "0x1",
      "logsBloom": "0x00000000000000000000000000000000000000000000000000000000000000000040000000000000000000000000000000000020000000000000000000000000000000000000000000000000000000000000000020000000000001000000080000000000000000000000000010000000000200000000000000000000000000000000000000000000000000000040000000000000001000000000000100000000000000000000000000000000000000000000000000000000000000000000000000000000000000000100000000004000000000000000000000000000000000000000000000000000000000000000000000000000000000000000000000000000",
      "type": "0x2",
      "effectiveGasPrice": "0xd66aa0"
    },
    {
      "transactionHash": "0xa1e10496e68f713e58c135fbfc8bc45114ad3560eb3384bf7249269902974bb3",
      "transactionIndex": "0x2",
      "blockHash": "0x7dc7a9c2dfaaf129e82e4dc0764a43c9b795e1cf6eab6311331cae2dcc189679",
      "blockNumber": "0xcbbbb9c",
      "from": "0x660ad4B5A74130a4796B4d54BC6750Ae93C86e6c",
      "to": "0x70ae312d3f1c9116BF89db833DaDc060D4AD820F",
      "cumulativeGasUsed": "0x46a21",
      "gasUsed": "0x114fd",
      "contractAddress": null,
      "logs": [
        {
          "address": "0x70ae312d3f1c9116BF89db833DaDc060D4AD820F",
          "topics": [
            "0x2ae6a113c0ed5b78a53413ffbb7679881f11145ccfba4fb92e863dfcd5a1d2f3",
            "0xc4c453d647953c0fd35db5a34ee76e60fb4abc3a8fb891a25936b70b38f29253",
            "0x0000000000000000000000008bfe32ac9c21609f45ee6ae44d4e326973700614"
          ],
          "data": "0x",
          "blockHash": "0x7dc7a9c2dfaaf129e82e4dc0764a43c9b795e1cf6eab6311331cae2dcc189679",
          "blockNumber": "0xcbbbb9c",
          "transactionHash": "0xa1e10496e68f713e58c135fbfc8bc45114ad3560eb3384bf7249269902974bb3",
          "transactionIndex": "0x2",
          "logIndex": "0x3",
          "removed": false
        }
      ],
      "status": "0x1",
      "logsBloom": "0x00000000000000100000000000000000000000000000000000000000000000000000000000000000000000000000000000000000000000000000000000000000000000000000000000400000000000000000000020000000000000000000000000000000000000000000000010000000000200000000800000000000000000000000000000000000000000000000000000000000001000000001000100000000000000000000000000000000000000000000000010000000000000000000000000000000000000000000000000004000000000000000000000000000000000000000004000000000000000000000000000000000000000000000000000000000",
      "type": "0x2",
      "effectiveGasPrice": "0xd4ebd0"
    },
    {
      "transactionHash": "0xf581aab98cb069a54608d5d24b44ed97076109deca2a50ab37dc1931cb7aaa96",
      "transactionIndex": "0x5",
      "blockHash": "0x4a7504c4627b7f2229c203bf17030115c9def32df0ae115fd40d96cb5da3441e",
      "blockNumber": "0xcbbbb9f",
      "from": "0x660ad4B5A74130a4796B4d54BC6750Ae93C86e6c",
      "to": "0x8bD30d8c5d5cBb5e41Af7B9A4bD654b34772e890",
      "cumulativeGasUsed": "0xe535e",
      "gasUsed": "0xc003",
      "contractAddress": null,
      "logs": [
        {
          "address": "0x8bD30d8c5d5cBb5e41Af7B9A4bD654b34772e890",
          "topics": [
            "0x155aaafb6329a2098580462df33ec4b7441b19729b9601c5fc17ae1cf99a8a52",
            "0xc4c453d647953c0fd35db5a34ee76e60fb4abc3a8fb891a25936b70b38f29253",
            "0x000000000000000000000000660ad4b5a74130a4796b4d54bc6750ae93c86e6c"
          ],
          "data": "0x",
          "blockHash": "0x4a7504c4627b7f2229c203bf17030115c9def32df0ae115fd40d96cb5da3441e",
          "blockNumber": "0xcbbbb9f",
          "transactionHash": "0xf581aab98cb069a54608d5d24b44ed97076109deca2a50ab37dc1931cb7aaa96",
          "transactionIndex": "0x5",
          "logIndex": "0xd",
          "removed": false
        }
      ],
      "status": "0x1",
      "logsBloom": "0x000000000000000000000000180000000000000000000000000000000000000000400000000000000000000000000000000000200000000000000000000000000000000000000000000000000000000000000000200000000000010000000a0000000000000000000000000010000000000000000000000000000000000000000000000000000000000000000040000000000000000000000000000000000000000000000000000000000000000000000000000000000000000000000000000000000000000000000100000000004000000000000000000000000000000000000000000000000000000000000000000000000000000000000000000000000000",
      "type": "0x2",
      "effectiveGasPrice": "0xd3b350"
    },
    {
      "transactionHash": "0xe41d983c54aee6ceca8f827dcbb98920100fb16a9a802e8ee0db4050974d7892",
      "transactionIndex": "0x5",
      "blockHash": "0x819e52e4c8a1fce1c175d7a84decd874b92ce9cb480a00eeab50172acdbbca6d",
      "blockNumber": "0xcbbbba2",
      "from": "0x660ad4B5A74130a4796B4d54BC6750Ae93C86e6c",
      "to": "0x8bD30d8c5d5cBb5e41Af7B9A4bD654b34772e890",
      "cumulativeGasUsed": "0xb5b95",
      "gasUsed": "0x1161c",
      "contractAddress": null,
      "logs": [
        {
          "address": "0x8bD30d8c5d5cBb5e41Af7B9A4bD654b34772e890",
          "topics": [
            "0x2ae6a113c0ed5b78a53413ffbb7679881f11145ccfba4fb92e863dfcd5a1d2f3",
            "0xc4c453d647953c0fd35db5a34ee76e60fb4abc3a8fb891a25936b70b38f29253",
            "0x0000000000000000000000008bfe32ac9c21609f45ee6ae44d4e326973700614"
          ],
          "data": "0x",
          "blockHash": "0x819e52e4c8a1fce1c175d7a84decd874b92ce9cb480a00eeab50172acdbbca6d",
          "blockNumber": "0xcbbbba2",
          "transactionHash": "0xe41d983c54aee6ceca8f827dcbb98920100fb16a9a802e8ee0db4050974d7892",
          "transactionIndex": "0x5",
          "logIndex": "0xa",
          "removed": false
        }
      ],
      "status": "0x1",
      "logsBloom": "0x00000000000000100000000018000000000000000000000000000000000000000000000000000000000000000000000000000000000000000000000000000000000000000000000000400000000000000000000020000000000000000000020000000000000000000000000010000000000000000000800000000000000000000000000000000000000000000000000000000000000000000001000000000000000000000000000000000000000000000000000010000000000000000000000000000000000000000000000000004000000000000000000000000000000000000000004000000000000000000000000000000000000000000000000000000000",
      "type": "0x2",
      "effectiveGasPrice": "0xd20d70"
    },
    {
      "transactionHash": "0x9ec0afcb166d6989df815a23ab2c044013c657ceb447336b4d4155eb4cd3b6ef",
      "transactionIndex": "0x3",
      "blockHash": "0x03826b124415b737c79522d73feac0a20a299cce99ed565f6782e111f042d248",
      "blockNumber": "0xcbbbba6",
      "from": "0x660ad4B5A74130a4796B4d54BC6750Ae93C86e6c",
      "to": "0xdf34E61B6e7B9e348713d528fEB019d504d38c1e",
      "cumulativeGasUsed": "0x3d7a5",
      "gasUsed": "0xc109",
      "contractAddress": null,
      "logs": [
        {
          "address": "0xdf34E61B6e7B9e348713d528fEB019d504d38c1e",
          "topics": [
            "0x155aaafb6329a2098580462df33ec4b7441b19729b9601c5fc17ae1cf99a8a52",
            "0xc4c453d647953c0fd35db5a34ee76e60fb4abc3a8fb891a25936b70b38f29253",
            "0x000000000000000000000000660ad4b5a74130a4796b4d54bc6750ae93c86e6c"
          ],
          "data": "0x",
          "blockHash": "0x03826b124415b737c79522d73feac0a20a299cce99ed565f6782e111f042d248",
          "blockNumber": "0xcbbbba6",
          "transactionHash": "0x9ec0afcb166d6989df815a23ab2c044013c657ceb447336b4d4155eb4cd3b6ef",
          "transactionIndex": "0x3",
          "logIndex": "0x2",
          "removed": false
        }
      ],
      "status": "0x1",
      "logsBloom": "0x00000000000000000000000000000000000000000000000000000000000000000040000000000000000004000000000000000020000000000000000000000000000000000000000000000000000000000000000020000000000001000000080000000000000000000000000010000000000000000000000000004000000000000000000000000000000000000040000000080000000000000000000000000000000000000000000000000000000000000000000000000000000000000000000000000000000000000100000000004000000000000000000000000000000000000000000000000000000000000000000000000000000000000000000000000000",
      "type": "0x2",
      "effectiveGasPrice": "0xd11758"
    },
    {
      "transactionHash": "0x36ad5c2915d804dd92a0bb4ea1936f4f52cd33a312678677623b2550892c1552",
      "transactionIndex": "0x2",
      "blockHash": "0x4c7bd8fa870ffc36685d2204e5e24fcdead87e1549bbdd9d4c7f05b3d28d7ffa",
      "blockNumber": "0xcbbbbc2",
      "from": "0x660ad4B5A74130a4796B4d54BC6750Ae93C86e6c",
      "to": "0xdf34E61B6e7B9e348713d528fEB019d504d38c1e",
      "cumulativeGasUsed": "0x22816",
      "gasUsed": "0x1178a",
      "contractAddress": null,
      "logs": [
        {
          "address": "0xdf34E61B6e7B9e348713d528fEB019d504d38c1e",
          "topics": [
            "0x2ae6a113c0ed5b78a53413ffbb7679881f11145ccfba4fb92e863dfcd5a1d2f3",
            "0xc4c453d647953c0fd35db5a34ee76e60fb4abc3a8fb891a25936b70b38f29253",
            "0x0000000000000000000000008bfe32ac9c21609f45ee6ae44d4e326973700614"
          ],
          "data": "0x",
          "blockHash": "0x4c7bd8fa870ffc36685d2204e5e24fcdead87e1549bbdd9d4c7f05b3d28d7ffa",
          "blockNumber": "0xcbbbbc2",
          "transactionHash": "0x36ad5c2915d804dd92a0bb4ea1936f4f52cd33a312678677623b2550892c1552",
          "transactionIndex": "0x2",
          "logIndex": "0x1",
          "removed": false
        }
      ],
      "status": "0x1",
      "logsBloom": "0x00000000000000100000000000000000000000000000000000000000000000000000000000000000000004000000000000000000000000000000000000000000000000000000000000400000000000000000000020000000000000000000000000000000000000000000000010000000000000000000800000004000000000000000000000000000000000000000000000080000000000000001000000000000000000000000000000000000000000000000000010000000000000000000000000000000000000000000000000004000000000000000000000000000000000000000004000000000000000000000000000000000000000000000000000000000",
      "type": "0x2",
      "effectiveGasPrice": "0xcef478"
    },
    {
      "transactionHash": "0x8e3ba254b3a6bb55910cebd4f1991c385303fc7d9134e205bd37d68386a29461",
      "transactionIndex": "0x1",
      "blockHash": "0x86a28508e0d43c0e34a594ec47bb62ba0a44dc61e14d67c35c1061d849d06347",
      "blockNumber": "0xcbbbbc6",
      "from": "0x660ad4B5A74130a4796B4d54BC6750Ae93C86e6c",
      "to": "0x9d46297E4d0fb4D911bDE9746dBb7077d897a908",
      "cumulativeGasUsed": "0xc265",
      "gasUsed": "0xc265",
      "contractAddress": null,
      "logs": [
        {
          "address": "0x9d46297E4d0fb4D911bDE9746dBb7077d897a908",
          "topics": [
            "0x155aaafb6329a2098580462df33ec4b7441b19729b9601c5fc17ae1cf99a8a52",
            "0xc4c453d647953c0fd35db5a34ee76e60fb4abc3a8fb891a25936b70b38f29253",
            "0x000000000000000000000000660ad4b5a74130a4796b4d54bc6750ae93c86e6c"
          ],
          "data": "0x",
          "blockHash": "0x86a28508e0d43c0e34a594ec47bb62ba0a44dc61e14d67c35c1061d849d06347",
          "blockNumber": "0xcbbbbc6",
          "transactionHash": "0x8e3ba254b3a6bb55910cebd4f1991c385303fc7d9134e205bd37d68386a29461",
          "transactionIndex": "0x1",
          "logIndex": "0x0",
          "removed": false
        }
      ],
      "status": "0x1",
      "logsBloom": "0x00000000000000000000000000000000000000000000000000000000000000000040000000000000000000000000000000000020000000000000000000000000000000000000000000000000000000000000000020000000000001000000080000000000000000000000000010000000000000000000000010000000000000000000000000000000000000000040000000000000000000000000000000000000000000000000000000000000000000000000000000000000000000000000000000000000000000000100000000004000000000000000000000000000000000000000000080000000000000000000000000000000000000000000000000000080",
      "type": "0x2",
      "effectiveGasPrice": "0xcdc7b0"
    },
    {
      "transactionHash": "0xa19d153f7effc6ca9f580506a797f6d3f3ce5cffa583c809bdda01d438bf8ce6",
      "transactionIndex": "0x3",
      "blockHash": "0xffaf9283281cac74e3761ac18fc97dcced36e955f3d8150070bb9a049a93263f",
      "blockNumber": "0xcbbbbca",
      "from": "0x660ad4B5A74130a4796B4d54BC6750Ae93C86e6c",
      "to": "0x9d46297E4d0fb4D911bDE9746dBb7077d897a908",
      "cumulativeGasUsed": "0xa98cf",
      "gasUsed": "0x11893",
      "contractAddress": null,
      "logs": [
        {
          "address": "0x9d46297E4d0fb4D911bDE9746dBb7077d897a908",
          "topics": [
            "0x2ae6a113c0ed5b78a53413ffbb7679881f11145ccfba4fb92e863dfcd5a1d2f3",
            "0xc4c453d647953c0fd35db5a34ee76e60fb4abc3a8fb891a25936b70b38f29253",
            "0x0000000000000000000000008bfe32ac9c21609f45ee6ae44d4e326973700614"
          ],
          "data": "0x",
          "blockHash": "0xffaf9283281cac74e3761ac18fc97dcced36e955f3d8150070bb9a049a93263f",
          "blockNumber": "0xcbbbbca",
          "transactionHash": "0xa19d153f7effc6ca9f580506a797f6d3f3ce5cffa583c809bdda01d438bf8ce6",
          "transactionIndex": "0x3",
          "logIndex": "0xc",
          "removed": false
        }
      ],
      "status": "0x1",
      "logsBloom": "0x00000000000000100000000000000000000000000000000000000000000000000000000000000000000000000000000000000000000000000000000000000000000000000000000000400000000000000000000020000000000000000000000000000000000000000000000010000000000000000000800010000000000000000000000000000000000000000000000000000000000000000001000000000000000000000000000000000000000000000000000010000000000000000000000000000000000000000000000000004000000000000000000000000000000000000000004080000000000000000000000000000000000000000000000000000080",
      "type": "0x2",
      "effectiveGasPrice": "0xcc9ed0"
    },
    {
      "transactionHash": "0x6a0684733e8a1bcdb2c222ffd7902ccce52fb268b86ee1f7fb7b0da3af0312ed",
      "transactionIndex": "0x1",
      "blockHash": "0xa7212e0281a0d43fa5d0812b0e4f1e2f9ec88f914212f221667edf3f821d1ae8",
      "blockNumber": "0xcbbbbce",
      "from": "0x660ad4B5A74130a4796B4d54BC6750Ae93C86e6c",
      "to": "0x36E2DBe085eE4d028fD60f70670f662365d0E978",
      "cumulativeGasUsed": "0x1048b",
      "gasUsed": "0x1048b",
      "contractAddress": null,
      "logs": [
        {
          "address": "0x36E2DBe085eE4d028fD60f70670f662365d0E978",
          "topics": [
            "0x906a1c6bd7e3091ea86693dd029a831c19049ce77f1dce2ce0bab1cacbabce22",
            "0x0000000000000000000000008bfe32ac9c21609f45ee6ae44d4e326973700614"
          ],
          "data": "0x",
          "blockHash": "0xa7212e0281a0d43fa5d0812b0e4f1e2f9ec88f914212f221667edf3f821d1ae8",
          "blockNumber": "0xcbbbbce",
          "transactionHash": "0x6a0684733e8a1bcdb2c222ffd7902ccce52fb268b86ee1f7fb7b0da3af0312ed",
          "transactionIndex": "0x1",
          "logIndex": "0x0",
          "removed": false
        }
      ],
      "status": "0x1",
      "logsBloom": "0x00000000000000100000000000000000000000000000000000000000000000000000000000000010000000000000000000000000000000000000000000000000000000000000800000000000000000000000000000000000000000000000000000000000000000000000000000000000000000000000000000000000000000000000000000000000000000000000000000000000000000000001000000000000000000000000000000000000000000000000000010000000000000000000000000000000000000000000000000000000000000000000000400000001400000000000000000000000000000000000000000000000000000000001000000000000",
      "type": "0x2",
      "effectiveGasPrice": "0xcb23e8"
    },
    {
      "transactionHash": "0x133d25a290831c906c57383ad6071803fb86c28658efe9f223b96c138cb2fb79",
      "transactionIndex": "0xc",
      "blockHash": "0xf8e5cde9698c0278f5fc9d49e57a1b6d8c61de43a2795dd4b7a1152616a1c70d",
      "blockNumber": "0xcbbbbf3",
      "from": "0x660ad4B5A74130a4796B4d54BC6750Ae93C86e6c",
      "to": "0xeb61Ae531F3a3b06E9da77Ec4AD03B102F5b4eF2",
      "cumulativeGasUsed": "0x1c5fd6",
      "gasUsed": "0x12504",
      "contractAddress": null,
      "logs": [
        {
          "address": "0xeb61Ae531F3a3b06E9da77Ec4AD03B102F5b4eF2",
          "topics": [
            "0x906a1c6bd7e3091ea86693dd029a831c19049ce77f1dce2ce0bab1cacbabce22",
            "0x0000000000000000000000008bfe32ac9c21609f45ee6ae44d4e326973700614"
          ],
          "data": "0x",
          "blockHash": "0xf8e5cde9698c0278f5fc9d49e57a1b6d8c61de43a2795dd4b7a1152616a1c70d",
          "blockNumber": "0xcbbbbf3",
          "transactionHash": "0x133d25a290831c906c57383ad6071803fb86c28658efe9f223b96c138cb2fb79",
          "transactionIndex": "0xc",
          "logIndex": "0x19",
          "removed": false
        }
      ],
      "status": "0x1",
      "logsBloom": "0x00000000000000100000000000000000000000000000000000000000000000000000000000000010000000000000000000000000000000000000000000000000000000000000800000000000000000000000000000000000000000000000000000000000000000000000000000000200000000000000000000000000000000000000000000000000010000000000000000000000000000000001000000000000000000000000000000000000000000000000000010000000000000000000000000000000000000000000200000000000000000000000000400000000000000000000000000000000000000000000000000000000000000000000000000000000",
      "type": "0x2",
      "effectiveGasPrice": "0xc46170"
    },
    {
      "transactionHash": "0x232a19fa130c10c6e4950fca30de21dc39293aa246bd3f2dacf01dbe8d0a66a1",
      "transactionIndex": "0x4",
      "blockHash": "0x6dece1a34f80090ebc7315ffec43a82b816f18054cab305801050b40acfeba3c",
      "blockNumber": "0xcbbbc13",
      "from": "0x660ad4B5A74130a4796B4d54BC6750Ae93C86e6c",
      "to": "0x4b7945796aFe4d2fCe6D271bF7773b5163E1bcC1",
      "cumulativeGasUsed": "0x7e30c",
      "gasUsed": "0x129b1",
      "contractAddress": null,
      "logs": [
        {
          "address": "0x4b7945796aFe4d2fCe6D271bF7773b5163E1bcC1",
          "topics": [
            "0x906a1c6bd7e3091ea86693dd029a831c19049ce77f1dce2ce0bab1cacbabce22",
            "0x0000000000000000000000008bfe32ac9c21609f45ee6ae44d4e326973700614"
          ],
          "data": "0x",
          "blockHash": "0x6dece1a34f80090ebc7315ffec43a82b816f18054cab305801050b40acfeba3c",
          "blockNumber": "0xcbbbc13",
          "transactionHash": "0x232a19fa130c10c6e4950fca30de21dc39293aa246bd3f2dacf01dbe8d0a66a1",
          "transactionIndex": "0x4",
          "logIndex": "0x5",
          "removed": false
        }
      ],
      "status": "0x1",
      "logsBloom": "0x00000000000000100000000000000000000000000000000000000000000000000000000000000010000000000000000000000000000000000000000000000000000000000000800000000000000000000000000000000000000000000000008000000000000000000000000000000000000000000000000000010000000000000000000000000000000000000000000000000000000000000001000000000000000000000000000000000000000000000000000010000000000000000000000000000000000000000000000000000000000000000000000400000000000000000000000000000000000000000000000000000000000000000000200000000000",
      "type": "0x2",
      "effectiveGasPrice": "0xbbfd00"
    },
    {
      "transactionHash": "0x8fddbd39dc0904a0990cae1df233107cab5a649f9df6b0e8fb3124177a6f0f45",
      "transactionIndex": "0x7",
      "blockHash": "0x4158d6c02a6109af186832e8f7c75c44c5a3aed147da14db223b30194cd5411d",
      "blockNumber": "0xcbbbc2f",
      "from": "0x660ad4B5A74130a4796B4d54BC6750Ae93C86e6c",
      "to": "0x6F855dE562CC9d019757f5F68a15Cd392FF52962",
      "cumulativeGasUsed": "0x17641f",
      "gasUsed": "0x12ee0",
      "contractAddress": null,
      "logs": [
        {
          "address": "0x6F855dE562CC9d019757f5F68a15Cd392FF52962",
          "topics": [
            "0x906a1c6bd7e3091ea86693dd029a831c19049ce77f1dce2ce0bab1cacbabce22",
            "0x0000000000000000000000008bfe32ac9c21609f45ee6ae44d4e326973700614"
          ],
          "data": "0x",
          "blockHash": "0x4158d6c02a6109af186832e8f7c75c44c5a3aed147da14db223b30194cd5411d",
          "blockNumber": "0xcbbbc2f",
          "transactionHash": "0x8fddbd39dc0904a0990cae1df233107cab5a649f9df6b0e8fb3124177a6f0f45",
          "transactionIndex": "0x7",
          "logIndex": "0x15",
          "removed": false
        }
      ],
      "status": "0x1",
      "logsBloom": "0x00000080000000100000000000000000000000000000000000000000000000000000000000000010000000000000000000000000000000000000000000000000000000080000800000000000000000000000000000000000000000000080000000000000000000000000000000000000000000000000000000000000000000000000000000000000000000000000000000000000000000000001000000000000000000000000000000000000000000000000000010000000000000000000000000000000000000000000000000000000000000000000000400000000000000000000000000000000000000000000000000000000000000000000000000000000",
      "type": "0x2",
      "effectiveGasPrice": "0xb3e6b0"
    },
    {
      "transactionHash": "0xa0fdd61f9494c0d403daa6c93578352da6b1251b9702239c3edc7046e1c7d866",
      "transactionIndex": "0x2",
      "blockHash": "0xde145df562e1f311344b649361ab089bcf3f0ae8bdc81d888bd7de8326937f93",
      "blockNumber": "0xcbbbc4c",
      "from": "0x660ad4B5A74130a4796B4d54BC6750Ae93C86e6c",
      "to": "0xc5d01939Af7Ce9Ffc505F0bb36eFeDde7920f2dc",
      "cumulativeGasUsed": "0x363ff",
      "gasUsed": "0x132e8",
      "contractAddress": null,
      "logs": [
        {
          "address": "0xc5d01939Af7Ce9Ffc505F0bb36eFeDde7920f2dc",
          "topics": [
            "0x906a1c6bd7e3091ea86693dd029a831c19049ce77f1dce2ce0bab1cacbabce22",
            "0x0000000000000000000000008bfe32ac9c21609f45ee6ae44d4e326973700614"
          ],
          "data": "0x",
          "blockHash": "0xde145df562e1f311344b649361ab089bcf3f0ae8bdc81d888bd7de8326937f93",
          "blockNumber": "0xcbbbc4c",
          "transactionHash": "0xa0fdd61f9494c0d403daa6c93578352da6b1251b9702239c3edc7046e1c7d866",
          "transactionIndex": "0x2",
          "logIndex": "0x0",
          "removed": false
        }
      ],
      "status": "0x1",
      "logsBloom": "0x00000000000000100000000000000000000000000000000000000000000000000000000000000010000000000000000000000000000000000000000000000000000000000000800000000000000000000000004000000000000000000000000000000000000000000000000000000000000000000000000000000000000000000000000000000000000000000000000000000000000000000001000000000000000000000000000000000000000000000000010010000000000000000000000000000000000000000000000000000000000000000000000400000002000000000000000000000000000000000000000000000000000000000000000000000000",
      "type": "0x2",
      "effectiveGasPrice": "0xae1a50"
    },
    {
      "transactionHash": "0xdc114d57060fa068f4f5536aab2ff73d4b5b4b4da433f9d2b71f72dadff6d38b",
      "transactionIndex": "0x6",
      "blockHash": "0x728c906a29a976629150bf268879fd758416bcce495d3795537cf4e0b4c14fc0",
      "blockNumber": "0xcbbbc68",
      "from": "0x660ad4B5A74130a4796B4d54BC6750Ae93C86e6c",
      "to": "0x05369D989D9dD9cD6537E667865Ee8157d5EE91B",
      "cumulativeGasUsed": "0x100d50",
      "gasUsed": "0x13533",
      "contractAddress": null,
      "logs": [
        {
          "address": "0x05369D989D9dD9cD6537E667865Ee8157d5EE91B",
          "topics": [
            "0x906a1c6bd7e3091ea86693dd029a831c19049ce77f1dce2ce0bab1cacbabce22",
            "0x0000000000000000000000008bfe32ac9c21609f45ee6ae44d4e326973700614"
          ],
          "data": "0x",
          "blockHash": "0x728c906a29a976629150bf268879fd758416bcce495d3795537cf4e0b4c14fc0",
          "blockNumber": "0xcbbbc68",
          "transactionHash": "0xdc114d57060fa068f4f5536aab2ff73d4b5b4b4da433f9d2b71f72dadff6d38b",
          "transactionIndex": "0x6",
          "logIndex": "0x11",
          "removed": false
        }
      ],
      "status": "0x1",
      "logsBloom": "0x00000000000000100000000000000000000000000000000000000000000000000000000000000010000000000000000000000000000000000000000000000000000000000000810000000000000000000000000000000000000000000000000000000000000000000000000000000000000000000000000000000000000000000000000000000000000000000000000000000000000000000001000000000000000000000000000000000000000000000000000010000000000000000000000000000000400000000000000000000000400000000000000400000000000000000000000000000000000000000000000000000000000000000000000000000000",
      "type": "0x2",
      "effectiveGasPrice": "0xaaab68"
    },
    {
      "transactionHash": "0x9dd8072ece3ebcf81fce3bed1e90e33ddef4ec0e9629bd0ecbdd4170fea325f2",
      "transactionIndex": "0x3",
      "blockHash": "0x67573630633864a948626175872e4cd88680060abd3d213b55f93dbfb8158e03",
      "blockNumber": "0xcbbbc83",
      "from": "0x660ad4B5A74130a4796B4d54BC6750Ae93C86e6c",
      "to": "0x4D585D346DFB27b297C37F480a82d4cAB39491Bb",
      "cumulativeGasUsed": "0x8ecdc",
      "gasUsed": "0x134c5",
      "contractAddress": null,
      "logs": [
        {
          "address": "0x4D585D346DFB27b297C37F480a82d4cAB39491Bb",
          "topics": [
            "0x906a1c6bd7e3091ea86693dd029a831c19049ce77f1dce2ce0bab1cacbabce22",
            "0x0000000000000000000000008bfe32ac9c21609f45ee6ae44d4e326973700614"
          ],
          "data": "0x",
          "blockHash": "0x67573630633864a948626175872e4cd88680060abd3d213b55f93dbfb8158e03",
          "blockNumber": "0xcbbbc83",
          "transactionHash": "0x9dd8072ece3ebcf81fce3bed1e90e33ddef4ec0e9629bd0ecbdd4170fea325f2",
          "transactionIndex": "0x3",
          "logIndex": "0x3",
          "removed": false
        }
      ],
      "status": "0x1",
      "logsBloom": "0x00000000000000100000000000000000000000000000000000000000000000000000000000000010000000000000000000000000000000000000000000000000000000000000800000000000000000000000010000000000000000000000000001000000000000000000000000000000000000000000000000000000000000000000000000000000000000000000000000000000000000000001000000000000000000000000000000000000000000000000000010000000000000000008000000000000000000000000000000000000000000000000000400000000000000000000000000000000000000000000000000000000000000000000000000000000",
      "type": "0x2",
      "effectiveGasPrice": "0xaa41f0"
    },
    {
      "transactionHash": "0x9e1e424bcf84dfeec39b7648bcb1552e07532f09efe9c55693b8ea62a4b3ba21",
      "transactionIndex": "0x4",
      "blockHash": "0xe80ad2bd9a1f0db6e806505d2131a8cb32b618da79a09b09de8a9de963149698",
      "blockNumber": "0xcbbbca0",
      "from": "0x660ad4B5A74130a4796B4d54BC6750Ae93C86e6c",
      "to": "0x00A0c9d82B95a17Cdf2D46703F2DcA13EB0E8A94",
      "cumulativeGasUsed": "0x122a29",
      "gasUsed": "0x13465",
      "contractAddress": null,
      "logs": [
        {
          "address": "0x00A0c9d82B95a17Cdf2D46703F2DcA13EB0E8A94",
          "topics": [
            "0x906a1c6bd7e3091ea86693dd029a831c19049ce77f1dce2ce0bab1cacbabce22",
            "0x0000000000000000000000008bfe32ac9c21609f45ee6ae44d4e326973700614"
          ],
          "data": "0x",
          "blockHash": "0xe80ad2bd9a1f0db6e806505d2131a8cb32b618da79a09b09de8a9de963149698",
          "blockNumber": "0xcbbbca0",
          "transactionHash": "0x9e1e424bcf84dfeec39b7648bcb1552e07532f09efe9c55693b8ea62a4b3ba21",
          "transactionIndex": "0x4",
          "logIndex": "0x19",
          "removed": false
        }
      ],
      "status": "0x1",
      "logsBloom": "0x00000000000000100000000000000000000000000000000000004000000000000000000000000010000000000000000000000000000000000000000000000000000000000000800000000000000000000000000000000000000000000000000000040000000000000000000000000000000000000000000000000000000000000000000000000000000000000000000000000000000000000001000000000000000000000000000000000000000000000000000010000000000000000000000000000001000000000000000000000000000000000000000400000000000000000000000000000000000000000000000000000000000000000000000000000000",
      "type": "0x2",
      "effectiveGasPrice": "0xac0328"
    },
    {
      "transactionHash": "0x6c613abfc9b0f544a2d3890b6fc9afb78af2fb5a207bbd13bbb6580ee8433c02",
      "transactionIndex": "0x1",
      "blockHash": "0x7dae62de1b99e167bf6ab518bf9be5f06bdb89558bb0a03e65dc24780719ea15",
      "blockNumber": "0xcbbbcbd",
      "from": "0x660ad4B5A74130a4796B4d54BC6750Ae93C86e6c",
      "to": "0x47469683AEAD0B5EF2c599ff34d55C3D998393Bf",
      "cumulativeGasUsed": "0x13564",
      "gasUsed": "0x13564",
      "contractAddress": null,
      "logs": [
        {
          "address": "0x47469683AEAD0B5EF2c599ff34d55C3D998393Bf",
          "topics": [
            "0x906a1c6bd7e3091ea86693dd029a831c19049ce77f1dce2ce0bab1cacbabce22",
            "0x0000000000000000000000008bfe32ac9c21609f45ee6ae44d4e326973700614"
          ],
          "data": "0x",
          "blockHash": "0x7dae62de1b99e167bf6ab518bf9be5f06bdb89558bb0a03e65dc24780719ea15",
          "blockNumber": "0xcbbbcbd",
          "transactionHash": "0x6c613abfc9b0f544a2d3890b6fc9afb78af2fb5a207bbd13bbb6580ee8433c02",
          "transactionIndex": "0x1",
          "logIndex": "0x0",
          "removed": false
        }
      ],
      "status": "0x1",
      "logsBloom": "0x00000800000000100000000000000000000000000000000000000000000000000000000000000010000000000000000000000000000000000000000000000000000000000000800000000000000000000000000000000000000000000000000000000000000000000000000000000000000000000000000000000000000000000000000000000000000000000000000000000000000000000001000000000000000000020000000000100000000000000000000010000000000000000000000000000000000000000000000000000000000000000000000400000000000000000000000000000000000000000000000000000000000000000000000000000000",
      "type": "0x2",
      "effectiveGasPrice": "0xaa6900"
    },
    {
      "transactionHash": "0x11fcde702de8a310284e08d3b82e460f2e9a014bf753b33c8e9d795f067eafef",
      "transactionIndex": "0x1",
      "blockHash": "0xf45aa9840e99098b711c69fa6f33ea5a892791ba8065177db1a79d2878820265",
      "blockNumber": "0xcbbbcda",
      "from": "0x660ad4B5A74130a4796B4d54BC6750Ae93C86e6c",
      "to": "0xC88A469B96A62d4DA14Dc5e23BDBC495D2b15C6B",
      "cumulativeGasUsed": "0x138eb",
      "gasUsed": "0x138eb",
      "contractAddress": null,
      "logs": [
        {
          "address": "0xC88A469B96A62d4DA14Dc5e23BDBC495D2b15C6B",
          "topics": [
            "0x906a1c6bd7e3091ea86693dd029a831c19049ce77f1dce2ce0bab1cacbabce22",
            "0x0000000000000000000000008bfe32ac9c21609f45ee6ae44d4e326973700614"
          ],
          "data": "0x",
          "blockHash": "0xf45aa9840e99098b711c69fa6f33ea5a892791ba8065177db1a79d2878820265",
          "blockNumber": "0xcbbbcda",
          "transactionHash": "0x11fcde702de8a310284e08d3b82e460f2e9a014bf753b33c8e9d795f067eafef",
          "transactionIndex": "0x1",
          "logIndex": "0x0",
          "removed": false
        }
      ],
      "status": "0x1",
      "logsBloom": "0x00000000000000100000000000000000000000000000000000000000000000000000000000000010000000000000000000800000000000000000000000000000000000000000800000000000000000001000000000000000000000000000000000000000200000000000000000000000000000000000000000000000000000000000000000000000000000000000000000000000000000000001000000000000000000000000000000000000000000000000000010000000000000000000000000000000000000000000000000000000000000000000000400000000000000000000000000000000000000000000000000000000000000000000000000000000",
      "type": "0x2",
      "effectiveGasPrice": "0xa5d908"
    },
    {
      "transactionHash": "0xfd0418cd173deb429d3729c0d32aee7457047d26360ef1837ceb80c3c8078c16",
      "transactionIndex": "0x1",
      "blockHash": "0x82068743fb623e9703c87f6d70e18663532f9e89a77eec58205f16abc7800825",
      "blockNumber": "0xcbbbcde",
      "from": "0x660ad4B5A74130a4796B4d54BC6750Ae93C86e6c",
      "to": "0x755cD5d147036E11c76F1EeffDd94794fC265f0d",
      "cumulativeGasUsed": "0x13987",
      "gasUsed": "0x13987",
      "contractAddress": null,
      "logs": [
        {
          "address": "0x755cD5d147036E11c76F1EeffDd94794fC265f0d",
          "topics": [
            "0x906a1c6bd7e3091ea86693dd029a831c19049ce77f1dce2ce0bab1cacbabce22",
            "0x0000000000000000000000008bfe32ac9c21609f45ee6ae44d4e326973700614"
          ],
          "data": "0x",
          "blockHash": "0x82068743fb623e9703c87f6d70e18663532f9e89a77eec58205f16abc7800825",
          "blockNumber": "0xcbbbcde",
          "transactionHash": "0xfd0418cd173deb429d3729c0d32aee7457047d26360ef1837ceb80c3c8078c16",
          "transactionIndex": "0x1",
          "logIndex": "0x0",
          "removed": false
        }
      ],
      "status": "0x1",
      "logsBloom": "0x00000000000000100000000000000000000400000000000000000000000000000000000000000010000000000000000000000000000000000000000000000000000000000000800000000000000000000000000000000000000000000000000000000000000000000000000000000000000000000000000000000000000000000001000000000000000000000000000000000000000000000001000000000000000000000000000000000000000000000000000010000000000000000000000000000000000000000000000000000000000000000000000400000000004000000000000000000000000000000000000000000000000000000000000000000000",
      "type": "0x2",
      "effectiveGasPrice": "0xa52d28"
    },
    {
      "transactionHash": "0x774197d8dd6566592beb93bbc6ca5b2ca80e012d2b1df60e3f0ca5eb1f886ee9",
      "transactionIndex": "0x4",
      "blockHash": "0xf31c7221091d04ea13647a72ec0c43ed7a8e4b165f9e9ee13098d9429ba7e9c7",
      "blockNumber": "0xcbbbce1",
      "from": "0x660ad4B5A74130a4796B4d54BC6750Ae93C86e6c",
      "to": "0xD97E3cD27fb8af306b2CD42A61B7cbaAF044D08D",
      "cumulativeGasUsed": "0xb2e2e",
      "gasUsed": "0x13a51",
      "contractAddress": null,
      "logs": [
        {
          "address": "0xD97E3cD27fb8af306b2CD42A61B7cbaAF044D08D",
          "topics": [
            "0x906a1c6bd7e3091ea86693dd029a831c19049ce77f1dce2ce0bab1cacbabce22",
            "0x0000000000000000000000008bfe32ac9c21609f45ee6ae44d4e326973700614"
          ],
          "data": "0x",
          "blockHash": "0xf31c7221091d04ea13647a72ec0c43ed7a8e4b165f9e9ee13098d9429ba7e9c7",
          "blockNumber": "0xcbbbce1",
          "transactionHash": "0x774197d8dd6566592beb93bbc6ca5b2ca80e012d2b1df60e3f0ca5eb1f886ee9",
          "transactionIndex": "0x4",
          "logIndex": "0x7",
          "removed": false
        }
      ],
      "status": "0x1",
      "logsBloom": "0x00000000000000100000000000000000000000000000000000000000000000000000000000000010000000000000000000000000000000000000000000000000000000000000800000000000000000000000000000000000000000040000000000000000000000000000000000000000000000000000000000000000000000000000000000000000000000000000100000000000000000040001000000000000000000000000000000000000000000000000000010000000000000000000000000000000000000000000000000000000000000000000000400000000000000000000000000000000000000000000000000000000000000000000000000000000",
      "type": "0x2",
      "effectiveGasPrice": "0xa3f4a8"
    },
    {
      "transactionHash": "0xd43bd51e19cfc3e9b317a4ee08cf5d1538862596f067ed8eb367c0b0006221bf",
      "transactionIndex": "0xa",
      "blockHash": "0x9d850b5f72ddd24b694b09c72e5baa5e9ebbb758494b740ace6cc58a9a6876eb",
      "blockNumber": "0xcbbbce4",
      "from": "0x660ad4B5A74130a4796B4d54BC6750Ae93C86e6c",
      "to": "0x7C852c2a3e367453Ce3a68A4D12c313BaD0565e3",
      "cumulativeGasUsed": "0x1b6139",
      "gasUsed": "0x13af6",
      "contractAddress": null,
      "logs": [
        {
          "address": "0x7C852c2a3e367453Ce3a68A4D12c313BaD0565e3",
          "topics": [
            "0x906a1c6bd7e3091ea86693dd029a831c19049ce77f1dce2ce0bab1cacbabce22",
            "0x0000000000000000000000008bfe32ac9c21609f45ee6ae44d4e326973700614"
          ],
          "data": "0x",
          "blockHash": "0x9d850b5f72ddd24b694b09c72e5baa5e9ebbb758494b740ace6cc58a9a6876eb",
          "blockNumber": "0xcbbbce4",
          "transactionHash": "0xd43bd51e19cfc3e9b317a4ee08cf5d1538862596f067ed8eb367c0b0006221bf",
          "transactionIndex": "0xa",
          "logIndex": "0x14",
          "removed": false
        }
      ],
      "status": "0x1",
      "logsBloom": "0x00000000000000100000000000000000000000000000000000000000000000000000000000000010000080000000000000000040000000000000000000000000000000000000800000000000000000000000000000000000000000000000000000000000000000000000000000000000000000000000000000000000000000000000000000000000000000000000000000000000000000000001000000000000000000000000000000000000000000000000000010000000000000000000000000000000000000000000000000000000000000000000000400000000000000000000000000400000000000000000000000000000000000000000000000000000",
      "type": "0x2",
      "effectiveGasPrice": "0xa340f8"
    },
    {
      "transactionHash": "0xe4b74fd95e3c0700aad1500d95e347b5dc816d04bf80366ede849fe23fbc40d6",
      "transactionIndex": "0x3",
      "blockHash": "0x889ed3e9f224425579bab9135248e07ddef44cd27a50a78ff4866f691bc3a560",
      "blockNumber": "0xcbbbce8",
      "from": "0x660ad4B5A74130a4796B4d54BC6750Ae93C86e6c",
      "to": "0x351d8894fB8bfa1b0eFF77bFD9Aab18eA2da8fDd",
      "cumulativeGasUsed": "0x712c6",
      "gasUsed": "0x13b77",
      "contractAddress": null,
      "logs": [
        {
          "address": "0x351d8894fB8bfa1b0eFF77bFD9Aab18eA2da8fDd",
          "topics": [
            "0x906a1c6bd7e3091ea86693dd029a831c19049ce77f1dce2ce0bab1cacbabce22",
            "0x0000000000000000000000008bfe32ac9c21609f45ee6ae44d4e326973700614"
          ],
          "data": "0x",
          "blockHash": "0x889ed3e9f224425579bab9135248e07ddef44cd27a50a78ff4866f691bc3a560",
          "blockNumber": "0xcbbbce8",
          "transactionHash": "0xe4b74fd95e3c0700aad1500d95e347b5dc816d04bf80366ede849fe23fbc40d6",
          "transactionIndex": "0x3",
          "logIndex": "0xc",
          "removed": false
        }
      ],
      "status": "0x1",
      "logsBloom": "0x00000000000000100000000000000000000000000000000000000000000000000010000000000010000000000000000000000000000000000000000000000000000000000000800000000000000000000000000000000000000000000000000100000000000000000000000000000000000000000000000000000000000000000000000000000000200000000000000000000000000000000001000000000000000000000000000000000000000000000000000010000000000000000000000000000000000000000000000000000000000000000000000400000000000000000000000000000000000000000000000000000000000000000000000000000000",
      "type": "0x2",
      "effectiveGasPrice": "0xa2bc28"
    },
    {
      "transactionHash": "0xb59020d1b7b23353bb9aeaf857829715f2686756461ab4519c766626ea8cdbaa",
      "transactionIndex": "0x3",
      "blockHash": "0xf91e88c337537efec231ddecd0fb1fa372c9140b5bbb45076a8af4faa09b3ac8",
      "blockNumber": "0xcbbbd03",
      "from": "0x660ad4B5A74130a4796B4d54BC6750Ae93C86e6c",
      "to": "0x70ae312d3f1c9116BF89db833DaDc060D4AD820F",
      "cumulativeGasUsed": "0x6bce6",
      "gasUsed": "0x13e14",
      "contractAddress": null,
      "logs": [
        {
          "address": "0x70ae312d3f1c9116BF89db833DaDc060D4AD820F",
          "topics": [
            "0x906a1c6bd7e3091ea86693dd029a831c19049ce77f1dce2ce0bab1cacbabce22",
            "0x0000000000000000000000008bfe32ac9c21609f45ee6ae44d4e326973700614"
          ],
          "data": "0x",
          "blockHash": "0xf91e88c337537efec231ddecd0fb1fa372c9140b5bbb45076a8af4faa09b3ac8",
          "blockNumber": "0xcbbbd03",
          "transactionHash": "0xb59020d1b7b23353bb9aeaf857829715f2686756461ab4519c766626ea8cdbaa",
          "transactionIndex": "0x3",
          "logIndex": "0x5",
          "removed": false
        }
      ],
      "status": "0x1",
      "logsBloom": "0x00000000000000100000000000000000000000000000000000000000000000000000000000000010000000000000000000000000000000000000000000000000000000000000800000000000000000000000000000000000000000000000000000000000000000000000000000000000000200000000000000000000000000000000000000000000000000000000000000000000001000000001000100000000000000000000000000000000000000000000000010000000000000000000000000000000000000000000000000000000000000000000000400000000000000000000000000000000000000000000000000000000000000000000000000000000",
      "type": "0x2",
      "effectiveGasPrice": "0x9f58f8"
    },
    {
      "transactionHash": "0x9e4ea05836e8c731fb151b8b000c42b3a40fbd2026c513a829b6e6739106fdc5",
      "transactionIndex": "0x8",
      "blockHash": "0x63201110fdb3d40f2b349abf101acefe6409145f3f8608ce35bf1b9932414e20",
      "blockNumber": "0xcbbbd20",
      "from": "0x660ad4B5A74130a4796B4d54BC6750Ae93C86e6c",
      "to": "0x8bD30d8c5d5cBb5e41Af7B9A4bD654b34772e890",
      "cumulativeGasUsed": "0x15a8ee",
      "gasUsed": "0x14350",
      "contractAddress": null,
      "logs": [
        {
          "address": "0x8bD30d8c5d5cBb5e41Af7B9A4bD654b34772e890",
          "topics": [
            "0x906a1c6bd7e3091ea86693dd029a831c19049ce77f1dce2ce0bab1cacbabce22",
            "0x0000000000000000000000008bfe32ac9c21609f45ee6ae44d4e326973700614"
          ],
          "data": "0x",
          "blockHash": "0x63201110fdb3d40f2b349abf101acefe6409145f3f8608ce35bf1b9932414e20",
          "blockNumber": "0xcbbbd20",
          "transactionHash": "0x9e4ea05836e8c731fb151b8b000c42b3a40fbd2026c513a829b6e6739106fdc5",
          "transactionIndex": "0x8",
          "logIndex": "0x1a",
          "removed": false
        }
      ],
      "status": "0x1",
      "logsBloom": "0x00000000000000100000000018000000000000000000000000000000000000000000000000000010000000000000000000000000000000000000000000000000000000000000800000000000000000000000000000000000000000000000020000000000000000000000000000000000000000000000000000000000000000000000000000000000000000000000000000000000000000000001000000000000000000000000000000000000000000000000000010000000000000000000000000000000000000000000000000000000000000000000000400000000000000000000000000000000000000000000000000000000000000000000000000000000",
      "type": "0x2",
      "effectiveGasPrice": "0x997140"
    },
    {
      "transactionHash": "0x37519851ccaaebe68f55522080ea1819dc2775ff9739edfe5ccc0c2e8836d83d",
      "transactionIndex": "0x3",
      "blockHash": "0xfa893b93e75959dc393b11fdbf0763c75a2edd76a17fcb10a99ad57da02fbf29",
      "blockNumber": "0xcbbbd3d",
      "from": "0x660ad4B5A74130a4796B4d54BC6750Ae93C86e6c",
      "to": "0xdf34E61B6e7B9e348713d528fEB019d504d38c1e",
      "cumulativeGasUsed": "0xa9747",
      "gasUsed": "0x1442d",
      "contractAddress": null,
      "logs": [
        {
          "address": "0xdf34E61B6e7B9e348713d528fEB019d504d38c1e",
          "topics": [
            "0x906a1c6bd7e3091ea86693dd029a831c19049ce77f1dce2ce0bab1cacbabce22",
            "0x0000000000000000000000008bfe32ac9c21609f45ee6ae44d4e326973700614"
          ],
          "data": "0x",
          "blockHash": "0xfa893b93e75959dc393b11fdbf0763c75a2edd76a17fcb10a99ad57da02fbf29",
          "blockNumber": "0xcbbbd3d",
          "transactionHash": "0x37519851ccaaebe68f55522080ea1819dc2775ff9739edfe5ccc0c2e8836d83d",
          "transactionIndex": "0x3",
          "logIndex": "0x9",
          "removed": false
        }
      ],
      "status": "0x1",
      "logsBloom": "0x00000000000000100000000000000000000000000000000000000000000000000000000000000010000004000000000000000000000000000000000000000000000000000000800000000000000000000000000000000000000000000000000000000000000000000000000000000000000000000000000000004000000000000000000000000000000000000000000000080000000000000001000000000000000000000000000000000000000000000000000010000000000000000000000000000000000000000000000000000000000000000000000400000000000000000000000000000000000000000000000000000000000000000000000000000000",
      "type": "0x2",
      "effectiveGasPrice": "0x989680"
    },
    {
      "transactionHash": "0x074c94702809a43fefa60a3b9b873d40c8525c04ebd04a1066c1733b5622da98",
      "transactionIndex": "0x1",
      "blockHash": "0xc0437395ae132638df55164c60dcb86f5e8a1f3991515a55fd6c627048df5306",
      "blockNumber": "0xcbbbd58",
      "from": "0x660ad4B5A74130a4796B4d54BC6750Ae93C86e6c",
      "to": "0x9d46297E4d0fb4D911bDE9746dBb7077d897a908",
      "cumulativeGasUsed": "0x14401",
      "gasUsed": "0x14401",
      "contractAddress": null,
      "logs": [
        {
          "address": "0x9d46297E4d0fb4D911bDE9746dBb7077d897a908",
          "topics": [
            "0x906a1c6bd7e3091ea86693dd029a831c19049ce77f1dce2ce0bab1cacbabce22",
            "0x0000000000000000000000008bfe32ac9c21609f45ee6ae44d4e326973700614"
          ],
          "data": "0x",
          "blockHash": "0xc0437395ae132638df55164c60dcb86f5e8a1f3991515a55fd6c627048df5306",
          "blockNumber": "0xcbbbd58",
          "transactionHash": "0x074c94702809a43fefa60a3b9b873d40c8525c04ebd04a1066c1733b5622da98",
          "transactionIndex": "0x1",
          "logIndex": "0x0",
          "removed": false
        }
      ],
      "status": "0x1",
      "logsBloom": "0x00000000000000100000000000000000000000000000000000000000000000000000000000000010000000000000000000000000000000000000000000000000000000000000800000000000000000000000000000000000000000000000000000000000000000000000000000000000000000000000000010000000000000000000000000000000000000000000000000000000000000000001000000000000000000000000000000000000000000000000000010000000000000000000000000000000000000000000000000000000000000000000000400000000000000000000000080000000000000000000000000000000000000000000000000000080",
      "type": "0x2",
      "effectiveGasPrice": "0x989680"
    }
  ],
  "libraries": [],
  "pending": [],
  "returns": {},
  "timestamp": 1716320462,
  "chain": 42161,
  "commit": "01fe980"
}