{
  "transactions": [
    {
      "hash": "0x8f2cd54380384780f5e2a032ced2abc1fbf334a4ef4be4fc456a1f2e1cdd1c84",
      "transactionType": "CALL",
      "contractName": null,
      "contractAddress": "0x9354E3822CE6BF77B2761f8922972BB767D771d8",
      "function": "revokeRole(bytes32,address)",
      "arguments": [
        "0xc4c453d647953c0fd35db5a34ee76e60fb4abc3a8fb891a25936b70b38f29253",
        "0x660ad4B5A74130a4796B4d54BC6750Ae93C86e6c"
      ],
      "transaction": {
        "type": "0x02",
        "from": "0x660ad4b5a74130a4796b4d54bc6750ae93c86e6c",
        "to": "0x9354e3822ce6bf77b2761f8922972bb767d771d8",
        "gas": "0x8e71",
        "value": "0x0",
        "data": "0xd547741fc4c453d647953c0fd35db5a34ee76e60fb4abc3a8fb891a25936b70b38f29253000000000000000000000000660ad4b5a74130a4796b4d54bc6750ae93c86e6c",
        "nonce": "0x5e",
        "accessList": []
      },
      "additionalContracts": [],
      "isFixedGasLimit": false
    },
    {
      "hash": "0x058d83e57cf4fa487e9bbc5e1a70aa11032c9226eb427a4604211713cc00c475",
      "transactionType": "CALL",
      "contractName": null,
      "contractAddress": "0x9354E3822CE6BF77B2761f8922972BB767D771d8",
      "function": "grantRole(bytes32,address)",
      "arguments": [
        "0xc4c453d647953c0fd35db5a34ee76e60fb4abc3a8fb891a25936b70b38f29253",
        "0x45e9deAbb4FdD048Ae38Fce9D9E8d68EC6f592a2"
      ],
      "transaction": {
        "type": "0x02",
        "from": "0x660ad4b5a74130a4796b4d54bc6750ae93c86e6c",
        "to": "0x9354e3822ce6bf77b2761f8922972bb767d771d8",
        "gas": "0x10466",
        "value": "0x0",
        "data": "0x2f2ff15dc4c453d647953c0fd35db5a34ee76e60fb4abc3a8fb891a25936b70b38f2925300000000000000000000000045e9deabb4fdd048ae38fce9d9e8d68ec6f592a2",
        "nonce": "0x5f",
        "accessList": []
      },
      "additionalContracts": [],
      "isFixedGasLimit": false
    },
    {
      "hash": "0x639f15c7e8dd051658978b795224fbfbba9c0af4c9193c92e19d6c748ca0cccd",
      "transactionType": "CALL",
      "contractName": null,
      "contractAddress": "0x7F7c594eE170a62d7e7615972831038Cf7d4Fc1A",
      "function": "revokeRole(bytes32,address)",
      "arguments": [
        "0xc4c453d647953c0fd35db5a34ee76e60fb4abc3a8fb891a25936b70b38f29253",
        "0x660ad4B5A74130a4796B4d54BC6750Ae93C86e6c"
      ],
      "transaction": {
        "type": "0x02",
        "from": "0x660ad4b5a74130a4796b4d54bc6750ae93c86e6c",
        "to": "0x7f7c594ee170a62d7e7615972831038cf7d4fc1a",
        "gas": "0x96b1",
        "value": "0x0",
        "data": "0xd547741fc4c453d647953c0fd35db5a34ee76e60fb4abc3a8fb891a25936b70b38f29253000000000000000000000000660ad4b5a74130a4796b4d54bc6750ae93c86e6c",
        "nonce": "0x60",
        "accessList": []
      },
      "additionalContracts": [],
      "isFixedGasLimit": false
    },
    {
      "hash": "0x4baea3c62216223874ea6604e217e1bb8217b1c0890de0c61cb1e4c496773d87",
      "transactionType": "CALL",
      "contractName": null,
      "contractAddress": "0x7F7c594eE170a62d7e7615972831038Cf7d4Fc1A",
      "function": "grantRole(bytes32,address)",
      "arguments": [
        "0xc4c453d647953c0fd35db5a34ee76e60fb4abc3a8fb891a25936b70b38f29253",
        "0x45e9deAbb4FdD048Ae38Fce9D9E8d68EC6f592a2"
      ],
      "transaction": {
        "type": "0x02",
        "from": "0x660ad4b5a74130a4796b4d54bc6750ae93c86e6c",
        "to": "0x7f7c594ee170a62d7e7615972831038cf7d4fc1a",
        "gas": "0x10484",
        "value": "0x0",
        "data": "0x2f2ff15dc4c453d647953c0fd35db5a34ee76e60fb4abc3a8fb891a25936b70b38f2925300000000000000000000000045e9deabb4fdd048ae38fce9d9e8d68ec6f592a2",
        "nonce": "0x61",
        "accessList": []
      },
      "additionalContracts": [],
      "isFixedGasLimit": false
    },
    {
      "hash": "0x1bbf47170c2cddb21c8161d9a64c359649e7f7062c473edbf9a35023f8256ede",
      "transactionType": "CALL",
      "contractName": null,
      "contractAddress": "0xe35A32f61C6AA3110Fc72251499B89D51F221C09",
      "function": "revokeRole(bytes32,address)",
      "arguments": [
        "0xc4c453d647953c0fd35db5a34ee76e60fb4abc3a8fb891a25936b70b38f29253",
        "0x660ad4B5A74130a4796B4d54BC6750Ae93C86e6c"
      ],
      "transaction": {
        "type": "0x02",
        "from": "0x660ad4b5a74130a4796b4d54bc6750ae93c86e6c",
        "to": "0xe35a32f61c6aa3110fc72251499b89d51f221c09",
        "gas": "0x968f",
        "value": "0x0",
        "data": "0xd547741fc4c453d647953c0fd35db5a34ee76e60fb4abc3a8fb891a25936b70b38f29253000000000000000000000000660ad4b5a74130a4796b4d54bc6750ae93c86e6c",
        "nonce": "0x62",
        "accessList": []
      },
      "additionalContracts": [],
      "isFixedGasLimit": false
    },
    {
      "hash": "0x36fdfb4e3db29384530799c20ba9dd73c16c5f6a920e47be23163e7055bc9835",
      "transactionType": "CALL",
      "contractName": null,
      "contractAddress": "0xe35A32f61C6AA3110Fc72251499B89D51F221C09",
      "function": "grantRole(bytes32,address)",
      "arguments": [
        "0xc4c453d647953c0fd35db5a34ee76e60fb4abc3a8fb891a25936b70b38f29253",
        "0x45e9deAbb4FdD048Ae38Fce9D9E8d68EC6f592a2"
      ],
      "transaction": {
        "type": "0x02",
        "from": "0x660ad4b5a74130a4796b4d54bc6750ae93c86e6c",
        "to": "0xe35a32f61c6aa3110fc72251499b89d51f221c09",
        "gas": "0x10484",
        "value": "0x0",
        "data": "0x2f2ff15dc4c453d647953c0fd35db5a34ee76e60fb4abc3a8fb891a25936b70b38f2925300000000000000000000000045e9deabb4fdd048ae38fce9d9e8d68ec6f592a2",
        "nonce": "0x63",
        "accessList": []
      },
      "additionalContracts": [],
      "isFixedGasLimit": false
    },
    {
      "hash": "0x388b00c89ddc3346bc49beccf706b704bec601c96a54a78d18172e0328dd42b3",
      "transactionType": "CALL",
      "contractName": null,
      "contractAddress": "0xE194f2B41A5dc6Be311aD7811eF391a0ac84687d",
      "function": "revokeRole(bytes32,address)",
      "arguments": [
        "0xc4c453d647953c0fd35db5a34ee76e60fb4abc3a8fb891a25936b70b38f29253",
        "0x660ad4B5A74130a4796B4d54BC6750Ae93C86e6c"
      ],
      "transaction": {
        "type": "0x02",
        "from": "0x660ad4b5a74130a4796b4d54bc6750ae93c86e6c",
        "to": "0xe194f2b41a5dc6be311ad7811ef391a0ac84687d",
        "gas": "0x8e71",
        "value": "0x0",
        "data": "0xd547741fc4c453d647953c0fd35db5a34ee76e60fb4abc3a8fb891a25936b70b38f29253000000000000000000000000660ad4b5a74130a4796b4d54bc6750ae93c86e6c",
        "nonce": "0x64",
        "accessList": []
      },
      "additionalContracts": [],
      "isFixedGasLimit": false
    },
    {
      "hash": "0xb651115f46e288994a0c077774b6cc4a6384a44a88a50da24624916dccc3ab74",
      "transactionType": "CALL",
      "contractName": null,
      "contractAddress": "0xE194f2B41A5dc6Be311aD7811eF391a0ac84687d",
      "function": "grantRole(bytes32,address)",
      "arguments": [
        "0xc4c453d647953c0fd35db5a34ee76e60fb4abc3a8fb891a25936b70b38f29253",
        "0x45e9deAbb4FdD048Ae38Fce9D9E8d68EC6f592a2"
      ],
      "transaction": {
        "type": "0x02",
        "from": "0x660ad4b5a74130a4796b4d54bc6750ae93c86e6c",
        "to": "0xe194f2b41a5dc6be311ad7811ef391a0ac84687d",
        "gas": "0x10466",
        "value": "0x0",
        "data": "0x2f2ff15dc4c453d647953c0fd35db5a34ee76e60fb4abc3a8fb891a25936b70b38f2925300000000000000000000000045e9deabb4fdd048ae38fce9d9e8d68ec6f592a2",
        "nonce": "0x65",
        "accessList": []
      },
      "additionalContracts": [],
      "isFixedGasLimit": false
    },
    {
      "hash": "0x9f3dc468ef9c4806d0c5b1c0fd5e823879418fafa53f06bfb821bced4b1a002f",
      "transactionType": "CALL",
      "contractName": null,
      "contractAddress": "0xBE32c7765E5432fEbd86043876D5a9c73b1b2Ac2",
      "function": "revokeRole(bytes32,address)",
      "arguments": [
        "0xc4c453d647953c0fd35db5a34ee76e60fb4abc3a8fb891a25936b70b38f29253",
        "0x660ad4B5A74130a4796B4d54BC6750Ae93C86e6c"
      ],
      "transaction": {
        "type": "0x02",
        "from": "0x660ad4b5a74130a4796b4d54bc6750ae93c86e6c",
        "to": "0xbe32c7765e5432febd86043876d5a9c73b1b2ac2",
        "gas": "0x96b1",
        "value": "0x0",
        "data": "0xd547741fc4c453d647953c0fd35db5a34ee76e60fb4abc3a8fb891a25936b70b38f29253000000000000000000000000660ad4b5a74130a4796b4d54bc6750ae93c86e6c",
        "nonce": "0x66",
        "accessList": []
      },
      "additionalContracts": [],
      "isFixedGasLimit": false
    },
    {
      "hash": "0x1f7686f20f86bcbcbe773b61523d445338ddb36a171ed353277560e3f1cb3835",
      "transactionType": "CALL",
      "contractName": null,
      "contractAddress": "0xBE32c7765E5432fEbd86043876D5a9c73b1b2Ac2",
      "function": "grantRole(bytes32,address)",
      "arguments": [
        "0xc4c453d647953c0fd35db5a34ee76e60fb4abc3a8fb891a25936b70b38f29253",
        "0x45e9deAbb4FdD048Ae38Fce9D9E8d68EC6f592a2"
      ],
      "transaction": {
        "type": "0x02",
        "from": "0x660ad4b5a74130a4796b4d54bc6750ae93c86e6c",
        "to": "0xbe32c7765e5432febd86043876d5a9c73b1b2ac2",
        "gas": "0x10484",
        "value": "0x0",
        "data": "0x2f2ff15dc4c453d647953c0fd35db5a34ee76e60fb4abc3a8fb891a25936b70b38f2925300000000000000000000000045e9deabb4fdd048ae38fce9d9e8d68ec6f592a2",
        "nonce": "0x67",
        "accessList": []
      },
      "additionalContracts": [],
      "isFixedGasLimit": false
    },
    {
      "hash": "0x09f74a7825824167cdca5891edf00a24e42310dd5bf230300bc00bf00ce1c46c",
      "transactionType": "CALL",
      "contractName": null,
      "contractAddress": "0xca27c3F42092dbC211296651470EF3771B8d4509",
      "function": "revokeRole(bytes32,address)",
      "arguments": [
        "0xc4c453d647953c0fd35db5a34ee76e60fb4abc3a8fb891a25936b70b38f29253",
        "0x660ad4B5A74130a4796B4d54BC6750Ae93C86e6c"
      ],
      "transaction": {
        "type": "0x02",
        "from": "0x660ad4b5a74130a4796b4d54bc6750ae93c86e6c",
        "to": "0xca27c3f42092dbc211296651470ef3771b8d4509",
        "gas": "0x968f",
        "value": "0x0",
        "data": "0xd547741fc4c453d647953c0fd35db5a34ee76e60fb4abc3a8fb891a25936b70b38f29253000000000000000000000000660ad4b5a74130a4796b4d54bc6750ae93c86e6c",
        "nonce": "0x68",
        "accessList": []
      },
      "additionalContracts": [],
      "isFixedGasLimit": false
    },
    {
      "hash": "0x18f0fc633c54fc2f174b37c76a2ee5a8a16ed19d5bf3abe3a738624a9c03e2c6",
      "transactionType": "CALL",
      "contractName": null,
      "contractAddress": "0xca27c3F42092dbC211296651470EF3771B8d4509",
      "function": "grantRole(bytes32,address)",
      "arguments": [
        "0xc4c453d647953c0fd35db5a34ee76e60fb4abc3a8fb891a25936b70b38f29253",
        "0x45e9deAbb4FdD048Ae38Fce9D9E8d68EC6f592a2"
      ],
      "transaction": {
        "type": "0x02",
        "from": "0x660ad4b5a74130a4796b4d54bc6750ae93c86e6c",
        "to": "0xca27c3f42092dbc211296651470ef3771b8d4509",
        "gas": "0x10484",
        "value": "0x0",
        "data": "0x2f2ff15dc4c453d647953c0fd35db5a34ee76e60fb4abc3a8fb891a25936b70b38f2925300000000000000000000000045e9deabb4fdd048ae38fce9d9e8d68ec6f592a2",
        "nonce": "0x69",
        "accessList": []
      },
      "additionalContracts": [],
      "isFixedGasLimit": false
    },
    {
      "hash": "0x13dc32354fc2cf69844a28218e3238b80af297abb4386ec07fd9f6346a2dab02",
      "transactionType": "CALL",
      "contractName": null,
      "contractAddress": "0xfDF267c43c0C868046c66695c1a85c973418CBFb",
      "function": "revokeRole(bytes32,address)",
      "arguments": [
        "0xc4c453d647953c0fd35db5a34ee76e60fb4abc3a8fb891a25936b70b38f29253",
        "0x660ad4B5A74130a4796B4d54BC6750Ae93C86e6c"
      ],
      "transaction": {
        "type": "0x02",
        "from": "0x660ad4b5a74130a4796b4d54bc6750ae93c86e6c",
        "to": "0xfdf267c43c0c868046c66695c1a85c973418cbfb",
        "gas": "0x8e71",
        "value": "0x0",
        "data": "0xd547741fc4c453d647953c0fd35db5a34ee76e60fb4abc3a8fb891a25936b70b38f29253000000000000000000000000660ad4b5a74130a4796b4d54bc6750ae93c86e6c",
        "nonce": "0x6a",
        "accessList": []
      },
      "additionalContracts": [],
      "isFixedGasLimit": false
    },
    {
      "hash": "0x6618ab5deab9ad6cb3937d394fe8f0d3a799d0eb0da9b34dc5a25dad03750ee0",
      "transactionType": "CALL",
      "contractName": null,
      "contractAddress": "0xfDF267c43c0C868046c66695c1a85c973418CBFb",
      "function": "grantRole(bytes32,address)",
      "arguments": [
        "0xc4c453d647953c0fd35db5a34ee76e60fb4abc3a8fb891a25936b70b38f29253",
        "0x45e9deAbb4FdD048Ae38Fce9D9E8d68EC6f592a2"
      ],
      "transaction": {
        "type": "0x02",
        "from": "0x660ad4b5a74130a4796b4d54bc6750ae93c86e6c",
        "to": "0xfdf267c43c0c868046c66695c1a85c973418cbfb",
        "gas": "0x10466",
        "value": "0x0",
        "data": "0x2f2ff15dc4c453d647953c0fd35db5a34ee76e60fb4abc3a8fb891a25936b70b38f2925300000000000000000000000045e9deabb4fdd048ae38fce9d9e8d68ec6f592a2",
        "nonce": "0x6b",
        "accessList": []
      },
      "additionalContracts": [],
      "isFixedGasLimit": false
    },
    {
      "hash": "0x62603c88d8979d8b33c7003aa313f744be921b4de66a18547df9be757c9d6bcf",
      "transactionType": "CALL",
      "contractName": null,
      "contractAddress": "0x13E2705B19c36aa274a552D6d9FFe5fFfd2e6804",
      "function": "revokeRole(bytes32,address)",
      "arguments": [
        "0xc4c453d647953c0fd35db5a34ee76e60fb4abc3a8fb891a25936b70b38f29253",
        "0x660ad4B5A74130a4796B4d54BC6750Ae93C86e6c"
      ],
      "transaction": {
        "type": "0x02",
        "from": "0x660ad4b5a74130a4796b4d54bc6750ae93c86e6c",
        "to": "0x13e2705b19c36aa274a552d6d9ffe5fffd2e6804",
        "gas": "0x96b1",
        "value": "0x0",
        "data": "0xd547741fc4c453d647953c0fd35db5a34ee76e60fb4abc3a8fb891a25936b70b38f29253000000000000000000000000660ad4b5a74130a4796b4d54bc6750ae93c86e6c",
        "nonce": "0x6c",
        "accessList": []
      },
      "additionalContracts": [],
      "isFixedGasLimit": false
    },
    {
      "hash": "0x25f4f2836a824a7e8dca67a1f595875139bc0f3cf02591f26b1a611ea229dfbd",
      "transactionType": "CALL",
      "contractName": null,
      "contractAddress": "0x13E2705B19c36aa274a552D6d9FFe5fFfd2e6804",
      "function": "grantRole(bytes32,address)",
      "arguments": [
        "0xc4c453d647953c0fd35db5a34ee76e60fb4abc3a8fb891a25936b70b38f29253",
        "0x45e9deAbb4FdD048Ae38Fce9D9E8d68EC6f592a2"
      ],
      "transaction": {
        "type": "0x02",
        "from": "0x660ad4b5a74130a4796b4d54bc6750ae93c86e6c",
        "to": "0x13e2705b19c36aa274a552d6d9ffe5fffd2e6804",
        "gas": "0x10484",
        "value": "0x0",
        "data": "0x2f2ff15dc4c453d647953c0fd35db5a34ee76e60fb4abc3a8fb891a25936b70b38f2925300000000000000000000000045e9deabb4fdd048ae38fce9d9e8d68ec6f592a2",
        "nonce": "0x6d",
        "accessList": []
      },
      "additionalContracts": [],
      "isFixedGasLimit": false
    },
    {
      "hash": "0x2f5704823beb0b45b407d4f9258740c2dbf121455879581959e9792f8efccd6d",
      "transactionType": "CALL",
      "contractName": null,
      "contractAddress": "0xeFc88792EBbd4561A1495b027590fBCC8EbE1Fac",
      "function": "revokeRole(bytes32,address)",
      "arguments": [
        "0xc4c453d647953c0fd35db5a34ee76e60fb4abc3a8fb891a25936b70b38f29253",
        "0x660ad4B5A74130a4796B4d54BC6750Ae93C86e6c"
      ],
      "transaction": {
        "type": "0x02",
        "from": "0x660ad4b5a74130a4796b4d54bc6750ae93c86e6c",
        "to": "0xefc88792ebbd4561a1495b027590fbcc8ebe1fac",
        "gas": "0x968f",
        "value": "0x0",
        "data": "0xd547741fc4c453d647953c0fd35db5a34ee76e60fb4abc3a8fb891a25936b70b38f29253000000000000000000000000660ad4b5a74130a4796b4d54bc6750ae93c86e6c",
        "nonce": "0x6e",
        "accessList": []
      },
      "additionalContracts": [],
      "isFixedGasLimit": false
    },
    {
      "hash": "0xb81c9128550bbc3ca579da1b2aaf4949e61479c3b7329a81d9b1137618e2cbc2",
      "transactionType": "CALL",
      "contractName": null,
      "contractAddress": "0xeFc88792EBbd4561A1495b027590fBCC8EbE1Fac",
      "function": "grantRole(bytes32,address)",
      "arguments": [
        "0xc4c453d647953c0fd35db5a34ee76e60fb4abc3a8fb891a25936b70b38f29253",
        "0x45e9deAbb4FdD048Ae38Fce9D9E8d68EC6f592a2"
      ],
      "transaction": {
        "type": "0x02",
        "from": "0x660ad4b5a74130a4796b4d54bc6750ae93c86e6c",
        "to": "0xefc88792ebbd4561a1495b027590fbcc8ebe1fac",
        "gas": "0x10484",
        "value": "0x0",
        "data": "0x2f2ff15dc4c453d647953c0fd35db5a34ee76e60fb4abc3a8fb891a25936b70b38f2925300000000000000000000000045e9deabb4fdd048ae38fce9d9e8d68ec6f592a2",
        "nonce": "0x6f",
        "accessList": []
      },
      "additionalContracts": [],
      "isFixedGasLimit": false
    },
    {
      "hash": "0x7bacbd5589f909603ff93f35fa2557edf19f3e68e6988811be980bfcaff6d826",
      "transactionType": "CALL",
      "contractName": null,
      "contractAddress": "0xc7744d1A93c56a6eE12CCF1F2264641F219528fE",
      "function": "revokeRole(bytes32,address)",
      "arguments": [
        "0xc4c453d647953c0fd35db5a34ee76e60fb4abc3a8fb891a25936b70b38f29253",
        "0x660ad4B5A74130a4796B4d54BC6750Ae93C86e6c"
      ],
      "transaction": {
        "type": "0x02",
        "from": "0x660ad4b5a74130a4796b4d54bc6750ae93c86e6c",
        "to": "0xc7744d1a93c56a6ee12ccf1f2264641f219528fe",
        "gas": "0x8e71",
        "value": "0x0",
        "data": "0xd547741fc4c453d647953c0fd35db5a34ee76e60fb4abc3a8fb891a25936b70b38f29253000000000000000000000000660ad4b5a74130a4796b4d54bc6750ae93c86e6c",
        "nonce": "0x70",
        "accessList": []
      },
      "additionalContracts": [],
      "isFixedGasLimit": false
    },
    {
      "hash": "0xc6b72f814a4e6550f764e8bdd822a209f252a026c0e5eb9555625666b0eb647e",
      "transactionType": "CALL",
      "contractName": null,
      "contractAddress": "0xc7744d1A93c56a6eE12CCF1F2264641F219528fE",
      "function": "grantRole(bytes32,address)",
      "arguments": [
        "0xc4c453d647953c0fd35db5a34ee76e60fb4abc3a8fb891a25936b70b38f29253",
        "0x45e9deAbb4FdD048Ae38Fce9D9E8d68EC6f592a2"
      ],
      "transaction": {
        "type": "0x02",
        "from": "0x660ad4b5a74130a4796b4d54bc6750ae93c86e6c",
        "to": "0xc7744d1a93c56a6ee12ccf1f2264641f219528fe",
        "gas": "0x10466",
        "value": "0x0",
        "data": "0x2f2ff15dc4c453d647953c0fd35db5a34ee76e60fb4abc3a8fb891a25936b70b38f2925300000000000000000000000045e9deabb4fdd048ae38fce9d9e8d68ec6f592a2",
        "nonce": "0x71",
        "accessList": []
      },
      "additionalContracts": [],
      "isFixedGasLimit": false
    },
    {
      "hash": "0x5c50dd4868efca0bc9344575fde5ba7f0878220859bb206112c080a44dc732c6",
      "transactionType": "CALL",
      "contractName": null,
      "contractAddress": "0xb7eFF520393c146F857cEeC6f18968b127815C58",
      "function": "revokeRole(bytes32,address)",
      "arguments": [
        "0xc4c453d647953c0fd35db5a34ee76e60fb4abc3a8fb891a25936b70b38f29253",
        "0x660ad4B5A74130a4796B4d54BC6750Ae93C86e6c"
      ],
      "transaction": {
        "type": "0x02",
        "from": "0x660ad4b5a74130a4796b4d54bc6750ae93c86e6c",
        "to": "0xb7eff520393c146f857ceec6f18968b127815c58",
        "gas": "0x96b1",
        "value": "0x0",
        "data": "0xd547741fc4c453d647953c0fd35db5a34ee76e60fb4abc3a8fb891a25936b70b38f29253000000000000000000000000660ad4b5a74130a4796b4d54bc6750ae93c86e6c",
        "nonce": "0x72",
        "accessList": []
      },
      "additionalContracts": [],
      "isFixedGasLimit": false
    },
    {
      "hash": "0xba73a0c2ddf24d9c8fb4b3458d0f966316c7be8044a334a5e32c772880b45425",
      "transactionType": "CALL",
      "contractName": null,
      "contractAddress": "0xb7eFF520393c146F857cEeC6f18968b127815C58",
      "function": "grantRole(bytes32,address)",
      "arguments": [
        "0xc4c453d647953c0fd35db5a34ee76e60fb4abc3a8fb891a25936b70b38f29253",
        "0x45e9deAbb4FdD048Ae38Fce9D9E8d68EC6f592a2"
      ],
      "transaction": {
        "type": "0x02",
        "from": "0x660ad4b5a74130a4796b4d54bc6750ae93c86e6c",
        "to": "0xb7eff520393c146f857ceec6f18968b127815c58",
        "gas": "0x10484",
        "value": "0x0",
        "data": "0x2f2ff15dc4c453d647953c0fd35db5a34ee76e60fb4abc3a8fb891a25936b70b38f2925300000000000000000000000045e9deabb4fdd048ae38fce9d9e8d68ec6f592a2",
        "nonce": "0x73",
        "accessList": []
      },
      "additionalContracts": [],
      "isFixedGasLimit": false
    },
    {
      "hash": "0xe35e20def99d562c40d864784177e91b3071cbc88341ccf43cb1a6a3dc81e09b",
      "transactionType": "CALL",
      "contractName": null,
      "contractAddress": "0x2e7ADd41b5C7eAFBbB298e4AB2EbC158C18737B5",
      "function": "revokeRole(bytes32,address)",
      "arguments": [
        "0xc4c453d647953c0fd35db5a34ee76e60fb4abc3a8fb891a25936b70b38f29253",
        "0x660ad4B5A74130a4796B4d54BC6750Ae93C86e6c"
      ],
      "transaction": {
        "type": "0x02",
        "from": "0x660ad4b5a74130a4796b4d54bc6750ae93c86e6c",
        "to": "0x2e7add41b5c7eafbbb298e4ab2ebc158c18737b5",
        "gas": "0x968f",
        "value": "0x0",
        "data": "0xd547741fc4c453d647953c0fd35db5a34ee76e60fb4abc3a8fb891a25936b70b38f29253000000000000000000000000660ad4b5a74130a4796b4d54bc6750ae93c86e6c",
        "nonce": "0x74",
        "accessList": []
      },
      "additionalContracts": [],
      "isFixedGasLimit": false
    },
    {
      "hash": "0x7972668c55d2e16cda607b2160c91a14056e370162cd86f29fb51de3f2c109d1",
      "transactionType": "CALL",
      "contractName": null,
      "contractAddress": "0x2e7ADd41b5C7eAFBbB298e4AB2EbC158C18737B5",
      "function": "grantRole(bytes32,address)",
      "arguments": [
        "0xc4c453d647953c0fd35db5a34ee76e60fb4abc3a8fb891a25936b70b38f29253",
        "0x45e9deAbb4FdD048Ae38Fce9D9E8d68EC6f592a2"
      ],
      "transaction": {
        "type": "0x02",
        "from": "0x660ad4b5a74130a4796b4d54bc6750ae93c86e6c",
        "to": "0x2e7add41b5c7eafbbb298e4ab2ebc158c18737b5",
        "gas": "0x10484",
        "value": "0x0",
        "data": "0x2f2ff15dc4c453d647953c0fd35db5a34ee76e60fb4abc3a8fb891a25936b70b38f2925300000000000000000000000045e9deabb4fdd048ae38fce9d9e8d68ec6f592a2",
        "nonce": "0x75",
        "accessList": []
      },
      "additionalContracts": [],
      "isFixedGasLimit": false
    },
    {
      "hash": "0x9a88eb1b62be03288d2a5340bc982b5e14bcfef847d5bbae0047be39fa55e1a4",
      "transactionType": "CALL",
      "contractName": null,
      "contractAddress": "0x8de880ecA6B95214C1ECd1556BF1DB4d23f212B5",
      "function": "revokeRole(bytes32,address)",
      "arguments": [
        "0xc4c453d647953c0fd35db5a34ee76e60fb4abc3a8fb891a25936b70b38f29253",
        "0x660ad4B5A74130a4796B4d54BC6750Ae93C86e6c"
      ],
      "transaction": {
        "type": "0x02",
        "from": "0x660ad4b5a74130a4796b4d54bc6750ae93c86e6c",
        "to": "0x8de880eca6b95214c1ecd1556bf1db4d23f212b5",
        "gas": "0x8e71",
        "value": "0x0",
        "data": "0xd547741fc4c453d647953c0fd35db5a34ee76e60fb4abc3a8fb891a25936b70b38f29253000000000000000000000000660ad4b5a74130a4796b4d54bc6750ae93c86e6c",
        "nonce": "0x76",
        "accessList": []
      },
      "additionalContracts": [],
      "isFixedGasLimit": false
    },
    {
      "hash": "0xb15ac26f0f6a14fdea34c46d894cb77143003feb20b5a7698e8e7ea92d372289",
      "transactionType": "CALL",
      "contractName": null,
      "contractAddress": "0x8de880ecA6B95214C1ECd1556BF1DB4d23f212B5",
      "function": "grantRole(bytes32,address)",
      "arguments": [
        "0xc4c453d647953c0fd35db5a34ee76e60fb4abc3a8fb891a25936b70b38f29253",
        "0x45e9deAbb4FdD048Ae38Fce9D9E8d68EC6f592a2"
      ],
      "transaction": {
        "type": "0x02",
        "from": "0x660ad4b5a74130a4796b4d54bc6750ae93c86e6c",
        "to": "0x8de880eca6b95214c1ecd1556bf1db4d23f212b5",
        "gas": "0x10466",
        "value": "0x0",
        "data": "0x2f2ff15dc4c453d647953c0fd35db5a34ee76e60fb4abc3a8fb891a25936b70b38f2925300000000000000000000000045e9deabb4fdd048ae38fce9d9e8d68ec6f592a2",
        "nonce": "0x77",
        "accessList": []
      },
      "additionalContracts": [],
      "isFixedGasLimit": false
    },
    {
      "hash": "0x11e87e5b6362ae80fd723740c3c0bd07e1b9d4f05e01a7bdba2327df18b0c3bc",
      "transactionType": "CALL",
      "contractName": null,
      "contractAddress": "0x7024e1F50e2104f488372894Bbacef1Dfa7bFb98",
      "function": "revokeRole(bytes32,address)",
      "arguments": [
        "0xc4c453d647953c0fd35db5a34ee76e60fb4abc3a8fb891a25936b70b38f29253",
        "0x660ad4B5A74130a4796B4d54BC6750Ae93C86e6c"
      ],
      "transaction": {
        "type": "0x02",
        "from": "0x660ad4b5a74130a4796b4d54bc6750ae93c86e6c",
        "to": "0x7024e1f50e2104f488372894bbacef1dfa7bfb98",
        "gas": "0x96b1",
        "value": "0x0",
        "data": "0xd547741fc4c453d647953c0fd35db5a34ee76e60fb4abc3a8fb891a25936b70b38f29253000000000000000000000000660ad4b5a74130a4796b4d54bc6750ae93c86e6c",
        "nonce": "0x78",
        "accessList": []
      },
      "additionalContracts": [],
      "isFixedGasLimit": false
    },
    {
      "hash": "0xb449080e660af2690c3a368a05f39a6c29b1e19eff5d538edf2952cbe86427de",
      "transactionType": "CALL",
      "contractName": null,
      "contractAddress": "0x7024e1F50e2104f488372894Bbacef1Dfa7bFb98",
      "function": "grantRole(bytes32,address)",
      "arguments": [
        "0xc4c453d647953c0fd35db5a34ee76e60fb4abc3a8fb891a25936b70b38f29253",
        "0x45e9deAbb4FdD048Ae38Fce9D9E8d68EC6f592a2"
      ],
      "transaction": {
        "type": "0x02",
        "from": "0x660ad4b5a74130a4796b4d54bc6750ae93c86e6c",
        "to": "0x7024e1f50e2104f488372894bbacef1dfa7bfb98",
        "gas": "0x10484",
        "value": "0x0",
        "data": "0x2f2ff15dc4c453d647953c0fd35db5a34ee76e60fb4abc3a8fb891a25936b70b38f2925300000000000000000000000045e9deabb4fdd048ae38fce9d9e8d68ec6f592a2",
        "nonce": "0x79",
        "accessList": []
      },
      "additionalContracts": [],
      "isFixedGasLimit": false
    },
    {
      "hash": "0x1aa634ee01b82781d344cdd3ed3e0743cb6d628b712507387c10e762f1551401",
      "transactionType": "CALL",
      "contractName": null,
      "contractAddress": "0xb34896F06049891dD5c30E063FCf7A16d3834428",
      "function": "revokeRole(bytes32,address)",
      "arguments": [
        "0xc4c453d647953c0fd35db5a34ee76e60fb4abc3a8fb891a25936b70b38f29253",
        "0x660ad4B5A74130a4796B4d54BC6750Ae93C86e6c"
      ],
      "transaction": {
        "type": "0x02",
        "from": "0x660ad4b5a74130a4796b4d54bc6750ae93c86e6c",
        "to": "0xb34896f06049891dd5c30e063fcf7a16d3834428",
        "gas": "0x968f",
        "value": "0x0",
        "data": "0xd547741fc4c453d647953c0fd35db5a34ee76e60fb4abc3a8fb891a25936b70b38f29253000000000000000000000000660ad4b5a74130a4796b4d54bc6750ae93c86e6c",
        "nonce": "0x7a",
        "accessList": []
      },
      "additionalContracts": [],
      "isFixedGasLimit": false
    },
    {
      "hash": "0x86800538280ea4eb255957bd9c4f2fa8462a9e6d3471c71307970498c2d76af2",
      "transactionType": "CALL",
      "contractName": null,
      "contractAddress": "0xb34896F06049891dD5c30E063FCf7A16d3834428",
      "function": "grantRole(bytes32,address)",
      "arguments": [
        "0xc4c453d647953c0fd35db5a34ee76e60fb4abc3a8fb891a25936b70b38f29253",
        "0x45e9deAbb4FdD048Ae38Fce9D9E8d68EC6f592a2"
      ],
      "transaction": {
        "type": "0x02",
        "from": "0x660ad4b5a74130a4796b4d54bc6750ae93c86e6c",
        "to": "0xb34896f06049891dd5c30e063fcf7a16d3834428",
        "gas": "0x10484",
        "value": "0x0",
        "data": "0x2f2ff15dc4c453d647953c0fd35db5a34ee76e60fb4abc3a8fb891a25936b70b38f2925300000000000000000000000045e9deabb4fdd048ae38fce9d9e8d68ec6f592a2",
        "nonce": "0x7b",
        "accessList": []
      },
      "additionalContracts": [],
      "isFixedGasLimit": false
    },
    {
      "hash": "0x18bdaef38f852de90dfdef1a9785c62e61eb6efcab4a931eec733c53c3b6de82",
      "transactionType": "CALL",
      "contractName": null,
      "contractAddress": "0x9354E3822CE6BF77B2761f8922972BB767D771d8",
      "function": "nominateOwner(address)",
      "arguments": [
        "0x45e9deAbb4FdD048Ae38Fce9D9E8d68EC6f592a2"
      ],
      "transaction": {
        "type": "0x02",
        "from": "0x660ad4b5a74130a4796b4d54bc6750ae93c86e6c",
        "to": "0x9354e3822ce6bf77b2761f8922972bb767d771d8",
        "gas": "0x10d9b",
        "value": "0x0",
        "data": "0x5b94db2700000000000000000000000045e9deabb4fdd048ae38fce9d9e8d68ec6f592a2",
        "nonce": "0x7c",
        "accessList": []
      },
      "additionalContracts": [],
      "isFixedGasLimit": false
    },
    {
      "hash": "0xe124eed85e2da9a2c89d7753cd0c4d108c74b5938a6ea394aa74d9ca7e5be41b",
      "transactionType": "CALL",
      "contractName": null,
      "contractAddress": "0x7F7c594eE170a62d7e7615972831038Cf7d4Fc1A",
      "function": "nominateOwner(address)",
      "arguments": [
        "0x45e9deAbb4FdD048Ae38Fce9D9E8d68EC6f592a2"
      ],
      "transaction": {
        "type": "0x02",
        "from": "0x660ad4b5a74130a4796b4d54bc6750ae93c86e6c",
        "to": "0x7f7c594ee170a62d7e7615972831038cf7d4fc1a",
        "gas": "0xfebe",
        "value": "0x0",
        "data": "0x5b94db2700000000000000000000000045e9deabb4fdd048ae38fce9d9e8d68ec6f592a2",
        "nonce": "0x7d",
        "accessList": []
      },
      "additionalContracts": [],
      "isFixedGasLimit": false
    },
    {
      "hash": "0xce819e53b29606b22b11437d47dcfefe778598975be4488e6dd86e3779f0a206",
      "transactionType": "CALL",
      "contractName": null,
      "contractAddress": "0xe35A32f61C6AA3110Fc72251499B89D51F221C09",
      "function": "nominateOwner(address)",
      "arguments": [
        "0x45e9deAbb4FdD048Ae38Fce9D9E8d68EC6f592a2"
      ],
      "transaction": {
        "type": "0x02",
        "from": "0x660ad4b5a74130a4796b4d54bc6750ae93c86e6c",
        "to": "0xe35a32f61c6aa3110fc72251499b89d51f221c09",
        "gas": "0x10d7b",
        "value": "0x0",
        "data": "0x5b94db2700000000000000000000000045e9deabb4fdd048ae38fce9d9e8d68ec6f592a2",
        "nonce": "0x7e",
        "accessList": []
      },
      "additionalContracts": [],
      "isFixedGasLimit": false
    },
    {
      "hash": "0x75a0f2c40beebf1f24adce941c4ff4a7bce6939b1528f974570ec14a853117ff",
      "transactionType": "CALL",
      "contractName": null,
      "contractAddress": "0xE194f2B41A5dc6Be311aD7811eF391a0ac84687d",
      "function": "nominateOwner(address)",
      "arguments": [
        "0x45e9deAbb4FdD048Ae38Fce9D9E8d68EC6f592a2"
      ],
      "transaction": {
        "type": "0x02",
        "from": "0x660ad4b5a74130a4796b4d54bc6750ae93c86e6c",
        "to": "0xe194f2b41a5dc6be311ad7811ef391a0ac84687d",
        "gas": "0x10d9b",
        "value": "0x0",
        "data": "0x5b94db2700000000000000000000000045e9deabb4fdd048ae38fce9d9e8d68ec6f592a2",
        "nonce": "0x7f",
        "accessList": []
      },
      "additionalContracts": [],
      "isFixedGasLimit": false
    },
    {
      "hash": "0x4444a42b5b233526553f10824be56bd1b4ff86b6d0f50702313a362b2b2eaaa3",
      "transactionType": "CALL",
      "contractName": null,
      "contractAddress": "0xBE32c7765E5432fEbd86043876D5a9c73b1b2Ac2",
      "function": "nominateOwner(address)",
      "arguments": [
        "0x45e9deAbb4FdD048Ae38Fce9D9E8d68EC6f592a2"
      ],
      "transaction": {
        "type": "0x02",
        "from": "0x660ad4b5a74130a4796b4d54bc6750ae93c86e6c",
        "to": "0xbe32c7765e5432febd86043876d5a9c73b1b2ac2",
        "gas": "0xfebe",
        "value": "0x0",
        "data": "0x5b94db2700000000000000000000000045e9deabb4fdd048ae38fce9d9e8d68ec6f592a2",
        "nonce": "0x80",
        "accessList": []
      },
      "additionalContracts": [],
      "isFixedGasLimit": false
    },
    {
      "hash": "0x5321453a59a66d70eceb1fec38dbce45e9acb3c567efd96137cc6395f2616ad8",
      "transactionType": "CALL",
      "contractName": null,
      "contractAddress": "0xca27c3F42092dbC211296651470EF3771B8d4509",
      "function": "nominateOwner(address)",
      "arguments": [
        "0x45e9deAbb4FdD048Ae38Fce9D9E8d68EC6f592a2"
      ],
      "transaction": {
        "type": "0x02",
        "from": "0x660ad4b5a74130a4796b4d54bc6750ae93c86e6c",
        "to": "0xca27c3f42092dbc211296651470ef3771b8d4509",
        "gas": "0x10d7b",
        "value": "0x0",
        "data": "0x5b94db2700000000000000000000000045e9deabb4fdd048ae38fce9d9e8d68ec6f592a2",
        "nonce": "0x81",
        "accessList": []
      },
      "additionalContracts": [],
      "isFixedGasLimit": false
    },
    {
      "hash": "0xa192423718c91af1bc7aa174ef1f670ed3197010f6638bf01da92b1122ce3034",
      "transactionType": "CALL",
      "contractName": null,
      "contractAddress": "0xfDF267c43c0C868046c66695c1a85c973418CBFb",
      "function": "nominateOwner(address)",
      "arguments": [
        "0x45e9deAbb4FdD048Ae38Fce9D9E8d68EC6f592a2"
      ],
      "transaction": {
        "type": "0x02",
        "from": "0x660ad4b5a74130a4796b4d54bc6750ae93c86e6c",
        "to": "0xfdf267c43c0c868046c66695c1a85c973418cbfb",
        "gas": "0x10d9b",
        "value": "0x0",
        "data": "0x5b94db2700000000000000000000000045e9deabb4fdd048ae38fce9d9e8d68ec6f592a2",
        "nonce": "0x82",
        "accessList": []
      },
      "additionalContracts": [],
      "isFixedGasLimit": false
    },
    {
      "hash": "0xaf52fd805457f0130608a1d1bcead891d12b7150a2bd4c8973d2b3db06906534",
      "transactionType": "CALL",
      "contractName": null,
      "contractAddress": "0x13E2705B19c36aa274a552D6d9FFe5fFfd2e6804",
      "function": "nominateOwner(address)",
      "arguments": [
        "0x45e9deAbb4FdD048Ae38Fce9D9E8d68EC6f592a2"
      ],
      "transaction": {
        "type": "0x02",
        "from": "0x660ad4b5a74130a4796b4d54bc6750ae93c86e6c",
        "to": "0x13e2705b19c36aa274a552d6d9ffe5fffd2e6804",
        "gas": "0xfebe",
        "value": "0x0",
        "data": "0x5b94db2700000000000000000000000045e9deabb4fdd048ae38fce9d9e8d68ec6f592a2",
        "nonce": "0x83",
        "accessList": []
      },
      "additionalContracts": [],
      "isFixedGasLimit": false
    },
    {
      "hash": "0xb91166299172bb2cd538d74062937383aece0d24abc2aa4ce09d1c4e8a855c2e",
      "transactionType": "CALL",
      "contractName": null,
      "contractAddress": "0xeFc88792EBbd4561A1495b027590fBCC8EbE1Fac",
      "function": "nominateOwner(address)",
      "arguments": [
        "0x45e9deAbb4FdD048Ae38Fce9D9E8d68EC6f592a2"
      ],
      "transaction": {
        "type": "0x02",
        "from": "0x660ad4b5a74130a4796b4d54bc6750ae93c86e6c",
        "to": "0xefc88792ebbd4561a1495b027590fbcc8ebe1fac",
        "gas": "0x10d7b",
        "value": "0x0",
        "data": "0x5b94db2700000000000000000000000045e9deabb4fdd048ae38fce9d9e8d68ec6f592a2",
        "nonce": "0x84",
        "accessList": []
      },
      "additionalContracts": [],
      "isFixedGasLimit": false
    },
    {
      "hash": "0x12d54513e4d847f90b0897df722d96a690436a8c85e27006d155ff711449beba",
      "transactionType": "CALL",
      "contractName": null,
      "contractAddress": "0xc7744d1A93c56a6eE12CCF1F2264641F219528fE",
      "function": "nominateOwner(address)",
      "arguments": [
        "0x45e9deAbb4FdD048Ae38Fce9D9E8d68EC6f592a2"
      ],
      "transaction": {
        "type": "0x02",
        "from": "0x660ad4b5a74130a4796b4d54bc6750ae93c86e6c",
        "to": "0xc7744d1a93c56a6ee12ccf1f2264641f219528fe",
        "gas": "0x10d9b",
        "value": "0x0",
        "data": "0x5b94db2700000000000000000000000045e9deabb4fdd048ae38fce9d9e8d68ec6f592a2",
        "nonce": "0x85",
        "accessList": []
      },
      "additionalContracts": [],
      "isFixedGasLimit": false
    },
    {
      "hash": "0x0e8a4db44bfec24cb0b74104cb1c9457efc2119098c7ad55bbcb45d64b85d7c4",
      "transactionType": "CALL",
      "contractName": null,
      "contractAddress": "0xb7eFF520393c146F857cEeC6f18968b127815C58",
      "function": "nominateOwner(address)",
      "arguments": [
        "0x45e9deAbb4FdD048Ae38Fce9D9E8d68EC6f592a2"
      ],
      "transaction": {
        "type": "0x02",
        "from": "0x660ad4b5a74130a4796b4d54bc6750ae93c86e6c",
        "to": "0xb7eff520393c146f857ceec6f18968b127815c58",
        "gas": "0xfebe",
        "value": "0x0",
        "data": "0x5b94db2700000000000000000000000045e9deabb4fdd048ae38fce9d9e8d68ec6f592a2",
        "nonce": "0x86",
        "accessList": []
      },
      "additionalContracts": [],
      "isFixedGasLimit": false
    },
    {
      "hash": "0xb20ff6e6b6d56632627264060c14510949e1ad96f8b6e5dc8b4ef548d0250015",
      "transactionType": "CALL",
      "contractName": null,
      "contractAddress": "0x2e7ADd41b5C7eAFBbB298e4AB2EbC158C18737B5",
      "function": "nominateOwner(address)",
      "arguments": [
        "0x45e9deAbb4FdD048Ae38Fce9D9E8d68EC6f592a2"
      ],
      "transaction": {
        "type": "0x02",
        "from": "0x660ad4b5a74130a4796b4d54bc6750ae93c86e6c",
        "to": "0x2e7add41b5c7eafbbb298e4ab2ebc158c18737b5",
        "gas": "0x10d7b",
        "value": "0x0",
        "data": "0x5b94db2700000000000000000000000045e9deabb4fdd048ae38fce9d9e8d68ec6f592a2",
        "nonce": "0x87",
        "accessList": []
      },
      "additionalContracts": [],
      "isFixedGasLimit": false
    },
    {
      "hash": "0xc86dc6906ed931d2be5193bc3490da720afcce5e8f9c4de234532d3915d16261",
      "transactionType": "CALL",
      "contractName": null,
      "contractAddress": "0x8de880ecA6B95214C1ECd1556BF1DB4d23f212B5",
      "function": "nominateOwner(address)",
      "arguments": [
        "0x45e9deAbb4FdD048Ae38Fce9D9E8d68EC6f592a2"
      ],
      "transaction": {
        "type": "0x02",
        "from": "0x660ad4b5a74130a4796b4d54bc6750ae93c86e6c",
        "to": "0x8de880eca6b95214c1ecd1556bf1db4d23f212b5",
        "gas": "0x10d9b",
        "value": "0x0",
        "data": "0x5b94db2700000000000000000000000045e9deabb4fdd048ae38fce9d9e8d68ec6f592a2",
        "nonce": "0x88",
        "accessList": []
      },
      "additionalContracts": [],
      "isFixedGasLimit": false
    },
    {
      "hash": "0x94e488c4d03a91f9f591ad38b35319e3c8ab6d8819eda02c756642490b4ef4f6",
      "transactionType": "CALL",
      "contractName": null,
      "contractAddress": "0x7024e1F50e2104f488372894Bbacef1Dfa7bFb98",
      "function": "nominateOwner(address)",
      "arguments": [
        "0x45e9deAbb4FdD048Ae38Fce9D9E8d68EC6f592a2"
      ],
      "transaction": {
        "type": "0x02",
        "from": "0x660ad4b5a74130a4796b4d54bc6750ae93c86e6c",
        "to": "0x7024e1f50e2104f488372894bbacef1dfa7bfb98",
        "gas": "0xfebe",
        "value": "0x0",
        "data": "0x5b94db2700000000000000000000000045e9deabb4fdd048ae38fce9d9e8d68ec6f592a2",
        "nonce": "0x89",
        "accessList": []
      },
      "additionalContracts": [],
      "isFixedGasLimit": false
    },
    {
      "hash": "0x8f79c2af98f43320719c5892df75c049151e267dabdc075ca6ab7559a80e6ba1",
      "transactionType": "CALL",
      "contractName": null,
      "contractAddress": "0xb34896F06049891dD5c30E063FCf7A16d3834428",
      "function": "nominateOwner(address)",
      "arguments": [
        "0x45e9deAbb4FdD048Ae38Fce9D9E8d68EC6f592a2"
      ],
      "transaction": {
        "type": "0x02",
        "from": "0x660ad4b5a74130a4796b4d54bc6750ae93c86e6c",
        "to": "0xb34896f06049891dd5c30e063fcf7a16d3834428",
        "gas": "0x10d7b",
        "value": "0x0",
        "data": "0x5b94db2700000000000000000000000045e9deabb4fdd048ae38fce9d9e8d68ec6f592a2",
        "nonce": "0x8a",
        "accessList": []
      },
      "additionalContracts": [],
      "isFixedGasLimit": false
    }
  ],
  "receipts": [
    {
      "transactionHash": "0x8f2cd54380384780f5e2a032ced2abc1fbf334a4ef4be4fc456a1f2e1cdd1c84",
      "transactionIndex": "0x1",
      "blockHash": "0xfe51c8e42be14be1afe92929a0ae5d25c16320c4be9bbcf841610f7191a4e2cd",
      "blockNumber": "0xe14baa",
      "from": "0x660ad4B5A74130a4796B4d54BC6750Ae93C86e6c",
      "to": "0x9354E3822CE6BF77B2761f8922972BB767D771d8",
      "cumulativeGasUsed": "0x1332f",
      "gasUsed": "0x6720",
      "contractAddress": null,
      "logs": [
        {
          "address": "0x9354E3822CE6BF77B2761f8922972BB767D771d8",
          "topics": [
            "0x155aaafb6329a2098580462df33ec4b7441b19729b9601c5fc17ae1cf99a8a52",
            "0xc4c453d647953c0fd35db5a34ee76e60fb4abc3a8fb891a25936b70b38f29253",
            "0x000000000000000000000000660ad4b5a74130a4796b4d54bc6750ae93c86e6c"
          ],
          "data": "0x",
          "blockHash": "0xfe51c8e42be14be1afe92929a0ae5d25c16320c4be9bbcf841610f7191a4e2cd",
          "blockNumber": "0xe14baa",
          "transactionHash": "0x8f2cd54380384780f5e2a032ced2abc1fbf334a4ef4be4fc456a1f2e1cdd1c84",
          "transactionIndex": "0x1",
          "logIndex": "0x0",
          "removed": false
        }
      ],
      "status": "0x1",
      "logsBloom": "0x00000000000000000000000000000004000000000000000000000000000000000040000000000000000000000000000000000020000000000000000000000000000000000000000000000000000000000000000020000000000001000000080000000000000000000000000010000000000000000000000000000000000000000000000000000000000000000040000000000000000000000000000000000000000000000000000000000000000000000000000000000000000000000000000000000000080000000100000000004000000000000000000000000000400000000000000000000000000000000000000000000000000000000000000000000000",
      "type": "0x2",
      "effectiveGasPrice": "0xb659b668"
    },
    {
      "transactionHash": "0x058d83e57cf4fa487e9bbc5e1a70aa11032c9226eb427a4604211713cc00c475",
      "transactionIndex": "0x2",
      "blockHash": "0xfe51c8e42be14be1afe92929a0ae5d25c16320c4be9bbcf841610f7191a4e2cd",
      "blockNumber": "0xe14baa",
      "from": "0x660ad4B5A74130a4796B4d54BC6750Ae93C86e6c",
      "to": "0x9354E3822CE6BF77B2761f8922972BB767D771d8",
      "cumulativeGasUsed": "0x1efb6",
      "gasUsed": "0xbc87",
      "contractAddress": null,
      "logs": [
        {
          "address": "0x9354E3822CE6BF77B2761f8922972BB767D771d8",
          "topics": [
            "0x2ae6a113c0ed5b78a53413ffbb7679881f11145ccfba4fb92e863dfcd5a1d2f3",
            "0xc4c453d647953c0fd35db5a34ee76e60fb4abc3a8fb891a25936b70b38f29253",
            "0x00000000000000000000000045e9deabb4fdd048ae38fce9d9e8d68ec6f592a2"
          ],
          "data": "0x",
          "blockHash": "0xfe51c8e42be14be1afe92929a0ae5d25c16320c4be9bbcf841610f7191a4e2cd",
          "blockNumber": "0xe14baa",
          "transactionHash": "0x058d83e57cf4fa487e9bbc5e1a70aa11032c9226eb427a4604211713cc00c475",
          "transactionIndex": "0x2",
          "logIndex": "0x1",
          "removed": false
        }
      ],
      "status": "0x1",
      "logsBloom": "0x00000000000000000000000000000004000000000000000000000000000000000000000000000000000000000000000000000000000000000000000000000000000000000000000040400000000000000000000020000000000000000000000000000000000000000000000010000000000000000000800000000000000000000000000000000000000000000000000000000000000000000000000000000000000000000000000040000000000000000000000000000000000000000000000000000000080000000000000000004000000000000000000000000000400000000000044000000000000000000000000000000000000000000000000000000000",
      "type": "0x2",
      "effectiveGasPrice": "0xb659b668"
    },
    {
      "transactionHash": "0x639f15c7e8dd051658978b795224fbfbba9c0af4c9193c92e19d6c748ca0cccd",
      "transactionIndex": "0x3",
      "blockHash": "0xfe51c8e42be14be1afe92929a0ae5d25c16320c4be9bbcf841610f7191a4e2cd",
      "blockNumber": "0xe14baa",
      "from": "0x660ad4B5A74130a4796B4d54BC6750Ae93C86e6c",
      "to": "0x7F7c594eE170a62d7e7615972831038Cf7d4Fc1A",
      "cumulativeGasUsed": "0x256c0",
      "gasUsed": "0x670a",
      "contractAddress": null,
      "logs": [
        {
          "address": "0x7F7c594eE170a62d7e7615972831038Cf7d4Fc1A",
          "topics": [
            "0x155aaafb6329a2098580462df33ec4b7441b19729b9601c5fc17ae1cf99a8a52",
            "0xc4c453d647953c0fd35db5a34ee76e60fb4abc3a8fb891a25936b70b38f29253",
            "0x000000000000000000000000660ad4b5a74130a4796b4d54bc6750ae93c86e6c"
          ],
          "data": "0x",
          "blockHash": "0xfe51c8e42be14be1afe92929a0ae5d25c16320c4be9bbcf841610f7191a4e2cd",
          "blockNumber": "0xe14baa",
          "transactionHash": "0x639f15c7e8dd051658978b795224fbfbba9c0af4c9193c92e19d6c748ca0cccd",
          "transactionIndex": "0x3",
          "logIndex": "0x2",
          "removed": false
        }
      ],
      "status": "0x1",
      "logsBloom": "0x00040000000000000000000000000000000000000000000000000000000000000040000000000000000000000000000000000020000000000000002000000000000000000000000000000000000000000000000020000000000001000000080000000000000000000008000010000000000000000000000000000000000000000000000000000000000000000040000000000000000000000000000000000000000000000000000000000000000000000000000000000000000000000000000000000000000000000100000000004000000000000000000000000000000000000000000000000000000000000000000000000000000000000000000000000000",
      "type": "0x2",
      "effectiveGasPrice": "0xb659b668"
    },
    {
      "transactionHash": "0x4baea3c62216223874ea6604e217e1bb8217b1c0890de0c61cb1e4c496773d87",
      "transactionIndex": "0x4",
      "blockHash": "0xfe51c8e42be14be1afe92929a0ae5d25c16320c4be9bbcf841610f7191a4e2cd",
      "blockNumber": "0xe14baa",
      "from": "0x660ad4B5A74130a4796B4d54BC6750Ae93C86e6c",
      "to": "0x7F7c594eE170a62d7e7615972831038Cf7d4Fc1A",
      "cumulativeGasUsed": "0x3135d",
      "gasUsed": "0xbc9d",
      "contractAddress": null,
      "logs": [
        {
          "address": "0x7F7c594eE170a62d7e7615972831038Cf7d4Fc1A",
          "topics": [
            "0x2ae6a113c0ed5b78a53413ffbb7679881f11145ccfba4fb92e863dfcd5a1d2f3",
            "0xc4c453d647953c0fd35db5a34ee76e60fb4abc3a8fb891a25936b70b38f29253",
            "0x00000000000000000000000045e9deabb4fdd048ae38fce9d9e8d68ec6f592a2"
          ],
          "data": "0x",
          "blockHash": "0xfe51c8e42be14be1afe92929a0ae5d25c16320c4be9bbcf841610f7191a4e2cd",
          "blockNumber": "0xe14baa",
          "transactionHash": "0x4baea3c62216223874ea6604e217e1bb8217b1c0890de0c61cb1e4c496773d87",
          "transactionIndex": "0x4",
          "logIndex": "0x3",
          "removed": false
        }
      ],
      "status": "0x1",
      "logsBloom": "0x00040000000000000000000000000000000000000000000000000000000000000000000000000000000000000000000000000000000000000000002000000000000000000000000040400000000000000000000020000000000000000000000000000000000000000008000010000000000000000000800000000000000000000000000000000000000000000000000000000000000000000000000000000000000000000000000040000000000000000000000000000000000000000000000000000000000000000000000000004000000000000000000000000000000000000000044000000000000000000000000000000000000000000000000000000000",
      "type": "0x2",
      "effectiveGasPrice": "0xb659b668"
    },
    {
      "transactionHash": "0x1bbf47170c2cddb21c8161d9a64c359649e7f7062c473edbf9a35023f8256ede",
      "transactionIndex": "0x5",
      "blockHash": "0xfe51c8e42be14be1afe92929a0ae5d25c16320c4be9bbcf841610f7191a4e2cd",
      "blockNumber": "0xe14baa",
      "from": "0x660ad4B5A74130a4796B4d54BC6750Ae93C86e6c",
      "to": "0xe35A32f61C6AA3110Fc72251499B89D51F221C09",
      "cumulativeGasUsed": "0x37a50",
      "gasUsed": "0x66f3",
      "contractAddress": null,
      "logs": [
        {
          "address": "0xe35A32f61C6AA3110Fc72251499B89D51F221C09",
          "topics": [
            "0x155aaafb6329a2098580462df33ec4b7441b19729b9601c5fc17ae1cf99a8a52",
            "0xc4c453d647953c0fd35db5a34ee76e60fb4abc3a8fb891a25936b70b38f29253",
            "0x000000000000000000000000660ad4b5a74130a4796b4d54bc6750ae93c86e6c"
          ],
          "data": "0x",
          "blockHash": "0xfe51c8e42be14be1afe92929a0ae5d25c16320c4be9bbcf841610f7191a4e2cd",
          "blockNumber": "0xe14baa",
          "transactionHash": "0x1bbf47170c2cddb21c8161d9a64c359649e7f7062c473edbf9a35023f8256ede",
          "transactionIndex": "0x5",
          "logIndex": "0x4",
          "removed": false
        }
      ],
      "status": "0x1",
      "logsBloom": "0x00000000000000000000000000000000000000000000000000000000000000000040000000000000000000000000000000000020000000000000000000000000000000000000000000000000000000000000000020000000000001000000080008000000000000000000000010000000000000000000000000000000000000000000000000000000000000000440000000000000000000000000000000000000000000000000000000000000000000000000000000000000000000000000000000000000000000000100000000004000000000000000000000000000001000000000000000000000000000000000000000000000000000000000000000000000",
      "type": "0x2",
      "effectiveGasPrice": "0xb659b668"
    },
    {
      "transactionHash": "0x36fdfb4e3db29384530799c20ba9dd73c16c5f6a920e47be23163e7055bc9835",
      "transactionIndex": "0x6",
      "blockHash": "0xfe51c8e42be14be1afe92929a0ae5d25c16320c4be9bbcf841610f7191a4e2cd",
      "blockNumber": "0xe14baa",
      "from": "0x660ad4B5A74130a4796B4d54BC6750Ae93C86e6c",
      "to": "0xe35A32f61C6AA3110Fc72251499B89D51F221C09",
      "cumulativeGasUsed": "0x436ed",
      "gasUsed": "0xbc9d",
      "contractAddress": null,
      "logs": [
        {
          "address": "0xe35A32f61C6AA3110Fc72251499B89D51F221C09",
          "topics": [
            "0x2ae6a113c0ed5b78a53413ffbb7679881f11145ccfba4fb92e863dfcd5a1d2f3",
            "0xc4c453d647953c0fd35db5a34ee76e60fb4abc3a8fb891a25936b70b38f29253",
            "0x00000000000000000000000045e9deabb4fdd048ae38fce9d9e8d68ec6f592a2"
          ],
          "data": "0x",
          "blockHash": "0xfe51c8e42be14be1afe92929a0ae5d25c16320c4be9bbcf841610f7191a4e2cd",
          "blockNumber": "0xe14baa",
          "transactionHash": "0x36fdfb4e3db29384530799c20ba9dd73c16c5f6a920e47be23163e7055bc9835",
          "transactionIndex": "0x6",
          "logIndex": "0x5",
          "removed": false
        }
      ],
      "status": "0x1",
      "logsBloom": "0x00000000000000000000000000000000000000000000000000000000000000000000000000000000000000000000000000000000000000000000000000000000000000000000000040400000000000000000000020000000000000000000000008000000000000000000000010000000000000000000800000000000000000000000000000000000000000000400000000000000000000000000000000000000000000000000000040000000000000000000000000000000000000000000000000000000000000000000000000004000000000000000000000000000001000000000044000000000000000000000000000000000000000000000000000000000",
      "type": "0x2",
      "effectiveGasPrice": "0xb659b668"
    },
    {
      "transactionHash": "0x388b00c89ddc3346bc49beccf706b704bec601c96a54a78d18172e0328dd42b3",
      "transactionIndex": "0x7",
      "blockHash": "0xfe51c8e42be14be1afe92929a0ae5d25c16320c4be9bbcf841610f7191a4e2cd",
      "blockNumber": "0xe14baa",
      "from": "0x660ad4B5A74130a4796B4d54BC6750Ae93C86e6c",
      "to": "0xE194f2B41A5dc6Be311aD7811eF391a0ac84687d",
      "cumulativeGasUsed": "0x49e0d",
      "gasUsed": "0x6720",
      "contractAddress": null,
      "logs": [
        {
          "address": "0xE194f2B41A5dc6Be311aD7811eF391a0ac84687d",
          "topics": [
            "0x155aaafb6329a2098580462df33ec4b7441b19729b9601c5fc17ae1cf99a8a52",
            "0xc4c453d647953c0fd35db5a34ee76e60fb4abc3a8fb891a25936b70b38f29253",
            "0x000000000000000000000000660ad4b5a74130a4796b4d54bc6750ae93c86e6c"
          ],
          "data": "0x",
          "blockHash": "0xfe51c8e42be14be1afe92929a0ae5d25c16320c4be9bbcf841610f7191a4e2cd",
          "blockNumber": "0xe14baa",
          "transactionHash": "0x388b00c89ddc3346bc49beccf706b704bec601c96a54a78d18172e0328dd42b3",
          "transactionIndex": "0x7",
          "logIndex": "0x6",
          "removed": false
        }
      ],
      "status": "0x1",
      "logsBloom": "0x00000000000000000000000000000000000000000000000000000000000000000040000000000000000000000000000000000020000000000000000000000000000000000000000040000000000000000000000020000000000001000000080000000000000000000000000010000000000020000000000000000000000000000000000000000000000000000040000000000000000000000000000000000000000000000000000000000000000000000001000000000000000000000000000000000000000000000100000000004000000000000000000000000000000000000000000000000000000000000000000000000000000000000000000000000000",
      "type": "0x2",
      "effectiveGasPrice": "0xb659b668"
    },
    {
      "transactionHash": "0xb651115f46e288994a0c077774b6cc4a6384a44a88a50da24624916dccc3ab74",
      "transactionIndex": "0x8",
      "blockHash": "0xfe51c8e42be14be1afe92929a0ae5d25c16320c4be9bbcf841610f7191a4e2cd",
      "blockNumber": "0xe14baa",
      "from": "0x660ad4B5A74130a4796B4d54BC6750Ae93C86e6c",
      "to": "0xE194f2B41A5dc6Be311aD7811eF391a0ac84687d",
      "cumulativeGasUsed": "0x55a94",
      "gasUsed": "0xbc87",
      "contractAddress": null,
      "logs": [
        {
          "address": "0xE194f2B41A5dc6Be311aD7811eF391a0ac84687d",
          "topics": [
            "0x2ae6a113c0ed5b78a53413ffbb7679881f11145ccfba4fb92e863dfcd5a1d2f3",
            "0xc4c453d647953c0fd35db5a34ee76e60fb4abc3a8fb891a25936b70b38f29253",
            "0x00000000000000000000000045e9deabb4fdd048ae38fce9d9e8d68ec6f592a2"
          ],
          "data": "0x",
          "blockHash": "0xfe51c8e42be14be1afe92929a0ae5d25c16320c4be9bbcf841610f7191a4e2cd",
          "blockNumber": "0xe14baa",
          "transactionHash": "0xb651115f46e288994a0c077774b6cc4a6384a44a88a50da24624916dccc3ab74",
          "transactionIndex": "0x8",
          "logIndex": "0x7",
          "removed": false
        }
      ],
      "status": "0x1",
      "logsBloom": "0x00000000000000000000000000000000000000000000000000000000000000000000000000000000000000000000000000000000000000000000000000000000000000000000000040400000000000000000000020000000000000000000000000000000000000000000000010000000000020000000800000000000000000000000000000000000000000000000000000000000000000000000000000000000000000000000000040000000000000000001000000000000000000000000000000000000000000000000000000004000000000000000000000000000000000000000044000000000000000000000000000000000000000000000000000000000",
      "type": "0x2",
      "effectiveGasPrice": "0xb659b668"
    },
    {
      "transactionHash": "0x9f3dc468ef9c4806d0c5b1c0fd5e823879418fafa53f06bfb821bced4b1a002f",
      "transactionIndex": "0x9",
      "blockHash": "0xfe51c8e42be14be1afe92929a0ae5d25c16320c4be9bbcf841610f7191a4e2cd",
      "blockNumber": "0xe14baa",
      "from": "0x660ad4B5A74130a4796B4d54BC6750Ae93C86e6c",
      "to": "0xBE32c7765E5432fEbd86043876D5a9c73b1b2Ac2",
      "cumulativeGasUsed": "0x5c19e",
      "gasUsed": "0x670a",
      "contractAddress": null,
      "logs": [
        {
          "address": "0xBE32c7765E5432fEbd86043876D5a9c73b1b2Ac2",
          "topics": [
            "0x155aaafb6329a2098580462df33ec4b7441b19729b9601c5fc17ae1cf99a8a52",
            "0xc4c453d647953c0fd35db5a34ee76e60fb4abc3a8fb891a25936b70b38f29253",
            "0x000000000000000000000000660ad4b5a74130a4796b4d54bc6750ae93c86e6c"
          ],
          "data": "0x",
          "blockHash": "0xfe51c8e42be14be1afe92929a0ae5d25c16320c4be9bbcf841610f7191a4e2cd",
          "blockNumber": "0xe14baa",
          "transactionHash": "0x9f3dc468ef9c4806d0c5b1c0fd5e823879418fafa53f06bfb821bced4b1a002f",
          "transactionIndex": "0x9",
          "logIndex": "0x8",
          "removed": false
        }
      ],
      "status": "0x1",
      "logsBloom": "0x00000000000000000000000000000000000000000000000000000000000000000040000000000000000000000000000000000020000000000000000000000000000000000000000000000000000000000002000020000000000001000000080000000000000000000000000010000000000000000000000000000000000000000000000000000000000000000040000000000000000000000100000000000000000000000000000000000000000000000000000000000000000000000000000000000000000000000100000000004000000040000000000000000000000000000000000000000000000000000000000000000000000000000000000000000000",
      "type": "0x2",
      "effectiveGasPrice": "0xb659b668"
    },
    {
      "transactionHash": "0x1f7686f20f86bcbcbe773b61523d445338ddb36a171ed353277560e3f1cb3835",
      "transactionIndex": "0xa",
      "blockHash": "0xfe51c8e42be14be1afe92929a0ae5d25c16320c4be9bbcf841610f7191a4e2cd",
      "blockNumber": "0xe14baa",
      "from": "0x660ad4B5A74130a4796B4d54BC6750Ae93C86e6c",
      "to": "0xBE32c7765E5432fEbd86043876D5a9c73b1b2Ac2",
      "cumulativeGasUsed": "0x67e3b",
      "gasUsed": "0xbc9d",
      "contractAddress": null,
      "logs": [
        {
          "address": "0xBE32c7765E5432fEbd86043876D5a9c73b1b2Ac2",
          "topics": [
            "0x2ae6a113c0ed5b78a53413ffbb7679881f11145ccfba4fb92e863dfcd5a1d2f3",
            "0xc4c453d647953c0fd35db5a34ee76e60fb4abc3a8fb891a25936b70b38f29253",
            "0x00000000000000000000000045e9deabb4fdd048ae38fce9d9e8d68ec6f592a2"
          ],
          "data": "0x",
          "blockHash": "0xfe51c8e42be14be1afe92929a0ae5d25c16320c4be9bbcf841610f7191a4e2cd",
          "blockNumber": "0xe14baa",
          "transactionHash": "0x1f7686f20f86bcbcbe773b61523d445338ddb36a171ed353277560e3f1cb3835",
          "transactionIndex": "0xa",
          "logIndex": "0x9",
          "removed": false
        }
      ],
      "status": "0x1",
      "logsBloom": "0x00000000000000000000000000000000000000000000000000000000000000000000000000000000000000000000000000000000000000000000000000000000000000000000000040400000000000000002000020000000000000000000000000000000000000000000000010000000000000000000800000000000000000000000000000000000000000000000000000000000000000000100000000000000000000000000000040000000000000000000000000000000000000000000000000000000000000000000000000004000000040000000000000000000000000000000044000000000000000000000000000000000000000000000000000000000",
      "type": "0x2",
      "effectiveGasPrice": "0xb659b668"
    },
    {
      "transactionHash": "0x09f74a7825824167cdca5891edf00a24e42310dd5bf230300bc00bf00ce1c46c",
      "transactionIndex": "0xb",
      "blockHash": "0xfe51c8e42be14be1afe92929a0ae5d25c16320c4be9bbcf841610f7191a4e2cd",
      "blockNumber": "0xe14baa",
      "from": "0x660ad4B5A74130a4796B4d54BC6750Ae93C86e6c",
      "to": "0xca27c3F42092dbC211296651470EF3771B8d4509",
      "cumulativeGasUsed": "0x6e52e",
      "gasUsed": "0x66f3",
      "contractAddress": null,
      "logs": [
        {
          "address": "0xca27c3F42092dbC211296651470EF3771B8d4509",
          "topics": [
            "0x155aaafb6329a2098580462df33ec4b7441b19729b9601c5fc17ae1cf99a8a52",
            "0xc4c453d647953c0fd35db5a34ee76e60fb4abc3a8fb891a25936b70b38f29253",
            "0x000000000000000000000000660ad4b5a74130a4796b4d54bc6750ae93c86e6c"
          ],
          "data": "0x",
          "blockHash": "0xfe51c8e42be14be1afe92929a0ae5d25c16320c4be9bbcf841610f7191a4e2cd",
          "blockNumber": "0xe14baa",
          "transactionHash": "0x09f74a7825824167cdca5891edf00a24e42310dd5bf230300bc00bf00ce1c46c",
          "transactionIndex": "0xb",
          "logIndex": "0xa",
          "removed": false
        }
      ],
      "status": "0x1",
      "logsBloom": "0x00000000000000000000000000000000000000000000000000000000000000000040000000000000000000000400000000000020000000000000000000000000000000000000000000000000000000000000000020000000000001000000080000000000000000000000000010000000000000000000000000000000000000000000000000000000000000002040000000000000000000000000000000000000000000000000000000000000100000000000000000000000000000000000000000000000000000000100000000004000000000000000000000000000000000000000000000000000000000000000000000000000000000000000000000000000",
      "type": "0x2",
      "effectiveGasPrice": "0xb659b668"
    },
    {
      "transactionHash": "0x18f0fc633c54fc2f174b37c76a2ee5a8a16ed19d5bf3abe3a738624a9c03e2c6",
      "transactionIndex": "0xc",
      "blockHash": "0xfe51c8e42be14be1afe92929a0ae5d25c16320c4be9bbcf841610f7191a4e2cd",
      "blockNumber": "0xe14baa",
      "from": "0x660ad4B5A74130a4796B4d54BC6750Ae93C86e6c",
      "to": "0xca27c3F42092dbC211296651470EF3771B8d4509",
      "cumulativeGasUsed": "0x7a1cb",
      "gasUsed": "0xbc9d",
      "contractAddress": null,
      "logs": [
        {
          "address": "0xca27c3F42092dbC211296651470EF3771B8d4509",
          "topics": [
            "0x2ae6a113c0ed5b78a53413ffbb7679881f11145ccfba4fb92e863dfcd5a1d2f3",
            "0xc4c453d647953c0fd35db5a34ee76e60fb4abc3a8fb891a25936b70b38f29253",
            "0x00000000000000000000000045e9deabb4fdd048ae38fce9d9e8d68ec6f592a2"
          ],
          "data": "0x",
          "blockHash": "0xfe51c8e42be14be1afe92929a0ae5d25c16320c4be9bbcf841610f7191a4e2cd",
          "blockNumber": "0xe14baa",
          "transactionHash": "0x18f0fc633c54fc2f174b37c76a2ee5a8a16ed19d5bf3abe3a738624a9c03e2c6",
          "transactionIndex": "0xc",
          "logIndex": "0xb",
          "removed": false
        }
      ],
      "status": "0x1",
      "logsBloom": "0x00000000000000000000000000000000000000000000000000000000000000000000000000000000000000000400000000000000000000000000000000000000000000000000000040400000000000000000000020000000000000000000000000000000000000000000000010000000000000000000800000000000000000000000000000000000000000002000000000000000000000000000000000000000000000000000000040000000100000000000000000000000000000000000000000000000000000000000000000004000000000000000000000000000000000000000044000000000000000000000000000000000000000000000000000000000",
      "type": "0x2",
      "effectiveGasPrice": "0xb659b668"
    },
    {
      "transactionHash": "0x13dc32354fc2cf69844a28218e3238b80af297abb4386ec07fd9f6346a2dab02",
      "transactionIndex": "0xd",
      "blockHash": "0xfe51c8e42be14be1afe92929a0ae5d25c16320c4be9bbcf841610f7191a4e2cd",
      "blockNumber": "0xe14baa",
      "from": "0x660ad4B5A74130a4796B4d54BC6750Ae93C86e6c",
      "to": "0xfDF267c43c0C868046c66695c1a85c973418CBFb",
      "cumulativeGasUsed": "0x808eb",
      "gasUsed": "0x6720",
      "contractAddress": null,
      "logs": [
        {
          "address": "0xfDF267c43c0C868046c66695c1a85c973418CBFb",
          "topics": [
            "0x155aaafb6329a2098580462df33ec4b7441b19729b9601c5fc17ae1cf99a8a52",
            "0xc4c453d647953c0fd35db5a34ee76e60fb4abc3a8fb891a25936b70b38f29253",
            "0x000000000000000000000000660ad4b5a74130a4796b4d54bc6750ae93c86e6c"
          ],
          "data": "0x",
          "blockHash": "0xfe51c8e42be14be1afe92929a0ae5d25c16320c4be9bbcf841610f7191a4e2cd",
          "blockNumber": "0xe14baa",
          "transactionHash": "0x13dc32354fc2cf69844a28218e3238b80af297abb4386ec07fd9f6346a2dab02",
          "transactionIndex": "0xd",
          "logIndex": "0xc",
          "removed": false
        }
      ],
      "status": "0x1",
      "logsBloom": "0x00000000000000000000000000000000000000000000000000000000000000000040000000000000000000000000000000000020000000000000000000000000000000000000000000000000000000000000000020000000000001000000080000000000000000000000000010000000000000000000000000000000000000000000000000000000000000000040000000000000000000000000000000000000000000000000000000000000000000000000000000000000000000000000000000000000000000000100000000004000000080000000000000000000000000000000000000000000000000000800000000001000000000000000000000000000",
      "type": "0x2",
      "effectiveGasPrice": "0xb659b668"
    },
    {
      "transactionHash": "0x6618ab5deab9ad6cb3937d394fe8f0d3a799d0eb0da9b34dc5a25dad03750ee0",
      "transactionIndex": "0xe",
      "blockHash": "0xfe51c8e42be14be1afe92929a0ae5d25c16320c4be9bbcf841610f7191a4e2cd",
      "blockNumber": "0xe14baa",
      "from": "0x660ad4B5A74130a4796B4d54BC6750Ae93C86e6c",
      "to": "0xfDF267c43c0C868046c66695c1a85c973418CBFb",
      "cumulativeGasUsed": "0x8c572",
      "gasUsed": "0xbc87",
      "contractAddress": null,
      "logs": [
        {
          "address": "0xfDF267c43c0C868046c66695c1a85c973418CBFb",
          "topics": [
            "0x2ae6a113c0ed5b78a53413ffbb7679881f11145ccfba4fb92e863dfcd5a1d2f3",
            "0xc4c453d647953c0fd35db5a34ee76e60fb4abc3a8fb891a25936b70b38f29253",
            "0x00000000000000000000000045e9deabb4fdd048ae38fce9d9e8d68ec6f592a2"
          ],
          "data": "0x",
          "blockHash": "0xfe51c8e42be14be1afe92929a0ae5d25c16320c4be9bbcf841610f7191a4e2cd",
          "blockNumber": "0xe14baa",
          "transactionHash": "0x6618ab5deab9ad6cb3937d394fe8f0d3a799d0eb0da9b34dc5a25dad03750ee0",
          "transactionIndex": "0xe",
          "logIndex": "0xd",
          "removed": false
        }
      ],
      "status": "0x1",
      "logsBloom": "0x00000000000000000000000000000000000000000000000000000000000000000000000000000000000000000000000000000000000000000000000000000000000000000000000040400000000000000000000020000000000000000000000000000000000000000000000010000000000000000000800000000000000000000000000000000000000000000000000000000000000000000000000000000000000000000000000040000000000000000000000000000000000000000000000000000000000000000000000000004000000080000000000000000000000000000000044000000000000000000800000000001000000000000000000000000000",
      "type": "0x2",
      "effectiveGasPrice": "0xb659b668"
    },
    {
      "transactionHash": "0x62603c88d8979d8b33c7003aa313f744be921b4de66a18547df9be757c9d6bcf",
      "transactionIndex": "0xf",
      "blockHash": "0xfe51c8e42be14be1afe92929a0ae5d25c16320c4be9bbcf841610f7191a4e2cd",
      "blockNumber": "0xe14baa",
      "from": "0x660ad4B5A74130a4796B4d54BC6750Ae93C86e6c",
      "to": "0x13E2705B19c36aa274a552D6d9FFe5fFfd2e6804",
      "cumulativeGasUsed": "0x92c7c",
      "gasUsed": "0x670a",
      "contractAddress": null,
      "logs": [
        {
          "address": "0x13E2705B19c36aa274a552D6d9FFe5fFfd2e6804",
          "topics": [
            "0x155aaafb6329a2098580462df33ec4b7441b19729b9601c5fc17ae1cf99a8a52",
            "0xc4c453d647953c0fd35db5a34ee76e60fb4abc3a8fb891a25936b70b38f29253",
            "0x000000000000000000000000660ad4b5a74130a4796b4d54bc6750ae93c86e6c"
          ],
          "data": "0x",
          "blockHash": "0xfe51c8e42be14be1afe92929a0ae5d25c16320c4be9bbcf841610f7191a4e2cd",
          "blockNumber": "0xe14baa",
          "transactionHash": "0x62603c88d8979d8b33c7003aa313f744be921b4de66a18547df9be757c9d6bcf",
          "transactionIndex": "0xf",
          "logIndex": "0xe",
          "removed": false
        }
      ],
      "status": "0x1",
      "logsBloom": "0x00000000000000000000000000000000000000000000000000000000000000000040000000000000000000000000000000000020000000000000000008000000000000000000000000100000000000000000000020000000000001000000080000000000000000000000000010000000000000000000000000000000000000000000000000000000000000000040000000000000000000000000000000000000000000000000000000000000000000000000000000000000000000000000000000000000000000000100000000004000000000400000000000000000000000000000000000000000000000000000000000000000000000000000000000000000",
      "type": "0x2",
      "effectiveGasPrice": "0xb659b668"
    },
    {
      "transactionHash": "0x25f4f2836a824a7e8dca67a1f595875139bc0f3cf02591f26b1a611ea229dfbd",
      "transactionIndex": "0x10",
      "blockHash": "0xfe51c8e42be14be1afe92929a0ae5d25c16320c4be9bbcf841610f7191a4e2cd",
      "blockNumber": "0xe14baa",
      "from": "0x660ad4B5A74130a4796B4d54BC6750Ae93C86e6c",
      "to": "0x13E2705B19c36aa274a552D6d9FFe5fFfd2e6804",
      "cumulativeGasUsed": "0x9e919",
      "gasUsed": "0xbc9d",
      "contractAddress": null,
      "logs": [
        {
          "address": "0x13E2705B19c36aa274a552D6d9FFe5fFfd2e6804",
          "topics": [
            "0x2ae6a113c0ed5b78a53413ffbb7679881f11145ccfba4fb92e863dfcd5a1d2f3",
            "0xc4c453d647953c0fd35db5a34ee76e60fb4abc3a8fb891a25936b70b38f29253",
            "0x00000000000000000000000045e9deabb4fdd048ae38fce9d9e8d68ec6f592a2"
          ],
          "data": "0x",
          "blockHash": "0xfe51c8e42be14be1afe92929a0ae5d25c16320c4be9bbcf841610f7191a4e2cd",
          "blockNumber": "0xe14baa",
          "transactionHash": "0x25f4f2836a824a7e8dca67a1f595875139bc0f3cf02591f26b1a611ea229dfbd",
          "transactionIndex": "0x10",
          "logIndex": "0xf",
          "removed": false
        }
      ],
      "status": "0x1",
      "logsBloom": "0x00000000000000000000000000000000000000000000000000000000000000000000000000000000000000000000000000000000000000000000000008000000000000000000000040500000000000000000000020000000000000000000000000000000000000000000000010000000000000000000800000000000000000000000000000000000000000000000000000000000000000000000000000000000000000000000000040000000000000000000000000000000000000000000000000000000000000000000000000004000000000400000000000000000000000000000044000000000000000000000000000000000000000000000000000000000",
      "type": "0x2",
      "effectiveGasPrice": "0xb659b668"
    },
    {
      "transactionHash": "0x2f5704823beb0b45b407d4f9258740c2dbf121455879581959e9792f8efccd6d",
      "transactionIndex": "0x1",
      "blockHash": "0xc98185f9a9654ead45f3d52a7883a9dfc4333b2ded6205ad0c93f2a82bb36236",
      "blockNumber": "0xe14bab",
      "from": "0x660ad4B5A74130a4796B4d54BC6750Ae93C86e6c",
      "to": "0xeFc88792EBbd4561A1495b027590fBCC8EbE1Fac",
      "cumulativeGasUsed": "0x1123e",
      "gasUsed": "0x66f3",
      "contractAddress": null,
      "logs": [
        {
          "address": "0xeFc88792EBbd4561A1495b027590fBCC8EbE1Fac",
          "topics": [
            "0x155aaafb6329a2098580462df33ec4b7441b19729b9601c5fc17ae1cf99a8a52",
            "0xc4c453d647953c0fd35db5a34ee76e60fb4abc3a8fb891a25936b70b38f29253",
            "0x000000000000000000000000660ad4b5a74130a4796b4d54bc6750ae93c86e6c"
          ],
          "data": "0x",
          "blockHash": "0xc98185f9a9654ead45f3d52a7883a9dfc4333b2ded6205ad0c93f2a82bb36236",
          "blockNumber": "0xe14bab",
          "transactionHash": "0x2f5704823beb0b45b407d4f9258740c2dbf121455879581959e9792f8efccd6d",
          "transactionIndex": "0x1",
          "logIndex": "0x0",
          "removed": false
        }
      ],
      "status": "0x1",
      "logsBloom": "0x00000000000000000000000000000000000000000000000000000000000000000040000000000000000000000000040000000020000000000000000000000000000000000000000000000000000000000000000020000000000001000000080000000000000000000000000010000000000000000000000000000000000000000000000000000000000400000040000000000000200000000000000000000000000000000000000000000000000000000000000000000000000000000000000000000000000000000100000000004000000000000000000000000000000000000000000000000000000000000000000000000000000000000000000000000000",
      "type": "0x2",
      "effectiveGasPrice": "0xb659941c"
    },
    {
      "transactionHash": "0xb81c9128550bbc3ca579da1b2aaf4949e61479c3b7329a81d9b1137618e2cbc2",
      "transactionIndex": "0x2",
      "blockHash": "0xc98185f9a9654ead45f3d52a7883a9dfc4333b2ded6205ad0c93f2a82bb36236",
      "blockNumber": "0xe14bab",
      "from": "0x660ad4B5A74130a4796B4d54BC6750Ae93C86e6c",
      "to": "0xeFc88792EBbd4561A1495b027590fBCC8EbE1Fac",
      "cumulativeGasUsed": "0x1cedb",
      "gasUsed": "0xbc9d",
      "contractAddress": null,
      "logs": [
        {
          "address": "0xeFc88792EBbd4561A1495b027590fBCC8EbE1Fac",
          "topics": [
            "0x2ae6a113c0ed5b78a53413ffbb7679881f11145ccfba4fb92e863dfcd5a1d2f3",
            "0xc4c453d647953c0fd35db5a34ee76e60fb4abc3a8fb891a25936b70b38f29253",
            "0x00000000000000000000000045e9deabb4fdd048ae38fce9d9e8d68ec6f592a2"
          ],
          "data": "0x",
          "blockHash": "0xc98185f9a9654ead45f3d52a7883a9dfc4333b2ded6205ad0c93f2a82bb36236",
          "blockNumber": "0xe14bab",
          "transactionHash": "0xb81c9128550bbc3ca579da1b2aaf4949e61479c3b7329a81d9b1137618e2cbc2",
          "transactionIndex": "0x2",
          "logIndex": "0x1",
          "removed": false
        }
      ],
      "status": "0x1",
      "logsBloom": "0x00000000000000000000000000000000000000000000000000000000000000000000000000000000000000000000040000000000000000000000000000000000000000000000000040400000000000000000000020000000000000000000000000000000000000000000000010000000000000000000800000000000000000000000000000000000000400000000000000000000200000000000000000000000000000000000000040000000000000000000000000000000000000000000000000000000000000000000000000004000000000000000000000000000000000000000044000000000000000000000000000000000000000000000000000000000",
      "type": "0x2",
      "effectiveGasPrice": "0xb659941c"
    },
    {
      "transactionHash": "0x7bacbd5589f909603ff93f35fa2557edf19f3e68e6988811be980bfcaff6d826",
      "transactionIndex": "0x3",
      "blockHash": "0xc98185f9a9654ead45f3d52a7883a9dfc4333b2ded6205ad0c93f2a82bb36236",
      "blockNumber": "0xe14bab",
      "from": "0x660ad4B5A74130a4796B4d54BC6750Ae93C86e6c",
      "to": "0xc7744d1A93c56a6eE12CCF1F2264641F219528fE",
      "cumulativeGasUsed": "0x235fb",
      "gasUsed": "0x6720",
      "contractAddress": null,
      "logs": [
        {
          "address": "0xc7744d1A93c56a6eE12CCF1F2264641F219528fE",
          "topics": [
            "0x155aaafb6329a2098580462df33ec4b7441b19729b9601c5fc17ae1cf99a8a52",
            "0xc4c453d647953c0fd35db5a34ee76e60fb4abc3a8fb891a25936b70b38f29253",
            "0x000000000000000000000000660ad4b5a74130a4796b4d54bc6750ae93c86e6c"
          ],
          "data": "0x",
          "blockHash": "0xc98185f9a9654ead45f3d52a7883a9dfc4333b2ded6205ad0c93f2a82bb36236",
          "blockNumber": "0xe14bab",
          "transactionHash": "0x7bacbd5589f909603ff93f35fa2557edf19f3e68e6988811be980bfcaff6d826",
          "transactionIndex": "0x3",
          "logIndex": "0x2",
          "removed": false
        }
      ],
      "status": "0x1",
      "logsBloom": "0x00000000000400000800000000000000000000000000000000000000000000000040000000000000000000000000000000000020000000000002000000000000000000000000000000000000000000000000000020000000000001000000080000000000000000000000000010000000000000000000000000000000000000000000000000000000000000000040000000000000000000000000000000000000000000000000000000000000000000000000000000000000000000000000000000000000000000000100000000004000000000000000000000000000000000000000000000000000000000000000000000000000000000000000000000000000",
      "type": "0x2",
      "effectiveGasPrice": "0xb659941c"
    },
    {
      "transactionHash": "0xc6b72f814a4e6550f764e8bdd822a209f252a026c0e5eb9555625666b0eb647e",
      "transactionIndex": "0x4",
      "blockHash": "0xc98185f9a9654ead45f3d52a7883a9dfc4333b2ded6205ad0c93f2a82bb36236",
      "blockNumber": "0xe14bab",
      "from": "0x660ad4B5A74130a4796B4d54BC6750Ae93C86e6c",
      "to": "0xc7744d1A93c56a6eE12CCF1F2264641F219528fE",
      "cumulativeGasUsed": "0x2f282",
      "gasUsed": "0xbc87",
      "contractAddress": null,
      "logs": [
        {
          "address": "0xc7744d1A93c56a6eE12CCF1F2264641F219528fE",
          "topics": [
            "0x2ae6a113c0ed5b78a53413ffbb7679881f11145ccfba4fb92e863dfcd5a1d2f3",
            "0xc4c453d647953c0fd35db5a34ee76e60fb4abc3a8fb891a25936b70b38f29253",
            "0x00000000000000000000000045e9deabb4fdd048ae38fce9d9e8d68ec6f592a2"
          ],
          "data": "0x",
          "blockHash": "0xc98185f9a9654ead45f3d52a7883a9dfc4333b2ded6205ad0c93f2a82bb36236",
          "blockNumber": "0xe14bab",
          "transactionHash": "0xc6b72f814a4e6550f764e8bdd822a209f252a026c0e5eb9555625666b0eb647e",
          "transactionIndex": "0x4",
          "logIndex": "0x3",
          "removed": false
        }
      ],
      "status": "0x1",
      "logsBloom": "0x00000000000400000800000000000000000000000000000000000000000000000000000000000000000000000000000000000000000000000002000000000000000000000000000040400000000000000000000020000000000000000000000000000000000000000000000010000000000000000000800000000000000000000000000000000000000000000000000000000000000000000000000000000000000000000000000040000000000000000000000000000000000000000000000000000000000000000000000000004000000000000000000000000000000000000000044000000000000000000000000000000000000000000000000000000000",
      "type": "0x2",
      "effectiveGasPrice": "0xb659941c"
    },
    {
      "transactionHash": "0x5c50dd4868efca0bc9344575fde5ba7f0878220859bb206112c080a44dc732c6",
      "transactionIndex": "0x5",
      "blockHash": "0xc98185f9a9654ead45f3d52a7883a9dfc4333b2ded6205ad0c93f2a82bb36236",
      "blockNumber": "0xe14bab",
      "from": "0x660ad4B5A74130a4796B4d54BC6750Ae93C86e6c",
      "to": "0xb7eFF520393c146F857cEeC6f18968b127815C58",
      "cumulativeGasUsed": "0x3598c",
      "gasUsed": "0x670a",
      "contractAddress": null,
      "logs": [
        {
          "address": "0xb7eFF520393c146F857cEeC6f18968b127815C58",
          "topics": [
            "0x155aaafb6329a2098580462df33ec4b7441b19729b9601c5fc17ae1cf99a8a52",
            "0xc4c453d647953c0fd35db5a34ee76e60fb4abc3a8fb891a25936b70b38f29253",
            "0x000000000000000000000000660ad4b5a74130a4796b4d54bc6750ae93c86e6c"
          ],
          "data": "0x",
          "blockHash": "0xc98185f9a9654ead45f3d52a7883a9dfc4333b2ded6205ad0c93f2a82bb36236",
          "blockNumber": "0xe14bab",
          "transactionHash": "0x5c50dd4868efca0bc9344575fde5ba7f0878220859bb206112c080a44dc732c6",
          "transactionIndex": "0x5",
          "logIndex": "0x4",
          "removed": false
        }
      ],
      "status": "0x1",
      "logsBloom": "0x00800000000000000000000000000000008000000000000000000000000000000040000000000000000000000000000000000020000000000000000000000000000000000000000000000000000000000000400020000000000001000000080000000000000000000000000010000000000000000000000000000000000000000000000000000000000000000040000000000000000000000000000000000000000000000000000000000000000000000000000000000000000000000000000000000000000000000100000000004000000000000000000000000000000000000000000000000000000000000000000000000000000000000000000000000000",
      "type": "0x2",
      "effectiveGasPrice": "0xb659941c"
    },
    {
      "transactionHash": "0xba73a0c2ddf24d9c8fb4b3458d0f966316c7be8044a334a5e32c772880b45425",
      "transactionIndex": "0x1",
      "blockHash": "0xa99698323e89a3a051054a84487bb6e046dcdd9ebd732ee29d8a91b6a831a05b",
      "blockNumber": "0xe14bac",
      "from": "0x660ad4B5A74130a4796B4d54BC6750Ae93C86e6c",
      "to": "0xb7eFF520393c146F857cEeC6f18968b127815C58",
      "cumulativeGasUsed": "0x167e8",
      "gasUsed": "0xbc9d",
      "contractAddress": null,
      "logs": [
        {
          "address": "0xb7eFF520393c146F857cEeC6f18968b127815C58",
          "topics": [
            "0x2ae6a113c0ed5b78a53413ffbb7679881f11145ccfba4fb92e863dfcd5a1d2f3",
            "0xc4c453d647953c0fd35db5a34ee76e60fb4abc3a8fb891a25936b70b38f29253",
            "0x00000000000000000000000045e9deabb4fdd048ae38fce9d9e8d68ec6f592a2"
          ],
          "data": "0x",
          "blockHash": "0xa99698323e89a3a051054a84487bb6e046dcdd9ebd732ee29d8a91b6a831a05b",
          "blockNumber": "0xe14bac",
          "transactionHash": "0xba73a0c2ddf24d9c8fb4b3458d0f966316c7be8044a334a5e32c772880b45425",
          "transactionIndex": "0x1",
          "logIndex": "0x0",
          "removed": false
        }
      ],
      "status": "0x1",
      "logsBloom": "0x00800000000000000000000000000000008000000000000000000000000000000000000000000000000000000000000000000000000000000000000000000000000000000000000040400000000000000000400020000000000000000000000000000000000000000000000010000000000000000000800000000000000000000000000000000000000000000000000000000000000000000000000000000000000000000000000040000000000000000000000000000000000000000000000000000000000000000000000000004000000000000000000000000000000000000000044000000000000000000000000000000000000000000000000000000000",
      "type": "0x2",
      "effectiveGasPrice": "0xb65ba189"
    },
    {
      "transactionHash": "0xe35e20def99d562c40d864784177e91b3071cbc88341ccf43cb1a6a3dc81e09b",
      "transactionIndex": "0x2",
      "blockHash": "0xa99698323e89a3a051054a84487bb6e046dcdd9ebd732ee29d8a91b6a831a05b",
      "blockNumber": "0xe14bac",
      "from": "0x660ad4B5A74130a4796B4d54BC6750Ae93C86e6c",
      "to": "0x2e7ADd41b5C7eAFBbB298e4AB2EbC158C18737B5",
      "cumulativeGasUsed": "0x1cedb",
      "gasUsed": "0x66f3",
      "contractAddress": null,
      "logs": [
        {
          "address": "0x2e7ADd41b5C7eAFBbB298e4AB2EbC158C18737B5",
          "topics": [
            "0x155aaafb6329a2098580462df33ec4b7441b19729b9601c5fc17ae1cf99a8a52",
            "0xc4c453d647953c0fd35db5a34ee76e60fb4abc3a8fb891a25936b70b38f29253",
            "0x000000000000000000000000660ad4b5a74130a4796b4d54bc6750ae93c86e6c"
          ],
          "data": "0x",
          "blockHash": "0xa99698323e89a3a051054a84487bb6e046dcdd9ebd732ee29d8a91b6a831a05b",
          "blockNumber": "0xe14bac",
          "transactionHash": "0xe35e20def99d562c40d864784177e91b3071cbc88341ccf43cb1a6a3dc81e09b",
          "transactionIndex": "0x2",
          "logIndex": "0x1",
          "removed": false
        }
      ],
      "status": "0x1",
      "logsBloom": "0x00000000000000000000000000000000000000000000000000000000000000000040000000000000000000004000000000000020000000000000000000000000000000000000000000000000000000000000000020000000000001000000080000000000000000000000000010000000000000000000000000000000000000000000000000000000000000000040000000000000000000000000000000000000000000000000000000000000000000200000000000000000000000000000000000000000000000000100000000004000000000000000000000000000000000000000000000000000000000000000000000000000000020000000000000000000",
      "type": "0x2",
      "effectiveGasPrice": "0xb65ba189"
    },
    {
      "transactionHash": "0x7972668c55d2e16cda607b2160c91a14056e370162cd86f29fb51de3f2c109d1",
      "transactionIndex": "0x3",
      "blockHash": "0xa99698323e89a3a051054a84487bb6e046dcdd9ebd732ee29d8a91b6a831a05b",
      "blockNumber": "0xe14bac",
      "from": "0x660ad4B5A74130a4796B4d54BC6750Ae93C86e6c",
      "to": "0x2e7ADd41b5C7eAFBbB298e4AB2EbC158C18737B5",
      "cumulativeGasUsed": "0x28b78",
      "gasUsed": "0xbc9d",
      "contractAddress": null,
      "logs": [
        {
          "address": "0x2e7ADd41b5C7eAFBbB298e4AB2EbC158C18737B5",
          "topics": [
            "0x2ae6a113c0ed5b78a53413ffbb7679881f11145ccfba4fb92e863dfcd5a1d2f3",
            "0xc4c453d647953c0fd35db5a34ee76e60fb4abc3a8fb891a25936b70b38f29253",
            "0x00000000000000000000000045e9deabb4fdd048ae38fce9d9e8d68ec6f592a2"
          ],
          "data": "0x",
          "blockHash": "0xa99698323e89a3a051054a84487bb6e046dcdd9ebd732ee29d8a91b6a831a05b",
          "blockNumber": "0xe14bac",
          "transactionHash": "0x7972668c55d2e16cda607b2160c91a14056e370162cd86f29fb51de3f2c109d1",
          "transactionIndex": "0x3",
          "logIndex": "0x2",
          "removed": false
        }
      ],
      "status": "0x1",
      "logsBloom": "0x00000000000000000000000000000000000000000000000000000000000000000000000000000000000000004000000000000000000000000000000000000000000000000000000040400000000000000000000020000000000000000000000000000000000000000000000010000000000000000000800000000000000000000000000000000000000000000000000000000000000000000000000000000000000000000000000040000000000000200000000000000000000000000000000000000000000000000000000000004000000000000000000000000000000000000000044000000000000000000000000000000000000020000000000000000000",
      "type": "0x2",
      "effectiveGasPrice": "0xb65ba189"
    },
    {
      "transactionHash": "0x9a88eb1b62be03288d2a5340bc982b5e14bcfef847d5bbae0047be39fa55e1a4",
      "transactionIndex": "0x4",
      "blockHash": "0xa99698323e89a3a051054a84487bb6e046dcdd9ebd732ee29d8a91b6a831a05b",
      "blockNumber": "0xe14bac",
      "from": "0x660ad4B5A74130a4796B4d54BC6750Ae93C86e6c",
      "to": "0x8de880ecA6B95214C1ECd1556BF1DB4d23f212B5",
      "cumulativeGasUsed": "0x2f298",
      "gasUsed": "0x6720",
      "contractAddress": null,
      "logs": [
        {
          "address": "0x8de880ecA6B95214C1ECd1556BF1DB4d23f212B5",
          "topics": [
            "0x155aaafb6329a2098580462df33ec4b7441b19729b9601c5fc17ae1cf99a8a52",
            "0xc4c453d647953c0fd35db5a34ee76e60fb4abc3a8fb891a25936b70b38f29253",
            "0x000000000000000000000000660ad4b5a74130a4796b4d54bc6750ae93c86e6c"
          ],
          "data": "0x",
          "blockHash": "0xa99698323e89a3a051054a84487bb6e046dcdd9ebd732ee29d8a91b6a831a05b",
          "blockNumber": "0xe14bac",
          "transactionHash": "0x9a88eb1b62be03288d2a5340bc982b5e14bcfef847d5bbae0047be39fa55e1a4",
          "transactionIndex": "0x4",
          "logIndex": "0x3",
          "removed": false
        }
      ],
      "status": "0x1",
      "logsBloom": "0x00000000000000000000000000000000000000000000000000000000000000000040000000000000000000000000000000000020000000000000000000000000000000000000000000000000000000000000100020000000000001000080080000000000000000000000000010000000000000000000000000000000000000000000000000000000000000000040000000000000000000000000000000000000000000000000000000000000000000000000000004000000000000000000000000000000000000000100000000004000000000000000000000000000000000000000000000000000000000000000000000000000000000000000000000000000",
      "type": "0x2",
      "effectiveGasPrice": "0xb65ba189"
    },
    {
      "transactionHash": "0xb15ac26f0f6a14fdea34c46d894cb77143003feb20b5a7698e8e7ea92d372289",
      "transactionIndex": "0x1",
      "blockHash": "0xd765f7ef487e38f578bf59abe6bef47d78a89823b91d67ffa5d5ee62cb67608d",
      "blockNumber": "0xe14bad",
      "from": "0x660ad4B5A74130a4796B4d54BC6750Ae93C86e6c",
      "to": "0x8de880ecA6B95214C1ECd1556BF1DB4d23f212B5",
      "cumulativeGasUsed": "0x167d2",
      "gasUsed": "0xbc87",
      "contractAddress": null,
      "logs": [
        {
          "address": "0x8de880ecA6B95214C1ECd1556BF1DB4d23f212B5",
          "topics": [
            "0x2ae6a113c0ed5b78a53413ffbb7679881f11145ccfba4fb92e863dfcd5a1d2f3",
            "0xc4c453d647953c0fd35db5a34ee76e60fb4abc3a8fb891a25936b70b38f29253",
            "0x00000000000000000000000045e9deabb4fdd048ae38fce9d9e8d68ec6f592a2"
          ],
          "data": "0x",
          "blockHash": "0xd765f7ef487e38f578bf59abe6bef47d78a89823b91d67ffa5d5ee62cb67608d",
          "blockNumber": "0xe14bad",
          "transactionHash": "0xb15ac26f0f6a14fdea34c46d894cb77143003feb20b5a7698e8e7ea92d372289",
          "transactionIndex": "0x1",
          "logIndex": "0x0",
          "removed": false
        }
      ],
      "status": "0x1",
      "logsBloom": "0x00000000000000000000000000000000000000000000000000000000000000000000000000000000000000000000000000000000000000000000000000000000000000000000000040400000000000000000100020000000000000000080000000000000000000000000000010000000000000000000800000000000000000000000000000000000000000000000000000000000000000000000000000000000000000000000000040000000000000000000000004000000000000000000000000000000000000000000000000004000000000000000000000000000000000000000044000000000000000000000000000000000000000000000000000000000",
      "type": "0x2",
      "effectiveGasPrice": "0xb65b3e02"
    },
    {
      "transactionHash": "0x11e87e5b6362ae80fd723740c3c0bd07e1b9d4f05e01a7bdba2327df18b0c3bc",
      "transactionIndex": "0x2",
      "blockHash": "0xd765f7ef487e38f578bf59abe6bef47d78a89823b91d67ffa5d5ee62cb67608d",
      "blockNumber": "0xe14bad",
      "from": "0x660ad4B5A74130a4796B4d54BC6750Ae93C86e6c",
      "to": "0x7024e1F50e2104f488372894Bbacef1Dfa7bFb98",
      "cumulativeGasUsed": "0x1cedc",
      "gasUsed": "0x670a",
      "contractAddress": null,
      "logs": [
        {
          "address": "0x7024e1F50e2104f488372894Bbacef1Dfa7bFb98",
          "topics": [
            "0x155aaafb6329a2098580462df33ec4b7441b19729b9601c5fc17ae1cf99a8a52",
            "0xc4c453d647953c0fd35db5a34ee76e60fb4abc3a8fb891a25936b70b38f29253",
            "0x000000000000000000000000660ad4b5a74130a4796b4d54bc6750ae93c86e6c"
          ],
          "data": "0x",
          "blockHash": "0xd765f7ef487e38f578bf59abe6bef47d78a89823b91d67ffa5d5ee62cb67608d",
          "blockNumber": "0xe14bad",
          "transactionHash": "0x11e87e5b6362ae80fd723740c3c0bd07e1b9d4f05e01a7bdba2327df18b0c3bc",
          "transactionIndex": "0x2",
          "logIndex": "0x1",
          "removed": false
        }
      ],
      "status": "0x1",
      "logsBloom": "0x00000000000000000000000000000000000000000000000000000000000000000040000000000000000000000000000000000020000000004000000000000000000000010000000000000000000000000000000020000000000001000000080000000000000000000000000010000000000000000000000000000000000000000000000000000000000000000040000000000000000000000000000000000008000000000000000000000000000000000000000000000000000000000000000000000000000000000100000000004000000000000000000000000000000000000000000000000000000000000000000000000000000000000000000000000000",
      "type": "0x2",
      "effectiveGasPrice": "0xb65b3e02"
    },
    {
      "transactionHash": "0xb449080e660af2690c3a368a05f39a6c29b1e19eff5d538edf2952cbe86427de",
      "transactionIndex": "0x3",
      "blockHash": "0xd765f7ef487e38f578bf59abe6bef47d78a89823b91d67ffa5d5ee62cb67608d",
      "blockNumber": "0xe14bad",
      "from": "0x660ad4B5A74130a4796B4d54BC6750Ae93C86e6c",
      "to": "0x7024e1F50e2104f488372894Bbacef1Dfa7bFb98",
      "cumulativeGasUsed": "0x28b79",
      "gasUsed": "0xbc9d",
      "contractAddress": null,
      "logs": [
        {
          "address": "0x7024e1F50e2104f488372894Bbacef1Dfa7bFb98",
          "topics": [
            "0x2ae6a113c0ed5b78a53413ffbb7679881f11145ccfba4fb92e863dfcd5a1d2f3",
            "0xc4c453d647953c0fd35db5a34ee76e60fb4abc3a8fb891a25936b70b38f29253",
            "0x00000000000000000000000045e9deabb4fdd048ae38fce9d9e8d68ec6f592a2"
          ],
          "data": "0x",
          "blockHash": "0xd765f7ef487e38f578bf59abe6bef47d78a89823b91d67ffa5d5ee62cb67608d",
          "blockNumber": "0xe14bad",
          "transactionHash": "0xb449080e660af2690c3a368a05f39a6c29b1e19eff5d538edf2952cbe86427de",
          "transactionIndex": "0x3",
          "logIndex": "0x2",
          "removed": false
        }
      ],
      "status": "0x1",
      "logsBloom": "0x00000000000000000000000000000000000000000000000000000000000000000000000000000000000000000000000000000000000000004000000000000000000000010000000040400000000000000000000020000000000000000000000000000000000000000000000010000000000000000000800000000000000000000000000000000000000000000000000000000000000000000000000000000008000000000000000040000000000000000000000000000000000000000000000000000000000000000000000000004000000000000000000000000000000000000000044000000000000000000000000000000000000000000000000000000000",
      "type": "0x2",
      "effectiveGasPrice": "0xb65b3e02"
    },
    {
      "transactionHash": "0x1aa634ee01b82781d344cdd3ed3e0743cb6d628b712507387c10e762f1551401",
      "transactionIndex": "0x4",
      "blockHash": "0xd765f7ef487e38f578bf59abe6bef47d78a89823b91d67ffa5d5ee62cb67608d",
      "blockNumber": "0xe14bad",
      "from": "0x660ad4B5A74130a4796B4d54BC6750Ae93C86e6c",
      "to": "0xb34896F06049891dD5c30E063FCf7A16d3834428",
      "cumulativeGasUsed": "0x2f26c",
      "gasUsed": "0x66f3",
      "contractAddress": null,
      "logs": [
        {
          "address": "0xb34896F06049891dD5c30E063FCf7A16d3834428",
          "topics": [
            "0x155aaafb6329a2098580462df33ec4b7441b19729b9601c5fc17ae1cf99a8a52",
            "0xc4c453d647953c0fd35db5a34ee76e60fb4abc3a8fb891a25936b70b38f29253",
            "0x000000000000000000000000660ad4b5a74130a4796b4d54bc6750ae93c86e6c"
          ],
          "data": "0x",
          "blockHash": "0xd765f7ef487e38f578bf59abe6bef47d78a89823b91d67ffa5d5ee62cb67608d",
          "blockNumber": "0xe14bad",
          "transactionHash": "0x1aa634ee01b82781d344cdd3ed3e0743cb6d628b712507387c10e762f1551401",
          "transactionIndex": "0x4",
          "logIndex": "0x3",
          "removed": false
        }
      ],
      "status": "0x1",
      "logsBloom": "0x00000000000000000000000000000000000000000000000000000000000000002040000000000000000000000000000000000020000000000000000000000000000000000000000000000000000000000000000020000000000001000000080000000000000000000000000010000000000000000000000000000040000000000000008000000000000000000040000000000000000000000000000000000000000000000000000000000000000000000000000000000000000000000000000000000000000000000100000000004000000000000000000000000000000000000000000000000000000000000000000000000000000000000000000000000000",
      "type": "0x2",
      "effectiveGasPrice": "0xb65b3e02"
    },
    {
      "transactionHash": "0x86800538280ea4eb255957bd9c4f2fa8462a9e6d3471c71307970498c2d76af2",
      "transactionIndex": "0x5",
      "blockHash": "0xd765f7ef487e38f578bf59abe6bef47d78a89823b91d67ffa5d5ee62cb67608d",
      "blockNumber": "0xe14bad",
      "from": "0x660ad4B5A74130a4796B4d54BC6750Ae93C86e6c",
      "to": "0xb34896F06049891dD5c30E063FCf7A16d3834428",
      "cumulativeGasUsed": "0x3af09",
      "gasUsed": "0xbc9d",
      "contractAddress": null,
      "logs": [
        {
          "address": "0xb34896F06049891dD5c30E063FCf7A16d3834428",
          "topics": [
            "0x2ae6a113c0ed5b78a53413ffbb7679881f11145ccfba4fb92e863dfcd5a1d2f3",
            "0xc4c453d647953c0fd35db5a34ee76e60fb4abc3a8fb891a25936b70b38f29253",
            "0x00000000000000000000000045e9deabb4fdd048ae38fce9d9e8d68ec6f592a2"
          ],
          "data": "0x",
          "blockHash": "0xd765f7ef487e38f578bf59abe6bef47d78a89823b91d67ffa5d5ee62cb67608d",
          "blockNumber": "0xe14bad",
          "transactionHash": "0x86800538280ea4eb255957bd9c4f2fa8462a9e6d3471c71307970498c2d76af2",
          "transactionIndex": "0x5",
          "logIndex": "0x4",
          "removed": false
        }
      ],
      "status": "0x1",
      "logsBloom": "0x00000000000000000000000000000000000000000000000000000000000000002000000000000000000000000000000000000000000000000000000000000000000000000000000040400000000000000000000020000000000000000000000000000000000000000000000010000000000000000000800000000040000000000000008000000000000000000000000000000000000000000000000000000000000000000000000040000000000000000000000000000000000000000000000000000000000000000000000000004000000000000000000000000000000000000000044000000000000000000000000000000000000000000000000000000000",
      "type": "0x2",
      "effectiveGasPrice": "0xb65b3e02"
    },
    {
      "transactionHash": "0x18bdaef38f852de90dfdef1a9785c62e61eb6efcab4a931eec733c53c3b6de82",
      "transactionIndex": "0x6",
      "blockHash": "0xd765f7ef487e38f578bf59abe6bef47d78a89823b91d67ffa5d5ee62cb67608d",
      "blockNumber": "0xe14bad",
      "from": "0x660ad4B5A74130a4796B4d54BC6750Ae93C86e6c",
      "to": "0x9354E3822CE6BF77B2761f8922972BB767D771d8",
      "cumulativeGasUsed": "0x46762",
      "gasUsed": "0xb859",
      "contractAddress": null,
      "logs": [
        {
          "address": "0x9354E3822CE6BF77B2761f8922972BB767D771d8",
          "topics": [
            "0x906a1c6bd7e3091ea86693dd029a831c19049ce77f1dce2ce0bab1cacbabce22",
            "0x00000000000000000000000045e9deabb4fdd048ae38fce9d9e8d68ec6f592a2"
          ],
          "data": "0x",
          "blockHash": "0xd765f7ef487e38f578bf59abe6bef47d78a89823b91d67ffa5d5ee62cb67608d",
          "blockNumber": "0xe14bad",
          "transactionHash": "0x18bdaef38f852de90dfdef1a9785c62e61eb6efcab4a931eec733c53c3b6de82",
          "transactionIndex": "0x6",
          "logIndex": "0x5",
          "removed": false
        }
      ],
      "status": "0x1",
      "logsBloom": "0x00000000000000000000000000000004000000000000000000000000000000000000000000000010000000000000000000000000000000000000000000000000000000000000800040000000000000000000000000000000000000000000000000000000000000000000000000000000000000000000000000000000000000000000000000000000000000000000000000000000000000000000000000000000000000000000000040000000000000000000000000000000000000000000000000000000080000000000000000000000000000000000000400000000400000000000040000000000000000000000000000000000000000000000000000000000",
      "type": "0x2",
      "effectiveGasPrice": "0xb65b3e02"
    },
    {
      "transactionHash": "0xe124eed85e2da9a2c89d7753cd0c4d108c74b5938a6ea394aa74d9ca7e5be41b",
      "transactionIndex": "0x2",
      "blockHash": "0xe76a3d49e1177db41cb7df052efa8a274465b72697ed11765d68b7ad7eed2e8a",
      "blockNumber": "0xe14bae",
      "from": "0x660ad4B5A74130a4796B4d54BC6750Ae93C86e6c",
      "to": "0x7F7c594eE170a62d7e7615972831038Cf7d4Fc1A",
      "cumulativeGasUsed": "0x37e1f",
      "gasUsed": "0xb86f",
      "contractAddress": null,
      "logs": [
        {
          "address": "0x7F7c594eE170a62d7e7615972831038Cf7d4Fc1A",
          "topics": [
            "0x906a1c6bd7e3091ea86693dd029a831c19049ce77f1dce2ce0bab1cacbabce22",
            "0x00000000000000000000000045e9deabb4fdd048ae38fce9d9e8d68ec6f592a2"
          ],
          "data": "0x",
          "blockHash": "0xe76a3d49e1177db41cb7df052efa8a274465b72697ed11765d68b7ad7eed2e8a",
          "blockNumber": "0xe14bae",
          "transactionHash": "0xe124eed85e2da9a2c89d7753cd0c4d108c74b5938a6ea394aa74d9ca7e5be41b",
          "transactionIndex": "0x2",
          "logIndex": "0x6",
          "removed": false
        }
      ],
      "status": "0x1",
      "logsBloom": "0x00040000000000000000000000000000000000000000000000000000000000000000000000000010000000000000000000000000000000000000002000000000000000000000800040000000000000000000000000000000000000000000000000000000000000000008000000000000000000000000000000000000000000000000000000000000000000000000000000000000000000000000000000000000000000000000000040000000000000000000000000000000000000000000000000000000000000000000000000000000000000000000000400000000000000000000040000000000000000000000000000000000000000000000000000000000",
      "type": "0x2",
      "effectiveGasPrice": "0xb65c57b1"
    },
    {
      "transactionHash": "0xce819e53b29606b22b11437d47dcfefe778598975be4488e6dd86e3779f0a206",
      "transactionIndex": "0x3",
      "blockHash": "0xe76a3d49e1177db41cb7df052efa8a274465b72697ed11765d68b7ad7eed2e8a",
      "blockNumber": "0xe14bae",
      "from": "0x660ad4B5A74130a4796B4d54BC6750Ae93C86e6c",
      "to": "0xe35A32f61C6AA3110Fc72251499B89D51F221C09",
      "cumulativeGasUsed": "0x43662",
      "gasUsed": "0xb843",
      "contractAddress": null,
      "logs": [
        {
          "address": "0xe35A32f61C6AA3110Fc72251499B89D51F221C09",
          "topics": [
            "0x906a1c6bd7e3091ea86693dd029a831c19049ce77f1dce2ce0bab1cacbabce22",
            "0x00000000000000000000000045e9deabb4fdd048ae38fce9d9e8d68ec6f592a2"
          ],
          "data": "0x",
          "blockHash": "0xe76a3d49e1177db41cb7df052efa8a274465b72697ed11765d68b7ad7eed2e8a",
          "blockNumber": "0xe14bae",
          "transactionHash": "0xce819e53b29606b22b11437d47dcfefe778598975be4488e6dd86e3779f0a206",
          "transactionIndex": "0x3",
          "logIndex": "0x7",
          "removed": false
        }
      ],
      "status": "0x1",
      "logsBloom": "0x00000000000000000000000000000000000000000000000000000000000000000000000000000010000000000000000000000000000000000000000000000000000000000000800040000000000000000000000000000000000000000000000008000000000000000000000000000000000000000000000000000000000000000000000000000000000000000400000000000000000000000000000000000000000000000000000040000000000000000000000000000000000000000000000000000000000000000000000000000000000000000000000400000000001000000000040000000000000000000000000000000000000000000000000000000000",
      "type": "0x2",
      "effectiveGasPrice": "0xb65c57b1"
    },
    {
      "transactionHash": "0x75a0f2c40beebf1f24adce941c4ff4a7bce6939b1528f974570ec14a853117ff",
      "transactionIndex": "0x4",
      "blockHash": "0xe76a3d49e1177db41cb7df052efa8a274465b72697ed11765d68b7ad7eed2e8a",
      "blockNumber": "0xe14bae",
      "from": "0x660ad4B5A74130a4796B4d54BC6750Ae93C86e6c",
      "to": "0xE194f2B41A5dc6Be311aD7811eF391a0ac84687d",
      "cumulativeGasUsed": "0x4eebb",
      "gasUsed": "0xb859",
      "contractAddress": null,
      "logs": [
        {
          "address": "0xE194f2B41A5dc6Be311aD7811eF391a0ac84687d",
          "topics": [
            "0x906a1c6bd7e3091ea86693dd029a831c19049ce77f1dce2ce0bab1cacbabce22",
            "0x00000000000000000000000045e9deabb4fdd048ae38fce9d9e8d68ec6f592a2"
          ],
          "data": "0x",
          "blockHash": "0xe76a3d49e1177db41cb7df052efa8a274465b72697ed11765d68b7ad7eed2e8a",
          "blockNumber": "0xe14bae",
          "transactionHash": "0x75a0f2c40beebf1f24adce941c4ff4a7bce6939b1528f974570ec14a853117ff",
          "transactionIndex": "0x4",
          "logIndex": "0x8",
          "removed": false
        }
      ],
      "status": "0x1",
      "logsBloom": "0x00000000000000000000000000000000000000000000000000000000000000000000000000000010000000000000000000000000000000000000000000000000000000000000800040000000000000000000000000000000000000000000000000000000000000000000000000000000000020000000000000000000000000000000000000000000000000000000000000000000000000000000000000000000000000000000000040000000000000000001000000000000000000000000000000000000000000000000000000000000000000000000000400000000000000000000040000000000000000000000000000000000000000000000000000000000",
      "type": "0x2",
      "effectiveGasPrice": "0xb65c57b1"
    },
    {
      "transactionHash": "0x4444a42b5b233526553f10824be56bd1b4ff86b6d0f50702313a362b2b2eaaa3",
      "transactionIndex": "0x5",
      "blockHash": "0xe76a3d49e1177db41cb7df052efa8a274465b72697ed11765d68b7ad7eed2e8a",
      "blockNumber": "0xe14bae",
      "from": "0x660ad4B5A74130a4796B4d54BC6750Ae93C86e6c",
      "to": "0xBE32c7765E5432fEbd86043876D5a9c73b1b2Ac2",
      "cumulativeGasUsed": "0x5a72a",
      "gasUsed": "0xb86f",
      "contractAddress": null,
      "logs": [
        {
          "address": "0xBE32c7765E5432fEbd86043876D5a9c73b1b2Ac2",
          "topics": [
            "0x906a1c6bd7e3091ea86693dd029a831c19049ce77f1dce2ce0bab1cacbabce22",
            "0x00000000000000000000000045e9deabb4fdd048ae38fce9d9e8d68ec6f592a2"
          ],
          "data": "0x",
          "blockHash": "0xe76a3d49e1177db41cb7df052efa8a274465b72697ed11765d68b7ad7eed2e8a",
          "blockNumber": "0xe14bae",
          "transactionHash": "0x4444a42b5b233526553f10824be56bd1b4ff86b6d0f50702313a362b2b2eaaa3",
          "transactionIndex": "0x5",
          "logIndex": "0x9",
          "removed": false
        }
      ],
      "status": "0x1",
      "logsBloom": "0x00000000000000000000000000000000000000000000000000000000000000000000000000000010000000000000000000000000000000000000000000000000000000000000800040000000000000000002000000000000000000000000000000000000000000000000000000000000000000000000000000000000000000000000000000000000000000000000000000000000000000000100000000000000000000000000000040000000000000000000000000000000000000000000000000000000000000000000000000000000000040000000000400000000000000000000040000000000000000000000000000000000000000000000000000000000",
      "type": "0x2",
      "effectiveGasPrice": "0xb65c57b1"
    },
    {
      "transactionHash": "0x5321453a59a66d70eceb1fec38dbce45e9acb3c567efd96137cc6395f2616ad8",
      "transactionIndex": "0x6",
      "blockHash": "0xe76a3d49e1177db41cb7df052efa8a274465b72697ed11765d68b7ad7eed2e8a",
      "blockNumber": "0xe14bae",
      "from": "0x660ad4B5A74130a4796B4d54BC6750Ae93C86e6c",
      "to": "0xca27c3F42092dbC211296651470EF3771B8d4509",
      "cumulativeGasUsed": "0x65f6d",
      "gasUsed": "0xb843",
      "contractAddress": null,
      "logs": [
        {
          "address": "0xca27c3F42092dbC211296651470EF3771B8d4509",
          "topics": [
            "0x906a1c6bd7e3091ea86693dd029a831c19049ce77f1dce2ce0bab1cacbabce22",
            "0x00000000000000000000000045e9deabb4fdd048ae38fce9d9e8d68ec6f592a2"
          ],
          "data": "0x",
          "blockHash": "0xe76a3d49e1177db41cb7df052efa8a274465b72697ed11765d68b7ad7eed2e8a",
          "blockNumber": "0xe14bae",
          "transactionHash": "0x5321453a59a66d70eceb1fec38dbce45e9acb3c567efd96137cc6395f2616ad8",
          "transactionIndex": "0x6",
          "logIndex": "0xa",
          "removed": false
        }
      ],
      "status": "0x1",
      "logsBloom": "0x00000000000000000000000000000000000000000000000000000000000000000000000000000010000000000400000000000000000000000000000000000000000000000000800040000000000000000000000000000000000000000000000000000000000000000000000000000000000000000000000000000000000000000000000000000000000000002000000000000000000000000000000000000000000000000000000040000000100000000000000000000000000000000000000000000000000000000000000000000000000000000000000400000000000000000000040000000000000000000000000000000000000000000000000000000000",
      "type": "0x2",
      "effectiveGasPrice": "0xb65c57b1"
    },
    {
      "transactionHash": "0xa192423718c91af1bc7aa174ef1f670ed3197010f6638bf01da92b1122ce3034",
      "transactionIndex": "0x7",
      "blockHash": "0xe76a3d49e1177db41cb7df052efa8a274465b72697ed11765d68b7ad7eed2e8a",
      "blockNumber": "0xe14bae",
      "from": "0x660ad4B5A74130a4796B4d54BC6750Ae93C86e6c",
      "to": "0xfDF267c43c0C868046c66695c1a85c973418CBFb",
      "cumulativeGasUsed": "0x717c6",
      "gasUsed": "0xb859",
      "contractAddress": null,
      "logs": [
        {
          "address": "0xfDF267c43c0C868046c66695c1a85c973418CBFb",
          "topics": [
            "0x906a1c6bd7e3091ea86693dd029a831c19049ce77f1dce2ce0bab1cacbabce22",
            "0x00000000000000000000000045e9deabb4fdd048ae38fce9d9e8d68ec6f592a2"
          ],
          "data": "0x",
          "blockHash": "0xe76a3d49e1177db41cb7df052efa8a274465b72697ed11765d68b7ad7eed2e8a",
          "blockNumber": "0xe14bae",
          "transactionHash": "0xa192423718c91af1bc7aa174ef1f670ed3197010f6638bf01da92b1122ce3034",
          "transactionIndex": "0x7",
          "logIndex": "0xb",
          "removed": false
        }
      ],
      "status": "0x1",
      "logsBloom": "0x00000000000000000000000000000000000000000000000000000000000000000000000000000010000000000000000000000000000000000000000000000000000000000000800040000000000000000000000000000000000000000000000000000000000000000000000000000000000000000000000000000000000000000000000000000000000000000000000000000000000000000000000000000000000000000000000040000000000000000000000000000000000000000000000000000000000000000000000000000000000080000000000400000000000000000000040000000000000000000800000000001000000000000000000000000000",
      "type": "0x2",
      "effectiveGasPrice": "0xb65c57b1"
    },
    {
      "transactionHash": "0xaf52fd805457f0130608a1d1bcead891d12b7150a2bd4c8973d2b3db06906534",
      "transactionIndex": "0x8",
      "blockHash": "0xe76a3d49e1177db41cb7df052efa8a274465b72697ed11765d68b7ad7eed2e8a",
      "blockNumber": "0xe14bae",
      "from": "0x660ad4B5A74130a4796B4d54BC6750Ae93C86e6c",
      "to": "0x13E2705B19c36aa274a552D6d9FFe5fFfd2e6804",
      "cumulativeGasUsed": "0x7d035",
      "gasUsed": "0xb86f",
      "contractAddress": null,
      "logs": [
        {
          "address": "0x13E2705B19c36aa274a552D6d9FFe5fFfd2e6804",
          "topics": [
            "0x906a1c6bd7e3091ea86693dd029a831c19049ce77f1dce2ce0bab1cacbabce22",
            "0x00000000000000000000000045e9deabb4fdd048ae38fce9d9e8d68ec6f592a2"
          ],
          "data": "0x",
          "blockHash": "0xe76a3d49e1177db41cb7df052efa8a274465b72697ed11765d68b7ad7eed2e8a",
          "blockNumber": "0xe14bae",
          "transactionHash": "0xaf52fd805457f0130608a1d1bcead891d12b7150a2bd4c8973d2b3db06906534",
          "transactionIndex": "0x8",
          "logIndex": "0xc",
          "removed": false
        }
      ],
      "status": "0x1",
      "logsBloom": "0x00000000000000000000000000000000000000000000000000000000000000000000000000000010000000000000000000000000000000000000000008000000000000000000800040100000000000000000000000000000000000000000000000000000000000000000000000000000000000000000000000000000000000000000000000000000000000000000000000000000000000000000000000000000000000000000000040000000000000000000000000000000000000000000000000000000000000000000000000000000000000400000000400000000000000000000040000000000000000000000000000000000000000000000000000000000",
      "type": "0x2",
      "effectiveGasPrice": "0xb65c57b1"
    },
    {
      "transactionHash": "0xb91166299172bb2cd538d74062937383aece0d24abc2aa4ce09d1c4e8a855c2e",
      "transactionIndex": "0x9",
      "blockHash": "0xe76a3d49e1177db41cb7df052efa8a274465b72697ed11765d68b7ad7eed2e8a",
      "blockNumber": "0xe14bae",
      "from": "0x660ad4B5A74130a4796B4d54BC6750Ae93C86e6c",
      "to": "0xeFc88792EBbd4561A1495b027590fBCC8EbE1Fac",
      "cumulativeGasUsed": "0x88878",
      "gasUsed": "0xb843",
      "contractAddress": null,
      "logs": [
        {
          "address": "0xeFc88792EBbd4561A1495b027590fBCC8EbE1Fac",
          "topics": [
            "0x906a1c6bd7e3091ea86693dd029a831c19049ce77f1dce2ce0bab1cacbabce22",
            "0x00000000000000000000000045e9deabb4fdd048ae38fce9d9e8d68ec6f592a2"
          ],
          "data": "0x",
          "blockHash": "0xe76a3d49e1177db41cb7df052efa8a274465b72697ed11765d68b7ad7eed2e8a",
          "blockNumber": "0xe14bae",
          "transactionHash": "0xb91166299172bb2cd538d74062937383aece0d24abc2aa4ce09d1c4e8a855c2e",
          "transactionIndex": "0x9",
          "logIndex": "0xd",
          "removed": false
        }
      ],
      "status": "0x1",
      "logsBloom": "0x00000000000000000000000000000000000000000000000000000000000000000000000000000010000000000000040000000000000000000000000000000000000000000000800040000000000000000000000000000000000000000000000000000000000000000000000000000000000000000000000000000000000000000000000000000000000400000000000000000000200000000000000000000000000000000000000040000000000000000000000000000000000000000000000000000000000000000000000000000000000000000000000400000000000000000000040000000000000000000000000000000000000000000000000000000000",
      "type": "0x2",
      "effectiveGasPrice": "0xb65c57b1"
    },
    {
      "transactionHash": "0x12d54513e4d847f90b0897df722d96a690436a8c85e27006d155ff711449beba",
      "transactionIndex": "0x3",
      "blockHash": "0xe36f1cdb79d2f5a9277b8c6d4416ac9d341003fdffaaf1054fc87c888242da7b",
      "blockNumber": "0xe14bb0",
      "from": "0x660ad4B5A74130a4796B4d54BC6750Ae93C86e6c",
      "to": "0xc7744d1A93c56a6eE12CCF1F2264641F219528fE",
      "cumulativeGasUsed": "0x680d3",
      "gasUsed": "0xb859",
      "contractAddress": null,
      "logs": [
        {
          "address": "0xc7744d1A93c56a6eE12CCF1F2264641F219528fE",
          "topics": [
            "0x906a1c6bd7e3091ea86693dd029a831c19049ce77f1dce2ce0bab1cacbabce22",
            "0x00000000000000000000000045e9deabb4fdd048ae38fce9d9e8d68ec6f592a2"
          ],
          "data": "0x",
          "blockHash": "0xe36f1cdb79d2f5a9277b8c6d4416ac9d341003fdffaaf1054fc87c888242da7b",
          "blockNumber": "0xe14bb0",
          "transactionHash": "0x12d54513e4d847f90b0897df722d96a690436a8c85e27006d155ff711449beba",
          "transactionIndex": "0x3",
          "logIndex": "0x12",
          "removed": false
        }
      ],
      "status": "0x1",
      "logsBloom": "0x00000000000400000800000000000000000000000000000000000000000000000000000000000010000000000000000000000000000000000002000000000000000000000000800040000000000000000000000000000000000000000000000000000000000000000000000000000000000000000000000000000000000000000000000000000000000000000000000000000000000000000000000000000000000000000000000040000000000000000000000000000000000000000000000000000000000000000000000000000000000000000000000400000000000000000000040000000000000000000000000000000000000000000000000000000000",
      "type": "0x2",
      "effectiveGasPrice": "0xb6613c1e"
    },
    {
      "transactionHash": "0x0e8a4db44bfec24cb0b74104cb1c9457efc2119098c7ad55bbcb45d64b85d7c4",
      "transactionIndex": "0x4",
      "blockHash": "0xe36f1cdb79d2f5a9277b8c6d4416ac9d341003fdffaaf1054fc87c888242da7b",
      "blockNumber": "0xe14bb0",
      "from": "0x660ad4B5A74130a4796B4d54BC6750Ae93C86e6c",
      "to": "0xb7eFF520393c146F857cEeC6f18968b127815C58",
      "cumulativeGasUsed": "0x73942",
      "gasUsed": "0xb86f",
      "contractAddress": null,
      "logs": [
        {
          "address": "0xb7eFF520393c146F857cEeC6f18968b127815C58",
          "topics": [
            "0x906a1c6bd7e3091ea86693dd029a831c19049ce77f1dce2ce0bab1cacbabce22",
            "0x00000000000000000000000045e9deabb4fdd048ae38fce9d9e8d68ec6f592a2"
          ],
          "data": "0x",
          "blockHash": "0xe36f1cdb79d2f5a9277b8c6d4416ac9d341003fdffaaf1054fc87c888242da7b",
          "blockNumber": "0xe14bb0",
          "transactionHash": "0x0e8a4db44bfec24cb0b74104cb1c9457efc2119098c7ad55bbcb45d64b85d7c4",
          "transactionIndex": "0x4",
          "logIndex": "0x13",
          "removed": false
        }
      ],
      "status": "0x1",
      "logsBloom": "0x00800000000000000000000000000000008000000000000000000000000000000000000000000010000000000000000000000000000000000000000000000000000000000000800040000000000000000000400000000000000000000000000000000000000000000000000000000000000000000000000000000000000000000000000000000000000000000000000000000000000000000000000000000000000000000000000040000000000000000000000000000000000000000000000000000000000000000000000000000000000000000000000400000000000000000000040000000000000000000000000000000000000000000000000000000000",
      "type": "0x2",
      "effectiveGasPrice": "0xb6613c1e"
    },
    {
      "transactionHash": "0xb20ff6e6b6d56632627264060c14510949e1ad96f8b6e5dc8b4ef548d0250015",
      "transactionIndex": "0x5",
      "blockHash": "0xe36f1cdb79d2f5a9277b8c6d4416ac9d341003fdffaaf1054fc87c888242da7b",
      "blockNumber": "0xe14bb0",
      "from": "0x660ad4B5A74130a4796B4d54BC6750Ae93C86e6c",
      "to": "0x2e7ADd41b5C7eAFBbB298e4AB2EbC158C18737B5",
      "cumulativeGasUsed": "0x7f185",
      "gasUsed": "0xb843",
      "contractAddress": null,
      "logs": [
        {
          "address": "0x2e7ADd41b5C7eAFBbB298e4AB2EbC158C18737B5",
          "topics": [
            "0x906a1c6bd7e3091ea86693dd029a831c19049ce77f1dce2ce0bab1cacbabce22",
            "0x00000000000000000000000045e9deabb4fdd048ae38fce9d9e8d68ec6f592a2"
          ],
          "data": "0x",
          "blockHash": "0xe36f1cdb79d2f5a9277b8c6d4416ac9d341003fdffaaf1054fc87c888242da7b",
          "blockNumber": "0xe14bb0",
          "transactionHash": "0xb20ff6e6b6d56632627264060c14510949e1ad96f8b6e5dc8b4ef548d0250015",
          "transactionIndex": "0x5",
          "logIndex": "0x14",
          "removed": false
        }
      ],
      "status": "0x1",
      "logsBloom": "0x00000000000000000000000000000000000000000000000000000000000000000000000000000010000000004000000000000000000000000000000000000000000000000000800040000000000000000000000000000000000000000000000000000000000000000000000000000000000000000000000000000000000000000000000000000000000000000000000000000000000000000000000000000000000000000000000040000000000000200000000000000000000000000000000000000000000000000000000000000000000000000000000400000000000000000000040000000000000000000000000000000000000020000000000000000000",
      "type": "0x2",
      "effectiveGasPrice": "0xb6613c1e"
    },
    {
      "transactionHash": "0xc86dc6906ed931d2be5193bc3490da720afcce5e8f9c4de234532d3915d16261",
      "transactionIndex": "0x6",
      "blockHash": "0xe36f1cdb79d2f5a9277b8c6d4416ac9d341003fdffaaf1054fc87c888242da7b",
      "blockNumber": "0xe14bb0",
      "from": "0x660ad4B5A74130a4796B4d54BC6750Ae93C86e6c",
      "to": "0x8de880ecA6B95214C1ECd1556BF1DB4d23f212B5",
      "cumulativeGasUsed": "0x8a9de",
      "gasUsed": "0xb859",
      "contractAddress": null,
      "logs": [
        {
          "address": "0x8de880ecA6B95214C1ECd1556BF1DB4d23f212B5",
          "topics": [
            "0x906a1c6bd7e3091ea86693dd029a831c19049ce77f1dce2ce0bab1cacbabce22",
            "0x00000000000000000000000045e9deabb4fdd048ae38fce9d9e8d68ec6f592a2"
          ],
          "data": "0x",
          "blockHash": "0xe36f1cdb79d2f5a9277b8c6d4416ac9d341003fdffaaf1054fc87c888242da7b",
          "blockNumber": "0xe14bb0",
          "transactionHash": "0xc86dc6906ed931d2be5193bc3490da720afcce5e8f9c4de234532d3915d16261",
          "transactionIndex": "0x6",
          "logIndex": "0x15",
          "removed": false
        }
      ],
      "status": "0x1",
      "logsBloom": "0x00000000000000000000000000000000000000000000000000000000000000000000000000000010000000000000000000000000000000000000000000000000000000000000800040000000000000000000100000000000000000000080000000000000000000000000000000000000000000000000000000000000000000000000000000000000000000000000000000000000000000000000000000000000000000000000000040000000000000000000000004000000000000000000000000000000000000000000000000000000000000000000000400000000000000000000040000000000000000000000000000000000000000000000000000000000",
      "type": "0x2",
      "effectiveGasPrice": "0xb6613c1e"
    },
    {
      "transactionHash": "0x94e488c4d03a91f9f591ad38b35319e3c8ab6d8819eda02c756642490b4ef4f6",
      "transactionIndex": "0x7",
      "blockHash": "0xe36f1cdb79d2f5a9277b8c6d4416ac9d341003fdffaaf1054fc87c888242da7b",
      "blockNumber": "0xe14bb0",
      "from": "0x660ad4B5A74130a4796B4d54BC6750Ae93C86e6c",
      "to": "0x7024e1F50e2104f488372894Bbacef1Dfa7bFb98",
      "cumulativeGasUsed": "0x9624d",
      "gasUsed": "0xb86f",
      "contractAddress": null,
      "logs": [
        {
          "address": "0x7024e1F50e2104f488372894Bbacef1Dfa7bFb98",
          "topics": [
            "0x906a1c6bd7e3091ea86693dd029a831c19049ce77f1dce2ce0bab1cacbabce22",
            "0x00000000000000000000000045e9deabb4fdd048ae38fce9d9e8d68ec6f592a2"
          ],
          "data": "0x",
          "blockHash": "0xe36f1cdb79d2f5a9277b8c6d4416ac9d341003fdffaaf1054fc87c888242da7b",
          "blockNumber": "0xe14bb0",
          "transactionHash": "0x94e488c4d03a91f9f591ad38b35319e3c8ab6d8819eda02c756642490b4ef4f6",
          "transactionIndex": "0x7",
          "logIndex": "0x16",
          "removed": false
        }
      ],
      "status": "0x1",
      "logsBloom": "0x00000000000000000000000000000000000000000000000000000000000000000000000000000010000000000000000000000000000000004000000000000000000000010000800040000000000000000000000000000000000000000000000000000000000000000000000000000000000000000000000000000000000000000000000000000000000000000000000000000000000000000000000000000008000000000000000040000000000000000000000000000000000000000000000000000000000000000000000000000000000000000000000400000000000000000000040000000000000000000000000000000000000000000000000000000000",
      "type": "0x2",
      "effectiveGasPrice": "0xb6613c1e"
    },
    {
      "transactionHash": "0x8f79c2af98f43320719c5892df75c049151e267dabdc075ca6ab7559a80e6ba1",
      "transactionIndex": "0x8",
      "blockHash": "0xe36f1cdb79d2f5a9277b8c6d4416ac9d341003fdffaaf1054fc87c888242da7b",
      "blockNumber": "0xe14bb0",
      "from": "0x660ad4B5A74130a4796B4d54BC6750Ae93C86e6c",
      "to": "0xb34896F06049891dD5c30E063FCf7A16d3834428",
      "cumulativeGasUsed": "0xa1a90",
      "gasUsed": "0xb843",
      "contractAddress": null,
      "logs": [
        {
          "address": "0xb34896F06049891dD5c30E063FCf7A16d3834428",
          "topics": [
            "0x906a1c6bd7e3091ea86693dd029a831c19049ce77f1dce2ce0bab1cacbabce22",
            "0x00000000000000000000000045e9deabb4fdd048ae38fce9d9e8d68ec6f592a2"
          ],
          "data": "0x",
          "blockHash": "0xe36f1cdb79d2f5a9277b8c6d4416ac9d341003fdffaaf1054fc87c888242da7b",
          "blockNumber": "0xe14bb0",
          "transactionHash": "0x8f79c2af98f43320719c5892df75c049151e267dabdc075ca6ab7559a80e6ba1",
          "transactionIndex": "0x8",
          "logIndex": "0x17",
          "removed": false
        }
      ],
      "status": "0x1",
      "logsBloom": "0x00000000000000000000000000000000000000000000000000000000000000002000000000000010000000000000000000000000000000000000000000000000000000000000800040000000000000000000000000000000000000000000000000000000000000000000000000000000000000000000000000000040000000000000008000000000000000000000000000000000000000000000000000000000000000000000000040000000000000000000000000000000000000000000000000000000000000000000000000000000000000000000000400000000000000000000040000000000000000000000000000000000000000000000000000000000",
      "type": "0x2",
      "effectiveGasPrice": "0xb6613c1e"
    }
  ],
  "libraries": [],
  "pending": [],
  "returns": {},
  "timestamp": 1716319305,
  "chain": 8453,
  "commit": "bb07c52"
}