{
  "transactions": [
    {
      "hash": "0x8c8919c2eea29ad922321a491faa9135867697072dee9d5bb81204e1b9d88993",
      "transactionType": "CALL",
      "contractName": null,
      "contractAddress": "0x2843c269d2a64ecfa63548e8b3fc0fd23b7f70cb",
      "function": "handleOps((address,uint256,bytes,bytes,uint256,uint256,uint256,uint256,uint256,bytes,bytes)[],address)",
      "arguments": [
        "[(0x2e2B1c42E38f5af81771e65D87729E57ABD1337a, 4804, 0x, 0xb61d27f6000000000000000000000000acc000818e5bbd911d5d449aa81cb5ca240247390000000000000000000000000000000000000000000000000000000000000000000000000000000000000000000000000000000000000000000000000000006000000000000000000000000000000000000000000000000000000000000001041cff79cd000000000000000000000000acc000818e5bbd911d5d449aa81cb5ca2402473900000000000000000000000000000000000000000000000000000000000000400000000000000000000000000000000000000000000000000000000000000084853551b8000000000000000000000000000000000000000000000000273c0248976abc55000000000000000000000000000000000000000000000000000000000000004000000000000000000000000000000000000000000000000000000000000000165245434f564552595f415050524f5645525f524f4c45000000000000000000000000000000000000000000000000000000000000000000000000000000000000000000000000000000000000000000000000000000000000, 4000000, 210000, 21000, 1, 1000000000, 0x0000000000000000000000000000000000000000, 0x871e78d269832b768c850ae17b459b929e0bde44f1d5279becda1fe2ca0b5b0115e7f9e587dbbaff360888826e8b9d42df693a4c58662f318dab47d583e2e19a1cc91e754f0edabe9cb5b2014940f59cc888b645cbfc4f038beef550342287eb875dc3d0ef30d44a1d16d6c7697b59d2c120bbb92c9a08dff8a7c16237397caf801c)]",
        "0x660ad4B5A74130a4796B4d54BC6750Ae93C86e6c"
      ],
      "transaction": {
        "from": "0x660ad4b5a74130a4796b4d54bc6750ae93c86e6c",
        "to": "0x2843c269d2a64ecfa63548e8b3fc0fd23b7f70cb",
        "value": "0x0",
        "input": "0x1fad948c0000000000000000000000000000000000000000000000000000000000000040000000000000000000000000660ad4b5a74130a4796b4d54bc6750ae93c86e6c000000000000000000000000000000000000000000000000000000000000000100000000000000000000000000000000000000000000000000000000000000200000000000000000000000002e2b1c42e38f5af81771e65d87729e57abd1337a00000000000000000000000000000000000000000000000000000000000012c40000000000000000000000000000000000000000000000000000000000000160000000000000000000000000000000000000000000000000000000000000018000000000000000000000000000000000000000000000000000000000003d0900000000000000000000000000000000000000000000000000000000000003345000000000000000000000000000000000000000000000000000000000000052080000000000000000000000000000000000000000000000000000000000000001000000000000000000000000000000000000000000000000000000003b9aca00000000000000000000000000000000000000000000000000000000000000036000000000000000000000000000000000000000000000000000000000000003a0000000000000000000000000000000000000000000000000000000000000000000000000000000000000000000000000000000000000000000000000000001a4b61d27f6000000000000000000000000acc000818e5bbd911d5d449aa81cb5ca240247390000000000000000000000000000000000000000000000000000000000000000000000000000000000000000000000000000000000000000000000000000006000000000000000000000000000000000000000000000000000000000000001041cff79cd000000000000000000000000acc000818e5bbd911d5d449aa81cb5ca2402473900000000000000000000000000000000000000000000000000000000000000400000000000000000000000000000000000000000000000000000000000000084853551b8000000000000000000000000000000000000000000000000273c0248976abc55000000000000000000000000000000000000000000000000000000000000004000000000000000000000000000000000000000000000000000000000000000165245434f564552595f415050524f5645525f524f4c4500000000000000000000000000000000000000000000000000000000000000000000000000000000000000000000000000000000000000000000000000000000000000000000000000000000000000000000000000000000000000000000000000000000000000000000000000000000000000000000000000000000001400000000000000000000000000000000000000000000000000000000000000000000000000000000000000000000000000000000000000000000000000000082871e78d269832b768c850ae17b459b929e0bde44f1d5279becda1fe2ca0b5b0115e7f9e587dbbaff360888826e8b9d42df693a4c58662f318dab47d583e2e19a1cc91e754f0edabe9cb5b2014940f59cc888b645cbfc4f038beef550342287eb875dc3d0ef30d44a1d16d6c7697b59d2c120bbb92c9a08dff8a7c16237397caf801c000000000000000000000000000000000000000000000000000000000000",
        "nonce": "0x4be82",
        "chainId": "0x1ecf"
      },
      "additionalContracts": [],
      "isFixedGasLimit": false
    },
    {
      "hash": "0x78e647c059ede7b9e47f82f924241f6a11c69d47658f5581e6dcf1b6c598faf1",
      "transactionType": "CALL",
      "contractName": null,
      "contractAddress": "0x2843c269d2a64ecfa63548e8b3fc0fd23b7f70cb",
      "function": "handleOps((address,uint256,bytes,bytes,uint256,uint256,uint256,uint256,uint256,bytes,bytes)[],address)",
      "arguments": [
        "[(0x2e2B1c42E38f5af81771e65D87729E57ABD1337a, 4805, 0x, 0xb61d27f6000000000000000000000000acc000818e5bbd911d5d449aa81cb5ca240247390000000000000000000000000000000000000000000000000000000000000000000000000000000000000000000000000000000000000000000000000000006000000000000000000000000000000000000000000000000000000000000001041cff79cd000000000000000000000000acc000818e5bbd911d5d449aa81cb5ca2402473900000000000000000000000000000000000000000000000000000000000000400000000000000000000000000000000000000000000000000000000000000084853551b800000000000000000000000000000000000000000000000007d8641643fe2cba0000000000000000000000000000000000000000000000000000000000000040000000000000000000000000000000000000000000000000000000000000000f53414e4354494f4e45525f524f4c4500000000000000000000000000000000000000000000000000000000000000000000000000000000000000000000000000000000000000000000000000000000000000000000000000, 4000000, 210000, 21000, 1, 1000000000, 0x0000000000000000000000000000000000000000, 0xdc8d8e69731fc984c5690fd3b133901f852ca4cbfa56b1619b876349cfeda8043603db71474215b3e294c851e9831c152774feba4b882a0224a8d9999676d27e1b2ee9a0c6a66124b8c6c562bec8996d08b891b66fe687fba9555a41e238827c6d5d8df3f9c391a92e2b5597731ddbe35b2bfad66b5c8bb8eb1432de40bb021f811b)]",
        "0x660ad4B5A74130a4796B4d54BC6750Ae93C86e6c"
      ],
      "transaction": {
        "from": "0x660ad4b5a74130a4796b4d54bc6750ae93c86e6c",
        "to": "0x2843c269d2a64ecfa63548e8b3fc0fd23b7f70cb",
        "value": "0x0",
        "input": "0x1fad948c0000000000000000000000000000000000000000000000000000000000000040000000000000000000000000660ad4b5a74130a4796b4d54bc6750ae93c86e6c000000000000000000000000000000000000000000000000000000000000000100000000000000000000000000000000000000000000000000000000000000200000000000000000000000002e2b1c42e38f5af81771e65d87729e57abd1337a00000000000000000000000000000000000000000000000000000000000012c50000000000000000000000000000000000000000000000000000000000000160000000000000000000000000000000000000000000000000000000000000018000000000000000000000000000000000000000000000000000000000003d0900000000000000000000000000000000000000000000000000000000000003345000000000000000000000000000000000000000000000000000000000000052080000000000000000000000000000000000000000000000000000000000000001000000000000000000000000000000000000000000000000000000003b9aca00000000000000000000000000000000000000000000000000000000000000036000000000000000000000000000000000000000000000000000000000000003a0000000000000000000000000000000000000000000000000000000000000000000000000000000000000000000000000000000000000000000000000000001a4b61d27f6000000000000000000000000acc000818e5bbd911d5d449aa81cb5ca240247390000000000000000000000000000000000000000000000000000000000000000000000000000000000000000000000000000000000000000000000000000006000000000000000000000000000000000000000000000000000000000000001041cff79cd000000000000000000000000acc000818e5bbd911d5d449aa81cb5ca2402473900000000000000000000000000000000000000000000000000000000000000400000000000000000000000000000000000000000000000000000000000000084853551b800000000000000000000000000000000000000000000000007d8641643fe2cba0000000000000000000000000000000000000000000000000000000000000040000000000000000000000000000000000000000000000000000000000000000f53414e4354494f4e45525f524f4c450000000000000000000000000000000000000000000000000000000000000000000000000000000000000000000000000000000000000000000000000000000000000000000000000000000000000000000000000000000000000000000000000000000000000000000000000000000000000000000000000000000000000000000000001400000000000000000000000000000000000000000000000000000000000000000000000000000000000000000000000000000000000000000000000000000082dc8d8e69731fc984c5690fd3b133901f852ca4cbfa56b1619b876349cfeda8043603db71474215b3e294c851e9831c152774feba4b882a0224a8d9999676d27e1b2ee9a0c6a66124b8c6c562bec8996d08b891b66fe687fba9555a41e238827c6d5d8df3f9c391a92e2b5597731ddbe35b2bfad66b5c8bb8eb1432de40bb021f811b000000000000000000000000000000000000000000000000000000000000",
        "nonce": "0x4be83",
        "chainId": "0x1ecf"
      },
      "additionalContracts": [],
      "isFixedGasLimit": false
    },
    {
      "hash": "0xe81125c0cef4144133050d2bc66bf18336d70b78faeed2715dcb07aa897efd08",
      "transactionType": "CALL",
      "contractName": null,
      "contractAddress": "0x2843c269d2a64ecfa63548e8b3fc0fd23b7f70cb",
      "function": "handleOps((address,uint256,bytes,bytes,uint256,uint256,uint256,uint256,uint256,bytes,bytes)[],address)",
      "arguments": [
        "[(0x2e2B1c42E38f5af81771e65D87729E57ABD1337a, 4806, 0x, 0xb61d27f6000000000000000000000000acc000818e5bbd911d5d449aa81cb5ca240247390000000000000000000000000000000000000000000000000000000000000000000000000000000000000000000000000000000000000000000000000000006000000000000000000000000000000000000000000000000000000000000001441cff79cd000000000000000000000000acc000818e5bbd911d5d449aa81cb5ca240247390000000000000000000000000000000000000000000000000000000000000060000000000000000000000000000000000000000000000000000000000000000000000000000000000000000000000000000000000000000000000000000000a408d6122d0000000000000000000000008a4720488ca32f1223ccfe5a087e250fe3bc5d750000000000000000000000000000000000000000000000000000000000000060000000000000000000000000000000000000000000000000273c0248976abc550000000000000000000000000000000000000000000000000000000000000001456cf492000000000000000000000000000000000000000000000000000000000000000000000000000000000000000000000000000000000000000000000000000000000000000000000000000000000000000000000000, 4000000, 210000, 21000, 1, 1000000000, 0x0000000000000000000000000000000000000000, 0xdd5664b4276c3d20845a128c7bd250e02c511ecd2c3c028821ef0b4db639129212e7ebd135ae12aee26bb0906d2188693df3dc6ad6b3a7241c219fd1d68c19411c5a4f1b6e22d10a361c3bf27c4b6cec1438e5d2eeec76c381f0b31d3a62faa844470115cf31e0c9afe04326fe4a919edbb3e2a910563660dda333722e65f82b1d1c)]",
        "0x660ad4B5A74130a4796B4d54BC6750Ae93C86e6c"
      ],
      "transaction": {
        "from": "0x660ad4b5a74130a4796b4d54bc6750ae93c86e6c",
        "to": "0x2843c269d2a64ecfa63548e8b3fc0fd23b7f70cb",
        "value": "0x0",
        "input": "0x1fad948c0000000000000000000000000000000000000000000000000000000000000040000000000000000000000000660ad4b5a74130a4796b4d54bc6750ae93c86e6c000000000000000000000000000000000000000000000000000000000000000100000000000000000000000000000000000000000000000000000000000000200000000000000000000000002e2b1c42e38f5af81771e65d87729e57abd1337a00000000000000000000000000000000000000000000000000000000000012c60000000000000000000000000000000000000000000000000000000000000160000000000000000000000000000000000000000000000000000000000000018000000000000000000000000000000000000000000000000000000000003d0900000000000000000000000000000000000000000000000000000000000003345000000000000000000000000000000000000000000000000000000000000052080000000000000000000000000000000000000000000000000000000000000001000000000000000000000000000000000000000000000000000000003b9aca0000000000000000000000000000000000000000000000000000000000000003a000000000000000000000000000000000000000000000000000000000000003e0000000000000000000000000000000000000000000000000000000000000000000000000000000000000000000000000000000000000000000000000000001e4b61d27f6000000000000000000000000acc000818e5bbd911d5d449aa81cb5ca240247390000000000000000000000000000000000000000000000000000000000000000000000000000000000000000000000000000000000000000000000000000006000000000000000000000000000000000000000000000000000000000000001441cff79cd000000000000000000000000acc000818e5bbd911d5d449aa81cb5ca240247390000000000000000000000000000000000000000000000000000000000000060000000000000000000000000000000000000000000000000000000000000000000000000000000000000000000000000000000000000000000000000000000a408d6122d0000000000000000000000008a4720488ca32f1223ccfe5a087e250fe3bc5d750000000000000000000000000000000000000000000000000000000000000060000000000000000000000000000000000000000000000000273c0248976abc550000000000000000000000000000000000000000000000000000000000000001456cf49200000000000000000000000000000000000000000000000000000000000000000000000000000000000000000000000000000000000000000000000000000000000000000000000000000000000000000000000000000000000000000000000000000000000000000000000000000000000000000000000000000000000000000000000000000000000000000000001400000000000000000000000000000000000000000000000000000000000000000000000000000000000000000000000000000000000000000000000000000082dd5664b4276c3d20845a128c7bd250e02c511ecd2c3c028821ef0b4db639129212e7ebd135ae12aee26bb0906d2188693df3dc6ad6b3a7241c219fd1d68c19411c5a4f1b6e22d10a361c3bf27c4b6cec1438e5d2eeec76c381f0b31d3a62faa844470115cf31e0c9afe04326fe4a919edbb3e2a910563660dda333722e65f82b1d1c000000000000000000000000000000000000000000000000000000000000",
        "nonce": "0x4be84",
        "chainId": "0x1ecf"
      },
      "additionalContracts": [],
      "isFixedGasLimit": false
    },
    {
      "hash": "0x75e2ee6587cecea25d22ffe1f80b97749450524aa12af2bbcd18d4d208dd3f79",
      "transactionType": "CALL",
      "contractName": null,
      "contractAddress": "0x2843c269d2a64ecfa63548e8b3fc0fd23b7f70cb",
      "function": "handleOps((address,uint256,bytes,bytes,uint256,uint256,uint256,uint256,uint256,bytes,bytes)[],address)",
      "arguments": [
        "[(0x2e2B1c42E38f5af81771e65D87729E57ABD1337a, 4807, 0x, 0xb61d27f6000000000000000000000000acc000818e5bbd911d5d449aa81cb5ca240247390000000000000000000000000000000000000000000000000000000000000000000000000000000000000000000000000000000000000000000000000000006000000000000000000000000000000000000000000000000000000000000001441cff79cd000000000000000000000000acc000818e5bbd911d5d449aa81cb5ca240247390000000000000000000000000000000000000000000000000000000000000060000000000000000000000000000000000000000000000000000000000000000000000000000000000000000000000000000000000000000000000000000000a408d6122d000000000000000000000000f369f78e3a0492cc4e96a90dae0728a38498e9c7000000000000000000000000000000000000000000000000000000000000006000000000000000000000000000000000000000000000000007d8641643fe2cba0000000000000000000000000000000000000000000000000000000000000001fb0b2940000000000000000000000000000000000000000000000000000000000000000000000000000000000000000000000000000000000000000000000000000000000000000000000000000000000000000000000000, 4000000, 210000, 21000, 1, 1000000000, 0x0000000000000000000000000000000000000000, 0x13efab3e942e7a1c9d0a3bb1e41d49a95e9adc4f1f58f7ff3d29e04bb47701e94a01d5c2ebf2c50dc99e8db571e40d02434a78a86e2cb3174b1bf53b764d1c981b9c464b0746aa9ab2fe366de94a8c882cf3c26b3721e98657672250dd0f143f436f7eae4c3d92c923c38abeed19dd4b332d83abf9d8bfef607e0ee501e1bfdfb51b)]",
        "0x660ad4B5A74130a4796B4d54BC6750Ae93C86e6c"
      ],
      "transaction": {
        "from": "0x660ad4b5a74130a4796b4d54bc6750ae93c86e6c",
        "to": "0x2843c269d2a64ecfa63548e8b3fc0fd23b7f70cb",
        "value": "0x0",
        "input": "0x1fad948c0000000000000000000000000000000000000000000000000000000000000040000000000000000000000000660ad4b5a74130a4796b4d54bc6750ae93c86e6c000000000000000000000000000000000000000000000000000000000000000100000000000000000000000000000000000000000000000000000000000000200000000000000000000000002e2b1c42e38f5af81771e65d87729e57abd1337a00000000000000000000000000000000000000000000000000000000000012c70000000000000000000000000000000000000000000000000000000000000160000000000000000000000000000000000000000000000000000000000000018000000000000000000000000000000000000000000000000000000000003d0900000000000000000000000000000000000000000000000000000000000003345000000000000000000000000000000000000000000000000000000000000052080000000000000000000000000000000000000000000000000000000000000001000000000000000000000000000000000000000000000000000000003b9aca0000000000000000000000000000000000000000000000000000000000000003a000000000000000000000000000000000000000000000000000000000000003e0000000000000000000000000000000000000000000000000000000000000000000000000000000000000000000000000000000000000000000000000000001e4b61d27f6000000000000000000000000acc000818e5bbd911d5d449aa81cb5ca240247390000000000000000000000000000000000000000000000000000000000000000000000000000000000000000000000000000000000000000000000000000006000000000000000000000000000000000000000000000000000000000000001441cff79cd000000000000000000000000acc000818e5bbd911d5d449aa81cb5ca240247390000000000000000000000000000000000000000000000000000000000000060000000000000000000000000000000000000000000000000000000000000000000000000000000000000000000000000000000000000000000000000000000a408d6122d000000000000000000000000f369f78e3a0492cc4e96a90dae0728a38498e9c7000000000000000000000000000000000000000000000000000000000000006000000000000000000000000000000000000000000000000007d8641643fe2cba0000000000000000000000000000000000000000000000000000000000000001fb0b29400000000000000000000000000000000000000000000000000000000000000000000000000000000000000000000000000000000000000000000000000000000000000000000000000000000000000000000000000000000000000000000000000000000000000000000000000000000000000000000000000000000000000000000000000000000000000000000000140000000000000000000000000000000000000000000000000000000000000000000000000000000000000000000000000000000000000000000000000000008213efab3e942e7a1c9d0a3bb1e41d49a95e9adc4f1f58f7ff3d29e04bb47701e94a01d5c2ebf2c50dc99e8db571e40d02434a78a86e2cb3174b1bf53b764d1c981b9c464b0746aa9ab2fe366de94a8c882cf3c26b3721e98657672250dd0f143f436f7eae4c3d92c923c38abeed19dd4b332d83abf9d8bfef607e0ee501e1bfdfb51b000000000000000000000000000000000000000000000000000000000000",
        "nonce": "0x4be85",
        "chainId": "0x1ecf"
      },
      "additionalContracts": [],
      "isFixedGasLimit": false
    },
    {
      "hash": "0x19cc591d1dcda59edfada70464ad37862bc45c32aefef50ae2795f9a2ea028a8",
      "transactionType": "CALL",
      "contractName": null,
      "contractAddress": "0x2843c269d2a64ecfa63548e8b3fc0fd23b7f70cb",
      "function": "handleOps((address,uint256,bytes,bytes,uint256,uint256,uint256,uint256,uint256,bytes,bytes)[],address)",
      "arguments": [
        "[(0x2e2B1c42E38f5af81771e65D87729E57ABD1337a, 4808, 0x, 0xb61d27f6000000000000000000000000acc000818e5bbd911d5d449aa81cb5ca240247390000000000000000000000000000000000000000000000000000000000000000000000000000000000000000000000000000000000000000000000000000006000000000000000000000000000000000000000000000000000000000000000e41cff79cd000000000000000000000000acc000818e5bbd911d5d449aa81cb5ca240247390000000000000000000000000000000000000000000000000000000000000040000000000000000000000000000000000000000000000000000000000000006425c471a0000000000000000000000000000000000000000000000000273c0248976abc550000000000000000000000002e2b1c42e38f5af81771e65d87729e57abd1337a00000000000000000000000000000000000000000000000000000000000000000000000000000000000000000000000000000000000000000000000000000000000000000000000000000000000000000000000000000000, 4000000, 210000, 21000, 1, 1000000000, 0x0000000000000000000000000000000000000000, 0xfce3a3e07a8ac828323267409cb311d5ee60791149b5a56d728f4a8c4af8af9b6c6c03feb71f8bbe3cc5d4e24b67a9fec90ca7046aa7a576b9248d0b0ee6ea101b7a6bef8fc6324934d44737aa8712960219fed05a99f80daac08cefe487501057279a360b83a1a22ddeec54bba966ca5443b339627dca45984d004c8eaef8a7ae1b)]",
        "0x660ad4B5A74130a4796B4d54BC6750Ae93C86e6c"
      ],
      "transaction": {
        "from": "0x660ad4b5a74130a4796b4d54bc6750ae93c86e6c",
        "to": "0x2843c269d2a64ecfa63548e8b3fc0fd23b7f70cb",
        "value": "0x0",
        "input": "0x1fad948c0000000000000000000000000000000000000000000000000000000000000040000000000000000000000000660ad4b5a74130a4796b4d54bc6750ae93c86e6c000000000000000000000000000000000000000000000000000000000000000100000000000000000000000000000000000000000000000000000000000000200000000000000000000000002e2b1c42e38f5af81771e65d87729e57abd1337a00000000000000000000000000000000000000000000000000000000000012c80000000000000000000000000000000000000000000000000000000000000160000000000000000000000000000000000000000000000000000000000000018000000000000000000000000000000000000000000000000000000000003d0900000000000000000000000000000000000000000000000000000000000003345000000000000000000000000000000000000000000000000000000000000052080000000000000000000000000000000000000000000000000000000000000001000000000000000000000000000000000000000000000000000000003b9aca000000000000000000000000000000000000000000000000000000000000000340000000000000000000000000000000000000000000000000000000000000038000000000000000000000000000000000000000000000000000000000000000000000000000000000000000000000000000000000000000000000000000000184b61d27f6000000000000000000000000acc000818e5bbd911d5d449aa81cb5ca240247390000000000000000000000000000000000000000000000000000000000000000000000000000000000000000000000000000000000000000000000000000006000000000000000000000000000000000000000000000000000000000000000e41cff79cd000000000000000000000000acc000818e5bbd911d5d449aa81cb5ca240247390000000000000000000000000000000000000000000000000000000000000040000000000000000000000000000000000000000000000000000000000000006425c471a0000000000000000000000000000000000000000000000000273c0248976abc550000000000000000000000002e2b1c42e38f5af81771e65d87729e57abd1337a0000000000000000000000000000000000000000000000000000000000000000000000000000000000000000000000000000000000000000000000000000000000000000000000000000000000000000000000000000000000000000000000000000000000000000000000000000000000000000000000000000000000000000000000000000000000000000000000000000001400000000000000000000000000000000000000000000000000000000000000000000000000000000000000000000000000000000000000000000000000000082fce3a3e07a8ac828323267409cb311d5ee60791149b5a56d728f4a8c4af8af9b6c6c03feb71f8bbe3cc5d4e24b67a9fec90ca7046aa7a576b9248d0b0ee6ea101b7a6bef8fc6324934d44737aa8712960219fed05a99f80daac08cefe487501057279a360b83a1a22ddeec54bba966ca5443b339627dca45984d004c8eaef8a7ae1b000000000000000000000000000000000000000000000000000000000000",
        "nonce": "0x4be86",
        "chainId": "0x1ecf"
      },
      "additionalContracts": [],
      "isFixedGasLimit": false
    },
    {
      "hash": "0xb0faa7a58185f270b61c3e8bed331b8678c28f9cc12389e55fa7fae2db4bae3b",
      "transactionType": "CALL",
      "contractName": null,
      "contractAddress": "0x2843c269d2a64ecfa63548e8b3fc0fd23b7f70cb",
      "function": "handleOps((address,uint256,bytes,bytes,uint256,uint256,uint256,uint256,uint256,bytes,bytes)[],address)",
      "arguments": [
        "[(0x2e2B1c42E38f5af81771e65D87729E57ABD1337a, 4809, 0x, 0xb61d27f6000000000000000000000000acc000818e5bbd911d5d449aa81cb5ca240247390000000000000000000000000000000000000000000000000000000000000000000000000000000000000000000000000000000000000000000000000000006000000000000000000000000000000000000000000000000000000000000000e41cff79cd000000000000000000000000acc000818e5bbd911d5d449aa81cb5ca240247390000000000000000000000000000000000000000000000000000000000000040000000000000000000000000000000000000000000000000000000000000006425c471a000000000000000000000000000000000000000000000000007d8641643fe2cba00000000000000000000000028fc10e12a78f986c78f973fc70ed88072b34c8e00000000000000000000000000000000000000000000000000000000000000000000000000000000000000000000000000000000000000000000000000000000000000000000000000000000000000000000000000000000, 4000000, 210000, 21000, 1, 1000000000, 0x0000000000000000000000000000000000000000, 0x477a3e13e7567bbae891d080fd6a164c03926f471273dad5c86de081c7bc76680cdc7d8345116c846d7c5a443bd588c5eb25250f8b0edc644992fba03288b92b1b3f445c62fb99a9ad40d73ac844d03a2ca32beb741ea1970b6ac1d013fac35b042cb2e4b777922bfa22e4de822f1053d59073056fd67e08c146c7fff4691dfa851b)]",
        "0x660ad4B5A74130a4796B4d54BC6750Ae93C86e6c"
      ],
      "transaction": {
        "from": "0x660ad4b5a74130a4796b4d54bc6750ae93c86e6c",
        "to": "0x2843c269d2a64ecfa63548e8b3fc0fd23b7f70cb",
        "value": "0x0",
        "input": "0x1fad948c0000000000000000000000000000000000000000000000000000000000000040000000000000000000000000660ad4b5a74130a4796b4d54bc6750ae93c86e6c000000000000000000000000000000000000000000000000000000000000000100000000000000000000000000000000000000000000000000000000000000200000000000000000000000002e2b1c42e38f5af81771e65d87729e57abd1337a00000000000000000000000000000000000000000000000000000000000012c90000000000000000000000000000000000000000000000000000000000000160000000000000000000000000000000000000000000000000000000000000018000000000000000000000000000000000000000000000000000000000003d0900000000000000000000000000000000000000000000000000000000000003345000000000000000000000000000000000000000000000000000000000000052080000000000000000000000000000000000000000000000000000000000000001000000000000000000000000000000000000000000000000000000003b9aca000000000000000000000000000000000000000000000000000000000000000340000000000000000000000000000000000000000000000000000000000000038000000000000000000000000000000000000000000000000000000000000000000000000000000000000000000000000000000000000000000000000000000184b61d27f6000000000000000000000000acc000818e5bbd911d5d449aa81cb5ca240247390000000000000000000000000000000000000000000000000000000000000000000000000000000000000000000000000000000000000000000000000000006000000000000000000000000000000000000000000000000000000000000000e41cff79cd000000000000000000000000acc000818e5bbd911d5d449aa81cb5ca240247390000000000000000000000000000000000000000000000000000000000000040000000000000000000000000000000000000000000000000000000000000006425c471a000000000000000000000000000000000000000000000000007d8641643fe2cba00000000000000000000000028fc10e12a78f986c78f973fc70ed88072b34c8e0000000000000000000000000000000000000000000000000000000000000000000000000000000000000000000000000000000000000000000000000000000000000000000000000000000000000000000000000000000000000000000000000000000000000000000000000000000000000000000000000000000000000000000000000000000000000000000000000000001400000000000000000000000000000000000000000000000000000000000000000000000000000000000000000000000000000000000000000000000000000082477a3e13e7567bbae891d080fd6a164c03926f471273dad5c86de081c7bc76680cdc7d8345116c846d7c5a443bd588c5eb25250f8b0edc644992fba03288b92b1b3f445c62fb99a9ad40d73ac844d03a2ca32beb741ea1970b6ac1d013fac35b042cb2e4b777922bfa22e4de822f1053d59073056fd67e08c146c7fff4691dfa851b000000000000000000000000000000000000000000000000000000000000",
        "nonce": "0x4be87",
        "chainId": "0x1ecf"
      },
      "additionalContracts": [],
      "isFixedGasLimit": false
    }
  ],
  "receipts": [
    {
      "status": "0x1",
      "cumulativeGasUsed": "0x415b7",
      "logs": [
        {
          "address": "0x2843c269d2a64ecfa63548e8b3fc0fd23b7f70cb",
          "topics": [
            "0xbb47ee3e183a558b1a2ff0874b079f3fc5478b7454eacf2bfc5af2ff5878f972"
          ],
          "data": "0x",
          "blockHash": "0xedc173f3f426b2ae2951b3350bade15ed86bd24efe296ba37684f92119f0b75e",
          "blockNumber": "0xcba7c",
          "transactionHash": "0x8c8919c2eea29ad922321a491faa9135867697072dee9d5bb81204e1b9d88993",
          "transactionIndex": "0x1",
          "logIndex": "0x0",
          "removed": false
        },
        {
          "address": "0xacc000818e5bbd911d5d449aa81cb5ca24024739",
          "topics": [
            "0x76a2a46953689d4861a5d3f6ed883ad7e6af674a21f8e162707159fc9dde614d",
            "0xdd5ae826ce8969e1e28b47bfb52c2ece6c9b94f3777698c30894e55dbc6fe8a0",
            "0x0000000000000000000000000000000000000000000000000000000000000001"
          ],
          "data": "0x",
          "blockHash": "0xedc173f3f426b2ae2951b3350bade15ed86bd24efe296ba37684f92119f0b75e",
          "blockNumber": "0xcba7c",
          "transactionHash": "0x8c8919c2eea29ad922321a491faa9135867697072dee9d5bb81204e1b9d88993",
          "transactionIndex": "0x1",
          "logIndex": "0x1",
          "removed": false
        },
        {
          "address": "0xacc000818e5bbd911d5d449aa81cb5ca24024739",
          "topics": [
            "0x1256f5b5ecb89caec12db449738f2fbcd1ba5806cf38f35413f4e5c15bf6a450",
            "0x000000000000000000000000000000000000000000000000273c0248976abc55"
          ],
          "data": "0x000000000000000000000000000000000000000000000000000000000000002000000000000000000000000000000000000000000000000000000000000000165245434f564552595f415050524f5645525f524f4c4500000000000000000000",
          "blockHash": "0xedc173f3f426b2ae2951b3350bade15ed86bd24efe296ba37684f92119f0b75e",
          "blockNumber": "0xcba7c",
          "transactionHash": "0x8c8919c2eea29ad922321a491faa9135867697072dee9d5bb81204e1b9d88993",
          "transactionIndex": "0x1",
          "logIndex": "0x2",
          "removed": false
        },
        {
          "address": "0x2843c269d2a64ecfa63548e8b3fc0fd23b7f70cb",
          "topics": [
            "0x49628fd1471006c1482da88028e9ce4dbb080b815c9b0344d39e5a8e6ec1419f",
            "0xbefdb1b7002bdd8294e536771dbb853d3bfd88dcbe501310996cff0536402143",
            "0x0000000000000000000000002e2b1c42e38f5af81771e65d87729e57abd1337a",
            "0x0000000000000000000000000000000000000000000000000000000000000000"
          ],
          "data": "0x00000000000000000000000000000000000000000000000000000000000012c40000000000000000000000000000000000000000000000000000000000000001000000000000000000000000000000000000000000000000000000000008a788000000000000000000000000000000000000000000000000000000000008a788",
          "blockHash": "0xedc173f3f426b2ae2951b3350bade15ed86bd24efe296ba37684f92119f0b75e",
          "blockNumber": "0xcba7c",
          "transactionHash": "0x8c8919c2eea29ad922321a491faa9135867697072dee9d5bb81204e1b9d88993",
          "transactionIndex": "0x1",
          "logIndex": "0x3",
          "removed": false
        }
      ],
      "logsBloom": "0x00010000100008000000000000000000000000000000000000000000800000000008000000000000000000010000000000000000000000400000020000040000000000000000000000000000001000000000000000040000000000000000000800000000020000000000000000000800002000000200000000000000000200000000000000000000000002000000800000000400000000000000000000001000000400000000000000400000000000000004000000000000000002000000000000000080000000100001000000008000000000000000040000000000000060000000080000010000000000000000000000000000000000000000000400010000",
      "type": "0x2",
      "transactionHash": "0x8c8919c2eea29ad922321a491faa9135867697072dee9d5bb81204e1b9d88993",
      "transactionIndex": "0x1",
      "blockHash": "0xedc173f3f426b2ae2951b3350bade15ed86bd24efe296ba37684f92119f0b75e",
      "blockNumber": "0xcba7c",
      "gasUsed": "0x415b7",
      "effectiveGasPrice": "0x5f5e100",
      "from": "0x660ad4b5a74130a4796b4d54bc6750ae93c86e6c",
      "to": "0x2843c269d2a64ecfa63548e8b3fc0fd23b7f70cb",
      "contractAddress": null,
      "gasUsedForL1": "0x1516c",
      "l1BlockNumber": "0x1535964"
    },
    {
      "status": "0x1",
      "cumulativeGasUsed": "0x410ce",
      "logs": [
        {
          "address": "0x2843c269d2a64ecfa63548e8b3fc0fd23b7f70cb",
          "topics": [
            "0xbb47ee3e183a558b1a2ff0874b079f3fc5478b7454eacf2bfc5af2ff5878f972"
          ],
          "data": "0x",
          "blockHash": "0x0fadbcd19e891e6e4aec22a93c0e78e0615490a3268178b960171b0c5c1bf6b7",
          "blockNumber": "0xcba7d",
          "transactionHash": "0x78e647c059ede7b9e47f82f924241f6a11c69d47658f5581e6dcf1b6c598faf1",
          "transactionIndex": "0x1",
          "logIndex": "0x0",
          "removed": false
        },
        {
          "address": "0xacc000818e5bbd911d5d449aa81cb5ca24024739",
          "topics": [
            "0x76a2a46953689d4861a5d3f6ed883ad7e6af674a21f8e162707159fc9dde614d",
            "0x62d4f9252894204088abbb251d9eb3f66b47459f8151390f3152ce5d0d0b189f",
            "0x0000000000000000000000000000000000000000000000000000000000000001"
          ],
          "data": "0x",
          "blockHash": "0x0fadbcd19e891e6e4aec22a93c0e78e0615490a3268178b960171b0c5c1bf6b7",
          "blockNumber": "0xcba7d",
          "transactionHash": "0x78e647c059ede7b9e47f82f924241f6a11c69d47658f5581e6dcf1b6c598faf1",
          "transactionIndex": "0x1",
          "logIndex": "0x1",
          "removed": false
        },
        {
          "address": "0xacc000818e5bbd911d5d449aa81cb5ca24024739",
          "topics": [
            "0x1256f5b5ecb89caec12db449738f2fbcd1ba5806cf38f35413f4e5c15bf6a450",
            "0x00000000000000000000000000000000000000000000000007d8641643fe2cba"
          ],
          "data": "0x0000000000000000000000000000000000000000000000000000000000000020000000000000000000000000000000000000000000000000000000000000000f53414e4354494f4e45525f524f4c450000000000000000000000000000000000",
          "blockHash": "0x0fadbcd19e891e6e4aec22a93c0e78e0615490a3268178b960171b0c5c1bf6b7",
          "blockNumber": "0xcba7d",
          "transactionHash": "0x78e647c059ede7b9e47f82f924241f6a11c69d47658f5581e6dcf1b6c598faf1",
          "transactionIndex": "0x1",
          "logIndex": "0x2",
          "removed": false
        },
        {
          "address": "0x2843c269d2a64ecfa63548e8b3fc0fd23b7f70cb",
          "topics": [
            "0x49628fd1471006c1482da88028e9ce4dbb080b815c9b0344d39e5a8e6ec1419f",
            "0x42d17aca7f7fe0c174b917b60e4795e9c2abaa0b7939b6eebe770f5daa106530",
            "0x0000000000000000000000002e2b1c42e38f5af81771e65d87729e57abd1337a",
            "0x0000000000000000000000000000000000000000000000000000000000000000"
          ],
          "data": "0x00000000000000000000000000000000000000000000000000000000000012c50000000000000000000000000000000000000000000000000000000000000001000000000000000000000000000000000000000000000000000000000008a788000000000000000000000000000000000000000000000000000000000008a788",
          "blockHash": "0x0fadbcd19e891e6e4aec22a93c0e78e0615490a3268178b960171b0c5c1bf6b7",
          "blockNumber": "0xcba7d",
          "transactionHash": "0x78e647c059ede7b9e47f82f924241f6a11c69d47658f5581e6dcf1b6c598faf1",
          "transactionIndex": "0x1",
          "logIndex": "0x3",
          "removed": false
        }
      ],
      "logsBloom": "0x00090000100008000000000000000000000000000000000000000000000001000008000200000000000000010000000000010000000000000000020000040000000000000000000000000000000000000000000000040000000000000080000800000000020000000000000000000800002000000000000000000000000000000000000000000000000002000000800000020000000000000000000000001000000400000000000000400000000000000004000000000000400002000000000000000000000000100001000004008000000000000000000000000000100060000000080000010000000000000000000000000000000000000000000400000000",
      "type": "0x2",
      "transactionHash": "0x78e647c059ede7b9e47f82f924241f6a11c69d47658f5581e6dcf1b6c598faf1",
      "transactionIndex": "0x1",
      "blockHash": "0x0fadbcd19e891e6e4aec22a93c0e78e0615490a3268178b960171b0c5c1bf6b7",
      "blockNumber": "0xcba7d",
      "gasUsed": "0x410ce",
      "effectiveGasPrice": "0x5f5e100",
      "from": "0x660ad4b5a74130a4796b4d54bc6750ae93c86e6c",
      "to": "0x2843c269d2a64ecfa63548e8b3fc0fd23b7f70cb",
      "contractAddress": null,
      "gasUsedForL1": "0x14cd7",
      "l1BlockNumber": "0x1535964"
    },
    {
      "status": "0x1",
      "cumulativeGasUsed": "0x482d8",
      "logs": [
        {
          "address": "0x2843c269d2a64ecfa63548e8b3fc0fd23b7f70cb",
          "topics": [
            "0xbb47ee3e183a558b1a2ff0874b079f3fc5478b7454eacf2bfc5af2ff5878f972"
          ],
          "data": "0x",
          "blockHash": "0x817cc42e781ebfc0100ea85221d9f1a60e12bd36c3859b6d6f5b7e7832757e0d",
          "blockNumber": "0xcba7e",
          "transactionHash": "0xe81125c0cef4144133050d2bc66bf18336d70b78faeed2715dcb07aa897efd08",
          "transactionIndex": "0x1",
          "logIndex": "0x0",
          "removed": false
        },
        {
          "address": "0xacc000818e5bbd911d5d449aa81cb5ca24024739",
          "topics": [
            "0x76a2a46953689d4861a5d3f6ed883ad7e6af674a21f8e162707159fc9dde614d",
            "0x18198983d32863dcc0dbdc5fbaf362b9e46652dae6c457956e761db4b87b8e4e",
            "0x0000000000000000000000000000000000000000000000000000000000000001"
          ],
          "data": "0x",
          "blockHash": "0x817cc42e781ebfc0100ea85221d9f1a60e12bd36c3859b6d6f5b7e7832757e0d",
          "blockNumber": "0xcba7e",
          "transactionHash": "0xe81125c0cef4144133050d2bc66bf18336d70b78faeed2715dcb07aa897efd08",
          "transactionIndex": "0x1",
          "logIndex": "0x1",
          "removed": false
        },
        {
          "address": "0xacc000818e5bbd911d5d449aa81cb5ca24024739",
          "topics": [
            "0x9ea6790c7dadfd01c9f8b9762b3682607af2c7e79e05a9f9fdf5580dde949151",
            "0x0000000000000000000000008a4720488ca32f1223ccfe5a087e250fe3bc5d75",
            "0x000000000000000000000000000000000000000000000000273c0248976abc55"
          ],
          "data": "0x456cf49200000000000000000000000000000000000000000000000000000000",
          "blockHash": "0x817cc42e781ebfc0100ea85221d9f1a60e12bd36c3859b6d6f5b7e7832757e0d",
          "blockNumber": "0xcba7e",
          "transactionHash": "0xe81125c0cef4144133050d2bc66bf18336d70b78faeed2715dcb07aa897efd08",
          "transactionIndex": "0x1",
          "logIndex": "0x2",
          "removed": false
        },
        {
          "address": "0x2843c269d2a64ecfa63548e8b3fc0fd23b7f70cb",
          "topics": [
            "0x49628fd1471006c1482da88028e9ce4dbb080b815c9b0344d39e5a8e6ec1419f",
            "0xa3cc6f660a631cbe46613bd693f6303ead2f14a22ee770e865627326ffa9ec4a",
            "0x0000000000000000000000002e2b1c42e38f5af81771e65d87729e57abd1337a",
            "0x0000000000000000000000000000000000000000000000000000000000000000"
          ],
          "data": "0x00000000000000000000000000000000000000000000000000000000000012c6000000000000000000000000000000000000000000000000000000000000000100000000000000000000000000000000000000000000000000000000000902890000000000000000000000000000000000000000000000000000000000090289",
          "blockHash": "0x817cc42e781ebfc0100ea85221d9f1a60e12bd36c3859b6d6f5b7e7832757e0d",
          "blockNumber": "0xcba7e",
          "transactionHash": "0xe81125c0cef4144133050d2bc66bf18336d70b78faeed2715dcb07aa897efd08",
          "transactionIndex": "0x1",
          "logIndex": "0x3",
          "removed": false
        }
      ],
      "logsBloom": "0x00010004000088000000000000000000000000000000000000000000200000000008000000000010000800010000000008000000000000000000020000040000000000000000000000000000000000000000000000040000000000000000000802000000020000000000000000000800002000000000080000000000000200000000000000000000000002000000800000000400000000000000000000001004000400000000000000400000000000000000000000000000000002000000000000000080000000100001000000208000000000000000000000000000000060000000080000010000000000000000400000040000000000000000000000000000",
      "type": "0x2",
      "transactionHash": "0xe81125c0cef4144133050d2bc66bf18336d70b78faeed2715dcb07aa897efd08",
      "transactionIndex": "0x1",
      "blockHash": "0x817cc42e781ebfc0100ea85221d9f1a60e12bd36c3859b6d6f5b7e7832757e0d",
      "blockNumber": "0xcba7e",
      "gasUsed": "0x482d8",
      "effectiveGasPrice": "0x5f5e100",
      "from": "0x660ad4b5a74130a4796b4d54bc6750ae93c86e6c",
      "to": "0x2843c269d2a64ecfa63548e8b3fc0fd23b7f70cb",
      "contractAddress": null,
      "gasUsedForL1": "0x1584c",
      "l1BlockNumber": "0x1535964"
    },
    {
      "status": "0x1",
      "cumulativeGasUsed": "0x48523",
      "logs": [
        {
          "address": "0x2843c269d2a64ecfa63548e8b3fc0fd23b7f70cb",
          "topics": [
            "0xbb47ee3e183a558b1a2ff0874b079f3fc5478b7454eacf2bfc5af2ff5878f972"
          ],
          "data": "0x",
          "blockHash": "0x45af4a55a07206450392c6284466b5b787d75e931e3aa4a0a44b73e6508d2b9f",
          "blockNumber": "0xcba7f",
          "transactionHash": "0x75e2ee6587cecea25d22ffe1f80b97749450524aa12af2bbcd18d4d208dd3f79",
          "transactionIndex": "0x1",
          "logIndex": "0x0",
          "removed": false
        },
        {
          "address": "0xacc000818e5bbd911d5d449aa81cb5ca24024739",
          "topics": [
            "0x76a2a46953689d4861a5d3f6ed883ad7e6af674a21f8e162707159fc9dde614d",
            "0x1180e76c68ad305ca046e644a97adb50f9b79684c420e10fbd71a5b941badea5",
            "0x0000000000000000000000000000000000000000000000000000000000000001"
          ],
          "data": "0x",
          "blockHash": "0x45af4a55a07206450392c6284466b5b787d75e931e3aa4a0a44b73e6508d2b9f",
          "blockNumber": "0xcba7f",
          "transactionHash": "0x75e2ee6587cecea25d22ffe1f80b97749450524aa12af2bbcd18d4d208dd3f79",
          "transactionIndex": "0x1",
          "logIndex": "0x1",
          "removed": false
        },
        {
          "address": "0xacc000818e5bbd911d5d449aa81cb5ca24024739",
          "topics": [
            "0x9ea6790c7dadfd01c9f8b9762b3682607af2c7e79e05a9f9fdf5580dde949151",
            "0x000000000000000000000000f369f78e3a0492cc4e96a90dae0728a38498e9c7",
            "0x00000000000000000000000000000000000000000000000007d8641643fe2cba"
          ],
          "data": "0xfb0b294000000000000000000000000000000000000000000000000000000000",
          "blockHash": "0x45af4a55a07206450392c6284466b5b787d75e931e3aa4a0a44b73e6508d2b9f",
          "blockNumber": "0xcba7f",
          "transactionHash": "0x75e2ee6587cecea25d22ffe1f80b97749450524aa12af2bbcd18d4d208dd3f79",
          "transactionIndex": "0x1",
          "logIndex": "0x2",
          "removed": false
        },
        {
          "address": "0x2843c269d2a64ecfa63548e8b3fc0fd23b7f70cb",
          "topics": [
            "0x49628fd1471006c1482da88028e9ce4dbb080b815c9b0344d39e5a8e6ec1419f",
            "0x0b85c9df1103442754a150ea0218785ef171663e39ce62266ec751c9929f042b",
            "0x0000000000000000000000002e2b1c42e38f5af81771e65d87729e57abd1337a",
            "0x0000000000000000000000000000000000000000000000000000000000000000"
          ],
          "data": "0x00000000000000000000000000000000000000000000000000000000000012c7000000000000000000000000000000000000000000000000000000000000000100000000000000000000000000000000000000000000000000000000000902890000000000000000000000000000000000000000000000000000000000090289",
          "blockHash": "0x45af4a55a07206450392c6284466b5b787d75e931e3aa4a0a44b73e6508d2b9f",
          "blockNumber": "0xcba7f",
          "transactionHash": "0x75e2ee6587cecea25d22ffe1f80b97749450524aa12af2bbcd18d4d208dd3f79",
          "transactionIndex": "0x1",
          "logIndex": "0x3",
          "removed": false
        }
      ],
      "logsBloom": "0x00010004000088000000000000000000000000000000000100000000000000000008000200000000000000010000000000000000000000000000020000040000000000000000000000000000000000000000000000040000000000000000000800000000020000000000000000000800002000000000000000000008100000000000040000000000000002000000800000020000000000000000000000001000000400000000000000400000400000000000000000000000000002000000000000000000000000100001000004208000000000000000000000000000000060000000080000410000000000000000000000000000000000000006000000000000",
      "type": "0x2",
      "transactionHash": "0x75e2ee6587cecea25d22ffe1f80b97749450524aa12af2bbcd18d4d208dd3f79",
      "transactionIndex": "0x1",
      "blockHash": "0x45af4a55a07206450392c6284466b5b787d75e931e3aa4a0a44b73e6508d2b9f",
      "blockNumber": "0xcba7f",
      "gasUsed": "0x48523",
      "effectiveGasPrice": "0x5f5e100",
      "from": "0x660ad4b5a74130a4796b4d54bc6750ae93c86e6c",
      "to": "0x2843c269d2a64ecfa63548e8b3fc0fd23b7f70cb",
      "contractAddress": null,
      "gasUsedForL1": "0x15a97",
      "l1BlockNumber": "0x1535964"
    },
    {
      "status": "0x1",
      "cumulativeGasUsed": "0x46ba4",
      "logs": [
        {
          "address": "0x2843c269d2a64ecfa63548e8b3fc0fd23b7f70cb",
          "topics": [
            "0xbb47ee3e183a558b1a2ff0874b079f3fc5478b7454eacf2bfc5af2ff5878f972"
          ],
          "data": "0x",
          "blockHash": "0xc607de6ad3f74124c419cda416142d61950af1c1ccfd344e642c5bab21a33c2c",
          "blockNumber": "0xcba80",
          "transactionHash": "0x19cc591d1dcda59edfada70464ad37862bc45c32aefef50ae2795f9a2ea028a8",
          "transactionIndex": "0x1",
          "logIndex": "0x0",
          "removed": false
        },
        {
          "address": "0xacc000818e5bbd911d5d449aa81cb5ca24024739",
          "topics": [
            "0x76a2a46953689d4861a5d3f6ed883ad7e6af674a21f8e162707159fc9dde614d",
            "0xdc3e209a2fe4bae73e8fa0e602f61b887a4e123a18319283c3535622c64980f9",
            "0x0000000000000000000000000000000000000000000000000000000000000001"
          ],
          "data": "0x",
          "blockHash": "0xc607de6ad3f74124c419cda416142d61950af1c1ccfd344e642c5bab21a33c2c",
          "blockNumber": "0xcba80",
          "transactionHash": "0x19cc591d1dcda59edfada70464ad37862bc45c32aefef50ae2795f9a2ea028a8",
          "transactionIndex": "0x1",
          "logIndex": "0x1",
          "removed": false
        },
        {
          "address": "0xacc000818e5bbd911d5d449aa81cb5ca24024739",
          "topics": [
            "0xf98448b987f1428e0e230e1f3c6e2ce15b5693eaf31827fbd0b1ec4b424ae7cf",
            "0x000000000000000000000000000000000000000000000000273c0248976abc55",
            "0x0000000000000000000000002e2b1c42e38f5af81771e65d87729e57abd1337a"
          ],
          "data": "0x00000000000000000000000000000000000000000000000000000000000000000000000000000000000000000000000000000000000000000000000067f7eb620000000000000000000000000000000000000000000000000000000000000001",
          "blockHash": "0xc607de6ad3f74124c419cda416142d61950af1c1ccfd344e642c5bab21a33c2c",
          "blockNumber": "0xcba80",
          "transactionHash": "0x19cc591d1dcda59edfada70464ad37862bc45c32aefef50ae2795f9a2ea028a8",
          "transactionIndex": "0x1",
          "logIndex": "0x2",
          "removed": false
        },
        {
          "address": "0x2843c269d2a64ecfa63548e8b3fc0fd23b7f70cb",
          "topics": [
            "0x49628fd1471006c1482da88028e9ce4dbb080b815c9b0344d39e5a8e6ec1419f",
            "0x69f65d4e86f36cc7e41088475416e612c78b8be5b74d511ab6b947d013428362",
            "0x0000000000000000000000002e2b1c42e38f5af81771e65d87729e57abd1337a",
            "0x0000000000000000000000000000000000000000000000000000000000000000"
          ],
          "data": "0x00000000000000000000000000000000000000000000000000000000000012c80000000000000000000000000000000000000000000000000000000000000001000000000000000000000000000000000000000000000000000000000009050e000000000000000000000000000000000000000000000000000000000009050e",
          "blockHash": "0xc607de6ad3f74124c419cda416142d61950af1c1ccfd344e642c5bab21a33c2c",
          "blockNumber": "0xcba80",
          "transactionHash": "0x19cc591d1dcda59edfada70464ad37862bc45c32aefef50ae2795f9a2ea028a8",
          "transactionIndex": "0x1",
          "logIndex": "0x3",
          "removed": false
        }
      ],
      "logsBloom": "0x00010000000008000000000000000000100000000000000000000000000000000008000000000000000000010004000000000000000000000000020000040000000000000000000000000000000000000000000000040000000000000000000800000000020000000000000000000800002000000000000000000000000200000000000000000000000002000000800008000400000000000000000000001000000400000000000000402000000000000000000000000008000002000000000000000080000000100001000000008000000000000000000000000000000060000000080000010000010000000000000000000000000000000004000200020000",
      "type": "0x2",
      "transactionHash": "0x19cc591d1dcda59edfada70464ad37862bc45c32aefef50ae2795f9a2ea028a8",
      "transactionIndex": "0x1",
      "blockHash": "0xc607de6ad3f74124c419cda416142d61950af1c1ccfd344e642c5bab21a33c2c",
      "blockNumber": "0xcba80",
      "gasUsed": "0x46ba4",
      "effectiveGasPrice": "0x5f5e100",
      "from": "0x660ad4b5a74130a4796b4d54bc6750ae93c86e6c",
      "to": "0x2843c269d2a64ecfa63548e8b3fc0fd23b7f70cb",
      "contractAddress": null,
      "gasUsedForL1": "0x1403d",
      "l1BlockNumber": "0x1535965"
    },
    {
      "status": "0x1",
      "cumulativeGasUsed": "0x4784a",
      "logs": [
        {
          "address": "0x2843c269d2a64ecfa63548e8b3fc0fd23b7f70cb",
          "topics": [
            "0xbb47ee3e183a558b1a2ff0874b079f3fc5478b7454eacf2bfc5af2ff5878f972"
          ],
          "data": "0x",
          "blockHash": "0x4c942d69dfd476feb969c797b180a3cc313d147e083b00457b189c56a2c05016",
          "blockNumber": "0xcba81",
          "transactionHash": "0xb0faa7a58185f270b61c3e8bed331b8678c28f9cc12389e55fa7fae2db4bae3b",
          "transactionIndex": "0x1",
          "logIndex": "0x0",
          "removed": false
        },
        {
          "address": "0xacc000818e5bbd911d5d449aa81cb5ca24024739",
          "topics": [
            "0x76a2a46953689d4861a5d3f6ed883ad7e6af674a21f8e162707159fc9dde614d",
            "0xa148a26d04bda6140c756b460fb9e37aecd93c69443af9f523d113d8593f8163",
            "0x0000000000000000000000000000000000000000000000000000000000000001"
          ],
          "data": "0x",
          "blockHash": "0x4c942d69dfd476feb969c797b180a3cc313d147e083b00457b189c56a2c05016",
          "blockNumber": "0xcba81",
          "transactionHash": "0xb0faa7a58185f270b61c3e8bed331b8678c28f9cc12389e55fa7fae2db4bae3b",
          "transactionIndex": "0x1",
          "logIndex": "0x1",
          "removed": false
        },
        {
          "address": "0xacc000818e5bbd911d5d449aa81cb5ca24024739",
          "topics": [
            "0xf98448b987f1428e0e230e1f3c6e2ce15b5693eaf31827fbd0b1ec4b424ae7cf",
            "0x00000000000000000000000000000000000000000000000007d8641643fe2cba",
            "0x00000000000000000000000028fc10e12a78f986c78f973fc70ed88072b34c8e"
          ],
          "data": "0x00000000000000000000000000000000000000000000000000000000000000000000000000000000000000000000000000000000000000000000000067f7eb620000000000000000000000000000000000000000000000000000000000000001",
          "blockHash": "0x4c942d69dfd476feb969c797b180a3cc313d147e083b00457b189c56a2c05016",
          "blockNumber": "0xcba81",
          "transactionHash": "0xb0faa7a58185f270b61c3e8bed331b8678c28f9cc12389e55fa7fae2db4bae3b",
          "transactionIndex": "0x1",
          "logIndex": "0x2",
          "removed": false
        },
        {
          "address": "0x2843c269d2a64ecfa63548e8b3fc0fd23b7f70cb",
          "topics": [
            "0x49628fd1471006c1482da88028e9ce4dbb080b815c9b0344d39e5a8e6ec1419f",
            "0x86a67ba124a0b38c654dd7920f1401a7e6953f43306f2b04701fc08e8debc06a",
            "0x0000000000000000000000002e2b1c42e38f5af81771e65d87729e57abd1337a",
            "0x0000000000000000000000000000000000000000000000000000000000000000"
          ],
          "data": "0x00000000000000000000000000000000000000000000000000000000000012c90000000000000000000000000000000000000000000000000000000000000001000000000000000000000000000000000000000000000000000000000009050e000000000000000000000000000000000000000000000000000000000009050e",
          "blockHash": "0x4c942d69dfd476feb969c797b180a3cc313d147e083b00457b189c56a2c05016",
          "blockNumber": "0xcba81",
          "transactionHash": "0xb0faa7a58185f270b61c3e8bed331b8678c28f9cc12389e55fa7fae2db4bae3b",
          "transactionIndex": "0x1",
          "logIndex": "0x3",
          "removed": false
        }
      ],
      "logsBloom": "0x00010000000008000000000000000000000000000000000000000000000000000008000200000000000000010080000000000000000000000000020000040000040000000000000000000000000000000000000000040000000000000000000800000000020000000000000000000800002000000000000000000000000000000000000000000000000002000000800008020000000000000000000000001000000400000000000000402000000000000020000000000008000002000000000000000000000800100001000004008000400000000000000000000000000060000000080000210000000001000000000000800000000000000000100000000000",
      "type": "0x2",
      "transactionHash": "0xb0faa7a58185f270b61c3e8bed331b8678c28f9cc12389e55fa7fae2db4bae3b",
      "transactionIndex": "0x1",
      "blockHash": "0x4c942d69dfd476feb969c797b180a3cc313d147e083b00457b189c56a2c05016",
      "blockNumber": "0xcba81",
      "gasUsed": "0x4784a",
      "effectiveGasPrice": "0x5f5e100",
      "from": "0x660ad4b5a74130a4796b4d54bc6750ae93c86e6c",
      "to": "0x2843c269d2a64ecfa63548e8b3fc0fd23b7f70cb",
      "contractAddress": null,
      "gasUsedForL1": "0x14cd7",
      "l1BlockNumber": "0x1535965"
    }
  ],
  "libraries": [],
  "pending": [],
  "returns": {},
  "timestamp": 1744300899,
  "chain": 7887,
  "commit": "33bf8698"
}