{
  "transactions": [
    {
      "hash": "0x1c1f4250ccb541589ed0bf39dc85815075d965c9a1cc060aad102989f914dc90",
      "transactionType": "CALL",
      "contractName": null,
      "contractAddress": "0x2843c269d2a64ecfa63548e8b3fc0fd23b7f70cb",
      "function": "handleOps((address,uint256,bytes,bytes,uint256,uint256,uint256,uint256,uint256,bytes,bytes)[],address)",
      "arguments": [
        "[(0x2e2B1c42E38f5af81771e65D87729E57ABD1337a, 4737, 0x, 0xb61d27f6000000000000000000000000acc000818e5bbd911d5d449aa81cb5ca24024739000000000000000000000000000000000000000000000000000000000000000000000000000000000000000000000000000000000000000000000000000000600000000000000000000000000000000000000000000000000000000000000124f801a698000000000000000000000000acc000818e5bbd911d5d449aa81cb5ca24024739000000000000000000000000000000000000000000000000000000000000006000000000000000000000000000000000000000000000000000000000000000000000000000000000000000000000000000000000000000000000000000000084853551b8000000000000000000000000000000000000000000000000273c0248976abc55000000000000000000000000000000000000000000000000000000000000004000000000000000000000000000000000000000000000000000000000000000165245434f564552595f415050524f5645525f524f4c45000000000000000000000000000000000000000000000000000000000000000000000000000000000000000000000000000000000000000000000000000000000000, 4000000, 210000, 21000, 1, 1000000000, 0x0000000000000000000000000000000000000000, 0xfcc0d394f71b3711c87fd8900d46336d195d2abed74bb56f56deb7003a71121c5fc4d752de5875651042e0e77322307f68562747e4e6daa3932ed2eee6e319971b04490a47403ceb6e34fdd8a95e81cdcc14cfa59340d7537e01bfd283c97cccea573f6968d59ad2d8ca272a2a3b6a2efe5a11db09e0fea18336ac95bbe29f66c51c)]",
        "0x660ad4B5A74130a4796B4d54BC6750Ae93C86e6c"
      ],
      "transaction": {
        "from": "0x660ad4b5a74130a4796b4d54bc6750ae93c86e6c",
        "to": "0x2843c269d2a64ecfa63548e8b3fc0fd23b7f70cb",
        "value": "0x0",
        "input": "0x1fad948c0000000000000000000000000000000000000000000000000000000000000040000000000000000000000000660ad4b5a74130a4796b4d54bc6750ae93c86e6c000000000000000000000000000000000000000000000000000000000000000100000000000000000000000000000000000000000000000000000000000000200000000000000000000000002e2b1c42e38f5af81771e65d87729e57abd1337a00000000000000000000000000000000000000000000000000000000000012810000000000000000000000000000000000000000000000000000000000000160000000000000000000000000000000000000000000000000000000000000018000000000000000000000000000000000000000000000000000000000003d0900000000000000000000000000000000000000000000000000000000000003345000000000000000000000000000000000000000000000000000000000000052080000000000000000000000000000000000000000000000000000000000000001000000000000000000000000000000000000000000000000000000003b9aca00000000000000000000000000000000000000000000000000000000000000038000000000000000000000000000000000000000000000000000000000000003c0000000000000000000000000000000000000000000000000000000000000000000000000000000000000000000000000000000000000000000000000000001c4b61d27f6000000000000000000000000acc000818e5bbd911d5d449aa81cb5ca24024739000000000000000000000000000000000000000000000000000000000000000000000000000000000000000000000000000000000000000000000000000000600000000000000000000000000000000000000000000000000000000000000124f801a698000000000000000000000000acc000818e5bbd911d5d449aa81cb5ca24024739000000000000000000000000000000000000000000000000000000000000006000000000000000000000000000000000000000000000000000000000000000000000000000000000000000000000000000000000000000000000000000000084853551b8000000000000000000000000000000000000000000000000273c0248976abc55000000000000000000000000000000000000000000000000000000000000004000000000000000000000000000000000000000000000000000000000000000165245434f564552595f415050524f5645525f524f4c4500000000000000000000000000000000000000000000000000000000000000000000000000000000000000000000000000000000000000000000000000000000000000000000000000000000000000000000000000000000000000000000000000000000000000000000000000000000000000000000000000000000001400000000000000000000000000000000000000000000000000000000000000000000000000000000000000000000000000000000000000000000000000000082fcc0d394f71b3711c87fd8900d46336d195d2abed74bb56f56deb7003a71121c5fc4d752de5875651042e0e77322307f68562747e4e6daa3932ed2eee6e319971b04490a47403ceb6e34fdd8a95e81cdcc14cfa59340d7537e01bfd283c97cccea573f6968d59ad2d8ca272a2a3b6a2efe5a11db09e0fea18336ac95bbe29f66c51c000000000000000000000000000000000000000000000000000000000000",
        "nonce": "0x4bdfa",
        "chainId": "0x1ecf"
      },
      "additionalContracts": [],
      "isFixedGasLimit": false
    },
    {
      "hash": "0xe3243d738c48f7bcd9f2b26160ae55a7ea455ceaf6a1f3e3b294015b99062a45",
      "transactionType": "CALL",
      "contractName": null,
      "contractAddress": "0x2843c269d2a64ecfa63548e8b3fc0fd23b7f70cb",
      "function": "handleOps((address,uint256,bytes,bytes,uint256,uint256,uint256,uint256,uint256,bytes,bytes)[],address)",
      "arguments": [
        "[(0x2e2B1c42E38f5af81771e65D87729E57ABD1337a, 4738, 0x, 0xb61d27f6000000000000000000000000acc000818e5bbd911d5d449aa81cb5ca24024739000000000000000000000000000000000000000000000000000000000000000000000000000000000000000000000000000000000000000000000000000000600000000000000000000000000000000000000000000000000000000000000124f801a698000000000000000000000000acc000818e5bbd911d5d449aa81cb5ca24024739000000000000000000000000000000000000000000000000000000000000006000000000000000000000000000000000000000000000000000000000000000000000000000000000000000000000000000000000000000000000000000000084853551b800000000000000000000000000000000000000000000000007d8641643fe2cba0000000000000000000000000000000000000000000000000000000000000040000000000000000000000000000000000000000000000000000000000000000f53414e4354494f4e45525f524f4c4500000000000000000000000000000000000000000000000000000000000000000000000000000000000000000000000000000000000000000000000000000000000000000000000000, 4000000, 210000, 21000, 1, 1000000000, 0x0000000000000000000000000000000000000000, 0x56540b6efce3c5840ec854af8027387aaf15d3a85b7c903c7ac5e98f72902f1409e40d5dfcd03b8fb6223c83a80a6d71794f040aa0fe234fa6967ad6d05bc2811c199b794f17a79cd41b5137a2c4c552f72c9afbd312c8f510e6ea92d8be55fcb757f0f26c907a3aae38980fd2416bdcca9aec7ecb0b08053540876380c38a3ae31b)]",
        "0x660ad4B5A74130a4796B4d54BC6750Ae93C86e6c"
      ],
      "transaction": {
        "from": "0x660ad4b5a74130a4796b4d54bc6750ae93c86e6c",
        "to": "0x2843c269d2a64ecfa63548e8b3fc0fd23b7f70cb",
        "value": "0x0",
        "input": "0x1fad948c0000000000000000000000000000000000000000000000000000000000000040000000000000000000000000660ad4b5a74130a4796b4d54bc6750ae93c86e6c000000000000000000000000000000000000000000000000000000000000000100000000000000000000000000000000000000000000000000000000000000200000000000000000000000002e2b1c42e38f5af81771e65d87729e57abd1337a00000000000000000000000000000000000000000000000000000000000012820000000000000000000000000000000000000000000000000000000000000160000000000000000000000000000000000000000000000000000000000000018000000000000000000000000000000000000000000000000000000000003d0900000000000000000000000000000000000000000000000000000000000003345000000000000000000000000000000000000000000000000000000000000052080000000000000000000000000000000000000000000000000000000000000001000000000000000000000000000000000000000000000000000000003b9aca00000000000000000000000000000000000000000000000000000000000000038000000000000000000000000000000000000000000000000000000000000003c0000000000000000000000000000000000000000000000000000000000000000000000000000000000000000000000000000000000000000000000000000001c4b61d27f6000000000000000000000000acc000818e5bbd911d5d449aa81cb5ca24024739000000000000000000000000000000000000000000000000000000000000000000000000000000000000000000000000000000000000000000000000000000600000000000000000000000000000000000000000000000000000000000000124f801a698000000000000000000000000acc000818e5bbd911d5d449aa81cb5ca24024739000000000000000000000000000000000000000000000000000000000000006000000000000000000000000000000000000000000000000000000000000000000000000000000000000000000000000000000000000000000000000000000084853551b800000000000000000000000000000000000000000000000007d8641643fe2cba0000000000000000000000000000000000000000000000000000000000000040000000000000000000000000000000000000000000000000000000000000000f53414e4354494f4e45525f524f4c45000000000000000000000000000000000000000000000000000000000000000000000000000000000000000000000000000000000000000000000000000000000000000000000000000000000000000000000000000000000000000000000000000000000000000000000000000000000000000000000000000000000000000000000000140000000000000000000000000000000000000000000000000000000000000000000000000000000000000000000000000000000000000000000000000000008256540b6efce3c5840ec854af8027387aaf15d3a85b7c903c7ac5e98f72902f1409e40d5dfcd03b8fb6223c83a80a6d71794f040aa0fe234fa6967ad6d05bc2811c199b794f17a79cd41b5137a2c4c552f72c9afbd312c8f510e6ea92d8be55fcb757f0f26c907a3aae38980fd2416bdcca9aec7ecb0b08053540876380c38a3ae31b000000000000000000000000000000000000000000000000000000000000",
        "nonce": "0x4bdfb",
        "chainId": "0x1ecf"
      },
      "additionalContracts": [],
      "isFixedGasLimit": false
    },
    {
      "hash": "0x79b601a5839717d9824c6bc0c508e187dead29bac38b9bff38036a2845fd5e63",
      "transactionType": "CALL",
      "contractName": null,
      "contractAddress": "0x2843c269d2a64ecfa63548e8b3fc0fd23b7f70cb",
      "function": "handleOps((address,uint256,bytes,bytes,uint256,uint256,uint256,uint256,uint256,bytes,bytes)[],address)",
      "arguments": [
        "[(0x2e2B1c42E38f5af81771e65D87729E57ABD1337a, 4739, 0x, 0xb61d27f6000000000000000000000000acc000818e5bbd911d5d449aa81cb5ca24024739000000000000000000000000000000000000000000000000000000000000000000000000000000000000000000000000000000000000000000000000000000600000000000000000000000000000000000000000000000000000000000000144f801a698000000000000000000000000acc000818e5bbd911d5d449aa81cb5ca240247390000000000000000000000000000000000000000000000000000000000000060000000000000000000000000000000000000000000000000000000000000000000000000000000000000000000000000000000000000000000000000000000a408d6122d0000000000000000000000008a4720488ca32f1223ccfe5a087e250fe3bc5d750000000000000000000000000000000000000000000000000000000000000060000000000000000000000000000000000000000000000000273c0248976abc550000000000000000000000000000000000000000000000000000000000000001456cf492000000000000000000000000000000000000000000000000000000000000000000000000000000000000000000000000000000000000000000000000000000000000000000000000000000000000000000000000, 4000000, 210000, 21000, 1, 1000000000, 0x0000000000000000000000000000000000000000, 0x9f68259748345bb9a8a9cdb8aaca63b40c2a68956079fdd511736a5a0102be8d6a2469c1e4b1e7af007a615d158e87707c79775a52af330f50bd6b6332fc31a41bb768bc293b27843068185eee6db75ea58ce682d360079e2ed5e10bd42427f1c34244780736ff36636810ac2a3f9f9e46caa3c8faef182e498f4e828a834d61e31c)]",
        "0x660ad4B5A74130a4796B4d54BC6750Ae93C86e6c"
      ],
      "transaction": {
        "from": "0x660ad4b5a74130a4796b4d54bc6750ae93c86e6c",
        "to": "0x2843c269d2a64ecfa63548e8b3fc0fd23b7f70cb",
        "value": "0x0",
        "input": "0x1fad948c0000000000000000000000000000000000000000000000000000000000000040000000000000000000000000660ad4b5a74130a4796b4d54bc6750ae93c86e6c000000000000000000000000000000000000000000000000000000000000000100000000000000000000000000000000000000000000000000000000000000200000000000000000000000002e2b1c42e38f5af81771e65d87729e57abd1337a00000000000000000000000000000000000000000000000000000000000012830000000000000000000000000000000000000000000000000000000000000160000000000000000000000000000000000000000000000000000000000000018000000000000000000000000000000000000000000000000000000000003d0900000000000000000000000000000000000000000000000000000000000003345000000000000000000000000000000000000000000000000000000000000052080000000000000000000000000000000000000000000000000000000000000001000000000000000000000000000000000000000000000000000000003b9aca0000000000000000000000000000000000000000000000000000000000000003a000000000000000000000000000000000000000000000000000000000000003e0000000000000000000000000000000000000000000000000000000000000000000000000000000000000000000000000000000000000000000000000000001e4b61d27f6000000000000000000000000acc000818e5bbd911d5d449aa81cb5ca24024739000000000000000000000000000000000000000000000000000000000000000000000000000000000000000000000000000000000000000000000000000000600000000000000000000000000000000000000000000000000000000000000144f801a698000000000000000000000000acc000818e5bbd911d5d449aa81cb5ca240247390000000000000000000000000000000000000000000000000000000000000060000000000000000000000000000000000000000000000000000000000000000000000000000000000000000000000000000000000000000000000000000000a408d6122d0000000000000000000000008a4720488ca32f1223ccfe5a087e250fe3bc5d750000000000000000000000000000000000000000000000000000000000000060000000000000000000000000000000000000000000000000273c0248976abc550000000000000000000000000000000000000000000000000000000000000001456cf492000000000000000000000000000000000000000000000000000000000000000000000000000000000000000000000000000000000000000000000000000000000000000000000000000000000000000000000000000000000000000000000000000000000000000000000000000000000000000000000000000000000000000000000000000000000000000000000014000000000000000000000000000000000000000000000000000000000000000000000000000000000000000000000000000000000000000000000000000000829f68259748345bb9a8a9cdb8aaca63b40c2a68956079fdd511736a5a0102be8d6a2469c1e4b1e7af007a615d158e87707c79775a52af330f50bd6b6332fc31a41bb768bc293b27843068185eee6db75ea58ce682d360079e2ed5e10bd42427f1c34244780736ff36636810ac2a3f9f9e46caa3c8faef182e498f4e828a834d61e31c000000000000000000000000000000000000000000000000000000000000",
        "nonce": "0x4bdfc",
        "chainId": "0x1ecf"
      },
      "additionalContracts": [],
      "isFixedGasLimit": false
    },
    {
      "hash": "0xe704b8b70fd5ad231931e465cc874398e6304faee2e10c8af33ff3ab9c2b8694",
      "transactionType": "CALL",
      "contractName": null,
      "contractAddress": "0x2843c269d2a64ecfa63548e8b3fc0fd23b7f70cb",
      "function": "handleOps((address,uint256,bytes,bytes,uint256,uint256,uint256,uint256,uint256,bytes,bytes)[],address)",
      "arguments": [
        "[(0x2e2B1c42E38f5af81771e65D87729E57ABD1337a, 4740, 0x, 0xb61d27f6000000000000000000000000acc000818e5bbd911d5d449aa81cb5ca24024739000000000000000000000000000000000000000000000000000000000000000000000000000000000000000000000000000000000000000000000000000000600000000000000000000000000000000000000000000000000000000000000144f801a698000000000000000000000000acc000818e5bbd911d5d449aa81cb5ca240247390000000000000000000000000000000000000000000000000000000000000060000000000000000000000000000000000000000000000000000000000000000000000000000000000000000000000000000000000000000000000000000000a408d6122d000000000000000000000000f369f78e3a0492cc4e96a90dae0728a38498e9c7000000000000000000000000000000000000000000000000000000000000006000000000000000000000000000000000000000000000000007d8641643fe2cba0000000000000000000000000000000000000000000000000000000000000001fb0b2940000000000000000000000000000000000000000000000000000000000000000000000000000000000000000000000000000000000000000000000000000000000000000000000000000000000000000000000000, 4000000, 210000, 21000, 1, 1000000000, 0x0000000000000000000000000000000000000000, 0x4e0d624b5c893c97e0bb89535c4f82bb266e05f34bf9c84fda4cc6a85bae84ad549c2351daa5625e10a39b484a1091df2b0aa6180ad83d1ca0a958f16191e5eb1c2192bb2e3285bc70f153a6f370cea38052f37b847c9081686dc7b93510abd3ff7f32ac9557fe636b16a472508b963c849976aa0299b9d4f0519c5f8641d026a11c)]",
        "0x660ad4B5A74130a4796B4d54BC6750Ae93C86e6c"
      ],
      "transaction": {
        "from": "0x660ad4b5a74130a4796b4d54bc6750ae93c86e6c",
        "to": "0x2843c269d2a64ecfa63548e8b3fc0fd23b7f70cb",
        "value": "0x0",
        "input": "0x1fad948c0000000000000000000000000000000000000000000000000000000000000040000000000000000000000000660ad4b5a74130a4796b4d54bc6750ae93c86e6c000000000000000000000000000000000000000000000000000000000000000100000000000000000000000000000000000000000000000000000000000000200000000000000000000000002e2b1c42e38f5af81771e65d87729e57abd1337a00000000000000000000000000000000000000000000000000000000000012840000000000000000000000000000000000000000000000000000000000000160000000000000000000000000000000000000000000000000000000000000018000000000000000000000000000000000000000000000000000000000003d0900000000000000000000000000000000000000000000000000000000000003345000000000000000000000000000000000000000000000000000000000000052080000000000000000000000000000000000000000000000000000000000000001000000000000000000000000000000000000000000000000000000003b9aca0000000000000000000000000000000000000000000000000000000000000003a000000000000000000000000000000000000000000000000000000000000003e0000000000000000000000000000000000000000000000000000000000000000000000000000000000000000000000000000000000000000000000000000001e4b61d27f6000000000000000000000000acc000818e5bbd911d5d449aa81cb5ca24024739000000000000000000000000000000000000000000000000000000000000000000000000000000000000000000000000000000000000000000000000000000600000000000000000000000000000000000000000000000000000000000000144f801a698000000000000000000000000acc000818e5bbd911d5d449aa81cb5ca240247390000000000000000000000000000000000000000000000000000000000000060000000000000000000000000000000000000000000000000000000000000000000000000000000000000000000000000000000000000000000000000000000a408d6122d000000000000000000000000f369f78e3a0492cc4e96a90dae0728a38498e9c7000000000000000000000000000000000000000000000000000000000000006000000000000000000000000000000000000000000000000007d8641643fe2cba0000000000000000000000000000000000000000000000000000000000000001fb0b2940000000000000000000000000000000000000000000000000000000000000000000000000000000000000000000000000000000000000000000000000000000000000000000000000000000000000000000000000000000000000000000000000000000000000000000000000000000000000000000000000000000000000000000000000000000000000000000000014000000000000000000000000000000000000000000000000000000000000000000000000000000000000000000000000000000000000000000000000000000824e0d624b5c893c97e0bb89535c4f82bb266e05f34bf9c84fda4cc6a85bae84ad549c2351daa5625e10a39b484a1091df2b0aa6180ad83d1ca0a958f16191e5eb1c2192bb2e3285bc70f153a6f370cea38052f37b847c9081686dc7b93510abd3ff7f32ac9557fe636b16a472508b963c849976aa0299b9d4f0519c5f8641d026a11c000000000000000000000000000000000000000000000000000000000000",
        "nonce": "0x4bdfd",
        "chainId": "0x1ecf"
      },
      "additionalContracts": [],
      "isFixedGasLimit": false
    },
    {
      "hash": "0x48de617cdcffef779548e384aef888b18d5b7ed4224273510035b222153d631e",
      "transactionType": "CALL",
      "contractName": null,
      "contractAddress": "0x2843c269d2a64ecfa63548e8b3fc0fd23b7f70cb",
      "function": "handleOps((address,uint256,bytes,bytes,uint256,uint256,uint256,uint256,uint256,bytes,bytes)[],address)",
      "arguments": [
        "[(0x2e2B1c42E38f5af81771e65D87729E57ABD1337a, 4741, 0x, 0xb61d27f6000000000000000000000000acc000818e5bbd911d5d449aa81cb5ca240247390000000000000000000000000000000000000000000000000000000000000000000000000000000000000000000000000000000000000000000000000000006000000000000000000000000000000000000000000000000000000000000001241cff79cd000000000000000000000000acc000818e5bbd911d5d449aa81cb5ca24024739000000000000000000000000000000000000000000000000000000000000004000000000000000000000000000000000000000000000000000000000000000a408d6122d0000000000000000000000008a4720488ca32f1223ccfe5a087e250fe3bc5d750000000000000000000000000000000000000000000000000000000000000060000000000000000000000000000000000000000000000000273c0248976abc550000000000000000000000000000000000000000000000000000000000000001456cf492000000000000000000000000000000000000000000000000000000000000000000000000000000000000000000000000000000000000000000000000000000000000000000000000000000000000000000000000, 4000000, 210000, 21000, 1, 1000000000, 0x0000000000000000000000000000000000000000, 0x64dfad1f5bffe9760fde8a8aee2a9aee1f935429cd7e98ba43a514c4cf4366ba32191ac85f85358ad372d9b1cb2c3f83ae48a6f9f1d03e9e1e048c0b7dbc689c1c81fd8f5895e621ccafd62c078eef5e66ef28b3e4ff2bb38735fada3cabcaf60846239ee13a3ca88b4baba253c14ee74a487d3677161a178bc3ea11b4ca85607e1b)]",
        "0x660ad4B5A74130a4796B4d54BC6750Ae93C86e6c"
      ],
      "transaction": {
        "from": "0x660ad4b5a74130a4796b4d54bc6750ae93c86e6c",
        "to": "0x2843c269d2a64ecfa63548e8b3fc0fd23b7f70cb",
        "value": "0x0",
        "input": "0x1fad948c0000000000000000000000000000000000000000000000000000000000000040000000000000000000000000660ad4b5a74130a4796b4d54bc6750ae93c86e6c000000000000000000000000000000000000000000000000000000000000000100000000000000000000000000000000000000000000000000000000000000200000000000000000000000002e2b1c42e38f5af81771e65d87729e57abd1337a00000000000000000000000000000000000000000000000000000000000012850000000000000000000000000000000000000000000000000000000000000160000000000000000000000000000000000000000000000000000000000000018000000000000000000000000000000000000000000000000000000000003d0900000000000000000000000000000000000000000000000000000000000003345000000000000000000000000000000000000000000000000000000000000052080000000000000000000000000000000000000000000000000000000000000001000000000000000000000000000000000000000000000000000000003b9aca00000000000000000000000000000000000000000000000000000000000000038000000000000000000000000000000000000000000000000000000000000003c0000000000000000000000000000000000000000000000000000000000000000000000000000000000000000000000000000000000000000000000000000001c4b61d27f6000000000000000000000000acc000818e5bbd911d5d449aa81cb5ca240247390000000000000000000000000000000000000000000000000000000000000000000000000000000000000000000000000000000000000000000000000000006000000000000000000000000000000000000000000000000000000000000001241cff79cd000000000000000000000000acc000818e5bbd911d5d449aa81cb5ca24024739000000000000000000000000000000000000000000000000000000000000004000000000000000000000000000000000000000000000000000000000000000a408d6122d0000000000000000000000008a4720488ca32f1223ccfe5a087e250fe3bc5d750000000000000000000000000000000000000000000000000000000000000060000000000000000000000000000000000000000000000000273c0248976abc550000000000000000000000000000000000000000000000000000000000000001456cf4920000000000000000000000000000000000000000000000000000000000000000000000000000000000000000000000000000000000000000000000000000000000000000000000000000000000000000000000000000000000000000000000000000000000000000000000000000000000000000000000000000000000000000000000000000000000000000000000140000000000000000000000000000000000000000000000000000000000000000000000000000000000000000000000000000000000000000000000000000008264dfad1f5bffe9760fde8a8aee2a9aee1f935429cd7e98ba43a514c4cf4366ba32191ac85f85358ad372d9b1cb2c3f83ae48a6f9f1d03e9e1e048c0b7dbc689c1c81fd8f5895e621ccafd62c078eef5e66ef28b3e4ff2bb38735fada3cabcaf60846239ee13a3ca88b4baba253c14ee74a487d3677161a178bc3ea11b4ca85607e1b000000000000000000000000000000000000000000000000000000000000",
        "nonce": "0x4bdfe",
        "chainId": "0x1ecf"
      },
      "additionalContracts": [],
      "isFixedGasLimit": false
    },
    {
      "hash": "0x3a8984b2e94676ebc77e52673e86f0a181945b3774bdbb2f52ccb1d2b714ac8e",
      "transactionType": "CALL",
      "contractName": null,
      "contractAddress": "0x2843c269d2a64ecfa63548e8b3fc0fd23b7f70cb",
      "function": "handleOps((address,uint256,bytes,bytes,uint256,uint256,uint256,uint256,uint256,bytes,bytes)[],address)",
      "arguments": [
        "[(0x2e2B1c42E38f5af81771e65D87729E57ABD1337a, 4742, 0x, 0xb61d27f6000000000000000000000000acc000818e5bbd911d5d449aa81cb5ca240247390000000000000000000000000000000000000000000000000000000000000000000000000000000000000000000000000000000000000000000000000000006000000000000000000000000000000000000000000000000000000000000001241cff79cd000000000000000000000000acc000818e5bbd911d5d449aa81cb5ca24024739000000000000000000000000000000000000000000000000000000000000004000000000000000000000000000000000000000000000000000000000000000a408d6122d000000000000000000000000f369f78e3a0492cc4e96a90dae0728a38498e9c7000000000000000000000000000000000000000000000000000000000000006000000000000000000000000000000000000000000000000007d8641643fe2cba0000000000000000000000000000000000000000000000000000000000000001fb0b2940000000000000000000000000000000000000000000000000000000000000000000000000000000000000000000000000000000000000000000000000000000000000000000000000000000000000000000000000, 4000000, 210000, 21000, 1, 1000000000, 0x0000000000000000000000000000000000000000, 0x8b6037d7b812b21a6a9c5a5e78ea14bcccd1a6a89887243225395c510a37a581518eb9e6f42a94dc278ff0ce346ed138e65737a0c37fa55e0ff88c71cc3f995a1bb29357e23afa95abab18ea1db562083bd00023c0cff33f6d0659878e31b9234967aea23bf04e0077f45c2a88081f46d8a5505f26a7c4082b5dd5c541d4974e431c)]",
        "0x660ad4B5A74130a4796B4d54BC6750Ae93C86e6c"
      ],
      "transaction": {
        "from": "0x660ad4b5a74130a4796b4d54bc6750ae93c86e6c",
        "to": "0x2843c269d2a64ecfa63548e8b3fc0fd23b7f70cb",
        "value": "0x0",
        "input": "0x1fad948c0000000000000000000000000000000000000000000000000000000000000040000000000000000000000000660ad4b5a74130a4796b4d54bc6750ae93c86e6c000000000000000000000000000000000000000000000000000000000000000100000000000000000000000000000000000000000000000000000000000000200000000000000000000000002e2b1c42e38f5af81771e65d87729e57abd1337a00000000000000000000000000000000000000000000000000000000000012860000000000000000000000000000000000000000000000000000000000000160000000000000000000000000000000000000000000000000000000000000018000000000000000000000000000000000000000000000000000000000003d0900000000000000000000000000000000000000000000000000000000000003345000000000000000000000000000000000000000000000000000000000000052080000000000000000000000000000000000000000000000000000000000000001000000000000000000000000000000000000000000000000000000003b9aca00000000000000000000000000000000000000000000000000000000000000038000000000000000000000000000000000000000000000000000000000000003c0000000000000000000000000000000000000000000000000000000000000000000000000000000000000000000000000000000000000000000000000000001c4b61d27f6000000000000000000000000acc000818e5bbd911d5d449aa81cb5ca240247390000000000000000000000000000000000000000000000000000000000000000000000000000000000000000000000000000000000000000000000000000006000000000000000000000000000000000000000000000000000000000000001241cff79cd000000000000000000000000acc000818e5bbd911d5d449aa81cb5ca24024739000000000000000000000000000000000000000000000000000000000000004000000000000000000000000000000000000000000000000000000000000000a408d6122d000000000000000000000000f369f78e3a0492cc4e96a90dae0728a38498e9c7000000000000000000000000000000000000000000000000000000000000006000000000000000000000000000000000000000000000000007d8641643fe2cba0000000000000000000000000000000000000000000000000000000000000001fb0b2940000000000000000000000000000000000000000000000000000000000000000000000000000000000000000000000000000000000000000000000000000000000000000000000000000000000000000000000000000000000000000000000000000000000000000000000000000000000000000000000000000000000000000000000000000000000000000000000014000000000000000000000000000000000000000000000000000000000000000000000000000000000000000000000000000000000000000000000000000000828b6037d7b812b21a6a9c5a5e78ea14bcccd1a6a89887243225395c510a37a581518eb9e6f42a94dc278ff0ce346ed138e65737a0c37fa55e0ff88c71cc3f995a1bb29357e23afa95abab18ea1db562083bd00023c0cff33f6d0659878e31b9234967aea23bf04e0077f45c2a88081f46d8a5505f26a7c4082b5dd5c541d4974e431c000000000000000000000000000000000000000000000000000000000000",
        "nonce": "0x4bdff",
        "chainId": "0x1ecf"
      },
      "additionalContracts": [],
      "isFixedGasLimit": false
    },
    {
      "hash": "0xf73d0cdd7d2fbae35cc93e2edfda27862f20c3a1f3d71168c993914db98fb4e1",
      "transactionType": "CALL",
      "contractName": null,
      "contractAddress": "0x2843c269d2a64ecfa63548e8b3fc0fd23b7f70cb",
      "function": "handleOps((address,uint256,bytes,bytes,uint256,uint256,uint256,uint256,uint256,bytes,bytes)[],address)",
      "arguments": [
        "[(0x2e2B1c42E38f5af81771e65D87729E57ABD1337a, 4743, 0x, 0xb61d27f6000000000000000000000000acc000818e5bbd911d5d449aa81cb5ca24024739000000000000000000000000000000000000000000000000000000000000000000000000000000000000000000000000000000000000000000000000000000600000000000000000000000000000000000000000000000000000000000000104f801a698000000000000000000000000acc000818e5bbd911d5d449aa81cb5ca2402473900000000000000000000000000000000000000000000000000000000000000600000000000000000000000000000000000000000000000000000000000000000000000000000000000000000000000000000000000000000000000000000006425c471a0000000000000000000000000000000000000000000000000273c0248976abc550000000000000000000000002e2b1c42e38f5af81771e65d87729e57abd1337a00000000000000000000000000000000000000000000000000000000000000000000000000000000000000000000000000000000000000000000000000000000000000000000000000000000000000000000000000000000, 4000000, 210000, 21000, 1, 1000000000, 0x0000000000000000000000000000000000000000, 0x286302cf74103b81bf2f2411e16a07547c5b86861615e23b3f6b4f91f7d1060e1aeafc9e0800bbff23c2d5f1d1cdd41173f56e6ad227f6049b55b47d7a4acc101c34f4229e90148f8d1febc5f9382424f06769eaada8c044aae6f7237d9417ca78106c4af56810445d13552943d5e4462d59bc2ddebf4b53d9b3db5f3c9869f5071b)]",
        "0x660ad4B5A74130a4796B4d54BC6750Ae93C86e6c"
      ],
      "transaction": {
        "from": "0x660ad4b5a74130a4796b4d54bc6750ae93c86e6c",
        "to": "0x2843c269d2a64ecfa63548e8b3fc0fd23b7f70cb",
        "value": "0x0",
        "input": "0x1fad948c0000000000000000000000000000000000000000000000000000000000000040000000000000000000000000660ad4b5a74130a4796b4d54bc6750ae93c86e6c000000000000000000000000000000000000000000000000000000000000000100000000000000000000000000000000000000000000000000000000000000200000000000000000000000002e2b1c42e38f5af81771e65d87729e57abd1337a00000000000000000000000000000000000000000000000000000000000012870000000000000000000000000000000000000000000000000000000000000160000000000000000000000000000000000000000000000000000000000000018000000000000000000000000000000000000000000000000000000000003d0900000000000000000000000000000000000000000000000000000000000003345000000000000000000000000000000000000000000000000000000000000052080000000000000000000000000000000000000000000000000000000000000001000000000000000000000000000000000000000000000000000000003b9aca00000000000000000000000000000000000000000000000000000000000000036000000000000000000000000000000000000000000000000000000000000003a0000000000000000000000000000000000000000000000000000000000000000000000000000000000000000000000000000000000000000000000000000001a4b61d27f6000000000000000000000000acc000818e5bbd911d5d449aa81cb5ca24024739000000000000000000000000000000000000000000000000000000000000000000000000000000000000000000000000000000000000000000000000000000600000000000000000000000000000000000000000000000000000000000000104f801a698000000000000000000000000acc000818e5bbd911d5d449aa81cb5ca2402473900000000000000000000000000000000000000000000000000000000000000600000000000000000000000000000000000000000000000000000000000000000000000000000000000000000000000000000000000000000000000000000006425c471a0000000000000000000000000000000000000000000000000273c0248976abc550000000000000000000000002e2b1c42e38f5af81771e65d87729e57abd1337a0000000000000000000000000000000000000000000000000000000000000000000000000000000000000000000000000000000000000000000000000000000000000000000000000000000000000000000000000000000000000000000000000000000000000000000000000000000000000000000000000000000000000000000000000000000000000000000000000000001400000000000000000000000000000000000000000000000000000000000000000000000000000000000000000000000000000000000000000000000000000082286302cf74103b81bf2f2411e16a07547c5b86861615e23b3f6b4f91f7d1060e1aeafc9e0800bbff23c2d5f1d1cdd41173f56e6ad227f6049b55b47d7a4acc101c34f4229e90148f8d1febc5f9382424f06769eaada8c044aae6f7237d9417ca78106c4af56810445d13552943d5e4462d59bc2ddebf4b53d9b3db5f3c9869f5071b000000000000000000000000000000000000000000000000000000000000",
        "nonce": "0x4be00",
        "chainId": "0x1ecf"
      },
      "additionalContracts": [],
      "isFixedGasLimit": false
    },
    {
      "hash": "0xe806ab5b9d1d0b385e7d6cbcbf1b990871b271bd3bd68c3abf9dc96eea2e5555",
      "transactionType": "CALL",
      "contractName": null,
      "contractAddress": "0x2843c269d2a64ecfa63548e8b3fc0fd23b7f70cb",
      "function": "handleOps((address,uint256,bytes,bytes,uint256,uint256,uint256,uint256,uint256,bytes,bytes)[],address)",
      "arguments": [
        "[(0x2e2B1c42E38f5af81771e65D87729E57ABD1337a, 4744, 0x, 0xb61d27f6000000000000000000000000acc000818e5bbd911d5d449aa81cb5ca24024739000000000000000000000000000000000000000000000000000000000000000000000000000000000000000000000000000000000000000000000000000000600000000000000000000000000000000000000000000000000000000000000104f801a698000000000000000000000000acc000818e5bbd911d5d449aa81cb5ca2402473900000000000000000000000000000000000000000000000000000000000000600000000000000000000000000000000000000000000000000000000000000000000000000000000000000000000000000000000000000000000000000000006425c471a000000000000000000000000000000000000000000000000007d8641643fe2cba00000000000000000000000028fc10e12a78f986c78f973fc70ed88072b34c8e00000000000000000000000000000000000000000000000000000000000000000000000000000000000000000000000000000000000000000000000000000000000000000000000000000000000000000000000000000000, 4000000, 210000, 21000, 1, 1000000000, 0x0000000000000000000000000000000000000000, 0x6b2721f40a0a775de5af5f4979f62bc41004de0440ef450737b0e9b874ea10c723042205249f3e4558c19e3cdea931462ac1b5b2bbff512b863daf21b32855e51bc89901707d1756f7ba1618c5508f398a0c59b7e09e40fff2ac8385dfc68023097b5536edd7aef27dbba69e0354d1044e52fd2eeb0e8db6735669982212a0ec371b)]",
        "0x660ad4B5A74130a4796B4d54BC6750Ae93C86e6c"
      ],
      "transaction": {
        "from": "0x660ad4b5a74130a4796b4d54bc6750ae93c86e6c",
        "to": "0x2843c269d2a64ecfa63548e8b3fc0fd23b7f70cb",
        "value": "0x0",
        "input": "0x1fad948c0000000000000000000000000000000000000000000000000000000000000040000000000000000000000000660ad4b5a74130a4796b4d54bc6750ae93c86e6c000000000000000000000000000000000000000000000000000000000000000100000000000000000000000000000000000000000000000000000000000000200000000000000000000000002e2b1c42e38f5af81771e65d87729e57abd1337a00000000000000000000000000000000000000000000000000000000000012880000000000000000000000000000000000000000000000000000000000000160000000000000000000000000000000000000000000000000000000000000018000000000000000000000000000000000000000000000000000000000003d0900000000000000000000000000000000000000000000000000000000000003345000000000000000000000000000000000000000000000000000000000000052080000000000000000000000000000000000000000000000000000000000000001000000000000000000000000000000000000000000000000000000003b9aca00000000000000000000000000000000000000000000000000000000000000036000000000000000000000000000000000000000000000000000000000000003a0000000000000000000000000000000000000000000000000000000000000000000000000000000000000000000000000000000000000000000000000000001a4b61d27f6000000000000000000000000acc000818e5bbd911d5d449aa81cb5ca24024739000000000000000000000000000000000000000000000000000000000000000000000000000000000000000000000000000000000000000000000000000000600000000000000000000000000000000000000000000000000000000000000104f801a698000000000000000000000000acc000818e5bbd911d5d449aa81cb5ca2402473900000000000000000000000000000000000000000000000000000000000000600000000000000000000000000000000000000000000000000000000000000000000000000000000000000000000000000000000000000000000000000000006425c471a000000000000000000000000000000000000000000000000007d8641643fe2cba00000000000000000000000028fc10e12a78f986c78f973fc70ed88072b34c8e00000000000000000000000000000000000000000000000000000000000000000000000000000000000000000000000000000000000000000000000000000000000000000000000000000000000000000000000000000000000000000000000000000000000000000000000000000000000000000000000000000000000000000000000000000000000000000000000000000014000000000000000000000000000000000000000000000000000000000000000000000000000000000000000000000000000000000000000000000000000000826b2721f40a0a775de5af5f4979f62bc41004de0440ef450737b0e9b874ea10c723042205249f3e4558c19e3cdea931462ac1b5b2bbff512b863daf21b32855e51bc89901707d1756f7ba1618c5508f398a0c59b7e09e40fff2ac8385dfc68023097b5536edd7aef27dbba69e0354d1044e52fd2eeb0e8db6735669982212a0ec371b000000000000000000000000000000000000000000000000000000000000",
        "nonce": "0x4be01",
        "chainId": "0x1ecf"
      },
      "additionalContracts": [],
      "isFixedGasLimit": false
    },
    {
      "hash": "0x3ef82a20a0f8aab57fe938320ac94f60caaf90897aa95f2949e39e5db0a5ae55",
      "transactionType": "CALL",
      "contractName": null,
      "contractAddress": "0x2843c269d2a64ecfa63548e8b3fc0fd23b7f70cb",
      "function": "handleOps((address,uint256,bytes,bytes,uint256,uint256,uint256,uint256,uint256,bytes,bytes)[],address)",
      "arguments": [
        "[(0x2e2B1c42E38f5af81771e65D87729E57ABD1337a, 4745, 0x, 0xb61d27f6000000000000000000000000acc000818e5bbd911d5d449aa81cb5ca240247390000000000000000000000000000000000000000000000000000000000000000000000000000000000000000000000000000000000000000000000000000006000000000000000000000000000000000000000000000000000000000000000e41cff79cd000000000000000000000000acc000818e5bbd911d5d449aa81cb5ca240247390000000000000000000000000000000000000000000000000000000000000040000000000000000000000000000000000000000000000000000000000000006425c471a0000000000000000000000000000000000000000000000000273c0248976abc550000000000000000000000002e2b1c42e38f5af81771e65d87729e57abd1337a00000000000000000000000000000000000000000000000000000000000000000000000000000000000000000000000000000000000000000000000000000000000000000000000000000000000000000000000000000000, 4000000, 210000, 21000, 1, 1000000000, 0x0000000000000000000000000000000000000000, 0x297e859526208675f6c9fbda891af20d0829248f453303c66dd1d86679186f3771d49d31deccc042fd858f4871244211617b5973a6e23c197571831220a90edf1b58d5e3683d562570d53dd7bc4e541a0b1a2377d97ab0453310a48f040bb45361139f0cf2f97fbfebc409397ca77974bc08d7784ef7dd6d4f414b8336aa70b0b71b)]",
        "0x660ad4B5A74130a4796B4d54BC6750Ae93C86e6c"
      ],
      "transaction": {
        "from": "0x660ad4b5a74130a4796b4d54bc6750ae93c86e6c",
        "to": "0x2843c269d2a64ecfa63548e8b3fc0fd23b7f70cb",
        "value": "0x0",
        "input": "0x1fad948c0000000000000000000000000000000000000000000000000000000000000040000000000000000000000000660ad4b5a74130a4796b4d54bc6750ae93c86e6c000000000000000000000000000000000000000000000000000000000000000100000000000000000000000000000000000000000000000000000000000000200000000000000000000000002e2b1c42e38f5af81771e65d87729e57abd1337a00000000000000000000000000000000000000000000000000000000000012890000000000000000000000000000000000000000000000000000000000000160000000000000000000000000000000000000000000000000000000000000018000000000000000000000000000000000000000000000000000000000003d0900000000000000000000000000000000000000000000000000000000000003345000000000000000000000000000000000000000000000000000000000000052080000000000000000000000000000000000000000000000000000000000000001000000000000000000000000000000000000000000000000000000003b9aca000000000000000000000000000000000000000000000000000000000000000340000000000000000000000000000000000000000000000000000000000000038000000000000000000000000000000000000000000000000000000000000000000000000000000000000000000000000000000000000000000000000000000184b61d27f6000000000000000000000000acc000818e5bbd911d5d449aa81cb5ca240247390000000000000000000000000000000000000000000000000000000000000000000000000000000000000000000000000000000000000000000000000000006000000000000000000000000000000000000000000000000000000000000000e41cff79cd000000000000000000000000acc000818e5bbd911d5d449aa81cb5ca240247390000000000000000000000000000000000000000000000000000000000000040000000000000000000000000000000000000000000000000000000000000006425c471a0000000000000000000000000000000000000000000000000273c0248976abc550000000000000000000000002e2b1c42e38f5af81771e65d87729e57abd1337a0000000000000000000000000000000000000000000000000000000000000000000000000000000000000000000000000000000000000000000000000000000000000000000000000000000000000000000000000000000000000000000000000000000000000000000000000000000000000000000000000000000000000000000000000000000000000000000000000000001400000000000000000000000000000000000000000000000000000000000000000000000000000000000000000000000000000000000000000000000000000082297e859526208675f6c9fbda891af20d0829248f453303c66dd1d86679186f3771d49d31deccc042fd858f4871244211617b5973a6e23c197571831220a90edf1b58d5e3683d562570d53dd7bc4e541a0b1a2377d97ab0453310a48f040bb45361139f0cf2f97fbfebc409397ca77974bc08d7784ef7dd6d4f414b8336aa70b0b71b000000000000000000000000000000000000000000000000000000000000",
        "nonce": "0x4be02",
        "chainId": "0x1ecf"
      },
      "additionalContracts": [],
      "isFixedGasLimit": false
    },
    {
      "hash": "0x79da18c7db772e0a0ad720cfd1d5cdba2ccd7cb04da02d0b9f1f2b0ac8856f11",
      "transactionType": "CALL",
      "contractName": null,
      "contractAddress": "0x2843c269d2a64ecfa63548e8b3fc0fd23b7f70cb",
      "function": "handleOps((address,uint256,bytes,bytes,uint256,uint256,uint256,uint256,uint256,bytes,bytes)[],address)",
      "arguments": [
        "[(0x2e2B1c42E38f5af81771e65D87729E57ABD1337a, 4746, 0x, 0xb61d27f6000000000000000000000000acc000818e5bbd911d5d449aa81cb5ca240247390000000000000000000000000000000000000000000000000000000000000000000000000000000000000000000000000000000000000000000000000000006000000000000000000000000000000000000000000000000000000000000000e41cff79cd000000000000000000000000acc000818e5bbd911d5d449aa81cb5ca240247390000000000000000000000000000000000000000000000000000000000000040000000000000000000000000000000000000000000000000000000000000006425c471a000000000000000000000000000000000000000000000000007d8641643fe2cba00000000000000000000000028fc10e12a78f986c78f973fc70ed88072b34c8e00000000000000000000000000000000000000000000000000000000000000000000000000000000000000000000000000000000000000000000000000000000000000000000000000000000000000000000000000000000, 4000000, 210000, 21000, 1, 1000000000, 0x0000000000000000000000000000000000000000, 0xa5808e3f19f4694b5bfdb8410e708dc0780fede23a645607e95863f065f589e61d53f38b1d82362d1b78952adb1aca190425bbecb6427a7368726374e1cc51891c2fa8fab8909ef451e1b6ba80a9c0a5d90a15f86aa50bf8b4c307bb5ef7fa0105710e6ee3f499bbe80971e4544ca3644e8e115a40b7f570696e92fc0b346f94571b)]",
        "0x660ad4B5A74130a4796B4d54BC6750Ae93C86e6c"
      ],
      "transaction": {
        "from": "0x660ad4b5a74130a4796b4d54bc6750ae93c86e6c",
        "to": "0x2843c269d2a64ecfa63548e8b3fc0fd23b7f70cb",
        "value": "0x0",
        "input": "0x1fad948c0000000000000000000000000000000000000000000000000000000000000040000000000000000000000000660ad4b5a74130a4796b4d54bc6750ae93c86e6c000000000000000000000000000000000000000000000000000000000000000100000000000000000000000000000000000000000000000000000000000000200000000000000000000000002e2b1c42e38f5af81771e65d87729e57abd1337a000000000000000000000000000000000000000000000000000000000000128a0000000000000000000000000000000000000000000000000000000000000160000000000000000000000000000000000000000000000000000000000000018000000000000000000000000000000000000000000000000000000000003d0900000000000000000000000000000000000000000000000000000000000003345000000000000000000000000000000000000000000000000000000000000052080000000000000000000000000000000000000000000000000000000000000001000000000000000000000000000000000000000000000000000000003b9aca000000000000000000000000000000000000000000000000000000000000000340000000000000000000000000000000000000000000000000000000000000038000000000000000000000000000000000000000000000000000000000000000000000000000000000000000000000000000000000000000000000000000000184b61d27f6000000000000000000000000acc000818e5bbd911d5d449aa81cb5ca240247390000000000000000000000000000000000000000000000000000000000000000000000000000000000000000000000000000000000000000000000000000006000000000000000000000000000000000000000000000000000000000000000e41cff79cd000000000000000000000000acc000818e5bbd911d5d449aa81cb5ca240247390000000000000000000000000000000000000000000000000000000000000040000000000000000000000000000000000000000000000000000000000000006425c471a000000000000000000000000000000000000000000000000007d8641643fe2cba00000000000000000000000028fc10e12a78f986c78f973fc70ed88072b34c8e0000000000000000000000000000000000000000000000000000000000000000000000000000000000000000000000000000000000000000000000000000000000000000000000000000000000000000000000000000000000000000000000000000000000000000000000000000000000000000000000000000000000000000000000000000000000000000000000000000001400000000000000000000000000000000000000000000000000000000000000000000000000000000000000000000000000000000000000000000000000000082a5808e3f19f4694b5bfdb8410e708dc0780fede23a645607e95863f065f589e61d53f38b1d82362d1b78952adb1aca190425bbecb6427a7368726374e1cc51891c2fa8fab8909ef451e1b6ba80a9c0a5d90a15f86aa50bf8b4c307bb5ef7fa0105710e6ee3f499bbe80971e4544ca3644e8e115a40b7f570696e92fc0b346f94571b000000000000000000000000000000000000000000000000000000000000",
        "nonce": "0x4be03",
        "chainId": "0x1ecf"
      },
      "additionalContracts": [],
      "isFixedGasLimit": false
    }
  ],
  "receipts": [
    {
      "status": "0x1",
      "cumulativeGasUsed": "0x2fc61",
      "logs": [
        {
          "address": "0x2843c269d2a64ecfa63548e8b3fc0fd23b7f70cb",
          "topics": [
            "0xbb47ee3e183a558b1a2ff0874b079f3fc5478b7454eacf2bfc5af2ff5878f972"
          ],
          "data": "0x",
          "blockHash": "0xf2c84f55a535b92218abf3f8c7fdd14a4f25f377b8cabd51cbf97cd3db1ae013",
          "blockNumber": "0xbfc0a",
          "transactionHash": "0x1c1f4250ccb541589ed0bf39dc85815075d965c9a1cc060aad102989f914dc90",
          "transactionIndex": "0x1",
          "logIndex": "0x0",
          "removed": false
        },
        {
          "address": "0xacc000818e5bbd911d5d449aa81cb5ca24024739",
          "topics": [
            "0x82a2da5dee54ea8021c6545b4444620291e07ee83be6dd57edb175062715f3b4",
            "0xdd5ae826ce8969e1e28b47bfb52c2ece6c9b94f3777698c30894e55dbc6fe8a0",
            "0x0000000000000000000000000000000000000000000000000000000000000001"
          ],
          "data": "0x0000000000000000000000000000000000000000000000000000000067f6af660000000000000000000000002e2b1c42e38f5af81771e65d87729e57abd1337a000000000000000000000000acc000818e5bbd911d5d449aa81cb5ca2402473900000000000000000000000000000000000000000000000000000000000000800000000000000000000000000000000000000000000000000000000000000084853551b8000000000000000000000000000000000000000000000000273c0248976abc55000000000000000000000000000000000000000000000000000000000000004000000000000000000000000000000000000000000000000000000000000000165245434f564552595f415050524f5645525f524f4c450000000000000000000000000000000000000000000000000000000000000000000000000000",
          "blockHash": "0xf2c84f55a535b92218abf3f8c7fdd14a4f25f377b8cabd51cbf97cd3db1ae013",
          "blockNumber": "0xbfc0a",
          "transactionHash": "0x1c1f4250ccb541589ed0bf39dc85815075d965c9a1cc060aad102989f914dc90",
          "transactionIndex": "0x1",
          "logIndex": "0x1",
          "removed": false
        },
        {
          "address": "0x2843c269d2a64ecfa63548e8b3fc0fd23b7f70cb",
          "topics": [
            "0x49628fd1471006c1482da88028e9ce4dbb080b815c9b0344d39e5a8e6ec1419f",
            "0x7491e070280a6eb11afe3c20fa1df03b36017ebf5e1fc0bab4af260566c69896",
            "0x0000000000000000000000002e2b1c42e38f5af81771e65d87729e57abd1337a",
            "0x0000000000000000000000000000000000000000000000000000000000000000"
          ],
          "data": "0x000000000000000000000000000000000000000000000000000000000000128100000000000000000000000000000000000000000000000000000000000000010000000000000000000000000000000000000000000000000000000000088d0e0000000000000000000000000000000000000000000000000000000000088d0e",
          "blockHash": "0xf2c84f55a535b92218abf3f8c7fdd14a4f25f377b8cabd51cbf97cd3db1ae013",
          "blockNumber": "0xbfc0a",
          "transactionHash": "0x1c1f4250ccb541589ed0bf39dc85815075d965c9a1cc060aad102989f914dc90",
          "transactionIndex": "0x1",
          "logIndex": "0x2",
          "removed": false
        }
      ],
      "logsBloom": "0x00000000000008000000000000000000000800000000000000000000800000000008000000000000000000010000000000000000000000000000020000040000000000000000000000000000000080000000000000040000000080000000000800000000020000000000000000000800002000000200000000000000000000000000000000000000000002000000800000000000000000000000000000001000000400000000000000400008000000000000000001000000000002000000000000000000000000100001000000000000000000000000000000000000000060000000000000010000000000000008000000000000000000000000000000010000",
      "type": "0x2",
      "transactionHash": "0x1c1f4250ccb541589ed0bf39dc85815075d965c9a1cc060aad102989f914dc90",
      "transactionIndex": "0x1",
      "blockHash": "0xf2c84f55a535b92218abf3f8c7fdd14a4f25f377b8cabd51cbf97cd3db1ae013",
      "blockNumber": "0xbfc0a",
      "gasUsed": "0x2fc61",
      "effectiveGasPrice": "0x5f5e100",
      "from": "0x660ad4b5a74130a4796b4d54bc6750ae93c86e6c",
      "to": "0x2843c269d2a64ecfa63548e8b3fc0fd23b7f70cb",
      "contractAddress": null,
      "gasUsedForL1": "0x74b",
      "l1BlockNumber": "0x1520b59"
    },
    {
      "status": "0x1",
      "cumulativeGasUsed": "0x2fc19",
      "logs": [
        {
          "address": "0x2843c269d2a64ecfa63548e8b3fc0fd23b7f70cb",
          "topics": [
            "0xbb47ee3e183a558b1a2ff0874b079f3fc5478b7454eacf2bfc5af2ff5878f972"
          ],
          "data": "0x",
          "blockHash": "0xa8a081832a29c472aff193f99bdb655283bbddb3a775f121a1a4657492804bed",
          "blockNumber": "0xbfc0b",
          "transactionHash": "0xe3243d738c48f7bcd9f2b26160ae55a7ea455ceaf6a1f3e3b294015b99062a45",
          "transactionIndex": "0x1",
          "logIndex": "0x0",
          "removed": false
        },
        {
          "address": "0xacc000818e5bbd911d5d449aa81cb5ca24024739",
          "topics": [
            "0x82a2da5dee54ea8021c6545b4444620291e07ee83be6dd57edb175062715f3b4",
            "0x62d4f9252894204088abbb251d9eb3f66b47459f8151390f3152ce5d0d0b189f",
            "0x0000000000000000000000000000000000000000000000000000000000000001"
          ],
          "data": "0x0000000000000000000000000000000000000000000000000000000067f6af670000000000000000000000002e2b1c42e38f5af81771e65d87729e57abd1337a000000000000000000000000acc000818e5bbd911d5d449aa81cb5ca2402473900000000000000000000000000000000000000000000000000000000000000800000000000000000000000000000000000000000000000000000000000000084853551b800000000000000000000000000000000000000000000000007d8641643fe2cba0000000000000000000000000000000000000000000000000000000000000040000000000000000000000000000000000000000000000000000000000000000f53414e4354494f4e45525f524f4c45000000000000000000000000000000000000000000000000000000000000000000000000000000000000000000",
          "blockHash": "0xa8a081832a29c472aff193f99bdb655283bbddb3a775f121a1a4657492804bed",
          "blockNumber": "0xbfc0b",
          "transactionHash": "0xe3243d738c48f7bcd9f2b26160ae55a7ea455ceaf6a1f3e3b294015b99062a45",
          "transactionIndex": "0x1",
          "logIndex": "0x1",
          "removed": false
        },
        {
          "address": "0x2843c269d2a64ecfa63548e8b3fc0fd23b7f70cb",
          "topics": [
            "0x49628fd1471006c1482da88028e9ce4dbb080b815c9b0344d39e5a8e6ec1419f",
            "0xa11795401cb1a01155351aa2d06e757b7dd87b8fba68c2292cba4c9eaccd3437",
            "0x0000000000000000000000002e2b1c42e38f5af81771e65d87729e57abd1337a",
            "0x0000000000000000000000000000000000000000000000000000000000000000"
          ],
          "data": "0x000000000000000000000000000000000000000000000000000000000000128200000000000000000000000000000000000000000000000000000000000000010000000000000000000000000000000000000000000000000000000000088d0e0000000000000000000000000000000000000000000000000000000000088d0e",
          "blockHash": "0xa8a081832a29c472aff193f99bdb655283bbddb3a775f121a1a4657492804bed",
          "blockNumber": "0xbfc0b",
          "transactionHash": "0xe3243d738c48f7bcd9f2b26160ae55a7ea455ceaf6a1f3e3b294015b99062a45",
          "transactionIndex": "0x1",
          "logIndex": "0x2",
          "removed": false
        }
      ],
      "logsBloom": "0x00080000000008000000000000000004000800000000000000000000000001000008000000000000000000010000000000000000000000000000020000040000000000000000000000000000000000000000000000040000000000000000000800000000020000000000000000000800002000000000000000000000400000000000000000000000000002000000800000000000000000000000000000001000000400000000000000400008000200000000000001000000000002000000000000000000000000100001000000000000000000000000000000000000100060000000000000010000000000000000000000000000000000000000000000000000",
      "type": "0x2",
      "transactionHash": "0xe3243d738c48f7bcd9f2b26160ae55a7ea455ceaf6a1f3e3b294015b99062a45",
      "transactionIndex": "0x1",
      "blockHash": "0xa8a081832a29c472aff193f99bdb655283bbddb3a775f121a1a4657492804bed",
      "blockNumber": "0xbfc0b",
      "gasUsed": "0x2fc19",
      "effectiveGasPrice": "0x5f5e100",
      "from": "0x660ad4b5a74130a4796b4d54bc6750ae93c86e6c",
      "to": "0x2843c269d2a64ecfa63548e8b3fc0fd23b7f70cb",
      "contractAddress": null,
      "gasUsedForL1": "0x74b",
      "l1BlockNumber": "0x1520b59"
    },
    {
      "status": "0x1",
      "cumulativeGasUsed": "0x30b5e",
      "logs": [
        {
          "address": "0x2843c269d2a64ecfa63548e8b3fc0fd23b7f70cb",
          "topics": [
            "0xbb47ee3e183a558b1a2ff0874b079f3fc5478b7454eacf2bfc5af2ff5878f972"
          ],
          "data": "0x",
          "blockHash": "0x7aefbb0ec33bb860aadc1c63aa500f31edbf79f9687def4dba898d6c75d95cca",
          "blockNumber": "0xbfc0c",
          "transactionHash": "0x79b601a5839717d9824c6bc0c508e187dead29bac38b9bff38036a2845fd5e63",
          "transactionIndex": "0x1",
          "logIndex": "0x0",
          "removed": false
        },
        {
          "address": "0xacc000818e5bbd911d5d449aa81cb5ca24024739",
          "topics": [
            "0x82a2da5dee54ea8021c6545b4444620291e07ee83be6dd57edb175062715f3b4",
            "0x18198983d32863dcc0dbdc5fbaf362b9e46652dae6c457956e761db4b87b8e4e",
            "0x0000000000000000000000000000000000000000000000000000000000000001"
          ],
          "data": "0x0000000000000000000000000000000000000000000000000000000067f6af680000000000000000000000002e2b1c42e38f5af81771e65d87729e57abd1337a000000000000000000000000acc000818e5bbd911d5d449aa81cb5ca24024739000000000000000000000000000000000000000000000000000000000000008000000000000000000000000000000000000000000000000000000000000000a408d6122d0000000000000000000000008a4720488ca32f1223ccfe5a087e250fe3bc5d750000000000000000000000000000000000000000000000000000000000000060000000000000000000000000000000000000000000000000273c0248976abc550000000000000000000000000000000000000000000000000000000000000001456cf4920000000000000000000000000000000000000000000000000000000000000000000000000000000000000000000000000000000000000000",
          "blockHash": "0x7aefbb0ec33bb860aadc1c63aa500f31edbf79f9687def4dba898d6c75d95cca",
          "blockNumber": "0xbfc0c",
          "transactionHash": "0x79b601a5839717d9824c6bc0c508e187dead29bac38b9bff38036a2845fd5e63",
          "transactionIndex": "0x1",
          "logIndex": "0x1",
          "removed": false
        },
        {
          "address": "0x2843c269d2a64ecfa63548e8b3fc0fd23b7f70cb",
          "topics": [
            "0x49628fd1471006c1482da88028e9ce4dbb080b815c9b0344d39e5a8e6ec1419f",
            "0x80ecaf8ae5c36087a2a3ccfd4776c0fe167f1c147fd19fb72f02a2a92508189a",
            "0x0000000000000000000000002e2b1c42e38f5af81771e65d87729e57abd1337a",
            "0x0000000000000000000000000000000000000000000000000000000000000000"
          ],
          "data": "0x0000000000000000000000000000000000000000000000000000000000001283000000000000000000000000000000000000000000000000000000000000000100000000000000000000000000000000000000000000000000000000000899ec00000000000000000000000000000000000000000000000000000000000899ec",
          "blockHash": "0x7aefbb0ec33bb860aadc1c63aa500f31edbf79f9687def4dba898d6c75d95cca",
          "blockNumber": "0xbfc0c",
          "transactionHash": "0x79b601a5839717d9824c6bc0c508e187dead29bac38b9bff38036a2845fd5e63",
          "transactionIndex": "0x1",
          "logIndex": "0x2",
          "removed": false
        }
      ],
      "logsBloom": "0x00000000000008000000000000000000000800000000000000000000200000080008000000000000000000010000000000000000000000000000020000040000000000000000000000000000000000000000000000040000000000000000000800000000020000000000000000000800002000000000000000000000000000000000000000000000000002000000800000000000000000000000000000001004000400000000000000400008000000400002000001000000000002000000000000000000000000100001000000000000000000000000000000000000000060000000000000010000000000000000000000040000000000000000000000000000",
      "type": "0x2",
      "transactionHash": "0x79b601a5839717d9824c6bc0c508e187dead29bac38b9bff38036a2845fd5e63",
      "transactionIndex": "0x1",
      "blockHash": "0x7aefbb0ec33bb860aadc1c63aa500f31edbf79f9687def4dba898d6c75d95cca",
      "blockNumber": "0xbfc0c",
      "gasUsed": "0x30b5e",
      "effectiveGasPrice": "0x5f5e100",
      "from": "0x660ad4b5a74130a4796b4d54bc6750ae93c86e6c",
      "to": "0x2843c269d2a64ecfa63548e8b3fc0fd23b7f70cb",
      "contractAddress": null,
      "gasUsedForL1": "0x75e",
      "l1BlockNumber": "0x1520b59"
    },
    {
      "status": "0x1",
      "cumulativeGasUsed": "0x30b5d",
      "logs": [
        {
          "address": "0x2843c269d2a64ecfa63548e8b3fc0fd23b7f70cb",
          "topics": [
            "0xbb47ee3e183a558b1a2ff0874b079f3fc5478b7454eacf2bfc5af2ff5878f972"
          ],
          "data": "0x",
          "blockHash": "0x9e306b8dde0495e31d67dbba375cf5e6c879fdd190fe338188ee4f179094def1",
          "blockNumber": "0xbfc0d",
          "transactionHash": "0xe704b8b70fd5ad231931e465cc874398e6304faee2e10c8af33ff3ab9c2b8694",
          "transactionIndex": "0x1",
          "logIndex": "0x0",
          "removed": false
        },
        {
          "address": "0xacc000818e5bbd911d5d449aa81cb5ca24024739",
          "topics": [
            "0x82a2da5dee54ea8021c6545b4444620291e07ee83be6dd57edb175062715f3b4",
            "0x1180e76c68ad305ca046e644a97adb50f9b79684c420e10fbd71a5b941badea5",
            "0x0000000000000000000000000000000000000000000000000000000000000001"
          ],
          "data": "0x0000000000000000000000000000000000000000000000000000000067f6af680000000000000000000000002e2b1c42e38f5af81771e65d87729e57abd1337a000000000000000000000000acc000818e5bbd911d5d449aa81cb5ca24024739000000000000000000000000000000000000000000000000000000000000008000000000000000000000000000000000000000000000000000000000000000a408d6122d000000000000000000000000f369f78e3a0492cc4e96a90dae0728a38498e9c7000000000000000000000000000000000000000000000000000000000000006000000000000000000000000000000000000000000000000007d8641643fe2cba0000000000000000000000000000000000000000000000000000000000000001fb0b29400000000000000000000000000000000000000000000000000000000000000000000000000000000000000000000000000000000000000000",
          "blockHash": "0x9e306b8dde0495e31d67dbba375cf5e6c879fdd190fe338188ee4f179094def1",
          "blockNumber": "0xbfc0d",
          "transactionHash": "0xe704b8b70fd5ad231931e465cc874398e6304faee2e10c8af33ff3ab9c2b8694",
          "transactionIndex": "0x1",
          "logIndex": "0x1",
          "removed": false
        },
        {
          "address": "0x2843c269d2a64ecfa63548e8b3fc0fd23b7f70cb",
          "topics": [
            "0x49628fd1471006c1482da88028e9ce4dbb080b815c9b0344d39e5a8e6ec1419f",
            "0xfbe146b0f2ee6e4e82d2687ce82697376164f5b0eb1ceca2c40df6a8dc8596ae",
            "0x0000000000000000000000002e2b1c42e38f5af81771e65d87729e57abd1337a",
            "0x0000000000000000000000000000000000000000000000000000000000000000"
          ],
          "data": "0x0000000000000000000000000000000000000000000000000000000000001284000000000000000000000000000000000000000000000000000000000000000100000000000000000000000000000000000000000000000000000000000899ec00000000000000000000000000000000000000000000000000000000000899ec",
          "blockHash": "0x9e306b8dde0495e31d67dbba375cf5e6c879fdd190fe338188ee4f179094def1",
          "blockNumber": "0xbfc0d",
          "transactionHash": "0xe704b8b70fd5ad231931e465cc874398e6304faee2e10c8af33ff3ab9c2b8694",
          "transactionIndex": "0x1",
          "logIndex": "0x2",
          "removed": false
        }
      ],
      "logsBloom": "0x00000000000008000000000000000000000800000000000000000000000000000008000000000000000000010000000000000000000000000000020000040000040000000000000000000000000000000000000000040000000000000000000800000000020000000000000000000800006000000000000000000000000000000000000000000000000002000000800000000000000000000000000000001000000400000000000000400008400000000000000001000000000002000000000002000000000000100001000000000000000000000000000000000000000060000000000000410000000000000000000000000000000000000004000000000000",
      "type": "0x2",
      "transactionHash": "0xe704b8b70fd5ad231931e465cc874398e6304faee2e10c8af33ff3ab9c2b8694",
      "transactionIndex": "0x1",
      "blockHash": "0x9e306b8dde0495e31d67dbba375cf5e6c879fdd190fe338188ee4f179094def1",
      "blockNumber": "0xbfc0d",
      "gasUsed": "0x30b5d",
      "effectiveGasPrice": "0x5f5e100",
      "from": "0x660ad4b5a74130a4796b4d54bc6750ae93c86e6c",
      "to": "0x2843c269d2a64ecfa63548e8b3fc0fd23b7f70cb",
      "contractAddress": null,
      "gasUsedForL1": "0x751",
      "l1BlockNumber": "0x1520b59"
    },
    {
      "status": "0x1",
      "cumulativeGasUsed": "0x2ac3c",
      "logs": [
        {
          "address": "0x2843c269d2a64ecfa63548e8b3fc0fd23b7f70cb",
          "topics": [
            "0xbb47ee3e183a558b1a2ff0874b079f3fc5478b7454eacf2bfc5af2ff5878f972"
          ],
          "data": "0x",
          "blockHash": "0x042f2942321538fdb8d5788a9337cc61f9e3622b6512108aba2c4be23be57bd8",
          "blockNumber": "0xbfc0e",
          "transactionHash": "0x48de617cdcffef779548e384aef888b18d5b7ed4224273510035b222153d631e",
          "transactionIndex": "0x1",
          "logIndex": "0x0",
          "removed": false
        },
        {
          "address": "0x2843c269d2a64ecfa63548e8b3fc0fd23b7f70cb",
          "topics": [
            "0x1c4fada7374c0a9ee8841fc38afe82932dc0f8e69012e927f061a8bae611a201",
            "0x72ed712cf24d8aca8fdce8e3e2ad0aed8595b5829b42da5df46af870b563cbc4",
            "0x0000000000000000000000002e2b1c42e38f5af81771e65d87729e57abd1337a"
          ],
          "data": "0x00000000000000000000000000000000000000000000000000000000000012850000000000000000000000000000000000000000000000000000000000000040000000000000000000000000000000000000000000000000000000000000002418cb6b7a18198983d32863dcc0dbdc5fbaf362b9e46652dae6c457956e761db4b87b8e4e00000000000000000000000000000000000000000000000000000000",
          "blockHash": "0x042f2942321538fdb8d5788a9337cc61f9e3622b6512108aba2c4be23be57bd8",
          "blockNumber": "0xbfc0e",
          "transactionHash": "0x48de617cdcffef779548e384aef888b18d5b7ed4224273510035b222153d631e",
          "transactionIndex": "0x1",
          "logIndex": "0x1",
          "removed": false
        },
        {
          "address": "0x2843c269d2a64ecfa63548e8b3fc0fd23b7f70cb",
          "topics": [
            "0x49628fd1471006c1482da88028e9ce4dbb080b815c9b0344d39e5a8e6ec1419f",
            "0x72ed712cf24d8aca8fdce8e3e2ad0aed8595b5829b42da5df46af870b563cbc4",
            "0x0000000000000000000000002e2b1c42e38f5af81771e65d87729e57abd1337a",
            "0x0000000000000000000000000000000000000000000000000000000000000000"
          ],
          "data": "0x0000000000000000000000000000000000000000000000000000000000001285000000000000000000000000000000000000000000000000000000000000000000000000000000000000000000000000000000000000000000000000000844b800000000000000000000000000000000000000000000000000000000000844b8",
          "blockHash": "0x042f2942321538fdb8d5788a9337cc61f9e3622b6512108aba2c4be23be57bd8",
          "blockNumber": "0xbfc0e",
          "transactionHash": "0x48de617cdcffef779548e384aef888b18d5b7ed4224273510035b222153d631e",
          "transactionIndex": "0x1",
          "logIndex": "0x2",
          "removed": false
        }
      ],
      "logsBloom": "0x000000000000000000000000000000000000000000000008000000000000000000080000000000000000000100000000000000000000000000000200000000000000000000000000000000000000000000000000000000000000000000400008000000000a0000000200000000000800002000000000000000000000000000000000000000000000000000000000800000000000000000000000000000000000000400000000000000400000000000000000000000000000000002000000000000000010000000100001000000000000000000000000000000000000000020000000000001010000000000000000000000000000000000000000000000000000",
      "type": "0x2",
      "transactionHash": "0x48de617cdcffef779548e384aef888b18d5b7ed4224273510035b222153d631e",
      "transactionIndex": "0x1",
      "blockHash": "0x042f2942321538fdb8d5788a9337cc61f9e3622b6512108aba2c4be23be57bd8",
      "blockNumber": "0xbfc0e",
      "gasUsed": "0x2ac3c",
      "effectiveGasPrice": "0x5f5e100",
      "from": "0x660ad4b5a74130a4796b4d54bc6750ae93c86e6c",
      "to": "0x2843c269d2a64ecfa63548e8b3fc0fd23b7f70cb",
      "contractAddress": null,
      "gasUsedForL1": "0x771",
      "l1BlockNumber": "0x1520b59"
    },
    {
      "status": "0x1",
      "cumulativeGasUsed": "0x2ac1e",
      "logs": [
        {
          "address": "0x2843c269d2a64ecfa63548e8b3fc0fd23b7f70cb",
          "topics": [
            "0xbb47ee3e183a558b1a2ff0874b079f3fc5478b7454eacf2bfc5af2ff5878f972"
          ],
          "data": "0x",
          "blockHash": "0xcf19bca1ba309c800773b8ffb83a3ce636ecfc658f5fe1fb49c8554c6acf7c29",
          "blockNumber": "0xbfc0f",
          "transactionHash": "0x3a8984b2e94676ebc77e52673e86f0a181945b3774bdbb2f52ccb1d2b714ac8e",
          "transactionIndex": "0x1",
          "logIndex": "0x0",
          "removed": false
        },
        {
          "address": "0x2843c269d2a64ecfa63548e8b3fc0fd23b7f70cb",
          "topics": [
            "0x1c4fada7374c0a9ee8841fc38afe82932dc0f8e69012e927f061a8bae611a201",
            "0x8e1837eb946d877f9104e2b4b80421bc0464046d7ac7adaa78b5d5b4010f6218",
            "0x0000000000000000000000002e2b1c42e38f5af81771e65d87729e57abd1337a"
          ],
          "data": "0x00000000000000000000000000000000000000000000000000000000000012860000000000000000000000000000000000000000000000000000000000000040000000000000000000000000000000000000000000000000000000000000002418cb6b7a1180e76c68ad305ca046e644a97adb50f9b79684c420e10fbd71a5b941badea500000000000000000000000000000000000000000000000000000000",
          "blockHash": "0xcf19bca1ba309c800773b8ffb83a3ce636ecfc658f5fe1fb49c8554c6acf7c29",
          "blockNumber": "0xbfc0f",
          "transactionHash": "0x3a8984b2e94676ebc77e52673e86f0a181945b3774bdbb2f52ccb1d2b714ac8e",
          "transactionIndex": "0x1",
          "logIndex": "0x1",
          "removed": false
        },
        {
          "address": "0x2843c269d2a64ecfa63548e8b3fc0fd23b7f70cb",
          "topics": [
            "0x49628fd1471006c1482da88028e9ce4dbb080b815c9b0344d39e5a8e6ec1419f",
            "0x8e1837eb946d877f9104e2b4b80421bc0464046d7ac7adaa78b5d5b4010f6218",
            "0x0000000000000000000000002e2b1c42e38f5af81771e65d87729e57abd1337a",
            "0x0000000000000000000000000000000000000000000000000000000000000000"
          ],
          "data": "0x0000000000000000000000000000000000000000000000000000000000001286000000000000000000000000000000000000000000000000000000000000000000000000000000000000000000000000000000000000000000000000000844b800000000000000000000000000000000000000000000000000000000000844b8",
          "blockHash": "0xcf19bca1ba309c800773b8ffb83a3ce636ecfc658f5fe1fb49c8554c6acf7c29",
          "blockNumber": "0xbfc0f",
          "transactionHash": "0x3a8984b2e94676ebc77e52673e86f0a181945b3774bdbb2f52ccb1d2b714ac8e",
          "transactionIndex": "0x1",
          "logIndex": "0x2",
          "removed": false
        }
      ],
      "logsBloom": "0x000000000000000000000000000000000000000000000000000000000000000000080000000000000000000100080000000000000000000000000200000000000000000000000000000000000000000000000000008000000000000000400008000000000a0000000000000000000800002000000000000000000000000000000000000000000000000000000000800000000000000000000000000000000000000400000000000000400000000000000000000000000020000002000000000000000000000000100001000000000000000000000000000000000000000020000000000001010000000000000000000000000000000000000000000000000000",
      "type": "0x2",
      "transactionHash": "0x3a8984b2e94676ebc77e52673e86f0a181945b3774bdbb2f52ccb1d2b714ac8e",
      "transactionIndex": "0x1",
      "blockHash": "0xcf19bca1ba309c800773b8ffb83a3ce636ecfc658f5fe1fb49c8554c6acf7c29",
      "blockNumber": "0xbfc0f",
      "gasUsed": "0x2ac1e",
      "effectiveGasPrice": "0x5f5e100",
      "from": "0x660ad4b5a74130a4796b4d54bc6750ae93c86e6c",
      "to": "0x2843c269d2a64ecfa63548e8b3fc0fd23b7f70cb",
      "contractAddress": null,
      "gasUsedForL1": "0x76b",
      "l1BlockNumber": "0x1520b59"
    },
    {
      "status": "0x1",
      "cumulativeGasUsed": "0x30536",
      "logs": [
        {
          "address": "0x2843c269d2a64ecfa63548e8b3fc0fd23b7f70cb",
          "topics": [
            "0xbb47ee3e183a558b1a2ff0874b079f3fc5478b7454eacf2bfc5af2ff5878f972"
          ],
          "data": "0x",
          "blockHash": "0x3c98f8b52212cfaf105464bf96f0d41ed18a236d2d99aae619e6a989da48d0b5",
          "blockNumber": "0xbfc10",
          "transactionHash": "0xf73d0cdd7d2fbae35cc93e2edfda27862f20c3a1f3d71168c993914db98fb4e1",
          "transactionIndex": "0x1",
          "logIndex": "0x0",
          "removed": false
        },
        {
          "address": "0xacc000818e5bbd911d5d449aa81cb5ca24024739",
          "topics": [
            "0x82a2da5dee54ea8021c6545b4444620291e07ee83be6dd57edb175062715f3b4",
            "0xdc3e209a2fe4bae73e8fa0e602f61b887a4e123a18319283c3535622c64980f9",
            "0x0000000000000000000000000000000000000000000000000000000000000001"
          ],
          "data": "0x0000000000000000000000000000000000000000000000000000000067f6af6a0000000000000000000000002e2b1c42e38f5af81771e65d87729e57abd1337a000000000000000000000000acc000818e5bbd911d5d449aa81cb5ca240247390000000000000000000000000000000000000000000000000000000000000080000000000000000000000000000000000000000000000000000000000000006425c471a0000000000000000000000000000000000000000000000000273c0248976abc550000000000000000000000002e2b1c42e38f5af81771e65d87729e57abd1337a000000000000000000000000000000000000000000000000000000000000000000000000000000000000000000000000000000000000000000000000",
          "blockHash": "0x3c98f8b52212cfaf105464bf96f0d41ed18a236d2d99aae619e6a989da48d0b5",
          "blockNumber": "0xbfc10",
          "transactionHash": "0xf73d0cdd7d2fbae35cc93e2edfda27862f20c3a1f3d71168c993914db98fb4e1",
          "transactionIndex": "0x1",
          "logIndex": "0x1",
          "removed": false
        },
        {
          "address": "0x2843c269d2a64ecfa63548e8b3fc0fd23b7f70cb",
          "topics": [
            "0x49628fd1471006c1482da88028e9ce4dbb080b815c9b0344d39e5a8e6ec1419f",
            "0x656ced2c2b0801449a5f952f517531c8dd0f0696ca90241594e9eddc8b153ffe",
            "0x0000000000000000000000002e2b1c42e38f5af81771e65d87729e57abd1337a",
            "0x0000000000000000000000000000000000000000000000000000000000000000"
          ],
          "data": "0x0000000000000000000000000000000000000000000000000000000000001287000000000000000000000000000000000000000000000000000000000000000100000000000000000000000000000000000000000000000000000000000895ed00000000000000000000000000000000000000000000000000000000000895ed",
          "blockHash": "0x3c98f8b52212cfaf105464bf96f0d41ed18a236d2d99aae619e6a989da48d0b5",
          "blockNumber": "0xbfc10",
          "transactionHash": "0xf73d0cdd7d2fbae35cc93e2edfda27862f20c3a1f3d71168c993914db98fb4e1",
          "transactionIndex": "0x1",
          "logIndex": "0x2",
          "removed": false
        }
      ],
      "logsBloom": "0x00000000000008000000000000000000000800040000000000000000000000000008000000000000000000010004000000000002000000000000020000040000000000040000000000000000000000000000000000040000000000000000000800000000020000000000000000000800002000000000000000000000000000000000000000000000000002000000800000000000000000000000000000001000000400000000000000400008000000000000000001000000000002000000000000000000000000100001000000000000000000000000000000000000000060000000000000010000000000000000000000000000000000000000000200020000",
      "type": "0x2",
      "transactionHash": "0xf73d0cdd7d2fbae35cc93e2edfda27862f20c3a1f3d71168c993914db98fb4e1",
      "transactionIndex": "0x1",
      "blockHash": "0x3c98f8b52212cfaf105464bf96f0d41ed18a236d2d99aae619e6a989da48d0b5",
      "blockNumber": "0xbfc10",
      "gasUsed": "0x30536",
      "effectiveGasPrice": "0x5f5e100",
      "from": "0x660ad4b5a74130a4796b4d54bc6750ae93c86e6c",
      "to": "0x2843c269d2a64ecfa63548e8b3fc0fd23b7f70cb",
      "contractAddress": null,
      "gasUsedForL1": "0x6fb",
      "l1BlockNumber": "0x1520b59"
    },
    {
      "status": "0x1",
      "cumulativeGasUsed": "0x30565",
      "logs": [
        {
          "address": "0x2843c269d2a64ecfa63548e8b3fc0fd23b7f70cb",
          "topics": [
            "0xbb47ee3e183a558b1a2ff0874b079f3fc5478b7454eacf2bfc5af2ff5878f972"
          ],
          "data": "0x",
          "blockHash": "0xaa9f6696f958f1f36193169f1c6b6c9ae541071b8ebeef239412ec121bd2ee92",
          "blockNumber": "0xbfc11",
          "transactionHash": "0xe806ab5b9d1d0b385e7d6cbcbf1b990871b271bd3bd68c3abf9dc96eea2e5555",
          "transactionIndex": "0x1",
          "logIndex": "0x0",
          "removed": false
        },
        {
          "address": "0xacc000818e5bbd911d5d449aa81cb5ca24024739",
          "topics": [
            "0x82a2da5dee54ea8021c6545b4444620291e07ee83be6dd57edb175062715f3b4",
            "0xa148a26d04bda6140c756b460fb9e37aecd93c69443af9f523d113d8593f8163",
            "0x0000000000000000000000000000000000000000000000000000000000000001"
          ],
          "data": "0x0000000000000000000000000000000000000000000000000000000067f6af6b0000000000000000000000002e2b1c42e38f5af81771e65d87729e57abd1337a000000000000000000000000acc000818e5bbd911d5d449aa81cb5ca240247390000000000000000000000000000000000000000000000000000000000000080000000000000000000000000000000000000000000000000000000000000006425c471a000000000000000000000000000000000000000000000000007d8641643fe2cba00000000000000000000000028fc10e12a78f986c78f973fc70ed88072b34c8e000000000000000000000000000000000000000000000000000000000000000000000000000000000000000000000000000000000000000000000000",
          "blockHash": "0xaa9f6696f958f1f36193169f1c6b6c9ae541071b8ebeef239412ec121bd2ee92",
          "blockNumber": "0xbfc11",
          "transactionHash": "0xe806ab5b9d1d0b385e7d6cbcbf1b990871b271bd3bd68c3abf9dc96eea2e5555",
          "transactionIndex": "0x1",
          "logIndex": "0x1",
          "removed": false
        },
        {
          "address": "0x2843c269d2a64ecfa63548e8b3fc0fd23b7f70cb",
          "topics": [
            "0x49628fd1471006c1482da88028e9ce4dbb080b815c9b0344d39e5a8e6ec1419f",
            "0x36cc3f9d4f503e7cb178da19f6258577d0b841d2cc70a87289472b13cc95f260",
            "0x0000000000000000000000002e2b1c42e38f5af81771e65d87729e57abd1337a",
            "0x0000000000000000000000000000000000000000000000000000000000000000"
          ],
          "data": "0x0000000000000000000000000000000000000000000000000000000000001288000000000000000000000000000000000000000000000000000000000000000100000000000000000000000000000000000000000000000000000000000895ed00000000000000000000000000000000000000000000000000000000000895ed",
          "blockHash": "0xaa9f6696f958f1f36193169f1c6b6c9ae541071b8ebeef239412ec121bd2ee92",
          "blockNumber": "0xbfc11",
          "transactionHash": "0xe806ab5b9d1d0b385e7d6cbcbf1b990871b271bd3bd68c3abf9dc96eea2e5555",
          "transactionIndex": "0x1",
          "logIndex": "0x2",
          "removed": false
        }
      ],
      "logsBloom": "0x00000000000008000000000000000000000800080000000000000000000000000008000000000000000000010000000000000000000000000000020000040000040000000000000000000000040000000000000000040000000000000000000800000000020000000000000000000800002000000000000000000000000000000000000000000000000002000000800000000000000000000000000000001000000400000000000000400008000000000000000001000000000002000000000000000000000000100001000000000000400000000000000000000000000060000000000000010000000001000000000000000000000000000000040000000000",
      "type": "0x2",
      "transactionHash": "0xe806ab5b9d1d0b385e7d6cbcbf1b990871b271bd3bd68c3abf9dc96eea2e5555",
      "transactionIndex": "0x1",
      "blockHash": "0xaa9f6696f958f1f36193169f1c6b6c9ae541071b8ebeef239412ec121bd2ee92",
      "blockNumber": "0xbfc11",
      "gasUsed": "0x30565",
      "effectiveGasPrice": "0x5f5e100",
      "from": "0x660ad4b5a74130a4796b4d54bc6750ae93c86e6c",
      "to": "0x2843c269d2a64ecfa63548e8b3fc0fd23b7f70cb",
      "contractAddress": null,
      "gasUsedForL1": "0x71e",
      "l1BlockNumber": "0x1520b59"
    },
    {
      "status": "0x1",
      "cumulativeGasUsed": "0x2a7f6",
      "logs": [
        {
          "address": "0x2843c269d2a64ecfa63548e8b3fc0fd23b7f70cb",
          "topics": [
            "0xbb47ee3e183a558b1a2ff0874b079f3fc5478b7454eacf2bfc5af2ff5878f972"
          ],
          "data": "0x",
          "blockHash": "0xe30e5ecae9ef8a82a386106c729fcd306cdab125ee93e2890ec8a3369ca23ed0",
          "blockNumber": "0xbfc12",
          "transactionHash": "0x3ef82a20a0f8aab57fe938320ac94f60caaf90897aa95f2949e39e5db0a5ae55",
          "transactionIndex": "0x1",
          "logIndex": "0x0",
          "removed": false
        },
        {
          "address": "0x2843c269d2a64ecfa63548e8b3fc0fd23b7f70cb",
          "topics": [
            "0x1c4fada7374c0a9ee8841fc38afe82932dc0f8e69012e927f061a8bae611a201",
            "0x3940e5a961a692bde9c377b45012618ee490ae69c0af9fbc3076c42eb4d47464",
            "0x0000000000000000000000002e2b1c42e38f5af81771e65d87729e57abd1337a"
          ],
          "data": "0x00000000000000000000000000000000000000000000000000000000000012890000000000000000000000000000000000000000000000000000000000000040000000000000000000000000000000000000000000000000000000000000002418cb6b7adc3e209a2fe4bae73e8fa0e602f61b887a4e123a18319283c3535622c64980f900000000000000000000000000000000000000000000000000000000",
          "blockHash": "0xe30e5ecae9ef8a82a386106c729fcd306cdab125ee93e2890ec8a3369ca23ed0",
          "blockNumber": "0xbfc12",
          "transactionHash": "0x3ef82a20a0f8aab57fe938320ac94f60caaf90897aa95f2949e39e5db0a5ae55",
          "transactionIndex": "0x1",
          "logIndex": "0x1",
          "removed": false
        },
        {
          "address": "0x2843c269d2a64ecfa63548e8b3fc0fd23b7f70cb",
          "topics": [
            "0x49628fd1471006c1482da88028e9ce4dbb080b815c9b0344d39e5a8e6ec1419f",
            "0x3940e5a961a692bde9c377b45012618ee490ae69c0af9fbc3076c42eb4d47464",
            "0x0000000000000000000000002e2b1c42e38f5af81771e65d87729e57abd1337a",
            "0x0000000000000000000000000000000000000000000000000000000000000000"
          ],
          "data": "0x0000000000000000000000000000000000000000000000000000000000001289000000000000000000000000000000000000000000000000000000000000000000000000000000000000000000000000000000000000000000000000000842920000000000000000000000000000000000000000000000000000000000084292",
          "blockHash": "0xe30e5ecae9ef8a82a386106c729fcd306cdab125ee93e2890ec8a3369ca23ed0",
          "blockNumber": "0xbfc12",
          "transactionHash": "0x3ef82a20a0f8aab57fe938320ac94f60caaf90897aa95f2949e39e5db0a5ae55",
          "transactionIndex": "0x1",
          "logIndex": "0x2",
          "removed": false
        }
      ],
      "logsBloom": "0x000000000000000000000010000000000000000000000000000000000000000000480000000000000000000100000000000100000000000000000200000000000000000000000000000000000000000000000000000000000000000000400008000000000a0000000000000000000800002000000000000000000000000000000000000000000000000000000000800000000000000000000000000000000000000400000000000000400000000000000000000000000000000002000000000000000000000000100001000000000000000000000000000000000000000020000000000001010000000000000000000000000000000000000000000000000000",
      "type": "0x2",
      "transactionHash": "0x3ef82a20a0f8aab57fe938320ac94f60caaf90897aa95f2949e39e5db0a5ae55",
      "transactionIndex": "0x1",
      "blockHash": "0xe30e5ecae9ef8a82a386106c729fcd306cdab125ee93e2890ec8a3369ca23ed0",
      "blockNumber": "0xbfc12",
      "gasUsed": "0x2a7f6",
      "effectiveGasPrice": "0x5f5e100",
      "from": "0x660ad4b5a74130a4796b4d54bc6750ae93c86e6c",
      "to": "0x2843c269d2a64ecfa63548e8b3fc0fd23b7f70cb",
      "contractAddress": null,
      "gasUsedForL1": "0x6ef",
      "l1BlockNumber": "0x1520b59"
    },
    {
      "status": "0x1",
      "cumulativeGasUsed": "0x2a832",
      "logs": [
        {
          "address": "0x2843c269d2a64ecfa63548e8b3fc0fd23b7f70cb",
          "topics": [
            "0xbb47ee3e183a558b1a2ff0874b079f3fc5478b7454eacf2bfc5af2ff5878f972"
          ],
          "data": "0x",
          "blockHash": "0xaa8d0ab051e1d445315a1ba76e7c62e349fe3f2697332c649b18a2efba35cad0",
          "blockNumber": "0xbfc13",
          "transactionHash": "0x79da18c7db772e0a0ad720cfd1d5cdba2ccd7cb04da02d0b9f1f2b0ac8856f11",
          "transactionIndex": "0x1",
          "logIndex": "0x0",
          "removed": false
        },
        {
          "address": "0x2843c269d2a64ecfa63548e8b3fc0fd23b7f70cb",
          "topics": [
            "0x1c4fada7374c0a9ee8841fc38afe82932dc0f8e69012e927f061a8bae611a201",
            "0xf669cb7e928ac72e0a7b9047b516d55db0d74835d6fd0cdfca0f1b7e08a736c8",
            "0x0000000000000000000000002e2b1c42e38f5af81771e65d87729e57abd1337a"
          ],
          "data": "0x000000000000000000000000000000000000000000000000000000000000128a0000000000000000000000000000000000000000000000000000000000000040000000000000000000000000000000000000000000000000000000000000002418cb6b7aa148a26d04bda6140c756b460fb9e37aecd93c69443af9f523d113d8593f816300000000000000000000000000000000000000000000000000000000",
          "blockHash": "0xaa8d0ab051e1d445315a1ba76e7c62e349fe3f2697332c649b18a2efba35cad0",
          "blockNumber": "0xbfc13",
          "transactionHash": "0x79da18c7db772e0a0ad720cfd1d5cdba2ccd7cb04da02d0b9f1f2b0ac8856f11",
          "transactionIndex": "0x1",
          "logIndex": "0x1",
          "removed": false
        },
        {
          "address": "0x2843c269d2a64ecfa63548e8b3fc0fd23b7f70cb",
          "topics": [
            "0x49628fd1471006c1482da88028e9ce4dbb080b815c9b0344d39e5a8e6ec1419f",
            "0xf669cb7e928ac72e0a7b9047b516d55db0d74835d6fd0cdfca0f1b7e08a736c8",
            "0x0000000000000000000000002e2b1c42e38f5af81771e65d87729e57abd1337a",
            "0x0000000000000000000000000000000000000000000000000000000000000000"
          ],
          "data": "0x000000000000000000000000000000000000000000000000000000000000128a000000000000000000000000000000000000000000000000000000000000000000000000000000000000000000000000000000000000000000000000000842920000000000000000000000000000000000000000000000000000000000084292",
          "blockHash": "0xaa8d0ab051e1d445315a1ba76e7c62e349fe3f2697332c649b18a2efba35cad0",
          "blockNumber": "0xbfc13",
          "transactionHash": "0x79da18c7db772e0a0ad720cfd1d5cdba2ccd7cb04da02d0b9f1f2b0ac8856f11",
          "transactionIndex": "0x1",
          "logIndex": "0x2",
          "removed": false
        }
      ],
      "logsBloom": "0x000000000000000000000000000000000000000000000000000000000000000000080000000000000000000100000000000000100000000000000200000000000000000000000000000000000000000000000000000000000000000000400008000000000a0000000000000000000800002000000000000000000000000020000000000000000000000000000000800000000000000000000000000000000000000400000000000000400000000000000000000000000000000002000000000000000000000000100001000000020000000000000000000000000000000020000000000001010000000000000000000000000000000000000000000000000000",
      "type": "0x2",
      "transactionHash": "0x79da18c7db772e0a0ad720cfd1d5cdba2ccd7cb04da02d0b9f1f2b0ac8856f11",
      "transactionIndex": "0x1",
      "blockHash": "0xaa8d0ab051e1d445315a1ba76e7c62e349fe3f2697332c649b18a2efba35cad0",
      "blockNumber": "0xbfc13",
      "gasUsed": "0x2a832",
      "effectiveGasPrice": "0x5f5e100",
      "from": "0x660ad4b5a74130a4796b4d54bc6750ae93c86e6c",
      "to": "0x2843c269d2a64ecfa63548e8b3fc0fd23b7f70cb",
      "contractAddress": null,
      "gasUsedForL1": "0x72b",
      "l1BlockNumber": "0x1520b59"
    }
  ],
  "libraries": [],
  "pending": [],
  "returns": {},
  "timestamp": 1743269613,
  "chain": 7887,
  "commit": "5e7860a9"
}