{
  "transactions": [
    {
      "hash": null,
      "transactionType": "CALL",
      "contractName": null,
      "contractAddress": "0x2843C269D2a64eCfA63548E8B3Fc0FD23B7F70cb",
      "function": "handleOps((address,uint256,bytes,bytes,uint256,uint256,uint256,uint256,uint256,bytes,bytes)[],address)",
      "arguments": [
        "[(0x2e2B1c42E38f5af81771e65D87729E57ABD1337a, 15, 0x, 0xb61d27f60000000000000000000000002c377958a3bcf3c6b3e5d521f4057950b3513557000000000000000000000000000000000000000000000000000000000000000000000000000000000000000000000000000000000000000000000000000000600000000000000000000000000000000000000000000000000000000000000024f2fde38b000000000000000000000000c1f4d15c16a1f3555e0a5f7aefd1e17ad4aaf40b00000000000000000000000000000000000000000000000000000000, 4000000, 210000, 21000, 1, 1000000000, 0x1842a4eff3efd24c50b63c3cf89cecee245fc2bd, 0xd8e713f7490b1524bb7657ddb3541917010928a95e4e233487c630ec961b0b374742043ef9d60da9b429919f9a7ecadebcff42ebcef130d0abd009d2b2602c911b)]",
        "0x660ad4B5A74130a4796B4d54BC6750Ae93C86e6c"
      ],
      "transaction": {
        "type": "0x02",
        "from": "0x660ad4b5a74130a4796b4d54bc6750ae93c86e6c",
        "to": "0x2843c269d2a64ecfa63548e8b3fc0fd23b7f70cb",
        "gas": "0x5264e",
        "value": "0x0",
        "data": "0x1fad948c0000000000000000000000000000000000000000000000000000000000000040000000000000000000000000660ad4b5a74130a4796b4d54bc6750ae93c86e6c000000000000000000000000000000000000000000000000000000000000000100000000000000000000000000000000000000000000000000000000000000200000000000000000000000002e2b1c42e38f5af81771e65d87729e57abd1337a000000000000000000000000000000000000000000000000000000000000000f0000000000000000000000000000000000000000000000000000000000000160000000000000000000000000000000000000000000000000000000000000018000000000000000000000000000000000000000000000000000000000003d0900000000000000000000000000000000000000000000000000000000000003345000000000000000000000000000000000000000000000000000000000000052080000000000000000000000000000000000000000000000000000000000000001000000000000000000000000000000000000000000000000000000003b9aca00000000000000000000000000000000000000000000000000000000000000028000000000000000000000000000000000000000000000000000000000000002c0000000000000000000000000000000000000000000000000000000000000000000000000000000000000000000000000000000000000000000000000000000c4b61d27f60000000000000000000000002c377958a3bcf3c6b3e5d521f4057950b3513557000000000000000000000000000000000000000000000000000000000000000000000000000000000000000000000000000000000000000000000000000000600000000000000000000000000000000000000000000000000000000000000024f2fde38b000000000000000000000000c1f4d15c16a1f3555e0a5f7aefd1e17ad4aaf40b000000000000000000000000000000000000000000000000000000000000000000000000000000000000000000000000000000000000000000000000000000000000000000000000000000000000000000000000000000141842a4eff3efd24c50b63c3cf89cecee245fc2bd0000000000000000000000000000000000000000000000000000000000000000000000000000000000000041d8e713f7490b1524bb7657ddb3541917010928a95e4e233487c630ec961b0b374742043ef9d60da9b429919f9a7ecadebcff42ebcef130d0abd009d2b2602c911b00000000000000000000000000000000000000000000000000000000000000",
        "nonce": "0x16cb",
        "accessList": []
      },
      "additionalContracts": [],
      "isFixedGasLimit": false
    }
  ],
  "receipts": [],
  "libraries": [],
  "pending": [],
  "returns": {},
  "timestamp": 1706819319,
  "chain": 7887,
  "multi": false,
  "commit": "ae6881e"
}