{
  "transactions": [
    {
      "hash": null,
      "transactionType": "CALL",
      "contractName": null,
      "contractAddress": "0x2843C269D2a64eCfA63548E8B3Fc0FD23B7F70cb",
      "function": "handleOps((address,uint256,bytes,bytes,uint256,uint256,uint256,uint256,uint256,bytes,bytes)[],address)",
      "arguments": [
        "[(0x2e2B1c42E38f5af81771e65D87729E57ABD1337a, 13, 0x, 0xb61d27f60000000000000000000000002e2b1c42e38f5af81771e65d87729e57abd1337a0000000000000000000000000000000000000000000000000000000000000000000000000000000000000000000000000000000000000000000000000000006000000000000000000000000000000000000000000000000000000000000000c45f9d23010000000000000000000000000000000000000000000000000000000000000040000000000000000000000000000000000000000000000000000000000000008000000000000000000000000000000000000000000000000000000000000000010000000000000000000000002c377958a3bcf3c6b3e5d521f4057950b35135570000000000000000000000000000000000000000000000000000000000000001000000000000000000000000000000000000000000000000000000000000000100000000000000000000000000000000000000000000000000000000, 4000000, 210000, 21000, 1, 1000000000, 0x1842a4eff3efd24c50b63c3cf89cecee245fc2bd, 0x937995ba959fccffa585b1b8bac34f4c582d4eb7bef42f1c2b93c5cec989518b2e572660ca1bddd0677fd49ce64c1d339779fe5144d846a5c4f4bcc8c924ad471b), (0x2e2B1c42E38f5af81771e65D87729E57ABD1337a, 14, 0x, 0xb61d27f60000000000000000000000002c377958a3bcf3c6b3e5d521f4057950b35135570000000000000000000000000000000000000000000000000000000000000000000000000000000000000000000000000000000000000000000000000000006000000000000000000000000000000000000000000000000000000000000000048129fc1c00000000000000000000000000000000000000000000000000000000, 4000000, 210000, 21000, 1, 1000000000, 0x1842a4eff3efd24c50b63c3cf89cecee245fc2bd, 0x40614963d67da4c38577bc02d46b5e4d6ec9321a7a1f703db13708dd1fd65f9d70be3a1ded353406b9eb80ed8ec03e8cf95a1519bc71182e0941b8c5a19112001b)]",
        "0xc1f4D15C16A1f3555E0a5F7AeFD1e17AD4aaf40B"
      ],
      "transaction": {
        "type": "0x02",
        "from": "0x660ad4b5a74130a4796b4d54bc6750ae93c86e6c",
        "to": "0x2843c269d2a64ecfa63548e8b3fc0fd23b7f70cb",
        "gas": "0x9221c",
        "value": "0x0",
        "data": "0x1fad948c0000000000000000000000000000000000000000000000000000000000000040000000000000000000000000c1f4d15c16a1f3555e0a5f7aefd1e17ad4aaf40b0000000000000000000000000000000000000000000000000000000000000002000000000000000000000000000000000000000000000000000000000000004000000000000000000000000000000000000000000000000000000000000004200000000000000000000000002e2b1c42e38f5af81771e65d87729e57abd1337a000000000000000000000000000000000000000000000000000000000000000d0000000000000000000000000000000000000000000000000000000000000160000000000000000000000000000000000000000000000000000000000000018000000000000000000000000000000000000000000000000000000000003d0900000000000000000000000000000000000000000000000000000000000003345000000000000000000000000000000000000000000000000000000000000052080000000000000000000000000000000000000000000000000000000000000001000000000000000000000000000000000000000000000000000000003b9aca000000000000000000000000000000000000000000000000000000000000000320000000000000000000000000000000000000000000000000000000000000036000000000000000000000000000000000000000000000000000000000000000000000000000000000000000000000000000000000000000000000000000000164b61d27f60000000000000000000000002e2b1c42e38f5af81771e65d87729e57abd1337a0000000000000000000000000000000000000000000000000000000000000000000000000000000000000000000000000000000000000000000000000000006000000000000000000000000000000000000000000000000000000000000000c45f9d23010000000000000000000000000000000000000000000000000000000000000040000000000000000000000000000000000000000000000000000000000000008000000000000000000000000000000000000000000000000000000000000000010000000000000000000000002c377958a3bcf3c6b3e5d521f4057950b351355700000000000000000000000000000000000000000000000000000000000000010000000000000000000000000000000000000000000000000000000000000001000000000000000000000000000000000000000000000000000000000000000000000000000000000000000000000000000000000000000000000000000000000000000000000000000000000000000000000000000000141842a4eff3efd24c50b63c3cf89cecee245fc2bd0000000000000000000000000000000000000000000000000000000000000000000000000000000000000041937995ba959fccffa585b1b8bac34f4c582d4eb7bef42f1c2b93c5cec989518b2e572660ca1bddd0677fd49ce64c1d339779fe5144d846a5c4f4bcc8c924ad471b000000000000000000000000000000000000000000000000000000000000000000000000000000000000002e2b1c42e38f5af81771e65d87729e57abd1337a000000000000000000000000000000000000000000000000000000000000000e0000000000000000000000000000000000000000000000000000000000000160000000000000000000000000000000000000000000000000000000000000018000000000000000000000000000000000000000000000000000000000003d0900000000000000000000000000000000000000000000000000000000000003345000000000000000000000000000000000000000000000000000000000000052080000000000000000000000000000000000000000000000000000000000000001000000000000000000000000000000000000000000000000000000003b9aca00000000000000000000000000000000000000000000000000000000000000026000000000000000000000000000000000000000000000000000000000000002a0000000000000000000000000000000000000000000000000000000000000000000000000000000000000000000000000000000000000000000000000000000a4b61d27f60000000000000000000000002c377958a3bcf3c6b3e5d521f4057950b35135570000000000000000000000000000000000000000000000000000000000000000000000000000000000000000000000000000000000000000000000000000006000000000000000000000000000000000000000000000000000000000000000048129fc1c000000000000000000000000000000000000000000000000000000000000000000000000000000000000000000000000000000000000000000000000000000000000000000000000000000000000000000000000000000141842a4eff3efd24c50b63c3cf89cecee245fc2bd000000000000000000000000000000000000000000000000000000000000000000000000000000000000004140614963d67da4c38577bc02d46b5e4d6ec9321a7a1f703db13708dd1fd65f9d70be3a1ded353406b9eb80ed8ec03e8cf95a1519bc71182e0941b8c5a19112001b00000000000000000000000000000000000000000000000000000000000000",
        "nonce": "0x16ca",
        "accessList": []
      },
      "additionalContracts": [],
      "isFixedGasLimit": false
    }
  ],
  "receipts": [],
  "libraries": [],
  "pending": [],
  "returns": {},
  "timestamp": 1706818485,
  "chain": 7887,
  "multi": false,
  "commit": "596f8de"
}