{
  "transactions": [
    {
      "hash": "0x2e06adbacf94d797159f6ee571237ba26b4e4324df8917947dae8d3f184ae2ae",
      "transactionType": "CALL",
      "contractName": null,
      "contractAddress": "0x2843c269d2a64ecfa63548e8b3fc0fd23b7f70cb",
      "function": "handleOps((address,uint256,bytes,bytes,uint256,uint256,uint256,uint256,uint256,bytes,bytes)[],address)",
      "arguments": [
        "[(0x2e2B1c42E38f5af81771e65D87729E57ABD1337a, 4154, 0x, 0xb61d27f6000000000000000000000000010700808d59d2bb92257fcafacfe8e5bff7ab870000000000000000000000000000000000000000000000000000000000000000000000000000000000000000000000000000000000000000000000000000006000000000000000000000000000000000000000000000000000000000000000449dc29fac000000000000000000000000d157904639e89df05e89e0dabeec99ae3d74f9aa00000000000000000000000000000000000000000000000b6255df5f5008000000000000000000000000000000000000000000000000000000000000, 4000000, 210000, 21000, 1, 1000000000, 0x0000000000000000000000000000000000000000, 0x3d0651a2447dcc3b8a97059e50442af8b93310d88fc688fdf253f45b87ecf7c14e20f9fb5b942fec5d583e9d07e5c312ddb9f08d5837217b35398b6a078ac7e11b0ae527cd12d44f0a61e0954453706a0d18e3cccc3d89194ff405886526746dea7dda2c9f5f2ab06b84773d858b4dd5dd1793f6a4decac12a324a3b43e4b3237a1c)]",
        "0x660ad4B5A74130a4796B4d54BC6750Ae93C86e6c"
      ],
      "transaction": {
        "from": "0x660ad4b5a74130a4796b4d54bc6750ae93c86e6c",
        "to": "0x2843c269d2a64ecfa63548e8b3fc0fd23b7f70cb",
        "value": "0x0",
        "input": "0x1fad948c0000000000000000000000000000000000000000000000000000000000000040000000000000000000000000660ad4b5a74130a4796b4d54bc6750ae93c86e6c000000000000000000000000000000000000000000000000000000000000000100000000000000000000000000000000000000000000000000000000000000200000000000000000000000002e2b1c42e38f5af81771e65d87729e57abd1337a000000000000000000000000000000000000000000000000000000000000103a0000000000000000000000000000000000000000000000000000000000000160000000000000000000000000000000000000000000000000000000000000018000000000000000000000000000000000000000000000000000000000003d0900000000000000000000000000000000000000000000000000000000000003345000000000000000000000000000000000000000000000000000000000000052080000000000000000000000000000000000000000000000000000000000000001000000000000000000000000000000000000000000000000000000003b9aca0000000000000000000000000000000000000000000000000000000000000002a000000000000000000000000000000000000000000000000000000000000002e0000000000000000000000000000000000000000000000000000000000000000000000000000000000000000000000000000000000000000000000000000000e4b61d27f6000000000000000000000000010700808d59d2bb92257fcafacfe8e5bff7ab870000000000000000000000000000000000000000000000000000000000000000000000000000000000000000000000000000000000000000000000000000006000000000000000000000000000000000000000000000000000000000000000449dc29fac000000000000000000000000d157904639e89df05e89e0dabeec99ae3d74f9aa00000000000000000000000000000000000000000000000b6255df5f5008000000000000000000000000000000000000000000000000000000000000000000000000000000000000000000000000000000000000000000000000000000000000000000000000000000000000000000000000000000000014000000000000000000000000000000000000000000000000000000000000000000000000000000000000000000000000000000000000000000000000000000823d0651a2447dcc3b8a97059e50442af8b93310d88fc688fdf253f45b87ecf7c14e20f9fb5b942fec5d583e9d07e5c312ddb9f08d5837217b35398b6a078ac7e11b0ae527cd12d44f0a61e0954453706a0d18e3cccc3d89194ff405886526746dea7dda2c9f5f2ab06b84773d858b4dd5dd1793f6a4decac12a324a3b43e4b3237a1c000000000000000000000000000000000000000000000000000000000000",
        "nonce": "0x4bb49",
        "chainId": "0x1ecf"
      },
      "additionalContracts": [],
      "isFixedGasLimit": false
    },
    {
      "hash": "0x3c8959c2d1c63ab4749f439a1d793d563e5b675f29d12fb2ec5deb9652168b99",
      "transactionType": "CALL",
      "contractName": null,
      "contractAddress": "0x2843c269d2a64ecfa63548e8b3fc0fd23b7f70cb",
      "function": "handleOps((address,uint256,bytes,bytes,uint256,uint256,uint256,uint256,uint256,bytes,bytes)[],address)",
      "arguments": [
        "[(0x2e2B1c42E38f5af81771e65D87729E57ABD1337a, 4155, 0x, 0xb61d27f6000000000000000000000000010700808d59d2bb92257fcafacfe8e5bff7ab8700000000000000000000000000000000000000000000000000000000000000000000000000000000000000000000000000000000000000000000000000000060000000000000000000000000000000000000000000000000000000000000004440c10f19000000000000000000000000a13d24d265efbd84c993e525a210458ce15081b9000000000000000000000000000000000000000000000002b5e3af16b188000000000000000000000000000000000000000000000000000000000000, 4000000, 210000, 21000, 1, 1000000000, 0x0000000000000000000000000000000000000000, 0x1e238e217e3e50ffb0dcfb741d04cf6693bd25fec9f378029cdb7b10e9a5d7bd15947234ecc1d7b26b45c4be1c840e4f2969ef64603945e5e1b4eed1234532b41be81d77cd5949fbe50b9a56cda77c67ae918dd408540f9d2ba022fe772e8be02674c6a1619bcbc3665a8811a8c41a11a8c13f16ee792d18c60e219f63451e3b1d1c)]",
        "0x660ad4B5A74130a4796B4d54BC6750Ae93C86e6c"
      ],
      "transaction": {
        "from": "0x660ad4b5a74130a4796b4d54bc6750ae93c86e6c",
        "to": "0x2843c269d2a64ecfa63548e8b3fc0fd23b7f70cb",
        "value": "0x0",
        "input": "0x1fad948c0000000000000000000000000000000000000000000000000000000000000040000000000000000000000000660ad4b5a74130a4796b4d54bc6750ae93c86e6c000000000000000000000000000000000000000000000000000000000000000100000000000000000000000000000000000000000000000000000000000000200000000000000000000000002e2b1c42e38f5af81771e65d87729e57abd1337a000000000000000000000000000000000000000000000000000000000000103b0000000000000000000000000000000000000000000000000000000000000160000000000000000000000000000000000000000000000000000000000000018000000000000000000000000000000000000000000000000000000000003d0900000000000000000000000000000000000000000000000000000000000003345000000000000000000000000000000000000000000000000000000000000052080000000000000000000000000000000000000000000000000000000000000001000000000000000000000000000000000000000000000000000000003b9aca0000000000000000000000000000000000000000000000000000000000000002a000000000000000000000000000000000000000000000000000000000000002e0000000000000000000000000000000000000000000000000000000000000000000000000000000000000000000000000000000000000000000000000000000e4b61d27f6000000000000000000000000010700808d59d2bb92257fcafacfe8e5bff7ab8700000000000000000000000000000000000000000000000000000000000000000000000000000000000000000000000000000000000000000000000000000060000000000000000000000000000000000000000000000000000000000000004440c10f19000000000000000000000000a13d24d265efbd84c993e525a210458ce15081b9000000000000000000000000000000000000000000000002b5e3af16b188000000000000000000000000000000000000000000000000000000000000000000000000000000000000000000000000000000000000000000000000000000000000000000000000000000000000000000000000000000000014000000000000000000000000000000000000000000000000000000000000000000000000000000000000000000000000000000000000000000000000000000821e238e217e3e50ffb0dcfb741d04cf6693bd25fec9f378029cdb7b10e9a5d7bd15947234ecc1d7b26b45c4be1c840e4f2969ef64603945e5e1b4eed1234532b41be81d77cd5949fbe50b9a56cda77c67ae918dd408540f9d2ba022fe772e8be02674c6a1619bcbc3665a8811a8c41a11a8c13f16ee792d18c60e219f63451e3b1d1c000000000000000000000000000000000000000000000000000000000000",
        "nonce": "0x4bb4a",
        "chainId": "0x1ecf"
      },
      "additionalContracts": [],
      "isFixedGasLimit": false
    },
    {
      "hash": "0x532c527002eace22802c55f0a253a46fed4353b37d4cf7b6fdacdb70eae89a2b",
      "transactionType": "CALL",
      "contractName": null,
      "contractAddress": "0x2843c269d2a64ecfa63548e8b3fc0fd23b7f70cb",
      "function": "handleOps((address,uint256,bytes,bytes,uint256,uint256,uint256,uint256,uint256,bytes,bytes)[],address)",
      "arguments": [
        "[(0x2e2B1c42E38f5af81771e65D87729E57ABD1337a, 4156, 0x, 0xb61d27f6000000000000000000000000010700808d59d2bb92257fcafacfe8e5bff7ab8700000000000000000000000000000000000000000000000000000000000000000000000000000000000000000000000000000000000000000000000000000060000000000000000000000000000000000000000000000000000000000000004440c10f1900000000000000000000000004bf0fe175e23e3e4474712040f8eebbf0484100000000000000000000000000000000000000000000000001158e460913d0000000000000000000000000000000000000000000000000000000000000, 4000000, 210000, 21000, 1, 1000000000, 0x0000000000000000000000000000000000000000, 0x8ad76863bdefd67d5aad710414ef6d119179f600b6307fbaa1bd442bf1ecf92d580c908976bd778390a916d1b98ccfe12e25803cd7de38d7b7c06e52d14825cd1bcb325fdb45c08f761715e612cc224416d29d5be86369d06abbe7e48cac76ea435a5435978581ffc779bf54077bfcdeb331f46a7edcd132de21f70de92c85a7221b)]",
        "0x660ad4B5A74130a4796B4d54BC6750Ae93C86e6c"
      ],
      "transaction": {
        "from": "0x660ad4b5a74130a4796b4d54bc6750ae93c86e6c",
        "to": "0x2843c269d2a64ecfa63548e8b3fc0fd23b7f70cb",
        "value": "0x0",
        "input": "0x1fad948c0000000000000000000000000000000000000000000000000000000000000040000000000000000000000000660ad4b5a74130a4796b4d54bc6750ae93c86e6c000000000000000000000000000000000000000000000000000000000000000100000000000000000000000000000000000000000000000000000000000000200000000000000000000000002e2b1c42e38f5af81771e65d87729e57abd1337a000000000000000000000000000000000000000000000000000000000000103c0000000000000000000000000000000000000000000000000000000000000160000000000000000000000000000000000000000000000000000000000000018000000000000000000000000000000000000000000000000000000000003d0900000000000000000000000000000000000000000000000000000000000003345000000000000000000000000000000000000000000000000000000000000052080000000000000000000000000000000000000000000000000000000000000001000000000000000000000000000000000000000000000000000000003b9aca0000000000000000000000000000000000000000000000000000000000000002a000000000000000000000000000000000000000000000000000000000000002e0000000000000000000000000000000000000000000000000000000000000000000000000000000000000000000000000000000000000000000000000000000e4b61d27f6000000000000000000000000010700808d59d2bb92257fcafacfe8e5bff7ab8700000000000000000000000000000000000000000000000000000000000000000000000000000000000000000000000000000000000000000000000000000060000000000000000000000000000000000000000000000000000000000000004440c10f1900000000000000000000000004bf0fe175e23e3e4474712040f8eebbf0484100000000000000000000000000000000000000000000000001158e460913d0000000000000000000000000000000000000000000000000000000000000000000000000000000000000000000000000000000000000000000000000000000000000000000000000000000000000000000000000000000000014000000000000000000000000000000000000000000000000000000000000000000000000000000000000000000000000000000000000000000000000000000828ad76863bdefd67d5aad710414ef6d119179f600b6307fbaa1bd442bf1ecf92d580c908976bd778390a916d1b98ccfe12e25803cd7de38d7b7c06e52d14825cd1bcb325fdb45c08f761715e612cc224416d29d5be86369d06abbe7e48cac76ea435a5435978581ffc779bf54077bfcdeb331f46a7edcd132de21f70de92c85a7221b000000000000000000000000000000000000000000000000000000000000",
        "nonce": "0x4bb4b",
        "chainId": "0x1ecf"
      },
      "additionalContracts": [],
      "isFixedGasLimit": false
    },
    {
      "hash": "0x68ce9c9c45a7c37c8502ec0e6432f30d8d125ae85e3b910baa783f3e300617e7",
      "transactionType": "CALL",
      "contractName": null,
      "contractAddress": "0x2843c269d2a64ecfa63548e8b3fc0fd23b7f70cb",
      "function": "handleOps((address,uint256,bytes,bytes,uint256,uint256,uint256,uint256,uint256,bytes,bytes)[],address)",
      "arguments": [
        "[(0x2e2B1c42E38f5af81771e65D87729E57ABD1337a, 4157, 0x, 0xb61d27f6000000000000000000000000010700808d59d2bb92257fcafacfe8e5bff7ab8700000000000000000000000000000000000000000000000000000000000000000000000000000000000000000000000000000000000000000000000000000060000000000000000000000000000000000000000000000000000000000000004440c10f19000000000000000000000000956642e471d5da741b34abb14d1b74b46583cd800000000000000000000000000000000000000000000000008ac7230489e8000000000000000000000000000000000000000000000000000000000000, 4000000, 210000, 21000, 1, 1000000000, 0x0000000000000000000000000000000000000000, 0xf2dcbb3a6c014c6fe047d0b6356209c833807c28aa6f11d70274ac1d4eee723a1cebc0b165ca9cabeed62790a9317e72deef905b4feacef3c6e9a3740d4b16021ba784e4e727a7768754da085c5f721eaea549bea5559604957241a824c55e32911cf4a062a898e6a1935d4d2f00c816825a0dae3843571efef328eb8ec7a2e9ad1c)]",
        "0x660ad4B5A74130a4796B4d54BC6750Ae93C86e6c"
      ],
      "transaction": {
        "from": "0x660ad4b5a74130a4796b4d54bc6750ae93c86e6c",
        "to": "0x2843c269d2a64ecfa63548e8b3fc0fd23b7f70cb",
        "value": "0x0",
        "input": "0x1fad948c0000000000000000000000000000000000000000000000000000000000000040000000000000000000000000660ad4b5a74130a4796b4d54bc6750ae93c86e6c000000000000000000000000000000000000000000000000000000000000000100000000000000000000000000000000000000000000000000000000000000200000000000000000000000002e2b1c42e38f5af81771e65d87729e57abd1337a000000000000000000000000000000000000000000000000000000000000103d0000000000000000000000000000000000000000000000000000000000000160000000000000000000000000000000000000000000000000000000000000018000000000000000000000000000000000000000000000000000000000003d0900000000000000000000000000000000000000000000000000000000000003345000000000000000000000000000000000000000000000000000000000000052080000000000000000000000000000000000000000000000000000000000000001000000000000000000000000000000000000000000000000000000003b9aca0000000000000000000000000000000000000000000000000000000000000002a000000000000000000000000000000000000000000000000000000000000002e0000000000000000000000000000000000000000000000000000000000000000000000000000000000000000000000000000000000000000000000000000000e4b61d27f6000000000000000000000000010700808d59d2bb92257fcafacfe8e5bff7ab8700000000000000000000000000000000000000000000000000000000000000000000000000000000000000000000000000000000000000000000000000000060000000000000000000000000000000000000000000000000000000000000004440c10f19000000000000000000000000956642e471d5da741b34abb14d1b74b46583cd800000000000000000000000000000000000000000000000008ac7230489e800000000000000000000000000000000000000000000000000000000000000000000000000000000000000000000000000000000000000000000000000000000000000000000000000000000000000000000000000000000001400000000000000000000000000000000000000000000000000000000000000000000000000000000000000000000000000000000000000000000000000000082f2dcbb3a6c014c6fe047d0b6356209c833807c28aa6f11d70274ac1d4eee723a1cebc0b165ca9cabeed62790a9317e72deef905b4feacef3c6e9a3740d4b16021ba784e4e727a7768754da085c5f721eaea549bea5559604957241a824c55e32911cf4a062a898e6a1935d4d2f00c816825a0dae3843571efef328eb8ec7a2e9ad1c000000000000000000000000000000000000000000000000000000000000",
        "nonce": "0x4bb4c",
        "chainId": "0x1ecf"
      },
      "additionalContracts": [],
      "isFixedGasLimit": false
    },
    {
      "hash": "0x16fa796293c98aecba2ecb3b6f38bac0f4588b0ccbfaa8e75706de9ea3c286bb",
      "transactionType": "CALL",
      "contractName": null,
      "contractAddress": "0x2843c269d2a64ecfa63548e8b3fc0fd23b7f70cb",
      "function": "handleOps((address,uint256,bytes,bytes,uint256,uint256,uint256,uint256,uint256,bytes,bytes)[],address)",
      "arguments": [
        "[(0x2e2B1c42E38f5af81771e65D87729E57ABD1337a, 4158, 0x, 0xb61d27f6000000000000000000000000010700808d59d2bb92257fcafacfe8e5bff7ab8700000000000000000000000000000000000000000000000000000000000000000000000000000000000000000000000000000000000000000000000000000060000000000000000000000000000000000000000000000000000000000000004440c10f190000000000000000000000002025b0e5a1666c690e35f4638fcfc319f03c8075000000000000000000000000000000000000000000000002b5e3af16b188000000000000000000000000000000000000000000000000000000000000, 4000000, 210000, 21000, 1, 1000000000, 0x0000000000000000000000000000000000000000, 0x5a5e69d3d1a9a56b5dd56f527894f336bf8a8beacb926803ed2f981fe76707db0961849aed8955eeebd50f75bb071b481e2a026b0582f9d1f35de59544dd05af1c0b66128995415cc98e7114ccbc4bfcd34267ed2c2030f357db6044f6baba74d45211600c0bcf6417bbb734ee99d1eab8a2f4e9ee726d0f3075615a99439d96771b)]",
        "0x660ad4B5A74130a4796B4d54BC6750Ae93C86e6c"
      ],
      "transaction": {
        "from": "0x660ad4b5a74130a4796b4d54bc6750ae93c86e6c",
        "to": "0x2843c269d2a64ecfa63548e8b3fc0fd23b7f70cb",
        "value": "0x0",
        "input": "0x1fad948c0000000000000000000000000000000000000000000000000000000000000040000000000000000000000000660ad4b5a74130a4796b4d54bc6750ae93c86e6c000000000000000000000000000000000000000000000000000000000000000100000000000000000000000000000000000000000000000000000000000000200000000000000000000000002e2b1c42e38f5af81771e65d87729e57abd1337a000000000000000000000000000000000000000000000000000000000000103e0000000000000000000000000000000000000000000000000000000000000160000000000000000000000000000000000000000000000000000000000000018000000000000000000000000000000000000000000000000000000000003d0900000000000000000000000000000000000000000000000000000000000003345000000000000000000000000000000000000000000000000000000000000052080000000000000000000000000000000000000000000000000000000000000001000000000000000000000000000000000000000000000000000000003b9aca0000000000000000000000000000000000000000000000000000000000000002a000000000000000000000000000000000000000000000000000000000000002e0000000000000000000000000000000000000000000000000000000000000000000000000000000000000000000000000000000000000000000000000000000e4b61d27f6000000000000000000000000010700808d59d2bb92257fcafacfe8e5bff7ab8700000000000000000000000000000000000000000000000000000000000000000000000000000000000000000000000000000000000000000000000000000060000000000000000000000000000000000000000000000000000000000000004440c10f190000000000000000000000002025b0e5a1666c690e35f4638fcfc319f03c8075000000000000000000000000000000000000000000000002b5e3af16b188000000000000000000000000000000000000000000000000000000000000000000000000000000000000000000000000000000000000000000000000000000000000000000000000000000000000000000000000000000000014000000000000000000000000000000000000000000000000000000000000000000000000000000000000000000000000000000000000000000000000000000825a5e69d3d1a9a56b5dd56f527894f336bf8a8beacb926803ed2f981fe76707db0961849aed8955eeebd50f75bb071b481e2a026b0582f9d1f35de59544dd05af1c0b66128995415cc98e7114ccbc4bfcd34267ed2c2030f357db6044f6baba74d45211600c0bcf6417bbb734ee99d1eab8a2f4e9ee726d0f3075615a99439d96771b000000000000000000000000000000000000000000000000000000000000",
        "nonce": "0x4bb4d",
        "chainId": "0x1ecf"
      },
      "additionalContracts": [],
      "isFixedGasLimit": false
    },
    {
      "hash": "0xfab16a290cd29c6a3c850c9ed7fdaa9831a08a06e19d4784fc7676a6cb108c24",
      "transactionType": "CALL",
      "contractName": null,
      "contractAddress": "0x2843c269d2a64ecfa63548e8b3fc0fd23b7f70cb",
      "function": "handleOps((address,uint256,bytes,bytes,uint256,uint256,uint256,uint256,uint256,bytes,bytes)[],address)",
      "arguments": [
        "[(0x2e2B1c42E38f5af81771e65D87729E57ABD1337a, 4159, 0x, 0xb61d27f6000000000000000000000000010700808d59d2bb92257fcafacfe8e5bff7ab8700000000000000000000000000000000000000000000000000000000000000000000000000000000000000000000000000000000000000000000000000000060000000000000000000000000000000000000000000000000000000000000004440c10f19000000000000000000000000a13d24d265efbd84c993e525a210458ce15081b9000000000000000000000000000000000000000000000001158e460913d0000000000000000000000000000000000000000000000000000000000000, 4000000, 210000, 21000, 1, 1000000000, 0x0000000000000000000000000000000000000000, 0x59bd04ce39c7856f8b2a89a83b8ba2267a84221b3331191b5112a17dbb1b4d9309908a688b396c8e2d6478afd918b0c36951bd10e80c4808faba55364a2578611b1f97a8b39dee3b104520b4563ef974d30e16bdf12e8c84dd72aed6c2854a7a790e0f79b92a38cf0a1c43307ef130817df5562b49396aaeb352b2a19b4760a4cd1c)]",
        "0x660ad4B5A74130a4796B4d54BC6750Ae93C86e6c"
      ],
      "transaction": {
        "from": "0x660ad4b5a74130a4796b4d54bc6750ae93c86e6c",
        "to": "0x2843c269d2a64ecfa63548e8b3fc0fd23b7f70cb",
        "value": "0x0",
        "input": "0x1fad948c0000000000000000000000000000000000000000000000000000000000000040000000000000000000000000660ad4b5a74130a4796b4d54bc6750ae93c86e6c000000000000000000000000000000000000000000000000000000000000000100000000000000000000000000000000000000000000000000000000000000200000000000000000000000002e2b1c42e38f5af81771e65d87729e57abd1337a000000000000000000000000000000000000000000000000000000000000103f0000000000000000000000000000000000000000000000000000000000000160000000000000000000000000000000000000000000000000000000000000018000000000000000000000000000000000000000000000000000000000003d0900000000000000000000000000000000000000000000000000000000000003345000000000000000000000000000000000000000000000000000000000000052080000000000000000000000000000000000000000000000000000000000000001000000000000000000000000000000000000000000000000000000003b9aca0000000000000000000000000000000000000000000000000000000000000002a000000000000000000000000000000000000000000000000000000000000002e0000000000000000000000000000000000000000000000000000000000000000000000000000000000000000000000000000000000000000000000000000000e4b61d27f6000000000000000000000000010700808d59d2bb92257fcafacfe8e5bff7ab8700000000000000000000000000000000000000000000000000000000000000000000000000000000000000000000000000000000000000000000000000000060000000000000000000000000000000000000000000000000000000000000004440c10f19000000000000000000000000a13d24d265efbd84c993e525a210458ce15081b9000000000000000000000000000000000000000000000001158e460913d00000000000000000000000000000000000000000000000000000000000000000000000000000000000000000000000000000000000000000000000000000000000000000000000000000000000000000000000000000000000140000000000000000000000000000000000000000000000000000000000000000000000000000000000000000000000000000000000000000000000000000008259bd04ce39c7856f8b2a89a83b8ba2267a84221b3331191b5112a17dbb1b4d9309908a688b396c8e2d6478afd918b0c36951bd10e80c4808faba55364a2578611b1f97a8b39dee3b104520b4563ef974d30e16bdf12e8c84dd72aed6c2854a7a790e0f79b92a38cf0a1c43307ef130817df5562b49396aaeb352b2a19b4760a4cd1c000000000000000000000000000000000000000000000000000000000000",
        "nonce": "0x4bb4e",
        "chainId": "0x1ecf"
      },
      "additionalContracts": [],
      "isFixedGasLimit": false
    },
    {
      "hash": "0x21a58c8e993a2ee8c775d460bbbd6e41445ae6c963662f09c3b0e7a02aa3fb96",
      "transactionType": "CALL",
      "contractName": null,
      "contractAddress": "0x2843c269d2a64ecfa63548e8b3fc0fd23b7f70cb",
      "function": "handleOps((address,uint256,bytes,bytes,uint256,uint256,uint256,uint256,uint256,bytes,bytes)[],address)",
      "arguments": [
        "[(0x2e2B1c42E38f5af81771e65D87729E57ABD1337a, 4160, 0x, 0xb61d27f6000000000000000000000000010700808d59d2bb92257fcafacfe8e5bff7ab8700000000000000000000000000000000000000000000000000000000000000000000000000000000000000000000000000000000000000000000000000000060000000000000000000000000000000000000000000000000000000000000004440c10f19000000000000000000000000ca42442258b9e9994ec9ede50b70bf1b3baa491e0000000000000000000000000000000000000000000000008ac7230489e8000000000000000000000000000000000000000000000000000000000000, 4000000, 210000, 21000, 1, 1000000000, 0x0000000000000000000000000000000000000000, 0xdc2c91a3678c26491fc79242735c6cef802fe27776498a6cadcf72f3ba2aabf72c14ec1693f6a8f1a70ae19b0650f51f330d66a276a5b228aef5218ae86f46cd1c6e9759a440b6b627a4db9ba14968ea49fd557c6b698fad171f28747d60beed3001656da7a9442ff0485d126a411820e261cc58556eac677f4f0cf3ef8431e4671b)]",
        "0x660ad4B5A74130a4796B4d54BC6750Ae93C86e6c"
      ],
      "transaction": {
        "from": "0x660ad4b5a74130a4796b4d54bc6750ae93c86e6c",
        "to": "0x2843c269d2a64ecfa63548e8b3fc0fd23b7f70cb",
        "value": "0x0",
        "input": "0x1fad948c0000000000000000000000000000000000000000000000000000000000000040000000000000000000000000660ad4b5a74130a4796b4d54bc6750ae93c86e6c000000000000000000000000000000000000000000000000000000000000000100000000000000000000000000000000000000000000000000000000000000200000000000000000000000002e2b1c42e38f5af81771e65d87729e57abd1337a00000000000000000000000000000000000000000000000000000000000010400000000000000000000000000000000000000000000000000000000000000160000000000000000000000000000000000000000000000000000000000000018000000000000000000000000000000000000000000000000000000000003d0900000000000000000000000000000000000000000000000000000000000003345000000000000000000000000000000000000000000000000000000000000052080000000000000000000000000000000000000000000000000000000000000001000000000000000000000000000000000000000000000000000000003b9aca0000000000000000000000000000000000000000000000000000000000000002a000000000000000000000000000000000000000000000000000000000000002e0000000000000000000000000000000000000000000000000000000000000000000000000000000000000000000000000000000000000000000000000000000e4b61d27f6000000000000000000000000010700808d59d2bb92257fcafacfe8e5bff7ab8700000000000000000000000000000000000000000000000000000000000000000000000000000000000000000000000000000000000000000000000000000060000000000000000000000000000000000000000000000000000000000000004440c10f19000000000000000000000000ca42442258b9e9994ec9ede50b70bf1b3baa491e0000000000000000000000000000000000000000000000008ac7230489e800000000000000000000000000000000000000000000000000000000000000000000000000000000000000000000000000000000000000000000000000000000000000000000000000000000000000000000000000000000001400000000000000000000000000000000000000000000000000000000000000000000000000000000000000000000000000000000000000000000000000000082dc2c91a3678c26491fc79242735c6cef802fe27776498a6cadcf72f3ba2aabf72c14ec1693f6a8f1a70ae19b0650f51f330d66a276a5b228aef5218ae86f46cd1c6e9759a440b6b627a4db9ba14968ea49fd557c6b698fad171f28747d60beed3001656da7a9442ff0485d126a411820e261cc58556eac677f4f0cf3ef8431e4671b000000000000000000000000000000000000000000000000000000000000",
        "nonce": "0x4bb4f",
        "chainId": "0x1ecf"
      },
      "additionalContracts": [],
      "isFixedGasLimit": false
    },
    {
      "hash": "0xd1d8e09ff2c4c5e1c025f9590e48cf4ef345dba9fc75673865d6fe743001ac84",
      "transactionType": "CALL",
      "contractName": null,
      "contractAddress": "0x2843c269d2a64ecfa63548e8b3fc0fd23b7f70cb",
      "function": "handleOps((address,uint256,bytes,bytes,uint256,uint256,uint256,uint256,uint256,bytes,bytes)[],address)",
      "arguments": [
        "[(0x2e2B1c42E38f5af81771e65D87729E57ABD1337a, 4161, 0x, 0xb61d27f6000000000000000000000000010700808d59d2bb92257fcafacfe8e5bff7ab8700000000000000000000000000000000000000000000000000000000000000000000000000000000000000000000000000000000000000000000000000000060000000000000000000000000000000000000000000000000000000000000004440c10f1900000000000000000000000071f51c64110709880260610ea8c411a28c067739000000000000000000000000000000000000000000000002b5e3af16b188000000000000000000000000000000000000000000000000000000000000, 4000000, 210000, 21000, 1, 1000000000, 0x0000000000000000000000000000000000000000, 0x3c0d2267ab3f413bf099adfdd854629c5b51c0c5ffa17ca1d14c90fc51e6985866fc2e488c3970be307ece93015e8a10dbbbfce7b64a1ab1f02b4970a866c59e1b0b196e2ebd074ecaab03273d1cde3c722810f2e00f5745e25bd5d9aebdd4a54027ef42198aeba0298bd0d5ca8c434c2e1b96d4ce09bcfb334b5db97645b087d91b)]",
        "0x660ad4B5A74130a4796B4d54BC6750Ae93C86e6c"
      ],
      "transaction": {
        "from": "0x660ad4b5a74130a4796b4d54bc6750ae93c86e6c",
        "to": "0x2843c269d2a64ecfa63548e8b3fc0fd23b7f70cb",
        "value": "0x0",
        "input": "0x1fad948c0000000000000000000000000000000000000000000000000000000000000040000000000000000000000000660ad4b5a74130a4796b4d54bc6750ae93c86e6c000000000000000000000000000000000000000000000000000000000000000100000000000000000000000000000000000000000000000000000000000000200000000000000000000000002e2b1c42e38f5af81771e65d87729e57abd1337a00000000000000000000000000000000000000000000000000000000000010410000000000000000000000000000000000000000000000000000000000000160000000000000000000000000000000000000000000000000000000000000018000000000000000000000000000000000000000000000000000000000003d0900000000000000000000000000000000000000000000000000000000000003345000000000000000000000000000000000000000000000000000000000000052080000000000000000000000000000000000000000000000000000000000000001000000000000000000000000000000000000000000000000000000003b9aca0000000000000000000000000000000000000000000000000000000000000002a000000000000000000000000000000000000000000000000000000000000002e0000000000000000000000000000000000000000000000000000000000000000000000000000000000000000000000000000000000000000000000000000000e4b61d27f6000000000000000000000000010700808d59d2bb92257fcafacfe8e5bff7ab8700000000000000000000000000000000000000000000000000000000000000000000000000000000000000000000000000000000000000000000000000000060000000000000000000000000000000000000000000000000000000000000004440c10f1900000000000000000000000071f51c64110709880260610ea8c411a28c067739000000000000000000000000000000000000000000000002b5e3af16b188000000000000000000000000000000000000000000000000000000000000000000000000000000000000000000000000000000000000000000000000000000000000000000000000000000000000000000000000000000000014000000000000000000000000000000000000000000000000000000000000000000000000000000000000000000000000000000000000000000000000000000823c0d2267ab3f413bf099adfdd854629c5b51c0c5ffa17ca1d14c90fc51e6985866fc2e488c3970be307ece93015e8a10dbbbfce7b64a1ab1f02b4970a866c59e1b0b196e2ebd074ecaab03273d1cde3c722810f2e00f5745e25bd5d9aebdd4a54027ef42198aeba0298bd0d5ca8c434c2e1b96d4ce09bcfb334b5db97645b087d91b000000000000000000000000000000000000000000000000000000000000",
        "nonce": "0x4bb50",
        "chainId": "0x1ecf"
      },
      "additionalContracts": [],
      "isFixedGasLimit": false
    }
  ],
  "receipts": [
    {
      "status": "0x1",
      "cumulativeGasUsed": "0x829fe",
      "logs": [
        {
          "address": "0x2843c269d2a64ecfa63548e8b3fc0fd23b7f70cb",
          "topics": [
            "0xbb47ee3e183a558b1a2ff0874b079f3fc5478b7454eacf2bfc5af2ff5878f972"
          ],
          "data": "0x",
          "blockHash": "0x83ee048c5ea5e25e02e442120d666d64da84d2a0dd47fcb4bdbeb1e1df1a6089",
          "blockNumber": "0xab7a3",
          "transactionHash": "0x2e06adbacf94d797159f6ee571237ba26b4e4324df8917947dae8d3f184ae2ae",
          "transactionIndex": "0x1",
          "logIndex": "0x0",
          "removed": false
        },
        {
          "address": "0x010700808d59d2bb92257fcafacfe8e5bff7ab87",
          "topics": [
            "0xddf252ad1be2c89b69c2b068fc378daa952ba7f163c4a11628f55a4df523b3ef",
            "0x000000000000000000000000d157904639e89df05e89e0dabeec99ae3d74f9aa",
            "0x0000000000000000000000000000000000000000000000000000000000000000"
          ],
          "data": "0x00000000000000000000000000000000000000000000000b6255df5f50080000",
          "blockHash": "0x83ee048c5ea5e25e02e442120d666d64da84d2a0dd47fcb4bdbeb1e1df1a6089",
          "blockNumber": "0xab7a3",
          "transactionHash": "0x2e06adbacf94d797159f6ee571237ba26b4e4324df8917947dae8d3f184ae2ae",
          "transactionIndex": "0x1",
          "logIndex": "0x1",
          "removed": false
        },
        {
          "address": "0x2843c269d2a64ecfa63548e8b3fc0fd23b7f70cb",
          "topics": [
            "0x49628fd1471006c1482da88028e9ce4dbb080b815c9b0344d39e5a8e6ec1419f",
            "0x4af4f67bc074106f6e76d1dbf17655140d115fbe2e9cff73fe018c0fe544f531",
            "0x0000000000000000000000002e2b1c42e38f5af81771e65d87729e57abd1337a",
            "0x0000000000000000000000000000000000000000000000000000000000000000"
          ],
          "data": "0x000000000000000000000000000000000000000000000000000000000000103a0000000000000000000000000000000000000000000000000000000000000001000000000000000000000000000000000000000000000000000000000008ebc5000000000000000000000000000000000000000000000000000000000008ebc5",
          "blockHash": "0x83ee048c5ea5e25e02e442120d666d64da84d2a0dd47fcb4bdbeb1e1df1a6089",
          "blockNumber": "0xab7a3",
          "transactionHash": "0x2e06adbacf94d797159f6ee571237ba26b4e4324df8917947dae8d3f184ae2ae",
          "transactionIndex": "0x1",
          "logIndex": "0x2",
          "removed": false
        }
      ],
      "logsBloom": "0x00002000000400000000000000000000000000000000000000000000000001000008000000000000000000010000000000000000000000000000020000000000000000000000000000020008000000000000000000000000000008000000000800000000020000000000000000000800002000000000000000000010000000000000000000000000000000000000800000000000000000000000000000000000001400000000000000400000000000000000000000000000000002000000000000000002000000100001000000000000000000000000000000000000000020000000000000010000000000000000880000000000000000000000000000000800",
      "type": "0x2",
      "transactionHash": "0x2e06adbacf94d797159f6ee571237ba26b4e4324df8917947dae8d3f184ae2ae",
      "transactionIndex": "0x1",
      "blockHash": "0x83ee048c5ea5e25e02e442120d666d64da84d2a0dd47fcb4bdbeb1e1df1a6089",
      "blockNumber": "0xab7a3",
      "gasUsed": "0x829fe",
      "effectiveGasPrice": "0x5f5e100",
      "from": "0x660ad4b5a74130a4796b4d54bc6750ae93c86e6c",
      "to": "0x2843c269d2a64ecfa63548e8b3fc0fd23b7f70cb",
      "contractAddress": null,
      "gasUsedForL1": "0x4d1ce",
      "l1BlockNumber": "0x149dc07"
    },
    {
      "status": "0x1",
      "cumulativeGasUsed": "0x7b1f3",
      "logs": [
        {
          "address": "0x2843c269d2a64ecfa63548e8b3fc0fd23b7f70cb",
          "topics": [
            "0xbb47ee3e183a558b1a2ff0874b079f3fc5478b7454eacf2bfc5af2ff5878f972"
          ],
          "data": "0x",
          "blockHash": "0x93c3f4aaca680022ec36d2877e0235bfbee6ece827cabff6cb90f71a0926c696",
          "blockNumber": "0xab7a4",
          "transactionHash": "0x3c8959c2d1c63ab4749f439a1d793d563e5b675f29d12fb2ec5deb9652168b99",
          "transactionIndex": "0x1",
          "logIndex": "0x0",
          "removed": false
        },
        {
          "address": "0x010700808d59d2bb92257fcafacfe8e5bff7ab87",
          "topics": [
            "0xddf252ad1be2c89b69c2b068fc378daa952ba7f163c4a11628f55a4df523b3ef",
            "0x0000000000000000000000000000000000000000000000000000000000000000",
            "0x000000000000000000000000a13d24d265efbd84c993e525a210458ce15081b9"
          ],
          "data": "0x000000000000000000000000000000000000000000000002b5e3af16b1880000",
          "blockHash": "0x93c3f4aaca680022ec36d2877e0235bfbee6ece827cabff6cb90f71a0926c696",
          "blockNumber": "0xab7a4",
          "transactionHash": "0x3c8959c2d1c63ab4749f439a1d793d563e5b675f29d12fb2ec5deb9652168b99",
          "transactionIndex": "0x1",
          "logIndex": "0x1",
          "removed": false
        },
        {
          "address": "0x2843c269d2a64ecfa63548e8b3fc0fd23b7f70cb",
          "topics": [
            "0x49628fd1471006c1482da88028e9ce4dbb080b815c9b0344d39e5a8e6ec1419f",
            "0x709b4c3e50a43b2f774ebad3a637ce3257860890d8cd51cd54a77a12300a22c0",
            "0x0000000000000000000000002e2b1c42e38f5af81771e65d87729e57abd1337a",
            "0x0000000000000000000000000000000000000000000000000000000000000000"
          ],
          "data": "0x000000000000000000000000000000000000000000000000000000000000103b000000000000000000000000000000000000000000000000000000000000000100000000000000000000000000000000000000000000000000000000000896dd00000000000000000000000000000000000000000000000000000000000896dd",
          "blockHash": "0x93c3f4aaca680022ec36d2877e0235bfbee6ece827cabff6cb90f71a0926c696",
          "blockNumber": "0xab7a4",
          "transactionHash": "0x3c8959c2d1c63ab4749f439a1d793d563e5b675f29d12fb2ec5deb9652168b99",
          "transactionIndex": "0x1",
          "logIndex": "0x2",
          "removed": false
        }
      ],
      "logsBloom": "0x00000000000400000000000000000000000000000000000000000000000000000008000000000000000004010000000000040000000000000000020000000000000000000000000000000008000000000000000000000000000800000000000800000000020000000000000000000800002000000000000000000010000000000000000000000000000000000000800000000000000000000020000000000000001400000000000000400000000000000000020000000000000002000000000000000002000000100001000000000000000000000000000000000000400020000000000000010000000000000000800000000000000000000000000000000000",
      "type": "0x2",
      "transactionHash": "0x3c8959c2d1c63ab4749f439a1d793d563e5b675f29d12fb2ec5deb9652168b99",
      "transactionIndex": "0x1",
      "blockHash": "0x93c3f4aaca680022ec36d2877e0235bfbee6ece827cabff6cb90f71a0926c696",
      "blockNumber": "0xab7a4",
      "gasUsed": "0x7b1f3",
      "effectiveGasPrice": "0x5f5e100",
      "from": "0x660ad4b5a74130a4796b4d54bc6750ae93c86e6c",
      "to": "0x2843c269d2a64ecfa63548e8b3fc0fd23b7f70cb",
      "contractAddress": null,
      "gasUsedForL1": "0x4b81a",
      "l1BlockNumber": "0x149dc07"
    },
    {
      "status": "0x1",
      "cumulativeGasUsed": "0x82847",
      "logs": [
        {
          "address": "0x2843c269d2a64ecfa63548e8b3fc0fd23b7f70cb",
          "topics": [
            "0xbb47ee3e183a558b1a2ff0874b079f3fc5478b7454eacf2bfc5af2ff5878f972"
          ],
          "data": "0x",
          "blockHash": "0xb046225bcc49861aec6611b7497dee61ffb0334a724cdcdc3b7f1700b07826d8",
          "blockNumber": "0xab7a5",
          "transactionHash": "0x532c527002eace22802c55f0a253a46fed4353b37d4cf7b6fdacdb70eae89a2b",
          "transactionIndex": "0x1",
          "logIndex": "0x0",
          "removed": false
        },
        {
          "address": "0x010700808d59d2bb92257fcafacfe8e5bff7ab87",
          "topics": [
            "0xddf252ad1be2c89b69c2b068fc378daa952ba7f163c4a11628f55a4df523b3ef",
            "0x0000000000000000000000000000000000000000000000000000000000000000",
            "0x00000000000000000000000004bf0fe175e23e3e4474712040f8eebbf0484100"
          ],
          "data": "0x000000000000000000000000000000000000000000000001158e460913d00000",
          "blockHash": "0xb046225bcc49861aec6611b7497dee61ffb0334a724cdcdc3b7f1700b07826d8",
          "blockNumber": "0xab7a5",
          "transactionHash": "0x532c527002eace22802c55f0a253a46fed4353b37d4cf7b6fdacdb70eae89a2b",
          "transactionIndex": "0x1",
          "logIndex": "0x1",
          "removed": false
        },
        {
          "address": "0x2843c269d2a64ecfa63548e8b3fc0fd23b7f70cb",
          "topics": [
            "0x49628fd1471006c1482da88028e9ce4dbb080b815c9b0344d39e5a8e6ec1419f",
            "0x9b438f852cab6c65748640044d629a1b71568fd25f06ad0dcf0f89ed285a6fcb",
            "0x0000000000000000000000002e2b1c42e38f5af81771e65d87729e57abd1337a",
            "0x0000000000000000000000000000000000000000000000000000000000000000"
          ],
          "data": "0x000000000000000000000000000000000000000000000000000000000000103c0000000000000000000000000000000000000000000000000000000000000001000000000000000000000000000000000000000000000000000000000008e486000000000000000000000000000000000000000000000000000000000008e486",
          "blockHash": "0xb046225bcc49861aec6611b7497dee61ffb0334a724cdcdc3b7f1700b07826d8",
          "blockNumber": "0xab7a5",
          "transactionHash": "0x532c527002eace22802c55f0a253a46fed4353b37d4cf7b6fdacdb70eae89a2b",
          "transactionIndex": "0x1",
          "logIndex": "0x2",
          "removed": false
        }
      ],
      "logsBloom": "0x00000000000400000000000000000000000000000000000000000000000000000008000008000000000000010000000000000000000000000000020000000000000000000000000000000008000000000000000000000000000000000000000800000000020000000000000000000800002000000000000000000010000000000000000000000000000000000000800000000000000000000000000000000000003400000000000800400000000000000000400000000000000002000000000000000002000000100001000000000000000000000000000000000000000021000000000000010000000000000000800000000000001000000000000000000000",
      "type": "0x2",
      "transactionHash": "0x532c527002eace22802c55f0a253a46fed4353b37d4cf7b6fdacdb70eae89a2b",
      "transactionIndex": "0x1",
      "blockHash": "0xb046225bcc49861aec6611b7497dee61ffb0334a724cdcdc3b7f1700b07826d8",
      "blockNumber": "0xab7a5",
      "gasUsed": "0x82847",
      "effectiveGasPrice": "0x5f5e100",
      "from": "0x660ad4b5a74130a4796b4d54bc6750ae93c86e6c",
      "to": "0x2843c269d2a64ecfa63548e8b3fc0fd23b7f70cb",
      "contractAddress": null,
      "gasUsedForL1": "0x4d83c",
      "l1BlockNumber": "0x149dc07"
    },
    {
      "status": "0x1",
      "cumulativeGasUsed": "0x7b400",
      "logs": [
        {
          "address": "0x2843c269d2a64ecfa63548e8b3fc0fd23b7f70cb",
          "topics": [
            "0xbb47ee3e183a558b1a2ff0874b079f3fc5478b7454eacf2bfc5af2ff5878f972"
          ],
          "data": "0x",
          "blockHash": "0x2801b7981a654c6f8a4a9f2fb4037ffffa40b02c7a6d9693c961aabde62d0fd5",
          "blockNumber": "0xab7a6",
          "transactionHash": "0x68ce9c9c45a7c37c8502ec0e6432f30d8d125ae85e3b910baa783f3e300617e7",
          "transactionIndex": "0x1",
          "logIndex": "0x0",
          "removed": false
        },
        {
          "address": "0x010700808d59d2bb92257fcafacfe8e5bff7ab87",
          "topics": [
            "0xddf252ad1be2c89b69c2b068fc378daa952ba7f163c4a11628f55a4df523b3ef",
            "0x0000000000000000000000000000000000000000000000000000000000000000",
            "0x000000000000000000000000956642e471d5da741b34abb14d1b74b46583cd80"
          ],
          "data": "0x0000000000000000000000000000000000000000000000008ac7230489e80000",
          "blockHash": "0x2801b7981a654c6f8a4a9f2fb4037ffffa40b02c7a6d9693c961aabde62d0fd5",
          "blockNumber": "0xab7a6",
          "transactionHash": "0x68ce9c9c45a7c37c8502ec0e6432f30d8d125ae85e3b910baa783f3e300617e7",
          "transactionIndex": "0x1",
          "logIndex": "0x1",
          "removed": false
        },
        {
          "address": "0x2843c269d2a64ecfa63548e8b3fc0fd23b7f70cb",
          "topics": [
            "0x49628fd1471006c1482da88028e9ce4dbb080b815c9b0344d39e5a8e6ec1419f",
            "0xa76c414e25ce768122cadc50643ae12414aade5a7957b081a015f3bca85413a6",
            "0x0000000000000000000000002e2b1c42e38f5af81771e65d87729e57abd1337a",
            "0x0000000000000000000000000000000000000000000000000000000000000000"
          ],
          "data": "0x000000000000000000000000000000000000000000000000000000000000103d000000000000000000000000000000000000000000000000000000000000000100000000000000000000000000000000000000000000000000000000000896dd00000000000000000000000000000000000000000000000000000000000896dd",
          "blockHash": "0x2801b7981a654c6f8a4a9f2fb4037ffffa40b02c7a6d9693c961aabde62d0fd5",
          "blockNumber": "0xab7a6",
          "transactionHash": "0x68ce9c9c45a7c37c8502ec0e6432f30d8d125ae85e3b910baa783f3e300617e7",
          "transactionIndex": "0x1",
          "logIndex": "0x2",
          "removed": false
        }
      ],
      "logsBloom": "0x00000000000400000000000000000000000000000000000000000000000000040008000000010000000000010000000000000000000000000000020000000000000000000000000000000008000000000000000000000000000000000000000800000000020000000000000000000800002000000000000010000010000000000000000000000000000000000000800000000000000000000000000000000000001400002000000080400000000000000000000000000000000002000000000000000002000000100001000000000000000000000000000000000400000020000000000000010000000000000000800000000000000000000000000000000000",
      "type": "0x2",
      "transactionHash": "0x68ce9c9c45a7c37c8502ec0e6432f30d8d125ae85e3b910baa783f3e300617e7",
      "transactionIndex": "0x1",
      "blockHash": "0x2801b7981a654c6f8a4a9f2fb4037ffffa40b02c7a6d9693c961aabde62d0fd5",
      "blockNumber": "0xab7a6",
      "gasUsed": "0x7b400",
      "effectiveGasPrice": "0x5f5e100",
      "from": "0x660ad4b5a74130a4796b4d54bc6750ae93c86e6c",
      "to": "0x2843c269d2a64ecfa63548e8b3fc0fd23b7f70cb",
      "contractAddress": null,
      "gasUsedForL1": "0x4ba3f",
      "l1BlockNumber": "0x149dc07"
    },
    {
      "status": "0x1",
      "cumulativeGasUsed": "0x7b860",
      "logs": [
        {
          "address": "0x2843c269d2a64ecfa63548e8b3fc0fd23b7f70cb",
          "topics": [
            "0xbb47ee3e183a558b1a2ff0874b079f3fc5478b7454eacf2bfc5af2ff5878f972"
          ],
          "data": "0x",
          "blockHash": "0x08ebbb36b8db04c9e2f062df33596e31d83ac05da6b56d12f3ce32614086b255",
          "blockNumber": "0xab7a7",
          "transactionHash": "0x16fa796293c98aecba2ecb3b6f38bac0f4588b0ccbfaa8e75706de9ea3c286bb",
          "transactionIndex": "0x1",
          "logIndex": "0x0",
          "removed": false
        },
        {
          "address": "0x010700808d59d2bb92257fcafacfe8e5bff7ab87",
          "topics": [
            "0xddf252ad1be2c89b69c2b068fc378daa952ba7f163c4a11628f55a4df523b3ef",
            "0x0000000000000000000000000000000000000000000000000000000000000000",
            "0x0000000000000000000000002025b0e5a1666c690e35f4638fcfc319f03c8075"
          ],
          "data": "0x000000000000000000000000000000000000000000000002b5e3af16b1880000",
          "blockHash": "0x08ebbb36b8db04c9e2f062df33596e31d83ac05da6b56d12f3ce32614086b255",
          "blockNumber": "0xab7a7",
          "transactionHash": "0x16fa796293c98aecba2ecb3b6f38bac0f4588b0ccbfaa8e75706de9ea3c286bb",
          "transactionIndex": "0x1",
          "logIndex": "0x1",
          "removed": false
        },
        {
          "address": "0x2843c269d2a64ecfa63548e8b3fc0fd23b7f70cb",
          "topics": [
            "0x49628fd1471006c1482da88028e9ce4dbb080b815c9b0344d39e5a8e6ec1419f",
            "0x3e093012528f262ab9fb4d35bcb06142a222db2d784f8002689a86689ec9c178",
            "0x0000000000000000000000002e2b1c42e38f5af81771e65d87729e57abd1337a",
            "0x0000000000000000000000000000000000000000000000000000000000000000"
          ],
          "data": "0x000000000000000000000000000000000000000000000000000000000000103e000000000000000000000000000000000000000000000000000000000000000100000000000000000000000000000000000000000000000000000000000896dd00000000000000000000000000000000000000000000000000000000000896dd",
          "blockHash": "0x08ebbb36b8db04c9e2f062df33596e31d83ac05da6b56d12f3ce32614086b255",
          "blockNumber": "0xab7a7",
          "transactionHash": "0x16fa796293c98aecba2ecb3b6f38bac0f4588b0ccbfaa8e75706de9ea3c286bb",
          "transactionIndex": "0x1",
          "logIndex": "0x2",
          "removed": false
        }
      ],
      "logsBloom": "0x00000000000400000000000000000000000000000000000000000000000000000008000000000000000000010000000000000000000000000000020000000000000000000000000000000008000000000000000000000000000000000000000800000000020000000000000000000800002000100000000000000810000000000000000000000000000000000000800000000000000000000000000000000000091400000000000000400000000000000000000000000000000002000000000000000002000000100001000000000000000000000000000000000000100020000000000400010000000000000000800000000000000000000000000000000000",
      "type": "0x2",
      "transactionHash": "0x16fa796293c98aecba2ecb3b6f38bac0f4588b0ccbfaa8e75706de9ea3c286bb",
      "transactionIndex": "0x1",
      "blockHash": "0x08ebbb36b8db04c9e2f062df33596e31d83ac05da6b56d12f3ce32614086b255",
      "blockNumber": "0xab7a7",
      "gasUsed": "0x7b860",
      "effectiveGasPrice": "0x5f5e100",
      "from": "0x660ad4b5a74130a4796b4d54bc6750ae93c86e6c",
      "to": "0x2843c269d2a64ecfa63548e8b3fc0fd23b7f70cb",
      "contractAddress": null,
      "gasUsedForL1": "0x4be87",
      "l1BlockNumber": "0x149dc07"
    },
    {
      "status": "0x1",
      "cumulativeGasUsed": "0x81fcd",
      "logs": [
        {
          "address": "0x2843c269d2a64ecfa63548e8b3fc0fd23b7f70cb",
          "topics": [
            "0xbb47ee3e183a558b1a2ff0874b079f3fc5478b7454eacf2bfc5af2ff5878f972"
          ],
          "data": "0x",
          "blockHash": "0x06cae583a17735f6425a80c28a2c0b362d526072e48aa7a0cb2b8e79a54e480e",
          "blockNumber": "0xab7a8",
          "transactionHash": "0xfab16a290cd29c6a3c850c9ed7fdaa9831a08a06e19d4784fc7676a6cb108c24",
          "transactionIndex": "0x1",
          "logIndex": "0x0",
          "removed": false
        },
        {
          "address": "0x010700808d59d2bb92257fcafacfe8e5bff7ab87",
          "topics": [
            "0xddf252ad1be2c89b69c2b068fc378daa952ba7f163c4a11628f55a4df523b3ef",
            "0x0000000000000000000000000000000000000000000000000000000000000000",
            "0x000000000000000000000000a13d24d265efbd84c993e525a210458ce15081b9"
          ],
          "data": "0x000000000000000000000000000000000000000000000001158e460913d00000",
          "blockHash": "0x06cae583a17735f6425a80c28a2c0b362d526072e48aa7a0cb2b8e79a54e480e",
          "blockNumber": "0xab7a8",
          "transactionHash": "0xfab16a290cd29c6a3c850c9ed7fdaa9831a08a06e19d4784fc7676a6cb108c24",
          "transactionIndex": "0x1",
          "logIndex": "0x1",
          "removed": false
        },
        {
          "address": "0x2843c269d2a64ecfa63548e8b3fc0fd23b7f70cb",
          "topics": [
            "0x49628fd1471006c1482da88028e9ce4dbb080b815c9b0344d39e5a8e6ec1419f",
            "0xd84102c1d6ec9f595163408d9e4ddbb29bff2a9c523777d3dcd6f2bc2d8f95db",
            "0x0000000000000000000000002e2b1c42e38f5af81771e65d87729e57abd1337a",
            "0x0000000000000000000000000000000000000000000000000000000000000000"
          ],
          "data": "0x000000000000000000000000000000000000000000000000000000000000103f0000000000000000000000000000000000000000000000000000000000000001000000000000000000000000000000000000000000000000000000000008e486000000000000000000000000000000000000000000000000000000000008e486",
          "blockHash": "0x06cae583a17735f6425a80c28a2c0b362d526072e48aa7a0cb2b8e79a54e480e",
          "blockNumber": "0xab7a8",
          "transactionHash": "0xfab16a290cd29c6a3c850c9ed7fdaa9831a08a06e19d4784fc7676a6cb108c24",
          "transactionIndex": "0x1",
          "logIndex": "0x2",
          "removed": false
        }
      ],
      "logsBloom": "0x00000000000400000000000000000000800000000000000000000000000000000008000000000000000004010000000000040000000000000000020000000000000000000000000000000008000000000000000000000000000000000000000800000000020000000000400000000800002000000000000000000010000000000000000000000000000000000000800000000000000000000020000000000000001400000000000000400000000000000000000000000000000002000000000000000002000000100001000000000000000000000000000000000000000020000000000000010000000000000000800000000000000000000004000000000000",
      "type": "0x2",
      "transactionHash": "0xfab16a290cd29c6a3c850c9ed7fdaa9831a08a06e19d4784fc7676a6cb108c24",
      "transactionIndex": "0x1",
      "blockHash": "0x06cae583a17735f6425a80c28a2c0b362d526072e48aa7a0cb2b8e79a54e480e",
      "blockNumber": "0xab7a8",
      "gasUsed": "0x81fcd",
      "effectiveGasPrice": "0x5f5e100",
      "from": "0x660ad4b5a74130a4796b4d54bc6750ae93c86e6c",
      "to": "0x2843c269d2a64ecfa63548e8b3fc0fd23b7f70cb",
      "contractAddress": null,
      "gasUsedForL1": "0x4cfaa",
      "l1BlockNumber": "0x149dc07"
    },
    {
      "status": "0x1",
      "cumulativeGasUsed": "0x7c753",
      "logs": [
        {
          "address": "0x2843c269d2a64ecfa63548e8b3fc0fd23b7f70cb",
          "topics": [
            "0xbb47ee3e183a558b1a2ff0874b079f3fc5478b7454eacf2bfc5af2ff5878f972"
          ],
          "data": "0x",
          "blockHash": "0x541215067872d11de7e79cc460aee5fce7144625a4c00fecf28cc6cb41462fe2",
          "blockNumber": "0xab7a9",
          "transactionHash": "0x21a58c8e993a2ee8c775d460bbbd6e41445ae6c963662f09c3b0e7a02aa3fb96",
          "transactionIndex": "0x1",
          "logIndex": "0x0",
          "removed": false
        },
        {
          "address": "0x010700808d59d2bb92257fcafacfe8e5bff7ab87",
          "topics": [
            "0xddf252ad1be2c89b69c2b068fc378daa952ba7f163c4a11628f55a4df523b3ef",
            "0x0000000000000000000000000000000000000000000000000000000000000000",
            "0x000000000000000000000000ca42442258b9e9994ec9ede50b70bf1b3baa491e"
          ],
          "data": "0x0000000000000000000000000000000000000000000000008ac7230489e80000",
          "blockHash": "0x541215067872d11de7e79cc460aee5fce7144625a4c00fecf28cc6cb41462fe2",
          "blockNumber": "0xab7a9",
          "transactionHash": "0x21a58c8e993a2ee8c775d460bbbd6e41445ae6c963662f09c3b0e7a02aa3fb96",
          "transactionIndex": "0x1",
          "logIndex": "0x1",
          "removed": false
        },
        {
          "address": "0x2843c269d2a64ecfa63548e8b3fc0fd23b7f70cb",
          "topics": [
            "0x49628fd1471006c1482da88028e9ce4dbb080b815c9b0344d39e5a8e6ec1419f",
            "0x55c3eac2ab571ea9baf355e1c87841dd59cd14f97466ac213dc80e3ea5ed74d9",
            "0x0000000000000000000000002e2b1c42e38f5af81771e65d87729e57abd1337a",
            "0x0000000000000000000000000000000000000000000000000000000000000000"
          ],
          "data": "0x0000000000000000000000000000000000000000000000000000000000001040000000000000000000000000000000000000000000000000000000000000000100000000000000000000000000000000000000000000000000000000000896dd00000000000000000000000000000000000000000000000000000000000896dd",
          "blockHash": "0x541215067872d11de7e79cc460aee5fce7144625a4c00fecf28cc6cb41462fe2",
          "blockNumber": "0xab7a9",
          "transactionHash": "0x21a58c8e993a2ee8c775d460bbbd6e41445ae6c963662f09c3b0e7a02aa3fb96",
          "transactionIndex": "0x1",
          "logIndex": "0x2",
          "removed": false
        }
      ],
      "logsBloom": "0x00000000000400000000000000000000000000000000000000000000000000000008000000000000000000010000000000000000000000000004020000000000000000000000000000000008000000040000100000000000000000000000000800000000020000002000000000000800002008000000000000000010000000000000000000000000000000000000800000000000000000000000000000000000001400080000000000400000000000000000000000000000000002000000000000000002000000100001000000000000000000000000000000000000000020000000000000010000000000000000800000000000000000000000000000000000",
      "type": "0x2",
      "transactionHash": "0x21a58c8e993a2ee8c775d460bbbd6e41445ae6c963662f09c3b0e7a02aa3fb96",
      "transactionIndex": "0x1",
      "blockHash": "0x541215067872d11de7e79cc460aee5fce7144625a4c00fecf28cc6cb41462fe2",
      "blockNumber": "0xab7a9",
      "gasUsed": "0x7c753",
      "effectiveGasPrice": "0x5f5e100",
      "from": "0x660ad4b5a74130a4796b4d54bc6750ae93c86e6c",
      "to": "0x2843c269d2a64ecfa63548e8b3fc0fd23b7f70cb",
      "contractAddress": null,
      "gasUsedForL1": "0x4cd86",
      "l1BlockNumber": "0x149dc07"
    },
    {
      "status": "0x1",
      "cumulativeGasUsed": "0x7cba7",
      "logs": [
        {
          "address": "0x2843c269d2a64ecfa63548e8b3fc0fd23b7f70cb",
          "topics": [
            "0xbb47ee3e183a558b1a2ff0874b079f3fc5478b7454eacf2bfc5af2ff5878f972"
          ],
          "data": "0x",
          "blockHash": "0x36fb00f274b09676b9af01100c0d7cb3445f5a39de0939eb66955a7e8fe89702",
          "blockNumber": "0xab7aa",
          "transactionHash": "0xd1d8e09ff2c4c5e1c025f9590e48cf4ef345dba9fc75673865d6fe743001ac84",
          "transactionIndex": "0x1",
          "logIndex": "0x0",
          "removed": false
        },
        {
          "address": "0x010700808d59d2bb92257fcafacfe8e5bff7ab87",
          "topics": [
            "0xddf252ad1be2c89b69c2b068fc378daa952ba7f163c4a11628f55a4df523b3ef",
            "0x0000000000000000000000000000000000000000000000000000000000000000",
            "0x00000000000000000000000071f51c64110709880260610ea8c411a28c067739"
          ],
          "data": "0x000000000000000000000000000000000000000000000002b5e3af16b1880000",
          "blockHash": "0x36fb00f274b09676b9af01100c0d7cb3445f5a39de0939eb66955a7e8fe89702",
          "blockNumber": "0xab7aa",
          "transactionHash": "0xd1d8e09ff2c4c5e1c025f9590e48cf4ef345dba9fc75673865d6fe743001ac84",
          "transactionIndex": "0x1",
          "logIndex": "0x1",
          "removed": false
        },
        {
          "address": "0x2843c269d2a64ecfa63548e8b3fc0fd23b7f70cb",
          "topics": [
            "0x49628fd1471006c1482da88028e9ce4dbb080b815c9b0344d39e5a8e6ec1419f",
            "0x635b3e72688cc4ddf5bcea7dfbcb3eae5a7b4c0873216e35dab4e7f0abc4af8f",
            "0x0000000000000000000000002e2b1c42e38f5af81771e65d87729e57abd1337a",
            "0x0000000000000000000000000000000000000000000000000000000000000000"
          ],
          "data": "0x0000000000000000000000000000000000000000000000000000000000001041000000000000000000000000000000000000000000000000000000000000000100000000000000000000000000000000000000000000000000000000000896dd00000000000000000000000000000000000000000000000000000000000896dd",
          "blockHash": "0x36fb00f274b09676b9af01100c0d7cb3445f5a39de0939eb66955a7e8fe89702",
          "blockNumber": "0xab7aa",
          "transactionHash": "0xd1d8e09ff2c4c5e1c025f9590e48cf4ef345dba9fc75673865d6fe743001ac84",
          "transactionIndex": "0x1",
          "logIndex": "0x2",
          "removed": false
        }
      ],
      "logsBloom": "0x000000000004000000000000000000000000000000000000000000000000000000080000000000000000000100000000000000000000000000000200000000000000000000000000000000080000000000000000000000000000000020000008000000000a0000000000000000000800002000000000000000000010000000000000000000000000000000000000800000000000000000000000000000000000001400000000000000400000000000000000000000000000000002000000004000000002000000100001000000000000000000000000000000000008000020000000000000010800000000000000800000010000000000000000000000000000",
      "type": "0x2",
      "transactionHash": "0xd1d8e09ff2c4c5e1c025f9590e48cf4ef345dba9fc75673865d6fe743001ac84",
      "transactionIndex": "0x1",
      "blockHash": "0x36fb00f274b09676b9af01100c0d7cb3445f5a39de0939eb66955a7e8fe89702",
      "blockNumber": "0xab7aa",
      "gasUsed": "0x7cba7",
      "effectiveGasPrice": "0x5f5e100",
      "from": "0x660ad4b5a74130a4796b4d54bc6750ae93c86e6c",
      "to": "0x2843c269d2a64ecfa63548e8b3fc0fd23b7f70cb",
      "contractAddress": null,
      "gasUsedForL1": "0x4d1ce",
      "l1BlockNumber": "0x149dc07"
    }
  ],
  "libraries": [],
  "pending": [],
  "returns": {},
  "timestamp": 1736796725,
  "chain": 7887,
  "commit": "1dcf2d13"
}