{
  "transactions": [
    {
      "hash": "0xe5be603b2c0aff0332c8b0f9b7f4fc997824f2bb8115869394b47aa7ffcb8598",
      "transactionType": "CALL",
      "contractName": null,
      "contractAddress": "0x2843c269d2a64ecfa63548e8b3fc0fd23b7f70cb",
      "function": "handleOps((address,uint256,bytes,bytes,uint256,uint256,uint256,uint256,uint256,bytes,bytes)[],address)",
      "arguments": [
        "[(0x2e2B1c42E38f5af81771e65D87729E57ABD1337a, 4628, 0x, 0xb61d27f60000000000000000000000002e2b1c42e38f5af81771e65d87729e57abd1337a0000000000000000000000000000000000000000000000000000000000000000000000000000000000000000000000000000000000000000000000000000006000000000000000000000000000000000000000000000000000000000000000c45f9d230100000000000000000000000000000000000000000000000000000000000000400000000000000000000000000000000000000000000000000000000000000080000000000000000000000000000000000000000000000000000000000000000100000000000000000000000014a1ec9b43c270a61cdd89b6cbdd985935d897fe0000000000000000000000000000000000000000000000000000000000000001000000000000000000000000000000000000000000000000000000000000000100000000000000000000000000000000000000000000000000000000, 4000000, 210000, 21000, 1, 1000000000, 0x0000000000000000000000000000000000000000, 0x5201e9090ecec8671ea91ed3a5735acaf71725a85822a6cd50a0c1bdecd4fd1961ee0b8b069fdcfdcb7c6cdbbc999c5f3079072aca71306eb0391a03782d86ee1b3770931c3558cf5add8c8d9c8911a098274d2cf2b1d5264fbf26ef942f3fb7925fbe0c3ab5b776be076710032301f5d4c7ab0fe1789e832e03ef55702a00db121b)]",
        "0x660ad4B5A74130a4796B4d54BC6750Ae93C86e6c"
      ],
      "transaction": {
        "from": "0x660ad4b5a74130a4796b4d54bc6750ae93c86e6c",
        "to": "0x2843c269d2a64ecfa63548e8b3fc0fd23b7f70cb",
        "value": "0x0",
        "input": "0x1fad948c0000000000000000000000000000000000000000000000000000000000000040000000000000000000000000660ad4b5a74130a4796b4d54bc6750ae93c86e6c000000000000000000000000000000000000000000000000000000000000000100000000000000000000000000000000000000000000000000000000000000200000000000000000000000002e2b1c42e38f5af81771e65d87729e57abd1337a00000000000000000000000000000000000000000000000000000000000012140000000000000000000000000000000000000000000000000000000000000160000000000000000000000000000000000000000000000000000000000000018000000000000000000000000000000000000000000000000000000000003d0900000000000000000000000000000000000000000000000000000000000003345000000000000000000000000000000000000000000000000000000000000052080000000000000000000000000000000000000000000000000000000000000001000000000000000000000000000000000000000000000000000000003b9aca000000000000000000000000000000000000000000000000000000000000000320000000000000000000000000000000000000000000000000000000000000036000000000000000000000000000000000000000000000000000000000000000000000000000000000000000000000000000000000000000000000000000000164b61d27f60000000000000000000000002e2b1c42e38f5af81771e65d87729e57abd1337a0000000000000000000000000000000000000000000000000000000000000000000000000000000000000000000000000000000000000000000000000000006000000000000000000000000000000000000000000000000000000000000000c45f9d230100000000000000000000000000000000000000000000000000000000000000400000000000000000000000000000000000000000000000000000000000000080000000000000000000000000000000000000000000000000000000000000000100000000000000000000000014a1ec9b43c270a61cdd89b6cbdd985935d897fe0000000000000000000000000000000000000000000000000000000000000001000000000000000000000000000000000000000000000000000000000000000100000000000000000000000000000000000000000000000000000000000000000000000000000000000000000000000000000000000000000000000000000000000000000000000000000000000000000000000000000014000000000000000000000000000000000000000000000000000000000000000000000000000000000000000000000000000000000000000000000000000000825201e9090ecec8671ea91ed3a5735acaf71725a85822a6cd50a0c1bdecd4fd1961ee0b8b069fdcfdcb7c6cdbbc999c5f3079072aca71306eb0391a03782d86ee1b3770931c3558cf5add8c8d9c8911a098274d2cf2b1d5264fbf26ef942f3fb7925fbe0c3ab5b776be076710032301f5d4c7ab0fe1789e832e03ef55702a00db121b000000000000000000000000000000000000000000000000000000000000",
        "nonce": "0x4bd54",
        "chainId": "0x1ecf"
      },
      "additionalContracts": [],
      "isFixedGasLimit": false
    },
    {
      "hash": "0xa61aee5e6d35e07c15c6f3d59c502dcdd3f03155c4e9a6a1dd9c65d2e175a02d",
      "transactionType": "CALL",
      "contractName": null,
      "contractAddress": "0x2843c269d2a64ecfa63548e8b3fc0fd23b7f70cb",
      "function": "handleOps((address,uint256,bytes,bytes,uint256,uint256,uint256,uint256,uint256,bytes,bytes)[],address)",
      "arguments": [
        "[(0x2e2B1c42E38f5af81771e65D87729E57ABD1337a, 4629, 0x, 0xb61d27f6000000000000000000000000acc000818e5bbd911d5d449aa81cb5ca24024739000000000000000000000000000000000000000000000000000000000000000000000000000000000000000000000000000000000000000000000000000000600000000000000000000000000000000000000000000000000000000000000044d22b5989000000000000000000000000f369f78e3a0492cc4e96a90dae0728a38498e9c700000000000000000000000000000000000000000000000000000000000e808000000000000000000000000000000000000000000000000000000000, 4000000, 210000, 21000, 1, 1000000000, 0x0000000000000000000000000000000000000000, 0x6ced8f14f70bacda5e7646f67545cf86f22bd722af6eddc25783c69493b1af565c040f256a5ca3b6d63c95eb4213bc0b90b5caec5128ad05436525ae39dc5aa41c9249e932128afe1d16f25d02e5c5368198b79545c9b33e77feb3876fe137bac5404fac8339907c62409ee303f8289280fd891f7448a5e578d18e28875d441ea21c)]",
        "0x660ad4B5A74130a4796B4d54BC6750Ae93C86e6c"
      ],
      "transaction": {
        "from": "0x660ad4b5a74130a4796b4d54bc6750ae93c86e6c",
        "to": "0x2843c269d2a64ecfa63548e8b3fc0fd23b7f70cb",
        "value": "0x0",
        "input": "0x1fad948c0000000000000000000000000000000000000000000000000000000000000040000000000000000000000000660ad4b5a74130a4796b4d54bc6750ae93c86e6c000000000000000000000000000000000000000000000000000000000000000100000000000000000000000000000000000000000000000000000000000000200000000000000000000000002e2b1c42e38f5af81771e65d87729e57abd1337a00000000000000000000000000000000000000000000000000000000000012150000000000000000000000000000000000000000000000000000000000000160000000000000000000000000000000000000000000000000000000000000018000000000000000000000000000000000000000000000000000000000003d0900000000000000000000000000000000000000000000000000000000000003345000000000000000000000000000000000000000000000000000000000000052080000000000000000000000000000000000000000000000000000000000000001000000000000000000000000000000000000000000000000000000003b9aca0000000000000000000000000000000000000000000000000000000000000002a000000000000000000000000000000000000000000000000000000000000002e0000000000000000000000000000000000000000000000000000000000000000000000000000000000000000000000000000000000000000000000000000000e4b61d27f6000000000000000000000000acc000818e5bbd911d5d449aa81cb5ca24024739000000000000000000000000000000000000000000000000000000000000000000000000000000000000000000000000000000000000000000000000000000600000000000000000000000000000000000000000000000000000000000000044d22b5989000000000000000000000000f369f78e3a0492cc4e96a90dae0728a38498e9c700000000000000000000000000000000000000000000000000000000000e808000000000000000000000000000000000000000000000000000000000000000000000000000000000000000000000000000000000000000000000000000000000000000000000000000000000000000000000000000000014000000000000000000000000000000000000000000000000000000000000000000000000000000000000000000000000000000000000000000000000000000826ced8f14f70bacda5e7646f67545cf86f22bd722af6eddc25783c69493b1af565c040f256a5ca3b6d63c95eb4213bc0b90b5caec5128ad05436525ae39dc5aa41c9249e932128afe1d16f25d02e5c5368198b79545c9b33e77feb3876fe137bac5404fac8339907c62409ee303f8289280fd891f7448a5e578d18e28875d441ea21c000000000000000000000000000000000000000000000000000000000000",
        "nonce": "0x4bd55",
        "chainId": "0x1ecf"
      },
      "additionalContracts": [],
      "isFixedGasLimit": false
    },
    {
      "hash": "0x466bfb2719e9df103fa2d3b1ee1ac5618182d5a018d0414a2c19d77c302d021c",
      "transactionType": "CALL",
      "contractName": null,
      "contractAddress": "0x2843c269d2a64ecfa63548e8b3fc0fd23b7f70cb",
      "function": "handleOps((address,uint256,bytes,bytes,uint256,uint256,uint256,uint256,uint256,bytes,bytes)[],address)",
      "arguments": [
        "[(0x2e2B1c42E38f5af81771e65D87729E57ABD1337a, 4630, 0x, 0xb61d27f6000000000000000000000000acc000818e5bbd911d5d449aa81cb5ca24024739000000000000000000000000000000000000000000000000000000000000000000000000000000000000000000000000000000000000000000000000000000600000000000000000000000000000000000000000000000000000000000000044d22b59890000000000000000000000005a2b641b84b0230c8e75f55d5afd27f4dbd59d5b00000000000000000000000000000000000000000000000000000000000e808000000000000000000000000000000000000000000000000000000000, 4000000, 210000, 21000, 1, 1000000000, 0x0000000000000000000000000000000000000000, 0x834c24508a5fb41c53786025067cf29bf4768797163b606708655b9806f355866ca2d1e2eb8aab8a2662583c75db26d5e33efae07a1f8963ce53f17fb3ad85f01b20c18cf4a279ddf155a6fa5b2c36561dc3d343faf4dd600e984b3b88dd533be95f068e83debf132702c2fd674d5dcf78105e7562095671fe242848cfad4e410e1c)]",
        "0x660ad4B5A74130a4796B4d54BC6750Ae93C86e6c"
      ],
      "transaction": {
        "from": "0x660ad4b5a74130a4796b4d54bc6750ae93c86e6c",
        "to": "0x2843c269d2a64ecfa63548e8b3fc0fd23b7f70cb",
        "value": "0x0",
        "input": "0x1fad948c0000000000000000000000000000000000000000000000000000000000000040000000000000000000000000660ad4b5a74130a4796b4d54bc6750ae93c86e6c000000000000000000000000000000000000000000000000000000000000000100000000000000000000000000000000000000000000000000000000000000200000000000000000000000002e2b1c42e38f5af81771e65d87729e57abd1337a00000000000000000000000000000000000000000000000000000000000012160000000000000000000000000000000000000000000000000000000000000160000000000000000000000000000000000000000000000000000000000000018000000000000000000000000000000000000000000000000000000000003d0900000000000000000000000000000000000000000000000000000000000003345000000000000000000000000000000000000000000000000000000000000052080000000000000000000000000000000000000000000000000000000000000001000000000000000000000000000000000000000000000000000000003b9aca0000000000000000000000000000000000000000000000000000000000000002a000000000000000000000000000000000000000000000000000000000000002e0000000000000000000000000000000000000000000000000000000000000000000000000000000000000000000000000000000000000000000000000000000e4b61d27f6000000000000000000000000acc000818e5bbd911d5d449aa81cb5ca24024739000000000000000000000000000000000000000000000000000000000000000000000000000000000000000000000000000000000000000000000000000000600000000000000000000000000000000000000000000000000000000000000044d22b59890000000000000000000000005a2b641b84b0230c8e75f55d5afd27f4dbd59d5b00000000000000000000000000000000000000000000000000000000000e80800000000000000000000000000000000000000000000000000000000000000000000000000000000000000000000000000000000000000000000000000000000000000000000000000000000000000000000000000000001400000000000000000000000000000000000000000000000000000000000000000000000000000000000000000000000000000000000000000000000000000082834c24508a5fb41c53786025067cf29bf4768797163b606708655b9806f355866ca2d1e2eb8aab8a2662583c75db26d5e33efae07a1f8963ce53f17fb3ad85f01b20c18cf4a279ddf155a6fa5b2c36561dc3d343faf4dd600e984b3b88dd533be95f068e83debf132702c2fd674d5dcf78105e7562095671fe242848cfad4e410e1c000000000000000000000000000000000000000000000000000000000000",
        "nonce": "0x4bd56",
        "chainId": "0x1ecf"
      },
      "additionalContracts": [],
      "isFixedGasLimit": false
    },
    {
      "hash": "0x1a84b13bf6de26a43415d16f56de1f8926bcbd10533bcd41ea49eb5859372410",
      "transactionType": "CALL",
      "contractName": null,
      "contractAddress": "0x2843c269d2a64ecfa63548e8b3fc0fd23b7f70cb",
      "function": "handleOps((address,uint256,bytes,bytes,uint256,uint256,uint256,uint256,uint256,bytes,bytes)[],address)",
      "arguments": [
        "[(0x2e2B1c42E38f5af81771e65D87729E57ABD1337a, 4631, 0x, 0xb61d27f6000000000000000000000000acc000818e5bbd911d5d449aa81cb5ca24024739000000000000000000000000000000000000000000000000000000000000000000000000000000000000000000000000000000000000000000000000000000600000000000000000000000000000000000000000000000000000000000000044d22b59890000000000000000000000008a4720488ca32f1223ccfe5a087e250fe3bc5d7500000000000000000000000000000000000000000000000000000000000e808000000000000000000000000000000000000000000000000000000000, 4000000, 210000, 21000, 1, 1000000000, 0x0000000000000000000000000000000000000000, 0x58d20acaabc9b21b6b6235be6f86912013d6e522b1e22d6c15dcc27386f1238b708288762b3ad62462b3ffd40acf12a72bbc2244bb32fb689f735aa40f47f2861c80ffdf2335c5fa042d420b01baa1d345648c6fc737ac640196dd447102451f630aa3279fe3d5e4ef031b5eb669735186f697899c952761bdadcf6a610feb24351b)]",
        "0x660ad4B5A74130a4796B4d54BC6750Ae93C86e6c"
      ],
      "transaction": {
        "from": "0x660ad4b5a74130a4796b4d54bc6750ae93c86e6c",
        "to": "0x2843c269d2a64ecfa63548e8b3fc0fd23b7f70cb",
        "value": "0x0",
        "input": "0x1fad948c0000000000000000000000000000000000000000000000000000000000000040000000000000000000000000660ad4b5a74130a4796b4d54bc6750ae93c86e6c000000000000000000000000000000000000000000000000000000000000000100000000000000000000000000000000000000000000000000000000000000200000000000000000000000002e2b1c42e38f5af81771e65d87729e57abd1337a00000000000000000000000000000000000000000000000000000000000012170000000000000000000000000000000000000000000000000000000000000160000000000000000000000000000000000000000000000000000000000000018000000000000000000000000000000000000000000000000000000000003d0900000000000000000000000000000000000000000000000000000000000003345000000000000000000000000000000000000000000000000000000000000052080000000000000000000000000000000000000000000000000000000000000001000000000000000000000000000000000000000000000000000000003b9aca0000000000000000000000000000000000000000000000000000000000000002a000000000000000000000000000000000000000000000000000000000000002e0000000000000000000000000000000000000000000000000000000000000000000000000000000000000000000000000000000000000000000000000000000e4b61d27f6000000000000000000000000acc000818e5bbd911d5d449aa81cb5ca24024739000000000000000000000000000000000000000000000000000000000000000000000000000000000000000000000000000000000000000000000000000000600000000000000000000000000000000000000000000000000000000000000044d22b59890000000000000000000000008a4720488ca32f1223ccfe5a087e250fe3bc5d7500000000000000000000000000000000000000000000000000000000000e8080000000000000000000000000000000000000000000000000000000000000000000000000000000000000000000000000000000000000000000000000000000000000000000000000000000000000000000000000000000140000000000000000000000000000000000000000000000000000000000000000000000000000000000000000000000000000000000000000000000000000008258d20acaabc9b21b6b6235be6f86912013d6e522b1e22d6c15dcc27386f1238b708288762b3ad62462b3ffd40acf12a72bbc2244bb32fb689f735aa40f47f2861c80ffdf2335c5fa042d420b01baa1d345648c6fc737ac640196dd447102451f630aa3279fe3d5e4ef031b5eb669735186f697899c952761bdadcf6a610feb24351b000000000000000000000000000000000000000000000000000000000000",
        "nonce": "0x4bd57",
        "chainId": "0x1ecf"
      },
      "additionalContracts": [],
      "isFixedGasLimit": false
    },
    {
      "hash": "0x6d6222721f2d9e28159ee92c0888d24eacad816b41b6ee0cc8c920b95ebdebda",
      "transactionType": "CALL",
      "contractName": null,
      "contractAddress": "0x2843c269d2a64ecfa63548e8b3fc0fd23b7f70cb",
      "function": "handleOps((address,uint256,bytes,bytes,uint256,uint256,uint256,uint256,uint256,bytes,bytes)[],address)",
      "arguments": [
        "[(0x2e2B1c42E38f5af81771e65D87729E57ABD1337a, 4632, 0x, 0xb61d27f6000000000000000000000000acc000818e5bbd911d5d449aa81cb5ca2402473900000000000000000000000000000000000000000000000000000000000000000000000000000000000000000000000000000000000000000000000000000060000000000000000000000000000000000000000000000000000000000000006425c471a0000000000000000000000000000000000000000000000000cb784571e5a3211800000000000000000000000028fc10e12a78f986c78f973fc70ed88072b34c8e00000000000000000000000000000000000000000000000000000000000e808000000000000000000000000000000000000000000000000000000000, 4000000, 210000, 21000, 1, 1000000000, 0x0000000000000000000000000000000000000000, 0x75eb5b5fb05e8ec9528721d6125e54dfbe9f0e1b9fab6d81c90d3d420ed0921673dcfb01eff8a8d2af9590215d0fdb218f9d8280877e854e477981ce287ccf991cc62f0dab0764302847332eea7aa900932750bef8aedad6b800ceaa3e19601c765b55769c196cad860249c635ad681112b40717bb2b01c123aeb838275670c4531b)]",
        "0x660ad4B5A74130a4796B4d54BC6750Ae93C86e6c"
      ],
      "transaction": {
        "from": "0x660ad4b5a74130a4796b4d54bc6750ae93c86e6c",
        "to": "0x2843c269d2a64ecfa63548e8b3fc0fd23b7f70cb",
        "value": "0x0",
        "input": "0x1fad948c0000000000000000000000000000000000000000000000000000000000000040000000000000000000000000660ad4b5a74130a4796b4d54bc6750ae93c86e6c000000000000000000000000000000000000000000000000000000000000000100000000000000000000000000000000000000000000000000000000000000200000000000000000000000002e2b1c42e38f5af81771e65d87729e57abd1337a00000000000000000000000000000000000000000000000000000000000012180000000000000000000000000000000000000000000000000000000000000160000000000000000000000000000000000000000000000000000000000000018000000000000000000000000000000000000000000000000000000000003d0900000000000000000000000000000000000000000000000000000000000003345000000000000000000000000000000000000000000000000000000000000052080000000000000000000000000000000000000000000000000000000000000001000000000000000000000000000000000000000000000000000000003b9aca0000000000000000000000000000000000000000000000000000000000000002c0000000000000000000000000000000000000000000000000000000000000030000000000000000000000000000000000000000000000000000000000000000000000000000000000000000000000000000000000000000000000000000000104b61d27f6000000000000000000000000acc000818e5bbd911d5d449aa81cb5ca2402473900000000000000000000000000000000000000000000000000000000000000000000000000000000000000000000000000000000000000000000000000000060000000000000000000000000000000000000000000000000000000000000006425c471a0000000000000000000000000000000000000000000000000cb784571e5a3211800000000000000000000000028fc10e12a78f986c78f973fc70ed88072b34c8e00000000000000000000000000000000000000000000000000000000000e8080000000000000000000000000000000000000000000000000000000000000000000000000000000000000000000000000000000000000000000000000000000000000000000000000000000000000000000000000000000140000000000000000000000000000000000000000000000000000000000000000000000000000000000000000000000000000000000000000000000000000008275eb5b5fb05e8ec9528721d6125e54dfbe9f0e1b9fab6d81c90d3d420ed0921673dcfb01eff8a8d2af9590215d0fdb218f9d8280877e854e477981ce287ccf991cc62f0dab0764302847332eea7aa900932750bef8aedad6b800ceaa3e19601c765b55769c196cad860249c635ad681112b40717bb2b01c123aeb838275670c4531b000000000000000000000000000000000000000000000000000000000000",
        "nonce": "0x4bd58",
        "chainId": "0x1ecf"
      },
      "additionalContracts": [],
      "isFixedGasLimit": false
    },
    {
      "hash": "0x58f4d929a82a79a2a94e244f542db4ad08eca33d21c6b1245cddab2735343a20",
      "transactionType": "CALL",
      "contractName": null,
      "contractAddress": "0x2843c269d2a64ecfa63548e8b3fc0fd23b7f70cb",
      "function": "handleOps((address,uint256,bytes,bytes,uint256,uint256,uint256,uint256,uint256,bytes,bytes)[],address)",
      "arguments": [
        "[(0x2e2B1c42E38f5af81771e65D87729E57ABD1337a, 4633, 0x, 0xb61d27f6000000000000000000000000acc000818e5bbd911d5d449aa81cb5ca240247390000000000000000000000000000000000000000000000000000000000000000000000000000000000000000000000000000000000000000000000000000006000000000000000000000000000000000000000000000000000000000000000c41cff79cd000000000000000000000000f369f78e3a0492cc4e96a90dae0728a38498e9c700000000000000000000000000000000000000000000000000000000000000400000000000000000000000000000000000000000000000000000000000000044d547741f71840dc4906352362b0cdaf79870196c8e42acafade72d5d5a6d59291253ceb1000000000000000000000000010600ff5f36c8ef3b6aaf2a88c2de85c798594a0000000000000000000000000000000000000000000000000000000000000000000000000000000000000000000000000000000000000000, 4000000, 210000, 21000, 1, 1000000000, 0x0000000000000000000000000000000000000000, 0xdbae7e470fbb50c5daf8ec134b37055180113e4661a9da6504050c852dfe478a334ad66e7d1002ec8e6a9aa6206b8852923977ea5d321aef240c1274e4ed564e1bac9f21db9be13ce4385f0e416703d55163dfb73a1e3cbf31a00d8cccd238d8d066f6ddcc78577f6a444f949398c6faa3be85d3ad2be3167a16ec110102558a801c)]",
        "0x660ad4B5A74130a4796B4d54BC6750Ae93C86e6c"
      ],
      "transaction": {
        "from": "0x660ad4b5a74130a4796b4d54bc6750ae93c86e6c",
        "to": "0x2843c269d2a64ecfa63548e8b3fc0fd23b7f70cb",
        "value": "0x0",
        "input": "0x1fad948c0000000000000000000000000000000000000000000000000000000000000040000000000000000000000000660ad4b5a74130a4796b4d54bc6750ae93c86e6c000000000000000000000000000000000000000000000000000000000000000100000000000000000000000000000000000000000000000000000000000000200000000000000000000000002e2b1c42e38f5af81771e65d87729e57abd1337a00000000000000000000000000000000000000000000000000000000000012190000000000000000000000000000000000000000000000000000000000000160000000000000000000000000000000000000000000000000000000000000018000000000000000000000000000000000000000000000000000000000003d0900000000000000000000000000000000000000000000000000000000000003345000000000000000000000000000000000000000000000000000000000000052080000000000000000000000000000000000000000000000000000000000000001000000000000000000000000000000000000000000000000000000003b9aca000000000000000000000000000000000000000000000000000000000000000320000000000000000000000000000000000000000000000000000000000000036000000000000000000000000000000000000000000000000000000000000000000000000000000000000000000000000000000000000000000000000000000164b61d27f6000000000000000000000000acc000818e5bbd911d5d449aa81cb5ca240247390000000000000000000000000000000000000000000000000000000000000000000000000000000000000000000000000000000000000000000000000000006000000000000000000000000000000000000000000000000000000000000000c41cff79cd000000000000000000000000f369f78e3a0492cc4e96a90dae0728a38498e9c700000000000000000000000000000000000000000000000000000000000000400000000000000000000000000000000000000000000000000000000000000044d547741f71840dc4906352362b0cdaf79870196c8e42acafade72d5d5a6d59291253ceb1000000000000000000000000010600ff5f36c8ef3b6aaf2a88c2de85c798594a000000000000000000000000000000000000000000000000000000000000000000000000000000000000000000000000000000000000000000000000000000000000000000000000000000000000000000000000000000000000000000000000000000000000000000000000000000000000001400000000000000000000000000000000000000000000000000000000000000000000000000000000000000000000000000000000000000000000000000000082dbae7e470fbb50c5daf8ec134b37055180113e4661a9da6504050c852dfe478a334ad66e7d1002ec8e6a9aa6206b8852923977ea5d321aef240c1274e4ed564e1bac9f21db9be13ce4385f0e416703d55163dfb73a1e3cbf31a00d8cccd238d8d066f6ddcc78577f6a444f949398c6faa3be85d3ad2be3167a16ec110102558a801c000000000000000000000000000000000000000000000000000000000000",
        "nonce": "0x4bd59",
        "chainId": "0x1ecf"
      },
      "additionalContracts": [],
      "isFixedGasLimit": false
    }
  ],
  "receipts": [
    {
      "status": "0x1",
      "cumulativeGasUsed": "0x35a9d",
      "logs": [
        {
          "address": "0x2843c269d2a64ecfa63548e8b3fc0fd23b7f70cb",
          "topics": [
            "0xbb47ee3e183a558b1a2ff0874b079f3fc5478b7454eacf2bfc5af2ff5878f972"
          ],
          "data": "0x",
          "blockHash": "0x7a747db3760d07718fc706c1a3b50827ac5b7a1b24310ae2c69b694c2db936df",
          "blockNumber": "0xbc328",
          "transactionHash": "0xe5be603b2c0aff0332c8b0f9b7f4fc997824f2bb8115869394b47aa7ffcb8598",
          "transactionIndex": "0x1",
          "logIndex": "0x0",
          "removed": false
        },
        {
          "address": "0x2843c269d2a64ecfa63548e8b3fc0fd23b7f70cb",
          "topics": [
            "0x49628fd1471006c1482da88028e9ce4dbb080b815c9b0344d39e5a8e6ec1419f",
            "0x22d1e025eac7d266fd78fed39bbe725062e513152bc92997dec167e66b097fe6",
            "0x0000000000000000000000002e2b1c42e38f5af81771e65d87729e57abd1337a",
            "0x0000000000000000000000000000000000000000000000000000000000000000"
          ],
          "data": "0x0000000000000000000000000000000000000000000000000000000000001214000000000000000000000000000000000000000000000000000000000000000100000000000000000000000000000000000000000000000000000000000859230000000000000000000000000000000000000000000000000000000000085923",
          "blockHash": "0x7a747db3760d07718fc706c1a3b50827ac5b7a1b24310ae2c69b694c2db936df",
          "blockNumber": "0xbc328",
          "transactionHash": "0xe5be603b2c0aff0332c8b0f9b7f4fc997824f2bb8115869394b47aa7ffcb8598",
          "transactionIndex": "0x1",
          "logIndex": "0x1",
          "removed": false
        }
      ],
      "logsBloom": "0x00000000000000000000000000000000000000000000000004000000000000000008000000000000000000010000000000000000000000000000020000000000000000000000000000000000000000000000000000000000000100000000000800000000020000000000000000000800002000000000000000000000000000000000000000000000000000000000800000000000000000000000000000000000000400000000000040400000000000000000000000000000000002000000000000000000000000100001000000000000000000000000000000000000000020000000000000010000000000000000000000000000000000000000000000000000",
      "type": "0x2",
      "transactionHash": "0xe5be603b2c0aff0332c8b0f9b7f4fc997824f2bb8115869394b47aa7ffcb8598",
      "transactionIndex": "0x1",
      "blockHash": "0x7a747db3760d07718fc706c1a3b50827ac5b7a1b24310ae2c69b694c2db936df",
      "blockNumber": "0xbc328",
      "gasUsed": "0x35a9d",
      "effectiveGasPrice": "0x5f5e100",
      "from": "0x660ad4b5a74130a4796b4d54bc6750ae93c86e6c",
      "to": "0x2843c269d2a64ecfa63548e8b3fc0fd23b7f70cb",
      "contractAddress": null,
      "gasUsedForL1": "0xa235",
      "l1BlockNumber": "0x150fa7c"
    },
    {
      "status": "0x1",
      "cumulativeGasUsed": "0x34438",
      "logs": [
        {
          "address": "0x2843c269d2a64ecfa63548e8b3fc0fd23b7f70cb",
          "topics": [
            "0xbb47ee3e183a558b1a2ff0874b079f3fc5478b7454eacf2bfc5af2ff5878f972"
          ],
          "data": "0x",
          "blockHash": "0x73fa285a7fbbcd5c210d1a9b37ef1e9c10beb74cc5788e951ccfdc46d6a3a717",
          "blockNumber": "0xbc329",
          "transactionHash": "0xa61aee5e6d35e07c15c6f3d59c502dcdd3f03155c4e9a6a1dd9c65d2e175a02d",
          "transactionIndex": "0x1",
          "logIndex": "0x0",
          "removed": false
        },
        {
          "address": "0xacc000818e5bbd911d5d449aa81cb5ca24024739",
          "topics": [
            "0xa56b76017453f399ec2327ba00375dbfb1fd070ff854341ad6191e6a2e2de19c",
            "0x000000000000000000000000f369f78e3a0492cc4e96a90dae0728a38498e9c7"
          ],
          "data": "0x00000000000000000000000000000000000000000000000000000000000e80800000000000000000000000000000000000000000000000000000000067e1ebb8",
          "blockHash": "0x73fa285a7fbbcd5c210d1a9b37ef1e9c10beb74cc5788e951ccfdc46d6a3a717",
          "blockNumber": "0xbc329",
          "transactionHash": "0xa61aee5e6d35e07c15c6f3d59c502dcdd3f03155c4e9a6a1dd9c65d2e175a02d",
          "transactionIndex": "0x1",
          "logIndex": "0x1",
          "removed": false
        },
        {
          "address": "0x2843c269d2a64ecfa63548e8b3fc0fd23b7f70cb",
          "topics": [
            "0x49628fd1471006c1482da88028e9ce4dbb080b815c9b0344d39e5a8e6ec1419f",
            "0xa2dd56ccd30dfbdb064845f17a7c8a9da208d7c8bd0542a7eacd34ed8fc59cdf",
            "0x0000000000000000000000002e2b1c42e38f5af81771e65d87729e57abd1337a",
            "0x0000000000000000000000000000000000000000000000000000000000000000"
          ],
          "data": "0x0000000000000000000000000000000000000000000000000000000000001215000000000000000000000000000000000000000000000000000000000000000100000000000000000000000000000000000000000000000000000000000843950000000000000000000000000000000000000000000000000000000000084395",
          "blockHash": "0x73fa285a7fbbcd5c210d1a9b37ef1e9c10beb74cc5788e951ccfdc46d6a3a717",
          "blockNumber": "0xbc329",
          "transactionHash": "0xa61aee5e6d35e07c15c6f3d59c502dcdd3f03155c4e9a6a1dd9c65d2e175a02d",
          "transactionIndex": "0x1",
          "logIndex": "0x2",
          "removed": false
        }
      ],
      "logsBloom": "0x00000000000008000000000000000000000000000000000000000000000000000008000000000000000000010000000000000000000000000000020000000000000000000000000000010000000000000000000000000000000000000000000800000000020000000000000000000800002000000000000000000000100000000000000000000000000002000000800000020000000000000000000100001000000408000000000000400000000000000000000000000000000002000000000000000000000000100001000000000000000000000100000000000000000020000000000000010000000000000000000000000000000000000002010000080000",
      "type": "0x2",
      "transactionHash": "0xa61aee5e6d35e07c15c6f3d59c502dcdd3f03155c4e9a6a1dd9c65d2e175a02d",
      "transactionIndex": "0x1",
      "blockHash": "0x73fa285a7fbbcd5c210d1a9b37ef1e9c10beb74cc5788e951ccfdc46d6a3a717",
      "blockNumber": "0xbc329",
      "gasUsed": "0x34438",
      "effectiveGasPrice": "0x5f5e100",
      "from": "0x660ad4b5a74130a4796b4d54bc6750ae93c86e6c",
      "to": "0x2843c269d2a64ecfa63548e8b3fc0fd23b7f70cb",
      "contractAddress": null,
      "gasUsedForL1": "0xa613",
      "l1BlockNumber": "0x150fa7c"
    },
    {
      "status": "0x1",
      "cumulativeGasUsed": "0x345bf",
      "logs": [
        {
          "address": "0x2843c269d2a64ecfa63548e8b3fc0fd23b7f70cb",
          "topics": [
            "0xbb47ee3e183a558b1a2ff0874b079f3fc5478b7454eacf2bfc5af2ff5878f972"
          ],
          "data": "0x",
          "blockHash": "0x189f19b009b86116172ee3cd6c046bdabe463859b692532a31e10515edf61260",
          "blockNumber": "0xbc32a",
          "transactionHash": "0x466bfb2719e9df103fa2d3b1ee1ac5618182d5a018d0414a2c19d77c302d021c",
          "transactionIndex": "0x1",
          "logIndex": "0x0",
          "removed": false
        },
        {
          "address": "0xacc000818e5bbd911d5d449aa81cb5ca24024739",
          "topics": [
            "0xa56b76017453f399ec2327ba00375dbfb1fd070ff854341ad6191e6a2e2de19c",
            "0x0000000000000000000000005a2b641b84b0230c8e75f55d5afd27f4dbd59d5b"
          ],
          "data": "0x00000000000000000000000000000000000000000000000000000000000e80800000000000000000000000000000000000000000000000000000000067e1ebb9",
          "blockHash": "0x189f19b009b86116172ee3cd6c046bdabe463859b692532a31e10515edf61260",
          "blockNumber": "0xbc32a",
          "transactionHash": "0x466bfb2719e9df103fa2d3b1ee1ac5618182d5a018d0414a2c19d77c302d021c",
          "transactionIndex": "0x1",
          "logIndex": "0x1",
          "removed": false
        },
        {
          "address": "0x2843c269d2a64ecfa63548e8b3fc0fd23b7f70cb",
          "topics": [
            "0x49628fd1471006c1482da88028e9ce4dbb080b815c9b0344d39e5a8e6ec1419f",
            "0xb995d7b722e2b076ed10d3bf5e41acc6fa0aa4880186222301d7d03a209549df",
            "0x0000000000000000000000002e2b1c42e38f5af81771e65d87729e57abd1337a",
            "0x0000000000000000000000000000000000000000000000000000000000000000"
          ],
          "data": "0x00000000000000000000000000000000000000000000000000000000000012160000000000000000000000000000000000000000000000000000000000000001000000000000000000000000000000000000000000000000000000000008439e000000000000000000000000000000000000000000000000000000000008439e",
          "blockHash": "0x189f19b009b86116172ee3cd6c046bdabe463859b692532a31e10515edf61260",
          "blockNumber": "0xbc32a",
          "transactionHash": "0x466bfb2719e9df103fa2d3b1ee1ac5618182d5a018d0414a2c19d77c302d021c",
          "transactionIndex": "0x1",
          "logIndex": "0x2",
          "removed": false
        }
      ],
      "logsBloom": "0x00000000000008000000000000000000000000000000000000000000000000000008000000000080000000010000000000000000000000000000020000000000000000000000000000010000000000000000000000000000000000000000000800000000120000000000000000000800002000000000000000000000000000000000000000000000000002000000800000000000000000000000000100001000000400000200000000400000000000000000000000000000000002000000000000000000000000100001000000000000000000000000000000000000000020000000000000010000000000000000000000000000000000000008090000000000",
      "type": "0x2",
      "transactionHash": "0x466bfb2719e9df103fa2d3b1ee1ac5618182d5a018d0414a2c19d77c302d021c",
      "transactionIndex": "0x1",
      "blockHash": "0x189f19b009b86116172ee3cd6c046bdabe463859b692532a31e10515edf61260",
      "blockNumber": "0xbc32a",
      "gasUsed": "0x345bf",
      "effectiveGasPrice": "0x5f5e100",
      "from": "0x660ad4b5a74130a4796b4d54bc6750ae93c86e6c",
      "to": "0x2843c269d2a64ecfa63548e8b3fc0fd23b7f70cb",
      "contractAddress": null,
      "gasUsedForL1": "0xa790",
      "l1BlockNumber": "0x150fa7c"
    },
    {
      "status": "0x1",
      "cumulativeGasUsed": "0x3451d",
      "logs": [
        {
          "address": "0x2843c269d2a64ecfa63548e8b3fc0fd23b7f70cb",
          "topics": [
            "0xbb47ee3e183a558b1a2ff0874b079f3fc5478b7454eacf2bfc5af2ff5878f972"
          ],
          "data": "0x",
          "blockHash": "0xb489e642a139de8cb1f89990fb3614722f53e8b866991779b4b60a0ac9c90373",
          "blockNumber": "0xbc32b",
          "transactionHash": "0x1a84b13bf6de26a43415d16f56de1f8926bcbd10533bcd41ea49eb5859372410",
          "transactionIndex": "0x1",
          "logIndex": "0x0",
          "removed": false
        },
        {
          "address": "0xacc000818e5bbd911d5d449aa81cb5ca24024739",
          "topics": [
            "0xa56b76017453f399ec2327ba00375dbfb1fd070ff854341ad6191e6a2e2de19c",
            "0x0000000000000000000000008a4720488ca32f1223ccfe5a087e250fe3bc5d75"
          ],
          "data": "0x00000000000000000000000000000000000000000000000000000000000e80800000000000000000000000000000000000000000000000000000000067e1ebba",
          "blockHash": "0xb489e642a139de8cb1f89990fb3614722f53e8b866991779b4b60a0ac9c90373",
          "blockNumber": "0xbc32b",
          "transactionHash": "0x1a84b13bf6de26a43415d16f56de1f8926bcbd10533bcd41ea49eb5859372410",
          "transactionIndex": "0x1",
          "logIndex": "0x1",
          "removed": false
        },
        {
          "address": "0x2843c269d2a64ecfa63548e8b3fc0fd23b7f70cb",
          "topics": [
            "0x49628fd1471006c1482da88028e9ce4dbb080b815c9b0344d39e5a8e6ec1419f",
            "0x946da342e04c66ae753a35bccd9a7331fe13c1225cb0dd06073b3909f8829609",
            "0x0000000000000000000000002e2b1c42e38f5af81771e65d87729e57abd1337a",
            "0x0000000000000000000000000000000000000000000000000000000000000000"
          ],
          "data": "0x0000000000000000000000000000000000000000000000000000000000001217000000000000000000000000000000000000000000000000000000000000000100000000000000000000000000000000000000000000000000000000000843950000000000000000000000000000000000000000000000000000000000084395",
          "blockHash": "0xb489e642a139de8cb1f89990fb3614722f53e8b866991779b4b60a0ac9c90373",
          "blockNumber": "0xbc32b",
          "transactionHash": "0x1a84b13bf6de26a43415d16f56de1f8926bcbd10533bcd41ea49eb5859372410",
          "transactionIndex": "0x1",
          "logIndex": "0x2",
          "removed": false
        }
      ],
      "logsBloom": "0x00000000000008000000000000000000000000000000000000000000000000000008000000000010000000010000000000000000000000000000020000000000000000000000000000010000000000000000000000000000000000000000000802000004020000000000000000000800002000000000080000000000000000000000000000000000000002000000800000000000000000000000000100001000000400000000000000400000000000000000000000000000400002000000000000000000000000300001000000000000000000000000000000000000000020000000000000010000000000000000000000000000000000000000010000000000",
      "type": "0x2",
      "transactionHash": "0x1a84b13bf6de26a43415d16f56de1f8926bcbd10533bcd41ea49eb5859372410",
      "transactionIndex": "0x1",
      "blockHash": "0xb489e642a139de8cb1f89990fb3614722f53e8b866991779b4b60a0ac9c90373",
      "blockNumber": "0xbc32b",
      "gasUsed": "0x3451d",
      "effectiveGasPrice": "0x5f5e100",
      "from": "0x660ad4b5a74130a4796b4d54bc6750ae93c86e6c",
      "to": "0x2843c269d2a64ecfa63548e8b3fc0fd23b7f70cb",
      "contractAddress": null,
      "gasUsedForL1": "0xa6f8",
      "l1BlockNumber": "0x150fa7c"
    },
    {
      "status": "0x1",
      "cumulativeGasUsed": "0x35a79",
      "logs": [
        {
          "address": "0x2843c269d2a64ecfa63548e8b3fc0fd23b7f70cb",
          "topics": [
            "0xbb47ee3e183a558b1a2ff0874b079f3fc5478b7454eacf2bfc5af2ff5878f972"
          ],
          "data": "0x",
          "blockHash": "0x8ecc7e8871c3e62b28dcb316742b4f6cb205cac20ce5c29fa362b18dd4620f24",
          "blockNumber": "0xbc32c",
          "transactionHash": "0x6d6222721f2d9e28159ee92c0888d24eacad816b41b6ee0cc8c920b95ebdebda",
          "transactionIndex": "0x1",
          "logIndex": "0x0",
          "removed": false
        },
        {
          "address": "0xacc000818e5bbd911d5d449aa81cb5ca24024739",
          "topics": [
            "0xf98448b987f1428e0e230e1f3c6e2ce15b5693eaf31827fbd0b1ec4b424ae7cf",
            "0x000000000000000000000000000000000000000000000000cb784571e5a32118",
            "0x00000000000000000000000028fc10e12a78f986c78f973fc70ed88072b34c8e"
          ],
          "data": "0x00000000000000000000000000000000000000000000000000000000000e80800000000000000000000000000000000000000000000000000000000067db543a0000000000000000000000000000000000000000000000000000000000000000",
          "blockHash": "0x8ecc7e8871c3e62b28dcb316742b4f6cb205cac20ce5c29fa362b18dd4620f24",
          "blockNumber": "0xbc32c",
          "transactionHash": "0x6d6222721f2d9e28159ee92c0888d24eacad816b41b6ee0cc8c920b95ebdebda",
          "transactionIndex": "0x1",
          "logIndex": "0x1",
          "removed": false
        },
        {
          "address": "0x2843c269d2a64ecfa63548e8b3fc0fd23b7f70cb",
          "topics": [
            "0x49628fd1471006c1482da88028e9ce4dbb080b815c9b0344d39e5a8e6ec1419f",
            "0x75e9b6fe2593bd48e870ef8934736bb1e8ccb53bbce973283f8015edc94c43ce",
            "0x0000000000000000000000002e2b1c42e38f5af81771e65d87729e57abd1337a",
            "0x0000000000000000000000000000000000000000000000000000000000000000"
          ],
          "data": "0x0000000000000000000000000000000000000000000000000000000000001218000000000000000000000000000000000000000000000000000000000000000100000000000000000000000000000000000000000000000000000000000855020000000000000000000000000000000000000000000000000000000000085502",
          "blockHash": "0x8ecc7e8871c3e62b28dcb316742b4f6cb205cac20ce5c29fa362b18dd4620f24",
          "blockNumber": "0xbc32c",
          "transactionHash": "0x6d6222721f2d9e28159ee92c0888d24eacad816b41b6ee0cc8c920b95ebdebda",
          "transactionIndex": "0x1",
          "logIndex": "0x2",
          "removed": false
        }
      ],
      "logsBloom": "0x00000000000008000000000000000000000000000000000000000000000000000008008000000000000000010000000000000000000000000000020000000000000000000000000000000000000000000000000000000000000002000000000800000000020000000000000000000800002020000000000000000000000000000000000000000000000002000000800008000000000000000000000000001800000400000000000000402000000000000020000000000008000012000000000000000000000000100001000000000000000200000000000000000000000020000000000000010000000000000000000000800000000000000000100000000000",
      "type": "0x2",
      "transactionHash": "0x6d6222721f2d9e28159ee92c0888d24eacad816b41b6ee0cc8c920b95ebdebda",
      "transactionIndex": "0x1",
      "blockHash": "0x8ecc7e8871c3e62b28dcb316742b4f6cb205cac20ce5c29fa362b18dd4620f24",
      "blockNumber": "0xbc32c",
      "gasUsed": "0x35a79",
      "effectiveGasPrice": "0x5f5e100",
      "from": "0x660ad4b5a74130a4796b4d54bc6750ae93c86e6c",
      "to": "0x2843c269d2a64ecfa63548e8b3fc0fd23b7f70cb",
      "contractAddress": null,
      "gasUsedForL1": "0xa829",
      "l1BlockNumber": "0x150fa7c"
    },
    {
      "status": "0x1",
      "cumulativeGasUsed": "0x38df7",
      "logs": [
        {
          "address": "0x2843c269d2a64ecfa63548e8b3fc0fd23b7f70cb",
          "topics": [
            "0xbb47ee3e183a558b1a2ff0874b079f3fc5478b7454eacf2bfc5af2ff5878f972"
          ],
          "data": "0x",
          "blockHash": "0x988f9f34ab99a2b32dd1b9f04cfa1564073f76d992f25ec675db22573885a990",
          "blockNumber": "0xbc32d",
          "transactionHash": "0x58f4d929a82a79a2a94e244f542db4ad08eca33d21c6b1245cddab2735343a20",
          "transactionIndex": "0x1",
          "logIndex": "0x0",
          "removed": false
        },
        {
          "address": "0xf369f78e3a0492cc4e96a90dae0728a38498e9c7",
          "topics": [
            "0xf6391f5c32d9c69d2a47ea670b442974b53935d1edc7fd64eb21e047a839171b",
            "0x71840dc4906352362b0cdaf79870196c8e42acafade72d5d5a6d59291253ceb1",
            "0x000000000000000000000000010600ff5f36c8ef3b6aaf2a88c2de85c798594a",
            "0x000000000000000000000000acc000818e5bbd911d5d449aa81cb5ca24024739"
          ],
          "data": "0x",
          "blockHash": "0x988f9f34ab99a2b32dd1b9f04cfa1564073f76d992f25ec675db22573885a990",
          "blockNumber": "0xbc32d",
          "transactionHash": "0x58f4d929a82a79a2a94e244f542db4ad08eca33d21c6b1245cddab2735343a20",
          "transactionIndex": "0x1",
          "logIndex": "0x1",
          "removed": false
        },
        {
          "address": "0x2843c269d2a64ecfa63548e8b3fc0fd23b7f70cb",
          "topics": [
            "0x49628fd1471006c1482da88028e9ce4dbb080b815c9b0344d39e5a8e6ec1419f",
            "0xb9966f177f51a1d2827594521a6ed41f3eeb21382a1c7907bb6dea2f49b289f1",
            "0x0000000000000000000000002e2b1c42e38f5af81771e65d87729e57abd1337a",
            "0x0000000000000000000000000000000000000000000000000000000000000000"
          ],
          "data": "0x00000000000000000000000000000000000000000000000000000000000012190000000000000000000000000000000000000000000000000000000000000001000000000000000000000000000000000000000000000000000000000008c3b1000000000000000000000000000000000000000000000000000000000008c3b1",
          "blockHash": "0x988f9f34ab99a2b32dd1b9f04cfa1564073f76d992f25ec675db22573885a990",
          "blockNumber": "0xbc32d",
          "transactionHash": "0x58f4d929a82a79a2a94e244f542db4ad08eca33d21c6b1245cddab2735343a20",
          "transactionIndex": "0x1",
          "logIndex": "0x2",
          "removed": false
        }
      ],
      "logsBloom": "0x00000000000000002000000000000004800000000000000000000000000000000008000000000000000000010000000000200000000000000004020000000000008000000000000000000000000000000000000000000010000000000000000850000000020000000000000000000800002040000000000000000000000000000000000040000000000000000000800000000000000080000000020000000000000400000000000000400000008000000000000000000000000002000000000000000000100000300001000000000000000000000000000000000000000020000000000000010000000000010000000000020000000000000000000000000000",
      "type": "0x2",
      "transactionHash": "0x58f4d929a82a79a2a94e244f542db4ad08eca33d21c6b1245cddab2735343a20",
      "transactionIndex": "0x1",
      "blockHash": "0x988f9f34ab99a2b32dd1b9f04cfa1564073f76d992f25ec675db22573885a990",
      "blockNumber": "0xbc32d",
      "gasUsed": "0x38df7",
      "effectiveGasPrice": "0x5f5e100",
      "from": "0x660ad4b5a74130a4796b4d54bc6750ae93c86e6c",
      "to": "0x2843c269d2a64ecfa63548e8b3fc0fd23b7f70cb",
      "contractAddress": null,
      "gasUsedForL1": "0xbd4a",
      "l1BlockNumber": "0x150fa7c"
    }
  ],
  "libraries": [],
  "pending": [],
  "returns": {},
  "timestamp": 1742427195,
  "chain": 7887,
  "commit": "0c345e80"
}