{
  "transactions": [
    {
      "hash": null,
      "transactionType": "CALL",
      "contractName": null,
      "contractAddress": "0x2843c269d2a64ecfa63548e8b3fc0fd23b7f70cb",
      "function": "handleOps((address,uint256,bytes,bytes,uint256,uint256,uint256,uint256,uint256,bytes,bytes)[],address)",
      "arguments": [
        "[(0x2e2B1c42E38f5af81771e65D87729E57ABD1337a, 4628, 0x, 0xb61d27f60000000000000000000000002e2b1c42e38f5af81771e65d87729e57abd1337a0000000000000000000000000000000000000000000000000000000000000000000000000000000000000000000000000000000000000000000000000000006000000000000000000000000000000000000000000000000000000000000000c45f9d230100000000000000000000000000000000000000000000000000000000000000400000000000000000000000000000000000000000000000000000000000000080000000000000000000000000000000000000000000000000000000000000000100000000000000000000000014a1ec9b43c270a61cdd89b6cbdd985935d897fe0000000000000000000000000000000000000000000000000000000000000001000000000000000000000000000000000000000000000000000000000000000100000000000000000000000000000000000000000000000000000000, 4000000, 210000, 21000, 1, 1000000000, 0x0000000000000000000000000000000000000000, 0x5201e9090ecec8671ea91ed3a5735acaf71725a85822a6cd50a0c1bdecd4fd1961ee0b8b069fdcfdcb7c6cdbbc999c5f3079072aca71306eb0391a03782d86ee1b3770931c3558cf5add8c8d9c8911a098274d2cf2b1d5264fbf26ef942f3fb7925fbe0c3ab5b776be076710032301f5d4c7ab0fe1789e832e03ef55702a00db121b)]",
        "0x660ad4B5A74130a4796B4d54BC6750Ae93C86e6c"
      ],
      "transaction": {
        "from": "0x660ad4b5a74130a4796b4d54bc6750ae93c86e6c",
        "to": "0x2843c269d2a64ecfa63548e8b3fc0fd23b7f70cb",
        "value": "0x0",
        "input": "0x1fad948c0000000000000000000000000000000000000000000000000000000000000040000000000000000000000000660ad4b5a74130a4796b4d54bc6750ae93c86e6c000000000000000000000000000000000000000000000000000000000000000100000000000000000000000000000000000000000000000000000000000000200000000000000000000000002e2b1c42e38f5af81771e65d87729e57abd1337a00000000000000000000000000000000000000000000000000000000000012140000000000000000000000000000000000000000000000000000000000000160000000000000000000000000000000000000000000000000000000000000018000000000000000000000000000000000000000000000000000000000003d0900000000000000000000000000000000000000000000000000000000000003345000000000000000000000000000000000000000000000000000000000000052080000000000000000000000000000000000000000000000000000000000000001000000000000000000000000000000000000000000000000000000003b9aca000000000000000000000000000000000000000000000000000000000000000320000000000000000000000000000000000000000000000000000000000000036000000000000000000000000000000000000000000000000000000000000000000000000000000000000000000000000000000000000000000000000000000164b61d27f60000000000000000000000002e2b1c42e38f5af81771e65d87729e57abd1337a0000000000000000000000000000000000000000000000000000000000000000000000000000000000000000000000000000000000000000000000000000006000000000000000000000000000000000000000000000000000000000000000c45f9d230100000000000000000000000000000000000000000000000000000000000000400000000000000000000000000000000000000000000000000000000000000080000000000000000000000000000000000000000000000000000000000000000100000000000000000000000014a1ec9b43c270a61cdd89b6cbdd985935d897fe0000000000000000000000000000000000000000000000000000000000000001000000000000000000000000000000000000000000000000000000000000000100000000000000000000000000000000000000000000000000000000000000000000000000000000000000000000000000000000000000000000000000000000000000000000000000000000000000000000000000000014000000000000000000000000000000000000000000000000000000000000000000000000000000000000000000000000000000000000000000000000000000825201e9090ecec8671ea91ed3a5735acaf71725a85822a6cd50a0c1bdecd4fd1961ee0b8b069fdcfdcb7c6cdbbc999c5f3079072aca71306eb0391a03782d86ee1b3770931c3558cf5add8c8d9c8911a098274d2cf2b1d5264fbf26ef942f3fb7925fbe0c3ab5b776be076710032301f5d4c7ab0fe1789e832e03ef55702a00db121b000000000000000000000000000000000000000000000000000000000000",
        "nonce": "0x4bd53",
        "chainId": "0x1ecf"
      },
      "additionalContracts": [],
      "isFixedGasLimit": false
    },
    {
      "hash": null,
      "transactionType": "CALL",
      "contractName": null,
      "contractAddress": "0x2843c269d2a64ecfa63548e8b3fc0fd23b7f70cb",
      "function": "handleOps((address,uint256,bytes,bytes,uint256,uint256,uint256,uint256,uint256,bytes,bytes)[],address)",
      "arguments": [
        "[(0x2e2B1c42E38f5af81771e65D87729E57ABD1337a, 4629, 0x, 0xb61d27f6000000000000000000000000acc000818e5bbd911d5d449aa81cb5ca24024739000000000000000000000000000000000000000000000000000000000000000000000000000000000000000000000000000000000000000000000000000000600000000000000000000000000000000000000000000000000000000000000044d22b5989000000000000000000000000f369f78e3a0492cc4e96a90dae0728a38498e9c700000000000000000000000000000000000000000000000000000000000e808000000000000000000000000000000000000000000000000000000000, 4000000, 210000, 21000, 1, 1000000000, 0x0000000000000000000000000000000000000000, 0x6ced8f14f70bacda5e7646f67545cf86f22bd722af6eddc25783c69493b1af565c040f256a5ca3b6d63c95eb4213bc0b90b5caec5128ad05436525ae39dc5aa41c9249e932128afe1d16f25d02e5c5368198b79545c9b33e77feb3876fe137bac5404fac8339907c62409ee303f8289280fd891f7448a5e578d18e28875d441ea21c)]",
        "0x660ad4B5A74130a4796B4d54BC6750Ae93C86e6c"
      ],
      "transaction": {
        "from": "0x660ad4b5a74130a4796b4d54bc6750ae93c86e6c",
        "to": "0x2843c269d2a64ecfa63548e8b3fc0fd23b7f70cb",
        "value": "0x0",
        "input": "0x1fad948c0000000000000000000000000000000000000000000000000000000000000040000000000000000000000000660ad4b5a74130a4796b4d54bc6750ae93c86e6c000000000000000000000000000000000000000000000000000000000000000100000000000000000000000000000000000000000000000000000000000000200000000000000000000000002e2b1c42e38f5af81771e65d87729e57abd1337a00000000000000000000000000000000000000000000000000000000000012150000000000000000000000000000000000000000000000000000000000000160000000000000000000000000000000000000000000000000000000000000018000000000000000000000000000000000000000000000000000000000003d0900000000000000000000000000000000000000000000000000000000000003345000000000000000000000000000000000000000000000000000000000000052080000000000000000000000000000000000000000000000000000000000000001000000000000000000000000000000000000000000000000000000003b9aca0000000000000000000000000000000000000000000000000000000000000002a000000000000000000000000000000000000000000000000000000000000002e0000000000000000000000000000000000000000000000000000000000000000000000000000000000000000000000000000000000000000000000000000000e4b61d27f6000000000000000000000000acc000818e5bbd911d5d449aa81cb5ca24024739000000000000000000000000000000000000000000000000000000000000000000000000000000000000000000000000000000000000000000000000000000600000000000000000000000000000000000000000000000000000000000000044d22b5989000000000000000000000000f369f78e3a0492cc4e96a90dae0728a38498e9c700000000000000000000000000000000000000000000000000000000000e808000000000000000000000000000000000000000000000000000000000000000000000000000000000000000000000000000000000000000000000000000000000000000000000000000000000000000000000000000000014000000000000000000000000000000000000000000000000000000000000000000000000000000000000000000000000000000000000000000000000000000826ced8f14f70bacda5e7646f67545cf86f22bd722af6eddc25783c69493b1af565c040f256a5ca3b6d63c95eb4213bc0b90b5caec5128ad05436525ae39dc5aa41c9249e932128afe1d16f25d02e5c5368198b79545c9b33e77feb3876fe137bac5404fac8339907c62409ee303f8289280fd891f7448a5e578d18e28875d441ea21c000000000000000000000000000000000000000000000000000000000000",
        "nonce": "0x4bd54",
        "chainId": "0x1ecf"
      },
      "additionalContracts": [],
      "isFixedGasLimit": false
    },
    {
      "hash": null,
      "transactionType": "CALL",
      "contractName": null,
      "contractAddress": "0x2843c269d2a64ecfa63548e8b3fc0fd23b7f70cb",
      "function": "handleOps((address,uint256,bytes,bytes,uint256,uint256,uint256,uint256,uint256,bytes,bytes)[],address)",
      "arguments": [
        "[(0x2e2B1c42E38f5af81771e65D87729E57ABD1337a, 4630, 0x, 0xb61d27f6000000000000000000000000acc000818e5bbd911d5d449aa81cb5ca24024739000000000000000000000000000000000000000000000000000000000000000000000000000000000000000000000000000000000000000000000000000000600000000000000000000000000000000000000000000000000000000000000044d22b59890000000000000000000000005a2b641b84b0230c8e75f55d5afd27f4dbd59d5b00000000000000000000000000000000000000000000000000000000000e808000000000000000000000000000000000000000000000000000000000, 4000000, 210000, 21000, 1, 1000000000, 0x0000000000000000000000000000000000000000, 0x834c24508a5fb41c53786025067cf29bf4768797163b606708655b9806f355866ca2d1e2eb8aab8a2662583c75db26d5e33efae07a1f8963ce53f17fb3ad85f01b20c18cf4a279ddf155a6fa5b2c36561dc3d343faf4dd600e984b3b88dd533be95f068e83debf132702c2fd674d5dcf78105e7562095671fe242848cfad4e410e1c)]",
        "0x660ad4B5A74130a4796B4d54BC6750Ae93C86e6c"
      ],
      "transaction": {
        "from": "0x660ad4b5a74130a4796b4d54bc6750ae93c86e6c",
        "to": "0x2843c269d2a64ecfa63548e8b3fc0fd23b7f70cb",
        "value": "0x0",
        "input": "0x1fad948c0000000000000000000000000000000000000000000000000000000000000040000000000000000000000000660ad4b5a74130a4796b4d54bc6750ae93c86e6c000000000000000000000000000000000000000000000000000000000000000100000000000000000000000000000000000000000000000000000000000000200000000000000000000000002e2b1c42e38f5af81771e65d87729e57abd1337a00000000000000000000000000000000000000000000000000000000000012160000000000000000000000000000000000000000000000000000000000000160000000000000000000000000000000000000000000000000000000000000018000000000000000000000000000000000000000000000000000000000003d0900000000000000000000000000000000000000000000000000000000000003345000000000000000000000000000000000000000000000000000000000000052080000000000000000000000000000000000000000000000000000000000000001000000000000000000000000000000000000000000000000000000003b9aca0000000000000000000000000000000000000000000000000000000000000002a000000000000000000000000000000000000000000000000000000000000002e0000000000000000000000000000000000000000000000000000000000000000000000000000000000000000000000000000000000000000000000000000000e4b61d27f6000000000000000000000000acc000818e5bbd911d5d449aa81cb5ca24024739000000000000000000000000000000000000000000000000000000000000000000000000000000000000000000000000000000000000000000000000000000600000000000000000000000000000000000000000000000000000000000000044d22b59890000000000000000000000005a2b641b84b0230c8e75f55d5afd27f4dbd59d5b00000000000000000000000000000000000000000000000000000000000e80800000000000000000000000000000000000000000000000000000000000000000000000000000000000000000000000000000000000000000000000000000000000000000000000000000000000000000000000000000001400000000000000000000000000000000000000000000000000000000000000000000000000000000000000000000000000000000000000000000000000000082834c24508a5fb41c53786025067cf29bf4768797163b606708655b9806f355866ca2d1e2eb8aab8a2662583c75db26d5e33efae07a1f8963ce53f17fb3ad85f01b20c18cf4a279ddf155a6fa5b2c36561dc3d343faf4dd600e984b3b88dd533be95f068e83debf132702c2fd674d5dcf78105e7562095671fe242848cfad4e410e1c000000000000000000000000000000000000000000000000000000000000",
        "nonce": "0x4bd55",
        "chainId": "0x1ecf"
      },
      "additionalContracts": [],
      "isFixedGasLimit": false
    },
    {
      "hash": null,
      "transactionType": "CALL",
      "contractName": null,
      "contractAddress": "0x2843c269d2a64ecfa63548e8b3fc0fd23b7f70cb",
      "function": "handleOps((address,uint256,bytes,bytes,uint256,uint256,uint256,uint256,uint256,bytes,bytes)[],address)",
      "arguments": [
        "[(0x2e2B1c42E38f5af81771e65D87729E57ABD1337a, 4631, 0x, 0xb61d27f6000000000000000000000000acc000818e5bbd911d5d449aa81cb5ca24024739000000000000000000000000000000000000000000000000000000000000000000000000000000000000000000000000000000000000000000000000000000600000000000000000000000000000000000000000000000000000000000000044d22b59890000000000000000000000008a4720488ca32f1223ccfe5a087e250fe3bc5d7500000000000000000000000000000000000000000000000000000000000e808000000000000000000000000000000000000000000000000000000000, 4000000, 210000, 21000, 1, 1000000000, 0x0000000000000000000000000000000000000000, 0x58d20acaabc9b21b6b6235be6f86912013d6e522b1e22d6c15dcc27386f1238b708288762b3ad62462b3ffd40acf12a72bbc2244bb32fb689f735aa40f47f2861c80ffdf2335c5fa042d420b01baa1d345648c6fc737ac640196dd447102451f630aa3279fe3d5e4ef031b5eb669735186f697899c952761bdadcf6a610feb24351b)]",
        "0x660ad4B5A74130a4796B4d54BC6750Ae93C86e6c"
      ],
      "transaction": {
        "from": "0x660ad4b5a74130a4796b4d54bc6750ae93c86e6c",
        "to": "0x2843c269d2a64ecfa63548e8b3fc0fd23b7f70cb",
        "value": "0x0",
        "input": "0x1fad948c0000000000000000000000000000000000000000000000000000000000000040000000000000000000000000660ad4b5a74130a4796b4d54bc6750ae93c86e6c000000000000000000000000000000000000000000000000000000000000000100000000000000000000000000000000000000000000000000000000000000200000000000000000000000002e2b1c42e38f5af81771e65d87729e57abd1337a00000000000000000000000000000000000000000000000000000000000012170000000000000000000000000000000000000000000000000000000000000160000000000000000000000000000000000000000000000000000000000000018000000000000000000000000000000000000000000000000000000000003d0900000000000000000000000000000000000000000000000000000000000003345000000000000000000000000000000000000000000000000000000000000052080000000000000000000000000000000000000000000000000000000000000001000000000000000000000000000000000000000000000000000000003b9aca0000000000000000000000000000000000000000000000000000000000000002a000000000000000000000000000000000000000000000000000000000000002e0000000000000000000000000000000000000000000000000000000000000000000000000000000000000000000000000000000000000000000000000000000e4b61d27f6000000000000000000000000acc000818e5bbd911d5d449aa81cb5ca24024739000000000000000000000000000000000000000000000000000000000000000000000000000000000000000000000000000000000000000000000000000000600000000000000000000000000000000000000000000000000000000000000044d22b59890000000000000000000000008a4720488ca32f1223ccfe5a087e250fe3bc5d7500000000000000000000000000000000000000000000000000000000000e8080000000000000000000000000000000000000000000000000000000000000000000000000000000000000000000000000000000000000000000000000000000000000000000000000000000000000000000000000000000140000000000000000000000000000000000000000000000000000000000000000000000000000000000000000000000000000000000000000000000000000008258d20acaabc9b21b6b6235be6f86912013d6e522b1e22d6c15dcc27386f1238b708288762b3ad62462b3ffd40acf12a72bbc2244bb32fb689f735aa40f47f2861c80ffdf2335c5fa042d420b01baa1d345648c6fc737ac640196dd447102451f630aa3279fe3d5e4ef031b5eb669735186f697899c952761bdadcf6a610feb24351b000000000000000000000000000000000000000000000000000000000000",
        "nonce": "0x4bd56",
        "chainId": "0x1ecf"
      },
      "additionalContracts": [],
      "isFixedGasLimit": false
    },
    {
      "hash": null,
      "transactionType": "CALL",
      "contractName": null,
      "contractAddress": "0x2843c269d2a64ecfa63548e8b3fc0fd23b7f70cb",
      "function": "handleOps((address,uint256,bytes,bytes,uint256,uint256,uint256,uint256,uint256,bytes,bytes)[],address)",
      "arguments": [
        "[(0x2e2B1c42E38f5af81771e65D87729E57ABD1337a, 4632, 0x, 0xb61d27f6000000000000000000000000acc000818e5bbd911d5d449aa81cb5ca2402473900000000000000000000000000000000000000000000000000000000000000000000000000000000000000000000000000000000000000000000000000000060000000000000000000000000000000000000000000000000000000000000006425c471a0000000000000000000000000000000000000000000000000cb784571e5a3211800000000000000000000000028fc10e12a78f986c78f973fc70ed88072b34c8e00000000000000000000000000000000000000000000000000000000000e808000000000000000000000000000000000000000000000000000000000, 4000000, 210000, 21000, 1, 1000000000, 0x0000000000000000000000000000000000000000, 0x75eb5b5fb05e8ec9528721d6125e54dfbe9f0e1b9fab6d81c90d3d420ed0921673dcfb01eff8a8d2af9590215d0fdb218f9d8280877e854e477981ce287ccf991cc62f0dab0764302847332eea7aa900932750bef8aedad6b800ceaa3e19601c765b55769c196cad860249c635ad681112b40717bb2b01c123aeb838275670c4531b)]",
        "0x660ad4B5A74130a4796B4d54BC6750Ae93C86e6c"
      ],
      "transaction": {
        "from": "0x660ad4b5a74130a4796b4d54bc6750ae93c86e6c",
        "to": "0x2843c269d2a64ecfa63548e8b3fc0fd23b7f70cb",
        "value": "0x0",
        "input": "0x1fad948c0000000000000000000000000000000000000000000000000000000000000040000000000000000000000000660ad4b5a74130a4796b4d54bc6750ae93c86e6c000000000000000000000000000000000000000000000000000000000000000100000000000000000000000000000000000000000000000000000000000000200000000000000000000000002e2b1c42e38f5af81771e65d87729e57abd1337a00000000000000000000000000000000000000000000000000000000000012180000000000000000000000000000000000000000000000000000000000000160000000000000000000000000000000000000000000000000000000000000018000000000000000000000000000000000000000000000000000000000003d0900000000000000000000000000000000000000000000000000000000000003345000000000000000000000000000000000000000000000000000000000000052080000000000000000000000000000000000000000000000000000000000000001000000000000000000000000000000000000000000000000000000003b9aca0000000000000000000000000000000000000000000000000000000000000002c0000000000000000000000000000000000000000000000000000000000000030000000000000000000000000000000000000000000000000000000000000000000000000000000000000000000000000000000000000000000000000000000104b61d27f6000000000000000000000000acc000818e5bbd911d5d449aa81cb5ca2402473900000000000000000000000000000000000000000000000000000000000000000000000000000000000000000000000000000000000000000000000000000060000000000000000000000000000000000000000000000000000000000000006425c471a0000000000000000000000000000000000000000000000000cb784571e5a3211800000000000000000000000028fc10e12a78f986c78f973fc70ed88072b34c8e00000000000000000000000000000000000000000000000000000000000e8080000000000000000000000000000000000000000000000000000000000000000000000000000000000000000000000000000000000000000000000000000000000000000000000000000000000000000000000000000000140000000000000000000000000000000000000000000000000000000000000000000000000000000000000000000000000000000000000000000000000000008275eb5b5fb05e8ec9528721d6125e54dfbe9f0e1b9fab6d81c90d3d420ed0921673dcfb01eff8a8d2af9590215d0fdb218f9d8280877e854e477981ce287ccf991cc62f0dab0764302847332eea7aa900932750bef8aedad6b800ceaa3e19601c765b55769c196cad860249c635ad681112b40717bb2b01c123aeb838275670c4531b000000000000000000000000000000000000000000000000000000000000",
        "nonce": "0x4bd57",
        "chainId": "0x1ecf"
      },
      "additionalContracts": [],
      "isFixedGasLimit": false
    },
    {
      "hash": null,
      "transactionType": "CALL",
      "contractName": null,
      "contractAddress": "0x2843c269d2a64ecfa63548e8b3fc0fd23b7f70cb",
      "function": "handleOps((address,uint256,bytes,bytes,uint256,uint256,uint256,uint256,uint256,bytes,bytes)[],address)",
      "arguments": [
        "[(0x2e2B1c42E38f5af81771e65D87729E57ABD1337a, 4633, 0x, 0xb61d27f6000000000000000000000000acc000818e5bbd911d5d449aa81cb5ca240247390000000000000000000000000000000000000000000000000000000000000000000000000000000000000000000000000000000000000000000000000000006000000000000000000000000000000000000000000000000000000000000000c41cff79cd000000000000000000000000f369f78e3a0492cc4e96a90dae0728a38498e9c700000000000000000000000000000000000000000000000000000000000000400000000000000000000000000000000000000000000000000000000000000044d547741f71840dc4906352362b0cdaf79870196c8e42acafade72d5d5a6d59291253ceb1000000000000000000000000010600ff5f36c8ef3b6aaf2a88c2de85c798594a0000000000000000000000000000000000000000000000000000000000000000000000000000000000000000000000000000000000000000, 4000000, 210000, 21000, 1, 1000000000, 0x0000000000000000000000000000000000000000, 0xdbae7e470fbb50c5daf8ec134b37055180113e4661a9da6504050c852dfe478a334ad66e7d1002ec8e6a9aa6206b8852923977ea5d321aef240c1274e4ed564e1bac9f21db9be13ce4385f0e416703d55163dfb73a1e3cbf31a00d8cccd238d8d066f6ddcc78577f6a444f949398c6faa3be85d3ad2be3167a16ec110102558a801c)]",
        "0x660ad4B5A74130a4796B4d54BC6750Ae93C86e6c"
      ],
      "transaction": {
        "from": "0x660ad4b5a74130a4796b4d54bc6750ae93c86e6c",
        "to": "0x2843c269d2a64ecfa63548e8b3fc0fd23b7f70cb",
        "value": "0x0",
        "input": "0x1fad948c0000000000000000000000000000000000000000000000000000000000000040000000000000000000000000660ad4b5a74130a4796b4d54bc6750ae93c86e6c000000000000000000000000000000000000000000000000000000000000000100000000000000000000000000000000000000000000000000000000000000200000000000000000000000002e2b1c42e38f5af81771e65d87729e57abd1337a00000000000000000000000000000000000000000000000000000000000012190000000000000000000000000000000000000000000000000000000000000160000000000000000000000000000000000000000000000000000000000000018000000000000000000000000000000000000000000000000000000000003d0900000000000000000000000000000000000000000000000000000000000003345000000000000000000000000000000000000000000000000000000000000052080000000000000000000000000000000000000000000000000000000000000001000000000000000000000000000000000000000000000000000000003b9aca000000000000000000000000000000000000000000000000000000000000000320000000000000000000000000000000000000000000000000000000000000036000000000000000000000000000000000000000000000000000000000000000000000000000000000000000000000000000000000000000000000000000000164b61d27f6000000000000000000000000acc000818e5bbd911d5d449aa81cb5ca240247390000000000000000000000000000000000000000000000000000000000000000000000000000000000000000000000000000000000000000000000000000006000000000000000000000000000000000000000000000000000000000000000c41cff79cd000000000000000000000000f369f78e3a0492cc4e96a90dae0728a38498e9c700000000000000000000000000000000000000000000000000000000000000400000000000000000000000000000000000000000000000000000000000000044d547741f71840dc4906352362b0cdaf79870196c8e42acafade72d5d5a6d59291253ceb1000000000000000000000000010600ff5f36c8ef3b6aaf2a88c2de85c798594a000000000000000000000000000000000000000000000000000000000000000000000000000000000000000000000000000000000000000000000000000000000000000000000000000000000000000000000000000000000000000000000000000000000000000000000000000000000000001400000000000000000000000000000000000000000000000000000000000000000000000000000000000000000000000000000000000000000000000000000082dbae7e470fbb50c5daf8ec134b37055180113e4661a9da6504050c852dfe478a334ad66e7d1002ec8e6a9aa6206b8852923977ea5d321aef240c1274e4ed564e1bac9f21db9be13ce4385f0e416703d55163dfb73a1e3cbf31a00d8cccd238d8d066f6ddcc78577f6a444f949398c6faa3be85d3ad2be3167a16ec110102558a801c000000000000000000000000000000000000000000000000000000000000",
        "nonce": "0x4bd58",
        "chainId": "0x1ecf"
      },
      "additionalContracts": [],
      "isFixedGasLimit": false
    }
  ],
  "receipts": [],
  "libraries": [],
  "pending": [],
  "returns": {},
  "timestamp": 1742427074,
  "chain": 7887,
  "commit": "0c345e80"
}