{
  "transactions": [
    {
      "hash": "0x2387a3bf5cf9c2b4979a26e5dc50de3f228c5bc1e0c0e745e106b037b629288b",
      "transactionType": "CALL",
      "contractName": null,
      "contractAddress": "0x2843c269d2a64ecfa63548e8b3fc0fd23b7f70cb",
      "function": "handleOps((address,uint256,bytes,bytes,uint256,uint256,uint256,uint256,uint256,bytes,bytes)[],address)",
      "arguments": [
        "[(0x2e2B1c42E38f5af81771e65D87729E57ABD1337a, 4417, 0x, 0xb61d27f6000000000000000000000000010700808d59d2bb92257fcafacfe8e5bff7ab870000000000000000000000000000000000000000000000000000000000000000000000000000000000000000000000000000000000000000000000000000006000000000000000000000000000000000000000000000000000000000000000449dc29fac000000000000000000000000d157904639e89df05e89e0dabeec99ae3d74f9aa00000000000000000000000000000000000000000000000821ab0d441498000000000000000000000000000000000000000000000000000000000000, 4000000, 210000, 21000, 1, 1000000000, 0x0000000000000000000000000000000000000000, 0x6628f13c3ff12006f29754032a9bead78c766687093e98fbd75f693426c4159d319b805fb8f05544bf186c77dfc47db015a4f69955b3752f630d4e45bcb75ce71c6704162c7d1e99a2e1bbdb3824b8743e17cc7e25b9bf2416a24be7d6f3ce37d625e9d0f0651885c3c6d1056378c07cae2aa3b9dd66694c7c2917ef29b121b2101c)]",
        "0x660ad4B5A74130a4796B4d54BC6750Ae93C86e6c"
      ],
      "transaction": {
        "from": "0x660ad4b5a74130a4796b4d54bc6750ae93c86e6c",
        "to": "0x2843c269d2a64ecfa63548e8b3fc0fd23b7f70cb",
        "value": "0x0",
        "input": "0x1fad948c0000000000000000000000000000000000000000000000000000000000000040000000000000000000000000660ad4b5a74130a4796b4d54bc6750ae93c86e6c000000000000000000000000000000000000000000000000000000000000000100000000000000000000000000000000000000000000000000000000000000200000000000000000000000002e2b1c42e38f5af81771e65d87729e57abd1337a00000000000000000000000000000000000000000000000000000000000011410000000000000000000000000000000000000000000000000000000000000160000000000000000000000000000000000000000000000000000000000000018000000000000000000000000000000000000000000000000000000000003d0900000000000000000000000000000000000000000000000000000000000003345000000000000000000000000000000000000000000000000000000000000052080000000000000000000000000000000000000000000000000000000000000001000000000000000000000000000000000000000000000000000000003b9aca0000000000000000000000000000000000000000000000000000000000000002a000000000000000000000000000000000000000000000000000000000000002e0000000000000000000000000000000000000000000000000000000000000000000000000000000000000000000000000000000000000000000000000000000e4b61d27f6000000000000000000000000010700808d59d2bb92257fcafacfe8e5bff7ab870000000000000000000000000000000000000000000000000000000000000000000000000000000000000000000000000000000000000000000000000000006000000000000000000000000000000000000000000000000000000000000000449dc29fac000000000000000000000000d157904639e89df05e89e0dabeec99ae3d74f9aa00000000000000000000000000000000000000000000000821ab0d441498000000000000000000000000000000000000000000000000000000000000000000000000000000000000000000000000000000000000000000000000000000000000000000000000000000000000000000000000000000000014000000000000000000000000000000000000000000000000000000000000000000000000000000000000000000000000000000000000000000000000000000826628f13c3ff12006f29754032a9bead78c766687093e98fbd75f693426c4159d319b805fb8f05544bf186c77dfc47db015a4f69955b3752f630d4e45bcb75ce71c6704162c7d1e99a2e1bbdb3824b8743e17cc7e25b9bf2416a24be7d6f3ce37d625e9d0f0651885c3c6d1056378c07cae2aa3b9dd66694c7c2917ef29b121b2101c000000000000000000000000000000000000000000000000000000000000",
        "nonce": "0x4bc78",
        "chainId": "0x1ecf"
      },
      "additionalContracts": [],
      "isFixedGasLimit": false
    },
    {
      "hash": "0x35eee9cbeaf8f1a2c6b308d51fb6117855e8e1497096ac7daa755550c22004b4",
      "transactionType": "CALL",
      "contractName": null,
      "contractAddress": "0x2843c269d2a64ecfa63548e8b3fc0fd23b7f70cb",
      "function": "handleOps((address,uint256,bytes,bytes,uint256,uint256,uint256,uint256,uint256,bytes,bytes)[],address)",
      "arguments": [
        "[(0x2e2B1c42E38f5af81771e65D87729E57ABD1337a, 4418, 0x, 0xb61d27f6000000000000000000000000010700808d59d2bb92257fcafacfe8e5bff7ab8700000000000000000000000000000000000000000000000000000000000000000000000000000000000000000000000000000000000000000000000000000060000000000000000000000000000000000000000000000000000000000000004440c10f19000000000000000000000000f95a86005bc440ea63e1c57e5428a30bf2c67fb6000000000000000000000000000000000000000000000002b5e3af16b188000000000000000000000000000000000000000000000000000000000000, 4000000, 210000, 21000, 1, 1000000000, 0x0000000000000000000000000000000000000000, 0x5bb6fd34dff68ea9d323a98baf85f2884e1d8ab16976075d09234c0ca6ae0fdb6cf085643510a060bf9d525626a62eef1d4738e8bf13d91237927371286481961bd1e51224dad560a4eba4345c2ad5d517b9725df654475cb9ecaf2ba9dde0752b29ce76ffb6ea1a285b8333d3a435dba9f6ee41f0e13a8d1a879fb5ec9ff85ffe1b)]",
        "0x660ad4B5A74130a4796B4d54BC6750Ae93C86e6c"
      ],
      "transaction": {
        "from": "0x660ad4b5a74130a4796b4d54bc6750ae93c86e6c",
        "to": "0x2843c269d2a64ecfa63548e8b3fc0fd23b7f70cb",
        "value": "0x0",
        "input": "0x1fad948c0000000000000000000000000000000000000000000000000000000000000040000000000000000000000000660ad4b5a74130a4796b4d54bc6750ae93c86e6c000000000000000000000000000000000000000000000000000000000000000100000000000000000000000000000000000000000000000000000000000000200000000000000000000000002e2b1c42e38f5af81771e65d87729e57abd1337a00000000000000000000000000000000000000000000000000000000000011420000000000000000000000000000000000000000000000000000000000000160000000000000000000000000000000000000000000000000000000000000018000000000000000000000000000000000000000000000000000000000003d0900000000000000000000000000000000000000000000000000000000000003345000000000000000000000000000000000000000000000000000000000000052080000000000000000000000000000000000000000000000000000000000000001000000000000000000000000000000000000000000000000000000003b9aca0000000000000000000000000000000000000000000000000000000000000002a000000000000000000000000000000000000000000000000000000000000002e0000000000000000000000000000000000000000000000000000000000000000000000000000000000000000000000000000000000000000000000000000000e4b61d27f6000000000000000000000000010700808d59d2bb92257fcafacfe8e5bff7ab8700000000000000000000000000000000000000000000000000000000000000000000000000000000000000000000000000000000000000000000000000000060000000000000000000000000000000000000000000000000000000000000004440c10f19000000000000000000000000f95a86005bc440ea63e1c57e5428a30bf2c67fb6000000000000000000000000000000000000000000000002b5e3af16b188000000000000000000000000000000000000000000000000000000000000000000000000000000000000000000000000000000000000000000000000000000000000000000000000000000000000000000000000000000000014000000000000000000000000000000000000000000000000000000000000000000000000000000000000000000000000000000000000000000000000000000825bb6fd34dff68ea9d323a98baf85f2884e1d8ab16976075d09234c0ca6ae0fdb6cf085643510a060bf9d525626a62eef1d4738e8bf13d91237927371286481961bd1e51224dad560a4eba4345c2ad5d517b9725df654475cb9ecaf2ba9dde0752b29ce76ffb6ea1a285b8333d3a435dba9f6ee41f0e13a8d1a879fb5ec9ff85ffe1b000000000000000000000000000000000000000000000000000000000000",
        "nonce": "0x4bc79",
        "chainId": "0x1ecf"
      },
      "additionalContracts": [],
      "isFixedGasLimit": false
    },
    {
      "hash": "0x4dc07732755b0066a5b201b12ebd35d28d10c0d5a703c610929584a23c20b477",
      "transactionType": "CALL",
      "contractName": null,
      "contractAddress": "0x2843c269d2a64ecfa63548e8b3fc0fd23b7f70cb",
      "function": "handleOps((address,uint256,bytes,bytes,uint256,uint256,uint256,uint256,uint256,bytes,bytes)[],address)",
      "arguments": [
        "[(0x2e2B1c42E38f5af81771e65D87729E57ABD1337a, 4419, 0x, 0xb61d27f6000000000000000000000000010700808d59d2bb92257fcafacfe8e5bff7ab8700000000000000000000000000000000000000000000000000000000000000000000000000000000000000000000000000000000000000000000000000000060000000000000000000000000000000000000000000000000000000000000004440c10f190000000000000000000000004cb6bdd49372e998b1dbfab47ad78bfa9d15cad1000000000000000000000000000000000000000000000002b5e3af16b188000000000000000000000000000000000000000000000000000000000000, 4000000, 210000, 21000, 1, 1000000000, 0x0000000000000000000000000000000000000000, 0x3a9c5b3a1ab438d81ccfca025802f072baa7ee4e4797b825230d589321ce3ee5306455c5dfe78831f6b6eaf4e93bb0d36295a188f7e18ffd3296c81b82717a801c0cac82379ce0a12f21151fb13f2cf546cc5f6679f6e1f9ca7e6f167636dac6591bd9543d7ca5889069bdf0b7714f9a3400e806bf928b5a86a2ba0cb7a59a1ea01c)]",
        "0x660ad4B5A74130a4796B4d54BC6750Ae93C86e6c"
      ],
      "transaction": {
        "from": "0x660ad4b5a74130a4796b4d54bc6750ae93c86e6c",
        "to": "0x2843c269d2a64ecfa63548e8b3fc0fd23b7f70cb",
        "value": "0x0",
        "input": "0x1fad948c0000000000000000000000000000000000000000000000000000000000000040000000000000000000000000660ad4b5a74130a4796b4d54bc6750ae93c86e6c000000000000000000000000000000000000000000000000000000000000000100000000000000000000000000000000000000000000000000000000000000200000000000000000000000002e2b1c42e38f5af81771e65d87729e57abd1337a00000000000000000000000000000000000000000000000000000000000011430000000000000000000000000000000000000000000000000000000000000160000000000000000000000000000000000000000000000000000000000000018000000000000000000000000000000000000000000000000000000000003d0900000000000000000000000000000000000000000000000000000000000003345000000000000000000000000000000000000000000000000000000000000052080000000000000000000000000000000000000000000000000000000000000001000000000000000000000000000000000000000000000000000000003b9aca0000000000000000000000000000000000000000000000000000000000000002a000000000000000000000000000000000000000000000000000000000000002e0000000000000000000000000000000000000000000000000000000000000000000000000000000000000000000000000000000000000000000000000000000e4b61d27f6000000000000000000000000010700808d59d2bb92257fcafacfe8e5bff7ab8700000000000000000000000000000000000000000000000000000000000000000000000000000000000000000000000000000000000000000000000000000060000000000000000000000000000000000000000000000000000000000000004440c10f190000000000000000000000004cb6bdd49372e998b1dbfab47ad78bfa9d15cad1000000000000000000000000000000000000000000000002b5e3af16b188000000000000000000000000000000000000000000000000000000000000000000000000000000000000000000000000000000000000000000000000000000000000000000000000000000000000000000000000000000000014000000000000000000000000000000000000000000000000000000000000000000000000000000000000000000000000000000000000000000000000000000823a9c5b3a1ab438d81ccfca025802f072baa7ee4e4797b825230d589321ce3ee5306455c5dfe78831f6b6eaf4e93bb0d36295a188f7e18ffd3296c81b82717a801c0cac82379ce0a12f21151fb13f2cf546cc5f6679f6e1f9ca7e6f167636dac6591bd9543d7ca5889069bdf0b7714f9a3400e806bf928b5a86a2ba0cb7a59a1ea01c000000000000000000000000000000000000000000000000000000000000",
        "nonce": "0x4bc7a",
        "chainId": "0x1ecf"
      },
      "additionalContracts": [],
      "isFixedGasLimit": false
    },
    {
      "hash": "0xc7142f6bb7529e09a82470b6ed55ff0fb03522ad95e0f16aac953b4220601479",
      "transactionType": "CALL",
      "contractName": null,
      "contractAddress": "0x2843c269d2a64ecfa63548e8b3fc0fd23b7f70cb",
      "function": "handleOps((address,uint256,bytes,bytes,uint256,uint256,uint256,uint256,uint256,bytes,bytes)[],address)",
      "arguments": [
        "[(0x2e2B1c42E38f5af81771e65D87729E57ABD1337a, 4420, 0x, 0xb61d27f6000000000000000000000000010700808d59d2bb92257fcafacfe8e5bff7ab8700000000000000000000000000000000000000000000000000000000000000000000000000000000000000000000000000000000000000000000000000000060000000000000000000000000000000000000000000000000000000000000004440c10f19000000000000000000000000559620cde492d431bf2aa81bb7113fd1590b422c000000000000000000000000000000000000000000000002b5e3af16b188000000000000000000000000000000000000000000000000000000000000, 4000000, 210000, 21000, 1, 1000000000, 0x0000000000000000000000000000000000000000, 0x1d71abcbca505be0fb50d0ab6bab8beabc9a08e561626df3001e1247ff37e3a67e90b8c84368176e2c54a9639dd5f7c3d1ac6c6974d044235526779a6c4a98451be207fa953453d1a1fc87828ea66127c2058509430f37f1512b69c2be8bb196d60c2f36a1d6e18b26864f22ed45299ffd6df38182244f3af195319851078e3d091c)]",
        "0x660ad4B5A74130a4796B4d54BC6750Ae93C86e6c"
      ],
      "transaction": {
        "from": "0x660ad4b5a74130a4796b4d54bc6750ae93c86e6c",
        "to": "0x2843c269d2a64ecfa63548e8b3fc0fd23b7f70cb",
        "value": "0x0",
        "input": "0x1fad948c0000000000000000000000000000000000000000000000000000000000000040000000000000000000000000660ad4b5a74130a4796b4d54bc6750ae93c86e6c000000000000000000000000000000000000000000000000000000000000000100000000000000000000000000000000000000000000000000000000000000200000000000000000000000002e2b1c42e38f5af81771e65d87729e57abd1337a00000000000000000000000000000000000000000000000000000000000011440000000000000000000000000000000000000000000000000000000000000160000000000000000000000000000000000000000000000000000000000000018000000000000000000000000000000000000000000000000000000000003d0900000000000000000000000000000000000000000000000000000000000003345000000000000000000000000000000000000000000000000000000000000052080000000000000000000000000000000000000000000000000000000000000001000000000000000000000000000000000000000000000000000000003b9aca0000000000000000000000000000000000000000000000000000000000000002a000000000000000000000000000000000000000000000000000000000000002e0000000000000000000000000000000000000000000000000000000000000000000000000000000000000000000000000000000000000000000000000000000e4b61d27f6000000000000000000000000010700808d59d2bb92257fcafacfe8e5bff7ab8700000000000000000000000000000000000000000000000000000000000000000000000000000000000000000000000000000000000000000000000000000060000000000000000000000000000000000000000000000000000000000000004440c10f19000000000000000000000000559620cde492d431bf2aa81bb7113fd1590b422c000000000000000000000000000000000000000000000002b5e3af16b188000000000000000000000000000000000000000000000000000000000000000000000000000000000000000000000000000000000000000000000000000000000000000000000000000000000000000000000000000000000014000000000000000000000000000000000000000000000000000000000000000000000000000000000000000000000000000000000000000000000000000000821d71abcbca505be0fb50d0ab6bab8beabc9a08e561626df3001e1247ff37e3a67e90b8c84368176e2c54a9639dd5f7c3d1ac6c6974d044235526779a6c4a98451be207fa953453d1a1fc87828ea66127c2058509430f37f1512b69c2be8bb196d60c2f36a1d6e18b26864f22ed45299ffd6df38182244f3af195319851078e3d091c000000000000000000000000000000000000000000000000000000000000",
        "nonce": "0x4bc7b",
        "chainId": "0x1ecf"
      },
      "additionalContracts": [],
      "isFixedGasLimit": false
    }
  ],
  "receipts": [
    {
      "status": "0x1",
      "cumulativeGasUsed": "0x5a2df",
      "logs": [
        {
          "address": "0x2843c269d2a64ecfa63548e8b3fc0fd23b7f70cb",
          "topics": [
            "0xbb47ee3e183a558b1a2ff0874b079f3fc5478b7454eacf2bfc5af2ff5878f972"
          ],
          "data": "0x",
          "blockHash": "0x6763536581065150d7377a02b33fab8b4c1f98641820e2092142c6b95cc44c0c",
          "blockNumber": "0xb1107",
          "transactionHash": "0x2387a3bf5cf9c2b4979a26e5dc50de3f228c5bc1e0c0e745e106b037b629288b",
          "transactionIndex": "0x1",
          "logIndex": "0x0",
          "removed": false
        },
        {
          "address": "0x010700808d59d2bb92257fcafacfe8e5bff7ab87",
          "topics": [
            "0xddf252ad1be2c89b69c2b068fc378daa952ba7f163c4a11628f55a4df523b3ef",
            "0x000000000000000000000000d157904639e89df05e89e0dabeec99ae3d74f9aa",
            "0x0000000000000000000000000000000000000000000000000000000000000000"
          ],
          "data": "0x00000000000000000000000000000000000000000000000821ab0d4414980000",
          "blockHash": "0x6763536581065150d7377a02b33fab8b4c1f98641820e2092142c6b95cc44c0c",
          "blockNumber": "0xb1107",
          "transactionHash": "0x2387a3bf5cf9c2b4979a26e5dc50de3f228c5bc1e0c0e745e106b037b629288b",
          "transactionIndex": "0x1",
          "logIndex": "0x1",
          "removed": false
        },
        {
          "address": "0x2843c269d2a64ecfa63548e8b3fc0fd23b7f70cb",
          "topics": [
            "0x49628fd1471006c1482da88028e9ce4dbb080b815c9b0344d39e5a8e6ec1419f",
            "0xcf922e81730b63650a33e936d32e63399553efba88d8b1876d421f05092b1c59",
            "0x0000000000000000000000002e2b1c42e38f5af81771e65d87729e57abd1337a",
            "0x0000000000000000000000000000000000000000000000000000000000000000"
          ],
          "data": "0x00000000000000000000000000000000000000000000000000000000000011410000000000000000000000000000000000000000000000000000000000000001000000000000000000000000000000000000000000000000000000000008ebb9000000000000000000000000000000000000000000000000000000000008ebb9",
          "blockHash": "0x6763536581065150d7377a02b33fab8b4c1f98641820e2092142c6b95cc44c0c",
          "blockNumber": "0xb1107",
          "transactionHash": "0x2387a3bf5cf9c2b4979a26e5dc50de3f228c5bc1e0c0e745e106b037b629288b",
          "transactionIndex": "0x1",
          "logIndex": "0x2",
          "removed": false
        }
      ],
      "logsBloom": "0x00002000000400000000000000000000000000000000000000000000000011000008000000000000000000010000000000000000000000000000020000000020000000000000000000000008000000000000000000000000000000000000000800000000020000000000000000000800002000000000000000000010000000000000000000000000000000000000800000000000000000000000000000000000001400000000000000400000000000000000000000000000000002000000000000000002000000100001000000000000000000000000000000000000000020000000000000010000000000000000800000000000000000000000000000000808",
      "type": "0x2",
      "transactionHash": "0x2387a3bf5cf9c2b4979a26e5dc50de3f228c5bc1e0c0e745e106b037b629288b",
      "transactionIndex": "0x1",
      "blockHash": "0x6763536581065150d7377a02b33fab8b4c1f98641820e2092142c6b95cc44c0c",
      "blockNumber": "0xb1107",
      "gasUsed": "0x5a2df",
      "effectiveGasPrice": "0x5f5e100",
      "from": "0x660ad4b5a74130a4796b4d54bc6750ae93c86e6c",
      "to": "0x2843c269d2a64ecfa63548e8b3fc0fd23b7f70cb",
      "contractAddress": null,
      "gasUsedForL1": "0x24abb",
      "l1BlockNumber": "0x14c60a2"
    },
    {
      "status": "0x1",
      "cumulativeGasUsed": "0x59ac6",
      "logs": [
        {
          "address": "0x2843c269d2a64ecfa63548e8b3fc0fd23b7f70cb",
          "topics": [
            "0xbb47ee3e183a558b1a2ff0874b079f3fc5478b7454eacf2bfc5af2ff5878f972"
          ],
          "data": "0x",
          "blockHash": "0xe17e55ebf9b88fd07fd4ac2027dc50ee688daac5ffccaabb5f83928994aecd86",
          "blockNumber": "0xb1108",
          "transactionHash": "0x35eee9cbeaf8f1a2c6b308d51fb6117855e8e1497096ac7daa755550c22004b4",
          "transactionIndex": "0x1",
          "logIndex": "0x0",
          "removed": false
        },
        {
          "address": "0x010700808d59d2bb92257fcafacfe8e5bff7ab87",
          "topics": [
            "0xddf252ad1be2c89b69c2b068fc378daa952ba7f163c4a11628f55a4df523b3ef",
            "0x0000000000000000000000000000000000000000000000000000000000000000",
            "0x000000000000000000000000f95a86005bc440ea63e1c57e5428a30bf2c67fb6"
          ],
          "data": "0x000000000000000000000000000000000000000000000002b5e3af16b1880000",
          "blockHash": "0xe17e55ebf9b88fd07fd4ac2027dc50ee688daac5ffccaabb5f83928994aecd86",
          "blockNumber": "0xb1108",
          "transactionHash": "0x35eee9cbeaf8f1a2c6b308d51fb6117855e8e1497096ac7daa755550c22004b4",
          "transactionIndex": "0x1",
          "logIndex": "0x1",
          "removed": false
        },
        {
          "address": "0x2843c269d2a64ecfa63548e8b3fc0fd23b7f70cb",
          "topics": [
            "0x49628fd1471006c1482da88028e9ce4dbb080b815c9b0344d39e5a8e6ec1419f",
            "0xa5089e649e0674cdfb552e4e449113c56f32ebead6320f058f44823ebfe19405",
            "0x0000000000000000000000002e2b1c42e38f5af81771e65d87729e57abd1337a",
            "0x0000000000000000000000000000000000000000000000000000000000000000"
          ],
          "data": "0x00000000000000000000000000000000000000000000000000000000000011420000000000000000000000000000000000000000000000000000000000000001000000000000000000000000000000000000000000000000000000000008e47a000000000000000000000000000000000000000000000000000000000008e47a",
          "blockHash": "0xe17e55ebf9b88fd07fd4ac2027dc50ee688daac5ffccaabb5f83928994aecd86",
          "blockNumber": "0xb1108",
          "transactionHash": "0x35eee9cbeaf8f1a2c6b308d51fb6117855e8e1497096ac7daa755550c22004b4",
          "transactionIndex": "0x1",
          "logIndex": "0x2",
          "removed": false
        }
      ],
      "logsBloom": "0x00000000000400000000000000080000000000000000000000000000000000000008000000000000000000010000000000000000000000002000020000000000000000000000000000000008000000000000000000000000000000000000000800000000020000000000000000000800002000000000000000000010000100000000000000000000000000000000800000000000000000000000000000000000001400000000000000400000000000000000000000000000004002800000000000000002000000100001000000000000000000000000000000000000000020100000000000010000000000000000800000000000000000000000000000000000",
      "type": "0x2",
      "transactionHash": "0x35eee9cbeaf8f1a2c6b308d51fb6117855e8e1497096ac7daa755550c22004b4",
      "transactionIndex": "0x1",
      "blockHash": "0xe17e55ebf9b88fd07fd4ac2027dc50ee688daac5ffccaabb5f83928994aecd86",
      "blockNumber": "0xb1108",
      "gasUsed": "0x59ac6",
      "effectiveGasPrice": "0x5f5e100",
      "from": "0x660ad4b5a74130a4796b4d54bc6750ae93c86e6c",
      "to": "0x2843c269d2a64ecfa63548e8b3fc0fd23b7f70cb",
      "contractAddress": null,
      "gasUsedForL1": "0x24abb",
      "l1BlockNumber": "0x14c60a2"
    },
    {
      "status": "0x1",
      "cumulativeGasUsed": "0x5908d",
      "logs": [
        {
          "address": "0x2843c269d2a64ecfa63548e8b3fc0fd23b7f70cb",
          "topics": [
            "0xbb47ee3e183a558b1a2ff0874b079f3fc5478b7454eacf2bfc5af2ff5878f972"
          ],
          "data": "0x",
          "blockHash": "0x5f8ddda9c6b25b17da47e599a84200d319641a8517e47ccdd87a2e093762a390",
          "blockNumber": "0xb1109",
          "transactionHash": "0x4dc07732755b0066a5b201b12ebd35d28d10c0d5a703c610929584a23c20b477",
          "transactionIndex": "0x1",
          "logIndex": "0x0",
          "removed": false
        },
        {
          "address": "0x010700808d59d2bb92257fcafacfe8e5bff7ab87",
          "topics": [
            "0xddf252ad1be2c89b69c2b068fc378daa952ba7f163c4a11628f55a4df523b3ef",
            "0x0000000000000000000000000000000000000000000000000000000000000000",
            "0x0000000000000000000000004cb6bdd49372e998b1dbfab47ad78bfa9d15cad1"
          ],
          "data": "0x000000000000000000000000000000000000000000000002b5e3af16b1880000",
          "blockHash": "0x5f8ddda9c6b25b17da47e599a84200d319641a8517e47ccdd87a2e093762a390",
          "blockNumber": "0xb1109",
          "transactionHash": "0x4dc07732755b0066a5b201b12ebd35d28d10c0d5a703c610929584a23c20b477",
          "transactionIndex": "0x1",
          "logIndex": "0x1",
          "removed": false
        },
        {
          "address": "0x2843c269d2a64ecfa63548e8b3fc0fd23b7f70cb",
          "topics": [
            "0x49628fd1471006c1482da88028e9ce4dbb080b815c9b0344d39e5a8e6ec1419f",
            "0x17f94afe2f672c120a62c9937ea854ab0d54074a626b009d589e11eac2297204",
            "0x0000000000000000000000002e2b1c42e38f5af81771e65d87729e57abd1337a",
            "0x0000000000000000000000000000000000000000000000000000000000000000"
          ],
          "data": "0x00000000000000000000000000000000000000000000000000000000000011430000000000000000000000000000000000000000000000000000000000000001000000000000000000000000000000000000000000000000000000000008e47a000000000000000000000000000000000000000000000000000000000008e47a",
          "blockHash": "0x5f8ddda9c6b25b17da47e599a84200d319641a8517e47ccdd87a2e093762a390",
          "blockNumber": "0xb1109",
          "transactionHash": "0x4dc07732755b0066a5b201b12ebd35d28d10c0d5a703c610929584a23c20b477",
          "transactionIndex": "0x1",
          "logIndex": "0x2",
          "removed": false
        }
      ],
      "logsBloom": "0x00000000000400000000000000000000000000000000000000000000000000000008000000100000000000010000000000000000000000000000020000000000000000000000000000000008101000000000000000000000000000000000000800000000020000000000000000000840002000000000000000000010000000000000000000000000000000000000800000000000000000000000000000000000001400000000000000400000000000000000000000000000000002000000000000000002000000100001000000000000000010000000000000000000000020000000000000010000000000000800800000000000000000000000000000000000",
      "type": "0x2",
      "transactionHash": "0x4dc07732755b0066a5b201b12ebd35d28d10c0d5a703c610929584a23c20b477",
      "transactionIndex": "0x1",
      "blockHash": "0x5f8ddda9c6b25b17da47e599a84200d319641a8517e47ccdd87a2e093762a390",
      "blockNumber": "0xb1109",
      "gasUsed": "0x5908d",
      "effectiveGasPrice": "0x5f5e100",
      "from": "0x660ad4b5a74130a4796b4d54bc6750ae93c86e6c",
      "to": "0x2843c269d2a64ecfa63548e8b3fc0fd23b7f70cb",
      "contractAddress": null,
      "gasUsedForL1": "0x24082",
      "l1BlockNumber": "0x14c60a2"
    },
    {
      "status": "0x1",
      "cumulativeGasUsed": "0x5de98",
      "logs": [
        {
          "address": "0x2843c269d2a64ecfa63548e8b3fc0fd23b7f70cb",
          "topics": [
            "0xbb47ee3e183a558b1a2ff0874b079f3fc5478b7454eacf2bfc5af2ff5878f972"
          ],
          "data": "0x",
          "blockHash": "0x4d52e13e24b90d06d2cf4acaa8e3add96c8464d9282ad1b2d41733184a2c1d13",
          "blockNumber": "0xb110a",
          "transactionHash": "0xc7142f6bb7529e09a82470b6ed55ff0fb03522ad95e0f16aac953b4220601479",
          "transactionIndex": "0x1",
          "logIndex": "0x0",
          "removed": false
        },
        {
          "address": "0x010700808d59d2bb92257fcafacfe8e5bff7ab87",
          "topics": [
            "0xddf252ad1be2c89b69c2b068fc378daa952ba7f163c4a11628f55a4df523b3ef",
            "0x0000000000000000000000000000000000000000000000000000000000000000",
            "0x000000000000000000000000559620cde492d431bf2aa81bb7113fd1590b422c"
          ],
          "data": "0x000000000000000000000000000000000000000000000002b5e3af16b1880000",
          "blockHash": "0x4d52e13e24b90d06d2cf4acaa8e3add96c8464d9282ad1b2d41733184a2c1d13",
          "blockNumber": "0xb110a",
          "transactionHash": "0xc7142f6bb7529e09a82470b6ed55ff0fb03522ad95e0f16aac953b4220601479",
          "transactionIndex": "0x1",
          "logIndex": "0x1",
          "removed": false
        },
        {
          "address": "0x2843c269d2a64ecfa63548e8b3fc0fd23b7f70cb",
          "topics": [
            "0x49628fd1471006c1482da88028e9ce4dbb080b815c9b0344d39e5a8e6ec1419f",
            "0x9f6ec72aae73e385ae39fe248d4e5a9e409a9756ad97a4aa9071671d93d2de26",
            "0x0000000000000000000000002e2b1c42e38f5af81771e65d87729e57abd1337a",
            "0x0000000000000000000000000000000000000000000000000000000000000000"
          ],
          "data": "0x0000000000000000000000000000000000000000000000000000000000001144000000000000000000000000000000000000000000000000000000000000000100000000000000000000000000000000000000000000000000000000000920980000000000000000000000000000000000000000000000000000000000092098",
          "blockHash": "0x4d52e13e24b90d06d2cf4acaa8e3add96c8464d9282ad1b2d41733184a2c1d13",
          "blockNumber": "0xb110a",
          "transactionHash": "0xc7142f6bb7529e09a82470b6ed55ff0fb03522ad95e0f16aac953b4220601479",
          "transactionIndex": "0x1",
          "logIndex": "0x2",
          "removed": false
        }
      ],
      "logsBloom": "0x00000000000400000000000000000000000000000040000000000000000000000008000000000000000000010000000000000000000000000000020000000000000000000000000000000008000000000000000000000000000000000000000800000000020000000000000000000800002000000000000100000010000000000000000000000000000000000000800000000000200000000000000000000000001400000000000000400000000000000000000000000000000002000000000000000002000000100001000000000000000000001000000000000000000020000000000000010001000000000000a00000000000000000000000000000000000",
      "type": "0x2",
      "transactionHash": "0xc7142f6bb7529e09a82470b6ed55ff0fb03522ad95e0f16aac953b4220601479",
      "transactionIndex": "0x1",
      "blockHash": "0x4d52e13e24b90d06d2cf4acaa8e3add96c8464d9282ad1b2d41733184a2c1d13",
      "blockNumber": "0xb110a",
      "gasUsed": "0x5de98",
      "effectiveGasPrice": "0x5f5e100",
      "from": "0x660ad4b5a74130a4796b4d54bc6750ae93c86e6c",
      "to": "0x2843c269d2a64ecfa63548e8b3fc0fd23b7f70cb",
      "contractAddress": null,
      "gasUsedForL1": "0x24bc1",
      "l1BlockNumber": "0x14c60a2"
    }
  ],
  "libraries": [],
  "pending": [],
  "returns": {},
  "timestamp": 1738787388,
  "chain": 7887,
  "commit": "0a9e7cb6"
}