{
  "transactions": [
    {
      "hash": "0x9d8812592840744f00afd190430ddb910aa6cd22f8b57baa971ceb41c23dc83c",
      "transactionType": "CALL",
      "contractName": null,
      "contractAddress": "0x2843c269d2a64ecfa63548e8b3fc0fd23b7f70cb",
      "function": "handleOps((address,uint256,bytes,bytes,uint256,uint256,uint256,uint256,uint256,bytes,bytes)[],address)",
      "arguments": [
        "[(0x2e2B1c42E38f5af81771e65D87729E57ABD1337a, 3578, 0x, 0xb61d27f6000000000000000000000000010700808d59d2bb92257fcafacfe8e5bff7ab870000000000000000000000000000000000000000000000000000000000000000000000000000000000000000000000000000000000000000000000000000006000000000000000000000000000000000000000000000000000000000000000449dc29fac000000000000000000000000d157904639e89df05e89e0dabeec99ae3d74f9aa0000000000000000000000000000000000000000000000097c9ce4cf6d5c000000000000000000000000000000000000000000000000000000000000, 4000000, 210000, 21000, 1, 1000000000, 0x0000000000000000000000000000000000000000, 0x71e731d7784465c735b2924e0ec080d6dd4e73a18d4a1b0f1e857278d0f7113f3c6442fec9fddd2d35772dde49cc706ee65cc0ab4a7b4ebc7ec31ebc020061981be0ff81808a9fa090f2f42207e6e9b8da1bdfa52c9b5bccc4f2f8f268df6051414081ad9cdbb50baab8cfa1732f4a5d4d14d545a2aa44049533732e13839b99d71b)]",
        "0x660ad4B5A74130a4796B4d54BC6750Ae93C86e6c"
      ],
      "transaction": {
        "from": "0x660ad4b5a74130a4796b4d54bc6750ae93c86e6c",
        "to": "0x2843c269d2a64ecfa63548e8b3fc0fd23b7f70cb",
        "value": "0x0",
        "input": "0x1fad948c0000000000000000000000000000000000000000000000000000000000000040000000000000000000000000660ad4b5a74130a4796b4d54bc6750ae93c86e6c000000000000000000000000000000000000000000000000000000000000000100000000000000000000000000000000000000000000000000000000000000200000000000000000000000002e2b1c42e38f5af81771e65d87729e57abd1337a0000000000000000000000000000000000000000000000000000000000000dfa0000000000000000000000000000000000000000000000000000000000000160000000000000000000000000000000000000000000000000000000000000018000000000000000000000000000000000000000000000000000000000003d0900000000000000000000000000000000000000000000000000000000000003345000000000000000000000000000000000000000000000000000000000000052080000000000000000000000000000000000000000000000000000000000000001000000000000000000000000000000000000000000000000000000003b9aca0000000000000000000000000000000000000000000000000000000000000002a000000000000000000000000000000000000000000000000000000000000002e0000000000000000000000000000000000000000000000000000000000000000000000000000000000000000000000000000000000000000000000000000000e4b61d27f6000000000000000000000000010700808d59d2bb92257fcafacfe8e5bff7ab870000000000000000000000000000000000000000000000000000000000000000000000000000000000000000000000000000000000000000000000000000006000000000000000000000000000000000000000000000000000000000000000449dc29fac000000000000000000000000d157904639e89df05e89e0dabeec99ae3d74f9aa0000000000000000000000000000000000000000000000097c9ce4cf6d5c0000000000000000000000000000000000000000000000000000000000000000000000000000000000000000000000000000000000000000000000000000000000000000000000000000000000000000000000000000000000140000000000000000000000000000000000000000000000000000000000000000000000000000000000000000000000000000000000000000000000000000008271e731d7784465c735b2924e0ec080d6dd4e73a18d4a1b0f1e857278d0f7113f3c6442fec9fddd2d35772dde49cc706ee65cc0ab4a7b4ebc7ec31ebc020061981be0ff81808a9fa090f2f42207e6e9b8da1bdfa52c9b5bccc4f2f8f268df6051414081ad9cdbb50baab8cfa1732f4a5d4d14d545a2aa44049533732e13839b99d71b000000000000000000000000000000000000000000000000000000000000",
        "nonce": "0x5f30",
        "chainId": "0x1ecf"
      },
      "additionalContracts": [],
      "isFixedGasLimit": false
    },
    {
      "hash": "0x38890f4bed302f41e5b2046ee97b27a4d34035af37fcbac995224718e42e0a18",
      "transactionType": "CALL",
      "contractName": null,
      "contractAddress": "0x2843c269d2a64ecfa63548e8b3fc0fd23b7f70cb",
      "function": "handleOps((address,uint256,bytes,bytes,uint256,uint256,uint256,uint256,uint256,bytes,bytes)[],address)",
      "arguments": [
        "[(0x2e2B1c42E38f5af81771e65D87729E57ABD1337a, 3579, 0x, 0xb61d27f6000000000000000000000000010700808d59d2bb92257fcafacfe8e5bff7ab8700000000000000000000000000000000000000000000000000000000000000000000000000000000000000000000000000000000000000000000000000000060000000000000000000000000000000000000000000000000000000000000004440c10f19000000000000000000000000bfc95f5aa3c146fa406639180990e0ee459164760000000000000000000000000000000000000000000000056bc75e2d6310000000000000000000000000000000000000000000000000000000000000, 4000000, 210000, 21000, 1, 1000000000, 0x0000000000000000000000000000000000000000, 0xaed847ce89e1e052e3836e201d82559655b1060fcbe9c0f37fc07f1b4594d7277b2584ec8b06a95daa15240e7ce8d9be2b157ed4bf7da9528136d27db15ce5ea1baa7e3d90351e5e4880bc284b1275173f227ad21b4f6669a03dbed4fbfbeb73f56ef53dea9533096ee5ec5520c316cbb70b283745c4052dc0b819d3ceca3444101c)]",
        "0x660ad4B5A74130a4796B4d54BC6750Ae93C86e6c"
      ],
      "transaction": {
        "from": "0x660ad4b5a74130a4796b4d54bc6750ae93c86e6c",
        "to": "0x2843c269d2a64ecfa63548e8b3fc0fd23b7f70cb",
        "value": "0x0",
        "input": "0x1fad948c0000000000000000000000000000000000000000000000000000000000000040000000000000000000000000660ad4b5a74130a4796b4d54bc6750ae93c86e6c000000000000000000000000000000000000000000000000000000000000000100000000000000000000000000000000000000000000000000000000000000200000000000000000000000002e2b1c42e38f5af81771e65d87729e57abd1337a0000000000000000000000000000000000000000000000000000000000000dfb0000000000000000000000000000000000000000000000000000000000000160000000000000000000000000000000000000000000000000000000000000018000000000000000000000000000000000000000000000000000000000003d0900000000000000000000000000000000000000000000000000000000000003345000000000000000000000000000000000000000000000000000000000000052080000000000000000000000000000000000000000000000000000000000000001000000000000000000000000000000000000000000000000000000003b9aca0000000000000000000000000000000000000000000000000000000000000002a000000000000000000000000000000000000000000000000000000000000002e0000000000000000000000000000000000000000000000000000000000000000000000000000000000000000000000000000000000000000000000000000000e4b61d27f6000000000000000000000000010700808d59d2bb92257fcafacfe8e5bff7ab8700000000000000000000000000000000000000000000000000000000000000000000000000000000000000000000000000000000000000000000000000000060000000000000000000000000000000000000000000000000000000000000004440c10f19000000000000000000000000bfc95f5aa3c146fa406639180990e0ee459164760000000000000000000000000000000000000000000000056bc75e2d631000000000000000000000000000000000000000000000000000000000000000000000000000000000000000000000000000000000000000000000000000000000000000000000000000000000000000000000000000000000001400000000000000000000000000000000000000000000000000000000000000000000000000000000000000000000000000000000000000000000000000000082aed847ce89e1e052e3836e201d82559655b1060fcbe9c0f37fc07f1b4594d7277b2584ec8b06a95daa15240e7ce8d9be2b157ed4bf7da9528136d27db15ce5ea1baa7e3d90351e5e4880bc284b1275173f227ad21b4f6669a03dbed4fbfbeb73f56ef53dea9533096ee5ec5520c316cbb70b283745c4052dc0b819d3ceca3444101c000000000000000000000000000000000000000000000000000000000000",
        "nonce": "0x5f31",
        "chainId": "0x1ecf"
      },
      "additionalContracts": [],
      "isFixedGasLimit": false
    },
    {
      "hash": "0x5b0d18274df681530acfcf7e7b076402ed49733b504920770cec7f4e6fd1ceda",
      "transactionType": "CALL",
      "contractName": null,
      "contractAddress": "0x2843c269d2a64ecfa63548e8b3fc0fd23b7f70cb",
      "function": "handleOps((address,uint256,bytes,bytes,uint256,uint256,uint256,uint256,uint256,bytes,bytes)[],address)",
      "arguments": [
        "[(0x2e2B1c42E38f5af81771e65D87729E57ABD1337a, 3580, 0x, 0xb61d27f6000000000000000000000000010700808d59d2bb92257fcafacfe8e5bff7ab8700000000000000000000000000000000000000000000000000000000000000000000000000000000000000000000000000000000000000000000000000000060000000000000000000000000000000000000000000000000000000000000004440c10f19000000000000000000000000bb14fb6f2a2b8db4aa924d561e4b7cbd7ab464fe000000000000000000000000000000000000000000000002b5e3af16b188000000000000000000000000000000000000000000000000000000000000, 4000000, 210000, 21000, 1, 1000000000, 0x0000000000000000000000000000000000000000, 0x08ad2899954ce2355ed2645c0c8d55279633be293506d76615fdee85f5450c265c3e4f0c0bf6cb9cffcfb49b8e18526f66c9876f9aeb3bd918c2da319286660f1b03d28304cd091d020ebdb4dc34cf007783eaea155ac661f5e481d352c14c5fd778fa39903e140054e8673a85b836c3d14e204c9d8e82e192fb2bffc468db076f1c)]",
        "0x660ad4B5A74130a4796B4d54BC6750Ae93C86e6c"
      ],
      "transaction": {
        "from": "0x660ad4b5a74130a4796b4d54bc6750ae93c86e6c",
        "to": "0x2843c269d2a64ecfa63548e8b3fc0fd23b7f70cb",
        "value": "0x0",
        "input": "0x1fad948c0000000000000000000000000000000000000000000000000000000000000040000000000000000000000000660ad4b5a74130a4796b4d54bc6750ae93c86e6c000000000000000000000000000000000000000000000000000000000000000100000000000000000000000000000000000000000000000000000000000000200000000000000000000000002e2b1c42e38f5af81771e65d87729e57abd1337a0000000000000000000000000000000000000000000000000000000000000dfc0000000000000000000000000000000000000000000000000000000000000160000000000000000000000000000000000000000000000000000000000000018000000000000000000000000000000000000000000000000000000000003d0900000000000000000000000000000000000000000000000000000000000003345000000000000000000000000000000000000000000000000000000000000052080000000000000000000000000000000000000000000000000000000000000001000000000000000000000000000000000000000000000000000000003b9aca0000000000000000000000000000000000000000000000000000000000000002a000000000000000000000000000000000000000000000000000000000000002e0000000000000000000000000000000000000000000000000000000000000000000000000000000000000000000000000000000000000000000000000000000e4b61d27f6000000000000000000000000010700808d59d2bb92257fcafacfe8e5bff7ab8700000000000000000000000000000000000000000000000000000000000000000000000000000000000000000000000000000000000000000000000000000060000000000000000000000000000000000000000000000000000000000000004440c10f19000000000000000000000000bb14fb6f2a2b8db4aa924d561e4b7cbd7ab464fe000000000000000000000000000000000000000000000002b5e3af16b1880000000000000000000000000000000000000000000000000000000000000000000000000000000000000000000000000000000000000000000000000000000000000000000000000000000000000000000000000000000000140000000000000000000000000000000000000000000000000000000000000000000000000000000000000000000000000000000000000000000000000000008208ad2899954ce2355ed2645c0c8d55279633be293506d76615fdee85f5450c265c3e4f0c0bf6cb9cffcfb49b8e18526f66c9876f9aeb3bd918c2da319286660f1b03d28304cd091d020ebdb4dc34cf007783eaea155ac661f5e481d352c14c5fd778fa39903e140054e8673a85b836c3d14e204c9d8e82e192fb2bffc468db076f1c000000000000000000000000000000000000000000000000000000000000",
        "nonce": "0x5f32",
        "chainId": "0x1ecf"
      },
      "additionalContracts": [],
      "isFixedGasLimit": false
    },
    {
      "hash": "0xa0d8516c616c21bf45c9fcfa4e278ce5eef85413b7556907d9038dc9fcf0c663",
      "transactionType": "CALL",
      "contractName": null,
      "contractAddress": "0x2843c269d2a64ecfa63548e8b3fc0fd23b7f70cb",
      "function": "handleOps((address,uint256,bytes,bytes,uint256,uint256,uint256,uint256,uint256,bytes,bytes)[],address)",
      "arguments": [
        "[(0x2e2B1c42E38f5af81771e65D87729E57ABD1337a, 3581, 0x, 0xb61d27f6000000000000000000000000010700808d59d2bb92257fcafacfe8e5bff7ab8700000000000000000000000000000000000000000000000000000000000000000000000000000000000000000000000000000000000000000000000000000060000000000000000000000000000000000000000000000000000000000000004440c10f19000000000000000000000000dd80a6df2c177093d21f88532d694b292d3df9e50000000000000000000000000000000000000000000000015af1d78b58c4000000000000000000000000000000000000000000000000000000000000, 4000000, 210000, 21000, 1, 1000000000, 0x0000000000000000000000000000000000000000, 0xf20fb9bbd8bd915e922bdfc46fc270a6707ac605a0394e3c8f8d088042c134856d0901a6203918b63556a3f3576d95e511e6ac9a2b1220eb75dd6cb83e7201c31b9b00d1b9cacde25c77957d567772274437060a9ceef2336296a14d890a351117227b7db22e6ad4d306161ed702cb30e87dc664e712afc26050a5200aa229c5301b)]",
        "0x660ad4B5A74130a4796B4d54BC6750Ae93C86e6c"
      ],
      "transaction": {
        "from": "0x660ad4b5a74130a4796b4d54bc6750ae93c86e6c",
        "to": "0x2843c269d2a64ecfa63548e8b3fc0fd23b7f70cb",
        "value": "0x0",
        "input": "0x1fad948c0000000000000000000000000000000000000000000000000000000000000040000000000000000000000000660ad4b5a74130a4796b4d54bc6750ae93c86e6c000000000000000000000000000000000000000000000000000000000000000100000000000000000000000000000000000000000000000000000000000000200000000000000000000000002e2b1c42e38f5af81771e65d87729e57abd1337a0000000000000000000000000000000000000000000000000000000000000dfd0000000000000000000000000000000000000000000000000000000000000160000000000000000000000000000000000000000000000000000000000000018000000000000000000000000000000000000000000000000000000000003d0900000000000000000000000000000000000000000000000000000000000003345000000000000000000000000000000000000000000000000000000000000052080000000000000000000000000000000000000000000000000000000000000001000000000000000000000000000000000000000000000000000000003b9aca0000000000000000000000000000000000000000000000000000000000000002a000000000000000000000000000000000000000000000000000000000000002e0000000000000000000000000000000000000000000000000000000000000000000000000000000000000000000000000000000000000000000000000000000e4b61d27f6000000000000000000000000010700808d59d2bb92257fcafacfe8e5bff7ab8700000000000000000000000000000000000000000000000000000000000000000000000000000000000000000000000000000000000000000000000000000060000000000000000000000000000000000000000000000000000000000000004440c10f19000000000000000000000000dd80a6df2c177093d21f88532d694b292d3df9e50000000000000000000000000000000000000000000000015af1d78b58c400000000000000000000000000000000000000000000000000000000000000000000000000000000000000000000000000000000000000000000000000000000000000000000000000000000000000000000000000000000001400000000000000000000000000000000000000000000000000000000000000000000000000000000000000000000000000000000000000000000000000000082f20fb9bbd8bd915e922bdfc46fc270a6707ac605a0394e3c8f8d088042c134856d0901a6203918b63556a3f3576d95e511e6ac9a2b1220eb75dd6cb83e7201c31b9b00d1b9cacde25c77957d567772274437060a9ceef2336296a14d890a351117227b7db22e6ad4d306161ed702cb30e87dc664e712afc26050a5200aa229c5301b000000000000000000000000000000000000000000000000000000000000",
        "nonce": "0x5f33",
        "chainId": "0x1ecf"
      },
      "additionalContracts": [],
      "isFixedGasLimit": false
    }
  ],
  "receipts": [
    {
      "status": "0x1",
      "cumulativeGasUsed": "0x52d9c",
      "logs": [
        {
          "address": "0x2843c269d2a64ecfa63548e8b3fc0fd23b7f70cb",
          "topics": [
            "0xbb47ee3e183a558b1a2ff0874b079f3fc5478b7454eacf2bfc5af2ff5878f972"
          ],
          "data": "0x",
          "blockHash": "0xd28f5a795b185f527b68d3469fe90a6faef34070d518e476357d1309a571f73f",
          "blockNumber": "0x3cc86",
          "transactionHash": "0x9d8812592840744f00afd190430ddb910aa6cd22f8b57baa971ceb41c23dc83c",
          "transactionIndex": "0x1",
          "logIndex": "0x0",
          "removed": false
        },
        {
          "address": "0x010700808d59d2bb92257fcafacfe8e5bff7ab87",
          "topics": [
            "0xddf252ad1be2c89b69c2b068fc378daa952ba7f163c4a11628f55a4df523b3ef",
            "0x000000000000000000000000d157904639e89df05e89e0dabeec99ae3d74f9aa",
            "0x0000000000000000000000000000000000000000000000000000000000000000"
          ],
          "data": "0x0000000000000000000000000000000000000000000000097c9ce4cf6d5c0000",
          "blockHash": "0xd28f5a795b185f527b68d3469fe90a6faef34070d518e476357d1309a571f73f",
          "blockNumber": "0x3cc86",
          "transactionHash": "0x9d8812592840744f00afd190430ddb910aa6cd22f8b57baa971ceb41c23dc83c",
          "transactionIndex": "0x1",
          "logIndex": "0x1",
          "removed": false
        },
        {
          "address": "0x2843c269d2a64ecfa63548e8b3fc0fd23b7f70cb",
          "topics": [
            "0x49628fd1471006c1482da88028e9ce4dbb080b815c9b0344d39e5a8e6ec1419f",
            "0xa5e1048d87849eb9a8222a3b4fb6f1d03573ab308e90d54d3c32b27187130c94",
            "0x0000000000000000000000002e2b1c42e38f5af81771e65d87729e57abd1337a",
            "0x0000000000000000000000000000000000000000000000000000000000000000"
          ],
          "data": "0x0000000000000000000000000000000000000000000000000000000000000dfa00000000000000000000000000000000000000000000000000000000000000010000000000000000000000000000000000000000000000000000000000086d910000000000000000000000000000000000000000000000000000000000086d91",
          "blockHash": "0xd28f5a795b185f527b68d3469fe90a6faef34070d518e476357d1309a571f73f",
          "blockNumber": "0x3cc86",
          "transactionHash": "0x9d8812592840744f00afd190430ddb910aa6cd22f8b57baa971ceb41c23dc83c",
          "transactionIndex": "0x1",
          "logIndex": "0x2",
          "removed": false
        }
      ],
      "logsBloom": "0x10002200000400000000000000000000000000000000000000000000000001000008000000000000000000010000000000000000000000000000020000000000000000000000000000000008000000000000000000000000000000000000000800000000020000000000000000000800002000000000000000000010000000000000000000000000000000000000800000000000000000000000000000000000001400000000000000400000000000000000000000000000000002400000000000000002000000100001000000000000000000000000000000000000000020000000000000010000000000000000800000000000000000000000000000000800",
      "type": "0x2",
      "transactionHash": "0x9d8812592840744f00afd190430ddb910aa6cd22f8b57baa971ceb41c23dc83c",
      "transactionIndex": "0x1",
      "blockHash": "0xd28f5a795b185f527b68d3469fe90a6faef34070d518e476357d1309a571f73f",
      "blockNumber": "0x3cc86",
      "gasUsed": "0x52d9c",
      "effectiveGasPrice": "0x5f5e100",
      "from": "0x660ad4b5a74130a4796b4d54bc6750ae93c86e6c",
      "to": "0x2843c269d2a64ecfa63548e8b3fc0fd23b7f70cb",
      "contractAddress": null,
      "gasUsedForL1": "0x261a5",
      "l1BlockNumber": "0x14243c9"
    },
    {
      "status": "0x1",
      "cumulativeGasUsed": "0x52951",
      "logs": [
        {
          "address": "0x2843c269d2a64ecfa63548e8b3fc0fd23b7f70cb",
          "topics": [
            "0xbb47ee3e183a558b1a2ff0874b079f3fc5478b7454eacf2bfc5af2ff5878f972"
          ],
          "data": "0x",
          "blockHash": "0x4619230f96c26f4d07bc186a715c17a0d8dc6815a460ea2d39a2acff1919176e",
          "blockNumber": "0x3cc87",
          "transactionHash": "0x38890f4bed302f41e5b2046ee97b27a4d34035af37fcbac995224718e42e0a18",
          "transactionIndex": "0x1",
          "logIndex": "0x0",
          "removed": false
        },
        {
          "address": "0x010700808d59d2bb92257fcafacfe8e5bff7ab87",
          "topics": [
            "0xddf252ad1be2c89b69c2b068fc378daa952ba7f163c4a11628f55a4df523b3ef",
            "0x0000000000000000000000000000000000000000000000000000000000000000",
            "0x000000000000000000000000bfc95f5aa3c146fa406639180990e0ee45916476"
          ],
          "data": "0x0000000000000000000000000000000000000000000000056bc75e2d63100000",
          "blockHash": "0x4619230f96c26f4d07bc186a715c17a0d8dc6815a460ea2d39a2acff1919176e",
          "blockNumber": "0x3cc87",
          "transactionHash": "0x38890f4bed302f41e5b2046ee97b27a4d34035af37fcbac995224718e42e0a18",
          "transactionIndex": "0x1",
          "logIndex": "0x1",
          "removed": false
        },
        {
          "address": "0x2843c269d2a64ecfa63548e8b3fc0fd23b7f70cb",
          "topics": [
            "0x49628fd1471006c1482da88028e9ce4dbb080b815c9b0344d39e5a8e6ec1419f",
            "0xc55a41840123ecc6f1ac79d0509fab386ce2a99b1535642db3feb5b62bdc76a7",
            "0x0000000000000000000000002e2b1c42e38f5af81771e65d87729e57abd1337a",
            "0x0000000000000000000000000000000000000000000000000000000000000000"
          ],
          "data": "0x0000000000000000000000000000000000000000000000000000000000000dfb000000000000000000000000000000000000000000000000000000000000000100000000000000000000000000000000000000000000000000000000000865c200000000000000000000000000000000000000000000000000000000000865c2",
          "blockHash": "0x4619230f96c26f4d07bc186a715c17a0d8dc6815a460ea2d39a2acff1919176e",
          "blockNumber": "0x3cc87",
          "transactionHash": "0x38890f4bed302f41e5b2046ee97b27a4d34035af37fcbac995224718e42e0a18",
          "transactionIndex": "0x1",
          "logIndex": "0x2",
          "removed": false
        }
      ],
      "logsBloom": "0x00000000000400000200000000000000000000000000000000000000000000000008000000000000000000010000000000000000000000000000020000000000000000000000000000000008000000000000000000000000000000000000000800000000020000000000000000000804002000000000000000000010000000000000000000000000800000000000800000000000000000000000000000000000001400000000000000400000000000000000000002000000000002000000000000000002000000100001000000000000000000000000000000000002010020000000000000010000000000000000800000000000000000000000000000000000",
      "type": "0x2",
      "transactionHash": "0x38890f4bed302f41e5b2046ee97b27a4d34035af37fcbac995224718e42e0a18",
      "transactionIndex": "0x1",
      "blockHash": "0x4619230f96c26f4d07bc186a715c17a0d8dc6815a460ea2d39a2acff1919176e",
      "blockNumber": "0x3cc87",
      "gasUsed": "0x52951",
      "effectiveGasPrice": "0x5f5e100",
      "from": "0x660ad4b5a74130a4796b4d54bc6750ae93c86e6c",
      "to": "0x2843c269d2a64ecfa63548e8b3fc0fd23b7f70cb",
      "contractAddress": null,
      "gasUsedForL1": "0x265fc",
      "l1BlockNumber": "0x14243c9"
    },
    {
      "status": "0x1",
      "cumulativeGasUsed": "0x522b7",
      "logs": [
        {
          "address": "0x2843c269d2a64ecfa63548e8b3fc0fd23b7f70cb",
          "topics": [
            "0xbb47ee3e183a558b1a2ff0874b079f3fc5478b7454eacf2bfc5af2ff5878f972"
          ],
          "data": "0x",
          "blockHash": "0x9089f9c55510d7716e001e54094f3aa17f6accf8114752ab7dff944f371b7f32",
          "blockNumber": "0x3cc88",
          "transactionHash": "0x5b0d18274df681530acfcf7e7b076402ed49733b504920770cec7f4e6fd1ceda",
          "transactionIndex": "0x1",
          "logIndex": "0x0",
          "removed": false
        },
        {
          "address": "0x010700808d59d2bb92257fcafacfe8e5bff7ab87",
          "topics": [
            "0xddf252ad1be2c89b69c2b068fc378daa952ba7f163c4a11628f55a4df523b3ef",
            "0x0000000000000000000000000000000000000000000000000000000000000000",
            "0x000000000000000000000000bb14fb6f2a2b8db4aa924d561e4b7cbd7ab464fe"
          ],
          "data": "0x000000000000000000000000000000000000000000000002b5e3af16b1880000",
          "blockHash": "0x9089f9c55510d7716e001e54094f3aa17f6accf8114752ab7dff944f371b7f32",
          "blockNumber": "0x3cc88",
          "transactionHash": "0x5b0d18274df681530acfcf7e7b076402ed49733b504920770cec7f4e6fd1ceda",
          "transactionIndex": "0x1",
          "logIndex": "0x1",
          "removed": false
        },
        {
          "address": "0x2843c269d2a64ecfa63548e8b3fc0fd23b7f70cb",
          "topics": [
            "0x49628fd1471006c1482da88028e9ce4dbb080b815c9b0344d39e5a8e6ec1419f",
            "0x7beeb67ca023463db4173583b4a7d075a3217b2c4680f6d00130272569c04570",
            "0x0000000000000000000000002e2b1c42e38f5af81771e65d87729e57abd1337a",
            "0x0000000000000000000000000000000000000000000000000000000000000000"
          ],
          "data": "0x0000000000000000000000000000000000000000000000000000000000000dfc000000000000000000000000000000000000000000000000000000000000000100000000000000000000000000000000000000000000000000000000000865c200000000000000000000000000000000000000000000000000000000000865c2",
          "blockHash": "0x9089f9c55510d7716e001e54094f3aa17f6accf8114752ab7dff944f371b7f32",
          "blockNumber": "0x3cc88",
          "transactionHash": "0x5b0d18274df681530acfcf7e7b076402ed49733b504920770cec7f4e6fd1ceda",
          "transactionIndex": "0x1",
          "logIndex": "0x2",
          "removed": false
        }
      ],
      "logsBloom": "0x00000000000400000000400000000000000000000000000000000000000000000008000008000000000000010000000000000000000000000000020000000000000000000000000000000008000000000000000000000000000000000000000800000000020000800000000000000800002000000000000000000010000000000000000000000000000000000000800004000000008000000000000000000000001400000000000000400000000000000000000000000000000002000000000000000002000000100001000000000000000000000000000000000000000020000000000200010000000000000000800000000000000000000000000000000000",
      "type": "0x2",
      "transactionHash": "0x5b0d18274df681530acfcf7e7b076402ed49733b504920770cec7f4e6fd1ceda",
      "transactionIndex": "0x1",
      "blockHash": "0x9089f9c55510d7716e001e54094f3aa17f6accf8114752ab7dff944f371b7f32",
      "blockNumber": "0x3cc88",
      "gasUsed": "0x522b7",
      "effectiveGasPrice": "0x5f5e100",
      "from": "0x660ad4b5a74130a4796b4d54bc6750ae93c86e6c",
      "to": "0x2843c269d2a64ecfa63548e8b3fc0fd23b7f70cb",
      "contractAddress": null,
      "gasUsedForL1": "0x25f7a",
      "l1BlockNumber": "0x14243c9"
    },
    {
      "status": "0x1",
      "cumulativeGasUsed": "0x522c3",
      "logs": [
        {
          "address": "0x2843c269d2a64ecfa63548e8b3fc0fd23b7f70cb",
          "topics": [
            "0xbb47ee3e183a558b1a2ff0874b079f3fc5478b7454eacf2bfc5af2ff5878f972"
          ],
          "data": "0x",
          "blockHash": "0x84cf95ae6deddeb7c61b076d11fe2ba87222d9fa54d2791f5dc3eb045935c012",
          "blockNumber": "0x3cc89",
          "transactionHash": "0xa0d8516c616c21bf45c9fcfa4e278ce5eef85413b7556907d9038dc9fcf0c663",
          "transactionIndex": "0x1",
          "logIndex": "0x0",
          "removed": false
        },
        {
          "address": "0x010700808d59d2bb92257fcafacfe8e5bff7ab87",
          "topics": [
            "0xddf252ad1be2c89b69c2b068fc378daa952ba7f163c4a11628f55a4df523b3ef",
            "0x0000000000000000000000000000000000000000000000000000000000000000",
            "0x000000000000000000000000dd80a6df2c177093d21f88532d694b292d3df9e5"
          ],
          "data": "0x0000000000000000000000000000000000000000000000015af1d78b58c40000",
          "blockHash": "0x84cf95ae6deddeb7c61b076d11fe2ba87222d9fa54d2791f5dc3eb045935c012",
          "blockNumber": "0x3cc89",
          "transactionHash": "0xa0d8516c616c21bf45c9fcfa4e278ce5eef85413b7556907d9038dc9fcf0c663",
          "transactionIndex": "0x1",
          "logIndex": "0x1",
          "removed": false
        },
        {
          "address": "0x2843c269d2a64ecfa63548e8b3fc0fd23b7f70cb",
          "topics": [
            "0x49628fd1471006c1482da88028e9ce4dbb080b815c9b0344d39e5a8e6ec1419f",
            "0x6ff3a26082625ad637d231ac739895bb97ea122df8be820111097eb28b009604",
            "0x0000000000000000000000002e2b1c42e38f5af81771e65d87729e57abd1337a",
            "0x0000000000000000000000000000000000000000000000000000000000000000"
          ],
          "data": "0x0000000000000000000000000000000000000000000000000000000000000dfd000000000000000000000000000000000000000000000000000000000000000100000000000000000000000000000000000000000000000000000000000865c200000000000000000000000000000000000000000000000000000000000865c2",
          "blockHash": "0x84cf95ae6deddeb7c61b076d11fe2ba87222d9fa54d2791f5dc3eb045935c012",
          "blockNumber": "0x3cc89",
          "transactionHash": "0xa0d8516c616c21bf45c9fcfa4e278ce5eef85413b7556907d9038dc9fcf0c663",
          "transactionIndex": "0x1",
          "logIndex": "0x2",
          "removed": false
        }
      ],
      "logsBloom": "0x00000010000400000000000000000000000000000000000000000000000000000008000000000000000000030000000000000000000000000000020000000000000000000000000000000008000000000000000000000000000000000000000800000000020000000000000000000800002000000000000000000010000000000000000000000080000000000000800000000000000000000000000000000000001400000000000000400000000000000000000000000000000002000000000000000002000000100001000000010000000000800000000000000000000020000040000000010000000000000000800000000000000000000000000000000000",
      "type": "0x2",
      "transactionHash": "0xa0d8516c616c21bf45c9fcfa4e278ce5eef85413b7556907d9038dc9fcf0c663",
      "transactionIndex": "0x1",
      "blockHash": "0x84cf95ae6deddeb7c61b076d11fe2ba87222d9fa54d2791f5dc3eb045935c012",
      "blockNumber": "0x3cc89",
      "gasUsed": "0x522c3",
      "effectiveGasPrice": "0x5f5e100",
      "from": "0x660ad4b5a74130a4796b4d54bc6750ae93c86e6c",
      "to": "0x2843c269d2a64ecfa63548e8b3fc0fd23b7f70cb",
      "contractAddress": null,
      "gasUsedForL1": "0x25f7a",
      "l1BlockNumber": "0x14243c9"
    }
  ],
  "libraries": [],
  "pending": [],
  "returns": {},
  "timestamp": 1730791588,
  "chain": 7887,
  "commit": "7a0cfbdc"
}