{
  "transactions": [
    {
      "hash": "0xeffc2db9ad7bf7ba25883b1c4bc702c17a674d2cf750c3580ce96545d5aa4f10",
      "transactionType": "CALL",
      "contractName": null,
      "contractAddress": "0x2843c269d2a64ecfa63548e8b3fc0fd23b7f70cb",
      "function": "handleOps((address,uint256,bytes,bytes,uint256,uint256,uint256,uint256,uint256,bytes,bytes)[],address)",
      "arguments": [
        "[(0x2e2B1c42E38f5af81771e65D87729E57ABD1337a, 4618, 0x, 0xb61d27f6000000000000000000000000acc000818e5bbd911d5d449aa81cb5ca2402473900000000000000000000000000000000000000000000000000000000000000000000000000000000000000000000000000000000000000000000000000000060000000000000000000000000000000000000000000000000000000000000006425c471a0000000000000000000000000000000000000000000000000000000000000000000000000000000000000000028fc10e12a78f986c78f973fc70ed88072b34c8e0000000000000000000000000000000000000000000000000000000000093a8000000000000000000000000000000000000000000000000000000000, 4000000, 210000, 21000, 1, 1000000000, 0x0000000000000000000000000000000000000000, 0xcaac618e5609e88bf0437c994c25a05204fe037fafa4e86706037761b3ff922a55e1212449b989d8d248dafb145464c5dc342a9065318594ed23c7b4cb0097db1cdad7251374839301ac27c970d9861bb6c0b3f0ef3ada1c42961f1a24e93f445a2084c551a6d907375a0a40683860353c8ba8b5a2fd45281b1b285bda3e4278521c)]",
        "0x660ad4B5A74130a4796B4d54BC6750Ae93C86e6c"
      ],
      "transaction": {
        "from": "0x660ad4b5a74130a4796b4d54bc6750ae93c86e6c",
        "to": "0x2843c269d2a64ecfa63548e8b3fc0fd23b7f70cb",
        "value": "0x0",
        "input": "0x1fad948c0000000000000000000000000000000000000000000000000000000000000040000000000000000000000000660ad4b5a74130a4796b4d54bc6750ae93c86e6c000000000000000000000000000000000000000000000000000000000000000100000000000000000000000000000000000000000000000000000000000000200000000000000000000000002e2b1c42e38f5af81771e65d87729e57abd1337a000000000000000000000000000000000000000000000000000000000000120a0000000000000000000000000000000000000000000000000000000000000160000000000000000000000000000000000000000000000000000000000000018000000000000000000000000000000000000000000000000000000000003d0900000000000000000000000000000000000000000000000000000000000003345000000000000000000000000000000000000000000000000000000000000052080000000000000000000000000000000000000000000000000000000000000001000000000000000000000000000000000000000000000000000000003b9aca0000000000000000000000000000000000000000000000000000000000000002c0000000000000000000000000000000000000000000000000000000000000030000000000000000000000000000000000000000000000000000000000000000000000000000000000000000000000000000000000000000000000000000000104b61d27f6000000000000000000000000acc000818e5bbd911d5d449aa81cb5ca2402473900000000000000000000000000000000000000000000000000000000000000000000000000000000000000000000000000000000000000000000000000000060000000000000000000000000000000000000000000000000000000000000006425c471a0000000000000000000000000000000000000000000000000000000000000000000000000000000000000000028fc10e12a78f986c78f973fc70ed88072b34c8e0000000000000000000000000000000000000000000000000000000000093a800000000000000000000000000000000000000000000000000000000000000000000000000000000000000000000000000000000000000000000000000000000000000000000000000000000000000000000000000000001400000000000000000000000000000000000000000000000000000000000000000000000000000000000000000000000000000000000000000000000000000082caac618e5609e88bf0437c994c25a05204fe037fafa4e86706037761b3ff922a55e1212449b989d8d248dafb145464c5dc342a9065318594ed23c7b4cb0097db1cdad7251374839301ac27c970d9861bb6c0b3f0ef3ada1c42961f1a24e93f445a2084c551a6d907375a0a40683860353c8ba8b5a2fd45281b1b285bda3e4278521c000000000000000000000000000000000000000000000000000000000000",
        "nonce": "0x4bd16",
        "chainId": "0x1ecf"
      },
      "additionalContracts": [],
      "isFixedGasLimit": false
    }
  ],
  "receipts": [
    {
      "status": "0x1",
      "cumulativeGasUsed": "0x3d3ab",
      "logs": [
        {
          "address": "0x2843c269d2a64ecfa63548e8b3fc0fd23b7f70cb",
          "topics": [
            "0xbb47ee3e183a558b1a2ff0874b079f3fc5478b7454eacf2bfc5af2ff5878f972"
          ],
          "data": "0x",
          "blockHash": "0x25587b0704bd742fd1b419cdbc3b442889d34fc8c9e562f76eaec326290f8f24",
          "blockNumber": "0xbbeaf",
          "transactionHash": "0xeffc2db9ad7bf7ba25883b1c4bc702c17a674d2cf750c3580ce96545d5aa4f10",
          "transactionIndex": "0x1",
          "logIndex": "0x0",
          "removed": false
        },
        {
          "address": "0xacc000818e5bbd911d5d449aa81cb5ca24024739",
          "topics": [
            "0xf98448b987f1428e0e230e1f3c6e2ce15b5693eaf31827fbd0b1ec4b424ae7cf",
            "0x0000000000000000000000000000000000000000000000000000000000000000",
            "0x00000000000000000000000028fc10e12a78f986c78f973fc70ed88072b34c8e"
          ],
          "data": "0x0000000000000000000000000000000000000000000000000000000000093a800000000000000000000000000000000000000000000000000000000067da03e40000000000000000000000000000000000000000000000000000000000000001",
          "blockHash": "0x25587b0704bd742fd1b419cdbc3b442889d34fc8c9e562f76eaec326290f8f24",
          "blockNumber": "0xbbeaf",
          "transactionHash": "0xeffc2db9ad7bf7ba25883b1c4bc702c17a674d2cf750c3580ce96545d5aa4f10",
          "transactionIndex": "0x1",
          "logIndex": "0x1",
          "removed": false
        },
        {
          "address": "0x2843c269d2a64ecfa63548e8b3fc0fd23b7f70cb",
          "topics": [
            "0x49628fd1471006c1482da88028e9ce4dbb080b815c9b0344d39e5a8e6ec1419f",
            "0x4ce08698974dbd730665ef2805807b7725a2b346c8cc2d0c39ea1e5590ef9669",
            "0x0000000000000000000000002e2b1c42e38f5af81771e65d87729e57abd1337a",
            "0x0000000000000000000000000000000000000000000000000000000000000000"
          ],
          "data": "0x000000000000000000000000000000000000000000000000000000000000120a00000000000000000000000000000000000000000000000000000000000000010000000000000000000000000000000000000000000000000000000000088c080000000000000000000000000000000000000000000000000000000000088c08",
          "blockHash": "0x25587b0704bd742fd1b419cdbc3b442889d34fc8c9e562f76eaec326290f8f24",
          "blockNumber": "0xbbeaf",
          "transactionHash": "0xeffc2db9ad7bf7ba25883b1c4bc702c17a674d2cf750c3580ce96545d5aa4f10",
          "transactionIndex": "0x1",
          "logIndex": "0x2",
          "removed": false
        }
      ],
      "logsBloom": "0x00000000000008000000000200000000000000000000000000000000000000000088000000000000000000010000000000000000000000000000020000000000000000000000000000000000000000000000000000000000000000000000000800000000020000000000000000000800002000000000000000000000000000000000000000000000000002000000800008000000000000000000000000001000000400000000000000402000000000000020000000000008000002000000000000000000000000100001000000000000000000000000000000000000000020000000000000010000000000000000000000800000000000000040100000000000",
      "type": "0x2",
      "transactionHash": "0xeffc2db9ad7bf7ba25883b1c4bc702c17a674d2cf750c3580ce96545d5aa4f10",
      "transactionIndex": "0x1",
      "blockHash": "0x25587b0704bd742fd1b419cdbc3b442889d34fc8c9e562f76eaec326290f8f24",
      "blockNumber": "0xbbeaf",
      "gasUsed": "0x3d3ab",
      "effectiveGasPrice": "0x5f5e100",
      "from": "0x660ad4b5a74130a4796b4d54bc6750ae93c86e6c",
      "to": "0x2843c269d2a64ecfa63548e8b3fc0fd23b7f70cb",
      "contractAddress": null,
      "gasUsedForL1": "0xe478",
      "l1BlockNumber": "0x150de9f"
    }
  ],
  "libraries": [],
  "pending": [],
  "returns": {},
  "timestamp": 1742341092,
  "chain": 7887,
  "commit": "55bc0a1a"
}