{
  "transactions": [
    {
      "hash": "0x6533f1cc035d9b7bcc5118f55744a94da42701094593fdae134f8cfe163124d5",
      "transactionType": "CALL",
      "contractName": null,
      "contractAddress": "0x2843c269d2a64ecfa63548e8b3fc0fd23b7f70cb",
      "function": "handleOps((address,uint256,bytes,bytes,uint256,uint256,uint256,uint256,uint256,bytes,bytes)[],address)",
      "arguments": [
        "[(0x2e2B1c42E38f5af81771e65D87729E57ABD1337a, 3909, 0x, 0xb61d27f6000000000000000000000000010700808d59d2bb92257fcafacfe8e5bff7ab870000000000000000000000000000000000000000000000000000000000000000000000000000000000000000000000000000000000000000000000000000006000000000000000000000000000000000000000000000000000000000000000449dc29fac000000000000000000000000d157904639e89df05e89e0dabeec99ae3d74f9aa0000000000000000000000000000000000000000000000a24e18c11baf88000000000000000000000000000000000000000000000000000000000000, 4000000, 210000, 21000, 1, 1000000000, 0x0000000000000000000000000000000000000000, 0xbdd448468a05e12b543a0517b6aa9c1ab7d6c3f9f85414ce923a3cb3ddc1713a2955e4bbbd6654091c3ffbbe035942a10ee572dee0bc36f4e373e6f454caef2b1c06e932dc329f3f9449ba54196ec37679d32d25d40090a5c01dde2902e64906dc7cf3a62645de2049caeae5cdac9c4450c0cad603c7b1cf9604697fa3987eff861c)]",
        "0x660ad4B5A74130a4796B4d54BC6750Ae93C86e6c"
      ],
      "transaction": {
        "from": "0x660ad4b5a74130a4796b4d54bc6750ae93c86e6c",
        "to": "0x2843c269d2a64ecfa63548e8b3fc0fd23b7f70cb",
        "value": "0x0",
        "input": "0x1fad948c0000000000000000000000000000000000000000000000000000000000000040000000000000000000000000660ad4b5a74130a4796b4d54bc6750ae93c86e6c000000000000000000000000000000000000000000000000000000000000000100000000000000000000000000000000000000000000000000000000000000200000000000000000000000002e2b1c42e38f5af81771e65d87729e57abd1337a0000000000000000000000000000000000000000000000000000000000000f450000000000000000000000000000000000000000000000000000000000000160000000000000000000000000000000000000000000000000000000000000018000000000000000000000000000000000000000000000000000000000003d0900000000000000000000000000000000000000000000000000000000000003345000000000000000000000000000000000000000000000000000000000000052080000000000000000000000000000000000000000000000000000000000000001000000000000000000000000000000000000000000000000000000003b9aca0000000000000000000000000000000000000000000000000000000000000002a000000000000000000000000000000000000000000000000000000000000002e0000000000000000000000000000000000000000000000000000000000000000000000000000000000000000000000000000000000000000000000000000000e4b61d27f6000000000000000000000000010700808d59d2bb92257fcafacfe8e5bff7ab870000000000000000000000000000000000000000000000000000000000000000000000000000000000000000000000000000000000000000000000000000006000000000000000000000000000000000000000000000000000000000000000449dc29fac000000000000000000000000d157904639e89df05e89e0dabeec99ae3d74f9aa0000000000000000000000000000000000000000000000a24e18c11baf8800000000000000000000000000000000000000000000000000000000000000000000000000000000000000000000000000000000000000000000000000000000000000000000000000000000000000000000000000000000001400000000000000000000000000000000000000000000000000000000000000000000000000000000000000000000000000000000000000000000000000000082bdd448468a05e12b543a0517b6aa9c1ab7d6c3f9f85414ce923a3cb3ddc1713a2955e4bbbd6654091c3ffbbe035942a10ee572dee0bc36f4e373e6f454caef2b1c06e932dc329f3f9449ba54196ec37679d32d25d40090a5c01dde2902e64906dc7cf3a62645de2049caeae5cdac9c4450c0cad603c7b1cf9604697fa3987eff861c000000000000000000000000000000000000000000000000000000000000",
        "nonce": "0x4b93b",
        "chainId": "0x1ecf"
      },
      "additionalContracts": [],
      "isFixedGasLimit": false
    },
    {
      "hash": "0x9d5e28a5cf4db5f32fcbb717439919bb9823459b072cac91c606abf7316fb13f",
      "transactionType": "CALL",
      "contractName": null,
      "contractAddress": "0x2843c269d2a64ecfa63548e8b3fc0fd23b7f70cb",
      "function": "handleOps((address,uint256,bytes,bytes,uint256,uint256,uint256,uint256,uint256,bytes,bytes)[],address)",
      "arguments": [
        "[(0x2e2B1c42E38f5af81771e65D87729E57ABD1337a, 3910, 0x, 0xb61d27f6000000000000000000000000010700808d59d2bb92257fcafacfe8e5bff7ab8700000000000000000000000000000000000000000000000000000000000000000000000000000000000000000000000000000000000000000000000000000060000000000000000000000000000000000000000000000000000000000000064468573107000000000000000000000000000000000000000000000000000000000000004000000000000000000000000000000000000000000000000000000000000003400000000000000000000000000000000000000000000000000000000000000017000000000000000000000000033a6df807c204697dae4eaa9cdc0880fc4ddf0200000000000000000000000085bd43dbb99a2290e4cd930fc6b952d903f83ffb000000000000000000000000ed31becd06fbfc54e9d4294059e473254265eab2000000000000000000000000c7da9b99627163d0afc06e5ada323ddfada8fade000000000000000000000000934cc16f2c7dfc0816e087d1c1a0647c9ab0694c000000000000000000000000337b9727e78c18b8d5111f787a9ae5fdc7e54897000000000000000000000000998c1e902ac23696f6fba069a688487a89ec38430000000000000000000000002690e0b5830cd4c39083fa0c43eda583d9f4b2d10000000000000000000000004f2204d3c9965f031f9147b0558d01d6b56ce44200000000000000000000000075e934ebfe57b08c9b0686f5aaad72699c28c1c20000000000000000000000004e3b22b00eededb66c1f62eedfceae453cea70f300000000000000000000000074046392a33a6aced83c1b37e69fdb155e567ff90000000000000000000000009db44fb2f2d4b645443fada48cea0899ca1b664000000000000000000000000004321e7e28769e77b46ddaf97713a364a18935840000000000000000000000006234805771cf57590158b65e7731c6dc7e88d2ff0000000000000000000000002a9d61e86f11fa11cafcb084a4102e21bd87cca6000000000000000000000000902402569dfdbd2e7ca3d48a6447d7ed200e6d39000000000000000000000000aa38e3658d2544c523602aaf76e5c708fc35c183000000000000000000000000adb7d5838d4d3bd5f42a6a5d2d60b5be01ffb3b1000000000000000000000000a38fa3dd33ab59ec465af92dfcb0d164ea3be735000000000000000000000000a47d862092ea26e1cf7a054a23f06eea45da2aca00000000000000000000000084ef8ea33a39da66839d7532bf1179435527763400000000000000000000000090a549fa595fdf7d1ecc7ee3897f65de91cedc34000000000000000000000000000000000000000000000000000000000000001700000000000000000000000000000000000000000000003f7ae3b7c6ae6c000000000000000000000000000000000000000000000000002bdb215dbbfb040000000000000000000000000000000000000000000000000013683f7f3c15d800000000000000000000000000000000000000000000000000082f8bc3f7bbfc0000000000000000000000000000000000000000000000000004fcc1a89027f00000000000000000000000000000000000000000000000000003f514193abb840000000000000000000000000000000000000000000000000002629f66e0c5300000000000000000000000000000000000000000000000000001f399b1438a10000000000000000000000000000000000000000000000000000176b344f2a78c000000000000000000000000000000000000000000000000000168d28e3f0028000000000000000000000000000000000000000000000000000168d28e3f00280000000000000000000000000000000000000000000000000001314fb37062980000000000000000000000000000000000000000000000000001158e460913d0000000000000000000000000000000000000000000000000000107ad8f556c6c000000000000000000000000000000000000000000000000000107ad8f556c6c0000000000000000000000000000000000000000000000000000f9ccd8a1c5080000000000000000000000000000000000000000000000000000de0b6b3a76400000000000000000000000000000000000000000000000000000c249fdd327780000000000000000000000000000000000000000000000000000a688906bd8b0000000000000000000000000000000000000000000000000000098a7d9b8314c00000000000000000000000000000000000000000000000000008ac7230489e800000000000000000000000000000000000000000000000000008ac7230489e800000000000000000000000000000000000000000000000000008ac7230489e8000000000000000000000000000000000000000000000000000000000000, 4000000, 210000, 21000, 1, 1000000000, 0x0000000000000000000000000000000000000000, 0x63899d3853401ba3db300fc22a5493896597b1084f9f39efc8c32b2d743f453d52fc0092a71c6236b6030e72002cbba93ac6fca9ef35e6b45badf7ba142d94411c41139e5297115b409e3408073038efd77edc2604ff8edbcf64f89348e55bad075d8cfedabe4f630884c29ddf5990bb9bcea68b67c0f31d39017c8b935f4be1371c)]",
        "0x660ad4B5A74130a4796B4d54BC6750Ae93C86e6c"
      ],
      "transaction": {
        "from": "0x660ad4b5a74130a4796b4d54bc6750ae93c86e6c",
        "to": "0x2843c269d2a64ecfa63548e8b3fc0fd23b7f70cb",
        "value": "0x0",
        "input": "0x1fad948c0000000000000000000000000000000000000000000000000000000000000040000000000000000000000000660ad4b5a74130a4796b4d54bc6750ae93c86e6c000000000000000000000000000000000000000000000000000000000000000100000000000000000000000000000000000000000000000000000000000000200000000000000000000000002e2b1c42e38f5af81771e65d87729e57abd1337a0000000000000000000000000000000000000000000000000000000000000f460000000000000000000000000000000000000000000000000000000000000160000000000000000000000000000000000000000000000000000000000000018000000000000000000000000000000000000000000000000000000000003d0900000000000000000000000000000000000000000000000000000000000003345000000000000000000000000000000000000000000000000000000000000052080000000000000000000000000000000000000000000000000000000000000001000000000000000000000000000000000000000000000000000000003b9aca0000000000000000000000000000000000000000000000000000000000000008a000000000000000000000000000000000000000000000000000000000000008e0000000000000000000000000000000000000000000000000000000000000000000000000000000000000000000000000000000000000000000000000000006e4b61d27f6000000000000000000000000010700808d59d2bb92257fcafacfe8e5bff7ab8700000000000000000000000000000000000000000000000000000000000000000000000000000000000000000000000000000000000000000000000000000060000000000000000000000000000000000000000000000000000000000000064468573107000000000000000000000000000000000000000000000000000000000000004000000000000000000000000000000000000000000000000000000000000003400000000000000000000000000000000000000000000000000000000000000017000000000000000000000000033a6df807c204697dae4eaa9cdc0880fc4ddf0200000000000000000000000085bd43dbb99a2290e4cd930fc6b952d903f83ffb000000000000000000000000ed31becd06fbfc54e9d4294059e473254265eab2000000000000000000000000c7da9b99627163d0afc06e5ada323ddfada8fade000000000000000000000000934cc16f2c7dfc0816e087d1c1a0647c9ab0694c000000000000000000000000337b9727e78c18b8d5111f787a9ae5fdc7e54897000000000000000000000000998c1e902ac23696f6fba069a688487a89ec38430000000000000000000000002690e0b5830cd4c39083fa0c43eda583d9f4b2d10000000000000000000000004f2204d3c9965f031f9147b0558d01d6b56ce44200000000000000000000000075e934ebfe57b08c9b0686f5aaad72699c28c1c20000000000000000000000004e3b22b00eededb66c1f62eedfceae453cea70f300000000000000000000000074046392a33a6aced83c1b37e69fdb155e567ff90000000000000000000000009db44fb2f2d4b645443fada48cea0899ca1b664000000000000000000000000004321e7e28769e77b46ddaf97713a364a18935840000000000000000000000006234805771cf57590158b65e7731c6dc7e88d2ff0000000000000000000000002a9d61e86f11fa11cafcb084a4102e21bd87cca6000000000000000000000000902402569dfdbd2e7ca3d48a6447d7ed200e6d39000000000000000000000000aa38e3658d2544c523602aaf76e5c708fc35c183000000000000000000000000adb7d5838d4d3bd5f42a6a5d2d60b5be01ffb3b1000000000000000000000000a38fa3dd33ab59ec465af92dfcb0d164ea3be735000000000000000000000000a47d862092ea26e1cf7a054a23f06eea45da2aca00000000000000000000000084ef8ea33a39da66839d7532bf1179435527763400000000000000000000000090a549fa595fdf7d1ecc7ee3897f65de91cedc34000000000000000000000000000000000000000000000000000000000000001700000000000000000000000000000000000000000000003f7ae3b7c6ae6c000000000000000000000000000000000000000000000000002bdb215dbbfb040000000000000000000000000000000000000000000000000013683f7f3c15d800000000000000000000000000000000000000000000000000082f8bc3f7bbfc0000000000000000000000000000000000000000000000000004fcc1a89027f00000000000000000000000000000000000000000000000000003f514193abb840000000000000000000000000000000000000000000000000002629f66e0c5300000000000000000000000000000000000000000000000000001f399b1438a10000000000000000000000000000000000000000000000000000176b344f2a78c000000000000000000000000000000000000000000000000000168d28e3f0028000000000000000000000000000000000000000000000000000168d28e3f00280000000000000000000000000000000000000000000000000001314fb37062980000000000000000000000000000000000000000000000000001158e460913d0000000000000000000000000000000000000000000000000000107ad8f556c6c000000000000000000000000000000000000000000000000000107ad8f556c6c0000000000000000000000000000000000000000000000000000f9ccd8a1c5080000000000000000000000000000000000000000000000000000de0b6b3a76400000000000000000000000000000000000000000000000000000c249fdd327780000000000000000000000000000000000000000000000000000a688906bd8b0000000000000000000000000000000000000000000000000000098a7d9b8314c00000000000000000000000000000000000000000000000000008ac7230489e800000000000000000000000000000000000000000000000000008ac7230489e800000000000000000000000000000000000000000000000000008ac7230489e80000000000000000000000000000000000000000000000000000000000000000000000000000000000000000000000000000000000000000000000000000000000000000000000000000000000000000000000000000000000140000000000000000000000000000000000000000000000000000000000000000000000000000000000000000000000000000000000000000000000000000008263899d3853401ba3db300fc22a5493896597b1084f9f39efc8c32b2d743f453d52fc0092a71c6236b6030e72002cbba93ac6fca9ef35e6b45badf7ba142d94411c41139e5297115b409e3408073038efd77edc2604ff8edbcf64f89348e55bad075d8cfedabe4f630884c29ddf5990bb9bcea68b67c0f31d39017c8b935f4be1371c000000000000000000000000000000000000000000000000000000000000",
        "nonce": "0x4b93c",
        "chainId": "0x1ecf"
      },
      "additionalContracts": [],
      "isFixedGasLimit": false
    }
  ],
  "receipts": [
    {
      "status": "0x1",
      "cumulativeGasUsed": "0x6f66c",
      "logs": [
        {
          "address": "0x2843c269d2a64ecfa63548e8b3fc0fd23b7f70cb",
          "topics": [
            "0xbb47ee3e183a558b1a2ff0874b079f3fc5478b7454eacf2bfc5af2ff5878f972"
          ],
          "data": "0x",
          "blockHash": "0x960d844e3c575bd49d5ce2cd18f9b461a61b5f211500aaab51901ae521f08e2e",
          "blockNumber": "0xa78da",
          "transactionHash": "0x6533f1cc035d9b7bcc5118f55744a94da42701094593fdae134f8cfe163124d5",
          "transactionIndex": "0x1",
          "logIndex": "0x0",
          "removed": false
        },
        {
          "address": "0x010700808d59d2bb92257fcafacfe8e5bff7ab87",
          "topics": [
            "0xddf252ad1be2c89b69c2b068fc378daa952ba7f163c4a11628f55a4df523b3ef",
            "0x000000000000000000000000d157904639e89df05e89e0dabeec99ae3d74f9aa",
            "0x0000000000000000000000000000000000000000000000000000000000000000"
          ],
          "data": "0x0000000000000000000000000000000000000000000000a24e18c11baf880000",
          "blockHash": "0x960d844e3c575bd49d5ce2cd18f9b461a61b5f211500aaab51901ae521f08e2e",
          "blockNumber": "0xa78da",
          "transactionHash": "0x6533f1cc035d9b7bcc5118f55744a94da42701094593fdae134f8cfe163124d5",
          "transactionIndex": "0x1",
          "logIndex": "0x1",
          "removed": false
        },
        {
          "address": "0x2843c269d2a64ecfa63548e8b3fc0fd23b7f70cb",
          "topics": [
            "0x49628fd1471006c1482da88028e9ce4dbb080b815c9b0344d39e5a8e6ec1419f",
            "0x64b266de80abdb0263dd4a0db98774e84da30c23c5cfb00da9a7501d50e56bcc",
            "0x0000000000000000000000002e2b1c42e38f5af81771e65d87729e57abd1337a",
            "0x0000000000000000000000000000000000000000000000000000000000000000"
          ],
          "data": "0x0000000000000000000000000000000000000000000000000000000000000f450000000000000000000000000000000000000000000000000000000000000001000000000000000000000000000000000000000000000000000000000008e1f6000000000000000000000000000000000000000000000000000000000008e1f6",
          "blockHash": "0x960d844e3c575bd49d5ce2cd18f9b461a61b5f211500aaab51901ae521f08e2e",
          "blockNumber": "0xa78da",
          "transactionHash": "0x6533f1cc035d9b7bcc5118f55744a94da42701094593fdae134f8cfe163124d5",
          "transactionIndex": "0x1",
          "logIndex": "0x2",
          "removed": false
        }
      ],
      "logsBloom": "0x00002000000400000000000000000000000000000000000000040000000001000008000000000000000000010000000000000000000000000000020000000000000000000000000000000108000000000000000100000000000000000000000800000000020000000000000000000800002000000000000000000010000000000000000000000000000000000000800000000000000000000000000000000000001400000000000000400000000000000000000000000000000002000000000000000002000000100001000000000000000000000000000000000000000020000000000000010000000000000000800000000000000000000000000000000800",
      "type": "0x2",
      "transactionHash": "0x6533f1cc035d9b7bcc5118f55744a94da42701094593fdae134f8cfe163124d5",
      "transactionIndex": "0x1",
      "blockHash": "0x960d844e3c575bd49d5ce2cd18f9b461a61b5f211500aaab51901ae521f08e2e",
      "blockNumber": "0xa78da",
      "gasUsed": "0x6f66c",
      "effectiveGasPrice": "0x5f5e100",
      "from": "0x660ad4b5a74130a4796b4d54bc6750ae93c86e6c",
      "to": "0x2843c269d2a64ecfa63548e8b3fc0fd23b7f70cb",
      "contractAddress": null,
      "gasUsedForL1": "0x3a817",
      "l1BlockNumber": "0x14790f6"
    },
    {
      "status": "0x1",
      "cumulativeGasUsed": "0x105d5d",
      "logs": [
        {
          "address": "0x2843c269d2a64ecfa63548e8b3fc0fd23b7f70cb",
          "topics": [
            "0xbb47ee3e183a558b1a2ff0874b079f3fc5478b7454eacf2bfc5af2ff5878f972"
          ],
          "data": "0x",
          "blockHash": "0x97ed6c46132c914001b327133bf82868edfba2d6df97dce614fb8860377fb499",
          "blockNumber": "0xa78db",
          "transactionHash": "0x9d5e28a5cf4db5f32fcbb717439919bb9823459b072cac91c606abf7316fb13f",
          "transactionIndex": "0x1",
          "logIndex": "0x0",
          "removed": false
        },
        {
          "address": "0x010700808d59d2bb92257fcafacfe8e5bff7ab87",
          "topics": [
            "0xddf252ad1be2c89b69c2b068fc378daa952ba7f163c4a11628f55a4df523b3ef",
            "0x0000000000000000000000000000000000000000000000000000000000000000",
            "0x000000000000000000000000033a6df807c204697dae4eaa9cdc0880fc4ddf02"
          ],
          "data": "0x00000000000000000000000000000000000000000000003f7ae3b7c6ae6c0000",
          "blockHash": "0x97ed6c46132c914001b327133bf82868edfba2d6df97dce614fb8860377fb499",
          "blockNumber": "0xa78db",
          "transactionHash": "0x9d5e28a5cf4db5f32fcbb717439919bb9823459b072cac91c606abf7316fb13f",
          "transactionIndex": "0x1",
          "logIndex": "0x1",
          "removed": false
        },
        {
          "address": "0x010700808d59d2bb92257fcafacfe8e5bff7ab87",
          "topics": [
            "0xddf252ad1be2c89b69c2b068fc378daa952ba7f163c4a11628f55a4df523b3ef",
            "0x0000000000000000000000000000000000000000000000000000000000000000",
            "0x00000000000000000000000085bd43dbb99a2290e4cd930fc6b952d903f83ffb"
          ],
          "data": "0x00000000000000000000000000000000000000000000002bdb215dbbfb040000",
          "blockHash": "0x97ed6c46132c914001b327133bf82868edfba2d6df97dce614fb8860377fb499",
          "blockNumber": "0xa78db",
          "transactionHash": "0x9d5e28a5cf4db5f32fcbb717439919bb9823459b072cac91c606abf7316fb13f",
          "transactionIndex": "0x1",
          "logIndex": "0x2",
          "removed": false
        },
        {
          "address": "0x010700808d59d2bb92257fcafacfe8e5bff7ab87",
          "topics": [
            "0xddf252ad1be2c89b69c2b068fc378daa952ba7f163c4a11628f55a4df523b3ef",
            "0x0000000000000000000000000000000000000000000000000000000000000000",
            "0x000000000000000000000000ed31becd06fbfc54e9d4294059e473254265eab2"
          ],
          "data": "0x000000000000000000000000000000000000000000000013683f7f3c15d80000",
          "blockHash": "0x97ed6c46132c914001b327133bf82868edfba2d6df97dce614fb8860377fb499",
          "blockNumber": "0xa78db",
          "transactionHash": "0x9d5e28a5cf4db5f32fcbb717439919bb9823459b072cac91c606abf7316fb13f",
          "transactionIndex": "0x1",
          "logIndex": "0x3",
          "removed": false
        },
        {
          "address": "0x010700808d59d2bb92257fcafacfe8e5bff7ab87",
          "topics": [
            "0xddf252ad1be2c89b69c2b068fc378daa952ba7f163c4a11628f55a4df523b3ef",
            "0x0000000000000000000000000000000000000000000000000000000000000000",
            "0x000000000000000000000000c7da9b99627163d0afc06e5ada323ddfada8fade"
          ],
          "data": "0x0000000000000000000000000000000000000000000000082f8bc3f7bbfc0000",
          "blockHash": "0x97ed6c46132c914001b327133bf82868edfba2d6df97dce614fb8860377fb499",
          "blockNumber": "0xa78db",
          "transactionHash": "0x9d5e28a5cf4db5f32fcbb717439919bb9823459b072cac91c606abf7316fb13f",
          "transactionIndex": "0x1",
          "logIndex": "0x4",
          "removed": false
        },
        {
          "address": "0x010700808d59d2bb92257fcafacfe8e5bff7ab87",
          "topics": [
            "0xddf252ad1be2c89b69c2b068fc378daa952ba7f163c4a11628f55a4df523b3ef",
            "0x0000000000000000000000000000000000000000000000000000000000000000",
            "0x000000000000000000000000934cc16f2c7dfc0816e087d1c1a0647c9ab0694c"
          ],
          "data": "0x000000000000000000000000000000000000000000000004fcc1a89027f00000",
          "blockHash": "0x97ed6c46132c914001b327133bf82868edfba2d6df97dce614fb8860377fb499",
          "blockNumber": "0xa78db",
          "transactionHash": "0x9d5e28a5cf4db5f32fcbb717439919bb9823459b072cac91c606abf7316fb13f",
          "transactionIndex": "0x1",
          "logIndex": "0x5",
          "removed": false
        },
        {
          "address": "0x010700808d59d2bb92257fcafacfe8e5bff7ab87",
          "topics": [
            "0xddf252ad1be2c89b69c2b068fc378daa952ba7f163c4a11628f55a4df523b3ef",
            "0x0000000000000000000000000000000000000000000000000000000000000000",
            "0x000000000000000000000000337b9727e78c18b8d5111f787a9ae5fdc7e54897"
          ],
          "data": "0x000000000000000000000000000000000000000000000003f514193abb840000",
          "blockHash": "0x97ed6c46132c914001b327133bf82868edfba2d6df97dce614fb8860377fb499",
          "blockNumber": "0xa78db",
          "transactionHash": "0x9d5e28a5cf4db5f32fcbb717439919bb9823459b072cac91c606abf7316fb13f",
          "transactionIndex": "0x1",
          "logIndex": "0x6",
          "removed": false
        },
        {
          "address": "0x010700808d59d2bb92257fcafacfe8e5bff7ab87",
          "topics": [
            "0xddf252ad1be2c89b69c2b068fc378daa952ba7f163c4a11628f55a4df523b3ef",
            "0x0000000000000000000000000000000000000000000000000000000000000000",
            "0x000000000000000000000000998c1e902ac23696f6fba069a688487a89ec3843"
          ],
          "data": "0x000000000000000000000000000000000000000000000002629f66e0c5300000",
          "blockHash": "0x97ed6c46132c914001b327133bf82868edfba2d6df97dce614fb8860377fb499",
          "blockNumber": "0xa78db",
          "transactionHash": "0x9d5e28a5cf4db5f32fcbb717439919bb9823459b072cac91c606abf7316fb13f",
          "transactionIndex": "0x1",
          "logIndex": "0x7",
          "removed": false
        },
        {
          "address": "0x010700808d59d2bb92257fcafacfe8e5bff7ab87",
          "topics": [
            "0xddf252ad1be2c89b69c2b068fc378daa952ba7f163c4a11628f55a4df523b3ef",
            "0x0000000000000000000000000000000000000000000000000000000000000000",
            "0x0000000000000000000000002690e0b5830cd4c39083fa0c43eda583d9f4b2d1"
          ],
          "data": "0x000000000000000000000000000000000000000000000001f399b1438a100000",
          "blockHash": "0x97ed6c46132c914001b327133bf82868edfba2d6df97dce614fb8860377fb499",
          "blockNumber": "0xa78db",
          "transactionHash": "0x9d5e28a5cf4db5f32fcbb717439919bb9823459b072cac91c606abf7316fb13f",
          "transactionIndex": "0x1",
          "logIndex": "0x8",
          "removed": false
        },
        {
          "address": "0x010700808d59d2bb92257fcafacfe8e5bff7ab87",
          "topics": [
            "0xddf252ad1be2c89b69c2b068fc378daa952ba7f163c4a11628f55a4df523b3ef",
            "0x0000000000000000000000000000000000000000000000000000000000000000",
            "0x0000000000000000000000004f2204d3c9965f031f9147b0558d01d6b56ce442"
          ],
          "data": "0x00000000000000000000000000000000000000000000000176b344f2a78c0000",
          "blockHash": "0x97ed6c46132c914001b327133bf82868edfba2d6df97dce614fb8860377fb499",
          "blockNumber": "0xa78db",
          "transactionHash": "0x9d5e28a5cf4db5f32fcbb717439919bb9823459b072cac91c606abf7316fb13f",
          "transactionIndex": "0x1",
          "logIndex": "0x9",
          "removed": false
        },
        {
          "address": "0x010700808d59d2bb92257fcafacfe8e5bff7ab87",
          "topics": [
            "0xddf252ad1be2c89b69c2b068fc378daa952ba7f163c4a11628f55a4df523b3ef",
            "0x0000000000000000000000000000000000000000000000000000000000000000",
            "0x00000000000000000000000075e934ebfe57b08c9b0686f5aaad72699c28c1c2"
          ],
          "data": "0x00000000000000000000000000000000000000000000000168d28e3f00280000",
          "blockHash": "0x97ed6c46132c914001b327133bf82868edfba2d6df97dce614fb8860377fb499",
          "blockNumber": "0xa78db",
          "transactionHash": "0x9d5e28a5cf4db5f32fcbb717439919bb9823459b072cac91c606abf7316fb13f",
          "transactionIndex": "0x1",
          "logIndex": "0xa",
          "removed": false
        },
        {
          "address": "0x010700808d59d2bb92257fcafacfe8e5bff7ab87",
          "topics": [
            "0xddf252ad1be2c89b69c2b068fc378daa952ba7f163c4a11628f55a4df523b3ef",
            "0x0000000000000000000000000000000000000000000000000000000000000000",
            "0x0000000000000000000000004e3b22b00eededb66c1f62eedfceae453cea70f3"
          ],
          "data": "0x00000000000000000000000000000000000000000000000168d28e3f00280000",
          "blockHash": "0x97ed6c46132c914001b327133bf82868edfba2d6df97dce614fb8860377fb499",
          "blockNumber": "0xa78db",
          "transactionHash": "0x9d5e28a5cf4db5f32fcbb717439919bb9823459b072cac91c606abf7316fb13f",
          "transactionIndex": "0x1",
          "logIndex": "0xb",
          "removed": false
        },
        {
          "address": "0x010700808d59d2bb92257fcafacfe8e5bff7ab87",
          "topics": [
            "0xddf252ad1be2c89b69c2b068fc378daa952ba7f163c4a11628f55a4df523b3ef",
            "0x0000000000000000000000000000000000000000000000000000000000000000",
            "0x00000000000000000000000074046392a33a6aced83c1b37e69fdb155e567ff9"
          ],
          "data": "0x000000000000000000000000000000000000000000000001314fb37062980000",
          "blockHash": "0x97ed6c46132c914001b327133bf82868edfba2d6df97dce614fb8860377fb499",
          "blockNumber": "0xa78db",
          "transactionHash": "0x9d5e28a5cf4db5f32fcbb717439919bb9823459b072cac91c606abf7316fb13f",
          "transactionIndex": "0x1",
          "logIndex": "0xc",
          "removed": false
        },
        {
          "address": "0x010700808d59d2bb92257fcafacfe8e5bff7ab87",
          "topics": [
            "0xddf252ad1be2c89b69c2b068fc378daa952ba7f163c4a11628f55a4df523b3ef",
            "0x0000000000000000000000000000000000000000000000000000000000000000",
            "0x0000000000000000000000009db44fb2f2d4b645443fada48cea0899ca1b6640"
          ],
          "data": "0x000000000000000000000000000000000000000000000001158e460913d00000",
          "blockHash": "0x97ed6c46132c914001b327133bf82868edfba2d6df97dce614fb8860377fb499",
          "blockNumber": "0xa78db",
          "transactionHash": "0x9d5e28a5cf4db5f32fcbb717439919bb9823459b072cac91c606abf7316fb13f",
          "transactionIndex": "0x1",
          "logIndex": "0xd",
          "removed": false
        },
        {
          "address": "0x010700808d59d2bb92257fcafacfe8e5bff7ab87",
          "topics": [
            "0xddf252ad1be2c89b69c2b068fc378daa952ba7f163c4a11628f55a4df523b3ef",
            "0x0000000000000000000000000000000000000000000000000000000000000000",
            "0x00000000000000000000000004321e7e28769e77b46ddaf97713a364a1893584"
          ],
          "data": "0x00000000000000000000000000000000000000000000000107ad8f556c6c0000",
          "blockHash": "0x97ed6c46132c914001b327133bf82868edfba2d6df97dce614fb8860377fb499",
          "blockNumber": "0xa78db",
          "transactionHash": "0x9d5e28a5cf4db5f32fcbb717439919bb9823459b072cac91c606abf7316fb13f",
          "transactionIndex": "0x1",
          "logIndex": "0xe",
          "removed": false
        },
        {
          "address": "0x010700808d59d2bb92257fcafacfe8e5bff7ab87",
          "topics": [
            "0xddf252ad1be2c89b69c2b068fc378daa952ba7f163c4a11628f55a4df523b3ef",
            "0x0000000000000000000000000000000000000000000000000000000000000000",
            "0x0000000000000000000000006234805771cf57590158b65e7731c6dc7e88d2ff"
          ],
          "data": "0x00000000000000000000000000000000000000000000000107ad8f556c6c0000",
          "blockHash": "0x97ed6c46132c914001b327133bf82868edfba2d6df97dce614fb8860377fb499",
          "blockNumber": "0xa78db",
          "transactionHash": "0x9d5e28a5cf4db5f32fcbb717439919bb9823459b072cac91c606abf7316fb13f",
          "transactionIndex": "0x1",
          "logIndex": "0xf",
          "removed": false
        },
        {
          "address": "0x010700808d59d2bb92257fcafacfe8e5bff7ab87",
          "topics": [
            "0xddf252ad1be2c89b69c2b068fc378daa952ba7f163c4a11628f55a4df523b3ef",
            "0x0000000000000000000000000000000000000000000000000000000000000000",
            "0x0000000000000000000000002a9d61e86f11fa11cafcb084a4102e21bd87cca6"
          ],
          "data": "0x000000000000000000000000000000000000000000000000f9ccd8a1c5080000",
          "blockHash": "0x97ed6c46132c914001b327133bf82868edfba2d6df97dce614fb8860377fb499",
          "blockNumber": "0xa78db",
          "transactionHash": "0x9d5e28a5cf4db5f32fcbb717439919bb9823459b072cac91c606abf7316fb13f",
          "transactionIndex": "0x1",
          "logIndex": "0x10",
          "removed": false
        },
        {
          "address": "0x010700808d59d2bb92257fcafacfe8e5bff7ab87",
          "topics": [
            "0xddf252ad1be2c89b69c2b068fc378daa952ba7f163c4a11628f55a4df523b3ef",
            "0x0000000000000000000000000000000000000000000000000000000000000000",
            "0x000000000000000000000000902402569dfdbd2e7ca3d48a6447d7ed200e6d39"
          ],
          "data": "0x000000000000000000000000000000000000000000000000de0b6b3a76400000",
          "blockHash": "0x97ed6c46132c914001b327133bf82868edfba2d6df97dce614fb8860377fb499",
          "blockNumber": "0xa78db",
          "transactionHash": "0x9d5e28a5cf4db5f32fcbb717439919bb9823459b072cac91c606abf7316fb13f",
          "transactionIndex": "0x1",
          "logIndex": "0x11",
          "removed": false
        },
        {
          "address": "0x010700808d59d2bb92257fcafacfe8e5bff7ab87",
          "topics": [
            "0xddf252ad1be2c89b69c2b068fc378daa952ba7f163c4a11628f55a4df523b3ef",
            "0x0000000000000000000000000000000000000000000000000000000000000000",
            "0x000000000000000000000000aa38e3658d2544c523602aaf76e5c708fc35c183"
          ],
          "data": "0x000000000000000000000000000000000000000000000000c249fdd327780000",
          "blockHash": "0x97ed6c46132c914001b327133bf82868edfba2d6df97dce614fb8860377fb499",
          "blockNumber": "0xa78db",
          "transactionHash": "0x9d5e28a5cf4db5f32fcbb717439919bb9823459b072cac91c606abf7316fb13f",
          "transactionIndex": "0x1",
          "logIndex": "0x12",
          "removed": false
        },
        {
          "address": "0x010700808d59d2bb92257fcafacfe8e5bff7ab87",
          "topics": [
            "0xddf252ad1be2c89b69c2b068fc378daa952ba7f163c4a11628f55a4df523b3ef",
            "0x0000000000000000000000000000000000000000000000000000000000000000",
            "0x000000000000000000000000adb7d5838d4d3bd5f42a6a5d2d60b5be01ffb3b1"
          ],
          "data": "0x000000000000000000000000000000000000000000000000a688906bd8b00000",
          "blockHash": "0x97ed6c46132c914001b327133bf82868edfba2d6df97dce614fb8860377fb499",
          "blockNumber": "0xa78db",
          "transactionHash": "0x9d5e28a5cf4db5f32fcbb717439919bb9823459b072cac91c606abf7316fb13f",
          "transactionIndex": "0x1",
          "logIndex": "0x13",
          "removed": false
        },
        {
          "address": "0x010700808d59d2bb92257fcafacfe8e5bff7ab87",
          "topics": [
            "0xddf252ad1be2c89b69c2b068fc378daa952ba7f163c4a11628f55a4df523b3ef",
            "0x0000000000000000000000000000000000000000000000000000000000000000",
            "0x000000000000000000000000a38fa3dd33ab59ec465af92dfcb0d164ea3be735"
          ],
          "data": "0x00000000000000000000000000000000000000000000000098a7d9b8314c0000",
          "blockHash": "0x97ed6c46132c914001b327133bf82868edfba2d6df97dce614fb8860377fb499",
          "blockNumber": "0xa78db",
          "transactionHash": "0x9d5e28a5cf4db5f32fcbb717439919bb9823459b072cac91c606abf7316fb13f",
          "transactionIndex": "0x1",
          "logIndex": "0x14",
          "removed": false
        },
        {
          "address": "0x010700808d59d2bb92257fcafacfe8e5bff7ab87",
          "topics": [
            "0xddf252ad1be2c89b69c2b068fc378daa952ba7f163c4a11628f55a4df523b3ef",
            "0x0000000000000000000000000000000000000000000000000000000000000000",
            "0x000000000000000000000000a47d862092ea26e1cf7a054a23f06eea45da2aca"
          ],
          "data": "0x0000000000000000000000000000000000000000000000008ac7230489e80000",
          "blockHash": "0x97ed6c46132c914001b327133bf82868edfba2d6df97dce614fb8860377fb499",
          "blockNumber": "0xa78db",
          "transactionHash": "0x9d5e28a5cf4db5f32fcbb717439919bb9823459b072cac91c606abf7316fb13f",
          "transactionIndex": "0x1",
          "logIndex": "0x15",
          "removed": false
        },
        {
          "address": "0x010700808d59d2bb92257fcafacfe8e5bff7ab87",
          "topics": [
            "0xddf252ad1be2c89b69c2b068fc378daa952ba7f163c4a11628f55a4df523b3ef",
            "0x0000000000000000000000000000000000000000000000000000000000000000",
            "0x00000000000000000000000084ef8ea33a39da66839d7532bf11794355277634"
          ],
          "data": "0x0000000000000000000000000000000000000000000000008ac7230489e80000",
          "blockHash": "0x97ed6c46132c914001b327133bf82868edfba2d6df97dce614fb8860377fb499",
          "blockNumber": "0xa78db",
          "transactionHash": "0x9d5e28a5cf4db5f32fcbb717439919bb9823459b072cac91c606abf7316fb13f",
          "transactionIndex": "0x1",
          "logIndex": "0x16",
          "removed": false
        },
        {
          "address": "0x010700808d59d2bb92257fcafacfe8e5bff7ab87",
          "topics": [
            "0xddf252ad1be2c89b69c2b068fc378daa952ba7f163c4a11628f55a4df523b3ef",
            "0x0000000000000000000000000000000000000000000000000000000000000000",
            "0x00000000000000000000000090a549fa595fdf7d1ecc7ee3897f65de91cedc34"
          ],
          "data": "0x0000000000000000000000000000000000000000000000008ac7230489e80000",
          "blockHash": "0x97ed6c46132c914001b327133bf82868edfba2d6df97dce614fb8860377fb499",
          "blockNumber": "0xa78db",
          "transactionHash": "0x9d5e28a5cf4db5f32fcbb717439919bb9823459b072cac91c606abf7316fb13f",
          "transactionIndex": "0x1",
          "logIndex": "0x17",
          "removed": false
        },
        {
          "address": "0x2843c269d2a64ecfa63548e8b3fc0fd23b7f70cb",
          "topics": [
            "0x49628fd1471006c1482da88028e9ce4dbb080b815c9b0344d39e5a8e6ec1419f",
            "0x08851aba7fe40dac59fc7bde104374f73c0ec1496ce143ca01b8626d51b68398",
            "0x0000000000000000000000002e2b1c42e38f5af81771e65d87729e57abd1337a",
            "0x0000000000000000000000000000000000000000000000000000000000000000"
          ],
          "data": "0x0000000000000000000000000000000000000000000000000000000000000f46000000000000000000000000000000000000000000000000000000000000000100000000000000000000000000000000000000000000000000000000000d456c00000000000000000000000000000000000000000000000000000000000d456c",
          "blockHash": "0x97ed6c46132c914001b327133bf82868edfba2d6df97dce614fb8860377fb499",
          "blockNumber": "0xa78db",
          "transactionHash": "0x9d5e28a5cf4db5f32fcbb717439919bb9823459b072cac91c606abf7316fb13f",
          "transactionIndex": "0x1",
          "logIndex": "0x18",
          "removed": false
        }
      ],
      "logsBloom": "0x0000000000040000084110000040040000000040000000000800040000000000020800040000004001000001000200000000002000800000100042080000000000000002000400000000000800208000040000080000000100000001400040080000000002810004004000800000080000204000000011200000011000008000000000081000000000000000200080000002001002040000000000001080080000140000000010000440008004100000800004000080000000100a000000000000000002000000100001000000000000000000140000040100000100004020000000000000011200000000000004800004000000000000000000000000000000",
      "type": "0x2",
      "transactionHash": "0x9d5e28a5cf4db5f32fcbb717439919bb9823459b072cac91c606abf7316fb13f",
      "transactionIndex": "0x1",
      "blockHash": "0x97ed6c46132c914001b327133bf82868edfba2d6df97dce614fb8860377fb499",
      "blockNumber": "0xa78db",
      "gasUsed": "0x105d5d",
      "effectiveGasPrice": "0x5f5e100",
      "from": "0x660ad4b5a74130a4796b4d54bc6750ae93c86e6c",
      "to": "0x2843c269d2a64ecfa63548e8b3fc0fd23b7f70cb",
      "contractAddress": null,
      "gasUsedForL1": "0x7f9ef",
      "l1BlockNumber": "0x14790f6"
    }
  ],
  "libraries": [],
  "pending": [],
  "returns": {},
  "timestamp": 1734983469,
  "chain": 7887,
  "commit": "260ddf5"
}