{
  "transactions": [
    {
      "hash": "0x8c433a5e570b8b32f44820608ded7c996ea30ab605156bb8846dd6e09ef01dfa",
      "transactionType": "CALL",
      "contractName": null,
      "contractAddress": "0x2843c269d2a64ecfa63548e8b3fc0fd23b7f70cb",
      "function": "handleOps((address,uint256,bytes,bytes,uint256,uint256,uint256,uint256,uint256,bytes,bytes)[],address)",
      "arguments": [
        "[(0x2e2B1c42E38f5af81771e65D87729E57ABD1337a, 4635, 0x, 0xb61d27f6000000000000000000000000010700808d59d2bb92257fcafacfe8e5bff7ab870000000000000000000000000000000000000000000000000000000000000000000000000000000000000000000000000000000000000000000000000000006000000000000000000000000000000000000000000000000000000000000000449dc29fac000000000000000000000000d157904639e89df05e89e0dabeec99ae3d74f9aa00000000000000000000000000000000000000000000000002c68af0bb14000000000000000000000000000000000000000000000000000000000000, 4000000, 210000, 21000, 1, 1000000000, 0x0000000000000000000000000000000000000000, 0x50b9628130dc1145fc0ff58a3f97474078276dc599ff4bd20bf01600684c85495e470a6033ff6acae157b4bf8d80f8f00ba001a5667c35e1bb82ca68c1cf0c6e1bce2458f2d55a03b147b72bf07d8355a6dc4aca9f459fcc75bda4ae2941ae62206844196744557903af812c87ca0279dcf40adaeb0cb4d353f01c7951c062f5261c)]",
        "0x660ad4B5A74130a4796B4d54BC6750Ae93C86e6c"
      ],
      "transaction": {
        "from": "0x660ad4b5a74130a4796b4d54bc6750ae93c86e6c",
        "to": "0x2843c269d2a64ecfa63548e8b3fc0fd23b7f70cb",
        "value": "0x0",
        "input": "0x1fad948c0000000000000000000000000000000000000000000000000000000000000040000000000000000000000000660ad4b5a74130a4796b4d54bc6750ae93c86e6c000000000000000000000000000000000000000000000000000000000000000100000000000000000000000000000000000000000000000000000000000000200000000000000000000000002e2b1c42e38f5af81771e65d87729e57abd1337a000000000000000000000000000000000000000000000000000000000000121b0000000000000000000000000000000000000000000000000000000000000160000000000000000000000000000000000000000000000000000000000000018000000000000000000000000000000000000000000000000000000000003d0900000000000000000000000000000000000000000000000000000000000003345000000000000000000000000000000000000000000000000000000000000052080000000000000000000000000000000000000000000000000000000000000001000000000000000000000000000000000000000000000000000000003b9aca0000000000000000000000000000000000000000000000000000000000000002a000000000000000000000000000000000000000000000000000000000000002e0000000000000000000000000000000000000000000000000000000000000000000000000000000000000000000000000000000000000000000000000000000e4b61d27f6000000000000000000000000010700808d59d2bb92257fcafacfe8e5bff7ab870000000000000000000000000000000000000000000000000000000000000000000000000000000000000000000000000000000000000000000000000000006000000000000000000000000000000000000000000000000000000000000000449dc29fac000000000000000000000000d157904639e89df05e89e0dabeec99ae3d74f9aa00000000000000000000000000000000000000000000000002c68af0bb140000000000000000000000000000000000000000000000000000000000000000000000000000000000000000000000000000000000000000000000000000000000000000000000000000000000000000000000000000000000140000000000000000000000000000000000000000000000000000000000000000000000000000000000000000000000000000000000000000000000000000008250b9628130dc1145fc0ff58a3f97474078276dc599ff4bd20bf01600684c85495e470a6033ff6acae157b4bf8d80f8f00ba001a5667c35e1bb82ca68c1cf0c6e1bce2458f2d55a03b147b72bf07d8355a6dc4aca9f459fcc75bda4ae2941ae62206844196744557903af812c87ca0279dcf40adaeb0cb4d353f01c7951c062f5261c000000000000000000000000000000000000000000000000000000000000",
        "nonce": "0x4bd82",
        "chainId": "0x1ecf"
      },
      "additionalContracts": [],
      "isFixedGasLimit": false
    },
    {
      "hash": "0xd8a04ce2eafe8a6b06f42d78271432ec837cc334c7d986708844971141973a3b",
      "transactionType": "CALL",
      "contractName": null,
      "contractAddress": "0x2843c269d2a64ecfa63548e8b3fc0fd23b7f70cb",
      "function": "handleOps((address,uint256,bytes,bytes,uint256,uint256,uint256,uint256,uint256,bytes,bytes)[],address)",
      "arguments": [
        "[(0x2e2B1c42E38f5af81771e65D87729E57ABD1337a, 4636, 0x, 0xb61d27f6000000000000000000000000010700808d59d2bb92257fcafacfe8e5bff7ab8700000000000000000000000000000000000000000000000000000000000000000000000000000000000000000000000000000000000000000000000000000060000000000000000000000000000000000000000000000000000000000000010468573107000000000000000000000000000000000000000000000000000000000000004000000000000000000000000000000000000000000000000000000000000000a0000000000000000000000000000000000000000000000000000000000000000200000000000000000000000055123c0a8cc7b61540f21a51b7beca2d71a23f14000000000000000000000000505af8517199781bf0421db0c086aeba332e2cfa0000000000000000000000000000000000000000000000000000000000000002000000000000000000000000000000000000000000000000016345785d8a0000000000000000000000000000000000000000000000000000016345785d8a000000000000000000000000000000000000000000000000000000000000, 4000000, 210000, 21000, 1, 1000000000, 0x0000000000000000000000000000000000000000, 0xface749ba617f2fd2ede6abc05108eb2349ca5bb6631a9f16229dc2722f7d7566fea49901a023527016c04d7abc400ad50e372bebcb57ab3f2ba657e9be203501b15265b11bef5692a917a3412f1f12b4c169c81bf4021b8564a4c4afd5e95ac3d7de9fc4c8ece60aaf64b17974fa5421c82cd13a0c0e81dc0d458c4a9d594dd3f1b)]",
        "0x660ad4B5A74130a4796B4d54BC6750Ae93C86e6c"
      ],
      "transaction": {
        "from": "0x660ad4b5a74130a4796b4d54bc6750ae93c86e6c",
        "to": "0x2843c269d2a64ecfa63548e8b3fc0fd23b7f70cb",
        "value": "0x0",
        "input": "0x1fad948c0000000000000000000000000000000000000000000000000000000000000040000000000000000000000000660ad4b5a74130a4796b4d54bc6750ae93c86e6c000000000000000000000000000000000000000000000000000000000000000100000000000000000000000000000000000000000000000000000000000000200000000000000000000000002e2b1c42e38f5af81771e65d87729e57abd1337a000000000000000000000000000000000000000000000000000000000000121c0000000000000000000000000000000000000000000000000000000000000160000000000000000000000000000000000000000000000000000000000000018000000000000000000000000000000000000000000000000000000000003d0900000000000000000000000000000000000000000000000000000000000003345000000000000000000000000000000000000000000000000000000000000052080000000000000000000000000000000000000000000000000000000000000001000000000000000000000000000000000000000000000000000000003b9aca00000000000000000000000000000000000000000000000000000000000000036000000000000000000000000000000000000000000000000000000000000003a0000000000000000000000000000000000000000000000000000000000000000000000000000000000000000000000000000000000000000000000000000001a4b61d27f6000000000000000000000000010700808d59d2bb92257fcafacfe8e5bff7ab8700000000000000000000000000000000000000000000000000000000000000000000000000000000000000000000000000000000000000000000000000000060000000000000000000000000000000000000000000000000000000000000010468573107000000000000000000000000000000000000000000000000000000000000004000000000000000000000000000000000000000000000000000000000000000a0000000000000000000000000000000000000000000000000000000000000000200000000000000000000000055123c0a8cc7b61540f21a51b7beca2d71a23f14000000000000000000000000505af8517199781bf0421db0c086aeba332e2cfa0000000000000000000000000000000000000000000000000000000000000002000000000000000000000000000000000000000000000000016345785d8a0000000000000000000000000000000000000000000000000000016345785d8a00000000000000000000000000000000000000000000000000000000000000000000000000000000000000000000000000000000000000000000000000000000000000000000000000000000000000000000000000000000001400000000000000000000000000000000000000000000000000000000000000000000000000000000000000000000000000000000000000000000000000000082face749ba617f2fd2ede6abc05108eb2349ca5bb6631a9f16229dc2722f7d7566fea49901a023527016c04d7abc400ad50e372bebcb57ab3f2ba657e9be203501b15265b11bef5692a917a3412f1f12b4c169c81bf4021b8564a4c4afd5e95ac3d7de9fc4c8ece60aaf64b17974fa5421c82cd13a0c0e81dc0d458c4a9d594dd3f1b000000000000000000000000000000000000000000000000000000000000",
        "nonce": "0x4bd83",
        "chainId": "0x1ecf"
      },
      "additionalContracts": [],
      "isFixedGasLimit": false
    }
  ],
  "receipts": [
    {
      "status": "0x1",
      "cumulativeGasUsed": "0x3af83",
      "logs": [
        {
          "address": "0x2843c269d2a64ecfa63548e8b3fc0fd23b7f70cb",
          "topics": [
            "0xbb47ee3e183a558b1a2ff0874b079f3fc5478b7454eacf2bfc5af2ff5878f972"
          ],
          "data": "0x",
          "blockHash": "0xa1cbda4cd8070e4f1fac9c2fbfb366660ae1a09accca4d369090051be6e7fab1",
          "blockNumber": "0xbc8ca",
          "transactionHash": "0x8c433a5e570b8b32f44820608ded7c996ea30ab605156bb8846dd6e09ef01dfa",
          "transactionIndex": "0x1",
          "logIndex": "0x0",
          "removed": false
        },
        {
          "address": "0x010700808d59d2bb92257fcafacfe8e5bff7ab87",
          "topics": [
            "0xddf252ad1be2c89b69c2b068fc378daa952ba7f163c4a11628f55a4df523b3ef",
            "0x000000000000000000000000d157904639e89df05e89e0dabeec99ae3d74f9aa",
            "0x0000000000000000000000000000000000000000000000000000000000000000"
          ],
          "data": "0x00000000000000000000000000000000000000000000000002c68af0bb140000",
          "blockHash": "0xa1cbda4cd8070e4f1fac9c2fbfb366660ae1a09accca4d369090051be6e7fab1",
          "blockNumber": "0xbc8ca",
          "transactionHash": "0x8c433a5e570b8b32f44820608ded7c996ea30ab605156bb8846dd6e09ef01dfa",
          "transactionIndex": "0x1",
          "logIndex": "0x1",
          "removed": false
        },
        {
          "address": "0x2843c269d2a64ecfa63548e8b3fc0fd23b7f70cb",
          "topics": [
            "0x49628fd1471006c1482da88028e9ce4dbb080b815c9b0344d39e5a8e6ec1419f",
            "0x5fa2910bb57db4c7dcc1932766039b533f0ae41a313f98b90a8994e8a6a360a6",
            "0x0000000000000000000000002e2b1c42e38f5af81771e65d87729e57abd1337a",
            "0x0000000000000000000000000000000000000000000000000000000000000000"
          ],
          "data": "0x000000000000000000000000000000000000000000000000000000000000121b0000000000000000000000000000000000000000000000000000000000000001000000000000000000000000000000000000000000000000000000000008eb87000000000000000000000000000000000000000000000000000000000008eb87",
          "blockHash": "0xa1cbda4cd8070e4f1fac9c2fbfb366660ae1a09accca4d369090051be6e7fab1",
          "blockNumber": "0xbc8ca",
          "transactionHash": "0x8c433a5e570b8b32f44820608ded7c996ea30ab605156bb8846dd6e09ef01dfa",
          "transactionIndex": "0x1",
          "logIndex": "0x2",
          "removed": false
        }
      ],
      "logsBloom": "0x00002000000400000000008000000000000000000000000000000000000001000008000000000000000000010000000000000000000000000000020000000000000000000000000000000008000000000000000000000000000100000000000800000000020000001000000000000800002000000000000000000010000000000000000000000000000000000000800000000000000000000000000000000000001400000000000000400000000000000000000000000000000002000000000000000002000000100001000000000000000000000000000000000000000020000000000000010000000000000000800000000000000000000000000000000800",
      "type": "0x2",
      "transactionHash": "0x8c433a5e570b8b32f44820608ded7c996ea30ab605156bb8846dd6e09ef01dfa",
      "transactionIndex": "0x1",
      "blockHash": "0xa1cbda4cd8070e4f1fac9c2fbfb366660ae1a09accca4d369090051be6e7fab1",
      "blockNumber": "0xbc8ca",
      "gasUsed": "0x3af83",
      "effectiveGasPrice": "0x5f5e100",
      "from": "0x660ad4b5a74130a4796b4d54bc6750ae93c86e6c",
      "to": "0x2843c269d2a64ecfa63548e8b3fc0fd23b7f70cb",
      "contractAddress": null,
      "gasUsedForL1": "0x57af",
      "l1BlockNumber": "0x1510fe3"
    },
    {
      "status": "0x1",
      "cumulativeGasUsed": "0x39566",
      "logs": [
        {
          "address": "0x2843c269d2a64ecfa63548e8b3fc0fd23b7f70cb",
          "topics": [
            "0xbb47ee3e183a558b1a2ff0874b079f3fc5478b7454eacf2bfc5af2ff5878f972"
          ],
          "data": "0x",
          "blockHash": "0x9167bf077f006c57bded7e9d602acaac7b171e239a0fc8cffa072aaa64b4f3a6",
          "blockNumber": "0xbc8cb",
          "transactionHash": "0xd8a04ce2eafe8a6b06f42d78271432ec837cc334c7d986708844971141973a3b",
          "transactionIndex": "0x1",
          "logIndex": "0x0",
          "removed": false
        },
        {
          "address": "0x010700808d59d2bb92257fcafacfe8e5bff7ab87",
          "topics": [
            "0xddf252ad1be2c89b69c2b068fc378daa952ba7f163c4a11628f55a4df523b3ef",
            "0x0000000000000000000000000000000000000000000000000000000000000000",
            "0x00000000000000000000000055123c0a8cc7b61540f21a51b7beca2d71a23f14"
          ],
          "data": "0x000000000000000000000000000000000000000000000000016345785d8a0000",
          "blockHash": "0x9167bf077f006c57bded7e9d602acaac7b171e239a0fc8cffa072aaa64b4f3a6",
          "blockNumber": "0xbc8cb",
          "transactionHash": "0xd8a04ce2eafe8a6b06f42d78271432ec837cc334c7d986708844971141973a3b",
          "transactionIndex": "0x1",
          "logIndex": "0x1",
          "removed": false
        },
        {
          "address": "0x010700808d59d2bb92257fcafacfe8e5bff7ab87",
          "topics": [
            "0xddf252ad1be2c89b69c2b068fc378daa952ba7f163c4a11628f55a4df523b3ef",
            "0x0000000000000000000000000000000000000000000000000000000000000000",
            "0x000000000000000000000000505af8517199781bf0421db0c086aeba332e2cfa"
          ],
          "data": "0x000000000000000000000000000000000000000000000000016345785d8a0000",
          "blockHash": "0x9167bf077f006c57bded7e9d602acaac7b171e239a0fc8cffa072aaa64b4f3a6",
          "blockNumber": "0xbc8cb",
          "transactionHash": "0xd8a04ce2eafe8a6b06f42d78271432ec837cc334c7d986708844971141973a3b",
          "transactionIndex": "0x1",
          "logIndex": "0x2",
          "removed": false
        },
        {
          "address": "0x2843c269d2a64ecfa63548e8b3fc0fd23b7f70cb",
          "topics": [
            "0x49628fd1471006c1482da88028e9ce4dbb080b815c9b0344d39e5a8e6ec1419f",
            "0x18b0a77c592a90aab4851edefb2e08ea8cf489747e8515c068181bbeb4adceb3",
            "0x0000000000000000000000002e2b1c42e38f5af81771e65d87729e57abd1337a",
            "0x0000000000000000000000000000000000000000000000000000000000000000"
          ],
          "data": "0x000000000000000000000000000000000000000000000000000000000000121c0000000000000000000000000000000000000000000000000000000000000001000000000000000000000000000000000000000000000000000000000008ca08000000000000000000000000000000000000000000000000000000000008ca08",
          "blockHash": "0x9167bf077f006c57bded7e9d602acaac7b171e239a0fc8cffa072aaa64b4f3a6",
          "blockNumber": "0xbc8cb",
          "transactionHash": "0xd8a04ce2eafe8a6b06f42d78271432ec837cc334c7d986708844971141973a3b",
          "transactionIndex": "0x1",
          "logIndex": "0x3",
          "removed": false
        }
      ],
      "logsBloom": "0x00000000000400000000000000000000000000000000000000000000000000000008000000000000000000010000000000000000000000000000020000000000000000000000000008000008000000000020000000080000000000000000000800000000020000000000000000000800002000000000000000000010000000000000000000000800000000000000800000000000000000000000000020000000001400000000010000400000000000000000000000000000000002000000000000000002000000100001000000000000000000000000000040000000000020000000000000010000000000000002800000000000000000000000000000000000",
      "type": "0x2",
      "transactionHash": "0xd8a04ce2eafe8a6b06f42d78271432ec837cc334c7d986708844971141973a3b",
      "transactionIndex": "0x1",
      "blockHash": "0x9167bf077f006c57bded7e9d602acaac7b171e239a0fc8cffa072aaa64b4f3a6",
      "blockNumber": "0xbc8cb",
      "gasUsed": "0x39566",
      "effectiveGasPrice": "0x5f5e100",
      "from": "0x660ad4b5a74130a4796b4d54bc6750ae93c86e6c",
      "to": "0x2843c269d2a64ecfa63548e8b3fc0fd23b7f70cb",
      "contractAddress": null,
      "gasUsedForL1": "0x5e25",
      "l1BlockNumber": "0x1510fe3"
    }
  ],
  "libraries": [],
  "pending": [],
  "returns": {},
  "timestamp": 1742493257,
  "chain": 7887,
  "commit": "17db803c"
}