{
  "transactions": [
    {
      "hash": "0x7c06e785f6126334972d05526846f2cc10839faab6aa410d1bd91544f0552377",
      "transactionType": "CALL",
      "contractName": null,
      "contractAddress": "0x2843c269d2a64ecfa63548e8b3fc0fd23b7f70cb",
      "function": "handleOps((address,uint256,bytes,bytes,uint256,uint256,uint256,uint256,uint256,bytes,bytes)[],address)",
      "arguments": [
        "[(0x2e2B1c42E38f5af81771e65D87729E57ABD1337a, 3577, 0x, 0xb61d27f60000000000000000000000005a2b641b84b0230c8e75f55d5afd27f4dbd59d5b000000000000000000000000000000000000000000000000000000000000000000000000000000000000000000000000000000000000000000000000000000600000000000000000000000000000000000000000000000000000000000000424c1d3c7b300000000000000000000000000000000000000000000000000000000000001000000000000000000000000003e9727470c66b1e77034590926cde0242b5a3dcc0000000000000000000000000000000000000000000000000000000000000140000000000000000000000000000000000000000000000000000000000000003c000000000000000000000000000000000000000000000000000000000000000a0000000000000000000000000000000000000000000000000000000000278d00000000000000000000000000000000000000000000000000002386f26fc1000000000000000000000000000000000000000000000000000000000000000004000000000000000000000000000000000000000000000000000000000000000006536f636b657400000000000000000000000000000000000000000000000000000000000000000000000000000000000000000000000000000000000000000015000000000000000000000000abc64e84c653e0f077c0178e4b1fac01bfcc20b0000000000000000000000000db09c7c2c4071e3ca1bad0c357906efa17c251020000000000000000000000007d4e3628c3dece7ba053c296eea3729318f93715000000000000000000000000fe6e2862ef74adf306aacd575eaf5f45281b1017000000000000000000000000342f5ba3230f6d1e32aa775440bdcb93647dd4cd0000000000000000000000004c9c64b2fae0e13df9a635ad699c5efc386d1cee000000000000000000000000345b2061ea8256689349fca968cf7af0ff6011aa0000000000000000000000008d23e5ba32ca80809d60ed70ddbd96e6b3d6101500000000000000000000000028a6468de32690f63d8095e8980b43ab48f9470c000000000000000000000000ce2fc6c6bfcf04f2f857338ecf6004381f414926000000000000000000000000e3f4c9cca8ea855497d63800befb43f290ac78c6000000000000000000000000c7fca8ab6d1e1142790454e7e5655d93c3b03ed600000000000000000000000024f287b474a05e48627846148ccda3d05de03953000000000000000000000000a2a13094bab725d6d9dd8b9b5c01f1a1bf67f98600000000000000000000000090128652cf49a44f0374d0ee7d3782df59e72a8c000000000000000000000000d17b43d94f0bf2960d285e89de5b9a8369e3ed5b000000000000000000000000f5d3d976872e01b7b7af7964ca9cf4d9925847260000000000000000000000007da5691fb59740cf02cc7dc16743be9dcbf685b5000000000000000000000000e5b6205cfc03786fc554c40767a591b8dcbc1e76000000000000000000000000a968c2771d5e984979589ef8f6fa59d5818a208f000000000000000000000000ae7f260b74f289ab3701fb01cbf81bcd76454222000000000000000000000000000000000000000000000000000000000000000000000000000000000000000000000000000000000000000000000000, 4000000, 210000, 21000, 1, 1000000000, 0x0000000000000000000000000000000000000000, 0xc5ee4c030fb24daa2255e2eefab719f45a68b75f5482d8624e190694d1f71e3b022ac559e175c2303f999596e1d6f26eb2b5b69972179d1b90533ef4483b03681caed45898bfd2cc8bb52dc66c755292890387ae932f7224e800c9306e9dbe1ca71818f44a178938cf78faa03ead547f22fb3aec76ab5cd4c61b08b9b6f1d0891b1b)]",
        "0x660ad4B5A74130a4796B4d54BC6750Ae93C86e6c"
      ],
      "transaction": {
        "from": "0x660ad4b5a74130a4796b4d54bc6750ae93c86e6c",
        "to": "0x2843c269d2a64ecfa63548e8b3fc0fd23b7f70cb",
        "value": "0x0",
        "input": "0x1fad948c0000000000000000000000000000000000000000000000000000000000000040000000000000000000000000660ad4b5a74130a4796b4d54bc6750ae93c86e6c000000000000000000000000000000000000000000000000000000000000000100000000000000000000000000000000000000000000000000000000000000200000000000000000000000002e2b1c42e38f5af81771e65d87729e57abd1337a0000000000000000000000000000000000000000000000000000000000000df90000000000000000000000000000000000000000000000000000000000000160000000000000000000000000000000000000000000000000000000000000018000000000000000000000000000000000000000000000000000000000003d0900000000000000000000000000000000000000000000000000000000000003345000000000000000000000000000000000000000000000000000000000000052080000000000000000000000000000000000000000000000000000000000000001000000000000000000000000000000000000000000000000000000003b9aca00000000000000000000000000000000000000000000000000000000000000068000000000000000000000000000000000000000000000000000000000000006c0000000000000000000000000000000000000000000000000000000000000000000000000000000000000000000000000000000000000000000000000000004c4b61d27f60000000000000000000000005a2b641b84b0230c8e75f55d5afd27f4dbd59d5b000000000000000000000000000000000000000000000000000000000000000000000000000000000000000000000000000000000000000000000000000000600000000000000000000000000000000000000000000000000000000000000424c1d3c7b300000000000000000000000000000000000000000000000000000000000001000000000000000000000000003e9727470c66b1e77034590926cde0242b5a3dcc0000000000000000000000000000000000000000000000000000000000000140000000000000000000000000000000000000000000000000000000000000003c000000000000000000000000000000000000000000000000000000000000000a0000000000000000000000000000000000000000000000000000000000278d00000000000000000000000000000000000000000000000000002386f26fc1000000000000000000000000000000000000000000000000000000000000000004000000000000000000000000000000000000000000000000000000000000000006536f636b657400000000000000000000000000000000000000000000000000000000000000000000000000000000000000000000000000000000000000000015000000000000000000000000abc64e84c653e0f077c0178e4b1fac01bfcc20b0000000000000000000000000db09c7c2c4071e3ca1bad0c357906efa17c251020000000000000000000000007d4e3628c3dece7ba053c296eea3729318f93715000000000000000000000000fe6e2862ef74adf306aacd575eaf5f45281b1017000000000000000000000000342f5ba3230f6d1e32aa775440bdcb93647dd4cd0000000000000000000000004c9c64b2fae0e13df9a635ad699c5efc386d1cee000000000000000000000000345b2061ea8256689349fca968cf7af0ff6011aa0000000000000000000000008d23e5ba32ca80809d60ed70ddbd96e6b3d6101500000000000000000000000028a6468de32690f63d8095e8980b43ab48f9470c000000000000000000000000ce2fc6c6bfcf04f2f857338ecf6004381f414926000000000000000000000000e3f4c9cca8ea855497d63800befb43f290ac78c6000000000000000000000000c7fca8ab6d1e1142790454e7e5655d93c3b03ed600000000000000000000000024f287b474a05e48627846148ccda3d05de03953000000000000000000000000a2a13094bab725d6d9dd8b9b5c01f1a1bf67f98600000000000000000000000090128652cf49a44f0374d0ee7d3782df59e72a8c000000000000000000000000d17b43d94f0bf2960d285e89de5b9a8369e3ed5b000000000000000000000000f5d3d976872e01b7b7af7964ca9cf4d9925847260000000000000000000000007da5691fb59740cf02cc7dc16743be9dcbf685b5000000000000000000000000e5b6205cfc03786fc554c40767a591b8dcbc1e76000000000000000000000000a968c2771d5e984979589ef8f6fa59d5818a208f000000000000000000000000ae7f260b74f289ab3701fb01cbf81bcd7645422200000000000000000000000000000000000000000000000000000000000000000000000000000000000000000000000000000000000000000000000000000000000000000000000000000000000000000000000000000000000000000000000000000000000000000000000000000000000000000000001400000000000000000000000000000000000000000000000000000000000000000000000000000000000000000000000000000000000000000000000000000082c5ee4c030fb24daa2255e2eefab719f45a68b75f5482d8624e190694d1f71e3b022ac559e175c2303f999596e1d6f26eb2b5b69972179d1b90533ef4483b03681caed45898bfd2cc8bb52dc66c755292890387ae932f7224e800c9306e9dbe1ca71818f44a178938cf78faa03ead547f22fb3aec76ab5cd4c61b08b9b6f1d0891b1b000000000000000000000000000000000000000000000000000000000000",
        "nonce": "0x5f2e",
        "chainId": "0x1ecf"
      },
      "additionalContracts": [],
      "isFixedGasLimit": false
    }
  ],
  "receipts": [
    {
      "status": "0x1",
      "cumulativeGasUsed": "0xcb04e",
      "logs": [
        {
          "address": "0x2843c269d2a64ecfa63548e8b3fc0fd23b7f70cb",
          "topics": [
            "0xbb47ee3e183a558b1a2ff0874b079f3fc5478b7454eacf2bfc5af2ff5878f972"
          ],
          "data": "0x",
          "blockHash": "0xfda38dd3188f9380b8da919835fcf73672fba8b0d2b808b50ffc76113988d23f",
          "blockNumber": "0x3cc13",
          "transactionHash": "0x7c06e785f6126334972d05526846f2cc10839faab6aa410d1bd91544f0552377",
          "transactionIndex": "0x1",
          "logIndex": "0x0",
          "removed": false
        },
        {
          "address": "0x5a2b641b84b0230c8e75f55d5afd27f4dbd59d5b",
          "topics": [
            "0x1c64f068a47e25f729fe0a695d5999e7c9669e2f9397d4a40fb04b3e89ad393f",
            "0x0000000000000000000000003e9727470c66b1e77034590926cde0242b5a3dcc"
          ],
          "data": "0x0000000000000000000000002e2b1c42e38f5af81771e65d87729e57abd1337a0000000000000000000000000000000000000000000000000000000067293aa7",
          "blockHash": "0xfda38dd3188f9380b8da919835fcf73672fba8b0d2b808b50ffc76113988d23f",
          "blockNumber": "0x3cc13",
          "transactionHash": "0x7c06e785f6126334972d05526846f2cc10839faab6aa410d1bd91544f0552377",
          "transactionIndex": "0x1",
          "logIndex": "0x1",
          "removed": false
        },
        {
          "address": "0x2843c269d2a64ecfa63548e8b3fc0fd23b7f70cb",
          "topics": [
            "0x49628fd1471006c1482da88028e9ce4dbb080b815c9b0344d39e5a8e6ec1419f",
            "0xbaf33ad53e80f0e3165fe04d24e6244ad375070171da95213cd3e65edb819578",
            "0x0000000000000000000000002e2b1c42e38f5af81771e65d87729e57abd1337a",
            "0x0000000000000000000000000000000000000000000000000000000000000000"
          ],
          "data": "0x0000000000000000000000000000000000000000000000000000000000000df9000000000000000000000000000000000000000000000000000000000000000100000000000000000000000000000000000000000000000000000000000deecb00000000000000000000000000000000000000000000000000000000000deecb",
          "blockHash": "0xfda38dd3188f9380b8da919835fcf73672fba8b0d2b808b50ffc76113988d23f",
          "blockNumber": "0x3cc13",
          "transactionHash": "0x7c06e785f6126334972d05526846f2cc10839faab6aa410d1bd91544f0552377",
          "transactionIndex": "0x1",
          "logIndex": "0x2",
          "removed": false
        }
      ],
      "logsBloom": "0x00000000000000000000000000000000000000000000000000000000000000000008000000000000000000010000000000400000000000000000020000000000000000000000000000000000000000000000000001000008000000000008000800000000020000000000000000000800002000800000000000000000000000000000000000000000000000000000800000000000000000800000080000000000000400000000000000400000000000000000008000000000000002000000000000000000000000100001000000000000000000010000000000000000000020000000000000010000000000000000000000000000000000000000000080000000",
      "type": "0x2",
      "transactionHash": "0x7c06e785f6126334972d05526846f2cc10839faab6aa410d1bd91544f0552377",
      "transactionIndex": "0x1",
      "blockHash": "0xfda38dd3188f9380b8da919835fcf73672fba8b0d2b808b50ffc76113988d23f",
      "blockNumber": "0x3cc13",
      "gasUsed": "0xcb04e",
      "effectiveGasPrice": "0x5f5e100",
      "from": "0x660ad4b5a74130a4796b4d54bc6750ae93c86e6c",
      "to": "0x2843c269d2a64ecfa63548e8b3fc0fd23b7f70cb",
      "contractAddress": null,
      "gasUsedForL1": "0x47b98",
      "l1BlockNumber": "0x1423805"
    }
  ],
  "libraries": [],
  "pending": [],
  "returns": {},
  "timestamp": 1730755239,
  "chain": 7887,
  "commit": "142576b"
}