{
  "transactions": [
    {
      "hash": "0xa4f375d0368b87d8cafef1a75e27ee5a06ac4e7f9a0b55a54a9e0627651295fc",
      "transactionType": "CALL",
      "contractName": null,
      "contractAddress": "0x2843c269d2a64ecfa63548e8b3fc0fd23b7f70cb",
      "function": "handleOps((address,uint256,bytes,bytes,uint256,uint256,uint256,uint256,uint256,bytes,bytes)[],address)",
      "arguments": [
        "[(0x2e2B1c42E38f5af81771e65D87729E57ABD1337a, 3743, 0x, 0xb61d27f60000000000000000000000005a2b641b84b0230c8e75f55d5afd27f4dbd59d5b000000000000000000000000000000000000000000000000000000000000000000000000000000000000000000000000000000000000000000000000000000600000000000000000000000000000000000000000000000000000000000000144db9e99080000000000000000000000003e9727470c66b1e77034590926cde0242b5a3dcc000000000000000000000000000000000000000000000000000000000000004000000000000000000000000000000000000000000000000000000000000000070000000000000000000000006332e56a423480a211e301cb85be12814e9238bb0000000000000000000000002b98775abe9cdeb041e3c2e56c76ce2560af57fb00000000000000000000000012ff8947a2524303c13ca7da9be4914381f6557a00000000000000000000000072846179ef1467b2b71f2bb7525fcd4450e46b2a000000000000000000000000897da4d039f64090bfdb33cd2ed2da81add6fb02000000000000000000000000a7527c270f30cf3dafa6e82603b4978e1a8493590000000000000000000000006dbb5ee7c63775013faf810527dbede2810d7aee00000000000000000000000000000000000000000000000000000000, 4000000, 210000, 21000, 1, 1000000000, 0x0000000000000000000000000000000000000000, 0xfc4ce1218c6d1ce0f14266566ca7e3608ac728e92d2e8b9ae5c5bfef7eceb13006ad3d5963164a09e80227a7ba8b027c1f73a658e25d5623b63539dbde697e0b1b2bfa04443a9f70de4deda214dd5efa493b2b6605a3f5901028627c30306e35b52ef619bae887256b47822c14e2f773ad85ea7bc4a27e37698b1e5678a6fbe5bf1c)]",
        "0x660ad4B5A74130a4796B4d54BC6750Ae93C86e6c"
      ],
      "transaction": {
        "from": "0x660ad4b5a74130a4796b4d54bc6750ae93c86e6c",
        "to": "0x2843c269d2a64ecfa63548e8b3fc0fd23b7f70cb",
        "value": "0x0",
        "input": "0x1fad948c0000000000000000000000000000000000000000000000000000000000000040000000000000000000000000660ad4b5a74130a4796b4d54bc6750ae93c86e6c000000000000000000000000000000000000000000000000000000000000000100000000000000000000000000000000000000000000000000000000000000200000000000000000000000002e2b1c42e38f5af81771e65d87729e57abd1337a0000000000000000000000000000000000000000000000000000000000000e9f0000000000000000000000000000000000000000000000000000000000000160000000000000000000000000000000000000000000000000000000000000018000000000000000000000000000000000000000000000000000000000003d0900000000000000000000000000000000000000000000000000000000000003345000000000000000000000000000000000000000000000000000000000000052080000000000000000000000000000000000000000000000000000000000000001000000000000000000000000000000000000000000000000000000003b9aca0000000000000000000000000000000000000000000000000000000000000003a000000000000000000000000000000000000000000000000000000000000003e0000000000000000000000000000000000000000000000000000000000000000000000000000000000000000000000000000000000000000000000000000001e4b61d27f60000000000000000000000005a2b641b84b0230c8e75f55d5afd27f4dbd59d5b000000000000000000000000000000000000000000000000000000000000000000000000000000000000000000000000000000000000000000000000000000600000000000000000000000000000000000000000000000000000000000000144db9e99080000000000000000000000003e9727470c66b1e77034590926cde0242b5a3dcc000000000000000000000000000000000000000000000000000000000000004000000000000000000000000000000000000000000000000000000000000000070000000000000000000000006332e56a423480a211e301cb85be12814e9238bb0000000000000000000000002b98775abe9cdeb041e3c2e56c76ce2560af57fb00000000000000000000000012ff8947a2524303c13ca7da9be4914381f6557a00000000000000000000000072846179ef1467b2b71f2bb7525fcd4450e46b2a000000000000000000000000897da4d039f64090bfdb33cd2ed2da81add6fb02000000000000000000000000a7527c270f30cf3dafa6e82603b4978e1a8493590000000000000000000000006dbb5ee7c63775013faf810527dbede2810d7aee0000000000000000000000000000000000000000000000000000000000000000000000000000000000000000000000000000000000000000000000000000000000000000000000000000000000000000000000000000001400000000000000000000000000000000000000000000000000000000000000000000000000000000000000000000000000000000000000000000000000000082fc4ce1218c6d1ce0f14266566ca7e3608ac728e92d2e8b9ae5c5bfef7eceb13006ad3d5963164a09e80227a7ba8b027c1f73a658e25d5623b63539dbde697e0b1b2bfa04443a9f70de4deda214dd5efa493b2b6605a3f5901028627c30306e35b52ef619bae887256b47822c14e2f773ad85ea7bc4a27e37698b1e5678a6fbe5bf1c000000000000000000000000000000000000000000000000000000000000",
        "nonce": "0x6053",
        "chainId": "0x1ecf"
      },
      "additionalContracts": [],
      "isFixedGasLimit": false
    }
  ],
  "receipts": [
    {
      "status": "0x1",
      "cumulativeGasUsed": "0x116e50",
      "logs": [
        {
          "address": "0x2843c269d2a64ecfa63548e8b3fc0fd23b7f70cb",
          "topics": [
            "0xbb47ee3e183a558b1a2ff0874b079f3fc5478b7454eacf2bfc5af2ff5878f972"
          ],
          "data": "0x",
          "blockHash": "0xab8f964a4bd5084bcce28d12f020fc7a184145242a8dedbcc3dff055350c2b88",
          "blockNumber": "0x3d58f",
          "transactionHash": "0xa4f375d0368b87d8cafef1a75e27ee5a06ac4e7f9a0b55a54a9e0627651295fc",
          "transactionIndex": "0x1",
          "logIndex": "0x0",
          "removed": false
        },
        {
          "address": "0x5a2b641b84b0230c8e75f55d5afd27f4dbd59d5b",
          "topics": [
            "0x5ed922fe11a834df4ad0556e8f265179bbe61f057f4808eab4c3b6542b621260",
            "0x0000000000000000000000003e9727470c66b1e77034590926cde0242b5a3dcc"
          ],
          "data": "0x000000000000000000000000000000000000000000000000000000000000002000000000000000000000000000000000000000000000000000000000000000070000000000000000000000006332e56a423480a211e301cb85be12814e9238bb0000000000000000000000002b98775abe9cdeb041e3c2e56c76ce2560af57fb00000000000000000000000012ff8947a2524303c13ca7da9be4914381f6557a00000000000000000000000072846179ef1467b2b71f2bb7525fcd4450e46b2a000000000000000000000000897da4d039f64090bfdb33cd2ed2da81add6fb02000000000000000000000000a7527c270f30cf3dafa6e82603b4978e1a8493590000000000000000000000006dbb5ee7c63775013faf810527dbede2810d7aee",
          "blockHash": "0xab8f964a4bd5084bcce28d12f020fc7a184145242a8dedbcc3dff055350c2b88",
          "blockNumber": "0x3d58f",
          "transactionHash": "0xa4f375d0368b87d8cafef1a75e27ee5a06ac4e7f9a0b55a54a9e0627651295fc",
          "transactionIndex": "0x1",
          "logIndex": "0x1",
          "removed": false
        },
        {
          "address": "0x2843c269d2a64ecfa63548e8b3fc0fd23b7f70cb",
          "topics": [
            "0x49628fd1471006c1482da88028e9ce4dbb080b815c9b0344d39e5a8e6ec1419f",
            "0x8296b4e35a8e4618a195727d1c9093de8d060baf206fbf3fb7ed40a5dbbf27e5",
            "0x0000000000000000000000002e2b1c42e38f5af81771e65d87729e57abd1337a",
            "0x0000000000000000000000000000000000000000000000000000000000000000"
          ],
          "data": "0x0000000000000000000000000000000000000000000000000000000000000e9f000000000000000000000000000000000000000000000000000000000000000100000000000000000000000000000000000000000000000000000000000d6bcb00000000000000000000000000000000000000000000000000000000000d6bcb",
          "blockHash": "0xab8f964a4bd5084bcce28d12f020fc7a184145242a8dedbcc3dff055350c2b88",
          "blockNumber": "0x3d58f",
          "transactionHash": "0xa4f375d0368b87d8cafef1a75e27ee5a06ac4e7f9a0b55a54a9e0627651295fc",
          "transactionIndex": "0x1",
          "logIndex": "0x2",
          "removed": false
        }
      ],
      "logsBloom": "0x00000008000000000000000000000000000000000000000000000000000000000008000000000000000000010000000000000000000000400000020000000000000000000000000000000000000000000000000000000000000000000008000800000000020000000000000000000800002000000000000000000000000000000000000000000000000000000000800000000000000000800000080000000000000400000000000000400000000000000000000000000000000002000000000000000000000000100001000000000000000000010000000800000000000020000000000000010000000200000800000000000000000000001000000080000000",
      "type": "0x2",
      "transactionHash": "0xa4f375d0368b87d8cafef1a75e27ee5a06ac4e7f9a0b55a54a9e0627651295fc",
      "transactionIndex": "0x1",
      "blockHash": "0xab8f964a4bd5084bcce28d12f020fc7a184145242a8dedbcc3dff055350c2b88",
      "blockNumber": "0x3d58f",
      "gasUsed": "0x116e50",
      "effectiveGasPrice": "0x5f5e100",
      "from": "0x660ad4b5a74130a4796b4d54bc6750ae93c86e6c",
      "to": "0x2843c269d2a64ecfa63548e8b3fc0fd23b7f70cb",
      "contractAddress": null,
      "gasUsedForL1": "0x90a69",
      "l1BlockNumber": "0x142e0cd"
    }
  ],
  "libraries": [],
  "pending": [],
  "returns": {},
  "timestamp": 1731276296,
  "chain": 7887,
  "commit": "850d688"
}