{
  "transactions": [
    {
      "hash": "0xb66c06bd53c992d5316896875ee2daad2b92b6609deb19aaf45dbf41f159106f",
      "transactionType": "CALL",
      "contractName": null,
      "contractAddress": "0x2843c269d2a64ecfa63548e8b3fc0fd23b7f70cb",
      "function": "handleOps((address,uint256,bytes,bytes,uint256,uint256,uint256,uint256,uint256,bytes,bytes)[],address)",
      "arguments": [
        "[(0x2e2B1c42E38f5af81771e65D87729E57ABD1337a, 3822, 0x, 0xb61d27f60000000000000000000000005a2b641b84b0230c8e75f55d5afd27f4dbd59d5b0000000000000000000000000000000000000000000000000000000000000000000000000000000000000000000000000000000000000000000000000000006000000000000000000000000000000000000000000000000000000000000000a4db9e99080000000000000000000000003e9727470c66b1e77034590926cde0242b5a3dcc00000000000000000000000000000000000000000000000000000000000000400000000000000000000000000000000000000000000000000000000000000002000000000000000000000000d0d4cdb49dda0f9b4785b3823eedaa84b84afad900000000000000000000000004481a364acfd0776a30a6731d9ee5425b9300ea00000000000000000000000000000000000000000000000000000000, 4000000, 210000, 21000, 1, 1000000000, 0x0000000000000000000000000000000000000000, 0x264afd0325da5031140678b9cde3a0c0543e7757a7a5bb644e401a1afb5c14514d8e3e988cee2721cfeb2670e9e9d58fb2825ae7ff5836c0375fafd6826299d31bca84b3f51760eb52b62a3f64b14feb138fcdc6c51f2fc145a044a257b41f7c5872dcf2ad9c5677405f72a1d04e571b8092bf1eb57d8aa2e13fbc49641688f3881b)]",
        "0x660ad4B5A74130a4796B4d54BC6750Ae93C86e6c"
      ],
      "transaction": {
        "from": "0x660ad4b5a74130a4796b4d54bc6750ae93c86e6c",
        "to": "0x2843c269d2a64ecfa63548e8b3fc0fd23b7f70cb",
        "value": "0x0",
        "input": "0x1fad948c0000000000000000000000000000000000000000000000000000000000000040000000000000000000000000660ad4b5a74130a4796b4d54bc6750ae93c86e6c000000000000000000000000000000000000000000000000000000000000000100000000000000000000000000000000000000000000000000000000000000200000000000000000000000002e2b1c42e38f5af81771e65d87729e57abd1337a0000000000000000000000000000000000000000000000000000000000000eee0000000000000000000000000000000000000000000000000000000000000160000000000000000000000000000000000000000000000000000000000000018000000000000000000000000000000000000000000000000000000000003d0900000000000000000000000000000000000000000000000000000000000003345000000000000000000000000000000000000000000000000000000000000052080000000000000000000000000000000000000000000000000000000000000001000000000000000000000000000000000000000000000000000000003b9aca000000000000000000000000000000000000000000000000000000000000000300000000000000000000000000000000000000000000000000000000000000034000000000000000000000000000000000000000000000000000000000000000000000000000000000000000000000000000000000000000000000000000000144b61d27f60000000000000000000000005a2b641b84b0230c8e75f55d5afd27f4dbd59d5b0000000000000000000000000000000000000000000000000000000000000000000000000000000000000000000000000000000000000000000000000000006000000000000000000000000000000000000000000000000000000000000000a4db9e99080000000000000000000000003e9727470c66b1e77034590926cde0242b5a3dcc00000000000000000000000000000000000000000000000000000000000000400000000000000000000000000000000000000000000000000000000000000002000000000000000000000000d0d4cdb49dda0f9b4785b3823eedaa84b84afad900000000000000000000000004481a364acfd0776a30a6731d9ee5425b9300ea0000000000000000000000000000000000000000000000000000000000000000000000000000000000000000000000000000000000000000000000000000000000000000000000000000000000000000000000000000001400000000000000000000000000000000000000000000000000000000000000000000000000000000000000000000000000000000000000000000000000000082264afd0325da5031140678b9cde3a0c0543e7757a7a5bb644e401a1afb5c14514d8e3e988cee2721cfeb2670e9e9d58fb2825ae7ff5836c0375fafd6826299d31bca84b3f51760eb52b62a3f64b14feb138fcdc6c51f2fc145a044a257b41f7c5872dcf2ad9c5677405f72a1d04e571b8092bf1eb57d8aa2e13fbc49641688f3881b000000000000000000000000000000000000000000000000000000000000",
        "nonce": "0x4b7e6",
        "chainId": "0x1ecf"
      },
      "additionalContracts": [],
      "isFixedGasLimit": false
    }
  ],
  "receipts": [
    {
      "status": "0x1",
      "cumulativeGasUsed": "0xbe071",
      "logs": [
        {
          "address": "0x2843c269d2a64ecfa63548e8b3fc0fd23b7f70cb",
          "topics": [
            "0xbb47ee3e183a558b1a2ff0874b079f3fc5478b7454eacf2bfc5af2ff5878f972"
          ],
          "data": "0x",
          "blockHash": "0x6ad3f304e62972818b29f49898758032256666aee368021a03c3ac7e59749d65",
          "blockNumber": "0x83de7",
          "transactionHash": "0xb66c06bd53c992d5316896875ee2daad2b92b6609deb19aaf45dbf41f159106f",
          "transactionIndex": "0x1",
          "logIndex": "0x0",
          "removed": false
        },
        {
          "address": "0x5a2b641b84b0230c8e75f55d5afd27f4dbd59d5b",
          "topics": [
            "0x5ed922fe11a834df4ad0556e8f265179bbe61f057f4808eab4c3b6542b621260",
            "0x0000000000000000000000003e9727470c66b1e77034590926cde0242b5a3dcc"
          ],
          "data": "0x00000000000000000000000000000000000000000000000000000000000000200000000000000000000000000000000000000000000000000000000000000002000000000000000000000000d0d4cdb49dda0f9b4785b3823eedaa84b84afad900000000000000000000000004481a364acfd0776a30a6731d9ee5425b9300ea",
          "blockHash": "0x6ad3f304e62972818b29f49898758032256666aee368021a03c3ac7e59749d65",
          "blockNumber": "0x83de7",
          "transactionHash": "0xb66c06bd53c992d5316896875ee2daad2b92b6609deb19aaf45dbf41f159106f",
          "transactionIndex": "0x1",
          "logIndex": "0x1",
          "removed": false
        },
        {
          "address": "0x2843c269d2a64ecfa63548e8b3fc0fd23b7f70cb",
          "topics": [
            "0x49628fd1471006c1482da88028e9ce4dbb080b815c9b0344d39e5a8e6ec1419f",
            "0xb235953e79b1ca2091e460175426eca16bea7abf08e2f5cd46315d560be74f05",
            "0x0000000000000000000000002e2b1c42e38f5af81771e65d87729e57abd1337a",
            "0x0000000000000000000000000000000000000000000000000000000000000000"
          ],
          "data": "0x0000000000000000000000000000000000000000000000000000000000000eee0000000000000000000000000000000000000000000000000000000000000001000000000000000000000000000000000000000000000000000000000009b5ff000000000000000000000000000000000000000000000000000000000009b5ff",
          "blockHash": "0x6ad3f304e62972818b29f49898758032256666aee368021a03c3ac7e59749d65",
          "blockNumber": "0x83de7",
          "transactionHash": "0xb66c06bd53c992d5316896875ee2daad2b92b6609deb19aaf45dbf41f159106f",
          "transactionIndex": "0x1",
          "logIndex": "0x2",
          "removed": false
        }
      ],
      "logsBloom": "0x00000000000000000000000000000000000000000000000000000000000000000008000000000000000000010000000000000000000000000000020000000000000000000000000000000000000000000000000000000010000000000008000800000000020000001000000000000800002000000000000000000000000000000000000000000000000000000000800000000000000000800000080000000000000400000000000000400000000000000000000000000000000002000000000000000000000000100001000000000000000000010000000800000000000020000000000000010000000202000000000000000000000000001000000080000000",
      "type": "0x2",
      "transactionHash": "0xb66c06bd53c992d5316896875ee2daad2b92b6609deb19aaf45dbf41f159106f",
      "transactionIndex": "0x1",
      "blockHash": "0x6ad3f304e62972818b29f49898758032256666aee368021a03c3ac7e59749d65",
      "blockNumber": "0x83de7",
      "gasUsed": "0xbe071",
      "effectiveGasPrice": "0x5f5e100",
      "from": "0x660ad4b5a74130a4796b4d54bc6750ae93c86e6c",
      "to": "0x2843c269d2a64ecfa63548e8b3fc0fd23b7f70cb",
      "contractAddress": null,
      "gasUsedForL1": "0x7a350",
      "l1BlockNumber": "0x14410df"
    }
  ],
  "libraries": [],
  "pending": [],
  "returns": {},
  "timestamp": 1732214758,
  "chain": 7887,
  "commit": "8f2ea4e"
}