{
  "transactions": [
    {
      "hash": "0xcc2f6fcb18b546d6220233e3810064a2df15106dfd5049a7e491ec28952400fe",
      "transactionType": "CALL",
      "contractName": null,
      "contractAddress": "0x2843c269d2a64ecfa63548e8b3fc0fd23b7f70cb",
      "function": "handleOps((address,uint256,bytes,bytes,uint256,uint256,uint256,uint256,uint256,bytes,bytes)[],address)",
      "arguments": [
        "[(0x2e2B1c42E38f5af81771e65D87729E57ABD1337a, 4871, 0x, 0xb61d27f60000000000000000000000005a2b641b84b0230c8e75f55d5afd27f4dbd59d5b000000000000000000000000000000000000000000000000000000000000000000000000000000000000000000000000000000000000000000000000000000600000000000000000000000000000000000000000000000000000000000000084db9e9908000000000000000000000000d157904639e89df05e89e0dabeec99ae3d74f9aa000000000000000000000000000000000000000000000000000000000000004000000000000000000000000000000000000000000000000000000000000000010000000000000000000000006033b0fe6c23e6d160ab8a0381e4666e6978d32500000000000000000000000000000000000000000000000000000000, 4000000, 210000, 21000, 1, 1000000000, 0x0000000000000000000000000000000000000000, 0x3dfff19597eec5ab03928fa9193a4d506442cac181c95f311f8b5dbb12828b9034e2bd08e0bd5795d63ca0016bad93f92b906c1b280d6274c13f70802cc8e9531ce4eaf1c63a0fc22769de3886b8f649b634f974adb99bd37ab55c8835a991a1360575207d8b5fa6f2c714220c7b1f876ad8f14fcea687fad2bc3030f2048e17721c)]",
        "0x660ad4B5A74130a4796B4d54BC6750Ae93C86e6c"
      ],
      "transaction": {
        "from": "0x660ad4b5a74130a4796b4d54bc6750ae93c86e6c",
        "to": "0x2843c269d2a64ecfa63548e8b3fc0fd23b7f70cb",
        "value": "0x0",
        "input": "0x1fad948c0000000000000000000000000000000000000000000000000000000000000040000000000000000000000000660ad4b5a74130a4796b4d54bc6750ae93c86e6c000000000000000000000000000000000000000000000000000000000000000100000000000000000000000000000000000000000000000000000000000000200000000000000000000000002e2b1c42e38f5af81771e65d87729e57abd1337a00000000000000000000000000000000000000000000000000000000000013070000000000000000000000000000000000000000000000000000000000000160000000000000000000000000000000000000000000000000000000000000018000000000000000000000000000000000000000000000000000000000003d0900000000000000000000000000000000000000000000000000000000000003345000000000000000000000000000000000000000000000000000000000000052080000000000000000000000000000000000000000000000000000000000000001000000000000000000000000000000000000000000000000000000003b9aca0000000000000000000000000000000000000000000000000000000000000002e0000000000000000000000000000000000000000000000000000000000000032000000000000000000000000000000000000000000000000000000000000000000000000000000000000000000000000000000000000000000000000000000124b61d27f60000000000000000000000005a2b641b84b0230c8e75f55d5afd27f4dbd59d5b000000000000000000000000000000000000000000000000000000000000000000000000000000000000000000000000000000000000000000000000000000600000000000000000000000000000000000000000000000000000000000000084db9e9908000000000000000000000000d157904639e89df05e89e0dabeec99ae3d74f9aa000000000000000000000000000000000000000000000000000000000000004000000000000000000000000000000000000000000000000000000000000000010000000000000000000000006033b0fe6c23e6d160ab8a0381e4666e6978d32500000000000000000000000000000000000000000000000000000000000000000000000000000000000000000000000000000000000000000000000000000000000000000000000000000000000000000000000000000014000000000000000000000000000000000000000000000000000000000000000000000000000000000000000000000000000000000000000000000000000000823dfff19597eec5ab03928fa9193a4d506442cac181c95f311f8b5dbb12828b9034e2bd08e0bd5795d63ca0016bad93f92b906c1b280d6274c13f70802cc8e9531ce4eaf1c63a0fc22769de3886b8f649b634f974adb99bd37ab55c8835a991a1360575207d8b5fa6f2c714220c7b1f876ad8f14fcea687fad2bc3030f2048e17721c000000000000000000000000000000000000000000000000000000000000",
        "nonce": "0x4beb5",
        "chainId": "0x1ecf"
      },
      "additionalContracts": [],
      "isFixedGasLimit": false
    }
  ],
  "receipts": [
    {
      "status": "0x1",
      "cumulativeGasUsed": "0x4225a",
      "logs": [
        {
          "address": "0x2843c269d2a64ecfa63548e8b3fc0fd23b7f70cb",
          "topics": [
            "0xbb47ee3e183a558b1a2ff0874b079f3fc5478b7454eacf2bfc5af2ff5878f972"
          ],
          "data": "0x",
          "blockHash": "0x7f70c81d4f18326295dd94dd0d186e29e98071decc0a46ac3cc498260503c6ef",
          "blockNumber": "0xcfb89",
          "transactionHash": "0xcc2f6fcb18b546d6220233e3810064a2df15106dfd5049a7e491ec28952400fe",
          "transactionIndex": "0x1",
          "logIndex": "0x0",
          "removed": false
        },
        {
          "address": "0x5a2b641b84b0230c8e75f55d5afd27f4dbd59d5b",
          "topics": [
            "0x5ed922fe11a834df4ad0556e8f265179bbe61f057f4808eab4c3b6542b621260",
            "0x000000000000000000000000d157904639e89df05e89e0dabeec99ae3d74f9aa"
          ],
          "data": "0x000000000000000000000000000000000000000000000000000000000000002000000000000000000000000000000000000000000000000000000000000000010000000000000000000000006033b0fe6c23e6d160ab8a0381e4666e6978d325",
          "blockHash": "0x7f70c81d4f18326295dd94dd0d186e29e98071decc0a46ac3cc498260503c6ef",
          "blockNumber": "0xcfb89",
          "transactionHash": "0xcc2f6fcb18b546d6220233e3810064a2df15106dfd5049a7e491ec28952400fe",
          "transactionIndex": "0x1",
          "logIndex": "0x1",
          "removed": false
        },
        {
          "address": "0x2843c269d2a64ecfa63548e8b3fc0fd23b7f70cb",
          "topics": [
            "0x49628fd1471006c1482da88028e9ce4dbb080b815c9b0344d39e5a8e6ec1419f",
            "0x5b71b645df7499649f303eefe696d4f4157ba642968e161bed8aba5a1164baee",
            "0x0000000000000000000000002e2b1c42e38f5af81771e65d87729e57abd1337a",
            "0x0000000000000000000000000000000000000000000000000000000000000000"
          ],
          "data": "0x00000000000000000000000000000000000000000000000000000000000013070000000000000000000000000000000000000000000000000000000000000001000000000000000000000000000000000000000000000000000000000008f816000000000000000000000000000000000000000000000000000000000008f816",
          "blockHash": "0x7f70c81d4f18326295dd94dd0d186e29e98071decc0a46ac3cc498260503c6ef",
          "blockNumber": "0xcfb89",
          "transactionHash": "0xcc2f6fcb18b546d6220233e3810064a2df15106dfd5049a7e491ec28952400fe",
          "transactionIndex": "0x1",
          "logIndex": "0x2",
          "removed": false
        }
      ],
      "logsBloom": "0x00002000000000000000000000000000000000000000000000000000800001800008000000000000000000010000000000000000000000000000020000000000000000000000000000000000000000000000000000000000000000000008000800000000020000000000000000000800002000000000000000000000000000000000000000000000000000000000800000000000000000800000000000000000000408000000000000400000000000000000000000000000000002000000000000000000000000100001000000000000000000000000000800000000000020000000000000010000000200000000000000000000000000001000000080000800",
      "type": "0x2",
      "transactionHash": "0xcc2f6fcb18b546d6220233e3810064a2df15106dfd5049a7e491ec28952400fe",
      "transactionIndex": "0x1",
      "blockHash": "0x7f70c81d4f18326295dd94dd0d186e29e98071decc0a46ac3cc498260503c6ef",
      "blockNumber": "0xcfb89",
      "gasUsed": "0x4225a",
      "effectiveGasPrice": "0x5f5e100",
      "from": "0x660ad4b5a74130a4796b4d54bc6750ae93c86e6c",
      "to": "0x2843c269d2a64ecfa63548e8b3fc0fd23b7f70cb",
      "contractAddress": null,
      "gasUsedForL1": "0xb99d",
      "l1BlockNumber": "0x156323d"
    }
  ],
  "libraries": [],
  "pending": [],
  "returns": {},
  "timestamp": 1746552744,
  "chain": 7887,
  "commit": "bd635c8c"
}